{
	"Project/TechnoLime.sol": {
		"TechnoLimeStore": {
			"abi": [
				{
					"inputs": [],
					"stateMutability": "payable",
					"type": "constructor"
				},
				{
					"inputs": [],
					"name": "ItemIdWrongOrBoughtAlready",
					"type": "error"
				},
				{
					"inputs": [],
					"name": "LessThanPrice",
					"type": "error"
				},
				{
					"inputs": [],
					"name": "ProductExists",
					"type": "error"
				},
				{
					"inputs": [],
					"name": "ProductNotExistent",
					"type": "error"
				},
				{
					"inputs": [
						{
							"internalType": "string",
							"name": "productName",
							"type": "string"
						},
						{
							"internalType": "uint256",
							"name": "_price",
							"type": "uint256"
						},
						{
							"internalType": "uint256",
							"name": "_quantity",
							"type": "uint256"
						}
					],
					"name": "addNewProduct",
					"outputs": [],
					"stateMutability": "nonpayable",
					"type": "function"
				},
				{
					"inputs": [
						{
							"internalType": "uint256",
							"name": "",
							"type": "uint256"
						}
					],
					"name": "availableProducts",
					"outputs": [
						{
							"internalType": "string",
							"name": "",
							"type": "string"
						}
					],
					"stateMutability": "view",
					"type": "function"
				},
				{
					"inputs": [
						{
							"internalType": "uint256",
							"name": "ProductId",
							"type": "uint256"
						}
					],
					"name": "buyProduct",
					"outputs": [],
					"stateMutability": "payable",
					"type": "function"
				},
				{
					"inputs": [
						{
							"internalType": "uint256",
							"name": "ProductId",
							"type": "uint256"
						}
					],
					"name": "checkProductBuyers",
					"outputs": [
						{
							"internalType": "address[]",
							"name": "",
							"type": "address[]"
						}
					],
					"stateMutability": "view",
					"type": "function"
				},
				{
					"inputs": [
						{
							"internalType": "string",
							"name": "",
							"type": "string"
						}
					],
					"name": "products",
					"outputs": [
						{
							"internalType": "uint256",
							"name": "price",
							"type": "uint256"
						},
						{
							"internalType": "uint256",
							"name": "quantity",
							"type": "uint256"
						},
						{
							"internalType": "bool",
							"name": "exists",
							"type": "bool"
						}
					],
					"stateMutability": "view",
					"type": "function"
				},
				{
					"inputs": [
						{
							"internalType": "uint256",
							"name": "",
							"type": "uint256"
						},
						{
							"internalType": "address",
							"name": "",
							"type": "address"
						}
					],
					"name": "transactions",
					"outputs": [
						{
							"internalType": "uint256",
							"name": "blockNum",
							"type": "uint256"
						},
						{
							"internalType": "uint256",
							"name": "price",
							"type": "uint256"
						},
						{
							"internalType": "bool",
							"name": "exists",
							"type": "bool"
						}
					],
					"stateMutability": "view",
					"type": "function"
				},
				{
					"inputs": [
						{
							"internalType": "string",
							"name": "productName",
							"type": "string"
						},
						{
							"internalType": "uint256",
							"name": "_quantity",
							"type": "uint256"
						}
					],
					"name": "updateQuantity",
					"outputs": [],
					"stateMutability": "nonpayable",
					"type": "function"
				}
			],
			"devdoc": {
				"kind": "dev",
				"methods": {},
				"version": 1
			},
			"evm": {
				"assembly": "    /* \"Project/TechnoLime.sol\":98:3192  contract TechnoLimeStore {\r... */\n  mstore(0x40, 0x80)\n  dataSize(sub_0)\n  dup1\n  dataOffset(sub_0)\n  0x00\n  codecopy\n  0x00\n  return\nstop\n\nsub_0: assembly {\n        /* \"Project/TechnoLime.sol\":98:3192  contract TechnoLimeStore {\r... */\n      mstore(0x40, 0x80)\n      jumpi(tag_1, lt(calldatasize, 0x04))\n      shr(0xe0, calldataload(0x00))\n      dup1\n      0x74cbc350\n      gt\n      tag_9\n      jumpi\n      dup1\n      0x74cbc350\n      eq\n      tag_5\n      jumpi\n      dup1\n      0x74ce0ca9\n      eq\n      tag_6\n      jumpi\n      dup1\n      0x8642269e\n      eq\n      tag_7\n      jumpi\n      dup1\n      0xe4bcc7d4\n      eq\n      tag_8\n      jumpi\n      jump(tag_1)\n    tag_9:\n      dup1\n      0x0186a423\n      eq\n      tag_2\n      jumpi\n      dup1\n      0x0a5bd44b\n      eq\n      tag_3\n      jumpi\n      dup1\n      0x1d894eb8\n      eq\n      tag_4\n      jumpi\n    tag_1:\n      0x00\n      dup1\n      revert\n        /* \"Project/TechnoLime.sol\":381:423  mapping(string => Product) public products */\n    tag_2:\n      callvalue\n      dup1\n      iszero\n      tag_10\n      jumpi\n      0x00\n      dup1\n      revert\n    tag_10:\n      pop\n      tag_11\n      0x04\n      dup1\n      calldatasize\n      sub\n      dup2\n      add\n      swap1\n      tag_12\n      swap2\n      swap1\n      tag_13\n      jump\t// in\n    tag_12:\n      tag_14\n      jump\t// in\n    tag_11:\n      mload(0x40)\n      tag_15\n      swap4\n      swap3\n      swap2\n      swap1\n      tag_16\n      jump\t// in\n    tag_15:\n      mload(0x40)\n      dup1\n      swap2\n      sub\n      swap1\n      return\n        /* \"Project/TechnoLime.sol\":612:1200  function addNewProduct(string calldata productName, uint _price,uint _quantity) external{\r... */\n    tag_3:\n      callvalue\n      dup1\n      iszero\n      tag_17\n      jumpi\n      0x00\n      dup1\n      revert\n    tag_17:\n      pop\n      tag_18\n      0x04\n      dup1\n      calldatasize\n      sub\n      dup2\n      add\n      swap1\n      tag_19\n      swap2\n      swap1\n      tag_20\n      jump\t// in\n    tag_19:\n      tag_21\n      jump\t// in\n    tag_18:\n      stop\n        /* \"Project/TechnoLime.sol\":1208:1577  function updateQuantity(string calldata productName,uint _quantity) external{\r... */\n    tag_4:\n      callvalue\n      dup1\n      iszero\n      tag_22\n      jumpi\n      0x00\n      dup1\n      revert\n    tag_22:\n      pop\n      tag_23\n      0x04\n      dup1\n      calldatasize\n      sub\n      dup2\n      add\n      swap1\n      tag_24\n      swap2\n      swap1\n      tag_25\n      jump\t// in\n    tag_24:\n      tag_26\n      jump\t// in\n    tag_23:\n      stop\n        /* \"Project/TechnoLime.sol\":535:603  mapping(uint => mapping(address => Transaction)) public transactions */\n    tag_5:\n      callvalue\n      dup1\n      iszero\n      tag_27\n      jumpi\n      0x00\n      dup1\n      revert\n    tag_27:\n      pop\n      tag_28\n      0x04\n      dup1\n      calldatasize\n      sub\n      dup2\n      add\n      swap1\n      tag_29\n      swap2\n      swap1\n      tag_30\n      jump\t// in\n    tag_29:\n      tag_31\n      jump\t// in\n    tag_28:\n      mload(0x40)\n      tag_32\n      swap4\n      swap3\n      swap2\n      swap1\n      tag_16\n      jump\t// in\n    tag_32:\n      mload(0x40)\n      dup1\n      swap2\n      sub\n      swap1\n      return\n        /* \"Project/TechnoLime.sol\":2974:3183  function checkProductBuyers(uint ProductId) external view returns (address[]memory ){\r... */\n    tag_6:\n      callvalue\n      dup1\n      iszero\n      tag_33\n      jumpi\n      0x00\n      dup1\n      revert\n    tag_33:\n      pop\n      tag_34\n      0x04\n      dup1\n      calldatasize\n      sub\n      dup2\n      add\n      swap1\n      tag_35\n      swap2\n      swap1\n      tag_36\n      jump\t// in\n    tag_35:\n      tag_37\n      jump\t// in\n    tag_34:\n      mload(0x40)\n      tag_38\n      swap2\n      swap1\n      tag_39\n      jump\t// in\n    tag_38:\n      mload(0x40)\n      dup1\n      swap2\n      sub\n      swap1\n      return\n        /* \"Project/TechnoLime.sol\":1679:2966  function buyProduct (uint ProductId)  external payable { \r... */\n    tag_7:\n      tag_40\n      0x04\n      dup1\n      calldatasize\n      sub\n      dup2\n      add\n      swap1\n      tag_41\n      swap2\n      swap1\n      tag_36\n      jump\t// in\n    tag_41:\n      tag_42\n      jump\t// in\n    tag_40:\n      stop\n        /* \"Project/TechnoLime.sol\":341:374  string[] public availableProducts */\n    tag_8:\n      callvalue\n      dup1\n      iszero\n      tag_43\n      jumpi\n      0x00\n      dup1\n      revert\n    tag_43:\n      pop\n      tag_44\n      0x04\n      dup1\n      calldatasize\n      sub\n      dup2\n      add\n      swap1\n      tag_45\n      swap2\n      swap1\n      tag_36\n      jump\t// in\n    tag_45:\n      tag_46\n      jump\t// in\n    tag_44:\n      mload(0x40)\n      tag_47\n      swap2\n      swap1\n      tag_48\n      jump\t// in\n    tag_47:\n      mload(0x40)\n      dup1\n      swap2\n      sub\n      swap1\n      return\n        /* \"Project/TechnoLime.sol\":381:423  mapping(string => Product) public products */\n    tag_14:\n      0x01\n      dup2\n      dup1\n      mload\n      0x20\n      dup2\n      add\n      dup3\n      add\n      dup1\n      mload\n      dup5\n      dup3\n      mstore\n      0x20\n      dup4\n      add\n      0x20\n      dup6\n      add\n      keccak256\n      dup2\n      dup4\n      mstore\n      dup1\n      swap6\n      pop\n      pop\n      pop\n      pop\n      pop\n      pop\n      0x00\n      swap2\n      pop\n      swap1\n      pop\n      dup1\n      0x00\n      add\n      sload\n      swap1\n      dup1\n      0x01\n      add\n      sload\n      swap1\n      dup1\n      0x03\n      add\n      0x00\n      swap1\n      sload\n      swap1\n      0x0100\n      exp\n      swap1\n      div\n      0xff\n      and\n      swap1\n      pop\n      dup4\n      jump\t// out\n        /* \"Project/TechnoLime.sol\":612:1200  function addNewProduct(string calldata productName, uint _price,uint _quantity) external{\r... */\n    tag_21:\n        /* \"Project/TechnoLime.sol\":717:725  products */\n      0x01\n        /* \"Project/TechnoLime.sol\":726:737  productName */\n      dup5\n      dup5\n        /* \"Project/TechnoLime.sol\":717:738  products[productName] */\n      mload(0x40)\n      tag_50\n      swap3\n      swap2\n      swap1\n      tag_51\n      jump\t// in\n    tag_50:\n      swap1\n      dup2\n      mstore\n      0x20\n      add\n      mload(0x40)\n      dup1\n      swap2\n      sub\n      swap1\n      keccak256\n        /* \"Project/TechnoLime.sol\":717:745  products[productName].exists */\n      0x03\n      add\n      0x00\n      swap1\n      sload\n      swap1\n      0x0100\n      exp\n      swap1\n      div\n      0xff\n      and\n        /* \"Project/TechnoLime.sol\":712:1183  if (!products[productName].exists){\r... */\n      tag_52\n      jumpi\n        /* \"Project/TechnoLime.sol\":762:784  Product memory product */\n      tag_53\n      tag_54\n      jump\t// in\n    tag_53:\n        /* \"Project/TechnoLime.sol\":816:822  _price */\n      dup3\n        /* \"Project/TechnoLime.sol\":800:807  product */\n      dup2\n        /* \"Project/TechnoLime.sol\":800:813  product.price */\n      0x00\n      add\n        /* \"Project/TechnoLime.sol\":800:822  product.price = _price */\n      dup2\n      dup2\n      mstore\n      pop\n      pop\n        /* \"Project/TechnoLime.sol\":857:866  _quantity */\n      dup2\n        /* \"Project/TechnoLime.sol\":838:845  product */\n      dup2\n        /* \"Project/TechnoLime.sol\":838:854  product.quantity */\n      0x20\n      add\n        /* \"Project/TechnoLime.sol\":838:866  product.quantity = _quantity */\n      dup2\n      dup2\n      mstore\n      pop\n      pop\n        /* \"Project/TechnoLime.sol\":899:903  true */\n      0x01\n        /* \"Project/TechnoLime.sol\":882:889  product */\n      dup2\n        /* \"Project/TechnoLime.sol\":882:896  product.exists */\n      0x60\n      add\n        /* \"Project/TechnoLime.sol\":882:903  product.exists = true */\n      swap1\n      iszero\n      iszero\n      swap1\n      dup2\n      iszero\n      iszero\n      dup2\n      mstore\n      pop\n      pop\n        /* \"Project/TechnoLime.sol\":943:950  product */\n      dup1\n        /* \"Project/TechnoLime.sol\":919:927  products */\n      0x01\n        /* \"Project/TechnoLime.sol\":928:939  productName */\n      dup7\n      dup7\n        /* \"Project/TechnoLime.sol\":919:940  products[productName] */\n      mload(0x40)\n      tag_55\n      swap3\n      swap2\n      swap1\n      tag_51\n      jump\t// in\n    tag_55:\n      swap1\n      dup2\n      mstore\n      0x20\n      add\n      mload(0x40)\n      dup1\n      swap2\n      sub\n      swap1\n      keccak256\n        /* \"Project/TechnoLime.sol\":919:950  products[productName] = product */\n      0x00\n      dup3\n      add\n      mload\n      dup2\n      0x00\n      add\n      sstore\n      0x20\n      dup3\n      add\n      mload\n      dup2\n      0x01\n      add\n      sstore\n      0x40\n      dup3\n      add\n      mload\n      dup2\n      0x02\n      add\n      swap1\n      dup1\n      mload\n      swap1\n      0x20\n      add\n      swap1\n      tag_56\n      swap3\n      swap2\n      swap1\n      tag_57\n      jump\t// in\n    tag_56:\n      pop\n      0x60\n      dup3\n      add\n      mload\n      dup2\n      0x03\n      add\n      exp(0x0100, 0x00)\n      dup2\n      sload\n      dup2\n      0xff\n      mul\n      not\n      and\n      swap1\n      dup4\n      iszero\n      iszero\n      mul\n      or\n      swap1\n      sstore\n      pop\n      swap1\n      pop\n      pop\n        /* \"Project/TechnoLime.sol\":966:983  availableProducts */\n      0x00\n        /* \"Project/TechnoLime.sol\":989:1000  productName */\n      dup6\n      dup6\n        /* \"Project/TechnoLime.sol\":966:1001  availableProducts.push(productName) */\n      swap1\n      swap2\n      dup1\n      0x01\n      dup2\n      sload\n      add\n      dup1\n      dup3\n      sstore\n      dup1\n      swap2\n      pop\n      pop\n      0x01\n      swap1\n      sub\n      swap1\n      0x00\n      mstore\n      keccak256(0x00, 0x20)\n      add\n      0x00\n      swap1\n      swap2\n      swap3\n      swap1\n      swap2\n      swap3\n      swap1\n      swap2\n      swap3\n      swap1\n      swap2\n      swap3\n      pop\n      swap2\n      swap1\n      tag_59\n      swap3\n      swap2\n      swap1\n      tag_60\n      jump\t// in\n    tag_59:\n      pop\n        /* \"Project/TechnoLime.sol\":746:1014  {\r... */\n      pop\n        /* \"Project/TechnoLime.sol\":712:1183  if (!products[productName].exists){\r... */\n      jump(tag_61)\n    tag_52:\n        /* \"Project/TechnoLime.sol\":1148:1170  Errors.ProductExists() */\n      mload(0x40)\n      0xb185df3a00000000000000000000000000000000000000000000000000000000\n      dup2\n      mstore\n      0x04\n      add\n      mload(0x40)\n      dup1\n      swap2\n      sub\n      swap1\n      revert\n        /* \"Project/TechnoLime.sol\":712:1183  if (!products[productName].exists){\r... */\n    tag_61:\n        /* \"Project/TechnoLime.sol\":612:1200  function addNewProduct(string calldata productName, uint _price,uint _quantity) external{\r... */\n      pop\n      pop\n      pop\n      pop\n      jump\t// out\n        /* \"Project/TechnoLime.sol\":1208:1577  function updateQuantity(string calldata productName,uint _quantity) external{\r... */\n    tag_26:\n        /* \"Project/TechnoLime.sol\":1299:1307  products */\n      0x01\n        /* \"Project/TechnoLime.sol\":1308:1319  productName */\n      dup4\n      dup4\n        /* \"Project/TechnoLime.sol\":1299:1320  products[productName] */\n      mload(0x40)\n      tag_63\n      swap3\n      swap2\n      swap1\n      tag_51\n      jump\t// in\n    tag_63:\n      swap1\n      dup2\n      mstore\n      0x20\n      add\n      mload(0x40)\n      dup1\n      swap2\n      sub\n      swap1\n      keccak256\n        /* \"Project/TechnoLime.sol\":1299:1327  products[productName].exists */\n      0x03\n      add\n      0x00\n      swap1\n      sload\n      swap1\n      0x0100\n      exp\n      swap1\n      div\n      0xff\n      and\n        /* \"Project/TechnoLime.sol\":1295:1570  if (products[productName].exists){\r... */\n      iszero\n      tag_64\n      jumpi\n        /* \"Project/TechnoLime.sol\":1377:1386  _quantity */\n      dup1\n        /* \"Project/TechnoLime.sol\":1343:1351  products */\n      0x01\n        /* \"Project/TechnoLime.sol\":1352:1363  productName */\n      dup5\n      dup5\n        /* \"Project/TechnoLime.sol\":1343:1364  products[productName] */\n      mload(0x40)\n      tag_65\n      swap3\n      swap2\n      swap1\n      tag_51\n      jump\t// in\n    tag_65:\n      swap1\n      dup2\n      mstore\n      0x20\n      add\n      mload(0x40)\n      dup1\n      swap2\n      sub\n      swap1\n      keccak256\n        /* \"Project/TechnoLime.sol\":1343:1373  products[productName].quantity */\n      0x01\n      add\n      0x00\n        /* \"Project/TechnoLime.sol\":1343:1386  products[productName].quantity += _quantity */\n      dup3\n      dup3\n      sload\n      tag_66\n      swap2\n      swap1\n      tag_67\n      jump\t// in\n    tag_66:\n      swap3\n      pop\n      pop\n      dup2\n      swap1\n      sstore\n      pop\n        /* \"Project/TechnoLime.sol\":1295:1570  if (products[productName].exists){\r... */\n      jump(tag_68)\n    tag_64:\n        /* \"Project/TechnoLime.sol\":1531:1558  Errors.ProductNotExistent() */\n      mload(0x40)\n      0x7e8d96a900000000000000000000000000000000000000000000000000000000\n      dup2\n      mstore\n      0x04\n      add\n      mload(0x40)\n      dup1\n      swap2\n      sub\n      swap1\n      revert\n        /* \"Project/TechnoLime.sol\":1295:1570  if (products[productName].exists){\r... */\n    tag_68:\n        /* \"Project/TechnoLime.sol\":1208:1577  function updateQuantity(string calldata productName,uint _quantity) external{\r... */\n      pop\n      pop\n      pop\n      jump\t// out\n        /* \"Project/TechnoLime.sol\":535:603  mapping(uint => mapping(address => Transaction)) public transactions */\n    tag_31:\n      mstore(0x20, 0x02)\n      dup2\n      0x00\n      mstore\n      mstore(0x20, keccak256(0x00, 0x40))\n      dup1\n      0x00\n      mstore\n      keccak256(0x00, 0x40)\n      0x00\n      swap2\n      pop\n      swap2\n      pop\n      pop\n      dup1\n      0x00\n      add\n      sload\n      swap1\n      dup1\n      0x01\n      add\n      sload\n      swap1\n      dup1\n      0x02\n      add\n      0x00\n      swap1\n      sload\n      swap1\n      0x0100\n      exp\n      swap1\n      div\n      0xff\n      and\n      swap1\n      pop\n      dup4\n      jump\t// out\n        /* \"Project/TechnoLime.sol\":2974:3183  function checkProductBuyers(uint ProductId) external view returns (address[]memory ){\r... */\n    tag_37:\n        /* \"Project/TechnoLime.sol\":3041:3056  address[]memory */\n      0x60\n        /* \"Project/TechnoLime.sol\":3084:3101  availableProducts */\n      0x00\n        /* \"Project/TechnoLime.sol\":3084:3108  availableProducts.length */\n      dup1\n      sload\n      swap1\n      pop\n        /* \"Project/TechnoLime.sol\":3072:3081  ProductId */\n      dup3\n        /* \"Project/TechnoLime.sol\":3072:3108  ProductId < availableProducts.length */\n      lt\n        /* \"Project/TechnoLime.sol\":3069:3175  if(ProductId < availableProducts.length)\r... */\n      iszero\n      tag_70\n      jumpi\n        /* \"Project/TechnoLime.sol\":3130:3138  products */\n      0x01\n        /* \"Project/TechnoLime.sol\":3139:3156  availableProducts */\n      0x00\n        /* \"Project/TechnoLime.sol\":3157:3166  ProductId */\n      dup4\n        /* \"Project/TechnoLime.sol\":3139:3167  availableProducts[ProductId] */\n      dup2\n      sload\n      dup2\n      lt\n      tag_71\n      jumpi\n      tag_72\n      tag_73\n      jump\t// in\n    tag_72:\n    tag_71:\n      swap1\n      0x00\n      mstore\n      keccak256(0x00, 0x20)\n      add\n        /* \"Project/TechnoLime.sol\":3130:3168  products[availableProducts[ProductId]] */\n      mload(0x40)\n      tag_75\n      swap2\n      swap1\n      tag_76\n      jump\t// in\n    tag_75:\n      swap1\n      dup2\n      mstore\n      0x20\n      add\n      mload(0x40)\n      dup1\n      swap2\n      sub\n      swap1\n      keccak256\n        /* \"Project/TechnoLime.sol\":3130:3175  products[availableProducts[ProductId]].buyers */\n      0x02\n      add\n        /* \"Project/TechnoLime.sol\":3123:3175  return products[availableProducts[ProductId]].buyers */\n      dup1\n      sload\n      dup1\n      0x20\n      mul\n      0x20\n      add\n      mload(0x40)\n      swap1\n      dup2\n      add\n      0x40\n      mstore\n      dup1\n      swap3\n      swap2\n      swap1\n      dup2\n      dup2\n      mstore\n      0x20\n      add\n      dup3\n      dup1\n      sload\n      dup1\n      iszero\n      tag_77\n      jumpi\n      0x20\n      mul\n      dup3\n      add\n      swap2\n      swap1\n      0x00\n      mstore\n      keccak256(0x00, 0x20)\n      swap1\n    tag_78:\n      dup2\n      0x00\n      swap1\n      sload\n      swap1\n      0x0100\n      exp\n      swap1\n      div\n      0xffffffffffffffffffffffffffffffffffffffff\n      and\n      0xffffffffffffffffffffffffffffffffffffffff\n      and\n      dup2\n      mstore\n      0x20\n      add\n      swap1\n      0x01\n      add\n      swap1\n      dup1\n      dup4\n      gt\n      tag_78\n      jumpi\n    tag_77:\n      pop\n      pop\n      pop\n      pop\n      pop\n      swap1\n      pop\n      jump(tag_69)\n        /* \"Project/TechnoLime.sol\":3069:3175  if(ProductId < availableProducts.length)\r... */\n    tag_70:\n        /* \"Project/TechnoLime.sol\":2974:3183  function checkProductBuyers(uint ProductId) external view returns (address[]memory ){\r... */\n    tag_69:\n      swap2\n      swap1\n      pop\n      jump\t// out\n        /* \"Project/TechnoLime.sol\":1679:2966  function buyProduct (uint ProductId)  external payable { \r... */\n    tag_42:\n        /* \"Project/TechnoLime.sol\":1845:1862  availableProducts */\n      0x00\n        /* \"Project/TechnoLime.sol\":1845:1869  availableProducts.length */\n      dup1\n      sload\n      swap1\n      pop\n        /* \"Project/TechnoLime.sol\":1833:1842  ProductId */\n      dup2\n        /* \"Project/TechnoLime.sol\":1833:1869  ProductId < availableProducts.length */\n      lt\n        /* \"Project/TechnoLime.sol\":1833:1916  ProductId < availableProducts.length && !transactions[ProductId][msg.sender].exists */\n      dup1\n      iszero\n      tag_80\n      jumpi\n      pop\n        /* \"Project/TechnoLime.sol\":1874:1886  transactions */\n      0x02\n        /* \"Project/TechnoLime.sol\":1874:1897  transactions[ProductId] */\n      0x00\n        /* \"Project/TechnoLime.sol\":1887:1896  ProductId */\n      dup3\n        /* \"Project/TechnoLime.sol\":1874:1897  transactions[ProductId] */\n      dup2\n      mstore\n      0x20\n      add\n      swap1\n      dup2\n      mstore\n      0x20\n      add\n      0x00\n      keccak256\n        /* \"Project/TechnoLime.sol\":1874:1909  transactions[ProductId][msg.sender] */\n      0x00\n        /* \"Project/TechnoLime.sol\":1898:1908  msg.sender */\n      caller\n        /* \"Project/TechnoLime.sol\":1874:1909  transactions[ProductId][msg.sender] */\n      0xffffffffffffffffffffffffffffffffffffffff\n      and\n      0xffffffffffffffffffffffffffffffffffffffff\n      and\n      dup2\n      mstore\n      0x20\n      add\n      swap1\n      dup2\n      mstore\n      0x20\n      add\n      0x00\n      keccak256\n        /* \"Project/TechnoLime.sol\":1874:1916  transactions[ProductId][msg.sender].exists */\n      0x02\n      add\n      0x00\n      swap1\n      sload\n      swap1\n      0x0100\n      exp\n      swap1\n      div\n      0xff\n      and\n        /* \"Project/TechnoLime.sol\":1873:1916  !transactions[ProductId][msg.sender].exists */\n      iszero\n        /* \"Project/TechnoLime.sol\":1833:1916  ProductId < availableProducts.length && !transactions[ProductId][msg.sender].exists */\n    tag_80:\n        /* \"Project/TechnoLime.sol\":1830:2938  if(ProductId < availableProducts.length && !transactions[ProductId][msg.sender].exists){\r... */\n      iszero\n      tag_81\n      jumpi\n        /* \"Project/TechnoLime.sol\":2069:2091  Product memory product */\n      0x00\n        /* \"Project/TechnoLime.sol\":2093:2101  products */\n      0x01\n        /* \"Project/TechnoLime.sol\":2102:2119  availableProducts */\n      0x00\n        /* \"Project/TechnoLime.sol\":2120:2129  ProductId */\n      dup4\n        /* \"Project/TechnoLime.sol\":2102:2130  availableProducts[ProductId] */\n      dup2\n      sload\n      dup2\n      lt\n      tag_82\n      jumpi\n      tag_83\n      tag_73\n      jump\t// in\n    tag_83:\n    tag_82:\n      swap1\n      0x00\n      mstore\n      keccak256(0x00, 0x20)\n      add\n        /* \"Project/TechnoLime.sol\":2093:2131  products[availableProducts[ProductId]] */\n      mload(0x40)\n      tag_85\n      swap2\n      swap1\n      tag_76\n      jump\t// in\n    tag_85:\n      swap1\n      dup2\n      mstore\n      0x20\n      add\n      mload(0x40)\n      dup1\n      swap2\n      sub\n      swap1\n      keccak256\n        /* \"Project/TechnoLime.sol\":2069:2131  Product memory product= products[availableProducts[ProductId]] */\n      mload(0x40)\n      dup1\n      0x80\n      add\n      0x40\n      mstore\n      swap1\n      dup2\n      0x00\n      dup3\n      add\n      sload\n      dup2\n      mstore\n      0x20\n      add\n      0x01\n      dup3\n      add\n      sload\n      dup2\n      mstore\n      0x20\n      add\n      0x02\n      dup3\n      add\n      dup1\n      sload\n      dup1\n      0x20\n      mul\n      0x20\n      add\n      mload(0x40)\n      swap1\n      dup2\n      add\n      0x40\n      mstore\n      dup1\n      swap3\n      swap2\n      swap1\n      dup2\n      dup2\n      mstore\n      0x20\n      add\n      dup3\n      dup1\n      sload\n      dup1\n      iszero\n      tag_86\n      jumpi\n      0x20\n      mul\n      dup3\n      add\n      swap2\n      swap1\n      0x00\n      mstore\n      keccak256(0x00, 0x20)\n      swap1\n    tag_87:\n      dup2\n      0x00\n      swap1\n      sload\n      swap1\n      0x0100\n      exp\n      swap1\n      div\n      0xffffffffffffffffffffffffffffffffffffffff\n      and\n      0xffffffffffffffffffffffffffffffffffffffff\n      and\n      dup2\n      mstore\n      0x20\n      add\n      swap1\n      0x01\n      add\n      swap1\n      dup1\n      dup4\n      gt\n      tag_87\n      jumpi\n    tag_86:\n      pop\n      pop\n      pop\n      pop\n      pop\n      dup2\n      mstore\n      0x20\n      add\n      0x03\n      dup3\n      add\n      0x00\n      swap1\n      sload\n      swap1\n      0x0100\n      exp\n      swap1\n      div\n      0xff\n      and\n      iszero\n      iszero\n      iszero\n      iszero\n      dup2\n      mstore\n      pop\n      pop\n      swap1\n      pop\n        /* \"Project/TechnoLime.sol\":2165:2172  product */\n      dup1\n        /* \"Project/TechnoLime.sol\":2165:2178  product.price */\n      0x00\n      add\n      mload\n        /* \"Project/TechnoLime.sol\":2153:2162  msg.value */\n      callvalue\n        /* \"Project/TechnoLime.sol\":2153:2178  msg.value < product.price */\n      lt\n        /* \"Project/TechnoLime.sol\":2150:2230  if(msg.value < product.price)\r... */\n      iszero\n      tag_88\n      jumpi\n        /* \"Project/TechnoLime.sol\":2208:2230  Errors.LessThanPrice() */\n      mload(0x40)\n      0x538d76e800000000000000000000000000000000000000000000000000000000\n      dup2\n      mstore\n      0x04\n      add\n      mload(0x40)\n      dup1\n      swap2\n      sub\n      swap1\n      revert\n        /* \"Project/TechnoLime.sol\":2150:2230  if(msg.value < product.price)\r... */\n    tag_88:\n        /* \"Project/TechnoLime.sol\":2251:2284  Transaction memory newTransaction */\n      tag_89\n      tag_90\n      jump\t// in\n    tag_89:\n        /* \"Project/TechnoLime.sol\":2329:2341  block.number */\n      number\n        /* \"Project/TechnoLime.sol\":2303:2317  newTransaction */\n      dup2\n        /* \"Project/TechnoLime.sol\":2303:2326  newTransaction.blockNum */\n      0x00\n      add\n        /* \"Project/TechnoLime.sol\":2303:2341  newTransaction.blockNum = block.number */\n      dup2\n      dup2\n      mstore\n      pop\n      pop\n        /* \"Project/TechnoLime.sol\":2383:2390  product */\n      dup2\n        /* \"Project/TechnoLime.sol\":2383:2396  product.price */\n      0x00\n      add\n      mload\n        /* \"Project/TechnoLime.sol\":2360:2374  newTransaction */\n      dup2\n        /* \"Project/TechnoLime.sol\":2360:2380  newTransaction.price */\n      0x20\n      add\n        /* \"Project/TechnoLime.sol\":2360:2396  newTransaction.price = product.price */\n      dup2\n      dup2\n      mstore\n      pop\n      pop\n        /* \"Project/TechnoLime.sol\":2439:2443  true */\n      0x01\n        /* \"Project/TechnoLime.sol\":2415:2429  newTransaction */\n      dup2\n        /* \"Project/TechnoLime.sol\":2415:2436  newTransaction.exists */\n      0x40\n      add\n        /* \"Project/TechnoLime.sol\":2415:2443  newTransaction.exists = true */\n      swap1\n      iszero\n      iszero\n      swap1\n      dup2\n      iszero\n      iszero\n      dup2\n      mstore\n      pop\n      pop\n        /* \"Project/TechnoLime.sol\":2536:2550  newTransaction */\n      dup1\n        /* \"Project/TechnoLime.sol\":2498:2510  transactions */\n      0x02\n        /* \"Project/TechnoLime.sol\":2498:2521  transactions[ProductId] */\n      0x00\n        /* \"Project/TechnoLime.sol\":2511:2520  ProductId */\n      dup6\n        /* \"Project/TechnoLime.sol\":2498:2521  transactions[ProductId] */\n      dup2\n      mstore\n      0x20\n      add\n      swap1\n      dup2\n      mstore\n      0x20\n      add\n      0x00\n      keccak256\n        /* \"Project/TechnoLime.sol\":2498:2533  transactions[ProductId][msg.sender] */\n      0x00\n        /* \"Project/TechnoLime.sol\":2522:2532  msg.sender */\n      caller\n        /* \"Project/TechnoLime.sol\":2498:2533  transactions[ProductId][msg.sender] */\n      0xffffffffffffffffffffffffffffffffffffffff\n      and\n      0xffffffffffffffffffffffffffffffffffffffff\n      and\n      dup2\n      mstore\n      0x20\n      add\n      swap1\n      dup2\n      mstore\n      0x20\n      add\n      0x00\n      keccak256\n        /* \"Project/TechnoLime.sol\":2498:2550  transactions[ProductId][msg.sender] = newTransaction */\n      0x00\n      dup3\n      add\n      mload\n      dup2\n      0x00\n      add\n      sstore\n      0x20\n      dup3\n      add\n      mload\n      dup2\n      0x01\n      add\n      sstore\n      0x40\n      dup3\n      add\n      mload\n      dup2\n      0x02\n      add\n      exp(0x0100, 0x00)\n      dup2\n      sload\n      dup2\n      0xff\n      mul\n      not\n      and\n      swap1\n      dup4\n      iszero\n      iszero\n      mul\n      or\n      swap1\n      sstore\n      pop\n      swap1\n      pop\n      pop\n        /* \"Project/TechnoLime.sol\":2571:2578  product */\n      dup2\n        /* \"Project/TechnoLime.sol\":2571:2587  product.quantity */\n      0x20\n      add\n        /* \"Project/TechnoLime.sol\":2571:2589  product.quantity-- */\n      dup1\n      mload\n      dup1\n      swap2\n      swap1\n      tag_91\n      swap1\n      tag_92\n      jump\t// in\n    tag_91:\n      dup2\n      mstore\n      pop\n      pop\n        /* \"Project/TechnoLime.sol\":2683:2690  product */\n      dup2\n        /* \"Project/TechnoLime.sol\":2644:2652  products */\n      0x01\n        /* \"Project/TechnoLime.sol\":2653:2670  availableProducts */\n      0x00\n        /* \"Project/TechnoLime.sol\":2671:2680  ProductId */\n      dup6\n        /* \"Project/TechnoLime.sol\":2653:2681  availableProducts[ProductId] */\n      dup2\n      sload\n      dup2\n      lt\n      tag_93\n      jumpi\n      tag_94\n      tag_73\n      jump\t// in\n    tag_94:\n    tag_93:\n      swap1\n      0x00\n      mstore\n      keccak256(0x00, 0x20)\n      add\n        /* \"Project/TechnoLime.sol\":2644:2682  products[availableProducts[ProductId]] */\n      mload(0x40)\n      tag_96\n      swap2\n      swap1\n      tag_76\n      jump\t// in\n    tag_96:\n      swap1\n      dup2\n      mstore\n      0x20\n      add\n      mload(0x40)\n      dup1\n      swap2\n      sub\n      swap1\n      keccak256\n        /* \"Project/TechnoLime.sol\":2644:2690  products[availableProducts[ProductId]]=product */\n      0x00\n      dup3\n      add\n      mload\n      dup2\n      0x00\n      add\n      sstore\n      0x20\n      dup3\n      add\n      mload\n      dup2\n      0x01\n      add\n      sstore\n      0x40\n      dup3\n      add\n      mload\n      dup2\n      0x02\n      add\n      swap1\n      dup1\n      mload\n      swap1\n      0x20\n      add\n      swap1\n      tag_97\n      swap3\n      swap2\n      swap1\n      tag_57\n      jump\t// in\n    tag_97:\n      pop\n      0x60\n      dup3\n      add\n      mload\n      dup2\n      0x03\n      add\n      exp(0x0100, 0x00)\n      dup2\n      sload\n      dup2\n      0xff\n      mul\n      not\n      and\n      swap1\n      dup4\n      iszero\n      iszero\n      mul\n      or\n      swap1\n      sstore\n      pop\n      swap1\n      pop\n      pop\n        /* \"Project/TechnoLime.sol\":2709:2717  products */\n      0x01\n        /* \"Project/TechnoLime.sol\":2718:2735  availableProducts */\n      0x00\n        /* \"Project/TechnoLime.sol\":2736:2745  ProductId */\n      dup5\n        /* \"Project/TechnoLime.sol\":2718:2746  availableProducts[ProductId] */\n      dup2\n      sload\n      dup2\n      lt\n      tag_98\n      jumpi\n      tag_99\n      tag_73\n      jump\t// in\n    tag_99:\n    tag_98:\n      swap1\n      0x00\n      mstore\n      keccak256(0x00, 0x20)\n      add\n        /* \"Project/TechnoLime.sol\":2709:2747  products[availableProducts[ProductId]] */\n      mload(0x40)\n      tag_101\n      swap2\n      swap1\n      tag_76\n      jump\t// in\n    tag_101:\n      swap1\n      dup2\n      mstore\n      0x20\n      add\n      mload(0x40)\n      dup1\n      swap2\n      sub\n      swap1\n      keccak256\n        /* \"Project/TechnoLime.sol\":2709:2754  products[availableProducts[ProductId]].buyers */\n      0x02\n      add\n        /* \"Project/TechnoLime.sol\":2760:2770  msg.sender */\n      caller\n        /* \"Project/TechnoLime.sol\":2709:2771  products[availableProducts[ProductId]].buyers.push(msg.sender) */\n      swap1\n      dup1\n      0x01\n      dup2\n      sload\n      add\n      dup1\n      dup3\n      sstore\n      dup1\n      swap2\n      pop\n      pop\n      0x01\n      swap1\n      sub\n      swap1\n      0x00\n      mstore\n      keccak256(0x00, 0x20)\n      add\n      0x00\n      swap1\n      swap2\n      swap1\n      swap2\n      swap1\n      swap2\n      0x0100\n      exp\n      dup2\n      sload\n      dup2\n      0xffffffffffffffffffffffffffffffffffffffff\n      mul\n      not\n      and\n      swap1\n      dup4\n      0xffffffffffffffffffffffffffffffffffffffff\n      and\n      mul\n      or\n      swap1\n      sstore\n      pop\n        /* \"Project/TechnoLime.sol\":1917:2789  {\r... */\n      pop\n      pop\n        /* \"Project/TechnoLime.sol\":1830:2938  if(ProductId < availableProducts.length && !transactions[ProductId][msg.sender].exists){\r... */\n      jump(tag_103)\n    tag_81:\n        /* \"Project/TechnoLime.sol\":2887:2922  Errors.ItemIdWrongOrBoughtAlready() */\n      mload(0x40)\n      0xd42c9b8b00000000000000000000000000000000000000000000000000000000\n      dup2\n      mstore\n      0x04\n      add\n      mload(0x40)\n      dup1\n      swap2\n      sub\n      swap1\n      revert\n        /* \"Project/TechnoLime.sol\":1830:2938  if(ProductId < availableProducts.length && !transactions[ProductId][msg.sender].exists){\r... */\n    tag_103:\n        /* \"Project/TechnoLime.sol\":1679:2966  function buyProduct (uint ProductId)  external payable { \r... */\n      pop\n      jump\t// out\n        /* \"Project/TechnoLime.sol\":341:374  string[] public availableProducts */\n    tag_46:\n      0x00\n      dup2\n      dup2\n      sload\n      dup2\n      lt\n      tag_104\n      jumpi\n      0x00\n      dup1\n      revert\n    tag_104:\n      swap1\n      0x00\n      mstore\n      keccak256(0x00, 0x20)\n      add\n      0x00\n      swap2\n      pop\n      swap1\n      pop\n      dup1\n      sload\n      tag_106\n      swap1\n      tag_107\n      jump\t// in\n    tag_106:\n      dup1\n      0x1f\n      add\n      0x20\n      dup1\n      swap2\n      div\n      mul\n      0x20\n      add\n      mload(0x40)\n      swap1\n      dup2\n      add\n      0x40\n      mstore\n      dup1\n      swap3\n      swap2\n      swap1\n      dup2\n      dup2\n      mstore\n      0x20\n      add\n      dup3\n      dup1\n      sload\n      tag_108\n      swap1\n      tag_107\n      jump\t// in\n    tag_108:\n      dup1\n      iszero\n      tag_109\n      jumpi\n      dup1\n      0x1f\n      lt\n      tag_110\n      jumpi\n      0x0100\n      dup1\n      dup4\n      sload\n      div\n      mul\n      dup4\n      mstore\n      swap2\n      0x20\n      add\n      swap2\n      jump(tag_109)\n    tag_110:\n      dup3\n      add\n      swap2\n      swap1\n      0x00\n      mstore\n      keccak256(0x00, 0x20)\n      swap1\n    tag_111:\n      dup2\n      sload\n      dup2\n      mstore\n      swap1\n      0x01\n      add\n      swap1\n      0x20\n      add\n      dup1\n      dup4\n      gt\n      tag_111\n      jumpi\n      dup3\n      swap1\n      sub\n      0x1f\n      and\n      dup3\n      add\n      swap2\n    tag_109:\n      pop\n      pop\n      pop\n      pop\n      pop\n      dup2\n      jump\t// out\n    tag_54:\n      mload(0x40)\n      dup1\n      0x80\n      add\n      0x40\n      mstore\n      dup1\n      0x00\n      dup2\n      mstore\n      0x20\n      add\n      0x00\n      dup2\n      mstore\n      0x20\n      add\n      0x60\n      dup2\n      mstore\n      0x20\n      add\n      iszero(iszero(0x00))\n      dup2\n      mstore\n      pop\n      swap1\n      jump\t// out\n    tag_57:\n      dup3\n      dup1\n      sload\n      dup3\n      dup3\n      sstore\n      swap1\n      0x00\n      mstore\n      keccak256(0x00, 0x20)\n      swap1\n      dup2\n      add\n      swap3\n      dup3\n      iszero\n      tag_112\n      jumpi\n      swap2\n      0x20\n      mul\n      dup3\n      add\n    tag_113:\n      dup3\n      dup2\n      gt\n      iszero\n      tag_114\n      jumpi\n      dup3\n      mload\n      dup3\n      exp(0x0100, 0x00)\n      dup2\n      sload\n      dup2\n      0xffffffffffffffffffffffffffffffffffffffff\n      mul\n      not\n      and\n      swap1\n      dup4\n      0xffffffffffffffffffffffffffffffffffffffff\n      and\n      mul\n      or\n      swap1\n      sstore\n      pop\n      swap2\n      0x20\n      add\n      swap2\n      swap1\n      0x01\n      add\n      swap1\n      jump(tag_113)\n    tag_114:\n    tag_112:\n      pop\n      swap1\n      pop\n      tag_115\n      swap2\n      swap1\n      tag_116\n      jump\t// in\n    tag_115:\n      pop\n      swap1\n      jump\t// out\n    tag_60:\n      dup3\n      dup1\n      sload\n      tag_117\n      swap1\n      tag_107\n      jump\t// in\n    tag_117:\n      swap1\n      0x00\n      mstore\n      keccak256(0x00, 0x20)\n      swap1\n      0x1f\n      add\n      0x20\n      swap1\n      div\n      dup2\n      add\n      swap3\n      dup3\n      tag_119\n      jumpi\n      0x00\n      dup6\n      sstore\n      jump(tag_118)\n    tag_119:\n      dup3\n      0x1f\n      lt\n      tag_120\n      jumpi\n      dup1\n      calldataload\n      not(0xff)\n      and\n      dup4\n      dup1\n      add\n      or\n      dup6\n      sstore\n      jump(tag_118)\n    tag_120:\n      dup3\n      dup1\n      add\n      0x01\n      add\n      dup6\n      sstore\n      dup3\n      iszero\n      tag_118\n      jumpi\n      swap2\n      dup3\n      add\n    tag_121:\n      dup3\n      dup2\n      gt\n      iszero\n      tag_122\n      jumpi\n      dup3\n      calldataload\n      dup3\n      sstore\n      swap2\n      0x20\n      add\n      swap2\n      swap1\n      0x01\n      add\n      swap1\n      jump(tag_121)\n    tag_122:\n    tag_118:\n      pop\n      swap1\n      pop\n      tag_123\n      swap2\n      swap1\n      tag_116\n      jump\t// in\n    tag_123:\n      pop\n      swap1\n      jump\t// out\n    tag_90:\n      mload(0x40)\n      dup1\n      0x60\n      add\n      0x40\n      mstore\n      dup1\n      0x00\n      dup2\n      mstore\n      0x20\n      add\n      0x00\n      dup2\n      mstore\n      0x20\n      add\n      iszero(iszero(0x00))\n      dup2\n      mstore\n      pop\n      swap1\n      jump\t// out\n    tag_116:\n    tag_124:\n      dup1\n      dup3\n      gt\n      iszero\n      tag_125\n      jumpi\n      0x00\n      dup2\n      0x00\n      swap1\n      sstore\n      pop\n      0x01\n      add\n      jump(tag_124)\n    tag_125:\n      pop\n      swap1\n      jump\t// out\n        /* \"#utility.yul\":7:419   */\n    tag_127:\n        /* \"#utility.yul\":85:90   */\n      0x00\n        /* \"#utility.yul\":110:176   */\n      tag_129\n        /* \"#utility.yul\":126:175   */\n      tag_130\n        /* \"#utility.yul\":168:174   */\n      dup5\n        /* \"#utility.yul\":126:175   */\n      tag_131\n      jump\t// in\n    tag_130:\n        /* \"#utility.yul\":110:176   */\n      tag_132\n      jump\t// in\n    tag_129:\n        /* \"#utility.yul\":101:176   */\n      swap1\n      pop\n        /* \"#utility.yul\":199:205   */\n      dup3\n        /* \"#utility.yul\":192:197   */\n      dup2\n        /* \"#utility.yul\":185:206   */\n      mstore\n        /* \"#utility.yul\":237:241   */\n      0x20\n        /* \"#utility.yul\":230:235   */\n      dup2\n        /* \"#utility.yul\":226:242   */\n      add\n        /* \"#utility.yul\":275:278   */\n      dup5\n        /* \"#utility.yul\":266:272   */\n      dup5\n        /* \"#utility.yul\":261:264   */\n      dup5\n        /* \"#utility.yul\":257:273   */\n      add\n        /* \"#utility.yul\":254:279   */\n      gt\n        /* \"#utility.yul\":251:363   */\n      iszero\n      tag_133\n      jumpi\n        /* \"#utility.yul\":282:361   */\n      tag_134\n      tag_135\n      jump\t// in\n    tag_134:\n        /* \"#utility.yul\":251:363   */\n    tag_133:\n        /* \"#utility.yul\":372:413   */\n      tag_136\n        /* \"#utility.yul\":406:412   */\n      dup5\n        /* \"#utility.yul\":401:404   */\n      dup3\n        /* \"#utility.yul\":396:399   */\n      dup6\n        /* \"#utility.yul\":372:413   */\n      tag_137\n      jump\t// in\n    tag_136:\n        /* \"#utility.yul\":91:419   */\n      pop\n        /* \"#utility.yul\":7:419   */\n      swap4\n      swap3\n      pop\n      pop\n      pop\n      jump\t// out\n        /* \"#utility.yul\":425:564   */\n    tag_138:\n        /* \"#utility.yul\":471:476   */\n      0x00\n        /* \"#utility.yul\":509:515   */\n      dup2\n        /* \"#utility.yul\":496:516   */\n      calldataload\n        /* \"#utility.yul\":487:516   */\n      swap1\n      pop\n        /* \"#utility.yul\":525:558   */\n      tag_140\n        /* \"#utility.yul\":552:557   */\n      dup2\n        /* \"#utility.yul\":525:558   */\n      tag_141\n      jump\t// in\n    tag_140:\n        /* \"#utility.yul\":425:564   */\n      swap3\n      swap2\n      pop\n      pop\n      jump\t// out\n        /* \"#utility.yul\":584:1137   */\n    tag_142:\n        /* \"#utility.yul\":642:650   */\n      0x00\n        /* \"#utility.yul\":652:658   */\n      dup1\n        /* \"#utility.yul\":702:705   */\n      dup4\n        /* \"#utility.yul\":695:699   */\n      0x1f\n        /* \"#utility.yul\":687:693   */\n      dup5\n        /* \"#utility.yul\":683:700   */\n      add\n        /* \"#utility.yul\":679:706   */\n      slt\n        /* \"#utility.yul\":669:791   */\n      tag_144\n      jumpi\n        /* \"#utility.yul\":710:789   */\n      tag_145\n      tag_146\n      jump\t// in\n    tag_145:\n        /* \"#utility.yul\":669:791   */\n    tag_144:\n        /* \"#utility.yul\":823:829   */\n      dup3\n        /* \"#utility.yul\":810:830   */\n      calldataload\n        /* \"#utility.yul\":800:830   */\n      swap1\n      pop\n        /* \"#utility.yul\":853:871   */\n      0xffffffffffffffff\n        /* \"#utility.yul\":845:851   */\n      dup2\n        /* \"#utility.yul\":842:872   */\n      gt\n        /* \"#utility.yul\":839:956   */\n      iszero\n      tag_147\n      jumpi\n        /* \"#utility.yul\":875:954   */\n      tag_148\n      tag_149\n      jump\t// in\n    tag_148:\n        /* \"#utility.yul\":839:956   */\n    tag_147:\n        /* \"#utility.yul\":989:993   */\n      0x20\n        /* \"#utility.yul\":981:987   */\n      dup4\n        /* \"#utility.yul\":977:994   */\n      add\n        /* \"#utility.yul\":965:994   */\n      swap2\n      pop\n        /* \"#utility.yul\":1043:1046   */\n      dup4\n        /* \"#utility.yul\":1035:1039   */\n      0x01\n        /* \"#utility.yul\":1027:1033   */\n      dup3\n        /* \"#utility.yul\":1023:1040   */\n      mul\n        /* \"#utility.yul\":1013:1021   */\n      dup4\n        /* \"#utility.yul\":1009:1041   */\n      add\n        /* \"#utility.yul\":1006:1047   */\n      gt\n        /* \"#utility.yul\":1003:1131   */\n      iszero\n      tag_150\n      jumpi\n        /* \"#utility.yul\":1050:1129   */\n      tag_151\n      tag_152\n      jump\t// in\n    tag_151:\n        /* \"#utility.yul\":1003:1131   */\n    tag_150:\n        /* \"#utility.yul\":584:1137   */\n      swap3\n      pop\n      swap3\n      swap1\n      pop\n      jump\t// out\n        /* \"#utility.yul\":1157:1497   */\n    tag_153:\n        /* \"#utility.yul\":1213:1218   */\n      0x00\n        /* \"#utility.yul\":1262:1265   */\n      dup3\n        /* \"#utility.yul\":1255:1259   */\n      0x1f\n        /* \"#utility.yul\":1247:1253   */\n      dup4\n        /* \"#utility.yul\":1243:1260   */\n      add\n        /* \"#utility.yul\":1239:1266   */\n      slt\n        /* \"#utility.yul\":1229:1351   */\n      tag_155\n      jumpi\n        /* \"#utility.yul\":1270:1349   */\n      tag_156\n      tag_146\n      jump\t// in\n    tag_156:\n        /* \"#utility.yul\":1229:1351   */\n    tag_155:\n        /* \"#utility.yul\":1387:1393   */\n      dup2\n        /* \"#utility.yul\":1374:1394   */\n      calldataload\n        /* \"#utility.yul\":1412:1491   */\n      tag_157\n        /* \"#utility.yul\":1487:1490   */\n      dup5\n        /* \"#utility.yul\":1479:1485   */\n      dup3\n        /* \"#utility.yul\":1472:1476   */\n      0x20\n        /* \"#utility.yul\":1464:1470   */\n      dup7\n        /* \"#utility.yul\":1460:1477   */\n      add\n        /* \"#utility.yul\":1412:1491   */\n      tag_127\n      jump\t// in\n    tag_157:\n        /* \"#utility.yul\":1403:1491   */\n      swap2\n      pop\n        /* \"#utility.yul\":1219:1497   */\n      pop\n        /* \"#utility.yul\":1157:1497   */\n      swap3\n      swap2\n      pop\n      pop\n      jump\t// out\n        /* \"#utility.yul\":1503:1642   */\n    tag_158:\n        /* \"#utility.yul\":1549:1554   */\n      0x00\n        /* \"#utility.yul\":1587:1593   */\n      dup2\n        /* \"#utility.yul\":1574:1594   */\n      calldataload\n        /* \"#utility.yul\":1565:1594   */\n      swap1\n      pop\n        /* \"#utility.yul\":1603:1636   */\n      tag_160\n        /* \"#utility.yul\":1630:1635   */\n      dup2\n        /* \"#utility.yul\":1603:1636   */\n      tag_161\n      jump\t// in\n    tag_160:\n        /* \"#utility.yul\":1503:1642   */\n      swap3\n      swap2\n      pop\n      pop\n      jump\t// out\n        /* \"#utility.yul\":1648:2322   */\n    tag_25:\n        /* \"#utility.yul\":1728:1734   */\n      0x00\n        /* \"#utility.yul\":1736:1742   */\n      dup1\n        /* \"#utility.yul\":1744:1750   */\n      0x00\n        /* \"#utility.yul\":1793:1795   */\n      0x40\n        /* \"#utility.yul\":1781:1790   */\n      dup5\n        /* \"#utility.yul\":1772:1779   */\n      dup7\n        /* \"#utility.yul\":1768:1791   */\n      sub\n        /* \"#utility.yul\":1764:1796   */\n      slt\n        /* \"#utility.yul\":1761:1880   */\n      iszero\n      tag_163\n      jumpi\n        /* \"#utility.yul\":1799:1878   */\n      tag_164\n      tag_165\n      jump\t// in\n    tag_164:\n        /* \"#utility.yul\":1761:1880   */\n    tag_163:\n        /* \"#utility.yul\":1947:1948   */\n      0x00\n        /* \"#utility.yul\":1936:1945   */\n      dup5\n        /* \"#utility.yul\":1932:1949   */\n      add\n        /* \"#utility.yul\":1919:1950   */\n      calldataload\n        /* \"#utility.yul\":1977:1995   */\n      0xffffffffffffffff\n        /* \"#utility.yul\":1969:1975   */\n      dup2\n        /* \"#utility.yul\":1966:1996   */\n      gt\n        /* \"#utility.yul\":1963:2080   */\n      iszero\n      tag_166\n      jumpi\n        /* \"#utility.yul\":1999:2078   */\n      tag_167\n      tag_168\n      jump\t// in\n    tag_167:\n        /* \"#utility.yul\":1963:2080   */\n    tag_166:\n        /* \"#utility.yul\":2112:2177   */\n      tag_169\n        /* \"#utility.yul\":2169:2176   */\n      dup7\n        /* \"#utility.yul\":2160:2166   */\n      dup3\n        /* \"#utility.yul\":2149:2158   */\n      dup8\n        /* \"#utility.yul\":2145:2167   */\n      add\n        /* \"#utility.yul\":2112:2177   */\n      tag_142\n      jump\t// in\n    tag_169:\n        /* \"#utility.yul\":2094:2177   */\n      swap4\n      pop\n      swap4\n      pop\n        /* \"#utility.yul\":1890:2187   */\n      pop\n        /* \"#utility.yul\":2226:2228   */\n      0x20\n        /* \"#utility.yul\":2252:2305   */\n      tag_170\n        /* \"#utility.yul\":2297:2304   */\n      dup7\n        /* \"#utility.yul\":2288:2294   */\n      dup3\n        /* \"#utility.yul\":2277:2286   */\n      dup8\n        /* \"#utility.yul\":2273:2295   */\n      add\n        /* \"#utility.yul\":2252:2305   */\n      tag_158\n      jump\t// in\n    tag_170:\n        /* \"#utility.yul\":2242:2305   */\n      swap2\n      pop\n        /* \"#utility.yul\":2197:2315   */\n      pop\n        /* \"#utility.yul\":1648:2322   */\n      swap3\n      pop\n      swap3\n      pop\n      swap3\n      jump\t// out\n        /* \"#utility.yul\":2328:3147   */\n    tag_20:\n        /* \"#utility.yul\":2417:2423   */\n      0x00\n        /* \"#utility.yul\":2425:2431   */\n      dup1\n        /* \"#utility.yul\":2433:2439   */\n      0x00\n        /* \"#utility.yul\":2441:2447   */\n      dup1\n        /* \"#utility.yul\":2490:2492   */\n      0x60\n        /* \"#utility.yul\":2478:2487   */\n      dup6\n        /* \"#utility.yul\":2469:2476   */\n      dup8\n        /* \"#utility.yul\":2465:2488   */\n      sub\n        /* \"#utility.yul\":2461:2493   */\n      slt\n        /* \"#utility.yul\":2458:2577   */\n      iszero\n      tag_172\n      jumpi\n        /* \"#utility.yul\":2496:2575   */\n      tag_173\n      tag_165\n      jump\t// in\n    tag_173:\n        /* \"#utility.yul\":2458:2577   */\n    tag_172:\n        /* \"#utility.yul\":2644:2645   */\n      0x00\n        /* \"#utility.yul\":2633:2642   */\n      dup6\n        /* \"#utility.yul\":2629:2646   */\n      add\n        /* \"#utility.yul\":2616:2647   */\n      calldataload\n        /* \"#utility.yul\":2674:2692   */\n      0xffffffffffffffff\n        /* \"#utility.yul\":2666:2672   */\n      dup2\n        /* \"#utility.yul\":2663:2693   */\n      gt\n        /* \"#utility.yul\":2660:2777   */\n      iszero\n      tag_174\n      jumpi\n        /* \"#utility.yul\":2696:2775   */\n      tag_175\n      tag_168\n      jump\t// in\n    tag_175:\n        /* \"#utility.yul\":2660:2777   */\n    tag_174:\n        /* \"#utility.yul\":2809:2874   */\n      tag_176\n        /* \"#utility.yul\":2866:2873   */\n      dup8\n        /* \"#utility.yul\":2857:2863   */\n      dup3\n        /* \"#utility.yul\":2846:2855   */\n      dup9\n        /* \"#utility.yul\":2842:2864   */\n      add\n        /* \"#utility.yul\":2809:2874   */\n      tag_142\n      jump\t// in\n    tag_176:\n        /* \"#utility.yul\":2791:2874   */\n      swap5\n      pop\n      swap5\n      pop\n        /* \"#utility.yul\":2587:2884   */\n      pop\n        /* \"#utility.yul\":2923:2925   */\n      0x20\n        /* \"#utility.yul\":2949:3002   */\n      tag_177\n        /* \"#utility.yul\":2994:3001   */\n      dup8\n        /* \"#utility.yul\":2985:2991   */\n      dup3\n        /* \"#utility.yul\":2974:2983   */\n      dup9\n        /* \"#utility.yul\":2970:2992   */\n      add\n        /* \"#utility.yul\":2949:3002   */\n      tag_158\n      jump\t// in\n    tag_177:\n        /* \"#utility.yul\":2939:3002   */\n      swap3\n      pop\n        /* \"#utility.yul\":2894:3012   */\n      pop\n        /* \"#utility.yul\":3051:3053   */\n      0x40\n        /* \"#utility.yul\":3077:3130   */\n      tag_178\n        /* \"#utility.yul\":3122:3129   */\n      dup8\n        /* \"#utility.yul\":3113:3119   */\n      dup3\n        /* \"#utility.yul\":3102:3111   */\n      dup9\n        /* \"#utility.yul\":3098:3120   */\n      add\n        /* \"#utility.yul\":3077:3130   */\n      tag_158\n      jump\t// in\n    tag_178:\n        /* \"#utility.yul\":3067:3130   */\n      swap2\n      pop\n        /* \"#utility.yul\":3022:3140   */\n      pop\n        /* \"#utility.yul\":2328:3147   */\n      swap3\n      swap6\n      swap2\n      swap5\n      pop\n      swap3\n      pop\n      jump\t// out\n        /* \"#utility.yul\":3153:3662   */\n    tag_13:\n        /* \"#utility.yul\":3222:3228   */\n      0x00\n        /* \"#utility.yul\":3271:3273   */\n      0x20\n        /* \"#utility.yul\":3259:3268   */\n      dup3\n        /* \"#utility.yul\":3250:3257   */\n      dup5\n        /* \"#utility.yul\":3246:3269   */\n      sub\n        /* \"#utility.yul\":3242:3274   */\n      slt\n        /* \"#utility.yul\":3239:3358   */\n      iszero\n      tag_180\n      jumpi\n        /* \"#utility.yul\":3277:3356   */\n      tag_181\n      tag_165\n      jump\t// in\n    tag_181:\n        /* \"#utility.yul\":3239:3358   */\n    tag_180:\n        /* \"#utility.yul\":3425:3426   */\n      0x00\n        /* \"#utility.yul\":3414:3423   */\n      dup3\n        /* \"#utility.yul\":3410:3427   */\n      add\n        /* \"#utility.yul\":3397:3428   */\n      calldataload\n        /* \"#utility.yul\":3455:3473   */\n      0xffffffffffffffff\n        /* \"#utility.yul\":3447:3453   */\n      dup2\n        /* \"#utility.yul\":3444:3474   */\n      gt\n        /* \"#utility.yul\":3441:3558   */\n      iszero\n      tag_182\n      jumpi\n        /* \"#utility.yul\":3477:3556   */\n      tag_183\n      tag_168\n      jump\t// in\n    tag_183:\n        /* \"#utility.yul\":3441:3558   */\n    tag_182:\n        /* \"#utility.yul\":3582:3645   */\n      tag_184\n        /* \"#utility.yul\":3637:3644   */\n      dup5\n        /* \"#utility.yul\":3628:3634   */\n      dup3\n        /* \"#utility.yul\":3617:3626   */\n      dup6\n        /* \"#utility.yul\":3613:3635   */\n      add\n        /* \"#utility.yul\":3582:3645   */\n      tag_153\n      jump\t// in\n    tag_184:\n        /* \"#utility.yul\":3572:3645   */\n      swap2\n      pop\n        /* \"#utility.yul\":3368:3655   */\n      pop\n        /* \"#utility.yul\":3153:3662   */\n      swap3\n      swap2\n      pop\n      pop\n      jump\t// out\n        /* \"#utility.yul\":3668:3997   */\n    tag_36:\n        /* \"#utility.yul\":3727:3733   */\n      0x00\n        /* \"#utility.yul\":3776:3778   */\n      0x20\n        /* \"#utility.yul\":3764:3773   */\n      dup3\n        /* \"#utility.yul\":3755:3762   */\n      dup5\n        /* \"#utility.yul\":3751:3774   */\n      sub\n        /* \"#utility.yul\":3747:3779   */\n      slt\n        /* \"#utility.yul\":3744:3863   */\n      iszero\n      tag_186\n      jumpi\n        /* \"#utility.yul\":3782:3861   */\n      tag_187\n      tag_165\n      jump\t// in\n    tag_187:\n        /* \"#utility.yul\":3744:3863   */\n    tag_186:\n        /* \"#utility.yul\":3902:3903   */\n      0x00\n        /* \"#utility.yul\":3927:3980   */\n      tag_188\n        /* \"#utility.yul\":3972:3979   */\n      dup5\n        /* \"#utility.yul\":3963:3969   */\n      dup3\n        /* \"#utility.yul\":3952:3961   */\n      dup6\n        /* \"#utility.yul\":3948:3970   */\n      add\n        /* \"#utility.yul\":3927:3980   */\n      tag_158\n      jump\t// in\n    tag_188:\n        /* \"#utility.yul\":3917:3980   */\n      swap2\n      pop\n        /* \"#utility.yul\":3873:3990   */\n      pop\n        /* \"#utility.yul\":3668:3997   */\n      swap3\n      swap2\n      pop\n      pop\n      jump\t// out\n        /* \"#utility.yul\":4003:4477   */\n    tag_30:\n        /* \"#utility.yul\":4071:4077   */\n      0x00\n        /* \"#utility.yul\":4079:4085   */\n      dup1\n        /* \"#utility.yul\":4128:4130   */\n      0x40\n        /* \"#utility.yul\":4116:4125   */\n      dup4\n        /* \"#utility.yul\":4107:4114   */\n      dup6\n        /* \"#utility.yul\":4103:4126   */\n      sub\n        /* \"#utility.yul\":4099:4131   */\n      slt\n        /* \"#utility.yul\":4096:4215   */\n      iszero\n      tag_190\n      jumpi\n        /* \"#utility.yul\":4134:4213   */\n      tag_191\n      tag_165\n      jump\t// in\n    tag_191:\n        /* \"#utility.yul\":4096:4215   */\n    tag_190:\n        /* \"#utility.yul\":4254:4255   */\n      0x00\n        /* \"#utility.yul\":4279:4332   */\n      tag_192\n        /* \"#utility.yul\":4324:4331   */\n      dup6\n        /* \"#utility.yul\":4315:4321   */\n      dup3\n        /* \"#utility.yul\":4304:4313   */\n      dup7\n        /* \"#utility.yul\":4300:4322   */\n      add\n        /* \"#utility.yul\":4279:4332   */\n      tag_158\n      jump\t// in\n    tag_192:\n        /* \"#utility.yul\":4269:4332   */\n      swap3\n      pop\n        /* \"#utility.yul\":4225:4342   */\n      pop\n        /* \"#utility.yul\":4381:4383   */\n      0x20\n        /* \"#utility.yul\":4407:4460   */\n      tag_193\n        /* \"#utility.yul\":4452:4459   */\n      dup6\n        /* \"#utility.yul\":4443:4449   */\n      dup3\n        /* \"#utility.yul\":4432:4441   */\n      dup7\n        /* \"#utility.yul\":4428:4450   */\n      add\n        /* \"#utility.yul\":4407:4460   */\n      tag_138\n      jump\t// in\n    tag_193:\n        /* \"#utility.yul\":4397:4460   */\n      swap2\n      pop\n        /* \"#utility.yul\":4352:4470   */\n      pop\n        /* \"#utility.yul\":4003:4477   */\n      swap3\n      pop\n      swap3\n      swap1\n      pop\n      jump\t// out\n        /* \"#utility.yul\":4483:4662   */\n    tag_194:\n        /* \"#utility.yul\":4552:4562   */\n      0x00\n        /* \"#utility.yul\":4573:4619   */\n      tag_196\n        /* \"#utility.yul\":4615:4618   */\n      dup4\n        /* \"#utility.yul\":4607:4613   */\n      dup4\n        /* \"#utility.yul\":4573:4619   */\n      tag_197\n      jump\t// in\n    tag_196:\n        /* \"#utility.yul\":4651:4655   */\n      0x20\n        /* \"#utility.yul\":4646:4649   */\n      dup4\n        /* \"#utility.yul\":4642:4656   */\n      add\n        /* \"#utility.yul\":4628:4656   */\n      swap1\n      pop\n        /* \"#utility.yul\":4483:4662   */\n      swap3\n      swap2\n      pop\n      pop\n      jump\t// out\n        /* \"#utility.yul\":4668:4776   */\n    tag_197:\n        /* \"#utility.yul\":4745:4769   */\n      tag_199\n        /* \"#utility.yul\":4763:4768   */\n      dup2\n        /* \"#utility.yul\":4745:4769   */\n      tag_200\n      jump\t// in\n    tag_199:\n        /* \"#utility.yul\":4740:4743   */\n      dup3\n        /* \"#utility.yul\":4733:4770   */\n      mstore\n        /* \"#utility.yul\":4668:4776   */\n      pop\n      pop\n      jump\t// out\n        /* \"#utility.yul\":4812:5544   */\n    tag_201:\n        /* \"#utility.yul\":4931:4934   */\n      0x00\n        /* \"#utility.yul\":4960:5014   */\n      tag_203\n        /* \"#utility.yul\":5008:5013   */\n      dup3\n        /* \"#utility.yul\":4960:5014   */\n      tag_204\n      jump\t// in\n    tag_203:\n        /* \"#utility.yul\":5030:5116   */\n      tag_205\n        /* \"#utility.yul\":5109:5115   */\n      dup2\n        /* \"#utility.yul\":5104:5107   */\n      dup6\n        /* \"#utility.yul\":5030:5116   */\n      tag_206\n      jump\t// in\n    tag_205:\n        /* \"#utility.yul\":5023:5116   */\n      swap4\n      pop\n        /* \"#utility.yul\":5140:5196   */\n      tag_207\n        /* \"#utility.yul\":5190:5195   */\n      dup4\n        /* \"#utility.yul\":5140:5196   */\n      tag_208\n      jump\t// in\n    tag_207:\n        /* \"#utility.yul\":5219:5226   */\n      dup1\n        /* \"#utility.yul\":5250:5251   */\n      0x00\n        /* \"#utility.yul\":5235:5519   */\n    tag_209:\n        /* \"#utility.yul\":5260:5266   */\n      dup4\n        /* \"#utility.yul\":5257:5258   */\n      dup2\n        /* \"#utility.yul\":5254:5267   */\n      lt\n        /* \"#utility.yul\":5235:5519   */\n      iszero\n      tag_211\n      jumpi\n        /* \"#utility.yul\":5336:5342   */\n      dup2\n        /* \"#utility.yul\":5330:5343   */\n      mload\n        /* \"#utility.yul\":5363:5426   */\n      tag_212\n        /* \"#utility.yul\":5422:5425   */\n      dup9\n        /* \"#utility.yul\":5407:5420   */\n      dup3\n        /* \"#utility.yul\":5363:5426   */\n      tag_194\n      jump\t// in\n    tag_212:\n        /* \"#utility.yul\":5356:5426   */\n      swap8\n      pop\n        /* \"#utility.yul\":5449:5509   */\n      tag_213\n        /* \"#utility.yul\":5502:5508   */\n      dup4\n        /* \"#utility.yul\":5449:5509   */\n      tag_214\n      jump\t// in\n    tag_213:\n        /* \"#utility.yul\":5439:5509   */\n      swap3\n      pop\n        /* \"#utility.yul\":5295:5519   */\n      pop\n        /* \"#utility.yul\":5282:5283   */\n      0x01\n        /* \"#utility.yul\":5279:5280   */\n      dup2\n        /* \"#utility.yul\":5275:5284   */\n      add\n        /* \"#utility.yul\":5270:5284   */\n      swap1\n      pop\n        /* \"#utility.yul\":5235:5519   */\n      jump(tag_209)\n    tag_211:\n        /* \"#utility.yul\":5239:5253   */\n      pop\n        /* \"#utility.yul\":5535:5538   */\n      dup6\n        /* \"#utility.yul\":5528:5538   */\n      swap4\n      pop\n        /* \"#utility.yul\":4936:5544   */\n      pop\n      pop\n      pop\n        /* \"#utility.yul\":4812:5544   */\n      swap3\n      swap2\n      pop\n      pop\n      jump\t// out\n        /* \"#utility.yul\":5550:5659   */\n    tag_215:\n        /* \"#utility.yul\":5631:5652   */\n      tag_217\n        /* \"#utility.yul\":5646:5651   */\n      dup2\n        /* \"#utility.yul\":5631:5652   */\n      tag_218\n      jump\t// in\n    tag_217:\n        /* \"#utility.yul\":5626:5629   */\n      dup3\n        /* \"#utility.yul\":5619:5653   */\n      mstore\n        /* \"#utility.yul\":5550:5659   */\n      pop\n      pop\n      jump\t// out\n        /* \"#utility.yul\":5689:6006   */\n    tag_219:\n        /* \"#utility.yul\":5805:5808   */\n      0x00\n        /* \"#utility.yul\":5826:5915   */\n      tag_221\n        /* \"#utility.yul\":5908:5914   */\n      dup4\n        /* \"#utility.yul\":5903:5906   */\n      dup6\n        /* \"#utility.yul\":5826:5915   */\n      tag_222\n      jump\t// in\n    tag_221:\n        /* \"#utility.yul\":5819:5915   */\n      swap4\n      pop\n        /* \"#utility.yul\":5925:5968   */\n      tag_223\n        /* \"#utility.yul\":5961:5967   */\n      dup4\n        /* \"#utility.yul\":5956:5959   */\n      dup6\n        /* \"#utility.yul\":5949:5954   */\n      dup5\n        /* \"#utility.yul\":5925:5968   */\n      tag_137\n      jump\t// in\n    tag_223:\n        /* \"#utility.yul\":5993:5999   */\n      dup3\n        /* \"#utility.yul\":5988:5991   */\n      dup5\n        /* \"#utility.yul\":5984:6000   */\n      add\n        /* \"#utility.yul\":5977:6000   */\n      swap1\n      pop\n        /* \"#utility.yul\":5689:6006   */\n      swap4\n      swap3\n      pop\n      pop\n      pop\n      jump\t// out\n        /* \"#utility.yul\":6012:6376   */\n    tag_224:\n        /* \"#utility.yul\":6100:6103   */\n      0x00\n        /* \"#utility.yul\":6128:6167   */\n      tag_226\n        /* \"#utility.yul\":6161:6166   */\n      dup3\n        /* \"#utility.yul\":6128:6167   */\n      tag_227\n      jump\t// in\n    tag_226:\n        /* \"#utility.yul\":6183:6254   */\n      tag_228\n        /* \"#utility.yul\":6247:6253   */\n      dup2\n        /* \"#utility.yul\":6242:6245   */\n      dup6\n        /* \"#utility.yul\":6183:6254   */\n      tag_229\n      jump\t// in\n    tag_228:\n        /* \"#utility.yul\":6176:6254   */\n      swap4\n      pop\n        /* \"#utility.yul\":6263:6315   */\n      tag_230\n        /* \"#utility.yul\":6308:6314   */\n      dup2\n        /* \"#utility.yul\":6303:6306   */\n      dup6\n        /* \"#utility.yul\":6296:6300   */\n      0x20\n        /* \"#utility.yul\":6289:6294   */\n      dup7\n        /* \"#utility.yul\":6285:6301   */\n      add\n        /* \"#utility.yul\":6263:6315   */\n      tag_231\n      jump\t// in\n    tag_230:\n        /* \"#utility.yul\":6340:6369   */\n      tag_232\n        /* \"#utility.yul\":6362:6368   */\n      dup2\n        /* \"#utility.yul\":6340:6369   */\n      tag_233\n      jump\t// in\n    tag_232:\n        /* \"#utility.yul\":6335:6338   */\n      dup5\n        /* \"#utility.yul\":6331:6370   */\n      add\n        /* \"#utility.yul\":6324:6370   */\n      swap2\n      pop\n        /* \"#utility.yul\":6104:6376   */\n      pop\n        /* \"#utility.yul\":6012:6376   */\n      swap3\n      swap2\n      pop\n      pop\n      jump\t// out\n        /* \"#utility.yul\":6406:7251   */\n    tag_234:\n        /* \"#utility.yul\":6509:6512   */\n      0x00\n        /* \"#utility.yul\":6546:6551   */\n      dup2\n        /* \"#utility.yul\":6540:6552   */\n      sload\n        /* \"#utility.yul\":6575:6611   */\n      tag_236\n        /* \"#utility.yul\":6601:6610   */\n      dup2\n        /* \"#utility.yul\":6575:6611   */\n      tag_107\n      jump\t// in\n    tag_236:\n        /* \"#utility.yul\":6627:6716   */\n      tag_237\n        /* \"#utility.yul\":6709:6715   */\n      dup2\n        /* \"#utility.yul\":6704:6707   */\n      dup7\n        /* \"#utility.yul\":6627:6716   */\n      tag_222\n      jump\t// in\n    tag_237:\n        /* \"#utility.yul\":6620:6716   */\n      swap5\n      pop\n        /* \"#utility.yul\":6747:6748   */\n      0x01\n        /* \"#utility.yul\":6736:6745   */\n      dup3\n        /* \"#utility.yul\":6732:6749   */\n      and\n        /* \"#utility.yul\":6763:6764   */\n      0x00\n        /* \"#utility.yul\":6758:6895   */\n      dup2\n      eq\n      tag_239\n      jumpi\n        /* \"#utility.yul\":6909:6910   */\n      0x01\n        /* \"#utility.yul\":6904:7245   */\n      dup2\n      eq\n      tag_240\n      jumpi\n        /* \"#utility.yul\":6725:7245   */\n      jump(tag_238)\n        /* \"#utility.yul\":6758:6895   */\n    tag_239:\n        /* \"#utility.yul\":6842:6846   */\n      0xff\n        /* \"#utility.yul\":6838:6847   */\n      not\n        /* \"#utility.yul\":6827:6836   */\n      dup4\n        /* \"#utility.yul\":6823:6848   */\n      and\n        /* \"#utility.yul\":6818:6821   */\n      dup7\n        /* \"#utility.yul\":6811:6849   */\n      mstore\n        /* \"#utility.yul\":6878:6884   */\n      dup2\n        /* \"#utility.yul\":6873:6876   */\n      dup7\n        /* \"#utility.yul\":6869:6885   */\n      add\n        /* \"#utility.yul\":6862:6885   */\n      swap4\n      pop\n        /* \"#utility.yul\":6758:6895   */\n      jump(tag_238)\n        /* \"#utility.yul\":6904:7245   */\n    tag_240:\n        /* \"#utility.yul\":6971:7009   */\n      tag_241\n        /* \"#utility.yul\":7003:7008   */\n      dup6\n        /* \"#utility.yul\":6971:7009   */\n      tag_242\n      jump\t// in\n    tag_241:\n        /* \"#utility.yul\":7031:7032   */\n      0x00\n        /* \"#utility.yul\":7045:7199   */\n    tag_243:\n        /* \"#utility.yul\":7059:7065   */\n      dup4\n        /* \"#utility.yul\":7056:7057   */\n      dup2\n        /* \"#utility.yul\":7053:7066   */\n      lt\n        /* \"#utility.yul\":7045:7199   */\n      iszero\n      tag_245\n      jumpi\n        /* \"#utility.yul\":7133:7140   */\n      dup2\n        /* \"#utility.yul\":7127:7141   */\n      sload\n        /* \"#utility.yul\":7123:7124   */\n      dup2\n        /* \"#utility.yul\":7118:7121   */\n      dup10\n        /* \"#utility.yul\":7114:7125   */\n      add\n        /* \"#utility.yul\":7107:7142   */\n      mstore\n        /* \"#utility.yul\":7183:7184   */\n      0x01\n        /* \"#utility.yul\":7174:7181   */\n      dup3\n        /* \"#utility.yul\":7170:7185   */\n      add\n        /* \"#utility.yul\":7159:7185   */\n      swap2\n      pop\n        /* \"#utility.yul\":7081:7085   */\n      0x20\n        /* \"#utility.yul\":7078:7079   */\n      dup2\n        /* \"#utility.yul\":7074:7086   */\n      add\n        /* \"#utility.yul\":7069:7086   */\n      swap1\n      pop\n        /* \"#utility.yul\":7045:7199   */\n      jump(tag_243)\n    tag_245:\n        /* \"#utility.yul\":7228:7234   */\n      dup4\n        /* \"#utility.yul\":7223:7226   */\n      dup9\n        /* \"#utility.yul\":7219:7235   */\n      add\n        /* \"#utility.yul\":7212:7235   */\n      swap6\n      pop\n        /* \"#utility.yul\":6911:7245   */\n      pop\n      pop\n        /* \"#utility.yul\":6725:7245   */\n    tag_238:\n      pop\n        /* \"#utility.yul\":6513:7251   */\n      pop\n      pop\n        /* \"#utility.yul\":6406:7251   */\n      swap3\n      swap2\n      pop\n      pop\n      jump\t// out\n        /* \"#utility.yul\":7257:7375   */\n    tag_246:\n        /* \"#utility.yul\":7344:7368   */\n      tag_248\n        /* \"#utility.yul\":7362:7367   */\n      dup2\n        /* \"#utility.yul\":7344:7368   */\n      tag_249\n      jump\t// in\n    tag_248:\n        /* \"#utility.yul\":7339:7342   */\n      dup3\n        /* \"#utility.yul\":7332:7369   */\n      mstore\n        /* \"#utility.yul\":7257:7375   */\n      pop\n      pop\n      jump\t// out\n        /* \"#utility.yul\":7381:7676   */\n    tag_51:\n        /* \"#utility.yul\":7523:7526   */\n      0x00\n        /* \"#utility.yul\":7545:7650   */\n      tag_251\n        /* \"#utility.yul\":7646:7649   */\n      dup3\n        /* \"#utility.yul\":7637:7643   */\n      dup5\n        /* \"#utility.yul\":7629:7635   */\n      dup7\n        /* \"#utility.yul\":7545:7650   */\n      tag_219\n      jump\t// in\n    tag_251:\n        /* \"#utility.yul\":7538:7650   */\n      swap2\n      pop\n        /* \"#utility.yul\":7667:7670   */\n      dup2\n        /* \"#utility.yul\":7660:7670   */\n      swap1\n      pop\n        /* \"#utility.yul\":7381:7676   */\n      swap4\n      swap3\n      pop\n      pop\n      pop\n      jump\t// out\n        /* \"#utility.yul\":7682:7951   */\n    tag_76:\n        /* \"#utility.yul\":7811:7814   */\n      0x00\n        /* \"#utility.yul\":7833:7925   */\n      tag_253\n        /* \"#utility.yul\":7921:7924   */\n      dup3\n        /* \"#utility.yul\":7912:7918   */\n      dup5\n        /* \"#utility.yul\":7833:7925   */\n      tag_234\n      jump\t// in\n    tag_253:\n        /* \"#utility.yul\":7826:7925   */\n      swap2\n      pop\n        /* \"#utility.yul\":7942:7945   */\n      dup2\n        /* \"#utility.yul\":7935:7945   */\n      swap1\n      pop\n        /* \"#utility.yul\":7682:7951   */\n      swap3\n      swap2\n      pop\n      pop\n      jump\t// out\n        /* \"#utility.yul\":7957:8330   */\n    tag_39:\n        /* \"#utility.yul\":8100:8104   */\n      0x00\n        /* \"#utility.yul\":8138:8140   */\n      0x20\n        /* \"#utility.yul\":8127:8136   */\n      dup3\n        /* \"#utility.yul\":8123:8141   */\n      add\n        /* \"#utility.yul\":8115:8141   */\n      swap1\n      pop\n        /* \"#utility.yul\":8187:8196   */\n      dup2\n        /* \"#utility.yul\":8181:8185   */\n      dup2\n        /* \"#utility.yul\":8177:8197   */\n      sub\n        /* \"#utility.yul\":8173:8174   */\n      0x00\n        /* \"#utility.yul\":8162:8171   */\n      dup4\n        /* \"#utility.yul\":8158:8175   */\n      add\n        /* \"#utility.yul\":8151:8198   */\n      mstore\n        /* \"#utility.yul\":8215:8323   */\n      tag_255\n        /* \"#utility.yul\":8318:8322   */\n      dup2\n        /* \"#utility.yul\":8309:8315   */\n      dup5\n        /* \"#utility.yul\":8215:8323   */\n      tag_201\n      jump\t// in\n    tag_255:\n        /* \"#utility.yul\":8207:8323   */\n      swap1\n      pop\n        /* \"#utility.yul\":7957:8330   */\n      swap3\n      swap2\n      pop\n      pop\n      jump\t// out\n        /* \"#utility.yul\":8336:8649   */\n    tag_48:\n        /* \"#utility.yul\":8449:8453   */\n      0x00\n        /* \"#utility.yul\":8487:8489   */\n      0x20\n        /* \"#utility.yul\":8476:8485   */\n      dup3\n        /* \"#utility.yul\":8472:8490   */\n      add\n        /* \"#utility.yul\":8464:8490   */\n      swap1\n      pop\n        /* \"#utility.yul\":8536:8545   */\n      dup2\n        /* \"#utility.yul\":8530:8534   */\n      dup2\n        /* \"#utility.yul\":8526:8546   */\n      sub\n        /* \"#utility.yul\":8522:8523   */\n      0x00\n        /* \"#utility.yul\":8511:8520   */\n      dup4\n        /* \"#utility.yul\":8507:8524   */\n      add\n        /* \"#utility.yul\":8500:8547   */\n      mstore\n        /* \"#utility.yul\":8564:8642   */\n      tag_257\n        /* \"#utility.yul\":8637:8641   */\n      dup2\n        /* \"#utility.yul\":8628:8634   */\n      dup5\n        /* \"#utility.yul\":8564:8642   */\n      tag_224\n      jump\t// in\n    tag_257:\n        /* \"#utility.yul\":8556:8642   */\n      swap1\n      pop\n        /* \"#utility.yul\":8336:8649   */\n      swap3\n      swap2\n      pop\n      pop\n      jump\t// out\n        /* \"#utility.yul\":8655:9085   */\n    tag_16:\n        /* \"#utility.yul\":8798:8802   */\n      0x00\n        /* \"#utility.yul\":8836:8838   */\n      0x60\n        /* \"#utility.yul\":8825:8834   */\n      dup3\n        /* \"#utility.yul\":8821:8839   */\n      add\n        /* \"#utility.yul\":8813:8839   */\n      swap1\n      pop\n        /* \"#utility.yul\":8849:8920   */\n      tag_259\n        /* \"#utility.yul\":8917:8918   */\n      0x00\n        /* \"#utility.yul\":8906:8915   */\n      dup4\n        /* \"#utility.yul\":8902:8919   */\n      add\n        /* \"#utility.yul\":8893:8899   */\n      dup7\n        /* \"#utility.yul\":8849:8920   */\n      tag_246\n      jump\t// in\n    tag_259:\n        /* \"#utility.yul\":8930:9002   */\n      tag_260\n        /* \"#utility.yul\":8998:9000   */\n      0x20\n        /* \"#utility.yul\":8987:8996   */\n      dup4\n        /* \"#utility.yul\":8983:9001   */\n      add\n        /* \"#utility.yul\":8974:8980   */\n      dup6\n        /* \"#utility.yul\":8930:9002   */\n      tag_246\n      jump\t// in\n    tag_260:\n        /* \"#utility.yul\":9012:9078   */\n      tag_261\n        /* \"#utility.yul\":9074:9076   */\n      0x40\n        /* \"#utility.yul\":9063:9072   */\n      dup4\n        /* \"#utility.yul\":9059:9077   */\n      add\n        /* \"#utility.yul\":9050:9056   */\n      dup5\n        /* \"#utility.yul\":9012:9078   */\n      tag_215\n      jump\t// in\n    tag_261:\n        /* \"#utility.yul\":8655:9085   */\n      swap5\n      swap4\n      pop\n      pop\n      pop\n      pop\n      jump\t// out\n        /* \"#utility.yul\":9091:9220   */\n    tag_132:\n        /* \"#utility.yul\":9125:9131   */\n      0x00\n        /* \"#utility.yul\":9152:9172   */\n      tag_263\n      tag_264\n      jump\t// in\n    tag_263:\n        /* \"#utility.yul\":9142:9172   */\n      swap1\n      pop\n        /* \"#utility.yul\":9181:9214   */\n      tag_265\n        /* \"#utility.yul\":9209:9213   */\n      dup3\n        /* \"#utility.yul\":9201:9207   */\n      dup3\n        /* \"#utility.yul\":9181:9214   */\n      tag_266\n      jump\t// in\n    tag_265:\n        /* \"#utility.yul\":9091:9220   */\n      swap2\n      swap1\n      pop\n      jump\t// out\n        /* \"#utility.yul\":9226:9301   */\n    tag_264:\n        /* \"#utility.yul\":9259:9265   */\n      0x00\n        /* \"#utility.yul\":9292:9294   */\n      0x40\n        /* \"#utility.yul\":9286:9295   */\n      mload\n        /* \"#utility.yul\":9276:9295   */\n      swap1\n      pop\n        /* \"#utility.yul\":9226:9301   */\n      swap1\n      jump\t// out\n        /* \"#utility.yul\":9307:9615   */\n    tag_131:\n        /* \"#utility.yul\":9369:9373   */\n      0x00\n        /* \"#utility.yul\":9459:9477   */\n      0xffffffffffffffff\n        /* \"#utility.yul\":9451:9457   */\n      dup3\n        /* \"#utility.yul\":9448:9478   */\n      gt\n        /* \"#utility.yul\":9445:9501   */\n      iszero\n      tag_269\n      jumpi\n        /* \"#utility.yul\":9481:9499   */\n      tag_270\n      tag_271\n      jump\t// in\n    tag_270:\n        /* \"#utility.yul\":9445:9501   */\n    tag_269:\n        /* \"#utility.yul\":9519:9548   */\n      tag_272\n        /* \"#utility.yul\":9541:9547   */\n      dup3\n        /* \"#utility.yul\":9519:9548   */\n      tag_233\n      jump\t// in\n    tag_272:\n        /* \"#utility.yul\":9511:9548   */\n      swap1\n      pop\n        /* \"#utility.yul\":9603:9607   */\n      0x20\n        /* \"#utility.yul\":9597:9601   */\n      dup2\n        /* \"#utility.yul\":9593:9608   */\n      add\n        /* \"#utility.yul\":9585:9608   */\n      swap1\n      pop\n        /* \"#utility.yul\":9307:9615   */\n      swap2\n      swap1\n      pop\n      jump\t// out\n        /* \"#utility.yul\":9621:9753   */\n    tag_208:\n        /* \"#utility.yul\":9688:9692   */\n      0x00\n        /* \"#utility.yul\":9711:9714   */\n      dup2\n        /* \"#utility.yul\":9703:9714   */\n      swap1\n      pop\n        /* \"#utility.yul\":9741:9745   */\n      0x20\n        /* \"#utility.yul\":9736:9739   */\n      dup3\n        /* \"#utility.yul\":9732:9746   */\n      add\n        /* \"#utility.yul\":9724:9746   */\n      swap1\n      pop\n        /* \"#utility.yul\":9621:9753   */\n      swap2\n      swap1\n      pop\n      jump\t// out\n        /* \"#utility.yul\":9759:9900   */\n    tag_242:\n        /* \"#utility.yul\":9808:9812   */\n      0x00\n        /* \"#utility.yul\":9831:9834   */\n      dup2\n        /* \"#utility.yul\":9823:9834   */\n      swap1\n      pop\n        /* \"#utility.yul\":9854:9857   */\n      dup2\n        /* \"#utility.yul\":9851:9852   */\n      0x00\n        /* \"#utility.yul\":9844:9858   */\n      mstore\n        /* \"#utility.yul\":9888:9892   */\n      0x20\n        /* \"#utility.yul\":9885:9886   */\n      0x00\n        /* \"#utility.yul\":9875:9893   */\n      keccak256\n        /* \"#utility.yul\":9867:9893   */\n      swap1\n      pop\n        /* \"#utility.yul\":9759:9900   */\n      swap2\n      swap1\n      pop\n      jump\t// out\n        /* \"#utility.yul\":9906:10020   */\n    tag_204:\n        /* \"#utility.yul\":9973:9979   */\n      0x00\n        /* \"#utility.yul\":10007:10012   */\n      dup2\n        /* \"#utility.yul\":10001:10013   */\n      mload\n        /* \"#utility.yul\":9991:10013   */\n      swap1\n      pop\n        /* \"#utility.yul\":9906:10020   */\n      swap2\n      swap1\n      pop\n      jump\t// out\n        /* \"#utility.yul\":10026:10125   */\n    tag_227:\n        /* \"#utility.yul\":10078:10084   */\n      0x00\n        /* \"#utility.yul\":10112:10117   */\n      dup2\n        /* \"#utility.yul\":10106:10118   */\n      mload\n        /* \"#utility.yul\":10096:10118   */\n      swap1\n      pop\n        /* \"#utility.yul\":10026:10125   */\n      swap2\n      swap1\n      pop\n      jump\t// out\n        /* \"#utility.yul\":10131:10244   */\n    tag_214:\n        /* \"#utility.yul\":10201:10205   */\n      0x00\n        /* \"#utility.yul\":10233:10237   */\n      0x20\n        /* \"#utility.yul\":10228:10231   */\n      dup3\n        /* \"#utility.yul\":10224:10238   */\n      add\n        /* \"#utility.yul\":10216:10238   */\n      swap1\n      pop\n        /* \"#utility.yul\":10131:10244   */\n      swap2\n      swap1\n      pop\n      jump\t// out\n        /* \"#utility.yul\":10250:10434   */\n    tag_206:\n        /* \"#utility.yul\":10349:10360   */\n      0x00\n        /* \"#utility.yul\":10383:10389   */\n      dup3\n        /* \"#utility.yul\":10378:10381   */\n      dup3\n        /* \"#utility.yul\":10371:10390   */\n      mstore\n        /* \"#utility.yul\":10423:10427   */\n      0x20\n        /* \"#utility.yul\":10418:10421   */\n      dup3\n        /* \"#utility.yul\":10414:10428   */\n      add\n        /* \"#utility.yul\":10399:10428   */\n      swap1\n      pop\n        /* \"#utility.yul\":10250:10434   */\n      swap3\n      swap2\n      pop\n      pop\n      jump\t// out\n        /* \"#utility.yul\":10440:10609   */\n    tag_229:\n        /* \"#utility.yul\":10524:10535   */\n      0x00\n        /* \"#utility.yul\":10558:10564   */\n      dup3\n        /* \"#utility.yul\":10553:10556   */\n      dup3\n        /* \"#utility.yul\":10546:10565   */\n      mstore\n        /* \"#utility.yul\":10598:10602   */\n      0x20\n        /* \"#utility.yul\":10593:10596   */\n      dup3\n        /* \"#utility.yul\":10589:10603   */\n      add\n        /* \"#utility.yul\":10574:10603   */\n      swap1\n      pop\n        /* \"#utility.yul\":10440:10609   */\n      swap3\n      swap2\n      pop\n      pop\n      jump\t// out\n        /* \"#utility.yul\":10615:10763   */\n    tag_222:\n        /* \"#utility.yul\":10717:10728   */\n      0x00\n        /* \"#utility.yul\":10754:10757   */\n      dup2\n        /* \"#utility.yul\":10739:10757   */\n      swap1\n      pop\n        /* \"#utility.yul\":10615:10763   */\n      swap3\n      swap2\n      pop\n      pop\n      jump\t// out\n        /* \"#utility.yul\":10769:11074   */\n    tag_67:\n        /* \"#utility.yul\":10809:10812   */\n      0x00\n        /* \"#utility.yul\":10828:10848   */\n      tag_282\n        /* \"#utility.yul\":10846:10847   */\n      dup3\n        /* \"#utility.yul\":10828:10848   */\n      tag_249\n      jump\t// in\n    tag_282:\n        /* \"#utility.yul\":10823:10848   */\n      swap2\n      pop\n        /* \"#utility.yul\":10862:10882   */\n      tag_283\n        /* \"#utility.yul\":10880:10881   */\n      dup4\n        /* \"#utility.yul\":10862:10882   */\n      tag_249\n      jump\t// in\n    tag_283:\n        /* \"#utility.yul\":10857:10882   */\n      swap3\n      pop\n        /* \"#utility.yul\":11016:11017   */\n      dup3\n        /* \"#utility.yul\":10948:11014   */\n      0xffffffffffffffffffffffffffffffffffffffffffffffffffffffffffffffff\n        /* \"#utility.yul\":10944:11018   */\n      sub\n        /* \"#utility.yul\":10941:10942   */\n      dup3\n        /* \"#utility.yul\":10938:11019   */\n      gt\n        /* \"#utility.yul\":10935:11042   */\n      iszero\n      tag_284\n      jumpi\n        /* \"#utility.yul\":11022:11040   */\n      tag_285\n      tag_286\n      jump\t// in\n    tag_285:\n        /* \"#utility.yul\":10935:11042   */\n    tag_284:\n        /* \"#utility.yul\":11066:11067   */\n      dup3\n        /* \"#utility.yul\":11063:11064   */\n      dup3\n        /* \"#utility.yul\":11059:11068   */\n      add\n        /* \"#utility.yul\":11052:11068   */\n      swap1\n      pop\n        /* \"#utility.yul\":10769:11074   */\n      swap3\n      swap2\n      pop\n      pop\n      jump\t// out\n        /* \"#utility.yul\":11080:11176   */\n    tag_200:\n        /* \"#utility.yul\":11117:11124   */\n      0x00\n        /* \"#utility.yul\":11146:11170   */\n      tag_288\n        /* \"#utility.yul\":11164:11169   */\n      dup3\n        /* \"#utility.yul\":11146:11170   */\n      tag_289\n      jump\t// in\n    tag_288:\n        /* \"#utility.yul\":11135:11170   */\n      swap1\n      pop\n        /* \"#utility.yul\":11080:11176   */\n      swap2\n      swap1\n      pop\n      jump\t// out\n        /* \"#utility.yul\":11182:11272   */\n    tag_218:\n        /* \"#utility.yul\":11216:11223   */\n      0x00\n        /* \"#utility.yul\":11259:11264   */\n      dup2\n        /* \"#utility.yul\":11252:11265   */\n      iszero\n        /* \"#utility.yul\":11245:11266   */\n      iszero\n        /* \"#utility.yul\":11234:11266   */\n      swap1\n      pop\n        /* \"#utility.yul\":11182:11272   */\n      swap2\n      swap1\n      pop\n      jump\t// out\n        /* \"#utility.yul\":11278:11404   */\n    tag_289:\n        /* \"#utility.yul\":11315:11322   */\n      0x00\n        /* \"#utility.yul\":11355:11397   */\n      0xffffffffffffffffffffffffffffffffffffffff\n        /* \"#utility.yul\":11348:11353   */\n      dup3\n        /* \"#utility.yul\":11344:11398   */\n      and\n        /* \"#utility.yul\":11333:11398   */\n      swap1\n      pop\n        /* \"#utility.yul\":11278:11404   */\n      swap2\n      swap1\n      pop\n      jump\t// out\n        /* \"#utility.yul\":11410:11487   */\n    tag_249:\n        /* \"#utility.yul\":11447:11454   */\n      0x00\n        /* \"#utility.yul\":11476:11481   */\n      dup2\n        /* \"#utility.yul\":11465:11481   */\n      swap1\n      pop\n        /* \"#utility.yul\":11410:11487   */\n      swap2\n      swap1\n      pop\n      jump\t// out\n        /* \"#utility.yul\":11493:11647   */\n    tag_137:\n        /* \"#utility.yul\":11577:11583   */\n      dup3\n        /* \"#utility.yul\":11572:11575   */\n      dup2\n        /* \"#utility.yul\":11567:11570   */\n      dup4\n        /* \"#utility.yul\":11554:11584   */\n      calldatacopy\n        /* \"#utility.yul\":11639:11640   */\n      0x00\n        /* \"#utility.yul\":11630:11636   */\n      dup4\n        /* \"#utility.yul\":11625:11628   */\n      dup4\n        /* \"#utility.yul\":11621:11637   */\n      add\n        /* \"#utility.yul\":11614:11641   */\n      mstore\n        /* \"#utility.yul\":11493:11647   */\n      pop\n      pop\n      pop\n      jump\t// out\n        /* \"#utility.yul\":11653:11960   */\n    tag_231:\n        /* \"#utility.yul\":11721:11722   */\n      0x00\n        /* \"#utility.yul\":11731:11844   */\n    tag_295:\n        /* \"#utility.yul\":11745:11751   */\n      dup4\n        /* \"#utility.yul\":11742:11743   */\n      dup2\n        /* \"#utility.yul\":11739:11752   */\n      lt\n        /* \"#utility.yul\":11731:11844   */\n      iszero\n      tag_297\n      jumpi\n        /* \"#utility.yul\":11830:11831   */\n      dup1\n        /* \"#utility.yul\":11825:11828   */\n      dup3\n        /* \"#utility.yul\":11821:11832   */\n      add\n        /* \"#utility.yul\":11815:11833   */\n      mload\n        /* \"#utility.yul\":11811:11812   */\n      dup2\n        /* \"#utility.yul\":11806:11809   */\n      dup5\n        /* \"#utility.yul\":11802:11813   */\n      add\n        /* \"#utility.yul\":11795:11834   */\n      mstore\n        /* \"#utility.yul\":11767:11769   */\n      0x20\n        /* \"#utility.yul\":11764:11765   */\n      dup2\n        /* \"#utility.yul\":11760:11770   */\n      add\n        /* \"#utility.yul\":11755:11770   */\n      swap1\n      pop\n        /* \"#utility.yul\":11731:11844   */\n      jump(tag_295)\n    tag_297:\n        /* \"#utility.yul\":11862:11868   */\n      dup4\n        /* \"#utility.yul\":11859:11860   */\n      dup2\n        /* \"#utility.yul\":11856:11869   */\n      gt\n        /* \"#utility.yul\":11853:11954   */\n      iszero\n      tag_298\n      jumpi\n        /* \"#utility.yul\":11942:11943   */\n      0x00\n        /* \"#utility.yul\":11933:11939   */\n      dup5\n        /* \"#utility.yul\":11928:11931   */\n      dup5\n        /* \"#utility.yul\":11924:11940   */\n      add\n        /* \"#utility.yul\":11917:11944   */\n      mstore\n        /* \"#utility.yul\":11853:11954   */\n    tag_298:\n        /* \"#utility.yul\":11702:11960   */\n      pop\n        /* \"#utility.yul\":11653:11960   */\n      pop\n      pop\n      pop\n      jump\t// out\n        /* \"#utility.yul\":11966:12137   */\n    tag_92:\n        /* \"#utility.yul\":12005:12008   */\n      0x00\n        /* \"#utility.yul\":12028:12052   */\n      tag_300\n        /* \"#utility.yul\":12046:12051   */\n      dup3\n        /* \"#utility.yul\":12028:12052   */\n      tag_249\n      jump\t// in\n    tag_300:\n        /* \"#utility.yul\":12019:12052   */\n      swap2\n      pop\n        /* \"#utility.yul\":12074:12078   */\n      0x00\n        /* \"#utility.yul\":12067:12072   */\n      dup3\n        /* \"#utility.yul\":12064:12079   */\n      eq\n        /* \"#utility.yul\":12061:12102   */\n      iszero\n      tag_301\n      jumpi\n        /* \"#utility.yul\":12082:12100   */\n      tag_302\n      tag_286\n      jump\t// in\n    tag_302:\n        /* \"#utility.yul\":12061:12102   */\n    tag_301:\n        /* \"#utility.yul\":12129:12130   */\n      0x01\n        /* \"#utility.yul\":12122:12127   */\n      dup3\n        /* \"#utility.yul\":12118:12131   */\n      sub\n        /* \"#utility.yul\":12111:12131   */\n      swap1\n      pop\n        /* \"#utility.yul\":11966:12137   */\n      swap2\n      swap1\n      pop\n      jump\t// out\n        /* \"#utility.yul\":12143:12463   */\n    tag_107:\n        /* \"#utility.yul\":12187:12193   */\n      0x00\n        /* \"#utility.yul\":12224:12225   */\n      0x02\n        /* \"#utility.yul\":12218:12222   */\n      dup3\n        /* \"#utility.yul\":12214:12226   */\n      div\n        /* \"#utility.yul\":12204:12226   */\n      swap1\n      pop\n        /* \"#utility.yul\":12271:12272   */\n      0x01\n        /* \"#utility.yul\":12265:12269   */\n      dup3\n        /* \"#utility.yul\":12261:12273   */\n      and\n        /* \"#utility.yul\":12292:12310   */\n      dup1\n        /* \"#utility.yul\":12282:12363   */\n      tag_304\n      jumpi\n        /* \"#utility.yul\":12348:12352   */\n      0x7f\n        /* \"#utility.yul\":12340:12346   */\n      dup3\n        /* \"#utility.yul\":12336:12353   */\n      and\n        /* \"#utility.yul\":12326:12353   */\n      swap2\n      pop\n        /* \"#utility.yul\":12282:12363   */\n    tag_304:\n        /* \"#utility.yul\":12410:12412   */\n      0x20\n        /* \"#utility.yul\":12402:12408   */\n      dup3\n        /* \"#utility.yul\":12399:12413   */\n      lt\n        /* \"#utility.yul\":12379:12397   */\n      dup2\n        /* \"#utility.yul\":12376:12414   */\n      eq\n        /* \"#utility.yul\":12373:12457   */\n      iszero\n      tag_305\n      jumpi\n        /* \"#utility.yul\":12429:12447   */\n      tag_306\n      tag_307\n      jump\t// in\n    tag_306:\n        /* \"#utility.yul\":12373:12457   */\n    tag_305:\n        /* \"#utility.yul\":12194:12463   */\n      pop\n        /* \"#utility.yul\":12143:12463   */\n      swap2\n      swap1\n      pop\n      jump\t// out\n        /* \"#utility.yul\":12469:12750   */\n    tag_266:\n        /* \"#utility.yul\":12552:12579   */\n      tag_309\n        /* \"#utility.yul\":12574:12578   */\n      dup3\n        /* \"#utility.yul\":12552:12579   */\n      tag_233\n      jump\t// in\n    tag_309:\n        /* \"#utility.yul\":12544:12550   */\n      dup2\n        /* \"#utility.yul\":12540:12580   */\n      add\n        /* \"#utility.yul\":12682:12688   */\n      dup2\n        /* \"#utility.yul\":12670:12680   */\n      dup2\n        /* \"#utility.yul\":12667:12689   */\n      lt\n        /* \"#utility.yul\":12646:12664   */\n      0xffffffffffffffff\n        /* \"#utility.yul\":12634:12644   */\n      dup3\n        /* \"#utility.yul\":12631:12665   */\n      gt\n        /* \"#utility.yul\":12628:12690   */\n      or\n        /* \"#utility.yul\":12625:12713   */\n      iszero\n      tag_310\n      jumpi\n        /* \"#utility.yul\":12693:12711   */\n      tag_311\n      tag_271\n      jump\t// in\n    tag_311:\n        /* \"#utility.yul\":12625:12713   */\n    tag_310:\n        /* \"#utility.yul\":12733:12743   */\n      dup1\n        /* \"#utility.yul\":12729:12731   */\n      0x40\n        /* \"#utility.yul\":12722:12744   */\n      mstore\n        /* \"#utility.yul\":12512:12750   */\n      pop\n        /* \"#utility.yul\":12469:12750   */\n      pop\n      pop\n      jump\t// out\n        /* \"#utility.yul\":12756:12936   */\n    tag_286:\n        /* \"#utility.yul\":12804:12881   */\n      0x4e487b7100000000000000000000000000000000000000000000000000000000\n        /* \"#utility.yul\":12801:12802   */\n      0x00\n        /* \"#utility.yul\":12794:12882   */\n      mstore\n        /* \"#utility.yul\":12901:12905   */\n      0x11\n        /* \"#utility.yul\":12898:12899   */\n      0x04\n        /* \"#utility.yul\":12891:12906   */\n      mstore\n        /* \"#utility.yul\":12925:12929   */\n      0x24\n        /* \"#utility.yul\":12922:12923   */\n      0x00\n        /* \"#utility.yul\":12915:12930   */\n      revert\n        /* \"#utility.yul\":12942:13122   */\n    tag_307:\n        /* \"#utility.yul\":12990:13067   */\n      0x4e487b7100000000000000000000000000000000000000000000000000000000\n        /* \"#utility.yul\":12987:12988   */\n      0x00\n        /* \"#utility.yul\":12980:13068   */\n      mstore\n        /* \"#utility.yul\":13087:13091   */\n      0x22\n        /* \"#utility.yul\":13084:13085   */\n      0x04\n        /* \"#utility.yul\":13077:13092   */\n      mstore\n        /* \"#utility.yul\":13111:13115   */\n      0x24\n        /* \"#utility.yul\":13108:13109   */\n      0x00\n        /* \"#utility.yul\":13101:13116   */\n      revert\n        /* \"#utility.yul\":13128:13308   */\n    tag_73:\n        /* \"#utility.yul\":13176:13253   */\n      0x4e487b7100000000000000000000000000000000000000000000000000000000\n        /* \"#utility.yul\":13173:13174   */\n      0x00\n        /* \"#utility.yul\":13166:13254   */\n      mstore\n        /* \"#utility.yul\":13273:13277   */\n      0x32\n        /* \"#utility.yul\":13270:13271   */\n      0x04\n        /* \"#utility.yul\":13263:13278   */\n      mstore\n        /* \"#utility.yul\":13297:13301   */\n      0x24\n        /* \"#utility.yul\":13294:13295   */\n      0x00\n        /* \"#utility.yul\":13287:13302   */\n      revert\n        /* \"#utility.yul\":13314:13494   */\n    tag_271:\n        /* \"#utility.yul\":13362:13439   */\n      0x4e487b7100000000000000000000000000000000000000000000000000000000\n        /* \"#utility.yul\":13359:13360   */\n      0x00\n        /* \"#utility.yul\":13352:13440   */\n      mstore\n        /* \"#utility.yul\":13459:13463   */\n      0x41\n        /* \"#utility.yul\":13456:13457   */\n      0x04\n        /* \"#utility.yul\":13449:13464   */\n      mstore\n        /* \"#utility.yul\":13483:13487   */\n      0x24\n        /* \"#utility.yul\":13480:13481   */\n      0x00\n        /* \"#utility.yul\":13473:13488   */\n      revert\n        /* \"#utility.yul\":13500:13617   */\n    tag_149:\n        /* \"#utility.yul\":13609:13610   */\n      0x00\n        /* \"#utility.yul\":13606:13607   */\n      dup1\n        /* \"#utility.yul\":13599:13611   */\n      revert\n        /* \"#utility.yul\":13623:13740   */\n    tag_146:\n        /* \"#utility.yul\":13732:13733   */\n      0x00\n        /* \"#utility.yul\":13729:13730   */\n      dup1\n        /* \"#utility.yul\":13722:13734   */\n      revert\n        /* \"#utility.yul\":13746:13863   */\n    tag_152:\n        /* \"#utility.yul\":13855:13856   */\n      0x00\n        /* \"#utility.yul\":13852:13853   */\n      dup1\n        /* \"#utility.yul\":13845:13857   */\n      revert\n        /* \"#utility.yul\":13869:13986   */\n    tag_135:\n        /* \"#utility.yul\":13978:13979   */\n      0x00\n        /* \"#utility.yul\":13975:13976   */\n      dup1\n        /* \"#utility.yul\":13968:13980   */\n      revert\n        /* \"#utility.yul\":13992:14109   */\n    tag_168:\n        /* \"#utility.yul\":14101:14102   */\n      0x00\n        /* \"#utility.yul\":14098:14099   */\n      dup1\n        /* \"#utility.yul\":14091:14103   */\n      revert\n        /* \"#utility.yul\":14115:14232   */\n    tag_165:\n        /* \"#utility.yul\":14224:14225   */\n      0x00\n        /* \"#utility.yul\":14221:14222   */\n      dup1\n        /* \"#utility.yul\":14214:14226   */\n      revert\n        /* \"#utility.yul\":14238:14340   */\n    tag_233:\n        /* \"#utility.yul\":14279:14285   */\n      0x00\n        /* \"#utility.yul\":14330:14332   */\n      0x1f\n        /* \"#utility.yul\":14326:14333   */\n      not\n        /* \"#utility.yul\":14321:14323   */\n      0x1f\n        /* \"#utility.yul\":14314:14319   */\n      dup4\n        /* \"#utility.yul\":14310:14324   */\n      add\n        /* \"#utility.yul\":14306:14334   */\n      and\n        /* \"#utility.yul\":14296:14334   */\n      swap1\n      pop\n        /* \"#utility.yul\":14238:14340   */\n      swap2\n      swap1\n      pop\n      jump\t// out\n        /* \"#utility.yul\":14346:14468   */\n    tag_141:\n        /* \"#utility.yul\":14419:14443   */\n      tag_324\n        /* \"#utility.yul\":14437:14442   */\n      dup2\n        /* \"#utility.yul\":14419:14443   */\n      tag_200\n      jump\t// in\n    tag_324:\n        /* \"#utility.yul\":14412:14417   */\n      dup2\n        /* \"#utility.yul\":14409:14444   */\n      eq\n        /* \"#utility.yul\":14399:14462   */\n      tag_325\n      jumpi\n        /* \"#utility.yul\":14458:14459   */\n      0x00\n        /* \"#utility.yul\":14455:14456   */\n      dup1\n        /* \"#utility.yul\":14448:14460   */\n      revert\n        /* \"#utility.yul\":14399:14462   */\n    tag_325:\n        /* \"#utility.yul\":14346:14468   */\n      pop\n      jump\t// out\n        /* \"#utility.yul\":14474:14596   */\n    tag_161:\n        /* \"#utility.yul\":14547:14571   */\n      tag_327\n        /* \"#utility.yul\":14565:14570   */\n      dup2\n        /* \"#utility.yul\":14547:14571   */\n      tag_249\n      jump\t// in\n    tag_327:\n        /* \"#utility.yul\":14540:14545   */\n      dup2\n        /* \"#utility.yul\":14537:14572   */\n      eq\n        /* \"#utility.yul\":14527:14590   */\n      tag_328\n      jumpi\n        /* \"#utility.yul\":14586:14587   */\n      0x00\n        /* \"#utility.yul\":14583:14584   */\n      dup1\n        /* \"#utility.yul\":14576:14588   */\n      revert\n        /* \"#utility.yul\":14527:14590   */\n    tag_328:\n        /* \"#utility.yul\":14474:14596   */\n      pop\n      jump\t// out\n\n    auxdata: 0xa2646970667358221220321691e19b32ffc35adb98b4487f3b5c5375f7f9cdf164d57a21be32bf65940764736f6c63430008070033\n}\n",
				"bytecode": {
					"linkReferences": {},
					"object": "6080604052611392806100136000396000f3fe6080604052600436106100705760003560e01c806374cbc3501161004e57806374cbc3501461010657806374ce0ca9146101455780638642269e14610182578063e4bcc7d41461019e57610070565b80630186a423146100755780630a5bd44b146100b45780631d894eb8146100dd575b600080fd5b34801561008157600080fd5b5061009c60048036038101906100979190610d2a565b6101db565b6040516100ab93929190610fd4565b60405180910390f35b3480156100c057600080fd5b506100db60048036038101906100d69190610cb6565b610228565b005b3480156100e957600080fd5b5061010460048036038101906100ff9190610c56565b61037b565b005b34801561011257600080fd5b5061012d60048036038101906101289190610da0565b610427565b60405161013c93929190610fd4565b60405180910390f35b34801561015157600080fd5b5061016c60048036038101906101679190610d73565b61046b565b6040516101799190610f90565b60405180910390f35b61019c60048036038101906101979190610d73565b61054a565b005b3480156101aa57600080fd5b506101c560048036038101906101c09190610d73565b610940565b6040516101d29190610fb2565b60405180910390f35b6001818051602081018201805184825260208301602085012081835280955050505050506000915090508060000154908060010154908060030160009054906101000a900460ff16905083565b6001848460405161023a929190610f60565b908152602001604051809103902060030160009054906101000a900460ff16610343576102656109ec565b82816000018181525050818160200181815250506001816060019015159081151581525050806001868660405161029d929190610f60565b9081526020016040518091039020600082015181600001556020820151816001015560408201518160020190805190602001906102db929190610a16565b5060608201518160030160006101000a81548160ff021916908315150217905550905050600085859091806001815401808255809150506001900390600052602060002001600090919290919290919290919250919061033c929190610aa0565b5050610375565b6040517fb185df3a00000000000000000000000000000000000000000000000000000000815260040160405180910390fd5b50505050565b6001838360405161038d929190610f60565b908152602001604051809103902060030160009054906101000a900460ff16156103f05780600184846040516103c4929190610f60565b908152602001604051809103902060010160008282546103e491906110d6565b92505081905550610422565b6040517f7e8d96a900000000000000000000000000000000000000000000000000000000815260040160405180910390fd5b505050565b6002602052816000526040600020602052806000526040600020600091509150508060000154908060010154908060020160009054906101000a900460ff16905083565b6060600080549050821015610544576001600083815481106104905761048f6112a1565b5b906000526020600020016040516104a79190610f79565b908152602001604051809103902060020180548060200260200160405190810160405280929190818152602001828054801561053857602002820191906000526020600020905b8160009054906101000a900473ffffffffffffffffffffffffffffffffffffffff1673ffffffffffffffffffffffffffffffffffffffff16815260200190600101908083116104ee575b50505050509050610545565b5b919050565b600080549050811080156105bc57506002600082815260200190815260200160002060003373ffffffffffffffffffffffffffffffffffffffff1673ffffffffffffffffffffffffffffffffffffffff16815260200190815260200160002060020160009054906101000a900460ff16155b1561090b5760006001600083815481106105d9576105d86112a1565b5b906000526020600020016040516105f09190610f79565b90815260200160405180910390206040518060800160405290816000820154815260200160018201548152602001600282018054806020026020016040519081016040528092919081815260200182805480156106a257602002820191906000526020600020905b8160009054906101000a900473ffffffffffffffffffffffffffffffffffffffff1673ffffffffffffffffffffffffffffffffffffffff1681526020019060010190808311610658575b505050505081526020016003820160009054906101000a900460ff16151515158152505090508060000151341015610706576040517f538d76e800000000000000000000000000000000000000000000000000000000815260040160405180910390fd5b61070e610b26565b4381600001818152505081600001518160200181815250506001816040019015159081151581525050806002600085815260200190815260200160002060003373ffffffffffffffffffffffffffffffffffffffff1673ffffffffffffffffffffffffffffffffffffffff168152602001908152602001600020600082015181600001556020820151816001015560408201518160020160006101000a81548160ff0219169083151502179055509050508160200180518091906107d1906111b6565b81525050816001600085815481106107ec576107eb6112a1565b5b906000526020600020016040516108039190610f79565b908152602001604051809103902060008201518160000155602082015181600101556040820151816002019080519060200190610841929190610a16565b5060608201518160030160006101000a81548160ff02191690831515021790555090505060016000848154811061087b5761087a6112a1565b5b906000526020600020016040516108929190610f79565b9081526020016040518091039020600201339080600181540180825580915050600190039060005260206000200160009091909190916101000a81548173ffffffffffffffffffffffffffffffffffffffff021916908373ffffffffffffffffffffffffffffffffffffffff160217905550505061093d565b6040517fd42c9b8b00000000000000000000000000000000000000000000000000000000815260040160405180910390fd5b50565b6000818154811061095057600080fd5b90600052602060002001600091509050805461096b906111e0565b80601f0160208091040260200160405190810160405280929190818152602001828054610997906111e0565b80156109e45780601f106109b9576101008083540402835291602001916109e4565b820191906000526020600020905b8154815290600101906020018083116109c757829003601f168201915b505050505081565b60405180608001604052806000815260200160008152602001606081526020016000151581525090565b828054828255906000526020600020908101928215610a8f579160200282015b82811115610a8e5782518260006101000a81548173ffffffffffffffffffffffffffffffffffffffff021916908373ffffffffffffffffffffffffffffffffffffffff16021790555091602001919060010190610a36565b5b509050610a9c9190610b49565b5090565b828054610aac906111e0565b90600052602060002090601f016020900481019282610ace5760008555610b15565b82601f10610ae757803560ff1916838001178555610b15565b82800160010185558215610b15579182015b82811115610b14578235825591602001919060010190610af9565b5b509050610b229190610b49565b5090565b604051806060016040528060008152602001600081526020016000151581525090565b5b80821115610b62576000816000905550600101610b4a565b5090565b6000610b79610b7484611030565b61100b565b905082815260208101848484011115610b9557610b9461130e565b5b610ba0848285611174565b509392505050565b600081359050610bb78161132e565b92915050565b60008083601f840112610bd357610bd2611304565b5b8235905067ffffffffffffffff811115610bf057610bef6112ff565b5b602083019150836001820283011115610c0c57610c0b611309565b5b9250929050565b600082601f830112610c2857610c27611304565b5b8135610c38848260208601610b66565b91505092915050565b600081359050610c5081611345565b92915050565b600080600060408486031215610c6f57610c6e611318565b5b600084013567ffffffffffffffff811115610c8d57610c8c611313565b5b610c9986828701610bbd565b93509350506020610cac86828701610c41565b9150509250925092565b60008060008060608587031215610cd057610ccf611318565b5b600085013567ffffffffffffffff811115610cee57610ced611313565b5b610cfa87828801610bbd565b94509450506020610d0d87828801610c41565b9250506040610d1e87828801610c41565b91505092959194509250565b600060208284031215610d4057610d3f611318565b5b600082013567ffffffffffffffff811115610d5e57610d5d611313565b5b610d6a84828501610c13565b91505092915050565b600060208284031215610d8957610d88611318565b5b6000610d9784828501610c41565b91505092915050565b60008060408385031215610db757610db6611318565b5b6000610dc585828601610c41565b9250506020610dd685828601610ba8565b9150509250929050565b6000610dec8383610df8565b60208301905092915050565b610e018161112c565b82525050565b6000610e1282611086565b610e1c81856110a9565b9350610e2783611061565b8060005b83811015610e58578151610e3f8882610de0565b9750610e4a8361109c565b925050600181019050610e2b565b5085935050505092915050565b610e6e8161113e565b82525050565b6000610e8083856110cb565b9350610e8d838584611174565b82840190509392505050565b6000610ea482611091565b610eae81856110ba565b9350610ebe818560208601611183565b610ec78161131d565b840191505092915050565b60008154610edf816111e0565b610ee981866110cb565b94506001821660008114610f045760018114610f1557610f48565b60ff19831686528186019350610f48565b610f1e85611071565b60005b83811015610f4057815481890152600182019150602081019050610f21565b838801955050505b50505092915050565b610f5a8161116a565b82525050565b6000610f6d828486610e74565b91508190509392505050565b6000610f858284610ed2565b915081905092915050565b60006020820190508181036000830152610faa8184610e07565b905092915050565b60006020820190508181036000830152610fcc8184610e99565b905092915050565b6000606082019050610fe96000830186610f51565b610ff66020830185610f51565b6110036040830184610e65565b949350505050565b6000611015611026565b90506110218282611212565b919050565b6000604051905090565b600067ffffffffffffffff82111561104b5761104a6112d0565b5b6110548261131d565b9050602081019050919050565b6000819050602082019050919050565b60008190508160005260206000209050919050565b600081519050919050565b600081519050919050565b6000602082019050919050565b600082825260208201905092915050565b600082825260208201905092915050565b600081905092915050565b60006110e18261116a565b91506110ec8361116a565b9250827fffffffffffffffffffffffffffffffffffffffffffffffffffffffffffffffff0382111561112157611120611243565b5b828201905092915050565b60006111378261114a565b9050919050565b60008115159050919050565b600073ffffffffffffffffffffffffffffffffffffffff82169050919050565b6000819050919050565b82818337600083830152505050565b60005b838110156111a1578082015181840152602081019050611186565b838111156111b0576000848401525b50505050565b60006111c18261116a565b915060008214156111d5576111d4611243565b5b600182039050919050565b600060028204905060018216806111f857607f821691505b6020821081141561120c5761120b611272565b5b50919050565b61121b8261131d565b810181811067ffffffffffffffff8211171561123a576112396112d0565b5b80604052505050565b7f4e487b7100000000000000000000000000000000000000000000000000000000600052601160045260246000fd5b7f4e487b7100000000000000000000000000000000000000000000000000000000600052602260045260246000fd5b7f4e487b7100000000000000000000000000000000000000000000000000000000600052603260045260246000fd5b7f4e487b7100000000000000000000000000000000000000000000000000000000600052604160045260246000fd5b600080fd5b600080fd5b600080fd5b600080fd5b600080fd5b600080fd5b6000601f19601f8301169050919050565b6113378161112c565b811461134257600080fd5b50565b61134e8161116a565b811461135957600080fd5b5056fea2646970667358221220321691e19b32ffc35adb98b4487f3b5c5375f7f9cdf164d57a21be32bf65940764736f6c63430008070033",
					"opcodes": "PUSH1 0x80 PUSH1 0x40 MSTORE PUSH2 0x1392 DUP1 PUSH2 0x13 PUSH1 0x0 CODECOPY PUSH1 0x0 RETURN INVALID PUSH1 0x80 PUSH1 0x40 MSTORE PUSH1 0x4 CALLDATASIZE LT PUSH2 0x70 JUMPI PUSH1 0x0 CALLDATALOAD PUSH1 0xE0 SHR DUP1 PUSH4 0x74CBC350 GT PUSH2 0x4E JUMPI DUP1 PUSH4 0x74CBC350 EQ PUSH2 0x106 JUMPI DUP1 PUSH4 0x74CE0CA9 EQ PUSH2 0x145 JUMPI DUP1 PUSH4 0x8642269E EQ PUSH2 0x182 JUMPI DUP1 PUSH4 0xE4BCC7D4 EQ PUSH2 0x19E JUMPI PUSH2 0x70 JUMP JUMPDEST DUP1 PUSH4 0x186A423 EQ PUSH2 0x75 JUMPI DUP1 PUSH4 0xA5BD44B EQ PUSH2 0xB4 JUMPI DUP1 PUSH4 0x1D894EB8 EQ PUSH2 0xDD JUMPI JUMPDEST PUSH1 0x0 DUP1 REVERT JUMPDEST CALLVALUE DUP1 ISZERO PUSH2 0x81 JUMPI PUSH1 0x0 DUP1 REVERT JUMPDEST POP PUSH2 0x9C PUSH1 0x4 DUP1 CALLDATASIZE SUB DUP2 ADD SWAP1 PUSH2 0x97 SWAP2 SWAP1 PUSH2 0xD2A JUMP JUMPDEST PUSH2 0x1DB JUMP JUMPDEST PUSH1 0x40 MLOAD PUSH2 0xAB SWAP4 SWAP3 SWAP2 SWAP1 PUSH2 0xFD4 JUMP JUMPDEST PUSH1 0x40 MLOAD DUP1 SWAP2 SUB SWAP1 RETURN JUMPDEST CALLVALUE DUP1 ISZERO PUSH2 0xC0 JUMPI PUSH1 0x0 DUP1 REVERT JUMPDEST POP PUSH2 0xDB PUSH1 0x4 DUP1 CALLDATASIZE SUB DUP2 ADD SWAP1 PUSH2 0xD6 SWAP2 SWAP1 PUSH2 0xCB6 JUMP JUMPDEST PUSH2 0x228 JUMP JUMPDEST STOP JUMPDEST CALLVALUE DUP1 ISZERO PUSH2 0xE9 JUMPI PUSH1 0x0 DUP1 REVERT JUMPDEST POP PUSH2 0x104 PUSH1 0x4 DUP1 CALLDATASIZE SUB DUP2 ADD SWAP1 PUSH2 0xFF SWAP2 SWAP1 PUSH2 0xC56 JUMP JUMPDEST PUSH2 0x37B JUMP JUMPDEST STOP JUMPDEST CALLVALUE DUP1 ISZERO PUSH2 0x112 JUMPI PUSH1 0x0 DUP1 REVERT JUMPDEST POP PUSH2 0x12D PUSH1 0x4 DUP1 CALLDATASIZE SUB DUP2 ADD SWAP1 PUSH2 0x128 SWAP2 SWAP1 PUSH2 0xDA0 JUMP JUMPDEST PUSH2 0x427 JUMP JUMPDEST PUSH1 0x40 MLOAD PUSH2 0x13C SWAP4 SWAP3 SWAP2 SWAP1 PUSH2 0xFD4 JUMP JUMPDEST PUSH1 0x40 MLOAD DUP1 SWAP2 SUB SWAP1 RETURN JUMPDEST CALLVALUE DUP1 ISZERO PUSH2 0x151 JUMPI PUSH1 0x0 DUP1 REVERT JUMPDEST POP PUSH2 0x16C PUSH1 0x4 DUP1 CALLDATASIZE SUB DUP2 ADD SWAP1 PUSH2 0x167 SWAP2 SWAP1 PUSH2 0xD73 JUMP JUMPDEST PUSH2 0x46B JUMP JUMPDEST PUSH1 0x40 MLOAD PUSH2 0x179 SWAP2 SWAP1 PUSH2 0xF90 JUMP JUMPDEST PUSH1 0x40 MLOAD DUP1 SWAP2 SUB SWAP1 RETURN JUMPDEST PUSH2 0x19C PUSH1 0x4 DUP1 CALLDATASIZE SUB DUP2 ADD SWAP1 PUSH2 0x197 SWAP2 SWAP1 PUSH2 0xD73 JUMP JUMPDEST PUSH2 0x54A JUMP JUMPDEST STOP JUMPDEST CALLVALUE DUP1 ISZERO PUSH2 0x1AA JUMPI PUSH1 0x0 DUP1 REVERT JUMPDEST POP PUSH2 0x1C5 PUSH1 0x4 DUP1 CALLDATASIZE SUB DUP2 ADD SWAP1 PUSH2 0x1C0 SWAP2 SWAP1 PUSH2 0xD73 JUMP JUMPDEST PUSH2 0x940 JUMP JUMPDEST PUSH1 0x40 MLOAD PUSH2 0x1D2 SWAP2 SWAP1 PUSH2 0xFB2 JUMP JUMPDEST PUSH1 0x40 MLOAD DUP1 SWAP2 SUB SWAP1 RETURN JUMPDEST PUSH1 0x1 DUP2 DUP1 MLOAD PUSH1 0x20 DUP2 ADD DUP3 ADD DUP1 MLOAD DUP5 DUP3 MSTORE PUSH1 0x20 DUP4 ADD PUSH1 0x20 DUP6 ADD KECCAK256 DUP2 DUP4 MSTORE DUP1 SWAP6 POP POP POP POP POP POP PUSH1 0x0 SWAP2 POP SWAP1 POP DUP1 PUSH1 0x0 ADD SLOAD SWAP1 DUP1 PUSH1 0x1 ADD SLOAD SWAP1 DUP1 PUSH1 0x3 ADD PUSH1 0x0 SWAP1 SLOAD SWAP1 PUSH2 0x100 EXP SWAP1 DIV PUSH1 0xFF AND SWAP1 POP DUP4 JUMP JUMPDEST PUSH1 0x1 DUP5 DUP5 PUSH1 0x40 MLOAD PUSH2 0x23A SWAP3 SWAP2 SWAP1 PUSH2 0xF60 JUMP JUMPDEST SWAP1 DUP2 MSTORE PUSH1 0x20 ADD PUSH1 0x40 MLOAD DUP1 SWAP2 SUB SWAP1 KECCAK256 PUSH1 0x3 ADD PUSH1 0x0 SWAP1 SLOAD SWAP1 PUSH2 0x100 EXP SWAP1 DIV PUSH1 0xFF AND PUSH2 0x343 JUMPI PUSH2 0x265 PUSH2 0x9EC JUMP JUMPDEST DUP3 DUP2 PUSH1 0x0 ADD DUP2 DUP2 MSTORE POP POP DUP2 DUP2 PUSH1 0x20 ADD DUP2 DUP2 MSTORE POP POP PUSH1 0x1 DUP2 PUSH1 0x60 ADD SWAP1 ISZERO ISZERO SWAP1 DUP2 ISZERO ISZERO DUP2 MSTORE POP POP DUP1 PUSH1 0x1 DUP7 DUP7 PUSH1 0x40 MLOAD PUSH2 0x29D SWAP3 SWAP2 SWAP1 PUSH2 0xF60 JUMP JUMPDEST SWAP1 DUP2 MSTORE PUSH1 0x20 ADD PUSH1 0x40 MLOAD DUP1 SWAP2 SUB SWAP1 KECCAK256 PUSH1 0x0 DUP3 ADD MLOAD DUP2 PUSH1 0x0 ADD SSTORE PUSH1 0x20 DUP3 ADD MLOAD DUP2 PUSH1 0x1 ADD SSTORE PUSH1 0x40 DUP3 ADD MLOAD DUP2 PUSH1 0x2 ADD SWAP1 DUP1 MLOAD SWAP1 PUSH1 0x20 ADD SWAP1 PUSH2 0x2DB SWAP3 SWAP2 SWAP1 PUSH2 0xA16 JUMP JUMPDEST POP PUSH1 0x60 DUP3 ADD MLOAD DUP2 PUSH1 0x3 ADD PUSH1 0x0 PUSH2 0x100 EXP DUP2 SLOAD DUP2 PUSH1 0xFF MUL NOT AND SWAP1 DUP4 ISZERO ISZERO MUL OR SWAP1 SSTORE POP SWAP1 POP POP PUSH1 0x0 DUP6 DUP6 SWAP1 SWAP2 DUP1 PUSH1 0x1 DUP2 SLOAD ADD DUP1 DUP3 SSTORE DUP1 SWAP2 POP POP PUSH1 0x1 SWAP1 SUB SWAP1 PUSH1 0x0 MSTORE PUSH1 0x20 PUSH1 0x0 KECCAK256 ADD PUSH1 0x0 SWAP1 SWAP2 SWAP3 SWAP1 SWAP2 SWAP3 SWAP1 SWAP2 SWAP3 SWAP1 SWAP2 SWAP3 POP SWAP2 SWAP1 PUSH2 0x33C SWAP3 SWAP2 SWAP1 PUSH2 0xAA0 JUMP JUMPDEST POP POP PUSH2 0x375 JUMP JUMPDEST PUSH1 0x40 MLOAD PUSH32 0xB185DF3A00000000000000000000000000000000000000000000000000000000 DUP2 MSTORE PUSH1 0x4 ADD PUSH1 0x40 MLOAD DUP1 SWAP2 SUB SWAP1 REVERT JUMPDEST POP POP POP POP JUMP JUMPDEST PUSH1 0x1 DUP4 DUP4 PUSH1 0x40 MLOAD PUSH2 0x38D SWAP3 SWAP2 SWAP1 PUSH2 0xF60 JUMP JUMPDEST SWAP1 DUP2 MSTORE PUSH1 0x20 ADD PUSH1 0x40 MLOAD DUP1 SWAP2 SUB SWAP1 KECCAK256 PUSH1 0x3 ADD PUSH1 0x0 SWAP1 SLOAD SWAP1 PUSH2 0x100 EXP SWAP1 DIV PUSH1 0xFF AND ISZERO PUSH2 0x3F0 JUMPI DUP1 PUSH1 0x1 DUP5 DUP5 PUSH1 0x40 MLOAD PUSH2 0x3C4 SWAP3 SWAP2 SWAP1 PUSH2 0xF60 JUMP JUMPDEST SWAP1 DUP2 MSTORE PUSH1 0x20 ADD PUSH1 0x40 MLOAD DUP1 SWAP2 SUB SWAP1 KECCAK256 PUSH1 0x1 ADD PUSH1 0x0 DUP3 DUP3 SLOAD PUSH2 0x3E4 SWAP2 SWAP1 PUSH2 0x10D6 JUMP JUMPDEST SWAP3 POP POP DUP2 SWAP1 SSTORE POP PUSH2 0x422 JUMP JUMPDEST PUSH1 0x40 MLOAD PUSH32 0x7E8D96A900000000000000000000000000000000000000000000000000000000 DUP2 MSTORE PUSH1 0x4 ADD PUSH1 0x40 MLOAD DUP1 SWAP2 SUB SWAP1 REVERT JUMPDEST POP POP POP JUMP JUMPDEST PUSH1 0x2 PUSH1 0x20 MSTORE DUP2 PUSH1 0x0 MSTORE PUSH1 0x40 PUSH1 0x0 KECCAK256 PUSH1 0x20 MSTORE DUP1 PUSH1 0x0 MSTORE PUSH1 0x40 PUSH1 0x0 KECCAK256 PUSH1 0x0 SWAP2 POP SWAP2 POP POP DUP1 PUSH1 0x0 ADD SLOAD SWAP1 DUP1 PUSH1 0x1 ADD SLOAD SWAP1 DUP1 PUSH1 0x2 ADD PUSH1 0x0 SWAP1 SLOAD SWAP1 PUSH2 0x100 EXP SWAP1 DIV PUSH1 0xFF AND SWAP1 POP DUP4 JUMP JUMPDEST PUSH1 0x60 PUSH1 0x0 DUP1 SLOAD SWAP1 POP DUP3 LT ISZERO PUSH2 0x544 JUMPI PUSH1 0x1 PUSH1 0x0 DUP4 DUP2 SLOAD DUP2 LT PUSH2 0x490 JUMPI PUSH2 0x48F PUSH2 0x12A1 JUMP JUMPDEST JUMPDEST SWAP1 PUSH1 0x0 MSTORE PUSH1 0x20 PUSH1 0x0 KECCAK256 ADD PUSH1 0x40 MLOAD PUSH2 0x4A7 SWAP2 SWAP1 PUSH2 0xF79 JUMP JUMPDEST SWAP1 DUP2 MSTORE PUSH1 0x20 ADD PUSH1 0x40 MLOAD DUP1 SWAP2 SUB SWAP1 KECCAK256 PUSH1 0x2 ADD DUP1 SLOAD DUP1 PUSH1 0x20 MUL PUSH1 0x20 ADD PUSH1 0x40 MLOAD SWAP1 DUP2 ADD PUSH1 0x40 MSTORE DUP1 SWAP3 SWAP2 SWAP1 DUP2 DUP2 MSTORE PUSH1 0x20 ADD DUP3 DUP1 SLOAD DUP1 ISZERO PUSH2 0x538 JUMPI PUSH1 0x20 MUL DUP3 ADD SWAP2 SWAP1 PUSH1 0x0 MSTORE PUSH1 0x20 PUSH1 0x0 KECCAK256 SWAP1 JUMPDEST DUP2 PUSH1 0x0 SWAP1 SLOAD SWAP1 PUSH2 0x100 EXP SWAP1 DIV PUSH20 0xFFFFFFFFFFFFFFFFFFFFFFFFFFFFFFFFFFFFFFFF AND PUSH20 0xFFFFFFFFFFFFFFFFFFFFFFFFFFFFFFFFFFFFFFFF AND DUP2 MSTORE PUSH1 0x20 ADD SWAP1 PUSH1 0x1 ADD SWAP1 DUP1 DUP4 GT PUSH2 0x4EE JUMPI JUMPDEST POP POP POP POP POP SWAP1 POP PUSH2 0x545 JUMP JUMPDEST JUMPDEST SWAP2 SWAP1 POP JUMP JUMPDEST PUSH1 0x0 DUP1 SLOAD SWAP1 POP DUP2 LT DUP1 ISZERO PUSH2 0x5BC JUMPI POP PUSH1 0x2 PUSH1 0x0 DUP3 DUP2 MSTORE PUSH1 0x20 ADD SWAP1 DUP2 MSTORE PUSH1 0x20 ADD PUSH1 0x0 KECCAK256 PUSH1 0x0 CALLER PUSH20 0xFFFFFFFFFFFFFFFFFFFFFFFFFFFFFFFFFFFFFFFF AND PUSH20 0xFFFFFFFFFFFFFFFFFFFFFFFFFFFFFFFFFFFFFFFF AND DUP2 MSTORE PUSH1 0x20 ADD SWAP1 DUP2 MSTORE PUSH1 0x20 ADD PUSH1 0x0 KECCAK256 PUSH1 0x2 ADD PUSH1 0x0 SWAP1 SLOAD SWAP1 PUSH2 0x100 EXP SWAP1 DIV PUSH1 0xFF AND ISZERO JUMPDEST ISZERO PUSH2 0x90B JUMPI PUSH1 0x0 PUSH1 0x1 PUSH1 0x0 DUP4 DUP2 SLOAD DUP2 LT PUSH2 0x5D9 JUMPI PUSH2 0x5D8 PUSH2 0x12A1 JUMP JUMPDEST JUMPDEST SWAP1 PUSH1 0x0 MSTORE PUSH1 0x20 PUSH1 0x0 KECCAK256 ADD PUSH1 0x40 MLOAD PUSH2 0x5F0 SWAP2 SWAP1 PUSH2 0xF79 JUMP JUMPDEST SWAP1 DUP2 MSTORE PUSH1 0x20 ADD PUSH1 0x40 MLOAD DUP1 SWAP2 SUB SWAP1 KECCAK256 PUSH1 0x40 MLOAD DUP1 PUSH1 0x80 ADD PUSH1 0x40 MSTORE SWAP1 DUP2 PUSH1 0x0 DUP3 ADD SLOAD DUP2 MSTORE PUSH1 0x20 ADD PUSH1 0x1 DUP3 ADD SLOAD DUP2 MSTORE PUSH1 0x20 ADD PUSH1 0x2 DUP3 ADD DUP1 SLOAD DUP1 PUSH1 0x20 MUL PUSH1 0x20 ADD PUSH1 0x40 MLOAD SWAP1 DUP2 ADD PUSH1 0x40 MSTORE DUP1 SWAP3 SWAP2 SWAP1 DUP2 DUP2 MSTORE PUSH1 0x20 ADD DUP3 DUP1 SLOAD DUP1 ISZERO PUSH2 0x6A2 JUMPI PUSH1 0x20 MUL DUP3 ADD SWAP2 SWAP1 PUSH1 0x0 MSTORE PUSH1 0x20 PUSH1 0x0 KECCAK256 SWAP1 JUMPDEST DUP2 PUSH1 0x0 SWAP1 SLOAD SWAP1 PUSH2 0x100 EXP SWAP1 DIV PUSH20 0xFFFFFFFFFFFFFFFFFFFFFFFFFFFFFFFFFFFFFFFF AND PUSH20 0xFFFFFFFFFFFFFFFFFFFFFFFFFFFFFFFFFFFFFFFF AND DUP2 MSTORE PUSH1 0x20 ADD SWAP1 PUSH1 0x1 ADD SWAP1 DUP1 DUP4 GT PUSH2 0x658 JUMPI JUMPDEST POP POP POP POP POP DUP2 MSTORE PUSH1 0x20 ADD PUSH1 0x3 DUP3 ADD PUSH1 0x0 SWAP1 SLOAD SWAP1 PUSH2 0x100 EXP SWAP1 DIV PUSH1 0xFF AND ISZERO ISZERO ISZERO ISZERO DUP2 MSTORE POP POP SWAP1 POP DUP1 PUSH1 0x0 ADD MLOAD CALLVALUE LT ISZERO PUSH2 0x706 JUMPI PUSH1 0x40 MLOAD PUSH32 0x538D76E800000000000000000000000000000000000000000000000000000000 DUP2 MSTORE PUSH1 0x4 ADD PUSH1 0x40 MLOAD DUP1 SWAP2 SUB SWAP1 REVERT JUMPDEST PUSH2 0x70E PUSH2 0xB26 JUMP JUMPDEST NUMBER DUP2 PUSH1 0x0 ADD DUP2 DUP2 MSTORE POP POP DUP2 PUSH1 0x0 ADD MLOAD DUP2 PUSH1 0x20 ADD DUP2 DUP2 MSTORE POP POP PUSH1 0x1 DUP2 PUSH1 0x40 ADD SWAP1 ISZERO ISZERO SWAP1 DUP2 ISZERO ISZERO DUP2 MSTORE POP POP DUP1 PUSH1 0x2 PUSH1 0x0 DUP6 DUP2 MSTORE PUSH1 0x20 ADD SWAP1 DUP2 MSTORE PUSH1 0x20 ADD PUSH1 0x0 KECCAK256 PUSH1 0x0 CALLER PUSH20 0xFFFFFFFFFFFFFFFFFFFFFFFFFFFFFFFFFFFFFFFF AND PUSH20 0xFFFFFFFFFFFFFFFFFFFFFFFFFFFFFFFFFFFFFFFF AND DUP2 MSTORE PUSH1 0x20 ADD SWAP1 DUP2 MSTORE PUSH1 0x20 ADD PUSH1 0x0 KECCAK256 PUSH1 0x0 DUP3 ADD MLOAD DUP2 PUSH1 0x0 ADD SSTORE PUSH1 0x20 DUP3 ADD MLOAD DUP2 PUSH1 0x1 ADD SSTORE PUSH1 0x40 DUP3 ADD MLOAD DUP2 PUSH1 0x2 ADD PUSH1 0x0 PUSH2 0x100 EXP DUP2 SLOAD DUP2 PUSH1 0xFF MUL NOT AND SWAP1 DUP4 ISZERO ISZERO MUL OR SWAP1 SSTORE POP SWAP1 POP POP DUP2 PUSH1 0x20 ADD DUP1 MLOAD DUP1 SWAP2 SWAP1 PUSH2 0x7D1 SWAP1 PUSH2 0x11B6 JUMP JUMPDEST DUP2 MSTORE POP POP DUP2 PUSH1 0x1 PUSH1 0x0 DUP6 DUP2 SLOAD DUP2 LT PUSH2 0x7EC JUMPI PUSH2 0x7EB PUSH2 0x12A1 JUMP JUMPDEST JUMPDEST SWAP1 PUSH1 0x0 MSTORE PUSH1 0x20 PUSH1 0x0 KECCAK256 ADD PUSH1 0x40 MLOAD PUSH2 0x803 SWAP2 SWAP1 PUSH2 0xF79 JUMP JUMPDEST SWAP1 DUP2 MSTORE PUSH1 0x20 ADD PUSH1 0x40 MLOAD DUP1 SWAP2 SUB SWAP1 KECCAK256 PUSH1 0x0 DUP3 ADD MLOAD DUP2 PUSH1 0x0 ADD SSTORE PUSH1 0x20 DUP3 ADD MLOAD DUP2 PUSH1 0x1 ADD SSTORE PUSH1 0x40 DUP3 ADD MLOAD DUP2 PUSH1 0x2 ADD SWAP1 DUP1 MLOAD SWAP1 PUSH1 0x20 ADD SWAP1 PUSH2 0x841 SWAP3 SWAP2 SWAP1 PUSH2 0xA16 JUMP JUMPDEST POP PUSH1 0x60 DUP3 ADD MLOAD DUP2 PUSH1 0x3 ADD PUSH1 0x0 PUSH2 0x100 EXP DUP2 SLOAD DUP2 PUSH1 0xFF MUL NOT AND SWAP1 DUP4 ISZERO ISZERO MUL OR SWAP1 SSTORE POP SWAP1 POP POP PUSH1 0x1 PUSH1 0x0 DUP5 DUP2 SLOAD DUP2 LT PUSH2 0x87B JUMPI PUSH2 0x87A PUSH2 0x12A1 JUMP JUMPDEST JUMPDEST SWAP1 PUSH1 0x0 MSTORE PUSH1 0x20 PUSH1 0x0 KECCAK256 ADD PUSH1 0x40 MLOAD PUSH2 0x892 SWAP2 SWAP1 PUSH2 0xF79 JUMP JUMPDEST SWAP1 DUP2 MSTORE PUSH1 0x20 ADD PUSH1 0x40 MLOAD DUP1 SWAP2 SUB SWAP1 KECCAK256 PUSH1 0x2 ADD CALLER SWAP1 DUP1 PUSH1 0x1 DUP2 SLOAD ADD DUP1 DUP3 SSTORE DUP1 SWAP2 POP POP PUSH1 0x1 SWAP1 SUB SWAP1 PUSH1 0x0 MSTORE PUSH1 0x20 PUSH1 0x0 KECCAK256 ADD PUSH1 0x0 SWAP1 SWAP2 SWAP1 SWAP2 SWAP1 SWAP2 PUSH2 0x100 EXP DUP2 SLOAD DUP2 PUSH20 0xFFFFFFFFFFFFFFFFFFFFFFFFFFFFFFFFFFFFFFFF MUL NOT AND SWAP1 DUP4 PUSH20 0xFFFFFFFFFFFFFFFFFFFFFFFFFFFFFFFFFFFFFFFF AND MUL OR SWAP1 SSTORE POP POP POP PUSH2 0x93D JUMP JUMPDEST PUSH1 0x40 MLOAD PUSH32 0xD42C9B8B00000000000000000000000000000000000000000000000000000000 DUP2 MSTORE PUSH1 0x4 ADD PUSH1 0x40 MLOAD DUP1 SWAP2 SUB SWAP1 REVERT JUMPDEST POP JUMP JUMPDEST PUSH1 0x0 DUP2 DUP2 SLOAD DUP2 LT PUSH2 0x950 JUMPI PUSH1 0x0 DUP1 REVERT JUMPDEST SWAP1 PUSH1 0x0 MSTORE PUSH1 0x20 PUSH1 0x0 KECCAK256 ADD PUSH1 0x0 SWAP2 POP SWAP1 POP DUP1 SLOAD PUSH2 0x96B SWAP1 PUSH2 0x11E0 JUMP JUMPDEST DUP1 PUSH1 0x1F ADD PUSH1 0x20 DUP1 SWAP2 DIV MUL PUSH1 0x20 ADD PUSH1 0x40 MLOAD SWAP1 DUP2 ADD PUSH1 0x40 MSTORE DUP1 SWAP3 SWAP2 SWAP1 DUP2 DUP2 MSTORE PUSH1 0x20 ADD DUP3 DUP1 SLOAD PUSH2 0x997 SWAP1 PUSH2 0x11E0 JUMP JUMPDEST DUP1 ISZERO PUSH2 0x9E4 JUMPI DUP1 PUSH1 0x1F LT PUSH2 0x9B9 JUMPI PUSH2 0x100 DUP1 DUP4 SLOAD DIV MUL DUP4 MSTORE SWAP2 PUSH1 0x20 ADD SWAP2 PUSH2 0x9E4 JUMP JUMPDEST DUP3 ADD SWAP2 SWAP1 PUSH1 0x0 MSTORE PUSH1 0x20 PUSH1 0x0 KECCAK256 SWAP1 JUMPDEST DUP2 SLOAD DUP2 MSTORE SWAP1 PUSH1 0x1 ADD SWAP1 PUSH1 0x20 ADD DUP1 DUP4 GT PUSH2 0x9C7 JUMPI DUP3 SWAP1 SUB PUSH1 0x1F AND DUP3 ADD SWAP2 JUMPDEST POP POP POP POP POP DUP2 JUMP JUMPDEST PUSH1 0x40 MLOAD DUP1 PUSH1 0x80 ADD PUSH1 0x40 MSTORE DUP1 PUSH1 0x0 DUP2 MSTORE PUSH1 0x20 ADD PUSH1 0x0 DUP2 MSTORE PUSH1 0x20 ADD PUSH1 0x60 DUP2 MSTORE PUSH1 0x20 ADD PUSH1 0x0 ISZERO ISZERO DUP2 MSTORE POP SWAP1 JUMP JUMPDEST DUP3 DUP1 SLOAD DUP3 DUP3 SSTORE SWAP1 PUSH1 0x0 MSTORE PUSH1 0x20 PUSH1 0x0 KECCAK256 SWAP1 DUP2 ADD SWAP3 DUP3 ISZERO PUSH2 0xA8F JUMPI SWAP2 PUSH1 0x20 MUL DUP3 ADD JUMPDEST DUP3 DUP2 GT ISZERO PUSH2 0xA8E JUMPI DUP3 MLOAD DUP3 PUSH1 0x0 PUSH2 0x100 EXP DUP2 SLOAD DUP2 PUSH20 0xFFFFFFFFFFFFFFFFFFFFFFFFFFFFFFFFFFFFFFFF MUL NOT AND SWAP1 DUP4 PUSH20 0xFFFFFFFFFFFFFFFFFFFFFFFFFFFFFFFFFFFFFFFF AND MUL OR SWAP1 SSTORE POP SWAP2 PUSH1 0x20 ADD SWAP2 SWAP1 PUSH1 0x1 ADD SWAP1 PUSH2 0xA36 JUMP JUMPDEST JUMPDEST POP SWAP1 POP PUSH2 0xA9C SWAP2 SWAP1 PUSH2 0xB49 JUMP JUMPDEST POP SWAP1 JUMP JUMPDEST DUP3 DUP1 SLOAD PUSH2 0xAAC SWAP1 PUSH2 0x11E0 JUMP JUMPDEST SWAP1 PUSH1 0x0 MSTORE PUSH1 0x20 PUSH1 0x0 KECCAK256 SWAP1 PUSH1 0x1F ADD PUSH1 0x20 SWAP1 DIV DUP2 ADD SWAP3 DUP3 PUSH2 0xACE JUMPI PUSH1 0x0 DUP6 SSTORE PUSH2 0xB15 JUMP JUMPDEST DUP3 PUSH1 0x1F LT PUSH2 0xAE7 JUMPI DUP1 CALLDATALOAD PUSH1 0xFF NOT AND DUP4 DUP1 ADD OR DUP6 SSTORE PUSH2 0xB15 JUMP JUMPDEST DUP3 DUP1 ADD PUSH1 0x1 ADD DUP6 SSTORE DUP3 ISZERO PUSH2 0xB15 JUMPI SWAP2 DUP3 ADD JUMPDEST DUP3 DUP2 GT ISZERO PUSH2 0xB14 JUMPI DUP3 CALLDATALOAD DUP3 SSTORE SWAP2 PUSH1 0x20 ADD SWAP2 SWAP1 PUSH1 0x1 ADD SWAP1 PUSH2 0xAF9 JUMP JUMPDEST JUMPDEST POP SWAP1 POP PUSH2 0xB22 SWAP2 SWAP1 PUSH2 0xB49 JUMP JUMPDEST POP SWAP1 JUMP JUMPDEST PUSH1 0x40 MLOAD DUP1 PUSH1 0x60 ADD PUSH1 0x40 MSTORE DUP1 PUSH1 0x0 DUP2 MSTORE PUSH1 0x20 ADD PUSH1 0x0 DUP2 MSTORE PUSH1 0x20 ADD PUSH1 0x0 ISZERO ISZERO DUP2 MSTORE POP SWAP1 JUMP JUMPDEST JUMPDEST DUP1 DUP3 GT ISZERO PUSH2 0xB62 JUMPI PUSH1 0x0 DUP2 PUSH1 0x0 SWAP1 SSTORE POP PUSH1 0x1 ADD PUSH2 0xB4A JUMP JUMPDEST POP SWAP1 JUMP JUMPDEST PUSH1 0x0 PUSH2 0xB79 PUSH2 0xB74 DUP5 PUSH2 0x1030 JUMP JUMPDEST PUSH2 0x100B JUMP JUMPDEST SWAP1 POP DUP3 DUP2 MSTORE PUSH1 0x20 DUP2 ADD DUP5 DUP5 DUP5 ADD GT ISZERO PUSH2 0xB95 JUMPI PUSH2 0xB94 PUSH2 0x130E JUMP JUMPDEST JUMPDEST PUSH2 0xBA0 DUP5 DUP3 DUP6 PUSH2 0x1174 JUMP JUMPDEST POP SWAP4 SWAP3 POP POP POP JUMP JUMPDEST PUSH1 0x0 DUP2 CALLDATALOAD SWAP1 POP PUSH2 0xBB7 DUP2 PUSH2 0x132E JUMP JUMPDEST SWAP3 SWAP2 POP POP JUMP JUMPDEST PUSH1 0x0 DUP1 DUP4 PUSH1 0x1F DUP5 ADD SLT PUSH2 0xBD3 JUMPI PUSH2 0xBD2 PUSH2 0x1304 JUMP JUMPDEST JUMPDEST DUP3 CALLDATALOAD SWAP1 POP PUSH8 0xFFFFFFFFFFFFFFFF DUP2 GT ISZERO PUSH2 0xBF0 JUMPI PUSH2 0xBEF PUSH2 0x12FF JUMP JUMPDEST JUMPDEST PUSH1 0x20 DUP4 ADD SWAP2 POP DUP4 PUSH1 0x1 DUP3 MUL DUP4 ADD GT ISZERO PUSH2 0xC0C JUMPI PUSH2 0xC0B PUSH2 0x1309 JUMP JUMPDEST JUMPDEST SWAP3 POP SWAP3 SWAP1 POP JUMP JUMPDEST PUSH1 0x0 DUP3 PUSH1 0x1F DUP4 ADD SLT PUSH2 0xC28 JUMPI PUSH2 0xC27 PUSH2 0x1304 JUMP JUMPDEST JUMPDEST DUP2 CALLDATALOAD PUSH2 0xC38 DUP5 DUP3 PUSH1 0x20 DUP7 ADD PUSH2 0xB66 JUMP JUMPDEST SWAP2 POP POP SWAP3 SWAP2 POP POP JUMP JUMPDEST PUSH1 0x0 DUP2 CALLDATALOAD SWAP1 POP PUSH2 0xC50 DUP2 PUSH2 0x1345 JUMP JUMPDEST SWAP3 SWAP2 POP POP JUMP JUMPDEST PUSH1 0x0 DUP1 PUSH1 0x0 PUSH1 0x40 DUP5 DUP7 SUB SLT ISZERO PUSH2 0xC6F JUMPI PUSH2 0xC6E PUSH2 0x1318 JUMP JUMPDEST JUMPDEST PUSH1 0x0 DUP5 ADD CALLDATALOAD PUSH8 0xFFFFFFFFFFFFFFFF DUP2 GT ISZERO PUSH2 0xC8D JUMPI PUSH2 0xC8C PUSH2 0x1313 JUMP JUMPDEST JUMPDEST PUSH2 0xC99 DUP7 DUP3 DUP8 ADD PUSH2 0xBBD JUMP JUMPDEST SWAP4 POP SWAP4 POP POP PUSH1 0x20 PUSH2 0xCAC DUP7 DUP3 DUP8 ADD PUSH2 0xC41 JUMP JUMPDEST SWAP2 POP POP SWAP3 POP SWAP3 POP SWAP3 JUMP JUMPDEST PUSH1 0x0 DUP1 PUSH1 0x0 DUP1 PUSH1 0x60 DUP6 DUP8 SUB SLT ISZERO PUSH2 0xCD0 JUMPI PUSH2 0xCCF PUSH2 0x1318 JUMP JUMPDEST JUMPDEST PUSH1 0x0 DUP6 ADD CALLDATALOAD PUSH8 0xFFFFFFFFFFFFFFFF DUP2 GT ISZERO PUSH2 0xCEE JUMPI PUSH2 0xCED PUSH2 0x1313 JUMP JUMPDEST JUMPDEST PUSH2 0xCFA DUP8 DUP3 DUP9 ADD PUSH2 0xBBD JUMP JUMPDEST SWAP5 POP SWAP5 POP POP PUSH1 0x20 PUSH2 0xD0D DUP8 DUP3 DUP9 ADD PUSH2 0xC41 JUMP JUMPDEST SWAP3 POP POP PUSH1 0x40 PUSH2 0xD1E DUP8 DUP3 DUP9 ADD PUSH2 0xC41 JUMP JUMPDEST SWAP2 POP POP SWAP3 SWAP6 SWAP2 SWAP5 POP SWAP3 POP JUMP JUMPDEST PUSH1 0x0 PUSH1 0x20 DUP3 DUP5 SUB SLT ISZERO PUSH2 0xD40 JUMPI PUSH2 0xD3F PUSH2 0x1318 JUMP JUMPDEST JUMPDEST PUSH1 0x0 DUP3 ADD CALLDATALOAD PUSH8 0xFFFFFFFFFFFFFFFF DUP2 GT ISZERO PUSH2 0xD5E JUMPI PUSH2 0xD5D PUSH2 0x1313 JUMP JUMPDEST JUMPDEST PUSH2 0xD6A DUP5 DUP3 DUP6 ADD PUSH2 0xC13 JUMP JUMPDEST SWAP2 POP POP SWAP3 SWAP2 POP POP JUMP JUMPDEST PUSH1 0x0 PUSH1 0x20 DUP3 DUP5 SUB SLT ISZERO PUSH2 0xD89 JUMPI PUSH2 0xD88 PUSH2 0x1318 JUMP JUMPDEST JUMPDEST PUSH1 0x0 PUSH2 0xD97 DUP5 DUP3 DUP6 ADD PUSH2 0xC41 JUMP JUMPDEST SWAP2 POP POP SWAP3 SWAP2 POP POP JUMP JUMPDEST PUSH1 0x0 DUP1 PUSH1 0x40 DUP4 DUP6 SUB SLT ISZERO PUSH2 0xDB7 JUMPI PUSH2 0xDB6 PUSH2 0x1318 JUMP JUMPDEST JUMPDEST PUSH1 0x0 PUSH2 0xDC5 DUP6 DUP3 DUP7 ADD PUSH2 0xC41 JUMP JUMPDEST SWAP3 POP POP PUSH1 0x20 PUSH2 0xDD6 DUP6 DUP3 DUP7 ADD PUSH2 0xBA8 JUMP JUMPDEST SWAP2 POP POP SWAP3 POP SWAP3 SWAP1 POP JUMP JUMPDEST PUSH1 0x0 PUSH2 0xDEC DUP4 DUP4 PUSH2 0xDF8 JUMP JUMPDEST PUSH1 0x20 DUP4 ADD SWAP1 POP SWAP3 SWAP2 POP POP JUMP JUMPDEST PUSH2 0xE01 DUP2 PUSH2 0x112C JUMP JUMPDEST DUP3 MSTORE POP POP JUMP JUMPDEST PUSH1 0x0 PUSH2 0xE12 DUP3 PUSH2 0x1086 JUMP JUMPDEST PUSH2 0xE1C DUP2 DUP6 PUSH2 0x10A9 JUMP JUMPDEST SWAP4 POP PUSH2 0xE27 DUP4 PUSH2 0x1061 JUMP JUMPDEST DUP1 PUSH1 0x0 JUMPDEST DUP4 DUP2 LT ISZERO PUSH2 0xE58 JUMPI DUP2 MLOAD PUSH2 0xE3F DUP9 DUP3 PUSH2 0xDE0 JUMP JUMPDEST SWAP8 POP PUSH2 0xE4A DUP4 PUSH2 0x109C JUMP JUMPDEST SWAP3 POP POP PUSH1 0x1 DUP2 ADD SWAP1 POP PUSH2 0xE2B JUMP JUMPDEST POP DUP6 SWAP4 POP POP POP POP SWAP3 SWAP2 POP POP JUMP JUMPDEST PUSH2 0xE6E DUP2 PUSH2 0x113E JUMP JUMPDEST DUP3 MSTORE POP POP JUMP JUMPDEST PUSH1 0x0 PUSH2 0xE80 DUP4 DUP6 PUSH2 0x10CB JUMP JUMPDEST SWAP4 POP PUSH2 0xE8D DUP4 DUP6 DUP5 PUSH2 0x1174 JUMP JUMPDEST DUP3 DUP5 ADD SWAP1 POP SWAP4 SWAP3 POP POP POP JUMP JUMPDEST PUSH1 0x0 PUSH2 0xEA4 DUP3 PUSH2 0x1091 JUMP JUMPDEST PUSH2 0xEAE DUP2 DUP6 PUSH2 0x10BA JUMP JUMPDEST SWAP4 POP PUSH2 0xEBE DUP2 DUP6 PUSH1 0x20 DUP7 ADD PUSH2 0x1183 JUMP JUMPDEST PUSH2 0xEC7 DUP2 PUSH2 0x131D JUMP JUMPDEST DUP5 ADD SWAP2 POP POP SWAP3 SWAP2 POP POP JUMP JUMPDEST PUSH1 0x0 DUP2 SLOAD PUSH2 0xEDF DUP2 PUSH2 0x11E0 JUMP JUMPDEST PUSH2 0xEE9 DUP2 DUP7 PUSH2 0x10CB JUMP JUMPDEST SWAP5 POP PUSH1 0x1 DUP3 AND PUSH1 0x0 DUP2 EQ PUSH2 0xF04 JUMPI PUSH1 0x1 DUP2 EQ PUSH2 0xF15 JUMPI PUSH2 0xF48 JUMP JUMPDEST PUSH1 0xFF NOT DUP4 AND DUP7 MSTORE DUP2 DUP7 ADD SWAP4 POP PUSH2 0xF48 JUMP JUMPDEST PUSH2 0xF1E DUP6 PUSH2 0x1071 JUMP JUMPDEST PUSH1 0x0 JUMPDEST DUP4 DUP2 LT ISZERO PUSH2 0xF40 JUMPI DUP2 SLOAD DUP2 DUP10 ADD MSTORE PUSH1 0x1 DUP3 ADD SWAP2 POP PUSH1 0x20 DUP2 ADD SWAP1 POP PUSH2 0xF21 JUMP JUMPDEST DUP4 DUP9 ADD SWAP6 POP POP POP JUMPDEST POP POP POP SWAP3 SWAP2 POP POP JUMP JUMPDEST PUSH2 0xF5A DUP2 PUSH2 0x116A JUMP JUMPDEST DUP3 MSTORE POP POP JUMP JUMPDEST PUSH1 0x0 PUSH2 0xF6D DUP3 DUP5 DUP7 PUSH2 0xE74 JUMP JUMPDEST SWAP2 POP DUP2 SWAP1 POP SWAP4 SWAP3 POP POP POP JUMP JUMPDEST PUSH1 0x0 PUSH2 0xF85 DUP3 DUP5 PUSH2 0xED2 JUMP JUMPDEST SWAP2 POP DUP2 SWAP1 POP SWAP3 SWAP2 POP POP JUMP JUMPDEST PUSH1 0x0 PUSH1 0x20 DUP3 ADD SWAP1 POP DUP2 DUP2 SUB PUSH1 0x0 DUP4 ADD MSTORE PUSH2 0xFAA DUP2 DUP5 PUSH2 0xE07 JUMP JUMPDEST SWAP1 POP SWAP3 SWAP2 POP POP JUMP JUMPDEST PUSH1 0x0 PUSH1 0x20 DUP3 ADD SWAP1 POP DUP2 DUP2 SUB PUSH1 0x0 DUP4 ADD MSTORE PUSH2 0xFCC DUP2 DUP5 PUSH2 0xE99 JUMP JUMPDEST SWAP1 POP SWAP3 SWAP2 POP POP JUMP JUMPDEST PUSH1 0x0 PUSH1 0x60 DUP3 ADD SWAP1 POP PUSH2 0xFE9 PUSH1 0x0 DUP4 ADD DUP7 PUSH2 0xF51 JUMP JUMPDEST PUSH2 0xFF6 PUSH1 0x20 DUP4 ADD DUP6 PUSH2 0xF51 JUMP JUMPDEST PUSH2 0x1003 PUSH1 0x40 DUP4 ADD DUP5 PUSH2 0xE65 JUMP JUMPDEST SWAP5 SWAP4 POP POP POP POP JUMP JUMPDEST PUSH1 0x0 PUSH2 0x1015 PUSH2 0x1026 JUMP JUMPDEST SWAP1 POP PUSH2 0x1021 DUP3 DUP3 PUSH2 0x1212 JUMP JUMPDEST SWAP2 SWAP1 POP JUMP JUMPDEST PUSH1 0x0 PUSH1 0x40 MLOAD SWAP1 POP SWAP1 JUMP JUMPDEST PUSH1 0x0 PUSH8 0xFFFFFFFFFFFFFFFF DUP3 GT ISZERO PUSH2 0x104B JUMPI PUSH2 0x104A PUSH2 0x12D0 JUMP JUMPDEST JUMPDEST PUSH2 0x1054 DUP3 PUSH2 0x131D JUMP JUMPDEST SWAP1 POP PUSH1 0x20 DUP2 ADD SWAP1 POP SWAP2 SWAP1 POP JUMP JUMPDEST PUSH1 0x0 DUP2 SWAP1 POP PUSH1 0x20 DUP3 ADD SWAP1 POP SWAP2 SWAP1 POP JUMP JUMPDEST PUSH1 0x0 DUP2 SWAP1 POP DUP2 PUSH1 0x0 MSTORE PUSH1 0x20 PUSH1 0x0 KECCAK256 SWAP1 POP SWAP2 SWAP1 POP JUMP JUMPDEST PUSH1 0x0 DUP2 MLOAD SWAP1 POP SWAP2 SWAP1 POP JUMP JUMPDEST PUSH1 0x0 DUP2 MLOAD SWAP1 POP SWAP2 SWAP1 POP JUMP JUMPDEST PUSH1 0x0 PUSH1 0x20 DUP3 ADD SWAP1 POP SWAP2 SWAP1 POP JUMP JUMPDEST PUSH1 0x0 DUP3 DUP3 MSTORE PUSH1 0x20 DUP3 ADD SWAP1 POP SWAP3 SWAP2 POP POP JUMP JUMPDEST PUSH1 0x0 DUP3 DUP3 MSTORE PUSH1 0x20 DUP3 ADD SWAP1 POP SWAP3 SWAP2 POP POP JUMP JUMPDEST PUSH1 0x0 DUP2 SWAP1 POP SWAP3 SWAP2 POP POP JUMP JUMPDEST PUSH1 0x0 PUSH2 0x10E1 DUP3 PUSH2 0x116A JUMP JUMPDEST SWAP2 POP PUSH2 0x10EC DUP4 PUSH2 0x116A JUMP JUMPDEST SWAP3 POP DUP3 PUSH32 0xFFFFFFFFFFFFFFFFFFFFFFFFFFFFFFFFFFFFFFFFFFFFFFFFFFFFFFFFFFFFFFFF SUB DUP3 GT ISZERO PUSH2 0x1121 JUMPI PUSH2 0x1120 PUSH2 0x1243 JUMP JUMPDEST JUMPDEST DUP3 DUP3 ADD SWAP1 POP SWAP3 SWAP2 POP POP JUMP JUMPDEST PUSH1 0x0 PUSH2 0x1137 DUP3 PUSH2 0x114A JUMP JUMPDEST SWAP1 POP SWAP2 SWAP1 POP JUMP JUMPDEST PUSH1 0x0 DUP2 ISZERO ISZERO SWAP1 POP SWAP2 SWAP1 POP JUMP JUMPDEST PUSH1 0x0 PUSH20 0xFFFFFFFFFFFFFFFFFFFFFFFFFFFFFFFFFFFFFFFF DUP3 AND SWAP1 POP SWAP2 SWAP1 POP JUMP JUMPDEST PUSH1 0x0 DUP2 SWAP1 POP SWAP2 SWAP1 POP JUMP JUMPDEST DUP3 DUP2 DUP4 CALLDATACOPY PUSH1 0x0 DUP4 DUP4 ADD MSTORE POP POP POP JUMP JUMPDEST PUSH1 0x0 JUMPDEST DUP4 DUP2 LT ISZERO PUSH2 0x11A1 JUMPI DUP1 DUP3 ADD MLOAD DUP2 DUP5 ADD MSTORE PUSH1 0x20 DUP2 ADD SWAP1 POP PUSH2 0x1186 JUMP JUMPDEST DUP4 DUP2 GT ISZERO PUSH2 0x11B0 JUMPI PUSH1 0x0 DUP5 DUP5 ADD MSTORE JUMPDEST POP POP POP POP JUMP JUMPDEST PUSH1 0x0 PUSH2 0x11C1 DUP3 PUSH2 0x116A JUMP JUMPDEST SWAP2 POP PUSH1 0x0 DUP3 EQ ISZERO PUSH2 0x11D5 JUMPI PUSH2 0x11D4 PUSH2 0x1243 JUMP JUMPDEST JUMPDEST PUSH1 0x1 DUP3 SUB SWAP1 POP SWAP2 SWAP1 POP JUMP JUMPDEST PUSH1 0x0 PUSH1 0x2 DUP3 DIV SWAP1 POP PUSH1 0x1 DUP3 AND DUP1 PUSH2 0x11F8 JUMPI PUSH1 0x7F DUP3 AND SWAP2 POP JUMPDEST PUSH1 0x20 DUP3 LT DUP2 EQ ISZERO PUSH2 0x120C JUMPI PUSH2 0x120B PUSH2 0x1272 JUMP JUMPDEST JUMPDEST POP SWAP2 SWAP1 POP JUMP JUMPDEST PUSH2 0x121B DUP3 PUSH2 0x131D JUMP JUMPDEST DUP2 ADD DUP2 DUP2 LT PUSH8 0xFFFFFFFFFFFFFFFF DUP3 GT OR ISZERO PUSH2 0x123A JUMPI PUSH2 0x1239 PUSH2 0x12D0 JUMP JUMPDEST JUMPDEST DUP1 PUSH1 0x40 MSTORE POP POP POP JUMP JUMPDEST PUSH32 0x4E487B7100000000000000000000000000000000000000000000000000000000 PUSH1 0x0 MSTORE PUSH1 0x11 PUSH1 0x4 MSTORE PUSH1 0x24 PUSH1 0x0 REVERT JUMPDEST PUSH32 0x4E487B7100000000000000000000000000000000000000000000000000000000 PUSH1 0x0 MSTORE PUSH1 0x22 PUSH1 0x4 MSTORE PUSH1 0x24 PUSH1 0x0 REVERT JUMPDEST PUSH32 0x4E487B7100000000000000000000000000000000000000000000000000000000 PUSH1 0x0 MSTORE PUSH1 0x32 PUSH1 0x4 MSTORE PUSH1 0x24 PUSH1 0x0 REVERT JUMPDEST PUSH32 0x4E487B7100000000000000000000000000000000000000000000000000000000 PUSH1 0x0 MSTORE PUSH1 0x41 PUSH1 0x4 MSTORE PUSH1 0x24 PUSH1 0x0 REVERT JUMPDEST PUSH1 0x0 DUP1 REVERT JUMPDEST PUSH1 0x0 DUP1 REVERT JUMPDEST PUSH1 0x0 DUP1 REVERT JUMPDEST PUSH1 0x0 DUP1 REVERT JUMPDEST PUSH1 0x0 DUP1 REVERT JUMPDEST PUSH1 0x0 DUP1 REVERT JUMPDEST PUSH1 0x0 PUSH1 0x1F NOT PUSH1 0x1F DUP4 ADD AND SWAP1 POP SWAP2 SWAP1 POP JUMP JUMPDEST PUSH2 0x1337 DUP2 PUSH2 0x112C JUMP JUMPDEST DUP2 EQ PUSH2 0x1342 JUMPI PUSH1 0x0 DUP1 REVERT JUMPDEST POP JUMP JUMPDEST PUSH2 0x134E DUP2 PUSH2 0x116A JUMP JUMPDEST DUP2 EQ PUSH2 0x1359 JUMPI PUSH1 0x0 DUP1 REVERT JUMPDEST POP JUMP INVALID LOG2 PUSH5 0x6970667358 0x22 SLT KECCAK256 ORIGIN AND SWAP2 0xE1 SWAP12 ORIGIN SELFDESTRUCT 0xC3 GAS 0xDB SWAP9 0xB4 BASEFEE PUSH32 0x3B5C5375F7F9CDF164D57A21BE32BF65940764736F6C63430008070033000000 "
				},
				"gasEstimates": {
					"creation": {
						"codeDepositCost": "1002000",
						"executionCost": "1017",
						"totalCost": "1003017"
					},
					"external": {
						"addNewProduct(string,uint256,uint256)": "infinite",
						"availableProducts(uint256)": "infinite",
						"buyProduct(uint256)": "infinite",
						"checkProductBuyers(uint256)": "infinite",
						"products(string)": "infinite",
						"transactions(uint256,address)": "infinite",
						"updateQuantity(string,uint256)": "infinite"
					}
				},
				"methodIdentifiers": {
					"addNewProduct(string,uint256,uint256)": "0a5bd44b",
					"availableProducts(uint256)": "e4bcc7d4",
					"buyProduct(uint256)": "8642269e",
					"checkProductBuyers(uint256)": "74ce0ca9",
					"products(string)": "0186a423",
					"transactions(uint256,address)": "74cbc350",
					"updateQuantity(string,uint256)": "1d894eb8"
				}
			},
			"storageLayout": {
				"storage": [
					{
						"astId": 33,
						"contract": "Project/TechnoLime.sol:TechnoLimeStore",
						"label": "availableProducts",
						"offset": 0,
						"slot": "0",
						"type": "t_array(t_string_storage)dyn_storage"
					},
					{
						"astId": 38,
						"contract": "Project/TechnoLime.sol:TechnoLimeStore",
						"label": "products",
						"offset": 0,
						"slot": "1",
						"type": "t_mapping(t_string_memory_ptr,t_struct(Product)30_storage)"
					},
					{
						"astId": 52,
						"contract": "Project/TechnoLime.sol:TechnoLimeStore",
						"label": "transactions",
						"offset": 0,
						"slot": "2",
						"type": "t_mapping(t_uint256,t_mapping(t_address,t_struct(Transaction)45_storage))"
					}
				],
				"types": {
					"t_address": {
						"encoding": "inplace",
						"label": "address",
						"numberOfBytes": "20"
					},
					"t_array(t_address)dyn_storage": {
						"base": "t_address",
						"encoding": "dynamic_array",
						"label": "address[]",
						"numberOfBytes": "32"
					},
					"t_array(t_string_storage)dyn_storage": {
						"base": "t_string_storage",
						"encoding": "dynamic_array",
						"label": "string[]",
						"numberOfBytes": "32"
					},
					"t_bool": {
						"encoding": "inplace",
						"label": "bool",
						"numberOfBytes": "1"
					},
					"t_mapping(t_address,t_struct(Transaction)45_storage)": {
						"encoding": "mapping",
						"key": "t_address",
						"label": "mapping(address => struct TechnoLimeStore.Transaction)",
						"numberOfBytes": "32",
						"value": "t_struct(Transaction)45_storage"
					},
					"t_mapping(t_string_memory_ptr,t_struct(Product)30_storage)": {
						"encoding": "mapping",
						"key": "t_string_memory_ptr",
						"label": "mapping(string => struct TechnoLimeStore.Product)",
						"numberOfBytes": "32",
						"value": "t_struct(Product)30_storage"
					},
					"t_mapping(t_uint256,t_mapping(t_address,t_struct(Transaction)45_storage))": {
						"encoding": "mapping",
						"key": "t_uint256",
						"label": "mapping(uint256 => mapping(address => struct TechnoLimeStore.Transaction))",
						"numberOfBytes": "32",
						"value": "t_mapping(t_address,t_struct(Transaction)45_storage)"
					},
					"t_string_memory_ptr": {
						"encoding": "bytes",
						"label": "string",
						"numberOfBytes": "32"
					},
					"t_string_storage": {
						"encoding": "bytes",
						"label": "string",
						"numberOfBytes": "32"
					},
					"t_struct(Product)30_storage": {
						"encoding": "inplace",
						"label": "struct TechnoLimeStore.Product",
						"members": [
							{
								"astId": 22,
								"contract": "Project/TechnoLime.sol:TechnoLimeStore",
								"label": "price",
								"offset": 0,
								"slot": "0",
								"type": "t_uint256"
							},
							{
								"astId": 24,
								"contract": "Project/TechnoLime.sol:TechnoLimeStore",
								"label": "quantity",
								"offset": 0,
								"slot": "1",
								"type": "t_uint256"
							},
							{
								"astId": 27,
								"contract": "Project/TechnoLime.sol:TechnoLimeStore",
								"label": "buyers",
								"offset": 0,
								"slot": "2",
								"type": "t_array(t_address)dyn_storage"
							},
							{
								"astId": 29,
								"contract": "Project/TechnoLime.sol:TechnoLimeStore",
								"label": "exists",
								"offset": 0,
								"slot": "3",
								"type": "t_bool"
							}
						],
						"numberOfBytes": "128"
					},
					"t_struct(Transaction)45_storage": {
						"encoding": "inplace",
						"label": "struct TechnoLimeStore.Transaction",
						"members": [
							{
								"astId": 40,
								"contract": "Project/TechnoLime.sol:TechnoLimeStore",
								"label": "blockNum",
								"offset": 0,
								"slot": "0",
								"type": "t_uint256"
							},
							{
								"astId": 42,
								"contract": "Project/TechnoLime.sol:TechnoLimeStore",
								"label": "price",
								"offset": 0,
								"slot": "1",
								"type": "t_uint256"
							},
							{
								"astId": 44,
								"contract": "Project/TechnoLime.sol:TechnoLimeStore",
								"label": "exists",
								"offset": 0,
								"slot": "2",
								"type": "t_bool"
							}
						],
						"numberOfBytes": "96"
					},
					"t_uint256": {
						"encoding": "inplace",
						"label": "uint256",
						"numberOfBytes": "32"
					}
				}
			},
			"userdoc": {
				"errors": {
					"ItemIdWrongOrBoughtAlready()": [
						{
							"notice": "Error trown when the productID doesn't exist or it has been bought once already"
						}
					],
					"LessThanPrice()": [
						{
							"notice": "Error trown when money sent is less than Product price"
						}
					],
					"ProductExists()": [
						{
							"notice": "Can't add a product that already exists"
						}
					]
				},
				"kind": "user",
				"methods": {},
				"version": 1
			}
		}
	}
}