{
	"Project/TechnoLime.sol": {
		"TechnoLimeStore": {
			"abi": [
				{
					"inputs": [],
					"name": "ProductExists",
					"type": "error"
				},
				{
					"inputs": [],
					"name": "ProductNotExistent",
					"type": "error"
				},
				{
					"inputs": [
						{
							"internalType": "string",
							"name": "productName",
							"type": "string"
						},
						{
							"internalType": "uint256",
							"name": "_price",
							"type": "uint256"
						},
						{
							"internalType": "uint256",
							"name": "_quantity",
							"type": "uint256"
						}
					],
					"name": "addNewProduct",
					"outputs": [],
					"stateMutability": "nonpayable",
					"type": "function"
				},
				{
					"inputs": [
						{
							"internalType": "uint256",
							"name": "",
							"type": "uint256"
						}
					],
					"name": "availableProducts",
					"outputs": [
						{
							"internalType": "string",
							"name": "",
							"type": "string"
						}
					],
					"stateMutability": "view",
					"type": "function"
				},
				{
					"inputs": [
						{
							"internalType": "string",
							"name": "",
							"type": "string"
						}
					],
					"name": "products",
					"outputs": [
						{
							"internalType": "uint256",
							"name": "price",
							"type": "uint256"
						},
						{
							"internalType": "uint256",
							"name": "quantity",
							"type": "uint256"
						},
						{
							"internalType": "bool",
							"name": "exists",
							"type": "bool"
						}
					],
					"stateMutability": "view",
					"type": "function"
				},
				{
					"inputs": [
						{
							"internalType": "string",
							"name": "productName",
							"type": "string"
						}
					],
					"name": "updateQuantity",
					"outputs": [],
					"stateMutability": "nonpayable",
					"type": "function"
				}
			],
			"devdoc": {
				"kind": "dev",
				"methods": {},
				"version": 1
			},
			"evm": {
				"assembly": "    /* \"Project/TechnoLime.sol\":98:1295  contract TechnoLimeStore {\r... */\n  mstore(0x40, 0x80)\n  callvalue\n  dup1\n  iszero\n  tag_1\n  jumpi\n  0x00\n  dup1\n  revert\ntag_1:\n  pop\n  dataSize(sub_0)\n  dup1\n  dataOffset(sub_0)\n  0x00\n  codecopy\n  0x00\n  return\nstop\n\nsub_0: assembly {\n        /* \"Project/TechnoLime.sol\":98:1295  contract TechnoLimeStore {\r... */\n      mstore(0x40, 0x80)\n      callvalue\n      dup1\n      iszero\n      tag_1\n      jumpi\n      0x00\n      dup1\n      revert\n    tag_1:\n      pop\n      jumpi(tag_2, lt(calldatasize, 0x04))\n      shr(0xe0, calldataload(0x00))\n      dup1\n      0x0186a423\n      eq\n      tag_3\n      jumpi\n      dup1\n      0x0a5bd44b\n      eq\n      tag_4\n      jumpi\n      dup1\n      0xdda98c45\n      eq\n      tag_5\n      jumpi\n      dup1\n      0xe4bcc7d4\n      eq\n      tag_6\n      jumpi\n    tag_2:\n      0x00\n      dup1\n      revert\n        /* \"Project/TechnoLime.sol\":298:340  mapping(string => Product) public products */\n    tag_3:\n      tag_7\n      0x04\n      dup1\n      calldatasize\n      sub\n      dup2\n      add\n      swap1\n      tag_8\n      swap2\n      swap1\n      tag_9\n      jump\t// in\n    tag_8:\n      tag_10\n      jump\t// in\n    tag_7:\n      mload(0x40)\n      tag_11\n      swap4\n      swap3\n      swap2\n      swap1\n      tag_12\n      jump\t// in\n    tag_11:\n      mload(0x40)\n      dup1\n      swap2\n      sub\n      swap1\n      return\n        /* \"Project/TechnoLime.sol\":499:1087  function addNewProduct(string calldata productName, uint _price,uint _quantity) external{\r... */\n    tag_4:\n      tag_13\n      0x04\n      dup1\n      calldatasize\n      sub\n      dup2\n      add\n      swap1\n      tag_14\n      swap2\n      swap1\n      tag_15\n      jump\t// in\n    tag_14:\n      tag_16\n      jump\t// in\n    tag_13:\n      stop\n        /* \"Project/TechnoLime.sol\":1095:1286  function updateQuantity(string calldata productName) external{\r... */\n    tag_5:\n      tag_17\n      0x04\n      dup1\n      calldatasize\n      sub\n      dup2\n      add\n      swap1\n      tag_18\n      swap2\n      swap1\n      tag_19\n      jump\t// in\n    tag_18:\n      tag_20\n      jump\t// in\n    tag_17:\n      stop\n        /* \"Project/TechnoLime.sol\":258:291  string[] public availableProducts */\n    tag_6:\n      tag_21\n      0x04\n      dup1\n      calldatasize\n      sub\n      dup2\n      add\n      swap1\n      tag_22\n      swap2\n      swap1\n      tag_23\n      jump\t// in\n    tag_22:\n      tag_24\n      jump\t// in\n    tag_21:\n      mload(0x40)\n      tag_25\n      swap2\n      swap1\n      tag_26\n      jump\t// in\n    tag_25:\n      mload(0x40)\n      dup1\n      swap2\n      sub\n      swap1\n      return\n        /* \"Project/TechnoLime.sol\":298:340  mapping(string => Product) public products */\n    tag_10:\n      0x01\n      dup2\n      dup1\n      mload\n      0x20\n      dup2\n      add\n      dup3\n      add\n      dup1\n      mload\n      dup5\n      dup3\n      mstore\n      0x20\n      dup4\n      add\n      0x20\n      dup6\n      add\n      keccak256\n      dup2\n      dup4\n      mstore\n      dup1\n      swap6\n      pop\n      pop\n      pop\n      pop\n      pop\n      pop\n      0x00\n      swap2\n      pop\n      swap1\n      pop\n      dup1\n      0x00\n      add\n      sload\n      swap1\n      dup1\n      0x01\n      add\n      sload\n      swap1\n      dup1\n      0x03\n      add\n      0x00\n      swap1\n      sload\n      swap1\n      0x0100\n      exp\n      swap1\n      div\n      0xff\n      and\n      swap1\n      pop\n      dup4\n      jump\t// out\n        /* \"Project/TechnoLime.sol\":499:1087  function addNewProduct(string calldata productName, uint _price,uint _quantity) external{\r... */\n    tag_16:\n        /* \"Project/TechnoLime.sol\":604:612  products */\n      0x01\n        /* \"Project/TechnoLime.sol\":613:624  productName */\n      dup5\n      dup5\n        /* \"Project/TechnoLime.sol\":604:625  products[productName] */\n      mload(0x40)\n      tag_28\n      swap3\n      swap2\n      swap1\n      tag_29\n      jump\t// in\n    tag_28:\n      swap1\n      dup2\n      mstore\n      0x20\n      add\n      mload(0x40)\n      dup1\n      swap2\n      sub\n      swap1\n      keccak256\n        /* \"Project/TechnoLime.sol\":604:632  products[productName].exists */\n      0x03\n      add\n      0x00\n      swap1\n      sload\n      swap1\n      0x0100\n      exp\n      swap1\n      div\n      0xff\n      and\n        /* \"Project/TechnoLime.sol\":599:1070  if (!products[productName].exists){\r... */\n      tag_30\n      jumpi\n        /* \"Project/TechnoLime.sol\":649:671  Product memory product */\n      tag_31\n      tag_32\n      jump\t// in\n    tag_31:\n        /* \"Project/TechnoLime.sol\":703:709  _price */\n      dup3\n        /* \"Project/TechnoLime.sol\":687:694  product */\n      dup2\n        /* \"Project/TechnoLime.sol\":687:700  product.price */\n      0x00\n      add\n        /* \"Project/TechnoLime.sol\":687:709  product.price = _price */\n      dup2\n      dup2\n      mstore\n      pop\n      pop\n        /* \"Project/TechnoLime.sol\":744:753  _quantity */\n      dup2\n        /* \"Project/TechnoLime.sol\":725:732  product */\n      dup2\n        /* \"Project/TechnoLime.sol\":725:741  product.quantity */\n      0x20\n      add\n        /* \"Project/TechnoLime.sol\":725:753  product.quantity = _quantity */\n      dup2\n      dup2\n      mstore\n      pop\n      pop\n        /* \"Project/TechnoLime.sol\":786:790  true */\n      0x01\n        /* \"Project/TechnoLime.sol\":769:776  product */\n      dup2\n        /* \"Project/TechnoLime.sol\":769:783  product.exists */\n      0x60\n      add\n        /* \"Project/TechnoLime.sol\":769:790  product.exists = true */\n      swap1\n      iszero\n      iszero\n      swap1\n      dup2\n      iszero\n      iszero\n      dup2\n      mstore\n      pop\n      pop\n        /* \"Project/TechnoLime.sol\":830:837  product */\n      dup1\n        /* \"Project/TechnoLime.sol\":806:814  products */\n      0x01\n        /* \"Project/TechnoLime.sol\":815:826  productName */\n      dup7\n      dup7\n        /* \"Project/TechnoLime.sol\":806:827  products[productName] */\n      mload(0x40)\n      tag_33\n      swap3\n      swap2\n      swap1\n      tag_29\n      jump\t// in\n    tag_33:\n      swap1\n      dup2\n      mstore\n      0x20\n      add\n      mload(0x40)\n      dup1\n      swap2\n      sub\n      swap1\n      keccak256\n        /* \"Project/TechnoLime.sol\":806:837  products[productName] = product */\n      0x00\n      dup3\n      add\n      mload\n      dup2\n      0x00\n      add\n      sstore\n      0x20\n      dup3\n      add\n      mload\n      dup2\n      0x01\n      add\n      sstore\n      0x40\n      dup3\n      add\n      mload\n      dup2\n      0x02\n      add\n      swap1\n      dup1\n      mload\n      swap1\n      0x20\n      add\n      swap1\n      tag_34\n      swap3\n      swap2\n      swap1\n      tag_35\n      jump\t// in\n    tag_34:\n      pop\n      0x60\n      dup3\n      add\n      mload\n      dup2\n      0x03\n      add\n      exp(0x0100, 0x00)\n      dup2\n      sload\n      dup2\n      0xff\n      mul\n      not\n      and\n      swap1\n      dup4\n      iszero\n      iszero\n      mul\n      or\n      swap1\n      sstore\n      pop\n      swap1\n      pop\n      pop\n        /* \"Project/TechnoLime.sol\":853:870  availableProducts */\n      0x00\n        /* \"Project/TechnoLime.sol\":876:887  productName */\n      dup6\n      dup6\n        /* \"Project/TechnoLime.sol\":853:888  availableProducts.push(productName) */\n      swap1\n      swap2\n      dup1\n      0x01\n      dup2\n      sload\n      add\n      dup1\n      dup3\n      sstore\n      dup1\n      swap2\n      pop\n      pop\n      0x01\n      swap1\n      sub\n      swap1\n      0x00\n      mstore\n      keccak256(0x00, 0x20)\n      add\n      0x00\n      swap1\n      swap2\n      swap3\n      swap1\n      swap2\n      swap3\n      swap1\n      swap2\n      swap3\n      swap1\n      swap2\n      swap3\n      pop\n      swap2\n      swap1\n      tag_37\n      swap3\n      swap2\n      swap1\n      tag_38\n      jump\t// in\n    tag_37:\n      pop\n        /* \"Project/TechnoLime.sol\":633:901  {\r... */\n      pop\n        /* \"Project/TechnoLime.sol\":599:1070  if (!products[productName].exists){\r... */\n      jump(tag_39)\n    tag_30:\n        /* \"Project/TechnoLime.sol\":1035:1057  Errors.ProductExists() */\n      mload(0x40)\n      0xb185df3a00000000000000000000000000000000000000000000000000000000\n      dup2\n      mstore\n      0x04\n      add\n      mload(0x40)\n      dup1\n      swap2\n      sub\n      swap1\n      revert\n        /* \"Project/TechnoLime.sol\":599:1070  if (!products[productName].exists){\r... */\n    tag_39:\n        /* \"Project/TechnoLime.sol\":499:1087  function addNewProduct(string calldata productName, uint _price,uint _quantity) external{\r... */\n      pop\n      pop\n      pop\n      pop\n      jump\t// out\n        /* \"Project/TechnoLime.sol\":1095:1286  function updateQuantity(string calldata productName) external{\r... */\n    tag_20:\n        /* \"Project/TechnoLime.sol\":1171:1179  products */\n      0x01\n        /* \"Project/TechnoLime.sol\":1180:1191  productName */\n      dup3\n      dup3\n        /* \"Project/TechnoLime.sol\":1171:1192  products[productName] */\n      mload(0x40)\n      tag_41\n      swap3\n      swap2\n      swap1\n      tag_29\n      jump\t// in\n    tag_41:\n      swap1\n      dup2\n      mstore\n      0x20\n      add\n      mload(0x40)\n      dup1\n      swap2\n      sub\n      swap1\n      keccak256\n        /* \"Project/TechnoLime.sol\":1171:1199  products[productName].exists */\n      0x03\n      add\n      0x00\n      swap1\n      sload\n      swap1\n      0x0100\n      exp\n      swap1\n      div\n      0xff\n      and\n        /* \"Project/TechnoLime.sol\":1167:1279  if (products[productName].exists){\r... */\n      iszero\n      tag_42\n      jumpi\n      jump(tag_43)\n    tag_42:\n        /* \"Project/TechnoLime.sol\":1240:1267  Errors.ProductNotExistent() */\n      mload(0x40)\n      0x7e8d96a900000000000000000000000000000000000000000000000000000000\n      dup2\n      mstore\n      0x04\n      add\n      mload(0x40)\n      dup1\n      swap2\n      sub\n      swap1\n      revert\n        /* \"Project/TechnoLime.sol\":1167:1279  if (products[productName].exists){\r... */\n    tag_43:\n        /* \"Project/TechnoLime.sol\":1095:1286  function updateQuantity(string calldata productName) external{\r... */\n      pop\n      pop\n      jump\t// out\n        /* \"Project/TechnoLime.sol\":258:291  string[] public availableProducts */\n    tag_24:\n      0x00\n      dup2\n      dup2\n      sload\n      dup2\n      lt\n      tag_44\n      jumpi\n      0x00\n      dup1\n      revert\n    tag_44:\n      swap1\n      0x00\n      mstore\n      keccak256(0x00, 0x20)\n      add\n      0x00\n      swap2\n      pop\n      swap1\n      pop\n      dup1\n      sload\n      tag_46\n      swap1\n      tag_47\n      jump\t// in\n    tag_46:\n      dup1\n      0x1f\n      add\n      0x20\n      dup1\n      swap2\n      div\n      mul\n      0x20\n      add\n      mload(0x40)\n      swap1\n      dup2\n      add\n      0x40\n      mstore\n      dup1\n      swap3\n      swap2\n      swap1\n      dup2\n      dup2\n      mstore\n      0x20\n      add\n      dup3\n      dup1\n      sload\n      tag_48\n      swap1\n      tag_47\n      jump\t// in\n    tag_48:\n      dup1\n      iszero\n      tag_49\n      jumpi\n      dup1\n      0x1f\n      lt\n      tag_50\n      jumpi\n      0x0100\n      dup1\n      dup4\n      sload\n      div\n      mul\n      dup4\n      mstore\n      swap2\n      0x20\n      add\n      swap2\n      jump(tag_49)\n    tag_50:\n      dup3\n      add\n      swap2\n      swap1\n      0x00\n      mstore\n      keccak256(0x00, 0x20)\n      swap1\n    tag_51:\n      dup2\n      sload\n      dup2\n      mstore\n      swap1\n      0x01\n      add\n      swap1\n      0x20\n      add\n      dup1\n      dup4\n      gt\n      tag_51\n      jumpi\n      dup3\n      swap1\n      sub\n      0x1f\n      and\n      dup3\n      add\n      swap2\n    tag_49:\n      pop\n      pop\n      pop\n      pop\n      pop\n      dup2\n      jump\t// out\n    tag_32:\n      mload(0x40)\n      dup1\n      0x80\n      add\n      0x40\n      mstore\n      dup1\n      0x00\n      dup2\n      mstore\n      0x20\n      add\n      0x00\n      dup2\n      mstore\n      0x20\n      add\n      0x60\n      dup2\n      mstore\n      0x20\n      add\n      iszero(iszero(0x00))\n      dup2\n      mstore\n      pop\n      swap1\n      jump\t// out\n    tag_35:\n      dup3\n      dup1\n      sload\n      dup3\n      dup3\n      sstore\n      swap1\n      0x00\n      mstore\n      keccak256(0x00, 0x20)\n      swap1\n      dup2\n      add\n      swap3\n      dup3\n      iszero\n      tag_52\n      jumpi\n      swap2\n      0x20\n      mul\n      dup3\n      add\n    tag_53:\n      dup3\n      dup2\n      gt\n      iszero\n      tag_54\n      jumpi\n      dup3\n      mload\n      dup3\n      exp(0x0100, 0x00)\n      dup2\n      sload\n      dup2\n      0xffffffffffffffffffffffffffffffffffffffff\n      mul\n      not\n      and\n      swap1\n      dup4\n      0xffffffffffffffffffffffffffffffffffffffff\n      and\n      mul\n      or\n      swap1\n      sstore\n      pop\n      swap2\n      0x20\n      add\n      swap2\n      swap1\n      0x01\n      add\n      swap1\n      jump(tag_53)\n    tag_54:\n    tag_52:\n      pop\n      swap1\n      pop\n      tag_55\n      swap2\n      swap1\n      tag_56\n      jump\t// in\n    tag_55:\n      pop\n      swap1\n      jump\t// out\n    tag_38:\n      dup3\n      dup1\n      sload\n      tag_57\n      swap1\n      tag_47\n      jump\t// in\n    tag_57:\n      swap1\n      0x00\n      mstore\n      keccak256(0x00, 0x20)\n      swap1\n      0x1f\n      add\n      0x20\n      swap1\n      div\n      dup2\n      add\n      swap3\n      dup3\n      tag_59\n      jumpi\n      0x00\n      dup6\n      sstore\n      jump(tag_58)\n    tag_59:\n      dup3\n      0x1f\n      lt\n      tag_60\n      jumpi\n      dup1\n      calldataload\n      not(0xff)\n      and\n      dup4\n      dup1\n      add\n      or\n      dup6\n      sstore\n      jump(tag_58)\n    tag_60:\n      dup3\n      dup1\n      add\n      0x01\n      add\n      dup6\n      sstore\n      dup3\n      iszero\n      tag_58\n      jumpi\n      swap2\n      dup3\n      add\n    tag_61:\n      dup3\n      dup2\n      gt\n      iszero\n      tag_62\n      jumpi\n      dup3\n      calldataload\n      dup3\n      sstore\n      swap2\n      0x20\n      add\n      swap2\n      swap1\n      0x01\n      add\n      swap1\n      jump(tag_61)\n    tag_62:\n    tag_58:\n      pop\n      swap1\n      pop\n      tag_63\n      swap2\n      swap1\n      tag_56\n      jump\t// in\n    tag_63:\n      pop\n      swap1\n      jump\t// out\n    tag_56:\n    tag_64:\n      dup1\n      dup3\n      gt\n      iszero\n      tag_65\n      jumpi\n      0x00\n      dup2\n      0x00\n      swap1\n      sstore\n      pop\n      0x01\n      add\n      jump(tag_64)\n    tag_65:\n      pop\n      swap1\n      jump\t// out\n        /* \"#utility.yul\":7:419   */\n    tag_67:\n        /* \"#utility.yul\":85:90   */\n      0x00\n        /* \"#utility.yul\":110:176   */\n      tag_69\n        /* \"#utility.yul\":126:175   */\n      tag_70\n        /* \"#utility.yul\":168:174   */\n      dup5\n        /* \"#utility.yul\":126:175   */\n      tag_71\n      jump\t// in\n    tag_70:\n        /* \"#utility.yul\":110:176   */\n      tag_72\n      jump\t// in\n    tag_69:\n        /* \"#utility.yul\":101:176   */\n      swap1\n      pop\n        /* \"#utility.yul\":199:205   */\n      dup3\n        /* \"#utility.yul\":192:197   */\n      dup2\n        /* \"#utility.yul\":185:206   */\n      mstore\n        /* \"#utility.yul\":237:241   */\n      0x20\n        /* \"#utility.yul\":230:235   */\n      dup2\n        /* \"#utility.yul\":226:242   */\n      add\n        /* \"#utility.yul\":275:278   */\n      dup5\n        /* \"#utility.yul\":266:272   */\n      dup5\n        /* \"#utility.yul\":261:264   */\n      dup5\n        /* \"#utility.yul\":257:273   */\n      add\n        /* \"#utility.yul\":254:279   */\n      gt\n        /* \"#utility.yul\":251:363   */\n      iszero\n      tag_73\n      jumpi\n        /* \"#utility.yul\":282:361   */\n      tag_74\n      tag_75\n      jump\t// in\n    tag_74:\n        /* \"#utility.yul\":251:363   */\n    tag_73:\n        /* \"#utility.yul\":372:413   */\n      tag_76\n        /* \"#utility.yul\":406:412   */\n      dup5\n        /* \"#utility.yul\":401:404   */\n      dup3\n        /* \"#utility.yul\":396:399   */\n      dup6\n        /* \"#utility.yul\":372:413   */\n      tag_77\n      jump\t// in\n    tag_76:\n        /* \"#utility.yul\":91:419   */\n      pop\n        /* \"#utility.yul\":7:419   */\n      swap4\n      swap3\n      pop\n      pop\n      pop\n      jump\t// out\n        /* \"#utility.yul\":439:992   */\n    tag_78:\n        /* \"#utility.yul\":497:505   */\n      0x00\n        /* \"#utility.yul\":507:513   */\n      dup1\n        /* \"#utility.yul\":557:560   */\n      dup4\n        /* \"#utility.yul\":550:554   */\n      0x1f\n        /* \"#utility.yul\":542:548   */\n      dup5\n        /* \"#utility.yul\":538:555   */\n      add\n        /* \"#utility.yul\":534:561   */\n      slt\n        /* \"#utility.yul\":524:646   */\n      tag_80\n      jumpi\n        /* \"#utility.yul\":565:644   */\n      tag_81\n      tag_82\n      jump\t// in\n    tag_81:\n        /* \"#utility.yul\":524:646   */\n    tag_80:\n        /* \"#utility.yul\":678:684   */\n      dup3\n        /* \"#utility.yul\":665:685   */\n      calldataload\n        /* \"#utility.yul\":655:685   */\n      swap1\n      pop\n        /* \"#utility.yul\":708:726   */\n      0xffffffffffffffff\n        /* \"#utility.yul\":700:706   */\n      dup2\n        /* \"#utility.yul\":697:727   */\n      gt\n        /* \"#utility.yul\":694:811   */\n      iszero\n      tag_83\n      jumpi\n        /* \"#utility.yul\":730:809   */\n      tag_84\n      tag_85\n      jump\t// in\n    tag_84:\n        /* \"#utility.yul\":694:811   */\n    tag_83:\n        /* \"#utility.yul\":844:848   */\n      0x20\n        /* \"#utility.yul\":836:842   */\n      dup4\n        /* \"#utility.yul\":832:849   */\n      add\n        /* \"#utility.yul\":820:849   */\n      swap2\n      pop\n        /* \"#utility.yul\":898:901   */\n      dup4\n        /* \"#utility.yul\":890:894   */\n      0x01\n        /* \"#utility.yul\":882:888   */\n      dup3\n        /* \"#utility.yul\":878:895   */\n      mul\n        /* \"#utility.yul\":868:876   */\n      dup4\n        /* \"#utility.yul\":864:896   */\n      add\n        /* \"#utility.yul\":861:902   */\n      gt\n        /* \"#utility.yul\":858:986   */\n      iszero\n      tag_86\n      jumpi\n        /* \"#utility.yul\":905:984   */\n      tag_87\n      tag_88\n      jump\t// in\n    tag_87:\n        /* \"#utility.yul\":858:986   */\n    tag_86:\n        /* \"#utility.yul\":439:992   */\n      swap3\n      pop\n      swap3\n      swap1\n      pop\n      jump\t// out\n        /* \"#utility.yul\":1012:1352   */\n    tag_89:\n        /* \"#utility.yul\":1068:1073   */\n      0x00\n        /* \"#utility.yul\":1117:1120   */\n      dup3\n        /* \"#utility.yul\":1110:1114   */\n      0x1f\n        /* \"#utility.yul\":1102:1108   */\n      dup4\n        /* \"#utility.yul\":1098:1115   */\n      add\n        /* \"#utility.yul\":1094:1121   */\n      slt\n        /* \"#utility.yul\":1084:1206   */\n      tag_91\n      jumpi\n        /* \"#utility.yul\":1125:1204   */\n      tag_92\n      tag_82\n      jump\t// in\n    tag_92:\n        /* \"#utility.yul\":1084:1206   */\n    tag_91:\n        /* \"#utility.yul\":1242:1248   */\n      dup2\n        /* \"#utility.yul\":1229:1249   */\n      calldataload\n        /* \"#utility.yul\":1267:1346   */\n      tag_93\n        /* \"#utility.yul\":1342:1345   */\n      dup5\n        /* \"#utility.yul\":1334:1340   */\n      dup3\n        /* \"#utility.yul\":1327:1331   */\n      0x20\n        /* \"#utility.yul\":1319:1325   */\n      dup7\n        /* \"#utility.yul\":1315:1332   */\n      add\n        /* \"#utility.yul\":1267:1346   */\n      tag_67\n      jump\t// in\n    tag_93:\n        /* \"#utility.yul\":1258:1346   */\n      swap2\n      pop\n        /* \"#utility.yul\":1074:1352   */\n      pop\n        /* \"#utility.yul\":1012:1352   */\n      swap3\n      swap2\n      pop\n      pop\n      jump\t// out\n        /* \"#utility.yul\":1358:1497   */\n    tag_94:\n        /* \"#utility.yul\":1404:1409   */\n      0x00\n        /* \"#utility.yul\":1442:1448   */\n      dup2\n        /* \"#utility.yul\":1429:1449   */\n      calldataload\n        /* \"#utility.yul\":1420:1449   */\n      swap1\n      pop\n        /* \"#utility.yul\":1458:1491   */\n      tag_96\n        /* \"#utility.yul\":1485:1490   */\n      dup2\n        /* \"#utility.yul\":1458:1491   */\n      tag_97\n      jump\t// in\n    tag_96:\n        /* \"#utility.yul\":1358:1497   */\n      swap3\n      swap2\n      pop\n      pop\n      jump\t// out\n        /* \"#utility.yul\":1503:2032   */\n    tag_19:\n        /* \"#utility.yul\":1574:1580   */\n      0x00\n        /* \"#utility.yul\":1582:1588   */\n      dup1\n        /* \"#utility.yul\":1631:1633   */\n      0x20\n        /* \"#utility.yul\":1619:1628   */\n      dup4\n        /* \"#utility.yul\":1610:1617   */\n      dup6\n        /* \"#utility.yul\":1606:1629   */\n      sub\n        /* \"#utility.yul\":1602:1634   */\n      slt\n        /* \"#utility.yul\":1599:1718   */\n      iszero\n      tag_99\n      jumpi\n        /* \"#utility.yul\":1637:1716   */\n      tag_100\n      tag_101\n      jump\t// in\n    tag_100:\n        /* \"#utility.yul\":1599:1718   */\n    tag_99:\n        /* \"#utility.yul\":1785:1786   */\n      0x00\n        /* \"#utility.yul\":1774:1783   */\n      dup4\n        /* \"#utility.yul\":1770:1787   */\n      add\n        /* \"#utility.yul\":1757:1788   */\n      calldataload\n        /* \"#utility.yul\":1815:1833   */\n      0xffffffffffffffff\n        /* \"#utility.yul\":1807:1813   */\n      dup2\n        /* \"#utility.yul\":1804:1834   */\n      gt\n        /* \"#utility.yul\":1801:1918   */\n      iszero\n      tag_102\n      jumpi\n        /* \"#utility.yul\":1837:1916   */\n      tag_103\n      tag_104\n      jump\t// in\n    tag_103:\n        /* \"#utility.yul\":1801:1918   */\n    tag_102:\n        /* \"#utility.yul\":1950:2015   */\n      tag_105\n        /* \"#utility.yul\":2007:2014   */\n      dup6\n        /* \"#utility.yul\":1998:2004   */\n      dup3\n        /* \"#utility.yul\":1987:1996   */\n      dup7\n        /* \"#utility.yul\":1983:2005   */\n      add\n        /* \"#utility.yul\":1950:2015   */\n      tag_78\n      jump\t// in\n    tag_105:\n        /* \"#utility.yul\":1932:2015   */\n      swap3\n      pop\n      swap3\n      pop\n        /* \"#utility.yul\":1728:2025   */\n      pop\n        /* \"#utility.yul\":1503:2032   */\n      swap3\n      pop\n      swap3\n      swap1\n      pop\n      jump\t// out\n        /* \"#utility.yul\":2038:2857   */\n    tag_15:\n        /* \"#utility.yul\":2127:2133   */\n      0x00\n        /* \"#utility.yul\":2135:2141   */\n      dup1\n        /* \"#utility.yul\":2143:2149   */\n      0x00\n        /* \"#utility.yul\":2151:2157   */\n      dup1\n        /* \"#utility.yul\":2200:2202   */\n      0x60\n        /* \"#utility.yul\":2188:2197   */\n      dup6\n        /* \"#utility.yul\":2179:2186   */\n      dup8\n        /* \"#utility.yul\":2175:2198   */\n      sub\n        /* \"#utility.yul\":2171:2203   */\n      slt\n        /* \"#utility.yul\":2168:2287   */\n      iszero\n      tag_107\n      jumpi\n        /* \"#utility.yul\":2206:2285   */\n      tag_108\n      tag_101\n      jump\t// in\n    tag_108:\n        /* \"#utility.yul\":2168:2287   */\n    tag_107:\n        /* \"#utility.yul\":2354:2355   */\n      0x00\n        /* \"#utility.yul\":2343:2352   */\n      dup6\n        /* \"#utility.yul\":2339:2356   */\n      add\n        /* \"#utility.yul\":2326:2357   */\n      calldataload\n        /* \"#utility.yul\":2384:2402   */\n      0xffffffffffffffff\n        /* \"#utility.yul\":2376:2382   */\n      dup2\n        /* \"#utility.yul\":2373:2403   */\n      gt\n        /* \"#utility.yul\":2370:2487   */\n      iszero\n      tag_109\n      jumpi\n        /* \"#utility.yul\":2406:2485   */\n      tag_110\n      tag_104\n      jump\t// in\n    tag_110:\n        /* \"#utility.yul\":2370:2487   */\n    tag_109:\n        /* \"#utility.yul\":2519:2584   */\n      tag_111\n        /* \"#utility.yul\":2576:2583   */\n      dup8\n        /* \"#utility.yul\":2567:2573   */\n      dup3\n        /* \"#utility.yul\":2556:2565   */\n      dup9\n        /* \"#utility.yul\":2552:2574   */\n      add\n        /* \"#utility.yul\":2519:2584   */\n      tag_78\n      jump\t// in\n    tag_111:\n        /* \"#utility.yul\":2501:2584   */\n      swap5\n      pop\n      swap5\n      pop\n        /* \"#utility.yul\":2297:2594   */\n      pop\n        /* \"#utility.yul\":2633:2635   */\n      0x20\n        /* \"#utility.yul\":2659:2712   */\n      tag_112\n        /* \"#utility.yul\":2704:2711   */\n      dup8\n        /* \"#utility.yul\":2695:2701   */\n      dup3\n        /* \"#utility.yul\":2684:2693   */\n      dup9\n        /* \"#utility.yul\":2680:2702   */\n      add\n        /* \"#utility.yul\":2659:2712   */\n      tag_94\n      jump\t// in\n    tag_112:\n        /* \"#utility.yul\":2649:2712   */\n      swap3\n      pop\n        /* \"#utility.yul\":2604:2722   */\n      pop\n        /* \"#utility.yul\":2761:2763   */\n      0x40\n        /* \"#utility.yul\":2787:2840   */\n      tag_113\n        /* \"#utility.yul\":2832:2839   */\n      dup8\n        /* \"#utility.yul\":2823:2829   */\n      dup3\n        /* \"#utility.yul\":2812:2821   */\n      dup9\n        /* \"#utility.yul\":2808:2830   */\n      add\n        /* \"#utility.yul\":2787:2840   */\n      tag_94\n      jump\t// in\n    tag_113:\n        /* \"#utility.yul\":2777:2840   */\n      swap2\n      pop\n        /* \"#utility.yul\":2732:2850   */\n      pop\n        /* \"#utility.yul\":2038:2857   */\n      swap3\n      swap6\n      swap2\n      swap5\n      pop\n      swap3\n      pop\n      jump\t// out\n        /* \"#utility.yul\":2863:3372   */\n    tag_9:\n        /* \"#utility.yul\":2932:2938   */\n      0x00\n        /* \"#utility.yul\":2981:2983   */\n      0x20\n        /* \"#utility.yul\":2969:2978   */\n      dup3\n        /* \"#utility.yul\":2960:2967   */\n      dup5\n        /* \"#utility.yul\":2956:2979   */\n      sub\n        /* \"#utility.yul\":2952:2984   */\n      slt\n        /* \"#utility.yul\":2949:3068   */\n      iszero\n      tag_115\n      jumpi\n        /* \"#utility.yul\":2987:3066   */\n      tag_116\n      tag_101\n      jump\t// in\n    tag_116:\n        /* \"#utility.yul\":2949:3068   */\n    tag_115:\n        /* \"#utility.yul\":3135:3136   */\n      0x00\n        /* \"#utility.yul\":3124:3133   */\n      dup3\n        /* \"#utility.yul\":3120:3137   */\n      add\n        /* \"#utility.yul\":3107:3138   */\n      calldataload\n        /* \"#utility.yul\":3165:3183   */\n      0xffffffffffffffff\n        /* \"#utility.yul\":3157:3163   */\n      dup2\n        /* \"#utility.yul\":3154:3184   */\n      gt\n        /* \"#utility.yul\":3151:3268   */\n      iszero\n      tag_117\n      jumpi\n        /* \"#utility.yul\":3187:3266   */\n      tag_118\n      tag_104\n      jump\t// in\n    tag_118:\n        /* \"#utility.yul\":3151:3268   */\n    tag_117:\n        /* \"#utility.yul\":3292:3355   */\n      tag_119\n        /* \"#utility.yul\":3347:3354   */\n      dup5\n        /* \"#utility.yul\":3338:3344   */\n      dup3\n        /* \"#utility.yul\":3327:3336   */\n      dup6\n        /* \"#utility.yul\":3323:3345   */\n      add\n        /* \"#utility.yul\":3292:3355   */\n      tag_89\n      jump\t// in\n    tag_119:\n        /* \"#utility.yul\":3282:3355   */\n      swap2\n      pop\n        /* \"#utility.yul\":3078:3365   */\n      pop\n        /* \"#utility.yul\":2863:3372   */\n      swap3\n      swap2\n      pop\n      pop\n      jump\t// out\n        /* \"#utility.yul\":3378:3707   */\n    tag_23:\n        /* \"#utility.yul\":3437:3443   */\n      0x00\n        /* \"#utility.yul\":3486:3488   */\n      0x20\n        /* \"#utility.yul\":3474:3483   */\n      dup3\n        /* \"#utility.yul\":3465:3472   */\n      dup5\n        /* \"#utility.yul\":3461:3484   */\n      sub\n        /* \"#utility.yul\":3457:3489   */\n      slt\n        /* \"#utility.yul\":3454:3573   */\n      iszero\n      tag_121\n      jumpi\n        /* \"#utility.yul\":3492:3571   */\n      tag_122\n      tag_101\n      jump\t// in\n    tag_122:\n        /* \"#utility.yul\":3454:3573   */\n    tag_121:\n        /* \"#utility.yul\":3612:3613   */\n      0x00\n        /* \"#utility.yul\":3637:3690   */\n      tag_123\n        /* \"#utility.yul\":3682:3689   */\n      dup5\n        /* \"#utility.yul\":3673:3679   */\n      dup3\n        /* \"#utility.yul\":3662:3671   */\n      dup6\n        /* \"#utility.yul\":3658:3680   */\n      add\n        /* \"#utility.yul\":3637:3690   */\n      tag_94\n      jump\t// in\n    tag_123:\n        /* \"#utility.yul\":3627:3690   */\n      swap2\n      pop\n        /* \"#utility.yul\":3583:3700   */\n      pop\n        /* \"#utility.yul\":3378:3707   */\n      swap3\n      swap2\n      pop\n      pop\n      jump\t// out\n        /* \"#utility.yul\":3713:3822   */\n    tag_124:\n        /* \"#utility.yul\":3794:3815   */\n      tag_126\n        /* \"#utility.yul\":3809:3814   */\n      dup2\n        /* \"#utility.yul\":3794:3815   */\n      tag_127\n      jump\t// in\n    tag_126:\n        /* \"#utility.yul\":3789:3792   */\n      dup3\n        /* \"#utility.yul\":3782:3816   */\n      mstore\n        /* \"#utility.yul\":3713:3822   */\n      pop\n      pop\n      jump\t// out\n        /* \"#utility.yul\":3852:4169   */\n    tag_128:\n        /* \"#utility.yul\":3968:3971   */\n      0x00\n        /* \"#utility.yul\":3989:4078   */\n      tag_130\n        /* \"#utility.yul\":4071:4077   */\n      dup4\n        /* \"#utility.yul\":4066:4069   */\n      dup6\n        /* \"#utility.yul\":3989:4078   */\n      tag_131\n      jump\t// in\n    tag_130:\n        /* \"#utility.yul\":3982:4078   */\n      swap4\n      pop\n        /* \"#utility.yul\":4088:4131   */\n      tag_132\n        /* \"#utility.yul\":4124:4130   */\n      dup4\n        /* \"#utility.yul\":4119:4122   */\n      dup6\n        /* \"#utility.yul\":4112:4117   */\n      dup5\n        /* \"#utility.yul\":4088:4131   */\n      tag_77\n      jump\t// in\n    tag_132:\n        /* \"#utility.yul\":4156:4162   */\n      dup3\n        /* \"#utility.yul\":4151:4154   */\n      dup5\n        /* \"#utility.yul\":4147:4163   */\n      add\n        /* \"#utility.yul\":4140:4163   */\n      swap1\n      pop\n        /* \"#utility.yul\":3852:4169   */\n      swap4\n      swap3\n      pop\n      pop\n      pop\n      jump\t// out\n        /* \"#utility.yul\":4175:4539   */\n    tag_133:\n        /* \"#utility.yul\":4263:4266   */\n      0x00\n        /* \"#utility.yul\":4291:4330   */\n      tag_135\n        /* \"#utility.yul\":4324:4329   */\n      dup3\n        /* \"#utility.yul\":4291:4330   */\n      tag_136\n      jump\t// in\n    tag_135:\n        /* \"#utility.yul\":4346:4417   */\n      tag_137\n        /* \"#utility.yul\":4410:4416   */\n      dup2\n        /* \"#utility.yul\":4405:4408   */\n      dup6\n        /* \"#utility.yul\":4346:4417   */\n      tag_138\n      jump\t// in\n    tag_137:\n        /* \"#utility.yul\":4339:4417   */\n      swap4\n      pop\n        /* \"#utility.yul\":4426:4478   */\n      tag_139\n        /* \"#utility.yul\":4471:4477   */\n      dup2\n        /* \"#utility.yul\":4466:4469   */\n      dup6\n        /* \"#utility.yul\":4459:4463   */\n      0x20\n        /* \"#utility.yul\":4452:4457   */\n      dup7\n        /* \"#utility.yul\":4448:4464   */\n      add\n        /* \"#utility.yul\":4426:4478   */\n      tag_140\n      jump\t// in\n    tag_139:\n        /* \"#utility.yul\":4503:4532   */\n      tag_141\n        /* \"#utility.yul\":4525:4531   */\n      dup2\n        /* \"#utility.yul\":4503:4532   */\n      tag_142\n      jump\t// in\n    tag_141:\n        /* \"#utility.yul\":4498:4501   */\n      dup5\n        /* \"#utility.yul\":4494:4533   */\n      add\n        /* \"#utility.yul\":4487:4533   */\n      swap2\n      pop\n        /* \"#utility.yul\":4267:4539   */\n      pop\n        /* \"#utility.yul\":4175:4539   */\n      swap3\n      swap2\n      pop\n      pop\n      jump\t// out\n        /* \"#utility.yul\":4545:4663   */\n    tag_143:\n        /* \"#utility.yul\":4632:4656   */\n      tag_145\n        /* \"#utility.yul\":4650:4655   */\n      dup2\n        /* \"#utility.yul\":4632:4656   */\n      tag_146\n      jump\t// in\n    tag_145:\n        /* \"#utility.yul\":4627:4630   */\n      dup3\n        /* \"#utility.yul\":4620:4657   */\n      mstore\n        /* \"#utility.yul\":4545:4663   */\n      pop\n      pop\n      jump\t// out\n        /* \"#utility.yul\":4669:4964   */\n    tag_29:\n        /* \"#utility.yul\":4811:4814   */\n      0x00\n        /* \"#utility.yul\":4833:4938   */\n      tag_148\n        /* \"#utility.yul\":4934:4937   */\n      dup3\n        /* \"#utility.yul\":4925:4931   */\n      dup5\n        /* \"#utility.yul\":4917:4923   */\n      dup7\n        /* \"#utility.yul\":4833:4938   */\n      tag_128\n      jump\t// in\n    tag_148:\n        /* \"#utility.yul\":4826:4938   */\n      swap2\n      pop\n        /* \"#utility.yul\":4955:4958   */\n      dup2\n        /* \"#utility.yul\":4948:4958   */\n      swap1\n      pop\n        /* \"#utility.yul\":4669:4964   */\n      swap4\n      swap3\n      pop\n      pop\n      pop\n      jump\t// out\n        /* \"#utility.yul\":4970:5283   */\n    tag_26:\n        /* \"#utility.yul\":5083:5087   */\n      0x00\n        /* \"#utility.yul\":5121:5123   */\n      0x20\n        /* \"#utility.yul\":5110:5119   */\n      dup3\n        /* \"#utility.yul\":5106:5124   */\n      add\n        /* \"#utility.yul\":5098:5124   */\n      swap1\n      pop\n        /* \"#utility.yul\":5170:5179   */\n      dup2\n        /* \"#utility.yul\":5164:5168   */\n      dup2\n        /* \"#utility.yul\":5160:5180   */\n      sub\n        /* \"#utility.yul\":5156:5157   */\n      0x00\n        /* \"#utility.yul\":5145:5154   */\n      dup4\n        /* \"#utility.yul\":5141:5158   */\n      add\n        /* \"#utility.yul\":5134:5181   */\n      mstore\n        /* \"#utility.yul\":5198:5276   */\n      tag_150\n        /* \"#utility.yul\":5271:5275   */\n      dup2\n        /* \"#utility.yul\":5262:5268   */\n      dup5\n        /* \"#utility.yul\":5198:5276   */\n      tag_133\n      jump\t// in\n    tag_150:\n        /* \"#utility.yul\":5190:5276   */\n      swap1\n      pop\n        /* \"#utility.yul\":4970:5283   */\n      swap3\n      swap2\n      pop\n      pop\n      jump\t// out\n        /* \"#utility.yul\":5289:5719   */\n    tag_12:\n        /* \"#utility.yul\":5432:5436   */\n      0x00\n        /* \"#utility.yul\":5470:5472   */\n      0x60\n        /* \"#utility.yul\":5459:5468   */\n      dup3\n        /* \"#utility.yul\":5455:5473   */\n      add\n        /* \"#utility.yul\":5447:5473   */\n      swap1\n      pop\n        /* \"#utility.yul\":5483:5554   */\n      tag_152\n        /* \"#utility.yul\":5551:5552   */\n      0x00\n        /* \"#utility.yul\":5540:5549   */\n      dup4\n        /* \"#utility.yul\":5536:5553   */\n      add\n        /* \"#utility.yul\":5527:5533   */\n      dup7\n        /* \"#utility.yul\":5483:5554   */\n      tag_143\n      jump\t// in\n    tag_152:\n        /* \"#utility.yul\":5564:5636   */\n      tag_153\n        /* \"#utility.yul\":5632:5634   */\n      0x20\n        /* \"#utility.yul\":5621:5630   */\n      dup4\n        /* \"#utility.yul\":5617:5635   */\n      add\n        /* \"#utility.yul\":5608:5614   */\n      dup6\n        /* \"#utility.yul\":5564:5636   */\n      tag_143\n      jump\t// in\n    tag_153:\n        /* \"#utility.yul\":5646:5712   */\n      tag_154\n        /* \"#utility.yul\":5708:5710   */\n      0x40\n        /* \"#utility.yul\":5697:5706   */\n      dup4\n        /* \"#utility.yul\":5693:5711   */\n      add\n        /* \"#utility.yul\":5684:5690   */\n      dup5\n        /* \"#utility.yul\":5646:5712   */\n      tag_124\n      jump\t// in\n    tag_154:\n        /* \"#utility.yul\":5289:5719   */\n      swap5\n      swap4\n      pop\n      pop\n      pop\n      pop\n      jump\t// out\n        /* \"#utility.yul\":5725:5854   */\n    tag_72:\n        /* \"#utility.yul\":5759:5765   */\n      0x00\n        /* \"#utility.yul\":5786:5806   */\n      tag_156\n      tag_157\n      jump\t// in\n    tag_156:\n        /* \"#utility.yul\":5776:5806   */\n      swap1\n      pop\n        /* \"#utility.yul\":5815:5848   */\n      tag_158\n        /* \"#utility.yul\":5843:5847   */\n      dup3\n        /* \"#utility.yul\":5835:5841   */\n      dup3\n        /* \"#utility.yul\":5815:5848   */\n      tag_159\n      jump\t// in\n    tag_158:\n        /* \"#utility.yul\":5725:5854   */\n      swap2\n      swap1\n      pop\n      jump\t// out\n        /* \"#utility.yul\":5860:5935   */\n    tag_157:\n        /* \"#utility.yul\":5893:5899   */\n      0x00\n        /* \"#utility.yul\":5926:5928   */\n      0x40\n        /* \"#utility.yul\":5920:5929   */\n      mload\n        /* \"#utility.yul\":5910:5929   */\n      swap1\n      pop\n        /* \"#utility.yul\":5860:5935   */\n      swap1\n      jump\t// out\n        /* \"#utility.yul\":5941:6249   */\n    tag_71:\n        /* \"#utility.yul\":6003:6007   */\n      0x00\n        /* \"#utility.yul\":6093:6111   */\n      0xffffffffffffffff\n        /* \"#utility.yul\":6085:6091   */\n      dup3\n        /* \"#utility.yul\":6082:6112   */\n      gt\n        /* \"#utility.yul\":6079:6135   */\n      iszero\n      tag_162\n      jumpi\n        /* \"#utility.yul\":6115:6133   */\n      tag_163\n      tag_164\n      jump\t// in\n    tag_163:\n        /* \"#utility.yul\":6079:6135   */\n    tag_162:\n        /* \"#utility.yul\":6153:6182   */\n      tag_165\n        /* \"#utility.yul\":6175:6181   */\n      dup3\n        /* \"#utility.yul\":6153:6182   */\n      tag_142\n      jump\t// in\n    tag_165:\n        /* \"#utility.yul\":6145:6182   */\n      swap1\n      pop\n        /* \"#utility.yul\":6237:6241   */\n      0x20\n        /* \"#utility.yul\":6231:6235   */\n      dup2\n        /* \"#utility.yul\":6227:6242   */\n      add\n        /* \"#utility.yul\":6219:6242   */\n      swap1\n      pop\n        /* \"#utility.yul\":5941:6249   */\n      swap2\n      swap1\n      pop\n      jump\t// out\n        /* \"#utility.yul\":6255:6354   */\n    tag_136:\n        /* \"#utility.yul\":6307:6313   */\n      0x00\n        /* \"#utility.yul\":6341:6346   */\n      dup2\n        /* \"#utility.yul\":6335:6347   */\n      mload\n        /* \"#utility.yul\":6325:6347   */\n      swap1\n      pop\n        /* \"#utility.yul\":6255:6354   */\n      swap2\n      swap1\n      pop\n      jump\t// out\n        /* \"#utility.yul\":6360:6529   */\n    tag_138:\n        /* \"#utility.yul\":6444:6455   */\n      0x00\n        /* \"#utility.yul\":6478:6484   */\n      dup3\n        /* \"#utility.yul\":6473:6476   */\n      dup3\n        /* \"#utility.yul\":6466:6485   */\n      mstore\n        /* \"#utility.yul\":6518:6522   */\n      0x20\n        /* \"#utility.yul\":6513:6516   */\n      dup3\n        /* \"#utility.yul\":6509:6523   */\n      add\n        /* \"#utility.yul\":6494:6523   */\n      swap1\n      pop\n        /* \"#utility.yul\":6360:6529   */\n      swap3\n      swap2\n      pop\n      pop\n      jump\t// out\n        /* \"#utility.yul\":6535:6683   */\n    tag_131:\n        /* \"#utility.yul\":6637:6648   */\n      0x00\n        /* \"#utility.yul\":6674:6677   */\n      dup2\n        /* \"#utility.yul\":6659:6677   */\n      swap1\n      pop\n        /* \"#utility.yul\":6535:6683   */\n      swap3\n      swap2\n      pop\n      pop\n      jump\t// out\n        /* \"#utility.yul\":6689:6779   */\n    tag_127:\n        /* \"#utility.yul\":6723:6730   */\n      0x00\n        /* \"#utility.yul\":6766:6771   */\n      dup2\n        /* \"#utility.yul\":6759:6772   */\n      iszero\n        /* \"#utility.yul\":6752:6773   */\n      iszero\n        /* \"#utility.yul\":6741:6773   */\n      swap1\n      pop\n        /* \"#utility.yul\":6689:6779   */\n      swap2\n      swap1\n      pop\n      jump\t// out\n        /* \"#utility.yul\":6785:6862   */\n    tag_146:\n        /* \"#utility.yul\":6822:6829   */\n      0x00\n        /* \"#utility.yul\":6851:6856   */\n      dup2\n        /* \"#utility.yul\":6840:6856   */\n      swap1\n      pop\n        /* \"#utility.yul\":6785:6862   */\n      swap2\n      swap1\n      pop\n      jump\t// out\n        /* \"#utility.yul\":6868:7022   */\n    tag_77:\n        /* \"#utility.yul\":6952:6958   */\n      dup3\n        /* \"#utility.yul\":6947:6950   */\n      dup2\n        /* \"#utility.yul\":6942:6945   */\n      dup4\n        /* \"#utility.yul\":6929:6959   */\n      calldatacopy\n        /* \"#utility.yul\":7014:7015   */\n      0x00\n        /* \"#utility.yul\":7005:7011   */\n      dup4\n        /* \"#utility.yul\":7000:7003   */\n      dup4\n        /* \"#utility.yul\":6996:7012   */\n      add\n        /* \"#utility.yul\":6989:7016   */\n      mstore\n        /* \"#utility.yul\":6868:7022   */\n      pop\n      pop\n      pop\n      jump\t// out\n        /* \"#utility.yul\":7028:7335   */\n    tag_140:\n        /* \"#utility.yul\":7096:7097   */\n      0x00\n        /* \"#utility.yul\":7106:7219   */\n    tag_173:\n        /* \"#utility.yul\":7120:7126   */\n      dup4\n        /* \"#utility.yul\":7117:7118   */\n      dup2\n        /* \"#utility.yul\":7114:7127   */\n      lt\n        /* \"#utility.yul\":7106:7219   */\n      iszero\n      tag_175\n      jumpi\n        /* \"#utility.yul\":7205:7206   */\n      dup1\n        /* \"#utility.yul\":7200:7203   */\n      dup3\n        /* \"#utility.yul\":7196:7207   */\n      add\n        /* \"#utility.yul\":7190:7208   */\n      mload\n        /* \"#utility.yul\":7186:7187   */\n      dup2\n        /* \"#utility.yul\":7181:7184   */\n      dup5\n        /* \"#utility.yul\":7177:7188   */\n      add\n        /* \"#utility.yul\":7170:7209   */\n      mstore\n        /* \"#utility.yul\":7142:7144   */\n      0x20\n        /* \"#utility.yul\":7139:7140   */\n      dup2\n        /* \"#utility.yul\":7135:7145   */\n      add\n        /* \"#utility.yul\":7130:7145   */\n      swap1\n      pop\n        /* \"#utility.yul\":7106:7219   */\n      jump(tag_173)\n    tag_175:\n        /* \"#utility.yul\":7237:7243   */\n      dup4\n        /* \"#utility.yul\":7234:7235   */\n      dup2\n        /* \"#utility.yul\":7231:7244   */\n      gt\n        /* \"#utility.yul\":7228:7329   */\n      iszero\n      tag_176\n      jumpi\n        /* \"#utility.yul\":7317:7318   */\n      0x00\n        /* \"#utility.yul\":7308:7314   */\n      dup5\n        /* \"#utility.yul\":7303:7306   */\n      dup5\n        /* \"#utility.yul\":7299:7315   */\n      add\n        /* \"#utility.yul\":7292:7319   */\n      mstore\n        /* \"#utility.yul\":7228:7329   */\n    tag_176:\n        /* \"#utility.yul\":7077:7335   */\n      pop\n        /* \"#utility.yul\":7028:7335   */\n      pop\n      pop\n      pop\n      jump\t// out\n        /* \"#utility.yul\":7341:7661   */\n    tag_47:\n        /* \"#utility.yul\":7385:7391   */\n      0x00\n        /* \"#utility.yul\":7422:7423   */\n      0x02\n        /* \"#utility.yul\":7416:7420   */\n      dup3\n        /* \"#utility.yul\":7412:7424   */\n      div\n        /* \"#utility.yul\":7402:7424   */\n      swap1\n      pop\n        /* \"#utility.yul\":7469:7470   */\n      0x01\n        /* \"#utility.yul\":7463:7467   */\n      dup3\n        /* \"#utility.yul\":7459:7471   */\n      and\n        /* \"#utility.yul\":7490:7508   */\n      dup1\n        /* \"#utility.yul\":7480:7561   */\n      tag_178\n      jumpi\n        /* \"#utility.yul\":7546:7550   */\n      0x7f\n        /* \"#utility.yul\":7538:7544   */\n      dup3\n        /* \"#utility.yul\":7534:7551   */\n      and\n        /* \"#utility.yul\":7524:7551   */\n      swap2\n      pop\n        /* \"#utility.yul\":7480:7561   */\n    tag_178:\n        /* \"#utility.yul\":7608:7610   */\n      0x20\n        /* \"#utility.yul\":7600:7606   */\n      dup3\n        /* \"#utility.yul\":7597:7611   */\n      lt\n        /* \"#utility.yul\":7577:7595   */\n      dup2\n        /* \"#utility.yul\":7574:7612   */\n      eq\n        /* \"#utility.yul\":7571:7655   */\n      iszero\n      tag_179\n      jumpi\n        /* \"#utility.yul\":7627:7645   */\n      tag_180\n      tag_181\n      jump\t// in\n    tag_180:\n        /* \"#utility.yul\":7571:7655   */\n    tag_179:\n        /* \"#utility.yul\":7392:7661   */\n      pop\n        /* \"#utility.yul\":7341:7661   */\n      swap2\n      swap1\n      pop\n      jump\t// out\n        /* \"#utility.yul\":7667:7948   */\n    tag_159:\n        /* \"#utility.yul\":7750:7777   */\n      tag_183\n        /* \"#utility.yul\":7772:7776   */\n      dup3\n        /* \"#utility.yul\":7750:7777   */\n      tag_142\n      jump\t// in\n    tag_183:\n        /* \"#utility.yul\":7742:7748   */\n      dup2\n        /* \"#utility.yul\":7738:7778   */\n      add\n        /* \"#utility.yul\":7880:7886   */\n      dup2\n        /* \"#utility.yul\":7868:7878   */\n      dup2\n        /* \"#utility.yul\":7865:7887   */\n      lt\n        /* \"#utility.yul\":7844:7862   */\n      0xffffffffffffffff\n        /* \"#utility.yul\":7832:7842   */\n      dup3\n        /* \"#utility.yul\":7829:7863   */\n      gt\n        /* \"#utility.yul\":7826:7888   */\n      or\n        /* \"#utility.yul\":7823:7911   */\n      iszero\n      tag_184\n      jumpi\n        /* \"#utility.yul\":7891:7909   */\n      tag_185\n      tag_164\n      jump\t// in\n    tag_185:\n        /* \"#utility.yul\":7823:7911   */\n    tag_184:\n        /* \"#utility.yul\":7931:7941   */\n      dup1\n        /* \"#utility.yul\":7927:7929   */\n      0x40\n        /* \"#utility.yul\":7920:7942   */\n      mstore\n        /* \"#utility.yul\":7710:7948   */\n      pop\n        /* \"#utility.yul\":7667:7948   */\n      pop\n      pop\n      jump\t// out\n        /* \"#utility.yul\":7954:8134   */\n    tag_181:\n        /* \"#utility.yul\":8002:8079   */\n      0x4e487b7100000000000000000000000000000000000000000000000000000000\n        /* \"#utility.yul\":7999:8000   */\n      0x00\n        /* \"#utility.yul\":7992:8080   */\n      mstore\n        /* \"#utility.yul\":8099:8103   */\n      0x22\n        /* \"#utility.yul\":8096:8097   */\n      0x04\n        /* \"#utility.yul\":8089:8104   */\n      mstore\n        /* \"#utility.yul\":8123:8127   */\n      0x24\n        /* \"#utility.yul\":8120:8121   */\n      0x00\n        /* \"#utility.yul\":8113:8128   */\n      revert\n        /* \"#utility.yul\":8140:8320   */\n    tag_164:\n        /* \"#utility.yul\":8188:8265   */\n      0x4e487b7100000000000000000000000000000000000000000000000000000000\n        /* \"#utility.yul\":8185:8186   */\n      0x00\n        /* \"#utility.yul\":8178:8266   */\n      mstore\n        /* \"#utility.yul\":8285:8289   */\n      0x41\n        /* \"#utility.yul\":8282:8283   */\n      0x04\n        /* \"#utility.yul\":8275:8290   */\n      mstore\n        /* \"#utility.yul\":8309:8313   */\n      0x24\n        /* \"#utility.yul\":8306:8307   */\n      0x00\n        /* \"#utility.yul\":8299:8314   */\n      revert\n        /* \"#utility.yul\":8326:8443   */\n    tag_85:\n        /* \"#utility.yul\":8435:8436   */\n      0x00\n        /* \"#utility.yul\":8432:8433   */\n      dup1\n        /* \"#utility.yul\":8425:8437   */\n      revert\n        /* \"#utility.yul\":8449:8566   */\n    tag_82:\n        /* \"#utility.yul\":8558:8559   */\n      0x00\n        /* \"#utility.yul\":8555:8556   */\n      dup1\n        /* \"#utility.yul\":8548:8560   */\n      revert\n        /* \"#utility.yul\":8572:8689   */\n    tag_88:\n        /* \"#utility.yul\":8681:8682   */\n      0x00\n        /* \"#utility.yul\":8678:8679   */\n      dup1\n        /* \"#utility.yul\":8671:8683   */\n      revert\n        /* \"#utility.yul\":8695:8812   */\n    tag_75:\n        /* \"#utility.yul\":8804:8805   */\n      0x00\n        /* \"#utility.yul\":8801:8802   */\n      dup1\n        /* \"#utility.yul\":8794:8806   */\n      revert\n        /* \"#utility.yul\":8818:8935   */\n    tag_104:\n        /* \"#utility.yul\":8927:8928   */\n      0x00\n        /* \"#utility.yul\":8924:8925   */\n      dup1\n        /* \"#utility.yul\":8917:8929   */\n      revert\n        /* \"#utility.yul\":8941:9058   */\n    tag_101:\n        /* \"#utility.yul\":9050:9051   */\n      0x00\n        /* \"#utility.yul\":9047:9048   */\n      dup1\n        /* \"#utility.yul\":9040:9052   */\n      revert\n        /* \"#utility.yul\":9064:9166   */\n    tag_142:\n        /* \"#utility.yul\":9105:9111   */\n      0x00\n        /* \"#utility.yul\":9156:9158   */\n      0x1f\n        /* \"#utility.yul\":9152:9159   */\n      not\n        /* \"#utility.yul\":9147:9149   */\n      0x1f\n        /* \"#utility.yul\":9140:9145   */\n      dup4\n        /* \"#utility.yul\":9136:9150   */\n      add\n        /* \"#utility.yul\":9132:9160   */\n      and\n        /* \"#utility.yul\":9122:9160   */\n      swap1\n      pop\n        /* \"#utility.yul\":9064:9166   */\n      swap2\n      swap1\n      pop\n      jump\t// out\n        /* \"#utility.yul\":9172:9294   */\n    tag_97:\n        /* \"#utility.yul\":9245:9269   */\n      tag_196\n        /* \"#utility.yul\":9263:9268   */\n      dup2\n        /* \"#utility.yul\":9245:9269   */\n      tag_146\n      jump\t// in\n    tag_196:\n        /* \"#utility.yul\":9238:9243   */\n      dup2\n        /* \"#utility.yul\":9235:9270   */\n      eq\n        /* \"#utility.yul\":9225:9288   */\n      tag_197\n      jumpi\n        /* \"#utility.yul\":9284:9285   */\n      0x00\n        /* \"#utility.yul\":9281:9282   */\n      dup1\n        /* \"#utility.yul\":9274:9286   */\n      revert\n        /* \"#utility.yul\":9225:9288   */\n    tag_197:\n        /* \"#utility.yul\":9172:9294   */\n      pop\n      jump\t// out\n\n    auxdata: 0xa26469706673582212203e2a17d3ebc2e11bdab7c8dde9bd81374328a7bffb81d6c198a53e23199e0ee664736f6c63430008070033\n}\n",
				"bytecode": {
					"linkReferences": {},
					"object": "608060405234801561001057600080fd5b50610a11806100206000396000f3fe608060405234801561001057600080fd5b506004361061004c5760003560e01c80630186a423146100515780630a5bd44b14610083578063dda98c451461009f578063e4bcc7d4146100bb575b600080fd5b61006b6004803603810190610066919061069b565b6100eb565b60405161007a939291906107c8565b60405180910390f35b61009d60048036038101906100989190610627565b610138565b005b6100b960048036038101906100b491906105da565b61028b565b005b6100d560048036038101906100d091906106e4565b6102fc565b6040516100e291906107a6565b60405180910390f35b6001818051602081018201805184825260208301602085012081835280955050505050506000915090508060000154908060010154908060030160009054906101000a900460ff16905083565b6001848460405161014a92919061078d565b908152602001604051809103902060030160009054906101000a900460ff16610253576101756103a8565b8281600001818152505081816020018181525050600181606001901515908115158152505080600186866040516101ad92919061078d565b9081526020016040518091039020600082015181600001556020820151816001015560408201518160020190805190602001906101eb9291906103d2565b5060608201518160030160006101000a81548160ff021916908315150217905550905050600085859091806001815401808255809150506001900390600052602060002001600090919290919290919290919250919061024c92919061045c565b5050610285565b6040517fb185df3a00000000000000000000000000000000000000000000000000000000815260040160405180910390fd5b50505050565b6001828260405161029d92919061078d565b908152602001604051809103902060030160009054906101000a900460ff16156102c6576102f8565b6040517f7e8d96a900000000000000000000000000000000000000000000000000000000815260040160405180910390fd5b5050565b6000818154811061030c57600080fd5b906000526020600020016000915090508054610327906108d4565b80601f0160208091040260200160405190810160405280929190818152602001828054610353906108d4565b80156103a05780601f10610375576101008083540402835291602001916103a0565b820191906000526020600020905b81548152906001019060200180831161038357829003601f168201915b505050505081565b60405180608001604052806000815260200160008152602001606081526020016000151581525090565b82805482825590600052602060002090810192821561044b579160200282015b8281111561044a5782518260006101000a81548173ffffffffffffffffffffffffffffffffffffffff021916908373ffffffffffffffffffffffffffffffffffffffff160217905550916020019190600101906103f2565b5b50905061045891906104e2565b5090565b828054610468906108d4565b90600052602060002090601f01602090048101928261048a57600085556104d1565b82601f106104a357803560ff19168380011785556104d1565b828001600101855582156104d1579182015b828111156104d05782358255916020019190600101906104b5565b5b5090506104de91906104e2565b5090565b5b808211156104fb5760008160009055506001016104e3565b5090565b600061051261050d84610824565b6107ff565b90508281526020810184848401111561052e5761052d6109a4565b5b610539848285610892565b509392505050565b60008083601f8401126105575761055661099a565b5b8235905067ffffffffffffffff81111561057457610573610995565b5b6020830191508360018202830111156105905761058f61099f565b5b9250929050565b600082601f8301126105ac576105ab61099a565b5b81356105bc8482602086016104ff565b91505092915050565b6000813590506105d4816109c4565b92915050565b600080602083850312156105f1576105f06109ae565b5b600083013567ffffffffffffffff81111561060f5761060e6109a9565b5b61061b85828601610541565b92509250509250929050565b60008060008060608587031215610641576106406109ae565b5b600085013567ffffffffffffffff81111561065f5761065e6109a9565b5b61066b87828801610541565b9450945050602061067e878288016105c5565b925050604061068f878288016105c5565b91505092959194509250565b6000602082840312156106b1576106b06109ae565b5b600082013567ffffffffffffffff8111156106cf576106ce6109a9565b5b6106db84828501610597565b91505092915050565b6000602082840312156106fa576106f96109ae565b5b6000610708848285016105c5565b91505092915050565b61071a8161087c565b82525050565b600061072c8385610871565b9350610739838584610892565b82840190509392505050565b600061075082610855565b61075a8185610860565b935061076a8185602086016108a1565b610773816109b3565b840191505092915050565b61078781610888565b82525050565b600061079a828486610720565b91508190509392505050565b600060208201905081810360008301526107c08184610745565b905092915050565b60006060820190506107dd600083018661077e565b6107ea602083018561077e565b6107f76040830184610711565b949350505050565b600061080961081a565b90506108158282610906565b919050565b6000604051905090565b600067ffffffffffffffff82111561083f5761083e610966565b5b610848826109b3565b9050602081019050919050565b600081519050919050565b600082825260208201905092915050565b600081905092915050565b60008115159050919050565b6000819050919050565b82818337600083830152505050565b60005b838110156108bf5780820151818401526020810190506108a4565b838111156108ce576000848401525b50505050565b600060028204905060018216806108ec57607f821691505b60208210811415610900576108ff610937565b5b50919050565b61090f826109b3565b810181811067ffffffffffffffff8211171561092e5761092d610966565b5b80604052505050565b7f4e487b7100000000000000000000000000000000000000000000000000000000600052602260045260246000fd5b7f4e487b7100000000000000000000000000000000000000000000000000000000600052604160045260246000fd5b600080fd5b600080fd5b600080fd5b600080fd5b600080fd5b600080fd5b6000601f19601f8301169050919050565b6109cd81610888565b81146109d857600080fd5b5056fea26469706673582212203e2a17d3ebc2e11bdab7c8dde9bd81374328a7bffb81d6c198a53e23199e0ee664736f6c63430008070033",
					"opcodes": "PUSH1 0x80 PUSH1 0x40 MSTORE CALLVALUE DUP1 ISZERO PUSH2 0x10 JUMPI PUSH1 0x0 DUP1 REVERT JUMPDEST POP PUSH2 0xA11 DUP1 PUSH2 0x20 PUSH1 0x0 CODECOPY PUSH1 0x0 RETURN INVALID PUSH1 0x80 PUSH1 0x40 MSTORE CALLVALUE DUP1 ISZERO PUSH2 0x10 JUMPI PUSH1 0x0 DUP1 REVERT JUMPDEST POP PUSH1 0x4 CALLDATASIZE LT PUSH2 0x4C JUMPI PUSH1 0x0 CALLDATALOAD PUSH1 0xE0 SHR DUP1 PUSH4 0x186A423 EQ PUSH2 0x51 JUMPI DUP1 PUSH4 0xA5BD44B EQ PUSH2 0x83 JUMPI DUP1 PUSH4 0xDDA98C45 EQ PUSH2 0x9F JUMPI DUP1 PUSH4 0xE4BCC7D4 EQ PUSH2 0xBB JUMPI JUMPDEST PUSH1 0x0 DUP1 REVERT JUMPDEST PUSH2 0x6B PUSH1 0x4 DUP1 CALLDATASIZE SUB DUP2 ADD SWAP1 PUSH2 0x66 SWAP2 SWAP1 PUSH2 0x69B JUMP JUMPDEST PUSH2 0xEB JUMP JUMPDEST PUSH1 0x40 MLOAD PUSH2 0x7A SWAP4 SWAP3 SWAP2 SWAP1 PUSH2 0x7C8 JUMP JUMPDEST PUSH1 0x40 MLOAD DUP1 SWAP2 SUB SWAP1 RETURN JUMPDEST PUSH2 0x9D PUSH1 0x4 DUP1 CALLDATASIZE SUB DUP2 ADD SWAP1 PUSH2 0x98 SWAP2 SWAP1 PUSH2 0x627 JUMP JUMPDEST PUSH2 0x138 JUMP JUMPDEST STOP JUMPDEST PUSH2 0xB9 PUSH1 0x4 DUP1 CALLDATASIZE SUB DUP2 ADD SWAP1 PUSH2 0xB4 SWAP2 SWAP1 PUSH2 0x5DA JUMP JUMPDEST PUSH2 0x28B JUMP JUMPDEST STOP JUMPDEST PUSH2 0xD5 PUSH1 0x4 DUP1 CALLDATASIZE SUB DUP2 ADD SWAP1 PUSH2 0xD0 SWAP2 SWAP1 PUSH2 0x6E4 JUMP JUMPDEST PUSH2 0x2FC JUMP JUMPDEST PUSH1 0x40 MLOAD PUSH2 0xE2 SWAP2 SWAP1 PUSH2 0x7A6 JUMP JUMPDEST PUSH1 0x40 MLOAD DUP1 SWAP2 SUB SWAP1 RETURN JUMPDEST PUSH1 0x1 DUP2 DUP1 MLOAD PUSH1 0x20 DUP2 ADD DUP3 ADD DUP1 MLOAD DUP5 DUP3 MSTORE PUSH1 0x20 DUP4 ADD PUSH1 0x20 DUP6 ADD KECCAK256 DUP2 DUP4 MSTORE DUP1 SWAP6 POP POP POP POP POP POP PUSH1 0x0 SWAP2 POP SWAP1 POP DUP1 PUSH1 0x0 ADD SLOAD SWAP1 DUP1 PUSH1 0x1 ADD SLOAD SWAP1 DUP1 PUSH1 0x3 ADD PUSH1 0x0 SWAP1 SLOAD SWAP1 PUSH2 0x100 EXP SWAP1 DIV PUSH1 0xFF AND SWAP1 POP DUP4 JUMP JUMPDEST PUSH1 0x1 DUP5 DUP5 PUSH1 0x40 MLOAD PUSH2 0x14A SWAP3 SWAP2 SWAP1 PUSH2 0x78D JUMP JUMPDEST SWAP1 DUP2 MSTORE PUSH1 0x20 ADD PUSH1 0x40 MLOAD DUP1 SWAP2 SUB SWAP1 KECCAK256 PUSH1 0x3 ADD PUSH1 0x0 SWAP1 SLOAD SWAP1 PUSH2 0x100 EXP SWAP1 DIV PUSH1 0xFF AND PUSH2 0x253 JUMPI PUSH2 0x175 PUSH2 0x3A8 JUMP JUMPDEST DUP3 DUP2 PUSH1 0x0 ADD DUP2 DUP2 MSTORE POP POP DUP2 DUP2 PUSH1 0x20 ADD DUP2 DUP2 MSTORE POP POP PUSH1 0x1 DUP2 PUSH1 0x60 ADD SWAP1 ISZERO ISZERO SWAP1 DUP2 ISZERO ISZERO DUP2 MSTORE POP POP DUP1 PUSH1 0x1 DUP7 DUP7 PUSH1 0x40 MLOAD PUSH2 0x1AD SWAP3 SWAP2 SWAP1 PUSH2 0x78D JUMP JUMPDEST SWAP1 DUP2 MSTORE PUSH1 0x20 ADD PUSH1 0x40 MLOAD DUP1 SWAP2 SUB SWAP1 KECCAK256 PUSH1 0x0 DUP3 ADD MLOAD DUP2 PUSH1 0x0 ADD SSTORE PUSH1 0x20 DUP3 ADD MLOAD DUP2 PUSH1 0x1 ADD SSTORE PUSH1 0x40 DUP3 ADD MLOAD DUP2 PUSH1 0x2 ADD SWAP1 DUP1 MLOAD SWAP1 PUSH1 0x20 ADD SWAP1 PUSH2 0x1EB SWAP3 SWAP2 SWAP1 PUSH2 0x3D2 JUMP JUMPDEST POP PUSH1 0x60 DUP3 ADD MLOAD DUP2 PUSH1 0x3 ADD PUSH1 0x0 PUSH2 0x100 EXP DUP2 SLOAD DUP2 PUSH1 0xFF MUL NOT AND SWAP1 DUP4 ISZERO ISZERO MUL OR SWAP1 SSTORE POP SWAP1 POP POP PUSH1 0x0 DUP6 DUP6 SWAP1 SWAP2 DUP1 PUSH1 0x1 DUP2 SLOAD ADD DUP1 DUP3 SSTORE DUP1 SWAP2 POP POP PUSH1 0x1 SWAP1 SUB SWAP1 PUSH1 0x0 MSTORE PUSH1 0x20 PUSH1 0x0 KECCAK256 ADD PUSH1 0x0 SWAP1 SWAP2 SWAP3 SWAP1 SWAP2 SWAP3 SWAP1 SWAP2 SWAP3 SWAP1 SWAP2 SWAP3 POP SWAP2 SWAP1 PUSH2 0x24C SWAP3 SWAP2 SWAP1 PUSH2 0x45C JUMP JUMPDEST POP POP PUSH2 0x285 JUMP JUMPDEST PUSH1 0x40 MLOAD PUSH32 0xB185DF3A00000000000000000000000000000000000000000000000000000000 DUP2 MSTORE PUSH1 0x4 ADD PUSH1 0x40 MLOAD DUP1 SWAP2 SUB SWAP1 REVERT JUMPDEST POP POP POP POP JUMP JUMPDEST PUSH1 0x1 DUP3 DUP3 PUSH1 0x40 MLOAD PUSH2 0x29D SWAP3 SWAP2 SWAP1 PUSH2 0x78D JUMP JUMPDEST SWAP1 DUP2 MSTORE PUSH1 0x20 ADD PUSH1 0x40 MLOAD DUP1 SWAP2 SUB SWAP1 KECCAK256 PUSH1 0x3 ADD PUSH1 0x0 SWAP1 SLOAD SWAP1 PUSH2 0x100 EXP SWAP1 DIV PUSH1 0xFF AND ISZERO PUSH2 0x2C6 JUMPI PUSH2 0x2F8 JUMP JUMPDEST PUSH1 0x40 MLOAD PUSH32 0x7E8D96A900000000000000000000000000000000000000000000000000000000 DUP2 MSTORE PUSH1 0x4 ADD PUSH1 0x40 MLOAD DUP1 SWAP2 SUB SWAP1 REVERT JUMPDEST POP POP JUMP JUMPDEST PUSH1 0x0 DUP2 DUP2 SLOAD DUP2 LT PUSH2 0x30C JUMPI PUSH1 0x0 DUP1 REVERT JUMPDEST SWAP1 PUSH1 0x0 MSTORE PUSH1 0x20 PUSH1 0x0 KECCAK256 ADD PUSH1 0x0 SWAP2 POP SWAP1 POP DUP1 SLOAD PUSH2 0x327 SWAP1 PUSH2 0x8D4 JUMP JUMPDEST DUP1 PUSH1 0x1F ADD PUSH1 0x20 DUP1 SWAP2 DIV MUL PUSH1 0x20 ADD PUSH1 0x40 MLOAD SWAP1 DUP2 ADD PUSH1 0x40 MSTORE DUP1 SWAP3 SWAP2 SWAP1 DUP2 DUP2 MSTORE PUSH1 0x20 ADD DUP3 DUP1 SLOAD PUSH2 0x353 SWAP1 PUSH2 0x8D4 JUMP JUMPDEST DUP1 ISZERO PUSH2 0x3A0 JUMPI DUP1 PUSH1 0x1F LT PUSH2 0x375 JUMPI PUSH2 0x100 DUP1 DUP4 SLOAD DIV MUL DUP4 MSTORE SWAP2 PUSH1 0x20 ADD SWAP2 PUSH2 0x3A0 JUMP JUMPDEST DUP3 ADD SWAP2 SWAP1 PUSH1 0x0 MSTORE PUSH1 0x20 PUSH1 0x0 KECCAK256 SWAP1 JUMPDEST DUP2 SLOAD DUP2 MSTORE SWAP1 PUSH1 0x1 ADD SWAP1 PUSH1 0x20 ADD DUP1 DUP4 GT PUSH2 0x383 JUMPI DUP3 SWAP1 SUB PUSH1 0x1F AND DUP3 ADD SWAP2 JUMPDEST POP POP POP POP POP DUP2 JUMP JUMPDEST PUSH1 0x40 MLOAD DUP1 PUSH1 0x80 ADD PUSH1 0x40 MSTORE DUP1 PUSH1 0x0 DUP2 MSTORE PUSH1 0x20 ADD PUSH1 0x0 DUP2 MSTORE PUSH1 0x20 ADD PUSH1 0x60 DUP2 MSTORE PUSH1 0x20 ADD PUSH1 0x0 ISZERO ISZERO DUP2 MSTORE POP SWAP1 JUMP JUMPDEST DUP3 DUP1 SLOAD DUP3 DUP3 SSTORE SWAP1 PUSH1 0x0 MSTORE PUSH1 0x20 PUSH1 0x0 KECCAK256 SWAP1 DUP2 ADD SWAP3 DUP3 ISZERO PUSH2 0x44B JUMPI SWAP2 PUSH1 0x20 MUL DUP3 ADD JUMPDEST DUP3 DUP2 GT ISZERO PUSH2 0x44A JUMPI DUP3 MLOAD DUP3 PUSH1 0x0 PUSH2 0x100 EXP DUP2 SLOAD DUP2 PUSH20 0xFFFFFFFFFFFFFFFFFFFFFFFFFFFFFFFFFFFFFFFF MUL NOT AND SWAP1 DUP4 PUSH20 0xFFFFFFFFFFFFFFFFFFFFFFFFFFFFFFFFFFFFFFFF AND MUL OR SWAP1 SSTORE POP SWAP2 PUSH1 0x20 ADD SWAP2 SWAP1 PUSH1 0x1 ADD SWAP1 PUSH2 0x3F2 JUMP JUMPDEST JUMPDEST POP SWAP1 POP PUSH2 0x458 SWAP2 SWAP1 PUSH2 0x4E2 JUMP JUMPDEST POP SWAP1 JUMP JUMPDEST DUP3 DUP1 SLOAD PUSH2 0x468 SWAP1 PUSH2 0x8D4 JUMP JUMPDEST SWAP1 PUSH1 0x0 MSTORE PUSH1 0x20 PUSH1 0x0 KECCAK256 SWAP1 PUSH1 0x1F ADD PUSH1 0x20 SWAP1 DIV DUP2 ADD SWAP3 DUP3 PUSH2 0x48A JUMPI PUSH1 0x0 DUP6 SSTORE PUSH2 0x4D1 JUMP JUMPDEST DUP3 PUSH1 0x1F LT PUSH2 0x4A3 JUMPI DUP1 CALLDATALOAD PUSH1 0xFF NOT AND DUP4 DUP1 ADD OR DUP6 SSTORE PUSH2 0x4D1 JUMP JUMPDEST DUP3 DUP1 ADD PUSH1 0x1 ADD DUP6 SSTORE DUP3 ISZERO PUSH2 0x4D1 JUMPI SWAP2 DUP3 ADD JUMPDEST DUP3 DUP2 GT ISZERO PUSH2 0x4D0 JUMPI DUP3 CALLDATALOAD DUP3 SSTORE SWAP2 PUSH1 0x20 ADD SWAP2 SWAP1 PUSH1 0x1 ADD SWAP1 PUSH2 0x4B5 JUMP JUMPDEST JUMPDEST POP SWAP1 POP PUSH2 0x4DE SWAP2 SWAP1 PUSH2 0x4E2 JUMP JUMPDEST POP SWAP1 JUMP JUMPDEST JUMPDEST DUP1 DUP3 GT ISZERO PUSH2 0x4FB JUMPI PUSH1 0x0 DUP2 PUSH1 0x0 SWAP1 SSTORE POP PUSH1 0x1 ADD PUSH2 0x4E3 JUMP JUMPDEST POP SWAP1 JUMP JUMPDEST PUSH1 0x0 PUSH2 0x512 PUSH2 0x50D DUP5 PUSH2 0x824 JUMP JUMPDEST PUSH2 0x7FF JUMP JUMPDEST SWAP1 POP DUP3 DUP2 MSTORE PUSH1 0x20 DUP2 ADD DUP5 DUP5 DUP5 ADD GT ISZERO PUSH2 0x52E JUMPI PUSH2 0x52D PUSH2 0x9A4 JUMP JUMPDEST JUMPDEST PUSH2 0x539 DUP5 DUP3 DUP6 PUSH2 0x892 JUMP JUMPDEST POP SWAP4 SWAP3 POP POP POP JUMP JUMPDEST PUSH1 0x0 DUP1 DUP4 PUSH1 0x1F DUP5 ADD SLT PUSH2 0x557 JUMPI PUSH2 0x556 PUSH2 0x99A JUMP JUMPDEST JUMPDEST DUP3 CALLDATALOAD SWAP1 POP PUSH8 0xFFFFFFFFFFFFFFFF DUP2 GT ISZERO PUSH2 0x574 JUMPI PUSH2 0x573 PUSH2 0x995 JUMP JUMPDEST JUMPDEST PUSH1 0x20 DUP4 ADD SWAP2 POP DUP4 PUSH1 0x1 DUP3 MUL DUP4 ADD GT ISZERO PUSH2 0x590 JUMPI PUSH2 0x58F PUSH2 0x99F JUMP JUMPDEST JUMPDEST SWAP3 POP SWAP3 SWAP1 POP JUMP JUMPDEST PUSH1 0x0 DUP3 PUSH1 0x1F DUP4 ADD SLT PUSH2 0x5AC JUMPI PUSH2 0x5AB PUSH2 0x99A JUMP JUMPDEST JUMPDEST DUP2 CALLDATALOAD PUSH2 0x5BC DUP5 DUP3 PUSH1 0x20 DUP7 ADD PUSH2 0x4FF JUMP JUMPDEST SWAP2 POP POP SWAP3 SWAP2 POP POP JUMP JUMPDEST PUSH1 0x0 DUP2 CALLDATALOAD SWAP1 POP PUSH2 0x5D4 DUP2 PUSH2 0x9C4 JUMP JUMPDEST SWAP3 SWAP2 POP POP JUMP JUMPDEST PUSH1 0x0 DUP1 PUSH1 0x20 DUP4 DUP6 SUB SLT ISZERO PUSH2 0x5F1 JUMPI PUSH2 0x5F0 PUSH2 0x9AE JUMP JUMPDEST JUMPDEST PUSH1 0x0 DUP4 ADD CALLDATALOAD PUSH8 0xFFFFFFFFFFFFFFFF DUP2 GT ISZERO PUSH2 0x60F JUMPI PUSH2 0x60E PUSH2 0x9A9 JUMP JUMPDEST JUMPDEST PUSH2 0x61B DUP6 DUP3 DUP7 ADD PUSH2 0x541 JUMP JUMPDEST SWAP3 POP SWAP3 POP POP SWAP3 POP SWAP3 SWAP1 POP JUMP JUMPDEST PUSH1 0x0 DUP1 PUSH1 0x0 DUP1 PUSH1 0x60 DUP6 DUP8 SUB SLT ISZERO PUSH2 0x641 JUMPI PUSH2 0x640 PUSH2 0x9AE JUMP JUMPDEST JUMPDEST PUSH1 0x0 DUP6 ADD CALLDATALOAD PUSH8 0xFFFFFFFFFFFFFFFF DUP2 GT ISZERO PUSH2 0x65F JUMPI PUSH2 0x65E PUSH2 0x9A9 JUMP JUMPDEST JUMPDEST PUSH2 0x66B DUP8 DUP3 DUP9 ADD PUSH2 0x541 JUMP JUMPDEST SWAP5 POP SWAP5 POP POP PUSH1 0x20 PUSH2 0x67E DUP8 DUP3 DUP9 ADD PUSH2 0x5C5 JUMP JUMPDEST SWAP3 POP POP PUSH1 0x40 PUSH2 0x68F DUP8 DUP3 DUP9 ADD PUSH2 0x5C5 JUMP JUMPDEST SWAP2 POP POP SWAP3 SWAP6 SWAP2 SWAP5 POP SWAP3 POP JUMP JUMPDEST PUSH1 0x0 PUSH1 0x20 DUP3 DUP5 SUB SLT ISZERO PUSH2 0x6B1 JUMPI PUSH2 0x6B0 PUSH2 0x9AE JUMP JUMPDEST JUMPDEST PUSH1 0x0 DUP3 ADD CALLDATALOAD PUSH8 0xFFFFFFFFFFFFFFFF DUP2 GT ISZERO PUSH2 0x6CF JUMPI PUSH2 0x6CE PUSH2 0x9A9 JUMP JUMPDEST JUMPDEST PUSH2 0x6DB DUP5 DUP3 DUP6 ADD PUSH2 0x597 JUMP JUMPDEST SWAP2 POP POP SWAP3 SWAP2 POP POP JUMP JUMPDEST PUSH1 0x0 PUSH1 0x20 DUP3 DUP5 SUB SLT ISZERO PUSH2 0x6FA JUMPI PUSH2 0x6F9 PUSH2 0x9AE JUMP JUMPDEST JUMPDEST PUSH1 0x0 PUSH2 0x708 DUP5 DUP3 DUP6 ADD PUSH2 0x5C5 JUMP JUMPDEST SWAP2 POP POP SWAP3 SWAP2 POP POP JUMP JUMPDEST PUSH2 0x71A DUP2 PUSH2 0x87C JUMP JUMPDEST DUP3 MSTORE POP POP JUMP JUMPDEST PUSH1 0x0 PUSH2 0x72C DUP4 DUP6 PUSH2 0x871 JUMP JUMPDEST SWAP4 POP PUSH2 0x739 DUP4 DUP6 DUP5 PUSH2 0x892 JUMP JUMPDEST DUP3 DUP5 ADD SWAP1 POP SWAP4 SWAP3 POP POP POP JUMP JUMPDEST PUSH1 0x0 PUSH2 0x750 DUP3 PUSH2 0x855 JUMP JUMPDEST PUSH2 0x75A DUP2 DUP6 PUSH2 0x860 JUMP JUMPDEST SWAP4 POP PUSH2 0x76A DUP2 DUP6 PUSH1 0x20 DUP7 ADD PUSH2 0x8A1 JUMP JUMPDEST PUSH2 0x773 DUP2 PUSH2 0x9B3 JUMP JUMPDEST DUP5 ADD SWAP2 POP POP SWAP3 SWAP2 POP POP JUMP JUMPDEST PUSH2 0x787 DUP2 PUSH2 0x888 JUMP JUMPDEST DUP3 MSTORE POP POP JUMP JUMPDEST PUSH1 0x0 PUSH2 0x79A DUP3 DUP5 DUP7 PUSH2 0x720 JUMP JUMPDEST SWAP2 POP DUP2 SWAP1 POP SWAP4 SWAP3 POP POP POP JUMP JUMPDEST PUSH1 0x0 PUSH1 0x20 DUP3 ADD SWAP1 POP DUP2 DUP2 SUB PUSH1 0x0 DUP4 ADD MSTORE PUSH2 0x7C0 DUP2 DUP5 PUSH2 0x745 JUMP JUMPDEST SWAP1 POP SWAP3 SWAP2 POP POP JUMP JUMPDEST PUSH1 0x0 PUSH1 0x60 DUP3 ADD SWAP1 POP PUSH2 0x7DD PUSH1 0x0 DUP4 ADD DUP7 PUSH2 0x77E JUMP JUMPDEST PUSH2 0x7EA PUSH1 0x20 DUP4 ADD DUP6 PUSH2 0x77E JUMP JUMPDEST PUSH2 0x7F7 PUSH1 0x40 DUP4 ADD DUP5 PUSH2 0x711 JUMP JUMPDEST SWAP5 SWAP4 POP POP POP POP JUMP JUMPDEST PUSH1 0x0 PUSH2 0x809 PUSH2 0x81A JUMP JUMPDEST SWAP1 POP PUSH2 0x815 DUP3 DUP3 PUSH2 0x906 JUMP JUMPDEST SWAP2 SWAP1 POP JUMP JUMPDEST PUSH1 0x0 PUSH1 0x40 MLOAD SWAP1 POP SWAP1 JUMP JUMPDEST PUSH1 0x0 PUSH8 0xFFFFFFFFFFFFFFFF DUP3 GT ISZERO PUSH2 0x83F JUMPI PUSH2 0x83E PUSH2 0x966 JUMP JUMPDEST JUMPDEST PUSH2 0x848 DUP3 PUSH2 0x9B3 JUMP JUMPDEST SWAP1 POP PUSH1 0x20 DUP2 ADD SWAP1 POP SWAP2 SWAP1 POP JUMP JUMPDEST PUSH1 0x0 DUP2 MLOAD SWAP1 POP SWAP2 SWAP1 POP JUMP JUMPDEST PUSH1 0x0 DUP3 DUP3 MSTORE PUSH1 0x20 DUP3 ADD SWAP1 POP SWAP3 SWAP2 POP POP JUMP JUMPDEST PUSH1 0x0 DUP2 SWAP1 POP SWAP3 SWAP2 POP POP JUMP JUMPDEST PUSH1 0x0 DUP2 ISZERO ISZERO SWAP1 POP SWAP2 SWAP1 POP JUMP JUMPDEST PUSH1 0x0 DUP2 SWAP1 POP SWAP2 SWAP1 POP JUMP JUMPDEST DUP3 DUP2 DUP4 CALLDATACOPY PUSH1 0x0 DUP4 DUP4 ADD MSTORE POP POP POP JUMP JUMPDEST PUSH1 0x0 JUMPDEST DUP4 DUP2 LT ISZERO PUSH2 0x8BF JUMPI DUP1 DUP3 ADD MLOAD DUP2 DUP5 ADD MSTORE PUSH1 0x20 DUP2 ADD SWAP1 POP PUSH2 0x8A4 JUMP JUMPDEST DUP4 DUP2 GT ISZERO PUSH2 0x8CE JUMPI PUSH1 0x0 DUP5 DUP5 ADD MSTORE JUMPDEST POP POP POP POP JUMP JUMPDEST PUSH1 0x0 PUSH1 0x2 DUP3 DIV SWAP1 POP PUSH1 0x1 DUP3 AND DUP1 PUSH2 0x8EC JUMPI PUSH1 0x7F DUP3 AND SWAP2 POP JUMPDEST PUSH1 0x20 DUP3 LT DUP2 EQ ISZERO PUSH2 0x900 JUMPI PUSH2 0x8FF PUSH2 0x937 JUMP JUMPDEST JUMPDEST POP SWAP2 SWAP1 POP JUMP JUMPDEST PUSH2 0x90F DUP3 PUSH2 0x9B3 JUMP JUMPDEST DUP2 ADD DUP2 DUP2 LT PUSH8 0xFFFFFFFFFFFFFFFF DUP3 GT OR ISZERO PUSH2 0x92E JUMPI PUSH2 0x92D PUSH2 0x966 JUMP JUMPDEST JUMPDEST DUP1 PUSH1 0x40 MSTORE POP POP POP JUMP JUMPDEST PUSH32 0x4E487B7100000000000000000000000000000000000000000000000000000000 PUSH1 0x0 MSTORE PUSH1 0x22 PUSH1 0x4 MSTORE PUSH1 0x24 PUSH1 0x0 REVERT JUMPDEST PUSH32 0x4E487B7100000000000000000000000000000000000000000000000000000000 PUSH1 0x0 MSTORE PUSH1 0x41 PUSH1 0x4 MSTORE PUSH1 0x24 PUSH1 0x0 REVERT JUMPDEST PUSH1 0x0 DUP1 REVERT JUMPDEST PUSH1 0x0 DUP1 REVERT JUMPDEST PUSH1 0x0 DUP1 REVERT JUMPDEST PUSH1 0x0 DUP1 REVERT JUMPDEST PUSH1 0x0 DUP1 REVERT JUMPDEST PUSH1 0x0 DUP1 REVERT JUMPDEST PUSH1 0x0 PUSH1 0x1F NOT PUSH1 0x1F DUP4 ADD AND SWAP1 POP SWAP2 SWAP1 POP JUMP JUMPDEST PUSH2 0x9CD DUP2 PUSH2 0x888 JUMP JUMPDEST DUP2 EQ PUSH2 0x9D8 JUMPI PUSH1 0x0 DUP1 REVERT JUMPDEST POP JUMP INVALID LOG2 PUSH5 0x6970667358 0x22 SLT KECCAK256 RETURNDATACOPY 0x2A OR 0xD3 0xEB 0xC2 0xE1 SHL 0xDA 0xB7 0xC8 0xDD 0xE9 0xBD DUP2 CALLDATACOPY NUMBER 0x28 0xA7 0xBF 0xFB DUP2 0xD6 0xC1 SWAP9 0xA5 RETURNDATACOPY 0x23 NOT SWAP15 0xE 0xE6 PUSH5 0x736F6C6343 STOP ADDMOD SMOD STOP CALLER "
				},
				"gasEstimates": {
					"creation": {
						"codeDepositCost": "515400",
						"executionCost": "549",
						"totalCost": "515949"
					},
					"external": {
						"addNewProduct(string,uint256,uint256)": "infinite",
						"availableProducts(uint256)": "infinite",
						"products(string)": "infinite",
						"updateQuantity(string)": "infinite"
					}
				},
				"methodIdentifiers": {
					"addNewProduct(string,uint256,uint256)": "0a5bd44b",
					"availableProducts(uint256)": "e4bcc7d4",
					"products(string)": "0186a423",
					"updateQuantity(string)": "dda98c45"
				}
			},
			"storageLayout": {
				"storage": [
					{
						"astId": 23,
						"contract": "Project/TechnoLime.sol:TechnoLimeStore",
						"label": "availableProducts",
						"offset": 0,
						"slot": "0",
						"type": "t_array(t_string_storage)dyn_storage"
					},
					{
						"astId": 28,
						"contract": "Project/TechnoLime.sol:TechnoLimeStore",
						"label": "products",
						"offset": 0,
						"slot": "1",
						"type": "t_mapping(t_string_memory_ptr,t_struct(Product)20_storage)"
					},
					{
						"astId": 40,
						"contract": "Project/TechnoLime.sol:TechnoLimeStore",
						"label": "transactions",
						"offset": 0,
						"slot": "2",
						"type": "t_mapping(t_uint256,t_mapping(t_address,t_struct(Transaction)33_storage))"
					}
				],
				"types": {
					"t_address": {
						"encoding": "inplace",
						"label": "address",
						"numberOfBytes": "20"
					},
					"t_array(t_address)dyn_storage": {
						"base": "t_address",
						"encoding": "dynamic_array",
						"label": "address[]",
						"numberOfBytes": "32"
					},
					"t_array(t_string_storage)dyn_storage": {
						"base": "t_string_storage",
						"encoding": "dynamic_array",
						"label": "string[]",
						"numberOfBytes": "32"
					},
					"t_bool": {
						"encoding": "inplace",
						"label": "bool",
						"numberOfBytes": "1"
					},
					"t_mapping(t_address,t_struct(Transaction)33_storage)": {
						"encoding": "mapping",
						"key": "t_address",
						"label": "mapping(address => struct TechnoLimeStore.Transaction)",
						"numberOfBytes": "32",
						"value": "t_struct(Transaction)33_storage"
					},
					"t_mapping(t_string_memory_ptr,t_struct(Product)20_storage)": {
						"encoding": "mapping",
						"key": "t_string_memory_ptr",
						"label": "mapping(string => struct TechnoLimeStore.Product)",
						"numberOfBytes": "32",
						"value": "t_struct(Product)20_storage"
					},
					"t_mapping(t_uint256,t_mapping(t_address,t_struct(Transaction)33_storage))": {
						"encoding": "mapping",
						"key": "t_uint256",
						"label": "mapping(uint256 => mapping(address => struct TechnoLimeStore.Transaction))",
						"numberOfBytes": "32",
						"value": "t_mapping(t_address,t_struct(Transaction)33_storage)"
					},
					"t_string_memory_ptr": {
						"encoding": "bytes",
						"label": "string",
						"numberOfBytes": "32"
					},
					"t_string_storage": {
						"encoding": "bytes",
						"label": "string",
						"numberOfBytes": "32"
					},
					"t_struct(Product)20_storage": {
						"encoding": "inplace",
						"label": "struct TechnoLimeStore.Product",
						"members": [
							{
								"astId": 12,
								"contract": "Project/TechnoLime.sol:TechnoLimeStore",
								"label": "price",
								"offset": 0,
								"slot": "0",
								"type": "t_uint256"
							},
							{
								"astId": 14,
								"contract": "Project/TechnoLime.sol:TechnoLimeStore",
								"label": "quantity",
								"offset": 0,
								"slot": "1",
								"type": "t_uint256"
							},
							{
								"astId": 17,
								"contract": "Project/TechnoLime.sol:TechnoLimeStore",
								"label": "buyers",
								"offset": 0,
								"slot": "2",
								"type": "t_array(t_address)dyn_storage"
							},
							{
								"astId": 19,
								"contract": "Project/TechnoLime.sol:TechnoLimeStore",
								"label": "exists",
								"offset": 0,
								"slot": "3",
								"type": "t_bool"
							}
						],
						"numberOfBytes": "128"
					},
					"t_struct(Transaction)33_storage": {
						"encoding": "inplace",
						"label": "struct TechnoLimeStore.Transaction",
						"members": [
							{
								"astId": 30,
								"contract": "Project/TechnoLime.sol:TechnoLimeStore",
								"label": "blockNum",
								"offset": 0,
								"slot": "0",
								"type": "t_uint256"
							},
							{
								"astId": 32,
								"contract": "Project/TechnoLime.sol:TechnoLimeStore",
								"label": "price",
								"offset": 0,
								"slot": "1",
								"type": "t_uint256"
							}
						],
						"numberOfBytes": "64"
					},
					"t_uint256": {
						"encoding": "inplace",
						"label": "uint256",
						"numberOfBytes": "32"
					}
				}
			},
			"userdoc": {
				"errors": {
					"ProductExists()": [
						{
							"notice": "Can't add a product that already exists"
						}
					]
				},
				"kind": "user",
				"methods": {},
				"version": 1
			}
		}
	}
}