{
	"Project/TechnoLime.sol": {
		"TechnoLimeStore": {
			"abi": [
				{
					"inputs": [],
					"name": "ItemIdWrongOrBoughtAlready",
					"type": "error"
				},
				{
					"inputs": [],
					"name": "LessThanPrice",
					"type": "error"
				},
				{
					"inputs": [],
					"name": "ProductExists",
					"type": "error"
				},
				{
					"inputs": [],
					"name": "ProductNotExistent",
					"type": "error"
				},
				{
					"inputs": [
						{
							"internalType": "string",
							"name": "productName",
							"type": "string"
						},
						{
							"internalType": "uint256",
							"name": "_price",
							"type": "uint256"
						},
						{
							"internalType": "uint256",
							"name": "_quantity",
							"type": "uint256"
						}
					],
					"name": "addNewProduct",
					"outputs": [],
					"stateMutability": "nonpayable",
					"type": "function"
				},
				{
					"inputs": [
						{
							"internalType": "uint256",
							"name": "",
							"type": "uint256"
						}
					],
					"name": "availableProducts",
					"outputs": [
						{
							"internalType": "string",
							"name": "",
							"type": "string"
						}
					],
					"stateMutability": "view",
					"type": "function"
				},
				{
					"inputs": [
						{
							"internalType": "uint256",
							"name": "ProductId",
							"type": "uint256"
						}
					],
					"name": "buyProduct",
					"outputs": [],
					"stateMutability": "payable",
					"type": "function"
				},
				{
					"inputs": [
						{
							"internalType": "string",
							"name": "",
							"type": "string"
						}
					],
					"name": "products",
					"outputs": [
						{
							"internalType": "uint256",
							"name": "price",
							"type": "uint256"
						},
						{
							"internalType": "uint256",
							"name": "quantity",
							"type": "uint256"
						},
						{
							"internalType": "bool",
							"name": "exists",
							"type": "bool"
						}
					],
					"stateMutability": "view",
					"type": "function"
				},
				{
					"inputs": [
						{
							"internalType": "string",
							"name": "productName",
							"type": "string"
						},
						{
							"internalType": "uint256",
							"name": "_quantity",
							"type": "uint256"
						}
					],
					"name": "updateQuantity",
					"outputs": [],
					"stateMutability": "nonpayable",
					"type": "function"
				}
			],
			"devdoc": {
				"kind": "dev",
				"methods": {},
				"version": 1
			},
			"evm": {
				"assembly": "    /* \"Project/TechnoLime.sol\":98:2830  contract TechnoLimeStore {\r... */\n  mstore(0x40, 0x80)\n  callvalue\n  dup1\n  iszero\n  tag_1\n  jumpi\n  0x00\n  dup1\n  revert\ntag_1:\n  pop\n  dataSize(sub_0)\n  dup1\n  dataOffset(sub_0)\n  0x00\n  codecopy\n  0x00\n  return\nstop\n\nsub_0: assembly {\n        /* \"Project/TechnoLime.sol\":98:2830  contract TechnoLimeStore {\r... */\n      mstore(0x40, 0x80)\n      jumpi(tag_1, lt(calldatasize, 0x04))\n      shr(0xe0, calldataload(0x00))\n      dup1\n      0x0186a423\n      eq\n      tag_2\n      jumpi\n      dup1\n      0x0a5bd44b\n      eq\n      tag_3\n      jumpi\n      dup1\n      0x1d894eb8\n      eq\n      tag_4\n      jumpi\n      dup1\n      0x8642269e\n      eq\n      tag_5\n      jumpi\n      dup1\n      0xe4bcc7d4\n      eq\n      tag_6\n      jumpi\n    tag_1:\n      0x00\n      dup1\n      revert\n        /* \"Project/TechnoLime.sol\":343:385  mapping(string => Product) public products */\n    tag_2:\n      callvalue\n      dup1\n      iszero\n      tag_7\n      jumpi\n      0x00\n      dup1\n      revert\n    tag_7:\n      pop\n      tag_8\n      0x04\n      dup1\n      calldatasize\n      sub\n      dup2\n      add\n      swap1\n      tag_9\n      swap2\n      swap1\n      tag_10\n      jump\t// in\n    tag_9:\n      tag_11\n      jump\t// in\n    tag_8:\n      mload(0x40)\n      tag_12\n      swap4\n      swap3\n      swap2\n      swap1\n      tag_13\n      jump\t// in\n    tag_12:\n      mload(0x40)\n      dup1\n      swap2\n      sub\n      swap1\n      return\n        /* \"Project/TechnoLime.sol\":567:1155  function addNewProduct(string calldata productName, uint _price,uint _quantity) external{\r... */\n    tag_3:\n      callvalue\n      dup1\n      iszero\n      tag_14\n      jumpi\n      0x00\n      dup1\n      revert\n    tag_14:\n      pop\n      tag_15\n      0x04\n      dup1\n      calldatasize\n      sub\n      dup2\n      add\n      swap1\n      tag_16\n      swap2\n      swap1\n      tag_17\n      jump\t// in\n    tag_16:\n      tag_18\n      jump\t// in\n    tag_15:\n      stop\n        /* \"Project/TechnoLime.sol\":1163:1532  function updateQuantity(string calldata productName,uint _quantity) external{\r... */\n    tag_4:\n      callvalue\n      dup1\n      iszero\n      tag_19\n      jumpi\n      0x00\n      dup1\n      revert\n    tag_19:\n      pop\n      tag_20\n      0x04\n      dup1\n      calldatasize\n      sub\n      dup2\n      add\n      swap1\n      tag_21\n      swap2\n      swap1\n      tag_22\n      jump\t// in\n    tag_21:\n      tag_23\n      jump\t// in\n    tag_20:\n      stop\n        /* \"Project/TechnoLime.sol\":1635:2821  function buyProduct (uint ProductId) external payable { \r... */\n    tag_5:\n      tag_24\n      0x04\n      dup1\n      calldatasize\n      sub\n      dup2\n      add\n      swap1\n      tag_25\n      swap2\n      swap1\n      tag_26\n      jump\t// in\n    tag_25:\n      tag_27\n      jump\t// in\n    tag_24:\n      stop\n        /* \"Project/TechnoLime.sol\":303:336  string[] public availableProducts */\n    tag_6:\n      callvalue\n      dup1\n      iszero\n      tag_28\n      jumpi\n      0x00\n      dup1\n      revert\n    tag_28:\n      pop\n      tag_29\n      0x04\n      dup1\n      calldatasize\n      sub\n      dup2\n      add\n      swap1\n      tag_30\n      swap2\n      swap1\n      tag_26\n      jump\t// in\n    tag_30:\n      tag_31\n      jump\t// in\n    tag_29:\n      mload(0x40)\n      tag_32\n      swap2\n      swap1\n      tag_33\n      jump\t// in\n    tag_32:\n      mload(0x40)\n      dup1\n      swap2\n      sub\n      swap1\n      return\n        /* \"Project/TechnoLime.sol\":343:385  mapping(string => Product) public products */\n    tag_11:\n      0x01\n      dup2\n      dup1\n      mload\n      0x20\n      dup2\n      add\n      dup3\n      add\n      dup1\n      mload\n      dup5\n      dup3\n      mstore\n      0x20\n      dup4\n      add\n      0x20\n      dup6\n      add\n      keccak256\n      dup2\n      dup4\n      mstore\n      dup1\n      swap6\n      pop\n      pop\n      pop\n      pop\n      pop\n      pop\n      0x00\n      swap2\n      pop\n      swap1\n      pop\n      dup1\n      0x00\n      add\n      sload\n      swap1\n      dup1\n      0x01\n      add\n      sload\n      swap1\n      dup1\n      0x03\n      add\n      0x00\n      swap1\n      sload\n      swap1\n      0x0100\n      exp\n      swap1\n      div\n      0xff\n      and\n      swap1\n      pop\n      dup4\n      jump\t// out\n        /* \"Project/TechnoLime.sol\":567:1155  function addNewProduct(string calldata productName, uint _price,uint _quantity) external{\r... */\n    tag_18:\n        /* \"Project/TechnoLime.sol\":672:680  products */\n      0x01\n        /* \"Project/TechnoLime.sol\":681:692  productName */\n      dup5\n      dup5\n        /* \"Project/TechnoLime.sol\":672:693  products[productName] */\n      mload(0x40)\n      tag_35\n      swap3\n      swap2\n      swap1\n      tag_36\n      jump\t// in\n    tag_35:\n      swap1\n      dup2\n      mstore\n      0x20\n      add\n      mload(0x40)\n      dup1\n      swap2\n      sub\n      swap1\n      keccak256\n        /* \"Project/TechnoLime.sol\":672:700  products[productName].exists */\n      0x03\n      add\n      0x00\n      swap1\n      sload\n      swap1\n      0x0100\n      exp\n      swap1\n      div\n      0xff\n      and\n        /* \"Project/TechnoLime.sol\":667:1138  if (!products[productName].exists){\r... */\n      tag_37\n      jumpi\n        /* \"Project/TechnoLime.sol\":717:739  Product memory product */\n      tag_38\n      tag_39\n      jump\t// in\n    tag_38:\n        /* \"Project/TechnoLime.sol\":771:777  _price */\n      dup3\n        /* \"Project/TechnoLime.sol\":755:762  product */\n      dup2\n        /* \"Project/TechnoLime.sol\":755:768  product.price */\n      0x00\n      add\n        /* \"Project/TechnoLime.sol\":755:777  product.price = _price */\n      dup2\n      dup2\n      mstore\n      pop\n      pop\n        /* \"Project/TechnoLime.sol\":812:821  _quantity */\n      dup2\n        /* \"Project/TechnoLime.sol\":793:800  product */\n      dup2\n        /* \"Project/TechnoLime.sol\":793:809  product.quantity */\n      0x20\n      add\n        /* \"Project/TechnoLime.sol\":793:821  product.quantity = _quantity */\n      dup2\n      dup2\n      mstore\n      pop\n      pop\n        /* \"Project/TechnoLime.sol\":854:858  true */\n      0x01\n        /* \"Project/TechnoLime.sol\":837:844  product */\n      dup2\n        /* \"Project/TechnoLime.sol\":837:851  product.exists */\n      0x60\n      add\n        /* \"Project/TechnoLime.sol\":837:858  product.exists = true */\n      swap1\n      iszero\n      iszero\n      swap1\n      dup2\n      iszero\n      iszero\n      dup2\n      mstore\n      pop\n      pop\n        /* \"Project/TechnoLime.sol\":898:905  product */\n      dup1\n        /* \"Project/TechnoLime.sol\":874:882  products */\n      0x01\n        /* \"Project/TechnoLime.sol\":883:894  productName */\n      dup7\n      dup7\n        /* \"Project/TechnoLime.sol\":874:895  products[productName] */\n      mload(0x40)\n      tag_40\n      swap3\n      swap2\n      swap1\n      tag_36\n      jump\t// in\n    tag_40:\n      swap1\n      dup2\n      mstore\n      0x20\n      add\n      mload(0x40)\n      dup1\n      swap2\n      sub\n      swap1\n      keccak256\n        /* \"Project/TechnoLime.sol\":874:905  products[productName] = product */\n      0x00\n      dup3\n      add\n      mload\n      dup2\n      0x00\n      add\n      sstore\n      0x20\n      dup3\n      add\n      mload\n      dup2\n      0x01\n      add\n      sstore\n      0x40\n      dup3\n      add\n      mload\n      dup2\n      0x02\n      add\n      swap1\n      dup1\n      mload\n      swap1\n      0x20\n      add\n      swap1\n      tag_41\n      swap3\n      swap2\n      swap1\n      tag_42\n      jump\t// in\n    tag_41:\n      pop\n      0x60\n      dup3\n      add\n      mload\n      dup2\n      0x03\n      add\n      exp(0x0100, 0x00)\n      dup2\n      sload\n      dup2\n      0xff\n      mul\n      not\n      and\n      swap1\n      dup4\n      iszero\n      iszero\n      mul\n      or\n      swap1\n      sstore\n      pop\n      swap1\n      pop\n      pop\n        /* \"Project/TechnoLime.sol\":921:938  availableProducts */\n      0x00\n        /* \"Project/TechnoLime.sol\":944:955  productName */\n      dup6\n      dup6\n        /* \"Project/TechnoLime.sol\":921:956  availableProducts.push(productName) */\n      swap1\n      swap2\n      dup1\n      0x01\n      dup2\n      sload\n      add\n      dup1\n      dup3\n      sstore\n      dup1\n      swap2\n      pop\n      pop\n      0x01\n      swap1\n      sub\n      swap1\n      0x00\n      mstore\n      keccak256(0x00, 0x20)\n      add\n      0x00\n      swap1\n      swap2\n      swap3\n      swap1\n      swap2\n      swap3\n      swap1\n      swap2\n      swap3\n      swap1\n      swap2\n      swap3\n      pop\n      swap2\n      swap1\n      tag_44\n      swap3\n      swap2\n      swap1\n      tag_45\n      jump\t// in\n    tag_44:\n      pop\n        /* \"Project/TechnoLime.sol\":701:969  {\r... */\n      pop\n        /* \"Project/TechnoLime.sol\":667:1138  if (!products[productName].exists){\r... */\n      jump(tag_46)\n    tag_37:\n        /* \"Project/TechnoLime.sol\":1103:1125  Errors.ProductExists() */\n      mload(0x40)\n      0xb185df3a00000000000000000000000000000000000000000000000000000000\n      dup2\n      mstore\n      0x04\n      add\n      mload(0x40)\n      dup1\n      swap2\n      sub\n      swap1\n      revert\n        /* \"Project/TechnoLime.sol\":667:1138  if (!products[productName].exists){\r... */\n    tag_46:\n        /* \"Project/TechnoLime.sol\":567:1155  function addNewProduct(string calldata productName, uint _price,uint _quantity) external{\r... */\n      pop\n      pop\n      pop\n      pop\n      jump\t// out\n        /* \"Project/TechnoLime.sol\":1163:1532  function updateQuantity(string calldata productName,uint _quantity) external{\r... */\n    tag_23:\n        /* \"Project/TechnoLime.sol\":1254:1262  products */\n      0x01\n        /* \"Project/TechnoLime.sol\":1263:1274  productName */\n      dup4\n      dup4\n        /* \"Project/TechnoLime.sol\":1254:1275  products[productName] */\n      mload(0x40)\n      tag_48\n      swap3\n      swap2\n      swap1\n      tag_36\n      jump\t// in\n    tag_48:\n      swap1\n      dup2\n      mstore\n      0x20\n      add\n      mload(0x40)\n      dup1\n      swap2\n      sub\n      swap1\n      keccak256\n        /* \"Project/TechnoLime.sol\":1254:1282  products[productName].exists */\n      0x03\n      add\n      0x00\n      swap1\n      sload\n      swap1\n      0x0100\n      exp\n      swap1\n      div\n      0xff\n      and\n        /* \"Project/TechnoLime.sol\":1250:1525  if (products[productName].exists){\r... */\n      iszero\n      tag_49\n      jumpi\n        /* \"Project/TechnoLime.sol\":1332:1341  _quantity */\n      dup1\n        /* \"Project/TechnoLime.sol\":1298:1306  products */\n      0x01\n        /* \"Project/TechnoLime.sol\":1307:1318  productName */\n      dup5\n      dup5\n        /* \"Project/TechnoLime.sol\":1298:1319  products[productName] */\n      mload(0x40)\n      tag_50\n      swap3\n      swap2\n      swap1\n      tag_36\n      jump\t// in\n    tag_50:\n      swap1\n      dup2\n      mstore\n      0x20\n      add\n      mload(0x40)\n      dup1\n      swap2\n      sub\n      swap1\n      keccak256\n        /* \"Project/TechnoLime.sol\":1298:1328  products[productName].quantity */\n      0x01\n      add\n      0x00\n        /* \"Project/TechnoLime.sol\":1298:1341  products[productName].quantity += _quantity */\n      dup3\n      dup3\n      sload\n      tag_51\n      swap2\n      swap1\n      tag_52\n      jump\t// in\n    tag_51:\n      swap3\n      pop\n      pop\n      dup2\n      swap1\n      sstore\n      pop\n        /* \"Project/TechnoLime.sol\":1250:1525  if (products[productName].exists){\r... */\n      jump(tag_53)\n    tag_49:\n        /* \"Project/TechnoLime.sol\":1486:1513  Errors.ProductNotExistent() */\n      mload(0x40)\n      0x7e8d96a900000000000000000000000000000000000000000000000000000000\n      dup2\n      mstore\n      0x04\n      add\n      mload(0x40)\n      dup1\n      swap2\n      sub\n      swap1\n      revert\n        /* \"Project/TechnoLime.sol\":1250:1525  if (products[productName].exists){\r... */\n    tag_53:\n        /* \"Project/TechnoLime.sol\":1163:1532  function updateQuantity(string calldata productName,uint _quantity) external{\r... */\n      pop\n      pop\n      pop\n      jump\t// out\n        /* \"Project/TechnoLime.sol\":1635:2821  function buyProduct (uint ProductId) external payable { \r... */\n    tag_27:\n        /* \"Project/TechnoLime.sol\":1720:1737  availableProducts */\n      0x00\n        /* \"Project/TechnoLime.sol\":1720:1744  availableProducts.length */\n      dup1\n      sload\n      swap1\n      pop\n        /* \"Project/TechnoLime.sol\":1708:1717  ProductId */\n      dup2\n        /* \"Project/TechnoLime.sol\":1708:1744  ProductId < availableProducts.length */\n      lt\n        /* \"Project/TechnoLime.sol\":1708:1791  ProductId < availableProducts.length && !transactions[ProductId][msg.sender].exists */\n      dup1\n      iszero\n      tag_55\n      jumpi\n      pop\n        /* \"Project/TechnoLime.sol\":1749:1761  transactions */\n      0x02\n        /* \"Project/TechnoLime.sol\":1749:1772  transactions[ProductId] */\n      0x00\n        /* \"Project/TechnoLime.sol\":1762:1771  ProductId */\n      dup3\n        /* \"Project/TechnoLime.sol\":1749:1772  transactions[ProductId] */\n      dup2\n      mstore\n      0x20\n      add\n      swap1\n      dup2\n      mstore\n      0x20\n      add\n      0x00\n      keccak256\n        /* \"Project/TechnoLime.sol\":1749:1784  transactions[ProductId][msg.sender] */\n      0x00\n        /* \"Project/TechnoLime.sol\":1773:1783  msg.sender */\n      caller\n        /* \"Project/TechnoLime.sol\":1749:1784  transactions[ProductId][msg.sender] */\n      0xffffffffffffffffffffffffffffffffffffffff\n      and\n      0xffffffffffffffffffffffffffffffffffffffff\n      and\n      dup2\n      mstore\n      0x20\n      add\n      swap1\n      dup2\n      mstore\n      0x20\n      add\n      0x00\n      keccak256\n        /* \"Project/TechnoLime.sol\":1749:1791  transactions[ProductId][msg.sender].exists */\n      0x02\n      add\n      0x00\n      swap1\n      sload\n      swap1\n      0x0100\n      exp\n      swap1\n      div\n      0xff\n      and\n        /* \"Project/TechnoLime.sol\":1748:1791  !transactions[ProductId][msg.sender].exists */\n      iszero\n        /* \"Project/TechnoLime.sol\":1708:1791  ProductId < availableProducts.length && !transactions[ProductId][msg.sender].exists */\n    tag_55:\n        /* \"Project/TechnoLime.sol\":1705:2798  if(ProductId < availableProducts.length && !transactions[ProductId][msg.sender].exists){\r... */\n      iszero\n      tag_56\n      jumpi\n        /* \"Project/TechnoLime.sol\":1944:1966  Product memory product */\n      0x00\n        /* \"Project/TechnoLime.sol\":1968:1976  products */\n      0x01\n        /* \"Project/TechnoLime.sol\":1977:1994  availableProducts */\n      0x00\n        /* \"Project/TechnoLime.sol\":1995:2004  ProductId */\n      dup4\n        /* \"Project/TechnoLime.sol\":1977:2005  availableProducts[ProductId] */\n      dup2\n      sload\n      dup2\n      lt\n      tag_57\n      jumpi\n      tag_58\n      tag_59\n      jump\t// in\n    tag_58:\n    tag_57:\n      swap1\n      0x00\n      mstore\n      keccak256(0x00, 0x20)\n      add\n        /* \"Project/TechnoLime.sol\":1968:2006  products[availableProducts[ProductId]] */\n      mload(0x40)\n      tag_61\n      swap2\n      swap1\n      tag_62\n      jump\t// in\n    tag_61:\n      swap1\n      dup2\n      mstore\n      0x20\n      add\n      mload(0x40)\n      dup1\n      swap2\n      sub\n      swap1\n      keccak256\n        /* \"Project/TechnoLime.sol\":1944:2006  Product memory product= products[availableProducts[ProductId]] */\n      mload(0x40)\n      dup1\n      0x80\n      add\n      0x40\n      mstore\n      swap1\n      dup2\n      0x00\n      dup3\n      add\n      sload\n      dup2\n      mstore\n      0x20\n      add\n      0x01\n      dup3\n      add\n      sload\n      dup2\n      mstore\n      0x20\n      add\n      0x02\n      dup3\n      add\n      dup1\n      sload\n      dup1\n      0x20\n      mul\n      0x20\n      add\n      mload(0x40)\n      swap1\n      dup2\n      add\n      0x40\n      mstore\n      dup1\n      swap3\n      swap2\n      swap1\n      dup2\n      dup2\n      mstore\n      0x20\n      add\n      dup3\n      dup1\n      sload\n      dup1\n      iszero\n      tag_63\n      jumpi\n      0x20\n      mul\n      dup3\n      add\n      swap2\n      swap1\n      0x00\n      mstore\n      keccak256(0x00, 0x20)\n      swap1\n    tag_64:\n      dup2\n      0x00\n      swap1\n      sload\n      swap1\n      0x0100\n      exp\n      swap1\n      div\n      0xffffffffffffffffffffffffffffffffffffffff\n      and\n      0xffffffffffffffffffffffffffffffffffffffff\n      and\n      dup2\n      mstore\n      0x20\n      add\n      swap1\n      0x01\n      add\n      swap1\n      dup1\n      dup4\n      gt\n      tag_64\n      jumpi\n    tag_63:\n      pop\n      pop\n      pop\n      pop\n      pop\n      dup2\n      mstore\n      0x20\n      add\n      0x03\n      dup3\n      add\n      0x00\n      swap1\n      sload\n      swap1\n      0x0100\n      exp\n      swap1\n      div\n      0xff\n      and\n      iszero\n      iszero\n      iszero\n      iszero\n      dup2\n      mstore\n      pop\n      pop\n      swap1\n      pop\n        /* \"Project/TechnoLime.sol\":2040:2047  product */\n      dup1\n        /* \"Project/TechnoLime.sol\":2040:2053  product.price */\n      0x00\n      add\n      mload\n        /* \"Project/TechnoLime.sol\":2028:2037  msg.value */\n      callvalue\n        /* \"Project/TechnoLime.sol\":2028:2053  msg.value < product.price */\n      lt\n        /* \"Project/TechnoLime.sol\":2025:2105  if(msg.value < product.price)\r... */\n      iszero\n      tag_65\n      jumpi\n        /* \"Project/TechnoLime.sol\":2083:2105  Errors.LessThanPrice() */\n      mload(0x40)\n      0x538d76e800000000000000000000000000000000000000000000000000000000\n      dup2\n      mstore\n      0x04\n      add\n      mload(0x40)\n      dup1\n      swap2\n      sub\n      swap1\n      revert\n        /* \"Project/TechnoLime.sol\":2025:2105  if(msg.value < product.price)\r... */\n    tag_65:\n        /* \"Project/TechnoLime.sol\":2126:2159  Transaction memory newTransaction */\n      tag_66\n      tag_67\n      jump\t// in\n    tag_66:\n        /* \"Project/TechnoLime.sol\":2204:2216  block.number */\n      number\n        /* \"Project/TechnoLime.sol\":2178:2192  newTransaction */\n      dup2\n        /* \"Project/TechnoLime.sol\":2178:2201  newTransaction.blockNum */\n      0x00\n      add\n        /* \"Project/TechnoLime.sol\":2178:2216  newTransaction.blockNum = block.number */\n      dup2\n      dup2\n      mstore\n      pop\n      pop\n        /* \"Project/TechnoLime.sol\":2258:2265  product */\n      dup2\n        /* \"Project/TechnoLime.sol\":2258:2271  product.price */\n      0x00\n      add\n      mload\n        /* \"Project/TechnoLime.sol\":2235:2249  newTransaction */\n      dup2\n        /* \"Project/TechnoLime.sol\":2235:2255  newTransaction.price */\n      0x20\n      add\n        /* \"Project/TechnoLime.sol\":2235:2271  newTransaction.price = product.price */\n      dup2\n      dup2\n      mstore\n      pop\n      pop\n        /* \"Project/TechnoLime.sol\":2314:2318  true */\n      0x01\n        /* \"Project/TechnoLime.sol\":2290:2304  newTransaction */\n      dup2\n        /* \"Project/TechnoLime.sol\":2290:2311  newTransaction.exists */\n      0x40\n      add\n        /* \"Project/TechnoLime.sol\":2290:2318  newTransaction.exists = true */\n      swap1\n      iszero\n      iszero\n      swap1\n      dup2\n      iszero\n      iszero\n      dup2\n      mstore\n      pop\n      pop\n        /* \"Project/TechnoLime.sol\":2411:2425  newTransaction */\n      dup1\n        /* \"Project/TechnoLime.sol\":2373:2385  transactions */\n      0x02\n        /* \"Project/TechnoLime.sol\":2373:2396  transactions[ProductId] */\n      0x00\n        /* \"Project/TechnoLime.sol\":2386:2395  ProductId */\n      dup6\n        /* \"Project/TechnoLime.sol\":2373:2396  transactions[ProductId] */\n      dup2\n      mstore\n      0x20\n      add\n      swap1\n      dup2\n      mstore\n      0x20\n      add\n      0x00\n      keccak256\n        /* \"Project/TechnoLime.sol\":2373:2408  transactions[ProductId][msg.sender] */\n      0x00\n        /* \"Project/TechnoLime.sol\":2397:2407  msg.sender */\n      caller\n        /* \"Project/TechnoLime.sol\":2373:2408  transactions[ProductId][msg.sender] */\n      0xffffffffffffffffffffffffffffffffffffffff\n      and\n      0xffffffffffffffffffffffffffffffffffffffff\n      and\n      dup2\n      mstore\n      0x20\n      add\n      swap1\n      dup2\n      mstore\n      0x20\n      add\n      0x00\n      keccak256\n        /* \"Project/TechnoLime.sol\":2373:2425  transactions[ProductId][msg.sender] = newTransaction */\n      0x00\n      dup3\n      add\n      mload\n      dup2\n      0x00\n      add\n      sstore\n      0x20\n      dup3\n      add\n      mload\n      dup2\n      0x01\n      add\n      sstore\n      0x40\n      dup3\n      add\n      mload\n      dup2\n      0x02\n      add\n      exp(0x0100, 0x00)\n      dup2\n      sload\n      dup2\n      0xff\n      mul\n      not\n      and\n      swap1\n      dup4\n      iszero\n      iszero\n      mul\n      or\n      swap1\n      sstore\n      pop\n      swap1\n      pop\n      pop\n        /* \"Project/TechnoLime.sol\":2485:2495  msg.sender */\n      caller\n        /* \"Project/TechnoLime.sol\":2446:2453  product */\n      dup3\n        /* \"Project/TechnoLime.sol\":2446:2460  product.buyers */\n      0x40\n      add\n      mload\n        /* \"Project/TechnoLime.sol\":2461:2468  product */\n      dup4\n        /* \"Project/TechnoLime.sol\":2461:2475  product.buyers */\n      0x40\n      add\n      mload\n        /* \"Project/TechnoLime.sol\":2461:2482  product.buyers.length */\n      mload\n        /* \"Project/TechnoLime.sol\":2446:2483  product.buyers[product.buyers.length] */\n      dup2\n      mload\n      dup2\n      lt\n      tag_68\n      jumpi\n      tag_69\n      tag_59\n      jump\t// in\n    tag_69:\n    tag_68:\n      0x20\n      mul\n      0x20\n      add\n      add\n        /* \"Project/TechnoLime.sol\":2446:2495  product.buyers[product.buyers.length] =msg.sender */\n      swap1\n      0xffffffffffffffffffffffffffffffffffffffff\n      and\n      swap1\n      dup2\n      0xffffffffffffffffffffffffffffffffffffffff\n      and\n      dup2\n      mstore\n      pop\n      pop\n        /* \"Project/TechnoLime.sol\":2514:2521  product */\n      dup2\n        /* \"Project/TechnoLime.sol\":2514:2530  product.quantity */\n      0x20\n      add\n        /* \"Project/TechnoLime.sol\":2514:2532  product.quantity-- */\n      dup1\n      mload\n      dup1\n      swap2\n      swap1\n      tag_70\n      swap1\n      tag_71\n      jump\t// in\n    tag_70:\n      dup2\n      mstore\n      pop\n      pop\n        /* \"Project/TechnoLime.sol\":2626:2633  product */\n      dup2\n        /* \"Project/TechnoLime.sol\":2587:2595  products */\n      0x01\n        /* \"Project/TechnoLime.sol\":2596:2613  availableProducts */\n      0x00\n        /* \"Project/TechnoLime.sol\":2614:2623  ProductId */\n      dup6\n        /* \"Project/TechnoLime.sol\":2596:2624  availableProducts[ProductId] */\n      dup2\n      sload\n      dup2\n      lt\n      tag_72\n      jumpi\n      tag_73\n      tag_59\n      jump\t// in\n    tag_73:\n    tag_72:\n      swap1\n      0x00\n      mstore\n      keccak256(0x00, 0x20)\n      add\n        /* \"Project/TechnoLime.sol\":2587:2625  products[availableProducts[ProductId]] */\n      mload(0x40)\n      tag_75\n      swap2\n      swap1\n      tag_62\n      jump\t// in\n    tag_75:\n      swap1\n      dup2\n      mstore\n      0x20\n      add\n      mload(0x40)\n      dup1\n      swap2\n      sub\n      swap1\n      keccak256\n        /* \"Project/TechnoLime.sol\":2587:2633  products[availableProducts[ProductId]]=product */\n      0x00\n      dup3\n      add\n      mload\n      dup2\n      0x00\n      add\n      sstore\n      0x20\n      dup3\n      add\n      mload\n      dup2\n      0x01\n      add\n      sstore\n      0x40\n      dup3\n      add\n      mload\n      dup2\n      0x02\n      add\n      swap1\n      dup1\n      mload\n      swap1\n      0x20\n      add\n      swap1\n      tag_76\n      swap3\n      swap2\n      swap1\n      tag_42\n      jump\t// in\n    tag_76:\n      pop\n      0x60\n      dup3\n      add\n      mload\n      dup2\n      0x03\n      add\n      exp(0x0100, 0x00)\n      dup2\n      sload\n      dup2\n      0xff\n      mul\n      not\n      and\n      swap1\n      dup4\n      iszero\n      iszero\n      mul\n      or\n      swap1\n      sstore\n      pop\n      swap1\n      pop\n      pop\n        /* \"Project/TechnoLime.sol\":1792:2649  {\r... */\n      pop\n      pop\n        /* \"Project/TechnoLime.sol\":1705:2798  if(ProductId < availableProducts.length && !transactions[ProductId][msg.sender].exists){\r... */\n      jump(tag_77)\n    tag_56:\n        /* \"Project/TechnoLime.sol\":2747:2782  Errors.ItemIdWrongOrBoughtAlready() */\n      mload(0x40)\n      0xd42c9b8b00000000000000000000000000000000000000000000000000000000\n      dup2\n      mstore\n      0x04\n      add\n      mload(0x40)\n      dup1\n      swap2\n      sub\n      swap1\n      revert\n        /* \"Project/TechnoLime.sol\":1705:2798  if(ProductId < availableProducts.length && !transactions[ProductId][msg.sender].exists){\r... */\n    tag_77:\n        /* \"Project/TechnoLime.sol\":1635:2821  function buyProduct (uint ProductId) external payable { \r... */\n      pop\n      jump\t// out\n        /* \"Project/TechnoLime.sol\":303:336  string[] public availableProducts */\n    tag_31:\n      0x00\n      dup2\n      dup2\n      sload\n      dup2\n      lt\n      tag_78\n      jumpi\n      0x00\n      dup1\n      revert\n    tag_78:\n      swap1\n      0x00\n      mstore\n      keccak256(0x00, 0x20)\n      add\n      0x00\n      swap2\n      pop\n      swap1\n      pop\n      dup1\n      sload\n      tag_80\n      swap1\n      tag_81\n      jump\t// in\n    tag_80:\n      dup1\n      0x1f\n      add\n      0x20\n      dup1\n      swap2\n      div\n      mul\n      0x20\n      add\n      mload(0x40)\n      swap1\n      dup2\n      add\n      0x40\n      mstore\n      dup1\n      swap3\n      swap2\n      swap1\n      dup2\n      dup2\n      mstore\n      0x20\n      add\n      dup3\n      dup1\n      sload\n      tag_82\n      swap1\n      tag_81\n      jump\t// in\n    tag_82:\n      dup1\n      iszero\n      tag_83\n      jumpi\n      dup1\n      0x1f\n      lt\n      tag_84\n      jumpi\n      0x0100\n      dup1\n      dup4\n      sload\n      div\n      mul\n      dup4\n      mstore\n      swap2\n      0x20\n      add\n      swap2\n      jump(tag_83)\n    tag_84:\n      dup3\n      add\n      swap2\n      swap1\n      0x00\n      mstore\n      keccak256(0x00, 0x20)\n      swap1\n    tag_85:\n      dup2\n      sload\n      dup2\n      mstore\n      swap1\n      0x01\n      add\n      swap1\n      0x20\n      add\n      dup1\n      dup4\n      gt\n      tag_85\n      jumpi\n      dup3\n      swap1\n      sub\n      0x1f\n      and\n      dup3\n      add\n      swap2\n    tag_83:\n      pop\n      pop\n      pop\n      pop\n      pop\n      dup2\n      jump\t// out\n    tag_39:\n      mload(0x40)\n      dup1\n      0x80\n      add\n      0x40\n      mstore\n      dup1\n      0x00\n      dup2\n      mstore\n      0x20\n      add\n      0x00\n      dup2\n      mstore\n      0x20\n      add\n      0x60\n      dup2\n      mstore\n      0x20\n      add\n      iszero(iszero(0x00))\n      dup2\n      mstore\n      pop\n      swap1\n      jump\t// out\n    tag_42:\n      dup3\n      dup1\n      sload\n      dup3\n      dup3\n      sstore\n      swap1\n      0x00\n      mstore\n      keccak256(0x00, 0x20)\n      swap1\n      dup2\n      add\n      swap3\n      dup3\n      iszero\n      tag_86\n      jumpi\n      swap2\n      0x20\n      mul\n      dup3\n      add\n    tag_87:\n      dup3\n      dup2\n      gt\n      iszero\n      tag_88\n      jumpi\n      dup3\n      mload\n      dup3\n      exp(0x0100, 0x00)\n      dup2\n      sload\n      dup2\n      0xffffffffffffffffffffffffffffffffffffffff\n      mul\n      not\n      and\n      swap1\n      dup4\n      0xffffffffffffffffffffffffffffffffffffffff\n      and\n      mul\n      or\n      swap1\n      sstore\n      pop\n      swap2\n      0x20\n      add\n      swap2\n      swap1\n      0x01\n      add\n      swap1\n      jump(tag_87)\n    tag_88:\n    tag_86:\n      pop\n      swap1\n      pop\n      tag_89\n      swap2\n      swap1\n      tag_90\n      jump\t// in\n    tag_89:\n      pop\n      swap1\n      jump\t// out\n    tag_45:\n      dup3\n      dup1\n      sload\n      tag_91\n      swap1\n      tag_81\n      jump\t// in\n    tag_91:\n      swap1\n      0x00\n      mstore\n      keccak256(0x00, 0x20)\n      swap1\n      0x1f\n      add\n      0x20\n      swap1\n      div\n      dup2\n      add\n      swap3\n      dup3\n      tag_93\n      jumpi\n      0x00\n      dup6\n      sstore\n      jump(tag_92)\n    tag_93:\n      dup3\n      0x1f\n      lt\n      tag_94\n      jumpi\n      dup1\n      calldataload\n      not(0xff)\n      and\n      dup4\n      dup1\n      add\n      or\n      dup6\n      sstore\n      jump(tag_92)\n    tag_94:\n      dup3\n      dup1\n      add\n      0x01\n      add\n      dup6\n      sstore\n      dup3\n      iszero\n      tag_92\n      jumpi\n      swap2\n      dup3\n      add\n    tag_95:\n      dup3\n      dup2\n      gt\n      iszero\n      tag_96\n      jumpi\n      dup3\n      calldataload\n      dup3\n      sstore\n      swap2\n      0x20\n      add\n      swap2\n      swap1\n      0x01\n      add\n      swap1\n      jump(tag_95)\n    tag_96:\n    tag_92:\n      pop\n      swap1\n      pop\n      tag_97\n      swap2\n      swap1\n      tag_90\n      jump\t// in\n    tag_97:\n      pop\n      swap1\n      jump\t// out\n    tag_67:\n      mload(0x40)\n      dup1\n      0x60\n      add\n      0x40\n      mstore\n      dup1\n      0x00\n      dup2\n      mstore\n      0x20\n      add\n      0x00\n      dup2\n      mstore\n      0x20\n      add\n      iszero(iszero(0x00))\n      dup2\n      mstore\n      pop\n      swap1\n      jump\t// out\n    tag_90:\n    tag_98:\n      dup1\n      dup3\n      gt\n      iszero\n      tag_99\n      jumpi\n      0x00\n      dup2\n      0x00\n      swap1\n      sstore\n      pop\n      0x01\n      add\n      jump(tag_98)\n    tag_99:\n      pop\n      swap1\n      jump\t// out\n        /* \"#utility.yul\":7:419   */\n    tag_101:\n        /* \"#utility.yul\":85:90   */\n      0x00\n        /* \"#utility.yul\":110:176   */\n      tag_103\n        /* \"#utility.yul\":126:175   */\n      tag_104\n        /* \"#utility.yul\":168:174   */\n      dup5\n        /* \"#utility.yul\":126:175   */\n      tag_105\n      jump\t// in\n    tag_104:\n        /* \"#utility.yul\":110:176   */\n      tag_106\n      jump\t// in\n    tag_103:\n        /* \"#utility.yul\":101:176   */\n      swap1\n      pop\n        /* \"#utility.yul\":199:205   */\n      dup3\n        /* \"#utility.yul\":192:197   */\n      dup2\n        /* \"#utility.yul\":185:206   */\n      mstore\n        /* \"#utility.yul\":237:241   */\n      0x20\n        /* \"#utility.yul\":230:235   */\n      dup2\n        /* \"#utility.yul\":226:242   */\n      add\n        /* \"#utility.yul\":275:278   */\n      dup5\n        /* \"#utility.yul\":266:272   */\n      dup5\n        /* \"#utility.yul\":261:264   */\n      dup5\n        /* \"#utility.yul\":257:273   */\n      add\n        /* \"#utility.yul\":254:279   */\n      gt\n        /* \"#utility.yul\":251:363   */\n      iszero\n      tag_107\n      jumpi\n        /* \"#utility.yul\":282:361   */\n      tag_108\n      tag_109\n      jump\t// in\n    tag_108:\n        /* \"#utility.yul\":251:363   */\n    tag_107:\n        /* \"#utility.yul\":372:413   */\n      tag_110\n        /* \"#utility.yul\":406:412   */\n      dup5\n        /* \"#utility.yul\":401:404   */\n      dup3\n        /* \"#utility.yul\":396:399   */\n      dup6\n        /* \"#utility.yul\":372:413   */\n      tag_111\n      jump\t// in\n    tag_110:\n        /* \"#utility.yul\":91:419   */\n      pop\n        /* \"#utility.yul\":7:419   */\n      swap4\n      swap3\n      pop\n      pop\n      pop\n      jump\t// out\n        /* \"#utility.yul\":439:992   */\n    tag_112:\n        /* \"#utility.yul\":497:505   */\n      0x00\n        /* \"#utility.yul\":507:513   */\n      dup1\n        /* \"#utility.yul\":557:560   */\n      dup4\n        /* \"#utility.yul\":550:554   */\n      0x1f\n        /* \"#utility.yul\":542:548   */\n      dup5\n        /* \"#utility.yul\":538:555   */\n      add\n        /* \"#utility.yul\":534:561   */\n      slt\n        /* \"#utility.yul\":524:646   */\n      tag_114\n      jumpi\n        /* \"#utility.yul\":565:644   */\n      tag_115\n      tag_116\n      jump\t// in\n    tag_115:\n        /* \"#utility.yul\":524:646   */\n    tag_114:\n        /* \"#utility.yul\":678:684   */\n      dup3\n        /* \"#utility.yul\":665:685   */\n      calldataload\n        /* \"#utility.yul\":655:685   */\n      swap1\n      pop\n        /* \"#utility.yul\":708:726   */\n      0xffffffffffffffff\n        /* \"#utility.yul\":700:706   */\n      dup2\n        /* \"#utility.yul\":697:727   */\n      gt\n        /* \"#utility.yul\":694:811   */\n      iszero\n      tag_117\n      jumpi\n        /* \"#utility.yul\":730:809   */\n      tag_118\n      tag_119\n      jump\t// in\n    tag_118:\n        /* \"#utility.yul\":694:811   */\n    tag_117:\n        /* \"#utility.yul\":844:848   */\n      0x20\n        /* \"#utility.yul\":836:842   */\n      dup4\n        /* \"#utility.yul\":832:849   */\n      add\n        /* \"#utility.yul\":820:849   */\n      swap2\n      pop\n        /* \"#utility.yul\":898:901   */\n      dup4\n        /* \"#utility.yul\":890:894   */\n      0x01\n        /* \"#utility.yul\":882:888   */\n      dup3\n        /* \"#utility.yul\":878:895   */\n      mul\n        /* \"#utility.yul\":868:876   */\n      dup4\n        /* \"#utility.yul\":864:896   */\n      add\n        /* \"#utility.yul\":861:902   */\n      gt\n        /* \"#utility.yul\":858:986   */\n      iszero\n      tag_120\n      jumpi\n        /* \"#utility.yul\":905:984   */\n      tag_121\n      tag_122\n      jump\t// in\n    tag_121:\n        /* \"#utility.yul\":858:986   */\n    tag_120:\n        /* \"#utility.yul\":439:992   */\n      swap3\n      pop\n      swap3\n      swap1\n      pop\n      jump\t// out\n        /* \"#utility.yul\":1012:1352   */\n    tag_123:\n        /* \"#utility.yul\":1068:1073   */\n      0x00\n        /* \"#utility.yul\":1117:1120   */\n      dup3\n        /* \"#utility.yul\":1110:1114   */\n      0x1f\n        /* \"#utility.yul\":1102:1108   */\n      dup4\n        /* \"#utility.yul\":1098:1115   */\n      add\n        /* \"#utility.yul\":1094:1121   */\n      slt\n        /* \"#utility.yul\":1084:1206   */\n      tag_125\n      jumpi\n        /* \"#utility.yul\":1125:1204   */\n      tag_126\n      tag_116\n      jump\t// in\n    tag_126:\n        /* \"#utility.yul\":1084:1206   */\n    tag_125:\n        /* \"#utility.yul\":1242:1248   */\n      dup2\n        /* \"#utility.yul\":1229:1249   */\n      calldataload\n        /* \"#utility.yul\":1267:1346   */\n      tag_127\n        /* \"#utility.yul\":1342:1345   */\n      dup5\n        /* \"#utility.yul\":1334:1340   */\n      dup3\n        /* \"#utility.yul\":1327:1331   */\n      0x20\n        /* \"#utility.yul\":1319:1325   */\n      dup7\n        /* \"#utility.yul\":1315:1332   */\n      add\n        /* \"#utility.yul\":1267:1346   */\n      tag_101\n      jump\t// in\n    tag_127:\n        /* \"#utility.yul\":1258:1346   */\n      swap2\n      pop\n        /* \"#utility.yul\":1074:1352   */\n      pop\n        /* \"#utility.yul\":1012:1352   */\n      swap3\n      swap2\n      pop\n      pop\n      jump\t// out\n        /* \"#utility.yul\":1358:1497   */\n    tag_128:\n        /* \"#utility.yul\":1404:1409   */\n      0x00\n        /* \"#utility.yul\":1442:1448   */\n      dup2\n        /* \"#utility.yul\":1429:1449   */\n      calldataload\n        /* \"#utility.yul\":1420:1449   */\n      swap1\n      pop\n        /* \"#utility.yul\":1458:1491   */\n      tag_130\n        /* \"#utility.yul\":1485:1490   */\n      dup2\n        /* \"#utility.yul\":1458:1491   */\n      tag_131\n      jump\t// in\n    tag_130:\n        /* \"#utility.yul\":1358:1497   */\n      swap3\n      swap2\n      pop\n      pop\n      jump\t// out\n        /* \"#utility.yul\":1503:2177   */\n    tag_22:\n        /* \"#utility.yul\":1583:1589   */\n      0x00\n        /* \"#utility.yul\":1591:1597   */\n      dup1\n        /* \"#utility.yul\":1599:1605   */\n      0x00\n        /* \"#utility.yul\":1648:1650   */\n      0x40\n        /* \"#utility.yul\":1636:1645   */\n      dup5\n        /* \"#utility.yul\":1627:1634   */\n      dup7\n        /* \"#utility.yul\":1623:1646   */\n      sub\n        /* \"#utility.yul\":1619:1651   */\n      slt\n        /* \"#utility.yul\":1616:1735   */\n      iszero\n      tag_133\n      jumpi\n        /* \"#utility.yul\":1654:1733   */\n      tag_134\n      tag_135\n      jump\t// in\n    tag_134:\n        /* \"#utility.yul\":1616:1735   */\n    tag_133:\n        /* \"#utility.yul\":1802:1803   */\n      0x00\n        /* \"#utility.yul\":1791:1800   */\n      dup5\n        /* \"#utility.yul\":1787:1804   */\n      add\n        /* \"#utility.yul\":1774:1805   */\n      calldataload\n        /* \"#utility.yul\":1832:1850   */\n      0xffffffffffffffff\n        /* \"#utility.yul\":1824:1830   */\n      dup2\n        /* \"#utility.yul\":1821:1851   */\n      gt\n        /* \"#utility.yul\":1818:1935   */\n      iszero\n      tag_136\n      jumpi\n        /* \"#utility.yul\":1854:1933   */\n      tag_137\n      tag_138\n      jump\t// in\n    tag_137:\n        /* \"#utility.yul\":1818:1935   */\n    tag_136:\n        /* \"#utility.yul\":1967:2032   */\n      tag_139\n        /* \"#utility.yul\":2024:2031   */\n      dup7\n        /* \"#utility.yul\":2015:2021   */\n      dup3\n        /* \"#utility.yul\":2004:2013   */\n      dup8\n        /* \"#utility.yul\":2000:2022   */\n      add\n        /* \"#utility.yul\":1967:2032   */\n      tag_112\n      jump\t// in\n    tag_139:\n        /* \"#utility.yul\":1949:2032   */\n      swap4\n      pop\n      swap4\n      pop\n        /* \"#utility.yul\":1745:2042   */\n      pop\n        /* \"#utility.yul\":2081:2083   */\n      0x20\n        /* \"#utility.yul\":2107:2160   */\n      tag_140\n        /* \"#utility.yul\":2152:2159   */\n      dup7\n        /* \"#utility.yul\":2143:2149   */\n      dup3\n        /* \"#utility.yul\":2132:2141   */\n      dup8\n        /* \"#utility.yul\":2128:2150   */\n      add\n        /* \"#utility.yul\":2107:2160   */\n      tag_128\n      jump\t// in\n    tag_140:\n        /* \"#utility.yul\":2097:2160   */\n      swap2\n      pop\n        /* \"#utility.yul\":2052:2170   */\n      pop\n        /* \"#utility.yul\":1503:2177   */\n      swap3\n      pop\n      swap3\n      pop\n      swap3\n      jump\t// out\n        /* \"#utility.yul\":2183:3002   */\n    tag_17:\n        /* \"#utility.yul\":2272:2278   */\n      0x00\n        /* \"#utility.yul\":2280:2286   */\n      dup1\n        /* \"#utility.yul\":2288:2294   */\n      0x00\n        /* \"#utility.yul\":2296:2302   */\n      dup1\n        /* \"#utility.yul\":2345:2347   */\n      0x60\n        /* \"#utility.yul\":2333:2342   */\n      dup6\n        /* \"#utility.yul\":2324:2331   */\n      dup8\n        /* \"#utility.yul\":2320:2343   */\n      sub\n        /* \"#utility.yul\":2316:2348   */\n      slt\n        /* \"#utility.yul\":2313:2432   */\n      iszero\n      tag_142\n      jumpi\n        /* \"#utility.yul\":2351:2430   */\n      tag_143\n      tag_135\n      jump\t// in\n    tag_143:\n        /* \"#utility.yul\":2313:2432   */\n    tag_142:\n        /* \"#utility.yul\":2499:2500   */\n      0x00\n        /* \"#utility.yul\":2488:2497   */\n      dup6\n        /* \"#utility.yul\":2484:2501   */\n      add\n        /* \"#utility.yul\":2471:2502   */\n      calldataload\n        /* \"#utility.yul\":2529:2547   */\n      0xffffffffffffffff\n        /* \"#utility.yul\":2521:2527   */\n      dup2\n        /* \"#utility.yul\":2518:2548   */\n      gt\n        /* \"#utility.yul\":2515:2632   */\n      iszero\n      tag_144\n      jumpi\n        /* \"#utility.yul\":2551:2630   */\n      tag_145\n      tag_138\n      jump\t// in\n    tag_145:\n        /* \"#utility.yul\":2515:2632   */\n    tag_144:\n        /* \"#utility.yul\":2664:2729   */\n      tag_146\n        /* \"#utility.yul\":2721:2728   */\n      dup8\n        /* \"#utility.yul\":2712:2718   */\n      dup3\n        /* \"#utility.yul\":2701:2710   */\n      dup9\n        /* \"#utility.yul\":2697:2719   */\n      add\n        /* \"#utility.yul\":2664:2729   */\n      tag_112\n      jump\t// in\n    tag_146:\n        /* \"#utility.yul\":2646:2729   */\n      swap5\n      pop\n      swap5\n      pop\n        /* \"#utility.yul\":2442:2739   */\n      pop\n        /* \"#utility.yul\":2778:2780   */\n      0x20\n        /* \"#utility.yul\":2804:2857   */\n      tag_147\n        /* \"#utility.yul\":2849:2856   */\n      dup8\n        /* \"#utility.yul\":2840:2846   */\n      dup3\n        /* \"#utility.yul\":2829:2838   */\n      dup9\n        /* \"#utility.yul\":2825:2847   */\n      add\n        /* \"#utility.yul\":2804:2857   */\n      tag_128\n      jump\t// in\n    tag_147:\n        /* \"#utility.yul\":2794:2857   */\n      swap3\n      pop\n        /* \"#utility.yul\":2749:2867   */\n      pop\n        /* \"#utility.yul\":2906:2908   */\n      0x40\n        /* \"#utility.yul\":2932:2985   */\n      tag_148\n        /* \"#utility.yul\":2977:2984   */\n      dup8\n        /* \"#utility.yul\":2968:2974   */\n      dup3\n        /* \"#utility.yul\":2957:2966   */\n      dup9\n        /* \"#utility.yul\":2953:2975   */\n      add\n        /* \"#utility.yul\":2932:2985   */\n      tag_128\n      jump\t// in\n    tag_148:\n        /* \"#utility.yul\":2922:2985   */\n      swap2\n      pop\n        /* \"#utility.yul\":2877:2995   */\n      pop\n        /* \"#utility.yul\":2183:3002   */\n      swap3\n      swap6\n      swap2\n      swap5\n      pop\n      swap3\n      pop\n      jump\t// out\n        /* \"#utility.yul\":3008:3517   */\n    tag_10:\n        /* \"#utility.yul\":3077:3083   */\n      0x00\n        /* \"#utility.yul\":3126:3128   */\n      0x20\n        /* \"#utility.yul\":3114:3123   */\n      dup3\n        /* \"#utility.yul\":3105:3112   */\n      dup5\n        /* \"#utility.yul\":3101:3124   */\n      sub\n        /* \"#utility.yul\":3097:3129   */\n      slt\n        /* \"#utility.yul\":3094:3213   */\n      iszero\n      tag_150\n      jumpi\n        /* \"#utility.yul\":3132:3211   */\n      tag_151\n      tag_135\n      jump\t// in\n    tag_151:\n        /* \"#utility.yul\":3094:3213   */\n    tag_150:\n        /* \"#utility.yul\":3280:3281   */\n      0x00\n        /* \"#utility.yul\":3269:3278   */\n      dup3\n        /* \"#utility.yul\":3265:3282   */\n      add\n        /* \"#utility.yul\":3252:3283   */\n      calldataload\n        /* \"#utility.yul\":3310:3328   */\n      0xffffffffffffffff\n        /* \"#utility.yul\":3302:3308   */\n      dup2\n        /* \"#utility.yul\":3299:3329   */\n      gt\n        /* \"#utility.yul\":3296:3413   */\n      iszero\n      tag_152\n      jumpi\n        /* \"#utility.yul\":3332:3411   */\n      tag_153\n      tag_138\n      jump\t// in\n    tag_153:\n        /* \"#utility.yul\":3296:3413   */\n    tag_152:\n        /* \"#utility.yul\":3437:3500   */\n      tag_154\n        /* \"#utility.yul\":3492:3499   */\n      dup5\n        /* \"#utility.yul\":3483:3489   */\n      dup3\n        /* \"#utility.yul\":3472:3481   */\n      dup6\n        /* \"#utility.yul\":3468:3490   */\n      add\n        /* \"#utility.yul\":3437:3500   */\n      tag_123\n      jump\t// in\n    tag_154:\n        /* \"#utility.yul\":3427:3500   */\n      swap2\n      pop\n        /* \"#utility.yul\":3223:3510   */\n      pop\n        /* \"#utility.yul\":3008:3517   */\n      swap3\n      swap2\n      pop\n      pop\n      jump\t// out\n        /* \"#utility.yul\":3523:3852   */\n    tag_26:\n        /* \"#utility.yul\":3582:3588   */\n      0x00\n        /* \"#utility.yul\":3631:3633   */\n      0x20\n        /* \"#utility.yul\":3619:3628   */\n      dup3\n        /* \"#utility.yul\":3610:3617   */\n      dup5\n        /* \"#utility.yul\":3606:3629   */\n      sub\n        /* \"#utility.yul\":3602:3634   */\n      slt\n        /* \"#utility.yul\":3599:3718   */\n      iszero\n      tag_156\n      jumpi\n        /* \"#utility.yul\":3637:3716   */\n      tag_157\n      tag_135\n      jump\t// in\n    tag_157:\n        /* \"#utility.yul\":3599:3718   */\n    tag_156:\n        /* \"#utility.yul\":3757:3758   */\n      0x00\n        /* \"#utility.yul\":3782:3835   */\n      tag_158\n        /* \"#utility.yul\":3827:3834   */\n      dup5\n        /* \"#utility.yul\":3818:3824   */\n      dup3\n        /* \"#utility.yul\":3807:3816   */\n      dup6\n        /* \"#utility.yul\":3803:3825   */\n      add\n        /* \"#utility.yul\":3782:3835   */\n      tag_128\n      jump\t// in\n    tag_158:\n        /* \"#utility.yul\":3772:3835   */\n      swap2\n      pop\n        /* \"#utility.yul\":3728:3845   */\n      pop\n        /* \"#utility.yul\":3523:3852   */\n      swap3\n      swap2\n      pop\n      pop\n      jump\t// out\n        /* \"#utility.yul\":3858:3967   */\n    tag_159:\n        /* \"#utility.yul\":3939:3960   */\n      tag_161\n        /* \"#utility.yul\":3954:3959   */\n      dup2\n        /* \"#utility.yul\":3939:3960   */\n      tag_162\n      jump\t// in\n    tag_161:\n        /* \"#utility.yul\":3934:3937   */\n      dup3\n        /* \"#utility.yul\":3927:3961   */\n      mstore\n        /* \"#utility.yul\":3858:3967   */\n      pop\n      pop\n      jump\t// out\n        /* \"#utility.yul\":3997:4314   */\n    tag_163:\n        /* \"#utility.yul\":4113:4116   */\n      0x00\n        /* \"#utility.yul\":4134:4223   */\n      tag_165\n        /* \"#utility.yul\":4216:4222   */\n      dup4\n        /* \"#utility.yul\":4211:4214   */\n      dup6\n        /* \"#utility.yul\":4134:4223   */\n      tag_166\n      jump\t// in\n    tag_165:\n        /* \"#utility.yul\":4127:4223   */\n      swap4\n      pop\n        /* \"#utility.yul\":4233:4276   */\n      tag_167\n        /* \"#utility.yul\":4269:4275   */\n      dup4\n        /* \"#utility.yul\":4264:4267   */\n      dup6\n        /* \"#utility.yul\":4257:4262   */\n      dup5\n        /* \"#utility.yul\":4233:4276   */\n      tag_111\n      jump\t// in\n    tag_167:\n        /* \"#utility.yul\":4301:4307   */\n      dup3\n        /* \"#utility.yul\":4296:4299   */\n      dup5\n        /* \"#utility.yul\":4292:4308   */\n      add\n        /* \"#utility.yul\":4285:4308   */\n      swap1\n      pop\n        /* \"#utility.yul\":3997:4314   */\n      swap4\n      swap3\n      pop\n      pop\n      pop\n      jump\t// out\n        /* \"#utility.yul\":4320:4684   */\n    tag_168:\n        /* \"#utility.yul\":4408:4411   */\n      0x00\n        /* \"#utility.yul\":4436:4475   */\n      tag_170\n        /* \"#utility.yul\":4469:4474   */\n      dup3\n        /* \"#utility.yul\":4436:4475   */\n      tag_171\n      jump\t// in\n    tag_170:\n        /* \"#utility.yul\":4491:4562   */\n      tag_172\n        /* \"#utility.yul\":4555:4561   */\n      dup2\n        /* \"#utility.yul\":4550:4553   */\n      dup6\n        /* \"#utility.yul\":4491:4562   */\n      tag_173\n      jump\t// in\n    tag_172:\n        /* \"#utility.yul\":4484:4562   */\n      swap4\n      pop\n        /* \"#utility.yul\":4571:4623   */\n      tag_174\n        /* \"#utility.yul\":4616:4622   */\n      dup2\n        /* \"#utility.yul\":4611:4614   */\n      dup6\n        /* \"#utility.yul\":4604:4608   */\n      0x20\n        /* \"#utility.yul\":4597:4602   */\n      dup7\n        /* \"#utility.yul\":4593:4609   */\n      add\n        /* \"#utility.yul\":4571:4623   */\n      tag_175\n      jump\t// in\n    tag_174:\n        /* \"#utility.yul\":4648:4677   */\n      tag_176\n        /* \"#utility.yul\":4670:4676   */\n      dup2\n        /* \"#utility.yul\":4648:4677   */\n      tag_177\n      jump\t// in\n    tag_176:\n        /* \"#utility.yul\":4643:4646   */\n      dup5\n        /* \"#utility.yul\":4639:4678   */\n      add\n        /* \"#utility.yul\":4632:4678   */\n      swap2\n      pop\n        /* \"#utility.yul\":4412:4684   */\n      pop\n        /* \"#utility.yul\":4320:4684   */\n      swap3\n      swap2\n      pop\n      pop\n      jump\t// out\n        /* \"#utility.yul\":4714:5559   */\n    tag_178:\n        /* \"#utility.yul\":4817:4820   */\n      0x00\n        /* \"#utility.yul\":4854:4859   */\n      dup2\n        /* \"#utility.yul\":4848:4860   */\n      sload\n        /* \"#utility.yul\":4883:4919   */\n      tag_180\n        /* \"#utility.yul\":4909:4918   */\n      dup2\n        /* \"#utility.yul\":4883:4919   */\n      tag_81\n      jump\t// in\n    tag_180:\n        /* \"#utility.yul\":4935:5024   */\n      tag_181\n        /* \"#utility.yul\":5017:5023   */\n      dup2\n        /* \"#utility.yul\":5012:5015   */\n      dup7\n        /* \"#utility.yul\":4935:5024   */\n      tag_166\n      jump\t// in\n    tag_181:\n        /* \"#utility.yul\":4928:5024   */\n      swap5\n      pop\n        /* \"#utility.yul\":5055:5056   */\n      0x01\n        /* \"#utility.yul\":5044:5053   */\n      dup3\n        /* \"#utility.yul\":5040:5057   */\n      and\n        /* \"#utility.yul\":5071:5072   */\n      0x00\n        /* \"#utility.yul\":5066:5203   */\n      dup2\n      eq\n      tag_183\n      jumpi\n        /* \"#utility.yul\":5217:5218   */\n      0x01\n        /* \"#utility.yul\":5212:5553   */\n      dup2\n      eq\n      tag_184\n      jumpi\n        /* \"#utility.yul\":5033:5553   */\n      jump(tag_182)\n        /* \"#utility.yul\":5066:5203   */\n    tag_183:\n        /* \"#utility.yul\":5150:5154   */\n      0xff\n        /* \"#utility.yul\":5146:5155   */\n      not\n        /* \"#utility.yul\":5135:5144   */\n      dup4\n        /* \"#utility.yul\":5131:5156   */\n      and\n        /* \"#utility.yul\":5126:5129   */\n      dup7\n        /* \"#utility.yul\":5119:5157   */\n      mstore\n        /* \"#utility.yul\":5186:5192   */\n      dup2\n        /* \"#utility.yul\":5181:5184   */\n      dup7\n        /* \"#utility.yul\":5177:5193   */\n      add\n        /* \"#utility.yul\":5170:5193   */\n      swap4\n      pop\n        /* \"#utility.yul\":5066:5203   */\n      jump(tag_182)\n        /* \"#utility.yul\":5212:5553   */\n    tag_184:\n        /* \"#utility.yul\":5279:5317   */\n      tag_185\n        /* \"#utility.yul\":5311:5316   */\n      dup6\n        /* \"#utility.yul\":5279:5317   */\n      tag_186\n      jump\t// in\n    tag_185:\n        /* \"#utility.yul\":5339:5340   */\n      0x00\n        /* \"#utility.yul\":5353:5507   */\n    tag_187:\n        /* \"#utility.yul\":5367:5373   */\n      dup4\n        /* \"#utility.yul\":5364:5365   */\n      dup2\n        /* \"#utility.yul\":5361:5374   */\n      lt\n        /* \"#utility.yul\":5353:5507   */\n      iszero\n      tag_189\n      jumpi\n        /* \"#utility.yul\":5441:5448   */\n      dup2\n        /* \"#utility.yul\":5435:5449   */\n      sload\n        /* \"#utility.yul\":5431:5432   */\n      dup2\n        /* \"#utility.yul\":5426:5429   */\n      dup10\n        /* \"#utility.yul\":5422:5433   */\n      add\n        /* \"#utility.yul\":5415:5450   */\n      mstore\n        /* \"#utility.yul\":5491:5492   */\n      0x01\n        /* \"#utility.yul\":5482:5489   */\n      dup3\n        /* \"#utility.yul\":5478:5493   */\n      add\n        /* \"#utility.yul\":5467:5493   */\n      swap2\n      pop\n        /* \"#utility.yul\":5389:5393   */\n      0x20\n        /* \"#utility.yul\":5386:5387   */\n      dup2\n        /* \"#utility.yul\":5382:5394   */\n      add\n        /* \"#utility.yul\":5377:5394   */\n      swap1\n      pop\n        /* \"#utility.yul\":5353:5507   */\n      jump(tag_187)\n    tag_189:\n        /* \"#utility.yul\":5536:5542   */\n      dup4\n        /* \"#utility.yul\":5531:5534   */\n      dup9\n        /* \"#utility.yul\":5527:5543   */\n      add\n        /* \"#utility.yul\":5520:5543   */\n      swap6\n      pop\n        /* \"#utility.yul\":5219:5553   */\n      pop\n      pop\n        /* \"#utility.yul\":5033:5553   */\n    tag_182:\n      pop\n        /* \"#utility.yul\":4821:5559   */\n      pop\n      pop\n        /* \"#utility.yul\":4714:5559   */\n      swap3\n      swap2\n      pop\n      pop\n      jump\t// out\n        /* \"#utility.yul\":5565:5683   */\n    tag_190:\n        /* \"#utility.yul\":5652:5676   */\n      tag_192\n        /* \"#utility.yul\":5670:5675   */\n      dup2\n        /* \"#utility.yul\":5652:5676   */\n      tag_193\n      jump\t// in\n    tag_192:\n        /* \"#utility.yul\":5647:5650   */\n      dup3\n        /* \"#utility.yul\":5640:5677   */\n      mstore\n        /* \"#utility.yul\":5565:5683   */\n      pop\n      pop\n      jump\t// out\n        /* \"#utility.yul\":5689:5984   */\n    tag_36:\n        /* \"#utility.yul\":5831:5834   */\n      0x00\n        /* \"#utility.yul\":5853:5958   */\n      tag_195\n        /* \"#utility.yul\":5954:5957   */\n      dup3\n        /* \"#utility.yul\":5945:5951   */\n      dup5\n        /* \"#utility.yul\":5937:5943   */\n      dup7\n        /* \"#utility.yul\":5853:5958   */\n      tag_163\n      jump\t// in\n    tag_195:\n        /* \"#utility.yul\":5846:5958   */\n      swap2\n      pop\n        /* \"#utility.yul\":5975:5978   */\n      dup2\n        /* \"#utility.yul\":5968:5978   */\n      swap1\n      pop\n        /* \"#utility.yul\":5689:5984   */\n      swap4\n      swap3\n      pop\n      pop\n      pop\n      jump\t// out\n        /* \"#utility.yul\":5990:6259   */\n    tag_62:\n        /* \"#utility.yul\":6119:6122   */\n      0x00\n        /* \"#utility.yul\":6141:6233   */\n      tag_197\n        /* \"#utility.yul\":6229:6232   */\n      dup3\n        /* \"#utility.yul\":6220:6226   */\n      dup5\n        /* \"#utility.yul\":6141:6233   */\n      tag_178\n      jump\t// in\n    tag_197:\n        /* \"#utility.yul\":6134:6233   */\n      swap2\n      pop\n        /* \"#utility.yul\":6250:6253   */\n      dup2\n        /* \"#utility.yul\":6243:6253   */\n      swap1\n      pop\n        /* \"#utility.yul\":5990:6259   */\n      swap3\n      swap2\n      pop\n      pop\n      jump\t// out\n        /* \"#utility.yul\":6265:6578   */\n    tag_33:\n        /* \"#utility.yul\":6378:6382   */\n      0x00\n        /* \"#utility.yul\":6416:6418   */\n      0x20\n        /* \"#utility.yul\":6405:6414   */\n      dup3\n        /* \"#utility.yul\":6401:6419   */\n      add\n        /* \"#utility.yul\":6393:6419   */\n      swap1\n      pop\n        /* \"#utility.yul\":6465:6474   */\n      dup2\n        /* \"#utility.yul\":6459:6463   */\n      dup2\n        /* \"#utility.yul\":6455:6475   */\n      sub\n        /* \"#utility.yul\":6451:6452   */\n      0x00\n        /* \"#utility.yul\":6440:6449   */\n      dup4\n        /* \"#utility.yul\":6436:6453   */\n      add\n        /* \"#utility.yul\":6429:6476   */\n      mstore\n        /* \"#utility.yul\":6493:6571   */\n      tag_199\n        /* \"#utility.yul\":6566:6570   */\n      dup2\n        /* \"#utility.yul\":6557:6563   */\n      dup5\n        /* \"#utility.yul\":6493:6571   */\n      tag_168\n      jump\t// in\n    tag_199:\n        /* \"#utility.yul\":6485:6571   */\n      swap1\n      pop\n        /* \"#utility.yul\":6265:6578   */\n      swap3\n      swap2\n      pop\n      pop\n      jump\t// out\n        /* \"#utility.yul\":6584:7014   */\n    tag_13:\n        /* \"#utility.yul\":6727:6731   */\n      0x00\n        /* \"#utility.yul\":6765:6767   */\n      0x60\n        /* \"#utility.yul\":6754:6763   */\n      dup3\n        /* \"#utility.yul\":6750:6768   */\n      add\n        /* \"#utility.yul\":6742:6768   */\n      swap1\n      pop\n        /* \"#utility.yul\":6778:6849   */\n      tag_201\n        /* \"#utility.yul\":6846:6847   */\n      0x00\n        /* \"#utility.yul\":6835:6844   */\n      dup4\n        /* \"#utility.yul\":6831:6848   */\n      add\n        /* \"#utility.yul\":6822:6828   */\n      dup7\n        /* \"#utility.yul\":6778:6849   */\n      tag_190\n      jump\t// in\n    tag_201:\n        /* \"#utility.yul\":6859:6931   */\n      tag_202\n        /* \"#utility.yul\":6927:6929   */\n      0x20\n        /* \"#utility.yul\":6916:6925   */\n      dup4\n        /* \"#utility.yul\":6912:6930   */\n      add\n        /* \"#utility.yul\":6903:6909   */\n      dup6\n        /* \"#utility.yul\":6859:6931   */\n      tag_190\n      jump\t// in\n    tag_202:\n        /* \"#utility.yul\":6941:7007   */\n      tag_203\n        /* \"#utility.yul\":7003:7005   */\n      0x40\n        /* \"#utility.yul\":6992:7001   */\n      dup4\n        /* \"#utility.yul\":6988:7006   */\n      add\n        /* \"#utility.yul\":6979:6985   */\n      dup5\n        /* \"#utility.yul\":6941:7007   */\n      tag_159\n      jump\t// in\n    tag_203:\n        /* \"#utility.yul\":6584:7014   */\n      swap5\n      swap4\n      pop\n      pop\n      pop\n      pop\n      jump\t// out\n        /* \"#utility.yul\":7020:7149   */\n    tag_106:\n        /* \"#utility.yul\":7054:7060   */\n      0x00\n        /* \"#utility.yul\":7081:7101   */\n      tag_205\n      tag_206\n      jump\t// in\n    tag_205:\n        /* \"#utility.yul\":7071:7101   */\n      swap1\n      pop\n        /* \"#utility.yul\":7110:7143   */\n      tag_207\n        /* \"#utility.yul\":7138:7142   */\n      dup3\n        /* \"#utility.yul\":7130:7136   */\n      dup3\n        /* \"#utility.yul\":7110:7143   */\n      tag_208\n      jump\t// in\n    tag_207:\n        /* \"#utility.yul\":7020:7149   */\n      swap2\n      swap1\n      pop\n      jump\t// out\n        /* \"#utility.yul\":7155:7230   */\n    tag_206:\n        /* \"#utility.yul\":7188:7194   */\n      0x00\n        /* \"#utility.yul\":7221:7223   */\n      0x40\n        /* \"#utility.yul\":7215:7224   */\n      mload\n        /* \"#utility.yul\":7205:7224   */\n      swap1\n      pop\n        /* \"#utility.yul\":7155:7230   */\n      swap1\n      jump\t// out\n        /* \"#utility.yul\":7236:7544   */\n    tag_105:\n        /* \"#utility.yul\":7298:7302   */\n      0x00\n        /* \"#utility.yul\":7388:7406   */\n      0xffffffffffffffff\n        /* \"#utility.yul\":7380:7386   */\n      dup3\n        /* \"#utility.yul\":7377:7407   */\n      gt\n        /* \"#utility.yul\":7374:7430   */\n      iszero\n      tag_211\n      jumpi\n        /* \"#utility.yul\":7410:7428   */\n      tag_212\n      tag_213\n      jump\t// in\n    tag_212:\n        /* \"#utility.yul\":7374:7430   */\n    tag_211:\n        /* \"#utility.yul\":7448:7477   */\n      tag_214\n        /* \"#utility.yul\":7470:7476   */\n      dup3\n        /* \"#utility.yul\":7448:7477   */\n      tag_177\n      jump\t// in\n    tag_214:\n        /* \"#utility.yul\":7440:7477   */\n      swap1\n      pop\n        /* \"#utility.yul\":7532:7536   */\n      0x20\n        /* \"#utility.yul\":7526:7530   */\n      dup2\n        /* \"#utility.yul\":7522:7537   */\n      add\n        /* \"#utility.yul\":7514:7537   */\n      swap1\n      pop\n        /* \"#utility.yul\":7236:7544   */\n      swap2\n      swap1\n      pop\n      jump\t// out\n        /* \"#utility.yul\":7550:7691   */\n    tag_186:\n        /* \"#utility.yul\":7599:7603   */\n      0x00\n        /* \"#utility.yul\":7622:7625   */\n      dup2\n        /* \"#utility.yul\":7614:7625   */\n      swap1\n      pop\n        /* \"#utility.yul\":7645:7648   */\n      dup2\n        /* \"#utility.yul\":7642:7643   */\n      0x00\n        /* \"#utility.yul\":7635:7649   */\n      mstore\n        /* \"#utility.yul\":7679:7683   */\n      0x20\n        /* \"#utility.yul\":7676:7677   */\n      0x00\n        /* \"#utility.yul\":7666:7684   */\n      keccak256\n        /* \"#utility.yul\":7658:7684   */\n      swap1\n      pop\n        /* \"#utility.yul\":7550:7691   */\n      swap2\n      swap1\n      pop\n      jump\t// out\n        /* \"#utility.yul\":7697:7796   */\n    tag_171:\n        /* \"#utility.yul\":7749:7755   */\n      0x00\n        /* \"#utility.yul\":7783:7788   */\n      dup2\n        /* \"#utility.yul\":7777:7789   */\n      mload\n        /* \"#utility.yul\":7767:7789   */\n      swap1\n      pop\n        /* \"#utility.yul\":7697:7796   */\n      swap2\n      swap1\n      pop\n      jump\t// out\n        /* \"#utility.yul\":7802:7971   */\n    tag_173:\n        /* \"#utility.yul\":7886:7897   */\n      0x00\n        /* \"#utility.yul\":7920:7926   */\n      dup3\n        /* \"#utility.yul\":7915:7918   */\n      dup3\n        /* \"#utility.yul\":7908:7927   */\n      mstore\n        /* \"#utility.yul\":7960:7964   */\n      0x20\n        /* \"#utility.yul\":7955:7958   */\n      dup3\n        /* \"#utility.yul\":7951:7965   */\n      add\n        /* \"#utility.yul\":7936:7965   */\n      swap1\n      pop\n        /* \"#utility.yul\":7802:7971   */\n      swap3\n      swap2\n      pop\n      pop\n      jump\t// out\n        /* \"#utility.yul\":7977:8125   */\n    tag_166:\n        /* \"#utility.yul\":8079:8090   */\n      0x00\n        /* \"#utility.yul\":8116:8119   */\n      dup2\n        /* \"#utility.yul\":8101:8119   */\n      swap1\n      pop\n        /* \"#utility.yul\":7977:8125   */\n      swap3\n      swap2\n      pop\n      pop\n      jump\t// out\n        /* \"#utility.yul\":8131:8436   */\n    tag_52:\n        /* \"#utility.yul\":8171:8174   */\n      0x00\n        /* \"#utility.yul\":8190:8210   */\n      tag_220\n        /* \"#utility.yul\":8208:8209   */\n      dup3\n        /* \"#utility.yul\":8190:8210   */\n      tag_193\n      jump\t// in\n    tag_220:\n        /* \"#utility.yul\":8185:8210   */\n      swap2\n      pop\n        /* \"#utility.yul\":8224:8244   */\n      tag_221\n        /* \"#utility.yul\":8242:8243   */\n      dup4\n        /* \"#utility.yul\":8224:8244   */\n      tag_193\n      jump\t// in\n    tag_221:\n        /* \"#utility.yul\":8219:8244   */\n      swap3\n      pop\n        /* \"#utility.yul\":8378:8379   */\n      dup3\n        /* \"#utility.yul\":8310:8376   */\n      0xffffffffffffffffffffffffffffffffffffffffffffffffffffffffffffffff\n        /* \"#utility.yul\":8306:8380   */\n      sub\n        /* \"#utility.yul\":8303:8304   */\n      dup3\n        /* \"#utility.yul\":8300:8381   */\n      gt\n        /* \"#utility.yul\":8297:8404   */\n      iszero\n      tag_222\n      jumpi\n        /* \"#utility.yul\":8384:8402   */\n      tag_223\n      tag_224\n      jump\t// in\n    tag_223:\n        /* \"#utility.yul\":8297:8404   */\n    tag_222:\n        /* \"#utility.yul\":8428:8429   */\n      dup3\n        /* \"#utility.yul\":8425:8426   */\n      dup3\n        /* \"#utility.yul\":8421:8430   */\n      add\n        /* \"#utility.yul\":8414:8430   */\n      swap1\n      pop\n        /* \"#utility.yul\":8131:8436   */\n      swap3\n      swap2\n      pop\n      pop\n      jump\t// out\n        /* \"#utility.yul\":8442:8532   */\n    tag_162:\n        /* \"#utility.yul\":8476:8483   */\n      0x00\n        /* \"#utility.yul\":8519:8524   */\n      dup2\n        /* \"#utility.yul\":8512:8525   */\n      iszero\n        /* \"#utility.yul\":8505:8526   */\n      iszero\n        /* \"#utility.yul\":8494:8526   */\n      swap1\n      pop\n        /* \"#utility.yul\":8442:8532   */\n      swap2\n      swap1\n      pop\n      jump\t// out\n        /* \"#utility.yul\":8538:8615   */\n    tag_193:\n        /* \"#utility.yul\":8575:8582   */\n      0x00\n        /* \"#utility.yul\":8604:8609   */\n      dup2\n        /* \"#utility.yul\":8593:8609   */\n      swap1\n      pop\n        /* \"#utility.yul\":8538:8615   */\n      swap2\n      swap1\n      pop\n      jump\t// out\n        /* \"#utility.yul\":8621:8775   */\n    tag_111:\n        /* \"#utility.yul\":8705:8711   */\n      dup3\n        /* \"#utility.yul\":8700:8703   */\n      dup2\n        /* \"#utility.yul\":8695:8698   */\n      dup4\n        /* \"#utility.yul\":8682:8712   */\n      calldatacopy\n        /* \"#utility.yul\":8767:8768   */\n      0x00\n        /* \"#utility.yul\":8758:8764   */\n      dup4\n        /* \"#utility.yul\":8753:8756   */\n      dup4\n        /* \"#utility.yul\":8749:8765   */\n      add\n        /* \"#utility.yul\":8742:8769   */\n      mstore\n        /* \"#utility.yul\":8621:8775   */\n      pop\n      pop\n      pop\n      jump\t// out\n        /* \"#utility.yul\":8781:9088   */\n    tag_175:\n        /* \"#utility.yul\":8849:8850   */\n      0x00\n        /* \"#utility.yul\":8859:8972   */\n    tag_229:\n        /* \"#utility.yul\":8873:8879   */\n      dup4\n        /* \"#utility.yul\":8870:8871   */\n      dup2\n        /* \"#utility.yul\":8867:8880   */\n      lt\n        /* \"#utility.yul\":8859:8972   */\n      iszero\n      tag_231\n      jumpi\n        /* \"#utility.yul\":8958:8959   */\n      dup1\n        /* \"#utility.yul\":8953:8956   */\n      dup3\n        /* \"#utility.yul\":8949:8960   */\n      add\n        /* \"#utility.yul\":8943:8961   */\n      mload\n        /* \"#utility.yul\":8939:8940   */\n      dup2\n        /* \"#utility.yul\":8934:8937   */\n      dup5\n        /* \"#utility.yul\":8930:8941   */\n      add\n        /* \"#utility.yul\":8923:8962   */\n      mstore\n        /* \"#utility.yul\":8895:8897   */\n      0x20\n        /* \"#utility.yul\":8892:8893   */\n      dup2\n        /* \"#utility.yul\":8888:8898   */\n      add\n        /* \"#utility.yul\":8883:8898   */\n      swap1\n      pop\n        /* \"#utility.yul\":8859:8972   */\n      jump(tag_229)\n    tag_231:\n        /* \"#utility.yul\":8990:8996   */\n      dup4\n        /* \"#utility.yul\":8987:8988   */\n      dup2\n        /* \"#utility.yul\":8984:8997   */\n      gt\n        /* \"#utility.yul\":8981:9082   */\n      iszero\n      tag_232\n      jumpi\n        /* \"#utility.yul\":9070:9071   */\n      0x00\n        /* \"#utility.yul\":9061:9067   */\n      dup5\n        /* \"#utility.yul\":9056:9059   */\n      dup5\n        /* \"#utility.yul\":9052:9068   */\n      add\n        /* \"#utility.yul\":9045:9072   */\n      mstore\n        /* \"#utility.yul\":8981:9082   */\n    tag_232:\n        /* \"#utility.yul\":8830:9088   */\n      pop\n        /* \"#utility.yul\":8781:9088   */\n      pop\n      pop\n      pop\n      jump\t// out\n        /* \"#utility.yul\":9094:9265   */\n    tag_71:\n        /* \"#utility.yul\":9133:9136   */\n      0x00\n        /* \"#utility.yul\":9156:9180   */\n      tag_234\n        /* \"#utility.yul\":9174:9179   */\n      dup3\n        /* \"#utility.yul\":9156:9180   */\n      tag_193\n      jump\t// in\n    tag_234:\n        /* \"#utility.yul\":9147:9180   */\n      swap2\n      pop\n        /* \"#utility.yul\":9202:9206   */\n      0x00\n        /* \"#utility.yul\":9195:9200   */\n      dup3\n        /* \"#utility.yul\":9192:9207   */\n      eq\n        /* \"#utility.yul\":9189:9230   */\n      iszero\n      tag_235\n      jumpi\n        /* \"#utility.yul\":9210:9228   */\n      tag_236\n      tag_224\n      jump\t// in\n    tag_236:\n        /* \"#utility.yul\":9189:9230   */\n    tag_235:\n        /* \"#utility.yul\":9257:9258   */\n      0x01\n        /* \"#utility.yul\":9250:9255   */\n      dup3\n        /* \"#utility.yul\":9246:9259   */\n      sub\n        /* \"#utility.yul\":9239:9259   */\n      swap1\n      pop\n        /* \"#utility.yul\":9094:9265   */\n      swap2\n      swap1\n      pop\n      jump\t// out\n        /* \"#utility.yul\":9271:9591   */\n    tag_81:\n        /* \"#utility.yul\":9315:9321   */\n      0x00\n        /* \"#utility.yul\":9352:9353   */\n      0x02\n        /* \"#utility.yul\":9346:9350   */\n      dup3\n        /* \"#utility.yul\":9342:9354   */\n      div\n        /* \"#utility.yul\":9332:9354   */\n      swap1\n      pop\n        /* \"#utility.yul\":9399:9400   */\n      0x01\n        /* \"#utility.yul\":9393:9397   */\n      dup3\n        /* \"#utility.yul\":9389:9401   */\n      and\n        /* \"#utility.yul\":9420:9438   */\n      dup1\n        /* \"#utility.yul\":9410:9491   */\n      tag_238\n      jumpi\n        /* \"#utility.yul\":9476:9480   */\n      0x7f\n        /* \"#utility.yul\":9468:9474   */\n      dup3\n        /* \"#utility.yul\":9464:9481   */\n      and\n        /* \"#utility.yul\":9454:9481   */\n      swap2\n      pop\n        /* \"#utility.yul\":9410:9491   */\n    tag_238:\n        /* \"#utility.yul\":9538:9540   */\n      0x20\n        /* \"#utility.yul\":9530:9536   */\n      dup3\n        /* \"#utility.yul\":9527:9541   */\n      lt\n        /* \"#utility.yul\":9507:9525   */\n      dup2\n        /* \"#utility.yul\":9504:9542   */\n      eq\n        /* \"#utility.yul\":9501:9585   */\n      iszero\n      tag_239\n      jumpi\n        /* \"#utility.yul\":9557:9575   */\n      tag_240\n      tag_241\n      jump\t// in\n    tag_240:\n        /* \"#utility.yul\":9501:9585   */\n    tag_239:\n        /* \"#utility.yul\":9322:9591   */\n      pop\n        /* \"#utility.yul\":9271:9591   */\n      swap2\n      swap1\n      pop\n      jump\t// out\n        /* \"#utility.yul\":9597:9878   */\n    tag_208:\n        /* \"#utility.yul\":9680:9707   */\n      tag_243\n        /* \"#utility.yul\":9702:9706   */\n      dup3\n        /* \"#utility.yul\":9680:9707   */\n      tag_177\n      jump\t// in\n    tag_243:\n        /* \"#utility.yul\":9672:9678   */\n      dup2\n        /* \"#utility.yul\":9668:9708   */\n      add\n        /* \"#utility.yul\":9810:9816   */\n      dup2\n        /* \"#utility.yul\":9798:9808   */\n      dup2\n        /* \"#utility.yul\":9795:9817   */\n      lt\n        /* \"#utility.yul\":9774:9792   */\n      0xffffffffffffffff\n        /* \"#utility.yul\":9762:9772   */\n      dup3\n        /* \"#utility.yul\":9759:9793   */\n      gt\n        /* \"#utility.yul\":9756:9818   */\n      or\n        /* \"#utility.yul\":9753:9841   */\n      iszero\n      tag_244\n      jumpi\n        /* \"#utility.yul\":9821:9839   */\n      tag_245\n      tag_213\n      jump\t// in\n    tag_245:\n        /* \"#utility.yul\":9753:9841   */\n    tag_244:\n        /* \"#utility.yul\":9861:9871   */\n      dup1\n        /* \"#utility.yul\":9857:9859   */\n      0x40\n        /* \"#utility.yul\":9850:9872   */\n      mstore\n        /* \"#utility.yul\":9640:9878   */\n      pop\n        /* \"#utility.yul\":9597:9878   */\n      pop\n      pop\n      jump\t// out\n        /* \"#utility.yul\":9884:10064   */\n    tag_224:\n        /* \"#utility.yul\":9932:10009   */\n      0x4e487b7100000000000000000000000000000000000000000000000000000000\n        /* \"#utility.yul\":9929:9930   */\n      0x00\n        /* \"#utility.yul\":9922:10010   */\n      mstore\n        /* \"#utility.yul\":10029:10033   */\n      0x11\n        /* \"#utility.yul\":10026:10027   */\n      0x04\n        /* \"#utility.yul\":10019:10034   */\n      mstore\n        /* \"#utility.yul\":10053:10057   */\n      0x24\n        /* \"#utility.yul\":10050:10051   */\n      0x00\n        /* \"#utility.yul\":10043:10058   */\n      revert\n        /* \"#utility.yul\":10070:10250   */\n    tag_241:\n        /* \"#utility.yul\":10118:10195   */\n      0x4e487b7100000000000000000000000000000000000000000000000000000000\n        /* \"#utility.yul\":10115:10116   */\n      0x00\n        /* \"#utility.yul\":10108:10196   */\n      mstore\n        /* \"#utility.yul\":10215:10219   */\n      0x22\n        /* \"#utility.yul\":10212:10213   */\n      0x04\n        /* \"#utility.yul\":10205:10220   */\n      mstore\n        /* \"#utility.yul\":10239:10243   */\n      0x24\n        /* \"#utility.yul\":10236:10237   */\n      0x00\n        /* \"#utility.yul\":10229:10244   */\n      revert\n        /* \"#utility.yul\":10256:10436   */\n    tag_59:\n        /* \"#utility.yul\":10304:10381   */\n      0x4e487b7100000000000000000000000000000000000000000000000000000000\n        /* \"#utility.yul\":10301:10302   */\n      0x00\n        /* \"#utility.yul\":10294:10382   */\n      mstore\n        /* \"#utility.yul\":10401:10405   */\n      0x32\n        /* \"#utility.yul\":10398:10399   */\n      0x04\n        /* \"#utility.yul\":10391:10406   */\n      mstore\n        /* \"#utility.yul\":10425:10429   */\n      0x24\n        /* \"#utility.yul\":10422:10423   */\n      0x00\n        /* \"#utility.yul\":10415:10430   */\n      revert\n        /* \"#utility.yul\":10442:10622   */\n    tag_213:\n        /* \"#utility.yul\":10490:10567   */\n      0x4e487b7100000000000000000000000000000000000000000000000000000000\n        /* \"#utility.yul\":10487:10488   */\n      0x00\n        /* \"#utility.yul\":10480:10568   */\n      mstore\n        /* \"#utility.yul\":10587:10591   */\n      0x41\n        /* \"#utility.yul\":10584:10585   */\n      0x04\n        /* \"#utility.yul\":10577:10592   */\n      mstore\n        /* \"#utility.yul\":10611:10615   */\n      0x24\n        /* \"#utility.yul\":10608:10609   */\n      0x00\n        /* \"#utility.yul\":10601:10616   */\n      revert\n        /* \"#utility.yul\":10628:10745   */\n    tag_119:\n        /* \"#utility.yul\":10737:10738   */\n      0x00\n        /* \"#utility.yul\":10734:10735   */\n      dup1\n        /* \"#utility.yul\":10727:10739   */\n      revert\n        /* \"#utility.yul\":10751:10868   */\n    tag_116:\n        /* \"#utility.yul\":10860:10861   */\n      0x00\n        /* \"#utility.yul\":10857:10858   */\n      dup1\n        /* \"#utility.yul\":10850:10862   */\n      revert\n        /* \"#utility.yul\":10874:10991   */\n    tag_122:\n        /* \"#utility.yul\":10983:10984   */\n      0x00\n        /* \"#utility.yul\":10980:10981   */\n      dup1\n        /* \"#utility.yul\":10973:10985   */\n      revert\n        /* \"#utility.yul\":10997:11114   */\n    tag_109:\n        /* \"#utility.yul\":11106:11107   */\n      0x00\n        /* \"#utility.yul\":11103:11104   */\n      dup1\n        /* \"#utility.yul\":11096:11108   */\n      revert\n        /* \"#utility.yul\":11120:11237   */\n    tag_138:\n        /* \"#utility.yul\":11229:11230   */\n      0x00\n        /* \"#utility.yul\":11226:11227   */\n      dup1\n        /* \"#utility.yul\":11219:11231   */\n      revert\n        /* \"#utility.yul\":11243:11360   */\n    tag_135:\n        /* \"#utility.yul\":11352:11353   */\n      0x00\n        /* \"#utility.yul\":11349:11350   */\n      dup1\n        /* \"#utility.yul\":11342:11354   */\n      revert\n        /* \"#utility.yul\":11366:11468   */\n    tag_177:\n        /* \"#utility.yul\":11407:11413   */\n      0x00\n        /* \"#utility.yul\":11458:11460   */\n      0x1f\n        /* \"#utility.yul\":11454:11461   */\n      not\n        /* \"#utility.yul\":11449:11451   */\n      0x1f\n        /* \"#utility.yul\":11442:11447   */\n      dup4\n        /* \"#utility.yul\":11438:11452   */\n      add\n        /* \"#utility.yul\":11434:11462   */\n      and\n        /* \"#utility.yul\":11424:11462   */\n      swap1\n      pop\n        /* \"#utility.yul\":11366:11468   */\n      swap2\n      swap1\n      pop\n      jump\t// out\n        /* \"#utility.yul\":11474:11596   */\n    tag_131:\n        /* \"#utility.yul\":11547:11571   */\n      tag_258\n        /* \"#utility.yul\":11565:11570   */\n      dup2\n        /* \"#utility.yul\":11547:11571   */\n      tag_193\n      jump\t// in\n    tag_258:\n        /* \"#utility.yul\":11540:11545   */\n      dup2\n        /* \"#utility.yul\":11537:11572   */\n      eq\n        /* \"#utility.yul\":11527:11590   */\n      tag_259\n      jumpi\n        /* \"#utility.yul\":11586:11587   */\n      0x00\n        /* \"#utility.yul\":11583:11584   */\n      dup1\n        /* \"#utility.yul\":11576:11588   */\n      revert\n        /* \"#utility.yul\":11527:11590   */\n    tag_259:\n        /* \"#utility.yul\":11474:11596   */\n      pop\n      jump\t// out\n\n    auxdata: 0xa2646970667358221220a351b0d80a2f45433983123866d1b08f56be5a1371bb393b78e4dafa06e2748764736f6c63430008070033\n}\n",
				"bytecode": {
					"linkReferences": {},
					"object": "608060405234801561001057600080fd5b50611007806100206000396000f3fe60806040526004361061004a5760003560e01c80630186a4231461004f5780630a5bd44b1461008e5780631d894eb8146100b75780638642269e146100e0578063e4bcc7d4146100fc575b600080fd5b34801561005b57600080fd5b5061007660048036038101906100719190610b08565b610139565b60405161008593929190610ccb565b60405180910390f35b34801561009a57600080fd5b506100b560048036038101906100b09190610a94565b610186565b005b3480156100c357600080fd5b506100de60048036038101906100d99190610a34565b6102d9565b005b6100fa60048036038101906100f59190610b51565b610385565b005b34801561010857600080fd5b50610123600480360381019061011e9190610b51565b610733565b6040516101309190610ca9565b60405180910390f35b6001818051602081018201805184825260208301602085012081835280955050505050506000915090508060000154908060010154908060030160009054906101000a900460ff16905083565b60018484604051610198929190610c79565b908152602001604051809103902060030160009054906101000a900460ff166102a1576101c36107df565b8281600001818152505081816020018181525050600181606001901515908115158152505080600186866040516101fb929190610c79565b908152602001604051809103902060008201518160000155602082015181600101556040820151816002019080519060200190610239929190610809565b5060608201518160030160006101000a81548160ff021916908315150217905550905050600085859091806001815401808255809150506001900390600052602060002001600090919290919290919290919250919061029a929190610893565b50506102d3565b6040517fb185df3a00000000000000000000000000000000000000000000000000000000815260040160405180910390fd5b50505050565b600183836040516102eb929190610c79565b908152602001604051809103902060030160009054906101000a900460ff161561034e578060018484604051610322929190610c79565b908152602001604051809103902060010160008282546103429190610d94565b92505081905550610380565b6040517f7e8d96a900000000000000000000000000000000000000000000000000000000815260040160405180910390fd5b505050565b600080549050811080156103f757506002600082815260200190815260200160002060003373ffffffffffffffffffffffffffffffffffffffff1673ffffffffffffffffffffffffffffffffffffffff16815260200190815260200160002060020160009054906101000a900460ff16155b156106fe57600060016000838154811061041457610413610f2d565b5b9060005260206000200160405161042b9190610c92565b90815260200160405180910390206040518060800160405290816000820154815260200160018201548152602001600282018054806020026020016040519081016040528092919081815260200182805480156104dd57602002820191906000526020600020905b8160009054906101000a900473ffffffffffffffffffffffffffffffffffffffff1673ffffffffffffffffffffffffffffffffffffffff1681526020019060010190808311610493575b505050505081526020016003820160009054906101000a900460ff16151515158152505090508060000151341015610541576040517f538d76e800000000000000000000000000000000000000000000000000000000815260040160405180910390fd5b610549610919565b4381600001818152505081600001518160200181815250506001816040019015159081151581525050806002600085815260200190815260200160002060003373ffffffffffffffffffffffffffffffffffffffff1673ffffffffffffffffffffffffffffffffffffffff168152602001908152602001600020600082015181600001556020820151816001015560408201518160020160006101000a81548160ff0219169083151502179055509050503382604001518360400151518151811061061757610616610f2d565b5b602002602001019073ffffffffffffffffffffffffffffffffffffffff16908173ffffffffffffffffffffffffffffffffffffffff168152505081602001805180919061066390610e42565b815250508160016000858154811061067e5761067d610f2d565b5b906000526020600020016040516106959190610c92565b9081526020016040518091039020600082015181600001556020820151816001015560408201518160020190805190602001906106d3929190610809565b5060608201518160030160006101000a81548160ff0219169083151502179055509050505050610730565b6040517fd42c9b8b00000000000000000000000000000000000000000000000000000000815260040160405180910390fd5b50565b6000818154811061074357600080fd5b90600052602060002001600091509050805461075e90610e6c565b80601f016020809104026020016040519081016040528092919081815260200182805461078a90610e6c565b80156107d75780601f106107ac576101008083540402835291602001916107d7565b820191906000526020600020905b8154815290600101906020018083116107ba57829003601f168201915b505050505081565b60405180608001604052806000815260200160008152602001606081526020016000151581525090565b828054828255906000526020600020908101928215610882579160200282015b828111156108815782518260006101000a81548173ffffffffffffffffffffffffffffffffffffffff021916908373ffffffffffffffffffffffffffffffffffffffff16021790555091602001919060010190610829565b5b50905061088f919061093c565b5090565b82805461089f90610e6c565b90600052602060002090601f0160209004810192826108c15760008555610908565b82601f106108da57803560ff1916838001178555610908565b82800160010185558215610908579182015b828111156109075782358255916020019190600101906108ec565b5b509050610915919061093c565b5090565b604051806060016040528060008152602001600081526020016000151581525090565b5b8082111561095557600081600090555060010161093d565b5090565b600061096c61096784610d27565b610d02565b90508281526020810184848401111561098857610987610f9a565b5b610993848285610e00565b509392505050565b60008083601f8401126109b1576109b0610f90565b5b8235905067ffffffffffffffff8111156109ce576109cd610f8b565b5b6020830191508360018202830111156109ea576109e9610f95565b5b9250929050565b600082601f830112610a0657610a05610f90565b5b8135610a16848260208601610959565b91505092915050565b600081359050610a2e81610fba565b92915050565b600080600060408486031215610a4d57610a4c610fa4565b5b600084013567ffffffffffffffff811115610a6b57610a6a610f9f565b5b610a778682870161099b565b93509350506020610a8a86828701610a1f565b9150509250925092565b60008060008060608587031215610aae57610aad610fa4565b5b600085013567ffffffffffffffff811115610acc57610acb610f9f565b5b610ad88782880161099b565b94509450506020610aeb87828801610a1f565b9250506040610afc87828801610a1f565b91505092959194509250565b600060208284031215610b1e57610b1d610fa4565b5b600082013567ffffffffffffffff811115610b3c57610b3b610f9f565b5b610b48848285016109f1565b91505092915050565b600060208284031215610b6757610b66610fa4565b5b6000610b7584828501610a1f565b91505092915050565b610b8781610dea565b82525050565b6000610b998385610d89565b9350610ba6838584610e00565b82840190509392505050565b6000610bbd82610d6d565b610bc78185610d78565b9350610bd7818560208601610e0f565b610be081610fa9565b840191505092915050565b60008154610bf881610e6c565b610c028186610d89565b94506001821660008114610c1d5760018114610c2e57610c61565b60ff19831686528186019350610c61565b610c3785610d58565b60005b83811015610c5957815481890152600182019150602081019050610c3a565b838801955050505b50505092915050565b610c7381610df6565b82525050565b6000610c86828486610b8d565b91508190509392505050565b6000610c9e8284610beb565b915081905092915050565b60006020820190508181036000830152610cc38184610bb2565b905092915050565b6000606082019050610ce06000830186610c6a565b610ced6020830185610c6a565b610cfa6040830184610b7e565b949350505050565b6000610d0c610d1d565b9050610d188282610e9e565b919050565b6000604051905090565b600067ffffffffffffffff821115610d4257610d41610f5c565b5b610d4b82610fa9565b9050602081019050919050565b60008190508160005260206000209050919050565b600081519050919050565b600082825260208201905092915050565b600081905092915050565b6000610d9f82610df6565b9150610daa83610df6565b9250827fffffffffffffffffffffffffffffffffffffffffffffffffffffffffffffffff03821115610ddf57610dde610ecf565b5b828201905092915050565b60008115159050919050565b6000819050919050565b82818337600083830152505050565b60005b83811015610e2d578082015181840152602081019050610e12565b83811115610e3c576000848401525b50505050565b6000610e4d82610df6565b91506000821415610e6157610e60610ecf565b5b600182039050919050565b60006002820490506001821680610e8457607f821691505b60208210811415610e9857610e97610efe565b5b50919050565b610ea782610fa9565b810181811067ffffffffffffffff82111715610ec657610ec5610f5c565b5b80604052505050565b7f4e487b7100000000000000000000000000000000000000000000000000000000600052601160045260246000fd5b7f4e487b7100000000000000000000000000000000000000000000000000000000600052602260045260246000fd5b7f4e487b7100000000000000000000000000000000000000000000000000000000600052603260045260246000fd5b7f4e487b7100000000000000000000000000000000000000000000000000000000600052604160045260246000fd5b600080fd5b600080fd5b600080fd5b600080fd5b600080fd5b600080fd5b6000601f19601f8301169050919050565b610fc381610df6565b8114610fce57600080fd5b5056fea2646970667358221220a351b0d80a2f45433983123866d1b08f56be5a1371bb393b78e4dafa06e2748764736f6c63430008070033",
					"opcodes": "PUSH1 0x80 PUSH1 0x40 MSTORE CALLVALUE DUP1 ISZERO PUSH2 0x10 JUMPI PUSH1 0x0 DUP1 REVERT JUMPDEST POP PUSH2 0x1007 DUP1 PUSH2 0x20 PUSH1 0x0 CODECOPY PUSH1 0x0 RETURN INVALID PUSH1 0x80 PUSH1 0x40 MSTORE PUSH1 0x4 CALLDATASIZE LT PUSH2 0x4A JUMPI PUSH1 0x0 CALLDATALOAD PUSH1 0xE0 SHR DUP1 PUSH4 0x186A423 EQ PUSH2 0x4F JUMPI DUP1 PUSH4 0xA5BD44B EQ PUSH2 0x8E JUMPI DUP1 PUSH4 0x1D894EB8 EQ PUSH2 0xB7 JUMPI DUP1 PUSH4 0x8642269E EQ PUSH2 0xE0 JUMPI DUP1 PUSH4 0xE4BCC7D4 EQ PUSH2 0xFC JUMPI JUMPDEST PUSH1 0x0 DUP1 REVERT JUMPDEST CALLVALUE DUP1 ISZERO PUSH2 0x5B JUMPI PUSH1 0x0 DUP1 REVERT JUMPDEST POP PUSH2 0x76 PUSH1 0x4 DUP1 CALLDATASIZE SUB DUP2 ADD SWAP1 PUSH2 0x71 SWAP2 SWAP1 PUSH2 0xB08 JUMP JUMPDEST PUSH2 0x139 JUMP JUMPDEST PUSH1 0x40 MLOAD PUSH2 0x85 SWAP4 SWAP3 SWAP2 SWAP1 PUSH2 0xCCB JUMP JUMPDEST PUSH1 0x40 MLOAD DUP1 SWAP2 SUB SWAP1 RETURN JUMPDEST CALLVALUE DUP1 ISZERO PUSH2 0x9A JUMPI PUSH1 0x0 DUP1 REVERT JUMPDEST POP PUSH2 0xB5 PUSH1 0x4 DUP1 CALLDATASIZE SUB DUP2 ADD SWAP1 PUSH2 0xB0 SWAP2 SWAP1 PUSH2 0xA94 JUMP JUMPDEST PUSH2 0x186 JUMP JUMPDEST STOP JUMPDEST CALLVALUE DUP1 ISZERO PUSH2 0xC3 JUMPI PUSH1 0x0 DUP1 REVERT JUMPDEST POP PUSH2 0xDE PUSH1 0x4 DUP1 CALLDATASIZE SUB DUP2 ADD SWAP1 PUSH2 0xD9 SWAP2 SWAP1 PUSH2 0xA34 JUMP JUMPDEST PUSH2 0x2D9 JUMP JUMPDEST STOP JUMPDEST PUSH2 0xFA PUSH1 0x4 DUP1 CALLDATASIZE SUB DUP2 ADD SWAP1 PUSH2 0xF5 SWAP2 SWAP1 PUSH2 0xB51 JUMP JUMPDEST PUSH2 0x385 JUMP JUMPDEST STOP JUMPDEST CALLVALUE DUP1 ISZERO PUSH2 0x108 JUMPI PUSH1 0x0 DUP1 REVERT JUMPDEST POP PUSH2 0x123 PUSH1 0x4 DUP1 CALLDATASIZE SUB DUP2 ADD SWAP1 PUSH2 0x11E SWAP2 SWAP1 PUSH2 0xB51 JUMP JUMPDEST PUSH2 0x733 JUMP JUMPDEST PUSH1 0x40 MLOAD PUSH2 0x130 SWAP2 SWAP1 PUSH2 0xCA9 JUMP JUMPDEST PUSH1 0x40 MLOAD DUP1 SWAP2 SUB SWAP1 RETURN JUMPDEST PUSH1 0x1 DUP2 DUP1 MLOAD PUSH1 0x20 DUP2 ADD DUP3 ADD DUP1 MLOAD DUP5 DUP3 MSTORE PUSH1 0x20 DUP4 ADD PUSH1 0x20 DUP6 ADD KECCAK256 DUP2 DUP4 MSTORE DUP1 SWAP6 POP POP POP POP POP POP PUSH1 0x0 SWAP2 POP SWAP1 POP DUP1 PUSH1 0x0 ADD SLOAD SWAP1 DUP1 PUSH1 0x1 ADD SLOAD SWAP1 DUP1 PUSH1 0x3 ADD PUSH1 0x0 SWAP1 SLOAD SWAP1 PUSH2 0x100 EXP SWAP1 DIV PUSH1 0xFF AND SWAP1 POP DUP4 JUMP JUMPDEST PUSH1 0x1 DUP5 DUP5 PUSH1 0x40 MLOAD PUSH2 0x198 SWAP3 SWAP2 SWAP1 PUSH2 0xC79 JUMP JUMPDEST SWAP1 DUP2 MSTORE PUSH1 0x20 ADD PUSH1 0x40 MLOAD DUP1 SWAP2 SUB SWAP1 KECCAK256 PUSH1 0x3 ADD PUSH1 0x0 SWAP1 SLOAD SWAP1 PUSH2 0x100 EXP SWAP1 DIV PUSH1 0xFF AND PUSH2 0x2A1 JUMPI PUSH2 0x1C3 PUSH2 0x7DF JUMP JUMPDEST DUP3 DUP2 PUSH1 0x0 ADD DUP2 DUP2 MSTORE POP POP DUP2 DUP2 PUSH1 0x20 ADD DUP2 DUP2 MSTORE POP POP PUSH1 0x1 DUP2 PUSH1 0x60 ADD SWAP1 ISZERO ISZERO SWAP1 DUP2 ISZERO ISZERO DUP2 MSTORE POP POP DUP1 PUSH1 0x1 DUP7 DUP7 PUSH1 0x40 MLOAD PUSH2 0x1FB SWAP3 SWAP2 SWAP1 PUSH2 0xC79 JUMP JUMPDEST SWAP1 DUP2 MSTORE PUSH1 0x20 ADD PUSH1 0x40 MLOAD DUP1 SWAP2 SUB SWAP1 KECCAK256 PUSH1 0x0 DUP3 ADD MLOAD DUP2 PUSH1 0x0 ADD SSTORE PUSH1 0x20 DUP3 ADD MLOAD DUP2 PUSH1 0x1 ADD SSTORE PUSH1 0x40 DUP3 ADD MLOAD DUP2 PUSH1 0x2 ADD SWAP1 DUP1 MLOAD SWAP1 PUSH1 0x20 ADD SWAP1 PUSH2 0x239 SWAP3 SWAP2 SWAP1 PUSH2 0x809 JUMP JUMPDEST POP PUSH1 0x60 DUP3 ADD MLOAD DUP2 PUSH1 0x3 ADD PUSH1 0x0 PUSH2 0x100 EXP DUP2 SLOAD DUP2 PUSH1 0xFF MUL NOT AND SWAP1 DUP4 ISZERO ISZERO MUL OR SWAP1 SSTORE POP SWAP1 POP POP PUSH1 0x0 DUP6 DUP6 SWAP1 SWAP2 DUP1 PUSH1 0x1 DUP2 SLOAD ADD DUP1 DUP3 SSTORE DUP1 SWAP2 POP POP PUSH1 0x1 SWAP1 SUB SWAP1 PUSH1 0x0 MSTORE PUSH1 0x20 PUSH1 0x0 KECCAK256 ADD PUSH1 0x0 SWAP1 SWAP2 SWAP3 SWAP1 SWAP2 SWAP3 SWAP1 SWAP2 SWAP3 SWAP1 SWAP2 SWAP3 POP SWAP2 SWAP1 PUSH2 0x29A SWAP3 SWAP2 SWAP1 PUSH2 0x893 JUMP JUMPDEST POP POP PUSH2 0x2D3 JUMP JUMPDEST PUSH1 0x40 MLOAD PUSH32 0xB185DF3A00000000000000000000000000000000000000000000000000000000 DUP2 MSTORE PUSH1 0x4 ADD PUSH1 0x40 MLOAD DUP1 SWAP2 SUB SWAP1 REVERT JUMPDEST POP POP POP POP JUMP JUMPDEST PUSH1 0x1 DUP4 DUP4 PUSH1 0x40 MLOAD PUSH2 0x2EB SWAP3 SWAP2 SWAP1 PUSH2 0xC79 JUMP JUMPDEST SWAP1 DUP2 MSTORE PUSH1 0x20 ADD PUSH1 0x40 MLOAD DUP1 SWAP2 SUB SWAP1 KECCAK256 PUSH1 0x3 ADD PUSH1 0x0 SWAP1 SLOAD SWAP1 PUSH2 0x100 EXP SWAP1 DIV PUSH1 0xFF AND ISZERO PUSH2 0x34E JUMPI DUP1 PUSH1 0x1 DUP5 DUP5 PUSH1 0x40 MLOAD PUSH2 0x322 SWAP3 SWAP2 SWAP1 PUSH2 0xC79 JUMP JUMPDEST SWAP1 DUP2 MSTORE PUSH1 0x20 ADD PUSH1 0x40 MLOAD DUP1 SWAP2 SUB SWAP1 KECCAK256 PUSH1 0x1 ADD PUSH1 0x0 DUP3 DUP3 SLOAD PUSH2 0x342 SWAP2 SWAP1 PUSH2 0xD94 JUMP JUMPDEST SWAP3 POP POP DUP2 SWAP1 SSTORE POP PUSH2 0x380 JUMP JUMPDEST PUSH1 0x40 MLOAD PUSH32 0x7E8D96A900000000000000000000000000000000000000000000000000000000 DUP2 MSTORE PUSH1 0x4 ADD PUSH1 0x40 MLOAD DUP1 SWAP2 SUB SWAP1 REVERT JUMPDEST POP POP POP JUMP JUMPDEST PUSH1 0x0 DUP1 SLOAD SWAP1 POP DUP2 LT DUP1 ISZERO PUSH2 0x3F7 JUMPI POP PUSH1 0x2 PUSH1 0x0 DUP3 DUP2 MSTORE PUSH1 0x20 ADD SWAP1 DUP2 MSTORE PUSH1 0x20 ADD PUSH1 0x0 KECCAK256 PUSH1 0x0 CALLER PUSH20 0xFFFFFFFFFFFFFFFFFFFFFFFFFFFFFFFFFFFFFFFF AND PUSH20 0xFFFFFFFFFFFFFFFFFFFFFFFFFFFFFFFFFFFFFFFF AND DUP2 MSTORE PUSH1 0x20 ADD SWAP1 DUP2 MSTORE PUSH1 0x20 ADD PUSH1 0x0 KECCAK256 PUSH1 0x2 ADD PUSH1 0x0 SWAP1 SLOAD SWAP1 PUSH2 0x100 EXP SWAP1 DIV PUSH1 0xFF AND ISZERO JUMPDEST ISZERO PUSH2 0x6FE JUMPI PUSH1 0x0 PUSH1 0x1 PUSH1 0x0 DUP4 DUP2 SLOAD DUP2 LT PUSH2 0x414 JUMPI PUSH2 0x413 PUSH2 0xF2D JUMP JUMPDEST JUMPDEST SWAP1 PUSH1 0x0 MSTORE PUSH1 0x20 PUSH1 0x0 KECCAK256 ADD PUSH1 0x40 MLOAD PUSH2 0x42B SWAP2 SWAP1 PUSH2 0xC92 JUMP JUMPDEST SWAP1 DUP2 MSTORE PUSH1 0x20 ADD PUSH1 0x40 MLOAD DUP1 SWAP2 SUB SWAP1 KECCAK256 PUSH1 0x40 MLOAD DUP1 PUSH1 0x80 ADD PUSH1 0x40 MSTORE SWAP1 DUP2 PUSH1 0x0 DUP3 ADD SLOAD DUP2 MSTORE PUSH1 0x20 ADD PUSH1 0x1 DUP3 ADD SLOAD DUP2 MSTORE PUSH1 0x20 ADD PUSH1 0x2 DUP3 ADD DUP1 SLOAD DUP1 PUSH1 0x20 MUL PUSH1 0x20 ADD PUSH1 0x40 MLOAD SWAP1 DUP2 ADD PUSH1 0x40 MSTORE DUP1 SWAP3 SWAP2 SWAP1 DUP2 DUP2 MSTORE PUSH1 0x20 ADD DUP3 DUP1 SLOAD DUP1 ISZERO PUSH2 0x4DD JUMPI PUSH1 0x20 MUL DUP3 ADD SWAP2 SWAP1 PUSH1 0x0 MSTORE PUSH1 0x20 PUSH1 0x0 KECCAK256 SWAP1 JUMPDEST DUP2 PUSH1 0x0 SWAP1 SLOAD SWAP1 PUSH2 0x100 EXP SWAP1 DIV PUSH20 0xFFFFFFFFFFFFFFFFFFFFFFFFFFFFFFFFFFFFFFFF AND PUSH20 0xFFFFFFFFFFFFFFFFFFFFFFFFFFFFFFFFFFFFFFFF AND DUP2 MSTORE PUSH1 0x20 ADD SWAP1 PUSH1 0x1 ADD SWAP1 DUP1 DUP4 GT PUSH2 0x493 JUMPI JUMPDEST POP POP POP POP POP DUP2 MSTORE PUSH1 0x20 ADD PUSH1 0x3 DUP3 ADD PUSH1 0x0 SWAP1 SLOAD SWAP1 PUSH2 0x100 EXP SWAP1 DIV PUSH1 0xFF AND ISZERO ISZERO ISZERO ISZERO DUP2 MSTORE POP POP SWAP1 POP DUP1 PUSH1 0x0 ADD MLOAD CALLVALUE LT ISZERO PUSH2 0x541 JUMPI PUSH1 0x40 MLOAD PUSH32 0x538D76E800000000000000000000000000000000000000000000000000000000 DUP2 MSTORE PUSH1 0x4 ADD PUSH1 0x40 MLOAD DUP1 SWAP2 SUB SWAP1 REVERT JUMPDEST PUSH2 0x549 PUSH2 0x919 JUMP JUMPDEST NUMBER DUP2 PUSH1 0x0 ADD DUP2 DUP2 MSTORE POP POP DUP2 PUSH1 0x0 ADD MLOAD DUP2 PUSH1 0x20 ADD DUP2 DUP2 MSTORE POP POP PUSH1 0x1 DUP2 PUSH1 0x40 ADD SWAP1 ISZERO ISZERO SWAP1 DUP2 ISZERO ISZERO DUP2 MSTORE POP POP DUP1 PUSH1 0x2 PUSH1 0x0 DUP6 DUP2 MSTORE PUSH1 0x20 ADD SWAP1 DUP2 MSTORE PUSH1 0x20 ADD PUSH1 0x0 KECCAK256 PUSH1 0x0 CALLER PUSH20 0xFFFFFFFFFFFFFFFFFFFFFFFFFFFFFFFFFFFFFFFF AND PUSH20 0xFFFFFFFFFFFFFFFFFFFFFFFFFFFFFFFFFFFFFFFF AND DUP2 MSTORE PUSH1 0x20 ADD SWAP1 DUP2 MSTORE PUSH1 0x20 ADD PUSH1 0x0 KECCAK256 PUSH1 0x0 DUP3 ADD MLOAD DUP2 PUSH1 0x0 ADD SSTORE PUSH1 0x20 DUP3 ADD MLOAD DUP2 PUSH1 0x1 ADD SSTORE PUSH1 0x40 DUP3 ADD MLOAD DUP2 PUSH1 0x2 ADD PUSH1 0x0 PUSH2 0x100 EXP DUP2 SLOAD DUP2 PUSH1 0xFF MUL NOT AND SWAP1 DUP4 ISZERO ISZERO MUL OR SWAP1 SSTORE POP SWAP1 POP POP CALLER DUP3 PUSH1 0x40 ADD MLOAD DUP4 PUSH1 0x40 ADD MLOAD MLOAD DUP2 MLOAD DUP2 LT PUSH2 0x617 JUMPI PUSH2 0x616 PUSH2 0xF2D JUMP JUMPDEST JUMPDEST PUSH1 0x20 MUL PUSH1 0x20 ADD ADD SWAP1 PUSH20 0xFFFFFFFFFFFFFFFFFFFFFFFFFFFFFFFFFFFFFFFF AND SWAP1 DUP2 PUSH20 0xFFFFFFFFFFFFFFFFFFFFFFFFFFFFFFFFFFFFFFFF AND DUP2 MSTORE POP POP DUP2 PUSH1 0x20 ADD DUP1 MLOAD DUP1 SWAP2 SWAP1 PUSH2 0x663 SWAP1 PUSH2 0xE42 JUMP JUMPDEST DUP2 MSTORE POP POP DUP2 PUSH1 0x1 PUSH1 0x0 DUP6 DUP2 SLOAD DUP2 LT PUSH2 0x67E JUMPI PUSH2 0x67D PUSH2 0xF2D JUMP JUMPDEST JUMPDEST SWAP1 PUSH1 0x0 MSTORE PUSH1 0x20 PUSH1 0x0 KECCAK256 ADD PUSH1 0x40 MLOAD PUSH2 0x695 SWAP2 SWAP1 PUSH2 0xC92 JUMP JUMPDEST SWAP1 DUP2 MSTORE PUSH1 0x20 ADD PUSH1 0x40 MLOAD DUP1 SWAP2 SUB SWAP1 KECCAK256 PUSH1 0x0 DUP3 ADD MLOAD DUP2 PUSH1 0x0 ADD SSTORE PUSH1 0x20 DUP3 ADD MLOAD DUP2 PUSH1 0x1 ADD SSTORE PUSH1 0x40 DUP3 ADD MLOAD DUP2 PUSH1 0x2 ADD SWAP1 DUP1 MLOAD SWAP1 PUSH1 0x20 ADD SWAP1 PUSH2 0x6D3 SWAP3 SWAP2 SWAP1 PUSH2 0x809 JUMP JUMPDEST POP PUSH1 0x60 DUP3 ADD MLOAD DUP2 PUSH1 0x3 ADD PUSH1 0x0 PUSH2 0x100 EXP DUP2 SLOAD DUP2 PUSH1 0xFF MUL NOT AND SWAP1 DUP4 ISZERO ISZERO MUL OR SWAP1 SSTORE POP SWAP1 POP POP POP POP PUSH2 0x730 JUMP JUMPDEST PUSH1 0x40 MLOAD PUSH32 0xD42C9B8B00000000000000000000000000000000000000000000000000000000 DUP2 MSTORE PUSH1 0x4 ADD PUSH1 0x40 MLOAD DUP1 SWAP2 SUB SWAP1 REVERT JUMPDEST POP JUMP JUMPDEST PUSH1 0x0 DUP2 DUP2 SLOAD DUP2 LT PUSH2 0x743 JUMPI PUSH1 0x0 DUP1 REVERT JUMPDEST SWAP1 PUSH1 0x0 MSTORE PUSH1 0x20 PUSH1 0x0 KECCAK256 ADD PUSH1 0x0 SWAP2 POP SWAP1 POP DUP1 SLOAD PUSH2 0x75E SWAP1 PUSH2 0xE6C JUMP JUMPDEST DUP1 PUSH1 0x1F ADD PUSH1 0x20 DUP1 SWAP2 DIV MUL PUSH1 0x20 ADD PUSH1 0x40 MLOAD SWAP1 DUP2 ADD PUSH1 0x40 MSTORE DUP1 SWAP3 SWAP2 SWAP1 DUP2 DUP2 MSTORE PUSH1 0x20 ADD DUP3 DUP1 SLOAD PUSH2 0x78A SWAP1 PUSH2 0xE6C JUMP JUMPDEST DUP1 ISZERO PUSH2 0x7D7 JUMPI DUP1 PUSH1 0x1F LT PUSH2 0x7AC JUMPI PUSH2 0x100 DUP1 DUP4 SLOAD DIV MUL DUP4 MSTORE SWAP2 PUSH1 0x20 ADD SWAP2 PUSH2 0x7D7 JUMP JUMPDEST DUP3 ADD SWAP2 SWAP1 PUSH1 0x0 MSTORE PUSH1 0x20 PUSH1 0x0 KECCAK256 SWAP1 JUMPDEST DUP2 SLOAD DUP2 MSTORE SWAP1 PUSH1 0x1 ADD SWAP1 PUSH1 0x20 ADD DUP1 DUP4 GT PUSH2 0x7BA JUMPI DUP3 SWAP1 SUB PUSH1 0x1F AND DUP3 ADD SWAP2 JUMPDEST POP POP POP POP POP DUP2 JUMP JUMPDEST PUSH1 0x40 MLOAD DUP1 PUSH1 0x80 ADD PUSH1 0x40 MSTORE DUP1 PUSH1 0x0 DUP2 MSTORE PUSH1 0x20 ADD PUSH1 0x0 DUP2 MSTORE PUSH1 0x20 ADD PUSH1 0x60 DUP2 MSTORE PUSH1 0x20 ADD PUSH1 0x0 ISZERO ISZERO DUP2 MSTORE POP SWAP1 JUMP JUMPDEST DUP3 DUP1 SLOAD DUP3 DUP3 SSTORE SWAP1 PUSH1 0x0 MSTORE PUSH1 0x20 PUSH1 0x0 KECCAK256 SWAP1 DUP2 ADD SWAP3 DUP3 ISZERO PUSH2 0x882 JUMPI SWAP2 PUSH1 0x20 MUL DUP3 ADD JUMPDEST DUP3 DUP2 GT ISZERO PUSH2 0x881 JUMPI DUP3 MLOAD DUP3 PUSH1 0x0 PUSH2 0x100 EXP DUP2 SLOAD DUP2 PUSH20 0xFFFFFFFFFFFFFFFFFFFFFFFFFFFFFFFFFFFFFFFF MUL NOT AND SWAP1 DUP4 PUSH20 0xFFFFFFFFFFFFFFFFFFFFFFFFFFFFFFFFFFFFFFFF AND MUL OR SWAP1 SSTORE POP SWAP2 PUSH1 0x20 ADD SWAP2 SWAP1 PUSH1 0x1 ADD SWAP1 PUSH2 0x829 JUMP JUMPDEST JUMPDEST POP SWAP1 POP PUSH2 0x88F SWAP2 SWAP1 PUSH2 0x93C JUMP JUMPDEST POP SWAP1 JUMP JUMPDEST DUP3 DUP1 SLOAD PUSH2 0x89F SWAP1 PUSH2 0xE6C JUMP JUMPDEST SWAP1 PUSH1 0x0 MSTORE PUSH1 0x20 PUSH1 0x0 KECCAK256 SWAP1 PUSH1 0x1F ADD PUSH1 0x20 SWAP1 DIV DUP2 ADD SWAP3 DUP3 PUSH2 0x8C1 JUMPI PUSH1 0x0 DUP6 SSTORE PUSH2 0x908 JUMP JUMPDEST DUP3 PUSH1 0x1F LT PUSH2 0x8DA JUMPI DUP1 CALLDATALOAD PUSH1 0xFF NOT AND DUP4 DUP1 ADD OR DUP6 SSTORE PUSH2 0x908 JUMP JUMPDEST DUP3 DUP1 ADD PUSH1 0x1 ADD DUP6 SSTORE DUP3 ISZERO PUSH2 0x908 JUMPI SWAP2 DUP3 ADD JUMPDEST DUP3 DUP2 GT ISZERO PUSH2 0x907 JUMPI DUP3 CALLDATALOAD DUP3 SSTORE SWAP2 PUSH1 0x20 ADD SWAP2 SWAP1 PUSH1 0x1 ADD SWAP1 PUSH2 0x8EC JUMP JUMPDEST JUMPDEST POP SWAP1 POP PUSH2 0x915 SWAP2 SWAP1 PUSH2 0x93C JUMP JUMPDEST POP SWAP1 JUMP JUMPDEST PUSH1 0x40 MLOAD DUP1 PUSH1 0x60 ADD PUSH1 0x40 MSTORE DUP1 PUSH1 0x0 DUP2 MSTORE PUSH1 0x20 ADD PUSH1 0x0 DUP2 MSTORE PUSH1 0x20 ADD PUSH1 0x0 ISZERO ISZERO DUP2 MSTORE POP SWAP1 JUMP JUMPDEST JUMPDEST DUP1 DUP3 GT ISZERO PUSH2 0x955 JUMPI PUSH1 0x0 DUP2 PUSH1 0x0 SWAP1 SSTORE POP PUSH1 0x1 ADD PUSH2 0x93D JUMP JUMPDEST POP SWAP1 JUMP JUMPDEST PUSH1 0x0 PUSH2 0x96C PUSH2 0x967 DUP5 PUSH2 0xD27 JUMP JUMPDEST PUSH2 0xD02 JUMP JUMPDEST SWAP1 POP DUP3 DUP2 MSTORE PUSH1 0x20 DUP2 ADD DUP5 DUP5 DUP5 ADD GT ISZERO PUSH2 0x988 JUMPI PUSH2 0x987 PUSH2 0xF9A JUMP JUMPDEST JUMPDEST PUSH2 0x993 DUP5 DUP3 DUP6 PUSH2 0xE00 JUMP JUMPDEST POP SWAP4 SWAP3 POP POP POP JUMP JUMPDEST PUSH1 0x0 DUP1 DUP4 PUSH1 0x1F DUP5 ADD SLT PUSH2 0x9B1 JUMPI PUSH2 0x9B0 PUSH2 0xF90 JUMP JUMPDEST JUMPDEST DUP3 CALLDATALOAD SWAP1 POP PUSH8 0xFFFFFFFFFFFFFFFF DUP2 GT ISZERO PUSH2 0x9CE JUMPI PUSH2 0x9CD PUSH2 0xF8B JUMP JUMPDEST JUMPDEST PUSH1 0x20 DUP4 ADD SWAP2 POP DUP4 PUSH1 0x1 DUP3 MUL DUP4 ADD GT ISZERO PUSH2 0x9EA JUMPI PUSH2 0x9E9 PUSH2 0xF95 JUMP JUMPDEST JUMPDEST SWAP3 POP SWAP3 SWAP1 POP JUMP JUMPDEST PUSH1 0x0 DUP3 PUSH1 0x1F DUP4 ADD SLT PUSH2 0xA06 JUMPI PUSH2 0xA05 PUSH2 0xF90 JUMP JUMPDEST JUMPDEST DUP2 CALLDATALOAD PUSH2 0xA16 DUP5 DUP3 PUSH1 0x20 DUP7 ADD PUSH2 0x959 JUMP JUMPDEST SWAP2 POP POP SWAP3 SWAP2 POP POP JUMP JUMPDEST PUSH1 0x0 DUP2 CALLDATALOAD SWAP1 POP PUSH2 0xA2E DUP2 PUSH2 0xFBA JUMP JUMPDEST SWAP3 SWAP2 POP POP JUMP JUMPDEST PUSH1 0x0 DUP1 PUSH1 0x0 PUSH1 0x40 DUP5 DUP7 SUB SLT ISZERO PUSH2 0xA4D JUMPI PUSH2 0xA4C PUSH2 0xFA4 JUMP JUMPDEST JUMPDEST PUSH1 0x0 DUP5 ADD CALLDATALOAD PUSH8 0xFFFFFFFFFFFFFFFF DUP2 GT ISZERO PUSH2 0xA6B JUMPI PUSH2 0xA6A PUSH2 0xF9F JUMP JUMPDEST JUMPDEST PUSH2 0xA77 DUP7 DUP3 DUP8 ADD PUSH2 0x99B JUMP JUMPDEST SWAP4 POP SWAP4 POP POP PUSH1 0x20 PUSH2 0xA8A DUP7 DUP3 DUP8 ADD PUSH2 0xA1F JUMP JUMPDEST SWAP2 POP POP SWAP3 POP SWAP3 POP SWAP3 JUMP JUMPDEST PUSH1 0x0 DUP1 PUSH1 0x0 DUP1 PUSH1 0x60 DUP6 DUP8 SUB SLT ISZERO PUSH2 0xAAE JUMPI PUSH2 0xAAD PUSH2 0xFA4 JUMP JUMPDEST JUMPDEST PUSH1 0x0 DUP6 ADD CALLDATALOAD PUSH8 0xFFFFFFFFFFFFFFFF DUP2 GT ISZERO PUSH2 0xACC JUMPI PUSH2 0xACB PUSH2 0xF9F JUMP JUMPDEST JUMPDEST PUSH2 0xAD8 DUP8 DUP3 DUP9 ADD PUSH2 0x99B JUMP JUMPDEST SWAP5 POP SWAP5 POP POP PUSH1 0x20 PUSH2 0xAEB DUP8 DUP3 DUP9 ADD PUSH2 0xA1F JUMP JUMPDEST SWAP3 POP POP PUSH1 0x40 PUSH2 0xAFC DUP8 DUP3 DUP9 ADD PUSH2 0xA1F JUMP JUMPDEST SWAP2 POP POP SWAP3 SWAP6 SWAP2 SWAP5 POP SWAP3 POP JUMP JUMPDEST PUSH1 0x0 PUSH1 0x20 DUP3 DUP5 SUB SLT ISZERO PUSH2 0xB1E JUMPI PUSH2 0xB1D PUSH2 0xFA4 JUMP JUMPDEST JUMPDEST PUSH1 0x0 DUP3 ADD CALLDATALOAD PUSH8 0xFFFFFFFFFFFFFFFF DUP2 GT ISZERO PUSH2 0xB3C JUMPI PUSH2 0xB3B PUSH2 0xF9F JUMP JUMPDEST JUMPDEST PUSH2 0xB48 DUP5 DUP3 DUP6 ADD PUSH2 0x9F1 JUMP JUMPDEST SWAP2 POP POP SWAP3 SWAP2 POP POP JUMP JUMPDEST PUSH1 0x0 PUSH1 0x20 DUP3 DUP5 SUB SLT ISZERO PUSH2 0xB67 JUMPI PUSH2 0xB66 PUSH2 0xFA4 JUMP JUMPDEST JUMPDEST PUSH1 0x0 PUSH2 0xB75 DUP5 DUP3 DUP6 ADD PUSH2 0xA1F JUMP JUMPDEST SWAP2 POP POP SWAP3 SWAP2 POP POP JUMP JUMPDEST PUSH2 0xB87 DUP2 PUSH2 0xDEA JUMP JUMPDEST DUP3 MSTORE POP POP JUMP JUMPDEST PUSH1 0x0 PUSH2 0xB99 DUP4 DUP6 PUSH2 0xD89 JUMP JUMPDEST SWAP4 POP PUSH2 0xBA6 DUP4 DUP6 DUP5 PUSH2 0xE00 JUMP JUMPDEST DUP3 DUP5 ADD SWAP1 POP SWAP4 SWAP3 POP POP POP JUMP JUMPDEST PUSH1 0x0 PUSH2 0xBBD DUP3 PUSH2 0xD6D JUMP JUMPDEST PUSH2 0xBC7 DUP2 DUP6 PUSH2 0xD78 JUMP JUMPDEST SWAP4 POP PUSH2 0xBD7 DUP2 DUP6 PUSH1 0x20 DUP7 ADD PUSH2 0xE0F JUMP JUMPDEST PUSH2 0xBE0 DUP2 PUSH2 0xFA9 JUMP JUMPDEST DUP5 ADD SWAP2 POP POP SWAP3 SWAP2 POP POP JUMP JUMPDEST PUSH1 0x0 DUP2 SLOAD PUSH2 0xBF8 DUP2 PUSH2 0xE6C JUMP JUMPDEST PUSH2 0xC02 DUP2 DUP7 PUSH2 0xD89 JUMP JUMPDEST SWAP5 POP PUSH1 0x1 DUP3 AND PUSH1 0x0 DUP2 EQ PUSH2 0xC1D JUMPI PUSH1 0x1 DUP2 EQ PUSH2 0xC2E JUMPI PUSH2 0xC61 JUMP JUMPDEST PUSH1 0xFF NOT DUP4 AND DUP7 MSTORE DUP2 DUP7 ADD SWAP4 POP PUSH2 0xC61 JUMP JUMPDEST PUSH2 0xC37 DUP6 PUSH2 0xD58 JUMP JUMPDEST PUSH1 0x0 JUMPDEST DUP4 DUP2 LT ISZERO PUSH2 0xC59 JUMPI DUP2 SLOAD DUP2 DUP10 ADD MSTORE PUSH1 0x1 DUP3 ADD SWAP2 POP PUSH1 0x20 DUP2 ADD SWAP1 POP PUSH2 0xC3A JUMP JUMPDEST DUP4 DUP9 ADD SWAP6 POP POP POP JUMPDEST POP POP POP SWAP3 SWAP2 POP POP JUMP JUMPDEST PUSH2 0xC73 DUP2 PUSH2 0xDF6 JUMP JUMPDEST DUP3 MSTORE POP POP JUMP JUMPDEST PUSH1 0x0 PUSH2 0xC86 DUP3 DUP5 DUP7 PUSH2 0xB8D JUMP JUMPDEST SWAP2 POP DUP2 SWAP1 POP SWAP4 SWAP3 POP POP POP JUMP JUMPDEST PUSH1 0x0 PUSH2 0xC9E DUP3 DUP5 PUSH2 0xBEB JUMP JUMPDEST SWAP2 POP DUP2 SWAP1 POP SWAP3 SWAP2 POP POP JUMP JUMPDEST PUSH1 0x0 PUSH1 0x20 DUP3 ADD SWAP1 POP DUP2 DUP2 SUB PUSH1 0x0 DUP4 ADD MSTORE PUSH2 0xCC3 DUP2 DUP5 PUSH2 0xBB2 JUMP JUMPDEST SWAP1 POP SWAP3 SWAP2 POP POP JUMP JUMPDEST PUSH1 0x0 PUSH1 0x60 DUP3 ADD SWAP1 POP PUSH2 0xCE0 PUSH1 0x0 DUP4 ADD DUP7 PUSH2 0xC6A JUMP JUMPDEST PUSH2 0xCED PUSH1 0x20 DUP4 ADD DUP6 PUSH2 0xC6A JUMP JUMPDEST PUSH2 0xCFA PUSH1 0x40 DUP4 ADD DUP5 PUSH2 0xB7E JUMP JUMPDEST SWAP5 SWAP4 POP POP POP POP JUMP JUMPDEST PUSH1 0x0 PUSH2 0xD0C PUSH2 0xD1D JUMP JUMPDEST SWAP1 POP PUSH2 0xD18 DUP3 DUP3 PUSH2 0xE9E JUMP JUMPDEST SWAP2 SWAP1 POP JUMP JUMPDEST PUSH1 0x0 PUSH1 0x40 MLOAD SWAP1 POP SWAP1 JUMP JUMPDEST PUSH1 0x0 PUSH8 0xFFFFFFFFFFFFFFFF DUP3 GT ISZERO PUSH2 0xD42 JUMPI PUSH2 0xD41 PUSH2 0xF5C JUMP JUMPDEST JUMPDEST PUSH2 0xD4B DUP3 PUSH2 0xFA9 JUMP JUMPDEST SWAP1 POP PUSH1 0x20 DUP2 ADD SWAP1 POP SWAP2 SWAP1 POP JUMP JUMPDEST PUSH1 0x0 DUP2 SWAP1 POP DUP2 PUSH1 0x0 MSTORE PUSH1 0x20 PUSH1 0x0 KECCAK256 SWAP1 POP SWAP2 SWAP1 POP JUMP JUMPDEST PUSH1 0x0 DUP2 MLOAD SWAP1 POP SWAP2 SWAP1 POP JUMP JUMPDEST PUSH1 0x0 DUP3 DUP3 MSTORE PUSH1 0x20 DUP3 ADD SWAP1 POP SWAP3 SWAP2 POP POP JUMP JUMPDEST PUSH1 0x0 DUP2 SWAP1 POP SWAP3 SWAP2 POP POP JUMP JUMPDEST PUSH1 0x0 PUSH2 0xD9F DUP3 PUSH2 0xDF6 JUMP JUMPDEST SWAP2 POP PUSH2 0xDAA DUP4 PUSH2 0xDF6 JUMP JUMPDEST SWAP3 POP DUP3 PUSH32 0xFFFFFFFFFFFFFFFFFFFFFFFFFFFFFFFFFFFFFFFFFFFFFFFFFFFFFFFFFFFFFFFF SUB DUP3 GT ISZERO PUSH2 0xDDF JUMPI PUSH2 0xDDE PUSH2 0xECF JUMP JUMPDEST JUMPDEST DUP3 DUP3 ADD SWAP1 POP SWAP3 SWAP2 POP POP JUMP JUMPDEST PUSH1 0x0 DUP2 ISZERO ISZERO SWAP1 POP SWAP2 SWAP1 POP JUMP JUMPDEST PUSH1 0x0 DUP2 SWAP1 POP SWAP2 SWAP1 POP JUMP JUMPDEST DUP3 DUP2 DUP4 CALLDATACOPY PUSH1 0x0 DUP4 DUP4 ADD MSTORE POP POP POP JUMP JUMPDEST PUSH1 0x0 JUMPDEST DUP4 DUP2 LT ISZERO PUSH2 0xE2D JUMPI DUP1 DUP3 ADD MLOAD DUP2 DUP5 ADD MSTORE PUSH1 0x20 DUP2 ADD SWAP1 POP PUSH2 0xE12 JUMP JUMPDEST DUP4 DUP2 GT ISZERO PUSH2 0xE3C JUMPI PUSH1 0x0 DUP5 DUP5 ADD MSTORE JUMPDEST POP POP POP POP JUMP JUMPDEST PUSH1 0x0 PUSH2 0xE4D DUP3 PUSH2 0xDF6 JUMP JUMPDEST SWAP2 POP PUSH1 0x0 DUP3 EQ ISZERO PUSH2 0xE61 JUMPI PUSH2 0xE60 PUSH2 0xECF JUMP JUMPDEST JUMPDEST PUSH1 0x1 DUP3 SUB SWAP1 POP SWAP2 SWAP1 POP JUMP JUMPDEST PUSH1 0x0 PUSH1 0x2 DUP3 DIV SWAP1 POP PUSH1 0x1 DUP3 AND DUP1 PUSH2 0xE84 JUMPI PUSH1 0x7F DUP3 AND SWAP2 POP JUMPDEST PUSH1 0x20 DUP3 LT DUP2 EQ ISZERO PUSH2 0xE98 JUMPI PUSH2 0xE97 PUSH2 0xEFE JUMP JUMPDEST JUMPDEST POP SWAP2 SWAP1 POP JUMP JUMPDEST PUSH2 0xEA7 DUP3 PUSH2 0xFA9 JUMP JUMPDEST DUP2 ADD DUP2 DUP2 LT PUSH8 0xFFFFFFFFFFFFFFFF DUP3 GT OR ISZERO PUSH2 0xEC6 JUMPI PUSH2 0xEC5 PUSH2 0xF5C JUMP JUMPDEST JUMPDEST DUP1 PUSH1 0x40 MSTORE POP POP POP JUMP JUMPDEST PUSH32 0x4E487B7100000000000000000000000000000000000000000000000000000000 PUSH1 0x0 MSTORE PUSH1 0x11 PUSH1 0x4 MSTORE PUSH1 0x24 PUSH1 0x0 REVERT JUMPDEST PUSH32 0x4E487B7100000000000000000000000000000000000000000000000000000000 PUSH1 0x0 MSTORE PUSH1 0x22 PUSH1 0x4 MSTORE PUSH1 0x24 PUSH1 0x0 REVERT JUMPDEST PUSH32 0x4E487B7100000000000000000000000000000000000000000000000000000000 PUSH1 0x0 MSTORE PUSH1 0x32 PUSH1 0x4 MSTORE PUSH1 0x24 PUSH1 0x0 REVERT JUMPDEST PUSH32 0x4E487B7100000000000000000000000000000000000000000000000000000000 PUSH1 0x0 MSTORE PUSH1 0x41 PUSH1 0x4 MSTORE PUSH1 0x24 PUSH1 0x0 REVERT JUMPDEST PUSH1 0x0 DUP1 REVERT JUMPDEST PUSH1 0x0 DUP1 REVERT JUMPDEST PUSH1 0x0 DUP1 REVERT JUMPDEST PUSH1 0x0 DUP1 REVERT JUMPDEST PUSH1 0x0 DUP1 REVERT JUMPDEST PUSH1 0x0 DUP1 REVERT JUMPDEST PUSH1 0x0 PUSH1 0x1F NOT PUSH1 0x1F DUP4 ADD AND SWAP1 POP SWAP2 SWAP1 POP JUMP JUMPDEST PUSH2 0xFC3 DUP2 PUSH2 0xDF6 JUMP JUMPDEST DUP2 EQ PUSH2 0xFCE JUMPI PUSH1 0x0 DUP1 REVERT JUMPDEST POP JUMP INVALID LOG2 PUSH5 0x6970667358 0x22 SLT KECCAK256 LOG3 MLOAD 0xB0 0xD8 EXP 0x2F GASLIMIT NUMBER CODECOPY DUP4 SLT CODESIZE PUSH7 0xD1B08F56BE5A13 PUSH18 0xBB393B78E4DAFA06E2748764736F6C634300 ADDMOD SMOD STOP CALLER "
				},
				"gasEstimates": {
					"creation": {
						"codeDepositCost": "820600",
						"executionCost": "857",
						"totalCost": "821457"
					},
					"external": {
						"addNewProduct(string,uint256,uint256)": "infinite",
						"availableProducts(uint256)": "infinite",
						"buyProduct(uint256)": "infinite",
						"products(string)": "infinite",
						"updateQuantity(string,uint256)": "infinite"
					}
				},
				"methodIdentifiers": {
					"addNewProduct(string,uint256,uint256)": "0a5bd44b",
					"availableProducts(uint256)": "e4bcc7d4",
					"buyProduct(uint256)": "8642269e",
					"products(string)": "0186a423",
					"updateQuantity(string,uint256)": "1d894eb8"
				}
			},
			"storageLayout": {
				"storage": [
					{
						"astId": 29,
						"contract": "Project/TechnoLime.sol:TechnoLimeStore",
						"label": "availableProducts",
						"offset": 0,
						"slot": "0",
						"type": "t_array(t_string_storage)dyn_storage"
					},
					{
						"astId": 34,
						"contract": "Project/TechnoLime.sol:TechnoLimeStore",
						"label": "products",
						"offset": 0,
						"slot": "1",
						"type": "t_mapping(t_string_memory_ptr,t_struct(Product)26_storage)"
					},
					{
						"astId": 48,
						"contract": "Project/TechnoLime.sol:TechnoLimeStore",
						"label": "transactions",
						"offset": 0,
						"slot": "2",
						"type": "t_mapping(t_uint256,t_mapping(t_address,t_struct(Transaction)41_storage))"
					}
				],
				"types": {
					"t_address": {
						"encoding": "inplace",
						"label": "address",
						"numberOfBytes": "20"
					},
					"t_array(t_address)dyn_storage": {
						"base": "t_address",
						"encoding": "dynamic_array",
						"label": "address[]",
						"numberOfBytes": "32"
					},
					"t_array(t_string_storage)dyn_storage": {
						"base": "t_string_storage",
						"encoding": "dynamic_array",
						"label": "string[]",
						"numberOfBytes": "32"
					},
					"t_bool": {
						"encoding": "inplace",
						"label": "bool",
						"numberOfBytes": "1"
					},
					"t_mapping(t_address,t_struct(Transaction)41_storage)": {
						"encoding": "mapping",
						"key": "t_address",
						"label": "mapping(address => struct TechnoLimeStore.Transaction)",
						"numberOfBytes": "32",
						"value": "t_struct(Transaction)41_storage"
					},
					"t_mapping(t_string_memory_ptr,t_struct(Product)26_storage)": {
						"encoding": "mapping",
						"key": "t_string_memory_ptr",
						"label": "mapping(string => struct TechnoLimeStore.Product)",
						"numberOfBytes": "32",
						"value": "t_struct(Product)26_storage"
					},
					"t_mapping(t_uint256,t_mapping(t_address,t_struct(Transaction)41_storage))": {
						"encoding": "mapping",
						"key": "t_uint256",
						"label": "mapping(uint256 => mapping(address => struct TechnoLimeStore.Transaction))",
						"numberOfBytes": "32",
						"value": "t_mapping(t_address,t_struct(Transaction)41_storage)"
					},
					"t_string_memory_ptr": {
						"encoding": "bytes",
						"label": "string",
						"numberOfBytes": "32"
					},
					"t_string_storage": {
						"encoding": "bytes",
						"label": "string",
						"numberOfBytes": "32"
					},
					"t_struct(Product)26_storage": {
						"encoding": "inplace",
						"label": "struct TechnoLimeStore.Product",
						"members": [
							{
								"astId": 18,
								"contract": "Project/TechnoLime.sol:TechnoLimeStore",
								"label": "price",
								"offset": 0,
								"slot": "0",
								"type": "t_uint256"
							},
							{
								"astId": 20,
								"contract": "Project/TechnoLime.sol:TechnoLimeStore",
								"label": "quantity",
								"offset": 0,
								"slot": "1",
								"type": "t_uint256"
							},
							{
								"astId": 23,
								"contract": "Project/TechnoLime.sol:TechnoLimeStore",
								"label": "buyers",
								"offset": 0,
								"slot": "2",
								"type": "t_array(t_address)dyn_storage"
							},
							{
								"astId": 25,
								"contract": "Project/TechnoLime.sol:TechnoLimeStore",
								"label": "exists",
								"offset": 0,
								"slot": "3",
								"type": "t_bool"
							}
						],
						"numberOfBytes": "128"
					},
					"t_struct(Transaction)41_storage": {
						"encoding": "inplace",
						"label": "struct TechnoLimeStore.Transaction",
						"members": [
							{
								"astId": 36,
								"contract": "Project/TechnoLime.sol:TechnoLimeStore",
								"label": "blockNum",
								"offset": 0,
								"slot": "0",
								"type": "t_uint256"
							},
							{
								"astId": 38,
								"contract": "Project/TechnoLime.sol:TechnoLimeStore",
								"label": "price",
								"offset": 0,
								"slot": "1",
								"type": "t_uint256"
							},
							{
								"astId": 40,
								"contract": "Project/TechnoLime.sol:TechnoLimeStore",
								"label": "exists",
								"offset": 0,
								"slot": "2",
								"type": "t_bool"
							}
						],
						"numberOfBytes": "96"
					},
					"t_uint256": {
						"encoding": "inplace",
						"label": "uint256",
						"numberOfBytes": "32"
					}
				}
			},
			"userdoc": {
				"errors": {
					"ItemIdWrongOrBoughtAlready()": [
						{
							"notice": "Error trown when the productID doesn't exist or it has been bought once already"
						}
					],
					"LessThanPrice()": [
						{
							"notice": "Error trown when money sent is less than Product price"
						}
					],
					"ProductExists()": [
						{
							"notice": "Can't add a product that already exists"
						}
					]
				},
				"kind": "user",
				"methods": {},
				"version": 1
			}
		}
	}
}