{
	"Project/TechnoLime.sol": {
		"TechnoLimeStore": {
			"abi": [
				{
					"inputs": [],
					"stateMutability": "payable",
					"type": "constructor"
				},
				{
					"inputs": [],
					"name": "ItemIdWrongOrBoughtAlready",
					"type": "error"
				},
				{
					"inputs": [],
					"name": "LessThanPriceOrOutOfStock",
					"type": "error"
				},
				{
					"inputs": [],
					"name": "ProductExists",
					"type": "error"
				},
				{
					"inputs": [],
					"name": "ProductNotExistent",
					"type": "error"
				},
				{
					"inputs": [
						{
							"internalType": "string",
							"name": "productName",
							"type": "string"
						},
						{
							"internalType": "uint256",
							"name": "_price",
							"type": "uint256"
						},
						{
							"internalType": "uint256",
							"name": "_quantity",
							"type": "uint256"
						}
					],
					"name": "addNewProduct",
					"outputs": [],
					"stateMutability": "nonpayable",
					"type": "function"
				},
				{
					"inputs": [
						{
							"internalType": "uint256",
							"name": "",
							"type": "uint256"
						}
					],
					"name": "availableProducts",
					"outputs": [
						{
							"internalType": "string",
							"name": "",
							"type": "string"
						}
					],
					"stateMutability": "view",
					"type": "function"
				},
				{
					"inputs": [
						{
							"internalType": "uint256",
							"name": "ProductId",
							"type": "uint256"
						}
					],
					"name": "buyProduct",
					"outputs": [],
					"stateMutability": "payable",
					"type": "function"
				},
				{
					"inputs": [
						{
							"internalType": "uint256",
							"name": "",
							"type": "uint256"
						},
						{
							"internalType": "uint256",
							"name": "",
							"type": "uint256"
						}
					],
					"name": "buyers",
					"outputs": [
						{
							"internalType": "address",
							"name": "",
							"type": "address"
						}
					],
					"stateMutability": "view",
					"type": "function"
				},
				{
					"inputs": [
						{
							"internalType": "string",
							"name": "",
							"type": "string"
						}
					],
					"name": "products",
					"outputs": [
						{
							"internalType": "uint256",
							"name": "price",
							"type": "uint256"
						},
						{
							"internalType": "uint256",
							"name": "quantity",
							"type": "uint256"
						},
						{
							"internalType": "bool",
							"name": "exists",
							"type": "bool"
						}
					],
					"stateMutability": "view",
					"type": "function"
				},
				{
					"inputs": [
						{
							"internalType": "uint256",
							"name": "",
							"type": "uint256"
						}
					],
					"name": "productsID",
					"outputs": [
						{
							"internalType": "uint256",
							"name": "price",
							"type": "uint256"
						},
						{
							"internalType": "uint256",
							"name": "quantity",
							"type": "uint256"
						},
						{
							"internalType": "bool",
							"name": "exists",
							"type": "bool"
						}
					],
					"stateMutability": "view",
					"type": "function"
				},
				{
					"inputs": [
						{
							"internalType": "uint256",
							"name": "_id",
							"type": "uint256"
						}
					],
					"name": "test",
					"outputs": [
						{
							"components": [
								{
									"internalType": "uint256",
									"name": "price",
									"type": "uint256"
								},
								{
									"internalType": "uint256",
									"name": "quantity",
									"type": "uint256"
								},
								{
									"internalType": "bool",
									"name": "exists",
									"type": "bool"
								}
							],
							"internalType": "struct TechnoLimeStore.Product",
							"name": "",
							"type": "tuple"
						}
					],
					"stateMutability": "view",
					"type": "function"
				},
				{
					"inputs": [
						{
							"internalType": "uint256",
							"name": "",
							"type": "uint256"
						},
						{
							"internalType": "address",
							"name": "",
							"type": "address"
						}
					],
					"name": "transactions",
					"outputs": [
						{
							"internalType": "uint256",
							"name": "blockNum",
							"type": "uint256"
						},
						{
							"internalType": "uint256",
							"name": "price",
							"type": "uint256"
						},
						{
							"internalType": "bool",
							"name": "exists",
							"type": "bool"
						}
					],
					"stateMutability": "view",
					"type": "function"
				},
				{
					"inputs": [
						{
							"internalType": "string",
							"name": "productName",
							"type": "string"
						},
						{
							"internalType": "uint256",
							"name": "_quantity",
							"type": "uint256"
						}
					],
					"name": "updateQuantity",
					"outputs": [],
					"stateMutability": "nonpayable",
					"type": "function"
				}
			],
			"devdoc": {
				"kind": "dev",
				"methods": {},
				"version": 1
			},
			"evm": {
				"assembly": "    /* \"Project/TechnoLime.sol\":98:3479  contract TechnoLimeStore {\r... */\n  mstore(0x40, 0x80)\n  dataSize(sub_0)\n  dup1\n  dataOffset(sub_0)\n  0x00\n  codecopy\n  0x00\n  return\nstop\n\nsub_0: assembly {\n        /* \"Project/TechnoLime.sol\":98:3479  contract TechnoLimeStore {\r... */\n      mstore(0x40, 0x80)\n      jumpi(tag_1, lt(calldatasize, 0x04))\n      shr(0xe0, calldataload(0x00))\n      dup1\n      0x29e99f07\n      gt\n      tag_11\n      jumpi\n      dup1\n      0x29e99f07\n      eq\n      tag_6\n      jumpi\n      dup1\n      0x74cbc350\n      eq\n      tag_7\n      jumpi\n      dup1\n      0x8642269e\n      eq\n      tag_8\n      jumpi\n      dup1\n      0xe4bcc7d4\n      eq\n      tag_9\n      jumpi\n      dup1\n      0xf8cfabb9\n      eq\n      tag_10\n      jumpi\n      jump(tag_1)\n    tag_11:\n      dup1\n      0x0186a423\n      eq\n      tag_2\n      jumpi\n      dup1\n      0x0a5bd44b\n      eq\n      tag_3\n      jumpi\n      dup1\n      0x1d894eb8\n      eq\n      tag_4\n      jumpi\n      dup1\n      0x27e7875a\n      eq\n      tag_5\n      jumpi\n    tag_1:\n      0x00\n      dup1\n      revert\n        /* \"Project/TechnoLime.sol\":559:601  mapping(string => Product) public products */\n    tag_2:\n      callvalue\n      dup1\n      iszero\n      tag_12\n      jumpi\n      0x00\n      dup1\n      revert\n    tag_12:\n      pop\n      tag_13\n      0x04\n      dup1\n      calldatasize\n      sub\n      dup2\n      add\n      swap1\n      tag_14\n      swap2\n      swap1\n      tag_15\n      jump\t// in\n    tag_14:\n      tag_16\n      jump\t// in\n    tag_13:\n      mload(0x40)\n      tag_17\n      swap4\n      swap3\n      swap2\n      swap1\n      tag_18\n      jump\t// in\n    tag_17:\n      mload(0x40)\n      dup1\n      swap2\n      sub\n      swap1\n      return\n        /* \"Project/TechnoLime.sol\":963:1551  function addNewProduct(string calldata productName, uint _price,uint _quantity) external{\r... */\n    tag_3:\n      callvalue\n      dup1\n      iszero\n      tag_19\n      jumpi\n      0x00\n      dup1\n      revert\n    tag_19:\n      pop\n      tag_20\n      0x04\n      dup1\n      calldatasize\n      sub\n      dup2\n      add\n      swap1\n      tag_21\n      swap2\n      swap1\n      tag_22\n      jump\t// in\n    tag_21:\n      tag_23\n      jump\t// in\n    tag_20:\n      stop\n        /* \"Project/TechnoLime.sol\":1559:1928  function updateQuantity(string calldata productName,uint _quantity) external{\r... */\n    tag_4:\n      callvalue\n      dup1\n      iszero\n      tag_24\n      jumpi\n      0x00\n      dup1\n      revert\n    tag_24:\n      pop\n      tag_25\n      0x04\n      dup1\n      calldatasize\n      sub\n      dup2\n      add\n      swap1\n      tag_26\n      swap2\n      swap1\n      tag_27\n      jump\t// in\n    tag_26:\n      tag_28\n      jump\t// in\n    tag_25:\n      stop\n        /* \"Project/TechnoLime.sol\":788:827  mapping(uint =>address[]) public buyers */\n    tag_5:\n      callvalue\n      dup1\n      iszero\n      tag_29\n      jumpi\n      0x00\n      dup1\n      revert\n    tag_29:\n      pop\n      tag_30\n      0x04\n      dup1\n      calldatasize\n      sub\n      dup2\n      add\n      swap1\n      tag_31\n      swap2\n      swap1\n      tag_32\n      jump\t// in\n    tag_31:\n      tag_33\n      jump\t// in\n    tag_30:\n      mload(0x40)\n      tag_34\n      swap2\n      swap1\n      tag_35\n      jump\t// in\n    tag_34:\n      mload(0x40)\n      dup1\n      swap2\n      sub\n      swap1\n      return\n        /* \"Project/TechnoLime.sol\":836:955  function test(uint _id) external view returns(Product memory){\r... */\n    tag_6:\n      callvalue\n      dup1\n      iszero\n      tag_36\n      jumpi\n      0x00\n      dup1\n      revert\n    tag_36:\n      pop\n      tag_37\n      0x04\n      dup1\n      calldatasize\n      sub\n      dup2\n      add\n      swap1\n      tag_38\n      swap2\n      swap1\n      tag_39\n      jump\t// in\n    tag_38:\n      tag_40\n      jump\t// in\n    tag_37:\n      mload(0x40)\n      tag_41\n      swap2\n      swap1\n      tag_42\n      jump\t// in\n    tag_41:\n      mload(0x40)\n      dup1\n      swap2\n      sub\n      swap1\n      return\n        /* \"Project/TechnoLime.sol\":713:781  mapping(uint => mapping(address => Transaction)) public transactions */\n    tag_7:\n      callvalue\n      dup1\n      iszero\n      tag_43\n      jumpi\n      0x00\n      dup1\n      revert\n    tag_43:\n      pop\n      tag_44\n      0x04\n      dup1\n      calldatasize\n      sub\n      dup2\n      add\n      swap1\n      tag_45\n      swap2\n      swap1\n      tag_46\n      jump\t// in\n    tag_45:\n      tag_47\n      jump\t// in\n    tag_44:\n      mload(0x40)\n      tag_48\n      swap4\n      swap3\n      swap2\n      swap1\n      tag_18\n      jump\t// in\n    tag_48:\n      mload(0x40)\n      dup1\n      swap2\n      sub\n      swap1\n      return\n        /* \"Project/TechnoLime.sol\":2030:3462  function buyProduct (uint ProductId)  external payable { \r... */\n    tag_8:\n      tag_49\n      0x04\n      dup1\n      calldatasize\n      sub\n      dup2\n      add\n      swap1\n      tag_50\n      swap2\n      swap1\n      tag_39\n      jump\t// in\n    tag_50:\n      tag_51\n      jump\t// in\n    tag_49:\n      stop\n        /* \"Project/TechnoLime.sol\":390:423  string[] public availableProducts */\n    tag_9:\n      callvalue\n      dup1\n      iszero\n      tag_52\n      jumpi\n      0x00\n      dup1\n      revert\n    tag_52:\n      pop\n      tag_53\n      0x04\n      dup1\n      calldatasize\n      sub\n      dup2\n      add\n      swap1\n      tag_54\n      swap2\n      swap1\n      tag_39\n      jump\t// in\n    tag_54:\n      tag_55\n      jump\t// in\n    tag_53:\n      mload(0x40)\n      tag_56\n      swap2\n      swap1\n      tag_57\n      jump\t// in\n    tag_56:\n      mload(0x40)\n      dup1\n      swap2\n      sub\n      swap1\n      return\n        /* \"Project/TechnoLime.sol\":430:472  mapping(uint => Product) public productsID */\n    tag_10:\n      callvalue\n      dup1\n      iszero\n      tag_58\n      jumpi\n      0x00\n      dup1\n      revert\n    tag_58:\n      pop\n      tag_59\n      0x04\n      dup1\n      calldatasize\n      sub\n      dup2\n      add\n      swap1\n      tag_60\n      swap2\n      swap1\n      tag_39\n      jump\t// in\n    tag_60:\n      tag_61\n      jump\t// in\n    tag_59:\n      mload(0x40)\n      tag_62\n      swap4\n      swap3\n      swap2\n      swap1\n      tag_18\n      jump\t// in\n    tag_62:\n      mload(0x40)\n      dup1\n      swap2\n      sub\n      swap1\n      return\n        /* \"Project/TechnoLime.sol\":559:601  mapping(string => Product) public products */\n    tag_16:\n      0x02\n      dup2\n      dup1\n      mload\n      0x20\n      dup2\n      add\n      dup3\n      add\n      dup1\n      mload\n      dup5\n      dup3\n      mstore\n      0x20\n      dup4\n      add\n      0x20\n      dup6\n      add\n      keccak256\n      dup2\n      dup4\n      mstore\n      dup1\n      swap6\n      pop\n      pop\n      pop\n      pop\n      pop\n      pop\n      0x00\n      swap2\n      pop\n      swap1\n      pop\n      dup1\n      0x00\n      add\n      sload\n      swap1\n      dup1\n      0x01\n      add\n      sload\n      swap1\n      dup1\n      0x02\n      add\n      0x00\n      swap1\n      sload\n      swap1\n      0x0100\n      exp\n      swap1\n      div\n      0xff\n      and\n      swap1\n      pop\n      dup4\n      jump\t// out\n        /* \"Project/TechnoLime.sol\":963:1551  function addNewProduct(string calldata productName, uint _price,uint _quantity) external{\r... */\n    tag_23:\n        /* \"Project/TechnoLime.sol\":1068:1076  products */\n      0x02\n        /* \"Project/TechnoLime.sol\":1077:1088  productName */\n      dup5\n      dup5\n        /* \"Project/TechnoLime.sol\":1068:1089  products[productName] */\n      mload(0x40)\n      tag_64\n      swap3\n      swap2\n      swap1\n      tag_65\n      jump\t// in\n    tag_64:\n      swap1\n      dup2\n      mstore\n      0x20\n      add\n      mload(0x40)\n      dup1\n      swap2\n      sub\n      swap1\n      keccak256\n        /* \"Project/TechnoLime.sol\":1068:1096  products[productName].exists */\n      0x02\n      add\n      0x00\n      swap1\n      sload\n      swap1\n      0x0100\n      exp\n      swap1\n      div\n      0xff\n      and\n        /* \"Project/TechnoLime.sol\":1063:1534  if (!products[productName].exists){\r... */\n      tag_66\n      jumpi\n        /* \"Project/TechnoLime.sol\":1113:1135  Product memory product */\n      tag_67\n      tag_68\n      jump\t// in\n    tag_67:\n        /* \"Project/TechnoLime.sol\":1167:1173  _price */\n      dup3\n        /* \"Project/TechnoLime.sol\":1151:1158  product */\n      dup2\n        /* \"Project/TechnoLime.sol\":1151:1164  product.price */\n      0x00\n      add\n        /* \"Project/TechnoLime.sol\":1151:1173  product.price = _price */\n      dup2\n      dup2\n      mstore\n      pop\n      pop\n        /* \"Project/TechnoLime.sol\":1208:1217  _quantity */\n      dup2\n        /* \"Project/TechnoLime.sol\":1189:1196  product */\n      dup2\n        /* \"Project/TechnoLime.sol\":1189:1205  product.quantity */\n      0x20\n      add\n        /* \"Project/TechnoLime.sol\":1189:1217  product.quantity = _quantity */\n      dup2\n      dup2\n      mstore\n      pop\n      pop\n        /* \"Project/TechnoLime.sol\":1250:1254  true */\n      0x01\n        /* \"Project/TechnoLime.sol\":1233:1240  product */\n      dup2\n        /* \"Project/TechnoLime.sol\":1233:1247  product.exists */\n      0x40\n      add\n        /* \"Project/TechnoLime.sol\":1233:1254  product.exists = true */\n      swap1\n      iszero\n      iszero\n      swap1\n      dup2\n      iszero\n      iszero\n      dup2\n      mstore\n      pop\n      pop\n        /* \"Project/TechnoLime.sol\":1294:1301  product */\n      dup1\n        /* \"Project/TechnoLime.sol\":1270:1278  products */\n      0x02\n        /* \"Project/TechnoLime.sol\":1279:1290  productName */\n      dup7\n      dup7\n        /* \"Project/TechnoLime.sol\":1270:1291  products[productName] */\n      mload(0x40)\n      tag_69\n      swap3\n      swap2\n      swap1\n      tag_65\n      jump\t// in\n    tag_69:\n      swap1\n      dup2\n      mstore\n      0x20\n      add\n      mload(0x40)\n      dup1\n      swap2\n      sub\n      swap1\n      keccak256\n        /* \"Project/TechnoLime.sol\":1270:1301  products[productName] = product */\n      0x00\n      dup3\n      add\n      mload\n      dup2\n      0x00\n      add\n      sstore\n      0x20\n      dup3\n      add\n      mload\n      dup2\n      0x01\n      add\n      sstore\n      0x40\n      dup3\n      add\n      mload\n      dup2\n      0x02\n      add\n      exp(0x0100, 0x00)\n      dup2\n      sload\n      dup2\n      0xff\n      mul\n      not\n      and\n      swap1\n      dup4\n      iszero\n      iszero\n      mul\n      or\n      swap1\n      sstore\n      pop\n      swap1\n      pop\n      pop\n        /* \"Project/TechnoLime.sol\":1317:1334  availableProducts */\n      0x00\n        /* \"Project/TechnoLime.sol\":1340:1351  productName */\n      dup6\n      dup6\n        /* \"Project/TechnoLime.sol\":1317:1352  availableProducts.push(productName) */\n      swap1\n      swap2\n      dup1\n      0x01\n      dup2\n      sload\n      add\n      dup1\n      dup3\n      sstore\n      dup1\n      swap2\n      pop\n      pop\n      0x01\n      swap1\n      sub\n      swap1\n      0x00\n      mstore\n      keccak256(0x00, 0x20)\n      add\n      0x00\n      swap1\n      swap2\n      swap3\n      swap1\n      swap2\n      swap3\n      swap1\n      swap2\n      swap3\n      swap1\n      swap2\n      swap3\n      pop\n      swap2\n      swap1\n      tag_71\n      swap3\n      swap2\n      swap1\n      tag_72\n      jump\t// in\n    tag_71:\n      pop\n        /* \"Project/TechnoLime.sol\":1097:1365  {\r... */\n      pop\n        /* \"Project/TechnoLime.sol\":1063:1534  if (!products[productName].exists){\r... */\n      jump(tag_73)\n    tag_66:\n        /* \"Project/TechnoLime.sol\":1499:1521  Errors.ProductExists() */\n      mload(0x40)\n      0xb185df3a00000000000000000000000000000000000000000000000000000000\n      dup2\n      mstore\n      0x04\n      add\n      mload(0x40)\n      dup1\n      swap2\n      sub\n      swap1\n      revert\n        /* \"Project/TechnoLime.sol\":1063:1534  if (!products[productName].exists){\r... */\n    tag_73:\n        /* \"Project/TechnoLime.sol\":963:1551  function addNewProduct(string calldata productName, uint _price,uint _quantity) external{\r... */\n      pop\n      pop\n      pop\n      pop\n      jump\t// out\n        /* \"Project/TechnoLime.sol\":1559:1928  function updateQuantity(string calldata productName,uint _quantity) external{\r... */\n    tag_28:\n        /* \"Project/TechnoLime.sol\":1650:1658  products */\n      0x02\n        /* \"Project/TechnoLime.sol\":1659:1670  productName */\n      dup4\n      dup4\n        /* \"Project/TechnoLime.sol\":1650:1671  products[productName] */\n      mload(0x40)\n      tag_75\n      swap3\n      swap2\n      swap1\n      tag_65\n      jump\t// in\n    tag_75:\n      swap1\n      dup2\n      mstore\n      0x20\n      add\n      mload(0x40)\n      dup1\n      swap2\n      sub\n      swap1\n      keccak256\n        /* \"Project/TechnoLime.sol\":1650:1678  products[productName].exists */\n      0x02\n      add\n      0x00\n      swap1\n      sload\n      swap1\n      0x0100\n      exp\n      swap1\n      div\n      0xff\n      and\n        /* \"Project/TechnoLime.sol\":1646:1921  if (products[productName].exists){\r... */\n      iszero\n      tag_76\n      jumpi\n        /* \"Project/TechnoLime.sol\":1728:1737  _quantity */\n      dup1\n        /* \"Project/TechnoLime.sol\":1694:1702  products */\n      0x02\n        /* \"Project/TechnoLime.sol\":1703:1714  productName */\n      dup5\n      dup5\n        /* \"Project/TechnoLime.sol\":1694:1715  products[productName] */\n      mload(0x40)\n      tag_77\n      swap3\n      swap2\n      swap1\n      tag_65\n      jump\t// in\n    tag_77:\n      swap1\n      dup2\n      mstore\n      0x20\n      add\n      mload(0x40)\n      dup1\n      swap2\n      sub\n      swap1\n      keccak256\n        /* \"Project/TechnoLime.sol\":1694:1724  products[productName].quantity */\n      0x01\n      add\n      0x00\n        /* \"Project/TechnoLime.sol\":1694:1737  products[productName].quantity += _quantity */\n      dup3\n      dup3\n      sload\n      tag_78\n      swap2\n      swap1\n      tag_79\n      jump\t// in\n    tag_78:\n      swap3\n      pop\n      pop\n      dup2\n      swap1\n      sstore\n      pop\n        /* \"Project/TechnoLime.sol\":1646:1921  if (products[productName].exists){\r... */\n      jump(tag_80)\n    tag_76:\n        /* \"Project/TechnoLime.sol\":1882:1909  Errors.ProductNotExistent() */\n      mload(0x40)\n      0x7e8d96a900000000000000000000000000000000000000000000000000000000\n      dup2\n      mstore\n      0x04\n      add\n      mload(0x40)\n      dup1\n      swap2\n      sub\n      swap1\n      revert\n        /* \"Project/TechnoLime.sol\":1646:1921  if (products[productName].exists){\r... */\n    tag_80:\n        /* \"Project/TechnoLime.sol\":1559:1928  function updateQuantity(string calldata productName,uint _quantity) external{\r... */\n      pop\n      pop\n      pop\n      jump\t// out\n        /* \"Project/TechnoLime.sol\":788:827  mapping(uint =>address[]) public buyers */\n    tag_33:\n      mstore(0x20, 0x04)\n      dup2\n      0x00\n      mstore\n      keccak256(0x00, 0x40)\n      dup2\n      dup2\n      sload\n      dup2\n      lt\n      tag_81\n      jumpi\n      0x00\n      dup1\n      revert\n    tag_81:\n      swap1\n      0x00\n      mstore\n      keccak256(0x00, 0x20)\n      add\n      0x00\n      swap2\n      pop\n      swap2\n      pop\n      swap1\n      sload\n      swap1\n      0x0100\n      exp\n      swap1\n      div\n      0xffffffffffffffffffffffffffffffffffffffff\n      and\n      dup2\n      jump\t// out\n        /* \"Project/TechnoLime.sol\":836:955  function test(uint _id) external view returns(Product memory){\r... */\n    tag_40:\n        /* \"Project/TechnoLime.sol\":882:896  Product memory */\n      tag_83\n      tag_68\n      jump\t// in\n    tag_83:\n        /* \"Project/TechnoLime.sol\":915:923  products */\n      0x02\n        /* \"Project/TechnoLime.sol\":924:941  availableProducts */\n      0x00\n        /* \"Project/TechnoLime.sol\":942:945  _id */\n      dup4\n        /* \"Project/TechnoLime.sol\":924:946  availableProducts[_id] */\n      dup2\n      sload\n      dup2\n      lt\n      tag_85\n      jumpi\n      tag_86\n      tag_87\n      jump\t// in\n    tag_86:\n    tag_85:\n      swap1\n      0x00\n      mstore\n      keccak256(0x00, 0x20)\n      add\n        /* \"Project/TechnoLime.sol\":915:947  products[availableProducts[_id]] */\n      mload(0x40)\n      tag_89\n      swap2\n      swap1\n      tag_90\n      jump\t// in\n    tag_89:\n      swap1\n      dup2\n      mstore\n      0x20\n      add\n      mload(0x40)\n      dup1\n      swap2\n      sub\n      swap1\n      keccak256\n        /* \"Project/TechnoLime.sol\":908:947  return products[availableProducts[_id]] */\n      mload(0x40)\n      dup1\n      0x60\n      add\n      0x40\n      mstore\n      swap1\n      dup2\n      0x00\n      dup3\n      add\n      sload\n      dup2\n      mstore\n      0x20\n      add\n      0x01\n      dup3\n      add\n      sload\n      dup2\n      mstore\n      0x20\n      add\n      0x02\n      dup3\n      add\n      0x00\n      swap1\n      sload\n      swap1\n      0x0100\n      exp\n      swap1\n      div\n      0xff\n      and\n      iszero\n      iszero\n      iszero\n      iszero\n      dup2\n      mstore\n      pop\n      pop\n      swap1\n      pop\n        /* \"Project/TechnoLime.sol\":836:955  function test(uint _id) external view returns(Product memory){\r... */\n      swap2\n      swap1\n      pop\n      jump\t// out\n        /* \"Project/TechnoLime.sol\":713:781  mapping(uint => mapping(address => Transaction)) public transactions */\n    tag_47:\n      mstore(0x20, 0x03)\n      dup2\n      0x00\n      mstore\n      mstore(0x20, keccak256(0x00, 0x40))\n      dup1\n      0x00\n      mstore\n      keccak256(0x00, 0x40)\n      0x00\n      swap2\n      pop\n      swap2\n      pop\n      pop\n      dup1\n      0x00\n      add\n      sload\n      swap1\n      dup1\n      0x01\n      add\n      sload\n      swap1\n      dup1\n      0x02\n      add\n      0x00\n      swap1\n      sload\n      swap1\n      0x0100\n      exp\n      swap1\n      div\n      0xff\n      and\n      swap1\n      pop\n      dup4\n      jump\t// out\n        /* \"Project/TechnoLime.sol\":2030:3462  function buyProduct (uint ProductId)  external payable { \r... */\n    tag_51:\n        /* \"Project/TechnoLime.sol\":2222:2239  availableProducts */\n      0x00\n        /* \"Project/TechnoLime.sol\":2222:2246  availableProducts.length */\n      dup1\n      sload\n      swap1\n      pop\n        /* \"Project/TechnoLime.sol\":2210:2219  ProductId */\n      dup2\n        /* \"Project/TechnoLime.sol\":2210:2246  ProductId < availableProducts.length */\n      lt\n        /* \"Project/TechnoLime.sol\":2210:2293  ProductId < availableProducts.length && !transactions[ProductId][msg.sender].exists */\n      dup1\n      iszero\n      tag_92\n      jumpi\n      pop\n        /* \"Project/TechnoLime.sol\":2251:2263  transactions */\n      0x03\n        /* \"Project/TechnoLime.sol\":2251:2274  transactions[ProductId] */\n      0x00\n        /* \"Project/TechnoLime.sol\":2264:2273  ProductId */\n      dup3\n        /* \"Project/TechnoLime.sol\":2251:2274  transactions[ProductId] */\n      dup2\n      mstore\n      0x20\n      add\n      swap1\n      dup2\n      mstore\n      0x20\n      add\n      0x00\n      keccak256\n        /* \"Project/TechnoLime.sol\":2251:2286  transactions[ProductId][msg.sender] */\n      0x00\n        /* \"Project/TechnoLime.sol\":2275:2285  msg.sender */\n      caller\n        /* \"Project/TechnoLime.sol\":2251:2286  transactions[ProductId][msg.sender] */\n      0xffffffffffffffffffffffffffffffffffffffff\n      and\n      0xffffffffffffffffffffffffffffffffffffffff\n      and\n      dup2\n      mstore\n      0x20\n      add\n      swap1\n      dup2\n      mstore\n      0x20\n      add\n      0x00\n      keccak256\n        /* \"Project/TechnoLime.sol\":2251:2293  transactions[ProductId][msg.sender].exists */\n      0x02\n      add\n      0x00\n      swap1\n      sload\n      swap1\n      0x0100\n      exp\n      swap1\n      div\n      0xff\n      and\n        /* \"Project/TechnoLime.sol\":2250:2293  !transactions[ProductId][msg.sender].exists */\n      iszero\n        /* \"Project/TechnoLime.sol\":2210:2293  ProductId < availableProducts.length && !transactions[ProductId][msg.sender].exists */\n    tag_92:\n        /* \"Project/TechnoLime.sol\":2207:3434  if(ProductId < availableProducts.length && !transactions[ProductId][msg.sender].exists){\r... */\n      iszero\n      tag_93\n      jumpi\n        /* \"Project/TechnoLime.sol\":2455:2477  Product memory product */\n      0x00\n        /* \"Project/TechnoLime.sol\":2479:2487  products */\n      0x02\n        /* \"Project/TechnoLime.sol\":2488:2505  availableProducts */\n      0x00\n        /* \"Project/TechnoLime.sol\":2506:2515  ProductId */\n      dup4\n        /* \"Project/TechnoLime.sol\":2488:2516  availableProducts[ProductId] */\n      dup2\n      sload\n      dup2\n      lt\n      tag_94\n      jumpi\n      tag_95\n      tag_87\n      jump\t// in\n    tag_95:\n    tag_94:\n      swap1\n      0x00\n      mstore\n      keccak256(0x00, 0x20)\n      add\n        /* \"Project/TechnoLime.sol\":2479:2517  products[availableProducts[ProductId]] */\n      mload(0x40)\n      tag_97\n      swap2\n      swap1\n      tag_90\n      jump\t// in\n    tag_97:\n      swap1\n      dup2\n      mstore\n      0x20\n      add\n      mload(0x40)\n      dup1\n      swap2\n      sub\n      swap1\n      keccak256\n        /* \"Project/TechnoLime.sol\":2455:2517  Product memory product= products[availableProducts[ProductId]] */\n      mload(0x40)\n      dup1\n      0x60\n      add\n      0x40\n      mstore\n      swap1\n      dup2\n      0x00\n      dup3\n      add\n      sload\n      dup2\n      mstore\n      0x20\n      add\n      0x01\n      dup3\n      add\n      sload\n      dup2\n      mstore\n      0x20\n      add\n      0x02\n      dup3\n      add\n      0x00\n      swap1\n      sload\n      swap1\n      0x0100\n      exp\n      swap1\n      div\n      0xff\n      and\n      iszero\n      iszero\n      iszero\n      iszero\n      dup2\n      mstore\n      pop\n      pop\n      swap1\n      pop\n        /* \"Project/TechnoLime.sol\":2551:2558  product */\n      dup1\n        /* \"Project/TechnoLime.sol\":2551:2564  product.price */\n      0x00\n      add\n      mload\n        /* \"Project/TechnoLime.sol\":2539:2548  msg.value */\n      callvalue\n        /* \"Project/TechnoLime.sol\":2539:2564  msg.value < product.price */\n      lt\n        /* \"Project/TechnoLime.sol\":2539:2588  msg.value < product.price || product.quantity < 1 */\n      dup1\n      tag_98\n      jumpi\n      pop\n        /* \"Project/TechnoLime.sol\":2587:2588  1 */\n      0x01\n        /* \"Project/TechnoLime.sol\":2568:2575  product */\n      dup2\n        /* \"Project/TechnoLime.sol\":2568:2584  product.quantity */\n      0x20\n      add\n      mload\n        /* \"Project/TechnoLime.sol\":2568:2588  product.quantity < 1 */\n      lt\n        /* \"Project/TechnoLime.sol\":2539:2588  msg.value < product.price || product.quantity < 1 */\n    tag_98:\n        /* \"Project/TechnoLime.sol\":2536:2724  if(msg.value < product.price || product.quantity < 1)\r... */\n      iszero\n      tag_99\n      jumpi\n        /* \"Project/TechnoLime.sol\":2690:2724  Errors.LessThanPriceOrOutOfStock() */\n      mload(0x40)\n      0xf80236cc00000000000000000000000000000000000000000000000000000000\n      dup2\n      mstore\n      0x04\n      add\n      mload(0x40)\n      dup1\n      swap2\n      sub\n      swap1\n      revert\n        /* \"Project/TechnoLime.sol\":2536:2724  if(msg.value < product.price || product.quantity < 1)\r... */\n    tag_99:\n        /* \"Project/TechnoLime.sol\":2745:2778  Transaction memory newTransaction */\n      tag_100\n      tag_101\n      jump\t// in\n    tag_100:\n        /* \"Project/TechnoLime.sol\":2823:2835  block.number */\n      number\n        /* \"Project/TechnoLime.sol\":2797:2811  newTransaction */\n      dup2\n        /* \"Project/TechnoLime.sol\":2797:2820  newTransaction.blockNum */\n      0x00\n      add\n        /* \"Project/TechnoLime.sol\":2797:2835  newTransaction.blockNum = block.number */\n      dup2\n      dup2\n      mstore\n      pop\n      pop\n        /* \"Project/TechnoLime.sol\":2877:2884  product */\n      dup2\n        /* \"Project/TechnoLime.sol\":2877:2890  product.price */\n      0x00\n      add\n      mload\n        /* \"Project/TechnoLime.sol\":2854:2868  newTransaction */\n      dup2\n        /* \"Project/TechnoLime.sol\":2854:2874  newTransaction.price */\n      0x20\n      add\n        /* \"Project/TechnoLime.sol\":2854:2890  newTransaction.price = product.price */\n      dup2\n      dup2\n      mstore\n      pop\n      pop\n        /* \"Project/TechnoLime.sol\":2933:2937  true */\n      0x01\n        /* \"Project/TechnoLime.sol\":2909:2923  newTransaction */\n      dup2\n        /* \"Project/TechnoLime.sol\":2909:2930  newTransaction.exists */\n      0x40\n      add\n        /* \"Project/TechnoLime.sol\":2909:2937  newTransaction.exists = true */\n      swap1\n      iszero\n      iszero\n      swap1\n      dup2\n      iszero\n      iszero\n      dup2\n      mstore\n      pop\n      pop\n        /* \"Project/TechnoLime.sol\":3030:3044  newTransaction */\n      dup1\n        /* \"Project/TechnoLime.sol\":2992:3004  transactions */\n      0x03\n        /* \"Project/TechnoLime.sol\":2992:3015  transactions[ProductId] */\n      0x00\n        /* \"Project/TechnoLime.sol\":3005:3014  ProductId */\n      dup6\n        /* \"Project/TechnoLime.sol\":2992:3015  transactions[ProductId] */\n      dup2\n      mstore\n      0x20\n      add\n      swap1\n      dup2\n      mstore\n      0x20\n      add\n      0x00\n      keccak256\n        /* \"Project/TechnoLime.sol\":2992:3027  transactions[ProductId][msg.sender] */\n      0x00\n        /* \"Project/TechnoLime.sol\":3016:3026  msg.sender */\n      caller\n        /* \"Project/TechnoLime.sol\":2992:3027  transactions[ProductId][msg.sender] */\n      0xffffffffffffffffffffffffffffffffffffffff\n      and\n      0xffffffffffffffffffffffffffffffffffffffff\n      and\n      dup2\n      mstore\n      0x20\n      add\n      swap1\n      dup2\n      mstore\n      0x20\n      add\n      0x00\n      keccak256\n        /* \"Project/TechnoLime.sol\":2992:3044  transactions[ProductId][msg.sender] = newTransaction */\n      0x00\n      dup3\n      add\n      mload\n      dup2\n      0x00\n      add\n      sstore\n      0x20\n      dup3\n      add\n      mload\n      dup2\n      0x01\n      add\n      sstore\n      0x40\n      dup3\n      add\n      mload\n      dup2\n      0x02\n      add\n      exp(0x0100, 0x00)\n      dup2\n      sload\n      dup2\n      0xff\n      mul\n      not\n      and\n      swap1\n      dup4\n      iszero\n      iszero\n      mul\n      or\n      swap1\n      sstore\n      pop\n      swap1\n      pop\n      pop\n        /* \"Project/TechnoLime.sol\":3065:3072  product */\n      dup2\n        /* \"Project/TechnoLime.sol\":3065:3081  product.quantity */\n      0x20\n      add\n        /* \"Project/TechnoLime.sol\":3065:3083  product.quantity-- */\n      dup1\n      mload\n      dup1\n      swap2\n      swap1\n      tag_102\n      swap1\n      tag_103\n      jump\t// in\n    tag_102:\n      dup2\n      mstore\n      pop\n      pop\n        /* \"Project/TechnoLime.sol\":3177:3184  product */\n      dup2\n        /* \"Project/TechnoLime.sol\":3138:3146  products */\n      0x02\n        /* \"Project/TechnoLime.sol\":3147:3164  availableProducts */\n      0x00\n        /* \"Project/TechnoLime.sol\":3165:3174  ProductId */\n      dup6\n        /* \"Project/TechnoLime.sol\":3147:3175  availableProducts[ProductId] */\n      dup2\n      sload\n      dup2\n      lt\n      tag_104\n      jumpi\n      tag_105\n      tag_87\n      jump\t// in\n    tag_105:\n    tag_104:\n      swap1\n      0x00\n      mstore\n      keccak256(0x00, 0x20)\n      add\n        /* \"Project/TechnoLime.sol\":3138:3176  products[availableProducts[ProductId]] */\n      mload(0x40)\n      tag_107\n      swap2\n      swap1\n      tag_90\n      jump\t// in\n    tag_107:\n      swap1\n      dup2\n      mstore\n      0x20\n      add\n      mload(0x40)\n      dup1\n      swap2\n      sub\n      swap1\n      keccak256\n        /* \"Project/TechnoLime.sol\":3138:3184  products[availableProducts[ProductId]]=product */\n      0x00\n      dup3\n      add\n      mload\n      dup2\n      0x00\n      add\n      sstore\n      0x20\n      dup3\n      add\n      mload\n      dup2\n      0x01\n      add\n      sstore\n      0x40\n      dup3\n      add\n      mload\n      dup2\n      0x02\n      add\n      exp(0x0100, 0x00)\n      dup2\n      sload\n      dup2\n      0xff\n      mul\n      not\n      and\n      swap1\n      dup4\n      iszero\n      iszero\n      mul\n      or\n      swap1\n      sstore\n      pop\n      swap1\n      pop\n      pop\n        /* \"Project/TechnoLime.sol\":3233:3239  buyers */\n      0x04\n        /* \"Project/TechnoLime.sol\":3233:3250  buyers[ProductId] */\n      0x00\n        /* \"Project/TechnoLime.sol\":3240:3249  ProductId */\n      dup5\n        /* \"Project/TechnoLime.sol\":3233:3250  buyers[ProductId] */\n      dup2\n      mstore\n      0x20\n      add\n      swap1\n      dup2\n      mstore\n      0x20\n      add\n      0x00\n      keccak256\n        /* \"Project/TechnoLime.sol\":3256:3266  msg.sender */\n      caller\n        /* \"Project/TechnoLime.sol\":3233:3267  buyers[ProductId].push(msg.sender) */\n      swap1\n      dup1\n      0x01\n      dup2\n      sload\n      add\n      dup1\n      dup3\n      sstore\n      dup1\n      swap2\n      pop\n      pop\n      0x01\n      swap1\n      sub\n      swap1\n      0x00\n      mstore\n      keccak256(0x00, 0x20)\n      add\n      0x00\n      swap1\n      swap2\n      swap1\n      swap2\n      swap1\n      swap2\n      0x0100\n      exp\n      dup2\n      sload\n      dup2\n      0xffffffffffffffffffffffffffffffffffffffff\n      mul\n      not\n      and\n      swap1\n      dup4\n      0xffffffffffffffffffffffffffffffffffffffff\n      and\n      mul\n      or\n      swap1\n      sstore\n      pop\n        /* \"Project/TechnoLime.sol\":2294:3285  {\r... */\n      pop\n      pop\n        /* \"Project/TechnoLime.sol\":2207:3434  if(ProductId < availableProducts.length && !transactions[ProductId][msg.sender].exists){\r... */\n      jump(tag_109)\n    tag_93:\n        /* \"Project/TechnoLime.sol\":3383:3418  Errors.ItemIdWrongOrBoughtAlready() */\n      mload(0x40)\n      0xd42c9b8b00000000000000000000000000000000000000000000000000000000\n      dup2\n      mstore\n      0x04\n      add\n      mload(0x40)\n      dup1\n      swap2\n      sub\n      swap1\n      revert\n        /* \"Project/TechnoLime.sol\":2207:3434  if(ProductId < availableProducts.length && !transactions[ProductId][msg.sender].exists){\r... */\n    tag_109:\n        /* \"Project/TechnoLime.sol\":2030:3462  function buyProduct (uint ProductId)  external payable { \r... */\n      pop\n      jump\t// out\n        /* \"Project/TechnoLime.sol\":390:423  string[] public availableProducts */\n    tag_55:\n      0x00\n      dup2\n      dup2\n      sload\n      dup2\n      lt\n      tag_110\n      jumpi\n      0x00\n      dup1\n      revert\n    tag_110:\n      swap1\n      0x00\n      mstore\n      keccak256(0x00, 0x20)\n      add\n      0x00\n      swap2\n      pop\n      swap1\n      pop\n      dup1\n      sload\n      tag_112\n      swap1\n      tag_113\n      jump\t// in\n    tag_112:\n      dup1\n      0x1f\n      add\n      0x20\n      dup1\n      swap2\n      div\n      mul\n      0x20\n      add\n      mload(0x40)\n      swap1\n      dup2\n      add\n      0x40\n      mstore\n      dup1\n      swap3\n      swap2\n      swap1\n      dup2\n      dup2\n      mstore\n      0x20\n      add\n      dup3\n      dup1\n      sload\n      tag_114\n      swap1\n      tag_113\n      jump\t// in\n    tag_114:\n      dup1\n      iszero\n      tag_115\n      jumpi\n      dup1\n      0x1f\n      lt\n      tag_116\n      jumpi\n      0x0100\n      dup1\n      dup4\n      sload\n      div\n      mul\n      dup4\n      mstore\n      swap2\n      0x20\n      add\n      swap2\n      jump(tag_115)\n    tag_116:\n      dup3\n      add\n      swap2\n      swap1\n      0x00\n      mstore\n      keccak256(0x00, 0x20)\n      swap1\n    tag_117:\n      dup2\n      sload\n      dup2\n      mstore\n      swap1\n      0x01\n      add\n      swap1\n      0x20\n      add\n      dup1\n      dup4\n      gt\n      tag_117\n      jumpi\n      dup3\n      swap1\n      sub\n      0x1f\n      and\n      dup3\n      add\n      swap2\n    tag_115:\n      pop\n      pop\n      pop\n      pop\n      pop\n      dup2\n      jump\t// out\n        /* \"Project/TechnoLime.sol\":430:472  mapping(uint => Product) public productsID */\n    tag_61:\n      mstore(0x20, 0x01)\n      dup1\n      0x00\n      mstore\n      keccak256(0x00, 0x40)\n      0x00\n      swap2\n      pop\n      swap1\n      pop\n      dup1\n      0x00\n      add\n      sload\n      swap1\n      dup1\n      0x01\n      add\n      sload\n      swap1\n      dup1\n      0x02\n      add\n      0x00\n      swap1\n      sload\n      swap1\n      0x0100\n      exp\n      swap1\n      div\n      0xff\n      and\n      swap1\n      pop\n      dup4\n      jump\t// out\n    tag_68:\n      mload(0x40)\n      dup1\n      0x60\n      add\n      0x40\n      mstore\n      dup1\n      0x00\n      dup2\n      mstore\n      0x20\n      add\n      0x00\n      dup2\n      mstore\n      0x20\n      add\n      iszero(iszero(0x00))\n      dup2\n      mstore\n      pop\n      swap1\n      jump\t// out\n    tag_72:\n      dup3\n      dup1\n      sload\n      tag_118\n      swap1\n      tag_113\n      jump\t// in\n    tag_118:\n      swap1\n      0x00\n      mstore\n      keccak256(0x00, 0x20)\n      swap1\n      0x1f\n      add\n      0x20\n      swap1\n      div\n      dup2\n      add\n      swap3\n      dup3\n      tag_120\n      jumpi\n      0x00\n      dup6\n      sstore\n      jump(tag_119)\n    tag_120:\n      dup3\n      0x1f\n      lt\n      tag_121\n      jumpi\n      dup1\n      calldataload\n      not(0xff)\n      and\n      dup4\n      dup1\n      add\n      or\n      dup6\n      sstore\n      jump(tag_119)\n    tag_121:\n      dup3\n      dup1\n      add\n      0x01\n      add\n      dup6\n      sstore\n      dup3\n      iszero\n      tag_119\n      jumpi\n      swap2\n      dup3\n      add\n    tag_122:\n      dup3\n      dup2\n      gt\n      iszero\n      tag_123\n      jumpi\n      dup3\n      calldataload\n      dup3\n      sstore\n      swap2\n      0x20\n      add\n      swap2\n      swap1\n      0x01\n      add\n      swap1\n      jump(tag_122)\n    tag_123:\n    tag_119:\n      pop\n      swap1\n      pop\n      tag_124\n      swap2\n      swap1\n      tag_125\n      jump\t// in\n    tag_124:\n      pop\n      swap1\n      jump\t// out\n    tag_101:\n      mload(0x40)\n      dup1\n      0x60\n      add\n      0x40\n      mstore\n      dup1\n      0x00\n      dup2\n      mstore\n      0x20\n      add\n      0x00\n      dup2\n      mstore\n      0x20\n      add\n      iszero(iszero(0x00))\n      dup2\n      mstore\n      pop\n      swap1\n      jump\t// out\n    tag_125:\n    tag_126:\n      dup1\n      dup3\n      gt\n      iszero\n      tag_127\n      jumpi\n      0x00\n      dup2\n      0x00\n      swap1\n      sstore\n      pop\n      0x01\n      add\n      jump(tag_126)\n    tag_127:\n      pop\n      swap1\n      jump\t// out\n        /* \"#utility.yul\":7:419   */\n    tag_129:\n        /* \"#utility.yul\":85:90   */\n      0x00\n        /* \"#utility.yul\":110:176   */\n      tag_131\n        /* \"#utility.yul\":126:175   */\n      tag_132\n        /* \"#utility.yul\":168:174   */\n      dup5\n        /* \"#utility.yul\":126:175   */\n      tag_133\n      jump\t// in\n    tag_132:\n        /* \"#utility.yul\":110:176   */\n      tag_134\n      jump\t// in\n    tag_131:\n        /* \"#utility.yul\":101:176   */\n      swap1\n      pop\n        /* \"#utility.yul\":199:205   */\n      dup3\n        /* \"#utility.yul\":192:197   */\n      dup2\n        /* \"#utility.yul\":185:206   */\n      mstore\n        /* \"#utility.yul\":237:241   */\n      0x20\n        /* \"#utility.yul\":230:235   */\n      dup2\n        /* \"#utility.yul\":226:242   */\n      add\n        /* \"#utility.yul\":275:278   */\n      dup5\n        /* \"#utility.yul\":266:272   */\n      dup5\n        /* \"#utility.yul\":261:264   */\n      dup5\n        /* \"#utility.yul\":257:273   */\n      add\n        /* \"#utility.yul\":254:279   */\n      gt\n        /* \"#utility.yul\":251:363   */\n      iszero\n      tag_135\n      jumpi\n        /* \"#utility.yul\":282:361   */\n      tag_136\n      tag_137\n      jump\t// in\n    tag_136:\n        /* \"#utility.yul\":251:363   */\n    tag_135:\n        /* \"#utility.yul\":372:413   */\n      tag_138\n        /* \"#utility.yul\":406:412   */\n      dup5\n        /* \"#utility.yul\":401:404   */\n      dup3\n        /* \"#utility.yul\":396:399   */\n      dup6\n        /* \"#utility.yul\":372:413   */\n      tag_139\n      jump\t// in\n    tag_138:\n        /* \"#utility.yul\":91:419   */\n      pop\n        /* \"#utility.yul\":7:419   */\n      swap4\n      swap3\n      pop\n      pop\n      pop\n      jump\t// out\n        /* \"#utility.yul\":425:564   */\n    tag_140:\n        /* \"#utility.yul\":471:476   */\n      0x00\n        /* \"#utility.yul\":509:515   */\n      dup2\n        /* \"#utility.yul\":496:516   */\n      calldataload\n        /* \"#utility.yul\":487:516   */\n      swap1\n      pop\n        /* \"#utility.yul\":525:558   */\n      tag_142\n        /* \"#utility.yul\":552:557   */\n      dup2\n        /* \"#utility.yul\":525:558   */\n      tag_143\n      jump\t// in\n    tag_142:\n        /* \"#utility.yul\":425:564   */\n      swap3\n      swap2\n      pop\n      pop\n      jump\t// out\n        /* \"#utility.yul\":584:1137   */\n    tag_144:\n        /* \"#utility.yul\":642:650   */\n      0x00\n        /* \"#utility.yul\":652:658   */\n      dup1\n        /* \"#utility.yul\":702:705   */\n      dup4\n        /* \"#utility.yul\":695:699   */\n      0x1f\n        /* \"#utility.yul\":687:693   */\n      dup5\n        /* \"#utility.yul\":683:700   */\n      add\n        /* \"#utility.yul\":679:706   */\n      slt\n        /* \"#utility.yul\":669:791   */\n      tag_146\n      jumpi\n        /* \"#utility.yul\":710:789   */\n      tag_147\n      tag_148\n      jump\t// in\n    tag_147:\n        /* \"#utility.yul\":669:791   */\n    tag_146:\n        /* \"#utility.yul\":823:829   */\n      dup3\n        /* \"#utility.yul\":810:830   */\n      calldataload\n        /* \"#utility.yul\":800:830   */\n      swap1\n      pop\n        /* \"#utility.yul\":853:871   */\n      0xffffffffffffffff\n        /* \"#utility.yul\":845:851   */\n      dup2\n        /* \"#utility.yul\":842:872   */\n      gt\n        /* \"#utility.yul\":839:956   */\n      iszero\n      tag_149\n      jumpi\n        /* \"#utility.yul\":875:954   */\n      tag_150\n      tag_151\n      jump\t// in\n    tag_150:\n        /* \"#utility.yul\":839:956   */\n    tag_149:\n        /* \"#utility.yul\":989:993   */\n      0x20\n        /* \"#utility.yul\":981:987   */\n      dup4\n        /* \"#utility.yul\":977:994   */\n      add\n        /* \"#utility.yul\":965:994   */\n      swap2\n      pop\n        /* \"#utility.yul\":1043:1046   */\n      dup4\n        /* \"#utility.yul\":1035:1039   */\n      0x01\n        /* \"#utility.yul\":1027:1033   */\n      dup3\n        /* \"#utility.yul\":1023:1040   */\n      mul\n        /* \"#utility.yul\":1013:1021   */\n      dup4\n        /* \"#utility.yul\":1009:1041   */\n      add\n        /* \"#utility.yul\":1006:1047   */\n      gt\n        /* \"#utility.yul\":1003:1131   */\n      iszero\n      tag_152\n      jumpi\n        /* \"#utility.yul\":1050:1129   */\n      tag_153\n      tag_154\n      jump\t// in\n    tag_153:\n        /* \"#utility.yul\":1003:1131   */\n    tag_152:\n        /* \"#utility.yul\":584:1137   */\n      swap3\n      pop\n      swap3\n      swap1\n      pop\n      jump\t// out\n        /* \"#utility.yul\":1157:1497   */\n    tag_155:\n        /* \"#utility.yul\":1213:1218   */\n      0x00\n        /* \"#utility.yul\":1262:1265   */\n      dup3\n        /* \"#utility.yul\":1255:1259   */\n      0x1f\n        /* \"#utility.yul\":1247:1253   */\n      dup4\n        /* \"#utility.yul\":1243:1260   */\n      add\n        /* \"#utility.yul\":1239:1266   */\n      slt\n        /* \"#utility.yul\":1229:1351   */\n      tag_157\n      jumpi\n        /* \"#utility.yul\":1270:1349   */\n      tag_158\n      tag_148\n      jump\t// in\n    tag_158:\n        /* \"#utility.yul\":1229:1351   */\n    tag_157:\n        /* \"#utility.yul\":1387:1393   */\n      dup2\n        /* \"#utility.yul\":1374:1394   */\n      calldataload\n        /* \"#utility.yul\":1412:1491   */\n      tag_159\n        /* \"#utility.yul\":1487:1490   */\n      dup5\n        /* \"#utility.yul\":1479:1485   */\n      dup3\n        /* \"#utility.yul\":1472:1476   */\n      0x20\n        /* \"#utility.yul\":1464:1470   */\n      dup7\n        /* \"#utility.yul\":1460:1477   */\n      add\n        /* \"#utility.yul\":1412:1491   */\n      tag_129\n      jump\t// in\n    tag_159:\n        /* \"#utility.yul\":1403:1491   */\n      swap2\n      pop\n        /* \"#utility.yul\":1219:1497   */\n      pop\n        /* \"#utility.yul\":1157:1497   */\n      swap3\n      swap2\n      pop\n      pop\n      jump\t// out\n        /* \"#utility.yul\":1503:1642   */\n    tag_160:\n        /* \"#utility.yul\":1549:1554   */\n      0x00\n        /* \"#utility.yul\":1587:1593   */\n      dup2\n        /* \"#utility.yul\":1574:1594   */\n      calldataload\n        /* \"#utility.yul\":1565:1594   */\n      swap1\n      pop\n        /* \"#utility.yul\":1603:1636   */\n      tag_162\n        /* \"#utility.yul\":1630:1635   */\n      dup2\n        /* \"#utility.yul\":1603:1636   */\n      tag_163\n      jump\t// in\n    tag_162:\n        /* \"#utility.yul\":1503:1642   */\n      swap3\n      swap2\n      pop\n      pop\n      jump\t// out\n        /* \"#utility.yul\":1648:2322   */\n    tag_27:\n        /* \"#utility.yul\":1728:1734   */\n      0x00\n        /* \"#utility.yul\":1736:1742   */\n      dup1\n        /* \"#utility.yul\":1744:1750   */\n      0x00\n        /* \"#utility.yul\":1793:1795   */\n      0x40\n        /* \"#utility.yul\":1781:1790   */\n      dup5\n        /* \"#utility.yul\":1772:1779   */\n      dup7\n        /* \"#utility.yul\":1768:1791   */\n      sub\n        /* \"#utility.yul\":1764:1796   */\n      slt\n        /* \"#utility.yul\":1761:1880   */\n      iszero\n      tag_165\n      jumpi\n        /* \"#utility.yul\":1799:1878   */\n      tag_166\n      tag_167\n      jump\t// in\n    tag_166:\n        /* \"#utility.yul\":1761:1880   */\n    tag_165:\n        /* \"#utility.yul\":1947:1948   */\n      0x00\n        /* \"#utility.yul\":1936:1945   */\n      dup5\n        /* \"#utility.yul\":1932:1949   */\n      add\n        /* \"#utility.yul\":1919:1950   */\n      calldataload\n        /* \"#utility.yul\":1977:1995   */\n      0xffffffffffffffff\n        /* \"#utility.yul\":1969:1975   */\n      dup2\n        /* \"#utility.yul\":1966:1996   */\n      gt\n        /* \"#utility.yul\":1963:2080   */\n      iszero\n      tag_168\n      jumpi\n        /* \"#utility.yul\":1999:2078   */\n      tag_169\n      tag_170\n      jump\t// in\n    tag_169:\n        /* \"#utility.yul\":1963:2080   */\n    tag_168:\n        /* \"#utility.yul\":2112:2177   */\n      tag_171\n        /* \"#utility.yul\":2169:2176   */\n      dup7\n        /* \"#utility.yul\":2160:2166   */\n      dup3\n        /* \"#utility.yul\":2149:2158   */\n      dup8\n        /* \"#utility.yul\":2145:2167   */\n      add\n        /* \"#utility.yul\":2112:2177   */\n      tag_144\n      jump\t// in\n    tag_171:\n        /* \"#utility.yul\":2094:2177   */\n      swap4\n      pop\n      swap4\n      pop\n        /* \"#utility.yul\":1890:2187   */\n      pop\n        /* \"#utility.yul\":2226:2228   */\n      0x20\n        /* \"#utility.yul\":2252:2305   */\n      tag_172\n        /* \"#utility.yul\":2297:2304   */\n      dup7\n        /* \"#utility.yul\":2288:2294   */\n      dup3\n        /* \"#utility.yul\":2277:2286   */\n      dup8\n        /* \"#utility.yul\":2273:2295   */\n      add\n        /* \"#utility.yul\":2252:2305   */\n      tag_160\n      jump\t// in\n    tag_172:\n        /* \"#utility.yul\":2242:2305   */\n      swap2\n      pop\n        /* \"#utility.yul\":2197:2315   */\n      pop\n        /* \"#utility.yul\":1648:2322   */\n      swap3\n      pop\n      swap3\n      pop\n      swap3\n      jump\t// out\n        /* \"#utility.yul\":2328:3147   */\n    tag_22:\n        /* \"#utility.yul\":2417:2423   */\n      0x00\n        /* \"#utility.yul\":2425:2431   */\n      dup1\n        /* \"#utility.yul\":2433:2439   */\n      0x00\n        /* \"#utility.yul\":2441:2447   */\n      dup1\n        /* \"#utility.yul\":2490:2492   */\n      0x60\n        /* \"#utility.yul\":2478:2487   */\n      dup6\n        /* \"#utility.yul\":2469:2476   */\n      dup8\n        /* \"#utility.yul\":2465:2488   */\n      sub\n        /* \"#utility.yul\":2461:2493   */\n      slt\n        /* \"#utility.yul\":2458:2577   */\n      iszero\n      tag_174\n      jumpi\n        /* \"#utility.yul\":2496:2575   */\n      tag_175\n      tag_167\n      jump\t// in\n    tag_175:\n        /* \"#utility.yul\":2458:2577   */\n    tag_174:\n        /* \"#utility.yul\":2644:2645   */\n      0x00\n        /* \"#utility.yul\":2633:2642   */\n      dup6\n        /* \"#utility.yul\":2629:2646   */\n      add\n        /* \"#utility.yul\":2616:2647   */\n      calldataload\n        /* \"#utility.yul\":2674:2692   */\n      0xffffffffffffffff\n        /* \"#utility.yul\":2666:2672   */\n      dup2\n        /* \"#utility.yul\":2663:2693   */\n      gt\n        /* \"#utility.yul\":2660:2777   */\n      iszero\n      tag_176\n      jumpi\n        /* \"#utility.yul\":2696:2775   */\n      tag_177\n      tag_170\n      jump\t// in\n    tag_177:\n        /* \"#utility.yul\":2660:2777   */\n    tag_176:\n        /* \"#utility.yul\":2809:2874   */\n      tag_178\n        /* \"#utility.yul\":2866:2873   */\n      dup8\n        /* \"#utility.yul\":2857:2863   */\n      dup3\n        /* \"#utility.yul\":2846:2855   */\n      dup9\n        /* \"#utility.yul\":2842:2864   */\n      add\n        /* \"#utility.yul\":2809:2874   */\n      tag_144\n      jump\t// in\n    tag_178:\n        /* \"#utility.yul\":2791:2874   */\n      swap5\n      pop\n      swap5\n      pop\n        /* \"#utility.yul\":2587:2884   */\n      pop\n        /* \"#utility.yul\":2923:2925   */\n      0x20\n        /* \"#utility.yul\":2949:3002   */\n      tag_179\n        /* \"#utility.yul\":2994:3001   */\n      dup8\n        /* \"#utility.yul\":2985:2991   */\n      dup3\n        /* \"#utility.yul\":2974:2983   */\n      dup9\n        /* \"#utility.yul\":2970:2992   */\n      add\n        /* \"#utility.yul\":2949:3002   */\n      tag_160\n      jump\t// in\n    tag_179:\n        /* \"#utility.yul\":2939:3002   */\n      swap3\n      pop\n        /* \"#utility.yul\":2894:3012   */\n      pop\n        /* \"#utility.yul\":3051:3053   */\n      0x40\n        /* \"#utility.yul\":3077:3130   */\n      tag_180\n        /* \"#utility.yul\":3122:3129   */\n      dup8\n        /* \"#utility.yul\":3113:3119   */\n      dup3\n        /* \"#utility.yul\":3102:3111   */\n      dup9\n        /* \"#utility.yul\":3098:3120   */\n      add\n        /* \"#utility.yul\":3077:3130   */\n      tag_160\n      jump\t// in\n    tag_180:\n        /* \"#utility.yul\":3067:3130   */\n      swap2\n      pop\n        /* \"#utility.yul\":3022:3140   */\n      pop\n        /* \"#utility.yul\":2328:3147   */\n      swap3\n      swap6\n      swap2\n      swap5\n      pop\n      swap3\n      pop\n      jump\t// out\n        /* \"#utility.yul\":3153:3662   */\n    tag_15:\n        /* \"#utility.yul\":3222:3228   */\n      0x00\n        /* \"#utility.yul\":3271:3273   */\n      0x20\n        /* \"#utility.yul\":3259:3268   */\n      dup3\n        /* \"#utility.yul\":3250:3257   */\n      dup5\n        /* \"#utility.yul\":3246:3269   */\n      sub\n        /* \"#utility.yul\":3242:3274   */\n      slt\n        /* \"#utility.yul\":3239:3358   */\n      iszero\n      tag_182\n      jumpi\n        /* \"#utility.yul\":3277:3356   */\n      tag_183\n      tag_167\n      jump\t// in\n    tag_183:\n        /* \"#utility.yul\":3239:3358   */\n    tag_182:\n        /* \"#utility.yul\":3425:3426   */\n      0x00\n        /* \"#utility.yul\":3414:3423   */\n      dup3\n        /* \"#utility.yul\":3410:3427   */\n      add\n        /* \"#utility.yul\":3397:3428   */\n      calldataload\n        /* \"#utility.yul\":3455:3473   */\n      0xffffffffffffffff\n        /* \"#utility.yul\":3447:3453   */\n      dup2\n        /* \"#utility.yul\":3444:3474   */\n      gt\n        /* \"#utility.yul\":3441:3558   */\n      iszero\n      tag_184\n      jumpi\n        /* \"#utility.yul\":3477:3556   */\n      tag_185\n      tag_170\n      jump\t// in\n    tag_185:\n        /* \"#utility.yul\":3441:3558   */\n    tag_184:\n        /* \"#utility.yul\":3582:3645   */\n      tag_186\n        /* \"#utility.yul\":3637:3644   */\n      dup5\n        /* \"#utility.yul\":3628:3634   */\n      dup3\n        /* \"#utility.yul\":3617:3626   */\n      dup6\n        /* \"#utility.yul\":3613:3635   */\n      add\n        /* \"#utility.yul\":3582:3645   */\n      tag_155\n      jump\t// in\n    tag_186:\n        /* \"#utility.yul\":3572:3645   */\n      swap2\n      pop\n        /* \"#utility.yul\":3368:3655   */\n      pop\n        /* \"#utility.yul\":3153:3662   */\n      swap3\n      swap2\n      pop\n      pop\n      jump\t// out\n        /* \"#utility.yul\":3668:3997   */\n    tag_39:\n        /* \"#utility.yul\":3727:3733   */\n      0x00\n        /* \"#utility.yul\":3776:3778   */\n      0x20\n        /* \"#utility.yul\":3764:3773   */\n      dup3\n        /* \"#utility.yul\":3755:3762   */\n      dup5\n        /* \"#utility.yul\":3751:3774   */\n      sub\n        /* \"#utility.yul\":3747:3779   */\n      slt\n        /* \"#utility.yul\":3744:3863   */\n      iszero\n      tag_188\n      jumpi\n        /* \"#utility.yul\":3782:3861   */\n      tag_189\n      tag_167\n      jump\t// in\n    tag_189:\n        /* \"#utility.yul\":3744:3863   */\n    tag_188:\n        /* \"#utility.yul\":3902:3903   */\n      0x00\n        /* \"#utility.yul\":3927:3980   */\n      tag_190\n        /* \"#utility.yul\":3972:3979   */\n      dup5\n        /* \"#utility.yul\":3963:3969   */\n      dup3\n        /* \"#utility.yul\":3952:3961   */\n      dup6\n        /* \"#utility.yul\":3948:3970   */\n      add\n        /* \"#utility.yul\":3927:3980   */\n      tag_160\n      jump\t// in\n    tag_190:\n        /* \"#utility.yul\":3917:3980   */\n      swap2\n      pop\n        /* \"#utility.yul\":3873:3990   */\n      pop\n        /* \"#utility.yul\":3668:3997   */\n      swap3\n      swap2\n      pop\n      pop\n      jump\t// out\n        /* \"#utility.yul\":4003:4477   */\n    tag_46:\n        /* \"#utility.yul\":4071:4077   */\n      0x00\n        /* \"#utility.yul\":4079:4085   */\n      dup1\n        /* \"#utility.yul\":4128:4130   */\n      0x40\n        /* \"#utility.yul\":4116:4125   */\n      dup4\n        /* \"#utility.yul\":4107:4114   */\n      dup6\n        /* \"#utility.yul\":4103:4126   */\n      sub\n        /* \"#utility.yul\":4099:4131   */\n      slt\n        /* \"#utility.yul\":4096:4215   */\n      iszero\n      tag_192\n      jumpi\n        /* \"#utility.yul\":4134:4213   */\n      tag_193\n      tag_167\n      jump\t// in\n    tag_193:\n        /* \"#utility.yul\":4096:4215   */\n    tag_192:\n        /* \"#utility.yul\":4254:4255   */\n      0x00\n        /* \"#utility.yul\":4279:4332   */\n      tag_194\n        /* \"#utility.yul\":4324:4331   */\n      dup6\n        /* \"#utility.yul\":4315:4321   */\n      dup3\n        /* \"#utility.yul\":4304:4313   */\n      dup7\n        /* \"#utility.yul\":4300:4322   */\n      add\n        /* \"#utility.yul\":4279:4332   */\n      tag_160\n      jump\t// in\n    tag_194:\n        /* \"#utility.yul\":4269:4332   */\n      swap3\n      pop\n        /* \"#utility.yul\":4225:4342   */\n      pop\n        /* \"#utility.yul\":4381:4383   */\n      0x20\n        /* \"#utility.yul\":4407:4460   */\n      tag_195\n        /* \"#utility.yul\":4452:4459   */\n      dup6\n        /* \"#utility.yul\":4443:4449   */\n      dup3\n        /* \"#utility.yul\":4432:4441   */\n      dup7\n        /* \"#utility.yul\":4428:4450   */\n      add\n        /* \"#utility.yul\":4407:4460   */\n      tag_140\n      jump\t// in\n    tag_195:\n        /* \"#utility.yul\":4397:4460   */\n      swap2\n      pop\n        /* \"#utility.yul\":4352:4470   */\n      pop\n        /* \"#utility.yul\":4003:4477   */\n      swap3\n      pop\n      swap3\n      swap1\n      pop\n      jump\t// out\n        /* \"#utility.yul\":4483:4957   */\n    tag_32:\n        /* \"#utility.yul\":4551:4557   */\n      0x00\n        /* \"#utility.yul\":4559:4565   */\n      dup1\n        /* \"#utility.yul\":4608:4610   */\n      0x40\n        /* \"#utility.yul\":4596:4605   */\n      dup4\n        /* \"#utility.yul\":4587:4594   */\n      dup6\n        /* \"#utility.yul\":4583:4606   */\n      sub\n        /* \"#utility.yul\":4579:4611   */\n      slt\n        /* \"#utility.yul\":4576:4695   */\n      iszero\n      tag_197\n      jumpi\n        /* \"#utility.yul\":4614:4693   */\n      tag_198\n      tag_167\n      jump\t// in\n    tag_198:\n        /* \"#utility.yul\":4576:4695   */\n    tag_197:\n        /* \"#utility.yul\":4734:4735   */\n      0x00\n        /* \"#utility.yul\":4759:4812   */\n      tag_199\n        /* \"#utility.yul\":4804:4811   */\n      dup6\n        /* \"#utility.yul\":4795:4801   */\n      dup3\n        /* \"#utility.yul\":4784:4793   */\n      dup7\n        /* \"#utility.yul\":4780:4802   */\n      add\n        /* \"#utility.yul\":4759:4812   */\n      tag_160\n      jump\t// in\n    tag_199:\n        /* \"#utility.yul\":4749:4812   */\n      swap3\n      pop\n        /* \"#utility.yul\":4705:4822   */\n      pop\n        /* \"#utility.yul\":4861:4863   */\n      0x20\n        /* \"#utility.yul\":4887:4940   */\n      tag_200\n        /* \"#utility.yul\":4932:4939   */\n      dup6\n        /* \"#utility.yul\":4923:4929   */\n      dup3\n        /* \"#utility.yul\":4912:4921   */\n      dup7\n        /* \"#utility.yul\":4908:4930   */\n      add\n        /* \"#utility.yul\":4887:4940   */\n      tag_160\n      jump\t// in\n    tag_200:\n        /* \"#utility.yul\":4877:4940   */\n      swap2\n      pop\n        /* \"#utility.yul\":4832:4950   */\n      pop\n        /* \"#utility.yul\":4483:4957   */\n      swap3\n      pop\n      swap3\n      swap1\n      pop\n      jump\t// out\n        /* \"#utility.yul\":4963:5081   */\n    tag_201:\n        /* \"#utility.yul\":5050:5074   */\n      tag_203\n        /* \"#utility.yul\":5068:5073   */\n      dup2\n        /* \"#utility.yul\":5050:5074   */\n      tag_204\n      jump\t// in\n    tag_203:\n        /* \"#utility.yul\":5045:5048   */\n      dup3\n        /* \"#utility.yul\":5038:5075   */\n      mstore\n        /* \"#utility.yul\":4963:5081   */\n      pop\n      pop\n      jump\t// out\n        /* \"#utility.yul\":5087:5186   */\n    tag_205:\n        /* \"#utility.yul\":5158:5179   */\n      tag_207\n        /* \"#utility.yul\":5173:5178   */\n      dup2\n        /* \"#utility.yul\":5158:5179   */\n      tag_208\n      jump\t// in\n    tag_207:\n        /* \"#utility.yul\":5153:5156   */\n      dup3\n        /* \"#utility.yul\":5146:5180   */\n      mstore\n        /* \"#utility.yul\":5087:5186   */\n      pop\n      pop\n      jump\t// out\n        /* \"#utility.yul\":5192:5301   */\n    tag_209:\n        /* \"#utility.yul\":5273:5294   */\n      tag_211\n        /* \"#utility.yul\":5288:5293   */\n      dup2\n        /* \"#utility.yul\":5273:5294   */\n      tag_208\n      jump\t// in\n    tag_211:\n        /* \"#utility.yul\":5268:5271   */\n      dup3\n        /* \"#utility.yul\":5261:5295   */\n      mstore\n        /* \"#utility.yul\":5192:5301   */\n      pop\n      pop\n      jump\t// out\n        /* \"#utility.yul\":5331:5648   */\n    tag_212:\n        /* \"#utility.yul\":5447:5450   */\n      0x00\n        /* \"#utility.yul\":5468:5557   */\n      tag_214\n        /* \"#utility.yul\":5550:5556   */\n      dup4\n        /* \"#utility.yul\":5545:5548   */\n      dup6\n        /* \"#utility.yul\":5468:5557   */\n      tag_215\n      jump\t// in\n    tag_214:\n        /* \"#utility.yul\":5461:5557   */\n      swap4\n      pop\n        /* \"#utility.yul\":5567:5610   */\n      tag_216\n        /* \"#utility.yul\":5603:5609   */\n      dup4\n        /* \"#utility.yul\":5598:5601   */\n      dup6\n        /* \"#utility.yul\":5591:5596   */\n      dup5\n        /* \"#utility.yul\":5567:5610   */\n      tag_139\n      jump\t// in\n    tag_216:\n        /* \"#utility.yul\":5635:5641   */\n      dup3\n        /* \"#utility.yul\":5630:5633   */\n      dup5\n        /* \"#utility.yul\":5626:5642   */\n      add\n        /* \"#utility.yul\":5619:5642   */\n      swap1\n      pop\n        /* \"#utility.yul\":5331:5648   */\n      swap4\n      swap3\n      pop\n      pop\n      pop\n      jump\t// out\n        /* \"#utility.yul\":5654:6018   */\n    tag_217:\n        /* \"#utility.yul\":5742:5745   */\n      0x00\n        /* \"#utility.yul\":5770:5809   */\n      tag_219\n        /* \"#utility.yul\":5803:5808   */\n      dup3\n        /* \"#utility.yul\":5770:5809   */\n      tag_220\n      jump\t// in\n    tag_219:\n        /* \"#utility.yul\":5825:5896   */\n      tag_221\n        /* \"#utility.yul\":5889:5895   */\n      dup2\n        /* \"#utility.yul\":5884:5887   */\n      dup6\n        /* \"#utility.yul\":5825:5896   */\n      tag_222\n      jump\t// in\n    tag_221:\n        /* \"#utility.yul\":5818:5896   */\n      swap4\n      pop\n        /* \"#utility.yul\":5905:5957   */\n      tag_223\n        /* \"#utility.yul\":5950:5956   */\n      dup2\n        /* \"#utility.yul\":5945:5948   */\n      dup6\n        /* \"#utility.yul\":5938:5942   */\n      0x20\n        /* \"#utility.yul\":5931:5936   */\n      dup7\n        /* \"#utility.yul\":5927:5943   */\n      add\n        /* \"#utility.yul\":5905:5957   */\n      tag_224\n      jump\t// in\n    tag_223:\n        /* \"#utility.yul\":5982:6011   */\n      tag_225\n        /* \"#utility.yul\":6004:6010   */\n      dup2\n        /* \"#utility.yul\":5982:6011   */\n      tag_226\n      jump\t// in\n    tag_225:\n        /* \"#utility.yul\":5977:5980   */\n      dup5\n        /* \"#utility.yul\":5973:6012   */\n      add\n        /* \"#utility.yul\":5966:6012   */\n      swap2\n      pop\n        /* \"#utility.yul\":5746:6018   */\n      pop\n        /* \"#utility.yul\":5654:6018   */\n      swap3\n      swap2\n      pop\n      pop\n      jump\t// out\n        /* \"#utility.yul\":6048:6893   */\n    tag_227:\n        /* \"#utility.yul\":6151:6154   */\n      0x00\n        /* \"#utility.yul\":6188:6193   */\n      dup2\n        /* \"#utility.yul\":6182:6194   */\n      sload\n        /* \"#utility.yul\":6217:6253   */\n      tag_229\n        /* \"#utility.yul\":6243:6252   */\n      dup2\n        /* \"#utility.yul\":6217:6253   */\n      tag_113\n      jump\t// in\n    tag_229:\n        /* \"#utility.yul\":6269:6358   */\n      tag_230\n        /* \"#utility.yul\":6351:6357   */\n      dup2\n        /* \"#utility.yul\":6346:6349   */\n      dup7\n        /* \"#utility.yul\":6269:6358   */\n      tag_215\n      jump\t// in\n    tag_230:\n        /* \"#utility.yul\":6262:6358   */\n      swap5\n      pop\n        /* \"#utility.yul\":6389:6390   */\n      0x01\n        /* \"#utility.yul\":6378:6387   */\n      dup3\n        /* \"#utility.yul\":6374:6391   */\n      and\n        /* \"#utility.yul\":6405:6406   */\n      0x00\n        /* \"#utility.yul\":6400:6537   */\n      dup2\n      eq\n      tag_232\n      jumpi\n        /* \"#utility.yul\":6551:6552   */\n      0x01\n        /* \"#utility.yul\":6546:6887   */\n      dup2\n      eq\n      tag_233\n      jumpi\n        /* \"#utility.yul\":6367:6887   */\n      jump(tag_231)\n        /* \"#utility.yul\":6400:6537   */\n    tag_232:\n        /* \"#utility.yul\":6484:6488   */\n      0xff\n        /* \"#utility.yul\":6480:6489   */\n      not\n        /* \"#utility.yul\":6469:6478   */\n      dup4\n        /* \"#utility.yul\":6465:6490   */\n      and\n        /* \"#utility.yul\":6460:6463   */\n      dup7\n        /* \"#utility.yul\":6453:6491   */\n      mstore\n        /* \"#utility.yul\":6520:6526   */\n      dup2\n        /* \"#utility.yul\":6515:6518   */\n      dup7\n        /* \"#utility.yul\":6511:6527   */\n      add\n        /* \"#utility.yul\":6504:6527   */\n      swap4\n      pop\n        /* \"#utility.yul\":6400:6537   */\n      jump(tag_231)\n        /* \"#utility.yul\":6546:6887   */\n    tag_233:\n        /* \"#utility.yul\":6613:6651   */\n      tag_234\n        /* \"#utility.yul\":6645:6650   */\n      dup6\n        /* \"#utility.yul\":6613:6651   */\n      tag_235\n      jump\t// in\n    tag_234:\n        /* \"#utility.yul\":6673:6674   */\n      0x00\n        /* \"#utility.yul\":6687:6841   */\n    tag_236:\n        /* \"#utility.yul\":6701:6707   */\n      dup4\n        /* \"#utility.yul\":6698:6699   */\n      dup2\n        /* \"#utility.yul\":6695:6708   */\n      lt\n        /* \"#utility.yul\":6687:6841   */\n      iszero\n      tag_238\n      jumpi\n        /* \"#utility.yul\":6775:6782   */\n      dup2\n        /* \"#utility.yul\":6769:6783   */\n      sload\n        /* \"#utility.yul\":6765:6766   */\n      dup2\n        /* \"#utility.yul\":6760:6763   */\n      dup10\n        /* \"#utility.yul\":6756:6767   */\n      add\n        /* \"#utility.yul\":6749:6784   */\n      mstore\n        /* \"#utility.yul\":6825:6826   */\n      0x01\n        /* \"#utility.yul\":6816:6823   */\n      dup3\n        /* \"#utility.yul\":6812:6827   */\n      add\n        /* \"#utility.yul\":6801:6827   */\n      swap2\n      pop\n        /* \"#utility.yul\":6723:6727   */\n      0x20\n        /* \"#utility.yul\":6720:6721   */\n      dup2\n        /* \"#utility.yul\":6716:6728   */\n      add\n        /* \"#utility.yul\":6711:6728   */\n      swap1\n      pop\n        /* \"#utility.yul\":6687:6841   */\n      jump(tag_236)\n    tag_238:\n        /* \"#utility.yul\":6870:6876   */\n      dup4\n        /* \"#utility.yul\":6865:6868   */\n      dup9\n        /* \"#utility.yul\":6861:6877   */\n      add\n        /* \"#utility.yul\":6854:6877   */\n      swap6\n      pop\n        /* \"#utility.yul\":6553:6887   */\n      pop\n      pop\n        /* \"#utility.yul\":6367:6887   */\n    tag_231:\n      pop\n        /* \"#utility.yul\":6155:6893   */\n      pop\n      pop\n        /* \"#utility.yul\":6048:6893   */\n      swap3\n      swap2\n      pop\n      pop\n      jump\t// out\n        /* \"#utility.yul\":6971:7649   */\n    tag_239:\n        /* \"#utility.yul\":7114:7118   */\n      0x60\n        /* \"#utility.yul\":7109:7112   */\n      dup3\n        /* \"#utility.yul\":7105:7119   */\n      add\n        /* \"#utility.yul\":7202:7206   */\n      0x00\n        /* \"#utility.yul\":7195:7200   */\n      dup3\n        /* \"#utility.yul\":7191:7207   */\n      add\n        /* \"#utility.yul\":7185:7208   */\n      mload\n        /* \"#utility.yul\":7221:7284   */\n      tag_241\n        /* \"#utility.yul\":7278:7282   */\n      0x00\n        /* \"#utility.yul\":7273:7276   */\n      dup6\n        /* \"#utility.yul\":7269:7283   */\n      add\n        /* \"#utility.yul\":7255:7267   */\n      dup3\n        /* \"#utility.yul\":7221:7284   */\n      tag_242\n      jump\t// in\n    tag_241:\n        /* \"#utility.yul\":7129:7294   */\n      pop\n        /* \"#utility.yul\":7380:7384   */\n      0x20\n        /* \"#utility.yul\":7373:7378   */\n      dup3\n        /* \"#utility.yul\":7369:7385   */\n      add\n        /* \"#utility.yul\":7363:7386   */\n      mload\n        /* \"#utility.yul\":7399:7462   */\n      tag_243\n        /* \"#utility.yul\":7456:7460   */\n      0x20\n        /* \"#utility.yul\":7451:7454   */\n      dup6\n        /* \"#utility.yul\":7447:7461   */\n      add\n        /* \"#utility.yul\":7433:7445   */\n      dup3\n        /* \"#utility.yul\":7399:7462   */\n      tag_242\n      jump\t// in\n    tag_243:\n        /* \"#utility.yul\":7304:7472   */\n      pop\n        /* \"#utility.yul\":7556:7560   */\n      0x40\n        /* \"#utility.yul\":7549:7554   */\n      dup3\n        /* \"#utility.yul\":7545:7561   */\n      add\n        /* \"#utility.yul\":7539:7562   */\n      mload\n        /* \"#utility.yul\":7575:7632   */\n      tag_244\n        /* \"#utility.yul\":7626:7630   */\n      0x40\n        /* \"#utility.yul\":7621:7624   */\n      dup6\n        /* \"#utility.yul\":7617:7631   */\n      add\n        /* \"#utility.yul\":7603:7615   */\n      dup3\n        /* \"#utility.yul\":7575:7632   */\n      tag_205\n      jump\t// in\n    tag_244:\n        /* \"#utility.yul\":7482:7642   */\n      pop\n        /* \"#utility.yul\":7083:7649   */\n      pop\n        /* \"#utility.yul\":6971:7649   */\n      pop\n      pop\n      jump\t// out\n        /* \"#utility.yul\":7655:7763   */\n    tag_242:\n        /* \"#utility.yul\":7732:7756   */\n      tag_246\n        /* \"#utility.yul\":7750:7755   */\n      dup2\n        /* \"#utility.yul\":7732:7756   */\n      tag_247\n      jump\t// in\n    tag_246:\n        /* \"#utility.yul\":7727:7730   */\n      dup3\n        /* \"#utility.yul\":7720:7757   */\n      mstore\n        /* \"#utility.yul\":7655:7763   */\n      pop\n      pop\n      jump\t// out\n        /* \"#utility.yul\":7769:7887   */\n    tag_248:\n        /* \"#utility.yul\":7856:7880   */\n      tag_250\n        /* \"#utility.yul\":7874:7879   */\n      dup2\n        /* \"#utility.yul\":7856:7880   */\n      tag_247\n      jump\t// in\n    tag_250:\n        /* \"#utility.yul\":7851:7854   */\n      dup3\n        /* \"#utility.yul\":7844:7881   */\n      mstore\n        /* \"#utility.yul\":7769:7887   */\n      pop\n      pop\n      jump\t// out\n        /* \"#utility.yul\":7893:8188   */\n    tag_65:\n        /* \"#utility.yul\":8035:8038   */\n      0x00\n        /* \"#utility.yul\":8057:8162   */\n      tag_252\n        /* \"#utility.yul\":8158:8161   */\n      dup3\n        /* \"#utility.yul\":8149:8155   */\n      dup5\n        /* \"#utility.yul\":8141:8147   */\n      dup7\n        /* \"#utility.yul\":8057:8162   */\n      tag_212\n      jump\t// in\n    tag_252:\n        /* \"#utility.yul\":8050:8162   */\n      swap2\n      pop\n        /* \"#utility.yul\":8179:8182   */\n      dup2\n        /* \"#utility.yul\":8172:8182   */\n      swap1\n      pop\n        /* \"#utility.yul\":7893:8188   */\n      swap4\n      swap3\n      pop\n      pop\n      pop\n      jump\t// out\n        /* \"#utility.yul\":8194:8463   */\n    tag_90:\n        /* \"#utility.yul\":8323:8326   */\n      0x00\n        /* \"#utility.yul\":8345:8437   */\n      tag_254\n        /* \"#utility.yul\":8433:8436   */\n      dup3\n        /* \"#utility.yul\":8424:8430   */\n      dup5\n        /* \"#utility.yul\":8345:8437   */\n      tag_227\n      jump\t// in\n    tag_254:\n        /* \"#utility.yul\":8338:8437   */\n      swap2\n      pop\n        /* \"#utility.yul\":8454:8457   */\n      dup2\n        /* \"#utility.yul\":8447:8457   */\n      swap1\n      pop\n        /* \"#utility.yul\":8194:8463   */\n      swap3\n      swap2\n      pop\n      pop\n      jump\t// out\n        /* \"#utility.yul\":8469:8691   */\n    tag_35:\n        /* \"#utility.yul\":8562:8566   */\n      0x00\n        /* \"#utility.yul\":8600:8602   */\n      0x20\n        /* \"#utility.yul\":8589:8598   */\n      dup3\n        /* \"#utility.yul\":8585:8603   */\n      add\n        /* \"#utility.yul\":8577:8603   */\n      swap1\n      pop\n        /* \"#utility.yul\":8613:8684   */\n      tag_256\n        /* \"#utility.yul\":8681:8682   */\n      0x00\n        /* \"#utility.yul\":8670:8679   */\n      dup4\n        /* \"#utility.yul\":8666:8683   */\n      add\n        /* \"#utility.yul\":8657:8663   */\n      dup5\n        /* \"#utility.yul\":8613:8684   */\n      tag_201\n      jump\t// in\n    tag_256:\n        /* \"#utility.yul\":8469:8691   */\n      swap3\n      swap2\n      pop\n      pop\n      jump\t// out\n        /* \"#utility.yul\":8697:9010   */\n    tag_57:\n        /* \"#utility.yul\":8810:8814   */\n      0x00\n        /* \"#utility.yul\":8848:8850   */\n      0x20\n        /* \"#utility.yul\":8837:8846   */\n      dup3\n        /* \"#utility.yul\":8833:8851   */\n      add\n        /* \"#utility.yul\":8825:8851   */\n      swap1\n      pop\n        /* \"#utility.yul\":8897:8906   */\n      dup2\n        /* \"#utility.yul\":8891:8895   */\n      dup2\n        /* \"#utility.yul\":8887:8907   */\n      sub\n        /* \"#utility.yul\":8883:8884   */\n      0x00\n        /* \"#utility.yul\":8872:8881   */\n      dup4\n        /* \"#utility.yul\":8868:8885   */\n      add\n        /* \"#utility.yul\":8861:8908   */\n      mstore\n        /* \"#utility.yul\":8925:9003   */\n      tag_258\n        /* \"#utility.yul\":8998:9002   */\n      dup2\n        /* \"#utility.yul\":8989:8995   */\n      dup5\n        /* \"#utility.yul\":8925:9003   */\n      tag_217\n      jump\t// in\n    tag_258:\n        /* \"#utility.yul\":8917:9003   */\n      swap1\n      pop\n        /* \"#utility.yul\":8697:9010   */\n      swap3\n      swap2\n      pop\n      pop\n      jump\t// out\n        /* \"#utility.yul\":9016:9330   */\n    tag_42:\n        /* \"#utility.yul\":9155:9159   */\n      0x00\n        /* \"#utility.yul\":9193:9195   */\n      0x60\n        /* \"#utility.yul\":9182:9191   */\n      dup3\n        /* \"#utility.yul\":9178:9196   */\n      add\n        /* \"#utility.yul\":9170:9196   */\n      swap1\n      pop\n        /* \"#utility.yul\":9206:9323   */\n      tag_260\n        /* \"#utility.yul\":9320:9321   */\n      0x00\n        /* \"#utility.yul\":9309:9318   */\n      dup4\n        /* \"#utility.yul\":9305:9322   */\n      add\n        /* \"#utility.yul\":9296:9302   */\n      dup5\n        /* \"#utility.yul\":9206:9323   */\n      tag_239\n      jump\t// in\n    tag_260:\n        /* \"#utility.yul\":9016:9330   */\n      swap3\n      swap2\n      pop\n      pop\n      jump\t// out\n        /* \"#utility.yul\":9336:9766   */\n    tag_18:\n        /* \"#utility.yul\":9479:9483   */\n      0x00\n        /* \"#utility.yul\":9517:9519   */\n      0x60\n        /* \"#utility.yul\":9506:9515   */\n      dup3\n        /* \"#utility.yul\":9502:9520   */\n      add\n        /* \"#utility.yul\":9494:9520   */\n      swap1\n      pop\n        /* \"#utility.yul\":9530:9601   */\n      tag_262\n        /* \"#utility.yul\":9598:9599   */\n      0x00\n        /* \"#utility.yul\":9587:9596   */\n      dup4\n        /* \"#utility.yul\":9583:9600   */\n      add\n        /* \"#utility.yul\":9574:9580   */\n      dup7\n        /* \"#utility.yul\":9530:9601   */\n      tag_248\n      jump\t// in\n    tag_262:\n        /* \"#utility.yul\":9611:9683   */\n      tag_263\n        /* \"#utility.yul\":9679:9681   */\n      0x20\n        /* \"#utility.yul\":9668:9677   */\n      dup4\n        /* \"#utility.yul\":9664:9682   */\n      add\n        /* \"#utility.yul\":9655:9661   */\n      dup6\n        /* \"#utility.yul\":9611:9683   */\n      tag_248\n      jump\t// in\n    tag_263:\n        /* \"#utility.yul\":9693:9759   */\n      tag_264\n        /* \"#utility.yul\":9755:9757   */\n      0x40\n        /* \"#utility.yul\":9744:9753   */\n      dup4\n        /* \"#utility.yul\":9740:9758   */\n      add\n        /* \"#utility.yul\":9731:9737   */\n      dup5\n        /* \"#utility.yul\":9693:9759   */\n      tag_209\n      jump\t// in\n    tag_264:\n        /* \"#utility.yul\":9336:9766   */\n      swap5\n      swap4\n      pop\n      pop\n      pop\n      pop\n      jump\t// out\n        /* \"#utility.yul\":9772:9901   */\n    tag_134:\n        /* \"#utility.yul\":9806:9812   */\n      0x00\n        /* \"#utility.yul\":9833:9853   */\n      tag_266\n      tag_267\n      jump\t// in\n    tag_266:\n        /* \"#utility.yul\":9823:9853   */\n      swap1\n      pop\n        /* \"#utility.yul\":9862:9895   */\n      tag_268\n        /* \"#utility.yul\":9890:9894   */\n      dup3\n        /* \"#utility.yul\":9882:9888   */\n      dup3\n        /* \"#utility.yul\":9862:9895   */\n      tag_269\n      jump\t// in\n    tag_268:\n        /* \"#utility.yul\":9772:9901   */\n      swap2\n      swap1\n      pop\n      jump\t// out\n        /* \"#utility.yul\":9907:9982   */\n    tag_267:\n        /* \"#utility.yul\":9940:9946   */\n      0x00\n        /* \"#utility.yul\":9973:9975   */\n      0x40\n        /* \"#utility.yul\":9967:9976   */\n      mload\n        /* \"#utility.yul\":9957:9976   */\n      swap1\n      pop\n        /* \"#utility.yul\":9907:9982   */\n      swap1\n      jump\t// out\n        /* \"#utility.yul\":9988:10296   */\n    tag_133:\n        /* \"#utility.yul\":10050:10054   */\n      0x00\n        /* \"#utility.yul\":10140:10158   */\n      0xffffffffffffffff\n        /* \"#utility.yul\":10132:10138   */\n      dup3\n        /* \"#utility.yul\":10129:10159   */\n      gt\n        /* \"#utility.yul\":10126:10182   */\n      iszero\n      tag_272\n      jumpi\n        /* \"#utility.yul\":10162:10180   */\n      tag_273\n      tag_274\n      jump\t// in\n    tag_273:\n        /* \"#utility.yul\":10126:10182   */\n    tag_272:\n        /* \"#utility.yul\":10200:10229   */\n      tag_275\n        /* \"#utility.yul\":10222:10228   */\n      dup3\n        /* \"#utility.yul\":10200:10229   */\n      tag_226\n      jump\t// in\n    tag_275:\n        /* \"#utility.yul\":10192:10229   */\n      swap1\n      pop\n        /* \"#utility.yul\":10284:10288   */\n      0x20\n        /* \"#utility.yul\":10278:10282   */\n      dup2\n        /* \"#utility.yul\":10274:10289   */\n      add\n        /* \"#utility.yul\":10266:10289   */\n      swap1\n      pop\n        /* \"#utility.yul\":9988:10296   */\n      swap2\n      swap1\n      pop\n      jump\t// out\n        /* \"#utility.yul\":10302:10443   */\n    tag_235:\n        /* \"#utility.yul\":10351:10355   */\n      0x00\n        /* \"#utility.yul\":10374:10377   */\n      dup2\n        /* \"#utility.yul\":10366:10377   */\n      swap1\n      pop\n        /* \"#utility.yul\":10397:10400   */\n      dup2\n        /* \"#utility.yul\":10394:10395   */\n      0x00\n        /* \"#utility.yul\":10387:10401   */\n      mstore\n        /* \"#utility.yul\":10431:10435   */\n      0x20\n        /* \"#utility.yul\":10428:10429   */\n      0x00\n        /* \"#utility.yul\":10418:10436   */\n      keccak256\n        /* \"#utility.yul\":10410:10436   */\n      swap1\n      pop\n        /* \"#utility.yul\":10302:10443   */\n      swap2\n      swap1\n      pop\n      jump\t// out\n        /* \"#utility.yul\":10449:10548   */\n    tag_220:\n        /* \"#utility.yul\":10501:10507   */\n      0x00\n        /* \"#utility.yul\":10535:10540   */\n      dup2\n        /* \"#utility.yul\":10529:10541   */\n      mload\n        /* \"#utility.yul\":10519:10541   */\n      swap1\n      pop\n        /* \"#utility.yul\":10449:10548   */\n      swap2\n      swap1\n      pop\n      jump\t// out\n        /* \"#utility.yul\":10554:10723   */\n    tag_222:\n        /* \"#utility.yul\":10638:10649   */\n      0x00\n        /* \"#utility.yul\":10672:10678   */\n      dup3\n        /* \"#utility.yul\":10667:10670   */\n      dup3\n        /* \"#utility.yul\":10660:10679   */\n      mstore\n        /* \"#utility.yul\":10712:10716   */\n      0x20\n        /* \"#utility.yul\":10707:10710   */\n      dup3\n        /* \"#utility.yul\":10703:10717   */\n      add\n        /* \"#utility.yul\":10688:10717   */\n      swap1\n      pop\n        /* \"#utility.yul\":10554:10723   */\n      swap3\n      swap2\n      pop\n      pop\n      jump\t// out\n        /* \"#utility.yul\":10729:10877   */\n    tag_215:\n        /* \"#utility.yul\":10831:10842   */\n      0x00\n        /* \"#utility.yul\":10868:10871   */\n      dup2\n        /* \"#utility.yul\":10853:10871   */\n      swap1\n      pop\n        /* \"#utility.yul\":10729:10877   */\n      swap3\n      swap2\n      pop\n      pop\n      jump\t// out\n        /* \"#utility.yul\":10883:11188   */\n    tag_79:\n        /* \"#utility.yul\":10923:10926   */\n      0x00\n        /* \"#utility.yul\":10942:10962   */\n      tag_281\n        /* \"#utility.yul\":10960:10961   */\n      dup3\n        /* \"#utility.yul\":10942:10962   */\n      tag_247\n      jump\t// in\n    tag_281:\n        /* \"#utility.yul\":10937:10962   */\n      swap2\n      pop\n        /* \"#utility.yul\":10976:10996   */\n      tag_282\n        /* \"#utility.yul\":10994:10995   */\n      dup4\n        /* \"#utility.yul\":10976:10996   */\n      tag_247\n      jump\t// in\n    tag_282:\n        /* \"#utility.yul\":10971:10996   */\n      swap3\n      pop\n        /* \"#utility.yul\":11130:11131   */\n      dup3\n        /* \"#utility.yul\":11062:11128   */\n      0xffffffffffffffffffffffffffffffffffffffffffffffffffffffffffffffff\n        /* \"#utility.yul\":11058:11132   */\n      sub\n        /* \"#utility.yul\":11055:11056   */\n      dup3\n        /* \"#utility.yul\":11052:11133   */\n      gt\n        /* \"#utility.yul\":11049:11156   */\n      iszero\n      tag_283\n      jumpi\n        /* \"#utility.yul\":11136:11154   */\n      tag_284\n      tag_285\n      jump\t// in\n    tag_284:\n        /* \"#utility.yul\":11049:11156   */\n    tag_283:\n        /* \"#utility.yul\":11180:11181   */\n      dup3\n        /* \"#utility.yul\":11177:11178   */\n      dup3\n        /* \"#utility.yul\":11173:11182   */\n      add\n        /* \"#utility.yul\":11166:11182   */\n      swap1\n      pop\n        /* \"#utility.yul\":10883:11188   */\n      swap3\n      swap2\n      pop\n      pop\n      jump\t// out\n        /* \"#utility.yul\":11194:11290   */\n    tag_204:\n        /* \"#utility.yul\":11231:11238   */\n      0x00\n        /* \"#utility.yul\":11260:11284   */\n      tag_287\n        /* \"#utility.yul\":11278:11283   */\n      dup3\n        /* \"#utility.yul\":11260:11284   */\n      tag_288\n      jump\t// in\n    tag_287:\n        /* \"#utility.yul\":11249:11284   */\n      swap1\n      pop\n        /* \"#utility.yul\":11194:11290   */\n      swap2\n      swap1\n      pop\n      jump\t// out\n        /* \"#utility.yul\":11296:11386   */\n    tag_208:\n        /* \"#utility.yul\":11330:11337   */\n      0x00\n        /* \"#utility.yul\":11373:11378   */\n      dup2\n        /* \"#utility.yul\":11366:11379   */\n      iszero\n        /* \"#utility.yul\":11359:11380   */\n      iszero\n        /* \"#utility.yul\":11348:11380   */\n      swap1\n      pop\n        /* \"#utility.yul\":11296:11386   */\n      swap2\n      swap1\n      pop\n      jump\t// out\n        /* \"#utility.yul\":11392:11518   */\n    tag_288:\n        /* \"#utility.yul\":11429:11436   */\n      0x00\n        /* \"#utility.yul\":11469:11511   */\n      0xffffffffffffffffffffffffffffffffffffffff\n        /* \"#utility.yul\":11462:11467   */\n      dup3\n        /* \"#utility.yul\":11458:11512   */\n      and\n        /* \"#utility.yul\":11447:11512   */\n      swap1\n      pop\n        /* \"#utility.yul\":11392:11518   */\n      swap2\n      swap1\n      pop\n      jump\t// out\n        /* \"#utility.yul\":11524:11601   */\n    tag_247:\n        /* \"#utility.yul\":11561:11568   */\n      0x00\n        /* \"#utility.yul\":11590:11595   */\n      dup2\n        /* \"#utility.yul\":11579:11595   */\n      swap1\n      pop\n        /* \"#utility.yul\":11524:11601   */\n      swap2\n      swap1\n      pop\n      jump\t// out\n        /* \"#utility.yul\":11607:11761   */\n    tag_139:\n        /* \"#utility.yul\":11691:11697   */\n      dup3\n        /* \"#utility.yul\":11686:11689   */\n      dup2\n        /* \"#utility.yul\":11681:11684   */\n      dup4\n        /* \"#utility.yul\":11668:11698   */\n      calldatacopy\n        /* \"#utility.yul\":11753:11754   */\n      0x00\n        /* \"#utility.yul\":11744:11750   */\n      dup4\n        /* \"#utility.yul\":11739:11742   */\n      dup4\n        /* \"#utility.yul\":11735:11751   */\n      add\n        /* \"#utility.yul\":11728:11755   */\n      mstore\n        /* \"#utility.yul\":11607:11761   */\n      pop\n      pop\n      pop\n      jump\t// out\n        /* \"#utility.yul\":11767:12074   */\n    tag_224:\n        /* \"#utility.yul\":11835:11836   */\n      0x00\n        /* \"#utility.yul\":11845:11958   */\n    tag_294:\n        /* \"#utility.yul\":11859:11865   */\n      dup4\n        /* \"#utility.yul\":11856:11857   */\n      dup2\n        /* \"#utility.yul\":11853:11866   */\n      lt\n        /* \"#utility.yul\":11845:11958   */\n      iszero\n      tag_296\n      jumpi\n        /* \"#utility.yul\":11944:11945   */\n      dup1\n        /* \"#utility.yul\":11939:11942   */\n      dup3\n        /* \"#utility.yul\":11935:11946   */\n      add\n        /* \"#utility.yul\":11929:11947   */\n      mload\n        /* \"#utility.yul\":11925:11926   */\n      dup2\n        /* \"#utility.yul\":11920:11923   */\n      dup5\n        /* \"#utility.yul\":11916:11927   */\n      add\n        /* \"#utility.yul\":11909:11948   */\n      mstore\n        /* \"#utility.yul\":11881:11883   */\n      0x20\n        /* \"#utility.yul\":11878:11879   */\n      dup2\n        /* \"#utility.yul\":11874:11884   */\n      add\n        /* \"#utility.yul\":11869:11884   */\n      swap1\n      pop\n        /* \"#utility.yul\":11845:11958   */\n      jump(tag_294)\n    tag_296:\n        /* \"#utility.yul\":11976:11982   */\n      dup4\n        /* \"#utility.yul\":11973:11974   */\n      dup2\n        /* \"#utility.yul\":11970:11983   */\n      gt\n        /* \"#utility.yul\":11967:12068   */\n      iszero\n      tag_297\n      jumpi\n        /* \"#utility.yul\":12056:12057   */\n      0x00\n        /* \"#utility.yul\":12047:12053   */\n      dup5\n        /* \"#utility.yul\":12042:12045   */\n      dup5\n        /* \"#utility.yul\":12038:12054   */\n      add\n        /* \"#utility.yul\":12031:12058   */\n      mstore\n        /* \"#utility.yul\":11967:12068   */\n    tag_297:\n        /* \"#utility.yul\":11816:12074   */\n      pop\n        /* \"#utility.yul\":11767:12074   */\n      pop\n      pop\n      pop\n      jump\t// out\n        /* \"#utility.yul\":12080:12251   */\n    tag_103:\n        /* \"#utility.yul\":12119:12122   */\n      0x00\n        /* \"#utility.yul\":12142:12166   */\n      tag_299\n        /* \"#utility.yul\":12160:12165   */\n      dup3\n        /* \"#utility.yul\":12142:12166   */\n      tag_247\n      jump\t// in\n    tag_299:\n        /* \"#utility.yul\":12133:12166   */\n      swap2\n      pop\n        /* \"#utility.yul\":12188:12192   */\n      0x00\n        /* \"#utility.yul\":12181:12186   */\n      dup3\n        /* \"#utility.yul\":12178:12193   */\n      eq\n        /* \"#utility.yul\":12175:12216   */\n      iszero\n      tag_300\n      jumpi\n        /* \"#utility.yul\":12196:12214   */\n      tag_301\n      tag_285\n      jump\t// in\n    tag_301:\n        /* \"#utility.yul\":12175:12216   */\n    tag_300:\n        /* \"#utility.yul\":12243:12244   */\n      0x01\n        /* \"#utility.yul\":12236:12241   */\n      dup3\n        /* \"#utility.yul\":12232:12245   */\n      sub\n        /* \"#utility.yul\":12225:12245   */\n      swap1\n      pop\n        /* \"#utility.yul\":12080:12251   */\n      swap2\n      swap1\n      pop\n      jump\t// out\n        /* \"#utility.yul\":12257:12577   */\n    tag_113:\n        /* \"#utility.yul\":12301:12307   */\n      0x00\n        /* \"#utility.yul\":12338:12339   */\n      0x02\n        /* \"#utility.yul\":12332:12336   */\n      dup3\n        /* \"#utility.yul\":12328:12340   */\n      div\n        /* \"#utility.yul\":12318:12340   */\n      swap1\n      pop\n        /* \"#utility.yul\":12385:12386   */\n      0x01\n        /* \"#utility.yul\":12379:12383   */\n      dup3\n        /* \"#utility.yul\":12375:12387   */\n      and\n        /* \"#utility.yul\":12406:12424   */\n      dup1\n        /* \"#utility.yul\":12396:12477   */\n      tag_303\n      jumpi\n        /* \"#utility.yul\":12462:12466   */\n      0x7f\n        /* \"#utility.yul\":12454:12460   */\n      dup3\n        /* \"#utility.yul\":12450:12467   */\n      and\n        /* \"#utility.yul\":12440:12467   */\n      swap2\n      pop\n        /* \"#utility.yul\":12396:12477   */\n    tag_303:\n        /* \"#utility.yul\":12524:12526   */\n      0x20\n        /* \"#utility.yul\":12516:12522   */\n      dup3\n        /* \"#utility.yul\":12513:12527   */\n      lt\n        /* \"#utility.yul\":12493:12511   */\n      dup2\n        /* \"#utility.yul\":12490:12528   */\n      eq\n        /* \"#utility.yul\":12487:12571   */\n      iszero\n      tag_304\n      jumpi\n        /* \"#utility.yul\":12543:12561   */\n      tag_305\n      tag_306\n      jump\t// in\n    tag_305:\n        /* \"#utility.yul\":12487:12571   */\n    tag_304:\n        /* \"#utility.yul\":12308:12577   */\n      pop\n        /* \"#utility.yul\":12257:12577   */\n      swap2\n      swap1\n      pop\n      jump\t// out\n        /* \"#utility.yul\":12583:12864   */\n    tag_269:\n        /* \"#utility.yul\":12666:12693   */\n      tag_308\n        /* \"#utility.yul\":12688:12692   */\n      dup3\n        /* \"#utility.yul\":12666:12693   */\n      tag_226\n      jump\t// in\n    tag_308:\n        /* \"#utility.yul\":12658:12664   */\n      dup2\n        /* \"#utility.yul\":12654:12694   */\n      add\n        /* \"#utility.yul\":12796:12802   */\n      dup2\n        /* \"#utility.yul\":12784:12794   */\n      dup2\n        /* \"#utility.yul\":12781:12803   */\n      lt\n        /* \"#utility.yul\":12760:12778   */\n      0xffffffffffffffff\n        /* \"#utility.yul\":12748:12758   */\n      dup3\n        /* \"#utility.yul\":12745:12779   */\n      gt\n        /* \"#utility.yul\":12742:12804   */\n      or\n        /* \"#utility.yul\":12739:12827   */\n      iszero\n      tag_309\n      jumpi\n        /* \"#utility.yul\":12807:12825   */\n      tag_310\n      tag_274\n      jump\t// in\n    tag_310:\n        /* \"#utility.yul\":12739:12827   */\n    tag_309:\n        /* \"#utility.yul\":12847:12857   */\n      dup1\n        /* \"#utility.yul\":12843:12845   */\n      0x40\n        /* \"#utility.yul\":12836:12858   */\n      mstore\n        /* \"#utility.yul\":12626:12864   */\n      pop\n        /* \"#utility.yul\":12583:12864   */\n      pop\n      pop\n      jump\t// out\n        /* \"#utility.yul\":12870:13050   */\n    tag_285:\n        /* \"#utility.yul\":12918:12995   */\n      0x4e487b7100000000000000000000000000000000000000000000000000000000\n        /* \"#utility.yul\":12915:12916   */\n      0x00\n        /* \"#utility.yul\":12908:12996   */\n      mstore\n        /* \"#utility.yul\":13015:13019   */\n      0x11\n        /* \"#utility.yul\":13012:13013   */\n      0x04\n        /* \"#utility.yul\":13005:13020   */\n      mstore\n        /* \"#utility.yul\":13039:13043   */\n      0x24\n        /* \"#utility.yul\":13036:13037   */\n      0x00\n        /* \"#utility.yul\":13029:13044   */\n      revert\n        /* \"#utility.yul\":13056:13236   */\n    tag_306:\n        /* \"#utility.yul\":13104:13181   */\n      0x4e487b7100000000000000000000000000000000000000000000000000000000\n        /* \"#utility.yul\":13101:13102   */\n      0x00\n        /* \"#utility.yul\":13094:13182   */\n      mstore\n        /* \"#utility.yul\":13201:13205   */\n      0x22\n        /* \"#utility.yul\":13198:13199   */\n      0x04\n        /* \"#utility.yul\":13191:13206   */\n      mstore\n        /* \"#utility.yul\":13225:13229   */\n      0x24\n        /* \"#utility.yul\":13222:13223   */\n      0x00\n        /* \"#utility.yul\":13215:13230   */\n      revert\n        /* \"#utility.yul\":13242:13422   */\n    tag_87:\n        /* \"#utility.yul\":13290:13367   */\n      0x4e487b7100000000000000000000000000000000000000000000000000000000\n        /* \"#utility.yul\":13287:13288   */\n      0x00\n        /* \"#utility.yul\":13280:13368   */\n      mstore\n        /* \"#utility.yul\":13387:13391   */\n      0x32\n        /* \"#utility.yul\":13384:13385   */\n      0x04\n        /* \"#utility.yul\":13377:13392   */\n      mstore\n        /* \"#utility.yul\":13411:13415   */\n      0x24\n        /* \"#utility.yul\":13408:13409   */\n      0x00\n        /* \"#utility.yul\":13401:13416   */\n      revert\n        /* \"#utility.yul\":13428:13608   */\n    tag_274:\n        /* \"#utility.yul\":13476:13553   */\n      0x4e487b7100000000000000000000000000000000000000000000000000000000\n        /* \"#utility.yul\":13473:13474   */\n      0x00\n        /* \"#utility.yul\":13466:13554   */\n      mstore\n        /* \"#utility.yul\":13573:13577   */\n      0x41\n        /* \"#utility.yul\":13570:13571   */\n      0x04\n        /* \"#utility.yul\":13563:13578   */\n      mstore\n        /* \"#utility.yul\":13597:13601   */\n      0x24\n        /* \"#utility.yul\":13594:13595   */\n      0x00\n        /* \"#utility.yul\":13587:13602   */\n      revert\n        /* \"#utility.yul\":13614:13731   */\n    tag_151:\n        /* \"#utility.yul\":13723:13724   */\n      0x00\n        /* \"#utility.yul\":13720:13721   */\n      dup1\n        /* \"#utility.yul\":13713:13725   */\n      revert\n        /* \"#utility.yul\":13737:13854   */\n    tag_148:\n        /* \"#utility.yul\":13846:13847   */\n      0x00\n        /* \"#utility.yul\":13843:13844   */\n      dup1\n        /* \"#utility.yul\":13836:13848   */\n      revert\n        /* \"#utility.yul\":13860:13977   */\n    tag_154:\n        /* \"#utility.yul\":13969:13970   */\n      0x00\n        /* \"#utility.yul\":13966:13967   */\n      dup1\n        /* \"#utility.yul\":13959:13971   */\n      revert\n        /* \"#utility.yul\":13983:14100   */\n    tag_137:\n        /* \"#utility.yul\":14092:14093   */\n      0x00\n        /* \"#utility.yul\":14089:14090   */\n      dup1\n        /* \"#utility.yul\":14082:14094   */\n      revert\n        /* \"#utility.yul\":14106:14223   */\n    tag_170:\n        /* \"#utility.yul\":14215:14216   */\n      0x00\n        /* \"#utility.yul\":14212:14213   */\n      dup1\n        /* \"#utility.yul\":14205:14217   */\n      revert\n        /* \"#utility.yul\":14229:14346   */\n    tag_167:\n        /* \"#utility.yul\":14338:14339   */\n      0x00\n        /* \"#utility.yul\":14335:14336   */\n      dup1\n        /* \"#utility.yul\":14328:14340   */\n      revert\n        /* \"#utility.yul\":14352:14454   */\n    tag_226:\n        /* \"#utility.yul\":14393:14399   */\n      0x00\n        /* \"#utility.yul\":14444:14446   */\n      0x1f\n        /* \"#utility.yul\":14440:14447   */\n      not\n        /* \"#utility.yul\":14435:14437   */\n      0x1f\n        /* \"#utility.yul\":14428:14433   */\n      dup4\n        /* \"#utility.yul\":14424:14438   */\n      add\n        /* \"#utility.yul\":14420:14448   */\n      and\n        /* \"#utility.yul\":14410:14448   */\n      swap1\n      pop\n        /* \"#utility.yul\":14352:14454   */\n      swap2\n      swap1\n      pop\n      jump\t// out\n        /* \"#utility.yul\":14460:14582   */\n    tag_143:\n        /* \"#utility.yul\":14533:14557   */\n      tag_323\n        /* \"#utility.yul\":14551:14556   */\n      dup2\n        /* \"#utility.yul\":14533:14557   */\n      tag_204\n      jump\t// in\n    tag_323:\n        /* \"#utility.yul\":14526:14531   */\n      dup2\n        /* \"#utility.yul\":14523:14558   */\n      eq\n        /* \"#utility.yul\":14513:14576   */\n      tag_324\n      jumpi\n        /* \"#utility.yul\":14572:14573   */\n      0x00\n        /* \"#utility.yul\":14569:14570   */\n      dup1\n        /* \"#utility.yul\":14562:14574   */\n      revert\n        /* \"#utility.yul\":14513:14576   */\n    tag_324:\n        /* \"#utility.yul\":14460:14582   */\n      pop\n      jump\t// out\n        /* \"#utility.yul\":14588:14710   */\n    tag_163:\n        /* \"#utility.yul\":14661:14685   */\n      tag_326\n        /* \"#utility.yul\":14679:14684   */\n      dup2\n        /* \"#utility.yul\":14661:14685   */\n      tag_247\n      jump\t// in\n    tag_326:\n        /* \"#utility.yul\":14654:14659   */\n      dup2\n        /* \"#utility.yul\":14651:14686   */\n      eq\n        /* \"#utility.yul\":14641:14704   */\n      tag_327\n      jumpi\n        /* \"#utility.yul\":14700:14701   */\n      0x00\n        /* \"#utility.yul\":14697:14698   */\n      dup1\n        /* \"#utility.yul\":14690:14702   */\n      revert\n        /* \"#utility.yul\":14641:14704   */\n    tag_327:\n        /* \"#utility.yul\":14588:14710   */\n      pop\n      jump\t// out\n\n    auxdata: 0xa2646970667358221220e80e4e601901972172b55a0c6ded7763822ce06c76145c0be643bec2ef0de27e64736f6c63430008070033\n}\n",
				"bytecode": {
					"linkReferences": {},
					"object": "60806040526112de806100136000396000f3fe6080604052600436106100865760003560e01c806329e99f071161005957806329e99f071461015957806374cbc350146101965780638642269e146101d5578063e4bcc7d4146101f1578063f8cfabb91461022e57610086565b80630186a4231461008b5780630a5bd44b146100ca5780631d894eb8146100f357806327e7875a1461011c575b600080fd5b34801561009757600080fd5b506100b260048036038101906100ad9190610c71565b61026d565b6040516100c193929190610f59565b60405180910390f35b3480156100d657600080fd5b506100f160048036038101906100ec9190610bfd565b6102ba565b005b3480156100ff57600080fd5b5061011a60048036038101906101159190610b9d565b6103f0565b005b34801561012857600080fd5b50610143600480360381019061013e9190610d27565b61049c565b6040516101509190610f01565b60405180910390f35b34801561016557600080fd5b50610180600480360381019061017b9190610cba565b6104ea565b60405161018d9190610f3e565b60405180910390f35b3480156101a257600080fd5b506101bd60048036038101906101b89190610ce7565b61056e565b6040516101cc93929190610f59565b60405180910390f35b6101ef60048036038101906101ea9190610cba565b6105b2565b005b3480156101fd57600080fd5b5061021860048036038101906102139190610cba565b6108e1565b6040516102259190610f1c565b60405180910390f35b34801561023a57600080fd5b5061025560048036038101906102509190610cba565b61098d565b60405161026493929190610f59565b60405180910390f35b6002818051602081018201805184825260208301602085012081835280955050505050506000915090508060000154908060010154908060020160009054906101000a900460ff16905083565b600284846040516102cc929190610ed1565b908152602001604051809103902060020160009054906101000a900460ff166103b8576102f76109c4565b82816000018181525050818160200181815250506001816040019015159081151581525050806002868660405161032f929190610ed1565b9081526020016040518091039020600082015181600001556020820151816001015560408201518160020160006101000a81548160ff02191690831515021790555090505060008585909180600181540180825580915050600190039060005260206000200160009091929091929091929091925091906103b19291906109e7565b50506103ea565b6040517fb185df3a00000000000000000000000000000000000000000000000000000000815260040160405180910390fd5b50505050565b60028383604051610402929190610ed1565b908152602001604051809103902060020160009054906101000a900460ff1615610465578060028484604051610439929190610ed1565b908152602001604051809103902060010160008282546104599190611022565b92505081905550610497565b6040517f7e8d96a900000000000000000000000000000000000000000000000000000000815260040160405180910390fd5b505050565b600460205281600052604060002081815481106104b857600080fd5b906000526020600020016000915091509054906101000a900473ffffffffffffffffffffffffffffffffffffffff1681565b6104f26109c4565b600260008381548110610508576105076111ed565b5b9060005260206000200160405161051f9190610eea565b908152602001604051809103902060405180606001604052908160008201548152602001600182015481526020016002820160009054906101000a900460ff1615151515815250509050919050565b6003602052816000526040600020602052806000526040600020600091509150508060000154908060010154908060020160009054906101000a900460ff16905083565b6000805490508110801561062457506003600082815260200190815260200160002060003373ffffffffffffffffffffffffffffffffffffffff1673ffffffffffffffffffffffffffffffffffffffff16815260200190815260200160002060020160009054906101000a900460ff16155b156108ac576000600260008381548110610641576106406111ed565b5b906000526020600020016040516106589190610eea565b908152602001604051809103902060405180606001604052908160008201548152602001600182015481526020016002820160009054906101000a900460ff161515151581525050905080600001513410806106b8575060018160200151105b156106ef576040517ff80236cc00000000000000000000000000000000000000000000000000000000815260040160405180910390fd5b6106f7610a6d565b4381600001818152505081600001518160200181815250506001816040019015159081151581525050806003600085815260200190815260200160002060003373ffffffffffffffffffffffffffffffffffffffff1673ffffffffffffffffffffffffffffffffffffffff168152602001908152602001600020600082015181600001556020820151816001015560408201518160020160006101000a81548160ff0219169083151502179055509050508160200180518091906107ba90611102565b81525050816002600085815481106107d5576107d46111ed565b5b906000526020600020016040516107ec9190610eea565b9081526020016040518091039020600082015181600001556020820151816001015560408201518160020160006101000a81548160ff02191690831515021790555090505060046000848152602001908152602001600020339080600181540180825580915050600190039060005260206000200160009091909190916101000a81548173ffffffffffffffffffffffffffffffffffffffff021916908373ffffffffffffffffffffffffffffffffffffffff16021790555050506108de565b6040517fd42c9b8b00000000000000000000000000000000000000000000000000000000815260040160405180910390fd5b50565b600081815481106108f157600080fd5b90600052602060002001600091509050805461090c9061112c565b80601f01602080910402602001604051908101604052809291908181526020018280546109389061112c565b80156109855780601f1061095a57610100808354040283529160200191610985565b820191906000526020600020905b81548152906001019060200180831161096857829003601f168201915b505050505081565b60016020528060005260406000206000915090508060000154908060010154908060020160009054906101000a900460ff16905083565b604051806060016040528060008152602001600081526020016000151581525090565b8280546109f39061112c565b90600052602060002090601f016020900481019282610a155760008555610a5c565b82601f10610a2e57803560ff1916838001178555610a5c565b82800160010185558215610a5c579182015b82811115610a5b578235825591602001919060010190610a40565b5b509050610a699190610a90565b5090565b604051806060016040528060008152602001600081526020016000151581525090565b5b80821115610aa9576000816000905550600101610a91565b5090565b6000610ac0610abb84610fb5565b610f90565b905082815260208101848484011115610adc57610adb61125a565b5b610ae78482856110c0565b509392505050565b600081359050610afe8161127a565b92915050565b60008083601f840112610b1a57610b19611250565b5b8235905067ffffffffffffffff811115610b3757610b3661124b565b5b602083019150836001820283011115610b5357610b52611255565b5b9250929050565b600082601f830112610b6f57610b6e611250565b5b8135610b7f848260208601610aad565b91505092915050565b600081359050610b9781611291565b92915050565b600080600060408486031215610bb657610bb5611264565b5b600084013567ffffffffffffffff811115610bd457610bd361125f565b5b610be086828701610b04565b93509350506020610bf386828701610b88565b9150509250925092565b60008060008060608587031215610c1757610c16611264565b5b600085013567ffffffffffffffff811115610c3557610c3461125f565b5b610c4187828801610b04565b94509450506020610c5487828801610b88565b9250506040610c6587828801610b88565b91505092959194509250565b600060208284031215610c8757610c86611264565b5b600082013567ffffffffffffffff811115610ca557610ca461125f565b5b610cb184828501610b5a565b91505092915050565b600060208284031215610cd057610ccf611264565b5b6000610cde84828501610b88565b91505092915050565b60008060408385031215610cfe57610cfd611264565b5b6000610d0c85828601610b88565b9250506020610d1d85828601610aef565b9150509250929050565b60008060408385031215610d3e57610d3d611264565b5b6000610d4c85828601610b88565b9250506020610d5d85828601610b88565b9150509250929050565b610d7081611078565b82525050565b610d7f8161108a565b82525050565b610d8e8161108a565b82525050565b6000610da08385611017565b9350610dad8385846110c0565b82840190509392505050565b6000610dc482610ffb565b610dce8185611006565b9350610dde8185602086016110cf565b610de781611269565b840191505092915050565b60008154610dff8161112c565b610e098186611017565b94506001821660008114610e245760018114610e3557610e68565b60ff19831686528186019350610e68565b610e3e85610fe6565b60005b83811015610e6057815481890152600182019150602081019050610e41565b838801955050505b50505092915050565b606082016000820151610e876000850182610eb3565b506020820151610e9a6020850182610eb3565b506040820151610ead6040850182610d76565b50505050565b610ebc816110b6565b82525050565b610ecb816110b6565b82525050565b6000610ede828486610d94565b91508190509392505050565b6000610ef68284610df2565b915081905092915050565b6000602082019050610f166000830184610d67565b92915050565b60006020820190508181036000830152610f368184610db9565b905092915050565b6000606082019050610f536000830184610e71565b92915050565b6000606082019050610f6e6000830186610ec2565b610f7b6020830185610ec2565b610f886040830184610d85565b949350505050565b6000610f9a610fab565b9050610fa6828261115e565b919050565b6000604051905090565b600067ffffffffffffffff821115610fd057610fcf61121c565b5b610fd982611269565b9050602081019050919050565b60008190508160005260206000209050919050565b600081519050919050565b600082825260208201905092915050565b600081905092915050565b600061102d826110b6565b9150611038836110b6565b9250827fffffffffffffffffffffffffffffffffffffffffffffffffffffffffffffffff0382111561106d5761106c61118f565b5b828201905092915050565b600061108382611096565b9050919050565b60008115159050919050565b600073ffffffffffffffffffffffffffffffffffffffff82169050919050565b6000819050919050565b82818337600083830152505050565b60005b838110156110ed5780820151818401526020810190506110d2565b838111156110fc576000848401525b50505050565b600061110d826110b6565b915060008214156111215761112061118f565b5b600182039050919050565b6000600282049050600182168061114457607f821691505b60208210811415611158576111576111be565b5b50919050565b61116782611269565b810181811067ffffffffffffffff821117156111865761118561121c565b5b80604052505050565b7f4e487b7100000000000000000000000000000000000000000000000000000000600052601160045260246000fd5b7f4e487b7100000000000000000000000000000000000000000000000000000000600052602260045260246000fd5b7f4e487b7100000000000000000000000000000000000000000000000000000000600052603260045260246000fd5b7f4e487b7100000000000000000000000000000000000000000000000000000000600052604160045260246000fd5b600080fd5b600080fd5b600080fd5b600080fd5b600080fd5b600080fd5b6000601f19601f8301169050919050565b61128381611078565b811461128e57600080fd5b50565b61129a816110b6565b81146112a557600080fd5b5056fea2646970667358221220e80e4e601901972172b55a0c6ded7763822ce06c76145c0be643bec2ef0de27e64736f6c63430008070033",
					"opcodes": "PUSH1 0x80 PUSH1 0x40 MSTORE PUSH2 0x12DE DUP1 PUSH2 0x13 PUSH1 0x0 CODECOPY PUSH1 0x0 RETURN INVALID PUSH1 0x80 PUSH1 0x40 MSTORE PUSH1 0x4 CALLDATASIZE LT PUSH2 0x86 JUMPI PUSH1 0x0 CALLDATALOAD PUSH1 0xE0 SHR DUP1 PUSH4 0x29E99F07 GT PUSH2 0x59 JUMPI DUP1 PUSH4 0x29E99F07 EQ PUSH2 0x159 JUMPI DUP1 PUSH4 0x74CBC350 EQ PUSH2 0x196 JUMPI DUP1 PUSH4 0x8642269E EQ PUSH2 0x1D5 JUMPI DUP1 PUSH4 0xE4BCC7D4 EQ PUSH2 0x1F1 JUMPI DUP1 PUSH4 0xF8CFABB9 EQ PUSH2 0x22E JUMPI PUSH2 0x86 JUMP JUMPDEST DUP1 PUSH4 0x186A423 EQ PUSH2 0x8B JUMPI DUP1 PUSH4 0xA5BD44B EQ PUSH2 0xCA JUMPI DUP1 PUSH4 0x1D894EB8 EQ PUSH2 0xF3 JUMPI DUP1 PUSH4 0x27E7875A EQ PUSH2 0x11C JUMPI JUMPDEST PUSH1 0x0 DUP1 REVERT JUMPDEST CALLVALUE DUP1 ISZERO PUSH2 0x97 JUMPI PUSH1 0x0 DUP1 REVERT JUMPDEST POP PUSH2 0xB2 PUSH1 0x4 DUP1 CALLDATASIZE SUB DUP2 ADD SWAP1 PUSH2 0xAD SWAP2 SWAP1 PUSH2 0xC71 JUMP JUMPDEST PUSH2 0x26D JUMP JUMPDEST PUSH1 0x40 MLOAD PUSH2 0xC1 SWAP4 SWAP3 SWAP2 SWAP1 PUSH2 0xF59 JUMP JUMPDEST PUSH1 0x40 MLOAD DUP1 SWAP2 SUB SWAP1 RETURN JUMPDEST CALLVALUE DUP1 ISZERO PUSH2 0xD6 JUMPI PUSH1 0x0 DUP1 REVERT JUMPDEST POP PUSH2 0xF1 PUSH1 0x4 DUP1 CALLDATASIZE SUB DUP2 ADD SWAP1 PUSH2 0xEC SWAP2 SWAP1 PUSH2 0xBFD JUMP JUMPDEST PUSH2 0x2BA JUMP JUMPDEST STOP JUMPDEST CALLVALUE DUP1 ISZERO PUSH2 0xFF JUMPI PUSH1 0x0 DUP1 REVERT JUMPDEST POP PUSH2 0x11A PUSH1 0x4 DUP1 CALLDATASIZE SUB DUP2 ADD SWAP1 PUSH2 0x115 SWAP2 SWAP1 PUSH2 0xB9D JUMP JUMPDEST PUSH2 0x3F0 JUMP JUMPDEST STOP JUMPDEST CALLVALUE DUP1 ISZERO PUSH2 0x128 JUMPI PUSH1 0x0 DUP1 REVERT JUMPDEST POP PUSH2 0x143 PUSH1 0x4 DUP1 CALLDATASIZE SUB DUP2 ADD SWAP1 PUSH2 0x13E SWAP2 SWAP1 PUSH2 0xD27 JUMP JUMPDEST PUSH2 0x49C JUMP JUMPDEST PUSH1 0x40 MLOAD PUSH2 0x150 SWAP2 SWAP1 PUSH2 0xF01 JUMP JUMPDEST PUSH1 0x40 MLOAD DUP1 SWAP2 SUB SWAP1 RETURN JUMPDEST CALLVALUE DUP1 ISZERO PUSH2 0x165 JUMPI PUSH1 0x0 DUP1 REVERT JUMPDEST POP PUSH2 0x180 PUSH1 0x4 DUP1 CALLDATASIZE SUB DUP2 ADD SWAP1 PUSH2 0x17B SWAP2 SWAP1 PUSH2 0xCBA JUMP JUMPDEST PUSH2 0x4EA JUMP JUMPDEST PUSH1 0x40 MLOAD PUSH2 0x18D SWAP2 SWAP1 PUSH2 0xF3E JUMP JUMPDEST PUSH1 0x40 MLOAD DUP1 SWAP2 SUB SWAP1 RETURN JUMPDEST CALLVALUE DUP1 ISZERO PUSH2 0x1A2 JUMPI PUSH1 0x0 DUP1 REVERT JUMPDEST POP PUSH2 0x1BD PUSH1 0x4 DUP1 CALLDATASIZE SUB DUP2 ADD SWAP1 PUSH2 0x1B8 SWAP2 SWAP1 PUSH2 0xCE7 JUMP JUMPDEST PUSH2 0x56E JUMP JUMPDEST PUSH1 0x40 MLOAD PUSH2 0x1CC SWAP4 SWAP3 SWAP2 SWAP1 PUSH2 0xF59 JUMP JUMPDEST PUSH1 0x40 MLOAD DUP1 SWAP2 SUB SWAP1 RETURN JUMPDEST PUSH2 0x1EF PUSH1 0x4 DUP1 CALLDATASIZE SUB DUP2 ADD SWAP1 PUSH2 0x1EA SWAP2 SWAP1 PUSH2 0xCBA JUMP JUMPDEST PUSH2 0x5B2 JUMP JUMPDEST STOP JUMPDEST CALLVALUE DUP1 ISZERO PUSH2 0x1FD JUMPI PUSH1 0x0 DUP1 REVERT JUMPDEST POP PUSH2 0x218 PUSH1 0x4 DUP1 CALLDATASIZE SUB DUP2 ADD SWAP1 PUSH2 0x213 SWAP2 SWAP1 PUSH2 0xCBA JUMP JUMPDEST PUSH2 0x8E1 JUMP JUMPDEST PUSH1 0x40 MLOAD PUSH2 0x225 SWAP2 SWAP1 PUSH2 0xF1C JUMP JUMPDEST PUSH1 0x40 MLOAD DUP1 SWAP2 SUB SWAP1 RETURN JUMPDEST CALLVALUE DUP1 ISZERO PUSH2 0x23A JUMPI PUSH1 0x0 DUP1 REVERT JUMPDEST POP PUSH2 0x255 PUSH1 0x4 DUP1 CALLDATASIZE SUB DUP2 ADD SWAP1 PUSH2 0x250 SWAP2 SWAP1 PUSH2 0xCBA JUMP JUMPDEST PUSH2 0x98D JUMP JUMPDEST PUSH1 0x40 MLOAD PUSH2 0x264 SWAP4 SWAP3 SWAP2 SWAP1 PUSH2 0xF59 JUMP JUMPDEST PUSH1 0x40 MLOAD DUP1 SWAP2 SUB SWAP1 RETURN JUMPDEST PUSH1 0x2 DUP2 DUP1 MLOAD PUSH1 0x20 DUP2 ADD DUP3 ADD DUP1 MLOAD DUP5 DUP3 MSTORE PUSH1 0x20 DUP4 ADD PUSH1 0x20 DUP6 ADD KECCAK256 DUP2 DUP4 MSTORE DUP1 SWAP6 POP POP POP POP POP POP PUSH1 0x0 SWAP2 POP SWAP1 POP DUP1 PUSH1 0x0 ADD SLOAD SWAP1 DUP1 PUSH1 0x1 ADD SLOAD SWAP1 DUP1 PUSH1 0x2 ADD PUSH1 0x0 SWAP1 SLOAD SWAP1 PUSH2 0x100 EXP SWAP1 DIV PUSH1 0xFF AND SWAP1 POP DUP4 JUMP JUMPDEST PUSH1 0x2 DUP5 DUP5 PUSH1 0x40 MLOAD PUSH2 0x2CC SWAP3 SWAP2 SWAP1 PUSH2 0xED1 JUMP JUMPDEST SWAP1 DUP2 MSTORE PUSH1 0x20 ADD PUSH1 0x40 MLOAD DUP1 SWAP2 SUB SWAP1 KECCAK256 PUSH1 0x2 ADD PUSH1 0x0 SWAP1 SLOAD SWAP1 PUSH2 0x100 EXP SWAP1 DIV PUSH1 0xFF AND PUSH2 0x3B8 JUMPI PUSH2 0x2F7 PUSH2 0x9C4 JUMP JUMPDEST DUP3 DUP2 PUSH1 0x0 ADD DUP2 DUP2 MSTORE POP POP DUP2 DUP2 PUSH1 0x20 ADD DUP2 DUP2 MSTORE POP POP PUSH1 0x1 DUP2 PUSH1 0x40 ADD SWAP1 ISZERO ISZERO SWAP1 DUP2 ISZERO ISZERO DUP2 MSTORE POP POP DUP1 PUSH1 0x2 DUP7 DUP7 PUSH1 0x40 MLOAD PUSH2 0x32F SWAP3 SWAP2 SWAP1 PUSH2 0xED1 JUMP JUMPDEST SWAP1 DUP2 MSTORE PUSH1 0x20 ADD PUSH1 0x40 MLOAD DUP1 SWAP2 SUB SWAP1 KECCAK256 PUSH1 0x0 DUP3 ADD MLOAD DUP2 PUSH1 0x0 ADD SSTORE PUSH1 0x20 DUP3 ADD MLOAD DUP2 PUSH1 0x1 ADD SSTORE PUSH1 0x40 DUP3 ADD MLOAD DUP2 PUSH1 0x2 ADD PUSH1 0x0 PUSH2 0x100 EXP DUP2 SLOAD DUP2 PUSH1 0xFF MUL NOT AND SWAP1 DUP4 ISZERO ISZERO MUL OR SWAP1 SSTORE POP SWAP1 POP POP PUSH1 0x0 DUP6 DUP6 SWAP1 SWAP2 DUP1 PUSH1 0x1 DUP2 SLOAD ADD DUP1 DUP3 SSTORE DUP1 SWAP2 POP POP PUSH1 0x1 SWAP1 SUB SWAP1 PUSH1 0x0 MSTORE PUSH1 0x20 PUSH1 0x0 KECCAK256 ADD PUSH1 0x0 SWAP1 SWAP2 SWAP3 SWAP1 SWAP2 SWAP3 SWAP1 SWAP2 SWAP3 SWAP1 SWAP2 SWAP3 POP SWAP2 SWAP1 PUSH2 0x3B1 SWAP3 SWAP2 SWAP1 PUSH2 0x9E7 JUMP JUMPDEST POP POP PUSH2 0x3EA JUMP JUMPDEST PUSH1 0x40 MLOAD PUSH32 0xB185DF3A00000000000000000000000000000000000000000000000000000000 DUP2 MSTORE PUSH1 0x4 ADD PUSH1 0x40 MLOAD DUP1 SWAP2 SUB SWAP1 REVERT JUMPDEST POP POP POP POP JUMP JUMPDEST PUSH1 0x2 DUP4 DUP4 PUSH1 0x40 MLOAD PUSH2 0x402 SWAP3 SWAP2 SWAP1 PUSH2 0xED1 JUMP JUMPDEST SWAP1 DUP2 MSTORE PUSH1 0x20 ADD PUSH1 0x40 MLOAD DUP1 SWAP2 SUB SWAP1 KECCAK256 PUSH1 0x2 ADD PUSH1 0x0 SWAP1 SLOAD SWAP1 PUSH2 0x100 EXP SWAP1 DIV PUSH1 0xFF AND ISZERO PUSH2 0x465 JUMPI DUP1 PUSH1 0x2 DUP5 DUP5 PUSH1 0x40 MLOAD PUSH2 0x439 SWAP3 SWAP2 SWAP1 PUSH2 0xED1 JUMP JUMPDEST SWAP1 DUP2 MSTORE PUSH1 0x20 ADD PUSH1 0x40 MLOAD DUP1 SWAP2 SUB SWAP1 KECCAK256 PUSH1 0x1 ADD PUSH1 0x0 DUP3 DUP3 SLOAD PUSH2 0x459 SWAP2 SWAP1 PUSH2 0x1022 JUMP JUMPDEST SWAP3 POP POP DUP2 SWAP1 SSTORE POP PUSH2 0x497 JUMP JUMPDEST PUSH1 0x40 MLOAD PUSH32 0x7E8D96A900000000000000000000000000000000000000000000000000000000 DUP2 MSTORE PUSH1 0x4 ADD PUSH1 0x40 MLOAD DUP1 SWAP2 SUB SWAP1 REVERT JUMPDEST POP POP POP JUMP JUMPDEST PUSH1 0x4 PUSH1 0x20 MSTORE DUP2 PUSH1 0x0 MSTORE PUSH1 0x40 PUSH1 0x0 KECCAK256 DUP2 DUP2 SLOAD DUP2 LT PUSH2 0x4B8 JUMPI PUSH1 0x0 DUP1 REVERT JUMPDEST SWAP1 PUSH1 0x0 MSTORE PUSH1 0x20 PUSH1 0x0 KECCAK256 ADD PUSH1 0x0 SWAP2 POP SWAP2 POP SWAP1 SLOAD SWAP1 PUSH2 0x100 EXP SWAP1 DIV PUSH20 0xFFFFFFFFFFFFFFFFFFFFFFFFFFFFFFFFFFFFFFFF AND DUP2 JUMP JUMPDEST PUSH2 0x4F2 PUSH2 0x9C4 JUMP JUMPDEST PUSH1 0x2 PUSH1 0x0 DUP4 DUP2 SLOAD DUP2 LT PUSH2 0x508 JUMPI PUSH2 0x507 PUSH2 0x11ED JUMP JUMPDEST JUMPDEST SWAP1 PUSH1 0x0 MSTORE PUSH1 0x20 PUSH1 0x0 KECCAK256 ADD PUSH1 0x40 MLOAD PUSH2 0x51F SWAP2 SWAP1 PUSH2 0xEEA JUMP JUMPDEST SWAP1 DUP2 MSTORE PUSH1 0x20 ADD PUSH1 0x40 MLOAD DUP1 SWAP2 SUB SWAP1 KECCAK256 PUSH1 0x40 MLOAD DUP1 PUSH1 0x60 ADD PUSH1 0x40 MSTORE SWAP1 DUP2 PUSH1 0x0 DUP3 ADD SLOAD DUP2 MSTORE PUSH1 0x20 ADD PUSH1 0x1 DUP3 ADD SLOAD DUP2 MSTORE PUSH1 0x20 ADD PUSH1 0x2 DUP3 ADD PUSH1 0x0 SWAP1 SLOAD SWAP1 PUSH2 0x100 EXP SWAP1 DIV PUSH1 0xFF AND ISZERO ISZERO ISZERO ISZERO DUP2 MSTORE POP POP SWAP1 POP SWAP2 SWAP1 POP JUMP JUMPDEST PUSH1 0x3 PUSH1 0x20 MSTORE DUP2 PUSH1 0x0 MSTORE PUSH1 0x40 PUSH1 0x0 KECCAK256 PUSH1 0x20 MSTORE DUP1 PUSH1 0x0 MSTORE PUSH1 0x40 PUSH1 0x0 KECCAK256 PUSH1 0x0 SWAP2 POP SWAP2 POP POP DUP1 PUSH1 0x0 ADD SLOAD SWAP1 DUP1 PUSH1 0x1 ADD SLOAD SWAP1 DUP1 PUSH1 0x2 ADD PUSH1 0x0 SWAP1 SLOAD SWAP1 PUSH2 0x100 EXP SWAP1 DIV PUSH1 0xFF AND SWAP1 POP DUP4 JUMP JUMPDEST PUSH1 0x0 DUP1 SLOAD SWAP1 POP DUP2 LT DUP1 ISZERO PUSH2 0x624 JUMPI POP PUSH1 0x3 PUSH1 0x0 DUP3 DUP2 MSTORE PUSH1 0x20 ADD SWAP1 DUP2 MSTORE PUSH1 0x20 ADD PUSH1 0x0 KECCAK256 PUSH1 0x0 CALLER PUSH20 0xFFFFFFFFFFFFFFFFFFFFFFFFFFFFFFFFFFFFFFFF AND PUSH20 0xFFFFFFFFFFFFFFFFFFFFFFFFFFFFFFFFFFFFFFFF AND DUP2 MSTORE PUSH1 0x20 ADD SWAP1 DUP2 MSTORE PUSH1 0x20 ADD PUSH1 0x0 KECCAK256 PUSH1 0x2 ADD PUSH1 0x0 SWAP1 SLOAD SWAP1 PUSH2 0x100 EXP SWAP1 DIV PUSH1 0xFF AND ISZERO JUMPDEST ISZERO PUSH2 0x8AC JUMPI PUSH1 0x0 PUSH1 0x2 PUSH1 0x0 DUP4 DUP2 SLOAD DUP2 LT PUSH2 0x641 JUMPI PUSH2 0x640 PUSH2 0x11ED JUMP JUMPDEST JUMPDEST SWAP1 PUSH1 0x0 MSTORE PUSH1 0x20 PUSH1 0x0 KECCAK256 ADD PUSH1 0x40 MLOAD PUSH2 0x658 SWAP2 SWAP1 PUSH2 0xEEA JUMP JUMPDEST SWAP1 DUP2 MSTORE PUSH1 0x20 ADD PUSH1 0x40 MLOAD DUP1 SWAP2 SUB SWAP1 KECCAK256 PUSH1 0x40 MLOAD DUP1 PUSH1 0x60 ADD PUSH1 0x40 MSTORE SWAP1 DUP2 PUSH1 0x0 DUP3 ADD SLOAD DUP2 MSTORE PUSH1 0x20 ADD PUSH1 0x1 DUP3 ADD SLOAD DUP2 MSTORE PUSH1 0x20 ADD PUSH1 0x2 DUP3 ADD PUSH1 0x0 SWAP1 SLOAD SWAP1 PUSH2 0x100 EXP SWAP1 DIV PUSH1 0xFF AND ISZERO ISZERO ISZERO ISZERO DUP2 MSTORE POP POP SWAP1 POP DUP1 PUSH1 0x0 ADD MLOAD CALLVALUE LT DUP1 PUSH2 0x6B8 JUMPI POP PUSH1 0x1 DUP2 PUSH1 0x20 ADD MLOAD LT JUMPDEST ISZERO PUSH2 0x6EF JUMPI PUSH1 0x40 MLOAD PUSH32 0xF80236CC00000000000000000000000000000000000000000000000000000000 DUP2 MSTORE PUSH1 0x4 ADD PUSH1 0x40 MLOAD DUP1 SWAP2 SUB SWAP1 REVERT JUMPDEST PUSH2 0x6F7 PUSH2 0xA6D JUMP JUMPDEST NUMBER DUP2 PUSH1 0x0 ADD DUP2 DUP2 MSTORE POP POP DUP2 PUSH1 0x0 ADD MLOAD DUP2 PUSH1 0x20 ADD DUP2 DUP2 MSTORE POP POP PUSH1 0x1 DUP2 PUSH1 0x40 ADD SWAP1 ISZERO ISZERO SWAP1 DUP2 ISZERO ISZERO DUP2 MSTORE POP POP DUP1 PUSH1 0x3 PUSH1 0x0 DUP6 DUP2 MSTORE PUSH1 0x20 ADD SWAP1 DUP2 MSTORE PUSH1 0x20 ADD PUSH1 0x0 KECCAK256 PUSH1 0x0 CALLER PUSH20 0xFFFFFFFFFFFFFFFFFFFFFFFFFFFFFFFFFFFFFFFF AND PUSH20 0xFFFFFFFFFFFFFFFFFFFFFFFFFFFFFFFFFFFFFFFF AND DUP2 MSTORE PUSH1 0x20 ADD SWAP1 DUP2 MSTORE PUSH1 0x20 ADD PUSH1 0x0 KECCAK256 PUSH1 0x0 DUP3 ADD MLOAD DUP2 PUSH1 0x0 ADD SSTORE PUSH1 0x20 DUP3 ADD MLOAD DUP2 PUSH1 0x1 ADD SSTORE PUSH1 0x40 DUP3 ADD MLOAD DUP2 PUSH1 0x2 ADD PUSH1 0x0 PUSH2 0x100 EXP DUP2 SLOAD DUP2 PUSH1 0xFF MUL NOT AND SWAP1 DUP4 ISZERO ISZERO MUL OR SWAP1 SSTORE POP SWAP1 POP POP DUP2 PUSH1 0x20 ADD DUP1 MLOAD DUP1 SWAP2 SWAP1 PUSH2 0x7BA SWAP1 PUSH2 0x1102 JUMP JUMPDEST DUP2 MSTORE POP POP DUP2 PUSH1 0x2 PUSH1 0x0 DUP6 DUP2 SLOAD DUP2 LT PUSH2 0x7D5 JUMPI PUSH2 0x7D4 PUSH2 0x11ED JUMP JUMPDEST JUMPDEST SWAP1 PUSH1 0x0 MSTORE PUSH1 0x20 PUSH1 0x0 KECCAK256 ADD PUSH1 0x40 MLOAD PUSH2 0x7EC SWAP2 SWAP1 PUSH2 0xEEA JUMP JUMPDEST SWAP1 DUP2 MSTORE PUSH1 0x20 ADD PUSH1 0x40 MLOAD DUP1 SWAP2 SUB SWAP1 KECCAK256 PUSH1 0x0 DUP3 ADD MLOAD DUP2 PUSH1 0x0 ADD SSTORE PUSH1 0x20 DUP3 ADD MLOAD DUP2 PUSH1 0x1 ADD SSTORE PUSH1 0x40 DUP3 ADD MLOAD DUP2 PUSH1 0x2 ADD PUSH1 0x0 PUSH2 0x100 EXP DUP2 SLOAD DUP2 PUSH1 0xFF MUL NOT AND SWAP1 DUP4 ISZERO ISZERO MUL OR SWAP1 SSTORE POP SWAP1 POP POP PUSH1 0x4 PUSH1 0x0 DUP5 DUP2 MSTORE PUSH1 0x20 ADD SWAP1 DUP2 MSTORE PUSH1 0x20 ADD PUSH1 0x0 KECCAK256 CALLER SWAP1 DUP1 PUSH1 0x1 DUP2 SLOAD ADD DUP1 DUP3 SSTORE DUP1 SWAP2 POP POP PUSH1 0x1 SWAP1 SUB SWAP1 PUSH1 0x0 MSTORE PUSH1 0x20 PUSH1 0x0 KECCAK256 ADD PUSH1 0x0 SWAP1 SWAP2 SWAP1 SWAP2 SWAP1 SWAP2 PUSH2 0x100 EXP DUP2 SLOAD DUP2 PUSH20 0xFFFFFFFFFFFFFFFFFFFFFFFFFFFFFFFFFFFFFFFF MUL NOT AND SWAP1 DUP4 PUSH20 0xFFFFFFFFFFFFFFFFFFFFFFFFFFFFFFFFFFFFFFFF AND MUL OR SWAP1 SSTORE POP POP POP PUSH2 0x8DE JUMP JUMPDEST PUSH1 0x40 MLOAD PUSH32 0xD42C9B8B00000000000000000000000000000000000000000000000000000000 DUP2 MSTORE PUSH1 0x4 ADD PUSH1 0x40 MLOAD DUP1 SWAP2 SUB SWAP1 REVERT JUMPDEST POP JUMP JUMPDEST PUSH1 0x0 DUP2 DUP2 SLOAD DUP2 LT PUSH2 0x8F1 JUMPI PUSH1 0x0 DUP1 REVERT JUMPDEST SWAP1 PUSH1 0x0 MSTORE PUSH1 0x20 PUSH1 0x0 KECCAK256 ADD PUSH1 0x0 SWAP2 POP SWAP1 POP DUP1 SLOAD PUSH2 0x90C SWAP1 PUSH2 0x112C JUMP JUMPDEST DUP1 PUSH1 0x1F ADD PUSH1 0x20 DUP1 SWAP2 DIV MUL PUSH1 0x20 ADD PUSH1 0x40 MLOAD SWAP1 DUP2 ADD PUSH1 0x40 MSTORE DUP1 SWAP3 SWAP2 SWAP1 DUP2 DUP2 MSTORE PUSH1 0x20 ADD DUP3 DUP1 SLOAD PUSH2 0x938 SWAP1 PUSH2 0x112C JUMP JUMPDEST DUP1 ISZERO PUSH2 0x985 JUMPI DUP1 PUSH1 0x1F LT PUSH2 0x95A JUMPI PUSH2 0x100 DUP1 DUP4 SLOAD DIV MUL DUP4 MSTORE SWAP2 PUSH1 0x20 ADD SWAP2 PUSH2 0x985 JUMP JUMPDEST DUP3 ADD SWAP2 SWAP1 PUSH1 0x0 MSTORE PUSH1 0x20 PUSH1 0x0 KECCAK256 SWAP1 JUMPDEST DUP2 SLOAD DUP2 MSTORE SWAP1 PUSH1 0x1 ADD SWAP1 PUSH1 0x20 ADD DUP1 DUP4 GT PUSH2 0x968 JUMPI DUP3 SWAP1 SUB PUSH1 0x1F AND DUP3 ADD SWAP2 JUMPDEST POP POP POP POP POP DUP2 JUMP JUMPDEST PUSH1 0x1 PUSH1 0x20 MSTORE DUP1 PUSH1 0x0 MSTORE PUSH1 0x40 PUSH1 0x0 KECCAK256 PUSH1 0x0 SWAP2 POP SWAP1 POP DUP1 PUSH1 0x0 ADD SLOAD SWAP1 DUP1 PUSH1 0x1 ADD SLOAD SWAP1 DUP1 PUSH1 0x2 ADD PUSH1 0x0 SWAP1 SLOAD SWAP1 PUSH2 0x100 EXP SWAP1 DIV PUSH1 0xFF AND SWAP1 POP DUP4 JUMP JUMPDEST PUSH1 0x40 MLOAD DUP1 PUSH1 0x60 ADD PUSH1 0x40 MSTORE DUP1 PUSH1 0x0 DUP2 MSTORE PUSH1 0x20 ADD PUSH1 0x0 DUP2 MSTORE PUSH1 0x20 ADD PUSH1 0x0 ISZERO ISZERO DUP2 MSTORE POP SWAP1 JUMP JUMPDEST DUP3 DUP1 SLOAD PUSH2 0x9F3 SWAP1 PUSH2 0x112C JUMP JUMPDEST SWAP1 PUSH1 0x0 MSTORE PUSH1 0x20 PUSH1 0x0 KECCAK256 SWAP1 PUSH1 0x1F ADD PUSH1 0x20 SWAP1 DIV DUP2 ADD SWAP3 DUP3 PUSH2 0xA15 JUMPI PUSH1 0x0 DUP6 SSTORE PUSH2 0xA5C JUMP JUMPDEST DUP3 PUSH1 0x1F LT PUSH2 0xA2E JUMPI DUP1 CALLDATALOAD PUSH1 0xFF NOT AND DUP4 DUP1 ADD OR DUP6 SSTORE PUSH2 0xA5C JUMP JUMPDEST DUP3 DUP1 ADD PUSH1 0x1 ADD DUP6 SSTORE DUP3 ISZERO PUSH2 0xA5C JUMPI SWAP2 DUP3 ADD JUMPDEST DUP3 DUP2 GT ISZERO PUSH2 0xA5B JUMPI DUP3 CALLDATALOAD DUP3 SSTORE SWAP2 PUSH1 0x20 ADD SWAP2 SWAP1 PUSH1 0x1 ADD SWAP1 PUSH2 0xA40 JUMP JUMPDEST JUMPDEST POP SWAP1 POP PUSH2 0xA69 SWAP2 SWAP1 PUSH2 0xA90 JUMP JUMPDEST POP SWAP1 JUMP JUMPDEST PUSH1 0x40 MLOAD DUP1 PUSH1 0x60 ADD PUSH1 0x40 MSTORE DUP1 PUSH1 0x0 DUP2 MSTORE PUSH1 0x20 ADD PUSH1 0x0 DUP2 MSTORE PUSH1 0x20 ADD PUSH1 0x0 ISZERO ISZERO DUP2 MSTORE POP SWAP1 JUMP JUMPDEST JUMPDEST DUP1 DUP3 GT ISZERO PUSH2 0xAA9 JUMPI PUSH1 0x0 DUP2 PUSH1 0x0 SWAP1 SSTORE POP PUSH1 0x1 ADD PUSH2 0xA91 JUMP JUMPDEST POP SWAP1 JUMP JUMPDEST PUSH1 0x0 PUSH2 0xAC0 PUSH2 0xABB DUP5 PUSH2 0xFB5 JUMP JUMPDEST PUSH2 0xF90 JUMP JUMPDEST SWAP1 POP DUP3 DUP2 MSTORE PUSH1 0x20 DUP2 ADD DUP5 DUP5 DUP5 ADD GT ISZERO PUSH2 0xADC JUMPI PUSH2 0xADB PUSH2 0x125A JUMP JUMPDEST JUMPDEST PUSH2 0xAE7 DUP5 DUP3 DUP6 PUSH2 0x10C0 JUMP JUMPDEST POP SWAP4 SWAP3 POP POP POP JUMP JUMPDEST PUSH1 0x0 DUP2 CALLDATALOAD SWAP1 POP PUSH2 0xAFE DUP2 PUSH2 0x127A JUMP JUMPDEST SWAP3 SWAP2 POP POP JUMP JUMPDEST PUSH1 0x0 DUP1 DUP4 PUSH1 0x1F DUP5 ADD SLT PUSH2 0xB1A JUMPI PUSH2 0xB19 PUSH2 0x1250 JUMP JUMPDEST JUMPDEST DUP3 CALLDATALOAD SWAP1 POP PUSH8 0xFFFFFFFFFFFFFFFF DUP2 GT ISZERO PUSH2 0xB37 JUMPI PUSH2 0xB36 PUSH2 0x124B JUMP JUMPDEST JUMPDEST PUSH1 0x20 DUP4 ADD SWAP2 POP DUP4 PUSH1 0x1 DUP3 MUL DUP4 ADD GT ISZERO PUSH2 0xB53 JUMPI PUSH2 0xB52 PUSH2 0x1255 JUMP JUMPDEST JUMPDEST SWAP3 POP SWAP3 SWAP1 POP JUMP JUMPDEST PUSH1 0x0 DUP3 PUSH1 0x1F DUP4 ADD SLT PUSH2 0xB6F JUMPI PUSH2 0xB6E PUSH2 0x1250 JUMP JUMPDEST JUMPDEST DUP2 CALLDATALOAD PUSH2 0xB7F DUP5 DUP3 PUSH1 0x20 DUP7 ADD PUSH2 0xAAD JUMP JUMPDEST SWAP2 POP POP SWAP3 SWAP2 POP POP JUMP JUMPDEST PUSH1 0x0 DUP2 CALLDATALOAD SWAP1 POP PUSH2 0xB97 DUP2 PUSH2 0x1291 JUMP JUMPDEST SWAP3 SWAP2 POP POP JUMP JUMPDEST PUSH1 0x0 DUP1 PUSH1 0x0 PUSH1 0x40 DUP5 DUP7 SUB SLT ISZERO PUSH2 0xBB6 JUMPI PUSH2 0xBB5 PUSH2 0x1264 JUMP JUMPDEST JUMPDEST PUSH1 0x0 DUP5 ADD CALLDATALOAD PUSH8 0xFFFFFFFFFFFFFFFF DUP2 GT ISZERO PUSH2 0xBD4 JUMPI PUSH2 0xBD3 PUSH2 0x125F JUMP JUMPDEST JUMPDEST PUSH2 0xBE0 DUP7 DUP3 DUP8 ADD PUSH2 0xB04 JUMP JUMPDEST SWAP4 POP SWAP4 POP POP PUSH1 0x20 PUSH2 0xBF3 DUP7 DUP3 DUP8 ADD PUSH2 0xB88 JUMP JUMPDEST SWAP2 POP POP SWAP3 POP SWAP3 POP SWAP3 JUMP JUMPDEST PUSH1 0x0 DUP1 PUSH1 0x0 DUP1 PUSH1 0x60 DUP6 DUP8 SUB SLT ISZERO PUSH2 0xC17 JUMPI PUSH2 0xC16 PUSH2 0x1264 JUMP JUMPDEST JUMPDEST PUSH1 0x0 DUP6 ADD CALLDATALOAD PUSH8 0xFFFFFFFFFFFFFFFF DUP2 GT ISZERO PUSH2 0xC35 JUMPI PUSH2 0xC34 PUSH2 0x125F JUMP JUMPDEST JUMPDEST PUSH2 0xC41 DUP8 DUP3 DUP9 ADD PUSH2 0xB04 JUMP JUMPDEST SWAP5 POP SWAP5 POP POP PUSH1 0x20 PUSH2 0xC54 DUP8 DUP3 DUP9 ADD PUSH2 0xB88 JUMP JUMPDEST SWAP3 POP POP PUSH1 0x40 PUSH2 0xC65 DUP8 DUP3 DUP9 ADD PUSH2 0xB88 JUMP JUMPDEST SWAP2 POP POP SWAP3 SWAP6 SWAP2 SWAP5 POP SWAP3 POP JUMP JUMPDEST PUSH1 0x0 PUSH1 0x20 DUP3 DUP5 SUB SLT ISZERO PUSH2 0xC87 JUMPI PUSH2 0xC86 PUSH2 0x1264 JUMP JUMPDEST JUMPDEST PUSH1 0x0 DUP3 ADD CALLDATALOAD PUSH8 0xFFFFFFFFFFFFFFFF DUP2 GT ISZERO PUSH2 0xCA5 JUMPI PUSH2 0xCA4 PUSH2 0x125F JUMP JUMPDEST JUMPDEST PUSH2 0xCB1 DUP5 DUP3 DUP6 ADD PUSH2 0xB5A JUMP JUMPDEST SWAP2 POP POP SWAP3 SWAP2 POP POP JUMP JUMPDEST PUSH1 0x0 PUSH1 0x20 DUP3 DUP5 SUB SLT ISZERO PUSH2 0xCD0 JUMPI PUSH2 0xCCF PUSH2 0x1264 JUMP JUMPDEST JUMPDEST PUSH1 0x0 PUSH2 0xCDE DUP5 DUP3 DUP6 ADD PUSH2 0xB88 JUMP JUMPDEST SWAP2 POP POP SWAP3 SWAP2 POP POP JUMP JUMPDEST PUSH1 0x0 DUP1 PUSH1 0x40 DUP4 DUP6 SUB SLT ISZERO PUSH2 0xCFE JUMPI PUSH2 0xCFD PUSH2 0x1264 JUMP JUMPDEST JUMPDEST PUSH1 0x0 PUSH2 0xD0C DUP6 DUP3 DUP7 ADD PUSH2 0xB88 JUMP JUMPDEST SWAP3 POP POP PUSH1 0x20 PUSH2 0xD1D DUP6 DUP3 DUP7 ADD PUSH2 0xAEF JUMP JUMPDEST SWAP2 POP POP SWAP3 POP SWAP3 SWAP1 POP JUMP JUMPDEST PUSH1 0x0 DUP1 PUSH1 0x40 DUP4 DUP6 SUB SLT ISZERO PUSH2 0xD3E JUMPI PUSH2 0xD3D PUSH2 0x1264 JUMP JUMPDEST JUMPDEST PUSH1 0x0 PUSH2 0xD4C DUP6 DUP3 DUP7 ADD PUSH2 0xB88 JUMP JUMPDEST SWAP3 POP POP PUSH1 0x20 PUSH2 0xD5D DUP6 DUP3 DUP7 ADD PUSH2 0xB88 JUMP JUMPDEST SWAP2 POP POP SWAP3 POP SWAP3 SWAP1 POP JUMP JUMPDEST PUSH2 0xD70 DUP2 PUSH2 0x1078 JUMP JUMPDEST DUP3 MSTORE POP POP JUMP JUMPDEST PUSH2 0xD7F DUP2 PUSH2 0x108A JUMP JUMPDEST DUP3 MSTORE POP POP JUMP JUMPDEST PUSH2 0xD8E DUP2 PUSH2 0x108A JUMP JUMPDEST DUP3 MSTORE POP POP JUMP JUMPDEST PUSH1 0x0 PUSH2 0xDA0 DUP4 DUP6 PUSH2 0x1017 JUMP JUMPDEST SWAP4 POP PUSH2 0xDAD DUP4 DUP6 DUP5 PUSH2 0x10C0 JUMP JUMPDEST DUP3 DUP5 ADD SWAP1 POP SWAP4 SWAP3 POP POP POP JUMP JUMPDEST PUSH1 0x0 PUSH2 0xDC4 DUP3 PUSH2 0xFFB JUMP JUMPDEST PUSH2 0xDCE DUP2 DUP6 PUSH2 0x1006 JUMP JUMPDEST SWAP4 POP PUSH2 0xDDE DUP2 DUP6 PUSH1 0x20 DUP7 ADD PUSH2 0x10CF JUMP JUMPDEST PUSH2 0xDE7 DUP2 PUSH2 0x1269 JUMP JUMPDEST DUP5 ADD SWAP2 POP POP SWAP3 SWAP2 POP POP JUMP JUMPDEST PUSH1 0x0 DUP2 SLOAD PUSH2 0xDFF DUP2 PUSH2 0x112C JUMP JUMPDEST PUSH2 0xE09 DUP2 DUP7 PUSH2 0x1017 JUMP JUMPDEST SWAP5 POP PUSH1 0x1 DUP3 AND PUSH1 0x0 DUP2 EQ PUSH2 0xE24 JUMPI PUSH1 0x1 DUP2 EQ PUSH2 0xE35 JUMPI PUSH2 0xE68 JUMP JUMPDEST PUSH1 0xFF NOT DUP4 AND DUP7 MSTORE DUP2 DUP7 ADD SWAP4 POP PUSH2 0xE68 JUMP JUMPDEST PUSH2 0xE3E DUP6 PUSH2 0xFE6 JUMP JUMPDEST PUSH1 0x0 JUMPDEST DUP4 DUP2 LT ISZERO PUSH2 0xE60 JUMPI DUP2 SLOAD DUP2 DUP10 ADD MSTORE PUSH1 0x1 DUP3 ADD SWAP2 POP PUSH1 0x20 DUP2 ADD SWAP1 POP PUSH2 0xE41 JUMP JUMPDEST DUP4 DUP9 ADD SWAP6 POP POP POP JUMPDEST POP POP POP SWAP3 SWAP2 POP POP JUMP JUMPDEST PUSH1 0x60 DUP3 ADD PUSH1 0x0 DUP3 ADD MLOAD PUSH2 0xE87 PUSH1 0x0 DUP6 ADD DUP3 PUSH2 0xEB3 JUMP JUMPDEST POP PUSH1 0x20 DUP3 ADD MLOAD PUSH2 0xE9A PUSH1 0x20 DUP6 ADD DUP3 PUSH2 0xEB3 JUMP JUMPDEST POP PUSH1 0x40 DUP3 ADD MLOAD PUSH2 0xEAD PUSH1 0x40 DUP6 ADD DUP3 PUSH2 0xD76 JUMP JUMPDEST POP POP POP POP JUMP JUMPDEST PUSH2 0xEBC DUP2 PUSH2 0x10B6 JUMP JUMPDEST DUP3 MSTORE POP POP JUMP JUMPDEST PUSH2 0xECB DUP2 PUSH2 0x10B6 JUMP JUMPDEST DUP3 MSTORE POP POP JUMP JUMPDEST PUSH1 0x0 PUSH2 0xEDE DUP3 DUP5 DUP7 PUSH2 0xD94 JUMP JUMPDEST SWAP2 POP DUP2 SWAP1 POP SWAP4 SWAP3 POP POP POP JUMP JUMPDEST PUSH1 0x0 PUSH2 0xEF6 DUP3 DUP5 PUSH2 0xDF2 JUMP JUMPDEST SWAP2 POP DUP2 SWAP1 POP SWAP3 SWAP2 POP POP JUMP JUMPDEST PUSH1 0x0 PUSH1 0x20 DUP3 ADD SWAP1 POP PUSH2 0xF16 PUSH1 0x0 DUP4 ADD DUP5 PUSH2 0xD67 JUMP JUMPDEST SWAP3 SWAP2 POP POP JUMP JUMPDEST PUSH1 0x0 PUSH1 0x20 DUP3 ADD SWAP1 POP DUP2 DUP2 SUB PUSH1 0x0 DUP4 ADD MSTORE PUSH2 0xF36 DUP2 DUP5 PUSH2 0xDB9 JUMP JUMPDEST SWAP1 POP SWAP3 SWAP2 POP POP JUMP JUMPDEST PUSH1 0x0 PUSH1 0x60 DUP3 ADD SWAP1 POP PUSH2 0xF53 PUSH1 0x0 DUP4 ADD DUP5 PUSH2 0xE71 JUMP JUMPDEST SWAP3 SWAP2 POP POP JUMP JUMPDEST PUSH1 0x0 PUSH1 0x60 DUP3 ADD SWAP1 POP PUSH2 0xF6E PUSH1 0x0 DUP4 ADD DUP7 PUSH2 0xEC2 JUMP JUMPDEST PUSH2 0xF7B PUSH1 0x20 DUP4 ADD DUP6 PUSH2 0xEC2 JUMP JUMPDEST PUSH2 0xF88 PUSH1 0x40 DUP4 ADD DUP5 PUSH2 0xD85 JUMP JUMPDEST SWAP5 SWAP4 POP POP POP POP JUMP JUMPDEST PUSH1 0x0 PUSH2 0xF9A PUSH2 0xFAB JUMP JUMPDEST SWAP1 POP PUSH2 0xFA6 DUP3 DUP3 PUSH2 0x115E JUMP JUMPDEST SWAP2 SWAP1 POP JUMP JUMPDEST PUSH1 0x0 PUSH1 0x40 MLOAD SWAP1 POP SWAP1 JUMP JUMPDEST PUSH1 0x0 PUSH8 0xFFFFFFFFFFFFFFFF DUP3 GT ISZERO PUSH2 0xFD0 JUMPI PUSH2 0xFCF PUSH2 0x121C JUMP JUMPDEST JUMPDEST PUSH2 0xFD9 DUP3 PUSH2 0x1269 JUMP JUMPDEST SWAP1 POP PUSH1 0x20 DUP2 ADD SWAP1 POP SWAP2 SWAP1 POP JUMP JUMPDEST PUSH1 0x0 DUP2 SWAP1 POP DUP2 PUSH1 0x0 MSTORE PUSH1 0x20 PUSH1 0x0 KECCAK256 SWAP1 POP SWAP2 SWAP1 POP JUMP JUMPDEST PUSH1 0x0 DUP2 MLOAD SWAP1 POP SWAP2 SWAP1 POP JUMP JUMPDEST PUSH1 0x0 DUP3 DUP3 MSTORE PUSH1 0x20 DUP3 ADD SWAP1 POP SWAP3 SWAP2 POP POP JUMP JUMPDEST PUSH1 0x0 DUP2 SWAP1 POP SWAP3 SWAP2 POP POP JUMP JUMPDEST PUSH1 0x0 PUSH2 0x102D DUP3 PUSH2 0x10B6 JUMP JUMPDEST SWAP2 POP PUSH2 0x1038 DUP4 PUSH2 0x10B6 JUMP JUMPDEST SWAP3 POP DUP3 PUSH32 0xFFFFFFFFFFFFFFFFFFFFFFFFFFFFFFFFFFFFFFFFFFFFFFFFFFFFFFFFFFFFFFFF SUB DUP3 GT ISZERO PUSH2 0x106D JUMPI PUSH2 0x106C PUSH2 0x118F JUMP JUMPDEST JUMPDEST DUP3 DUP3 ADD SWAP1 POP SWAP3 SWAP2 POP POP JUMP JUMPDEST PUSH1 0x0 PUSH2 0x1083 DUP3 PUSH2 0x1096 JUMP JUMPDEST SWAP1 POP SWAP2 SWAP1 POP JUMP JUMPDEST PUSH1 0x0 DUP2 ISZERO ISZERO SWAP1 POP SWAP2 SWAP1 POP JUMP JUMPDEST PUSH1 0x0 PUSH20 0xFFFFFFFFFFFFFFFFFFFFFFFFFFFFFFFFFFFFFFFF DUP3 AND SWAP1 POP SWAP2 SWAP1 POP JUMP JUMPDEST PUSH1 0x0 DUP2 SWAP1 POP SWAP2 SWAP1 POP JUMP JUMPDEST DUP3 DUP2 DUP4 CALLDATACOPY PUSH1 0x0 DUP4 DUP4 ADD MSTORE POP POP POP JUMP JUMPDEST PUSH1 0x0 JUMPDEST DUP4 DUP2 LT ISZERO PUSH2 0x10ED JUMPI DUP1 DUP3 ADD MLOAD DUP2 DUP5 ADD MSTORE PUSH1 0x20 DUP2 ADD SWAP1 POP PUSH2 0x10D2 JUMP JUMPDEST DUP4 DUP2 GT ISZERO PUSH2 0x10FC JUMPI PUSH1 0x0 DUP5 DUP5 ADD MSTORE JUMPDEST POP POP POP POP JUMP JUMPDEST PUSH1 0x0 PUSH2 0x110D DUP3 PUSH2 0x10B6 JUMP JUMPDEST SWAP2 POP PUSH1 0x0 DUP3 EQ ISZERO PUSH2 0x1121 JUMPI PUSH2 0x1120 PUSH2 0x118F JUMP JUMPDEST JUMPDEST PUSH1 0x1 DUP3 SUB SWAP1 POP SWAP2 SWAP1 POP JUMP JUMPDEST PUSH1 0x0 PUSH1 0x2 DUP3 DIV SWAP1 POP PUSH1 0x1 DUP3 AND DUP1 PUSH2 0x1144 JUMPI PUSH1 0x7F DUP3 AND SWAP2 POP JUMPDEST PUSH1 0x20 DUP3 LT DUP2 EQ ISZERO PUSH2 0x1158 JUMPI PUSH2 0x1157 PUSH2 0x11BE JUMP JUMPDEST JUMPDEST POP SWAP2 SWAP1 POP JUMP JUMPDEST PUSH2 0x1167 DUP3 PUSH2 0x1269 JUMP JUMPDEST DUP2 ADD DUP2 DUP2 LT PUSH8 0xFFFFFFFFFFFFFFFF DUP3 GT OR ISZERO PUSH2 0x1186 JUMPI PUSH2 0x1185 PUSH2 0x121C JUMP JUMPDEST JUMPDEST DUP1 PUSH1 0x40 MSTORE POP POP POP JUMP JUMPDEST PUSH32 0x4E487B7100000000000000000000000000000000000000000000000000000000 PUSH1 0x0 MSTORE PUSH1 0x11 PUSH1 0x4 MSTORE PUSH1 0x24 PUSH1 0x0 REVERT JUMPDEST PUSH32 0x4E487B7100000000000000000000000000000000000000000000000000000000 PUSH1 0x0 MSTORE PUSH1 0x22 PUSH1 0x4 MSTORE PUSH1 0x24 PUSH1 0x0 REVERT JUMPDEST PUSH32 0x4E487B7100000000000000000000000000000000000000000000000000000000 PUSH1 0x0 MSTORE PUSH1 0x32 PUSH1 0x4 MSTORE PUSH1 0x24 PUSH1 0x0 REVERT JUMPDEST PUSH32 0x4E487B7100000000000000000000000000000000000000000000000000000000 PUSH1 0x0 MSTORE PUSH1 0x41 PUSH1 0x4 MSTORE PUSH1 0x24 PUSH1 0x0 REVERT JUMPDEST PUSH1 0x0 DUP1 REVERT JUMPDEST PUSH1 0x0 DUP1 REVERT JUMPDEST PUSH1 0x0 DUP1 REVERT JUMPDEST PUSH1 0x0 DUP1 REVERT JUMPDEST PUSH1 0x0 DUP1 REVERT JUMPDEST PUSH1 0x0 DUP1 REVERT JUMPDEST PUSH1 0x0 PUSH1 0x1F NOT PUSH1 0x1F DUP4 ADD AND SWAP1 POP SWAP2 SWAP1 POP JUMP JUMPDEST PUSH2 0x1283 DUP2 PUSH2 0x1078 JUMP JUMPDEST DUP2 EQ PUSH2 0x128E JUMPI PUSH1 0x0 DUP1 REVERT JUMPDEST POP JUMP JUMPDEST PUSH2 0x129A DUP2 PUSH2 0x10B6 JUMP JUMPDEST DUP2 EQ PUSH2 0x12A5 JUMPI PUSH1 0x0 DUP1 REVERT JUMPDEST POP JUMP INVALID LOG2 PUSH5 0x6970667358 0x22 SLT KECCAK256 0xE8 0xE 0x4E PUSH1 0x19 ADD SWAP8 0x21 PUSH19 0xB55A0C6DED7763822CE06C76145C0BE643BEC2 0xEF 0xD 0xE2 PUSH31 0x64736F6C634300080700330000000000000000000000000000000000000000 "
				},
				"gasEstimates": {
					"creation": {
						"codeDepositCost": "966000",
						"executionCost": "977",
						"totalCost": "966977"
					},
					"external": {
						"addNewProduct(string,uint256,uint256)": "infinite",
						"availableProducts(uint256)": "infinite",
						"buyProduct(uint256)": "infinite",
						"buyers(uint256,uint256)": "infinite",
						"products(string)": "infinite",
						"productsID(uint256)": "infinite",
						"test(uint256)": "infinite",
						"transactions(uint256,address)": "infinite",
						"updateQuantity(string,uint256)": "infinite"
					}
				},
				"methodIdentifiers": {
					"addNewProduct(string,uint256,uint256)": "0a5bd44b",
					"availableProducts(uint256)": "e4bcc7d4",
					"buyProduct(uint256)": "8642269e",
					"buyers(uint256,uint256)": "27e7875a",
					"products(string)": "0186a423",
					"productsID(uint256)": "f8cfabb9",
					"test(uint256)": "29e99f07",
					"transactions(uint256,address)": "74cbc350",
					"updateQuantity(string,uint256)": "1d894eb8"
				}
			},
			"storageLayout": {
				"storage": [
					{
						"astId": 30,
						"contract": "Project/TechnoLime.sol:TechnoLimeStore",
						"label": "availableProducts",
						"offset": 0,
						"slot": "0",
						"type": "t_array(t_string_storage)dyn_storage"
					},
					{
						"astId": 35,
						"contract": "Project/TechnoLime.sol:TechnoLimeStore",
						"label": "productsID",
						"offset": 0,
						"slot": "1",
						"type": "t_mapping(t_uint256,t_struct(Product)27_storage)"
					},
					{
						"astId": 40,
						"contract": "Project/TechnoLime.sol:TechnoLimeStore",
						"label": "products",
						"offset": 0,
						"slot": "2",
						"type": "t_mapping(t_string_memory_ptr,t_struct(Product)27_storage)"
					},
					{
						"astId": 54,
						"contract": "Project/TechnoLime.sol:TechnoLimeStore",
						"label": "transactions",
						"offset": 0,
						"slot": "3",
						"type": "t_mapping(t_uint256,t_mapping(t_address,t_struct(Transaction)47_storage))"
					},
					{
						"astId": 59,
						"contract": "Project/TechnoLime.sol:TechnoLimeStore",
						"label": "buyers",
						"offset": 0,
						"slot": "4",
						"type": "t_mapping(t_uint256,t_array(t_address)dyn_storage)"
					}
				],
				"types": {
					"t_address": {
						"encoding": "inplace",
						"label": "address",
						"numberOfBytes": "20"
					},
					"t_array(t_address)dyn_storage": {
						"base": "t_address",
						"encoding": "dynamic_array",
						"label": "address[]",
						"numberOfBytes": "32"
					},
					"t_array(t_string_storage)dyn_storage": {
						"base": "t_string_storage",
						"encoding": "dynamic_array",
						"label": "string[]",
						"numberOfBytes": "32"
					},
					"t_bool": {
						"encoding": "inplace",
						"label": "bool",
						"numberOfBytes": "1"
					},
					"t_mapping(t_address,t_struct(Transaction)47_storage)": {
						"encoding": "mapping",
						"key": "t_address",
						"label": "mapping(address => struct TechnoLimeStore.Transaction)",
						"numberOfBytes": "32",
						"value": "t_struct(Transaction)47_storage"
					},
					"t_mapping(t_string_memory_ptr,t_struct(Product)27_storage)": {
						"encoding": "mapping",
						"key": "t_string_memory_ptr",
						"label": "mapping(string => struct TechnoLimeStore.Product)",
						"numberOfBytes": "32",
						"value": "t_struct(Product)27_storage"
					},
					"t_mapping(t_uint256,t_array(t_address)dyn_storage)": {
						"encoding": "mapping",
						"key": "t_uint256",
						"label": "mapping(uint256 => address[])",
						"numberOfBytes": "32",
						"value": "t_array(t_address)dyn_storage"
					},
					"t_mapping(t_uint256,t_mapping(t_address,t_struct(Transaction)47_storage))": {
						"encoding": "mapping",
						"key": "t_uint256",
						"label": "mapping(uint256 => mapping(address => struct TechnoLimeStore.Transaction))",
						"numberOfBytes": "32",
						"value": "t_mapping(t_address,t_struct(Transaction)47_storage)"
					},
					"t_mapping(t_uint256,t_struct(Product)27_storage)": {
						"encoding": "mapping",
						"key": "t_uint256",
						"label": "mapping(uint256 => struct TechnoLimeStore.Product)",
						"numberOfBytes": "32",
						"value": "t_struct(Product)27_storage"
					},
					"t_string_memory_ptr": {
						"encoding": "bytes",
						"label": "string",
						"numberOfBytes": "32"
					},
					"t_string_storage": {
						"encoding": "bytes",
						"label": "string",
						"numberOfBytes": "32"
					},
					"t_struct(Product)27_storage": {
						"encoding": "inplace",
						"label": "struct TechnoLimeStore.Product",
						"members": [
							{
								"astId": 22,
								"contract": "Project/TechnoLime.sol:TechnoLimeStore",
								"label": "price",
								"offset": 0,
								"slot": "0",
								"type": "t_uint256"
							},
							{
								"astId": 24,
								"contract": "Project/TechnoLime.sol:TechnoLimeStore",
								"label": "quantity",
								"offset": 0,
								"slot": "1",
								"type": "t_uint256"
							},
							{
								"astId": 26,
								"contract": "Project/TechnoLime.sol:TechnoLimeStore",
								"label": "exists",
								"offset": 0,
								"slot": "2",
								"type": "t_bool"
							}
						],
						"numberOfBytes": "96"
					},
					"t_struct(Transaction)47_storage": {
						"encoding": "inplace",
						"label": "struct TechnoLimeStore.Transaction",
						"members": [
							{
								"astId": 42,
								"contract": "Project/TechnoLime.sol:TechnoLimeStore",
								"label": "blockNum",
								"offset": 0,
								"slot": "0",
								"type": "t_uint256"
							},
							{
								"astId": 44,
								"contract": "Project/TechnoLime.sol:TechnoLimeStore",
								"label": "price",
								"offset": 0,
								"slot": "1",
								"type": "t_uint256"
							},
							{
								"astId": 46,
								"contract": "Project/TechnoLime.sol:TechnoLimeStore",
								"label": "exists",
								"offset": 0,
								"slot": "2",
								"type": "t_bool"
							}
						],
						"numberOfBytes": "96"
					},
					"t_uint256": {
						"encoding": "inplace",
						"label": "uint256",
						"numberOfBytes": "32"
					}
				}
			},
			"userdoc": {
				"errors": {
					"ItemIdWrongOrBoughtAlready()": [
						{
							"notice": "Error trown when the productID doesn't exist or it has been bought once already"
						}
					],
					"LessThanPriceOrOutOfStock()": [
						{
							"notice": "Error trown when money sent is less than Product price"
						}
					],
					"ProductExists()": [
						{
							"notice": "Can't add a product that already exists"
						}
					]
				},
				"kind": "user",
				"methods": {},
				"version": 1
			}
		}
	}
}