{
	"Project/TechnoLime.sol": {
		"TechnoLimeStore": {
			"abi": [
				{
					"inputs": [],
					"name": "ItemIdWrongOrBoughtAlready",
					"type": "error"
				},
				{
					"inputs": [],
					"name": "LessThanPrice",
					"type": "error"
				},
				{
					"inputs": [],
					"name": "ProductExists",
					"type": "error"
				},
				{
					"inputs": [],
					"name": "ProductNotExistent",
					"type": "error"
				},
				{
					"inputs": [
						{
							"internalType": "string",
							"name": "productName",
							"type": "string"
						},
						{
							"internalType": "uint256",
							"name": "_price",
							"type": "uint256"
						},
						{
							"internalType": "uint256",
							"name": "_quantity",
							"type": "uint256"
						}
					],
					"name": "addNewProduct",
					"outputs": [],
					"stateMutability": "nonpayable",
					"type": "function"
				},
				{
					"inputs": [
						{
							"internalType": "uint256",
							"name": "",
							"type": "uint256"
						}
					],
					"name": "availableProducts",
					"outputs": [
						{
							"internalType": "string",
							"name": "",
							"type": "string"
						}
					],
					"stateMutability": "view",
					"type": "function"
				},
				{
					"inputs": [
						{
							"internalType": "uint256",
							"name": "ProductId",
							"type": "uint256"
						}
					],
					"name": "buyProduct",
					"outputs": [],
					"stateMutability": "payable",
					"type": "function"
				},
				{
					"inputs": [
						{
							"internalType": "uint256",
							"name": "ProductId",
							"type": "uint256"
						}
					],
					"name": "checkProductBuyers",
					"outputs": [
						{
							"internalType": "address[]",
							"name": "",
							"type": "address[]"
						}
					],
					"stateMutability": "view",
					"type": "function"
				},
				{
					"inputs": [
						{
							"internalType": "string",
							"name": "",
							"type": "string"
						}
					],
					"name": "products",
					"outputs": [
						{
							"internalType": "uint256",
							"name": "price",
							"type": "uint256"
						},
						{
							"internalType": "uint256",
							"name": "quantity",
							"type": "uint256"
						},
						{
							"internalType": "bool",
							"name": "exists",
							"type": "bool"
						}
					],
					"stateMutability": "view",
					"type": "function"
				},
				{
					"inputs": [
						{
							"internalType": "string",
							"name": "productName",
							"type": "string"
						},
						{
							"internalType": "uint256",
							"name": "_quantity",
							"type": "uint256"
						}
					],
					"name": "updateQuantity",
					"outputs": [],
					"stateMutability": "nonpayable",
					"type": "function"
				}
			],
			"devdoc": {
				"kind": "dev",
				"methods": {},
				"version": 1
			},
			"evm": {
				"assembly": "    /* \"Project/TechnoLime.sol\":98:3132  contract TechnoLimeStore {\r... */\n  mstore(0x40, 0x80)\n  callvalue\n  dup1\n  iszero\n  tag_1\n  jumpi\n  0x00\n  dup1\n  revert\ntag_1:\n  pop\n  dataSize(sub_0)\n  dup1\n  dataOffset(sub_0)\n  0x00\n  codecopy\n  0x00\n  return\nstop\n\nsub_0: assembly {\n        /* \"Project/TechnoLime.sol\":98:3132  contract TechnoLimeStore {\r... */\n      mstore(0x40, 0x80)\n      jumpi(tag_1, lt(calldatasize, 0x04))\n      shr(0xe0, calldataload(0x00))\n      dup1\n      0x0186a423\n      eq\n      tag_2\n      jumpi\n      dup1\n      0x0a5bd44b\n      eq\n      tag_3\n      jumpi\n      dup1\n      0x1d894eb8\n      eq\n      tag_4\n      jumpi\n      dup1\n      0x74ce0ca9\n      eq\n      tag_5\n      jumpi\n      dup1\n      0x8642269e\n      eq\n      tag_6\n      jumpi\n      dup1\n      0xe4bcc7d4\n      eq\n      tag_7\n      jumpi\n    tag_1:\n      0x00\n      dup1\n      revert\n        /* \"Project/TechnoLime.sol\":343:385  mapping(string => Product) public products */\n    tag_2:\n      callvalue\n      dup1\n      iszero\n      tag_8\n      jumpi\n      0x00\n      dup1\n      revert\n    tag_8:\n      pop\n      tag_9\n      0x04\n      dup1\n      calldatasize\n      sub\n      dup2\n      add\n      swap1\n      tag_10\n      swap2\n      swap1\n      tag_11\n      jump\t// in\n    tag_10:\n      tag_12\n      jump\t// in\n    tag_9:\n      mload(0x40)\n      tag_13\n      swap4\n      swap3\n      swap2\n      swap1\n      tag_14\n      jump\t// in\n    tag_13:\n      mload(0x40)\n      dup1\n      swap2\n      sub\n      swap1\n      return\n        /* \"Project/TechnoLime.sol\":567:1155  function addNewProduct(string calldata productName, uint _price,uint _quantity) external{\r... */\n    tag_3:\n      callvalue\n      dup1\n      iszero\n      tag_15\n      jumpi\n      0x00\n      dup1\n      revert\n    tag_15:\n      pop\n      tag_16\n      0x04\n      dup1\n      calldatasize\n      sub\n      dup2\n      add\n      swap1\n      tag_17\n      swap2\n      swap1\n      tag_18\n      jump\t// in\n    tag_17:\n      tag_19\n      jump\t// in\n    tag_16:\n      stop\n        /* \"Project/TechnoLime.sol\":1163:1532  function updateQuantity(string calldata productName,uint _quantity) external{\r... */\n    tag_4:\n      callvalue\n      dup1\n      iszero\n      tag_20\n      jumpi\n      0x00\n      dup1\n      revert\n    tag_20:\n      pop\n      tag_21\n      0x04\n      dup1\n      calldatasize\n      sub\n      dup2\n      add\n      swap1\n      tag_22\n      swap2\n      swap1\n      tag_23\n      jump\t// in\n    tag_22:\n      tag_24\n      jump\t// in\n    tag_21:\n      stop\n        /* \"Project/TechnoLime.sol\":2914:3123  function checkProductBuyers(uint ProductId) external view returns (address[] memory){\r... */\n    tag_5:\n      callvalue\n      dup1\n      iszero\n      tag_25\n      jumpi\n      0x00\n      dup1\n      revert\n    tag_25:\n      pop\n      tag_26\n      0x04\n      dup1\n      calldatasize\n      sub\n      dup2\n      add\n      swap1\n      tag_27\n      swap2\n      swap1\n      tag_28\n      jump\t// in\n    tag_27:\n      tag_29\n      jump\t// in\n    tag_26:\n      mload(0x40)\n      tag_30\n      swap2\n      swap1\n      tag_31\n      jump\t// in\n    tag_30:\n      mload(0x40)\n      dup1\n      swap2\n      sub\n      swap1\n      return\n        /* \"Project/TechnoLime.sol\":1634:2906  function buyProduct (uint ProductId)  external payable { \r... */\n    tag_6:\n      tag_32\n      0x04\n      dup1\n      calldatasize\n      sub\n      dup2\n      add\n      swap1\n      tag_33\n      swap2\n      swap1\n      tag_28\n      jump\t// in\n    tag_33:\n      tag_34\n      jump\t// in\n    tag_32:\n      stop\n        /* \"Project/TechnoLime.sol\":303:336  string[] public availableProducts */\n    tag_7:\n      callvalue\n      dup1\n      iszero\n      tag_35\n      jumpi\n      0x00\n      dup1\n      revert\n    tag_35:\n      pop\n      tag_36\n      0x04\n      dup1\n      calldatasize\n      sub\n      dup2\n      add\n      swap1\n      tag_37\n      swap2\n      swap1\n      tag_28\n      jump\t// in\n    tag_37:\n      tag_38\n      jump\t// in\n    tag_36:\n      mload(0x40)\n      tag_39\n      swap2\n      swap1\n      tag_40\n      jump\t// in\n    tag_39:\n      mload(0x40)\n      dup1\n      swap2\n      sub\n      swap1\n      return\n        /* \"Project/TechnoLime.sol\":343:385  mapping(string => Product) public products */\n    tag_12:\n      0x01\n      dup2\n      dup1\n      mload\n      0x20\n      dup2\n      add\n      dup3\n      add\n      dup1\n      mload\n      dup5\n      dup3\n      mstore\n      0x20\n      dup4\n      add\n      0x20\n      dup6\n      add\n      keccak256\n      dup2\n      dup4\n      mstore\n      dup1\n      swap6\n      pop\n      pop\n      pop\n      pop\n      pop\n      pop\n      0x00\n      swap2\n      pop\n      swap1\n      pop\n      dup1\n      0x00\n      add\n      sload\n      swap1\n      dup1\n      0x01\n      add\n      sload\n      swap1\n      dup1\n      0x03\n      add\n      0x00\n      swap1\n      sload\n      swap1\n      0x0100\n      exp\n      swap1\n      div\n      0xff\n      and\n      swap1\n      pop\n      dup4\n      jump\t// out\n        /* \"Project/TechnoLime.sol\":567:1155  function addNewProduct(string calldata productName, uint _price,uint _quantity) external{\r... */\n    tag_19:\n        /* \"Project/TechnoLime.sol\":672:680  products */\n      0x01\n        /* \"Project/TechnoLime.sol\":681:692  productName */\n      dup5\n      dup5\n        /* \"Project/TechnoLime.sol\":672:693  products[productName] */\n      mload(0x40)\n      tag_42\n      swap3\n      swap2\n      swap1\n      tag_43\n      jump\t// in\n    tag_42:\n      swap1\n      dup2\n      mstore\n      0x20\n      add\n      mload(0x40)\n      dup1\n      swap2\n      sub\n      swap1\n      keccak256\n        /* \"Project/TechnoLime.sol\":672:700  products[productName].exists */\n      0x03\n      add\n      0x00\n      swap1\n      sload\n      swap1\n      0x0100\n      exp\n      swap1\n      div\n      0xff\n      and\n        /* \"Project/TechnoLime.sol\":667:1138  if (!products[productName].exists){\r... */\n      tag_44\n      jumpi\n        /* \"Project/TechnoLime.sol\":717:739  Product memory product */\n      tag_45\n      tag_46\n      jump\t// in\n    tag_45:\n        /* \"Project/TechnoLime.sol\":771:777  _price */\n      dup3\n        /* \"Project/TechnoLime.sol\":755:762  product */\n      dup2\n        /* \"Project/TechnoLime.sol\":755:768  product.price */\n      0x00\n      add\n        /* \"Project/TechnoLime.sol\":755:777  product.price = _price */\n      dup2\n      dup2\n      mstore\n      pop\n      pop\n        /* \"Project/TechnoLime.sol\":812:821  _quantity */\n      dup2\n        /* \"Project/TechnoLime.sol\":793:800  product */\n      dup2\n        /* \"Project/TechnoLime.sol\":793:809  product.quantity */\n      0x20\n      add\n        /* \"Project/TechnoLime.sol\":793:821  product.quantity = _quantity */\n      dup2\n      dup2\n      mstore\n      pop\n      pop\n        /* \"Project/TechnoLime.sol\":854:858  true */\n      0x01\n        /* \"Project/TechnoLime.sol\":837:844  product */\n      dup2\n        /* \"Project/TechnoLime.sol\":837:851  product.exists */\n      0x60\n      add\n        /* \"Project/TechnoLime.sol\":837:858  product.exists = true */\n      swap1\n      iszero\n      iszero\n      swap1\n      dup2\n      iszero\n      iszero\n      dup2\n      mstore\n      pop\n      pop\n        /* \"Project/TechnoLime.sol\":898:905  product */\n      dup1\n        /* \"Project/TechnoLime.sol\":874:882  products */\n      0x01\n        /* \"Project/TechnoLime.sol\":883:894  productName */\n      dup7\n      dup7\n        /* \"Project/TechnoLime.sol\":874:895  products[productName] */\n      mload(0x40)\n      tag_47\n      swap3\n      swap2\n      swap1\n      tag_43\n      jump\t// in\n    tag_47:\n      swap1\n      dup2\n      mstore\n      0x20\n      add\n      mload(0x40)\n      dup1\n      swap2\n      sub\n      swap1\n      keccak256\n        /* \"Project/TechnoLime.sol\":874:905  products[productName] = product */\n      0x00\n      dup3\n      add\n      mload\n      dup2\n      0x00\n      add\n      sstore\n      0x20\n      dup3\n      add\n      mload\n      dup2\n      0x01\n      add\n      sstore\n      0x40\n      dup3\n      add\n      mload\n      dup2\n      0x02\n      add\n      swap1\n      dup1\n      mload\n      swap1\n      0x20\n      add\n      swap1\n      tag_48\n      swap3\n      swap2\n      swap1\n      tag_49\n      jump\t// in\n    tag_48:\n      pop\n      0x60\n      dup3\n      add\n      mload\n      dup2\n      0x03\n      add\n      exp(0x0100, 0x00)\n      dup2\n      sload\n      dup2\n      0xff\n      mul\n      not\n      and\n      swap1\n      dup4\n      iszero\n      iszero\n      mul\n      or\n      swap1\n      sstore\n      pop\n      swap1\n      pop\n      pop\n        /* \"Project/TechnoLime.sol\":921:938  availableProducts */\n      0x00\n        /* \"Project/TechnoLime.sol\":944:955  productName */\n      dup6\n      dup6\n        /* \"Project/TechnoLime.sol\":921:956  availableProducts.push(productName) */\n      swap1\n      swap2\n      dup1\n      0x01\n      dup2\n      sload\n      add\n      dup1\n      dup3\n      sstore\n      dup1\n      swap2\n      pop\n      pop\n      0x01\n      swap1\n      sub\n      swap1\n      0x00\n      mstore\n      keccak256(0x00, 0x20)\n      add\n      0x00\n      swap1\n      swap2\n      swap3\n      swap1\n      swap2\n      swap3\n      swap1\n      swap2\n      swap3\n      swap1\n      swap2\n      swap3\n      pop\n      swap2\n      swap1\n      tag_51\n      swap3\n      swap2\n      swap1\n      tag_52\n      jump\t// in\n    tag_51:\n      pop\n        /* \"Project/TechnoLime.sol\":701:969  {\r... */\n      pop\n        /* \"Project/TechnoLime.sol\":667:1138  if (!products[productName].exists){\r... */\n      jump(tag_53)\n    tag_44:\n        /* \"Project/TechnoLime.sol\":1103:1125  Errors.ProductExists() */\n      mload(0x40)\n      0xb185df3a00000000000000000000000000000000000000000000000000000000\n      dup2\n      mstore\n      0x04\n      add\n      mload(0x40)\n      dup1\n      swap2\n      sub\n      swap1\n      revert\n        /* \"Project/TechnoLime.sol\":667:1138  if (!products[productName].exists){\r... */\n    tag_53:\n        /* \"Project/TechnoLime.sol\":567:1155  function addNewProduct(string calldata productName, uint _price,uint _quantity) external{\r... */\n      pop\n      pop\n      pop\n      pop\n      jump\t// out\n        /* \"Project/TechnoLime.sol\":1163:1532  function updateQuantity(string calldata productName,uint _quantity) external{\r... */\n    tag_24:\n        /* \"Project/TechnoLime.sol\":1254:1262  products */\n      0x01\n        /* \"Project/TechnoLime.sol\":1263:1274  productName */\n      dup4\n      dup4\n        /* \"Project/TechnoLime.sol\":1254:1275  products[productName] */\n      mload(0x40)\n      tag_55\n      swap3\n      swap2\n      swap1\n      tag_43\n      jump\t// in\n    tag_55:\n      swap1\n      dup2\n      mstore\n      0x20\n      add\n      mload(0x40)\n      dup1\n      swap2\n      sub\n      swap1\n      keccak256\n        /* \"Project/TechnoLime.sol\":1254:1282  products[productName].exists */\n      0x03\n      add\n      0x00\n      swap1\n      sload\n      swap1\n      0x0100\n      exp\n      swap1\n      div\n      0xff\n      and\n        /* \"Project/TechnoLime.sol\":1250:1525  if (products[productName].exists){\r... */\n      iszero\n      tag_56\n      jumpi\n        /* \"Project/TechnoLime.sol\":1332:1341  _quantity */\n      dup1\n        /* \"Project/TechnoLime.sol\":1298:1306  products */\n      0x01\n        /* \"Project/TechnoLime.sol\":1307:1318  productName */\n      dup5\n      dup5\n        /* \"Project/TechnoLime.sol\":1298:1319  products[productName] */\n      mload(0x40)\n      tag_57\n      swap3\n      swap2\n      swap1\n      tag_43\n      jump\t// in\n    tag_57:\n      swap1\n      dup2\n      mstore\n      0x20\n      add\n      mload(0x40)\n      dup1\n      swap2\n      sub\n      swap1\n      keccak256\n        /* \"Project/TechnoLime.sol\":1298:1328  products[productName].quantity */\n      0x01\n      add\n      0x00\n        /* \"Project/TechnoLime.sol\":1298:1341  products[productName].quantity += _quantity */\n      dup3\n      dup3\n      sload\n      tag_58\n      swap2\n      swap1\n      tag_59\n      jump\t// in\n    tag_58:\n      swap3\n      pop\n      pop\n      dup2\n      swap1\n      sstore\n      pop\n        /* \"Project/TechnoLime.sol\":1250:1525  if (products[productName].exists){\r... */\n      jump(tag_60)\n    tag_56:\n        /* \"Project/TechnoLime.sol\":1486:1513  Errors.ProductNotExistent() */\n      mload(0x40)\n      0x7e8d96a900000000000000000000000000000000000000000000000000000000\n      dup2\n      mstore\n      0x04\n      add\n      mload(0x40)\n      dup1\n      swap2\n      sub\n      swap1\n      revert\n        /* \"Project/TechnoLime.sol\":1250:1525  if (products[productName].exists){\r... */\n    tag_60:\n        /* \"Project/TechnoLime.sol\":1163:1532  function updateQuantity(string calldata productName,uint _quantity) external{\r... */\n      pop\n      pop\n      pop\n      jump\t// out\n        /* \"Project/TechnoLime.sol\":2914:3123  function checkProductBuyers(uint ProductId) external view returns (address[] memory){\r... */\n    tag_29:\n        /* \"Project/TechnoLime.sol\":2981:2997  address[] memory */\n      0x60\n        /* \"Project/TechnoLime.sol\":3024:3041  availableProducts */\n      0x00\n        /* \"Project/TechnoLime.sol\":3024:3048  availableProducts.length */\n      dup1\n      sload\n      swap1\n      pop\n        /* \"Project/TechnoLime.sol\":3012:3021  ProductId */\n      dup3\n        /* \"Project/TechnoLime.sol\":3012:3048  ProductId < availableProducts.length */\n      lt\n        /* \"Project/TechnoLime.sol\":3009:3115  if(ProductId < availableProducts.length)\r... */\n      iszero\n      tag_62\n      jumpi\n        /* \"Project/TechnoLime.sol\":3070:3078  products */\n      0x01\n        /* \"Project/TechnoLime.sol\":3079:3096  availableProducts */\n      0x00\n        /* \"Project/TechnoLime.sol\":3097:3106  ProductId */\n      dup4\n        /* \"Project/TechnoLime.sol\":3079:3107  availableProducts[ProductId] */\n      dup2\n      sload\n      dup2\n      lt\n      tag_63\n      jumpi\n      tag_64\n      tag_65\n      jump\t// in\n    tag_64:\n    tag_63:\n      swap1\n      0x00\n      mstore\n      keccak256(0x00, 0x20)\n      add\n        /* \"Project/TechnoLime.sol\":3070:3108  products[availableProducts[ProductId]] */\n      mload(0x40)\n      tag_67\n      swap2\n      swap1\n      tag_68\n      jump\t// in\n    tag_67:\n      swap1\n      dup2\n      mstore\n      0x20\n      add\n      mload(0x40)\n      dup1\n      swap2\n      sub\n      swap1\n      keccak256\n        /* \"Project/TechnoLime.sol\":3070:3115  products[availableProducts[ProductId]].buyers */\n      0x02\n      add\n        /* \"Project/TechnoLime.sol\":3063:3115  return products[availableProducts[ProductId]].buyers */\n      dup1\n      sload\n      dup1\n      0x20\n      mul\n      0x20\n      add\n      mload(0x40)\n      swap1\n      dup2\n      add\n      0x40\n      mstore\n      dup1\n      swap3\n      swap2\n      swap1\n      dup2\n      dup2\n      mstore\n      0x20\n      add\n      dup3\n      dup1\n      sload\n      dup1\n      iszero\n      tag_69\n      jumpi\n      0x20\n      mul\n      dup3\n      add\n      swap2\n      swap1\n      0x00\n      mstore\n      keccak256(0x00, 0x20)\n      swap1\n    tag_70:\n      dup2\n      0x00\n      swap1\n      sload\n      swap1\n      0x0100\n      exp\n      swap1\n      div\n      0xffffffffffffffffffffffffffffffffffffffff\n      and\n      0xffffffffffffffffffffffffffffffffffffffff\n      and\n      dup2\n      mstore\n      0x20\n      add\n      swap1\n      0x01\n      add\n      swap1\n      dup1\n      dup4\n      gt\n      tag_70\n      jumpi\n    tag_69:\n      pop\n      pop\n      pop\n      pop\n      pop\n      swap1\n      pop\n      jump(tag_61)\n        /* \"Project/TechnoLime.sol\":3009:3115  if(ProductId < availableProducts.length)\r... */\n    tag_62:\n        /* \"Project/TechnoLime.sol\":2914:3123  function checkProductBuyers(uint ProductId) external view returns (address[] memory){\r... */\n    tag_61:\n      swap2\n      swap1\n      pop\n      jump\t// out\n        /* \"Project/TechnoLime.sol\":1634:2906  function buyProduct (uint ProductId)  external payable { \r... */\n    tag_34:\n        /* \"Project/TechnoLime.sol\":1800:1817  availableProducts */\n      0x00\n        /* \"Project/TechnoLime.sol\":1800:1824  availableProducts.length */\n      dup1\n      sload\n      swap1\n      pop\n        /* \"Project/TechnoLime.sol\":1788:1797  ProductId */\n      dup2\n        /* \"Project/TechnoLime.sol\":1788:1824  ProductId < availableProducts.length */\n      lt\n        /* \"Project/TechnoLime.sol\":1788:1871  ProductId < availableProducts.length && !transactions[ProductId][msg.sender].exists */\n      dup1\n      iszero\n      tag_72\n      jumpi\n      pop\n        /* \"Project/TechnoLime.sol\":1829:1841  transactions */\n      0x02\n        /* \"Project/TechnoLime.sol\":1829:1852  transactions[ProductId] */\n      0x00\n        /* \"Project/TechnoLime.sol\":1842:1851  ProductId */\n      dup3\n        /* \"Project/TechnoLime.sol\":1829:1852  transactions[ProductId] */\n      dup2\n      mstore\n      0x20\n      add\n      swap1\n      dup2\n      mstore\n      0x20\n      add\n      0x00\n      keccak256\n        /* \"Project/TechnoLime.sol\":1829:1864  transactions[ProductId][msg.sender] */\n      0x00\n        /* \"Project/TechnoLime.sol\":1853:1863  msg.sender */\n      caller\n        /* \"Project/TechnoLime.sol\":1829:1864  transactions[ProductId][msg.sender] */\n      0xffffffffffffffffffffffffffffffffffffffff\n      and\n      0xffffffffffffffffffffffffffffffffffffffff\n      and\n      dup2\n      mstore\n      0x20\n      add\n      swap1\n      dup2\n      mstore\n      0x20\n      add\n      0x00\n      keccak256\n        /* \"Project/TechnoLime.sol\":1829:1871  transactions[ProductId][msg.sender].exists */\n      0x02\n      add\n      0x00\n      swap1\n      sload\n      swap1\n      0x0100\n      exp\n      swap1\n      div\n      0xff\n      and\n        /* \"Project/TechnoLime.sol\":1828:1871  !transactions[ProductId][msg.sender].exists */\n      iszero\n        /* \"Project/TechnoLime.sol\":1788:1871  ProductId < availableProducts.length && !transactions[ProductId][msg.sender].exists */\n    tag_72:\n        /* \"Project/TechnoLime.sol\":1785:2878  if(ProductId < availableProducts.length && !transactions[ProductId][msg.sender].exists){\r... */\n      iszero\n      tag_73\n      jumpi\n        /* \"Project/TechnoLime.sol\":2024:2046  Product memory product */\n      0x00\n        /* \"Project/TechnoLime.sol\":2048:2056  products */\n      0x01\n        /* \"Project/TechnoLime.sol\":2057:2074  availableProducts */\n      0x00\n        /* \"Project/TechnoLime.sol\":2075:2084  ProductId */\n      dup4\n        /* \"Project/TechnoLime.sol\":2057:2085  availableProducts[ProductId] */\n      dup2\n      sload\n      dup2\n      lt\n      tag_74\n      jumpi\n      tag_75\n      tag_65\n      jump\t// in\n    tag_75:\n    tag_74:\n      swap1\n      0x00\n      mstore\n      keccak256(0x00, 0x20)\n      add\n        /* \"Project/TechnoLime.sol\":2048:2086  products[availableProducts[ProductId]] */\n      mload(0x40)\n      tag_77\n      swap2\n      swap1\n      tag_68\n      jump\t// in\n    tag_77:\n      swap1\n      dup2\n      mstore\n      0x20\n      add\n      mload(0x40)\n      dup1\n      swap2\n      sub\n      swap1\n      keccak256\n        /* \"Project/TechnoLime.sol\":2024:2086  Product memory product= products[availableProducts[ProductId]] */\n      mload(0x40)\n      dup1\n      0x80\n      add\n      0x40\n      mstore\n      swap1\n      dup2\n      0x00\n      dup3\n      add\n      sload\n      dup2\n      mstore\n      0x20\n      add\n      0x01\n      dup3\n      add\n      sload\n      dup2\n      mstore\n      0x20\n      add\n      0x02\n      dup3\n      add\n      dup1\n      sload\n      dup1\n      0x20\n      mul\n      0x20\n      add\n      mload(0x40)\n      swap1\n      dup2\n      add\n      0x40\n      mstore\n      dup1\n      swap3\n      swap2\n      swap1\n      dup2\n      dup2\n      mstore\n      0x20\n      add\n      dup3\n      dup1\n      sload\n      dup1\n      iszero\n      tag_78\n      jumpi\n      0x20\n      mul\n      dup3\n      add\n      swap2\n      swap1\n      0x00\n      mstore\n      keccak256(0x00, 0x20)\n      swap1\n    tag_79:\n      dup2\n      0x00\n      swap1\n      sload\n      swap1\n      0x0100\n      exp\n      swap1\n      div\n      0xffffffffffffffffffffffffffffffffffffffff\n      and\n      0xffffffffffffffffffffffffffffffffffffffff\n      and\n      dup2\n      mstore\n      0x20\n      add\n      swap1\n      0x01\n      add\n      swap1\n      dup1\n      dup4\n      gt\n      tag_79\n      jumpi\n    tag_78:\n      pop\n      pop\n      pop\n      pop\n      pop\n      dup2\n      mstore\n      0x20\n      add\n      0x03\n      dup3\n      add\n      0x00\n      swap1\n      sload\n      swap1\n      0x0100\n      exp\n      swap1\n      div\n      0xff\n      and\n      iszero\n      iszero\n      iszero\n      iszero\n      dup2\n      mstore\n      pop\n      pop\n      swap1\n      pop\n        /* \"Project/TechnoLime.sol\":2120:2127  product */\n      dup1\n        /* \"Project/TechnoLime.sol\":2120:2133  product.price */\n      0x00\n      add\n      mload\n        /* \"Project/TechnoLime.sol\":2108:2117  msg.value */\n      callvalue\n        /* \"Project/TechnoLime.sol\":2108:2133  msg.value < product.price */\n      lt\n        /* \"Project/TechnoLime.sol\":2105:2185  if(msg.value < product.price)\r... */\n      iszero\n      tag_80\n      jumpi\n        /* \"Project/TechnoLime.sol\":2163:2185  Errors.LessThanPrice() */\n      mload(0x40)\n      0x538d76e800000000000000000000000000000000000000000000000000000000\n      dup2\n      mstore\n      0x04\n      add\n      mload(0x40)\n      dup1\n      swap2\n      sub\n      swap1\n      revert\n        /* \"Project/TechnoLime.sol\":2105:2185  if(msg.value < product.price)\r... */\n    tag_80:\n        /* \"Project/TechnoLime.sol\":2206:2239  Transaction memory newTransaction */\n      tag_81\n      tag_82\n      jump\t// in\n    tag_81:\n        /* \"Project/TechnoLime.sol\":2284:2296  block.number */\n      number\n        /* \"Project/TechnoLime.sol\":2258:2272  newTransaction */\n      dup2\n        /* \"Project/TechnoLime.sol\":2258:2281  newTransaction.blockNum */\n      0x00\n      add\n        /* \"Project/TechnoLime.sol\":2258:2296  newTransaction.blockNum = block.number */\n      dup2\n      dup2\n      mstore\n      pop\n      pop\n        /* \"Project/TechnoLime.sol\":2338:2345  product */\n      dup2\n        /* \"Project/TechnoLime.sol\":2338:2351  product.price */\n      0x00\n      add\n      mload\n        /* \"Project/TechnoLime.sol\":2315:2329  newTransaction */\n      dup2\n        /* \"Project/TechnoLime.sol\":2315:2335  newTransaction.price */\n      0x20\n      add\n        /* \"Project/TechnoLime.sol\":2315:2351  newTransaction.price = product.price */\n      dup2\n      dup2\n      mstore\n      pop\n      pop\n        /* \"Project/TechnoLime.sol\":2394:2398  true */\n      0x01\n        /* \"Project/TechnoLime.sol\":2370:2384  newTransaction */\n      dup2\n        /* \"Project/TechnoLime.sol\":2370:2391  newTransaction.exists */\n      0x40\n      add\n        /* \"Project/TechnoLime.sol\":2370:2398  newTransaction.exists = true */\n      swap1\n      iszero\n      iszero\n      swap1\n      dup2\n      iszero\n      iszero\n      dup2\n      mstore\n      pop\n      pop\n        /* \"Project/TechnoLime.sol\":2491:2505  newTransaction */\n      dup1\n        /* \"Project/TechnoLime.sol\":2453:2465  transactions */\n      0x02\n        /* \"Project/TechnoLime.sol\":2453:2476  transactions[ProductId] */\n      0x00\n        /* \"Project/TechnoLime.sol\":2466:2475  ProductId */\n      dup6\n        /* \"Project/TechnoLime.sol\":2453:2476  transactions[ProductId] */\n      dup2\n      mstore\n      0x20\n      add\n      swap1\n      dup2\n      mstore\n      0x20\n      add\n      0x00\n      keccak256\n        /* \"Project/TechnoLime.sol\":2453:2488  transactions[ProductId][msg.sender] */\n      0x00\n        /* \"Project/TechnoLime.sol\":2477:2487  msg.sender */\n      caller\n        /* \"Project/TechnoLime.sol\":2453:2488  transactions[ProductId][msg.sender] */\n      0xffffffffffffffffffffffffffffffffffffffff\n      and\n      0xffffffffffffffffffffffffffffffffffffffff\n      and\n      dup2\n      mstore\n      0x20\n      add\n      swap1\n      dup2\n      mstore\n      0x20\n      add\n      0x00\n      keccak256\n        /* \"Project/TechnoLime.sol\":2453:2505  transactions[ProductId][msg.sender] = newTransaction */\n      0x00\n      dup3\n      add\n      mload\n      dup2\n      0x00\n      add\n      sstore\n      0x20\n      dup3\n      add\n      mload\n      dup2\n      0x01\n      add\n      sstore\n      0x40\n      dup3\n      add\n      mload\n      dup2\n      0x02\n      add\n      exp(0x0100, 0x00)\n      dup2\n      sload\n      dup2\n      0xff\n      mul\n      not\n      and\n      swap1\n      dup4\n      iszero\n      iszero\n      mul\n      or\n      swap1\n      sstore\n      pop\n      swap1\n      pop\n      pop\n        /* \"Project/TechnoLime.sol\":2565:2575  msg.sender */\n      caller\n        /* \"Project/TechnoLime.sol\":2526:2533  product */\n      dup3\n        /* \"Project/TechnoLime.sol\":2526:2540  product.buyers */\n      0x40\n      add\n      mload\n        /* \"Project/TechnoLime.sol\":2541:2548  product */\n      dup4\n        /* \"Project/TechnoLime.sol\":2541:2555  product.buyers */\n      0x40\n      add\n      mload\n        /* \"Project/TechnoLime.sol\":2541:2562  product.buyers.length */\n      mload\n        /* \"Project/TechnoLime.sol\":2526:2563  product.buyers[product.buyers.length] */\n      dup2\n      mload\n      dup2\n      lt\n      tag_83\n      jumpi\n      tag_84\n      tag_65\n      jump\t// in\n    tag_84:\n    tag_83:\n      0x20\n      mul\n      0x20\n      add\n      add\n        /* \"Project/TechnoLime.sol\":2526:2575  product.buyers[product.buyers.length] =msg.sender */\n      swap1\n      0xffffffffffffffffffffffffffffffffffffffff\n      and\n      swap1\n      dup2\n      0xffffffffffffffffffffffffffffffffffffffff\n      and\n      dup2\n      mstore\n      pop\n      pop\n        /* \"Project/TechnoLime.sol\":2594:2601  product */\n      dup2\n        /* \"Project/TechnoLime.sol\":2594:2610  product.quantity */\n      0x20\n      add\n        /* \"Project/TechnoLime.sol\":2594:2612  product.quantity-- */\n      dup1\n      mload\n      dup1\n      swap2\n      swap1\n      tag_85\n      swap1\n      tag_86\n      jump\t// in\n    tag_85:\n      dup2\n      mstore\n      pop\n      pop\n        /* \"Project/TechnoLime.sol\":2706:2713  product */\n      dup2\n        /* \"Project/TechnoLime.sol\":2667:2675  products */\n      0x01\n        /* \"Project/TechnoLime.sol\":2676:2693  availableProducts */\n      0x00\n        /* \"Project/TechnoLime.sol\":2694:2703  ProductId */\n      dup6\n        /* \"Project/TechnoLime.sol\":2676:2704  availableProducts[ProductId] */\n      dup2\n      sload\n      dup2\n      lt\n      tag_87\n      jumpi\n      tag_88\n      tag_65\n      jump\t// in\n    tag_88:\n    tag_87:\n      swap1\n      0x00\n      mstore\n      keccak256(0x00, 0x20)\n      add\n        /* \"Project/TechnoLime.sol\":2667:2705  products[availableProducts[ProductId]] */\n      mload(0x40)\n      tag_90\n      swap2\n      swap1\n      tag_68\n      jump\t// in\n    tag_90:\n      swap1\n      dup2\n      mstore\n      0x20\n      add\n      mload(0x40)\n      dup1\n      swap2\n      sub\n      swap1\n      keccak256\n        /* \"Project/TechnoLime.sol\":2667:2713  products[availableProducts[ProductId]]=product */\n      0x00\n      dup3\n      add\n      mload\n      dup2\n      0x00\n      add\n      sstore\n      0x20\n      dup3\n      add\n      mload\n      dup2\n      0x01\n      add\n      sstore\n      0x40\n      dup3\n      add\n      mload\n      dup2\n      0x02\n      add\n      swap1\n      dup1\n      mload\n      swap1\n      0x20\n      add\n      swap1\n      tag_91\n      swap3\n      swap2\n      swap1\n      tag_49\n      jump\t// in\n    tag_91:\n      pop\n      0x60\n      dup3\n      add\n      mload\n      dup2\n      0x03\n      add\n      exp(0x0100, 0x00)\n      dup2\n      sload\n      dup2\n      0xff\n      mul\n      not\n      and\n      swap1\n      dup4\n      iszero\n      iszero\n      mul\n      or\n      swap1\n      sstore\n      pop\n      swap1\n      pop\n      pop\n        /* \"Project/TechnoLime.sol\":1872:2729  {\r... */\n      pop\n      pop\n        /* \"Project/TechnoLime.sol\":1785:2878  if(ProductId < availableProducts.length && !transactions[ProductId][msg.sender].exists){\r... */\n      jump(tag_92)\n    tag_73:\n        /* \"Project/TechnoLime.sol\":2827:2862  Errors.ItemIdWrongOrBoughtAlready() */\n      mload(0x40)\n      0xd42c9b8b00000000000000000000000000000000000000000000000000000000\n      dup2\n      mstore\n      0x04\n      add\n      mload(0x40)\n      dup1\n      swap2\n      sub\n      swap1\n      revert\n        /* \"Project/TechnoLime.sol\":1785:2878  if(ProductId < availableProducts.length && !transactions[ProductId][msg.sender].exists){\r... */\n    tag_92:\n        /* \"Project/TechnoLime.sol\":1634:2906  function buyProduct (uint ProductId)  external payable { \r... */\n      pop\n      jump\t// out\n        /* \"Project/TechnoLime.sol\":303:336  string[] public availableProducts */\n    tag_38:\n      0x00\n      dup2\n      dup2\n      sload\n      dup2\n      lt\n      tag_93\n      jumpi\n      0x00\n      dup1\n      revert\n    tag_93:\n      swap1\n      0x00\n      mstore\n      keccak256(0x00, 0x20)\n      add\n      0x00\n      swap2\n      pop\n      swap1\n      pop\n      dup1\n      sload\n      tag_95\n      swap1\n      tag_96\n      jump\t// in\n    tag_95:\n      dup1\n      0x1f\n      add\n      0x20\n      dup1\n      swap2\n      div\n      mul\n      0x20\n      add\n      mload(0x40)\n      swap1\n      dup2\n      add\n      0x40\n      mstore\n      dup1\n      swap3\n      swap2\n      swap1\n      dup2\n      dup2\n      mstore\n      0x20\n      add\n      dup3\n      dup1\n      sload\n      tag_97\n      swap1\n      tag_96\n      jump\t// in\n    tag_97:\n      dup1\n      iszero\n      tag_98\n      jumpi\n      dup1\n      0x1f\n      lt\n      tag_99\n      jumpi\n      0x0100\n      dup1\n      dup4\n      sload\n      div\n      mul\n      dup4\n      mstore\n      swap2\n      0x20\n      add\n      swap2\n      jump(tag_98)\n    tag_99:\n      dup3\n      add\n      swap2\n      swap1\n      0x00\n      mstore\n      keccak256(0x00, 0x20)\n      swap1\n    tag_100:\n      dup2\n      sload\n      dup2\n      mstore\n      swap1\n      0x01\n      add\n      swap1\n      0x20\n      add\n      dup1\n      dup4\n      gt\n      tag_100\n      jumpi\n      dup3\n      swap1\n      sub\n      0x1f\n      and\n      dup3\n      add\n      swap2\n    tag_98:\n      pop\n      pop\n      pop\n      pop\n      pop\n      dup2\n      jump\t// out\n    tag_46:\n      mload(0x40)\n      dup1\n      0x80\n      add\n      0x40\n      mstore\n      dup1\n      0x00\n      dup2\n      mstore\n      0x20\n      add\n      0x00\n      dup2\n      mstore\n      0x20\n      add\n      0x60\n      dup2\n      mstore\n      0x20\n      add\n      iszero(iszero(0x00))\n      dup2\n      mstore\n      pop\n      swap1\n      jump\t// out\n    tag_49:\n      dup3\n      dup1\n      sload\n      dup3\n      dup3\n      sstore\n      swap1\n      0x00\n      mstore\n      keccak256(0x00, 0x20)\n      swap1\n      dup2\n      add\n      swap3\n      dup3\n      iszero\n      tag_101\n      jumpi\n      swap2\n      0x20\n      mul\n      dup3\n      add\n    tag_102:\n      dup3\n      dup2\n      gt\n      iszero\n      tag_103\n      jumpi\n      dup3\n      mload\n      dup3\n      exp(0x0100, 0x00)\n      dup2\n      sload\n      dup2\n      0xffffffffffffffffffffffffffffffffffffffff\n      mul\n      not\n      and\n      swap1\n      dup4\n      0xffffffffffffffffffffffffffffffffffffffff\n      and\n      mul\n      or\n      swap1\n      sstore\n      pop\n      swap2\n      0x20\n      add\n      swap2\n      swap1\n      0x01\n      add\n      swap1\n      jump(tag_102)\n    tag_103:\n    tag_101:\n      pop\n      swap1\n      pop\n      tag_104\n      swap2\n      swap1\n      tag_105\n      jump\t// in\n    tag_104:\n      pop\n      swap1\n      jump\t// out\n    tag_52:\n      dup3\n      dup1\n      sload\n      tag_106\n      swap1\n      tag_96\n      jump\t// in\n    tag_106:\n      swap1\n      0x00\n      mstore\n      keccak256(0x00, 0x20)\n      swap1\n      0x1f\n      add\n      0x20\n      swap1\n      div\n      dup2\n      add\n      swap3\n      dup3\n      tag_108\n      jumpi\n      0x00\n      dup6\n      sstore\n      jump(tag_107)\n    tag_108:\n      dup3\n      0x1f\n      lt\n      tag_109\n      jumpi\n      dup1\n      calldataload\n      not(0xff)\n      and\n      dup4\n      dup1\n      add\n      or\n      dup6\n      sstore\n      jump(tag_107)\n    tag_109:\n      dup3\n      dup1\n      add\n      0x01\n      add\n      dup6\n      sstore\n      dup3\n      iszero\n      tag_107\n      jumpi\n      swap2\n      dup3\n      add\n    tag_110:\n      dup3\n      dup2\n      gt\n      iszero\n      tag_111\n      jumpi\n      dup3\n      calldataload\n      dup3\n      sstore\n      swap2\n      0x20\n      add\n      swap2\n      swap1\n      0x01\n      add\n      swap1\n      jump(tag_110)\n    tag_111:\n    tag_107:\n      pop\n      swap1\n      pop\n      tag_112\n      swap2\n      swap1\n      tag_105\n      jump\t// in\n    tag_112:\n      pop\n      swap1\n      jump\t// out\n    tag_82:\n      mload(0x40)\n      dup1\n      0x60\n      add\n      0x40\n      mstore\n      dup1\n      0x00\n      dup2\n      mstore\n      0x20\n      add\n      0x00\n      dup2\n      mstore\n      0x20\n      add\n      iszero(iszero(0x00))\n      dup2\n      mstore\n      pop\n      swap1\n      jump\t// out\n    tag_105:\n    tag_113:\n      dup1\n      dup3\n      gt\n      iszero\n      tag_114\n      jumpi\n      0x00\n      dup2\n      0x00\n      swap1\n      sstore\n      pop\n      0x01\n      add\n      jump(tag_113)\n    tag_114:\n      pop\n      swap1\n      jump\t// out\n        /* \"#utility.yul\":7:419   */\n    tag_116:\n        /* \"#utility.yul\":85:90   */\n      0x00\n        /* \"#utility.yul\":110:176   */\n      tag_118\n        /* \"#utility.yul\":126:175   */\n      tag_119\n        /* \"#utility.yul\":168:174   */\n      dup5\n        /* \"#utility.yul\":126:175   */\n      tag_120\n      jump\t// in\n    tag_119:\n        /* \"#utility.yul\":110:176   */\n      tag_121\n      jump\t// in\n    tag_118:\n        /* \"#utility.yul\":101:176   */\n      swap1\n      pop\n        /* \"#utility.yul\":199:205   */\n      dup3\n        /* \"#utility.yul\":192:197   */\n      dup2\n        /* \"#utility.yul\":185:206   */\n      mstore\n        /* \"#utility.yul\":237:241   */\n      0x20\n        /* \"#utility.yul\":230:235   */\n      dup2\n        /* \"#utility.yul\":226:242   */\n      add\n        /* \"#utility.yul\":275:278   */\n      dup5\n        /* \"#utility.yul\":266:272   */\n      dup5\n        /* \"#utility.yul\":261:264   */\n      dup5\n        /* \"#utility.yul\":257:273   */\n      add\n        /* \"#utility.yul\":254:279   */\n      gt\n        /* \"#utility.yul\":251:363   */\n      iszero\n      tag_122\n      jumpi\n        /* \"#utility.yul\":282:361   */\n      tag_123\n      tag_124\n      jump\t// in\n    tag_123:\n        /* \"#utility.yul\":251:363   */\n    tag_122:\n        /* \"#utility.yul\":372:413   */\n      tag_125\n        /* \"#utility.yul\":406:412   */\n      dup5\n        /* \"#utility.yul\":401:404   */\n      dup3\n        /* \"#utility.yul\":396:399   */\n      dup6\n        /* \"#utility.yul\":372:413   */\n      tag_126\n      jump\t// in\n    tag_125:\n        /* \"#utility.yul\":91:419   */\n      pop\n        /* \"#utility.yul\":7:419   */\n      swap4\n      swap3\n      pop\n      pop\n      pop\n      jump\t// out\n        /* \"#utility.yul\":439:992   */\n    tag_127:\n        /* \"#utility.yul\":497:505   */\n      0x00\n        /* \"#utility.yul\":507:513   */\n      dup1\n        /* \"#utility.yul\":557:560   */\n      dup4\n        /* \"#utility.yul\":550:554   */\n      0x1f\n        /* \"#utility.yul\":542:548   */\n      dup5\n        /* \"#utility.yul\":538:555   */\n      add\n        /* \"#utility.yul\":534:561   */\n      slt\n        /* \"#utility.yul\":524:646   */\n      tag_129\n      jumpi\n        /* \"#utility.yul\":565:644   */\n      tag_130\n      tag_131\n      jump\t// in\n    tag_130:\n        /* \"#utility.yul\":524:646   */\n    tag_129:\n        /* \"#utility.yul\":678:684   */\n      dup3\n        /* \"#utility.yul\":665:685   */\n      calldataload\n        /* \"#utility.yul\":655:685   */\n      swap1\n      pop\n        /* \"#utility.yul\":708:726   */\n      0xffffffffffffffff\n        /* \"#utility.yul\":700:706   */\n      dup2\n        /* \"#utility.yul\":697:727   */\n      gt\n        /* \"#utility.yul\":694:811   */\n      iszero\n      tag_132\n      jumpi\n        /* \"#utility.yul\":730:809   */\n      tag_133\n      tag_134\n      jump\t// in\n    tag_133:\n        /* \"#utility.yul\":694:811   */\n    tag_132:\n        /* \"#utility.yul\":844:848   */\n      0x20\n        /* \"#utility.yul\":836:842   */\n      dup4\n        /* \"#utility.yul\":832:849   */\n      add\n        /* \"#utility.yul\":820:849   */\n      swap2\n      pop\n        /* \"#utility.yul\":898:901   */\n      dup4\n        /* \"#utility.yul\":890:894   */\n      0x01\n        /* \"#utility.yul\":882:888   */\n      dup3\n        /* \"#utility.yul\":878:895   */\n      mul\n        /* \"#utility.yul\":868:876   */\n      dup4\n        /* \"#utility.yul\":864:896   */\n      add\n        /* \"#utility.yul\":861:902   */\n      gt\n        /* \"#utility.yul\":858:986   */\n      iszero\n      tag_135\n      jumpi\n        /* \"#utility.yul\":905:984   */\n      tag_136\n      tag_137\n      jump\t// in\n    tag_136:\n        /* \"#utility.yul\":858:986   */\n    tag_135:\n        /* \"#utility.yul\":439:992   */\n      swap3\n      pop\n      swap3\n      swap1\n      pop\n      jump\t// out\n        /* \"#utility.yul\":1012:1352   */\n    tag_138:\n        /* \"#utility.yul\":1068:1073   */\n      0x00\n        /* \"#utility.yul\":1117:1120   */\n      dup3\n        /* \"#utility.yul\":1110:1114   */\n      0x1f\n        /* \"#utility.yul\":1102:1108   */\n      dup4\n        /* \"#utility.yul\":1098:1115   */\n      add\n        /* \"#utility.yul\":1094:1121   */\n      slt\n        /* \"#utility.yul\":1084:1206   */\n      tag_140\n      jumpi\n        /* \"#utility.yul\":1125:1204   */\n      tag_141\n      tag_131\n      jump\t// in\n    tag_141:\n        /* \"#utility.yul\":1084:1206   */\n    tag_140:\n        /* \"#utility.yul\":1242:1248   */\n      dup2\n        /* \"#utility.yul\":1229:1249   */\n      calldataload\n        /* \"#utility.yul\":1267:1346   */\n      tag_142\n        /* \"#utility.yul\":1342:1345   */\n      dup5\n        /* \"#utility.yul\":1334:1340   */\n      dup3\n        /* \"#utility.yul\":1327:1331   */\n      0x20\n        /* \"#utility.yul\":1319:1325   */\n      dup7\n        /* \"#utility.yul\":1315:1332   */\n      add\n        /* \"#utility.yul\":1267:1346   */\n      tag_116\n      jump\t// in\n    tag_142:\n        /* \"#utility.yul\":1258:1346   */\n      swap2\n      pop\n        /* \"#utility.yul\":1074:1352   */\n      pop\n        /* \"#utility.yul\":1012:1352   */\n      swap3\n      swap2\n      pop\n      pop\n      jump\t// out\n        /* \"#utility.yul\":1358:1497   */\n    tag_143:\n        /* \"#utility.yul\":1404:1409   */\n      0x00\n        /* \"#utility.yul\":1442:1448   */\n      dup2\n        /* \"#utility.yul\":1429:1449   */\n      calldataload\n        /* \"#utility.yul\":1420:1449   */\n      swap1\n      pop\n        /* \"#utility.yul\":1458:1491   */\n      tag_145\n        /* \"#utility.yul\":1485:1490   */\n      dup2\n        /* \"#utility.yul\":1458:1491   */\n      tag_146\n      jump\t// in\n    tag_145:\n        /* \"#utility.yul\":1358:1497   */\n      swap3\n      swap2\n      pop\n      pop\n      jump\t// out\n        /* \"#utility.yul\":1503:2177   */\n    tag_23:\n        /* \"#utility.yul\":1583:1589   */\n      0x00\n        /* \"#utility.yul\":1591:1597   */\n      dup1\n        /* \"#utility.yul\":1599:1605   */\n      0x00\n        /* \"#utility.yul\":1648:1650   */\n      0x40\n        /* \"#utility.yul\":1636:1645   */\n      dup5\n        /* \"#utility.yul\":1627:1634   */\n      dup7\n        /* \"#utility.yul\":1623:1646   */\n      sub\n        /* \"#utility.yul\":1619:1651   */\n      slt\n        /* \"#utility.yul\":1616:1735   */\n      iszero\n      tag_148\n      jumpi\n        /* \"#utility.yul\":1654:1733   */\n      tag_149\n      tag_150\n      jump\t// in\n    tag_149:\n        /* \"#utility.yul\":1616:1735   */\n    tag_148:\n        /* \"#utility.yul\":1802:1803   */\n      0x00\n        /* \"#utility.yul\":1791:1800   */\n      dup5\n        /* \"#utility.yul\":1787:1804   */\n      add\n        /* \"#utility.yul\":1774:1805   */\n      calldataload\n        /* \"#utility.yul\":1832:1850   */\n      0xffffffffffffffff\n        /* \"#utility.yul\":1824:1830   */\n      dup2\n        /* \"#utility.yul\":1821:1851   */\n      gt\n        /* \"#utility.yul\":1818:1935   */\n      iszero\n      tag_151\n      jumpi\n        /* \"#utility.yul\":1854:1933   */\n      tag_152\n      tag_153\n      jump\t// in\n    tag_152:\n        /* \"#utility.yul\":1818:1935   */\n    tag_151:\n        /* \"#utility.yul\":1967:2032   */\n      tag_154\n        /* \"#utility.yul\":2024:2031   */\n      dup7\n        /* \"#utility.yul\":2015:2021   */\n      dup3\n        /* \"#utility.yul\":2004:2013   */\n      dup8\n        /* \"#utility.yul\":2000:2022   */\n      add\n        /* \"#utility.yul\":1967:2032   */\n      tag_127\n      jump\t// in\n    tag_154:\n        /* \"#utility.yul\":1949:2032   */\n      swap4\n      pop\n      swap4\n      pop\n        /* \"#utility.yul\":1745:2042   */\n      pop\n        /* \"#utility.yul\":2081:2083   */\n      0x20\n        /* \"#utility.yul\":2107:2160   */\n      tag_155\n        /* \"#utility.yul\":2152:2159   */\n      dup7\n        /* \"#utility.yul\":2143:2149   */\n      dup3\n        /* \"#utility.yul\":2132:2141   */\n      dup8\n        /* \"#utility.yul\":2128:2150   */\n      add\n        /* \"#utility.yul\":2107:2160   */\n      tag_143\n      jump\t// in\n    tag_155:\n        /* \"#utility.yul\":2097:2160   */\n      swap2\n      pop\n        /* \"#utility.yul\":2052:2170   */\n      pop\n        /* \"#utility.yul\":1503:2177   */\n      swap3\n      pop\n      swap3\n      pop\n      swap3\n      jump\t// out\n        /* \"#utility.yul\":2183:3002   */\n    tag_18:\n        /* \"#utility.yul\":2272:2278   */\n      0x00\n        /* \"#utility.yul\":2280:2286   */\n      dup1\n        /* \"#utility.yul\":2288:2294   */\n      0x00\n        /* \"#utility.yul\":2296:2302   */\n      dup1\n        /* \"#utility.yul\":2345:2347   */\n      0x60\n        /* \"#utility.yul\":2333:2342   */\n      dup6\n        /* \"#utility.yul\":2324:2331   */\n      dup8\n        /* \"#utility.yul\":2320:2343   */\n      sub\n        /* \"#utility.yul\":2316:2348   */\n      slt\n        /* \"#utility.yul\":2313:2432   */\n      iszero\n      tag_157\n      jumpi\n        /* \"#utility.yul\":2351:2430   */\n      tag_158\n      tag_150\n      jump\t// in\n    tag_158:\n        /* \"#utility.yul\":2313:2432   */\n    tag_157:\n        /* \"#utility.yul\":2499:2500   */\n      0x00\n        /* \"#utility.yul\":2488:2497   */\n      dup6\n        /* \"#utility.yul\":2484:2501   */\n      add\n        /* \"#utility.yul\":2471:2502   */\n      calldataload\n        /* \"#utility.yul\":2529:2547   */\n      0xffffffffffffffff\n        /* \"#utility.yul\":2521:2527   */\n      dup2\n        /* \"#utility.yul\":2518:2548   */\n      gt\n        /* \"#utility.yul\":2515:2632   */\n      iszero\n      tag_159\n      jumpi\n        /* \"#utility.yul\":2551:2630   */\n      tag_160\n      tag_153\n      jump\t// in\n    tag_160:\n        /* \"#utility.yul\":2515:2632   */\n    tag_159:\n        /* \"#utility.yul\":2664:2729   */\n      tag_161\n        /* \"#utility.yul\":2721:2728   */\n      dup8\n        /* \"#utility.yul\":2712:2718   */\n      dup3\n        /* \"#utility.yul\":2701:2710   */\n      dup9\n        /* \"#utility.yul\":2697:2719   */\n      add\n        /* \"#utility.yul\":2664:2729   */\n      tag_127\n      jump\t// in\n    tag_161:\n        /* \"#utility.yul\":2646:2729   */\n      swap5\n      pop\n      swap5\n      pop\n        /* \"#utility.yul\":2442:2739   */\n      pop\n        /* \"#utility.yul\":2778:2780   */\n      0x20\n        /* \"#utility.yul\":2804:2857   */\n      tag_162\n        /* \"#utility.yul\":2849:2856   */\n      dup8\n        /* \"#utility.yul\":2840:2846   */\n      dup3\n        /* \"#utility.yul\":2829:2838   */\n      dup9\n        /* \"#utility.yul\":2825:2847   */\n      add\n        /* \"#utility.yul\":2804:2857   */\n      tag_143\n      jump\t// in\n    tag_162:\n        /* \"#utility.yul\":2794:2857   */\n      swap3\n      pop\n        /* \"#utility.yul\":2749:2867   */\n      pop\n        /* \"#utility.yul\":2906:2908   */\n      0x40\n        /* \"#utility.yul\":2932:2985   */\n      tag_163\n        /* \"#utility.yul\":2977:2984   */\n      dup8\n        /* \"#utility.yul\":2968:2974   */\n      dup3\n        /* \"#utility.yul\":2957:2966   */\n      dup9\n        /* \"#utility.yul\":2953:2975   */\n      add\n        /* \"#utility.yul\":2932:2985   */\n      tag_143\n      jump\t// in\n    tag_163:\n        /* \"#utility.yul\":2922:2985   */\n      swap2\n      pop\n        /* \"#utility.yul\":2877:2995   */\n      pop\n        /* \"#utility.yul\":2183:3002   */\n      swap3\n      swap6\n      swap2\n      swap5\n      pop\n      swap3\n      pop\n      jump\t// out\n        /* \"#utility.yul\":3008:3517   */\n    tag_11:\n        /* \"#utility.yul\":3077:3083   */\n      0x00\n        /* \"#utility.yul\":3126:3128   */\n      0x20\n        /* \"#utility.yul\":3114:3123   */\n      dup3\n        /* \"#utility.yul\":3105:3112   */\n      dup5\n        /* \"#utility.yul\":3101:3124   */\n      sub\n        /* \"#utility.yul\":3097:3129   */\n      slt\n        /* \"#utility.yul\":3094:3213   */\n      iszero\n      tag_165\n      jumpi\n        /* \"#utility.yul\":3132:3211   */\n      tag_166\n      tag_150\n      jump\t// in\n    tag_166:\n        /* \"#utility.yul\":3094:3213   */\n    tag_165:\n        /* \"#utility.yul\":3280:3281   */\n      0x00\n        /* \"#utility.yul\":3269:3278   */\n      dup3\n        /* \"#utility.yul\":3265:3282   */\n      add\n        /* \"#utility.yul\":3252:3283   */\n      calldataload\n        /* \"#utility.yul\":3310:3328   */\n      0xffffffffffffffff\n        /* \"#utility.yul\":3302:3308   */\n      dup2\n        /* \"#utility.yul\":3299:3329   */\n      gt\n        /* \"#utility.yul\":3296:3413   */\n      iszero\n      tag_167\n      jumpi\n        /* \"#utility.yul\":3332:3411   */\n      tag_168\n      tag_153\n      jump\t// in\n    tag_168:\n        /* \"#utility.yul\":3296:3413   */\n    tag_167:\n        /* \"#utility.yul\":3437:3500   */\n      tag_169\n        /* \"#utility.yul\":3492:3499   */\n      dup5\n        /* \"#utility.yul\":3483:3489   */\n      dup3\n        /* \"#utility.yul\":3472:3481   */\n      dup6\n        /* \"#utility.yul\":3468:3490   */\n      add\n        /* \"#utility.yul\":3437:3500   */\n      tag_138\n      jump\t// in\n    tag_169:\n        /* \"#utility.yul\":3427:3500   */\n      swap2\n      pop\n        /* \"#utility.yul\":3223:3510   */\n      pop\n        /* \"#utility.yul\":3008:3517   */\n      swap3\n      swap2\n      pop\n      pop\n      jump\t// out\n        /* \"#utility.yul\":3523:3852   */\n    tag_28:\n        /* \"#utility.yul\":3582:3588   */\n      0x00\n        /* \"#utility.yul\":3631:3633   */\n      0x20\n        /* \"#utility.yul\":3619:3628   */\n      dup3\n        /* \"#utility.yul\":3610:3617   */\n      dup5\n        /* \"#utility.yul\":3606:3629   */\n      sub\n        /* \"#utility.yul\":3602:3634   */\n      slt\n        /* \"#utility.yul\":3599:3718   */\n      iszero\n      tag_171\n      jumpi\n        /* \"#utility.yul\":3637:3716   */\n      tag_172\n      tag_150\n      jump\t// in\n    tag_172:\n        /* \"#utility.yul\":3599:3718   */\n    tag_171:\n        /* \"#utility.yul\":3757:3758   */\n      0x00\n        /* \"#utility.yul\":3782:3835   */\n      tag_173\n        /* \"#utility.yul\":3827:3834   */\n      dup5\n        /* \"#utility.yul\":3818:3824   */\n      dup3\n        /* \"#utility.yul\":3807:3816   */\n      dup6\n        /* \"#utility.yul\":3803:3825   */\n      add\n        /* \"#utility.yul\":3782:3835   */\n      tag_143\n      jump\t// in\n    tag_173:\n        /* \"#utility.yul\":3772:3835   */\n      swap2\n      pop\n        /* \"#utility.yul\":3728:3845   */\n      pop\n        /* \"#utility.yul\":3523:3852   */\n      swap3\n      swap2\n      pop\n      pop\n      jump\t// out\n        /* \"#utility.yul\":3858:4037   */\n    tag_174:\n        /* \"#utility.yul\":3927:3937   */\n      0x00\n        /* \"#utility.yul\":3948:3994   */\n      tag_176\n        /* \"#utility.yul\":3990:3993   */\n      dup4\n        /* \"#utility.yul\":3982:3988   */\n      dup4\n        /* \"#utility.yul\":3948:3994   */\n      tag_177\n      jump\t// in\n    tag_176:\n        /* \"#utility.yul\":4026:4030   */\n      0x20\n        /* \"#utility.yul\":4021:4024   */\n      dup4\n        /* \"#utility.yul\":4017:4031   */\n      add\n        /* \"#utility.yul\":4003:4031   */\n      swap1\n      pop\n        /* \"#utility.yul\":3858:4037   */\n      swap3\n      swap2\n      pop\n      pop\n      jump\t// out\n        /* \"#utility.yul\":4043:4151   */\n    tag_177:\n        /* \"#utility.yul\":4120:4144   */\n      tag_179\n        /* \"#utility.yul\":4138:4143   */\n      dup2\n        /* \"#utility.yul\":4120:4144   */\n      tag_180\n      jump\t// in\n    tag_179:\n        /* \"#utility.yul\":4115:4118   */\n      dup3\n        /* \"#utility.yul\":4108:4145   */\n      mstore\n        /* \"#utility.yul\":4043:4151   */\n      pop\n      pop\n      jump\t// out\n        /* \"#utility.yul\":4187:4919   */\n    tag_181:\n        /* \"#utility.yul\":4306:4309   */\n      0x00\n        /* \"#utility.yul\":4335:4389   */\n      tag_183\n        /* \"#utility.yul\":4383:4388   */\n      dup3\n        /* \"#utility.yul\":4335:4389   */\n      tag_184\n      jump\t// in\n    tag_183:\n        /* \"#utility.yul\":4405:4491   */\n      tag_185\n        /* \"#utility.yul\":4484:4490   */\n      dup2\n        /* \"#utility.yul\":4479:4482   */\n      dup6\n        /* \"#utility.yul\":4405:4491   */\n      tag_186\n      jump\t// in\n    tag_185:\n        /* \"#utility.yul\":4398:4491   */\n      swap4\n      pop\n        /* \"#utility.yul\":4515:4571   */\n      tag_187\n        /* \"#utility.yul\":4565:4570   */\n      dup4\n        /* \"#utility.yul\":4515:4571   */\n      tag_188\n      jump\t// in\n    tag_187:\n        /* \"#utility.yul\":4594:4601   */\n      dup1\n        /* \"#utility.yul\":4625:4626   */\n      0x00\n        /* \"#utility.yul\":4610:4894   */\n    tag_189:\n        /* \"#utility.yul\":4635:4641   */\n      dup4\n        /* \"#utility.yul\":4632:4633   */\n      dup2\n        /* \"#utility.yul\":4629:4642   */\n      lt\n        /* \"#utility.yul\":4610:4894   */\n      iszero\n      tag_191\n      jumpi\n        /* \"#utility.yul\":4711:4717   */\n      dup2\n        /* \"#utility.yul\":4705:4718   */\n      mload\n        /* \"#utility.yul\":4738:4801   */\n      tag_192\n        /* \"#utility.yul\":4797:4800   */\n      dup9\n        /* \"#utility.yul\":4782:4795   */\n      dup3\n        /* \"#utility.yul\":4738:4801   */\n      tag_174\n      jump\t// in\n    tag_192:\n        /* \"#utility.yul\":4731:4801   */\n      swap8\n      pop\n        /* \"#utility.yul\":4824:4884   */\n      tag_193\n        /* \"#utility.yul\":4877:4883   */\n      dup4\n        /* \"#utility.yul\":4824:4884   */\n      tag_194\n      jump\t// in\n    tag_193:\n        /* \"#utility.yul\":4814:4884   */\n      swap3\n      pop\n        /* \"#utility.yul\":4670:4894   */\n      pop\n        /* \"#utility.yul\":4657:4658   */\n      0x01\n        /* \"#utility.yul\":4654:4655   */\n      dup2\n        /* \"#utility.yul\":4650:4659   */\n      add\n        /* \"#utility.yul\":4645:4659   */\n      swap1\n      pop\n        /* \"#utility.yul\":4610:4894   */\n      jump(tag_189)\n    tag_191:\n        /* \"#utility.yul\":4614:4628   */\n      pop\n        /* \"#utility.yul\":4910:4913   */\n      dup6\n        /* \"#utility.yul\":4903:4913   */\n      swap4\n      pop\n        /* \"#utility.yul\":4311:4919   */\n      pop\n      pop\n      pop\n        /* \"#utility.yul\":4187:4919   */\n      swap3\n      swap2\n      pop\n      pop\n      jump\t// out\n        /* \"#utility.yul\":4925:5034   */\n    tag_195:\n        /* \"#utility.yul\":5006:5027   */\n      tag_197\n        /* \"#utility.yul\":5021:5026   */\n      dup2\n        /* \"#utility.yul\":5006:5027   */\n      tag_198\n      jump\t// in\n    tag_197:\n        /* \"#utility.yul\":5001:5004   */\n      dup3\n        /* \"#utility.yul\":4994:5028   */\n      mstore\n        /* \"#utility.yul\":4925:5034   */\n      pop\n      pop\n      jump\t// out\n        /* \"#utility.yul\":5064:5381   */\n    tag_199:\n        /* \"#utility.yul\":5180:5183   */\n      0x00\n        /* \"#utility.yul\":5201:5290   */\n      tag_201\n        /* \"#utility.yul\":5283:5289   */\n      dup4\n        /* \"#utility.yul\":5278:5281   */\n      dup6\n        /* \"#utility.yul\":5201:5290   */\n      tag_202\n      jump\t// in\n    tag_201:\n        /* \"#utility.yul\":5194:5290   */\n      swap4\n      pop\n        /* \"#utility.yul\":5300:5343   */\n      tag_203\n        /* \"#utility.yul\":5336:5342   */\n      dup4\n        /* \"#utility.yul\":5331:5334   */\n      dup6\n        /* \"#utility.yul\":5324:5329   */\n      dup5\n        /* \"#utility.yul\":5300:5343   */\n      tag_126\n      jump\t// in\n    tag_203:\n        /* \"#utility.yul\":5368:5374   */\n      dup3\n        /* \"#utility.yul\":5363:5366   */\n      dup5\n        /* \"#utility.yul\":5359:5375   */\n      add\n        /* \"#utility.yul\":5352:5375   */\n      swap1\n      pop\n        /* \"#utility.yul\":5064:5381   */\n      swap4\n      swap3\n      pop\n      pop\n      pop\n      jump\t// out\n        /* \"#utility.yul\":5387:5751   */\n    tag_204:\n        /* \"#utility.yul\":5475:5478   */\n      0x00\n        /* \"#utility.yul\":5503:5542   */\n      tag_206\n        /* \"#utility.yul\":5536:5541   */\n      dup3\n        /* \"#utility.yul\":5503:5542   */\n      tag_207\n      jump\t// in\n    tag_206:\n        /* \"#utility.yul\":5558:5629   */\n      tag_208\n        /* \"#utility.yul\":5622:5628   */\n      dup2\n        /* \"#utility.yul\":5617:5620   */\n      dup6\n        /* \"#utility.yul\":5558:5629   */\n      tag_209\n      jump\t// in\n    tag_208:\n        /* \"#utility.yul\":5551:5629   */\n      swap4\n      pop\n        /* \"#utility.yul\":5638:5690   */\n      tag_210\n        /* \"#utility.yul\":5683:5689   */\n      dup2\n        /* \"#utility.yul\":5678:5681   */\n      dup6\n        /* \"#utility.yul\":5671:5675   */\n      0x20\n        /* \"#utility.yul\":5664:5669   */\n      dup7\n        /* \"#utility.yul\":5660:5676   */\n      add\n        /* \"#utility.yul\":5638:5690   */\n      tag_211\n      jump\t// in\n    tag_210:\n        /* \"#utility.yul\":5715:5744   */\n      tag_212\n        /* \"#utility.yul\":5737:5743   */\n      dup2\n        /* \"#utility.yul\":5715:5744   */\n      tag_213\n      jump\t// in\n    tag_212:\n        /* \"#utility.yul\":5710:5713   */\n      dup5\n        /* \"#utility.yul\":5706:5745   */\n      add\n        /* \"#utility.yul\":5699:5745   */\n      swap2\n      pop\n        /* \"#utility.yul\":5479:5751   */\n      pop\n        /* \"#utility.yul\":5387:5751   */\n      swap3\n      swap2\n      pop\n      pop\n      jump\t// out\n        /* \"#utility.yul\":5781:6626   */\n    tag_214:\n        /* \"#utility.yul\":5884:5887   */\n      0x00\n        /* \"#utility.yul\":5921:5926   */\n      dup2\n        /* \"#utility.yul\":5915:5927   */\n      sload\n        /* \"#utility.yul\":5950:5986   */\n      tag_216\n        /* \"#utility.yul\":5976:5985   */\n      dup2\n        /* \"#utility.yul\":5950:5986   */\n      tag_96\n      jump\t// in\n    tag_216:\n        /* \"#utility.yul\":6002:6091   */\n      tag_217\n        /* \"#utility.yul\":6084:6090   */\n      dup2\n        /* \"#utility.yul\":6079:6082   */\n      dup7\n        /* \"#utility.yul\":6002:6091   */\n      tag_202\n      jump\t// in\n    tag_217:\n        /* \"#utility.yul\":5995:6091   */\n      swap5\n      pop\n        /* \"#utility.yul\":6122:6123   */\n      0x01\n        /* \"#utility.yul\":6111:6120   */\n      dup3\n        /* \"#utility.yul\":6107:6124   */\n      and\n        /* \"#utility.yul\":6138:6139   */\n      0x00\n        /* \"#utility.yul\":6133:6270   */\n      dup2\n      eq\n      tag_219\n      jumpi\n        /* \"#utility.yul\":6284:6285   */\n      0x01\n        /* \"#utility.yul\":6279:6620   */\n      dup2\n      eq\n      tag_220\n      jumpi\n        /* \"#utility.yul\":6100:6620   */\n      jump(tag_218)\n        /* \"#utility.yul\":6133:6270   */\n    tag_219:\n        /* \"#utility.yul\":6217:6221   */\n      0xff\n        /* \"#utility.yul\":6213:6222   */\n      not\n        /* \"#utility.yul\":6202:6211   */\n      dup4\n        /* \"#utility.yul\":6198:6223   */\n      and\n        /* \"#utility.yul\":6193:6196   */\n      dup7\n        /* \"#utility.yul\":6186:6224   */\n      mstore\n        /* \"#utility.yul\":6253:6259   */\n      dup2\n        /* \"#utility.yul\":6248:6251   */\n      dup7\n        /* \"#utility.yul\":6244:6260   */\n      add\n        /* \"#utility.yul\":6237:6260   */\n      swap4\n      pop\n        /* \"#utility.yul\":6133:6270   */\n      jump(tag_218)\n        /* \"#utility.yul\":6279:6620   */\n    tag_220:\n        /* \"#utility.yul\":6346:6384   */\n      tag_221\n        /* \"#utility.yul\":6378:6383   */\n      dup6\n        /* \"#utility.yul\":6346:6384   */\n      tag_222\n      jump\t// in\n    tag_221:\n        /* \"#utility.yul\":6406:6407   */\n      0x00\n        /* \"#utility.yul\":6420:6574   */\n    tag_223:\n        /* \"#utility.yul\":6434:6440   */\n      dup4\n        /* \"#utility.yul\":6431:6432   */\n      dup2\n        /* \"#utility.yul\":6428:6441   */\n      lt\n        /* \"#utility.yul\":6420:6574   */\n      iszero\n      tag_225\n      jumpi\n        /* \"#utility.yul\":6508:6515   */\n      dup2\n        /* \"#utility.yul\":6502:6516   */\n      sload\n        /* \"#utility.yul\":6498:6499   */\n      dup2\n        /* \"#utility.yul\":6493:6496   */\n      dup10\n        /* \"#utility.yul\":6489:6500   */\n      add\n        /* \"#utility.yul\":6482:6517   */\n      mstore\n        /* \"#utility.yul\":6558:6559   */\n      0x01\n        /* \"#utility.yul\":6549:6556   */\n      dup3\n        /* \"#utility.yul\":6545:6560   */\n      add\n        /* \"#utility.yul\":6534:6560   */\n      swap2\n      pop\n        /* \"#utility.yul\":6456:6460   */\n      0x20\n        /* \"#utility.yul\":6453:6454   */\n      dup2\n        /* \"#utility.yul\":6449:6461   */\n      add\n        /* \"#utility.yul\":6444:6461   */\n      swap1\n      pop\n        /* \"#utility.yul\":6420:6574   */\n      jump(tag_223)\n    tag_225:\n        /* \"#utility.yul\":6603:6609   */\n      dup4\n        /* \"#utility.yul\":6598:6601   */\n      dup9\n        /* \"#utility.yul\":6594:6610   */\n      add\n        /* \"#utility.yul\":6587:6610   */\n      swap6\n      pop\n        /* \"#utility.yul\":6286:6620   */\n      pop\n      pop\n        /* \"#utility.yul\":6100:6620   */\n    tag_218:\n      pop\n        /* \"#utility.yul\":5888:6626   */\n      pop\n      pop\n        /* \"#utility.yul\":5781:6626   */\n      swap3\n      swap2\n      pop\n      pop\n      jump\t// out\n        /* \"#utility.yul\":6632:6750   */\n    tag_226:\n        /* \"#utility.yul\":6719:6743   */\n      tag_228\n        /* \"#utility.yul\":6737:6742   */\n      dup2\n        /* \"#utility.yul\":6719:6743   */\n      tag_229\n      jump\t// in\n    tag_228:\n        /* \"#utility.yul\":6714:6717   */\n      dup3\n        /* \"#utility.yul\":6707:6744   */\n      mstore\n        /* \"#utility.yul\":6632:6750   */\n      pop\n      pop\n      jump\t// out\n        /* \"#utility.yul\":6756:7051   */\n    tag_43:\n        /* \"#utility.yul\":6898:6901   */\n      0x00\n        /* \"#utility.yul\":6920:7025   */\n      tag_231\n        /* \"#utility.yul\":7021:7024   */\n      dup3\n        /* \"#utility.yul\":7012:7018   */\n      dup5\n        /* \"#utility.yul\":7004:7010   */\n      dup7\n        /* \"#utility.yul\":6920:7025   */\n      tag_199\n      jump\t// in\n    tag_231:\n        /* \"#utility.yul\":6913:7025   */\n      swap2\n      pop\n        /* \"#utility.yul\":7042:7045   */\n      dup2\n        /* \"#utility.yul\":7035:7045   */\n      swap1\n      pop\n        /* \"#utility.yul\":6756:7051   */\n      swap4\n      swap3\n      pop\n      pop\n      pop\n      jump\t// out\n        /* \"#utility.yul\":7057:7326   */\n    tag_68:\n        /* \"#utility.yul\":7186:7189   */\n      0x00\n        /* \"#utility.yul\":7208:7300   */\n      tag_233\n        /* \"#utility.yul\":7296:7299   */\n      dup3\n        /* \"#utility.yul\":7287:7293   */\n      dup5\n        /* \"#utility.yul\":7208:7300   */\n      tag_214\n      jump\t// in\n    tag_233:\n        /* \"#utility.yul\":7201:7300   */\n      swap2\n      pop\n        /* \"#utility.yul\":7317:7320   */\n      dup2\n        /* \"#utility.yul\":7310:7320   */\n      swap1\n      pop\n        /* \"#utility.yul\":7057:7326   */\n      swap3\n      swap2\n      pop\n      pop\n      jump\t// out\n        /* \"#utility.yul\":7332:7705   */\n    tag_31:\n        /* \"#utility.yul\":7475:7479   */\n      0x00\n        /* \"#utility.yul\":7513:7515   */\n      0x20\n        /* \"#utility.yul\":7502:7511   */\n      dup3\n        /* \"#utility.yul\":7498:7516   */\n      add\n        /* \"#utility.yul\":7490:7516   */\n      swap1\n      pop\n        /* \"#utility.yul\":7562:7571   */\n      dup2\n        /* \"#utility.yul\":7556:7560   */\n      dup2\n        /* \"#utility.yul\":7552:7572   */\n      sub\n        /* \"#utility.yul\":7548:7549   */\n      0x00\n        /* \"#utility.yul\":7537:7546   */\n      dup4\n        /* \"#utility.yul\":7533:7550   */\n      add\n        /* \"#utility.yul\":7526:7573   */\n      mstore\n        /* \"#utility.yul\":7590:7698   */\n      tag_235\n        /* \"#utility.yul\":7693:7697   */\n      dup2\n        /* \"#utility.yul\":7684:7690   */\n      dup5\n        /* \"#utility.yul\":7590:7698   */\n      tag_181\n      jump\t// in\n    tag_235:\n        /* \"#utility.yul\":7582:7698   */\n      swap1\n      pop\n        /* \"#utility.yul\":7332:7705   */\n      swap3\n      swap2\n      pop\n      pop\n      jump\t// out\n        /* \"#utility.yul\":7711:8024   */\n    tag_40:\n        /* \"#utility.yul\":7824:7828   */\n      0x00\n        /* \"#utility.yul\":7862:7864   */\n      0x20\n        /* \"#utility.yul\":7851:7860   */\n      dup3\n        /* \"#utility.yul\":7847:7865   */\n      add\n        /* \"#utility.yul\":7839:7865   */\n      swap1\n      pop\n        /* \"#utility.yul\":7911:7920   */\n      dup2\n        /* \"#utility.yul\":7905:7909   */\n      dup2\n        /* \"#utility.yul\":7901:7921   */\n      sub\n        /* \"#utility.yul\":7897:7898   */\n      0x00\n        /* \"#utility.yul\":7886:7895   */\n      dup4\n        /* \"#utility.yul\":7882:7899   */\n      add\n        /* \"#utility.yul\":7875:7922   */\n      mstore\n        /* \"#utility.yul\":7939:8017   */\n      tag_237\n        /* \"#utility.yul\":8012:8016   */\n      dup2\n        /* \"#utility.yul\":8003:8009   */\n      dup5\n        /* \"#utility.yul\":7939:8017   */\n      tag_204\n      jump\t// in\n    tag_237:\n        /* \"#utility.yul\":7931:8017   */\n      swap1\n      pop\n        /* \"#utility.yul\":7711:8024   */\n      swap3\n      swap2\n      pop\n      pop\n      jump\t// out\n        /* \"#utility.yul\":8030:8460   */\n    tag_14:\n        /* \"#utility.yul\":8173:8177   */\n      0x00\n        /* \"#utility.yul\":8211:8213   */\n      0x60\n        /* \"#utility.yul\":8200:8209   */\n      dup3\n        /* \"#utility.yul\":8196:8214   */\n      add\n        /* \"#utility.yul\":8188:8214   */\n      swap1\n      pop\n        /* \"#utility.yul\":8224:8295   */\n      tag_239\n        /* \"#utility.yul\":8292:8293   */\n      0x00\n        /* \"#utility.yul\":8281:8290   */\n      dup4\n        /* \"#utility.yul\":8277:8294   */\n      add\n        /* \"#utility.yul\":8268:8274   */\n      dup7\n        /* \"#utility.yul\":8224:8295   */\n      tag_226\n      jump\t// in\n    tag_239:\n        /* \"#utility.yul\":8305:8377   */\n      tag_240\n        /* \"#utility.yul\":8373:8375   */\n      0x20\n        /* \"#utility.yul\":8362:8371   */\n      dup4\n        /* \"#utility.yul\":8358:8376   */\n      add\n        /* \"#utility.yul\":8349:8355   */\n      dup6\n        /* \"#utility.yul\":8305:8377   */\n      tag_226\n      jump\t// in\n    tag_240:\n        /* \"#utility.yul\":8387:8453   */\n      tag_241\n        /* \"#utility.yul\":8449:8451   */\n      0x40\n        /* \"#utility.yul\":8438:8447   */\n      dup4\n        /* \"#utility.yul\":8434:8452   */\n      add\n        /* \"#utility.yul\":8425:8431   */\n      dup5\n        /* \"#utility.yul\":8387:8453   */\n      tag_195\n      jump\t// in\n    tag_241:\n        /* \"#utility.yul\":8030:8460   */\n      swap5\n      swap4\n      pop\n      pop\n      pop\n      pop\n      jump\t// out\n        /* \"#utility.yul\":8466:8595   */\n    tag_121:\n        /* \"#utility.yul\":8500:8506   */\n      0x00\n        /* \"#utility.yul\":8527:8547   */\n      tag_243\n      tag_244\n      jump\t// in\n    tag_243:\n        /* \"#utility.yul\":8517:8547   */\n      swap1\n      pop\n        /* \"#utility.yul\":8556:8589   */\n      tag_245\n        /* \"#utility.yul\":8584:8588   */\n      dup3\n        /* \"#utility.yul\":8576:8582   */\n      dup3\n        /* \"#utility.yul\":8556:8589   */\n      tag_246\n      jump\t// in\n    tag_245:\n        /* \"#utility.yul\":8466:8595   */\n      swap2\n      swap1\n      pop\n      jump\t// out\n        /* \"#utility.yul\":8601:8676   */\n    tag_244:\n        /* \"#utility.yul\":8634:8640   */\n      0x00\n        /* \"#utility.yul\":8667:8669   */\n      0x40\n        /* \"#utility.yul\":8661:8670   */\n      mload\n        /* \"#utility.yul\":8651:8670   */\n      swap1\n      pop\n        /* \"#utility.yul\":8601:8676   */\n      swap1\n      jump\t// out\n        /* \"#utility.yul\":8682:8990   */\n    tag_120:\n        /* \"#utility.yul\":8744:8748   */\n      0x00\n        /* \"#utility.yul\":8834:8852   */\n      0xffffffffffffffff\n        /* \"#utility.yul\":8826:8832   */\n      dup3\n        /* \"#utility.yul\":8823:8853   */\n      gt\n        /* \"#utility.yul\":8820:8876   */\n      iszero\n      tag_249\n      jumpi\n        /* \"#utility.yul\":8856:8874   */\n      tag_250\n      tag_251\n      jump\t// in\n    tag_250:\n        /* \"#utility.yul\":8820:8876   */\n    tag_249:\n        /* \"#utility.yul\":8894:8923   */\n      tag_252\n        /* \"#utility.yul\":8916:8922   */\n      dup3\n        /* \"#utility.yul\":8894:8923   */\n      tag_213\n      jump\t// in\n    tag_252:\n        /* \"#utility.yul\":8886:8923   */\n      swap1\n      pop\n        /* \"#utility.yul\":8978:8982   */\n      0x20\n        /* \"#utility.yul\":8972:8976   */\n      dup2\n        /* \"#utility.yul\":8968:8983   */\n      add\n        /* \"#utility.yul\":8960:8983   */\n      swap1\n      pop\n        /* \"#utility.yul\":8682:8990   */\n      swap2\n      swap1\n      pop\n      jump\t// out\n        /* \"#utility.yul\":8996:9128   */\n    tag_188:\n        /* \"#utility.yul\":9063:9067   */\n      0x00\n        /* \"#utility.yul\":9086:9089   */\n      dup2\n        /* \"#utility.yul\":9078:9089   */\n      swap1\n      pop\n        /* \"#utility.yul\":9116:9120   */\n      0x20\n        /* \"#utility.yul\":9111:9114   */\n      dup3\n        /* \"#utility.yul\":9107:9121   */\n      add\n        /* \"#utility.yul\":9099:9121   */\n      swap1\n      pop\n        /* \"#utility.yul\":8996:9128   */\n      swap2\n      swap1\n      pop\n      jump\t// out\n        /* \"#utility.yul\":9134:9275   */\n    tag_222:\n        /* \"#utility.yul\":9183:9187   */\n      0x00\n        /* \"#utility.yul\":9206:9209   */\n      dup2\n        /* \"#utility.yul\":9198:9209   */\n      swap1\n      pop\n        /* \"#utility.yul\":9229:9232   */\n      dup2\n        /* \"#utility.yul\":9226:9227   */\n      0x00\n        /* \"#utility.yul\":9219:9233   */\n      mstore\n        /* \"#utility.yul\":9263:9267   */\n      0x20\n        /* \"#utility.yul\":9260:9261   */\n      0x00\n        /* \"#utility.yul\":9250:9268   */\n      keccak256\n        /* \"#utility.yul\":9242:9268   */\n      swap1\n      pop\n        /* \"#utility.yul\":9134:9275   */\n      swap2\n      swap1\n      pop\n      jump\t// out\n        /* \"#utility.yul\":9281:9395   */\n    tag_184:\n        /* \"#utility.yul\":9348:9354   */\n      0x00\n        /* \"#utility.yul\":9382:9387   */\n      dup2\n        /* \"#utility.yul\":9376:9388   */\n      mload\n        /* \"#utility.yul\":9366:9388   */\n      swap1\n      pop\n        /* \"#utility.yul\":9281:9395   */\n      swap2\n      swap1\n      pop\n      jump\t// out\n        /* \"#utility.yul\":9401:9500   */\n    tag_207:\n        /* \"#utility.yul\":9453:9459   */\n      0x00\n        /* \"#utility.yul\":9487:9492   */\n      dup2\n        /* \"#utility.yul\":9481:9493   */\n      mload\n        /* \"#utility.yul\":9471:9493   */\n      swap1\n      pop\n        /* \"#utility.yul\":9401:9500   */\n      swap2\n      swap1\n      pop\n      jump\t// out\n        /* \"#utility.yul\":9506:9619   */\n    tag_194:\n        /* \"#utility.yul\":9576:9580   */\n      0x00\n        /* \"#utility.yul\":9608:9612   */\n      0x20\n        /* \"#utility.yul\":9603:9606   */\n      dup3\n        /* \"#utility.yul\":9599:9613   */\n      add\n        /* \"#utility.yul\":9591:9613   */\n      swap1\n      pop\n        /* \"#utility.yul\":9506:9619   */\n      swap2\n      swap1\n      pop\n      jump\t// out\n        /* \"#utility.yul\":9625:9809   */\n    tag_186:\n        /* \"#utility.yul\":9724:9735   */\n      0x00\n        /* \"#utility.yul\":9758:9764   */\n      dup3\n        /* \"#utility.yul\":9753:9756   */\n      dup3\n        /* \"#utility.yul\":9746:9765   */\n      mstore\n        /* \"#utility.yul\":9798:9802   */\n      0x20\n        /* \"#utility.yul\":9793:9796   */\n      dup3\n        /* \"#utility.yul\":9789:9803   */\n      add\n        /* \"#utility.yul\":9774:9803   */\n      swap1\n      pop\n        /* \"#utility.yul\":9625:9809   */\n      swap3\n      swap2\n      pop\n      pop\n      jump\t// out\n        /* \"#utility.yul\":9815:9984   */\n    tag_209:\n        /* \"#utility.yul\":9899:9910   */\n      0x00\n        /* \"#utility.yul\":9933:9939   */\n      dup3\n        /* \"#utility.yul\":9928:9931   */\n      dup3\n        /* \"#utility.yul\":9921:9940   */\n      mstore\n        /* \"#utility.yul\":9973:9977   */\n      0x20\n        /* \"#utility.yul\":9968:9971   */\n      dup3\n        /* \"#utility.yul\":9964:9978   */\n      add\n        /* \"#utility.yul\":9949:9978   */\n      swap1\n      pop\n        /* \"#utility.yul\":9815:9984   */\n      swap3\n      swap2\n      pop\n      pop\n      jump\t// out\n        /* \"#utility.yul\":9990:10138   */\n    tag_202:\n        /* \"#utility.yul\":10092:10103   */\n      0x00\n        /* \"#utility.yul\":10129:10132   */\n      dup2\n        /* \"#utility.yul\":10114:10132   */\n      swap1\n      pop\n        /* \"#utility.yul\":9990:10138   */\n      swap3\n      swap2\n      pop\n      pop\n      jump\t// out\n        /* \"#utility.yul\":10144:10449   */\n    tag_59:\n        /* \"#utility.yul\":10184:10187   */\n      0x00\n        /* \"#utility.yul\":10203:10223   */\n      tag_262\n        /* \"#utility.yul\":10221:10222   */\n      dup3\n        /* \"#utility.yul\":10203:10223   */\n      tag_229\n      jump\t// in\n    tag_262:\n        /* \"#utility.yul\":10198:10223   */\n      swap2\n      pop\n        /* \"#utility.yul\":10237:10257   */\n      tag_263\n        /* \"#utility.yul\":10255:10256   */\n      dup4\n        /* \"#utility.yul\":10237:10257   */\n      tag_229\n      jump\t// in\n    tag_263:\n        /* \"#utility.yul\":10232:10257   */\n      swap3\n      pop\n        /* \"#utility.yul\":10391:10392   */\n      dup3\n        /* \"#utility.yul\":10323:10389   */\n      0xffffffffffffffffffffffffffffffffffffffffffffffffffffffffffffffff\n        /* \"#utility.yul\":10319:10393   */\n      sub\n        /* \"#utility.yul\":10316:10317   */\n      dup3\n        /* \"#utility.yul\":10313:10394   */\n      gt\n        /* \"#utility.yul\":10310:10417   */\n      iszero\n      tag_264\n      jumpi\n        /* \"#utility.yul\":10397:10415   */\n      tag_265\n      tag_266\n      jump\t// in\n    tag_265:\n        /* \"#utility.yul\":10310:10417   */\n    tag_264:\n        /* \"#utility.yul\":10441:10442   */\n      dup3\n        /* \"#utility.yul\":10438:10439   */\n      dup3\n        /* \"#utility.yul\":10434:10443   */\n      add\n        /* \"#utility.yul\":10427:10443   */\n      swap1\n      pop\n        /* \"#utility.yul\":10144:10449   */\n      swap3\n      swap2\n      pop\n      pop\n      jump\t// out\n        /* \"#utility.yul\":10455:10551   */\n    tag_180:\n        /* \"#utility.yul\":10492:10499   */\n      0x00\n        /* \"#utility.yul\":10521:10545   */\n      tag_268\n        /* \"#utility.yul\":10539:10544   */\n      dup3\n        /* \"#utility.yul\":10521:10545   */\n      tag_269\n      jump\t// in\n    tag_268:\n        /* \"#utility.yul\":10510:10545   */\n      swap1\n      pop\n        /* \"#utility.yul\":10455:10551   */\n      swap2\n      swap1\n      pop\n      jump\t// out\n        /* \"#utility.yul\":10557:10647   */\n    tag_198:\n        /* \"#utility.yul\":10591:10598   */\n      0x00\n        /* \"#utility.yul\":10634:10639   */\n      dup2\n        /* \"#utility.yul\":10627:10640   */\n      iszero\n        /* \"#utility.yul\":10620:10641   */\n      iszero\n        /* \"#utility.yul\":10609:10641   */\n      swap1\n      pop\n        /* \"#utility.yul\":10557:10647   */\n      swap2\n      swap1\n      pop\n      jump\t// out\n        /* \"#utility.yul\":10653:10779   */\n    tag_269:\n        /* \"#utility.yul\":10690:10697   */\n      0x00\n        /* \"#utility.yul\":10730:10772   */\n      0xffffffffffffffffffffffffffffffffffffffff\n        /* \"#utility.yul\":10723:10728   */\n      dup3\n        /* \"#utility.yul\":10719:10773   */\n      and\n        /* \"#utility.yul\":10708:10773   */\n      swap1\n      pop\n        /* \"#utility.yul\":10653:10779   */\n      swap2\n      swap1\n      pop\n      jump\t// out\n        /* \"#utility.yul\":10785:10862   */\n    tag_229:\n        /* \"#utility.yul\":10822:10829   */\n      0x00\n        /* \"#utility.yul\":10851:10856   */\n      dup2\n        /* \"#utility.yul\":10840:10856   */\n      swap1\n      pop\n        /* \"#utility.yul\":10785:10862   */\n      swap2\n      swap1\n      pop\n      jump\t// out\n        /* \"#utility.yul\":10868:11022   */\n    tag_126:\n        /* \"#utility.yul\":10952:10958   */\n      dup3\n        /* \"#utility.yul\":10947:10950   */\n      dup2\n        /* \"#utility.yul\":10942:10945   */\n      dup4\n        /* \"#utility.yul\":10929:10959   */\n      calldatacopy\n        /* \"#utility.yul\":11014:11015   */\n      0x00\n        /* \"#utility.yul\":11005:11011   */\n      dup4\n        /* \"#utility.yul\":11000:11003   */\n      dup4\n        /* \"#utility.yul\":10996:11012   */\n      add\n        /* \"#utility.yul\":10989:11016   */\n      mstore\n        /* \"#utility.yul\":10868:11022   */\n      pop\n      pop\n      pop\n      jump\t// out\n        /* \"#utility.yul\":11028:11335   */\n    tag_211:\n        /* \"#utility.yul\":11096:11097   */\n      0x00\n        /* \"#utility.yul\":11106:11219   */\n    tag_275:\n        /* \"#utility.yul\":11120:11126   */\n      dup4\n        /* \"#utility.yul\":11117:11118   */\n      dup2\n        /* \"#utility.yul\":11114:11127   */\n      lt\n        /* \"#utility.yul\":11106:11219   */\n      iszero\n      tag_277\n      jumpi\n        /* \"#utility.yul\":11205:11206   */\n      dup1\n        /* \"#utility.yul\":11200:11203   */\n      dup3\n        /* \"#utility.yul\":11196:11207   */\n      add\n        /* \"#utility.yul\":11190:11208   */\n      mload\n        /* \"#utility.yul\":11186:11187   */\n      dup2\n        /* \"#utility.yul\":11181:11184   */\n      dup5\n        /* \"#utility.yul\":11177:11188   */\n      add\n        /* \"#utility.yul\":11170:11209   */\n      mstore\n        /* \"#utility.yul\":11142:11144   */\n      0x20\n        /* \"#utility.yul\":11139:11140   */\n      dup2\n        /* \"#utility.yul\":11135:11145   */\n      add\n        /* \"#utility.yul\":11130:11145   */\n      swap1\n      pop\n        /* \"#utility.yul\":11106:11219   */\n      jump(tag_275)\n    tag_277:\n        /* \"#utility.yul\":11237:11243   */\n      dup4\n        /* \"#utility.yul\":11234:11235   */\n      dup2\n        /* \"#utility.yul\":11231:11244   */\n      gt\n        /* \"#utility.yul\":11228:11329   */\n      iszero\n      tag_278\n      jumpi\n        /* \"#utility.yul\":11317:11318   */\n      0x00\n        /* \"#utility.yul\":11308:11314   */\n      dup5\n        /* \"#utility.yul\":11303:11306   */\n      dup5\n        /* \"#utility.yul\":11299:11315   */\n      add\n        /* \"#utility.yul\":11292:11319   */\n      mstore\n        /* \"#utility.yul\":11228:11329   */\n    tag_278:\n        /* \"#utility.yul\":11077:11335   */\n      pop\n        /* \"#utility.yul\":11028:11335   */\n      pop\n      pop\n      pop\n      jump\t// out\n        /* \"#utility.yul\":11341:11512   */\n    tag_86:\n        /* \"#utility.yul\":11380:11383   */\n      0x00\n        /* \"#utility.yul\":11403:11427   */\n      tag_280\n        /* \"#utility.yul\":11421:11426   */\n      dup3\n        /* \"#utility.yul\":11403:11427   */\n      tag_229\n      jump\t// in\n    tag_280:\n        /* \"#utility.yul\":11394:11427   */\n      swap2\n      pop\n        /* \"#utility.yul\":11449:11453   */\n      0x00\n        /* \"#utility.yul\":11442:11447   */\n      dup3\n        /* \"#utility.yul\":11439:11454   */\n      eq\n        /* \"#utility.yul\":11436:11477   */\n      iszero\n      tag_281\n      jumpi\n        /* \"#utility.yul\":11457:11475   */\n      tag_282\n      tag_266\n      jump\t// in\n    tag_282:\n        /* \"#utility.yul\":11436:11477   */\n    tag_281:\n        /* \"#utility.yul\":11504:11505   */\n      0x01\n        /* \"#utility.yul\":11497:11502   */\n      dup3\n        /* \"#utility.yul\":11493:11506   */\n      sub\n        /* \"#utility.yul\":11486:11506   */\n      swap1\n      pop\n        /* \"#utility.yul\":11341:11512   */\n      swap2\n      swap1\n      pop\n      jump\t// out\n        /* \"#utility.yul\":11518:11838   */\n    tag_96:\n        /* \"#utility.yul\":11562:11568   */\n      0x00\n        /* \"#utility.yul\":11599:11600   */\n      0x02\n        /* \"#utility.yul\":11593:11597   */\n      dup3\n        /* \"#utility.yul\":11589:11601   */\n      div\n        /* \"#utility.yul\":11579:11601   */\n      swap1\n      pop\n        /* \"#utility.yul\":11646:11647   */\n      0x01\n        /* \"#utility.yul\":11640:11644   */\n      dup3\n        /* \"#utility.yul\":11636:11648   */\n      and\n        /* \"#utility.yul\":11667:11685   */\n      dup1\n        /* \"#utility.yul\":11657:11738   */\n      tag_284\n      jumpi\n        /* \"#utility.yul\":11723:11727   */\n      0x7f\n        /* \"#utility.yul\":11715:11721   */\n      dup3\n        /* \"#utility.yul\":11711:11728   */\n      and\n        /* \"#utility.yul\":11701:11728   */\n      swap2\n      pop\n        /* \"#utility.yul\":11657:11738   */\n    tag_284:\n        /* \"#utility.yul\":11785:11787   */\n      0x20\n        /* \"#utility.yul\":11777:11783   */\n      dup3\n        /* \"#utility.yul\":11774:11788   */\n      lt\n        /* \"#utility.yul\":11754:11772   */\n      dup2\n        /* \"#utility.yul\":11751:11789   */\n      eq\n        /* \"#utility.yul\":11748:11832   */\n      iszero\n      tag_285\n      jumpi\n        /* \"#utility.yul\":11804:11822   */\n      tag_286\n      tag_287\n      jump\t// in\n    tag_286:\n        /* \"#utility.yul\":11748:11832   */\n    tag_285:\n        /* \"#utility.yul\":11569:11838   */\n      pop\n        /* \"#utility.yul\":11518:11838   */\n      swap2\n      swap1\n      pop\n      jump\t// out\n        /* \"#utility.yul\":11844:12125   */\n    tag_246:\n        /* \"#utility.yul\":11927:11954   */\n      tag_289\n        /* \"#utility.yul\":11949:11953   */\n      dup3\n        /* \"#utility.yul\":11927:11954   */\n      tag_213\n      jump\t// in\n    tag_289:\n        /* \"#utility.yul\":11919:11925   */\n      dup2\n        /* \"#utility.yul\":11915:11955   */\n      add\n        /* \"#utility.yul\":12057:12063   */\n      dup2\n        /* \"#utility.yul\":12045:12055   */\n      dup2\n        /* \"#utility.yul\":12042:12064   */\n      lt\n        /* \"#utility.yul\":12021:12039   */\n      0xffffffffffffffff\n        /* \"#utility.yul\":12009:12019   */\n      dup3\n        /* \"#utility.yul\":12006:12040   */\n      gt\n        /* \"#utility.yul\":12003:12065   */\n      or\n        /* \"#utility.yul\":12000:12088   */\n      iszero\n      tag_290\n      jumpi\n        /* \"#utility.yul\":12068:12086   */\n      tag_291\n      tag_251\n      jump\t// in\n    tag_291:\n        /* \"#utility.yul\":12000:12088   */\n    tag_290:\n        /* \"#utility.yul\":12108:12118   */\n      dup1\n        /* \"#utility.yul\":12104:12106   */\n      0x40\n        /* \"#utility.yul\":12097:12119   */\n      mstore\n        /* \"#utility.yul\":11887:12125   */\n      pop\n        /* \"#utility.yul\":11844:12125   */\n      pop\n      pop\n      jump\t// out\n        /* \"#utility.yul\":12131:12311   */\n    tag_266:\n        /* \"#utility.yul\":12179:12256   */\n      0x4e487b7100000000000000000000000000000000000000000000000000000000\n        /* \"#utility.yul\":12176:12177   */\n      0x00\n        /* \"#utility.yul\":12169:12257   */\n      mstore\n        /* \"#utility.yul\":12276:12280   */\n      0x11\n        /* \"#utility.yul\":12273:12274   */\n      0x04\n        /* \"#utility.yul\":12266:12281   */\n      mstore\n        /* \"#utility.yul\":12300:12304   */\n      0x24\n        /* \"#utility.yul\":12297:12298   */\n      0x00\n        /* \"#utility.yul\":12290:12305   */\n      revert\n        /* \"#utility.yul\":12317:12497   */\n    tag_287:\n        /* \"#utility.yul\":12365:12442   */\n      0x4e487b7100000000000000000000000000000000000000000000000000000000\n        /* \"#utility.yul\":12362:12363   */\n      0x00\n        /* \"#utility.yul\":12355:12443   */\n      mstore\n        /* \"#utility.yul\":12462:12466   */\n      0x22\n        /* \"#utility.yul\":12459:12460   */\n      0x04\n        /* \"#utility.yul\":12452:12467   */\n      mstore\n        /* \"#utility.yul\":12486:12490   */\n      0x24\n        /* \"#utility.yul\":12483:12484   */\n      0x00\n        /* \"#utility.yul\":12476:12491   */\n      revert\n        /* \"#utility.yul\":12503:12683   */\n    tag_65:\n        /* \"#utility.yul\":12551:12628   */\n      0x4e487b7100000000000000000000000000000000000000000000000000000000\n        /* \"#utility.yul\":12548:12549   */\n      0x00\n        /* \"#utility.yul\":12541:12629   */\n      mstore\n        /* \"#utility.yul\":12648:12652   */\n      0x32\n        /* \"#utility.yul\":12645:12646   */\n      0x04\n        /* \"#utility.yul\":12638:12653   */\n      mstore\n        /* \"#utility.yul\":12672:12676   */\n      0x24\n        /* \"#utility.yul\":12669:12670   */\n      0x00\n        /* \"#utility.yul\":12662:12677   */\n      revert\n        /* \"#utility.yul\":12689:12869   */\n    tag_251:\n        /* \"#utility.yul\":12737:12814   */\n      0x4e487b7100000000000000000000000000000000000000000000000000000000\n        /* \"#utility.yul\":12734:12735   */\n      0x00\n        /* \"#utility.yul\":12727:12815   */\n      mstore\n        /* \"#utility.yul\":12834:12838   */\n      0x41\n        /* \"#utility.yul\":12831:12832   */\n      0x04\n        /* \"#utility.yul\":12824:12839   */\n      mstore\n        /* \"#utility.yul\":12858:12862   */\n      0x24\n        /* \"#utility.yul\":12855:12856   */\n      0x00\n        /* \"#utility.yul\":12848:12863   */\n      revert\n        /* \"#utility.yul\":12875:12992   */\n    tag_134:\n        /* \"#utility.yul\":12984:12985   */\n      0x00\n        /* \"#utility.yul\":12981:12982   */\n      dup1\n        /* \"#utility.yul\":12974:12986   */\n      revert\n        /* \"#utility.yul\":12998:13115   */\n    tag_131:\n        /* \"#utility.yul\":13107:13108   */\n      0x00\n        /* \"#utility.yul\":13104:13105   */\n      dup1\n        /* \"#utility.yul\":13097:13109   */\n      revert\n        /* \"#utility.yul\":13121:13238   */\n    tag_137:\n        /* \"#utility.yul\":13230:13231   */\n      0x00\n        /* \"#utility.yul\":13227:13228   */\n      dup1\n        /* \"#utility.yul\":13220:13232   */\n      revert\n        /* \"#utility.yul\":13244:13361   */\n    tag_124:\n        /* \"#utility.yul\":13353:13354   */\n      0x00\n        /* \"#utility.yul\":13350:13351   */\n      dup1\n        /* \"#utility.yul\":13343:13355   */\n      revert\n        /* \"#utility.yul\":13367:13484   */\n    tag_153:\n        /* \"#utility.yul\":13476:13477   */\n      0x00\n        /* \"#utility.yul\":13473:13474   */\n      dup1\n        /* \"#utility.yul\":13466:13478   */\n      revert\n        /* \"#utility.yul\":13490:13607   */\n    tag_150:\n        /* \"#utility.yul\":13599:13600   */\n      0x00\n        /* \"#utility.yul\":13596:13597   */\n      dup1\n        /* \"#utility.yul\":13589:13601   */\n      revert\n        /* \"#utility.yul\":13613:13715   */\n    tag_213:\n        /* \"#utility.yul\":13654:13660   */\n      0x00\n        /* \"#utility.yul\":13705:13707   */\n      0x1f\n        /* \"#utility.yul\":13701:13708   */\n      not\n        /* \"#utility.yul\":13696:13698   */\n      0x1f\n        /* \"#utility.yul\":13689:13694   */\n      dup4\n        /* \"#utility.yul\":13685:13699   */\n      add\n        /* \"#utility.yul\":13681:13709   */\n      and\n        /* \"#utility.yul\":13671:13709   */\n      swap1\n      pop\n        /* \"#utility.yul\":13613:13715   */\n      swap2\n      swap1\n      pop\n      jump\t// out\n        /* \"#utility.yul\":13721:13843   */\n    tag_146:\n        /* \"#utility.yul\":13794:13818   */\n      tag_304\n        /* \"#utility.yul\":13812:13817   */\n      dup2\n        /* \"#utility.yul\":13794:13818   */\n      tag_229\n      jump\t// in\n    tag_304:\n        /* \"#utility.yul\":13787:13792   */\n      dup2\n        /* \"#utility.yul\":13784:13819   */\n      eq\n        /* \"#utility.yul\":13774:13837   */\n      tag_305\n      jumpi\n        /* \"#utility.yul\":13833:13834   */\n      0x00\n        /* \"#utility.yul\":13830:13831   */\n      dup1\n        /* \"#utility.yul\":13823:13835   */\n      revert\n        /* \"#utility.yul\":13774:13837   */\n    tag_305:\n        /* \"#utility.yul\":13721:13843   */\n      pop\n      jump\t// out\n\n    auxdata: 0xa2646970667358221220f13d3b3d89f47f83e3bd2adad44ac282ca521b1dbe3bd35af2a1f96289767dee64736f6c63430008070033\n}\n",
				"bytecode": {
					"linkReferences": {},
					"object": "608060405234801561001057600080fd5b50611240806100206000396000f3fe6080604052600436106100555760003560e01c80630186a4231461005a5780630a5bd44b146100995780631d894eb8146100c257806374ce0ca9146100eb5780638642269e14610128578063e4bcc7d414610144575b600080fd5b34801561006657600080fd5b50610081600480360381019061007c9190610c2f565b610181565b60405161009093929190610e99565b60405180910390f35b3480156100a557600080fd5b506100c060048036038101906100bb9190610bbb565b6101ce565b005b3480156100ce57600080fd5b506100e960048036038101906100e49190610b5b565b610321565b005b3480156100f757600080fd5b50610112600480360381019061010d9190610c78565b6103cd565b60405161011f9190610e55565b60405180910390f35b610142600480360381019061013d9190610c78565b6104ac565b005b34801561015057600080fd5b5061016b60048036038101906101669190610c78565b61085a565b6040516101789190610e77565b60405180910390f35b6001818051602081018201805184825260208301602085012081835280955050505050506000915090508060000154908060010154908060030160009054906101000a900460ff16905083565b600184846040516101e0929190610e25565b908152602001604051809103902060030160009054906101000a900460ff166102e95761020b610906565b828160000181815250508181602001818152505060018160600190151590811515815250508060018686604051610243929190610e25565b908152602001604051809103902060008201518160000155602082015181600101556040820151816002019080519060200190610281929190610930565b5060608201518160030160006101000a81548160ff02191690831515021790555090505060008585909180600181540180825580915050600190039060005260206000200160009091929091929091929091925091906102e29291906109ba565b505061031b565b6040517fb185df3a00000000000000000000000000000000000000000000000000000000815260040160405180910390fd5b50505050565b60018383604051610333929190610e25565b908152602001604051809103902060030160009054906101000a900460ff161561039657806001848460405161036a929190610e25565b9081526020016040518091039020600101600082825461038a9190610f9b565b925050819055506103c8565b6040517f7e8d96a900000000000000000000000000000000000000000000000000000000815260040160405180910390fd5b505050565b60606000805490508210156104a6576001600083815481106103f2576103f1611166565b5b906000526020600020016040516104099190610e3e565b908152602001604051809103902060020180548060200260200160405190810160405280929190818152602001828054801561049a57602002820191906000526020600020905b8160009054906101000a900473ffffffffffffffffffffffffffffffffffffffff1673ffffffffffffffffffffffffffffffffffffffff1681526020019060010190808311610450575b505050505090506104a7565b5b919050565b6000805490508110801561051e57506002600082815260200190815260200160002060003373ffffffffffffffffffffffffffffffffffffffff1673ffffffffffffffffffffffffffffffffffffffff16815260200190815260200160002060020160009054906101000a900460ff16155b1561082557600060016000838154811061053b5761053a611166565b5b906000526020600020016040516105529190610e3e565b908152602001604051809103902060405180608001604052908160008201548152602001600182015481526020016002820180548060200260200160405190810160405280929190818152602001828054801561060457602002820191906000526020600020905b8160009054906101000a900473ffffffffffffffffffffffffffffffffffffffff1673ffffffffffffffffffffffffffffffffffffffff16815260200190600101908083116105ba575b505050505081526020016003820160009054906101000a900460ff16151515158152505090508060000151341015610668576040517f538d76e800000000000000000000000000000000000000000000000000000000815260040160405180910390fd5b610670610a40565b4381600001818152505081600001518160200181815250506001816040019015159081151581525050806002600085815260200190815260200160002060003373ffffffffffffffffffffffffffffffffffffffff1673ffffffffffffffffffffffffffffffffffffffff168152602001908152602001600020600082015181600001556020820151816001015560408201518160020160006101000a81548160ff0219169083151502179055509050503382604001518360400151518151811061073e5761073d611166565b5b602002602001019073ffffffffffffffffffffffffffffffffffffffff16908173ffffffffffffffffffffffffffffffffffffffff168152505081602001805180919061078a9061107b565b81525050816001600085815481106107a5576107a4611166565b5b906000526020600020016040516107bc9190610e3e565b9081526020016040518091039020600082015181600001556020820151816001015560408201518160020190805190602001906107fa929190610930565b5060608201518160030160006101000a81548160ff0219169083151502179055509050505050610857565b6040517fd42c9b8b00000000000000000000000000000000000000000000000000000000815260040160405180910390fd5b50565b6000818154811061086a57600080fd5b906000526020600020016000915090508054610885906110a5565b80601f01602080910402602001604051908101604052809291908181526020018280546108b1906110a5565b80156108fe5780601f106108d3576101008083540402835291602001916108fe565b820191906000526020600020905b8154815290600101906020018083116108e157829003601f168201915b505050505081565b60405180608001604052806000815260200160008152602001606081526020016000151581525090565b8280548282559060005260206000209081019282156109a9579160200282015b828111156109a85782518260006101000a81548173ffffffffffffffffffffffffffffffffffffffff021916908373ffffffffffffffffffffffffffffffffffffffff16021790555091602001919060010190610950565b5b5090506109b69190610a63565b5090565b8280546109c6906110a5565b90600052602060002090601f0160209004810192826109e85760008555610a2f565b82601f10610a0157803560ff1916838001178555610a2f565b82800160010185558215610a2f579182015b82811115610a2e578235825591602001919060010190610a13565b5b509050610a3c9190610a63565b5090565b604051806060016040528060008152602001600081526020016000151581525090565b5b80821115610a7c576000816000905550600101610a64565b5090565b6000610a93610a8e84610ef5565b610ed0565b905082815260208101848484011115610aaf57610aae6111d3565b5b610aba848285611039565b509392505050565b60008083601f840112610ad857610ad76111c9565b5b8235905067ffffffffffffffff811115610af557610af46111c4565b5b602083019150836001820283011115610b1157610b106111ce565b5b9250929050565b600082601f830112610b2d57610b2c6111c9565b5b8135610b3d848260208601610a80565b91505092915050565b600081359050610b55816111f3565b92915050565b600080600060408486031215610b7457610b736111dd565b5b600084013567ffffffffffffffff811115610b9257610b916111d8565b5b610b9e86828701610ac2565b93509350506020610bb186828701610b46565b9150509250925092565b60008060008060608587031215610bd557610bd46111dd565b5b600085013567ffffffffffffffff811115610bf357610bf26111d8565b5b610bff87828801610ac2565b94509450506020610c1287828801610b46565b9250506040610c2387828801610b46565b91505092959194509250565b600060208284031215610c4557610c446111dd565b5b600082013567ffffffffffffffff811115610c6357610c626111d8565b5b610c6f84828501610b18565b91505092915050565b600060208284031215610c8e57610c8d6111dd565b5b6000610c9c84828501610b46565b91505092915050565b6000610cb18383610cbd565b60208301905092915050565b610cc681610ff1565b82525050565b6000610cd782610f4b565b610ce18185610f6e565b9350610cec83610f26565b8060005b83811015610d1d578151610d048882610ca5565b9750610d0f83610f61565b925050600181019050610cf0565b5085935050505092915050565b610d3381611003565b82525050565b6000610d458385610f90565b9350610d52838584611039565b82840190509392505050565b6000610d6982610f56565b610d738185610f7f565b9350610d83818560208601611048565b610d8c816111e2565b840191505092915050565b60008154610da4816110a5565b610dae8186610f90565b94506001821660008114610dc95760018114610dda57610e0d565b60ff19831686528186019350610e0d565b610de385610f36565b60005b83811015610e0557815481890152600182019150602081019050610de6565b838801955050505b50505092915050565b610e1f8161102f565b82525050565b6000610e32828486610d39565b91508190509392505050565b6000610e4a8284610d97565b915081905092915050565b60006020820190508181036000830152610e6f8184610ccc565b905092915050565b60006020820190508181036000830152610e918184610d5e565b905092915050565b6000606082019050610eae6000830186610e16565b610ebb6020830185610e16565b610ec86040830184610d2a565b949350505050565b6000610eda610eeb565b9050610ee682826110d7565b919050565b6000604051905090565b600067ffffffffffffffff821115610f1057610f0f611195565b5b610f19826111e2565b9050602081019050919050565b6000819050602082019050919050565b60008190508160005260206000209050919050565b600081519050919050565b600081519050919050565b6000602082019050919050565b600082825260208201905092915050565b600082825260208201905092915050565b600081905092915050565b6000610fa68261102f565b9150610fb18361102f565b9250827fffffffffffffffffffffffffffffffffffffffffffffffffffffffffffffffff03821115610fe657610fe5611108565b5b828201905092915050565b6000610ffc8261100f565b9050919050565b60008115159050919050565b600073ffffffffffffffffffffffffffffffffffffffff82169050919050565b6000819050919050565b82818337600083830152505050565b60005b8381101561106657808201518184015260208101905061104b565b83811115611075576000848401525b50505050565b60006110868261102f565b9150600082141561109a57611099611108565b5b600182039050919050565b600060028204905060018216806110bd57607f821691505b602082108114156110d1576110d0611137565b5b50919050565b6110e0826111e2565b810181811067ffffffffffffffff821117156110ff576110fe611195565b5b80604052505050565b7f4e487b7100000000000000000000000000000000000000000000000000000000600052601160045260246000fd5b7f4e487b7100000000000000000000000000000000000000000000000000000000600052602260045260246000fd5b7f4e487b7100000000000000000000000000000000000000000000000000000000600052603260045260246000fd5b7f4e487b7100000000000000000000000000000000000000000000000000000000600052604160045260246000fd5b600080fd5b600080fd5b600080fd5b600080fd5b600080fd5b600080fd5b6000601f19601f8301169050919050565b6111fc8161102f565b811461120757600080fd5b5056fea2646970667358221220f13d3b3d89f47f83e3bd2adad44ac282ca521b1dbe3bd35af2a1f96289767dee64736f6c63430008070033",
					"opcodes": "PUSH1 0x80 PUSH1 0x40 MSTORE CALLVALUE DUP1 ISZERO PUSH2 0x10 JUMPI PUSH1 0x0 DUP1 REVERT JUMPDEST POP PUSH2 0x1240 DUP1 PUSH2 0x20 PUSH1 0x0 CODECOPY PUSH1 0x0 RETURN INVALID PUSH1 0x80 PUSH1 0x40 MSTORE PUSH1 0x4 CALLDATASIZE LT PUSH2 0x55 JUMPI PUSH1 0x0 CALLDATALOAD PUSH1 0xE0 SHR DUP1 PUSH4 0x186A423 EQ PUSH2 0x5A JUMPI DUP1 PUSH4 0xA5BD44B EQ PUSH2 0x99 JUMPI DUP1 PUSH4 0x1D894EB8 EQ PUSH2 0xC2 JUMPI DUP1 PUSH4 0x74CE0CA9 EQ PUSH2 0xEB JUMPI DUP1 PUSH4 0x8642269E EQ PUSH2 0x128 JUMPI DUP1 PUSH4 0xE4BCC7D4 EQ PUSH2 0x144 JUMPI JUMPDEST PUSH1 0x0 DUP1 REVERT JUMPDEST CALLVALUE DUP1 ISZERO PUSH2 0x66 JUMPI PUSH1 0x0 DUP1 REVERT JUMPDEST POP PUSH2 0x81 PUSH1 0x4 DUP1 CALLDATASIZE SUB DUP2 ADD SWAP1 PUSH2 0x7C SWAP2 SWAP1 PUSH2 0xC2F JUMP JUMPDEST PUSH2 0x181 JUMP JUMPDEST PUSH1 0x40 MLOAD PUSH2 0x90 SWAP4 SWAP3 SWAP2 SWAP1 PUSH2 0xE99 JUMP JUMPDEST PUSH1 0x40 MLOAD DUP1 SWAP2 SUB SWAP1 RETURN JUMPDEST CALLVALUE DUP1 ISZERO PUSH2 0xA5 JUMPI PUSH1 0x0 DUP1 REVERT JUMPDEST POP PUSH2 0xC0 PUSH1 0x4 DUP1 CALLDATASIZE SUB DUP2 ADD SWAP1 PUSH2 0xBB SWAP2 SWAP1 PUSH2 0xBBB JUMP JUMPDEST PUSH2 0x1CE JUMP JUMPDEST STOP JUMPDEST CALLVALUE DUP1 ISZERO PUSH2 0xCE JUMPI PUSH1 0x0 DUP1 REVERT JUMPDEST POP PUSH2 0xE9 PUSH1 0x4 DUP1 CALLDATASIZE SUB DUP2 ADD SWAP1 PUSH2 0xE4 SWAP2 SWAP1 PUSH2 0xB5B JUMP JUMPDEST PUSH2 0x321 JUMP JUMPDEST STOP JUMPDEST CALLVALUE DUP1 ISZERO PUSH2 0xF7 JUMPI PUSH1 0x0 DUP1 REVERT JUMPDEST POP PUSH2 0x112 PUSH1 0x4 DUP1 CALLDATASIZE SUB DUP2 ADD SWAP1 PUSH2 0x10D SWAP2 SWAP1 PUSH2 0xC78 JUMP JUMPDEST PUSH2 0x3CD JUMP JUMPDEST PUSH1 0x40 MLOAD PUSH2 0x11F SWAP2 SWAP1 PUSH2 0xE55 JUMP JUMPDEST PUSH1 0x40 MLOAD DUP1 SWAP2 SUB SWAP1 RETURN JUMPDEST PUSH2 0x142 PUSH1 0x4 DUP1 CALLDATASIZE SUB DUP2 ADD SWAP1 PUSH2 0x13D SWAP2 SWAP1 PUSH2 0xC78 JUMP JUMPDEST PUSH2 0x4AC JUMP JUMPDEST STOP JUMPDEST CALLVALUE DUP1 ISZERO PUSH2 0x150 JUMPI PUSH1 0x0 DUP1 REVERT JUMPDEST POP PUSH2 0x16B PUSH1 0x4 DUP1 CALLDATASIZE SUB DUP2 ADD SWAP1 PUSH2 0x166 SWAP2 SWAP1 PUSH2 0xC78 JUMP JUMPDEST PUSH2 0x85A JUMP JUMPDEST PUSH1 0x40 MLOAD PUSH2 0x178 SWAP2 SWAP1 PUSH2 0xE77 JUMP JUMPDEST PUSH1 0x40 MLOAD DUP1 SWAP2 SUB SWAP1 RETURN JUMPDEST PUSH1 0x1 DUP2 DUP1 MLOAD PUSH1 0x20 DUP2 ADD DUP3 ADD DUP1 MLOAD DUP5 DUP3 MSTORE PUSH1 0x20 DUP4 ADD PUSH1 0x20 DUP6 ADD KECCAK256 DUP2 DUP4 MSTORE DUP1 SWAP6 POP POP POP POP POP POP PUSH1 0x0 SWAP2 POP SWAP1 POP DUP1 PUSH1 0x0 ADD SLOAD SWAP1 DUP1 PUSH1 0x1 ADD SLOAD SWAP1 DUP1 PUSH1 0x3 ADD PUSH1 0x0 SWAP1 SLOAD SWAP1 PUSH2 0x100 EXP SWAP1 DIV PUSH1 0xFF AND SWAP1 POP DUP4 JUMP JUMPDEST PUSH1 0x1 DUP5 DUP5 PUSH1 0x40 MLOAD PUSH2 0x1E0 SWAP3 SWAP2 SWAP1 PUSH2 0xE25 JUMP JUMPDEST SWAP1 DUP2 MSTORE PUSH1 0x20 ADD PUSH1 0x40 MLOAD DUP1 SWAP2 SUB SWAP1 KECCAK256 PUSH1 0x3 ADD PUSH1 0x0 SWAP1 SLOAD SWAP1 PUSH2 0x100 EXP SWAP1 DIV PUSH1 0xFF AND PUSH2 0x2E9 JUMPI PUSH2 0x20B PUSH2 0x906 JUMP JUMPDEST DUP3 DUP2 PUSH1 0x0 ADD DUP2 DUP2 MSTORE POP POP DUP2 DUP2 PUSH1 0x20 ADD DUP2 DUP2 MSTORE POP POP PUSH1 0x1 DUP2 PUSH1 0x60 ADD SWAP1 ISZERO ISZERO SWAP1 DUP2 ISZERO ISZERO DUP2 MSTORE POP POP DUP1 PUSH1 0x1 DUP7 DUP7 PUSH1 0x40 MLOAD PUSH2 0x243 SWAP3 SWAP2 SWAP1 PUSH2 0xE25 JUMP JUMPDEST SWAP1 DUP2 MSTORE PUSH1 0x20 ADD PUSH1 0x40 MLOAD DUP1 SWAP2 SUB SWAP1 KECCAK256 PUSH1 0x0 DUP3 ADD MLOAD DUP2 PUSH1 0x0 ADD SSTORE PUSH1 0x20 DUP3 ADD MLOAD DUP2 PUSH1 0x1 ADD SSTORE PUSH1 0x40 DUP3 ADD MLOAD DUP2 PUSH1 0x2 ADD SWAP1 DUP1 MLOAD SWAP1 PUSH1 0x20 ADD SWAP1 PUSH2 0x281 SWAP3 SWAP2 SWAP1 PUSH2 0x930 JUMP JUMPDEST POP PUSH1 0x60 DUP3 ADD MLOAD DUP2 PUSH1 0x3 ADD PUSH1 0x0 PUSH2 0x100 EXP DUP2 SLOAD DUP2 PUSH1 0xFF MUL NOT AND SWAP1 DUP4 ISZERO ISZERO MUL OR SWAP1 SSTORE POP SWAP1 POP POP PUSH1 0x0 DUP6 DUP6 SWAP1 SWAP2 DUP1 PUSH1 0x1 DUP2 SLOAD ADD DUP1 DUP3 SSTORE DUP1 SWAP2 POP POP PUSH1 0x1 SWAP1 SUB SWAP1 PUSH1 0x0 MSTORE PUSH1 0x20 PUSH1 0x0 KECCAK256 ADD PUSH1 0x0 SWAP1 SWAP2 SWAP3 SWAP1 SWAP2 SWAP3 SWAP1 SWAP2 SWAP3 SWAP1 SWAP2 SWAP3 POP SWAP2 SWAP1 PUSH2 0x2E2 SWAP3 SWAP2 SWAP1 PUSH2 0x9BA JUMP JUMPDEST POP POP PUSH2 0x31B JUMP JUMPDEST PUSH1 0x40 MLOAD PUSH32 0xB185DF3A00000000000000000000000000000000000000000000000000000000 DUP2 MSTORE PUSH1 0x4 ADD PUSH1 0x40 MLOAD DUP1 SWAP2 SUB SWAP1 REVERT JUMPDEST POP POP POP POP JUMP JUMPDEST PUSH1 0x1 DUP4 DUP4 PUSH1 0x40 MLOAD PUSH2 0x333 SWAP3 SWAP2 SWAP1 PUSH2 0xE25 JUMP JUMPDEST SWAP1 DUP2 MSTORE PUSH1 0x20 ADD PUSH1 0x40 MLOAD DUP1 SWAP2 SUB SWAP1 KECCAK256 PUSH1 0x3 ADD PUSH1 0x0 SWAP1 SLOAD SWAP1 PUSH2 0x100 EXP SWAP1 DIV PUSH1 0xFF AND ISZERO PUSH2 0x396 JUMPI DUP1 PUSH1 0x1 DUP5 DUP5 PUSH1 0x40 MLOAD PUSH2 0x36A SWAP3 SWAP2 SWAP1 PUSH2 0xE25 JUMP JUMPDEST SWAP1 DUP2 MSTORE PUSH1 0x20 ADD PUSH1 0x40 MLOAD DUP1 SWAP2 SUB SWAP1 KECCAK256 PUSH1 0x1 ADD PUSH1 0x0 DUP3 DUP3 SLOAD PUSH2 0x38A SWAP2 SWAP1 PUSH2 0xF9B JUMP JUMPDEST SWAP3 POP POP DUP2 SWAP1 SSTORE POP PUSH2 0x3C8 JUMP JUMPDEST PUSH1 0x40 MLOAD PUSH32 0x7E8D96A900000000000000000000000000000000000000000000000000000000 DUP2 MSTORE PUSH1 0x4 ADD PUSH1 0x40 MLOAD DUP1 SWAP2 SUB SWAP1 REVERT JUMPDEST POP POP POP JUMP JUMPDEST PUSH1 0x60 PUSH1 0x0 DUP1 SLOAD SWAP1 POP DUP3 LT ISZERO PUSH2 0x4A6 JUMPI PUSH1 0x1 PUSH1 0x0 DUP4 DUP2 SLOAD DUP2 LT PUSH2 0x3F2 JUMPI PUSH2 0x3F1 PUSH2 0x1166 JUMP JUMPDEST JUMPDEST SWAP1 PUSH1 0x0 MSTORE PUSH1 0x20 PUSH1 0x0 KECCAK256 ADD PUSH1 0x40 MLOAD PUSH2 0x409 SWAP2 SWAP1 PUSH2 0xE3E JUMP JUMPDEST SWAP1 DUP2 MSTORE PUSH1 0x20 ADD PUSH1 0x40 MLOAD DUP1 SWAP2 SUB SWAP1 KECCAK256 PUSH1 0x2 ADD DUP1 SLOAD DUP1 PUSH1 0x20 MUL PUSH1 0x20 ADD PUSH1 0x40 MLOAD SWAP1 DUP2 ADD PUSH1 0x40 MSTORE DUP1 SWAP3 SWAP2 SWAP1 DUP2 DUP2 MSTORE PUSH1 0x20 ADD DUP3 DUP1 SLOAD DUP1 ISZERO PUSH2 0x49A JUMPI PUSH1 0x20 MUL DUP3 ADD SWAP2 SWAP1 PUSH1 0x0 MSTORE PUSH1 0x20 PUSH1 0x0 KECCAK256 SWAP1 JUMPDEST DUP2 PUSH1 0x0 SWAP1 SLOAD SWAP1 PUSH2 0x100 EXP SWAP1 DIV PUSH20 0xFFFFFFFFFFFFFFFFFFFFFFFFFFFFFFFFFFFFFFFF AND PUSH20 0xFFFFFFFFFFFFFFFFFFFFFFFFFFFFFFFFFFFFFFFF AND DUP2 MSTORE PUSH1 0x20 ADD SWAP1 PUSH1 0x1 ADD SWAP1 DUP1 DUP4 GT PUSH2 0x450 JUMPI JUMPDEST POP POP POP POP POP SWAP1 POP PUSH2 0x4A7 JUMP JUMPDEST JUMPDEST SWAP2 SWAP1 POP JUMP JUMPDEST PUSH1 0x0 DUP1 SLOAD SWAP1 POP DUP2 LT DUP1 ISZERO PUSH2 0x51E JUMPI POP PUSH1 0x2 PUSH1 0x0 DUP3 DUP2 MSTORE PUSH1 0x20 ADD SWAP1 DUP2 MSTORE PUSH1 0x20 ADD PUSH1 0x0 KECCAK256 PUSH1 0x0 CALLER PUSH20 0xFFFFFFFFFFFFFFFFFFFFFFFFFFFFFFFFFFFFFFFF AND PUSH20 0xFFFFFFFFFFFFFFFFFFFFFFFFFFFFFFFFFFFFFFFF AND DUP2 MSTORE PUSH1 0x20 ADD SWAP1 DUP2 MSTORE PUSH1 0x20 ADD PUSH1 0x0 KECCAK256 PUSH1 0x2 ADD PUSH1 0x0 SWAP1 SLOAD SWAP1 PUSH2 0x100 EXP SWAP1 DIV PUSH1 0xFF AND ISZERO JUMPDEST ISZERO PUSH2 0x825 JUMPI PUSH1 0x0 PUSH1 0x1 PUSH1 0x0 DUP4 DUP2 SLOAD DUP2 LT PUSH2 0x53B JUMPI PUSH2 0x53A PUSH2 0x1166 JUMP JUMPDEST JUMPDEST SWAP1 PUSH1 0x0 MSTORE PUSH1 0x20 PUSH1 0x0 KECCAK256 ADD PUSH1 0x40 MLOAD PUSH2 0x552 SWAP2 SWAP1 PUSH2 0xE3E JUMP JUMPDEST SWAP1 DUP2 MSTORE PUSH1 0x20 ADD PUSH1 0x40 MLOAD DUP1 SWAP2 SUB SWAP1 KECCAK256 PUSH1 0x40 MLOAD DUP1 PUSH1 0x80 ADD PUSH1 0x40 MSTORE SWAP1 DUP2 PUSH1 0x0 DUP3 ADD SLOAD DUP2 MSTORE PUSH1 0x20 ADD PUSH1 0x1 DUP3 ADD SLOAD DUP2 MSTORE PUSH1 0x20 ADD PUSH1 0x2 DUP3 ADD DUP1 SLOAD DUP1 PUSH1 0x20 MUL PUSH1 0x20 ADD PUSH1 0x40 MLOAD SWAP1 DUP2 ADD PUSH1 0x40 MSTORE DUP1 SWAP3 SWAP2 SWAP1 DUP2 DUP2 MSTORE PUSH1 0x20 ADD DUP3 DUP1 SLOAD DUP1 ISZERO PUSH2 0x604 JUMPI PUSH1 0x20 MUL DUP3 ADD SWAP2 SWAP1 PUSH1 0x0 MSTORE PUSH1 0x20 PUSH1 0x0 KECCAK256 SWAP1 JUMPDEST DUP2 PUSH1 0x0 SWAP1 SLOAD SWAP1 PUSH2 0x100 EXP SWAP1 DIV PUSH20 0xFFFFFFFFFFFFFFFFFFFFFFFFFFFFFFFFFFFFFFFF AND PUSH20 0xFFFFFFFFFFFFFFFFFFFFFFFFFFFFFFFFFFFFFFFF AND DUP2 MSTORE PUSH1 0x20 ADD SWAP1 PUSH1 0x1 ADD SWAP1 DUP1 DUP4 GT PUSH2 0x5BA JUMPI JUMPDEST POP POP POP POP POP DUP2 MSTORE PUSH1 0x20 ADD PUSH1 0x3 DUP3 ADD PUSH1 0x0 SWAP1 SLOAD SWAP1 PUSH2 0x100 EXP SWAP1 DIV PUSH1 0xFF AND ISZERO ISZERO ISZERO ISZERO DUP2 MSTORE POP POP SWAP1 POP DUP1 PUSH1 0x0 ADD MLOAD CALLVALUE LT ISZERO PUSH2 0x668 JUMPI PUSH1 0x40 MLOAD PUSH32 0x538D76E800000000000000000000000000000000000000000000000000000000 DUP2 MSTORE PUSH1 0x4 ADD PUSH1 0x40 MLOAD DUP1 SWAP2 SUB SWAP1 REVERT JUMPDEST PUSH2 0x670 PUSH2 0xA40 JUMP JUMPDEST NUMBER DUP2 PUSH1 0x0 ADD DUP2 DUP2 MSTORE POP POP DUP2 PUSH1 0x0 ADD MLOAD DUP2 PUSH1 0x20 ADD DUP2 DUP2 MSTORE POP POP PUSH1 0x1 DUP2 PUSH1 0x40 ADD SWAP1 ISZERO ISZERO SWAP1 DUP2 ISZERO ISZERO DUP2 MSTORE POP POP DUP1 PUSH1 0x2 PUSH1 0x0 DUP6 DUP2 MSTORE PUSH1 0x20 ADD SWAP1 DUP2 MSTORE PUSH1 0x20 ADD PUSH1 0x0 KECCAK256 PUSH1 0x0 CALLER PUSH20 0xFFFFFFFFFFFFFFFFFFFFFFFFFFFFFFFFFFFFFFFF AND PUSH20 0xFFFFFFFFFFFFFFFFFFFFFFFFFFFFFFFFFFFFFFFF AND DUP2 MSTORE PUSH1 0x20 ADD SWAP1 DUP2 MSTORE PUSH1 0x20 ADD PUSH1 0x0 KECCAK256 PUSH1 0x0 DUP3 ADD MLOAD DUP2 PUSH1 0x0 ADD SSTORE PUSH1 0x20 DUP3 ADD MLOAD DUP2 PUSH1 0x1 ADD SSTORE PUSH1 0x40 DUP3 ADD MLOAD DUP2 PUSH1 0x2 ADD PUSH1 0x0 PUSH2 0x100 EXP DUP2 SLOAD DUP2 PUSH1 0xFF MUL NOT AND SWAP1 DUP4 ISZERO ISZERO MUL OR SWAP1 SSTORE POP SWAP1 POP POP CALLER DUP3 PUSH1 0x40 ADD MLOAD DUP4 PUSH1 0x40 ADD MLOAD MLOAD DUP2 MLOAD DUP2 LT PUSH2 0x73E JUMPI PUSH2 0x73D PUSH2 0x1166 JUMP JUMPDEST JUMPDEST PUSH1 0x20 MUL PUSH1 0x20 ADD ADD SWAP1 PUSH20 0xFFFFFFFFFFFFFFFFFFFFFFFFFFFFFFFFFFFFFFFF AND SWAP1 DUP2 PUSH20 0xFFFFFFFFFFFFFFFFFFFFFFFFFFFFFFFFFFFFFFFF AND DUP2 MSTORE POP POP DUP2 PUSH1 0x20 ADD DUP1 MLOAD DUP1 SWAP2 SWAP1 PUSH2 0x78A SWAP1 PUSH2 0x107B JUMP JUMPDEST DUP2 MSTORE POP POP DUP2 PUSH1 0x1 PUSH1 0x0 DUP6 DUP2 SLOAD DUP2 LT PUSH2 0x7A5 JUMPI PUSH2 0x7A4 PUSH2 0x1166 JUMP JUMPDEST JUMPDEST SWAP1 PUSH1 0x0 MSTORE PUSH1 0x20 PUSH1 0x0 KECCAK256 ADD PUSH1 0x40 MLOAD PUSH2 0x7BC SWAP2 SWAP1 PUSH2 0xE3E JUMP JUMPDEST SWAP1 DUP2 MSTORE PUSH1 0x20 ADD PUSH1 0x40 MLOAD DUP1 SWAP2 SUB SWAP1 KECCAK256 PUSH1 0x0 DUP3 ADD MLOAD DUP2 PUSH1 0x0 ADD SSTORE PUSH1 0x20 DUP3 ADD MLOAD DUP2 PUSH1 0x1 ADD SSTORE PUSH1 0x40 DUP3 ADD MLOAD DUP2 PUSH1 0x2 ADD SWAP1 DUP1 MLOAD SWAP1 PUSH1 0x20 ADD SWAP1 PUSH2 0x7FA SWAP3 SWAP2 SWAP1 PUSH2 0x930 JUMP JUMPDEST POP PUSH1 0x60 DUP3 ADD MLOAD DUP2 PUSH1 0x3 ADD PUSH1 0x0 PUSH2 0x100 EXP DUP2 SLOAD DUP2 PUSH1 0xFF MUL NOT AND SWAP1 DUP4 ISZERO ISZERO MUL OR SWAP1 SSTORE POP SWAP1 POP POP POP POP PUSH2 0x857 JUMP JUMPDEST PUSH1 0x40 MLOAD PUSH32 0xD42C9B8B00000000000000000000000000000000000000000000000000000000 DUP2 MSTORE PUSH1 0x4 ADD PUSH1 0x40 MLOAD DUP1 SWAP2 SUB SWAP1 REVERT JUMPDEST POP JUMP JUMPDEST PUSH1 0x0 DUP2 DUP2 SLOAD DUP2 LT PUSH2 0x86A JUMPI PUSH1 0x0 DUP1 REVERT JUMPDEST SWAP1 PUSH1 0x0 MSTORE PUSH1 0x20 PUSH1 0x0 KECCAK256 ADD PUSH1 0x0 SWAP2 POP SWAP1 POP DUP1 SLOAD PUSH2 0x885 SWAP1 PUSH2 0x10A5 JUMP JUMPDEST DUP1 PUSH1 0x1F ADD PUSH1 0x20 DUP1 SWAP2 DIV MUL PUSH1 0x20 ADD PUSH1 0x40 MLOAD SWAP1 DUP2 ADD PUSH1 0x40 MSTORE DUP1 SWAP3 SWAP2 SWAP1 DUP2 DUP2 MSTORE PUSH1 0x20 ADD DUP3 DUP1 SLOAD PUSH2 0x8B1 SWAP1 PUSH2 0x10A5 JUMP JUMPDEST DUP1 ISZERO PUSH2 0x8FE JUMPI DUP1 PUSH1 0x1F LT PUSH2 0x8D3 JUMPI PUSH2 0x100 DUP1 DUP4 SLOAD DIV MUL DUP4 MSTORE SWAP2 PUSH1 0x20 ADD SWAP2 PUSH2 0x8FE JUMP JUMPDEST DUP3 ADD SWAP2 SWAP1 PUSH1 0x0 MSTORE PUSH1 0x20 PUSH1 0x0 KECCAK256 SWAP1 JUMPDEST DUP2 SLOAD DUP2 MSTORE SWAP1 PUSH1 0x1 ADD SWAP1 PUSH1 0x20 ADD DUP1 DUP4 GT PUSH2 0x8E1 JUMPI DUP3 SWAP1 SUB PUSH1 0x1F AND DUP3 ADD SWAP2 JUMPDEST POP POP POP POP POP DUP2 JUMP JUMPDEST PUSH1 0x40 MLOAD DUP1 PUSH1 0x80 ADD PUSH1 0x40 MSTORE DUP1 PUSH1 0x0 DUP2 MSTORE PUSH1 0x20 ADD PUSH1 0x0 DUP2 MSTORE PUSH1 0x20 ADD PUSH1 0x60 DUP2 MSTORE PUSH1 0x20 ADD PUSH1 0x0 ISZERO ISZERO DUP2 MSTORE POP SWAP1 JUMP JUMPDEST DUP3 DUP1 SLOAD DUP3 DUP3 SSTORE SWAP1 PUSH1 0x0 MSTORE PUSH1 0x20 PUSH1 0x0 KECCAK256 SWAP1 DUP2 ADD SWAP3 DUP3 ISZERO PUSH2 0x9A9 JUMPI SWAP2 PUSH1 0x20 MUL DUP3 ADD JUMPDEST DUP3 DUP2 GT ISZERO PUSH2 0x9A8 JUMPI DUP3 MLOAD DUP3 PUSH1 0x0 PUSH2 0x100 EXP DUP2 SLOAD DUP2 PUSH20 0xFFFFFFFFFFFFFFFFFFFFFFFFFFFFFFFFFFFFFFFF MUL NOT AND SWAP1 DUP4 PUSH20 0xFFFFFFFFFFFFFFFFFFFFFFFFFFFFFFFFFFFFFFFF AND MUL OR SWAP1 SSTORE POP SWAP2 PUSH1 0x20 ADD SWAP2 SWAP1 PUSH1 0x1 ADD SWAP1 PUSH2 0x950 JUMP JUMPDEST JUMPDEST POP SWAP1 POP PUSH2 0x9B6 SWAP2 SWAP1 PUSH2 0xA63 JUMP JUMPDEST POP SWAP1 JUMP JUMPDEST DUP3 DUP1 SLOAD PUSH2 0x9C6 SWAP1 PUSH2 0x10A5 JUMP JUMPDEST SWAP1 PUSH1 0x0 MSTORE PUSH1 0x20 PUSH1 0x0 KECCAK256 SWAP1 PUSH1 0x1F ADD PUSH1 0x20 SWAP1 DIV DUP2 ADD SWAP3 DUP3 PUSH2 0x9E8 JUMPI PUSH1 0x0 DUP6 SSTORE PUSH2 0xA2F JUMP JUMPDEST DUP3 PUSH1 0x1F LT PUSH2 0xA01 JUMPI DUP1 CALLDATALOAD PUSH1 0xFF NOT AND DUP4 DUP1 ADD OR DUP6 SSTORE PUSH2 0xA2F JUMP JUMPDEST DUP3 DUP1 ADD PUSH1 0x1 ADD DUP6 SSTORE DUP3 ISZERO PUSH2 0xA2F JUMPI SWAP2 DUP3 ADD JUMPDEST DUP3 DUP2 GT ISZERO PUSH2 0xA2E JUMPI DUP3 CALLDATALOAD DUP3 SSTORE SWAP2 PUSH1 0x20 ADD SWAP2 SWAP1 PUSH1 0x1 ADD SWAP1 PUSH2 0xA13 JUMP JUMPDEST JUMPDEST POP SWAP1 POP PUSH2 0xA3C SWAP2 SWAP1 PUSH2 0xA63 JUMP JUMPDEST POP SWAP1 JUMP JUMPDEST PUSH1 0x40 MLOAD DUP1 PUSH1 0x60 ADD PUSH1 0x40 MSTORE DUP1 PUSH1 0x0 DUP2 MSTORE PUSH1 0x20 ADD PUSH1 0x0 DUP2 MSTORE PUSH1 0x20 ADD PUSH1 0x0 ISZERO ISZERO DUP2 MSTORE POP SWAP1 JUMP JUMPDEST JUMPDEST DUP1 DUP3 GT ISZERO PUSH2 0xA7C JUMPI PUSH1 0x0 DUP2 PUSH1 0x0 SWAP1 SSTORE POP PUSH1 0x1 ADD PUSH2 0xA64 JUMP JUMPDEST POP SWAP1 JUMP JUMPDEST PUSH1 0x0 PUSH2 0xA93 PUSH2 0xA8E DUP5 PUSH2 0xEF5 JUMP JUMPDEST PUSH2 0xED0 JUMP JUMPDEST SWAP1 POP DUP3 DUP2 MSTORE PUSH1 0x20 DUP2 ADD DUP5 DUP5 DUP5 ADD GT ISZERO PUSH2 0xAAF JUMPI PUSH2 0xAAE PUSH2 0x11D3 JUMP JUMPDEST JUMPDEST PUSH2 0xABA DUP5 DUP3 DUP6 PUSH2 0x1039 JUMP JUMPDEST POP SWAP4 SWAP3 POP POP POP JUMP JUMPDEST PUSH1 0x0 DUP1 DUP4 PUSH1 0x1F DUP5 ADD SLT PUSH2 0xAD8 JUMPI PUSH2 0xAD7 PUSH2 0x11C9 JUMP JUMPDEST JUMPDEST DUP3 CALLDATALOAD SWAP1 POP PUSH8 0xFFFFFFFFFFFFFFFF DUP2 GT ISZERO PUSH2 0xAF5 JUMPI PUSH2 0xAF4 PUSH2 0x11C4 JUMP JUMPDEST JUMPDEST PUSH1 0x20 DUP4 ADD SWAP2 POP DUP4 PUSH1 0x1 DUP3 MUL DUP4 ADD GT ISZERO PUSH2 0xB11 JUMPI PUSH2 0xB10 PUSH2 0x11CE JUMP JUMPDEST JUMPDEST SWAP3 POP SWAP3 SWAP1 POP JUMP JUMPDEST PUSH1 0x0 DUP3 PUSH1 0x1F DUP4 ADD SLT PUSH2 0xB2D JUMPI PUSH2 0xB2C PUSH2 0x11C9 JUMP JUMPDEST JUMPDEST DUP2 CALLDATALOAD PUSH2 0xB3D DUP5 DUP3 PUSH1 0x20 DUP7 ADD PUSH2 0xA80 JUMP JUMPDEST SWAP2 POP POP SWAP3 SWAP2 POP POP JUMP JUMPDEST PUSH1 0x0 DUP2 CALLDATALOAD SWAP1 POP PUSH2 0xB55 DUP2 PUSH2 0x11F3 JUMP JUMPDEST SWAP3 SWAP2 POP POP JUMP JUMPDEST PUSH1 0x0 DUP1 PUSH1 0x0 PUSH1 0x40 DUP5 DUP7 SUB SLT ISZERO PUSH2 0xB74 JUMPI PUSH2 0xB73 PUSH2 0x11DD JUMP JUMPDEST JUMPDEST PUSH1 0x0 DUP5 ADD CALLDATALOAD PUSH8 0xFFFFFFFFFFFFFFFF DUP2 GT ISZERO PUSH2 0xB92 JUMPI PUSH2 0xB91 PUSH2 0x11D8 JUMP JUMPDEST JUMPDEST PUSH2 0xB9E DUP7 DUP3 DUP8 ADD PUSH2 0xAC2 JUMP JUMPDEST SWAP4 POP SWAP4 POP POP PUSH1 0x20 PUSH2 0xBB1 DUP7 DUP3 DUP8 ADD PUSH2 0xB46 JUMP JUMPDEST SWAP2 POP POP SWAP3 POP SWAP3 POP SWAP3 JUMP JUMPDEST PUSH1 0x0 DUP1 PUSH1 0x0 DUP1 PUSH1 0x60 DUP6 DUP8 SUB SLT ISZERO PUSH2 0xBD5 JUMPI PUSH2 0xBD4 PUSH2 0x11DD JUMP JUMPDEST JUMPDEST PUSH1 0x0 DUP6 ADD CALLDATALOAD PUSH8 0xFFFFFFFFFFFFFFFF DUP2 GT ISZERO PUSH2 0xBF3 JUMPI PUSH2 0xBF2 PUSH2 0x11D8 JUMP JUMPDEST JUMPDEST PUSH2 0xBFF DUP8 DUP3 DUP9 ADD PUSH2 0xAC2 JUMP JUMPDEST SWAP5 POP SWAP5 POP POP PUSH1 0x20 PUSH2 0xC12 DUP8 DUP3 DUP9 ADD PUSH2 0xB46 JUMP JUMPDEST SWAP3 POP POP PUSH1 0x40 PUSH2 0xC23 DUP8 DUP3 DUP9 ADD PUSH2 0xB46 JUMP JUMPDEST SWAP2 POP POP SWAP3 SWAP6 SWAP2 SWAP5 POP SWAP3 POP JUMP JUMPDEST PUSH1 0x0 PUSH1 0x20 DUP3 DUP5 SUB SLT ISZERO PUSH2 0xC45 JUMPI PUSH2 0xC44 PUSH2 0x11DD JUMP JUMPDEST JUMPDEST PUSH1 0x0 DUP3 ADD CALLDATALOAD PUSH8 0xFFFFFFFFFFFFFFFF DUP2 GT ISZERO PUSH2 0xC63 JUMPI PUSH2 0xC62 PUSH2 0x11D8 JUMP JUMPDEST JUMPDEST PUSH2 0xC6F DUP5 DUP3 DUP6 ADD PUSH2 0xB18 JUMP JUMPDEST SWAP2 POP POP SWAP3 SWAP2 POP POP JUMP JUMPDEST PUSH1 0x0 PUSH1 0x20 DUP3 DUP5 SUB SLT ISZERO PUSH2 0xC8E JUMPI PUSH2 0xC8D PUSH2 0x11DD JUMP JUMPDEST JUMPDEST PUSH1 0x0 PUSH2 0xC9C DUP5 DUP3 DUP6 ADD PUSH2 0xB46 JUMP JUMPDEST SWAP2 POP POP SWAP3 SWAP2 POP POP JUMP JUMPDEST PUSH1 0x0 PUSH2 0xCB1 DUP4 DUP4 PUSH2 0xCBD JUMP JUMPDEST PUSH1 0x20 DUP4 ADD SWAP1 POP SWAP3 SWAP2 POP POP JUMP JUMPDEST PUSH2 0xCC6 DUP2 PUSH2 0xFF1 JUMP JUMPDEST DUP3 MSTORE POP POP JUMP JUMPDEST PUSH1 0x0 PUSH2 0xCD7 DUP3 PUSH2 0xF4B JUMP JUMPDEST PUSH2 0xCE1 DUP2 DUP6 PUSH2 0xF6E JUMP JUMPDEST SWAP4 POP PUSH2 0xCEC DUP4 PUSH2 0xF26 JUMP JUMPDEST DUP1 PUSH1 0x0 JUMPDEST DUP4 DUP2 LT ISZERO PUSH2 0xD1D JUMPI DUP2 MLOAD PUSH2 0xD04 DUP9 DUP3 PUSH2 0xCA5 JUMP JUMPDEST SWAP8 POP PUSH2 0xD0F DUP4 PUSH2 0xF61 JUMP JUMPDEST SWAP3 POP POP PUSH1 0x1 DUP2 ADD SWAP1 POP PUSH2 0xCF0 JUMP JUMPDEST POP DUP6 SWAP4 POP POP POP POP SWAP3 SWAP2 POP POP JUMP JUMPDEST PUSH2 0xD33 DUP2 PUSH2 0x1003 JUMP JUMPDEST DUP3 MSTORE POP POP JUMP JUMPDEST PUSH1 0x0 PUSH2 0xD45 DUP4 DUP6 PUSH2 0xF90 JUMP JUMPDEST SWAP4 POP PUSH2 0xD52 DUP4 DUP6 DUP5 PUSH2 0x1039 JUMP JUMPDEST DUP3 DUP5 ADD SWAP1 POP SWAP4 SWAP3 POP POP POP JUMP JUMPDEST PUSH1 0x0 PUSH2 0xD69 DUP3 PUSH2 0xF56 JUMP JUMPDEST PUSH2 0xD73 DUP2 DUP6 PUSH2 0xF7F JUMP JUMPDEST SWAP4 POP PUSH2 0xD83 DUP2 DUP6 PUSH1 0x20 DUP7 ADD PUSH2 0x1048 JUMP JUMPDEST PUSH2 0xD8C DUP2 PUSH2 0x11E2 JUMP JUMPDEST DUP5 ADD SWAP2 POP POP SWAP3 SWAP2 POP POP JUMP JUMPDEST PUSH1 0x0 DUP2 SLOAD PUSH2 0xDA4 DUP2 PUSH2 0x10A5 JUMP JUMPDEST PUSH2 0xDAE DUP2 DUP7 PUSH2 0xF90 JUMP JUMPDEST SWAP5 POP PUSH1 0x1 DUP3 AND PUSH1 0x0 DUP2 EQ PUSH2 0xDC9 JUMPI PUSH1 0x1 DUP2 EQ PUSH2 0xDDA JUMPI PUSH2 0xE0D JUMP JUMPDEST PUSH1 0xFF NOT DUP4 AND DUP7 MSTORE DUP2 DUP7 ADD SWAP4 POP PUSH2 0xE0D JUMP JUMPDEST PUSH2 0xDE3 DUP6 PUSH2 0xF36 JUMP JUMPDEST PUSH1 0x0 JUMPDEST DUP4 DUP2 LT ISZERO PUSH2 0xE05 JUMPI DUP2 SLOAD DUP2 DUP10 ADD MSTORE PUSH1 0x1 DUP3 ADD SWAP2 POP PUSH1 0x20 DUP2 ADD SWAP1 POP PUSH2 0xDE6 JUMP JUMPDEST DUP4 DUP9 ADD SWAP6 POP POP POP JUMPDEST POP POP POP SWAP3 SWAP2 POP POP JUMP JUMPDEST PUSH2 0xE1F DUP2 PUSH2 0x102F JUMP JUMPDEST DUP3 MSTORE POP POP JUMP JUMPDEST PUSH1 0x0 PUSH2 0xE32 DUP3 DUP5 DUP7 PUSH2 0xD39 JUMP JUMPDEST SWAP2 POP DUP2 SWAP1 POP SWAP4 SWAP3 POP POP POP JUMP JUMPDEST PUSH1 0x0 PUSH2 0xE4A DUP3 DUP5 PUSH2 0xD97 JUMP JUMPDEST SWAP2 POP DUP2 SWAP1 POP SWAP3 SWAP2 POP POP JUMP JUMPDEST PUSH1 0x0 PUSH1 0x20 DUP3 ADD SWAP1 POP DUP2 DUP2 SUB PUSH1 0x0 DUP4 ADD MSTORE PUSH2 0xE6F DUP2 DUP5 PUSH2 0xCCC JUMP JUMPDEST SWAP1 POP SWAP3 SWAP2 POP POP JUMP JUMPDEST PUSH1 0x0 PUSH1 0x20 DUP3 ADD SWAP1 POP DUP2 DUP2 SUB PUSH1 0x0 DUP4 ADD MSTORE PUSH2 0xE91 DUP2 DUP5 PUSH2 0xD5E JUMP JUMPDEST SWAP1 POP SWAP3 SWAP2 POP POP JUMP JUMPDEST PUSH1 0x0 PUSH1 0x60 DUP3 ADD SWAP1 POP PUSH2 0xEAE PUSH1 0x0 DUP4 ADD DUP7 PUSH2 0xE16 JUMP JUMPDEST PUSH2 0xEBB PUSH1 0x20 DUP4 ADD DUP6 PUSH2 0xE16 JUMP JUMPDEST PUSH2 0xEC8 PUSH1 0x40 DUP4 ADD DUP5 PUSH2 0xD2A JUMP JUMPDEST SWAP5 SWAP4 POP POP POP POP JUMP JUMPDEST PUSH1 0x0 PUSH2 0xEDA PUSH2 0xEEB JUMP JUMPDEST SWAP1 POP PUSH2 0xEE6 DUP3 DUP3 PUSH2 0x10D7 JUMP JUMPDEST SWAP2 SWAP1 POP JUMP JUMPDEST PUSH1 0x0 PUSH1 0x40 MLOAD SWAP1 POP SWAP1 JUMP JUMPDEST PUSH1 0x0 PUSH8 0xFFFFFFFFFFFFFFFF DUP3 GT ISZERO PUSH2 0xF10 JUMPI PUSH2 0xF0F PUSH2 0x1195 JUMP JUMPDEST JUMPDEST PUSH2 0xF19 DUP3 PUSH2 0x11E2 JUMP JUMPDEST SWAP1 POP PUSH1 0x20 DUP2 ADD SWAP1 POP SWAP2 SWAP1 POP JUMP JUMPDEST PUSH1 0x0 DUP2 SWAP1 POP PUSH1 0x20 DUP3 ADD SWAP1 POP SWAP2 SWAP1 POP JUMP JUMPDEST PUSH1 0x0 DUP2 SWAP1 POP DUP2 PUSH1 0x0 MSTORE PUSH1 0x20 PUSH1 0x0 KECCAK256 SWAP1 POP SWAP2 SWAP1 POP JUMP JUMPDEST PUSH1 0x0 DUP2 MLOAD SWAP1 POP SWAP2 SWAP1 POP JUMP JUMPDEST PUSH1 0x0 DUP2 MLOAD SWAP1 POP SWAP2 SWAP1 POP JUMP JUMPDEST PUSH1 0x0 PUSH1 0x20 DUP3 ADD SWAP1 POP SWAP2 SWAP1 POP JUMP JUMPDEST PUSH1 0x0 DUP3 DUP3 MSTORE PUSH1 0x20 DUP3 ADD SWAP1 POP SWAP3 SWAP2 POP POP JUMP JUMPDEST PUSH1 0x0 DUP3 DUP3 MSTORE PUSH1 0x20 DUP3 ADD SWAP1 POP SWAP3 SWAP2 POP POP JUMP JUMPDEST PUSH1 0x0 DUP2 SWAP1 POP SWAP3 SWAP2 POP POP JUMP JUMPDEST PUSH1 0x0 PUSH2 0xFA6 DUP3 PUSH2 0x102F JUMP JUMPDEST SWAP2 POP PUSH2 0xFB1 DUP4 PUSH2 0x102F JUMP JUMPDEST SWAP3 POP DUP3 PUSH32 0xFFFFFFFFFFFFFFFFFFFFFFFFFFFFFFFFFFFFFFFFFFFFFFFFFFFFFFFFFFFFFFFF SUB DUP3 GT ISZERO PUSH2 0xFE6 JUMPI PUSH2 0xFE5 PUSH2 0x1108 JUMP JUMPDEST JUMPDEST DUP3 DUP3 ADD SWAP1 POP SWAP3 SWAP2 POP POP JUMP JUMPDEST PUSH1 0x0 PUSH2 0xFFC DUP3 PUSH2 0x100F JUMP JUMPDEST SWAP1 POP SWAP2 SWAP1 POP JUMP JUMPDEST PUSH1 0x0 DUP2 ISZERO ISZERO SWAP1 POP SWAP2 SWAP1 POP JUMP JUMPDEST PUSH1 0x0 PUSH20 0xFFFFFFFFFFFFFFFFFFFFFFFFFFFFFFFFFFFFFFFF DUP3 AND SWAP1 POP SWAP2 SWAP1 POP JUMP JUMPDEST PUSH1 0x0 DUP2 SWAP1 POP SWAP2 SWAP1 POP JUMP JUMPDEST DUP3 DUP2 DUP4 CALLDATACOPY PUSH1 0x0 DUP4 DUP4 ADD MSTORE POP POP POP JUMP JUMPDEST PUSH1 0x0 JUMPDEST DUP4 DUP2 LT ISZERO PUSH2 0x1066 JUMPI DUP1 DUP3 ADD MLOAD DUP2 DUP5 ADD MSTORE PUSH1 0x20 DUP2 ADD SWAP1 POP PUSH2 0x104B JUMP JUMPDEST DUP4 DUP2 GT ISZERO PUSH2 0x1075 JUMPI PUSH1 0x0 DUP5 DUP5 ADD MSTORE JUMPDEST POP POP POP POP JUMP JUMPDEST PUSH1 0x0 PUSH2 0x1086 DUP3 PUSH2 0x102F JUMP JUMPDEST SWAP2 POP PUSH1 0x0 DUP3 EQ ISZERO PUSH2 0x109A JUMPI PUSH2 0x1099 PUSH2 0x1108 JUMP JUMPDEST JUMPDEST PUSH1 0x1 DUP3 SUB SWAP1 POP SWAP2 SWAP1 POP JUMP JUMPDEST PUSH1 0x0 PUSH1 0x2 DUP3 DIV SWAP1 POP PUSH1 0x1 DUP3 AND DUP1 PUSH2 0x10BD JUMPI PUSH1 0x7F DUP3 AND SWAP2 POP JUMPDEST PUSH1 0x20 DUP3 LT DUP2 EQ ISZERO PUSH2 0x10D1 JUMPI PUSH2 0x10D0 PUSH2 0x1137 JUMP JUMPDEST JUMPDEST POP SWAP2 SWAP1 POP JUMP JUMPDEST PUSH2 0x10E0 DUP3 PUSH2 0x11E2 JUMP JUMPDEST DUP2 ADD DUP2 DUP2 LT PUSH8 0xFFFFFFFFFFFFFFFF DUP3 GT OR ISZERO PUSH2 0x10FF JUMPI PUSH2 0x10FE PUSH2 0x1195 JUMP JUMPDEST JUMPDEST DUP1 PUSH1 0x40 MSTORE POP POP POP JUMP JUMPDEST PUSH32 0x4E487B7100000000000000000000000000000000000000000000000000000000 PUSH1 0x0 MSTORE PUSH1 0x11 PUSH1 0x4 MSTORE PUSH1 0x24 PUSH1 0x0 REVERT JUMPDEST PUSH32 0x4E487B7100000000000000000000000000000000000000000000000000000000 PUSH1 0x0 MSTORE PUSH1 0x22 PUSH1 0x4 MSTORE PUSH1 0x24 PUSH1 0x0 REVERT JUMPDEST PUSH32 0x4E487B7100000000000000000000000000000000000000000000000000000000 PUSH1 0x0 MSTORE PUSH1 0x32 PUSH1 0x4 MSTORE PUSH1 0x24 PUSH1 0x0 REVERT JUMPDEST PUSH32 0x4E487B7100000000000000000000000000000000000000000000000000000000 PUSH1 0x0 MSTORE PUSH1 0x41 PUSH1 0x4 MSTORE PUSH1 0x24 PUSH1 0x0 REVERT JUMPDEST PUSH1 0x0 DUP1 REVERT JUMPDEST PUSH1 0x0 DUP1 REVERT JUMPDEST PUSH1 0x0 DUP1 REVERT JUMPDEST PUSH1 0x0 DUP1 REVERT JUMPDEST PUSH1 0x0 DUP1 REVERT JUMPDEST PUSH1 0x0 DUP1 REVERT JUMPDEST PUSH1 0x0 PUSH1 0x1F NOT PUSH1 0x1F DUP4 ADD AND SWAP1 POP SWAP2 SWAP1 POP JUMP JUMPDEST PUSH2 0x11FC DUP2 PUSH2 0x102F JUMP JUMPDEST DUP2 EQ PUSH2 0x1207 JUMPI PUSH1 0x0 DUP1 REVERT JUMPDEST POP JUMP INVALID LOG2 PUSH5 0x6970667358 0x22 SLT KECCAK256 CALL RETURNDATASIZE EXTCODESIZE RETURNDATASIZE DUP10 DELEGATECALL PUSH32 0x83E3BD2ADAD44AC282CA521B1DBE3BD35AF2A1F96289767DEE64736F6C634300 ADDMOD SMOD STOP CALLER "
				},
				"gasEstimates": {
					"creation": {
						"codeDepositCost": "934400",
						"executionCost": "968",
						"totalCost": "935368"
					},
					"external": {
						"addNewProduct(string,uint256,uint256)": "infinite",
						"availableProducts(uint256)": "infinite",
						"buyProduct(uint256)": "infinite",
						"checkProductBuyers(uint256)": "infinite",
						"products(string)": "infinite",
						"updateQuantity(string,uint256)": "infinite"
					}
				},
				"methodIdentifiers": {
					"addNewProduct(string,uint256,uint256)": "0a5bd44b",
					"availableProducts(uint256)": "e4bcc7d4",
					"buyProduct(uint256)": "8642269e",
					"checkProductBuyers(uint256)": "74ce0ca9",
					"products(string)": "0186a423",
					"updateQuantity(string,uint256)": "1d894eb8"
				}
			},
			"storageLayout": {
				"storage": [
					{
						"astId": 29,
						"contract": "Project/TechnoLime.sol:TechnoLimeStore",
						"label": "availableProducts",
						"offset": 0,
						"slot": "0",
						"type": "t_array(t_string_storage)dyn_storage"
					},
					{
						"astId": 34,
						"contract": "Project/TechnoLime.sol:TechnoLimeStore",
						"label": "products",
						"offset": 0,
						"slot": "1",
						"type": "t_mapping(t_string_memory_ptr,t_struct(Product)26_storage)"
					},
					{
						"astId": 48,
						"contract": "Project/TechnoLime.sol:TechnoLimeStore",
						"label": "transactions",
						"offset": 0,
						"slot": "2",
						"type": "t_mapping(t_uint256,t_mapping(t_address,t_struct(Transaction)41_storage))"
					}
				],
				"types": {
					"t_address": {
						"encoding": "inplace",
						"label": "address",
						"numberOfBytes": "20"
					},
					"t_array(t_address)dyn_storage": {
						"base": "t_address",
						"encoding": "dynamic_array",
						"label": "address[]",
						"numberOfBytes": "32"
					},
					"t_array(t_string_storage)dyn_storage": {
						"base": "t_string_storage",
						"encoding": "dynamic_array",
						"label": "string[]",
						"numberOfBytes": "32"
					},
					"t_bool": {
						"encoding": "inplace",
						"label": "bool",
						"numberOfBytes": "1"
					},
					"t_mapping(t_address,t_struct(Transaction)41_storage)": {
						"encoding": "mapping",
						"key": "t_address",
						"label": "mapping(address => struct TechnoLimeStore.Transaction)",
						"numberOfBytes": "32",
						"value": "t_struct(Transaction)41_storage"
					},
					"t_mapping(t_string_memory_ptr,t_struct(Product)26_storage)": {
						"encoding": "mapping",
						"key": "t_string_memory_ptr",
						"label": "mapping(string => struct TechnoLimeStore.Product)",
						"numberOfBytes": "32",
						"value": "t_struct(Product)26_storage"
					},
					"t_mapping(t_uint256,t_mapping(t_address,t_struct(Transaction)41_storage))": {
						"encoding": "mapping",
						"key": "t_uint256",
						"label": "mapping(uint256 => mapping(address => struct TechnoLimeStore.Transaction))",
						"numberOfBytes": "32",
						"value": "t_mapping(t_address,t_struct(Transaction)41_storage)"
					},
					"t_string_memory_ptr": {
						"encoding": "bytes",
						"label": "string",
						"numberOfBytes": "32"
					},
					"t_string_storage": {
						"encoding": "bytes",
						"label": "string",
						"numberOfBytes": "32"
					},
					"t_struct(Product)26_storage": {
						"encoding": "inplace",
						"label": "struct TechnoLimeStore.Product",
						"members": [
							{
								"astId": 18,
								"contract": "Project/TechnoLime.sol:TechnoLimeStore",
								"label": "price",
								"offset": 0,
								"slot": "0",
								"type": "t_uint256"
							},
							{
								"astId": 20,
								"contract": "Project/TechnoLime.sol:TechnoLimeStore",
								"label": "quantity",
								"offset": 0,
								"slot": "1",
								"type": "t_uint256"
							},
							{
								"astId": 23,
								"contract": "Project/TechnoLime.sol:TechnoLimeStore",
								"label": "buyers",
								"offset": 0,
								"slot": "2",
								"type": "t_array(t_address)dyn_storage"
							},
							{
								"astId": 25,
								"contract": "Project/TechnoLime.sol:TechnoLimeStore",
								"label": "exists",
								"offset": 0,
								"slot": "3",
								"type": "t_bool"
							}
						],
						"numberOfBytes": "128"
					},
					"t_struct(Transaction)41_storage": {
						"encoding": "inplace",
						"label": "struct TechnoLimeStore.Transaction",
						"members": [
							{
								"astId": 36,
								"contract": "Project/TechnoLime.sol:TechnoLimeStore",
								"label": "blockNum",
								"offset": 0,
								"slot": "0",
								"type": "t_uint256"
							},
							{
								"astId": 38,
								"contract": "Project/TechnoLime.sol:TechnoLimeStore",
								"label": "price",
								"offset": 0,
								"slot": "1",
								"type": "t_uint256"
							},
							{
								"astId": 40,
								"contract": "Project/TechnoLime.sol:TechnoLimeStore",
								"label": "exists",
								"offset": 0,
								"slot": "2",
								"type": "t_bool"
							}
						],
						"numberOfBytes": "96"
					},
					"t_uint256": {
						"encoding": "inplace",
						"label": "uint256",
						"numberOfBytes": "32"
					}
				}
			},
			"userdoc": {
				"errors": {
					"ItemIdWrongOrBoughtAlready()": [
						{
							"notice": "Error trown when the productID doesn't exist or it has been bought once already"
						}
					],
					"LessThanPrice()": [
						{
							"notice": "Error trown when money sent is less than Product price"
						}
					],
					"ProductExists()": [
						{
							"notice": "Can't add a product that already exists"
						}
					]
				},
				"kind": "user",
				"methods": {},
				"version": 1
			}
		}
	}
}