{
	"Project/TechnoLime.sol": {
		"TechnoLimeStore": {
			"abi": [
				{
					"inputs": [],
					"stateMutability": "payable",
					"type": "constructor"
				},
				{
					"inputs": [],
					"name": "ItemIdWrongOrBoughtAlready",
					"type": "error"
				},
				{
					"inputs": [],
					"name": "LessThanPrice",
					"type": "error"
				},
				{
					"inputs": [],
					"name": "ProductExists",
					"type": "error"
				},
				{
					"inputs": [],
					"name": "ProductNotExistent",
					"type": "error"
				},
				{
					"inputs": [
						{
							"internalType": "string",
							"name": "productName",
							"type": "string"
						},
						{
							"internalType": "uint256",
							"name": "_price",
							"type": "uint256"
						},
						{
							"internalType": "uint256",
							"name": "_quantity",
							"type": "uint256"
						}
					],
					"name": "addNewProduct",
					"outputs": [],
					"stateMutability": "nonpayable",
					"type": "function"
				},
				{
					"inputs": [
						{
							"internalType": "uint256",
							"name": "",
							"type": "uint256"
						}
					],
					"name": "availableProducts",
					"outputs": [
						{
							"internalType": "string",
							"name": "",
							"type": "string"
						}
					],
					"stateMutability": "view",
					"type": "function"
				},
				{
					"inputs": [
						{
							"internalType": "uint256",
							"name": "ProductId",
							"type": "uint256"
						}
					],
					"name": "buyProduct",
					"outputs": [],
					"stateMutability": "payable",
					"type": "function"
				},
				{
					"inputs": [
						{
							"internalType": "uint256",
							"name": "",
							"type": "uint256"
						},
						{
							"internalType": "uint256",
							"name": "",
							"type": "uint256"
						}
					],
					"name": "buyers",
					"outputs": [
						{
							"internalType": "address",
							"name": "",
							"type": "address"
						}
					],
					"stateMutability": "view",
					"type": "function"
				},
				{
					"inputs": [
						{
							"internalType": "uint256",
							"name": "ProductId",
							"type": "uint256"
						}
					],
					"name": "checkProductBuyers",
					"outputs": [
						{
							"internalType": "address[]",
							"name": "",
							"type": "address[]"
						}
					],
					"stateMutability": "view",
					"type": "function"
				},
				{
					"inputs": [
						{
							"internalType": "string",
							"name": "",
							"type": "string"
						}
					],
					"name": "products",
					"outputs": [
						{
							"internalType": "uint256",
							"name": "price",
							"type": "uint256"
						},
						{
							"internalType": "uint256",
							"name": "quantity",
							"type": "uint256"
						},
						{
							"internalType": "bool",
							"name": "exists",
							"type": "bool"
						}
					],
					"stateMutability": "view",
					"type": "function"
				},
				{
					"inputs": [
						{
							"internalType": "uint256",
							"name": "",
							"type": "uint256"
						},
						{
							"internalType": "address",
							"name": "",
							"type": "address"
						}
					],
					"name": "transactions",
					"outputs": [
						{
							"internalType": "uint256",
							"name": "blockNum",
							"type": "uint256"
						},
						{
							"internalType": "uint256",
							"name": "price",
							"type": "uint256"
						},
						{
							"internalType": "bool",
							"name": "exists",
							"type": "bool"
						}
					],
					"stateMutability": "view",
					"type": "function"
				},
				{
					"inputs": [
						{
							"internalType": "string",
							"name": "productName",
							"type": "string"
						},
						{
							"internalType": "uint256",
							"name": "_quantity",
							"type": "uint256"
						}
					],
					"name": "updateQuantity",
					"outputs": [],
					"stateMutability": "nonpayable",
					"type": "function"
				}
			],
			"devdoc": {
				"kind": "dev",
				"methods": {},
				"version": 1
			},
			"evm": {
				"assembly": "    /* \"Project/TechnoLime.sol\":98:3240  contract TechnoLimeStore {\r... */\n  mstore(0x40, 0x80)\n  dataSize(sub_0)\n  dup1\n  dataOffset(sub_0)\n  0x00\n  codecopy\n  0x00\n  return\nstop\n\nsub_0: assembly {\n        /* \"Project/TechnoLime.sol\":98:3240  contract TechnoLimeStore {\r... */\n      mstore(0x40, 0x80)\n      jumpi(tag_1, lt(calldatasize, 0x04))\n      shr(0xe0, calldataload(0x00))\n      dup1\n      0x74cbc350\n      gt\n      tag_10\n      jumpi\n      dup1\n      0x74cbc350\n      eq\n      tag_6\n      jumpi\n      dup1\n      0x74ce0ca9\n      eq\n      tag_7\n      jumpi\n      dup1\n      0x8642269e\n      eq\n      tag_8\n      jumpi\n      dup1\n      0xe4bcc7d4\n      eq\n      tag_9\n      jumpi\n      jump(tag_1)\n    tag_10:\n      dup1\n      0x0186a423\n      eq\n      tag_2\n      jumpi\n      dup1\n      0x0a5bd44b\n      eq\n      tag_3\n      jumpi\n      dup1\n      0x1d894eb8\n      eq\n      tag_4\n      jumpi\n      dup1\n      0x27e7875a\n      eq\n      tag_5\n      jumpi\n    tag_1:\n      0x00\n      dup1\n      revert\n        /* \"Project/TechnoLime.sol\":381:423  mapping(string => Product) public products */\n    tag_2:\n      callvalue\n      dup1\n      iszero\n      tag_11\n      jumpi\n      0x00\n      dup1\n      revert\n    tag_11:\n      pop\n      tag_12\n      0x04\n      dup1\n      calldatasize\n      sub\n      dup2\n      add\n      swap1\n      tag_13\n      swap2\n      swap1\n      tag_14\n      jump\t// in\n    tag_13:\n      tag_15\n      jump\t// in\n    tag_12:\n      mload(0x40)\n      tag_16\n      swap4\n      swap3\n      swap2\n      swap1\n      tag_17\n      jump\t// in\n    tag_16:\n      mload(0x40)\n      dup1\n      swap2\n      sub\n      swap1\n      return\n        /* \"Project/TechnoLime.sol\":658:1246  function addNewProduct(string calldata productName, uint _price,uint _quantity) external{\r... */\n    tag_3:\n      callvalue\n      dup1\n      iszero\n      tag_18\n      jumpi\n      0x00\n      dup1\n      revert\n    tag_18:\n      pop\n      tag_19\n      0x04\n      dup1\n      calldatasize\n      sub\n      dup2\n      add\n      swap1\n      tag_20\n      swap2\n      swap1\n      tag_21\n      jump\t// in\n    tag_20:\n      tag_22\n      jump\t// in\n    tag_19:\n      stop\n        /* \"Project/TechnoLime.sol\":1254:1623  function updateQuantity(string calldata productName,uint _quantity) external{\r... */\n    tag_4:\n      callvalue\n      dup1\n      iszero\n      tag_23\n      jumpi\n      0x00\n      dup1\n      revert\n    tag_23:\n      pop\n      tag_24\n      0x04\n      dup1\n      calldatasize\n      sub\n      dup2\n      add\n      swap1\n      tag_25\n      swap2\n      swap1\n      tag_26\n      jump\t// in\n    tag_25:\n      tag_27\n      jump\t// in\n    tag_24:\n      stop\n        /* \"Project/TechnoLime.sol\":610:649  mapping(uint =>address[]) public buyers */\n    tag_5:\n      callvalue\n      dup1\n      iszero\n      tag_28\n      jumpi\n      0x00\n      dup1\n      revert\n    tag_28:\n      pop\n      tag_29\n      0x04\n      dup1\n      calldatasize\n      sub\n      dup2\n      add\n      swap1\n      tag_30\n      swap2\n      swap1\n      tag_31\n      jump\t// in\n    tag_30:\n      tag_32\n      jump\t// in\n    tag_29:\n      mload(0x40)\n      tag_33\n      swap2\n      swap1\n      tag_34\n      jump\t// in\n    tag_33:\n      mload(0x40)\n      dup1\n      swap2\n      sub\n      swap1\n      return\n        /* \"Project/TechnoLime.sol\":535:603  mapping(uint => mapping(address => Transaction)) public transactions */\n    tag_6:\n      callvalue\n      dup1\n      iszero\n      tag_35\n      jumpi\n      0x00\n      dup1\n      revert\n    tag_35:\n      pop\n      tag_36\n      0x04\n      dup1\n      calldatasize\n      sub\n      dup2\n      add\n      swap1\n      tag_37\n      swap2\n      swap1\n      tag_38\n      jump\t// in\n    tag_37:\n      tag_39\n      jump\t// in\n    tag_36:\n      mload(0x40)\n      tag_40\n      swap4\n      swap3\n      swap2\n      swap1\n      tag_17\n      jump\t// in\n    tag_40:\n      mload(0x40)\n      dup1\n      swap2\n      sub\n      swap1\n      return\n        /* \"Project/TechnoLime.sol\":3022:3231  function checkProductBuyers(uint ProductId) external view returns (address[]memory ){\r... */\n    tag_7:\n      callvalue\n      dup1\n      iszero\n      tag_41\n      jumpi\n      0x00\n      dup1\n      revert\n    tag_41:\n      pop\n      tag_42\n      0x04\n      dup1\n      calldatasize\n      sub\n      dup2\n      add\n      swap1\n      tag_43\n      swap2\n      swap1\n      tag_44\n      jump\t// in\n    tag_43:\n      tag_45\n      jump\t// in\n    tag_42:\n      mload(0x40)\n      tag_46\n      swap2\n      swap1\n      tag_47\n      jump\t// in\n    tag_46:\n      mload(0x40)\n      dup1\n      swap2\n      sub\n      swap1\n      return\n        /* \"Project/TechnoLime.sol\":1725:3014  function buyProduct (uint ProductId)  external payable { \r... */\n    tag_8:\n      tag_48\n      0x04\n      dup1\n      calldatasize\n      sub\n      dup2\n      add\n      swap1\n      tag_49\n      swap2\n      swap1\n      tag_44\n      jump\t// in\n    tag_49:\n      tag_50\n      jump\t// in\n    tag_48:\n      stop\n        /* \"Project/TechnoLime.sol\":341:374  string[] public availableProducts */\n    tag_9:\n      callvalue\n      dup1\n      iszero\n      tag_51\n      jumpi\n      0x00\n      dup1\n      revert\n    tag_51:\n      pop\n      tag_52\n      0x04\n      dup1\n      calldatasize\n      sub\n      dup2\n      add\n      swap1\n      tag_53\n      swap2\n      swap1\n      tag_44\n      jump\t// in\n    tag_53:\n      tag_54\n      jump\t// in\n    tag_52:\n      mload(0x40)\n      tag_55\n      swap2\n      swap1\n      tag_56\n      jump\t// in\n    tag_55:\n      mload(0x40)\n      dup1\n      swap2\n      sub\n      swap1\n      return\n        /* \"Project/TechnoLime.sol\":381:423  mapping(string => Product) public products */\n    tag_15:\n      0x01\n      dup2\n      dup1\n      mload\n      0x20\n      dup2\n      add\n      dup3\n      add\n      dup1\n      mload\n      dup5\n      dup3\n      mstore\n      0x20\n      dup4\n      add\n      0x20\n      dup6\n      add\n      keccak256\n      dup2\n      dup4\n      mstore\n      dup1\n      swap6\n      pop\n      pop\n      pop\n      pop\n      pop\n      pop\n      0x00\n      swap2\n      pop\n      swap1\n      pop\n      dup1\n      0x00\n      add\n      sload\n      swap1\n      dup1\n      0x01\n      add\n      sload\n      swap1\n      dup1\n      0x03\n      add\n      0x00\n      swap1\n      sload\n      swap1\n      0x0100\n      exp\n      swap1\n      div\n      0xff\n      and\n      swap1\n      pop\n      dup4\n      jump\t// out\n        /* \"Project/TechnoLime.sol\":658:1246  function addNewProduct(string calldata productName, uint _price,uint _quantity) external{\r... */\n    tag_22:\n        /* \"Project/TechnoLime.sol\":763:771  products */\n      0x01\n        /* \"Project/TechnoLime.sol\":772:783  productName */\n      dup5\n      dup5\n        /* \"Project/TechnoLime.sol\":763:784  products[productName] */\n      mload(0x40)\n      tag_58\n      swap3\n      swap2\n      swap1\n      tag_59\n      jump\t// in\n    tag_58:\n      swap1\n      dup2\n      mstore\n      0x20\n      add\n      mload(0x40)\n      dup1\n      swap2\n      sub\n      swap1\n      keccak256\n        /* \"Project/TechnoLime.sol\":763:791  products[productName].exists */\n      0x03\n      add\n      0x00\n      swap1\n      sload\n      swap1\n      0x0100\n      exp\n      swap1\n      div\n      0xff\n      and\n        /* \"Project/TechnoLime.sol\":758:1229  if (!products[productName].exists){\r... */\n      tag_60\n      jumpi\n        /* \"Project/TechnoLime.sol\":808:830  Product memory product */\n      tag_61\n      tag_62\n      jump\t// in\n    tag_61:\n        /* \"Project/TechnoLime.sol\":862:868  _price */\n      dup3\n        /* \"Project/TechnoLime.sol\":846:853  product */\n      dup2\n        /* \"Project/TechnoLime.sol\":846:859  product.price */\n      0x00\n      add\n        /* \"Project/TechnoLime.sol\":846:868  product.price = _price */\n      dup2\n      dup2\n      mstore\n      pop\n      pop\n        /* \"Project/TechnoLime.sol\":903:912  _quantity */\n      dup2\n        /* \"Project/TechnoLime.sol\":884:891  product */\n      dup2\n        /* \"Project/TechnoLime.sol\":884:900  product.quantity */\n      0x20\n      add\n        /* \"Project/TechnoLime.sol\":884:912  product.quantity = _quantity */\n      dup2\n      dup2\n      mstore\n      pop\n      pop\n        /* \"Project/TechnoLime.sol\":945:949  true */\n      0x01\n        /* \"Project/TechnoLime.sol\":928:935  product */\n      dup2\n        /* \"Project/TechnoLime.sol\":928:942  product.exists */\n      0x60\n      add\n        /* \"Project/TechnoLime.sol\":928:949  product.exists = true */\n      swap1\n      iszero\n      iszero\n      swap1\n      dup2\n      iszero\n      iszero\n      dup2\n      mstore\n      pop\n      pop\n        /* \"Project/TechnoLime.sol\":989:996  product */\n      dup1\n        /* \"Project/TechnoLime.sol\":965:973  products */\n      0x01\n        /* \"Project/TechnoLime.sol\":974:985  productName */\n      dup7\n      dup7\n        /* \"Project/TechnoLime.sol\":965:986  products[productName] */\n      mload(0x40)\n      tag_63\n      swap3\n      swap2\n      swap1\n      tag_59\n      jump\t// in\n    tag_63:\n      swap1\n      dup2\n      mstore\n      0x20\n      add\n      mload(0x40)\n      dup1\n      swap2\n      sub\n      swap1\n      keccak256\n        /* \"Project/TechnoLime.sol\":965:996  products[productName] = product */\n      0x00\n      dup3\n      add\n      mload\n      dup2\n      0x00\n      add\n      sstore\n      0x20\n      dup3\n      add\n      mload\n      dup2\n      0x01\n      add\n      sstore\n      0x40\n      dup3\n      add\n      mload\n      dup2\n      0x02\n      add\n      swap1\n      dup1\n      mload\n      swap1\n      0x20\n      add\n      swap1\n      tag_64\n      swap3\n      swap2\n      swap1\n      tag_65\n      jump\t// in\n    tag_64:\n      pop\n      0x60\n      dup3\n      add\n      mload\n      dup2\n      0x03\n      add\n      exp(0x0100, 0x00)\n      dup2\n      sload\n      dup2\n      0xff\n      mul\n      not\n      and\n      swap1\n      dup4\n      iszero\n      iszero\n      mul\n      or\n      swap1\n      sstore\n      pop\n      swap1\n      pop\n      pop\n        /* \"Project/TechnoLime.sol\":1012:1029  availableProducts */\n      0x00\n        /* \"Project/TechnoLime.sol\":1035:1046  productName */\n      dup6\n      dup6\n        /* \"Project/TechnoLime.sol\":1012:1047  availableProducts.push(productName) */\n      swap1\n      swap2\n      dup1\n      0x01\n      dup2\n      sload\n      add\n      dup1\n      dup3\n      sstore\n      dup1\n      swap2\n      pop\n      pop\n      0x01\n      swap1\n      sub\n      swap1\n      0x00\n      mstore\n      keccak256(0x00, 0x20)\n      add\n      0x00\n      swap1\n      swap2\n      swap3\n      swap1\n      swap2\n      swap3\n      swap1\n      swap2\n      swap3\n      swap1\n      swap2\n      swap3\n      pop\n      swap2\n      swap1\n      tag_67\n      swap3\n      swap2\n      swap1\n      tag_68\n      jump\t// in\n    tag_67:\n      pop\n        /* \"Project/TechnoLime.sol\":792:1060  {\r... */\n      pop\n        /* \"Project/TechnoLime.sol\":758:1229  if (!products[productName].exists){\r... */\n      jump(tag_69)\n    tag_60:\n        /* \"Project/TechnoLime.sol\":1194:1216  Errors.ProductExists() */\n      mload(0x40)\n      0xb185df3a00000000000000000000000000000000000000000000000000000000\n      dup2\n      mstore\n      0x04\n      add\n      mload(0x40)\n      dup1\n      swap2\n      sub\n      swap1\n      revert\n        /* \"Project/TechnoLime.sol\":758:1229  if (!products[productName].exists){\r... */\n    tag_69:\n        /* \"Project/TechnoLime.sol\":658:1246  function addNewProduct(string calldata productName, uint _price,uint _quantity) external{\r... */\n      pop\n      pop\n      pop\n      pop\n      jump\t// out\n        /* \"Project/TechnoLime.sol\":1254:1623  function updateQuantity(string calldata productName,uint _quantity) external{\r... */\n    tag_27:\n        /* \"Project/TechnoLime.sol\":1345:1353  products */\n      0x01\n        /* \"Project/TechnoLime.sol\":1354:1365  productName */\n      dup4\n      dup4\n        /* \"Project/TechnoLime.sol\":1345:1366  products[productName] */\n      mload(0x40)\n      tag_71\n      swap3\n      swap2\n      swap1\n      tag_59\n      jump\t// in\n    tag_71:\n      swap1\n      dup2\n      mstore\n      0x20\n      add\n      mload(0x40)\n      dup1\n      swap2\n      sub\n      swap1\n      keccak256\n        /* \"Project/TechnoLime.sol\":1345:1373  products[productName].exists */\n      0x03\n      add\n      0x00\n      swap1\n      sload\n      swap1\n      0x0100\n      exp\n      swap1\n      div\n      0xff\n      and\n        /* \"Project/TechnoLime.sol\":1341:1616  if (products[productName].exists){\r... */\n      iszero\n      tag_72\n      jumpi\n        /* \"Project/TechnoLime.sol\":1423:1432  _quantity */\n      dup1\n        /* \"Project/TechnoLime.sol\":1389:1397  products */\n      0x01\n        /* \"Project/TechnoLime.sol\":1398:1409  productName */\n      dup5\n      dup5\n        /* \"Project/TechnoLime.sol\":1389:1410  products[productName] */\n      mload(0x40)\n      tag_73\n      swap3\n      swap2\n      swap1\n      tag_59\n      jump\t// in\n    tag_73:\n      swap1\n      dup2\n      mstore\n      0x20\n      add\n      mload(0x40)\n      dup1\n      swap2\n      sub\n      swap1\n      keccak256\n        /* \"Project/TechnoLime.sol\":1389:1419  products[productName].quantity */\n      0x01\n      add\n      0x00\n        /* \"Project/TechnoLime.sol\":1389:1432  products[productName].quantity += _quantity */\n      dup3\n      dup3\n      sload\n      tag_74\n      swap2\n      swap1\n      tag_75\n      jump\t// in\n    tag_74:\n      swap3\n      pop\n      pop\n      dup2\n      swap1\n      sstore\n      pop\n        /* \"Project/TechnoLime.sol\":1341:1616  if (products[productName].exists){\r... */\n      jump(tag_76)\n    tag_72:\n        /* \"Project/TechnoLime.sol\":1577:1604  Errors.ProductNotExistent() */\n      mload(0x40)\n      0x7e8d96a900000000000000000000000000000000000000000000000000000000\n      dup2\n      mstore\n      0x04\n      add\n      mload(0x40)\n      dup1\n      swap2\n      sub\n      swap1\n      revert\n        /* \"Project/TechnoLime.sol\":1341:1616  if (products[productName].exists){\r... */\n    tag_76:\n        /* \"Project/TechnoLime.sol\":1254:1623  function updateQuantity(string calldata productName,uint _quantity) external{\r... */\n      pop\n      pop\n      pop\n      jump\t// out\n        /* \"Project/TechnoLime.sol\":610:649  mapping(uint =>address[]) public buyers */\n    tag_32:\n      mstore(0x20, 0x03)\n      dup2\n      0x00\n      mstore\n      keccak256(0x00, 0x40)\n      dup2\n      dup2\n      sload\n      dup2\n      lt\n      tag_77\n      jumpi\n      0x00\n      dup1\n      revert\n    tag_77:\n      swap1\n      0x00\n      mstore\n      keccak256(0x00, 0x20)\n      add\n      0x00\n      swap2\n      pop\n      swap2\n      pop\n      swap1\n      sload\n      swap1\n      0x0100\n      exp\n      swap1\n      div\n      0xffffffffffffffffffffffffffffffffffffffff\n      and\n      dup2\n      jump\t// out\n        /* \"Project/TechnoLime.sol\":535:603  mapping(uint => mapping(address => Transaction)) public transactions */\n    tag_39:\n      mstore(0x20, 0x02)\n      dup2\n      0x00\n      mstore\n      mstore(0x20, keccak256(0x00, 0x40))\n      dup1\n      0x00\n      mstore\n      keccak256(0x00, 0x40)\n      0x00\n      swap2\n      pop\n      swap2\n      pop\n      pop\n      dup1\n      0x00\n      add\n      sload\n      swap1\n      dup1\n      0x01\n      add\n      sload\n      swap1\n      dup1\n      0x02\n      add\n      0x00\n      swap1\n      sload\n      swap1\n      0x0100\n      exp\n      swap1\n      div\n      0xff\n      and\n      swap1\n      pop\n      dup4\n      jump\t// out\n        /* \"Project/TechnoLime.sol\":3022:3231  function checkProductBuyers(uint ProductId) external view returns (address[]memory ){\r... */\n    tag_45:\n        /* \"Project/TechnoLime.sol\":3089:3104  address[]memory */\n      0x60\n        /* \"Project/TechnoLime.sol\":3132:3149  availableProducts */\n      0x00\n        /* \"Project/TechnoLime.sol\":3132:3156  availableProducts.length */\n      dup1\n      sload\n      swap1\n      pop\n        /* \"Project/TechnoLime.sol\":3120:3129  ProductId */\n      dup3\n        /* \"Project/TechnoLime.sol\":3120:3156  ProductId < availableProducts.length */\n      lt\n        /* \"Project/TechnoLime.sol\":3117:3223  if(ProductId < availableProducts.length)\r... */\n      iszero\n      tag_80\n      jumpi\n        /* \"Project/TechnoLime.sol\":3178:3186  products */\n      0x01\n        /* \"Project/TechnoLime.sol\":3187:3204  availableProducts */\n      0x00\n        /* \"Project/TechnoLime.sol\":3205:3214  ProductId */\n      dup4\n        /* \"Project/TechnoLime.sol\":3187:3215  availableProducts[ProductId] */\n      dup2\n      sload\n      dup2\n      lt\n      tag_81\n      jumpi\n      tag_82\n      tag_83\n      jump\t// in\n    tag_82:\n    tag_81:\n      swap1\n      0x00\n      mstore\n      keccak256(0x00, 0x20)\n      add\n        /* \"Project/TechnoLime.sol\":3178:3216  products[availableProducts[ProductId]] */\n      mload(0x40)\n      tag_85\n      swap2\n      swap1\n      tag_86\n      jump\t// in\n    tag_85:\n      swap1\n      dup2\n      mstore\n      0x20\n      add\n      mload(0x40)\n      dup1\n      swap2\n      sub\n      swap1\n      keccak256\n        /* \"Project/TechnoLime.sol\":3178:3223  products[availableProducts[ProductId]].buyers */\n      0x02\n      add\n        /* \"Project/TechnoLime.sol\":3171:3223  return products[availableProducts[ProductId]].buyers */\n      dup1\n      sload\n      dup1\n      0x20\n      mul\n      0x20\n      add\n      mload(0x40)\n      swap1\n      dup2\n      add\n      0x40\n      mstore\n      dup1\n      swap3\n      swap2\n      swap1\n      dup2\n      dup2\n      mstore\n      0x20\n      add\n      dup3\n      dup1\n      sload\n      dup1\n      iszero\n      tag_87\n      jumpi\n      0x20\n      mul\n      dup3\n      add\n      swap2\n      swap1\n      0x00\n      mstore\n      keccak256(0x00, 0x20)\n      swap1\n    tag_88:\n      dup2\n      0x00\n      swap1\n      sload\n      swap1\n      0x0100\n      exp\n      swap1\n      div\n      0xffffffffffffffffffffffffffffffffffffffff\n      and\n      0xffffffffffffffffffffffffffffffffffffffff\n      and\n      dup2\n      mstore\n      0x20\n      add\n      swap1\n      0x01\n      add\n      swap1\n      dup1\n      dup4\n      gt\n      tag_88\n      jumpi\n    tag_87:\n      pop\n      pop\n      pop\n      pop\n      pop\n      swap1\n      pop\n      jump(tag_79)\n        /* \"Project/TechnoLime.sol\":3117:3223  if(ProductId < availableProducts.length)\r... */\n    tag_80:\n        /* \"Project/TechnoLime.sol\":3022:3231  function checkProductBuyers(uint ProductId) external view returns (address[]memory ){\r... */\n    tag_79:\n      swap2\n      swap1\n      pop\n      jump\t// out\n        /* \"Project/TechnoLime.sol\":1725:3014  function buyProduct (uint ProductId)  external payable { \r... */\n    tag_50:\n        /* \"Project/TechnoLime.sol\":1891:1908  availableProducts */\n      0x00\n        /* \"Project/TechnoLime.sol\":1891:1915  availableProducts.length */\n      dup1\n      sload\n      swap1\n      pop\n        /* \"Project/TechnoLime.sol\":1879:1888  ProductId */\n      dup2\n        /* \"Project/TechnoLime.sol\":1879:1915  ProductId < availableProducts.length */\n      lt\n        /* \"Project/TechnoLime.sol\":1879:1962  ProductId < availableProducts.length && !transactions[ProductId][msg.sender].exists */\n      dup1\n      iszero\n      tag_90\n      jumpi\n      pop\n        /* \"Project/TechnoLime.sol\":1920:1932  transactions */\n      0x02\n        /* \"Project/TechnoLime.sol\":1920:1943  transactions[ProductId] */\n      0x00\n        /* \"Project/TechnoLime.sol\":1933:1942  ProductId */\n      dup3\n        /* \"Project/TechnoLime.sol\":1920:1943  transactions[ProductId] */\n      dup2\n      mstore\n      0x20\n      add\n      swap1\n      dup2\n      mstore\n      0x20\n      add\n      0x00\n      keccak256\n        /* \"Project/TechnoLime.sol\":1920:1955  transactions[ProductId][msg.sender] */\n      0x00\n        /* \"Project/TechnoLime.sol\":1944:1954  msg.sender */\n      caller\n        /* \"Project/TechnoLime.sol\":1920:1955  transactions[ProductId][msg.sender] */\n      0xffffffffffffffffffffffffffffffffffffffff\n      and\n      0xffffffffffffffffffffffffffffffffffffffff\n      and\n      dup2\n      mstore\n      0x20\n      add\n      swap1\n      dup2\n      mstore\n      0x20\n      add\n      0x00\n      keccak256\n        /* \"Project/TechnoLime.sol\":1920:1962  transactions[ProductId][msg.sender].exists */\n      0x02\n      add\n      0x00\n      swap1\n      sload\n      swap1\n      0x0100\n      exp\n      swap1\n      div\n      0xff\n      and\n        /* \"Project/TechnoLime.sol\":1919:1962  !transactions[ProductId][msg.sender].exists */\n      iszero\n        /* \"Project/TechnoLime.sol\":1879:1962  ProductId < availableProducts.length && !transactions[ProductId][msg.sender].exists */\n    tag_90:\n        /* \"Project/TechnoLime.sol\":1876:2986  if(ProductId < availableProducts.length && !transactions[ProductId][msg.sender].exists){\r... */\n      iszero\n      tag_91\n      jumpi\n        /* \"Project/TechnoLime.sol\":2115:2137  Product memory product */\n      0x00\n        /* \"Project/TechnoLime.sol\":2139:2147  products */\n      0x01\n        /* \"Project/TechnoLime.sol\":2148:2165  availableProducts */\n      0x00\n        /* \"Project/TechnoLime.sol\":2166:2175  ProductId */\n      dup4\n        /* \"Project/TechnoLime.sol\":2148:2176  availableProducts[ProductId] */\n      dup2\n      sload\n      dup2\n      lt\n      tag_92\n      jumpi\n      tag_93\n      tag_83\n      jump\t// in\n    tag_93:\n    tag_92:\n      swap1\n      0x00\n      mstore\n      keccak256(0x00, 0x20)\n      add\n        /* \"Project/TechnoLime.sol\":2139:2177  products[availableProducts[ProductId]] */\n      mload(0x40)\n      tag_95\n      swap2\n      swap1\n      tag_86\n      jump\t// in\n    tag_95:\n      swap1\n      dup2\n      mstore\n      0x20\n      add\n      mload(0x40)\n      dup1\n      swap2\n      sub\n      swap1\n      keccak256\n        /* \"Project/TechnoLime.sol\":2115:2177  Product memory product= products[availableProducts[ProductId]] */\n      mload(0x40)\n      dup1\n      0x80\n      add\n      0x40\n      mstore\n      swap1\n      dup2\n      0x00\n      dup3\n      add\n      sload\n      dup2\n      mstore\n      0x20\n      add\n      0x01\n      dup3\n      add\n      sload\n      dup2\n      mstore\n      0x20\n      add\n      0x02\n      dup3\n      add\n      dup1\n      sload\n      dup1\n      0x20\n      mul\n      0x20\n      add\n      mload(0x40)\n      swap1\n      dup2\n      add\n      0x40\n      mstore\n      dup1\n      swap3\n      swap2\n      swap1\n      dup2\n      dup2\n      mstore\n      0x20\n      add\n      dup3\n      dup1\n      sload\n      dup1\n      iszero\n      tag_96\n      jumpi\n      0x20\n      mul\n      dup3\n      add\n      swap2\n      swap1\n      0x00\n      mstore\n      keccak256(0x00, 0x20)\n      swap1\n    tag_97:\n      dup2\n      0x00\n      swap1\n      sload\n      swap1\n      0x0100\n      exp\n      swap1\n      div\n      0xffffffffffffffffffffffffffffffffffffffff\n      and\n      0xffffffffffffffffffffffffffffffffffffffff\n      and\n      dup2\n      mstore\n      0x20\n      add\n      swap1\n      0x01\n      add\n      swap1\n      dup1\n      dup4\n      gt\n      tag_97\n      jumpi\n    tag_96:\n      pop\n      pop\n      pop\n      pop\n      pop\n      dup2\n      mstore\n      0x20\n      add\n      0x03\n      dup3\n      add\n      0x00\n      swap1\n      sload\n      swap1\n      0x0100\n      exp\n      swap1\n      div\n      0xff\n      and\n      iszero\n      iszero\n      iszero\n      iszero\n      dup2\n      mstore\n      pop\n      pop\n      swap1\n      pop\n        /* \"Project/TechnoLime.sol\":2211:2218  product */\n      dup1\n        /* \"Project/TechnoLime.sol\":2211:2224  product.price */\n      0x00\n      add\n      mload\n        /* \"Project/TechnoLime.sol\":2199:2208  msg.value */\n      callvalue\n        /* \"Project/TechnoLime.sol\":2199:2224  msg.value < product.price */\n      lt\n        /* \"Project/TechnoLime.sol\":2196:2276  if(msg.value < product.price)\r... */\n      iszero\n      tag_98\n      jumpi\n        /* \"Project/TechnoLime.sol\":2254:2276  Errors.LessThanPrice() */\n      mload(0x40)\n      0x538d76e800000000000000000000000000000000000000000000000000000000\n      dup2\n      mstore\n      0x04\n      add\n      mload(0x40)\n      dup1\n      swap2\n      sub\n      swap1\n      revert\n        /* \"Project/TechnoLime.sol\":2196:2276  if(msg.value < product.price)\r... */\n    tag_98:\n        /* \"Project/TechnoLime.sol\":2297:2330  Transaction memory newTransaction */\n      tag_99\n      tag_100\n      jump\t// in\n    tag_99:\n        /* \"Project/TechnoLime.sol\":2375:2387  block.number */\n      number\n        /* \"Project/TechnoLime.sol\":2349:2363  newTransaction */\n      dup2\n        /* \"Project/TechnoLime.sol\":2349:2372  newTransaction.blockNum */\n      0x00\n      add\n        /* \"Project/TechnoLime.sol\":2349:2387  newTransaction.blockNum = block.number */\n      dup2\n      dup2\n      mstore\n      pop\n      pop\n        /* \"Project/TechnoLime.sol\":2429:2436  product */\n      dup2\n        /* \"Project/TechnoLime.sol\":2429:2442  product.price */\n      0x00\n      add\n      mload\n        /* \"Project/TechnoLime.sol\":2406:2420  newTransaction */\n      dup2\n        /* \"Project/TechnoLime.sol\":2406:2426  newTransaction.price */\n      0x20\n      add\n        /* \"Project/TechnoLime.sol\":2406:2442  newTransaction.price = product.price */\n      dup2\n      dup2\n      mstore\n      pop\n      pop\n        /* \"Project/TechnoLime.sol\":2485:2489  true */\n      0x01\n        /* \"Project/TechnoLime.sol\":2461:2475  newTransaction */\n      dup2\n        /* \"Project/TechnoLime.sol\":2461:2482  newTransaction.exists */\n      0x40\n      add\n        /* \"Project/TechnoLime.sol\":2461:2489  newTransaction.exists = true */\n      swap1\n      iszero\n      iszero\n      swap1\n      dup2\n      iszero\n      iszero\n      dup2\n      mstore\n      pop\n      pop\n        /* \"Project/TechnoLime.sol\":2582:2596  newTransaction */\n      dup1\n        /* \"Project/TechnoLime.sol\":2544:2556  transactions */\n      0x02\n        /* \"Project/TechnoLime.sol\":2544:2567  transactions[ProductId] */\n      0x00\n        /* \"Project/TechnoLime.sol\":2557:2566  ProductId */\n      dup6\n        /* \"Project/TechnoLime.sol\":2544:2567  transactions[ProductId] */\n      dup2\n      mstore\n      0x20\n      add\n      swap1\n      dup2\n      mstore\n      0x20\n      add\n      0x00\n      keccak256\n        /* \"Project/TechnoLime.sol\":2544:2579  transactions[ProductId][msg.sender] */\n      0x00\n        /* \"Project/TechnoLime.sol\":2568:2578  msg.sender */\n      caller\n        /* \"Project/TechnoLime.sol\":2544:2579  transactions[ProductId][msg.sender] */\n      0xffffffffffffffffffffffffffffffffffffffff\n      and\n      0xffffffffffffffffffffffffffffffffffffffff\n      and\n      dup2\n      mstore\n      0x20\n      add\n      swap1\n      dup2\n      mstore\n      0x20\n      add\n      0x00\n      keccak256\n        /* \"Project/TechnoLime.sol\":2544:2596  transactions[ProductId][msg.sender] = newTransaction */\n      0x00\n      dup3\n      add\n      mload\n      dup2\n      0x00\n      add\n      sstore\n      0x20\n      dup3\n      add\n      mload\n      dup2\n      0x01\n      add\n      sstore\n      0x40\n      dup3\n      add\n      mload\n      dup2\n      0x02\n      add\n      exp(0x0100, 0x00)\n      dup2\n      sload\n      dup2\n      0xff\n      mul\n      not\n      and\n      swap1\n      dup4\n      iszero\n      iszero\n      mul\n      or\n      swap1\n      sstore\n      pop\n      swap1\n      pop\n      pop\n        /* \"Project/TechnoLime.sol\":2617:2624  product */\n      dup2\n        /* \"Project/TechnoLime.sol\":2617:2633  product.quantity */\n      0x20\n      add\n        /* \"Project/TechnoLime.sol\":2617:2635  product.quantity-- */\n      dup1\n      mload\n      dup1\n      swap2\n      swap1\n      tag_101\n      swap1\n      tag_102\n      jump\t// in\n    tag_101:\n      dup2\n      mstore\n      pop\n      pop\n        /* \"Project/TechnoLime.sol\":2729:2736  product */\n      dup2\n        /* \"Project/TechnoLime.sol\":2690:2698  products */\n      0x01\n        /* \"Project/TechnoLime.sol\":2699:2716  availableProducts */\n      0x00\n        /* \"Project/TechnoLime.sol\":2717:2726  ProductId */\n      dup6\n        /* \"Project/TechnoLime.sol\":2699:2727  availableProducts[ProductId] */\n      dup2\n      sload\n      dup2\n      lt\n      tag_103\n      jumpi\n      tag_104\n      tag_83\n      jump\t// in\n    tag_104:\n    tag_103:\n      swap1\n      0x00\n      mstore\n      keccak256(0x00, 0x20)\n      add\n        /* \"Project/TechnoLime.sol\":2690:2728  products[availableProducts[ProductId]] */\n      mload(0x40)\n      tag_106\n      swap2\n      swap1\n      tag_86\n      jump\t// in\n    tag_106:\n      swap1\n      dup2\n      mstore\n      0x20\n      add\n      mload(0x40)\n      dup1\n      swap2\n      sub\n      swap1\n      keccak256\n        /* \"Project/TechnoLime.sol\":2690:2736  products[availableProducts[ProductId]]=product */\n      0x00\n      dup3\n      add\n      mload\n      dup2\n      0x00\n      add\n      sstore\n      0x20\n      dup3\n      add\n      mload\n      dup2\n      0x01\n      add\n      sstore\n      0x40\n      dup3\n      add\n      mload\n      dup2\n      0x02\n      add\n      swap1\n      dup1\n      mload\n      swap1\n      0x20\n      add\n      swap1\n      tag_107\n      swap3\n      swap2\n      swap1\n      tag_65\n      jump\t// in\n    tag_107:\n      pop\n      0x60\n      dup3\n      add\n      mload\n      dup2\n      0x03\n      add\n      exp(0x0100, 0x00)\n      dup2\n      sload\n      dup2\n      0xff\n      mul\n      not\n      and\n      swap1\n      dup4\n      iszero\n      iszero\n      mul\n      or\n      swap1\n      sstore\n      pop\n      swap1\n      pop\n      pop\n        /* \"Project/TechnoLime.sol\":2785:2791  buyers */\n      0x03\n        /* \"Project/TechnoLime.sol\":2785:2802  buyers[ProductId] */\n      0x00\n        /* \"Project/TechnoLime.sol\":2792:2801  ProductId */\n      dup5\n        /* \"Project/TechnoLime.sol\":2785:2802  buyers[ProductId] */\n      dup2\n      mstore\n      0x20\n      add\n      swap1\n      dup2\n      mstore\n      0x20\n      add\n      0x00\n      keccak256\n        /* \"Project/TechnoLime.sol\":2808:2818  msg.sender */\n      caller\n        /* \"Project/TechnoLime.sol\":2785:2819  buyers[ProductId].push(msg.sender) */\n      swap1\n      dup1\n      0x01\n      dup2\n      sload\n      add\n      dup1\n      dup3\n      sstore\n      dup1\n      swap2\n      pop\n      pop\n      0x01\n      swap1\n      sub\n      swap1\n      0x00\n      mstore\n      keccak256(0x00, 0x20)\n      add\n      0x00\n      swap1\n      swap2\n      swap1\n      swap2\n      swap1\n      swap2\n      0x0100\n      exp\n      dup2\n      sload\n      dup2\n      0xffffffffffffffffffffffffffffffffffffffff\n      mul\n      not\n      and\n      swap1\n      dup4\n      0xffffffffffffffffffffffffffffffffffffffff\n      and\n      mul\n      or\n      swap1\n      sstore\n      pop\n        /* \"Project/TechnoLime.sol\":1963:2837  {\r... */\n      pop\n      pop\n        /* \"Project/TechnoLime.sol\":1876:2986  if(ProductId < availableProducts.length && !transactions[ProductId][msg.sender].exists){\r... */\n      jump(tag_109)\n    tag_91:\n        /* \"Project/TechnoLime.sol\":2935:2970  Errors.ItemIdWrongOrBoughtAlready() */\n      mload(0x40)\n      0xd42c9b8b00000000000000000000000000000000000000000000000000000000\n      dup2\n      mstore\n      0x04\n      add\n      mload(0x40)\n      dup1\n      swap2\n      sub\n      swap1\n      revert\n        /* \"Project/TechnoLime.sol\":1876:2986  if(ProductId < availableProducts.length && !transactions[ProductId][msg.sender].exists){\r... */\n    tag_109:\n        /* \"Project/TechnoLime.sol\":1725:3014  function buyProduct (uint ProductId)  external payable { \r... */\n      pop\n      jump\t// out\n        /* \"Project/TechnoLime.sol\":341:374  string[] public availableProducts */\n    tag_54:\n      0x00\n      dup2\n      dup2\n      sload\n      dup2\n      lt\n      tag_110\n      jumpi\n      0x00\n      dup1\n      revert\n    tag_110:\n      swap1\n      0x00\n      mstore\n      keccak256(0x00, 0x20)\n      add\n      0x00\n      swap2\n      pop\n      swap1\n      pop\n      dup1\n      sload\n      tag_112\n      swap1\n      tag_113\n      jump\t// in\n    tag_112:\n      dup1\n      0x1f\n      add\n      0x20\n      dup1\n      swap2\n      div\n      mul\n      0x20\n      add\n      mload(0x40)\n      swap1\n      dup2\n      add\n      0x40\n      mstore\n      dup1\n      swap3\n      swap2\n      swap1\n      dup2\n      dup2\n      mstore\n      0x20\n      add\n      dup3\n      dup1\n      sload\n      tag_114\n      swap1\n      tag_113\n      jump\t// in\n    tag_114:\n      dup1\n      iszero\n      tag_115\n      jumpi\n      dup1\n      0x1f\n      lt\n      tag_116\n      jumpi\n      0x0100\n      dup1\n      dup4\n      sload\n      div\n      mul\n      dup4\n      mstore\n      swap2\n      0x20\n      add\n      swap2\n      jump(tag_115)\n    tag_116:\n      dup3\n      add\n      swap2\n      swap1\n      0x00\n      mstore\n      keccak256(0x00, 0x20)\n      swap1\n    tag_117:\n      dup2\n      sload\n      dup2\n      mstore\n      swap1\n      0x01\n      add\n      swap1\n      0x20\n      add\n      dup1\n      dup4\n      gt\n      tag_117\n      jumpi\n      dup3\n      swap1\n      sub\n      0x1f\n      and\n      dup3\n      add\n      swap2\n    tag_115:\n      pop\n      pop\n      pop\n      pop\n      pop\n      dup2\n      jump\t// out\n    tag_62:\n      mload(0x40)\n      dup1\n      0x80\n      add\n      0x40\n      mstore\n      dup1\n      0x00\n      dup2\n      mstore\n      0x20\n      add\n      0x00\n      dup2\n      mstore\n      0x20\n      add\n      0x60\n      dup2\n      mstore\n      0x20\n      add\n      iszero(iszero(0x00))\n      dup2\n      mstore\n      pop\n      swap1\n      jump\t// out\n    tag_65:\n      dup3\n      dup1\n      sload\n      dup3\n      dup3\n      sstore\n      swap1\n      0x00\n      mstore\n      keccak256(0x00, 0x20)\n      swap1\n      dup2\n      add\n      swap3\n      dup3\n      iszero\n      tag_118\n      jumpi\n      swap2\n      0x20\n      mul\n      dup3\n      add\n    tag_119:\n      dup3\n      dup2\n      gt\n      iszero\n      tag_120\n      jumpi\n      dup3\n      mload\n      dup3\n      exp(0x0100, 0x00)\n      dup2\n      sload\n      dup2\n      0xffffffffffffffffffffffffffffffffffffffff\n      mul\n      not\n      and\n      swap1\n      dup4\n      0xffffffffffffffffffffffffffffffffffffffff\n      and\n      mul\n      or\n      swap1\n      sstore\n      pop\n      swap2\n      0x20\n      add\n      swap2\n      swap1\n      0x01\n      add\n      swap1\n      jump(tag_119)\n    tag_120:\n    tag_118:\n      pop\n      swap1\n      pop\n      tag_121\n      swap2\n      swap1\n      tag_122\n      jump\t// in\n    tag_121:\n      pop\n      swap1\n      jump\t// out\n    tag_68:\n      dup3\n      dup1\n      sload\n      tag_123\n      swap1\n      tag_113\n      jump\t// in\n    tag_123:\n      swap1\n      0x00\n      mstore\n      keccak256(0x00, 0x20)\n      swap1\n      0x1f\n      add\n      0x20\n      swap1\n      div\n      dup2\n      add\n      swap3\n      dup3\n      tag_125\n      jumpi\n      0x00\n      dup6\n      sstore\n      jump(tag_124)\n    tag_125:\n      dup3\n      0x1f\n      lt\n      tag_126\n      jumpi\n      dup1\n      calldataload\n      not(0xff)\n      and\n      dup4\n      dup1\n      add\n      or\n      dup6\n      sstore\n      jump(tag_124)\n    tag_126:\n      dup3\n      dup1\n      add\n      0x01\n      add\n      dup6\n      sstore\n      dup3\n      iszero\n      tag_124\n      jumpi\n      swap2\n      dup3\n      add\n    tag_127:\n      dup3\n      dup2\n      gt\n      iszero\n      tag_128\n      jumpi\n      dup3\n      calldataload\n      dup3\n      sstore\n      swap2\n      0x20\n      add\n      swap2\n      swap1\n      0x01\n      add\n      swap1\n      jump(tag_127)\n    tag_128:\n    tag_124:\n      pop\n      swap1\n      pop\n      tag_129\n      swap2\n      swap1\n      tag_122\n      jump\t// in\n    tag_129:\n      pop\n      swap1\n      jump\t// out\n    tag_100:\n      mload(0x40)\n      dup1\n      0x60\n      add\n      0x40\n      mstore\n      dup1\n      0x00\n      dup2\n      mstore\n      0x20\n      add\n      0x00\n      dup2\n      mstore\n      0x20\n      add\n      iszero(iszero(0x00))\n      dup2\n      mstore\n      pop\n      swap1\n      jump\t// out\n    tag_122:\n    tag_130:\n      dup1\n      dup3\n      gt\n      iszero\n      tag_131\n      jumpi\n      0x00\n      dup2\n      0x00\n      swap1\n      sstore\n      pop\n      0x01\n      add\n      jump(tag_130)\n    tag_131:\n      pop\n      swap1\n      jump\t// out\n        /* \"#utility.yul\":7:419   */\n    tag_133:\n        /* \"#utility.yul\":85:90   */\n      0x00\n        /* \"#utility.yul\":110:176   */\n      tag_135\n        /* \"#utility.yul\":126:175   */\n      tag_136\n        /* \"#utility.yul\":168:174   */\n      dup5\n        /* \"#utility.yul\":126:175   */\n      tag_137\n      jump\t// in\n    tag_136:\n        /* \"#utility.yul\":110:176   */\n      tag_138\n      jump\t// in\n    tag_135:\n        /* \"#utility.yul\":101:176   */\n      swap1\n      pop\n        /* \"#utility.yul\":199:205   */\n      dup3\n        /* \"#utility.yul\":192:197   */\n      dup2\n        /* \"#utility.yul\":185:206   */\n      mstore\n        /* \"#utility.yul\":237:241   */\n      0x20\n        /* \"#utility.yul\":230:235   */\n      dup2\n        /* \"#utility.yul\":226:242   */\n      add\n        /* \"#utility.yul\":275:278   */\n      dup5\n        /* \"#utility.yul\":266:272   */\n      dup5\n        /* \"#utility.yul\":261:264   */\n      dup5\n        /* \"#utility.yul\":257:273   */\n      add\n        /* \"#utility.yul\":254:279   */\n      gt\n        /* \"#utility.yul\":251:363   */\n      iszero\n      tag_139\n      jumpi\n        /* \"#utility.yul\":282:361   */\n      tag_140\n      tag_141\n      jump\t// in\n    tag_140:\n        /* \"#utility.yul\":251:363   */\n    tag_139:\n        /* \"#utility.yul\":372:413   */\n      tag_142\n        /* \"#utility.yul\":406:412   */\n      dup5\n        /* \"#utility.yul\":401:404   */\n      dup3\n        /* \"#utility.yul\":396:399   */\n      dup6\n        /* \"#utility.yul\":372:413   */\n      tag_143\n      jump\t// in\n    tag_142:\n        /* \"#utility.yul\":91:419   */\n      pop\n        /* \"#utility.yul\":7:419   */\n      swap4\n      swap3\n      pop\n      pop\n      pop\n      jump\t// out\n        /* \"#utility.yul\":425:564   */\n    tag_144:\n        /* \"#utility.yul\":471:476   */\n      0x00\n        /* \"#utility.yul\":509:515   */\n      dup2\n        /* \"#utility.yul\":496:516   */\n      calldataload\n        /* \"#utility.yul\":487:516   */\n      swap1\n      pop\n        /* \"#utility.yul\":525:558   */\n      tag_146\n        /* \"#utility.yul\":552:557   */\n      dup2\n        /* \"#utility.yul\":525:558   */\n      tag_147\n      jump\t// in\n    tag_146:\n        /* \"#utility.yul\":425:564   */\n      swap3\n      swap2\n      pop\n      pop\n      jump\t// out\n        /* \"#utility.yul\":584:1137   */\n    tag_148:\n        /* \"#utility.yul\":642:650   */\n      0x00\n        /* \"#utility.yul\":652:658   */\n      dup1\n        /* \"#utility.yul\":702:705   */\n      dup4\n        /* \"#utility.yul\":695:699   */\n      0x1f\n        /* \"#utility.yul\":687:693   */\n      dup5\n        /* \"#utility.yul\":683:700   */\n      add\n        /* \"#utility.yul\":679:706   */\n      slt\n        /* \"#utility.yul\":669:791   */\n      tag_150\n      jumpi\n        /* \"#utility.yul\":710:789   */\n      tag_151\n      tag_152\n      jump\t// in\n    tag_151:\n        /* \"#utility.yul\":669:791   */\n    tag_150:\n        /* \"#utility.yul\":823:829   */\n      dup3\n        /* \"#utility.yul\":810:830   */\n      calldataload\n        /* \"#utility.yul\":800:830   */\n      swap1\n      pop\n        /* \"#utility.yul\":853:871   */\n      0xffffffffffffffff\n        /* \"#utility.yul\":845:851   */\n      dup2\n        /* \"#utility.yul\":842:872   */\n      gt\n        /* \"#utility.yul\":839:956   */\n      iszero\n      tag_153\n      jumpi\n        /* \"#utility.yul\":875:954   */\n      tag_154\n      tag_155\n      jump\t// in\n    tag_154:\n        /* \"#utility.yul\":839:956   */\n    tag_153:\n        /* \"#utility.yul\":989:993   */\n      0x20\n        /* \"#utility.yul\":981:987   */\n      dup4\n        /* \"#utility.yul\":977:994   */\n      add\n        /* \"#utility.yul\":965:994   */\n      swap2\n      pop\n        /* \"#utility.yul\":1043:1046   */\n      dup4\n        /* \"#utility.yul\":1035:1039   */\n      0x01\n        /* \"#utility.yul\":1027:1033   */\n      dup3\n        /* \"#utility.yul\":1023:1040   */\n      mul\n        /* \"#utility.yul\":1013:1021   */\n      dup4\n        /* \"#utility.yul\":1009:1041   */\n      add\n        /* \"#utility.yul\":1006:1047   */\n      gt\n        /* \"#utility.yul\":1003:1131   */\n      iszero\n      tag_156\n      jumpi\n        /* \"#utility.yul\":1050:1129   */\n      tag_157\n      tag_158\n      jump\t// in\n    tag_157:\n        /* \"#utility.yul\":1003:1131   */\n    tag_156:\n        /* \"#utility.yul\":584:1137   */\n      swap3\n      pop\n      swap3\n      swap1\n      pop\n      jump\t// out\n        /* \"#utility.yul\":1157:1497   */\n    tag_159:\n        /* \"#utility.yul\":1213:1218   */\n      0x00\n        /* \"#utility.yul\":1262:1265   */\n      dup3\n        /* \"#utility.yul\":1255:1259   */\n      0x1f\n        /* \"#utility.yul\":1247:1253   */\n      dup4\n        /* \"#utility.yul\":1243:1260   */\n      add\n        /* \"#utility.yul\":1239:1266   */\n      slt\n        /* \"#utility.yul\":1229:1351   */\n      tag_161\n      jumpi\n        /* \"#utility.yul\":1270:1349   */\n      tag_162\n      tag_152\n      jump\t// in\n    tag_162:\n        /* \"#utility.yul\":1229:1351   */\n    tag_161:\n        /* \"#utility.yul\":1387:1393   */\n      dup2\n        /* \"#utility.yul\":1374:1394   */\n      calldataload\n        /* \"#utility.yul\":1412:1491   */\n      tag_163\n        /* \"#utility.yul\":1487:1490   */\n      dup5\n        /* \"#utility.yul\":1479:1485   */\n      dup3\n        /* \"#utility.yul\":1472:1476   */\n      0x20\n        /* \"#utility.yul\":1464:1470   */\n      dup7\n        /* \"#utility.yul\":1460:1477   */\n      add\n        /* \"#utility.yul\":1412:1491   */\n      tag_133\n      jump\t// in\n    tag_163:\n        /* \"#utility.yul\":1403:1491   */\n      swap2\n      pop\n        /* \"#utility.yul\":1219:1497   */\n      pop\n        /* \"#utility.yul\":1157:1497   */\n      swap3\n      swap2\n      pop\n      pop\n      jump\t// out\n        /* \"#utility.yul\":1503:1642   */\n    tag_164:\n        /* \"#utility.yul\":1549:1554   */\n      0x00\n        /* \"#utility.yul\":1587:1593   */\n      dup2\n        /* \"#utility.yul\":1574:1594   */\n      calldataload\n        /* \"#utility.yul\":1565:1594   */\n      swap1\n      pop\n        /* \"#utility.yul\":1603:1636   */\n      tag_166\n        /* \"#utility.yul\":1630:1635   */\n      dup2\n        /* \"#utility.yul\":1603:1636   */\n      tag_167\n      jump\t// in\n    tag_166:\n        /* \"#utility.yul\":1503:1642   */\n      swap3\n      swap2\n      pop\n      pop\n      jump\t// out\n        /* \"#utility.yul\":1648:2322   */\n    tag_26:\n        /* \"#utility.yul\":1728:1734   */\n      0x00\n        /* \"#utility.yul\":1736:1742   */\n      dup1\n        /* \"#utility.yul\":1744:1750   */\n      0x00\n        /* \"#utility.yul\":1793:1795   */\n      0x40\n        /* \"#utility.yul\":1781:1790   */\n      dup5\n        /* \"#utility.yul\":1772:1779   */\n      dup7\n        /* \"#utility.yul\":1768:1791   */\n      sub\n        /* \"#utility.yul\":1764:1796   */\n      slt\n        /* \"#utility.yul\":1761:1880   */\n      iszero\n      tag_169\n      jumpi\n        /* \"#utility.yul\":1799:1878   */\n      tag_170\n      tag_171\n      jump\t// in\n    tag_170:\n        /* \"#utility.yul\":1761:1880   */\n    tag_169:\n        /* \"#utility.yul\":1947:1948   */\n      0x00\n        /* \"#utility.yul\":1936:1945   */\n      dup5\n        /* \"#utility.yul\":1932:1949   */\n      add\n        /* \"#utility.yul\":1919:1950   */\n      calldataload\n        /* \"#utility.yul\":1977:1995   */\n      0xffffffffffffffff\n        /* \"#utility.yul\":1969:1975   */\n      dup2\n        /* \"#utility.yul\":1966:1996   */\n      gt\n        /* \"#utility.yul\":1963:2080   */\n      iszero\n      tag_172\n      jumpi\n        /* \"#utility.yul\":1999:2078   */\n      tag_173\n      tag_174\n      jump\t// in\n    tag_173:\n        /* \"#utility.yul\":1963:2080   */\n    tag_172:\n        /* \"#utility.yul\":2112:2177   */\n      tag_175\n        /* \"#utility.yul\":2169:2176   */\n      dup7\n        /* \"#utility.yul\":2160:2166   */\n      dup3\n        /* \"#utility.yul\":2149:2158   */\n      dup8\n        /* \"#utility.yul\":2145:2167   */\n      add\n        /* \"#utility.yul\":2112:2177   */\n      tag_148\n      jump\t// in\n    tag_175:\n        /* \"#utility.yul\":2094:2177   */\n      swap4\n      pop\n      swap4\n      pop\n        /* \"#utility.yul\":1890:2187   */\n      pop\n        /* \"#utility.yul\":2226:2228   */\n      0x20\n        /* \"#utility.yul\":2252:2305   */\n      tag_176\n        /* \"#utility.yul\":2297:2304   */\n      dup7\n        /* \"#utility.yul\":2288:2294   */\n      dup3\n        /* \"#utility.yul\":2277:2286   */\n      dup8\n        /* \"#utility.yul\":2273:2295   */\n      add\n        /* \"#utility.yul\":2252:2305   */\n      tag_164\n      jump\t// in\n    tag_176:\n        /* \"#utility.yul\":2242:2305   */\n      swap2\n      pop\n        /* \"#utility.yul\":2197:2315   */\n      pop\n        /* \"#utility.yul\":1648:2322   */\n      swap3\n      pop\n      swap3\n      pop\n      swap3\n      jump\t// out\n        /* \"#utility.yul\":2328:3147   */\n    tag_21:\n        /* \"#utility.yul\":2417:2423   */\n      0x00\n        /* \"#utility.yul\":2425:2431   */\n      dup1\n        /* \"#utility.yul\":2433:2439   */\n      0x00\n        /* \"#utility.yul\":2441:2447   */\n      dup1\n        /* \"#utility.yul\":2490:2492   */\n      0x60\n        /* \"#utility.yul\":2478:2487   */\n      dup6\n        /* \"#utility.yul\":2469:2476   */\n      dup8\n        /* \"#utility.yul\":2465:2488   */\n      sub\n        /* \"#utility.yul\":2461:2493   */\n      slt\n        /* \"#utility.yul\":2458:2577   */\n      iszero\n      tag_178\n      jumpi\n        /* \"#utility.yul\":2496:2575   */\n      tag_179\n      tag_171\n      jump\t// in\n    tag_179:\n        /* \"#utility.yul\":2458:2577   */\n    tag_178:\n        /* \"#utility.yul\":2644:2645   */\n      0x00\n        /* \"#utility.yul\":2633:2642   */\n      dup6\n        /* \"#utility.yul\":2629:2646   */\n      add\n        /* \"#utility.yul\":2616:2647   */\n      calldataload\n        /* \"#utility.yul\":2674:2692   */\n      0xffffffffffffffff\n        /* \"#utility.yul\":2666:2672   */\n      dup2\n        /* \"#utility.yul\":2663:2693   */\n      gt\n        /* \"#utility.yul\":2660:2777   */\n      iszero\n      tag_180\n      jumpi\n        /* \"#utility.yul\":2696:2775   */\n      tag_181\n      tag_174\n      jump\t// in\n    tag_181:\n        /* \"#utility.yul\":2660:2777   */\n    tag_180:\n        /* \"#utility.yul\":2809:2874   */\n      tag_182\n        /* \"#utility.yul\":2866:2873   */\n      dup8\n        /* \"#utility.yul\":2857:2863   */\n      dup3\n        /* \"#utility.yul\":2846:2855   */\n      dup9\n        /* \"#utility.yul\":2842:2864   */\n      add\n        /* \"#utility.yul\":2809:2874   */\n      tag_148\n      jump\t// in\n    tag_182:\n        /* \"#utility.yul\":2791:2874   */\n      swap5\n      pop\n      swap5\n      pop\n        /* \"#utility.yul\":2587:2884   */\n      pop\n        /* \"#utility.yul\":2923:2925   */\n      0x20\n        /* \"#utility.yul\":2949:3002   */\n      tag_183\n        /* \"#utility.yul\":2994:3001   */\n      dup8\n        /* \"#utility.yul\":2985:2991   */\n      dup3\n        /* \"#utility.yul\":2974:2983   */\n      dup9\n        /* \"#utility.yul\":2970:2992   */\n      add\n        /* \"#utility.yul\":2949:3002   */\n      tag_164\n      jump\t// in\n    tag_183:\n        /* \"#utility.yul\":2939:3002   */\n      swap3\n      pop\n        /* \"#utility.yul\":2894:3012   */\n      pop\n        /* \"#utility.yul\":3051:3053   */\n      0x40\n        /* \"#utility.yul\":3077:3130   */\n      tag_184\n        /* \"#utility.yul\":3122:3129   */\n      dup8\n        /* \"#utility.yul\":3113:3119   */\n      dup3\n        /* \"#utility.yul\":3102:3111   */\n      dup9\n        /* \"#utility.yul\":3098:3120   */\n      add\n        /* \"#utility.yul\":3077:3130   */\n      tag_164\n      jump\t// in\n    tag_184:\n        /* \"#utility.yul\":3067:3130   */\n      swap2\n      pop\n        /* \"#utility.yul\":3022:3140   */\n      pop\n        /* \"#utility.yul\":2328:3147   */\n      swap3\n      swap6\n      swap2\n      swap5\n      pop\n      swap3\n      pop\n      jump\t// out\n        /* \"#utility.yul\":3153:3662   */\n    tag_14:\n        /* \"#utility.yul\":3222:3228   */\n      0x00\n        /* \"#utility.yul\":3271:3273   */\n      0x20\n        /* \"#utility.yul\":3259:3268   */\n      dup3\n        /* \"#utility.yul\":3250:3257   */\n      dup5\n        /* \"#utility.yul\":3246:3269   */\n      sub\n        /* \"#utility.yul\":3242:3274   */\n      slt\n        /* \"#utility.yul\":3239:3358   */\n      iszero\n      tag_186\n      jumpi\n        /* \"#utility.yul\":3277:3356   */\n      tag_187\n      tag_171\n      jump\t// in\n    tag_187:\n        /* \"#utility.yul\":3239:3358   */\n    tag_186:\n        /* \"#utility.yul\":3425:3426   */\n      0x00\n        /* \"#utility.yul\":3414:3423   */\n      dup3\n        /* \"#utility.yul\":3410:3427   */\n      add\n        /* \"#utility.yul\":3397:3428   */\n      calldataload\n        /* \"#utility.yul\":3455:3473   */\n      0xffffffffffffffff\n        /* \"#utility.yul\":3447:3453   */\n      dup2\n        /* \"#utility.yul\":3444:3474   */\n      gt\n        /* \"#utility.yul\":3441:3558   */\n      iszero\n      tag_188\n      jumpi\n        /* \"#utility.yul\":3477:3556   */\n      tag_189\n      tag_174\n      jump\t// in\n    tag_189:\n        /* \"#utility.yul\":3441:3558   */\n    tag_188:\n        /* \"#utility.yul\":3582:3645   */\n      tag_190\n        /* \"#utility.yul\":3637:3644   */\n      dup5\n        /* \"#utility.yul\":3628:3634   */\n      dup3\n        /* \"#utility.yul\":3617:3626   */\n      dup6\n        /* \"#utility.yul\":3613:3635   */\n      add\n        /* \"#utility.yul\":3582:3645   */\n      tag_159\n      jump\t// in\n    tag_190:\n        /* \"#utility.yul\":3572:3645   */\n      swap2\n      pop\n        /* \"#utility.yul\":3368:3655   */\n      pop\n        /* \"#utility.yul\":3153:3662   */\n      swap3\n      swap2\n      pop\n      pop\n      jump\t// out\n        /* \"#utility.yul\":3668:3997   */\n    tag_44:\n        /* \"#utility.yul\":3727:3733   */\n      0x00\n        /* \"#utility.yul\":3776:3778   */\n      0x20\n        /* \"#utility.yul\":3764:3773   */\n      dup3\n        /* \"#utility.yul\":3755:3762   */\n      dup5\n        /* \"#utility.yul\":3751:3774   */\n      sub\n        /* \"#utility.yul\":3747:3779   */\n      slt\n        /* \"#utility.yul\":3744:3863   */\n      iszero\n      tag_192\n      jumpi\n        /* \"#utility.yul\":3782:3861   */\n      tag_193\n      tag_171\n      jump\t// in\n    tag_193:\n        /* \"#utility.yul\":3744:3863   */\n    tag_192:\n        /* \"#utility.yul\":3902:3903   */\n      0x00\n        /* \"#utility.yul\":3927:3980   */\n      tag_194\n        /* \"#utility.yul\":3972:3979   */\n      dup5\n        /* \"#utility.yul\":3963:3969   */\n      dup3\n        /* \"#utility.yul\":3952:3961   */\n      dup6\n        /* \"#utility.yul\":3948:3970   */\n      add\n        /* \"#utility.yul\":3927:3980   */\n      tag_164\n      jump\t// in\n    tag_194:\n        /* \"#utility.yul\":3917:3980   */\n      swap2\n      pop\n        /* \"#utility.yul\":3873:3990   */\n      pop\n        /* \"#utility.yul\":3668:3997   */\n      swap3\n      swap2\n      pop\n      pop\n      jump\t// out\n        /* \"#utility.yul\":4003:4477   */\n    tag_38:\n        /* \"#utility.yul\":4071:4077   */\n      0x00\n        /* \"#utility.yul\":4079:4085   */\n      dup1\n        /* \"#utility.yul\":4128:4130   */\n      0x40\n        /* \"#utility.yul\":4116:4125   */\n      dup4\n        /* \"#utility.yul\":4107:4114   */\n      dup6\n        /* \"#utility.yul\":4103:4126   */\n      sub\n        /* \"#utility.yul\":4099:4131   */\n      slt\n        /* \"#utility.yul\":4096:4215   */\n      iszero\n      tag_196\n      jumpi\n        /* \"#utility.yul\":4134:4213   */\n      tag_197\n      tag_171\n      jump\t// in\n    tag_197:\n        /* \"#utility.yul\":4096:4215   */\n    tag_196:\n        /* \"#utility.yul\":4254:4255   */\n      0x00\n        /* \"#utility.yul\":4279:4332   */\n      tag_198\n        /* \"#utility.yul\":4324:4331   */\n      dup6\n        /* \"#utility.yul\":4315:4321   */\n      dup3\n        /* \"#utility.yul\":4304:4313   */\n      dup7\n        /* \"#utility.yul\":4300:4322   */\n      add\n        /* \"#utility.yul\":4279:4332   */\n      tag_164\n      jump\t// in\n    tag_198:\n        /* \"#utility.yul\":4269:4332   */\n      swap3\n      pop\n        /* \"#utility.yul\":4225:4342   */\n      pop\n        /* \"#utility.yul\":4381:4383   */\n      0x20\n        /* \"#utility.yul\":4407:4460   */\n      tag_199\n        /* \"#utility.yul\":4452:4459   */\n      dup6\n        /* \"#utility.yul\":4443:4449   */\n      dup3\n        /* \"#utility.yul\":4432:4441   */\n      dup7\n        /* \"#utility.yul\":4428:4450   */\n      add\n        /* \"#utility.yul\":4407:4460   */\n      tag_144\n      jump\t// in\n    tag_199:\n        /* \"#utility.yul\":4397:4460   */\n      swap2\n      pop\n        /* \"#utility.yul\":4352:4470   */\n      pop\n        /* \"#utility.yul\":4003:4477   */\n      swap3\n      pop\n      swap3\n      swap1\n      pop\n      jump\t// out\n        /* \"#utility.yul\":4483:4957   */\n    tag_31:\n        /* \"#utility.yul\":4551:4557   */\n      0x00\n        /* \"#utility.yul\":4559:4565   */\n      dup1\n        /* \"#utility.yul\":4608:4610   */\n      0x40\n        /* \"#utility.yul\":4596:4605   */\n      dup4\n        /* \"#utility.yul\":4587:4594   */\n      dup6\n        /* \"#utility.yul\":4583:4606   */\n      sub\n        /* \"#utility.yul\":4579:4611   */\n      slt\n        /* \"#utility.yul\":4576:4695   */\n      iszero\n      tag_201\n      jumpi\n        /* \"#utility.yul\":4614:4693   */\n      tag_202\n      tag_171\n      jump\t// in\n    tag_202:\n        /* \"#utility.yul\":4576:4695   */\n    tag_201:\n        /* \"#utility.yul\":4734:4735   */\n      0x00\n        /* \"#utility.yul\":4759:4812   */\n      tag_203\n        /* \"#utility.yul\":4804:4811   */\n      dup6\n        /* \"#utility.yul\":4795:4801   */\n      dup3\n        /* \"#utility.yul\":4784:4793   */\n      dup7\n        /* \"#utility.yul\":4780:4802   */\n      add\n        /* \"#utility.yul\":4759:4812   */\n      tag_164\n      jump\t// in\n    tag_203:\n        /* \"#utility.yul\":4749:4812   */\n      swap3\n      pop\n        /* \"#utility.yul\":4705:4822   */\n      pop\n        /* \"#utility.yul\":4861:4863   */\n      0x20\n        /* \"#utility.yul\":4887:4940   */\n      tag_204\n        /* \"#utility.yul\":4932:4939   */\n      dup6\n        /* \"#utility.yul\":4923:4929   */\n      dup3\n        /* \"#utility.yul\":4912:4921   */\n      dup7\n        /* \"#utility.yul\":4908:4930   */\n      add\n        /* \"#utility.yul\":4887:4940   */\n      tag_164\n      jump\t// in\n    tag_204:\n        /* \"#utility.yul\":4877:4940   */\n      swap2\n      pop\n        /* \"#utility.yul\":4832:4950   */\n      pop\n        /* \"#utility.yul\":4483:4957   */\n      swap3\n      pop\n      swap3\n      swap1\n      pop\n      jump\t// out\n        /* \"#utility.yul\":4963:5142   */\n    tag_205:\n        /* \"#utility.yul\":5032:5042   */\n      0x00\n        /* \"#utility.yul\":5053:5099   */\n      tag_207\n        /* \"#utility.yul\":5095:5098   */\n      dup4\n        /* \"#utility.yul\":5087:5093   */\n      dup4\n        /* \"#utility.yul\":5053:5099   */\n      tag_208\n      jump\t// in\n    tag_207:\n        /* \"#utility.yul\":5131:5135   */\n      0x20\n        /* \"#utility.yul\":5126:5129   */\n      dup4\n        /* \"#utility.yul\":5122:5136   */\n      add\n        /* \"#utility.yul\":5108:5136   */\n      swap1\n      pop\n        /* \"#utility.yul\":4963:5142   */\n      swap3\n      swap2\n      pop\n      pop\n      jump\t// out\n        /* \"#utility.yul\":5148:5256   */\n    tag_208:\n        /* \"#utility.yul\":5225:5249   */\n      tag_210\n        /* \"#utility.yul\":5243:5248   */\n      dup2\n        /* \"#utility.yul\":5225:5249   */\n      tag_211\n      jump\t// in\n    tag_210:\n        /* \"#utility.yul\":5220:5223   */\n      dup3\n        /* \"#utility.yul\":5213:5250   */\n      mstore\n        /* \"#utility.yul\":5148:5256   */\n      pop\n      pop\n      jump\t// out\n        /* \"#utility.yul\":5262:5380   */\n    tag_212:\n        /* \"#utility.yul\":5349:5373   */\n      tag_214\n        /* \"#utility.yul\":5367:5372   */\n      dup2\n        /* \"#utility.yul\":5349:5373   */\n      tag_211\n      jump\t// in\n    tag_214:\n        /* \"#utility.yul\":5344:5347   */\n      dup3\n        /* \"#utility.yul\":5337:5374   */\n      mstore\n        /* \"#utility.yul\":5262:5380   */\n      pop\n      pop\n      jump\t// out\n        /* \"#utility.yul\":5416:6148   */\n    tag_215:\n        /* \"#utility.yul\":5535:5538   */\n      0x00\n        /* \"#utility.yul\":5564:5618   */\n      tag_217\n        /* \"#utility.yul\":5612:5617   */\n      dup3\n        /* \"#utility.yul\":5564:5618   */\n      tag_218\n      jump\t// in\n    tag_217:\n        /* \"#utility.yul\":5634:5720   */\n      tag_219\n        /* \"#utility.yul\":5713:5719   */\n      dup2\n        /* \"#utility.yul\":5708:5711   */\n      dup6\n        /* \"#utility.yul\":5634:5720   */\n      tag_220\n      jump\t// in\n    tag_219:\n        /* \"#utility.yul\":5627:5720   */\n      swap4\n      pop\n        /* \"#utility.yul\":5744:5800   */\n      tag_221\n        /* \"#utility.yul\":5794:5799   */\n      dup4\n        /* \"#utility.yul\":5744:5800   */\n      tag_222\n      jump\t// in\n    tag_221:\n        /* \"#utility.yul\":5823:5830   */\n      dup1\n        /* \"#utility.yul\":5854:5855   */\n      0x00\n        /* \"#utility.yul\":5839:6123   */\n    tag_223:\n        /* \"#utility.yul\":5864:5870   */\n      dup4\n        /* \"#utility.yul\":5861:5862   */\n      dup2\n        /* \"#utility.yul\":5858:5871   */\n      lt\n        /* \"#utility.yul\":5839:6123   */\n      iszero\n      tag_225\n      jumpi\n        /* \"#utility.yul\":5940:5946   */\n      dup2\n        /* \"#utility.yul\":5934:5947   */\n      mload\n        /* \"#utility.yul\":5967:6030   */\n      tag_226\n        /* \"#utility.yul\":6026:6029   */\n      dup9\n        /* \"#utility.yul\":6011:6024   */\n      dup3\n        /* \"#utility.yul\":5967:6030   */\n      tag_205\n      jump\t// in\n    tag_226:\n        /* \"#utility.yul\":5960:6030   */\n      swap8\n      pop\n        /* \"#utility.yul\":6053:6113   */\n      tag_227\n        /* \"#utility.yul\":6106:6112   */\n      dup4\n        /* \"#utility.yul\":6053:6113   */\n      tag_228\n      jump\t// in\n    tag_227:\n        /* \"#utility.yul\":6043:6113   */\n      swap3\n      pop\n        /* \"#utility.yul\":5899:6123   */\n      pop\n        /* \"#utility.yul\":5886:5887   */\n      0x01\n        /* \"#utility.yul\":5883:5884   */\n      dup2\n        /* \"#utility.yul\":5879:5888   */\n      add\n        /* \"#utility.yul\":5874:5888   */\n      swap1\n      pop\n        /* \"#utility.yul\":5839:6123   */\n      jump(tag_223)\n    tag_225:\n        /* \"#utility.yul\":5843:5857   */\n      pop\n        /* \"#utility.yul\":6139:6142   */\n      dup6\n        /* \"#utility.yul\":6132:6142   */\n      swap4\n      pop\n        /* \"#utility.yul\":5540:6148   */\n      pop\n      pop\n      pop\n        /* \"#utility.yul\":5416:6148   */\n      swap3\n      swap2\n      pop\n      pop\n      jump\t// out\n        /* \"#utility.yul\":6154:6263   */\n    tag_229:\n        /* \"#utility.yul\":6235:6256   */\n      tag_231\n        /* \"#utility.yul\":6250:6255   */\n      dup2\n        /* \"#utility.yul\":6235:6256   */\n      tag_232\n      jump\t// in\n    tag_231:\n        /* \"#utility.yul\":6230:6233   */\n      dup3\n        /* \"#utility.yul\":6223:6257   */\n      mstore\n        /* \"#utility.yul\":6154:6263   */\n      pop\n      pop\n      jump\t// out\n        /* \"#utility.yul\":6293:6610   */\n    tag_233:\n        /* \"#utility.yul\":6409:6412   */\n      0x00\n        /* \"#utility.yul\":6430:6519   */\n      tag_235\n        /* \"#utility.yul\":6512:6518   */\n      dup4\n        /* \"#utility.yul\":6507:6510   */\n      dup6\n        /* \"#utility.yul\":6430:6519   */\n      tag_236\n      jump\t// in\n    tag_235:\n        /* \"#utility.yul\":6423:6519   */\n      swap4\n      pop\n        /* \"#utility.yul\":6529:6572   */\n      tag_237\n        /* \"#utility.yul\":6565:6571   */\n      dup4\n        /* \"#utility.yul\":6560:6563   */\n      dup6\n        /* \"#utility.yul\":6553:6558   */\n      dup5\n        /* \"#utility.yul\":6529:6572   */\n      tag_143\n      jump\t// in\n    tag_237:\n        /* \"#utility.yul\":6597:6603   */\n      dup3\n        /* \"#utility.yul\":6592:6595   */\n      dup5\n        /* \"#utility.yul\":6588:6604   */\n      add\n        /* \"#utility.yul\":6581:6604   */\n      swap1\n      pop\n        /* \"#utility.yul\":6293:6610   */\n      swap4\n      swap3\n      pop\n      pop\n      pop\n      jump\t// out\n        /* \"#utility.yul\":6616:6980   */\n    tag_238:\n        /* \"#utility.yul\":6704:6707   */\n      0x00\n        /* \"#utility.yul\":6732:6771   */\n      tag_240\n        /* \"#utility.yul\":6765:6770   */\n      dup3\n        /* \"#utility.yul\":6732:6771   */\n      tag_241\n      jump\t// in\n    tag_240:\n        /* \"#utility.yul\":6787:6858   */\n      tag_242\n        /* \"#utility.yul\":6851:6857   */\n      dup2\n        /* \"#utility.yul\":6846:6849   */\n      dup6\n        /* \"#utility.yul\":6787:6858   */\n      tag_243\n      jump\t// in\n    tag_242:\n        /* \"#utility.yul\":6780:6858   */\n      swap4\n      pop\n        /* \"#utility.yul\":6867:6919   */\n      tag_244\n        /* \"#utility.yul\":6912:6918   */\n      dup2\n        /* \"#utility.yul\":6907:6910   */\n      dup6\n        /* \"#utility.yul\":6900:6904   */\n      0x20\n        /* \"#utility.yul\":6893:6898   */\n      dup7\n        /* \"#utility.yul\":6889:6905   */\n      add\n        /* \"#utility.yul\":6867:6919   */\n      tag_245\n      jump\t// in\n    tag_244:\n        /* \"#utility.yul\":6944:6973   */\n      tag_246\n        /* \"#utility.yul\":6966:6972   */\n      dup2\n        /* \"#utility.yul\":6944:6973   */\n      tag_247\n      jump\t// in\n    tag_246:\n        /* \"#utility.yul\":6939:6942   */\n      dup5\n        /* \"#utility.yul\":6935:6974   */\n      add\n        /* \"#utility.yul\":6928:6974   */\n      swap2\n      pop\n        /* \"#utility.yul\":6708:6980   */\n      pop\n        /* \"#utility.yul\":6616:6980   */\n      swap3\n      swap2\n      pop\n      pop\n      jump\t// out\n        /* \"#utility.yul\":7010:7855   */\n    tag_248:\n        /* \"#utility.yul\":7113:7116   */\n      0x00\n        /* \"#utility.yul\":7150:7155   */\n      dup2\n        /* \"#utility.yul\":7144:7156   */\n      sload\n        /* \"#utility.yul\":7179:7215   */\n      tag_250\n        /* \"#utility.yul\":7205:7214   */\n      dup2\n        /* \"#utility.yul\":7179:7215   */\n      tag_113\n      jump\t// in\n    tag_250:\n        /* \"#utility.yul\":7231:7320   */\n      tag_251\n        /* \"#utility.yul\":7313:7319   */\n      dup2\n        /* \"#utility.yul\":7308:7311   */\n      dup7\n        /* \"#utility.yul\":7231:7320   */\n      tag_236\n      jump\t// in\n    tag_251:\n        /* \"#utility.yul\":7224:7320   */\n      swap5\n      pop\n        /* \"#utility.yul\":7351:7352   */\n      0x01\n        /* \"#utility.yul\":7340:7349   */\n      dup3\n        /* \"#utility.yul\":7336:7353   */\n      and\n        /* \"#utility.yul\":7367:7368   */\n      0x00\n        /* \"#utility.yul\":7362:7499   */\n      dup2\n      eq\n      tag_253\n      jumpi\n        /* \"#utility.yul\":7513:7514   */\n      0x01\n        /* \"#utility.yul\":7508:7849   */\n      dup2\n      eq\n      tag_254\n      jumpi\n        /* \"#utility.yul\":7329:7849   */\n      jump(tag_252)\n        /* \"#utility.yul\":7362:7499   */\n    tag_253:\n        /* \"#utility.yul\":7446:7450   */\n      0xff\n        /* \"#utility.yul\":7442:7451   */\n      not\n        /* \"#utility.yul\":7431:7440   */\n      dup4\n        /* \"#utility.yul\":7427:7452   */\n      and\n        /* \"#utility.yul\":7422:7425   */\n      dup7\n        /* \"#utility.yul\":7415:7453   */\n      mstore\n        /* \"#utility.yul\":7482:7488   */\n      dup2\n        /* \"#utility.yul\":7477:7480   */\n      dup7\n        /* \"#utility.yul\":7473:7489   */\n      add\n        /* \"#utility.yul\":7466:7489   */\n      swap4\n      pop\n        /* \"#utility.yul\":7362:7499   */\n      jump(tag_252)\n        /* \"#utility.yul\":7508:7849   */\n    tag_254:\n        /* \"#utility.yul\":7575:7613   */\n      tag_255\n        /* \"#utility.yul\":7607:7612   */\n      dup6\n        /* \"#utility.yul\":7575:7613   */\n      tag_256\n      jump\t// in\n    tag_255:\n        /* \"#utility.yul\":7635:7636   */\n      0x00\n        /* \"#utility.yul\":7649:7803   */\n    tag_257:\n        /* \"#utility.yul\":7663:7669   */\n      dup4\n        /* \"#utility.yul\":7660:7661   */\n      dup2\n        /* \"#utility.yul\":7657:7670   */\n      lt\n        /* \"#utility.yul\":7649:7803   */\n      iszero\n      tag_259\n      jumpi\n        /* \"#utility.yul\":7737:7744   */\n      dup2\n        /* \"#utility.yul\":7731:7745   */\n      sload\n        /* \"#utility.yul\":7727:7728   */\n      dup2\n        /* \"#utility.yul\":7722:7725   */\n      dup10\n        /* \"#utility.yul\":7718:7729   */\n      add\n        /* \"#utility.yul\":7711:7746   */\n      mstore\n        /* \"#utility.yul\":7787:7788   */\n      0x01\n        /* \"#utility.yul\":7778:7785   */\n      dup3\n        /* \"#utility.yul\":7774:7789   */\n      add\n        /* \"#utility.yul\":7763:7789   */\n      swap2\n      pop\n        /* \"#utility.yul\":7685:7689   */\n      0x20\n        /* \"#utility.yul\":7682:7683   */\n      dup2\n        /* \"#utility.yul\":7678:7690   */\n      add\n        /* \"#utility.yul\":7673:7690   */\n      swap1\n      pop\n        /* \"#utility.yul\":7649:7803   */\n      jump(tag_257)\n    tag_259:\n        /* \"#utility.yul\":7832:7838   */\n      dup4\n        /* \"#utility.yul\":7827:7830   */\n      dup9\n        /* \"#utility.yul\":7823:7839   */\n      add\n        /* \"#utility.yul\":7816:7839   */\n      swap6\n      pop\n        /* \"#utility.yul\":7515:7849   */\n      pop\n      pop\n        /* \"#utility.yul\":7329:7849   */\n    tag_252:\n      pop\n        /* \"#utility.yul\":7117:7855   */\n      pop\n      pop\n        /* \"#utility.yul\":7010:7855   */\n      swap3\n      swap2\n      pop\n      pop\n      jump\t// out\n        /* \"#utility.yul\":7861:7979   */\n    tag_260:\n        /* \"#utility.yul\":7948:7972   */\n      tag_262\n        /* \"#utility.yul\":7966:7971   */\n      dup2\n        /* \"#utility.yul\":7948:7972   */\n      tag_263\n      jump\t// in\n    tag_262:\n        /* \"#utility.yul\":7943:7946   */\n      dup3\n        /* \"#utility.yul\":7936:7973   */\n      mstore\n        /* \"#utility.yul\":7861:7979   */\n      pop\n      pop\n      jump\t// out\n        /* \"#utility.yul\":7985:8280   */\n    tag_59:\n        /* \"#utility.yul\":8127:8130   */\n      0x00\n        /* \"#utility.yul\":8149:8254   */\n      tag_265\n        /* \"#utility.yul\":8250:8253   */\n      dup3\n        /* \"#utility.yul\":8241:8247   */\n      dup5\n        /* \"#utility.yul\":8233:8239   */\n      dup7\n        /* \"#utility.yul\":8149:8254   */\n      tag_233\n      jump\t// in\n    tag_265:\n        /* \"#utility.yul\":8142:8254   */\n      swap2\n      pop\n        /* \"#utility.yul\":8271:8274   */\n      dup2\n        /* \"#utility.yul\":8264:8274   */\n      swap1\n      pop\n        /* \"#utility.yul\":7985:8280   */\n      swap4\n      swap3\n      pop\n      pop\n      pop\n      jump\t// out\n        /* \"#utility.yul\":8286:8555   */\n    tag_86:\n        /* \"#utility.yul\":8415:8418   */\n      0x00\n        /* \"#utility.yul\":8437:8529   */\n      tag_267\n        /* \"#utility.yul\":8525:8528   */\n      dup3\n        /* \"#utility.yul\":8516:8522   */\n      dup5\n        /* \"#utility.yul\":8437:8529   */\n      tag_248\n      jump\t// in\n    tag_267:\n        /* \"#utility.yul\":8430:8529   */\n      swap2\n      pop\n        /* \"#utility.yul\":8546:8549   */\n      dup2\n        /* \"#utility.yul\":8539:8549   */\n      swap1\n      pop\n        /* \"#utility.yul\":8286:8555   */\n      swap3\n      swap2\n      pop\n      pop\n      jump\t// out\n        /* \"#utility.yul\":8561:8783   */\n    tag_34:\n        /* \"#utility.yul\":8654:8658   */\n      0x00\n        /* \"#utility.yul\":8692:8694   */\n      0x20\n        /* \"#utility.yul\":8681:8690   */\n      dup3\n        /* \"#utility.yul\":8677:8695   */\n      add\n        /* \"#utility.yul\":8669:8695   */\n      swap1\n      pop\n        /* \"#utility.yul\":8705:8776   */\n      tag_269\n        /* \"#utility.yul\":8773:8774   */\n      0x00\n        /* \"#utility.yul\":8762:8771   */\n      dup4\n        /* \"#utility.yul\":8758:8775   */\n      add\n        /* \"#utility.yul\":8749:8755   */\n      dup5\n        /* \"#utility.yul\":8705:8776   */\n      tag_212\n      jump\t// in\n    tag_269:\n        /* \"#utility.yul\":8561:8783   */\n      swap3\n      swap2\n      pop\n      pop\n      jump\t// out\n        /* \"#utility.yul\":8789:9162   */\n    tag_47:\n        /* \"#utility.yul\":8932:8936   */\n      0x00\n        /* \"#utility.yul\":8970:8972   */\n      0x20\n        /* \"#utility.yul\":8959:8968   */\n      dup3\n        /* \"#utility.yul\":8955:8973   */\n      add\n        /* \"#utility.yul\":8947:8973   */\n      swap1\n      pop\n        /* \"#utility.yul\":9019:9028   */\n      dup2\n        /* \"#utility.yul\":9013:9017   */\n      dup2\n        /* \"#utility.yul\":9009:9029   */\n      sub\n        /* \"#utility.yul\":9005:9006   */\n      0x00\n        /* \"#utility.yul\":8994:9003   */\n      dup4\n        /* \"#utility.yul\":8990:9007   */\n      add\n        /* \"#utility.yul\":8983:9030   */\n      mstore\n        /* \"#utility.yul\":9047:9155   */\n      tag_271\n        /* \"#utility.yul\":9150:9154   */\n      dup2\n        /* \"#utility.yul\":9141:9147   */\n      dup5\n        /* \"#utility.yul\":9047:9155   */\n      tag_215\n      jump\t// in\n    tag_271:\n        /* \"#utility.yul\":9039:9155   */\n      swap1\n      pop\n        /* \"#utility.yul\":8789:9162   */\n      swap3\n      swap2\n      pop\n      pop\n      jump\t// out\n        /* \"#utility.yul\":9168:9481   */\n    tag_56:\n        /* \"#utility.yul\":9281:9285   */\n      0x00\n        /* \"#utility.yul\":9319:9321   */\n      0x20\n        /* \"#utility.yul\":9308:9317   */\n      dup3\n        /* \"#utility.yul\":9304:9322   */\n      add\n        /* \"#utility.yul\":9296:9322   */\n      swap1\n      pop\n        /* \"#utility.yul\":9368:9377   */\n      dup2\n        /* \"#utility.yul\":9362:9366   */\n      dup2\n        /* \"#utility.yul\":9358:9378   */\n      sub\n        /* \"#utility.yul\":9354:9355   */\n      0x00\n        /* \"#utility.yul\":9343:9352   */\n      dup4\n        /* \"#utility.yul\":9339:9356   */\n      add\n        /* \"#utility.yul\":9332:9379   */\n      mstore\n        /* \"#utility.yul\":9396:9474   */\n      tag_273\n        /* \"#utility.yul\":9469:9473   */\n      dup2\n        /* \"#utility.yul\":9460:9466   */\n      dup5\n        /* \"#utility.yul\":9396:9474   */\n      tag_238\n      jump\t// in\n    tag_273:\n        /* \"#utility.yul\":9388:9474   */\n      swap1\n      pop\n        /* \"#utility.yul\":9168:9481   */\n      swap3\n      swap2\n      pop\n      pop\n      jump\t// out\n        /* \"#utility.yul\":9487:9917   */\n    tag_17:\n        /* \"#utility.yul\":9630:9634   */\n      0x00\n        /* \"#utility.yul\":9668:9670   */\n      0x60\n        /* \"#utility.yul\":9657:9666   */\n      dup3\n        /* \"#utility.yul\":9653:9671   */\n      add\n        /* \"#utility.yul\":9645:9671   */\n      swap1\n      pop\n        /* \"#utility.yul\":9681:9752   */\n      tag_275\n        /* \"#utility.yul\":9749:9750   */\n      0x00\n        /* \"#utility.yul\":9738:9747   */\n      dup4\n        /* \"#utility.yul\":9734:9751   */\n      add\n        /* \"#utility.yul\":9725:9731   */\n      dup7\n        /* \"#utility.yul\":9681:9752   */\n      tag_260\n      jump\t// in\n    tag_275:\n        /* \"#utility.yul\":9762:9834   */\n      tag_276\n        /* \"#utility.yul\":9830:9832   */\n      0x20\n        /* \"#utility.yul\":9819:9828   */\n      dup4\n        /* \"#utility.yul\":9815:9833   */\n      add\n        /* \"#utility.yul\":9806:9812   */\n      dup6\n        /* \"#utility.yul\":9762:9834   */\n      tag_260\n      jump\t// in\n    tag_276:\n        /* \"#utility.yul\":9844:9910   */\n      tag_277\n        /* \"#utility.yul\":9906:9908   */\n      0x40\n        /* \"#utility.yul\":9895:9904   */\n      dup4\n        /* \"#utility.yul\":9891:9909   */\n      add\n        /* \"#utility.yul\":9882:9888   */\n      dup5\n        /* \"#utility.yul\":9844:9910   */\n      tag_229\n      jump\t// in\n    tag_277:\n        /* \"#utility.yul\":9487:9917   */\n      swap5\n      swap4\n      pop\n      pop\n      pop\n      pop\n      jump\t// out\n        /* \"#utility.yul\":9923:10052   */\n    tag_138:\n        /* \"#utility.yul\":9957:9963   */\n      0x00\n        /* \"#utility.yul\":9984:10004   */\n      tag_279\n      tag_280\n      jump\t// in\n    tag_279:\n        /* \"#utility.yul\":9974:10004   */\n      swap1\n      pop\n        /* \"#utility.yul\":10013:10046   */\n      tag_281\n        /* \"#utility.yul\":10041:10045   */\n      dup3\n        /* \"#utility.yul\":10033:10039   */\n      dup3\n        /* \"#utility.yul\":10013:10046   */\n      tag_282\n      jump\t// in\n    tag_281:\n        /* \"#utility.yul\":9923:10052   */\n      swap2\n      swap1\n      pop\n      jump\t// out\n        /* \"#utility.yul\":10058:10133   */\n    tag_280:\n        /* \"#utility.yul\":10091:10097   */\n      0x00\n        /* \"#utility.yul\":10124:10126   */\n      0x40\n        /* \"#utility.yul\":10118:10127   */\n      mload\n        /* \"#utility.yul\":10108:10127   */\n      swap1\n      pop\n        /* \"#utility.yul\":10058:10133   */\n      swap1\n      jump\t// out\n        /* \"#utility.yul\":10139:10447   */\n    tag_137:\n        /* \"#utility.yul\":10201:10205   */\n      0x00\n        /* \"#utility.yul\":10291:10309   */\n      0xffffffffffffffff\n        /* \"#utility.yul\":10283:10289   */\n      dup3\n        /* \"#utility.yul\":10280:10310   */\n      gt\n        /* \"#utility.yul\":10277:10333   */\n      iszero\n      tag_285\n      jumpi\n        /* \"#utility.yul\":10313:10331   */\n      tag_286\n      tag_287\n      jump\t// in\n    tag_286:\n        /* \"#utility.yul\":10277:10333   */\n    tag_285:\n        /* \"#utility.yul\":10351:10380   */\n      tag_288\n        /* \"#utility.yul\":10373:10379   */\n      dup3\n        /* \"#utility.yul\":10351:10380   */\n      tag_247\n      jump\t// in\n    tag_288:\n        /* \"#utility.yul\":10343:10380   */\n      swap1\n      pop\n        /* \"#utility.yul\":10435:10439   */\n      0x20\n        /* \"#utility.yul\":10429:10433   */\n      dup2\n        /* \"#utility.yul\":10425:10440   */\n      add\n        /* \"#utility.yul\":10417:10440   */\n      swap1\n      pop\n        /* \"#utility.yul\":10139:10447   */\n      swap2\n      swap1\n      pop\n      jump\t// out\n        /* \"#utility.yul\":10453:10585   */\n    tag_222:\n        /* \"#utility.yul\":10520:10524   */\n      0x00\n        /* \"#utility.yul\":10543:10546   */\n      dup2\n        /* \"#utility.yul\":10535:10546   */\n      swap1\n      pop\n        /* \"#utility.yul\":10573:10577   */\n      0x20\n        /* \"#utility.yul\":10568:10571   */\n      dup3\n        /* \"#utility.yul\":10564:10578   */\n      add\n        /* \"#utility.yul\":10556:10578   */\n      swap1\n      pop\n        /* \"#utility.yul\":10453:10585   */\n      swap2\n      swap1\n      pop\n      jump\t// out\n        /* \"#utility.yul\":10591:10732   */\n    tag_256:\n        /* \"#utility.yul\":10640:10644   */\n      0x00\n        /* \"#utility.yul\":10663:10666   */\n      dup2\n        /* \"#utility.yul\":10655:10666   */\n      swap1\n      pop\n        /* \"#utility.yul\":10686:10689   */\n      dup2\n        /* \"#utility.yul\":10683:10684   */\n      0x00\n        /* \"#utility.yul\":10676:10690   */\n      mstore\n        /* \"#utility.yul\":10720:10724   */\n      0x20\n        /* \"#utility.yul\":10717:10718   */\n      0x00\n        /* \"#utility.yul\":10707:10725   */\n      keccak256\n        /* \"#utility.yul\":10699:10725   */\n      swap1\n      pop\n        /* \"#utility.yul\":10591:10732   */\n      swap2\n      swap1\n      pop\n      jump\t// out\n        /* \"#utility.yul\":10738:10852   */\n    tag_218:\n        /* \"#utility.yul\":10805:10811   */\n      0x00\n        /* \"#utility.yul\":10839:10844   */\n      dup2\n        /* \"#utility.yul\":10833:10845   */\n      mload\n        /* \"#utility.yul\":10823:10845   */\n      swap1\n      pop\n        /* \"#utility.yul\":10738:10852   */\n      swap2\n      swap1\n      pop\n      jump\t// out\n        /* \"#utility.yul\":10858:10957   */\n    tag_241:\n        /* \"#utility.yul\":10910:10916   */\n      0x00\n        /* \"#utility.yul\":10944:10949   */\n      dup2\n        /* \"#utility.yul\":10938:10950   */\n      mload\n        /* \"#utility.yul\":10928:10950   */\n      swap1\n      pop\n        /* \"#utility.yul\":10858:10957   */\n      swap2\n      swap1\n      pop\n      jump\t// out\n        /* \"#utility.yul\":10963:11076   */\n    tag_228:\n        /* \"#utility.yul\":11033:11037   */\n      0x00\n        /* \"#utility.yul\":11065:11069   */\n      0x20\n        /* \"#utility.yul\":11060:11063   */\n      dup3\n        /* \"#utility.yul\":11056:11070   */\n      add\n        /* \"#utility.yul\":11048:11070   */\n      swap1\n      pop\n        /* \"#utility.yul\":10963:11076   */\n      swap2\n      swap1\n      pop\n      jump\t// out\n        /* \"#utility.yul\":11082:11266   */\n    tag_220:\n        /* \"#utility.yul\":11181:11192   */\n      0x00\n        /* \"#utility.yul\":11215:11221   */\n      dup3\n        /* \"#utility.yul\":11210:11213   */\n      dup3\n        /* \"#utility.yul\":11203:11222   */\n      mstore\n        /* \"#utility.yul\":11255:11259   */\n      0x20\n        /* \"#utility.yul\":11250:11253   */\n      dup3\n        /* \"#utility.yul\":11246:11260   */\n      add\n        /* \"#utility.yul\":11231:11260   */\n      swap1\n      pop\n        /* \"#utility.yul\":11082:11266   */\n      swap3\n      swap2\n      pop\n      pop\n      jump\t// out\n        /* \"#utility.yul\":11272:11441   */\n    tag_243:\n        /* \"#utility.yul\":11356:11367   */\n      0x00\n        /* \"#utility.yul\":11390:11396   */\n      dup3\n        /* \"#utility.yul\":11385:11388   */\n      dup3\n        /* \"#utility.yul\":11378:11397   */\n      mstore\n        /* \"#utility.yul\":11430:11434   */\n      0x20\n        /* \"#utility.yul\":11425:11428   */\n      dup3\n        /* \"#utility.yul\":11421:11435   */\n      add\n        /* \"#utility.yul\":11406:11435   */\n      swap1\n      pop\n        /* \"#utility.yul\":11272:11441   */\n      swap3\n      swap2\n      pop\n      pop\n      jump\t// out\n        /* \"#utility.yul\":11447:11595   */\n    tag_236:\n        /* \"#utility.yul\":11549:11560   */\n      0x00\n        /* \"#utility.yul\":11586:11589   */\n      dup2\n        /* \"#utility.yul\":11571:11589   */\n      swap1\n      pop\n        /* \"#utility.yul\":11447:11595   */\n      swap3\n      swap2\n      pop\n      pop\n      jump\t// out\n        /* \"#utility.yul\":11601:11906   */\n    tag_75:\n        /* \"#utility.yul\":11641:11644   */\n      0x00\n        /* \"#utility.yul\":11660:11680   */\n      tag_298\n        /* \"#utility.yul\":11678:11679   */\n      dup3\n        /* \"#utility.yul\":11660:11680   */\n      tag_263\n      jump\t// in\n    tag_298:\n        /* \"#utility.yul\":11655:11680   */\n      swap2\n      pop\n        /* \"#utility.yul\":11694:11714   */\n      tag_299\n        /* \"#utility.yul\":11712:11713   */\n      dup4\n        /* \"#utility.yul\":11694:11714   */\n      tag_263\n      jump\t// in\n    tag_299:\n        /* \"#utility.yul\":11689:11714   */\n      swap3\n      pop\n        /* \"#utility.yul\":11848:11849   */\n      dup3\n        /* \"#utility.yul\":11780:11846   */\n      0xffffffffffffffffffffffffffffffffffffffffffffffffffffffffffffffff\n        /* \"#utility.yul\":11776:11850   */\n      sub\n        /* \"#utility.yul\":11773:11774   */\n      dup3\n        /* \"#utility.yul\":11770:11851   */\n      gt\n        /* \"#utility.yul\":11767:11874   */\n      iszero\n      tag_300\n      jumpi\n        /* \"#utility.yul\":11854:11872   */\n      tag_301\n      tag_302\n      jump\t// in\n    tag_301:\n        /* \"#utility.yul\":11767:11874   */\n    tag_300:\n        /* \"#utility.yul\":11898:11899   */\n      dup3\n        /* \"#utility.yul\":11895:11896   */\n      dup3\n        /* \"#utility.yul\":11891:11900   */\n      add\n        /* \"#utility.yul\":11884:11900   */\n      swap1\n      pop\n        /* \"#utility.yul\":11601:11906   */\n      swap3\n      swap2\n      pop\n      pop\n      jump\t// out\n        /* \"#utility.yul\":11912:12008   */\n    tag_211:\n        /* \"#utility.yul\":11949:11956   */\n      0x00\n        /* \"#utility.yul\":11978:12002   */\n      tag_304\n        /* \"#utility.yul\":11996:12001   */\n      dup3\n        /* \"#utility.yul\":11978:12002   */\n      tag_305\n      jump\t// in\n    tag_304:\n        /* \"#utility.yul\":11967:12002   */\n      swap1\n      pop\n        /* \"#utility.yul\":11912:12008   */\n      swap2\n      swap1\n      pop\n      jump\t// out\n        /* \"#utility.yul\":12014:12104   */\n    tag_232:\n        /* \"#utility.yul\":12048:12055   */\n      0x00\n        /* \"#utility.yul\":12091:12096   */\n      dup2\n        /* \"#utility.yul\":12084:12097   */\n      iszero\n        /* \"#utility.yul\":12077:12098   */\n      iszero\n        /* \"#utility.yul\":12066:12098   */\n      swap1\n      pop\n        /* \"#utility.yul\":12014:12104   */\n      swap2\n      swap1\n      pop\n      jump\t// out\n        /* \"#utility.yul\":12110:12236   */\n    tag_305:\n        /* \"#utility.yul\":12147:12154   */\n      0x00\n        /* \"#utility.yul\":12187:12229   */\n      0xffffffffffffffffffffffffffffffffffffffff\n        /* \"#utility.yul\":12180:12185   */\n      dup3\n        /* \"#utility.yul\":12176:12230   */\n      and\n        /* \"#utility.yul\":12165:12230   */\n      swap1\n      pop\n        /* \"#utility.yul\":12110:12236   */\n      swap2\n      swap1\n      pop\n      jump\t// out\n        /* \"#utility.yul\":12242:12319   */\n    tag_263:\n        /* \"#utility.yul\":12279:12286   */\n      0x00\n        /* \"#utility.yul\":12308:12313   */\n      dup2\n        /* \"#utility.yul\":12297:12313   */\n      swap1\n      pop\n        /* \"#utility.yul\":12242:12319   */\n      swap2\n      swap1\n      pop\n      jump\t// out\n        /* \"#utility.yul\":12325:12479   */\n    tag_143:\n        /* \"#utility.yul\":12409:12415   */\n      dup3\n        /* \"#utility.yul\":12404:12407   */\n      dup2\n        /* \"#utility.yul\":12399:12402   */\n      dup4\n        /* \"#utility.yul\":12386:12416   */\n      calldatacopy\n        /* \"#utility.yul\":12471:12472   */\n      0x00\n        /* \"#utility.yul\":12462:12468   */\n      dup4\n        /* \"#utility.yul\":12457:12460   */\n      dup4\n        /* \"#utility.yul\":12453:12469   */\n      add\n        /* \"#utility.yul\":12446:12473   */\n      mstore\n        /* \"#utility.yul\":12325:12479   */\n      pop\n      pop\n      pop\n      jump\t// out\n        /* \"#utility.yul\":12485:12792   */\n    tag_245:\n        /* \"#utility.yul\":12553:12554   */\n      0x00\n        /* \"#utility.yul\":12563:12676   */\n    tag_311:\n        /* \"#utility.yul\":12577:12583   */\n      dup4\n        /* \"#utility.yul\":12574:12575   */\n      dup2\n        /* \"#utility.yul\":12571:12584   */\n      lt\n        /* \"#utility.yul\":12563:12676   */\n      iszero\n      tag_313\n      jumpi\n        /* \"#utility.yul\":12662:12663   */\n      dup1\n        /* \"#utility.yul\":12657:12660   */\n      dup3\n        /* \"#utility.yul\":12653:12664   */\n      add\n        /* \"#utility.yul\":12647:12665   */\n      mload\n        /* \"#utility.yul\":12643:12644   */\n      dup2\n        /* \"#utility.yul\":12638:12641   */\n      dup5\n        /* \"#utility.yul\":12634:12645   */\n      add\n        /* \"#utility.yul\":12627:12666   */\n      mstore\n        /* \"#utility.yul\":12599:12601   */\n      0x20\n        /* \"#utility.yul\":12596:12597   */\n      dup2\n        /* \"#utility.yul\":12592:12602   */\n      add\n        /* \"#utility.yul\":12587:12602   */\n      swap1\n      pop\n        /* \"#utility.yul\":12563:12676   */\n      jump(tag_311)\n    tag_313:\n        /* \"#utility.yul\":12694:12700   */\n      dup4\n        /* \"#utility.yul\":12691:12692   */\n      dup2\n        /* \"#utility.yul\":12688:12701   */\n      gt\n        /* \"#utility.yul\":12685:12786   */\n      iszero\n      tag_314\n      jumpi\n        /* \"#utility.yul\":12774:12775   */\n      0x00\n        /* \"#utility.yul\":12765:12771   */\n      dup5\n        /* \"#utility.yul\":12760:12763   */\n      dup5\n        /* \"#utility.yul\":12756:12772   */\n      add\n        /* \"#utility.yul\":12749:12776   */\n      mstore\n        /* \"#utility.yul\":12685:12786   */\n    tag_314:\n        /* \"#utility.yul\":12534:12792   */\n      pop\n        /* \"#utility.yul\":12485:12792   */\n      pop\n      pop\n      pop\n      jump\t// out\n        /* \"#utility.yul\":12798:12969   */\n    tag_102:\n        /* \"#utility.yul\":12837:12840   */\n      0x00\n        /* \"#utility.yul\":12860:12884   */\n      tag_316\n        /* \"#utility.yul\":12878:12883   */\n      dup3\n        /* \"#utility.yul\":12860:12884   */\n      tag_263\n      jump\t// in\n    tag_316:\n        /* \"#utility.yul\":12851:12884   */\n      swap2\n      pop\n        /* \"#utility.yul\":12906:12910   */\n      0x00\n        /* \"#utility.yul\":12899:12904   */\n      dup3\n        /* \"#utility.yul\":12896:12911   */\n      eq\n        /* \"#utility.yul\":12893:12934   */\n      iszero\n      tag_317\n      jumpi\n        /* \"#utility.yul\":12914:12932   */\n      tag_318\n      tag_302\n      jump\t// in\n    tag_318:\n        /* \"#utility.yul\":12893:12934   */\n    tag_317:\n        /* \"#utility.yul\":12961:12962   */\n      0x01\n        /* \"#utility.yul\":12954:12959   */\n      dup3\n        /* \"#utility.yul\":12950:12963   */\n      sub\n        /* \"#utility.yul\":12943:12963   */\n      swap1\n      pop\n        /* \"#utility.yul\":12798:12969   */\n      swap2\n      swap1\n      pop\n      jump\t// out\n        /* \"#utility.yul\":12975:13295   */\n    tag_113:\n        /* \"#utility.yul\":13019:13025   */\n      0x00\n        /* \"#utility.yul\":13056:13057   */\n      0x02\n        /* \"#utility.yul\":13050:13054   */\n      dup3\n        /* \"#utility.yul\":13046:13058   */\n      div\n        /* \"#utility.yul\":13036:13058   */\n      swap1\n      pop\n        /* \"#utility.yul\":13103:13104   */\n      0x01\n        /* \"#utility.yul\":13097:13101   */\n      dup3\n        /* \"#utility.yul\":13093:13105   */\n      and\n        /* \"#utility.yul\":13124:13142   */\n      dup1\n        /* \"#utility.yul\":13114:13195   */\n      tag_320\n      jumpi\n        /* \"#utility.yul\":13180:13184   */\n      0x7f\n        /* \"#utility.yul\":13172:13178   */\n      dup3\n        /* \"#utility.yul\":13168:13185   */\n      and\n        /* \"#utility.yul\":13158:13185   */\n      swap2\n      pop\n        /* \"#utility.yul\":13114:13195   */\n    tag_320:\n        /* \"#utility.yul\":13242:13244   */\n      0x20\n        /* \"#utility.yul\":13234:13240   */\n      dup3\n        /* \"#utility.yul\":13231:13245   */\n      lt\n        /* \"#utility.yul\":13211:13229   */\n      dup2\n        /* \"#utility.yul\":13208:13246   */\n      eq\n        /* \"#utility.yul\":13205:13289   */\n      iszero\n      tag_321\n      jumpi\n        /* \"#utility.yul\":13261:13279   */\n      tag_322\n      tag_323\n      jump\t// in\n    tag_322:\n        /* \"#utility.yul\":13205:13289   */\n    tag_321:\n        /* \"#utility.yul\":13026:13295   */\n      pop\n        /* \"#utility.yul\":12975:13295   */\n      swap2\n      swap1\n      pop\n      jump\t// out\n        /* \"#utility.yul\":13301:13582   */\n    tag_282:\n        /* \"#utility.yul\":13384:13411   */\n      tag_325\n        /* \"#utility.yul\":13406:13410   */\n      dup3\n        /* \"#utility.yul\":13384:13411   */\n      tag_247\n      jump\t// in\n    tag_325:\n        /* \"#utility.yul\":13376:13382   */\n      dup2\n        /* \"#utility.yul\":13372:13412   */\n      add\n        /* \"#utility.yul\":13514:13520   */\n      dup2\n        /* \"#utility.yul\":13502:13512   */\n      dup2\n        /* \"#utility.yul\":13499:13521   */\n      lt\n        /* \"#utility.yul\":13478:13496   */\n      0xffffffffffffffff\n        /* \"#utility.yul\":13466:13476   */\n      dup3\n        /* \"#utility.yul\":13463:13497   */\n      gt\n        /* \"#utility.yul\":13460:13522   */\n      or\n        /* \"#utility.yul\":13457:13545   */\n      iszero\n      tag_326\n      jumpi\n        /* \"#utility.yul\":13525:13543   */\n      tag_327\n      tag_287\n      jump\t// in\n    tag_327:\n        /* \"#utility.yul\":13457:13545   */\n    tag_326:\n        /* \"#utility.yul\":13565:13575   */\n      dup1\n        /* \"#utility.yul\":13561:13563   */\n      0x40\n        /* \"#utility.yul\":13554:13576   */\n      mstore\n        /* \"#utility.yul\":13344:13582   */\n      pop\n        /* \"#utility.yul\":13301:13582   */\n      pop\n      pop\n      jump\t// out\n        /* \"#utility.yul\":13588:13768   */\n    tag_302:\n        /* \"#utility.yul\":13636:13713   */\n      0x4e487b7100000000000000000000000000000000000000000000000000000000\n        /* \"#utility.yul\":13633:13634   */\n      0x00\n        /* \"#utility.yul\":13626:13714   */\n      mstore\n        /* \"#utility.yul\":13733:13737   */\n      0x11\n        /* \"#utility.yul\":13730:13731   */\n      0x04\n        /* \"#utility.yul\":13723:13738   */\n      mstore\n        /* \"#utility.yul\":13757:13761   */\n      0x24\n        /* \"#utility.yul\":13754:13755   */\n      0x00\n        /* \"#utility.yul\":13747:13762   */\n      revert\n        /* \"#utility.yul\":13774:13954   */\n    tag_323:\n        /* \"#utility.yul\":13822:13899   */\n      0x4e487b7100000000000000000000000000000000000000000000000000000000\n        /* \"#utility.yul\":13819:13820   */\n      0x00\n        /* \"#utility.yul\":13812:13900   */\n      mstore\n        /* \"#utility.yul\":13919:13923   */\n      0x22\n        /* \"#utility.yul\":13916:13917   */\n      0x04\n        /* \"#utility.yul\":13909:13924   */\n      mstore\n        /* \"#utility.yul\":13943:13947   */\n      0x24\n        /* \"#utility.yul\":13940:13941   */\n      0x00\n        /* \"#utility.yul\":13933:13948   */\n      revert\n        /* \"#utility.yul\":13960:14140   */\n    tag_83:\n        /* \"#utility.yul\":14008:14085   */\n      0x4e487b7100000000000000000000000000000000000000000000000000000000\n        /* \"#utility.yul\":14005:14006   */\n      0x00\n        /* \"#utility.yul\":13998:14086   */\n      mstore\n        /* \"#utility.yul\":14105:14109   */\n      0x32\n        /* \"#utility.yul\":14102:14103   */\n      0x04\n        /* \"#utility.yul\":14095:14110   */\n      mstore\n        /* \"#utility.yul\":14129:14133   */\n      0x24\n        /* \"#utility.yul\":14126:14127   */\n      0x00\n        /* \"#utility.yul\":14119:14134   */\n      revert\n        /* \"#utility.yul\":14146:14326   */\n    tag_287:\n        /* \"#utility.yul\":14194:14271   */\n      0x4e487b7100000000000000000000000000000000000000000000000000000000\n        /* \"#utility.yul\":14191:14192   */\n      0x00\n        /* \"#utility.yul\":14184:14272   */\n      mstore\n        /* \"#utility.yul\":14291:14295   */\n      0x41\n        /* \"#utility.yul\":14288:14289   */\n      0x04\n        /* \"#utility.yul\":14281:14296   */\n      mstore\n        /* \"#utility.yul\":14315:14319   */\n      0x24\n        /* \"#utility.yul\":14312:14313   */\n      0x00\n        /* \"#utility.yul\":14305:14320   */\n      revert\n        /* \"#utility.yul\":14332:14449   */\n    tag_155:\n        /* \"#utility.yul\":14441:14442   */\n      0x00\n        /* \"#utility.yul\":14438:14439   */\n      dup1\n        /* \"#utility.yul\":14431:14443   */\n      revert\n        /* \"#utility.yul\":14455:14572   */\n    tag_152:\n        /* \"#utility.yul\":14564:14565   */\n      0x00\n        /* \"#utility.yul\":14561:14562   */\n      dup1\n        /* \"#utility.yul\":14554:14566   */\n      revert\n        /* \"#utility.yul\":14578:14695   */\n    tag_158:\n        /* \"#utility.yul\":14687:14688   */\n      0x00\n        /* \"#utility.yul\":14684:14685   */\n      dup1\n        /* \"#utility.yul\":14677:14689   */\n      revert\n        /* \"#utility.yul\":14701:14818   */\n    tag_141:\n        /* \"#utility.yul\":14810:14811   */\n      0x00\n        /* \"#utility.yul\":14807:14808   */\n      dup1\n        /* \"#utility.yul\":14800:14812   */\n      revert\n        /* \"#utility.yul\":14824:14941   */\n    tag_174:\n        /* \"#utility.yul\":14933:14934   */\n      0x00\n        /* \"#utility.yul\":14930:14931   */\n      dup1\n        /* \"#utility.yul\":14923:14935   */\n      revert\n        /* \"#utility.yul\":14947:15064   */\n    tag_171:\n        /* \"#utility.yul\":15056:15057   */\n      0x00\n        /* \"#utility.yul\":15053:15054   */\n      dup1\n        /* \"#utility.yul\":15046:15058   */\n      revert\n        /* \"#utility.yul\":15070:15172   */\n    tag_247:\n        /* \"#utility.yul\":15111:15117   */\n      0x00\n        /* \"#utility.yul\":15162:15164   */\n      0x1f\n        /* \"#utility.yul\":15158:15165   */\n      not\n        /* \"#utility.yul\":15153:15155   */\n      0x1f\n        /* \"#utility.yul\":15146:15151   */\n      dup4\n        /* \"#utility.yul\":15142:15156   */\n      add\n        /* \"#utility.yul\":15138:15166   */\n      and\n        /* \"#utility.yul\":15128:15166   */\n      swap1\n      pop\n        /* \"#utility.yul\":15070:15172   */\n      swap2\n      swap1\n      pop\n      jump\t// out\n        /* \"#utility.yul\":15178:15300   */\n    tag_147:\n        /* \"#utility.yul\":15251:15275   */\n      tag_340\n        /* \"#utility.yul\":15269:15274   */\n      dup2\n        /* \"#utility.yul\":15251:15275   */\n      tag_211\n      jump\t// in\n    tag_340:\n        /* \"#utility.yul\":15244:15249   */\n      dup2\n        /* \"#utility.yul\":15241:15276   */\n      eq\n        /* \"#utility.yul\":15231:15294   */\n      tag_341\n      jumpi\n        /* \"#utility.yul\":15290:15291   */\n      0x00\n        /* \"#utility.yul\":15287:15288   */\n      dup1\n        /* \"#utility.yul\":15280:15292   */\n      revert\n        /* \"#utility.yul\":15231:15294   */\n    tag_341:\n        /* \"#utility.yul\":15178:15300   */\n      pop\n      jump\t// out\n        /* \"#utility.yul\":15306:15428   */\n    tag_167:\n        /* \"#utility.yul\":15379:15403   */\n      tag_343\n        /* \"#utility.yul\":15397:15402   */\n      dup2\n        /* \"#utility.yul\":15379:15403   */\n      tag_263\n      jump\t// in\n    tag_343:\n        /* \"#utility.yul\":15372:15377   */\n      dup2\n        /* \"#utility.yul\":15369:15404   */\n      eq\n        /* \"#utility.yul\":15359:15422   */\n      tag_344\n      jumpi\n        /* \"#utility.yul\":15418:15419   */\n      0x00\n        /* \"#utility.yul\":15415:15416   */\n      dup1\n        /* \"#utility.yul\":15408:15420   */\n      revert\n        /* \"#utility.yul\":15359:15422   */\n    tag_344:\n        /* \"#utility.yul\":15306:15428   */\n      pop\n      jump\t// out\n\n    auxdata: 0xa2646970667358221220c40b771d1947623582af78d60bb844b010f746f60847e14de61c9b69b26d20fd64736f6c63430008070033\n}\n",
				"bytecode": {
					"linkReferences": {},
					"object": "6080604052611467806100136000396000f3fe60806040526004361061007b5760003560e01c806374cbc3501161004e57806374cbc3501461014e57806374ce0ca91461018d5780638642269e146101ca578063e4bcc7d4146101e65761007b565b80630186a423146100805780630a5bd44b146100bf5780631d894eb8146100e857806327e7875a14610111575b600080fd5b34801561008c57600080fd5b506100a760048036038101906100a29190610d95565b610223565b6040516100b6939291906110a9565b60405180910390f35b3480156100cb57600080fd5b506100e660048036038101906100e19190610d21565b610270565b005b3480156100f457600080fd5b5061010f600480360381019061010a9190610cc1565b6103c3565b005b34801561011d57600080fd5b5061013860048036038101906101339190610e4b565b61046f565b604051610145919061104a565b60405180910390f35b34801561015a57600080fd5b5061017560048036038101906101709190610e0b565b6104bd565b604051610184939291906110a9565b60405180910390f35b34801561019957600080fd5b506101b460048036038101906101af9190610dde565b610501565b6040516101c19190611065565b60405180910390f35b6101e460048036038101906101df9190610dde565b6105e0565b005b3480156101f257600080fd5b5061020d60048036038101906102089190610dde565b6109ab565b60405161021a9190611087565b60405180910390f35b6001818051602081018201805184825260208301602085012081835280955050505050506000915090508060000154908060010154908060030160009054906101000a900460ff16905083565b6001848460405161028292919061101a565b908152602001604051809103902060030160009054906101000a900460ff1661038b576102ad610a57565b8281600001818152505081816020018181525050600181606001901515908115158152505080600186866040516102e592919061101a565b908152602001604051809103902060008201518160000155602082015181600101556040820151816002019080519060200190610323929190610a81565b5060608201518160030160006101000a81548160ff0219169083151502179055509050506000858590918060018154018082558091505060019003906000526020600020016000909192909192909192909192509190610384929190610b0b565b50506103bd565b6040517fb185df3a00000000000000000000000000000000000000000000000000000000815260040160405180910390fd5b50505050565b600183836040516103d592919061101a565b908152602001604051809103902060030160009054906101000a900460ff161561043857806001848460405161040c92919061101a565b9081526020016040518091039020600101600082825461042c91906111ab565b9250508190555061046a565b6040517f7e8d96a900000000000000000000000000000000000000000000000000000000815260040160405180910390fd5b505050565b6003602052816000526040600020818154811061048b57600080fd5b906000526020600020016000915091509054906101000a900473ffffffffffffffffffffffffffffffffffffffff1681565b6002602052816000526040600020602052806000526040600020600091509150508060000154908060010154908060020160009054906101000a900460ff16905083565b60606000805490508210156105da5760016000838154811061052657610525611376565b5b9060005260206000200160405161053d9190611033565b90815260200160405180910390206002018054806020026020016040519081016040528092919081815260200182805480156105ce57602002820191906000526020600020905b8160009054906101000a900473ffffffffffffffffffffffffffffffffffffffff1673ffffffffffffffffffffffffffffffffffffffff1681526020019060010190808311610584575b505050505090506105db565b5b919050565b6000805490508110801561065257506002600082815260200190815260200160002060003373ffffffffffffffffffffffffffffffffffffffff1673ffffffffffffffffffffffffffffffffffffffff16815260200190815260200160002060020160009054906101000a900460ff16155b1561097657600060016000838154811061066f5761066e611376565b5b906000526020600020016040516106869190611033565b908152602001604051809103902060405180608001604052908160008201548152602001600182015481526020016002820180548060200260200160405190810160405280929190818152602001828054801561073857602002820191906000526020600020905b8160009054906101000a900473ffffffffffffffffffffffffffffffffffffffff1673ffffffffffffffffffffffffffffffffffffffff16815260200190600101908083116106ee575b505050505081526020016003820160009054906101000a900460ff1615151515815250509050806000015134101561079c576040517f538d76e800000000000000000000000000000000000000000000000000000000815260040160405180910390fd5b6107a4610b91565b4381600001818152505081600001518160200181815250506001816040019015159081151581525050806002600085815260200190815260200160002060003373ffffffffffffffffffffffffffffffffffffffff1673ffffffffffffffffffffffffffffffffffffffff168152602001908152602001600020600082015181600001556020820151816001015560408201518160020160006101000a81548160ff0219169083151502179055509050508160200180518091906108679061128b565b815250508160016000858154811061088257610881611376565b5b906000526020600020016040516108999190611033565b9081526020016040518091039020600082015181600001556020820151816001015560408201518160020190805190602001906108d7929190610a81565b5060608201518160030160006101000a81548160ff02191690831515021790555090505060036000848152602001908152602001600020339080600181540180825580915050600190039060005260206000200160009091909190916101000a81548173ffffffffffffffffffffffffffffffffffffffff021916908373ffffffffffffffffffffffffffffffffffffffff16021790555050506109a8565b6040517fd42c9b8b00000000000000000000000000000000000000000000000000000000815260040160405180910390fd5b50565b600081815481106109bb57600080fd5b9060005260206000200160009150905080546109d6906112b5565b80601f0160208091040260200160405190810160405280929190818152602001828054610a02906112b5565b8015610a4f5780601f10610a2457610100808354040283529160200191610a4f565b820191906000526020600020905b815481529060010190602001808311610a3257829003601f168201915b505050505081565b60405180608001604052806000815260200160008152602001606081526020016000151581525090565b828054828255906000526020600020908101928215610afa579160200282015b82811115610af95782518260006101000a81548173ffffffffffffffffffffffffffffffffffffffff021916908373ffffffffffffffffffffffffffffffffffffffff16021790555091602001919060010190610aa1565b5b509050610b079190610bb4565b5090565b828054610b17906112b5565b90600052602060002090601f016020900481019282610b395760008555610b80565b82601f10610b5257803560ff1916838001178555610b80565b82800160010185558215610b80579182015b82811115610b7f578235825591602001919060010190610b64565b5b509050610b8d9190610bb4565b5090565b604051806060016040528060008152602001600081526020016000151581525090565b5b80821115610bcd576000816000905550600101610bb5565b5090565b6000610be4610bdf84611105565b6110e0565b905082815260208101848484011115610c0057610bff6113e3565b5b610c0b848285611249565b509392505050565b600081359050610c2281611403565b92915050565b60008083601f840112610c3e57610c3d6113d9565b5b8235905067ffffffffffffffff811115610c5b57610c5a6113d4565b5b602083019150836001820283011115610c7757610c766113de565b5b9250929050565b600082601f830112610c9357610c926113d9565b5b8135610ca3848260208601610bd1565b91505092915050565b600081359050610cbb8161141a565b92915050565b600080600060408486031215610cda57610cd96113ed565b5b600084013567ffffffffffffffff811115610cf857610cf76113e8565b5b610d0486828701610c28565b93509350506020610d1786828701610cac565b9150509250925092565b60008060008060608587031215610d3b57610d3a6113ed565b5b600085013567ffffffffffffffff811115610d5957610d586113e8565b5b610d6587828801610c28565b94509450506020610d7887828801610cac565b9250506040610d8987828801610cac565b91505092959194509250565b600060208284031215610dab57610daa6113ed565b5b600082013567ffffffffffffffff811115610dc957610dc86113e8565b5b610dd584828501610c7e565b91505092915050565b600060208284031215610df457610df36113ed565b5b6000610e0284828501610cac565b91505092915050565b60008060408385031215610e2257610e216113ed565b5b6000610e3085828601610cac565b9250506020610e4185828601610c13565b9150509250929050565b60008060408385031215610e6257610e616113ed565b5b6000610e7085828601610cac565b9250506020610e8185828601610cac565b9150509250929050565b6000610e978383610ea3565b60208301905092915050565b610eac81611201565b82525050565b610ebb81611201565b82525050565b6000610ecc8261115b565b610ed6818561117e565b9350610ee183611136565b8060005b83811015610f12578151610ef98882610e8b565b9750610f0483611171565b925050600181019050610ee5565b5085935050505092915050565b610f2881611213565b82525050565b6000610f3a83856111a0565b9350610f47838584611249565b82840190509392505050565b6000610f5e82611166565b610f68818561118f565b9350610f78818560208601611258565b610f81816113f2565b840191505092915050565b60008154610f99816112b5565b610fa381866111a0565b94506001821660008114610fbe5760018114610fcf57611002565b60ff19831686528186019350611002565b610fd885611146565b60005b83811015610ffa57815481890152600182019150602081019050610fdb565b838801955050505b50505092915050565b6110148161123f565b82525050565b6000611027828486610f2e565b91508190509392505050565b600061103f8284610f8c565b915081905092915050565b600060208201905061105f6000830184610eb2565b92915050565b6000602082019050818103600083015261107f8184610ec1565b905092915050565b600060208201905081810360008301526110a18184610f53565b905092915050565b60006060820190506110be600083018661100b565b6110cb602083018561100b565b6110d86040830184610f1f565b949350505050565b60006110ea6110fb565b90506110f682826112e7565b919050565b6000604051905090565b600067ffffffffffffffff8211156111205761111f6113a5565b5b611129826113f2565b9050602081019050919050565b6000819050602082019050919050565b60008190508160005260206000209050919050565b600081519050919050565b600081519050919050565b6000602082019050919050565b600082825260208201905092915050565b600082825260208201905092915050565b600081905092915050565b60006111b68261123f565b91506111c18361123f565b9250827fffffffffffffffffffffffffffffffffffffffffffffffffffffffffffffffff038211156111f6576111f5611318565b5b828201905092915050565b600061120c8261121f565b9050919050565b60008115159050919050565b600073ffffffffffffffffffffffffffffffffffffffff82169050919050565b6000819050919050565b82818337600083830152505050565b60005b8381101561127657808201518184015260208101905061125b565b83811115611285576000848401525b50505050565b60006112968261123f565b915060008214156112aa576112a9611318565b5b600182039050919050565b600060028204905060018216806112cd57607f821691505b602082108114156112e1576112e0611347565b5b50919050565b6112f0826113f2565b810181811067ffffffffffffffff8211171561130f5761130e6113a5565b5b80604052505050565b7f4e487b7100000000000000000000000000000000000000000000000000000000600052601160045260246000fd5b7f4e487b7100000000000000000000000000000000000000000000000000000000600052602260045260246000fd5b7f4e487b7100000000000000000000000000000000000000000000000000000000600052603260045260246000fd5b7f4e487b7100000000000000000000000000000000000000000000000000000000600052604160045260246000fd5b600080fd5b600080fd5b600080fd5b600080fd5b600080fd5b600080fd5b6000601f19601f8301169050919050565b61140c81611201565b811461141757600080fd5b50565b6114238161123f565b811461142e57600080fd5b5056fea2646970667358221220c40b771d1947623582af78d60bb844b010f746f60847e14de61c9b69b26d20fd64736f6c63430008070033",
					"opcodes": "PUSH1 0x80 PUSH1 0x40 MSTORE PUSH2 0x1467 DUP1 PUSH2 0x13 PUSH1 0x0 CODECOPY PUSH1 0x0 RETURN INVALID PUSH1 0x80 PUSH1 0x40 MSTORE PUSH1 0x4 CALLDATASIZE LT PUSH2 0x7B JUMPI PUSH1 0x0 CALLDATALOAD PUSH1 0xE0 SHR DUP1 PUSH4 0x74CBC350 GT PUSH2 0x4E JUMPI DUP1 PUSH4 0x74CBC350 EQ PUSH2 0x14E JUMPI DUP1 PUSH4 0x74CE0CA9 EQ PUSH2 0x18D JUMPI DUP1 PUSH4 0x8642269E EQ PUSH2 0x1CA JUMPI DUP1 PUSH4 0xE4BCC7D4 EQ PUSH2 0x1E6 JUMPI PUSH2 0x7B JUMP JUMPDEST DUP1 PUSH4 0x186A423 EQ PUSH2 0x80 JUMPI DUP1 PUSH4 0xA5BD44B EQ PUSH2 0xBF JUMPI DUP1 PUSH4 0x1D894EB8 EQ PUSH2 0xE8 JUMPI DUP1 PUSH4 0x27E7875A EQ PUSH2 0x111 JUMPI JUMPDEST PUSH1 0x0 DUP1 REVERT JUMPDEST CALLVALUE DUP1 ISZERO PUSH2 0x8C JUMPI PUSH1 0x0 DUP1 REVERT JUMPDEST POP PUSH2 0xA7 PUSH1 0x4 DUP1 CALLDATASIZE SUB DUP2 ADD SWAP1 PUSH2 0xA2 SWAP2 SWAP1 PUSH2 0xD95 JUMP JUMPDEST PUSH2 0x223 JUMP JUMPDEST PUSH1 0x40 MLOAD PUSH2 0xB6 SWAP4 SWAP3 SWAP2 SWAP1 PUSH2 0x10A9 JUMP JUMPDEST PUSH1 0x40 MLOAD DUP1 SWAP2 SUB SWAP1 RETURN JUMPDEST CALLVALUE DUP1 ISZERO PUSH2 0xCB JUMPI PUSH1 0x0 DUP1 REVERT JUMPDEST POP PUSH2 0xE6 PUSH1 0x4 DUP1 CALLDATASIZE SUB DUP2 ADD SWAP1 PUSH2 0xE1 SWAP2 SWAP1 PUSH2 0xD21 JUMP JUMPDEST PUSH2 0x270 JUMP JUMPDEST STOP JUMPDEST CALLVALUE DUP1 ISZERO PUSH2 0xF4 JUMPI PUSH1 0x0 DUP1 REVERT JUMPDEST POP PUSH2 0x10F PUSH1 0x4 DUP1 CALLDATASIZE SUB DUP2 ADD SWAP1 PUSH2 0x10A SWAP2 SWAP1 PUSH2 0xCC1 JUMP JUMPDEST PUSH2 0x3C3 JUMP JUMPDEST STOP JUMPDEST CALLVALUE DUP1 ISZERO PUSH2 0x11D JUMPI PUSH1 0x0 DUP1 REVERT JUMPDEST POP PUSH2 0x138 PUSH1 0x4 DUP1 CALLDATASIZE SUB DUP2 ADD SWAP1 PUSH2 0x133 SWAP2 SWAP1 PUSH2 0xE4B JUMP JUMPDEST PUSH2 0x46F JUMP JUMPDEST PUSH1 0x40 MLOAD PUSH2 0x145 SWAP2 SWAP1 PUSH2 0x104A JUMP JUMPDEST PUSH1 0x40 MLOAD DUP1 SWAP2 SUB SWAP1 RETURN JUMPDEST CALLVALUE DUP1 ISZERO PUSH2 0x15A JUMPI PUSH1 0x0 DUP1 REVERT JUMPDEST POP PUSH2 0x175 PUSH1 0x4 DUP1 CALLDATASIZE SUB DUP2 ADD SWAP1 PUSH2 0x170 SWAP2 SWAP1 PUSH2 0xE0B JUMP JUMPDEST PUSH2 0x4BD JUMP JUMPDEST PUSH1 0x40 MLOAD PUSH2 0x184 SWAP4 SWAP3 SWAP2 SWAP1 PUSH2 0x10A9 JUMP JUMPDEST PUSH1 0x40 MLOAD DUP1 SWAP2 SUB SWAP1 RETURN JUMPDEST CALLVALUE DUP1 ISZERO PUSH2 0x199 JUMPI PUSH1 0x0 DUP1 REVERT JUMPDEST POP PUSH2 0x1B4 PUSH1 0x4 DUP1 CALLDATASIZE SUB DUP2 ADD SWAP1 PUSH2 0x1AF SWAP2 SWAP1 PUSH2 0xDDE JUMP JUMPDEST PUSH2 0x501 JUMP JUMPDEST PUSH1 0x40 MLOAD PUSH2 0x1C1 SWAP2 SWAP1 PUSH2 0x1065 JUMP JUMPDEST PUSH1 0x40 MLOAD DUP1 SWAP2 SUB SWAP1 RETURN JUMPDEST PUSH2 0x1E4 PUSH1 0x4 DUP1 CALLDATASIZE SUB DUP2 ADD SWAP1 PUSH2 0x1DF SWAP2 SWAP1 PUSH2 0xDDE JUMP JUMPDEST PUSH2 0x5E0 JUMP JUMPDEST STOP JUMPDEST CALLVALUE DUP1 ISZERO PUSH2 0x1F2 JUMPI PUSH1 0x0 DUP1 REVERT JUMPDEST POP PUSH2 0x20D PUSH1 0x4 DUP1 CALLDATASIZE SUB DUP2 ADD SWAP1 PUSH2 0x208 SWAP2 SWAP1 PUSH2 0xDDE JUMP JUMPDEST PUSH2 0x9AB JUMP JUMPDEST PUSH1 0x40 MLOAD PUSH2 0x21A SWAP2 SWAP1 PUSH2 0x1087 JUMP JUMPDEST PUSH1 0x40 MLOAD DUP1 SWAP2 SUB SWAP1 RETURN JUMPDEST PUSH1 0x1 DUP2 DUP1 MLOAD PUSH1 0x20 DUP2 ADD DUP3 ADD DUP1 MLOAD DUP5 DUP3 MSTORE PUSH1 0x20 DUP4 ADD PUSH1 0x20 DUP6 ADD KECCAK256 DUP2 DUP4 MSTORE DUP1 SWAP6 POP POP POP POP POP POP PUSH1 0x0 SWAP2 POP SWAP1 POP DUP1 PUSH1 0x0 ADD SLOAD SWAP1 DUP1 PUSH1 0x1 ADD SLOAD SWAP1 DUP1 PUSH1 0x3 ADD PUSH1 0x0 SWAP1 SLOAD SWAP1 PUSH2 0x100 EXP SWAP1 DIV PUSH1 0xFF AND SWAP1 POP DUP4 JUMP JUMPDEST PUSH1 0x1 DUP5 DUP5 PUSH1 0x40 MLOAD PUSH2 0x282 SWAP3 SWAP2 SWAP1 PUSH2 0x101A JUMP JUMPDEST SWAP1 DUP2 MSTORE PUSH1 0x20 ADD PUSH1 0x40 MLOAD DUP1 SWAP2 SUB SWAP1 KECCAK256 PUSH1 0x3 ADD PUSH1 0x0 SWAP1 SLOAD SWAP1 PUSH2 0x100 EXP SWAP1 DIV PUSH1 0xFF AND PUSH2 0x38B JUMPI PUSH2 0x2AD PUSH2 0xA57 JUMP JUMPDEST DUP3 DUP2 PUSH1 0x0 ADD DUP2 DUP2 MSTORE POP POP DUP2 DUP2 PUSH1 0x20 ADD DUP2 DUP2 MSTORE POP POP PUSH1 0x1 DUP2 PUSH1 0x60 ADD SWAP1 ISZERO ISZERO SWAP1 DUP2 ISZERO ISZERO DUP2 MSTORE POP POP DUP1 PUSH1 0x1 DUP7 DUP7 PUSH1 0x40 MLOAD PUSH2 0x2E5 SWAP3 SWAP2 SWAP1 PUSH2 0x101A JUMP JUMPDEST SWAP1 DUP2 MSTORE PUSH1 0x20 ADD PUSH1 0x40 MLOAD DUP1 SWAP2 SUB SWAP1 KECCAK256 PUSH1 0x0 DUP3 ADD MLOAD DUP2 PUSH1 0x0 ADD SSTORE PUSH1 0x20 DUP3 ADD MLOAD DUP2 PUSH1 0x1 ADD SSTORE PUSH1 0x40 DUP3 ADD MLOAD DUP2 PUSH1 0x2 ADD SWAP1 DUP1 MLOAD SWAP1 PUSH1 0x20 ADD SWAP1 PUSH2 0x323 SWAP3 SWAP2 SWAP1 PUSH2 0xA81 JUMP JUMPDEST POP PUSH1 0x60 DUP3 ADD MLOAD DUP2 PUSH1 0x3 ADD PUSH1 0x0 PUSH2 0x100 EXP DUP2 SLOAD DUP2 PUSH1 0xFF MUL NOT AND SWAP1 DUP4 ISZERO ISZERO MUL OR SWAP1 SSTORE POP SWAP1 POP POP PUSH1 0x0 DUP6 DUP6 SWAP1 SWAP2 DUP1 PUSH1 0x1 DUP2 SLOAD ADD DUP1 DUP3 SSTORE DUP1 SWAP2 POP POP PUSH1 0x1 SWAP1 SUB SWAP1 PUSH1 0x0 MSTORE PUSH1 0x20 PUSH1 0x0 KECCAK256 ADD PUSH1 0x0 SWAP1 SWAP2 SWAP3 SWAP1 SWAP2 SWAP3 SWAP1 SWAP2 SWAP3 SWAP1 SWAP2 SWAP3 POP SWAP2 SWAP1 PUSH2 0x384 SWAP3 SWAP2 SWAP1 PUSH2 0xB0B JUMP JUMPDEST POP POP PUSH2 0x3BD JUMP JUMPDEST PUSH1 0x40 MLOAD PUSH32 0xB185DF3A00000000000000000000000000000000000000000000000000000000 DUP2 MSTORE PUSH1 0x4 ADD PUSH1 0x40 MLOAD DUP1 SWAP2 SUB SWAP1 REVERT JUMPDEST POP POP POP POP JUMP JUMPDEST PUSH1 0x1 DUP4 DUP4 PUSH1 0x40 MLOAD PUSH2 0x3D5 SWAP3 SWAP2 SWAP1 PUSH2 0x101A JUMP JUMPDEST SWAP1 DUP2 MSTORE PUSH1 0x20 ADD PUSH1 0x40 MLOAD DUP1 SWAP2 SUB SWAP1 KECCAK256 PUSH1 0x3 ADD PUSH1 0x0 SWAP1 SLOAD SWAP1 PUSH2 0x100 EXP SWAP1 DIV PUSH1 0xFF AND ISZERO PUSH2 0x438 JUMPI DUP1 PUSH1 0x1 DUP5 DUP5 PUSH1 0x40 MLOAD PUSH2 0x40C SWAP3 SWAP2 SWAP1 PUSH2 0x101A JUMP JUMPDEST SWAP1 DUP2 MSTORE PUSH1 0x20 ADD PUSH1 0x40 MLOAD DUP1 SWAP2 SUB SWAP1 KECCAK256 PUSH1 0x1 ADD PUSH1 0x0 DUP3 DUP3 SLOAD PUSH2 0x42C SWAP2 SWAP1 PUSH2 0x11AB JUMP JUMPDEST SWAP3 POP POP DUP2 SWAP1 SSTORE POP PUSH2 0x46A JUMP JUMPDEST PUSH1 0x40 MLOAD PUSH32 0x7E8D96A900000000000000000000000000000000000000000000000000000000 DUP2 MSTORE PUSH1 0x4 ADD PUSH1 0x40 MLOAD DUP1 SWAP2 SUB SWAP1 REVERT JUMPDEST POP POP POP JUMP JUMPDEST PUSH1 0x3 PUSH1 0x20 MSTORE DUP2 PUSH1 0x0 MSTORE PUSH1 0x40 PUSH1 0x0 KECCAK256 DUP2 DUP2 SLOAD DUP2 LT PUSH2 0x48B JUMPI PUSH1 0x0 DUP1 REVERT JUMPDEST SWAP1 PUSH1 0x0 MSTORE PUSH1 0x20 PUSH1 0x0 KECCAK256 ADD PUSH1 0x0 SWAP2 POP SWAP2 POP SWAP1 SLOAD SWAP1 PUSH2 0x100 EXP SWAP1 DIV PUSH20 0xFFFFFFFFFFFFFFFFFFFFFFFFFFFFFFFFFFFFFFFF AND DUP2 JUMP JUMPDEST PUSH1 0x2 PUSH1 0x20 MSTORE DUP2 PUSH1 0x0 MSTORE PUSH1 0x40 PUSH1 0x0 KECCAK256 PUSH1 0x20 MSTORE DUP1 PUSH1 0x0 MSTORE PUSH1 0x40 PUSH1 0x0 KECCAK256 PUSH1 0x0 SWAP2 POP SWAP2 POP POP DUP1 PUSH1 0x0 ADD SLOAD SWAP1 DUP1 PUSH1 0x1 ADD SLOAD SWAP1 DUP1 PUSH1 0x2 ADD PUSH1 0x0 SWAP1 SLOAD SWAP1 PUSH2 0x100 EXP SWAP1 DIV PUSH1 0xFF AND SWAP1 POP DUP4 JUMP JUMPDEST PUSH1 0x60 PUSH1 0x0 DUP1 SLOAD SWAP1 POP DUP3 LT ISZERO PUSH2 0x5DA JUMPI PUSH1 0x1 PUSH1 0x0 DUP4 DUP2 SLOAD DUP2 LT PUSH2 0x526 JUMPI PUSH2 0x525 PUSH2 0x1376 JUMP JUMPDEST JUMPDEST SWAP1 PUSH1 0x0 MSTORE PUSH1 0x20 PUSH1 0x0 KECCAK256 ADD PUSH1 0x40 MLOAD PUSH2 0x53D SWAP2 SWAP1 PUSH2 0x1033 JUMP JUMPDEST SWAP1 DUP2 MSTORE PUSH1 0x20 ADD PUSH1 0x40 MLOAD DUP1 SWAP2 SUB SWAP1 KECCAK256 PUSH1 0x2 ADD DUP1 SLOAD DUP1 PUSH1 0x20 MUL PUSH1 0x20 ADD PUSH1 0x40 MLOAD SWAP1 DUP2 ADD PUSH1 0x40 MSTORE DUP1 SWAP3 SWAP2 SWAP1 DUP2 DUP2 MSTORE PUSH1 0x20 ADD DUP3 DUP1 SLOAD DUP1 ISZERO PUSH2 0x5CE JUMPI PUSH1 0x20 MUL DUP3 ADD SWAP2 SWAP1 PUSH1 0x0 MSTORE PUSH1 0x20 PUSH1 0x0 KECCAK256 SWAP1 JUMPDEST DUP2 PUSH1 0x0 SWAP1 SLOAD SWAP1 PUSH2 0x100 EXP SWAP1 DIV PUSH20 0xFFFFFFFFFFFFFFFFFFFFFFFFFFFFFFFFFFFFFFFF AND PUSH20 0xFFFFFFFFFFFFFFFFFFFFFFFFFFFFFFFFFFFFFFFF AND DUP2 MSTORE PUSH1 0x20 ADD SWAP1 PUSH1 0x1 ADD SWAP1 DUP1 DUP4 GT PUSH2 0x584 JUMPI JUMPDEST POP POP POP POP POP SWAP1 POP PUSH2 0x5DB JUMP JUMPDEST JUMPDEST SWAP2 SWAP1 POP JUMP JUMPDEST PUSH1 0x0 DUP1 SLOAD SWAP1 POP DUP2 LT DUP1 ISZERO PUSH2 0x652 JUMPI POP PUSH1 0x2 PUSH1 0x0 DUP3 DUP2 MSTORE PUSH1 0x20 ADD SWAP1 DUP2 MSTORE PUSH1 0x20 ADD PUSH1 0x0 KECCAK256 PUSH1 0x0 CALLER PUSH20 0xFFFFFFFFFFFFFFFFFFFFFFFFFFFFFFFFFFFFFFFF AND PUSH20 0xFFFFFFFFFFFFFFFFFFFFFFFFFFFFFFFFFFFFFFFF AND DUP2 MSTORE PUSH1 0x20 ADD SWAP1 DUP2 MSTORE PUSH1 0x20 ADD PUSH1 0x0 KECCAK256 PUSH1 0x2 ADD PUSH1 0x0 SWAP1 SLOAD SWAP1 PUSH2 0x100 EXP SWAP1 DIV PUSH1 0xFF AND ISZERO JUMPDEST ISZERO PUSH2 0x976 JUMPI PUSH1 0x0 PUSH1 0x1 PUSH1 0x0 DUP4 DUP2 SLOAD DUP2 LT PUSH2 0x66F JUMPI PUSH2 0x66E PUSH2 0x1376 JUMP JUMPDEST JUMPDEST SWAP1 PUSH1 0x0 MSTORE PUSH1 0x20 PUSH1 0x0 KECCAK256 ADD PUSH1 0x40 MLOAD PUSH2 0x686 SWAP2 SWAP1 PUSH2 0x1033 JUMP JUMPDEST SWAP1 DUP2 MSTORE PUSH1 0x20 ADD PUSH1 0x40 MLOAD DUP1 SWAP2 SUB SWAP1 KECCAK256 PUSH1 0x40 MLOAD DUP1 PUSH1 0x80 ADD PUSH1 0x40 MSTORE SWAP1 DUP2 PUSH1 0x0 DUP3 ADD SLOAD DUP2 MSTORE PUSH1 0x20 ADD PUSH1 0x1 DUP3 ADD SLOAD DUP2 MSTORE PUSH1 0x20 ADD PUSH1 0x2 DUP3 ADD DUP1 SLOAD DUP1 PUSH1 0x20 MUL PUSH1 0x20 ADD PUSH1 0x40 MLOAD SWAP1 DUP2 ADD PUSH1 0x40 MSTORE DUP1 SWAP3 SWAP2 SWAP1 DUP2 DUP2 MSTORE PUSH1 0x20 ADD DUP3 DUP1 SLOAD DUP1 ISZERO PUSH2 0x738 JUMPI PUSH1 0x20 MUL DUP3 ADD SWAP2 SWAP1 PUSH1 0x0 MSTORE PUSH1 0x20 PUSH1 0x0 KECCAK256 SWAP1 JUMPDEST DUP2 PUSH1 0x0 SWAP1 SLOAD SWAP1 PUSH2 0x100 EXP SWAP1 DIV PUSH20 0xFFFFFFFFFFFFFFFFFFFFFFFFFFFFFFFFFFFFFFFF AND PUSH20 0xFFFFFFFFFFFFFFFFFFFFFFFFFFFFFFFFFFFFFFFF AND DUP2 MSTORE PUSH1 0x20 ADD SWAP1 PUSH1 0x1 ADD SWAP1 DUP1 DUP4 GT PUSH2 0x6EE JUMPI JUMPDEST POP POP POP POP POP DUP2 MSTORE PUSH1 0x20 ADD PUSH1 0x3 DUP3 ADD PUSH1 0x0 SWAP1 SLOAD SWAP1 PUSH2 0x100 EXP SWAP1 DIV PUSH1 0xFF AND ISZERO ISZERO ISZERO ISZERO DUP2 MSTORE POP POP SWAP1 POP DUP1 PUSH1 0x0 ADD MLOAD CALLVALUE LT ISZERO PUSH2 0x79C JUMPI PUSH1 0x40 MLOAD PUSH32 0x538D76E800000000000000000000000000000000000000000000000000000000 DUP2 MSTORE PUSH1 0x4 ADD PUSH1 0x40 MLOAD DUP1 SWAP2 SUB SWAP1 REVERT JUMPDEST PUSH2 0x7A4 PUSH2 0xB91 JUMP JUMPDEST NUMBER DUP2 PUSH1 0x0 ADD DUP2 DUP2 MSTORE POP POP DUP2 PUSH1 0x0 ADD MLOAD DUP2 PUSH1 0x20 ADD DUP2 DUP2 MSTORE POP POP PUSH1 0x1 DUP2 PUSH1 0x40 ADD SWAP1 ISZERO ISZERO SWAP1 DUP2 ISZERO ISZERO DUP2 MSTORE POP POP DUP1 PUSH1 0x2 PUSH1 0x0 DUP6 DUP2 MSTORE PUSH1 0x20 ADD SWAP1 DUP2 MSTORE PUSH1 0x20 ADD PUSH1 0x0 KECCAK256 PUSH1 0x0 CALLER PUSH20 0xFFFFFFFFFFFFFFFFFFFFFFFFFFFFFFFFFFFFFFFF AND PUSH20 0xFFFFFFFFFFFFFFFFFFFFFFFFFFFFFFFFFFFFFFFF AND DUP2 MSTORE PUSH1 0x20 ADD SWAP1 DUP2 MSTORE PUSH1 0x20 ADD PUSH1 0x0 KECCAK256 PUSH1 0x0 DUP3 ADD MLOAD DUP2 PUSH1 0x0 ADD SSTORE PUSH1 0x20 DUP3 ADD MLOAD DUP2 PUSH1 0x1 ADD SSTORE PUSH1 0x40 DUP3 ADD MLOAD DUP2 PUSH1 0x2 ADD PUSH1 0x0 PUSH2 0x100 EXP DUP2 SLOAD DUP2 PUSH1 0xFF MUL NOT AND SWAP1 DUP4 ISZERO ISZERO MUL OR SWAP1 SSTORE POP SWAP1 POP POP DUP2 PUSH1 0x20 ADD DUP1 MLOAD DUP1 SWAP2 SWAP1 PUSH2 0x867 SWAP1 PUSH2 0x128B JUMP JUMPDEST DUP2 MSTORE POP POP DUP2 PUSH1 0x1 PUSH1 0x0 DUP6 DUP2 SLOAD DUP2 LT PUSH2 0x882 JUMPI PUSH2 0x881 PUSH2 0x1376 JUMP JUMPDEST JUMPDEST SWAP1 PUSH1 0x0 MSTORE PUSH1 0x20 PUSH1 0x0 KECCAK256 ADD PUSH1 0x40 MLOAD PUSH2 0x899 SWAP2 SWAP1 PUSH2 0x1033 JUMP JUMPDEST SWAP1 DUP2 MSTORE PUSH1 0x20 ADD PUSH1 0x40 MLOAD DUP1 SWAP2 SUB SWAP1 KECCAK256 PUSH1 0x0 DUP3 ADD MLOAD DUP2 PUSH1 0x0 ADD SSTORE PUSH1 0x20 DUP3 ADD MLOAD DUP2 PUSH1 0x1 ADD SSTORE PUSH1 0x40 DUP3 ADD MLOAD DUP2 PUSH1 0x2 ADD SWAP1 DUP1 MLOAD SWAP1 PUSH1 0x20 ADD SWAP1 PUSH2 0x8D7 SWAP3 SWAP2 SWAP1 PUSH2 0xA81 JUMP JUMPDEST POP PUSH1 0x60 DUP3 ADD MLOAD DUP2 PUSH1 0x3 ADD PUSH1 0x0 PUSH2 0x100 EXP DUP2 SLOAD DUP2 PUSH1 0xFF MUL NOT AND SWAP1 DUP4 ISZERO ISZERO MUL OR SWAP1 SSTORE POP SWAP1 POP POP PUSH1 0x3 PUSH1 0x0 DUP5 DUP2 MSTORE PUSH1 0x20 ADD SWAP1 DUP2 MSTORE PUSH1 0x20 ADD PUSH1 0x0 KECCAK256 CALLER SWAP1 DUP1 PUSH1 0x1 DUP2 SLOAD ADD DUP1 DUP3 SSTORE DUP1 SWAP2 POP POP PUSH1 0x1 SWAP1 SUB SWAP1 PUSH1 0x0 MSTORE PUSH1 0x20 PUSH1 0x0 KECCAK256 ADD PUSH1 0x0 SWAP1 SWAP2 SWAP1 SWAP2 SWAP1 SWAP2 PUSH2 0x100 EXP DUP2 SLOAD DUP2 PUSH20 0xFFFFFFFFFFFFFFFFFFFFFFFFFFFFFFFFFFFFFFFF MUL NOT AND SWAP1 DUP4 PUSH20 0xFFFFFFFFFFFFFFFFFFFFFFFFFFFFFFFFFFFFFFFF AND MUL OR SWAP1 SSTORE POP POP POP PUSH2 0x9A8 JUMP JUMPDEST PUSH1 0x40 MLOAD PUSH32 0xD42C9B8B00000000000000000000000000000000000000000000000000000000 DUP2 MSTORE PUSH1 0x4 ADD PUSH1 0x40 MLOAD DUP1 SWAP2 SUB SWAP1 REVERT JUMPDEST POP JUMP JUMPDEST PUSH1 0x0 DUP2 DUP2 SLOAD DUP2 LT PUSH2 0x9BB JUMPI PUSH1 0x0 DUP1 REVERT JUMPDEST SWAP1 PUSH1 0x0 MSTORE PUSH1 0x20 PUSH1 0x0 KECCAK256 ADD PUSH1 0x0 SWAP2 POP SWAP1 POP DUP1 SLOAD PUSH2 0x9D6 SWAP1 PUSH2 0x12B5 JUMP JUMPDEST DUP1 PUSH1 0x1F ADD PUSH1 0x20 DUP1 SWAP2 DIV MUL PUSH1 0x20 ADD PUSH1 0x40 MLOAD SWAP1 DUP2 ADD PUSH1 0x40 MSTORE DUP1 SWAP3 SWAP2 SWAP1 DUP2 DUP2 MSTORE PUSH1 0x20 ADD DUP3 DUP1 SLOAD PUSH2 0xA02 SWAP1 PUSH2 0x12B5 JUMP JUMPDEST DUP1 ISZERO PUSH2 0xA4F JUMPI DUP1 PUSH1 0x1F LT PUSH2 0xA24 JUMPI PUSH2 0x100 DUP1 DUP4 SLOAD DIV MUL DUP4 MSTORE SWAP2 PUSH1 0x20 ADD SWAP2 PUSH2 0xA4F JUMP JUMPDEST DUP3 ADD SWAP2 SWAP1 PUSH1 0x0 MSTORE PUSH1 0x20 PUSH1 0x0 KECCAK256 SWAP1 JUMPDEST DUP2 SLOAD DUP2 MSTORE SWAP1 PUSH1 0x1 ADD SWAP1 PUSH1 0x20 ADD DUP1 DUP4 GT PUSH2 0xA32 JUMPI DUP3 SWAP1 SUB PUSH1 0x1F AND DUP3 ADD SWAP2 JUMPDEST POP POP POP POP POP DUP2 JUMP JUMPDEST PUSH1 0x40 MLOAD DUP1 PUSH1 0x80 ADD PUSH1 0x40 MSTORE DUP1 PUSH1 0x0 DUP2 MSTORE PUSH1 0x20 ADD PUSH1 0x0 DUP2 MSTORE PUSH1 0x20 ADD PUSH1 0x60 DUP2 MSTORE PUSH1 0x20 ADD PUSH1 0x0 ISZERO ISZERO DUP2 MSTORE POP SWAP1 JUMP JUMPDEST DUP3 DUP1 SLOAD DUP3 DUP3 SSTORE SWAP1 PUSH1 0x0 MSTORE PUSH1 0x20 PUSH1 0x0 KECCAK256 SWAP1 DUP2 ADD SWAP3 DUP3 ISZERO PUSH2 0xAFA JUMPI SWAP2 PUSH1 0x20 MUL DUP3 ADD JUMPDEST DUP3 DUP2 GT ISZERO PUSH2 0xAF9 JUMPI DUP3 MLOAD DUP3 PUSH1 0x0 PUSH2 0x100 EXP DUP2 SLOAD DUP2 PUSH20 0xFFFFFFFFFFFFFFFFFFFFFFFFFFFFFFFFFFFFFFFF MUL NOT AND SWAP1 DUP4 PUSH20 0xFFFFFFFFFFFFFFFFFFFFFFFFFFFFFFFFFFFFFFFF AND MUL OR SWAP1 SSTORE POP SWAP2 PUSH1 0x20 ADD SWAP2 SWAP1 PUSH1 0x1 ADD SWAP1 PUSH2 0xAA1 JUMP JUMPDEST JUMPDEST POP SWAP1 POP PUSH2 0xB07 SWAP2 SWAP1 PUSH2 0xBB4 JUMP JUMPDEST POP SWAP1 JUMP JUMPDEST DUP3 DUP1 SLOAD PUSH2 0xB17 SWAP1 PUSH2 0x12B5 JUMP JUMPDEST SWAP1 PUSH1 0x0 MSTORE PUSH1 0x20 PUSH1 0x0 KECCAK256 SWAP1 PUSH1 0x1F ADD PUSH1 0x20 SWAP1 DIV DUP2 ADD SWAP3 DUP3 PUSH2 0xB39 JUMPI PUSH1 0x0 DUP6 SSTORE PUSH2 0xB80 JUMP JUMPDEST DUP3 PUSH1 0x1F LT PUSH2 0xB52 JUMPI DUP1 CALLDATALOAD PUSH1 0xFF NOT AND DUP4 DUP1 ADD OR DUP6 SSTORE PUSH2 0xB80 JUMP JUMPDEST DUP3 DUP1 ADD PUSH1 0x1 ADD DUP6 SSTORE DUP3 ISZERO PUSH2 0xB80 JUMPI SWAP2 DUP3 ADD JUMPDEST DUP3 DUP2 GT ISZERO PUSH2 0xB7F JUMPI DUP3 CALLDATALOAD DUP3 SSTORE SWAP2 PUSH1 0x20 ADD SWAP2 SWAP1 PUSH1 0x1 ADD SWAP1 PUSH2 0xB64 JUMP JUMPDEST JUMPDEST POP SWAP1 POP PUSH2 0xB8D SWAP2 SWAP1 PUSH2 0xBB4 JUMP JUMPDEST POP SWAP1 JUMP JUMPDEST PUSH1 0x40 MLOAD DUP1 PUSH1 0x60 ADD PUSH1 0x40 MSTORE DUP1 PUSH1 0x0 DUP2 MSTORE PUSH1 0x20 ADD PUSH1 0x0 DUP2 MSTORE PUSH1 0x20 ADD PUSH1 0x0 ISZERO ISZERO DUP2 MSTORE POP SWAP1 JUMP JUMPDEST JUMPDEST DUP1 DUP3 GT ISZERO PUSH2 0xBCD JUMPI PUSH1 0x0 DUP2 PUSH1 0x0 SWAP1 SSTORE POP PUSH1 0x1 ADD PUSH2 0xBB5 JUMP JUMPDEST POP SWAP1 JUMP JUMPDEST PUSH1 0x0 PUSH2 0xBE4 PUSH2 0xBDF DUP5 PUSH2 0x1105 JUMP JUMPDEST PUSH2 0x10E0 JUMP JUMPDEST SWAP1 POP DUP3 DUP2 MSTORE PUSH1 0x20 DUP2 ADD DUP5 DUP5 DUP5 ADD GT ISZERO PUSH2 0xC00 JUMPI PUSH2 0xBFF PUSH2 0x13E3 JUMP JUMPDEST JUMPDEST PUSH2 0xC0B DUP5 DUP3 DUP6 PUSH2 0x1249 JUMP JUMPDEST POP SWAP4 SWAP3 POP POP POP JUMP JUMPDEST PUSH1 0x0 DUP2 CALLDATALOAD SWAP1 POP PUSH2 0xC22 DUP2 PUSH2 0x1403 JUMP JUMPDEST SWAP3 SWAP2 POP POP JUMP JUMPDEST PUSH1 0x0 DUP1 DUP4 PUSH1 0x1F DUP5 ADD SLT PUSH2 0xC3E JUMPI PUSH2 0xC3D PUSH2 0x13D9 JUMP JUMPDEST JUMPDEST DUP3 CALLDATALOAD SWAP1 POP PUSH8 0xFFFFFFFFFFFFFFFF DUP2 GT ISZERO PUSH2 0xC5B JUMPI PUSH2 0xC5A PUSH2 0x13D4 JUMP JUMPDEST JUMPDEST PUSH1 0x20 DUP4 ADD SWAP2 POP DUP4 PUSH1 0x1 DUP3 MUL DUP4 ADD GT ISZERO PUSH2 0xC77 JUMPI PUSH2 0xC76 PUSH2 0x13DE JUMP JUMPDEST JUMPDEST SWAP3 POP SWAP3 SWAP1 POP JUMP JUMPDEST PUSH1 0x0 DUP3 PUSH1 0x1F DUP4 ADD SLT PUSH2 0xC93 JUMPI PUSH2 0xC92 PUSH2 0x13D9 JUMP JUMPDEST JUMPDEST DUP2 CALLDATALOAD PUSH2 0xCA3 DUP5 DUP3 PUSH1 0x20 DUP7 ADD PUSH2 0xBD1 JUMP JUMPDEST SWAP2 POP POP SWAP3 SWAP2 POP POP JUMP JUMPDEST PUSH1 0x0 DUP2 CALLDATALOAD SWAP1 POP PUSH2 0xCBB DUP2 PUSH2 0x141A JUMP JUMPDEST SWAP3 SWAP2 POP POP JUMP JUMPDEST PUSH1 0x0 DUP1 PUSH1 0x0 PUSH1 0x40 DUP5 DUP7 SUB SLT ISZERO PUSH2 0xCDA JUMPI PUSH2 0xCD9 PUSH2 0x13ED JUMP JUMPDEST JUMPDEST PUSH1 0x0 DUP5 ADD CALLDATALOAD PUSH8 0xFFFFFFFFFFFFFFFF DUP2 GT ISZERO PUSH2 0xCF8 JUMPI PUSH2 0xCF7 PUSH2 0x13E8 JUMP JUMPDEST JUMPDEST PUSH2 0xD04 DUP7 DUP3 DUP8 ADD PUSH2 0xC28 JUMP JUMPDEST SWAP4 POP SWAP4 POP POP PUSH1 0x20 PUSH2 0xD17 DUP7 DUP3 DUP8 ADD PUSH2 0xCAC JUMP JUMPDEST SWAP2 POP POP SWAP3 POP SWAP3 POP SWAP3 JUMP JUMPDEST PUSH1 0x0 DUP1 PUSH1 0x0 DUP1 PUSH1 0x60 DUP6 DUP8 SUB SLT ISZERO PUSH2 0xD3B JUMPI PUSH2 0xD3A PUSH2 0x13ED JUMP JUMPDEST JUMPDEST PUSH1 0x0 DUP6 ADD CALLDATALOAD PUSH8 0xFFFFFFFFFFFFFFFF DUP2 GT ISZERO PUSH2 0xD59 JUMPI PUSH2 0xD58 PUSH2 0x13E8 JUMP JUMPDEST JUMPDEST PUSH2 0xD65 DUP8 DUP3 DUP9 ADD PUSH2 0xC28 JUMP JUMPDEST SWAP5 POP SWAP5 POP POP PUSH1 0x20 PUSH2 0xD78 DUP8 DUP3 DUP9 ADD PUSH2 0xCAC JUMP JUMPDEST SWAP3 POP POP PUSH1 0x40 PUSH2 0xD89 DUP8 DUP3 DUP9 ADD PUSH2 0xCAC JUMP JUMPDEST SWAP2 POP POP SWAP3 SWAP6 SWAP2 SWAP5 POP SWAP3 POP JUMP JUMPDEST PUSH1 0x0 PUSH1 0x20 DUP3 DUP5 SUB SLT ISZERO PUSH2 0xDAB JUMPI PUSH2 0xDAA PUSH2 0x13ED JUMP JUMPDEST JUMPDEST PUSH1 0x0 DUP3 ADD CALLDATALOAD PUSH8 0xFFFFFFFFFFFFFFFF DUP2 GT ISZERO PUSH2 0xDC9 JUMPI PUSH2 0xDC8 PUSH2 0x13E8 JUMP JUMPDEST JUMPDEST PUSH2 0xDD5 DUP5 DUP3 DUP6 ADD PUSH2 0xC7E JUMP JUMPDEST SWAP2 POP POP SWAP3 SWAP2 POP POP JUMP JUMPDEST PUSH1 0x0 PUSH1 0x20 DUP3 DUP5 SUB SLT ISZERO PUSH2 0xDF4 JUMPI PUSH2 0xDF3 PUSH2 0x13ED JUMP JUMPDEST JUMPDEST PUSH1 0x0 PUSH2 0xE02 DUP5 DUP3 DUP6 ADD PUSH2 0xCAC JUMP JUMPDEST SWAP2 POP POP SWAP3 SWAP2 POP POP JUMP JUMPDEST PUSH1 0x0 DUP1 PUSH1 0x40 DUP4 DUP6 SUB SLT ISZERO PUSH2 0xE22 JUMPI PUSH2 0xE21 PUSH2 0x13ED JUMP JUMPDEST JUMPDEST PUSH1 0x0 PUSH2 0xE30 DUP6 DUP3 DUP7 ADD PUSH2 0xCAC JUMP JUMPDEST SWAP3 POP POP PUSH1 0x20 PUSH2 0xE41 DUP6 DUP3 DUP7 ADD PUSH2 0xC13 JUMP JUMPDEST SWAP2 POP POP SWAP3 POP SWAP3 SWAP1 POP JUMP JUMPDEST PUSH1 0x0 DUP1 PUSH1 0x40 DUP4 DUP6 SUB SLT ISZERO PUSH2 0xE62 JUMPI PUSH2 0xE61 PUSH2 0x13ED JUMP JUMPDEST JUMPDEST PUSH1 0x0 PUSH2 0xE70 DUP6 DUP3 DUP7 ADD PUSH2 0xCAC JUMP JUMPDEST SWAP3 POP POP PUSH1 0x20 PUSH2 0xE81 DUP6 DUP3 DUP7 ADD PUSH2 0xCAC JUMP JUMPDEST SWAP2 POP POP SWAP3 POP SWAP3 SWAP1 POP JUMP JUMPDEST PUSH1 0x0 PUSH2 0xE97 DUP4 DUP4 PUSH2 0xEA3 JUMP JUMPDEST PUSH1 0x20 DUP4 ADD SWAP1 POP SWAP3 SWAP2 POP POP JUMP JUMPDEST PUSH2 0xEAC DUP2 PUSH2 0x1201 JUMP JUMPDEST DUP3 MSTORE POP POP JUMP JUMPDEST PUSH2 0xEBB DUP2 PUSH2 0x1201 JUMP JUMPDEST DUP3 MSTORE POP POP JUMP JUMPDEST PUSH1 0x0 PUSH2 0xECC DUP3 PUSH2 0x115B JUMP JUMPDEST PUSH2 0xED6 DUP2 DUP6 PUSH2 0x117E JUMP JUMPDEST SWAP4 POP PUSH2 0xEE1 DUP4 PUSH2 0x1136 JUMP JUMPDEST DUP1 PUSH1 0x0 JUMPDEST DUP4 DUP2 LT ISZERO PUSH2 0xF12 JUMPI DUP2 MLOAD PUSH2 0xEF9 DUP9 DUP3 PUSH2 0xE8B JUMP JUMPDEST SWAP8 POP PUSH2 0xF04 DUP4 PUSH2 0x1171 JUMP JUMPDEST SWAP3 POP POP PUSH1 0x1 DUP2 ADD SWAP1 POP PUSH2 0xEE5 JUMP JUMPDEST POP DUP6 SWAP4 POP POP POP POP SWAP3 SWAP2 POP POP JUMP JUMPDEST PUSH2 0xF28 DUP2 PUSH2 0x1213 JUMP JUMPDEST DUP3 MSTORE POP POP JUMP JUMPDEST PUSH1 0x0 PUSH2 0xF3A DUP4 DUP6 PUSH2 0x11A0 JUMP JUMPDEST SWAP4 POP PUSH2 0xF47 DUP4 DUP6 DUP5 PUSH2 0x1249 JUMP JUMPDEST DUP3 DUP5 ADD SWAP1 POP SWAP4 SWAP3 POP POP POP JUMP JUMPDEST PUSH1 0x0 PUSH2 0xF5E DUP3 PUSH2 0x1166 JUMP JUMPDEST PUSH2 0xF68 DUP2 DUP6 PUSH2 0x118F JUMP JUMPDEST SWAP4 POP PUSH2 0xF78 DUP2 DUP6 PUSH1 0x20 DUP7 ADD PUSH2 0x1258 JUMP JUMPDEST PUSH2 0xF81 DUP2 PUSH2 0x13F2 JUMP JUMPDEST DUP5 ADD SWAP2 POP POP SWAP3 SWAP2 POP POP JUMP JUMPDEST PUSH1 0x0 DUP2 SLOAD PUSH2 0xF99 DUP2 PUSH2 0x12B5 JUMP JUMPDEST PUSH2 0xFA3 DUP2 DUP7 PUSH2 0x11A0 JUMP JUMPDEST SWAP5 POP PUSH1 0x1 DUP3 AND PUSH1 0x0 DUP2 EQ PUSH2 0xFBE JUMPI PUSH1 0x1 DUP2 EQ PUSH2 0xFCF JUMPI PUSH2 0x1002 JUMP JUMPDEST PUSH1 0xFF NOT DUP4 AND DUP7 MSTORE DUP2 DUP7 ADD SWAP4 POP PUSH2 0x1002 JUMP JUMPDEST PUSH2 0xFD8 DUP6 PUSH2 0x1146 JUMP JUMPDEST PUSH1 0x0 JUMPDEST DUP4 DUP2 LT ISZERO PUSH2 0xFFA JUMPI DUP2 SLOAD DUP2 DUP10 ADD MSTORE PUSH1 0x1 DUP3 ADD SWAP2 POP PUSH1 0x20 DUP2 ADD SWAP1 POP PUSH2 0xFDB JUMP JUMPDEST DUP4 DUP9 ADD SWAP6 POP POP POP JUMPDEST POP POP POP SWAP3 SWAP2 POP POP JUMP JUMPDEST PUSH2 0x1014 DUP2 PUSH2 0x123F JUMP JUMPDEST DUP3 MSTORE POP POP JUMP JUMPDEST PUSH1 0x0 PUSH2 0x1027 DUP3 DUP5 DUP7 PUSH2 0xF2E JUMP JUMPDEST SWAP2 POP DUP2 SWAP1 POP SWAP4 SWAP3 POP POP POP JUMP JUMPDEST PUSH1 0x0 PUSH2 0x103F DUP3 DUP5 PUSH2 0xF8C JUMP JUMPDEST SWAP2 POP DUP2 SWAP1 POP SWAP3 SWAP2 POP POP JUMP JUMPDEST PUSH1 0x0 PUSH1 0x20 DUP3 ADD SWAP1 POP PUSH2 0x105F PUSH1 0x0 DUP4 ADD DUP5 PUSH2 0xEB2 JUMP JUMPDEST SWAP3 SWAP2 POP POP JUMP JUMPDEST PUSH1 0x0 PUSH1 0x20 DUP3 ADD SWAP1 POP DUP2 DUP2 SUB PUSH1 0x0 DUP4 ADD MSTORE PUSH2 0x107F DUP2 DUP5 PUSH2 0xEC1 JUMP JUMPDEST SWAP1 POP SWAP3 SWAP2 POP POP JUMP JUMPDEST PUSH1 0x0 PUSH1 0x20 DUP3 ADD SWAP1 POP DUP2 DUP2 SUB PUSH1 0x0 DUP4 ADD MSTORE PUSH2 0x10A1 DUP2 DUP5 PUSH2 0xF53 JUMP JUMPDEST SWAP1 POP SWAP3 SWAP2 POP POP JUMP JUMPDEST PUSH1 0x0 PUSH1 0x60 DUP3 ADD SWAP1 POP PUSH2 0x10BE PUSH1 0x0 DUP4 ADD DUP7 PUSH2 0x100B JUMP JUMPDEST PUSH2 0x10CB PUSH1 0x20 DUP4 ADD DUP6 PUSH2 0x100B JUMP JUMPDEST PUSH2 0x10D8 PUSH1 0x40 DUP4 ADD DUP5 PUSH2 0xF1F JUMP JUMPDEST SWAP5 SWAP4 POP POP POP POP JUMP JUMPDEST PUSH1 0x0 PUSH2 0x10EA PUSH2 0x10FB JUMP JUMPDEST SWAP1 POP PUSH2 0x10F6 DUP3 DUP3 PUSH2 0x12E7 JUMP JUMPDEST SWAP2 SWAP1 POP JUMP JUMPDEST PUSH1 0x0 PUSH1 0x40 MLOAD SWAP1 POP SWAP1 JUMP JUMPDEST PUSH1 0x0 PUSH8 0xFFFFFFFFFFFFFFFF DUP3 GT ISZERO PUSH2 0x1120 JUMPI PUSH2 0x111F PUSH2 0x13A5 JUMP JUMPDEST JUMPDEST PUSH2 0x1129 DUP3 PUSH2 0x13F2 JUMP JUMPDEST SWAP1 POP PUSH1 0x20 DUP2 ADD SWAP1 POP SWAP2 SWAP1 POP JUMP JUMPDEST PUSH1 0x0 DUP2 SWAP1 POP PUSH1 0x20 DUP3 ADD SWAP1 POP SWAP2 SWAP1 POP JUMP JUMPDEST PUSH1 0x0 DUP2 SWAP1 POP DUP2 PUSH1 0x0 MSTORE PUSH1 0x20 PUSH1 0x0 KECCAK256 SWAP1 POP SWAP2 SWAP1 POP JUMP JUMPDEST PUSH1 0x0 DUP2 MLOAD SWAP1 POP SWAP2 SWAP1 POP JUMP JUMPDEST PUSH1 0x0 DUP2 MLOAD SWAP1 POP SWAP2 SWAP1 POP JUMP JUMPDEST PUSH1 0x0 PUSH1 0x20 DUP3 ADD SWAP1 POP SWAP2 SWAP1 POP JUMP JUMPDEST PUSH1 0x0 DUP3 DUP3 MSTORE PUSH1 0x20 DUP3 ADD SWAP1 POP SWAP3 SWAP2 POP POP JUMP JUMPDEST PUSH1 0x0 DUP3 DUP3 MSTORE PUSH1 0x20 DUP3 ADD SWAP1 POP SWAP3 SWAP2 POP POP JUMP JUMPDEST PUSH1 0x0 DUP2 SWAP1 POP SWAP3 SWAP2 POP POP JUMP JUMPDEST PUSH1 0x0 PUSH2 0x11B6 DUP3 PUSH2 0x123F JUMP JUMPDEST SWAP2 POP PUSH2 0x11C1 DUP4 PUSH2 0x123F JUMP JUMPDEST SWAP3 POP DUP3 PUSH32 0xFFFFFFFFFFFFFFFFFFFFFFFFFFFFFFFFFFFFFFFFFFFFFFFFFFFFFFFFFFFFFFFF SUB DUP3 GT ISZERO PUSH2 0x11F6 JUMPI PUSH2 0x11F5 PUSH2 0x1318 JUMP JUMPDEST JUMPDEST DUP3 DUP3 ADD SWAP1 POP SWAP3 SWAP2 POP POP JUMP JUMPDEST PUSH1 0x0 PUSH2 0x120C DUP3 PUSH2 0x121F JUMP JUMPDEST SWAP1 POP SWAP2 SWAP1 POP JUMP JUMPDEST PUSH1 0x0 DUP2 ISZERO ISZERO SWAP1 POP SWAP2 SWAP1 POP JUMP JUMPDEST PUSH1 0x0 PUSH20 0xFFFFFFFFFFFFFFFFFFFFFFFFFFFFFFFFFFFFFFFF DUP3 AND SWAP1 POP SWAP2 SWAP1 POP JUMP JUMPDEST PUSH1 0x0 DUP2 SWAP1 POP SWAP2 SWAP1 POP JUMP JUMPDEST DUP3 DUP2 DUP4 CALLDATACOPY PUSH1 0x0 DUP4 DUP4 ADD MSTORE POP POP POP JUMP JUMPDEST PUSH1 0x0 JUMPDEST DUP4 DUP2 LT ISZERO PUSH2 0x1276 JUMPI DUP1 DUP3 ADD MLOAD DUP2 DUP5 ADD MSTORE PUSH1 0x20 DUP2 ADD SWAP1 POP PUSH2 0x125B JUMP JUMPDEST DUP4 DUP2 GT ISZERO PUSH2 0x1285 JUMPI PUSH1 0x0 DUP5 DUP5 ADD MSTORE JUMPDEST POP POP POP POP JUMP JUMPDEST PUSH1 0x0 PUSH2 0x1296 DUP3 PUSH2 0x123F JUMP JUMPDEST SWAP2 POP PUSH1 0x0 DUP3 EQ ISZERO PUSH2 0x12AA JUMPI PUSH2 0x12A9 PUSH2 0x1318 JUMP JUMPDEST JUMPDEST PUSH1 0x1 DUP3 SUB SWAP1 POP SWAP2 SWAP1 POP JUMP JUMPDEST PUSH1 0x0 PUSH1 0x2 DUP3 DIV SWAP1 POP PUSH1 0x1 DUP3 AND DUP1 PUSH2 0x12CD JUMPI PUSH1 0x7F DUP3 AND SWAP2 POP JUMPDEST PUSH1 0x20 DUP3 LT DUP2 EQ ISZERO PUSH2 0x12E1 JUMPI PUSH2 0x12E0 PUSH2 0x1347 JUMP JUMPDEST JUMPDEST POP SWAP2 SWAP1 POP JUMP JUMPDEST PUSH2 0x12F0 DUP3 PUSH2 0x13F2 JUMP JUMPDEST DUP2 ADD DUP2 DUP2 LT PUSH8 0xFFFFFFFFFFFFFFFF DUP3 GT OR ISZERO PUSH2 0x130F JUMPI PUSH2 0x130E PUSH2 0x13A5 JUMP JUMPDEST JUMPDEST DUP1 PUSH1 0x40 MSTORE POP POP POP JUMP JUMPDEST PUSH32 0x4E487B7100000000000000000000000000000000000000000000000000000000 PUSH1 0x0 MSTORE PUSH1 0x11 PUSH1 0x4 MSTORE PUSH1 0x24 PUSH1 0x0 REVERT JUMPDEST PUSH32 0x4E487B7100000000000000000000000000000000000000000000000000000000 PUSH1 0x0 MSTORE PUSH1 0x22 PUSH1 0x4 MSTORE PUSH1 0x24 PUSH1 0x0 REVERT JUMPDEST PUSH32 0x4E487B7100000000000000000000000000000000000000000000000000000000 PUSH1 0x0 MSTORE PUSH1 0x32 PUSH1 0x4 MSTORE PUSH1 0x24 PUSH1 0x0 REVERT JUMPDEST PUSH32 0x4E487B7100000000000000000000000000000000000000000000000000000000 PUSH1 0x0 MSTORE PUSH1 0x41 PUSH1 0x4 MSTORE PUSH1 0x24 PUSH1 0x0 REVERT JUMPDEST PUSH1 0x0 DUP1 REVERT JUMPDEST PUSH1 0x0 DUP1 REVERT JUMPDEST PUSH1 0x0 DUP1 REVERT JUMPDEST PUSH1 0x0 DUP1 REVERT JUMPDEST PUSH1 0x0 DUP1 REVERT JUMPDEST PUSH1 0x0 DUP1 REVERT JUMPDEST PUSH1 0x0 PUSH1 0x1F NOT PUSH1 0x1F DUP4 ADD AND SWAP1 POP SWAP2 SWAP1 POP JUMP JUMPDEST PUSH2 0x140C DUP2 PUSH2 0x1201 JUMP JUMPDEST DUP2 EQ PUSH2 0x1417 JUMPI PUSH1 0x0 DUP1 REVERT JUMPDEST POP JUMP JUMPDEST PUSH2 0x1423 DUP2 PUSH2 0x123F JUMP JUMPDEST DUP2 EQ PUSH2 0x142E JUMPI PUSH1 0x0 DUP1 REVERT JUMPDEST POP JUMP INVALID LOG2 PUSH5 0x6970667358 0x22 SLT KECCAK256 0xC4 SIGNEXTEND PUSH24 0x1D1947623582AF78D60BB844B010F746F60847E14DE61C9B PUSH10 0xB26D20FD64736F6C6343 STOP ADDMOD SMOD STOP CALLER "
				},
				"gasEstimates": {
					"creation": {
						"codeDepositCost": "1044600",
						"executionCost": "1063",
						"totalCost": "1045663"
					},
					"external": {
						"addNewProduct(string,uint256,uint256)": "infinite",
						"availableProducts(uint256)": "infinite",
						"buyProduct(uint256)": "infinite",
						"buyers(uint256,uint256)": "infinite",
						"checkProductBuyers(uint256)": "infinite",
						"products(string)": "infinite",
						"transactions(uint256,address)": "infinite",
						"updateQuantity(string,uint256)": "infinite"
					}
				},
				"methodIdentifiers": {
					"addNewProduct(string,uint256,uint256)": "0a5bd44b",
					"availableProducts(uint256)": "e4bcc7d4",
					"buyProduct(uint256)": "8642269e",
					"buyers(uint256,uint256)": "27e7875a",
					"checkProductBuyers(uint256)": "74ce0ca9",
					"products(string)": "0186a423",
					"transactions(uint256,address)": "74cbc350",
					"updateQuantity(string,uint256)": "1d894eb8"
				}
			},
			"storageLayout": {
				"storage": [
					{
						"astId": 33,
						"contract": "Project/TechnoLime.sol:TechnoLimeStore",
						"label": "availableProducts",
						"offset": 0,
						"slot": "0",
						"type": "t_array(t_string_storage)dyn_storage"
					},
					{
						"astId": 38,
						"contract": "Project/TechnoLime.sol:TechnoLimeStore",
						"label": "products",
						"offset": 0,
						"slot": "1",
						"type": "t_mapping(t_string_memory_ptr,t_struct(Product)30_storage)"
					},
					{
						"astId": 52,
						"contract": "Project/TechnoLime.sol:TechnoLimeStore",
						"label": "transactions",
						"offset": 0,
						"slot": "2",
						"type": "t_mapping(t_uint256,t_mapping(t_address,t_struct(Transaction)45_storage))"
					},
					{
						"astId": 57,
						"contract": "Project/TechnoLime.sol:TechnoLimeStore",
						"label": "buyers",
						"offset": 0,
						"slot": "3",
						"type": "t_mapping(t_uint256,t_array(t_address)dyn_storage)"
					}
				],
				"types": {
					"t_address": {
						"encoding": "inplace",
						"label": "address",
						"numberOfBytes": "20"
					},
					"t_array(t_address)dyn_storage": {
						"base": "t_address",
						"encoding": "dynamic_array",
						"label": "address[]",
						"numberOfBytes": "32"
					},
					"t_array(t_string_storage)dyn_storage": {
						"base": "t_string_storage",
						"encoding": "dynamic_array",
						"label": "string[]",
						"numberOfBytes": "32"
					},
					"t_bool": {
						"encoding": "inplace",
						"label": "bool",
						"numberOfBytes": "1"
					},
					"t_mapping(t_address,t_struct(Transaction)45_storage)": {
						"encoding": "mapping",
						"key": "t_address",
						"label": "mapping(address => struct TechnoLimeStore.Transaction)",
						"numberOfBytes": "32",
						"value": "t_struct(Transaction)45_storage"
					},
					"t_mapping(t_string_memory_ptr,t_struct(Product)30_storage)": {
						"encoding": "mapping",
						"key": "t_string_memory_ptr",
						"label": "mapping(string => struct TechnoLimeStore.Product)",
						"numberOfBytes": "32",
						"value": "t_struct(Product)30_storage"
					},
					"t_mapping(t_uint256,t_array(t_address)dyn_storage)": {
						"encoding": "mapping",
						"key": "t_uint256",
						"label": "mapping(uint256 => address[])",
						"numberOfBytes": "32",
						"value": "t_array(t_address)dyn_storage"
					},
					"t_mapping(t_uint256,t_mapping(t_address,t_struct(Transaction)45_storage))": {
						"encoding": "mapping",
						"key": "t_uint256",
						"label": "mapping(uint256 => mapping(address => struct TechnoLimeStore.Transaction))",
						"numberOfBytes": "32",
						"value": "t_mapping(t_address,t_struct(Transaction)45_storage)"
					},
					"t_string_memory_ptr": {
						"encoding": "bytes",
						"label": "string",
						"numberOfBytes": "32"
					},
					"t_string_storage": {
						"encoding": "bytes",
						"label": "string",
						"numberOfBytes": "32"
					},
					"t_struct(Product)30_storage": {
						"encoding": "inplace",
						"label": "struct TechnoLimeStore.Product",
						"members": [
							{
								"astId": 22,
								"contract": "Project/TechnoLime.sol:TechnoLimeStore",
								"label": "price",
								"offset": 0,
								"slot": "0",
								"type": "t_uint256"
							},
							{
								"astId": 24,
								"contract": "Project/TechnoLime.sol:TechnoLimeStore",
								"label": "quantity",
								"offset": 0,
								"slot": "1",
								"type": "t_uint256"
							},
							{
								"astId": 27,
								"contract": "Project/TechnoLime.sol:TechnoLimeStore",
								"label": "buyers",
								"offset": 0,
								"slot": "2",
								"type": "t_array(t_address)dyn_storage"
							},
							{
								"astId": 29,
								"contract": "Project/TechnoLime.sol:TechnoLimeStore",
								"label": "exists",
								"offset": 0,
								"slot": "3",
								"type": "t_bool"
							}
						],
						"numberOfBytes": "128"
					},
					"t_struct(Transaction)45_storage": {
						"encoding": "inplace",
						"label": "struct TechnoLimeStore.Transaction",
						"members": [
							{
								"astId": 40,
								"contract": "Project/TechnoLime.sol:TechnoLimeStore",
								"label": "blockNum",
								"offset": 0,
								"slot": "0",
								"type": "t_uint256"
							},
							{
								"astId": 42,
								"contract": "Project/TechnoLime.sol:TechnoLimeStore",
								"label": "price",
								"offset": 0,
								"slot": "1",
								"type": "t_uint256"
							},
							{
								"astId": 44,
								"contract": "Project/TechnoLime.sol:TechnoLimeStore",
								"label": "exists",
								"offset": 0,
								"slot": "2",
								"type": "t_bool"
							}
						],
						"numberOfBytes": "96"
					},
					"t_uint256": {
						"encoding": "inplace",
						"label": "uint256",
						"numberOfBytes": "32"
					}
				}
			},
			"userdoc": {
				"errors": {
					"ItemIdWrongOrBoughtAlready()": [
						{
							"notice": "Error trown when the productID doesn't exist or it has been bought once already"
						}
					],
					"LessThanPrice()": [
						{
							"notice": "Error trown when money sent is less than Product price"
						}
					],
					"ProductExists()": [
						{
							"notice": "Can't add a product that already exists"
						}
					]
				},
				"kind": "user",
				"methods": {},
				"version": 1
			}
		}
	}
}