{
	"Project/TechnoLime.sol": {
		"TechnoLimeStore": {
			"abi": [
				{
					"inputs": [],
					"stateMutability": "payable",
					"type": "constructor"
				},
				{
					"inputs": [],
					"name": "ItemIdWrongOrBoughtAlready",
					"type": "error"
				},
				{
					"inputs": [],
					"name": "LessThanPriceOrOutOfStock",
					"type": "error"
				},
				{
					"inputs": [],
					"name": "ProductExists",
					"type": "error"
				},
				{
					"inputs": [],
					"name": "ProductNotExistent",
					"type": "error"
				},
				{
					"inputs": [
						{
							"internalType": "string",
							"name": "_name",
							"type": "string"
						},
						{
							"internalType": "uint256",
							"name": "_price",
							"type": "uint256"
						},
						{
							"internalType": "uint256",
							"name": "_quantity",
							"type": "uint256"
						}
					],
					"name": "addNewProduct",
					"outputs": [],
					"stateMutability": "nonpayable",
					"type": "function"
				},
				{
					"inputs": [
						{
							"internalType": "uint256",
							"name": "",
							"type": "uint256"
						}
					],
					"name": "availableProducts",
					"outputs": [
						{
							"internalType": "string",
							"name": "",
							"type": "string"
						}
					],
					"stateMutability": "view",
					"type": "function"
				},
				{
					"inputs": [
						{
							"internalType": "uint256",
							"name": "ProductId",
							"type": "uint256"
						}
					],
					"name": "buyProduct",
					"outputs": [],
					"stateMutability": "payable",
					"type": "function"
				},
				{
					"inputs": [
						{
							"internalType": "uint256",
							"name": "",
							"type": "uint256"
						},
						{
							"internalType": "uint256",
							"name": "",
							"type": "uint256"
						}
					],
					"name": "buyers",
					"outputs": [
						{
							"internalType": "address",
							"name": "",
							"type": "address"
						}
					],
					"stateMutability": "view",
					"type": "function"
				},
				{
					"inputs": [
						{
							"internalType": "uint256",
							"name": "",
							"type": "uint256"
						}
					],
					"name": "products",
					"outputs": [
						{
							"internalType": "uint256",
							"name": "price",
							"type": "uint256"
						},
						{
							"internalType": "uint256",
							"name": "quantity",
							"type": "uint256"
						},
						{
							"internalType": "string",
							"name": "name",
							"type": "string"
						},
						{
							"internalType": "bool",
							"name": "exists",
							"type": "bool"
						}
					],
					"stateMutability": "view",
					"type": "function"
				},
				{
					"inputs": [
						{
							"internalType": "uint256",
							"name": "",
							"type": "uint256"
						},
						{
							"internalType": "address",
							"name": "",
							"type": "address"
						}
					],
					"name": "transactions",
					"outputs": [
						{
							"internalType": "uint256",
							"name": "blockNum",
							"type": "uint256"
						},
						{
							"internalType": "uint256",
							"name": "price",
							"type": "uint256"
						},
						{
							"internalType": "bool",
							"name": "exists",
							"type": "bool"
						}
					],
					"stateMutability": "view",
					"type": "function"
				},
				{
					"inputs": [
						{
							"internalType": "uint256",
							"name": "ProductId",
							"type": "uint256"
						},
						{
							"internalType": "uint256",
							"name": "_quantity",
							"type": "uint256"
						}
					],
					"name": "updateQuantity",
					"outputs": [],
					"stateMutability": "nonpayable",
					"type": "function"
				}
			],
			"devdoc": {
				"kind": "dev",
				"methods": {},
				"version": 1
			},
			"evm": {
				"assembly": "    /* \"Project/TechnoLime.sol\":98:3508  contract TechnoLimeStore {\r... */\n  mstore(0x40, 0x80)\n  dataSize(sub_0)\n  dup1\n  dataOffset(sub_0)\n  0x00\n  codecopy\n  0x00\n  return\nstop\n\nsub_0: assembly {\n        /* \"Project/TechnoLime.sol\":98:3508  contract TechnoLimeStore {\r... */\n      mstore(0x40, 0x80)\n      jumpi(tag_1, lt(calldatasize, 0x04))\n      shr(0xe0, calldataload(0x00))\n      dup1\n      0x79cd4921\n      gt\n      tag_9\n      jumpi\n      dup1\n      0x79cd4921\n      eq\n      tag_5\n      jumpi\n      dup1\n      0x7acc0b20\n      eq\n      tag_6\n      jumpi\n      dup1\n      0x8642269e\n      eq\n      tag_7\n      jumpi\n      dup1\n      0xe4bcc7d4\n      eq\n      tag_8\n      jumpi\n      jump(tag_1)\n    tag_9:\n      dup1\n      0x0a5bd44b\n      eq\n      tag_2\n      jumpi\n      dup1\n      0x27e7875a\n      eq\n      tag_3\n      jumpi\n      dup1\n      0x74cbc350\n      eq\n      tag_4\n      jumpi\n    tag_1:\n      0x00\n      dup1\n      revert\n        /* \"Project/TechnoLime.sol\":981:1635  function addNewProduct(string calldata _name, uint _price,uint _quantity) external{\r... */\n    tag_2:\n      callvalue\n      dup1\n      iszero\n      tag_10\n      jumpi\n      0x00\n      dup1\n      revert\n    tag_10:\n      pop\n      tag_11\n      0x04\n      dup1\n      calldatasize\n      sub\n      dup2\n      add\n      swap1\n      tag_12\n      swap2\n      swap1\n      tag_13\n      jump\t// in\n    tag_12:\n      tag_14\n      jump\t// in\n    tag_11:\n      stop\n        /* \"Project/TechnoLime.sol\":814:853  mapping(uint =>address[]) public buyers */\n    tag_3:\n      callvalue\n      dup1\n      iszero\n      tag_15\n      jumpi\n      0x00\n      dup1\n      revert\n    tag_15:\n      pop\n      tag_16\n      0x04\n      dup1\n      calldatasize\n      sub\n      dup2\n      add\n      swap1\n      tag_17\n      swap2\n      swap1\n      tag_18\n      jump\t// in\n    tag_17:\n      tag_19\n      jump\t// in\n    tag_16:\n      mload(0x40)\n      tag_20\n      swap2\n      swap1\n      tag_21\n      jump\t// in\n    tag_20:\n      mload(0x40)\n      dup1\n      swap2\n      sub\n      swap1\n      return\n        /* \"Project/TechnoLime.sol\":739:807  mapping(uint => mapping(address => Transaction)) public transactions */\n    tag_4:\n      callvalue\n      dup1\n      iszero\n      tag_22\n      jumpi\n      0x00\n      dup1\n      revert\n    tag_22:\n      pop\n      tag_23\n      0x04\n      dup1\n      calldatasize\n      sub\n      dup2\n      add\n      swap1\n      tag_24\n      swap2\n      swap1\n      tag_25\n      jump\t// in\n    tag_24:\n      tag_26\n      jump\t// in\n    tag_23:\n      mload(0x40)\n      tag_27\n      swap4\n      swap3\n      swap2\n      swap1\n      tag_28\n      jump\t// in\n    tag_27:\n      mload(0x40)\n      dup1\n      swap2\n      sub\n      swap1\n      return\n        /* \"Project/TechnoLime.sol\":1643:1995  function updateQuantity(uint ProductId,uint _quantity) external{\r... */\n    tag_5:\n      callvalue\n      dup1\n      iszero\n      tag_29\n      jumpi\n      0x00\n      dup1\n      revert\n    tag_29:\n      pop\n      tag_30\n      0x04\n      dup1\n      calldatasize\n      sub\n      dup2\n      add\n      swap1\n      tag_31\n      swap2\n      swap1\n      tag_18\n      jump\t// in\n    tag_31:\n      tag_32\n      jump\t// in\n    tag_30:\n      stop\n        /* \"Project/TechnoLime.sol\":554:594  mapping(uint => Product) public products */\n    tag_6:\n      callvalue\n      dup1\n      iszero\n      tag_33\n      jumpi\n      0x00\n      dup1\n      revert\n    tag_33:\n      pop\n      tag_34\n      0x04\n      dup1\n      calldatasize\n      sub\n      dup2\n      add\n      swap1\n      tag_35\n      swap2\n      swap1\n      tag_36\n      jump\t// in\n    tag_35:\n      tag_37\n      jump\t// in\n    tag_34:\n      mload(0x40)\n      tag_38\n      swap5\n      swap4\n      swap3\n      swap2\n      swap1\n      tag_39\n      jump\t// in\n    tag_38:\n      mload(0x40)\n      dup1\n      swap2\n      sub\n      swap1\n      return\n        /* \"Project/TechnoLime.sol\":2097:3491  function buyProduct (uint ProductId)  external payable { \r... */\n    tag_7:\n      tag_40\n      0x04\n      dup1\n      calldatasize\n      sub\n      dup2\n      add\n      swap1\n      tag_41\n      swap2\n      swap1\n      tag_36\n      jump\t// in\n    tag_41:\n      tag_42\n      jump\t// in\n    tag_40:\n      stop\n        /* \"Project/TechnoLime.sol\":514:547  string[] public availableProducts */\n    tag_8:\n      callvalue\n      dup1\n      iszero\n      tag_43\n      jumpi\n      0x00\n      dup1\n      revert\n    tag_43:\n      pop\n      tag_44\n      0x04\n      dup1\n      calldatasize\n      sub\n      dup2\n      add\n      swap1\n      tag_45\n      swap2\n      swap1\n      tag_36\n      jump\t// in\n    tag_45:\n      tag_46\n      jump\t// in\n    tag_44:\n      mload(0x40)\n      tag_47\n      swap2\n      swap1\n      tag_48\n      jump\t// in\n    tag_47:\n      mload(0x40)\n      dup1\n      swap2\n      sub\n      swap1\n      return\n        /* \"Project/TechnoLime.sol\":981:1635  function addNewProduct(string calldata _name, uint _price,uint _quantity) external{\r... */\n    tag_14:\n        /* \"Project/TechnoLime.sol\":1080:1090  productMap */\n      0x02\n        /* \"Project/TechnoLime.sol\":1091:1096  _name */\n      dup5\n      dup5\n        /* \"Project/TechnoLime.sol\":1080:1097  productMap[_name] */\n      mload(0x40)\n      tag_50\n      swap3\n      swap2\n      swap1\n      tag_51\n      jump\t// in\n    tag_50:\n      swap1\n      dup2\n      mstore\n      0x20\n      add\n      mload(0x40)\n      dup1\n      swap2\n      sub\n      swap1\n      keccak256\n      0x00\n      swap1\n      sload\n      swap1\n      0x0100\n      exp\n      swap1\n      div\n      0xff\n      and\n        /* \"Project/TechnoLime.sol\":1075:1618  if (!productMap[_name]){\r... */\n      tag_52\n      jumpi\n        /* \"Project/TechnoLime.sol\":1114:1136  Product memory product */\n      tag_53\n      tag_54\n      jump\t// in\n    tag_53:\n        /* \"Project/TechnoLime.sol\":1168:1174  _price */\n      dup3\n        /* \"Project/TechnoLime.sol\":1152:1159  product */\n      dup2\n        /* \"Project/TechnoLime.sol\":1152:1165  product.price */\n      0x00\n      add\n        /* \"Project/TechnoLime.sol\":1152:1174  product.price = _price */\n      dup2\n      dup2\n      mstore\n      pop\n      pop\n        /* \"Project/TechnoLime.sol\":1209:1218  _quantity */\n      dup2\n        /* \"Project/TechnoLime.sol\":1190:1197  product */\n      dup2\n        /* \"Project/TechnoLime.sol\":1190:1206  product.quantity */\n      0x20\n      add\n        /* \"Project/TechnoLime.sol\":1190:1218  product.quantity = _quantity */\n      dup2\n      dup2\n      mstore\n      pop\n      pop\n        /* \"Project/TechnoLime.sol\":1249:1254  _name */\n      dup5\n      dup5\n        /* \"Project/TechnoLime.sol\":1234:1254  product.name = _name */\n      dup1\n      dup1\n      0x1f\n      add\n      0x20\n      dup1\n      swap2\n      div\n      mul\n      0x20\n      add\n      mload(0x40)\n      swap1\n      dup2\n      add\n      0x40\n      mstore\n      dup1\n      swap4\n      swap3\n      swap2\n      swap1\n      dup2\n      dup2\n      mstore\n      0x20\n      add\n      dup4\n      dup4\n      dup1\n      dup3\n      dup5\n      calldatacopy\n      0x00\n      dup2\n      dup5\n      add\n      mstore\n      not(0x1f)\n      0x1f\n      dup3\n      add\n      and\n      swap1\n      pop\n      dup1\n      dup4\n      add\n      swap3\n      pop\n      pop\n      pop\n      pop\n      pop\n      pop\n      pop\n        /* \"Project/TechnoLime.sol\":1234:1241  product */\n      dup2\n        /* \"Project/TechnoLime.sol\":1234:1246  product.name */\n      0x40\n      add\n        /* \"Project/TechnoLime.sol\":1234:1254  product.name = _name */\n      dup2\n      swap1\n      mstore\n      pop\n        /* \"Project/TechnoLime.sol\":1287:1291  true */\n      0x01\n        /* \"Project/TechnoLime.sol\":1270:1277  product */\n      dup2\n        /* \"Project/TechnoLime.sol\":1270:1284  product.exists */\n      0x60\n      add\n        /* \"Project/TechnoLime.sol\":1270:1291  product.exists = true */\n      swap1\n      iszero\n      iszero\n      swap1\n      dup2\n      iszero\n      iszero\n      dup2\n      mstore\n      pop\n      pop\n        /* \"Project/TechnoLime.sol\":1344:1351  product */\n      dup1\n        /* \"Project/TechnoLime.sol\":1307:1315  products */\n      0x01\n        /* \"Project/TechnoLime.sol\":1307:1341  products[availableProducts.length] */\n      0x00\n        /* \"Project/TechnoLime.sol\":1316:1333  availableProducts */\n      dup1\n        /* \"Project/TechnoLime.sol\":1316:1340  availableProducts.length */\n      dup1\n      sload\n      swap1\n      pop\n        /* \"Project/TechnoLime.sol\":1307:1341  products[availableProducts.length] */\n      dup2\n      mstore\n      0x20\n      add\n      swap1\n      dup2\n      mstore\n      0x20\n      add\n      0x00\n      keccak256\n        /* \"Project/TechnoLime.sol\":1307:1351  products[availableProducts.length] = product */\n      0x00\n      dup3\n      add\n      mload\n      dup2\n      0x00\n      add\n      sstore\n      0x20\n      dup3\n      add\n      mload\n      dup2\n      0x01\n      add\n      sstore\n      0x40\n      dup3\n      add\n      mload\n      dup2\n      0x02\n      add\n      swap1\n      dup1\n      mload\n      swap1\n      0x20\n      add\n      swap1\n      tag_55\n      swap3\n      swap2\n      swap1\n      tag_56\n      jump\t// in\n    tag_55:\n      pop\n      0x60\n      dup3\n      add\n      mload\n      dup2\n      0x03\n      add\n      exp(0x0100, 0x00)\n      dup2\n      sload\n      dup2\n      0xff\n      mul\n      not\n      and\n      swap1\n      dup4\n      iszero\n      iszero\n      mul\n      or\n      swap1\n      sstore\n      pop\n      swap1\n      pop\n      pop\n        /* \"Project/TechnoLime.sol\":1387:1391  true */\n      0x01\n        /* \"Project/TechnoLime.sol\":1367:1377  productMap */\n      0x02\n        /* \"Project/TechnoLime.sol\":1378:1383  _name */\n      dup7\n      dup7\n        /* \"Project/TechnoLime.sol\":1367:1384  productMap[_name] */\n      mload(0x40)\n      tag_57\n      swap3\n      swap2\n      swap1\n      tag_51\n      jump\t// in\n    tag_57:\n      swap1\n      dup2\n      mstore\n      0x20\n      add\n      mload(0x40)\n      dup1\n      swap2\n      sub\n      swap1\n      keccak256\n      0x00\n        /* \"Project/TechnoLime.sol\":1367:1391  productMap[_name] = true */\n      0x0100\n      exp\n      dup2\n      sload\n      dup2\n      0xff\n      mul\n      not\n      and\n      swap1\n      dup4\n      iszero\n      iszero\n      mul\n      or\n      swap1\n      sstore\n      pop\n        /* \"Project/TechnoLime.sol\":1407:1424  availableProducts */\n      0x00\n        /* \"Project/TechnoLime.sol\":1430:1435  _name */\n      dup6\n      dup6\n        /* \"Project/TechnoLime.sol\":1407:1436  availableProducts.push(_name) */\n      swap1\n      swap2\n      dup1\n      0x01\n      dup2\n      sload\n      add\n      dup1\n      dup3\n      sstore\n      dup1\n      swap2\n      pop\n      pop\n      0x01\n      swap1\n      sub\n      swap1\n      0x00\n      mstore\n      keccak256(0x00, 0x20)\n      add\n      0x00\n      swap1\n      swap2\n      swap3\n      swap1\n      swap2\n      swap3\n      swap1\n      swap2\n      swap3\n      swap1\n      swap2\n      swap3\n      pop\n      swap2\n      swap1\n      tag_59\n      swap3\n      swap2\n      swap1\n      tag_60\n      jump\t// in\n    tag_59:\n      pop\n        /* \"Project/TechnoLime.sol\":1098:1449  {\r... */\n      pop\n        /* \"Project/TechnoLime.sol\":1075:1618  if (!productMap[_name]){\r... */\n      jump(tag_61)\n    tag_52:\n        /* \"Project/TechnoLime.sol\":1583:1605  Errors.ProductExists() */\n      mload(0x40)\n      0xb185df3a00000000000000000000000000000000000000000000000000000000\n      dup2\n      mstore\n      0x04\n      add\n      mload(0x40)\n      dup1\n      swap2\n      sub\n      swap1\n      revert\n        /* \"Project/TechnoLime.sol\":1075:1618  if (!productMap[_name]){\r... */\n    tag_61:\n        /* \"Project/TechnoLime.sol\":981:1635  function addNewProduct(string calldata _name, uint _price,uint _quantity) external{\r... */\n      pop\n      pop\n      pop\n      pop\n      jump\t// out\n        /* \"Project/TechnoLime.sol\":814:853  mapping(uint =>address[]) public buyers */\n    tag_19:\n      mstore(0x20, 0x04)\n      dup2\n      0x00\n      mstore\n      keccak256(0x00, 0x40)\n      dup2\n      dup2\n      sload\n      dup2\n      lt\n      tag_62\n      jumpi\n      0x00\n      dup1\n      revert\n    tag_62:\n      swap1\n      0x00\n      mstore\n      keccak256(0x00, 0x20)\n      add\n      0x00\n      swap2\n      pop\n      swap2\n      pop\n      swap1\n      sload\n      swap1\n      0x0100\n      exp\n      swap1\n      div\n      0xffffffffffffffffffffffffffffffffffffffff\n      and\n      dup2\n      jump\t// out\n        /* \"Project/TechnoLime.sol\":739:807  mapping(uint => mapping(address => Transaction)) public transactions */\n    tag_26:\n      mstore(0x20, 0x03)\n      dup2\n      0x00\n      mstore\n      mstore(0x20, keccak256(0x00, 0x40))\n      dup1\n      0x00\n      mstore\n      keccak256(0x00, 0x40)\n      0x00\n      swap2\n      pop\n      swap2\n      pop\n      pop\n      dup1\n      0x00\n      add\n      sload\n      swap1\n      dup1\n      0x01\n      add\n      sload\n      swap1\n      dup1\n      0x02\n      add\n      0x00\n      swap1\n      sload\n      swap1\n      0x0100\n      exp\n      swap1\n      div\n      0xff\n      and\n      swap1\n      pop\n      dup4\n      jump\t// out\n        /* \"Project/TechnoLime.sol\":1643:1995  function updateQuantity(uint ProductId,uint _quantity) external{\r... */\n    tag_32:\n        /* \"Project/TechnoLime.sol\":1721:1729  products */\n      0x01\n        /* \"Project/TechnoLime.sol\":1721:1740  products[ProductId] */\n      0x00\n        /* \"Project/TechnoLime.sol\":1730:1739  ProductId */\n      dup4\n        /* \"Project/TechnoLime.sol\":1721:1740  products[ProductId] */\n      dup2\n      mstore\n      0x20\n      add\n      swap1\n      dup2\n      mstore\n      0x20\n      add\n      0x00\n      keccak256\n        /* \"Project/TechnoLime.sol\":1721:1747  products[ProductId].exists */\n      0x03\n      add\n      0x00\n      swap1\n      sload\n      swap1\n      0x0100\n      exp\n      swap1\n      div\n      0xff\n      and\n        /* \"Project/TechnoLime.sol\":1717:1988  if (products[ProductId].exists){\r... */\n      iszero\n      tag_65\n      jumpi\n        /* \"Project/TechnoLime.sol\":1795:1804  _quantity */\n      dup1\n        /* \"Project/TechnoLime.sol\":1763:1771  products */\n      0x01\n        /* \"Project/TechnoLime.sol\":1763:1782  products[ProductId] */\n      0x00\n        /* \"Project/TechnoLime.sol\":1772:1781  ProductId */\n      dup5\n        /* \"Project/TechnoLime.sol\":1763:1782  products[ProductId] */\n      dup2\n      mstore\n      0x20\n      add\n      swap1\n      dup2\n      mstore\n      0x20\n      add\n      0x00\n      keccak256\n        /* \"Project/TechnoLime.sol\":1763:1791  products[ProductId].quantity */\n      0x01\n      add\n      0x00\n        /* \"Project/TechnoLime.sol\":1763:1804  products[ProductId].quantity += _quantity */\n      dup3\n      dup3\n      sload\n      tag_66\n      swap2\n      swap1\n      tag_67\n      jump\t// in\n    tag_66:\n      swap3\n      pop\n      pop\n      dup2\n      swap1\n      sstore\n      pop\n        /* \"Project/TechnoLime.sol\":1717:1988  if (products[ProductId].exists){\r... */\n      jump(tag_68)\n    tag_65:\n        /* \"Project/TechnoLime.sol\":1949:1976  Errors.ProductNotExistent() */\n      mload(0x40)\n      0x7e8d96a900000000000000000000000000000000000000000000000000000000\n      dup2\n      mstore\n      0x04\n      add\n      mload(0x40)\n      dup1\n      swap2\n      sub\n      swap1\n      revert\n        /* \"Project/TechnoLime.sol\":1717:1988  if (products[ProductId].exists){\r... */\n    tag_68:\n        /* \"Project/TechnoLime.sol\":1643:1995  function updateQuantity(uint ProductId,uint _quantity) external{\r... */\n      pop\n      pop\n      jump\t// out\n        /* \"Project/TechnoLime.sol\":554:594  mapping(uint => Product) public products */\n    tag_37:\n      mstore(0x20, 0x01)\n      dup1\n      0x00\n      mstore\n      keccak256(0x00, 0x40)\n      0x00\n      swap2\n      pop\n      swap1\n      pop\n      dup1\n      0x00\n      add\n      sload\n      swap1\n      dup1\n      0x01\n      add\n      sload\n      swap1\n      dup1\n      0x02\n      add\n      dup1\n      sload\n      tag_69\n      swap1\n      tag_70\n      jump\t// in\n    tag_69:\n      dup1\n      0x1f\n      add\n      0x20\n      dup1\n      swap2\n      div\n      mul\n      0x20\n      add\n      mload(0x40)\n      swap1\n      dup2\n      add\n      0x40\n      mstore\n      dup1\n      swap3\n      swap2\n      swap1\n      dup2\n      dup2\n      mstore\n      0x20\n      add\n      dup3\n      dup1\n      sload\n      tag_71\n      swap1\n      tag_70\n      jump\t// in\n    tag_71:\n      dup1\n      iszero\n      tag_72\n      jumpi\n      dup1\n      0x1f\n      lt\n      tag_73\n      jumpi\n      0x0100\n      dup1\n      dup4\n      sload\n      div\n      mul\n      dup4\n      mstore\n      swap2\n      0x20\n      add\n      swap2\n      jump(tag_72)\n    tag_73:\n      dup3\n      add\n      swap2\n      swap1\n      0x00\n      mstore\n      keccak256(0x00, 0x20)\n      swap1\n    tag_74:\n      dup2\n      sload\n      dup2\n      mstore\n      swap1\n      0x01\n      add\n      swap1\n      0x20\n      add\n      dup1\n      dup4\n      gt\n      tag_74\n      jumpi\n      dup3\n      swap1\n      sub\n      0x1f\n      and\n      dup3\n      add\n      swap2\n    tag_72:\n      pop\n      pop\n      pop\n      pop\n      pop\n      swap1\n      dup1\n      0x03\n      add\n      0x00\n      swap1\n      sload\n      swap1\n      0x0100\n      exp\n      swap1\n      div\n      0xff\n      and\n      swap1\n      pop\n      dup5\n      jump\t// out\n        /* \"Project/TechnoLime.sol\":2097:3491  function buyProduct (uint ProductId)  external payable { \r... */\n    tag_42:\n        /* \"Project/TechnoLime.sol\":2289:2306  availableProducts */\n      0x00\n        /* \"Project/TechnoLime.sol\":2289:2313  availableProducts.length */\n      dup1\n      sload\n      swap1\n      pop\n        /* \"Project/TechnoLime.sol\":2277:2286  ProductId */\n      dup2\n        /* \"Project/TechnoLime.sol\":2277:2313  ProductId < availableProducts.length */\n      lt\n        /* \"Project/TechnoLime.sol\":2277:2360  ProductId < availableProducts.length && !transactions[ProductId][msg.sender].exists */\n      dup1\n      iszero\n      tag_76\n      jumpi\n      pop\n        /* \"Project/TechnoLime.sol\":2318:2330  transactions */\n      0x03\n        /* \"Project/TechnoLime.sol\":2318:2341  transactions[ProductId] */\n      0x00\n        /* \"Project/TechnoLime.sol\":2331:2340  ProductId */\n      dup3\n        /* \"Project/TechnoLime.sol\":2318:2341  transactions[ProductId] */\n      dup2\n      mstore\n      0x20\n      add\n      swap1\n      dup2\n      mstore\n      0x20\n      add\n      0x00\n      keccak256\n        /* \"Project/TechnoLime.sol\":2318:2353  transactions[ProductId][msg.sender] */\n      0x00\n        /* \"Project/TechnoLime.sol\":2342:2352  msg.sender */\n      caller\n        /* \"Project/TechnoLime.sol\":2318:2353  transactions[ProductId][msg.sender] */\n      0xffffffffffffffffffffffffffffffffffffffff\n      and\n      0xffffffffffffffffffffffffffffffffffffffff\n      and\n      dup2\n      mstore\n      0x20\n      add\n      swap1\n      dup2\n      mstore\n      0x20\n      add\n      0x00\n      keccak256\n        /* \"Project/TechnoLime.sol\":2318:2360  transactions[ProductId][msg.sender].exists */\n      0x02\n      add\n      0x00\n      swap1\n      sload\n      swap1\n      0x0100\n      exp\n      swap1\n      div\n      0xff\n      and\n        /* \"Project/TechnoLime.sol\":2317:2360  !transactions[ProductId][msg.sender].exists */\n      iszero\n        /* \"Project/TechnoLime.sol\":2277:2360  ProductId < availableProducts.length && !transactions[ProductId][msg.sender].exists */\n    tag_76:\n        /* \"Project/TechnoLime.sol\":2274:3463  if(ProductId < availableProducts.length && !transactions[ProductId][msg.sender].exists){\r... */\n      iszero\n      tag_77\n      jumpi\n        /* \"Project/TechnoLime.sol\":2522:2544  Product memory product */\n      0x00\n        /* \"Project/TechnoLime.sol\":2546:2554  products */\n      0x01\n        /* \"Project/TechnoLime.sol\":2546:2565  products[ProductId] */\n      0x00\n        /* \"Project/TechnoLime.sol\":2555:2564  ProductId */\n      dup4\n        /* \"Project/TechnoLime.sol\":2546:2565  products[ProductId] */\n      dup2\n      mstore\n      0x20\n      add\n      swap1\n      dup2\n      mstore\n      0x20\n      add\n      0x00\n      keccak256\n        /* \"Project/TechnoLime.sol\":2522:2565  Product memory product= products[ProductId] */\n      mload(0x40)\n      dup1\n      0x80\n      add\n      0x40\n      mstore\n      swap1\n      dup2\n      0x00\n      dup3\n      add\n      sload\n      dup2\n      mstore\n      0x20\n      add\n      0x01\n      dup3\n      add\n      sload\n      dup2\n      mstore\n      0x20\n      add\n      0x02\n      dup3\n      add\n      dup1\n      sload\n      tag_78\n      swap1\n      tag_70\n      jump\t// in\n    tag_78:\n      dup1\n      0x1f\n      add\n      0x20\n      dup1\n      swap2\n      div\n      mul\n      0x20\n      add\n      mload(0x40)\n      swap1\n      dup2\n      add\n      0x40\n      mstore\n      dup1\n      swap3\n      swap2\n      swap1\n      dup2\n      dup2\n      mstore\n      0x20\n      add\n      dup3\n      dup1\n      sload\n      tag_79\n      swap1\n      tag_70\n      jump\t// in\n    tag_79:\n      dup1\n      iszero\n      tag_80\n      jumpi\n      dup1\n      0x1f\n      lt\n      tag_81\n      jumpi\n      0x0100\n      dup1\n      dup4\n      sload\n      div\n      mul\n      dup4\n      mstore\n      swap2\n      0x20\n      add\n      swap2\n      jump(tag_80)\n    tag_81:\n      dup3\n      add\n      swap2\n      swap1\n      0x00\n      mstore\n      keccak256(0x00, 0x20)\n      swap1\n    tag_82:\n      dup2\n      sload\n      dup2\n      mstore\n      swap1\n      0x01\n      add\n      swap1\n      0x20\n      add\n      dup1\n      dup4\n      gt\n      tag_82\n      jumpi\n      dup3\n      swap1\n      sub\n      0x1f\n      and\n      dup3\n      add\n      swap2\n    tag_80:\n      pop\n      pop\n      pop\n      pop\n      pop\n      dup2\n      mstore\n      0x20\n      add\n      0x03\n      dup3\n      add\n      0x00\n      swap1\n      sload\n      swap1\n      0x0100\n      exp\n      swap1\n      div\n      0xff\n      and\n      iszero\n      iszero\n      iszero\n      iszero\n      dup2\n      mstore\n      pop\n      pop\n      swap1\n      pop\n        /* \"Project/TechnoLime.sol\":2599:2606  product */\n      dup1\n        /* \"Project/TechnoLime.sol\":2599:2612  product.price */\n      0x00\n      add\n      mload\n        /* \"Project/TechnoLime.sol\":2587:2596  msg.value */\n      callvalue\n        /* \"Project/TechnoLime.sol\":2587:2612  msg.value < product.price */\n      lt\n        /* \"Project/TechnoLime.sol\":2587:2636  msg.value < product.price || product.quantity < 1 */\n      dup1\n      tag_83\n      jumpi\n      pop\n        /* \"Project/TechnoLime.sol\":2635:2636  1 */\n      0x01\n        /* \"Project/TechnoLime.sol\":2616:2623  product */\n      dup2\n        /* \"Project/TechnoLime.sol\":2616:2632  product.quantity */\n      0x20\n      add\n      mload\n        /* \"Project/TechnoLime.sol\":2616:2636  product.quantity < 1 */\n      lt\n        /* \"Project/TechnoLime.sol\":2587:2636  msg.value < product.price || product.quantity < 1 */\n    tag_83:\n        /* \"Project/TechnoLime.sol\":2584:2772  if(msg.value < product.price || product.quantity < 1)\r... */\n      iszero\n      tag_84\n      jumpi\n        /* \"Project/TechnoLime.sol\":2738:2772  Errors.LessThanPriceOrOutOfStock() */\n      mload(0x40)\n      0xf80236cc00000000000000000000000000000000000000000000000000000000\n      dup2\n      mstore\n      0x04\n      add\n      mload(0x40)\n      dup1\n      swap2\n      sub\n      swap1\n      revert\n        /* \"Project/TechnoLime.sol\":2584:2772  if(msg.value < product.price || product.quantity < 1)\r... */\n    tag_84:\n        /* \"Project/TechnoLime.sol\":2793:2826  Transaction memory newTransaction */\n      tag_85\n      tag_86\n      jump\t// in\n    tag_85:\n        /* \"Project/TechnoLime.sol\":2871:2883  block.number */\n      number\n        /* \"Project/TechnoLime.sol\":2845:2859  newTransaction */\n      dup2\n        /* \"Project/TechnoLime.sol\":2845:2868  newTransaction.blockNum */\n      0x00\n      add\n        /* \"Project/TechnoLime.sol\":2845:2883  newTransaction.blockNum = block.number */\n      dup2\n      dup2\n      mstore\n      pop\n      pop\n        /* \"Project/TechnoLime.sol\":2925:2932  product */\n      dup2\n        /* \"Project/TechnoLime.sol\":2925:2938  product.price */\n      0x00\n      add\n      mload\n        /* \"Project/TechnoLime.sol\":2902:2916  newTransaction */\n      dup2\n        /* \"Project/TechnoLime.sol\":2902:2922  newTransaction.price */\n      0x20\n      add\n        /* \"Project/TechnoLime.sol\":2902:2938  newTransaction.price = product.price */\n      dup2\n      dup2\n      mstore\n      pop\n      pop\n        /* \"Project/TechnoLime.sol\":2981:2985  true */\n      0x01\n        /* \"Project/TechnoLime.sol\":2957:2971  newTransaction */\n      dup2\n        /* \"Project/TechnoLime.sol\":2957:2978  newTransaction.exists */\n      0x40\n      add\n        /* \"Project/TechnoLime.sol\":2957:2985  newTransaction.exists = true */\n      swap1\n      iszero\n      iszero\n      swap1\n      dup2\n      iszero\n      iszero\n      dup2\n      mstore\n      pop\n      pop\n        /* \"Project/TechnoLime.sol\":3078:3092  newTransaction */\n      dup1\n        /* \"Project/TechnoLime.sol\":3040:3052  transactions */\n      0x03\n        /* \"Project/TechnoLime.sol\":3040:3063  transactions[ProductId] */\n      0x00\n        /* \"Project/TechnoLime.sol\":3053:3062  ProductId */\n      dup6\n        /* \"Project/TechnoLime.sol\":3040:3063  transactions[ProductId] */\n      dup2\n      mstore\n      0x20\n      add\n      swap1\n      dup2\n      mstore\n      0x20\n      add\n      0x00\n      keccak256\n        /* \"Project/TechnoLime.sol\":3040:3075  transactions[ProductId][msg.sender] */\n      0x00\n        /* \"Project/TechnoLime.sol\":3064:3074  msg.sender */\n      caller\n        /* \"Project/TechnoLime.sol\":3040:3075  transactions[ProductId][msg.sender] */\n      0xffffffffffffffffffffffffffffffffffffffff\n      and\n      0xffffffffffffffffffffffffffffffffffffffff\n      and\n      dup2\n      mstore\n      0x20\n      add\n      swap1\n      dup2\n      mstore\n      0x20\n      add\n      0x00\n      keccak256\n        /* \"Project/TechnoLime.sol\":3040:3092  transactions[ProductId][msg.sender] = newTransaction */\n      0x00\n      dup3\n      add\n      mload\n      dup2\n      0x00\n      add\n      sstore\n      0x20\n      dup3\n      add\n      mload\n      dup2\n      0x01\n      add\n      sstore\n      0x40\n      dup3\n      add\n      mload\n      dup2\n      0x02\n      add\n      exp(0x0100, 0x00)\n      dup2\n      sload\n      dup2\n      0xff\n      mul\n      not\n      and\n      swap1\n      dup4\n      iszero\n      iszero\n      mul\n      or\n      swap1\n      sstore\n      pop\n      swap1\n      pop\n      pop\n        /* \"Project/TechnoLime.sol\":3113:3120  product */\n      dup2\n        /* \"Project/TechnoLime.sol\":3113:3129  product.quantity */\n      0x20\n      add\n        /* \"Project/TechnoLime.sol\":3113:3131  product.quantity-- */\n      dup1\n      mload\n      dup1\n      swap2\n      swap1\n      tag_87\n      swap1\n      tag_88\n      jump\t// in\n    tag_87:\n      dup2\n      mstore\n      pop\n      pop\n        /* \"Project/TechnoLime.sol\":3206:3213  product */\n      dup2\n        /* \"Project/TechnoLime.sol\":3186:3194  products */\n      0x01\n        /* \"Project/TechnoLime.sol\":3186:3205  products[ProductId] */\n      0x00\n        /* \"Project/TechnoLime.sol\":3195:3204  ProductId */\n      dup6\n        /* \"Project/TechnoLime.sol\":3186:3205  products[ProductId] */\n      dup2\n      mstore\n      0x20\n      add\n      swap1\n      dup2\n      mstore\n      0x20\n      add\n      0x00\n      keccak256\n        /* \"Project/TechnoLime.sol\":3186:3213  products[ProductId]=product */\n      0x00\n      dup3\n      add\n      mload\n      dup2\n      0x00\n      add\n      sstore\n      0x20\n      dup3\n      add\n      mload\n      dup2\n      0x01\n      add\n      sstore\n      0x40\n      dup3\n      add\n      mload\n      dup2\n      0x02\n      add\n      swap1\n      dup1\n      mload\n      swap1\n      0x20\n      add\n      swap1\n      tag_89\n      swap3\n      swap2\n      swap1\n      tag_56\n      jump\t// in\n    tag_89:\n      pop\n      0x60\n      dup3\n      add\n      mload\n      dup2\n      0x03\n      add\n      exp(0x0100, 0x00)\n      dup2\n      sload\n      dup2\n      0xff\n      mul\n      not\n      and\n      swap1\n      dup4\n      iszero\n      iszero\n      mul\n      or\n      swap1\n      sstore\n      pop\n      swap1\n      pop\n      pop\n        /* \"Project/TechnoLime.sol\":3262:3268  buyers */\n      0x04\n        /* \"Project/TechnoLime.sol\":3262:3279  buyers[ProductId] */\n      0x00\n        /* \"Project/TechnoLime.sol\":3269:3278  ProductId */\n      dup5\n        /* \"Project/TechnoLime.sol\":3262:3279  buyers[ProductId] */\n      dup2\n      mstore\n      0x20\n      add\n      swap1\n      dup2\n      mstore\n      0x20\n      add\n      0x00\n      keccak256\n        /* \"Project/TechnoLime.sol\":3285:3295  msg.sender */\n      caller\n        /* \"Project/TechnoLime.sol\":3262:3296  buyers[ProductId].push(msg.sender) */\n      swap1\n      dup1\n      0x01\n      dup2\n      sload\n      add\n      dup1\n      dup3\n      sstore\n      dup1\n      swap2\n      pop\n      pop\n      0x01\n      swap1\n      sub\n      swap1\n      0x00\n      mstore\n      keccak256(0x00, 0x20)\n      add\n      0x00\n      swap1\n      swap2\n      swap1\n      swap2\n      swap1\n      swap2\n      0x0100\n      exp\n      dup2\n      sload\n      dup2\n      0xffffffffffffffffffffffffffffffffffffffff\n      mul\n      not\n      and\n      swap1\n      dup4\n      0xffffffffffffffffffffffffffffffffffffffff\n      and\n      mul\n      or\n      swap1\n      sstore\n      pop\n        /* \"Project/TechnoLime.sol\":2361:3314  {\r... */\n      pop\n      pop\n        /* \"Project/TechnoLime.sol\":2274:3463  if(ProductId < availableProducts.length && !transactions[ProductId][msg.sender].exists){\r... */\n      jump(tag_91)\n    tag_77:\n        /* \"Project/TechnoLime.sol\":3412:3447  Errors.ItemIdWrongOrBoughtAlready() */\n      mload(0x40)\n      0xd42c9b8b00000000000000000000000000000000000000000000000000000000\n      dup2\n      mstore\n      0x04\n      add\n      mload(0x40)\n      dup1\n      swap2\n      sub\n      swap1\n      revert\n        /* \"Project/TechnoLime.sol\":2274:3463  if(ProductId < availableProducts.length && !transactions[ProductId][msg.sender].exists){\r... */\n    tag_91:\n        /* \"Project/TechnoLime.sol\":2097:3491  function buyProduct (uint ProductId)  external payable { \r... */\n      pop\n      jump\t// out\n        /* \"Project/TechnoLime.sol\":514:547  string[] public availableProducts */\n    tag_46:\n      0x00\n      dup2\n      dup2\n      sload\n      dup2\n      lt\n      tag_92\n      jumpi\n      0x00\n      dup1\n      revert\n    tag_92:\n      swap1\n      0x00\n      mstore\n      keccak256(0x00, 0x20)\n      add\n      0x00\n      swap2\n      pop\n      swap1\n      pop\n      dup1\n      sload\n      tag_94\n      swap1\n      tag_70\n      jump\t// in\n    tag_94:\n      dup1\n      0x1f\n      add\n      0x20\n      dup1\n      swap2\n      div\n      mul\n      0x20\n      add\n      mload(0x40)\n      swap1\n      dup2\n      add\n      0x40\n      mstore\n      dup1\n      swap3\n      swap2\n      swap1\n      dup2\n      dup2\n      mstore\n      0x20\n      add\n      dup3\n      dup1\n      sload\n      tag_95\n      swap1\n      tag_70\n      jump\t// in\n    tag_95:\n      dup1\n      iszero\n      tag_96\n      jumpi\n      dup1\n      0x1f\n      lt\n      tag_97\n      jumpi\n      0x0100\n      dup1\n      dup4\n      sload\n      div\n      mul\n      dup4\n      mstore\n      swap2\n      0x20\n      add\n      swap2\n      jump(tag_96)\n    tag_97:\n      dup3\n      add\n      swap2\n      swap1\n      0x00\n      mstore\n      keccak256(0x00, 0x20)\n      swap1\n    tag_98:\n      dup2\n      sload\n      dup2\n      mstore\n      swap1\n      0x01\n      add\n      swap1\n      0x20\n      add\n      dup1\n      dup4\n      gt\n      tag_98\n      jumpi\n      dup3\n      swap1\n      sub\n      0x1f\n      and\n      dup3\n      add\n      swap2\n    tag_96:\n      pop\n      pop\n      pop\n      pop\n      pop\n      dup2\n      jump\t// out\n    tag_54:\n      mload(0x40)\n      dup1\n      0x80\n      add\n      0x40\n      mstore\n      dup1\n      0x00\n      dup2\n      mstore\n      0x20\n      add\n      0x00\n      dup2\n      mstore\n      0x20\n      add\n      0x60\n      dup2\n      mstore\n      0x20\n      add\n      iszero(iszero(0x00))\n      dup2\n      mstore\n      pop\n      swap1\n      jump\t// out\n    tag_56:\n      dup3\n      dup1\n      sload\n      tag_99\n      swap1\n      tag_70\n      jump\t// in\n    tag_99:\n      swap1\n      0x00\n      mstore\n      keccak256(0x00, 0x20)\n      swap1\n      0x1f\n      add\n      0x20\n      swap1\n      div\n      dup2\n      add\n      swap3\n      dup3\n      tag_101\n      jumpi\n      0x00\n      dup6\n      sstore\n      jump(tag_100)\n    tag_101:\n      dup3\n      0x1f\n      lt\n      tag_102\n      jumpi\n      dup1\n      mload\n      not(0xff)\n      and\n      dup4\n      dup1\n      add\n      or\n      dup6\n      sstore\n      jump(tag_100)\n    tag_102:\n      dup3\n      dup1\n      add\n      0x01\n      add\n      dup6\n      sstore\n      dup3\n      iszero\n      tag_100\n      jumpi\n      swap2\n      dup3\n      add\n    tag_103:\n      dup3\n      dup2\n      gt\n      iszero\n      tag_104\n      jumpi\n      dup3\n      mload\n      dup3\n      sstore\n      swap2\n      0x20\n      add\n      swap2\n      swap1\n      0x01\n      add\n      swap1\n      jump(tag_103)\n    tag_104:\n    tag_100:\n      pop\n      swap1\n      pop\n      tag_105\n      swap2\n      swap1\n      tag_106\n      jump\t// in\n    tag_105:\n      pop\n      swap1\n      jump\t// out\n    tag_60:\n      dup3\n      dup1\n      sload\n      tag_107\n      swap1\n      tag_70\n      jump\t// in\n    tag_107:\n      swap1\n      0x00\n      mstore\n      keccak256(0x00, 0x20)\n      swap1\n      0x1f\n      add\n      0x20\n      swap1\n      div\n      dup2\n      add\n      swap3\n      dup3\n      tag_109\n      jumpi\n      0x00\n      dup6\n      sstore\n      jump(tag_108)\n    tag_109:\n      dup3\n      0x1f\n      lt\n      tag_110\n      jumpi\n      dup1\n      calldataload\n      not(0xff)\n      and\n      dup4\n      dup1\n      add\n      or\n      dup6\n      sstore\n      jump(tag_108)\n    tag_110:\n      dup3\n      dup1\n      add\n      0x01\n      add\n      dup6\n      sstore\n      dup3\n      iszero\n      tag_108\n      jumpi\n      swap2\n      dup3\n      add\n    tag_111:\n      dup3\n      dup2\n      gt\n      iszero\n      tag_112\n      jumpi\n      dup3\n      calldataload\n      dup3\n      sstore\n      swap2\n      0x20\n      add\n      swap2\n      swap1\n      0x01\n      add\n      swap1\n      jump(tag_111)\n    tag_112:\n    tag_108:\n      pop\n      swap1\n      pop\n      tag_113\n      swap2\n      swap1\n      tag_106\n      jump\t// in\n    tag_113:\n      pop\n      swap1\n      jump\t// out\n    tag_86:\n      mload(0x40)\n      dup1\n      0x60\n      add\n      0x40\n      mstore\n      dup1\n      0x00\n      dup2\n      mstore\n      0x20\n      add\n      0x00\n      dup2\n      mstore\n      0x20\n      add\n      iszero(iszero(0x00))\n      dup2\n      mstore\n      pop\n      swap1\n      jump\t// out\n    tag_106:\n    tag_114:\n      dup1\n      dup3\n      gt\n      iszero\n      tag_115\n      jumpi\n      0x00\n      dup2\n      0x00\n      swap1\n      sstore\n      pop\n      0x01\n      add\n      jump(tag_114)\n    tag_115:\n      pop\n      swap1\n      jump\t// out\n        /* \"#utility.yul\":7:146   */\n    tag_117:\n        /* \"#utility.yul\":53:58   */\n      0x00\n        /* \"#utility.yul\":91:97   */\n      dup2\n        /* \"#utility.yul\":78:98   */\n      calldataload\n        /* \"#utility.yul\":69:98   */\n      swap1\n      pop\n        /* \"#utility.yul\":107:140   */\n      tag_119\n        /* \"#utility.yul\":134:139   */\n      dup2\n        /* \"#utility.yul\":107:140   */\n      tag_120\n      jump\t// in\n    tag_119:\n        /* \"#utility.yul\":7:146   */\n      swap3\n      swap2\n      pop\n      pop\n      jump\t// out\n        /* \"#utility.yul\":166:719   */\n    tag_121:\n        /* \"#utility.yul\":224:232   */\n      0x00\n        /* \"#utility.yul\":234:240   */\n      dup1\n        /* \"#utility.yul\":284:287   */\n      dup4\n        /* \"#utility.yul\":277:281   */\n      0x1f\n        /* \"#utility.yul\":269:275   */\n      dup5\n        /* \"#utility.yul\":265:282   */\n      add\n        /* \"#utility.yul\":261:288   */\n      slt\n        /* \"#utility.yul\":251:373   */\n      tag_123\n      jumpi\n        /* \"#utility.yul\":292:371   */\n      tag_124\n      tag_125\n      jump\t// in\n    tag_124:\n        /* \"#utility.yul\":251:373   */\n    tag_123:\n        /* \"#utility.yul\":405:411   */\n      dup3\n        /* \"#utility.yul\":392:412   */\n      calldataload\n        /* \"#utility.yul\":382:412   */\n      swap1\n      pop\n        /* \"#utility.yul\":435:453   */\n      0xffffffffffffffff\n        /* \"#utility.yul\":427:433   */\n      dup2\n        /* \"#utility.yul\":424:454   */\n      gt\n        /* \"#utility.yul\":421:538   */\n      iszero\n      tag_126\n      jumpi\n        /* \"#utility.yul\":457:536   */\n      tag_127\n      tag_128\n      jump\t// in\n    tag_127:\n        /* \"#utility.yul\":421:538   */\n    tag_126:\n        /* \"#utility.yul\":571:575   */\n      0x20\n        /* \"#utility.yul\":563:569   */\n      dup4\n        /* \"#utility.yul\":559:576   */\n      add\n        /* \"#utility.yul\":547:576   */\n      swap2\n      pop\n        /* \"#utility.yul\":625:628   */\n      dup4\n        /* \"#utility.yul\":617:621   */\n      0x01\n        /* \"#utility.yul\":609:615   */\n      dup3\n        /* \"#utility.yul\":605:622   */\n      mul\n        /* \"#utility.yul\":595:603   */\n      dup4\n        /* \"#utility.yul\":591:623   */\n      add\n        /* \"#utility.yul\":588:629   */\n      gt\n        /* \"#utility.yul\":585:713   */\n      iszero\n      tag_129\n      jumpi\n        /* \"#utility.yul\":632:711   */\n      tag_130\n      tag_131\n      jump\t// in\n    tag_130:\n        /* \"#utility.yul\":585:713   */\n    tag_129:\n        /* \"#utility.yul\":166:719   */\n      swap3\n      pop\n      swap3\n      swap1\n      pop\n      jump\t// out\n        /* \"#utility.yul\":725:864   */\n    tag_132:\n        /* \"#utility.yul\":771:776   */\n      0x00\n        /* \"#utility.yul\":809:815   */\n      dup2\n        /* \"#utility.yul\":796:816   */\n      calldataload\n        /* \"#utility.yul\":787:816   */\n      swap1\n      pop\n        /* \"#utility.yul\":825:858   */\n      tag_134\n        /* \"#utility.yul\":852:857   */\n      dup2\n        /* \"#utility.yul\":825:858   */\n      tag_135\n      jump\t// in\n    tag_134:\n        /* \"#utility.yul\":725:864   */\n      swap3\n      swap2\n      pop\n      pop\n      jump\t// out\n        /* \"#utility.yul\":870:1689   */\n    tag_13:\n        /* \"#utility.yul\":959:965   */\n      0x00\n        /* \"#utility.yul\":967:973   */\n      dup1\n        /* \"#utility.yul\":975:981   */\n      0x00\n        /* \"#utility.yul\":983:989   */\n      dup1\n        /* \"#utility.yul\":1032:1034   */\n      0x60\n        /* \"#utility.yul\":1020:1029   */\n      dup6\n        /* \"#utility.yul\":1011:1018   */\n      dup8\n        /* \"#utility.yul\":1007:1030   */\n      sub\n        /* \"#utility.yul\":1003:1035   */\n      slt\n        /* \"#utility.yul\":1000:1119   */\n      iszero\n      tag_137\n      jumpi\n        /* \"#utility.yul\":1038:1117   */\n      tag_138\n      tag_139\n      jump\t// in\n    tag_138:\n        /* \"#utility.yul\":1000:1119   */\n    tag_137:\n        /* \"#utility.yul\":1186:1187   */\n      0x00\n        /* \"#utility.yul\":1175:1184   */\n      dup6\n        /* \"#utility.yul\":1171:1188   */\n      add\n        /* \"#utility.yul\":1158:1189   */\n      calldataload\n        /* \"#utility.yul\":1216:1234   */\n      0xffffffffffffffff\n        /* \"#utility.yul\":1208:1214   */\n      dup2\n        /* \"#utility.yul\":1205:1235   */\n      gt\n        /* \"#utility.yul\":1202:1319   */\n      iszero\n      tag_140\n      jumpi\n        /* \"#utility.yul\":1238:1317   */\n      tag_141\n      tag_142\n      jump\t// in\n    tag_141:\n        /* \"#utility.yul\":1202:1319   */\n    tag_140:\n        /* \"#utility.yul\":1351:1416   */\n      tag_143\n        /* \"#utility.yul\":1408:1415   */\n      dup8\n        /* \"#utility.yul\":1399:1405   */\n      dup3\n        /* \"#utility.yul\":1388:1397   */\n      dup9\n        /* \"#utility.yul\":1384:1406   */\n      add\n        /* \"#utility.yul\":1351:1416   */\n      tag_121\n      jump\t// in\n    tag_143:\n        /* \"#utility.yul\":1333:1416   */\n      swap5\n      pop\n      swap5\n      pop\n        /* \"#utility.yul\":1129:1426   */\n      pop\n        /* \"#utility.yul\":1465:1467   */\n      0x20\n        /* \"#utility.yul\":1491:1544   */\n      tag_144\n        /* \"#utility.yul\":1536:1543   */\n      dup8\n        /* \"#utility.yul\":1527:1533   */\n      dup3\n        /* \"#utility.yul\":1516:1525   */\n      dup9\n        /* \"#utility.yul\":1512:1534   */\n      add\n        /* \"#utility.yul\":1491:1544   */\n      tag_132\n      jump\t// in\n    tag_144:\n        /* \"#utility.yul\":1481:1544   */\n      swap3\n      pop\n        /* \"#utility.yul\":1436:1554   */\n      pop\n        /* \"#utility.yul\":1593:1595   */\n      0x40\n        /* \"#utility.yul\":1619:1672   */\n      tag_145\n        /* \"#utility.yul\":1664:1671   */\n      dup8\n        /* \"#utility.yul\":1655:1661   */\n      dup3\n        /* \"#utility.yul\":1644:1653   */\n      dup9\n        /* \"#utility.yul\":1640:1662   */\n      add\n        /* \"#utility.yul\":1619:1672   */\n      tag_132\n      jump\t// in\n    tag_145:\n        /* \"#utility.yul\":1609:1672   */\n      swap2\n      pop\n        /* \"#utility.yul\":1564:1682   */\n      pop\n        /* \"#utility.yul\":870:1689   */\n      swap3\n      swap6\n      swap2\n      swap5\n      pop\n      swap3\n      pop\n      jump\t// out\n        /* \"#utility.yul\":1695:2024   */\n    tag_36:\n        /* \"#utility.yul\":1754:1760   */\n      0x00\n        /* \"#utility.yul\":1803:1805   */\n      0x20\n        /* \"#utility.yul\":1791:1800   */\n      dup3\n        /* \"#utility.yul\":1782:1789   */\n      dup5\n        /* \"#utility.yul\":1778:1801   */\n      sub\n        /* \"#utility.yul\":1774:1806   */\n      slt\n        /* \"#utility.yul\":1771:1890   */\n      iszero\n      tag_147\n      jumpi\n        /* \"#utility.yul\":1809:1888   */\n      tag_148\n      tag_139\n      jump\t// in\n    tag_148:\n        /* \"#utility.yul\":1771:1890   */\n    tag_147:\n        /* \"#utility.yul\":1929:1930   */\n      0x00\n        /* \"#utility.yul\":1954:2007   */\n      tag_149\n        /* \"#utility.yul\":1999:2006   */\n      dup5\n        /* \"#utility.yul\":1990:1996   */\n      dup3\n        /* \"#utility.yul\":1979:1988   */\n      dup6\n        /* \"#utility.yul\":1975:1997   */\n      add\n        /* \"#utility.yul\":1954:2007   */\n      tag_132\n      jump\t// in\n    tag_149:\n        /* \"#utility.yul\":1944:2007   */\n      swap2\n      pop\n        /* \"#utility.yul\":1900:2017   */\n      pop\n        /* \"#utility.yul\":1695:2024   */\n      swap3\n      swap2\n      pop\n      pop\n      jump\t// out\n        /* \"#utility.yul\":2030:2504   */\n    tag_25:\n        /* \"#utility.yul\":2098:2104   */\n      0x00\n        /* \"#utility.yul\":2106:2112   */\n      dup1\n        /* \"#utility.yul\":2155:2157   */\n      0x40\n        /* \"#utility.yul\":2143:2152   */\n      dup4\n        /* \"#utility.yul\":2134:2141   */\n      dup6\n        /* \"#utility.yul\":2130:2153   */\n      sub\n        /* \"#utility.yul\":2126:2158   */\n      slt\n        /* \"#utility.yul\":2123:2242   */\n      iszero\n      tag_151\n      jumpi\n        /* \"#utility.yul\":2161:2240   */\n      tag_152\n      tag_139\n      jump\t// in\n    tag_152:\n        /* \"#utility.yul\":2123:2242   */\n    tag_151:\n        /* \"#utility.yul\":2281:2282   */\n      0x00\n        /* \"#utility.yul\":2306:2359   */\n      tag_153\n        /* \"#utility.yul\":2351:2358   */\n      dup6\n        /* \"#utility.yul\":2342:2348   */\n      dup3\n        /* \"#utility.yul\":2331:2340   */\n      dup7\n        /* \"#utility.yul\":2327:2349   */\n      add\n        /* \"#utility.yul\":2306:2359   */\n      tag_132\n      jump\t// in\n    tag_153:\n        /* \"#utility.yul\":2296:2359   */\n      swap3\n      pop\n        /* \"#utility.yul\":2252:2369   */\n      pop\n        /* \"#utility.yul\":2408:2410   */\n      0x20\n        /* \"#utility.yul\":2434:2487   */\n      tag_154\n        /* \"#utility.yul\":2479:2486   */\n      dup6\n        /* \"#utility.yul\":2470:2476   */\n      dup3\n        /* \"#utility.yul\":2459:2468   */\n      dup7\n        /* \"#utility.yul\":2455:2477   */\n      add\n        /* \"#utility.yul\":2434:2487   */\n      tag_117\n      jump\t// in\n    tag_154:\n        /* \"#utility.yul\":2424:2487   */\n      swap2\n      pop\n        /* \"#utility.yul\":2379:2497   */\n      pop\n        /* \"#utility.yul\":2030:2504   */\n      swap3\n      pop\n      swap3\n      swap1\n      pop\n      jump\t// out\n        /* \"#utility.yul\":2510:2984   */\n    tag_18:\n        /* \"#utility.yul\":2578:2584   */\n      0x00\n        /* \"#utility.yul\":2586:2592   */\n      dup1\n        /* \"#utility.yul\":2635:2637   */\n      0x40\n        /* \"#utility.yul\":2623:2632   */\n      dup4\n        /* \"#utility.yul\":2614:2621   */\n      dup6\n        /* \"#utility.yul\":2610:2633   */\n      sub\n        /* \"#utility.yul\":2606:2638   */\n      slt\n        /* \"#utility.yul\":2603:2722   */\n      iszero\n      tag_156\n      jumpi\n        /* \"#utility.yul\":2641:2720   */\n      tag_157\n      tag_139\n      jump\t// in\n    tag_157:\n        /* \"#utility.yul\":2603:2722   */\n    tag_156:\n        /* \"#utility.yul\":2761:2762   */\n      0x00\n        /* \"#utility.yul\":2786:2839   */\n      tag_158\n        /* \"#utility.yul\":2831:2838   */\n      dup6\n        /* \"#utility.yul\":2822:2828   */\n      dup3\n        /* \"#utility.yul\":2811:2820   */\n      dup7\n        /* \"#utility.yul\":2807:2829   */\n      add\n        /* \"#utility.yul\":2786:2839   */\n      tag_132\n      jump\t// in\n    tag_158:\n        /* \"#utility.yul\":2776:2839   */\n      swap3\n      pop\n        /* \"#utility.yul\":2732:2849   */\n      pop\n        /* \"#utility.yul\":2888:2890   */\n      0x20\n        /* \"#utility.yul\":2914:2967   */\n      tag_159\n        /* \"#utility.yul\":2959:2966   */\n      dup6\n        /* \"#utility.yul\":2950:2956   */\n      dup3\n        /* \"#utility.yul\":2939:2948   */\n      dup7\n        /* \"#utility.yul\":2935:2957   */\n      add\n        /* \"#utility.yul\":2914:2967   */\n      tag_132\n      jump\t// in\n    tag_159:\n        /* \"#utility.yul\":2904:2967   */\n      swap2\n      pop\n        /* \"#utility.yul\":2859:2977   */\n      pop\n        /* \"#utility.yul\":2510:2984   */\n      swap3\n      pop\n      swap3\n      swap1\n      pop\n      jump\t// out\n        /* \"#utility.yul\":2990:3108   */\n    tag_160:\n        /* \"#utility.yul\":3077:3101   */\n      tag_162\n        /* \"#utility.yul\":3095:3100   */\n      dup2\n        /* \"#utility.yul\":3077:3101   */\n      tag_163\n      jump\t// in\n    tag_162:\n        /* \"#utility.yul\":3072:3075   */\n      dup3\n        /* \"#utility.yul\":3065:3102   */\n      mstore\n        /* \"#utility.yul\":2990:3108   */\n      pop\n      pop\n      jump\t// out\n        /* \"#utility.yul\":3114:3223   */\n    tag_164:\n        /* \"#utility.yul\":3195:3216   */\n      tag_166\n        /* \"#utility.yul\":3210:3215   */\n      dup2\n        /* \"#utility.yul\":3195:3216   */\n      tag_167\n      jump\t// in\n    tag_166:\n        /* \"#utility.yul\":3190:3193   */\n      dup3\n        /* \"#utility.yul\":3183:3217   */\n      mstore\n        /* \"#utility.yul\":3114:3223   */\n      pop\n      pop\n      jump\t// out\n        /* \"#utility.yul\":3253:3570   */\n    tag_168:\n        /* \"#utility.yul\":3369:3372   */\n      0x00\n        /* \"#utility.yul\":3390:3479   */\n      tag_170\n        /* \"#utility.yul\":3472:3478   */\n      dup4\n        /* \"#utility.yul\":3467:3470   */\n      dup6\n        /* \"#utility.yul\":3390:3479   */\n      tag_171\n      jump\t// in\n    tag_170:\n        /* \"#utility.yul\":3383:3479   */\n      swap4\n      pop\n        /* \"#utility.yul\":3489:3532   */\n      tag_172\n        /* \"#utility.yul\":3525:3531   */\n      dup4\n        /* \"#utility.yul\":3520:3523   */\n      dup6\n        /* \"#utility.yul\":3513:3518   */\n      dup5\n        /* \"#utility.yul\":3489:3532   */\n      tag_173\n      jump\t// in\n    tag_172:\n        /* \"#utility.yul\":3557:3563   */\n      dup3\n        /* \"#utility.yul\":3552:3555   */\n      dup5\n        /* \"#utility.yul\":3548:3564   */\n      add\n        /* \"#utility.yul\":3541:3564   */\n      swap1\n      pop\n        /* \"#utility.yul\":3253:3570   */\n      swap4\n      swap3\n      pop\n      pop\n      pop\n      jump\t// out\n        /* \"#utility.yul\":3576:3940   */\n    tag_174:\n        /* \"#utility.yul\":3664:3667   */\n      0x00\n        /* \"#utility.yul\":3692:3731   */\n      tag_176\n        /* \"#utility.yul\":3725:3730   */\n      dup3\n        /* \"#utility.yul\":3692:3731   */\n      tag_177\n      jump\t// in\n    tag_176:\n        /* \"#utility.yul\":3747:3818   */\n      tag_178\n        /* \"#utility.yul\":3811:3817   */\n      dup2\n        /* \"#utility.yul\":3806:3809   */\n      dup6\n        /* \"#utility.yul\":3747:3818   */\n      tag_179\n      jump\t// in\n    tag_178:\n        /* \"#utility.yul\":3740:3818   */\n      swap4\n      pop\n        /* \"#utility.yul\":3827:3879   */\n      tag_180\n        /* \"#utility.yul\":3872:3878   */\n      dup2\n        /* \"#utility.yul\":3867:3870   */\n      dup6\n        /* \"#utility.yul\":3860:3864   */\n      0x20\n        /* \"#utility.yul\":3853:3858   */\n      dup7\n        /* \"#utility.yul\":3849:3865   */\n      add\n        /* \"#utility.yul\":3827:3879   */\n      tag_181\n      jump\t// in\n    tag_180:\n        /* \"#utility.yul\":3904:3933   */\n      tag_182\n        /* \"#utility.yul\":3926:3932   */\n      dup2\n        /* \"#utility.yul\":3904:3933   */\n      tag_183\n      jump\t// in\n    tag_182:\n        /* \"#utility.yul\":3899:3902   */\n      dup5\n        /* \"#utility.yul\":3895:3934   */\n      add\n        /* \"#utility.yul\":3888:3934   */\n      swap2\n      pop\n        /* \"#utility.yul\":3668:3940   */\n      pop\n        /* \"#utility.yul\":3576:3940   */\n      swap3\n      swap2\n      pop\n      pop\n      jump\t// out\n        /* \"#utility.yul\":3946:4064   */\n    tag_184:\n        /* \"#utility.yul\":4033:4057   */\n      tag_186\n        /* \"#utility.yul\":4051:4056   */\n      dup2\n        /* \"#utility.yul\":4033:4057   */\n      tag_187\n      jump\t// in\n    tag_186:\n        /* \"#utility.yul\":4028:4031   */\n      dup3\n        /* \"#utility.yul\":4021:4058   */\n      mstore\n        /* \"#utility.yul\":3946:4064   */\n      pop\n      pop\n      jump\t// out\n        /* \"#utility.yul\":4070:4365   */\n    tag_51:\n        /* \"#utility.yul\":4212:4215   */\n      0x00\n        /* \"#utility.yul\":4234:4339   */\n      tag_189\n        /* \"#utility.yul\":4335:4338   */\n      dup3\n        /* \"#utility.yul\":4326:4332   */\n      dup5\n        /* \"#utility.yul\":4318:4324   */\n      dup7\n        /* \"#utility.yul\":4234:4339   */\n      tag_168\n      jump\t// in\n    tag_189:\n        /* \"#utility.yul\":4227:4339   */\n      swap2\n      pop\n        /* \"#utility.yul\":4356:4359   */\n      dup2\n        /* \"#utility.yul\":4349:4359   */\n      swap1\n      pop\n        /* \"#utility.yul\":4070:4365   */\n      swap4\n      swap3\n      pop\n      pop\n      pop\n      jump\t// out\n        /* \"#utility.yul\":4371:4593   */\n    tag_21:\n        /* \"#utility.yul\":4464:4468   */\n      0x00\n        /* \"#utility.yul\":4502:4504   */\n      0x20\n        /* \"#utility.yul\":4491:4500   */\n      dup3\n        /* \"#utility.yul\":4487:4505   */\n      add\n        /* \"#utility.yul\":4479:4505   */\n      swap1\n      pop\n        /* \"#utility.yul\":4515:4586   */\n      tag_191\n        /* \"#utility.yul\":4583:4584   */\n      0x00\n        /* \"#utility.yul\":4572:4581   */\n      dup4\n        /* \"#utility.yul\":4568:4585   */\n      add\n        /* \"#utility.yul\":4559:4565   */\n      dup5\n        /* \"#utility.yul\":4515:4586   */\n      tag_160\n      jump\t// in\n    tag_191:\n        /* \"#utility.yul\":4371:4593   */\n      swap3\n      swap2\n      pop\n      pop\n      jump\t// out\n        /* \"#utility.yul\":4599:4912   */\n    tag_48:\n        /* \"#utility.yul\":4712:4716   */\n      0x00\n        /* \"#utility.yul\":4750:4752   */\n      0x20\n        /* \"#utility.yul\":4739:4748   */\n      dup3\n        /* \"#utility.yul\":4735:4753   */\n      add\n        /* \"#utility.yul\":4727:4753   */\n      swap1\n      pop\n        /* \"#utility.yul\":4799:4808   */\n      dup2\n        /* \"#utility.yul\":4793:4797   */\n      dup2\n        /* \"#utility.yul\":4789:4809   */\n      sub\n        /* \"#utility.yul\":4785:4786   */\n      0x00\n        /* \"#utility.yul\":4774:4783   */\n      dup4\n        /* \"#utility.yul\":4770:4787   */\n      add\n        /* \"#utility.yul\":4763:4810   */\n      mstore\n        /* \"#utility.yul\":4827:4905   */\n      tag_193\n        /* \"#utility.yul\":4900:4904   */\n      dup2\n        /* \"#utility.yul\":4891:4897   */\n      dup5\n        /* \"#utility.yul\":4827:4905   */\n      tag_174\n      jump\t// in\n    tag_193:\n        /* \"#utility.yul\":4819:4905   */\n      swap1\n      pop\n        /* \"#utility.yul\":4599:4912   */\n      swap3\n      swap2\n      pop\n      pop\n      jump\t// out\n        /* \"#utility.yul\":4918:5348   */\n    tag_28:\n        /* \"#utility.yul\":5061:5065   */\n      0x00\n        /* \"#utility.yul\":5099:5101   */\n      0x60\n        /* \"#utility.yul\":5088:5097   */\n      dup3\n        /* \"#utility.yul\":5084:5102   */\n      add\n        /* \"#utility.yul\":5076:5102   */\n      swap1\n      pop\n        /* \"#utility.yul\":5112:5183   */\n      tag_195\n        /* \"#utility.yul\":5180:5181   */\n      0x00\n        /* \"#utility.yul\":5169:5178   */\n      dup4\n        /* \"#utility.yul\":5165:5182   */\n      add\n        /* \"#utility.yul\":5156:5162   */\n      dup7\n        /* \"#utility.yul\":5112:5183   */\n      tag_184\n      jump\t// in\n    tag_195:\n        /* \"#utility.yul\":5193:5265   */\n      tag_196\n        /* \"#utility.yul\":5261:5263   */\n      0x20\n        /* \"#utility.yul\":5250:5259   */\n      dup4\n        /* \"#utility.yul\":5246:5264   */\n      add\n        /* \"#utility.yul\":5237:5243   */\n      dup6\n        /* \"#utility.yul\":5193:5265   */\n      tag_184\n      jump\t// in\n    tag_196:\n        /* \"#utility.yul\":5275:5341   */\n      tag_197\n        /* \"#utility.yul\":5337:5339   */\n      0x40\n        /* \"#utility.yul\":5326:5335   */\n      dup4\n        /* \"#utility.yul\":5322:5340   */\n      add\n        /* \"#utility.yul\":5313:5319   */\n      dup5\n        /* \"#utility.yul\":5275:5341   */\n      tag_164\n      jump\t// in\n    tag_197:\n        /* \"#utility.yul\":4918:5348   */\n      swap5\n      swap4\n      pop\n      pop\n      pop\n      pop\n      jump\t// out\n        /* \"#utility.yul\":5354:5986   */\n    tag_39:\n        /* \"#utility.yul\":5545:5549   */\n      0x00\n        /* \"#utility.yul\":5583:5586   */\n      0x80\n        /* \"#utility.yul\":5572:5581   */\n      dup3\n        /* \"#utility.yul\":5568:5587   */\n      add\n        /* \"#utility.yul\":5560:5587   */\n      swap1\n      pop\n        /* \"#utility.yul\":5597:5668   */\n      tag_199\n        /* \"#utility.yul\":5665:5666   */\n      0x00\n        /* \"#utility.yul\":5654:5663   */\n      dup4\n        /* \"#utility.yul\":5650:5667   */\n      add\n        /* \"#utility.yul\":5641:5647   */\n      dup8\n        /* \"#utility.yul\":5597:5668   */\n      tag_184\n      jump\t// in\n    tag_199:\n        /* \"#utility.yul\":5678:5750   */\n      tag_200\n        /* \"#utility.yul\":5746:5748   */\n      0x20\n        /* \"#utility.yul\":5735:5744   */\n      dup4\n        /* \"#utility.yul\":5731:5749   */\n      add\n        /* \"#utility.yul\":5722:5728   */\n      dup7\n        /* \"#utility.yul\":5678:5750   */\n      tag_184\n      jump\t// in\n    tag_200:\n        /* \"#utility.yul\":5797:5806   */\n      dup2\n        /* \"#utility.yul\":5791:5795   */\n      dup2\n        /* \"#utility.yul\":5787:5807   */\n      sub\n        /* \"#utility.yul\":5782:5784   */\n      0x40\n        /* \"#utility.yul\":5771:5780   */\n      dup4\n        /* \"#utility.yul\":5767:5785   */\n      add\n        /* \"#utility.yul\":5760:5808   */\n      mstore\n        /* \"#utility.yul\":5825:5903   */\n      tag_201\n        /* \"#utility.yul\":5898:5902   */\n      dup2\n        /* \"#utility.yul\":5889:5895   */\n      dup6\n        /* \"#utility.yul\":5825:5903   */\n      tag_174\n      jump\t// in\n    tag_201:\n        /* \"#utility.yul\":5817:5903   */\n      swap1\n      pop\n        /* \"#utility.yul\":5913:5979   */\n      tag_202\n        /* \"#utility.yul\":5975:5977   */\n      0x60\n        /* \"#utility.yul\":5964:5973   */\n      dup4\n        /* \"#utility.yul\":5960:5978   */\n      add\n        /* \"#utility.yul\":5951:5957   */\n      dup5\n        /* \"#utility.yul\":5913:5979   */\n      tag_164\n      jump\t// in\n    tag_202:\n        /* \"#utility.yul\":5354:5986   */\n      swap6\n      swap5\n      pop\n      pop\n      pop\n      pop\n      pop\n      jump\t// out\n        /* \"#utility.yul\":6073:6172   */\n    tag_177:\n        /* \"#utility.yul\":6125:6131   */\n      0x00\n        /* \"#utility.yul\":6159:6164   */\n      dup2\n        /* \"#utility.yul\":6153:6165   */\n      mload\n        /* \"#utility.yul\":6143:6165   */\n      swap1\n      pop\n        /* \"#utility.yul\":6073:6172   */\n      swap2\n      swap1\n      pop\n      jump\t// out\n        /* \"#utility.yul\":6178:6347   */\n    tag_179:\n        /* \"#utility.yul\":6262:6273   */\n      0x00\n        /* \"#utility.yul\":6296:6302   */\n      dup3\n        /* \"#utility.yul\":6291:6294   */\n      dup3\n        /* \"#utility.yul\":6284:6303   */\n      mstore\n        /* \"#utility.yul\":6336:6340   */\n      0x20\n        /* \"#utility.yul\":6331:6334   */\n      dup3\n        /* \"#utility.yul\":6327:6341   */\n      add\n        /* \"#utility.yul\":6312:6341   */\n      swap1\n      pop\n        /* \"#utility.yul\":6178:6347   */\n      swap3\n      swap2\n      pop\n      pop\n      jump\t// out\n        /* \"#utility.yul\":6353:6501   */\n    tag_171:\n        /* \"#utility.yul\":6455:6466   */\n      0x00\n        /* \"#utility.yul\":6492:6495   */\n      dup2\n        /* \"#utility.yul\":6477:6495   */\n      swap1\n      pop\n        /* \"#utility.yul\":6353:6501   */\n      swap3\n      swap2\n      pop\n      pop\n      jump\t// out\n        /* \"#utility.yul\":6507:6812   */\n    tag_67:\n        /* \"#utility.yul\":6547:6550   */\n      0x00\n        /* \"#utility.yul\":6566:6586   */\n      tag_209\n        /* \"#utility.yul\":6584:6585   */\n      dup3\n        /* \"#utility.yul\":6566:6586   */\n      tag_187\n      jump\t// in\n    tag_209:\n        /* \"#utility.yul\":6561:6586   */\n      swap2\n      pop\n        /* \"#utility.yul\":6600:6620   */\n      tag_210\n        /* \"#utility.yul\":6618:6619   */\n      dup4\n        /* \"#utility.yul\":6600:6620   */\n      tag_187\n      jump\t// in\n    tag_210:\n        /* \"#utility.yul\":6595:6620   */\n      swap3\n      pop\n        /* \"#utility.yul\":6754:6755   */\n      dup3\n        /* \"#utility.yul\":6686:6752   */\n      0xffffffffffffffffffffffffffffffffffffffffffffffffffffffffffffffff\n        /* \"#utility.yul\":6682:6756   */\n      sub\n        /* \"#utility.yul\":6679:6680   */\n      dup3\n        /* \"#utility.yul\":6676:6757   */\n      gt\n        /* \"#utility.yul\":6673:6780   */\n      iszero\n      tag_211\n      jumpi\n        /* \"#utility.yul\":6760:6778   */\n      tag_212\n      tag_213\n      jump\t// in\n    tag_212:\n        /* \"#utility.yul\":6673:6780   */\n    tag_211:\n        /* \"#utility.yul\":6804:6805   */\n      dup3\n        /* \"#utility.yul\":6801:6802   */\n      dup3\n        /* \"#utility.yul\":6797:6806   */\n      add\n        /* \"#utility.yul\":6790:6806   */\n      swap1\n      pop\n        /* \"#utility.yul\":6507:6812   */\n      swap3\n      swap2\n      pop\n      pop\n      jump\t// out\n        /* \"#utility.yul\":6818:6914   */\n    tag_163:\n        /* \"#utility.yul\":6855:6862   */\n      0x00\n        /* \"#utility.yul\":6884:6908   */\n      tag_215\n        /* \"#utility.yul\":6902:6907   */\n      dup3\n        /* \"#utility.yul\":6884:6908   */\n      tag_216\n      jump\t// in\n    tag_215:\n        /* \"#utility.yul\":6873:6908   */\n      swap1\n      pop\n        /* \"#utility.yul\":6818:6914   */\n      swap2\n      swap1\n      pop\n      jump\t// out\n        /* \"#utility.yul\":6920:7010   */\n    tag_167:\n        /* \"#utility.yul\":6954:6961   */\n      0x00\n        /* \"#utility.yul\":6997:7002   */\n      dup2\n        /* \"#utility.yul\":6990:7003   */\n      iszero\n        /* \"#utility.yul\":6983:7004   */\n      iszero\n        /* \"#utility.yul\":6972:7004   */\n      swap1\n      pop\n        /* \"#utility.yul\":6920:7010   */\n      swap2\n      swap1\n      pop\n      jump\t// out\n        /* \"#utility.yul\":7016:7142   */\n    tag_216:\n        /* \"#utility.yul\":7053:7060   */\n      0x00\n        /* \"#utility.yul\":7093:7135   */\n      0xffffffffffffffffffffffffffffffffffffffff\n        /* \"#utility.yul\":7086:7091   */\n      dup3\n        /* \"#utility.yul\":7082:7136   */\n      and\n        /* \"#utility.yul\":7071:7136   */\n      swap1\n      pop\n        /* \"#utility.yul\":7016:7142   */\n      swap2\n      swap1\n      pop\n      jump\t// out\n        /* \"#utility.yul\":7148:7225   */\n    tag_187:\n        /* \"#utility.yul\":7185:7192   */\n      0x00\n        /* \"#utility.yul\":7214:7219   */\n      dup2\n        /* \"#utility.yul\":7203:7219   */\n      swap1\n      pop\n        /* \"#utility.yul\":7148:7225   */\n      swap2\n      swap1\n      pop\n      jump\t// out\n        /* \"#utility.yul\":7231:7385   */\n    tag_173:\n        /* \"#utility.yul\":7315:7321   */\n      dup3\n        /* \"#utility.yul\":7310:7313   */\n      dup2\n        /* \"#utility.yul\":7305:7308   */\n      dup4\n        /* \"#utility.yul\":7292:7322   */\n      calldatacopy\n        /* \"#utility.yul\":7377:7378   */\n      0x00\n        /* \"#utility.yul\":7368:7374   */\n      dup4\n        /* \"#utility.yul\":7363:7366   */\n      dup4\n        /* \"#utility.yul\":7359:7375   */\n      add\n        /* \"#utility.yul\":7352:7379   */\n      mstore\n        /* \"#utility.yul\":7231:7385   */\n      pop\n      pop\n      pop\n      jump\t// out\n        /* \"#utility.yul\":7391:7698   */\n    tag_181:\n        /* \"#utility.yul\":7459:7460   */\n      0x00\n        /* \"#utility.yul\":7469:7582   */\n    tag_222:\n        /* \"#utility.yul\":7483:7489   */\n      dup4\n        /* \"#utility.yul\":7480:7481   */\n      dup2\n        /* \"#utility.yul\":7477:7490   */\n      lt\n        /* \"#utility.yul\":7469:7582   */\n      iszero\n      tag_224\n      jumpi\n        /* \"#utility.yul\":7568:7569   */\n      dup1\n        /* \"#utility.yul\":7563:7566   */\n      dup3\n        /* \"#utility.yul\":7559:7570   */\n      add\n        /* \"#utility.yul\":7553:7571   */\n      mload\n        /* \"#utility.yul\":7549:7550   */\n      dup2\n        /* \"#utility.yul\":7544:7547   */\n      dup5\n        /* \"#utility.yul\":7540:7551   */\n      add\n        /* \"#utility.yul\":7533:7572   */\n      mstore\n        /* \"#utility.yul\":7505:7507   */\n      0x20\n        /* \"#utility.yul\":7502:7503   */\n      dup2\n        /* \"#utility.yul\":7498:7508   */\n      add\n        /* \"#utility.yul\":7493:7508   */\n      swap1\n      pop\n        /* \"#utility.yul\":7469:7582   */\n      jump(tag_222)\n    tag_224:\n        /* \"#utility.yul\":7600:7606   */\n      dup4\n        /* \"#utility.yul\":7597:7598   */\n      dup2\n        /* \"#utility.yul\":7594:7607   */\n      gt\n        /* \"#utility.yul\":7591:7692   */\n      iszero\n      tag_225\n      jumpi\n        /* \"#utility.yul\":7680:7681   */\n      0x00\n        /* \"#utility.yul\":7671:7677   */\n      dup5\n        /* \"#utility.yul\":7666:7669   */\n      dup5\n        /* \"#utility.yul\":7662:7678   */\n      add\n        /* \"#utility.yul\":7655:7682   */\n      mstore\n        /* \"#utility.yul\":7591:7692   */\n    tag_225:\n        /* \"#utility.yul\":7440:7698   */\n      pop\n        /* \"#utility.yul\":7391:7698   */\n      pop\n      pop\n      pop\n      jump\t// out\n        /* \"#utility.yul\":7704:7875   */\n    tag_88:\n        /* \"#utility.yul\":7743:7746   */\n      0x00\n        /* \"#utility.yul\":7766:7790   */\n      tag_227\n        /* \"#utility.yul\":7784:7789   */\n      dup3\n        /* \"#utility.yul\":7766:7790   */\n      tag_187\n      jump\t// in\n    tag_227:\n        /* \"#utility.yul\":7757:7790   */\n      swap2\n      pop\n        /* \"#utility.yul\":7812:7816   */\n      0x00\n        /* \"#utility.yul\":7805:7810   */\n      dup3\n        /* \"#utility.yul\":7802:7817   */\n      eq\n        /* \"#utility.yul\":7799:7840   */\n      iszero\n      tag_228\n      jumpi\n        /* \"#utility.yul\":7820:7838   */\n      tag_229\n      tag_213\n      jump\t// in\n    tag_229:\n        /* \"#utility.yul\":7799:7840   */\n    tag_228:\n        /* \"#utility.yul\":7867:7868   */\n      0x01\n        /* \"#utility.yul\":7860:7865   */\n      dup3\n        /* \"#utility.yul\":7856:7869   */\n      sub\n        /* \"#utility.yul\":7849:7869   */\n      swap1\n      pop\n        /* \"#utility.yul\":7704:7875   */\n      swap2\n      swap1\n      pop\n      jump\t// out\n        /* \"#utility.yul\":7881:8201   */\n    tag_70:\n        /* \"#utility.yul\":7925:7931   */\n      0x00\n        /* \"#utility.yul\":7962:7963   */\n      0x02\n        /* \"#utility.yul\":7956:7960   */\n      dup3\n        /* \"#utility.yul\":7952:7964   */\n      div\n        /* \"#utility.yul\":7942:7964   */\n      swap1\n      pop\n        /* \"#utility.yul\":8009:8010   */\n      0x01\n        /* \"#utility.yul\":8003:8007   */\n      dup3\n        /* \"#utility.yul\":7999:8011   */\n      and\n        /* \"#utility.yul\":8030:8048   */\n      dup1\n        /* \"#utility.yul\":8020:8101   */\n      tag_231\n      jumpi\n        /* \"#utility.yul\":8086:8090   */\n      0x7f\n        /* \"#utility.yul\":8078:8084   */\n      dup3\n        /* \"#utility.yul\":8074:8091   */\n      and\n        /* \"#utility.yul\":8064:8091   */\n      swap2\n      pop\n        /* \"#utility.yul\":8020:8101   */\n    tag_231:\n        /* \"#utility.yul\":8148:8150   */\n      0x20\n        /* \"#utility.yul\":8140:8146   */\n      dup3\n        /* \"#utility.yul\":8137:8151   */\n      lt\n        /* \"#utility.yul\":8117:8135   */\n      dup2\n        /* \"#utility.yul\":8114:8152   */\n      eq\n        /* \"#utility.yul\":8111:8195   */\n      iszero\n      tag_232\n      jumpi\n        /* \"#utility.yul\":8167:8185   */\n      tag_233\n      tag_234\n      jump\t// in\n    tag_233:\n        /* \"#utility.yul\":8111:8195   */\n    tag_232:\n        /* \"#utility.yul\":7932:8201   */\n      pop\n        /* \"#utility.yul\":7881:8201   */\n      swap2\n      swap1\n      pop\n      jump\t// out\n        /* \"#utility.yul\":8207:8387   */\n    tag_213:\n        /* \"#utility.yul\":8255:8332   */\n      0x4e487b7100000000000000000000000000000000000000000000000000000000\n        /* \"#utility.yul\":8252:8253   */\n      0x00\n        /* \"#utility.yul\":8245:8333   */\n      mstore\n        /* \"#utility.yul\":8352:8356   */\n      0x11\n        /* \"#utility.yul\":8349:8350   */\n      0x04\n        /* \"#utility.yul\":8342:8357   */\n      mstore\n        /* \"#utility.yul\":8376:8380   */\n      0x24\n        /* \"#utility.yul\":8373:8374   */\n      0x00\n        /* \"#utility.yul\":8366:8381   */\n      revert\n        /* \"#utility.yul\":8393:8573   */\n    tag_234:\n        /* \"#utility.yul\":8441:8518   */\n      0x4e487b7100000000000000000000000000000000000000000000000000000000\n        /* \"#utility.yul\":8438:8439   */\n      0x00\n        /* \"#utility.yul\":8431:8519   */\n      mstore\n        /* \"#utility.yul\":8538:8542   */\n      0x22\n        /* \"#utility.yul\":8535:8536   */\n      0x04\n        /* \"#utility.yul\":8528:8543   */\n      mstore\n        /* \"#utility.yul\":8562:8566   */\n      0x24\n        /* \"#utility.yul\":8559:8560   */\n      0x00\n        /* \"#utility.yul\":8552:8567   */\n      revert\n        /* \"#utility.yul\":8579:8696   */\n    tag_128:\n        /* \"#utility.yul\":8688:8689   */\n      0x00\n        /* \"#utility.yul\":8685:8686   */\n      dup1\n        /* \"#utility.yul\":8678:8690   */\n      revert\n        /* \"#utility.yul\":8702:8819   */\n    tag_125:\n        /* \"#utility.yul\":8811:8812   */\n      0x00\n        /* \"#utility.yul\":8808:8809   */\n      dup1\n        /* \"#utility.yul\":8801:8813   */\n      revert\n        /* \"#utility.yul\":8825:8942   */\n    tag_131:\n        /* \"#utility.yul\":8934:8935   */\n      0x00\n        /* \"#utility.yul\":8931:8932   */\n      dup1\n        /* \"#utility.yul\":8924:8936   */\n      revert\n        /* \"#utility.yul\":8948:9065   */\n    tag_142:\n        /* \"#utility.yul\":9057:9058   */\n      0x00\n        /* \"#utility.yul\":9054:9055   */\n      dup1\n        /* \"#utility.yul\":9047:9059   */\n      revert\n        /* \"#utility.yul\":9071:9188   */\n    tag_139:\n        /* \"#utility.yul\":9180:9181   */\n      0x00\n        /* \"#utility.yul\":9177:9178   */\n      dup1\n        /* \"#utility.yul\":9170:9182   */\n      revert\n        /* \"#utility.yul\":9194:9296   */\n    tag_183:\n        /* \"#utility.yul\":9235:9241   */\n      0x00\n        /* \"#utility.yul\":9286:9288   */\n      0x1f\n        /* \"#utility.yul\":9282:9289   */\n      not\n        /* \"#utility.yul\":9277:9279   */\n      0x1f\n        /* \"#utility.yul\":9270:9275   */\n      dup4\n        /* \"#utility.yul\":9266:9280   */\n      add\n        /* \"#utility.yul\":9262:9290   */\n      and\n        /* \"#utility.yul\":9252:9290   */\n      swap1\n      pop\n        /* \"#utility.yul\":9194:9296   */\n      swap2\n      swap1\n      pop\n      jump\t// out\n        /* \"#utility.yul\":9302:9424   */\n    tag_120:\n        /* \"#utility.yul\":9375:9399   */\n      tag_244\n        /* \"#utility.yul\":9393:9398   */\n      dup2\n        /* \"#utility.yul\":9375:9399   */\n      tag_163\n      jump\t// in\n    tag_244:\n        /* \"#utility.yul\":9368:9373   */\n      dup2\n        /* \"#utility.yul\":9365:9400   */\n      eq\n        /* \"#utility.yul\":9355:9418   */\n      tag_245\n      jumpi\n        /* \"#utility.yul\":9414:9415   */\n      0x00\n        /* \"#utility.yul\":9411:9412   */\n      dup1\n        /* \"#utility.yul\":9404:9416   */\n      revert\n        /* \"#utility.yul\":9355:9418   */\n    tag_245:\n        /* \"#utility.yul\":9302:9424   */\n      pop\n      jump\t// out\n        /* \"#utility.yul\":9430:9552   */\n    tag_135:\n        /* \"#utility.yul\":9503:9527   */\n      tag_247\n        /* \"#utility.yul\":9521:9526   */\n      dup2\n        /* \"#utility.yul\":9503:9527   */\n      tag_187\n      jump\t// in\n    tag_247:\n        /* \"#utility.yul\":9496:9501   */\n      dup2\n        /* \"#utility.yul\":9493:9528   */\n      eq\n        /* \"#utility.yul\":9483:9546   */\n      tag_248\n      jumpi\n        /* \"#utility.yul\":9542:9543   */\n      0x00\n        /* \"#utility.yul\":9539:9540   */\n      dup1\n        /* \"#utility.yul\":9532:9544   */\n      revert\n        /* \"#utility.yul\":9483:9546   */\n    tag_248:\n        /* \"#utility.yul\":9430:9552   */\n      pop\n      jump\t// out\n\n    auxdata: 0xa2646970667358221220f7259e423fb08637215f84f20782c21fc2013ca91bd9fa9c35e265e3b9c427e064736f6c63430008070033\n}\n",
				"bytecode": {
					"linkReferences": {},
					"object": "6080604052611095806100136000396000f3fe6080604052600436106100705760003560e01c806379cd49211161004e57806379cd49211461011a5780637acc0b20146101435780638642269e14610183578063e4bcc7d41461019f57610070565b80630a5bd44b1461007557806327e7875a1461009e57806374cbc350146100db575b600080fd5b34801561008157600080fd5b5061009c60048036038101906100979190610bc1565b6101dc565b005b3480156100aa57600080fd5b506100c560048036038101906100c09190610ca2565b6103a9565b6040516100d29190610d86565b60405180910390f35b3480156100e757600080fd5b5061010260048036038101906100fd9190610c62565b6103f7565b60405161011193929190610dc3565b60405180910390f35b34801561012657600080fd5b50610141600480360381019061013c9190610ca2565b61043b565b005b34801561014f57600080fd5b5061016a60048036038101906101659190610c35565b6104cc565b60405161017a9493929190610dfa565b60405180910390f35b61019d60048036038101906101989190610c35565b610591565b005b3480156101ab57600080fd5b506101c660048036038101906101c19190610c35565b61091f565b6040516101d39190610da1565b60405180910390f35b600284846040516101ee929190610d6d565b908152602001604051809103902060009054906101000a900460ff16610371576102166109cb565b828160000181815250508181602001818152505084848080601f016020809104026020016040519081016040528093929190818152602001838380828437600081840152601f19601f8201169050808301925050505050505081604001819052506001816060019015159081151581525050806001600080805490508152602001908152602001600020600082015181600001556020820151816001015560408201518160020190805190602001906102d09291906109f5565b5060608201518160030160006101000a81548160ff021916908315150217905550905050600160028686604051610308929190610d6d565b908152602001604051809103902060006101000a81548160ff021916908315150217905550600085859091806001815401808255809150506001900390600052602060002001600090919290919290919290919250919061036a929190610a7b565b50506103a3565b6040517fb185df3a00000000000000000000000000000000000000000000000000000000815260040160405180910390fd5b50505050565b600460205281600052604060002081815481106103c557600080fd5b906000526020600020016000915091509054906101000a900473ffffffffffffffffffffffffffffffffffffffff1681565b6003602052816000526040600020602052806000526040600020600091509150508060000154908060010154908060020160009054906101000a900460ff16905083565b6001600083815260200190815260200160002060030160009054906101000a900460ff1615610496578060016000848152602001908152602001600020600101600082825461048a9190610e6d565b925050819055506104c8565b6040517f7e8d96a900000000000000000000000000000000000000000000000000000000815260040160405180910390fd5b5050565b60016020528060005260406000206000915090508060000154908060010154908060020180546104fb90610f77565b80601f016020809104026020016040519081016040528092919081815260200182805461052790610f77565b80156105745780601f1061054957610100808354040283529160200191610574565b820191906000526020600020905b81548152906001019060200180831161055757829003601f168201915b5050505050908060030160009054906101000a900460ff16905084565b6000805490508110801561060357506003600082815260200190815260200160002060003373ffffffffffffffffffffffffffffffffffffffff1673ffffffffffffffffffffffffffffffffffffffff16815260200190815260200160002060020160009054906101000a900460ff16155b156108ea57600060016000838152602001908152602001600020604051806080016040529081600082015481526020016001820154815260200160028201805461064c90610f77565b80601f016020809104026020016040519081016040528092919081815260200182805461067890610f77565b80156106c55780601f1061069a576101008083540402835291602001916106c5565b820191906000526020600020905b8154815290600101906020018083116106a857829003601f168201915b505050505081526020016003820160009054906101000a900460ff16151515158152505090508060000151341080610701575060018160200151105b15610738576040517ff80236cc00000000000000000000000000000000000000000000000000000000815260040160405180910390fd5b610740610b01565b4381600001818152505081600001518160200181815250506001816040019015159081151581525050806003600085815260200190815260200160002060003373ffffffffffffffffffffffffffffffffffffffff1673ffffffffffffffffffffffffffffffffffffffff168152602001908152602001600020600082015181600001556020820151816001015560408201518160020160006101000a81548160ff02191690831515021790555090505081602001805180919061080390610f4d565b8152505081600160008581526020019081526020016000206000820151816000015560208201518160010155604082015181600201908051906020019061084b9291906109f5565b5060608201518160030160006101000a81548160ff02191690831515021790555090505060046000848152602001908152602001600020339080600181540180825580915050600190039060005260206000200160009091909190916101000a81548173ffffffffffffffffffffffffffffffffffffffff021916908373ffffffffffffffffffffffffffffffffffffffff160217905550505061091c565b6040517fd42c9b8b00000000000000000000000000000000000000000000000000000000815260040160405180910390fd5b50565b6000818154811061092f57600080fd5b90600052602060002001600091509050805461094a90610f77565b80601f016020809104026020016040519081016040528092919081815260200182805461097690610f77565b80156109c35780601f10610998576101008083540402835291602001916109c3565b820191906000526020600020905b8154815290600101906020018083116109a657829003601f168201915b505050505081565b60405180608001604052806000815260200160008152602001606081526020016000151581525090565b828054610a0190610f77565b90600052602060002090601f016020900481019282610a235760008555610a6a565b82601f10610a3c57805160ff1916838001178555610a6a565b82800160010185558215610a6a579182015b82811115610a69578251825591602001919060010190610a4e565b5b509050610a779190610b24565b5090565b828054610a8790610f77565b90600052602060002090601f016020900481019282610aa95760008555610af0565b82601f10610ac257803560ff1916838001178555610af0565b82800160010185558215610af0579182015b82811115610aef578235825591602001919060010190610ad4565b5b509050610afd9190610b24565b5090565b604051806060016040528060008152602001600081526020016000151581525090565b5b80821115610b3d576000816000905550600101610b25565b5090565b600081359050610b5081611031565b92915050565b60008083601f840112610b6c57610b6b61100c565b5b8235905067ffffffffffffffff811115610b8957610b88611007565b5b602083019150836001820283011115610ba557610ba4611011565b5b9250929050565b600081359050610bbb81611048565b92915050565b60008060008060608587031215610bdb57610bda61101b565b5b600085013567ffffffffffffffff811115610bf957610bf8611016565b5b610c0587828801610b56565b94509450506020610c1887828801610bac565b9250506040610c2987828801610bac565b91505092959194509250565b600060208284031215610c4b57610c4a61101b565b5b6000610c5984828501610bac565b91505092915050565b60008060408385031215610c7957610c7861101b565b5b6000610c8785828601610bac565b9250506020610c9885828601610b41565b9150509250929050565b60008060408385031215610cb957610cb861101b565b5b6000610cc785828601610bac565b9250506020610cd885828601610bac565b9150509250929050565b610ceb81610ec3565b82525050565b610cfa81610ed5565b82525050565b6000610d0c8385610e62565b9350610d19838584610f0b565b82840190509392505050565b6000610d3082610e46565b610d3a8185610e51565b9350610d4a818560208601610f1a565b610d5381611020565b840191505092915050565b610d6781610f01565b82525050565b6000610d7a828486610d00565b91508190509392505050565b6000602082019050610d9b6000830184610ce2565b92915050565b60006020820190508181036000830152610dbb8184610d25565b905092915050565b6000606082019050610dd86000830186610d5e565b610de56020830185610d5e565b610df26040830184610cf1565b949350505050565b6000608082019050610e0f6000830187610d5e565b610e1c6020830186610d5e565b8181036040830152610e2e8185610d25565b9050610e3d6060830184610cf1565b95945050505050565b600081519050919050565b600082825260208201905092915050565b600081905092915050565b6000610e7882610f01565b9150610e8383610f01565b9250827fffffffffffffffffffffffffffffffffffffffffffffffffffffffffffffffff03821115610eb857610eb7610fa9565b5b828201905092915050565b6000610ece82610ee1565b9050919050565b60008115159050919050565b600073ffffffffffffffffffffffffffffffffffffffff82169050919050565b6000819050919050565b82818337600083830152505050565b60005b83811015610f38578082015181840152602081019050610f1d565b83811115610f47576000848401525b50505050565b6000610f5882610f01565b91506000821415610f6c57610f6b610fa9565b5b600182039050919050565b60006002820490506001821680610f8f57607f821691505b60208210811415610fa357610fa2610fd8565b5b50919050565b7f4e487b7100000000000000000000000000000000000000000000000000000000600052601160045260246000fd5b7f4e487b7100000000000000000000000000000000000000000000000000000000600052602260045260246000fd5b600080fd5b600080fd5b600080fd5b600080fd5b600080fd5b6000601f19601f8301169050919050565b61103a81610ec3565b811461104557600080fd5b50565b61105181610f01565b811461105c57600080fd5b5056fea2646970667358221220f7259e423fb08637215f84f20782c21fc2013ca91bd9fa9c35e265e3b9c427e064736f6c63430008070033",
					"opcodes": "PUSH1 0x80 PUSH1 0x40 MSTORE PUSH2 0x1095 DUP1 PUSH2 0x13 PUSH1 0x0 CODECOPY PUSH1 0x0 RETURN INVALID PUSH1 0x80 PUSH1 0x40 MSTORE PUSH1 0x4 CALLDATASIZE LT PUSH2 0x70 JUMPI PUSH1 0x0 CALLDATALOAD PUSH1 0xE0 SHR DUP1 PUSH4 0x79CD4921 GT PUSH2 0x4E JUMPI DUP1 PUSH4 0x79CD4921 EQ PUSH2 0x11A JUMPI DUP1 PUSH4 0x7ACC0B20 EQ PUSH2 0x143 JUMPI DUP1 PUSH4 0x8642269E EQ PUSH2 0x183 JUMPI DUP1 PUSH4 0xE4BCC7D4 EQ PUSH2 0x19F JUMPI PUSH2 0x70 JUMP JUMPDEST DUP1 PUSH4 0xA5BD44B EQ PUSH2 0x75 JUMPI DUP1 PUSH4 0x27E7875A EQ PUSH2 0x9E JUMPI DUP1 PUSH4 0x74CBC350 EQ PUSH2 0xDB JUMPI JUMPDEST PUSH1 0x0 DUP1 REVERT JUMPDEST CALLVALUE DUP1 ISZERO PUSH2 0x81 JUMPI PUSH1 0x0 DUP1 REVERT JUMPDEST POP PUSH2 0x9C PUSH1 0x4 DUP1 CALLDATASIZE SUB DUP2 ADD SWAP1 PUSH2 0x97 SWAP2 SWAP1 PUSH2 0xBC1 JUMP JUMPDEST PUSH2 0x1DC JUMP JUMPDEST STOP JUMPDEST CALLVALUE DUP1 ISZERO PUSH2 0xAA JUMPI PUSH1 0x0 DUP1 REVERT JUMPDEST POP PUSH2 0xC5 PUSH1 0x4 DUP1 CALLDATASIZE SUB DUP2 ADD SWAP1 PUSH2 0xC0 SWAP2 SWAP1 PUSH2 0xCA2 JUMP JUMPDEST PUSH2 0x3A9 JUMP JUMPDEST PUSH1 0x40 MLOAD PUSH2 0xD2 SWAP2 SWAP1 PUSH2 0xD86 JUMP JUMPDEST PUSH1 0x40 MLOAD DUP1 SWAP2 SUB SWAP1 RETURN JUMPDEST CALLVALUE DUP1 ISZERO PUSH2 0xE7 JUMPI PUSH1 0x0 DUP1 REVERT JUMPDEST POP PUSH2 0x102 PUSH1 0x4 DUP1 CALLDATASIZE SUB DUP2 ADD SWAP1 PUSH2 0xFD SWAP2 SWAP1 PUSH2 0xC62 JUMP JUMPDEST PUSH2 0x3F7 JUMP JUMPDEST PUSH1 0x40 MLOAD PUSH2 0x111 SWAP4 SWAP3 SWAP2 SWAP1 PUSH2 0xDC3 JUMP JUMPDEST PUSH1 0x40 MLOAD DUP1 SWAP2 SUB SWAP1 RETURN JUMPDEST CALLVALUE DUP1 ISZERO PUSH2 0x126 JUMPI PUSH1 0x0 DUP1 REVERT JUMPDEST POP PUSH2 0x141 PUSH1 0x4 DUP1 CALLDATASIZE SUB DUP2 ADD SWAP1 PUSH2 0x13C SWAP2 SWAP1 PUSH2 0xCA2 JUMP JUMPDEST PUSH2 0x43B JUMP JUMPDEST STOP JUMPDEST CALLVALUE DUP1 ISZERO PUSH2 0x14F JUMPI PUSH1 0x0 DUP1 REVERT JUMPDEST POP PUSH2 0x16A PUSH1 0x4 DUP1 CALLDATASIZE SUB DUP2 ADD SWAP1 PUSH2 0x165 SWAP2 SWAP1 PUSH2 0xC35 JUMP JUMPDEST PUSH2 0x4CC JUMP JUMPDEST PUSH1 0x40 MLOAD PUSH2 0x17A SWAP5 SWAP4 SWAP3 SWAP2 SWAP1 PUSH2 0xDFA JUMP JUMPDEST PUSH1 0x40 MLOAD DUP1 SWAP2 SUB SWAP1 RETURN JUMPDEST PUSH2 0x19D PUSH1 0x4 DUP1 CALLDATASIZE SUB DUP2 ADD SWAP1 PUSH2 0x198 SWAP2 SWAP1 PUSH2 0xC35 JUMP JUMPDEST PUSH2 0x591 JUMP JUMPDEST STOP JUMPDEST CALLVALUE DUP1 ISZERO PUSH2 0x1AB JUMPI PUSH1 0x0 DUP1 REVERT JUMPDEST POP PUSH2 0x1C6 PUSH1 0x4 DUP1 CALLDATASIZE SUB DUP2 ADD SWAP1 PUSH2 0x1C1 SWAP2 SWAP1 PUSH2 0xC35 JUMP JUMPDEST PUSH2 0x91F JUMP JUMPDEST PUSH1 0x40 MLOAD PUSH2 0x1D3 SWAP2 SWAP1 PUSH2 0xDA1 JUMP JUMPDEST PUSH1 0x40 MLOAD DUP1 SWAP2 SUB SWAP1 RETURN JUMPDEST PUSH1 0x2 DUP5 DUP5 PUSH1 0x40 MLOAD PUSH2 0x1EE SWAP3 SWAP2 SWAP1 PUSH2 0xD6D JUMP JUMPDEST SWAP1 DUP2 MSTORE PUSH1 0x20 ADD PUSH1 0x40 MLOAD DUP1 SWAP2 SUB SWAP1 KECCAK256 PUSH1 0x0 SWAP1 SLOAD SWAP1 PUSH2 0x100 EXP SWAP1 DIV PUSH1 0xFF AND PUSH2 0x371 JUMPI PUSH2 0x216 PUSH2 0x9CB JUMP JUMPDEST DUP3 DUP2 PUSH1 0x0 ADD DUP2 DUP2 MSTORE POP POP DUP2 DUP2 PUSH1 0x20 ADD DUP2 DUP2 MSTORE POP POP DUP5 DUP5 DUP1 DUP1 PUSH1 0x1F ADD PUSH1 0x20 DUP1 SWAP2 DIV MUL PUSH1 0x20 ADD PUSH1 0x40 MLOAD SWAP1 DUP2 ADD PUSH1 0x40 MSTORE DUP1 SWAP4 SWAP3 SWAP2 SWAP1 DUP2 DUP2 MSTORE PUSH1 0x20 ADD DUP4 DUP4 DUP1 DUP3 DUP5 CALLDATACOPY PUSH1 0x0 DUP2 DUP5 ADD MSTORE PUSH1 0x1F NOT PUSH1 0x1F DUP3 ADD AND SWAP1 POP DUP1 DUP4 ADD SWAP3 POP POP POP POP POP POP POP DUP2 PUSH1 0x40 ADD DUP2 SWAP1 MSTORE POP PUSH1 0x1 DUP2 PUSH1 0x60 ADD SWAP1 ISZERO ISZERO SWAP1 DUP2 ISZERO ISZERO DUP2 MSTORE POP POP DUP1 PUSH1 0x1 PUSH1 0x0 DUP1 DUP1 SLOAD SWAP1 POP DUP2 MSTORE PUSH1 0x20 ADD SWAP1 DUP2 MSTORE PUSH1 0x20 ADD PUSH1 0x0 KECCAK256 PUSH1 0x0 DUP3 ADD MLOAD DUP2 PUSH1 0x0 ADD SSTORE PUSH1 0x20 DUP3 ADD MLOAD DUP2 PUSH1 0x1 ADD SSTORE PUSH1 0x40 DUP3 ADD MLOAD DUP2 PUSH1 0x2 ADD SWAP1 DUP1 MLOAD SWAP1 PUSH1 0x20 ADD SWAP1 PUSH2 0x2D0 SWAP3 SWAP2 SWAP1 PUSH2 0x9F5 JUMP JUMPDEST POP PUSH1 0x60 DUP3 ADD MLOAD DUP2 PUSH1 0x3 ADD PUSH1 0x0 PUSH2 0x100 EXP DUP2 SLOAD DUP2 PUSH1 0xFF MUL NOT AND SWAP1 DUP4 ISZERO ISZERO MUL OR SWAP1 SSTORE POP SWAP1 POP POP PUSH1 0x1 PUSH1 0x2 DUP7 DUP7 PUSH1 0x40 MLOAD PUSH2 0x308 SWAP3 SWAP2 SWAP1 PUSH2 0xD6D JUMP JUMPDEST SWAP1 DUP2 MSTORE PUSH1 0x20 ADD PUSH1 0x40 MLOAD DUP1 SWAP2 SUB SWAP1 KECCAK256 PUSH1 0x0 PUSH2 0x100 EXP DUP2 SLOAD DUP2 PUSH1 0xFF MUL NOT AND SWAP1 DUP4 ISZERO ISZERO MUL OR SWAP1 SSTORE POP PUSH1 0x0 DUP6 DUP6 SWAP1 SWAP2 DUP1 PUSH1 0x1 DUP2 SLOAD ADD DUP1 DUP3 SSTORE DUP1 SWAP2 POP POP PUSH1 0x1 SWAP1 SUB SWAP1 PUSH1 0x0 MSTORE PUSH1 0x20 PUSH1 0x0 KECCAK256 ADD PUSH1 0x0 SWAP1 SWAP2 SWAP3 SWAP1 SWAP2 SWAP3 SWAP1 SWAP2 SWAP3 SWAP1 SWAP2 SWAP3 POP SWAP2 SWAP1 PUSH2 0x36A SWAP3 SWAP2 SWAP1 PUSH2 0xA7B JUMP JUMPDEST POP POP PUSH2 0x3A3 JUMP JUMPDEST PUSH1 0x40 MLOAD PUSH32 0xB185DF3A00000000000000000000000000000000000000000000000000000000 DUP2 MSTORE PUSH1 0x4 ADD PUSH1 0x40 MLOAD DUP1 SWAP2 SUB SWAP1 REVERT JUMPDEST POP POP POP POP JUMP JUMPDEST PUSH1 0x4 PUSH1 0x20 MSTORE DUP2 PUSH1 0x0 MSTORE PUSH1 0x40 PUSH1 0x0 KECCAK256 DUP2 DUP2 SLOAD DUP2 LT PUSH2 0x3C5 JUMPI PUSH1 0x0 DUP1 REVERT JUMPDEST SWAP1 PUSH1 0x0 MSTORE PUSH1 0x20 PUSH1 0x0 KECCAK256 ADD PUSH1 0x0 SWAP2 POP SWAP2 POP SWAP1 SLOAD SWAP1 PUSH2 0x100 EXP SWAP1 DIV PUSH20 0xFFFFFFFFFFFFFFFFFFFFFFFFFFFFFFFFFFFFFFFF AND DUP2 JUMP JUMPDEST PUSH1 0x3 PUSH1 0x20 MSTORE DUP2 PUSH1 0x0 MSTORE PUSH1 0x40 PUSH1 0x0 KECCAK256 PUSH1 0x20 MSTORE DUP1 PUSH1 0x0 MSTORE PUSH1 0x40 PUSH1 0x0 KECCAK256 PUSH1 0x0 SWAP2 POP SWAP2 POP POP DUP1 PUSH1 0x0 ADD SLOAD SWAP1 DUP1 PUSH1 0x1 ADD SLOAD SWAP1 DUP1 PUSH1 0x2 ADD PUSH1 0x0 SWAP1 SLOAD SWAP1 PUSH2 0x100 EXP SWAP1 DIV PUSH1 0xFF AND SWAP1 POP DUP4 JUMP JUMPDEST PUSH1 0x1 PUSH1 0x0 DUP4 DUP2 MSTORE PUSH1 0x20 ADD SWAP1 DUP2 MSTORE PUSH1 0x20 ADD PUSH1 0x0 KECCAK256 PUSH1 0x3 ADD PUSH1 0x0 SWAP1 SLOAD SWAP1 PUSH2 0x100 EXP SWAP1 DIV PUSH1 0xFF AND ISZERO PUSH2 0x496 JUMPI DUP1 PUSH1 0x1 PUSH1 0x0 DUP5 DUP2 MSTORE PUSH1 0x20 ADD SWAP1 DUP2 MSTORE PUSH1 0x20 ADD PUSH1 0x0 KECCAK256 PUSH1 0x1 ADD PUSH1 0x0 DUP3 DUP3 SLOAD PUSH2 0x48A SWAP2 SWAP1 PUSH2 0xE6D JUMP JUMPDEST SWAP3 POP POP DUP2 SWAP1 SSTORE POP PUSH2 0x4C8 JUMP JUMPDEST PUSH1 0x40 MLOAD PUSH32 0x7E8D96A900000000000000000000000000000000000000000000000000000000 DUP2 MSTORE PUSH1 0x4 ADD PUSH1 0x40 MLOAD DUP1 SWAP2 SUB SWAP1 REVERT JUMPDEST POP POP JUMP JUMPDEST PUSH1 0x1 PUSH1 0x20 MSTORE DUP1 PUSH1 0x0 MSTORE PUSH1 0x40 PUSH1 0x0 KECCAK256 PUSH1 0x0 SWAP2 POP SWAP1 POP DUP1 PUSH1 0x0 ADD SLOAD SWAP1 DUP1 PUSH1 0x1 ADD SLOAD SWAP1 DUP1 PUSH1 0x2 ADD DUP1 SLOAD PUSH2 0x4FB SWAP1 PUSH2 0xF77 JUMP JUMPDEST DUP1 PUSH1 0x1F ADD PUSH1 0x20 DUP1 SWAP2 DIV MUL PUSH1 0x20 ADD PUSH1 0x40 MLOAD SWAP1 DUP2 ADD PUSH1 0x40 MSTORE DUP1 SWAP3 SWAP2 SWAP1 DUP2 DUP2 MSTORE PUSH1 0x20 ADD DUP3 DUP1 SLOAD PUSH2 0x527 SWAP1 PUSH2 0xF77 JUMP JUMPDEST DUP1 ISZERO PUSH2 0x574 JUMPI DUP1 PUSH1 0x1F LT PUSH2 0x549 JUMPI PUSH2 0x100 DUP1 DUP4 SLOAD DIV MUL DUP4 MSTORE SWAP2 PUSH1 0x20 ADD SWAP2 PUSH2 0x574 JUMP JUMPDEST DUP3 ADD SWAP2 SWAP1 PUSH1 0x0 MSTORE PUSH1 0x20 PUSH1 0x0 KECCAK256 SWAP1 JUMPDEST DUP2 SLOAD DUP2 MSTORE SWAP1 PUSH1 0x1 ADD SWAP1 PUSH1 0x20 ADD DUP1 DUP4 GT PUSH2 0x557 JUMPI DUP3 SWAP1 SUB PUSH1 0x1F AND DUP3 ADD SWAP2 JUMPDEST POP POP POP POP POP SWAP1 DUP1 PUSH1 0x3 ADD PUSH1 0x0 SWAP1 SLOAD SWAP1 PUSH2 0x100 EXP SWAP1 DIV PUSH1 0xFF AND SWAP1 POP DUP5 JUMP JUMPDEST PUSH1 0x0 DUP1 SLOAD SWAP1 POP DUP2 LT DUP1 ISZERO PUSH2 0x603 JUMPI POP PUSH1 0x3 PUSH1 0x0 DUP3 DUP2 MSTORE PUSH1 0x20 ADD SWAP1 DUP2 MSTORE PUSH1 0x20 ADD PUSH1 0x0 KECCAK256 PUSH1 0x0 CALLER PUSH20 0xFFFFFFFFFFFFFFFFFFFFFFFFFFFFFFFFFFFFFFFF AND PUSH20 0xFFFFFFFFFFFFFFFFFFFFFFFFFFFFFFFFFFFFFFFF AND DUP2 MSTORE PUSH1 0x20 ADD SWAP1 DUP2 MSTORE PUSH1 0x20 ADD PUSH1 0x0 KECCAK256 PUSH1 0x2 ADD PUSH1 0x0 SWAP1 SLOAD SWAP1 PUSH2 0x100 EXP SWAP1 DIV PUSH1 0xFF AND ISZERO JUMPDEST ISZERO PUSH2 0x8EA JUMPI PUSH1 0x0 PUSH1 0x1 PUSH1 0x0 DUP4 DUP2 MSTORE PUSH1 0x20 ADD SWAP1 DUP2 MSTORE PUSH1 0x20 ADD PUSH1 0x0 KECCAK256 PUSH1 0x40 MLOAD DUP1 PUSH1 0x80 ADD PUSH1 0x40 MSTORE SWAP1 DUP2 PUSH1 0x0 DUP3 ADD SLOAD DUP2 MSTORE PUSH1 0x20 ADD PUSH1 0x1 DUP3 ADD SLOAD DUP2 MSTORE PUSH1 0x20 ADD PUSH1 0x2 DUP3 ADD DUP1 SLOAD PUSH2 0x64C SWAP1 PUSH2 0xF77 JUMP JUMPDEST DUP1 PUSH1 0x1F ADD PUSH1 0x20 DUP1 SWAP2 DIV MUL PUSH1 0x20 ADD PUSH1 0x40 MLOAD SWAP1 DUP2 ADD PUSH1 0x40 MSTORE DUP1 SWAP3 SWAP2 SWAP1 DUP2 DUP2 MSTORE PUSH1 0x20 ADD DUP3 DUP1 SLOAD PUSH2 0x678 SWAP1 PUSH2 0xF77 JUMP JUMPDEST DUP1 ISZERO PUSH2 0x6C5 JUMPI DUP1 PUSH1 0x1F LT PUSH2 0x69A JUMPI PUSH2 0x100 DUP1 DUP4 SLOAD DIV MUL DUP4 MSTORE SWAP2 PUSH1 0x20 ADD SWAP2 PUSH2 0x6C5 JUMP JUMPDEST DUP3 ADD SWAP2 SWAP1 PUSH1 0x0 MSTORE PUSH1 0x20 PUSH1 0x0 KECCAK256 SWAP1 JUMPDEST DUP2 SLOAD DUP2 MSTORE SWAP1 PUSH1 0x1 ADD SWAP1 PUSH1 0x20 ADD DUP1 DUP4 GT PUSH2 0x6A8 JUMPI DUP3 SWAP1 SUB PUSH1 0x1F AND DUP3 ADD SWAP2 JUMPDEST POP POP POP POP POP DUP2 MSTORE PUSH1 0x20 ADD PUSH1 0x3 DUP3 ADD PUSH1 0x0 SWAP1 SLOAD SWAP1 PUSH2 0x100 EXP SWAP1 DIV PUSH1 0xFF AND ISZERO ISZERO ISZERO ISZERO DUP2 MSTORE POP POP SWAP1 POP DUP1 PUSH1 0x0 ADD MLOAD CALLVALUE LT DUP1 PUSH2 0x701 JUMPI POP PUSH1 0x1 DUP2 PUSH1 0x20 ADD MLOAD LT JUMPDEST ISZERO PUSH2 0x738 JUMPI PUSH1 0x40 MLOAD PUSH32 0xF80236CC00000000000000000000000000000000000000000000000000000000 DUP2 MSTORE PUSH1 0x4 ADD PUSH1 0x40 MLOAD DUP1 SWAP2 SUB SWAP1 REVERT JUMPDEST PUSH2 0x740 PUSH2 0xB01 JUMP JUMPDEST NUMBER DUP2 PUSH1 0x0 ADD DUP2 DUP2 MSTORE POP POP DUP2 PUSH1 0x0 ADD MLOAD DUP2 PUSH1 0x20 ADD DUP2 DUP2 MSTORE POP POP PUSH1 0x1 DUP2 PUSH1 0x40 ADD SWAP1 ISZERO ISZERO SWAP1 DUP2 ISZERO ISZERO DUP2 MSTORE POP POP DUP1 PUSH1 0x3 PUSH1 0x0 DUP6 DUP2 MSTORE PUSH1 0x20 ADD SWAP1 DUP2 MSTORE PUSH1 0x20 ADD PUSH1 0x0 KECCAK256 PUSH1 0x0 CALLER PUSH20 0xFFFFFFFFFFFFFFFFFFFFFFFFFFFFFFFFFFFFFFFF AND PUSH20 0xFFFFFFFFFFFFFFFFFFFFFFFFFFFFFFFFFFFFFFFF AND DUP2 MSTORE PUSH1 0x20 ADD SWAP1 DUP2 MSTORE PUSH1 0x20 ADD PUSH1 0x0 KECCAK256 PUSH1 0x0 DUP3 ADD MLOAD DUP2 PUSH1 0x0 ADD SSTORE PUSH1 0x20 DUP3 ADD MLOAD DUP2 PUSH1 0x1 ADD SSTORE PUSH1 0x40 DUP3 ADD MLOAD DUP2 PUSH1 0x2 ADD PUSH1 0x0 PUSH2 0x100 EXP DUP2 SLOAD DUP2 PUSH1 0xFF MUL NOT AND SWAP1 DUP4 ISZERO ISZERO MUL OR SWAP1 SSTORE POP SWAP1 POP POP DUP2 PUSH1 0x20 ADD DUP1 MLOAD DUP1 SWAP2 SWAP1 PUSH2 0x803 SWAP1 PUSH2 0xF4D JUMP JUMPDEST DUP2 MSTORE POP POP DUP2 PUSH1 0x1 PUSH1 0x0 DUP6 DUP2 MSTORE PUSH1 0x20 ADD SWAP1 DUP2 MSTORE PUSH1 0x20 ADD PUSH1 0x0 KECCAK256 PUSH1 0x0 DUP3 ADD MLOAD DUP2 PUSH1 0x0 ADD SSTORE PUSH1 0x20 DUP3 ADD MLOAD DUP2 PUSH1 0x1 ADD SSTORE PUSH1 0x40 DUP3 ADD MLOAD DUP2 PUSH1 0x2 ADD SWAP1 DUP1 MLOAD SWAP1 PUSH1 0x20 ADD SWAP1 PUSH2 0x84B SWAP3 SWAP2 SWAP1 PUSH2 0x9F5 JUMP JUMPDEST POP PUSH1 0x60 DUP3 ADD MLOAD DUP2 PUSH1 0x3 ADD PUSH1 0x0 PUSH2 0x100 EXP DUP2 SLOAD DUP2 PUSH1 0xFF MUL NOT AND SWAP1 DUP4 ISZERO ISZERO MUL OR SWAP1 SSTORE POP SWAP1 POP POP PUSH1 0x4 PUSH1 0x0 DUP5 DUP2 MSTORE PUSH1 0x20 ADD SWAP1 DUP2 MSTORE PUSH1 0x20 ADD PUSH1 0x0 KECCAK256 CALLER SWAP1 DUP1 PUSH1 0x1 DUP2 SLOAD ADD DUP1 DUP3 SSTORE DUP1 SWAP2 POP POP PUSH1 0x1 SWAP1 SUB SWAP1 PUSH1 0x0 MSTORE PUSH1 0x20 PUSH1 0x0 KECCAK256 ADD PUSH1 0x0 SWAP1 SWAP2 SWAP1 SWAP2 SWAP1 SWAP2 PUSH2 0x100 EXP DUP2 SLOAD DUP2 PUSH20 0xFFFFFFFFFFFFFFFFFFFFFFFFFFFFFFFFFFFFFFFF MUL NOT AND SWAP1 DUP4 PUSH20 0xFFFFFFFFFFFFFFFFFFFFFFFFFFFFFFFFFFFFFFFF AND MUL OR SWAP1 SSTORE POP POP POP PUSH2 0x91C JUMP JUMPDEST PUSH1 0x40 MLOAD PUSH32 0xD42C9B8B00000000000000000000000000000000000000000000000000000000 DUP2 MSTORE PUSH1 0x4 ADD PUSH1 0x40 MLOAD DUP1 SWAP2 SUB SWAP1 REVERT JUMPDEST POP JUMP JUMPDEST PUSH1 0x0 DUP2 DUP2 SLOAD DUP2 LT PUSH2 0x92F JUMPI PUSH1 0x0 DUP1 REVERT JUMPDEST SWAP1 PUSH1 0x0 MSTORE PUSH1 0x20 PUSH1 0x0 KECCAK256 ADD PUSH1 0x0 SWAP2 POP SWAP1 POP DUP1 SLOAD PUSH2 0x94A SWAP1 PUSH2 0xF77 JUMP JUMPDEST DUP1 PUSH1 0x1F ADD PUSH1 0x20 DUP1 SWAP2 DIV MUL PUSH1 0x20 ADD PUSH1 0x40 MLOAD SWAP1 DUP2 ADD PUSH1 0x40 MSTORE DUP1 SWAP3 SWAP2 SWAP1 DUP2 DUP2 MSTORE PUSH1 0x20 ADD DUP3 DUP1 SLOAD PUSH2 0x976 SWAP1 PUSH2 0xF77 JUMP JUMPDEST DUP1 ISZERO PUSH2 0x9C3 JUMPI DUP1 PUSH1 0x1F LT PUSH2 0x998 JUMPI PUSH2 0x100 DUP1 DUP4 SLOAD DIV MUL DUP4 MSTORE SWAP2 PUSH1 0x20 ADD SWAP2 PUSH2 0x9C3 JUMP JUMPDEST DUP3 ADD SWAP2 SWAP1 PUSH1 0x0 MSTORE PUSH1 0x20 PUSH1 0x0 KECCAK256 SWAP1 JUMPDEST DUP2 SLOAD DUP2 MSTORE SWAP1 PUSH1 0x1 ADD SWAP1 PUSH1 0x20 ADD DUP1 DUP4 GT PUSH2 0x9A6 JUMPI DUP3 SWAP1 SUB PUSH1 0x1F AND DUP3 ADD SWAP2 JUMPDEST POP POP POP POP POP DUP2 JUMP JUMPDEST PUSH1 0x40 MLOAD DUP1 PUSH1 0x80 ADD PUSH1 0x40 MSTORE DUP1 PUSH1 0x0 DUP2 MSTORE PUSH1 0x20 ADD PUSH1 0x0 DUP2 MSTORE PUSH1 0x20 ADD PUSH1 0x60 DUP2 MSTORE PUSH1 0x20 ADD PUSH1 0x0 ISZERO ISZERO DUP2 MSTORE POP SWAP1 JUMP JUMPDEST DUP3 DUP1 SLOAD PUSH2 0xA01 SWAP1 PUSH2 0xF77 JUMP JUMPDEST SWAP1 PUSH1 0x0 MSTORE PUSH1 0x20 PUSH1 0x0 KECCAK256 SWAP1 PUSH1 0x1F ADD PUSH1 0x20 SWAP1 DIV DUP2 ADD SWAP3 DUP3 PUSH2 0xA23 JUMPI PUSH1 0x0 DUP6 SSTORE PUSH2 0xA6A JUMP JUMPDEST DUP3 PUSH1 0x1F LT PUSH2 0xA3C JUMPI DUP1 MLOAD PUSH1 0xFF NOT AND DUP4 DUP1 ADD OR DUP6 SSTORE PUSH2 0xA6A JUMP JUMPDEST DUP3 DUP1 ADD PUSH1 0x1 ADD DUP6 SSTORE DUP3 ISZERO PUSH2 0xA6A JUMPI SWAP2 DUP3 ADD JUMPDEST DUP3 DUP2 GT ISZERO PUSH2 0xA69 JUMPI DUP3 MLOAD DUP3 SSTORE SWAP2 PUSH1 0x20 ADD SWAP2 SWAP1 PUSH1 0x1 ADD SWAP1 PUSH2 0xA4E JUMP JUMPDEST JUMPDEST POP SWAP1 POP PUSH2 0xA77 SWAP2 SWAP1 PUSH2 0xB24 JUMP JUMPDEST POP SWAP1 JUMP JUMPDEST DUP3 DUP1 SLOAD PUSH2 0xA87 SWAP1 PUSH2 0xF77 JUMP JUMPDEST SWAP1 PUSH1 0x0 MSTORE PUSH1 0x20 PUSH1 0x0 KECCAK256 SWAP1 PUSH1 0x1F ADD PUSH1 0x20 SWAP1 DIV DUP2 ADD SWAP3 DUP3 PUSH2 0xAA9 JUMPI PUSH1 0x0 DUP6 SSTORE PUSH2 0xAF0 JUMP JUMPDEST DUP3 PUSH1 0x1F LT PUSH2 0xAC2 JUMPI DUP1 CALLDATALOAD PUSH1 0xFF NOT AND DUP4 DUP1 ADD OR DUP6 SSTORE PUSH2 0xAF0 JUMP JUMPDEST DUP3 DUP1 ADD PUSH1 0x1 ADD DUP6 SSTORE DUP3 ISZERO PUSH2 0xAF0 JUMPI SWAP2 DUP3 ADD JUMPDEST DUP3 DUP2 GT ISZERO PUSH2 0xAEF JUMPI DUP3 CALLDATALOAD DUP3 SSTORE SWAP2 PUSH1 0x20 ADD SWAP2 SWAP1 PUSH1 0x1 ADD SWAP1 PUSH2 0xAD4 JUMP JUMPDEST JUMPDEST POP SWAP1 POP PUSH2 0xAFD SWAP2 SWAP1 PUSH2 0xB24 JUMP JUMPDEST POP SWAP1 JUMP JUMPDEST PUSH1 0x40 MLOAD DUP1 PUSH1 0x60 ADD PUSH1 0x40 MSTORE DUP1 PUSH1 0x0 DUP2 MSTORE PUSH1 0x20 ADD PUSH1 0x0 DUP2 MSTORE PUSH1 0x20 ADD PUSH1 0x0 ISZERO ISZERO DUP2 MSTORE POP SWAP1 JUMP JUMPDEST JUMPDEST DUP1 DUP3 GT ISZERO PUSH2 0xB3D JUMPI PUSH1 0x0 DUP2 PUSH1 0x0 SWAP1 SSTORE POP PUSH1 0x1 ADD PUSH2 0xB25 JUMP JUMPDEST POP SWAP1 JUMP JUMPDEST PUSH1 0x0 DUP2 CALLDATALOAD SWAP1 POP PUSH2 0xB50 DUP2 PUSH2 0x1031 JUMP JUMPDEST SWAP3 SWAP2 POP POP JUMP JUMPDEST PUSH1 0x0 DUP1 DUP4 PUSH1 0x1F DUP5 ADD SLT PUSH2 0xB6C JUMPI PUSH2 0xB6B PUSH2 0x100C JUMP JUMPDEST JUMPDEST DUP3 CALLDATALOAD SWAP1 POP PUSH8 0xFFFFFFFFFFFFFFFF DUP2 GT ISZERO PUSH2 0xB89 JUMPI PUSH2 0xB88 PUSH2 0x1007 JUMP JUMPDEST JUMPDEST PUSH1 0x20 DUP4 ADD SWAP2 POP DUP4 PUSH1 0x1 DUP3 MUL DUP4 ADD GT ISZERO PUSH2 0xBA5 JUMPI PUSH2 0xBA4 PUSH2 0x1011 JUMP JUMPDEST JUMPDEST SWAP3 POP SWAP3 SWAP1 POP JUMP JUMPDEST PUSH1 0x0 DUP2 CALLDATALOAD SWAP1 POP PUSH2 0xBBB DUP2 PUSH2 0x1048 JUMP JUMPDEST SWAP3 SWAP2 POP POP JUMP JUMPDEST PUSH1 0x0 DUP1 PUSH1 0x0 DUP1 PUSH1 0x60 DUP6 DUP8 SUB SLT ISZERO PUSH2 0xBDB JUMPI PUSH2 0xBDA PUSH2 0x101B JUMP JUMPDEST JUMPDEST PUSH1 0x0 DUP6 ADD CALLDATALOAD PUSH8 0xFFFFFFFFFFFFFFFF DUP2 GT ISZERO PUSH2 0xBF9 JUMPI PUSH2 0xBF8 PUSH2 0x1016 JUMP JUMPDEST JUMPDEST PUSH2 0xC05 DUP8 DUP3 DUP9 ADD PUSH2 0xB56 JUMP JUMPDEST SWAP5 POP SWAP5 POP POP PUSH1 0x20 PUSH2 0xC18 DUP8 DUP3 DUP9 ADD PUSH2 0xBAC JUMP JUMPDEST SWAP3 POP POP PUSH1 0x40 PUSH2 0xC29 DUP8 DUP3 DUP9 ADD PUSH2 0xBAC JUMP JUMPDEST SWAP2 POP POP SWAP3 SWAP6 SWAP2 SWAP5 POP SWAP3 POP JUMP JUMPDEST PUSH1 0x0 PUSH1 0x20 DUP3 DUP5 SUB SLT ISZERO PUSH2 0xC4B JUMPI PUSH2 0xC4A PUSH2 0x101B JUMP JUMPDEST JUMPDEST PUSH1 0x0 PUSH2 0xC59 DUP5 DUP3 DUP6 ADD PUSH2 0xBAC JUMP JUMPDEST SWAP2 POP POP SWAP3 SWAP2 POP POP JUMP JUMPDEST PUSH1 0x0 DUP1 PUSH1 0x40 DUP4 DUP6 SUB SLT ISZERO PUSH2 0xC79 JUMPI PUSH2 0xC78 PUSH2 0x101B JUMP JUMPDEST JUMPDEST PUSH1 0x0 PUSH2 0xC87 DUP6 DUP3 DUP7 ADD PUSH2 0xBAC JUMP JUMPDEST SWAP3 POP POP PUSH1 0x20 PUSH2 0xC98 DUP6 DUP3 DUP7 ADD PUSH2 0xB41 JUMP JUMPDEST SWAP2 POP POP SWAP3 POP SWAP3 SWAP1 POP JUMP JUMPDEST PUSH1 0x0 DUP1 PUSH1 0x40 DUP4 DUP6 SUB SLT ISZERO PUSH2 0xCB9 JUMPI PUSH2 0xCB8 PUSH2 0x101B JUMP JUMPDEST JUMPDEST PUSH1 0x0 PUSH2 0xCC7 DUP6 DUP3 DUP7 ADD PUSH2 0xBAC JUMP JUMPDEST SWAP3 POP POP PUSH1 0x20 PUSH2 0xCD8 DUP6 DUP3 DUP7 ADD PUSH2 0xBAC JUMP JUMPDEST SWAP2 POP POP SWAP3 POP SWAP3 SWAP1 POP JUMP JUMPDEST PUSH2 0xCEB DUP2 PUSH2 0xEC3 JUMP JUMPDEST DUP3 MSTORE POP POP JUMP JUMPDEST PUSH2 0xCFA DUP2 PUSH2 0xED5 JUMP JUMPDEST DUP3 MSTORE POP POP JUMP JUMPDEST PUSH1 0x0 PUSH2 0xD0C DUP4 DUP6 PUSH2 0xE62 JUMP JUMPDEST SWAP4 POP PUSH2 0xD19 DUP4 DUP6 DUP5 PUSH2 0xF0B JUMP JUMPDEST DUP3 DUP5 ADD SWAP1 POP SWAP4 SWAP3 POP POP POP JUMP JUMPDEST PUSH1 0x0 PUSH2 0xD30 DUP3 PUSH2 0xE46 JUMP JUMPDEST PUSH2 0xD3A DUP2 DUP6 PUSH2 0xE51 JUMP JUMPDEST SWAP4 POP PUSH2 0xD4A DUP2 DUP6 PUSH1 0x20 DUP7 ADD PUSH2 0xF1A JUMP JUMPDEST PUSH2 0xD53 DUP2 PUSH2 0x1020 JUMP JUMPDEST DUP5 ADD SWAP2 POP POP SWAP3 SWAP2 POP POP JUMP JUMPDEST PUSH2 0xD67 DUP2 PUSH2 0xF01 JUMP JUMPDEST DUP3 MSTORE POP POP JUMP JUMPDEST PUSH1 0x0 PUSH2 0xD7A DUP3 DUP5 DUP7 PUSH2 0xD00 JUMP JUMPDEST SWAP2 POP DUP2 SWAP1 POP SWAP4 SWAP3 POP POP POP JUMP JUMPDEST PUSH1 0x0 PUSH1 0x20 DUP3 ADD SWAP1 POP PUSH2 0xD9B PUSH1 0x0 DUP4 ADD DUP5 PUSH2 0xCE2 JUMP JUMPDEST SWAP3 SWAP2 POP POP JUMP JUMPDEST PUSH1 0x0 PUSH1 0x20 DUP3 ADD SWAP1 POP DUP2 DUP2 SUB PUSH1 0x0 DUP4 ADD MSTORE PUSH2 0xDBB DUP2 DUP5 PUSH2 0xD25 JUMP JUMPDEST SWAP1 POP SWAP3 SWAP2 POP POP JUMP JUMPDEST PUSH1 0x0 PUSH1 0x60 DUP3 ADD SWAP1 POP PUSH2 0xDD8 PUSH1 0x0 DUP4 ADD DUP7 PUSH2 0xD5E JUMP JUMPDEST PUSH2 0xDE5 PUSH1 0x20 DUP4 ADD DUP6 PUSH2 0xD5E JUMP JUMPDEST PUSH2 0xDF2 PUSH1 0x40 DUP4 ADD DUP5 PUSH2 0xCF1 JUMP JUMPDEST SWAP5 SWAP4 POP POP POP POP JUMP JUMPDEST PUSH1 0x0 PUSH1 0x80 DUP3 ADD SWAP1 POP PUSH2 0xE0F PUSH1 0x0 DUP4 ADD DUP8 PUSH2 0xD5E JUMP JUMPDEST PUSH2 0xE1C PUSH1 0x20 DUP4 ADD DUP7 PUSH2 0xD5E JUMP JUMPDEST DUP2 DUP2 SUB PUSH1 0x40 DUP4 ADD MSTORE PUSH2 0xE2E DUP2 DUP6 PUSH2 0xD25 JUMP JUMPDEST SWAP1 POP PUSH2 0xE3D PUSH1 0x60 DUP4 ADD DUP5 PUSH2 0xCF1 JUMP JUMPDEST SWAP6 SWAP5 POP POP POP POP POP JUMP JUMPDEST PUSH1 0x0 DUP2 MLOAD SWAP1 POP SWAP2 SWAP1 POP JUMP JUMPDEST PUSH1 0x0 DUP3 DUP3 MSTORE PUSH1 0x20 DUP3 ADD SWAP1 POP SWAP3 SWAP2 POP POP JUMP JUMPDEST PUSH1 0x0 DUP2 SWAP1 POP SWAP3 SWAP2 POP POP JUMP JUMPDEST PUSH1 0x0 PUSH2 0xE78 DUP3 PUSH2 0xF01 JUMP JUMPDEST SWAP2 POP PUSH2 0xE83 DUP4 PUSH2 0xF01 JUMP JUMPDEST SWAP3 POP DUP3 PUSH32 0xFFFFFFFFFFFFFFFFFFFFFFFFFFFFFFFFFFFFFFFFFFFFFFFFFFFFFFFFFFFFFFFF SUB DUP3 GT ISZERO PUSH2 0xEB8 JUMPI PUSH2 0xEB7 PUSH2 0xFA9 JUMP JUMPDEST JUMPDEST DUP3 DUP3 ADD SWAP1 POP SWAP3 SWAP2 POP POP JUMP JUMPDEST PUSH1 0x0 PUSH2 0xECE DUP3 PUSH2 0xEE1 JUMP JUMPDEST SWAP1 POP SWAP2 SWAP1 POP JUMP JUMPDEST PUSH1 0x0 DUP2 ISZERO ISZERO SWAP1 POP SWAP2 SWAP1 POP JUMP JUMPDEST PUSH1 0x0 PUSH20 0xFFFFFFFFFFFFFFFFFFFFFFFFFFFFFFFFFFFFFFFF DUP3 AND SWAP1 POP SWAP2 SWAP1 POP JUMP JUMPDEST PUSH1 0x0 DUP2 SWAP1 POP SWAP2 SWAP1 POP JUMP JUMPDEST DUP3 DUP2 DUP4 CALLDATACOPY PUSH1 0x0 DUP4 DUP4 ADD MSTORE POP POP POP JUMP JUMPDEST PUSH1 0x0 JUMPDEST DUP4 DUP2 LT ISZERO PUSH2 0xF38 JUMPI DUP1 DUP3 ADD MLOAD DUP2 DUP5 ADD MSTORE PUSH1 0x20 DUP2 ADD SWAP1 POP PUSH2 0xF1D JUMP JUMPDEST DUP4 DUP2 GT ISZERO PUSH2 0xF47 JUMPI PUSH1 0x0 DUP5 DUP5 ADD MSTORE JUMPDEST POP POP POP POP JUMP JUMPDEST PUSH1 0x0 PUSH2 0xF58 DUP3 PUSH2 0xF01 JUMP JUMPDEST SWAP2 POP PUSH1 0x0 DUP3 EQ ISZERO PUSH2 0xF6C JUMPI PUSH2 0xF6B PUSH2 0xFA9 JUMP JUMPDEST JUMPDEST PUSH1 0x1 DUP3 SUB SWAP1 POP SWAP2 SWAP1 POP JUMP JUMPDEST PUSH1 0x0 PUSH1 0x2 DUP3 DIV SWAP1 POP PUSH1 0x1 DUP3 AND DUP1 PUSH2 0xF8F JUMPI PUSH1 0x7F DUP3 AND SWAP2 POP JUMPDEST PUSH1 0x20 DUP3 LT DUP2 EQ ISZERO PUSH2 0xFA3 JUMPI PUSH2 0xFA2 PUSH2 0xFD8 JUMP JUMPDEST JUMPDEST POP SWAP2 SWAP1 POP JUMP JUMPDEST PUSH32 0x4E487B7100000000000000000000000000000000000000000000000000000000 PUSH1 0x0 MSTORE PUSH1 0x11 PUSH1 0x4 MSTORE PUSH1 0x24 PUSH1 0x0 REVERT JUMPDEST PUSH32 0x4E487B7100000000000000000000000000000000000000000000000000000000 PUSH1 0x0 MSTORE PUSH1 0x22 PUSH1 0x4 MSTORE PUSH1 0x24 PUSH1 0x0 REVERT JUMPDEST PUSH1 0x0 DUP1 REVERT JUMPDEST PUSH1 0x0 DUP1 REVERT JUMPDEST PUSH1 0x0 DUP1 REVERT JUMPDEST PUSH1 0x0 DUP1 REVERT JUMPDEST PUSH1 0x0 DUP1 REVERT JUMPDEST PUSH1 0x0 PUSH1 0x1F NOT PUSH1 0x1F DUP4 ADD AND SWAP1 POP SWAP2 SWAP1 POP JUMP JUMPDEST PUSH2 0x103A DUP2 PUSH2 0xEC3 JUMP JUMPDEST DUP2 EQ PUSH2 0x1045 JUMPI PUSH1 0x0 DUP1 REVERT JUMPDEST POP JUMP JUMPDEST PUSH2 0x1051 DUP2 PUSH2 0xF01 JUMP JUMPDEST DUP2 EQ PUSH2 0x105C JUMPI PUSH1 0x0 DUP1 REVERT JUMPDEST POP JUMP INVALID LOG2 PUSH5 0x6970667358 0x22 SLT KECCAK256 0xF7 0x25 SWAP15 TIMESTAMP EXTCODEHASH 0xB0 DUP7 CALLDATACOPY 0x21 0x5F DUP5 CALLCODE SMOD DUP3 0xC2 0x1F 0xC2 ADD EXTCODECOPY 0xA9 SHL 0xD9 STATICCALL SWAP13 CALLDATALOAD 0xE2 PUSH6 0xE3B9C427E064 PUSH20 0x6F6C634300080700330000000000000000000000 "
				},
				"gasEstimates": {
					"creation": {
						"codeDepositCost": "849000",
						"executionCost": "859",
						"totalCost": "849859"
					},
					"external": {
						"addNewProduct(string,uint256,uint256)": "infinite",
						"availableProducts(uint256)": "infinite",
						"buyProduct(uint256)": "infinite",
						"buyers(uint256,uint256)": "infinite",
						"products(uint256)": "infinite",
						"transactions(uint256,address)": "infinite",
						"updateQuantity(uint256,uint256)": "infinite"
					}
				},
				"methodIdentifiers": {
					"addNewProduct(string,uint256,uint256)": "0a5bd44b",
					"availableProducts(uint256)": "e4bcc7d4",
					"buyProduct(uint256)": "8642269e",
					"buyers(uint256,uint256)": "27e7875a",
					"products(uint256)": "7acc0b20",
					"transactions(uint256,address)": "74cbc350",
					"updateQuantity(uint256,uint256)": "79cd4921"
				}
			},
			"storageLayout": {
				"storage": [
					{
						"astId": 39,
						"contract": "Project/TechnoLime.sol:TechnoLimeStore",
						"label": "availableProducts",
						"offset": 0,
						"slot": "0",
						"type": "t_array(t_string_storage)dyn_storage"
					},
					{
						"astId": 44,
						"contract": "Project/TechnoLime.sol:TechnoLimeStore",
						"label": "products",
						"offset": 0,
						"slot": "1",
						"type": "t_mapping(t_uint256,t_struct(Product)29_storage)"
					},
					{
						"astId": 48,
						"contract": "Project/TechnoLime.sol:TechnoLimeStore",
						"label": "productMap",
						"offset": 0,
						"slot": "2",
						"type": "t_mapping(t_string_memory_ptr,t_bool)"
					},
					{
						"astId": 55,
						"contract": "Project/TechnoLime.sol:TechnoLimeStore",
						"label": "transactions",
						"offset": 0,
						"slot": "3",
						"type": "t_mapping(t_uint256,t_mapping(t_address,t_struct(Transaction)36_storage))"
					},
					{
						"astId": 60,
						"contract": "Project/TechnoLime.sol:TechnoLimeStore",
						"label": "buyers",
						"offset": 0,
						"slot": "4",
						"type": "t_mapping(t_uint256,t_array(t_address)dyn_storage)"
					}
				],
				"types": {
					"t_address": {
						"encoding": "inplace",
						"label": "address",
						"numberOfBytes": "20"
					},
					"t_array(t_address)dyn_storage": {
						"base": "t_address",
						"encoding": "dynamic_array",
						"label": "address[]",
						"numberOfBytes": "32"
					},
					"t_array(t_string_storage)dyn_storage": {
						"base": "t_string_storage",
						"encoding": "dynamic_array",
						"label": "string[]",
						"numberOfBytes": "32"
					},
					"t_bool": {
						"encoding": "inplace",
						"label": "bool",
						"numberOfBytes": "1"
					},
					"t_mapping(t_address,t_struct(Transaction)36_storage)": {
						"encoding": "mapping",
						"key": "t_address",
						"label": "mapping(address => struct TechnoLimeStore.Transaction)",
						"numberOfBytes": "32",
						"value": "t_struct(Transaction)36_storage"
					},
					"t_mapping(t_string_memory_ptr,t_bool)": {
						"encoding": "mapping",
						"key": "t_string_memory_ptr",
						"label": "mapping(string => bool)",
						"numberOfBytes": "32",
						"value": "t_bool"
					},
					"t_mapping(t_uint256,t_array(t_address)dyn_storage)": {
						"encoding": "mapping",
						"key": "t_uint256",
						"label": "mapping(uint256 => address[])",
						"numberOfBytes": "32",
						"value": "t_array(t_address)dyn_storage"
					},
					"t_mapping(t_uint256,t_mapping(t_address,t_struct(Transaction)36_storage))": {
						"encoding": "mapping",
						"key": "t_uint256",
						"label": "mapping(uint256 => mapping(address => struct TechnoLimeStore.Transaction))",
						"numberOfBytes": "32",
						"value": "t_mapping(t_address,t_struct(Transaction)36_storage)"
					},
					"t_mapping(t_uint256,t_struct(Product)29_storage)": {
						"encoding": "mapping",
						"key": "t_uint256",
						"label": "mapping(uint256 => struct TechnoLimeStore.Product)",
						"numberOfBytes": "32",
						"value": "t_struct(Product)29_storage"
					},
					"t_string_memory_ptr": {
						"encoding": "bytes",
						"label": "string",
						"numberOfBytes": "32"
					},
					"t_string_storage": {
						"encoding": "bytes",
						"label": "string",
						"numberOfBytes": "32"
					},
					"t_struct(Product)29_storage": {
						"encoding": "inplace",
						"label": "struct TechnoLimeStore.Product",
						"members": [
							{
								"astId": 22,
								"contract": "Project/TechnoLime.sol:TechnoLimeStore",
								"label": "price",
								"offset": 0,
								"slot": "0",
								"type": "t_uint256"
							},
							{
								"astId": 24,
								"contract": "Project/TechnoLime.sol:TechnoLimeStore",
								"label": "quantity",
								"offset": 0,
								"slot": "1",
								"type": "t_uint256"
							},
							{
								"astId": 26,
								"contract": "Project/TechnoLime.sol:TechnoLimeStore",
								"label": "name",
								"offset": 0,
								"slot": "2",
								"type": "t_string_storage"
							},
							{
								"astId": 28,
								"contract": "Project/TechnoLime.sol:TechnoLimeStore",
								"label": "exists",
								"offset": 0,
								"slot": "3",
								"type": "t_bool"
							}
						],
						"numberOfBytes": "128"
					},
					"t_struct(Transaction)36_storage": {
						"encoding": "inplace",
						"label": "struct TechnoLimeStore.Transaction",
						"members": [
							{
								"astId": 31,
								"contract": "Project/TechnoLime.sol:TechnoLimeStore",
								"label": "blockNum",
								"offset": 0,
								"slot": "0",
								"type": "t_uint256"
							},
							{
								"astId": 33,
								"contract": "Project/TechnoLime.sol:TechnoLimeStore",
								"label": "price",
								"offset": 0,
								"slot": "1",
								"type": "t_uint256"
							},
							{
								"astId": 35,
								"contract": "Project/TechnoLime.sol:TechnoLimeStore",
								"label": "exists",
								"offset": 0,
								"slot": "2",
								"type": "t_bool"
							}
						],
						"numberOfBytes": "96"
					},
					"t_uint256": {
						"encoding": "inplace",
						"label": "uint256",
						"numberOfBytes": "32"
					}
				}
			},
			"userdoc": {
				"errors": {
					"ItemIdWrongOrBoughtAlready()": [
						{
							"notice": "Error trown when the productID doesn't exist or it has been bought once already"
						}
					],
					"LessThanPriceOrOutOfStock()": [
						{
							"notice": "Error trown when money sent is less than Product price"
						}
					],
					"ProductExists()": [
						{
							"notice": "Can't add a product that already exists"
						}
					]
				},
				"kind": "user",
				"methods": {},
				"version": 1
			}
		}
	}
}