{
	"Project/TechnoLime.sol": {
		"TechnoLimeStore": {
			"abi": [
				{
					"inputs": [],
					"stateMutability": "payable",
					"type": "constructor"
				},
				{
					"inputs": [],
					"name": "ItemIdWrongOrBoughtAlready",
					"type": "error"
				},
				{
					"inputs": [],
					"name": "LessThanPrice",
					"type": "error"
				},
				{
					"inputs": [],
					"name": "ProductExists",
					"type": "error"
				},
				{
					"inputs": [],
					"name": "ProductNotExistent",
					"type": "error"
				},
				{
					"inputs": [
						{
							"internalType": "string",
							"name": "productName",
							"type": "string"
						},
						{
							"internalType": "uint256",
							"name": "_price",
							"type": "uint256"
						},
						{
							"internalType": "uint256",
							"name": "_quantity",
							"type": "uint256"
						}
					],
					"name": "addNewProduct",
					"outputs": [],
					"stateMutability": "nonpayable",
					"type": "function"
				},
				{
					"inputs": [
						{
							"internalType": "uint256",
							"name": "",
							"type": "uint256"
						}
					],
					"name": "availableProducts",
					"outputs": [
						{
							"internalType": "string",
							"name": "",
							"type": "string"
						}
					],
					"stateMutability": "view",
					"type": "function"
				},
				{
					"inputs": [
						{
							"internalType": "uint256",
							"name": "ProductId",
							"type": "uint256"
						}
					],
					"name": "buyProduct",
					"outputs": [],
					"stateMutability": "payable",
					"type": "function"
				},
				{
					"inputs": [
						{
							"internalType": "uint256",
							"name": "ProductId",
							"type": "uint256"
						}
					],
					"name": "checkProductBuyers",
					"outputs": [
						{
							"internalType": "address",
							"name": "",
							"type": "address"
						}
					],
					"stateMutability": "view",
					"type": "function"
				},
				{
					"inputs": [
						{
							"internalType": "string",
							"name": "",
							"type": "string"
						}
					],
					"name": "products",
					"outputs": [
						{
							"internalType": "uint256",
							"name": "price",
							"type": "uint256"
						},
						{
							"internalType": "uint256",
							"name": "quantity",
							"type": "uint256"
						},
						{
							"internalType": "bool",
							"name": "exists",
							"type": "bool"
						}
					],
					"stateMutability": "view",
					"type": "function"
				},
				{
					"inputs": [
						{
							"internalType": "uint256",
							"name": "",
							"type": "uint256"
						},
						{
							"internalType": "address",
							"name": "",
							"type": "address"
						}
					],
					"name": "transactions",
					"outputs": [
						{
							"internalType": "uint256",
							"name": "blockNum",
							"type": "uint256"
						},
						{
							"internalType": "uint256",
							"name": "price",
							"type": "uint256"
						},
						{
							"internalType": "bool",
							"name": "exists",
							"type": "bool"
						}
					],
					"stateMutability": "view",
					"type": "function"
				},
				{
					"inputs": [
						{
							"internalType": "string",
							"name": "productName",
							"type": "string"
						},
						{
							"internalType": "uint256",
							"name": "_quantity",
							"type": "uint256"
						}
					],
					"name": "updateQuantity",
					"outputs": [],
					"stateMutability": "nonpayable",
					"type": "function"
				}
			],
			"devdoc": {
				"kind": "dev",
				"methods": {},
				"version": 1
			},
			"evm": {
				"assembly": "    /* \"Project/TechnoLime.sol\":98:3175  contract TechnoLimeStore {\r... */\n  mstore(0x40, 0x80)\n  dataSize(sub_0)\n  dup1\n  dataOffset(sub_0)\n  0x00\n  codecopy\n  0x00\n  return\nstop\n\nsub_0: assembly {\n        /* \"Project/TechnoLime.sol\":98:3175  contract TechnoLimeStore {\r... */\n      mstore(0x40, 0x80)\n      jumpi(tag_1, lt(calldatasize, 0x04))\n      shr(0xe0, calldataload(0x00))\n      dup1\n      0x74cbc350\n      gt\n      tag_9\n      jumpi\n      dup1\n      0x74cbc350\n      eq\n      tag_5\n      jumpi\n      dup1\n      0x74ce0ca9\n      eq\n      tag_6\n      jumpi\n      dup1\n      0x8642269e\n      eq\n      tag_7\n      jumpi\n      dup1\n      0xe4bcc7d4\n      eq\n      tag_8\n      jumpi\n      jump(tag_1)\n    tag_9:\n      dup1\n      0x0186a423\n      eq\n      tag_2\n      jumpi\n      dup1\n      0x0a5bd44b\n      eq\n      tag_3\n      jumpi\n      dup1\n      0x1d894eb8\n      eq\n      tag_4\n      jumpi\n    tag_1:\n      0x00\n      dup1\n      revert\n        /* \"Project/TechnoLime.sol\":381:423  mapping(string => Product) public products */\n    tag_2:\n      callvalue\n      dup1\n      iszero\n      tag_10\n      jumpi\n      0x00\n      dup1\n      revert\n    tag_10:\n      pop\n      tag_11\n      0x04\n      dup1\n      calldatasize\n      sub\n      dup2\n      add\n      swap1\n      tag_12\n      swap2\n      swap1\n      tag_13\n      jump\t// in\n    tag_12:\n      tag_14\n      jump\t// in\n    tag_11:\n      mload(0x40)\n      tag_15\n      swap4\n      swap3\n      swap2\n      swap1\n      tag_16\n      jump\t// in\n    tag_15:\n      mload(0x40)\n      dup1\n      swap2\n      sub\n      swap1\n      return\n        /* \"Project/TechnoLime.sol\":612:1200  function addNewProduct(string calldata productName, uint _price,uint _quantity) external{\r... */\n    tag_3:\n      callvalue\n      dup1\n      iszero\n      tag_17\n      jumpi\n      0x00\n      dup1\n      revert\n    tag_17:\n      pop\n      tag_18\n      0x04\n      dup1\n      calldatasize\n      sub\n      dup2\n      add\n      swap1\n      tag_19\n      swap2\n      swap1\n      tag_20\n      jump\t// in\n    tag_19:\n      tag_21\n      jump\t// in\n    tag_18:\n      stop\n        /* \"Project/TechnoLime.sol\":1208:1577  function updateQuantity(string calldata productName,uint _quantity) external{\r... */\n    tag_4:\n      callvalue\n      dup1\n      iszero\n      tag_22\n      jumpi\n      0x00\n      dup1\n      revert\n    tag_22:\n      pop\n      tag_23\n      0x04\n      dup1\n      calldatasize\n      sub\n      dup2\n      add\n      swap1\n      tag_24\n      swap2\n      swap1\n      tag_25\n      jump\t// in\n    tag_24:\n      tag_26\n      jump\t// in\n    tag_23:\n      stop\n        /* \"Project/TechnoLime.sol\":535:603  mapping(uint => mapping(address => Transaction)) public transactions */\n    tag_5:\n      callvalue\n      dup1\n      iszero\n      tag_27\n      jumpi\n      0x00\n      dup1\n      revert\n    tag_27:\n      pop\n      tag_28\n      0x04\n      dup1\n      calldatasize\n      sub\n      dup2\n      add\n      swap1\n      tag_29\n      swap2\n      swap1\n      tag_30\n      jump\t// in\n    tag_29:\n      tag_31\n      jump\t// in\n    tag_28:\n      mload(0x40)\n      tag_32\n      swap4\n      swap3\n      swap2\n      swap1\n      tag_16\n      jump\t// in\n    tag_32:\n      mload(0x40)\n      dup1\n      swap2\n      sub\n      swap1\n      return\n        /* \"Project/TechnoLime.sol\":2962:3166  function checkProductBuyers(uint ProductId) external view returns (address ){\r... */\n    tag_6:\n      callvalue\n      dup1\n      iszero\n      tag_33\n      jumpi\n      0x00\n      dup1\n      revert\n    tag_33:\n      pop\n      tag_34\n      0x04\n      dup1\n      calldatasize\n      sub\n      dup2\n      add\n      swap1\n      tag_35\n      swap2\n      swap1\n      tag_36\n      jump\t// in\n    tag_35:\n      tag_37\n      jump\t// in\n    tag_34:\n      mload(0x40)\n      tag_38\n      swap2\n      swap1\n      tag_39\n      jump\t// in\n    tag_38:\n      mload(0x40)\n      dup1\n      swap2\n      sub\n      swap1\n      return\n        /* \"Project/TechnoLime.sol\":1679:2954  function buyProduct (uint ProductId)  external payable { \r... */\n    tag_7:\n      tag_40\n      0x04\n      dup1\n      calldatasize\n      sub\n      dup2\n      add\n      swap1\n      tag_41\n      swap2\n      swap1\n      tag_36\n      jump\t// in\n    tag_41:\n      tag_42\n      jump\t// in\n    tag_40:\n      stop\n        /* \"Project/TechnoLime.sol\":341:374  string[] public availableProducts */\n    tag_8:\n      callvalue\n      dup1\n      iszero\n      tag_43\n      jumpi\n      0x00\n      dup1\n      revert\n    tag_43:\n      pop\n      tag_44\n      0x04\n      dup1\n      calldatasize\n      sub\n      dup2\n      add\n      swap1\n      tag_45\n      swap2\n      swap1\n      tag_36\n      jump\t// in\n    tag_45:\n      tag_46\n      jump\t// in\n    tag_44:\n      mload(0x40)\n      tag_47\n      swap2\n      swap1\n      tag_48\n      jump\t// in\n    tag_47:\n      mload(0x40)\n      dup1\n      swap2\n      sub\n      swap1\n      return\n        /* \"Project/TechnoLime.sol\":381:423  mapping(string => Product) public products */\n    tag_14:\n      0x01\n      dup2\n      dup1\n      mload\n      0x20\n      dup2\n      add\n      dup3\n      add\n      dup1\n      mload\n      dup5\n      dup3\n      mstore\n      0x20\n      dup4\n      add\n      0x20\n      dup6\n      add\n      keccak256\n      dup2\n      dup4\n      mstore\n      dup1\n      swap6\n      pop\n      pop\n      pop\n      pop\n      pop\n      pop\n      0x00\n      swap2\n      pop\n      swap1\n      pop\n      dup1\n      0x00\n      add\n      sload\n      swap1\n      dup1\n      0x01\n      add\n      sload\n      swap1\n      dup1\n      0x03\n      add\n      0x00\n      swap1\n      sload\n      swap1\n      0x0100\n      exp\n      swap1\n      div\n      0xff\n      and\n      swap1\n      pop\n      dup4\n      jump\t// out\n        /* \"Project/TechnoLime.sol\":612:1200  function addNewProduct(string calldata productName, uint _price,uint _quantity) external{\r... */\n    tag_21:\n        /* \"Project/TechnoLime.sol\":717:725  products */\n      0x01\n        /* \"Project/TechnoLime.sol\":726:737  productName */\n      dup5\n      dup5\n        /* \"Project/TechnoLime.sol\":717:738  products[productName] */\n      mload(0x40)\n      tag_50\n      swap3\n      swap2\n      swap1\n      tag_51\n      jump\t// in\n    tag_50:\n      swap1\n      dup2\n      mstore\n      0x20\n      add\n      mload(0x40)\n      dup1\n      swap2\n      sub\n      swap1\n      keccak256\n        /* \"Project/TechnoLime.sol\":717:745  products[productName].exists */\n      0x03\n      add\n      0x00\n      swap1\n      sload\n      swap1\n      0x0100\n      exp\n      swap1\n      div\n      0xff\n      and\n        /* \"Project/TechnoLime.sol\":712:1183  if (!products[productName].exists){\r... */\n      tag_52\n      jumpi\n        /* \"Project/TechnoLime.sol\":762:784  Product memory product */\n      tag_53\n      tag_54\n      jump\t// in\n    tag_53:\n        /* \"Project/TechnoLime.sol\":816:822  _price */\n      dup3\n        /* \"Project/TechnoLime.sol\":800:807  product */\n      dup2\n        /* \"Project/TechnoLime.sol\":800:813  product.price */\n      0x00\n      add\n        /* \"Project/TechnoLime.sol\":800:822  product.price = _price */\n      dup2\n      dup2\n      mstore\n      pop\n      pop\n        /* \"Project/TechnoLime.sol\":857:866  _quantity */\n      dup2\n        /* \"Project/TechnoLime.sol\":838:845  product */\n      dup2\n        /* \"Project/TechnoLime.sol\":838:854  product.quantity */\n      0x20\n      add\n        /* \"Project/TechnoLime.sol\":838:866  product.quantity = _quantity */\n      dup2\n      dup2\n      mstore\n      pop\n      pop\n        /* \"Project/TechnoLime.sol\":899:903  true */\n      0x01\n        /* \"Project/TechnoLime.sol\":882:889  product */\n      dup2\n        /* \"Project/TechnoLime.sol\":882:896  product.exists */\n      0x60\n      add\n        /* \"Project/TechnoLime.sol\":882:903  product.exists = true */\n      swap1\n      iszero\n      iszero\n      swap1\n      dup2\n      iszero\n      iszero\n      dup2\n      mstore\n      pop\n      pop\n        /* \"Project/TechnoLime.sol\":943:950  product */\n      dup1\n        /* \"Project/TechnoLime.sol\":919:927  products */\n      0x01\n        /* \"Project/TechnoLime.sol\":928:939  productName */\n      dup7\n      dup7\n        /* \"Project/TechnoLime.sol\":919:940  products[productName] */\n      mload(0x40)\n      tag_55\n      swap3\n      swap2\n      swap1\n      tag_51\n      jump\t// in\n    tag_55:\n      swap1\n      dup2\n      mstore\n      0x20\n      add\n      mload(0x40)\n      dup1\n      swap2\n      sub\n      swap1\n      keccak256\n        /* \"Project/TechnoLime.sol\":919:950  products[productName] = product */\n      0x00\n      dup3\n      add\n      mload\n      dup2\n      0x00\n      add\n      sstore\n      0x20\n      dup3\n      add\n      mload\n      dup2\n      0x01\n      add\n      sstore\n      0x40\n      dup3\n      add\n      mload\n      dup2\n      0x02\n      add\n      swap1\n      dup1\n      mload\n      swap1\n      0x20\n      add\n      swap1\n      tag_56\n      swap3\n      swap2\n      swap1\n      tag_57\n      jump\t// in\n    tag_56:\n      pop\n      0x60\n      dup3\n      add\n      mload\n      dup2\n      0x03\n      add\n      exp(0x0100, 0x00)\n      dup2\n      sload\n      dup2\n      0xff\n      mul\n      not\n      and\n      swap1\n      dup4\n      iszero\n      iszero\n      mul\n      or\n      swap1\n      sstore\n      pop\n      swap1\n      pop\n      pop\n        /* \"Project/TechnoLime.sol\":966:983  availableProducts */\n      0x00\n        /* \"Project/TechnoLime.sol\":989:1000  productName */\n      dup6\n      dup6\n        /* \"Project/TechnoLime.sol\":966:1001  availableProducts.push(productName) */\n      swap1\n      swap2\n      dup1\n      0x01\n      dup2\n      sload\n      add\n      dup1\n      dup3\n      sstore\n      dup1\n      swap2\n      pop\n      pop\n      0x01\n      swap1\n      sub\n      swap1\n      0x00\n      mstore\n      keccak256(0x00, 0x20)\n      add\n      0x00\n      swap1\n      swap2\n      swap3\n      swap1\n      swap2\n      swap3\n      swap1\n      swap2\n      swap3\n      swap1\n      swap2\n      swap3\n      pop\n      swap2\n      swap1\n      tag_59\n      swap3\n      swap2\n      swap1\n      tag_60\n      jump\t// in\n    tag_59:\n      pop\n        /* \"Project/TechnoLime.sol\":746:1014  {\r... */\n      pop\n        /* \"Project/TechnoLime.sol\":712:1183  if (!products[productName].exists){\r... */\n      jump(tag_61)\n    tag_52:\n        /* \"Project/TechnoLime.sol\":1148:1170  Errors.ProductExists() */\n      mload(0x40)\n      0xb185df3a00000000000000000000000000000000000000000000000000000000\n      dup2\n      mstore\n      0x04\n      add\n      mload(0x40)\n      dup1\n      swap2\n      sub\n      swap1\n      revert\n        /* \"Project/TechnoLime.sol\":712:1183  if (!products[productName].exists){\r... */\n    tag_61:\n        /* \"Project/TechnoLime.sol\":612:1200  function addNewProduct(string calldata productName, uint _price,uint _quantity) external{\r... */\n      pop\n      pop\n      pop\n      pop\n      jump\t// out\n        /* \"Project/TechnoLime.sol\":1208:1577  function updateQuantity(string calldata productName,uint _quantity) external{\r... */\n    tag_26:\n        /* \"Project/TechnoLime.sol\":1299:1307  products */\n      0x01\n        /* \"Project/TechnoLime.sol\":1308:1319  productName */\n      dup4\n      dup4\n        /* \"Project/TechnoLime.sol\":1299:1320  products[productName] */\n      mload(0x40)\n      tag_63\n      swap3\n      swap2\n      swap1\n      tag_51\n      jump\t// in\n    tag_63:\n      swap1\n      dup2\n      mstore\n      0x20\n      add\n      mload(0x40)\n      dup1\n      swap2\n      sub\n      swap1\n      keccak256\n        /* \"Project/TechnoLime.sol\":1299:1327  products[productName].exists */\n      0x03\n      add\n      0x00\n      swap1\n      sload\n      swap1\n      0x0100\n      exp\n      swap1\n      div\n      0xff\n      and\n        /* \"Project/TechnoLime.sol\":1295:1570  if (products[productName].exists){\r... */\n      iszero\n      tag_64\n      jumpi\n        /* \"Project/TechnoLime.sol\":1377:1386  _quantity */\n      dup1\n        /* \"Project/TechnoLime.sol\":1343:1351  products */\n      0x01\n        /* \"Project/TechnoLime.sol\":1352:1363  productName */\n      dup5\n      dup5\n        /* \"Project/TechnoLime.sol\":1343:1364  products[productName] */\n      mload(0x40)\n      tag_65\n      swap3\n      swap2\n      swap1\n      tag_51\n      jump\t// in\n    tag_65:\n      swap1\n      dup2\n      mstore\n      0x20\n      add\n      mload(0x40)\n      dup1\n      swap2\n      sub\n      swap1\n      keccak256\n        /* \"Project/TechnoLime.sol\":1343:1373  products[productName].quantity */\n      0x01\n      add\n      0x00\n        /* \"Project/TechnoLime.sol\":1343:1386  products[productName].quantity += _quantity */\n      dup3\n      dup3\n      sload\n      tag_66\n      swap2\n      swap1\n      tag_67\n      jump\t// in\n    tag_66:\n      swap3\n      pop\n      pop\n      dup2\n      swap1\n      sstore\n      pop\n        /* \"Project/TechnoLime.sol\":1295:1570  if (products[productName].exists){\r... */\n      jump(tag_68)\n    tag_64:\n        /* \"Project/TechnoLime.sol\":1531:1558  Errors.ProductNotExistent() */\n      mload(0x40)\n      0x7e8d96a900000000000000000000000000000000000000000000000000000000\n      dup2\n      mstore\n      0x04\n      add\n      mload(0x40)\n      dup1\n      swap2\n      sub\n      swap1\n      revert\n        /* \"Project/TechnoLime.sol\":1295:1570  if (products[productName].exists){\r... */\n    tag_68:\n        /* \"Project/TechnoLime.sol\":1208:1577  function updateQuantity(string calldata productName,uint _quantity) external{\r... */\n      pop\n      pop\n      pop\n      jump\t// out\n        /* \"Project/TechnoLime.sol\":535:603  mapping(uint => mapping(address => Transaction)) public transactions */\n    tag_31:\n      mstore(0x20, 0x02)\n      dup2\n      0x00\n      mstore\n      mstore(0x20, keccak256(0x00, 0x40))\n      dup1\n      0x00\n      mstore\n      keccak256(0x00, 0x40)\n      0x00\n      swap2\n      pop\n      swap2\n      pop\n      pop\n      dup1\n      0x00\n      add\n      sload\n      swap1\n      dup1\n      0x01\n      add\n      sload\n      swap1\n      dup1\n      0x02\n      add\n      0x00\n      swap1\n      sload\n      swap1\n      0x0100\n      exp\n      swap1\n      div\n      0xff\n      and\n      swap1\n      pop\n      dup4\n      jump\t// out\n        /* \"Project/TechnoLime.sol\":2962:3166  function checkProductBuyers(uint ProductId) external view returns (address ){\r... */\n    tag_37:\n        /* \"Project/TechnoLime.sol\":3029:3036  address */\n      0x00\n        /* \"Project/TechnoLime.sol\":3064:3081  availableProducts */\n      dup1\n        /* \"Project/TechnoLime.sol\":3064:3088  availableProducts.length */\n      dup1\n      sload\n      swap1\n      pop\n        /* \"Project/TechnoLime.sol\":3052:3061  ProductId */\n      dup3\n        /* \"Project/TechnoLime.sol\":3052:3088  ProductId < availableProducts.length */\n      lt\n        /* \"Project/TechnoLime.sol\":3049:3158  if(ProductId < availableProducts.length)\r... */\n      iszero\n      tag_70\n      jumpi\n        /* \"Project/TechnoLime.sol\":3110:3118  products */\n      0x01\n        /* \"Project/TechnoLime.sol\":3119:3136  availableProducts */\n      0x00\n        /* \"Project/TechnoLime.sol\":3137:3146  ProductId */\n      dup4\n        /* \"Project/TechnoLime.sol\":3119:3147  availableProducts[ProductId] */\n      dup2\n      sload\n      dup2\n      lt\n      tag_71\n      jumpi\n      tag_72\n      tag_73\n      jump\t// in\n    tag_72:\n    tag_71:\n      swap1\n      0x00\n      mstore\n      keccak256(0x00, 0x20)\n      add\n        /* \"Project/TechnoLime.sol\":3110:3148  products[availableProducts[ProductId]] */\n      mload(0x40)\n      tag_75\n      swap2\n      swap1\n      tag_76\n      jump\t// in\n    tag_75:\n      swap1\n      dup2\n      mstore\n      0x20\n      add\n      mload(0x40)\n      dup1\n      swap2\n      sub\n      swap1\n      keccak256\n        /* \"Project/TechnoLime.sol\":3110:3155  products[availableProducts[ProductId]].buyers */\n      0x02\n      add\n        /* \"Project/TechnoLime.sol\":3156:3157  0 */\n      0x00\n        /* \"Project/TechnoLime.sol\":3110:3158  products[availableProducts[ProductId]].buyers[0] */\n      dup2\n      sload\n      dup2\n      lt\n      tag_77\n      jumpi\n      tag_78\n      tag_73\n      jump\t// in\n    tag_78:\n    tag_77:\n      swap1\n      0x00\n      mstore\n      keccak256(0x00, 0x20)\n      add\n      0x00\n      swap1\n      sload\n      swap1\n      0x0100\n      exp\n      swap1\n      div\n      0xffffffffffffffffffffffffffffffffffffffff\n      and\n        /* \"Project/TechnoLime.sol\":3103:3158  return products[availableProducts[ProductId]].buyers[0] */\n      swap1\n      pop\n      jump(tag_69)\n        /* \"Project/TechnoLime.sol\":3049:3158  if(ProductId < availableProducts.length)\r... */\n    tag_70:\n        /* \"Project/TechnoLime.sol\":2962:3166  function checkProductBuyers(uint ProductId) external view returns (address ){\r... */\n    tag_69:\n      swap2\n      swap1\n      pop\n      jump\t// out\n        /* \"Project/TechnoLime.sol\":1679:2954  function buyProduct (uint ProductId)  external payable { \r... */\n    tag_42:\n        /* \"Project/TechnoLime.sol\":1845:1862  availableProducts */\n      0x00\n        /* \"Project/TechnoLime.sol\":1845:1869  availableProducts.length */\n      dup1\n      sload\n      swap1\n      pop\n        /* \"Project/TechnoLime.sol\":1833:1842  ProductId */\n      dup2\n        /* \"Project/TechnoLime.sol\":1833:1869  ProductId < availableProducts.length */\n      lt\n        /* \"Project/TechnoLime.sol\":1833:1916  ProductId < availableProducts.length && !transactions[ProductId][msg.sender].exists */\n      dup1\n      iszero\n      tag_81\n      jumpi\n      pop\n        /* \"Project/TechnoLime.sol\":1874:1886  transactions */\n      0x02\n        /* \"Project/TechnoLime.sol\":1874:1897  transactions[ProductId] */\n      0x00\n        /* \"Project/TechnoLime.sol\":1887:1896  ProductId */\n      dup3\n        /* \"Project/TechnoLime.sol\":1874:1897  transactions[ProductId] */\n      dup2\n      mstore\n      0x20\n      add\n      swap1\n      dup2\n      mstore\n      0x20\n      add\n      0x00\n      keccak256\n        /* \"Project/TechnoLime.sol\":1874:1909  transactions[ProductId][msg.sender] */\n      0x00\n        /* \"Project/TechnoLime.sol\":1898:1908  msg.sender */\n      caller\n        /* \"Project/TechnoLime.sol\":1874:1909  transactions[ProductId][msg.sender] */\n      0xffffffffffffffffffffffffffffffffffffffff\n      and\n      0xffffffffffffffffffffffffffffffffffffffff\n      and\n      dup2\n      mstore\n      0x20\n      add\n      swap1\n      dup2\n      mstore\n      0x20\n      add\n      0x00\n      keccak256\n        /* \"Project/TechnoLime.sol\":1874:1916  transactions[ProductId][msg.sender].exists */\n      0x02\n      add\n      0x00\n      swap1\n      sload\n      swap1\n      0x0100\n      exp\n      swap1\n      div\n      0xff\n      and\n        /* \"Project/TechnoLime.sol\":1873:1916  !transactions[ProductId][msg.sender].exists */\n      iszero\n        /* \"Project/TechnoLime.sol\":1833:1916  ProductId < availableProducts.length && !transactions[ProductId][msg.sender].exists */\n    tag_81:\n        /* \"Project/TechnoLime.sol\":1830:2926  if(ProductId < availableProducts.length && !transactions[ProductId][msg.sender].exists){\r... */\n      iszero\n      tag_82\n      jumpi\n        /* \"Project/TechnoLime.sol\":2069:2091  Product memory product */\n      0x00\n        /* \"Project/TechnoLime.sol\":2093:2101  products */\n      0x01\n        /* \"Project/TechnoLime.sol\":2102:2119  availableProducts */\n      0x00\n        /* \"Project/TechnoLime.sol\":2120:2129  ProductId */\n      dup4\n        /* \"Project/TechnoLime.sol\":2102:2130  availableProducts[ProductId] */\n      dup2\n      sload\n      dup2\n      lt\n      tag_83\n      jumpi\n      tag_84\n      tag_73\n      jump\t// in\n    tag_84:\n    tag_83:\n      swap1\n      0x00\n      mstore\n      keccak256(0x00, 0x20)\n      add\n        /* \"Project/TechnoLime.sol\":2093:2131  products[availableProducts[ProductId]] */\n      mload(0x40)\n      tag_86\n      swap2\n      swap1\n      tag_76\n      jump\t// in\n    tag_86:\n      swap1\n      dup2\n      mstore\n      0x20\n      add\n      mload(0x40)\n      dup1\n      swap2\n      sub\n      swap1\n      keccak256\n        /* \"Project/TechnoLime.sol\":2069:2131  Product memory product= products[availableProducts[ProductId]] */\n      mload(0x40)\n      dup1\n      0x80\n      add\n      0x40\n      mstore\n      swap1\n      dup2\n      0x00\n      dup3\n      add\n      sload\n      dup2\n      mstore\n      0x20\n      add\n      0x01\n      dup3\n      add\n      sload\n      dup2\n      mstore\n      0x20\n      add\n      0x02\n      dup3\n      add\n      dup1\n      sload\n      dup1\n      0x20\n      mul\n      0x20\n      add\n      mload(0x40)\n      swap1\n      dup2\n      add\n      0x40\n      mstore\n      dup1\n      swap3\n      swap2\n      swap1\n      dup2\n      dup2\n      mstore\n      0x20\n      add\n      dup3\n      dup1\n      sload\n      dup1\n      iszero\n      tag_87\n      jumpi\n      0x20\n      mul\n      dup3\n      add\n      swap2\n      swap1\n      0x00\n      mstore\n      keccak256(0x00, 0x20)\n      swap1\n    tag_88:\n      dup2\n      0x00\n      swap1\n      sload\n      swap1\n      0x0100\n      exp\n      swap1\n      div\n      0xffffffffffffffffffffffffffffffffffffffff\n      and\n      0xffffffffffffffffffffffffffffffffffffffff\n      and\n      dup2\n      mstore\n      0x20\n      add\n      swap1\n      0x01\n      add\n      swap1\n      dup1\n      dup4\n      gt\n      tag_88\n      jumpi\n    tag_87:\n      pop\n      pop\n      pop\n      pop\n      pop\n      dup2\n      mstore\n      0x20\n      add\n      0x03\n      dup3\n      add\n      0x00\n      swap1\n      sload\n      swap1\n      0x0100\n      exp\n      swap1\n      div\n      0xff\n      and\n      iszero\n      iszero\n      iszero\n      iszero\n      dup2\n      mstore\n      pop\n      pop\n      swap1\n      pop\n        /* \"Project/TechnoLime.sol\":2165:2172  product */\n      dup1\n        /* \"Project/TechnoLime.sol\":2165:2178  product.price */\n      0x00\n      add\n      mload\n        /* \"Project/TechnoLime.sol\":2153:2162  msg.value */\n      callvalue\n        /* \"Project/TechnoLime.sol\":2153:2178  msg.value < product.price */\n      lt\n        /* \"Project/TechnoLime.sol\":2150:2230  if(msg.value < product.price)\r... */\n      iszero\n      tag_89\n      jumpi\n        /* \"Project/TechnoLime.sol\":2208:2230  Errors.LessThanPrice() */\n      mload(0x40)\n      0x538d76e800000000000000000000000000000000000000000000000000000000\n      dup2\n      mstore\n      0x04\n      add\n      mload(0x40)\n      dup1\n      swap2\n      sub\n      swap1\n      revert\n        /* \"Project/TechnoLime.sol\":2150:2230  if(msg.value < product.price)\r... */\n    tag_89:\n        /* \"Project/TechnoLime.sol\":2251:2284  Transaction memory newTransaction */\n      tag_90\n      tag_91\n      jump\t// in\n    tag_90:\n        /* \"Project/TechnoLime.sol\":2329:2341  block.number */\n      number\n        /* \"Project/TechnoLime.sol\":2303:2317  newTransaction */\n      dup2\n        /* \"Project/TechnoLime.sol\":2303:2326  newTransaction.blockNum */\n      0x00\n      add\n        /* \"Project/TechnoLime.sol\":2303:2341  newTransaction.blockNum = block.number */\n      dup2\n      dup2\n      mstore\n      pop\n      pop\n        /* \"Project/TechnoLime.sol\":2383:2390  product */\n      dup2\n        /* \"Project/TechnoLime.sol\":2383:2396  product.price */\n      0x00\n      add\n      mload\n        /* \"Project/TechnoLime.sol\":2360:2374  newTransaction */\n      dup2\n        /* \"Project/TechnoLime.sol\":2360:2380  newTransaction.price */\n      0x20\n      add\n        /* \"Project/TechnoLime.sol\":2360:2396  newTransaction.price = product.price */\n      dup2\n      dup2\n      mstore\n      pop\n      pop\n        /* \"Project/TechnoLime.sol\":2439:2443  true */\n      0x01\n        /* \"Project/TechnoLime.sol\":2415:2429  newTransaction */\n      dup2\n        /* \"Project/TechnoLime.sol\":2415:2436  newTransaction.exists */\n      0x40\n      add\n        /* \"Project/TechnoLime.sol\":2415:2443  newTransaction.exists = true */\n      swap1\n      iszero\n      iszero\n      swap1\n      dup2\n      iszero\n      iszero\n      dup2\n      mstore\n      pop\n      pop\n        /* \"Project/TechnoLime.sol\":2536:2550  newTransaction */\n      dup1\n        /* \"Project/TechnoLime.sol\":2498:2510  transactions */\n      0x02\n        /* \"Project/TechnoLime.sol\":2498:2521  transactions[ProductId] */\n      0x00\n        /* \"Project/TechnoLime.sol\":2511:2520  ProductId */\n      dup6\n        /* \"Project/TechnoLime.sol\":2498:2521  transactions[ProductId] */\n      dup2\n      mstore\n      0x20\n      add\n      swap1\n      dup2\n      mstore\n      0x20\n      add\n      0x00\n      keccak256\n        /* \"Project/TechnoLime.sol\":2498:2533  transactions[ProductId][msg.sender] */\n      0x00\n        /* \"Project/TechnoLime.sol\":2522:2532  msg.sender */\n      caller\n        /* \"Project/TechnoLime.sol\":2498:2533  transactions[ProductId][msg.sender] */\n      0xffffffffffffffffffffffffffffffffffffffff\n      and\n      0xffffffffffffffffffffffffffffffffffffffff\n      and\n      dup2\n      mstore\n      0x20\n      add\n      swap1\n      dup2\n      mstore\n      0x20\n      add\n      0x00\n      keccak256\n        /* \"Project/TechnoLime.sol\":2498:2550  transactions[ProductId][msg.sender] = newTransaction */\n      0x00\n      dup3\n      add\n      mload\n      dup2\n      0x00\n      add\n      sstore\n      0x20\n      dup3\n      add\n      mload\n      dup2\n      0x01\n      add\n      sstore\n      0x40\n      dup3\n      add\n      mload\n      dup2\n      0x02\n      add\n      exp(0x0100, 0x00)\n      dup2\n      sload\n      dup2\n      0xff\n      mul\n      not\n      and\n      swap1\n      dup4\n      iszero\n      iszero\n      mul\n      or\n      swap1\n      sstore\n      pop\n      swap1\n      pop\n      pop\n        /* \"Project/TechnoLime.sol\":2642:2649  product */\n      dup2\n        /* \"Project/TechnoLime.sol\":2642:2658  product.quantity */\n      0x20\n      add\n        /* \"Project/TechnoLime.sol\":2642:2660  product.quantity-- */\n      dup1\n      mload\n      dup1\n      swap2\n      swap1\n      tag_92\n      swap1\n      tag_93\n      jump\t// in\n    tag_92:\n      dup2\n      mstore\n      pop\n      pop\n        /* \"Project/TechnoLime.sol\":2754:2761  product */\n      dup2\n        /* \"Project/TechnoLime.sol\":2715:2723  products */\n      0x01\n        /* \"Project/TechnoLime.sol\":2724:2741  availableProducts */\n      0x00\n        /* \"Project/TechnoLime.sol\":2742:2751  ProductId */\n      dup6\n        /* \"Project/TechnoLime.sol\":2724:2752  availableProducts[ProductId] */\n      dup2\n      sload\n      dup2\n      lt\n      tag_94\n      jumpi\n      tag_95\n      tag_73\n      jump\t// in\n    tag_95:\n    tag_94:\n      swap1\n      0x00\n      mstore\n      keccak256(0x00, 0x20)\n      add\n        /* \"Project/TechnoLime.sol\":2715:2753  products[availableProducts[ProductId]] */\n      mload(0x40)\n      tag_97\n      swap2\n      swap1\n      tag_76\n      jump\t// in\n    tag_97:\n      swap1\n      dup2\n      mstore\n      0x20\n      add\n      mload(0x40)\n      dup1\n      swap2\n      sub\n      swap1\n      keccak256\n        /* \"Project/TechnoLime.sol\":2715:2761  products[availableProducts[ProductId]]=product */\n      0x00\n      dup3\n      add\n      mload\n      dup2\n      0x00\n      add\n      sstore\n      0x20\n      dup3\n      add\n      mload\n      dup2\n      0x01\n      add\n      sstore\n      0x40\n      dup3\n      add\n      mload\n      dup2\n      0x02\n      add\n      swap1\n      dup1\n      mload\n      swap1\n      0x20\n      add\n      swap1\n      tag_98\n      swap3\n      swap2\n      swap1\n      tag_57\n      jump\t// in\n    tag_98:\n      pop\n      0x60\n      dup3\n      add\n      mload\n      dup2\n      0x03\n      add\n      exp(0x0100, 0x00)\n      dup2\n      sload\n      dup2\n      0xff\n      mul\n      not\n      and\n      swap1\n      dup4\n      iszero\n      iszero\n      mul\n      or\n      swap1\n      sstore\n      pop\n      swap1\n      pop\n      pop\n        /* \"Project/TechnoLime.sol\":1917:2777  {\r... */\n      pop\n      pop\n        /* \"Project/TechnoLime.sol\":1830:2926  if(ProductId < availableProducts.length && !transactions[ProductId][msg.sender].exists){\r... */\n      jump(tag_99)\n    tag_82:\n        /* \"Project/TechnoLime.sol\":2875:2910  Errors.ItemIdWrongOrBoughtAlready() */\n      mload(0x40)\n      0xd42c9b8b00000000000000000000000000000000000000000000000000000000\n      dup2\n      mstore\n      0x04\n      add\n      mload(0x40)\n      dup1\n      swap2\n      sub\n      swap1\n      revert\n        /* \"Project/TechnoLime.sol\":1830:2926  if(ProductId < availableProducts.length && !transactions[ProductId][msg.sender].exists){\r... */\n    tag_99:\n        /* \"Project/TechnoLime.sol\":1679:2954  function buyProduct (uint ProductId)  external payable { \r... */\n      pop\n      jump\t// out\n        /* \"Project/TechnoLime.sol\":341:374  string[] public availableProducts */\n    tag_46:\n      0x00\n      dup2\n      dup2\n      sload\n      dup2\n      lt\n      tag_100\n      jumpi\n      0x00\n      dup1\n      revert\n    tag_100:\n      swap1\n      0x00\n      mstore\n      keccak256(0x00, 0x20)\n      add\n      0x00\n      swap2\n      pop\n      swap1\n      pop\n      dup1\n      sload\n      tag_102\n      swap1\n      tag_103\n      jump\t// in\n    tag_102:\n      dup1\n      0x1f\n      add\n      0x20\n      dup1\n      swap2\n      div\n      mul\n      0x20\n      add\n      mload(0x40)\n      swap1\n      dup2\n      add\n      0x40\n      mstore\n      dup1\n      swap3\n      swap2\n      swap1\n      dup2\n      dup2\n      mstore\n      0x20\n      add\n      dup3\n      dup1\n      sload\n      tag_104\n      swap1\n      tag_103\n      jump\t// in\n    tag_104:\n      dup1\n      iszero\n      tag_105\n      jumpi\n      dup1\n      0x1f\n      lt\n      tag_106\n      jumpi\n      0x0100\n      dup1\n      dup4\n      sload\n      div\n      mul\n      dup4\n      mstore\n      swap2\n      0x20\n      add\n      swap2\n      jump(tag_105)\n    tag_106:\n      dup3\n      add\n      swap2\n      swap1\n      0x00\n      mstore\n      keccak256(0x00, 0x20)\n      swap1\n    tag_107:\n      dup2\n      sload\n      dup2\n      mstore\n      swap1\n      0x01\n      add\n      swap1\n      0x20\n      add\n      dup1\n      dup4\n      gt\n      tag_107\n      jumpi\n      dup3\n      swap1\n      sub\n      0x1f\n      and\n      dup3\n      add\n      swap2\n    tag_105:\n      pop\n      pop\n      pop\n      pop\n      pop\n      dup2\n      jump\t// out\n    tag_54:\n      mload(0x40)\n      dup1\n      0x80\n      add\n      0x40\n      mstore\n      dup1\n      0x00\n      dup2\n      mstore\n      0x20\n      add\n      0x00\n      dup2\n      mstore\n      0x20\n      add\n      0x60\n      dup2\n      mstore\n      0x20\n      add\n      iszero(iszero(0x00))\n      dup2\n      mstore\n      pop\n      swap1\n      jump\t// out\n    tag_57:\n      dup3\n      dup1\n      sload\n      dup3\n      dup3\n      sstore\n      swap1\n      0x00\n      mstore\n      keccak256(0x00, 0x20)\n      swap1\n      dup2\n      add\n      swap3\n      dup3\n      iszero\n      tag_108\n      jumpi\n      swap2\n      0x20\n      mul\n      dup3\n      add\n    tag_109:\n      dup3\n      dup2\n      gt\n      iszero\n      tag_110\n      jumpi\n      dup3\n      mload\n      dup3\n      exp(0x0100, 0x00)\n      dup2\n      sload\n      dup2\n      0xffffffffffffffffffffffffffffffffffffffff\n      mul\n      not\n      and\n      swap1\n      dup4\n      0xffffffffffffffffffffffffffffffffffffffff\n      and\n      mul\n      or\n      swap1\n      sstore\n      pop\n      swap2\n      0x20\n      add\n      swap2\n      swap1\n      0x01\n      add\n      swap1\n      jump(tag_109)\n    tag_110:\n    tag_108:\n      pop\n      swap1\n      pop\n      tag_111\n      swap2\n      swap1\n      tag_112\n      jump\t// in\n    tag_111:\n      pop\n      swap1\n      jump\t// out\n    tag_60:\n      dup3\n      dup1\n      sload\n      tag_113\n      swap1\n      tag_103\n      jump\t// in\n    tag_113:\n      swap1\n      0x00\n      mstore\n      keccak256(0x00, 0x20)\n      swap1\n      0x1f\n      add\n      0x20\n      swap1\n      div\n      dup2\n      add\n      swap3\n      dup3\n      tag_115\n      jumpi\n      0x00\n      dup6\n      sstore\n      jump(tag_114)\n    tag_115:\n      dup3\n      0x1f\n      lt\n      tag_116\n      jumpi\n      dup1\n      calldataload\n      not(0xff)\n      and\n      dup4\n      dup1\n      add\n      or\n      dup6\n      sstore\n      jump(tag_114)\n    tag_116:\n      dup3\n      dup1\n      add\n      0x01\n      add\n      dup6\n      sstore\n      dup3\n      iszero\n      tag_114\n      jumpi\n      swap2\n      dup3\n      add\n    tag_117:\n      dup3\n      dup2\n      gt\n      iszero\n      tag_118\n      jumpi\n      dup3\n      calldataload\n      dup3\n      sstore\n      swap2\n      0x20\n      add\n      swap2\n      swap1\n      0x01\n      add\n      swap1\n      jump(tag_117)\n    tag_118:\n    tag_114:\n      pop\n      swap1\n      pop\n      tag_119\n      swap2\n      swap1\n      tag_112\n      jump\t// in\n    tag_119:\n      pop\n      swap1\n      jump\t// out\n    tag_91:\n      mload(0x40)\n      dup1\n      0x60\n      add\n      0x40\n      mstore\n      dup1\n      0x00\n      dup2\n      mstore\n      0x20\n      add\n      0x00\n      dup2\n      mstore\n      0x20\n      add\n      iszero(iszero(0x00))\n      dup2\n      mstore\n      pop\n      swap1\n      jump\t// out\n    tag_112:\n    tag_120:\n      dup1\n      dup3\n      gt\n      iszero\n      tag_121\n      jumpi\n      0x00\n      dup2\n      0x00\n      swap1\n      sstore\n      pop\n      0x01\n      add\n      jump(tag_120)\n    tag_121:\n      pop\n      swap1\n      jump\t// out\n        /* \"#utility.yul\":7:419   */\n    tag_123:\n        /* \"#utility.yul\":85:90   */\n      0x00\n        /* \"#utility.yul\":110:176   */\n      tag_125\n        /* \"#utility.yul\":126:175   */\n      tag_126\n        /* \"#utility.yul\":168:174   */\n      dup5\n        /* \"#utility.yul\":126:175   */\n      tag_127\n      jump\t// in\n    tag_126:\n        /* \"#utility.yul\":110:176   */\n      tag_128\n      jump\t// in\n    tag_125:\n        /* \"#utility.yul\":101:176   */\n      swap1\n      pop\n        /* \"#utility.yul\":199:205   */\n      dup3\n        /* \"#utility.yul\":192:197   */\n      dup2\n        /* \"#utility.yul\":185:206   */\n      mstore\n        /* \"#utility.yul\":237:241   */\n      0x20\n        /* \"#utility.yul\":230:235   */\n      dup2\n        /* \"#utility.yul\":226:242   */\n      add\n        /* \"#utility.yul\":275:278   */\n      dup5\n        /* \"#utility.yul\":266:272   */\n      dup5\n        /* \"#utility.yul\":261:264   */\n      dup5\n        /* \"#utility.yul\":257:273   */\n      add\n        /* \"#utility.yul\":254:279   */\n      gt\n        /* \"#utility.yul\":251:363   */\n      iszero\n      tag_129\n      jumpi\n        /* \"#utility.yul\":282:361   */\n      tag_130\n      tag_131\n      jump\t// in\n    tag_130:\n        /* \"#utility.yul\":251:363   */\n    tag_129:\n        /* \"#utility.yul\":372:413   */\n      tag_132\n        /* \"#utility.yul\":406:412   */\n      dup5\n        /* \"#utility.yul\":401:404   */\n      dup3\n        /* \"#utility.yul\":396:399   */\n      dup6\n        /* \"#utility.yul\":372:413   */\n      tag_133\n      jump\t// in\n    tag_132:\n        /* \"#utility.yul\":91:419   */\n      pop\n        /* \"#utility.yul\":7:419   */\n      swap4\n      swap3\n      pop\n      pop\n      pop\n      jump\t// out\n        /* \"#utility.yul\":425:564   */\n    tag_134:\n        /* \"#utility.yul\":471:476   */\n      0x00\n        /* \"#utility.yul\":509:515   */\n      dup2\n        /* \"#utility.yul\":496:516   */\n      calldataload\n        /* \"#utility.yul\":487:516   */\n      swap1\n      pop\n        /* \"#utility.yul\":525:558   */\n      tag_136\n        /* \"#utility.yul\":552:557   */\n      dup2\n        /* \"#utility.yul\":525:558   */\n      tag_137\n      jump\t// in\n    tag_136:\n        /* \"#utility.yul\":425:564   */\n      swap3\n      swap2\n      pop\n      pop\n      jump\t// out\n        /* \"#utility.yul\":584:1137   */\n    tag_138:\n        /* \"#utility.yul\":642:650   */\n      0x00\n        /* \"#utility.yul\":652:658   */\n      dup1\n        /* \"#utility.yul\":702:705   */\n      dup4\n        /* \"#utility.yul\":695:699   */\n      0x1f\n        /* \"#utility.yul\":687:693   */\n      dup5\n        /* \"#utility.yul\":683:700   */\n      add\n        /* \"#utility.yul\":679:706   */\n      slt\n        /* \"#utility.yul\":669:791   */\n      tag_140\n      jumpi\n        /* \"#utility.yul\":710:789   */\n      tag_141\n      tag_142\n      jump\t// in\n    tag_141:\n        /* \"#utility.yul\":669:791   */\n    tag_140:\n        /* \"#utility.yul\":823:829   */\n      dup3\n        /* \"#utility.yul\":810:830   */\n      calldataload\n        /* \"#utility.yul\":800:830   */\n      swap1\n      pop\n        /* \"#utility.yul\":853:871   */\n      0xffffffffffffffff\n        /* \"#utility.yul\":845:851   */\n      dup2\n        /* \"#utility.yul\":842:872   */\n      gt\n        /* \"#utility.yul\":839:956   */\n      iszero\n      tag_143\n      jumpi\n        /* \"#utility.yul\":875:954   */\n      tag_144\n      tag_145\n      jump\t// in\n    tag_144:\n        /* \"#utility.yul\":839:956   */\n    tag_143:\n        /* \"#utility.yul\":989:993   */\n      0x20\n        /* \"#utility.yul\":981:987   */\n      dup4\n        /* \"#utility.yul\":977:994   */\n      add\n        /* \"#utility.yul\":965:994   */\n      swap2\n      pop\n        /* \"#utility.yul\":1043:1046   */\n      dup4\n        /* \"#utility.yul\":1035:1039   */\n      0x01\n        /* \"#utility.yul\":1027:1033   */\n      dup3\n        /* \"#utility.yul\":1023:1040   */\n      mul\n        /* \"#utility.yul\":1013:1021   */\n      dup4\n        /* \"#utility.yul\":1009:1041   */\n      add\n        /* \"#utility.yul\":1006:1047   */\n      gt\n        /* \"#utility.yul\":1003:1131   */\n      iszero\n      tag_146\n      jumpi\n        /* \"#utility.yul\":1050:1129   */\n      tag_147\n      tag_148\n      jump\t// in\n    tag_147:\n        /* \"#utility.yul\":1003:1131   */\n    tag_146:\n        /* \"#utility.yul\":584:1137   */\n      swap3\n      pop\n      swap3\n      swap1\n      pop\n      jump\t// out\n        /* \"#utility.yul\":1157:1497   */\n    tag_149:\n        /* \"#utility.yul\":1213:1218   */\n      0x00\n        /* \"#utility.yul\":1262:1265   */\n      dup3\n        /* \"#utility.yul\":1255:1259   */\n      0x1f\n        /* \"#utility.yul\":1247:1253   */\n      dup4\n        /* \"#utility.yul\":1243:1260   */\n      add\n        /* \"#utility.yul\":1239:1266   */\n      slt\n        /* \"#utility.yul\":1229:1351   */\n      tag_151\n      jumpi\n        /* \"#utility.yul\":1270:1349   */\n      tag_152\n      tag_142\n      jump\t// in\n    tag_152:\n        /* \"#utility.yul\":1229:1351   */\n    tag_151:\n        /* \"#utility.yul\":1387:1393   */\n      dup2\n        /* \"#utility.yul\":1374:1394   */\n      calldataload\n        /* \"#utility.yul\":1412:1491   */\n      tag_153\n        /* \"#utility.yul\":1487:1490   */\n      dup5\n        /* \"#utility.yul\":1479:1485   */\n      dup3\n        /* \"#utility.yul\":1472:1476   */\n      0x20\n        /* \"#utility.yul\":1464:1470   */\n      dup7\n        /* \"#utility.yul\":1460:1477   */\n      add\n        /* \"#utility.yul\":1412:1491   */\n      tag_123\n      jump\t// in\n    tag_153:\n        /* \"#utility.yul\":1403:1491   */\n      swap2\n      pop\n        /* \"#utility.yul\":1219:1497   */\n      pop\n        /* \"#utility.yul\":1157:1497   */\n      swap3\n      swap2\n      pop\n      pop\n      jump\t// out\n        /* \"#utility.yul\":1503:1642   */\n    tag_154:\n        /* \"#utility.yul\":1549:1554   */\n      0x00\n        /* \"#utility.yul\":1587:1593   */\n      dup2\n        /* \"#utility.yul\":1574:1594   */\n      calldataload\n        /* \"#utility.yul\":1565:1594   */\n      swap1\n      pop\n        /* \"#utility.yul\":1603:1636   */\n      tag_156\n        /* \"#utility.yul\":1630:1635   */\n      dup2\n        /* \"#utility.yul\":1603:1636   */\n      tag_157\n      jump\t// in\n    tag_156:\n        /* \"#utility.yul\":1503:1642   */\n      swap3\n      swap2\n      pop\n      pop\n      jump\t// out\n        /* \"#utility.yul\":1648:2322   */\n    tag_25:\n        /* \"#utility.yul\":1728:1734   */\n      0x00\n        /* \"#utility.yul\":1736:1742   */\n      dup1\n        /* \"#utility.yul\":1744:1750   */\n      0x00\n        /* \"#utility.yul\":1793:1795   */\n      0x40\n        /* \"#utility.yul\":1781:1790   */\n      dup5\n        /* \"#utility.yul\":1772:1779   */\n      dup7\n        /* \"#utility.yul\":1768:1791   */\n      sub\n        /* \"#utility.yul\":1764:1796   */\n      slt\n        /* \"#utility.yul\":1761:1880   */\n      iszero\n      tag_159\n      jumpi\n        /* \"#utility.yul\":1799:1878   */\n      tag_160\n      tag_161\n      jump\t// in\n    tag_160:\n        /* \"#utility.yul\":1761:1880   */\n    tag_159:\n        /* \"#utility.yul\":1947:1948   */\n      0x00\n        /* \"#utility.yul\":1936:1945   */\n      dup5\n        /* \"#utility.yul\":1932:1949   */\n      add\n        /* \"#utility.yul\":1919:1950   */\n      calldataload\n        /* \"#utility.yul\":1977:1995   */\n      0xffffffffffffffff\n        /* \"#utility.yul\":1969:1975   */\n      dup2\n        /* \"#utility.yul\":1966:1996   */\n      gt\n        /* \"#utility.yul\":1963:2080   */\n      iszero\n      tag_162\n      jumpi\n        /* \"#utility.yul\":1999:2078   */\n      tag_163\n      tag_164\n      jump\t// in\n    tag_163:\n        /* \"#utility.yul\":1963:2080   */\n    tag_162:\n        /* \"#utility.yul\":2112:2177   */\n      tag_165\n        /* \"#utility.yul\":2169:2176   */\n      dup7\n        /* \"#utility.yul\":2160:2166   */\n      dup3\n        /* \"#utility.yul\":2149:2158   */\n      dup8\n        /* \"#utility.yul\":2145:2167   */\n      add\n        /* \"#utility.yul\":2112:2177   */\n      tag_138\n      jump\t// in\n    tag_165:\n        /* \"#utility.yul\":2094:2177   */\n      swap4\n      pop\n      swap4\n      pop\n        /* \"#utility.yul\":1890:2187   */\n      pop\n        /* \"#utility.yul\":2226:2228   */\n      0x20\n        /* \"#utility.yul\":2252:2305   */\n      tag_166\n        /* \"#utility.yul\":2297:2304   */\n      dup7\n        /* \"#utility.yul\":2288:2294   */\n      dup3\n        /* \"#utility.yul\":2277:2286   */\n      dup8\n        /* \"#utility.yul\":2273:2295   */\n      add\n        /* \"#utility.yul\":2252:2305   */\n      tag_154\n      jump\t// in\n    tag_166:\n        /* \"#utility.yul\":2242:2305   */\n      swap2\n      pop\n        /* \"#utility.yul\":2197:2315   */\n      pop\n        /* \"#utility.yul\":1648:2322   */\n      swap3\n      pop\n      swap3\n      pop\n      swap3\n      jump\t// out\n        /* \"#utility.yul\":2328:3147   */\n    tag_20:\n        /* \"#utility.yul\":2417:2423   */\n      0x00\n        /* \"#utility.yul\":2425:2431   */\n      dup1\n        /* \"#utility.yul\":2433:2439   */\n      0x00\n        /* \"#utility.yul\":2441:2447   */\n      dup1\n        /* \"#utility.yul\":2490:2492   */\n      0x60\n        /* \"#utility.yul\":2478:2487   */\n      dup6\n        /* \"#utility.yul\":2469:2476   */\n      dup8\n        /* \"#utility.yul\":2465:2488   */\n      sub\n        /* \"#utility.yul\":2461:2493   */\n      slt\n        /* \"#utility.yul\":2458:2577   */\n      iszero\n      tag_168\n      jumpi\n        /* \"#utility.yul\":2496:2575   */\n      tag_169\n      tag_161\n      jump\t// in\n    tag_169:\n        /* \"#utility.yul\":2458:2577   */\n    tag_168:\n        /* \"#utility.yul\":2644:2645   */\n      0x00\n        /* \"#utility.yul\":2633:2642   */\n      dup6\n        /* \"#utility.yul\":2629:2646   */\n      add\n        /* \"#utility.yul\":2616:2647   */\n      calldataload\n        /* \"#utility.yul\":2674:2692   */\n      0xffffffffffffffff\n        /* \"#utility.yul\":2666:2672   */\n      dup2\n        /* \"#utility.yul\":2663:2693   */\n      gt\n        /* \"#utility.yul\":2660:2777   */\n      iszero\n      tag_170\n      jumpi\n        /* \"#utility.yul\":2696:2775   */\n      tag_171\n      tag_164\n      jump\t// in\n    tag_171:\n        /* \"#utility.yul\":2660:2777   */\n    tag_170:\n        /* \"#utility.yul\":2809:2874   */\n      tag_172\n        /* \"#utility.yul\":2866:2873   */\n      dup8\n        /* \"#utility.yul\":2857:2863   */\n      dup3\n        /* \"#utility.yul\":2846:2855   */\n      dup9\n        /* \"#utility.yul\":2842:2864   */\n      add\n        /* \"#utility.yul\":2809:2874   */\n      tag_138\n      jump\t// in\n    tag_172:\n        /* \"#utility.yul\":2791:2874   */\n      swap5\n      pop\n      swap5\n      pop\n        /* \"#utility.yul\":2587:2884   */\n      pop\n        /* \"#utility.yul\":2923:2925   */\n      0x20\n        /* \"#utility.yul\":2949:3002   */\n      tag_173\n        /* \"#utility.yul\":2994:3001   */\n      dup8\n        /* \"#utility.yul\":2985:2991   */\n      dup3\n        /* \"#utility.yul\":2974:2983   */\n      dup9\n        /* \"#utility.yul\":2970:2992   */\n      add\n        /* \"#utility.yul\":2949:3002   */\n      tag_154\n      jump\t// in\n    tag_173:\n        /* \"#utility.yul\":2939:3002   */\n      swap3\n      pop\n        /* \"#utility.yul\":2894:3012   */\n      pop\n        /* \"#utility.yul\":3051:3053   */\n      0x40\n        /* \"#utility.yul\":3077:3130   */\n      tag_174\n        /* \"#utility.yul\":3122:3129   */\n      dup8\n        /* \"#utility.yul\":3113:3119   */\n      dup3\n        /* \"#utility.yul\":3102:3111   */\n      dup9\n        /* \"#utility.yul\":3098:3120   */\n      add\n        /* \"#utility.yul\":3077:3130   */\n      tag_154\n      jump\t// in\n    tag_174:\n        /* \"#utility.yul\":3067:3130   */\n      swap2\n      pop\n        /* \"#utility.yul\":3022:3140   */\n      pop\n        /* \"#utility.yul\":2328:3147   */\n      swap3\n      swap6\n      swap2\n      swap5\n      pop\n      swap3\n      pop\n      jump\t// out\n        /* \"#utility.yul\":3153:3662   */\n    tag_13:\n        /* \"#utility.yul\":3222:3228   */\n      0x00\n        /* \"#utility.yul\":3271:3273   */\n      0x20\n        /* \"#utility.yul\":3259:3268   */\n      dup3\n        /* \"#utility.yul\":3250:3257   */\n      dup5\n        /* \"#utility.yul\":3246:3269   */\n      sub\n        /* \"#utility.yul\":3242:3274   */\n      slt\n        /* \"#utility.yul\":3239:3358   */\n      iszero\n      tag_176\n      jumpi\n        /* \"#utility.yul\":3277:3356   */\n      tag_177\n      tag_161\n      jump\t// in\n    tag_177:\n        /* \"#utility.yul\":3239:3358   */\n    tag_176:\n        /* \"#utility.yul\":3425:3426   */\n      0x00\n        /* \"#utility.yul\":3414:3423   */\n      dup3\n        /* \"#utility.yul\":3410:3427   */\n      add\n        /* \"#utility.yul\":3397:3428   */\n      calldataload\n        /* \"#utility.yul\":3455:3473   */\n      0xffffffffffffffff\n        /* \"#utility.yul\":3447:3453   */\n      dup2\n        /* \"#utility.yul\":3444:3474   */\n      gt\n        /* \"#utility.yul\":3441:3558   */\n      iszero\n      tag_178\n      jumpi\n        /* \"#utility.yul\":3477:3556   */\n      tag_179\n      tag_164\n      jump\t// in\n    tag_179:\n        /* \"#utility.yul\":3441:3558   */\n    tag_178:\n        /* \"#utility.yul\":3582:3645   */\n      tag_180\n        /* \"#utility.yul\":3637:3644   */\n      dup5\n        /* \"#utility.yul\":3628:3634   */\n      dup3\n        /* \"#utility.yul\":3617:3626   */\n      dup6\n        /* \"#utility.yul\":3613:3635   */\n      add\n        /* \"#utility.yul\":3582:3645   */\n      tag_149\n      jump\t// in\n    tag_180:\n        /* \"#utility.yul\":3572:3645   */\n      swap2\n      pop\n        /* \"#utility.yul\":3368:3655   */\n      pop\n        /* \"#utility.yul\":3153:3662   */\n      swap3\n      swap2\n      pop\n      pop\n      jump\t// out\n        /* \"#utility.yul\":3668:3997   */\n    tag_36:\n        /* \"#utility.yul\":3727:3733   */\n      0x00\n        /* \"#utility.yul\":3776:3778   */\n      0x20\n        /* \"#utility.yul\":3764:3773   */\n      dup3\n        /* \"#utility.yul\":3755:3762   */\n      dup5\n        /* \"#utility.yul\":3751:3774   */\n      sub\n        /* \"#utility.yul\":3747:3779   */\n      slt\n        /* \"#utility.yul\":3744:3863   */\n      iszero\n      tag_182\n      jumpi\n        /* \"#utility.yul\":3782:3861   */\n      tag_183\n      tag_161\n      jump\t// in\n    tag_183:\n        /* \"#utility.yul\":3744:3863   */\n    tag_182:\n        /* \"#utility.yul\":3902:3903   */\n      0x00\n        /* \"#utility.yul\":3927:3980   */\n      tag_184\n        /* \"#utility.yul\":3972:3979   */\n      dup5\n        /* \"#utility.yul\":3963:3969   */\n      dup3\n        /* \"#utility.yul\":3952:3961   */\n      dup6\n        /* \"#utility.yul\":3948:3970   */\n      add\n        /* \"#utility.yul\":3927:3980   */\n      tag_154\n      jump\t// in\n    tag_184:\n        /* \"#utility.yul\":3917:3980   */\n      swap2\n      pop\n        /* \"#utility.yul\":3873:3990   */\n      pop\n        /* \"#utility.yul\":3668:3997   */\n      swap3\n      swap2\n      pop\n      pop\n      jump\t// out\n        /* \"#utility.yul\":4003:4477   */\n    tag_30:\n        /* \"#utility.yul\":4071:4077   */\n      0x00\n        /* \"#utility.yul\":4079:4085   */\n      dup1\n        /* \"#utility.yul\":4128:4130   */\n      0x40\n        /* \"#utility.yul\":4116:4125   */\n      dup4\n        /* \"#utility.yul\":4107:4114   */\n      dup6\n        /* \"#utility.yul\":4103:4126   */\n      sub\n        /* \"#utility.yul\":4099:4131   */\n      slt\n        /* \"#utility.yul\":4096:4215   */\n      iszero\n      tag_186\n      jumpi\n        /* \"#utility.yul\":4134:4213   */\n      tag_187\n      tag_161\n      jump\t// in\n    tag_187:\n        /* \"#utility.yul\":4096:4215   */\n    tag_186:\n        /* \"#utility.yul\":4254:4255   */\n      0x00\n        /* \"#utility.yul\":4279:4332   */\n      tag_188\n        /* \"#utility.yul\":4324:4331   */\n      dup6\n        /* \"#utility.yul\":4315:4321   */\n      dup3\n        /* \"#utility.yul\":4304:4313   */\n      dup7\n        /* \"#utility.yul\":4300:4322   */\n      add\n        /* \"#utility.yul\":4279:4332   */\n      tag_154\n      jump\t// in\n    tag_188:\n        /* \"#utility.yul\":4269:4332   */\n      swap3\n      pop\n        /* \"#utility.yul\":4225:4342   */\n      pop\n        /* \"#utility.yul\":4381:4383   */\n      0x20\n        /* \"#utility.yul\":4407:4460   */\n      tag_189\n        /* \"#utility.yul\":4452:4459   */\n      dup6\n        /* \"#utility.yul\":4443:4449   */\n      dup3\n        /* \"#utility.yul\":4432:4441   */\n      dup7\n        /* \"#utility.yul\":4428:4450   */\n      add\n        /* \"#utility.yul\":4407:4460   */\n      tag_134\n      jump\t// in\n    tag_189:\n        /* \"#utility.yul\":4397:4460   */\n      swap2\n      pop\n        /* \"#utility.yul\":4352:4470   */\n      pop\n        /* \"#utility.yul\":4003:4477   */\n      swap3\n      pop\n      swap3\n      swap1\n      pop\n      jump\t// out\n        /* \"#utility.yul\":4483:4601   */\n    tag_190:\n        /* \"#utility.yul\":4570:4594   */\n      tag_192\n        /* \"#utility.yul\":4588:4593   */\n      dup2\n        /* \"#utility.yul\":4570:4594   */\n      tag_193\n      jump\t// in\n    tag_192:\n        /* \"#utility.yul\":4565:4568   */\n      dup3\n        /* \"#utility.yul\":4558:4595   */\n      mstore\n        /* \"#utility.yul\":4483:4601   */\n      pop\n      pop\n      jump\t// out\n        /* \"#utility.yul\":4607:4716   */\n    tag_194:\n        /* \"#utility.yul\":4688:4709   */\n      tag_196\n        /* \"#utility.yul\":4703:4708   */\n      dup2\n        /* \"#utility.yul\":4688:4709   */\n      tag_197\n      jump\t// in\n    tag_196:\n        /* \"#utility.yul\":4683:4686   */\n      dup3\n        /* \"#utility.yul\":4676:4710   */\n      mstore\n        /* \"#utility.yul\":4607:4716   */\n      pop\n      pop\n      jump\t// out\n        /* \"#utility.yul\":4746:5063   */\n    tag_198:\n        /* \"#utility.yul\":4862:4865   */\n      0x00\n        /* \"#utility.yul\":4883:4972   */\n      tag_200\n        /* \"#utility.yul\":4965:4971   */\n      dup4\n        /* \"#utility.yul\":4960:4963   */\n      dup6\n        /* \"#utility.yul\":4883:4972   */\n      tag_201\n      jump\t// in\n    tag_200:\n        /* \"#utility.yul\":4876:4972   */\n      swap4\n      pop\n        /* \"#utility.yul\":4982:5025   */\n      tag_202\n        /* \"#utility.yul\":5018:5024   */\n      dup4\n        /* \"#utility.yul\":5013:5016   */\n      dup6\n        /* \"#utility.yul\":5006:5011   */\n      dup5\n        /* \"#utility.yul\":4982:5025   */\n      tag_133\n      jump\t// in\n    tag_202:\n        /* \"#utility.yul\":5050:5056   */\n      dup3\n        /* \"#utility.yul\":5045:5048   */\n      dup5\n        /* \"#utility.yul\":5041:5057   */\n      add\n        /* \"#utility.yul\":5034:5057   */\n      swap1\n      pop\n        /* \"#utility.yul\":4746:5063   */\n      swap4\n      swap3\n      pop\n      pop\n      pop\n      jump\t// out\n        /* \"#utility.yul\":5069:5433   */\n    tag_203:\n        /* \"#utility.yul\":5157:5160   */\n      0x00\n        /* \"#utility.yul\":5185:5224   */\n      tag_205\n        /* \"#utility.yul\":5218:5223   */\n      dup3\n        /* \"#utility.yul\":5185:5224   */\n      tag_206\n      jump\t// in\n    tag_205:\n        /* \"#utility.yul\":5240:5311   */\n      tag_207\n        /* \"#utility.yul\":5304:5310   */\n      dup2\n        /* \"#utility.yul\":5299:5302   */\n      dup6\n        /* \"#utility.yul\":5240:5311   */\n      tag_208\n      jump\t// in\n    tag_207:\n        /* \"#utility.yul\":5233:5311   */\n      swap4\n      pop\n        /* \"#utility.yul\":5320:5372   */\n      tag_209\n        /* \"#utility.yul\":5365:5371   */\n      dup2\n        /* \"#utility.yul\":5360:5363   */\n      dup6\n        /* \"#utility.yul\":5353:5357   */\n      0x20\n        /* \"#utility.yul\":5346:5351   */\n      dup7\n        /* \"#utility.yul\":5342:5358   */\n      add\n        /* \"#utility.yul\":5320:5372   */\n      tag_210\n      jump\t// in\n    tag_209:\n        /* \"#utility.yul\":5397:5426   */\n      tag_211\n        /* \"#utility.yul\":5419:5425   */\n      dup2\n        /* \"#utility.yul\":5397:5426   */\n      tag_212\n      jump\t// in\n    tag_211:\n        /* \"#utility.yul\":5392:5395   */\n      dup5\n        /* \"#utility.yul\":5388:5427   */\n      add\n        /* \"#utility.yul\":5381:5427   */\n      swap2\n      pop\n        /* \"#utility.yul\":5161:5433   */\n      pop\n        /* \"#utility.yul\":5069:5433   */\n      swap3\n      swap2\n      pop\n      pop\n      jump\t// out\n        /* \"#utility.yul\":5463:6308   */\n    tag_213:\n        /* \"#utility.yul\":5566:5569   */\n      0x00\n        /* \"#utility.yul\":5603:5608   */\n      dup2\n        /* \"#utility.yul\":5597:5609   */\n      sload\n        /* \"#utility.yul\":5632:5668   */\n      tag_215\n        /* \"#utility.yul\":5658:5667   */\n      dup2\n        /* \"#utility.yul\":5632:5668   */\n      tag_103\n      jump\t// in\n    tag_215:\n        /* \"#utility.yul\":5684:5773   */\n      tag_216\n        /* \"#utility.yul\":5766:5772   */\n      dup2\n        /* \"#utility.yul\":5761:5764   */\n      dup7\n        /* \"#utility.yul\":5684:5773   */\n      tag_201\n      jump\t// in\n    tag_216:\n        /* \"#utility.yul\":5677:5773   */\n      swap5\n      pop\n        /* \"#utility.yul\":5804:5805   */\n      0x01\n        /* \"#utility.yul\":5793:5802   */\n      dup3\n        /* \"#utility.yul\":5789:5806   */\n      and\n        /* \"#utility.yul\":5820:5821   */\n      0x00\n        /* \"#utility.yul\":5815:5952   */\n      dup2\n      eq\n      tag_218\n      jumpi\n        /* \"#utility.yul\":5966:5967   */\n      0x01\n        /* \"#utility.yul\":5961:6302   */\n      dup2\n      eq\n      tag_219\n      jumpi\n        /* \"#utility.yul\":5782:6302   */\n      jump(tag_217)\n        /* \"#utility.yul\":5815:5952   */\n    tag_218:\n        /* \"#utility.yul\":5899:5903   */\n      0xff\n        /* \"#utility.yul\":5895:5904   */\n      not\n        /* \"#utility.yul\":5884:5893   */\n      dup4\n        /* \"#utility.yul\":5880:5905   */\n      and\n        /* \"#utility.yul\":5875:5878   */\n      dup7\n        /* \"#utility.yul\":5868:5906   */\n      mstore\n        /* \"#utility.yul\":5935:5941   */\n      dup2\n        /* \"#utility.yul\":5930:5933   */\n      dup7\n        /* \"#utility.yul\":5926:5942   */\n      add\n        /* \"#utility.yul\":5919:5942   */\n      swap4\n      pop\n        /* \"#utility.yul\":5815:5952   */\n      jump(tag_217)\n        /* \"#utility.yul\":5961:6302   */\n    tag_219:\n        /* \"#utility.yul\":6028:6066   */\n      tag_220\n        /* \"#utility.yul\":6060:6065   */\n      dup6\n        /* \"#utility.yul\":6028:6066   */\n      tag_221\n      jump\t// in\n    tag_220:\n        /* \"#utility.yul\":6088:6089   */\n      0x00\n        /* \"#utility.yul\":6102:6256   */\n    tag_222:\n        /* \"#utility.yul\":6116:6122   */\n      dup4\n        /* \"#utility.yul\":6113:6114   */\n      dup2\n        /* \"#utility.yul\":6110:6123   */\n      lt\n        /* \"#utility.yul\":6102:6256   */\n      iszero\n      tag_224\n      jumpi\n        /* \"#utility.yul\":6190:6197   */\n      dup2\n        /* \"#utility.yul\":6184:6198   */\n      sload\n        /* \"#utility.yul\":6180:6181   */\n      dup2\n        /* \"#utility.yul\":6175:6178   */\n      dup10\n        /* \"#utility.yul\":6171:6182   */\n      add\n        /* \"#utility.yul\":6164:6199   */\n      mstore\n        /* \"#utility.yul\":6240:6241   */\n      0x01\n        /* \"#utility.yul\":6231:6238   */\n      dup3\n        /* \"#utility.yul\":6227:6242   */\n      add\n        /* \"#utility.yul\":6216:6242   */\n      swap2\n      pop\n        /* \"#utility.yul\":6138:6142   */\n      0x20\n        /* \"#utility.yul\":6135:6136   */\n      dup2\n        /* \"#utility.yul\":6131:6143   */\n      add\n        /* \"#utility.yul\":6126:6143   */\n      swap1\n      pop\n        /* \"#utility.yul\":6102:6256   */\n      jump(tag_222)\n    tag_224:\n        /* \"#utility.yul\":6285:6291   */\n      dup4\n        /* \"#utility.yul\":6280:6283   */\n      dup9\n        /* \"#utility.yul\":6276:6292   */\n      add\n        /* \"#utility.yul\":6269:6292   */\n      swap6\n      pop\n        /* \"#utility.yul\":5968:6302   */\n      pop\n      pop\n        /* \"#utility.yul\":5782:6302   */\n    tag_217:\n      pop\n        /* \"#utility.yul\":5570:6308   */\n      pop\n      pop\n        /* \"#utility.yul\":5463:6308   */\n      swap3\n      swap2\n      pop\n      pop\n      jump\t// out\n        /* \"#utility.yul\":6314:6432   */\n    tag_225:\n        /* \"#utility.yul\":6401:6425   */\n      tag_227\n        /* \"#utility.yul\":6419:6424   */\n      dup2\n        /* \"#utility.yul\":6401:6425   */\n      tag_228\n      jump\t// in\n    tag_227:\n        /* \"#utility.yul\":6396:6399   */\n      dup3\n        /* \"#utility.yul\":6389:6426   */\n      mstore\n        /* \"#utility.yul\":6314:6432   */\n      pop\n      pop\n      jump\t// out\n        /* \"#utility.yul\":6438:6733   */\n    tag_51:\n        /* \"#utility.yul\":6580:6583   */\n      0x00\n        /* \"#utility.yul\":6602:6707   */\n      tag_230\n        /* \"#utility.yul\":6703:6706   */\n      dup3\n        /* \"#utility.yul\":6694:6700   */\n      dup5\n        /* \"#utility.yul\":6686:6692   */\n      dup7\n        /* \"#utility.yul\":6602:6707   */\n      tag_198\n      jump\t// in\n    tag_230:\n        /* \"#utility.yul\":6595:6707   */\n      swap2\n      pop\n        /* \"#utility.yul\":6724:6727   */\n      dup2\n        /* \"#utility.yul\":6717:6727   */\n      swap1\n      pop\n        /* \"#utility.yul\":6438:6733   */\n      swap4\n      swap3\n      pop\n      pop\n      pop\n      jump\t// out\n        /* \"#utility.yul\":6739:7008   */\n    tag_76:\n        /* \"#utility.yul\":6868:6871   */\n      0x00\n        /* \"#utility.yul\":6890:6982   */\n      tag_232\n        /* \"#utility.yul\":6978:6981   */\n      dup3\n        /* \"#utility.yul\":6969:6975   */\n      dup5\n        /* \"#utility.yul\":6890:6982   */\n      tag_213\n      jump\t// in\n    tag_232:\n        /* \"#utility.yul\":6883:6982   */\n      swap2\n      pop\n        /* \"#utility.yul\":6999:7002   */\n      dup2\n        /* \"#utility.yul\":6992:7002   */\n      swap1\n      pop\n        /* \"#utility.yul\":6739:7008   */\n      swap3\n      swap2\n      pop\n      pop\n      jump\t// out\n        /* \"#utility.yul\":7014:7236   */\n    tag_39:\n        /* \"#utility.yul\":7107:7111   */\n      0x00\n        /* \"#utility.yul\":7145:7147   */\n      0x20\n        /* \"#utility.yul\":7134:7143   */\n      dup3\n        /* \"#utility.yul\":7130:7148   */\n      add\n        /* \"#utility.yul\":7122:7148   */\n      swap1\n      pop\n        /* \"#utility.yul\":7158:7229   */\n      tag_234\n        /* \"#utility.yul\":7226:7227   */\n      0x00\n        /* \"#utility.yul\":7215:7224   */\n      dup4\n        /* \"#utility.yul\":7211:7228   */\n      add\n        /* \"#utility.yul\":7202:7208   */\n      dup5\n        /* \"#utility.yul\":7158:7229   */\n      tag_190\n      jump\t// in\n    tag_234:\n        /* \"#utility.yul\":7014:7236   */\n      swap3\n      swap2\n      pop\n      pop\n      jump\t// out\n        /* \"#utility.yul\":7242:7555   */\n    tag_48:\n        /* \"#utility.yul\":7355:7359   */\n      0x00\n        /* \"#utility.yul\":7393:7395   */\n      0x20\n        /* \"#utility.yul\":7382:7391   */\n      dup3\n        /* \"#utility.yul\":7378:7396   */\n      add\n        /* \"#utility.yul\":7370:7396   */\n      swap1\n      pop\n        /* \"#utility.yul\":7442:7451   */\n      dup2\n        /* \"#utility.yul\":7436:7440   */\n      dup2\n        /* \"#utility.yul\":7432:7452   */\n      sub\n        /* \"#utility.yul\":7428:7429   */\n      0x00\n        /* \"#utility.yul\":7417:7426   */\n      dup4\n        /* \"#utility.yul\":7413:7430   */\n      add\n        /* \"#utility.yul\":7406:7453   */\n      mstore\n        /* \"#utility.yul\":7470:7548   */\n      tag_236\n        /* \"#utility.yul\":7543:7547   */\n      dup2\n        /* \"#utility.yul\":7534:7540   */\n      dup5\n        /* \"#utility.yul\":7470:7548   */\n      tag_203\n      jump\t// in\n    tag_236:\n        /* \"#utility.yul\":7462:7548   */\n      swap1\n      pop\n        /* \"#utility.yul\":7242:7555   */\n      swap3\n      swap2\n      pop\n      pop\n      jump\t// out\n        /* \"#utility.yul\":7561:7991   */\n    tag_16:\n        /* \"#utility.yul\":7704:7708   */\n      0x00\n        /* \"#utility.yul\":7742:7744   */\n      0x60\n        /* \"#utility.yul\":7731:7740   */\n      dup3\n        /* \"#utility.yul\":7727:7745   */\n      add\n        /* \"#utility.yul\":7719:7745   */\n      swap1\n      pop\n        /* \"#utility.yul\":7755:7826   */\n      tag_238\n        /* \"#utility.yul\":7823:7824   */\n      0x00\n        /* \"#utility.yul\":7812:7821   */\n      dup4\n        /* \"#utility.yul\":7808:7825   */\n      add\n        /* \"#utility.yul\":7799:7805   */\n      dup7\n        /* \"#utility.yul\":7755:7826   */\n      tag_225\n      jump\t// in\n    tag_238:\n        /* \"#utility.yul\":7836:7908   */\n      tag_239\n        /* \"#utility.yul\":7904:7906   */\n      0x20\n        /* \"#utility.yul\":7893:7902   */\n      dup4\n        /* \"#utility.yul\":7889:7907   */\n      add\n        /* \"#utility.yul\":7880:7886   */\n      dup6\n        /* \"#utility.yul\":7836:7908   */\n      tag_225\n      jump\t// in\n    tag_239:\n        /* \"#utility.yul\":7918:7984   */\n      tag_240\n        /* \"#utility.yul\":7980:7982   */\n      0x40\n        /* \"#utility.yul\":7969:7978   */\n      dup4\n        /* \"#utility.yul\":7965:7983   */\n      add\n        /* \"#utility.yul\":7956:7962   */\n      dup5\n        /* \"#utility.yul\":7918:7984   */\n      tag_194\n      jump\t// in\n    tag_240:\n        /* \"#utility.yul\":7561:7991   */\n      swap5\n      swap4\n      pop\n      pop\n      pop\n      pop\n      jump\t// out\n        /* \"#utility.yul\":7997:8126   */\n    tag_128:\n        /* \"#utility.yul\":8031:8037   */\n      0x00\n        /* \"#utility.yul\":8058:8078   */\n      tag_242\n      tag_243\n      jump\t// in\n    tag_242:\n        /* \"#utility.yul\":8048:8078   */\n      swap1\n      pop\n        /* \"#utility.yul\":8087:8120   */\n      tag_244\n        /* \"#utility.yul\":8115:8119   */\n      dup3\n        /* \"#utility.yul\":8107:8113   */\n      dup3\n        /* \"#utility.yul\":8087:8120   */\n      tag_245\n      jump\t// in\n    tag_244:\n        /* \"#utility.yul\":7997:8126   */\n      swap2\n      swap1\n      pop\n      jump\t// out\n        /* \"#utility.yul\":8132:8207   */\n    tag_243:\n        /* \"#utility.yul\":8165:8171   */\n      0x00\n        /* \"#utility.yul\":8198:8200   */\n      0x40\n        /* \"#utility.yul\":8192:8201   */\n      mload\n        /* \"#utility.yul\":8182:8201   */\n      swap1\n      pop\n        /* \"#utility.yul\":8132:8207   */\n      swap1\n      jump\t// out\n        /* \"#utility.yul\":8213:8521   */\n    tag_127:\n        /* \"#utility.yul\":8275:8279   */\n      0x00\n        /* \"#utility.yul\":8365:8383   */\n      0xffffffffffffffff\n        /* \"#utility.yul\":8357:8363   */\n      dup3\n        /* \"#utility.yul\":8354:8384   */\n      gt\n        /* \"#utility.yul\":8351:8407   */\n      iszero\n      tag_248\n      jumpi\n        /* \"#utility.yul\":8387:8405   */\n      tag_249\n      tag_250\n      jump\t// in\n    tag_249:\n        /* \"#utility.yul\":8351:8407   */\n    tag_248:\n        /* \"#utility.yul\":8425:8454   */\n      tag_251\n        /* \"#utility.yul\":8447:8453   */\n      dup3\n        /* \"#utility.yul\":8425:8454   */\n      tag_212\n      jump\t// in\n    tag_251:\n        /* \"#utility.yul\":8417:8454   */\n      swap1\n      pop\n        /* \"#utility.yul\":8509:8513   */\n      0x20\n        /* \"#utility.yul\":8503:8507   */\n      dup2\n        /* \"#utility.yul\":8499:8514   */\n      add\n        /* \"#utility.yul\":8491:8514   */\n      swap1\n      pop\n        /* \"#utility.yul\":8213:8521   */\n      swap2\n      swap1\n      pop\n      jump\t// out\n        /* \"#utility.yul\":8527:8668   */\n    tag_221:\n        /* \"#utility.yul\":8576:8580   */\n      0x00\n        /* \"#utility.yul\":8599:8602   */\n      dup2\n        /* \"#utility.yul\":8591:8602   */\n      swap1\n      pop\n        /* \"#utility.yul\":8622:8625   */\n      dup2\n        /* \"#utility.yul\":8619:8620   */\n      0x00\n        /* \"#utility.yul\":8612:8626   */\n      mstore\n        /* \"#utility.yul\":8656:8660   */\n      0x20\n        /* \"#utility.yul\":8653:8654   */\n      0x00\n        /* \"#utility.yul\":8643:8661   */\n      keccak256\n        /* \"#utility.yul\":8635:8661   */\n      swap1\n      pop\n        /* \"#utility.yul\":8527:8668   */\n      swap2\n      swap1\n      pop\n      jump\t// out\n        /* \"#utility.yul\":8674:8773   */\n    tag_206:\n        /* \"#utility.yul\":8726:8732   */\n      0x00\n        /* \"#utility.yul\":8760:8765   */\n      dup2\n        /* \"#utility.yul\":8754:8766   */\n      mload\n        /* \"#utility.yul\":8744:8766   */\n      swap1\n      pop\n        /* \"#utility.yul\":8674:8773   */\n      swap2\n      swap1\n      pop\n      jump\t// out\n        /* \"#utility.yul\":8779:8948   */\n    tag_208:\n        /* \"#utility.yul\":8863:8874   */\n      0x00\n        /* \"#utility.yul\":8897:8903   */\n      dup3\n        /* \"#utility.yul\":8892:8895   */\n      dup3\n        /* \"#utility.yul\":8885:8904   */\n      mstore\n        /* \"#utility.yul\":8937:8941   */\n      0x20\n        /* \"#utility.yul\":8932:8935   */\n      dup3\n        /* \"#utility.yul\":8928:8942   */\n      add\n        /* \"#utility.yul\":8913:8942   */\n      swap1\n      pop\n        /* \"#utility.yul\":8779:8948   */\n      swap3\n      swap2\n      pop\n      pop\n      jump\t// out\n        /* \"#utility.yul\":8954:9102   */\n    tag_201:\n        /* \"#utility.yul\":9056:9067   */\n      0x00\n        /* \"#utility.yul\":9093:9096   */\n      dup2\n        /* \"#utility.yul\":9078:9096   */\n      swap1\n      pop\n        /* \"#utility.yul\":8954:9102   */\n      swap3\n      swap2\n      pop\n      pop\n      jump\t// out\n        /* \"#utility.yul\":9108:9413   */\n    tag_67:\n        /* \"#utility.yul\":9148:9151   */\n      0x00\n        /* \"#utility.yul\":9167:9187   */\n      tag_257\n        /* \"#utility.yul\":9185:9186   */\n      dup3\n        /* \"#utility.yul\":9167:9187   */\n      tag_228\n      jump\t// in\n    tag_257:\n        /* \"#utility.yul\":9162:9187   */\n      swap2\n      pop\n        /* \"#utility.yul\":9201:9221   */\n      tag_258\n        /* \"#utility.yul\":9219:9220   */\n      dup4\n        /* \"#utility.yul\":9201:9221   */\n      tag_228\n      jump\t// in\n    tag_258:\n        /* \"#utility.yul\":9196:9221   */\n      swap3\n      pop\n        /* \"#utility.yul\":9355:9356   */\n      dup3\n        /* \"#utility.yul\":9287:9353   */\n      0xffffffffffffffffffffffffffffffffffffffffffffffffffffffffffffffff\n        /* \"#utility.yul\":9283:9357   */\n      sub\n        /* \"#utility.yul\":9280:9281   */\n      dup3\n        /* \"#utility.yul\":9277:9358   */\n      gt\n        /* \"#utility.yul\":9274:9381   */\n      iszero\n      tag_259\n      jumpi\n        /* \"#utility.yul\":9361:9379   */\n      tag_260\n      tag_261\n      jump\t// in\n    tag_260:\n        /* \"#utility.yul\":9274:9381   */\n    tag_259:\n        /* \"#utility.yul\":9405:9406   */\n      dup3\n        /* \"#utility.yul\":9402:9403   */\n      dup3\n        /* \"#utility.yul\":9398:9407   */\n      add\n        /* \"#utility.yul\":9391:9407   */\n      swap1\n      pop\n        /* \"#utility.yul\":9108:9413   */\n      swap3\n      swap2\n      pop\n      pop\n      jump\t// out\n        /* \"#utility.yul\":9419:9515   */\n    tag_193:\n        /* \"#utility.yul\":9456:9463   */\n      0x00\n        /* \"#utility.yul\":9485:9509   */\n      tag_263\n        /* \"#utility.yul\":9503:9508   */\n      dup3\n        /* \"#utility.yul\":9485:9509   */\n      tag_264\n      jump\t// in\n    tag_263:\n        /* \"#utility.yul\":9474:9509   */\n      swap1\n      pop\n        /* \"#utility.yul\":9419:9515   */\n      swap2\n      swap1\n      pop\n      jump\t// out\n        /* \"#utility.yul\":9521:9611   */\n    tag_197:\n        /* \"#utility.yul\":9555:9562   */\n      0x00\n        /* \"#utility.yul\":9598:9603   */\n      dup2\n        /* \"#utility.yul\":9591:9604   */\n      iszero\n        /* \"#utility.yul\":9584:9605   */\n      iszero\n        /* \"#utility.yul\":9573:9605   */\n      swap1\n      pop\n        /* \"#utility.yul\":9521:9611   */\n      swap2\n      swap1\n      pop\n      jump\t// out\n        /* \"#utility.yul\":9617:9743   */\n    tag_264:\n        /* \"#utility.yul\":9654:9661   */\n      0x00\n        /* \"#utility.yul\":9694:9736   */\n      0xffffffffffffffffffffffffffffffffffffffff\n        /* \"#utility.yul\":9687:9692   */\n      dup3\n        /* \"#utility.yul\":9683:9737   */\n      and\n        /* \"#utility.yul\":9672:9737   */\n      swap1\n      pop\n        /* \"#utility.yul\":9617:9743   */\n      swap2\n      swap1\n      pop\n      jump\t// out\n        /* \"#utility.yul\":9749:9826   */\n    tag_228:\n        /* \"#utility.yul\":9786:9793   */\n      0x00\n        /* \"#utility.yul\":9815:9820   */\n      dup2\n        /* \"#utility.yul\":9804:9820   */\n      swap1\n      pop\n        /* \"#utility.yul\":9749:9826   */\n      swap2\n      swap1\n      pop\n      jump\t// out\n        /* \"#utility.yul\":9832:9986   */\n    tag_133:\n        /* \"#utility.yul\":9916:9922   */\n      dup3\n        /* \"#utility.yul\":9911:9914   */\n      dup2\n        /* \"#utility.yul\":9906:9909   */\n      dup4\n        /* \"#utility.yul\":9893:9923   */\n      calldatacopy\n        /* \"#utility.yul\":9978:9979   */\n      0x00\n        /* \"#utility.yul\":9969:9975   */\n      dup4\n        /* \"#utility.yul\":9964:9967   */\n      dup4\n        /* \"#utility.yul\":9960:9976   */\n      add\n        /* \"#utility.yul\":9953:9980   */\n      mstore\n        /* \"#utility.yul\":9832:9986   */\n      pop\n      pop\n      pop\n      jump\t// out\n        /* \"#utility.yul\":9992:10299   */\n    tag_210:\n        /* \"#utility.yul\":10060:10061   */\n      0x00\n        /* \"#utility.yul\":10070:10183   */\n    tag_270:\n        /* \"#utility.yul\":10084:10090   */\n      dup4\n        /* \"#utility.yul\":10081:10082   */\n      dup2\n        /* \"#utility.yul\":10078:10091   */\n      lt\n        /* \"#utility.yul\":10070:10183   */\n      iszero\n      tag_272\n      jumpi\n        /* \"#utility.yul\":10169:10170   */\n      dup1\n        /* \"#utility.yul\":10164:10167   */\n      dup3\n        /* \"#utility.yul\":10160:10171   */\n      add\n        /* \"#utility.yul\":10154:10172   */\n      mload\n        /* \"#utility.yul\":10150:10151   */\n      dup2\n        /* \"#utility.yul\":10145:10148   */\n      dup5\n        /* \"#utility.yul\":10141:10152   */\n      add\n        /* \"#utility.yul\":10134:10173   */\n      mstore\n        /* \"#utility.yul\":10106:10108   */\n      0x20\n        /* \"#utility.yul\":10103:10104   */\n      dup2\n        /* \"#utility.yul\":10099:10109   */\n      add\n        /* \"#utility.yul\":10094:10109   */\n      swap1\n      pop\n        /* \"#utility.yul\":10070:10183   */\n      jump(tag_270)\n    tag_272:\n        /* \"#utility.yul\":10201:10207   */\n      dup4\n        /* \"#utility.yul\":10198:10199   */\n      dup2\n        /* \"#utility.yul\":10195:10208   */\n      gt\n        /* \"#utility.yul\":10192:10293   */\n      iszero\n      tag_273\n      jumpi\n        /* \"#utility.yul\":10281:10282   */\n      0x00\n        /* \"#utility.yul\":10272:10278   */\n      dup5\n        /* \"#utility.yul\":10267:10270   */\n      dup5\n        /* \"#utility.yul\":10263:10279   */\n      add\n        /* \"#utility.yul\":10256:10283   */\n      mstore\n        /* \"#utility.yul\":10192:10293   */\n    tag_273:\n        /* \"#utility.yul\":10041:10299   */\n      pop\n        /* \"#utility.yul\":9992:10299   */\n      pop\n      pop\n      pop\n      jump\t// out\n        /* \"#utility.yul\":10305:10476   */\n    tag_93:\n        /* \"#utility.yul\":10344:10347   */\n      0x00\n        /* \"#utility.yul\":10367:10391   */\n      tag_275\n        /* \"#utility.yul\":10385:10390   */\n      dup3\n        /* \"#utility.yul\":10367:10391   */\n      tag_228\n      jump\t// in\n    tag_275:\n        /* \"#utility.yul\":10358:10391   */\n      swap2\n      pop\n        /* \"#utility.yul\":10413:10417   */\n      0x00\n        /* \"#utility.yul\":10406:10411   */\n      dup3\n        /* \"#utility.yul\":10403:10418   */\n      eq\n        /* \"#utility.yul\":10400:10441   */\n      iszero\n      tag_276\n      jumpi\n        /* \"#utility.yul\":10421:10439   */\n      tag_277\n      tag_261\n      jump\t// in\n    tag_277:\n        /* \"#utility.yul\":10400:10441   */\n    tag_276:\n        /* \"#utility.yul\":10468:10469   */\n      0x01\n        /* \"#utility.yul\":10461:10466   */\n      dup3\n        /* \"#utility.yul\":10457:10470   */\n      sub\n        /* \"#utility.yul\":10450:10470   */\n      swap1\n      pop\n        /* \"#utility.yul\":10305:10476   */\n      swap2\n      swap1\n      pop\n      jump\t// out\n        /* \"#utility.yul\":10482:10802   */\n    tag_103:\n        /* \"#utility.yul\":10526:10532   */\n      0x00\n        /* \"#utility.yul\":10563:10564   */\n      0x02\n        /* \"#utility.yul\":10557:10561   */\n      dup3\n        /* \"#utility.yul\":10553:10565   */\n      div\n        /* \"#utility.yul\":10543:10565   */\n      swap1\n      pop\n        /* \"#utility.yul\":10610:10611   */\n      0x01\n        /* \"#utility.yul\":10604:10608   */\n      dup3\n        /* \"#utility.yul\":10600:10612   */\n      and\n        /* \"#utility.yul\":10631:10649   */\n      dup1\n        /* \"#utility.yul\":10621:10702   */\n      tag_279\n      jumpi\n        /* \"#utility.yul\":10687:10691   */\n      0x7f\n        /* \"#utility.yul\":10679:10685   */\n      dup3\n        /* \"#utility.yul\":10675:10692   */\n      and\n        /* \"#utility.yul\":10665:10692   */\n      swap2\n      pop\n        /* \"#utility.yul\":10621:10702   */\n    tag_279:\n        /* \"#utility.yul\":10749:10751   */\n      0x20\n        /* \"#utility.yul\":10741:10747   */\n      dup3\n        /* \"#utility.yul\":10738:10752   */\n      lt\n        /* \"#utility.yul\":10718:10736   */\n      dup2\n        /* \"#utility.yul\":10715:10753   */\n      eq\n        /* \"#utility.yul\":10712:10796   */\n      iszero\n      tag_280\n      jumpi\n        /* \"#utility.yul\":10768:10786   */\n      tag_281\n      tag_282\n      jump\t// in\n    tag_281:\n        /* \"#utility.yul\":10712:10796   */\n    tag_280:\n        /* \"#utility.yul\":10533:10802   */\n      pop\n        /* \"#utility.yul\":10482:10802   */\n      swap2\n      swap1\n      pop\n      jump\t// out\n        /* \"#utility.yul\":10808:11089   */\n    tag_245:\n        /* \"#utility.yul\":10891:10918   */\n      tag_284\n        /* \"#utility.yul\":10913:10917   */\n      dup3\n        /* \"#utility.yul\":10891:10918   */\n      tag_212\n      jump\t// in\n    tag_284:\n        /* \"#utility.yul\":10883:10889   */\n      dup2\n        /* \"#utility.yul\":10879:10919   */\n      add\n        /* \"#utility.yul\":11021:11027   */\n      dup2\n        /* \"#utility.yul\":11009:11019   */\n      dup2\n        /* \"#utility.yul\":11006:11028   */\n      lt\n        /* \"#utility.yul\":10985:11003   */\n      0xffffffffffffffff\n        /* \"#utility.yul\":10973:10983   */\n      dup3\n        /* \"#utility.yul\":10970:11004   */\n      gt\n        /* \"#utility.yul\":10967:11029   */\n      or\n        /* \"#utility.yul\":10964:11052   */\n      iszero\n      tag_285\n      jumpi\n        /* \"#utility.yul\":11032:11050   */\n      tag_286\n      tag_250\n      jump\t// in\n    tag_286:\n        /* \"#utility.yul\":10964:11052   */\n    tag_285:\n        /* \"#utility.yul\":11072:11082   */\n      dup1\n        /* \"#utility.yul\":11068:11070   */\n      0x40\n        /* \"#utility.yul\":11061:11083   */\n      mstore\n        /* \"#utility.yul\":10851:11089   */\n      pop\n        /* \"#utility.yul\":10808:11089   */\n      pop\n      pop\n      jump\t// out\n        /* \"#utility.yul\":11095:11275   */\n    tag_261:\n        /* \"#utility.yul\":11143:11220   */\n      0x4e487b7100000000000000000000000000000000000000000000000000000000\n        /* \"#utility.yul\":11140:11141   */\n      0x00\n        /* \"#utility.yul\":11133:11221   */\n      mstore\n        /* \"#utility.yul\":11240:11244   */\n      0x11\n        /* \"#utility.yul\":11237:11238   */\n      0x04\n        /* \"#utility.yul\":11230:11245   */\n      mstore\n        /* \"#utility.yul\":11264:11268   */\n      0x24\n        /* \"#utility.yul\":11261:11262   */\n      0x00\n        /* \"#utility.yul\":11254:11269   */\n      revert\n        /* \"#utility.yul\":11281:11461   */\n    tag_282:\n        /* \"#utility.yul\":11329:11406   */\n      0x4e487b7100000000000000000000000000000000000000000000000000000000\n        /* \"#utility.yul\":11326:11327   */\n      0x00\n        /* \"#utility.yul\":11319:11407   */\n      mstore\n        /* \"#utility.yul\":11426:11430   */\n      0x22\n        /* \"#utility.yul\":11423:11424   */\n      0x04\n        /* \"#utility.yul\":11416:11431   */\n      mstore\n        /* \"#utility.yul\":11450:11454   */\n      0x24\n        /* \"#utility.yul\":11447:11448   */\n      0x00\n        /* \"#utility.yul\":11440:11455   */\n      revert\n        /* \"#utility.yul\":11467:11647   */\n    tag_73:\n        /* \"#utility.yul\":11515:11592   */\n      0x4e487b7100000000000000000000000000000000000000000000000000000000\n        /* \"#utility.yul\":11512:11513   */\n      0x00\n        /* \"#utility.yul\":11505:11593   */\n      mstore\n        /* \"#utility.yul\":11612:11616   */\n      0x32\n        /* \"#utility.yul\":11609:11610   */\n      0x04\n        /* \"#utility.yul\":11602:11617   */\n      mstore\n        /* \"#utility.yul\":11636:11640   */\n      0x24\n        /* \"#utility.yul\":11633:11634   */\n      0x00\n        /* \"#utility.yul\":11626:11641   */\n      revert\n        /* \"#utility.yul\":11653:11833   */\n    tag_250:\n        /* \"#utility.yul\":11701:11778   */\n      0x4e487b7100000000000000000000000000000000000000000000000000000000\n        /* \"#utility.yul\":11698:11699   */\n      0x00\n        /* \"#utility.yul\":11691:11779   */\n      mstore\n        /* \"#utility.yul\":11798:11802   */\n      0x41\n        /* \"#utility.yul\":11795:11796   */\n      0x04\n        /* \"#utility.yul\":11788:11803   */\n      mstore\n        /* \"#utility.yul\":11822:11826   */\n      0x24\n        /* \"#utility.yul\":11819:11820   */\n      0x00\n        /* \"#utility.yul\":11812:11827   */\n      revert\n        /* \"#utility.yul\":11839:11956   */\n    tag_145:\n        /* \"#utility.yul\":11948:11949   */\n      0x00\n        /* \"#utility.yul\":11945:11946   */\n      dup1\n        /* \"#utility.yul\":11938:11950   */\n      revert\n        /* \"#utility.yul\":11962:12079   */\n    tag_142:\n        /* \"#utility.yul\":12071:12072   */\n      0x00\n        /* \"#utility.yul\":12068:12069   */\n      dup1\n        /* \"#utility.yul\":12061:12073   */\n      revert\n        /* \"#utility.yul\":12085:12202   */\n    tag_148:\n        /* \"#utility.yul\":12194:12195   */\n      0x00\n        /* \"#utility.yul\":12191:12192   */\n      dup1\n        /* \"#utility.yul\":12184:12196   */\n      revert\n        /* \"#utility.yul\":12208:12325   */\n    tag_131:\n        /* \"#utility.yul\":12317:12318   */\n      0x00\n        /* \"#utility.yul\":12314:12315   */\n      dup1\n        /* \"#utility.yul\":12307:12319   */\n      revert\n        /* \"#utility.yul\":12331:12448   */\n    tag_164:\n        /* \"#utility.yul\":12440:12441   */\n      0x00\n        /* \"#utility.yul\":12437:12438   */\n      dup1\n        /* \"#utility.yul\":12430:12442   */\n      revert\n        /* \"#utility.yul\":12454:12571   */\n    tag_161:\n        /* \"#utility.yul\":12563:12564   */\n      0x00\n        /* \"#utility.yul\":12560:12561   */\n      dup1\n        /* \"#utility.yul\":12553:12565   */\n      revert\n        /* \"#utility.yul\":12577:12679   */\n    tag_212:\n        /* \"#utility.yul\":12618:12624   */\n      0x00\n        /* \"#utility.yul\":12669:12671   */\n      0x1f\n        /* \"#utility.yul\":12665:12672   */\n      not\n        /* \"#utility.yul\":12660:12662   */\n      0x1f\n        /* \"#utility.yul\":12653:12658   */\n      dup4\n        /* \"#utility.yul\":12649:12663   */\n      add\n        /* \"#utility.yul\":12645:12673   */\n      and\n        /* \"#utility.yul\":12635:12673   */\n      swap1\n      pop\n        /* \"#utility.yul\":12577:12679   */\n      swap2\n      swap1\n      pop\n      jump\t// out\n        /* \"#utility.yul\":12685:12807   */\n    tag_137:\n        /* \"#utility.yul\":12758:12782   */\n      tag_299\n        /* \"#utility.yul\":12776:12781   */\n      dup2\n        /* \"#utility.yul\":12758:12782   */\n      tag_193\n      jump\t// in\n    tag_299:\n        /* \"#utility.yul\":12751:12756   */\n      dup2\n        /* \"#utility.yul\":12748:12783   */\n      eq\n        /* \"#utility.yul\":12738:12801   */\n      tag_300\n      jumpi\n        /* \"#utility.yul\":12797:12798   */\n      0x00\n        /* \"#utility.yul\":12794:12795   */\n      dup1\n        /* \"#utility.yul\":12787:12799   */\n      revert\n        /* \"#utility.yul\":12738:12801   */\n    tag_300:\n        /* \"#utility.yul\":12685:12807   */\n      pop\n      jump\t// out\n        /* \"#utility.yul\":12813:12935   */\n    tag_157:\n        /* \"#utility.yul\":12886:12910   */\n      tag_302\n        /* \"#utility.yul\":12904:12909   */\n      dup2\n        /* \"#utility.yul\":12886:12910   */\n      tag_228\n      jump\t// in\n    tag_302:\n        /* \"#utility.yul\":12879:12884   */\n      dup2\n        /* \"#utility.yul\":12876:12911   */\n      eq\n        /* \"#utility.yul\":12866:12929   */\n      tag_303\n      jumpi\n        /* \"#utility.yul\":12925:12926   */\n      0x00\n        /* \"#utility.yul\":12922:12923   */\n      dup1\n        /* \"#utility.yul\":12915:12927   */\n      revert\n        /* \"#utility.yul\":12866:12929   */\n    tag_303:\n        /* \"#utility.yul\":12813:12935   */\n      pop\n      jump\t// out\n\n    auxdata: 0xa2646970667358221220dd30f7ef7c59c1d6c7d797d6857c4ef4d19d03117e8a7cbdf7eca636490bed8464736f6c63430008070033\n}\n",
				"bytecode": {
					"linkReferences": {},
					"object": "60806040526111f5806100136000396000f3fe6080604052600436106100705760003560e01c806374cbc3501161004e57806374cbc3501461010657806374ce0ca9146101455780638642269e14610182578063e4bcc7d41461019e57610070565b80630186a423146100755780630a5bd44b146100b45780631d894eb8146100dd575b600080fd5b34801561008157600080fd5b5061009c60048036038101906100979190610c43565b6101db565b6040516100ab93929190610e70565b60405180910390f35b3480156100c057600080fd5b506100db60048036038101906100d69190610bcf565b610228565b005b3480156100e957600080fd5b5061010460048036038101906100ff9190610b6f565b61037b565b005b34801561011257600080fd5b5061012d60048036038101906101289190610cb9565b610427565b60405161013c93929190610e70565b60405180910390f35b34801561015157600080fd5b5061016c60048036038101906101679190610c8c565b61046b565b6040516101799190610e33565b60405180910390f35b61019c60048036038101906101979190610c8c565b610502565b005b3480156101aa57600080fd5b506101c560048036038101906101c09190610c8c565b610859565b6040516101d29190610e4e565b60405180910390f35b6001818051602081018201805184825260208301602085012081835280955050505050506000915090508060000154908060010154908060030160009054906101000a900460ff16905083565b6001848460405161023a929190610e03565b908152602001604051809103902060030160009054906101000a900460ff1661034357610265610905565b82816000018181525050818160200181815250506001816060019015159081151581525050806001868660405161029d929190610e03565b9081526020016040518091039020600082015181600001556020820151816001015560408201518160020190805190602001906102db92919061092f565b5060608201518160030160006101000a81548160ff021916908315150217905550905050600085859091806001815401808255809150506001900390600052602060002001600090919290919290919290919250919061033c9291906109b9565b5050610375565b6040517fb185df3a00000000000000000000000000000000000000000000000000000000815260040160405180910390fd5b50505050565b6001838360405161038d929190610e03565b908152602001604051809103902060030160009054906101000a900460ff16156103f05780600184846040516103c4929190610e03565b908152602001604051809103902060010160008282546103e49190610f39565b92505081905550610422565b6040517f7e8d96a900000000000000000000000000000000000000000000000000000000815260040160405180910390fd5b505050565b6002602052816000526040600020602052806000526040600020600091509150508060000154908060010154908060020160009054906101000a900460ff16905083565b600080805490508210156104fc5760016000838154811061048f5761048e611104565b5b906000526020600020016040516104a69190610e1c565b90815260200160405180910390206002016000815481106104ca576104c9611104565b5b9060005260206000200160009054906101000a900473ffffffffffffffffffffffffffffffffffffffff1690506104fd565b5b919050565b6000805490508110801561057457506002600082815260200190815260200160002060003373ffffffffffffffffffffffffffffffffffffffff1673ffffffffffffffffffffffffffffffffffffffff16815260200190815260200160002060020160009054906101000a900460ff16155b1561082457600060016000838154811061059157610590611104565b5b906000526020600020016040516105a89190610e1c565b908152602001604051809103902060405180608001604052908160008201548152602001600182015481526020016002820180548060200260200160405190810160405280929190818152602001828054801561065a57602002820191906000526020600020905b8160009054906101000a900473ffffffffffffffffffffffffffffffffffffffff1673ffffffffffffffffffffffffffffffffffffffff1681526020019060010190808311610610575b505050505081526020016003820160009054906101000a900460ff161515151581525050905080600001513410156106be576040517f538d76e800000000000000000000000000000000000000000000000000000000815260040160405180910390fd5b6106c6610a3f565b4381600001818152505081600001518160200181815250506001816040019015159081151581525050806002600085815260200190815260200160002060003373ffffffffffffffffffffffffffffffffffffffff1673ffffffffffffffffffffffffffffffffffffffff168152602001908152602001600020600082015181600001556020820151816001015560408201518160020160006101000a81548160ff02191690831515021790555090505081602001805180919061078990611019565b81525050816001600085815481106107a4576107a3611104565b5b906000526020600020016040516107bb9190610e1c565b9081526020016040518091039020600082015181600001556020820151816001015560408201518160020190805190602001906107f992919061092f565b5060608201518160030160006101000a81548160ff0219169083151502179055509050505050610856565b6040517fd42c9b8b00000000000000000000000000000000000000000000000000000000815260040160405180910390fd5b50565b6000818154811061086957600080fd5b90600052602060002001600091509050805461088490611043565b80601f01602080910402602001604051908101604052809291908181526020018280546108b090611043565b80156108fd5780601f106108d2576101008083540402835291602001916108fd565b820191906000526020600020905b8154815290600101906020018083116108e057829003601f168201915b505050505081565b60405180608001604052806000815260200160008152602001606081526020016000151581525090565b8280548282559060005260206000209081019282156109a8579160200282015b828111156109a75782518260006101000a81548173ffffffffffffffffffffffffffffffffffffffff021916908373ffffffffffffffffffffffffffffffffffffffff1602179055509160200191906001019061094f565b5b5090506109b59190610a62565b5090565b8280546109c590611043565b90600052602060002090601f0160209004810192826109e75760008555610a2e565b82601f10610a0057803560ff1916838001178555610a2e565b82800160010185558215610a2e579182015b82811115610a2d578235825591602001919060010190610a12565b5b509050610a3b9190610a62565b5090565b604051806060016040528060008152602001600081526020016000151581525090565b5b80821115610a7b576000816000905550600101610a63565b5090565b6000610a92610a8d84610ecc565b610ea7565b905082815260208101848484011115610aae57610aad611171565b5b610ab9848285610fd7565b509392505050565b600081359050610ad081611191565b92915050565b60008083601f840112610aec57610aeb611167565b5b8235905067ffffffffffffffff811115610b0957610b08611162565b5b602083019150836001820283011115610b2557610b2461116c565b5b9250929050565b600082601f830112610b4157610b40611167565b5b8135610b51848260208601610a7f565b91505092915050565b600081359050610b69816111a8565b92915050565b600080600060408486031215610b8857610b8761117b565b5b600084013567ffffffffffffffff811115610ba657610ba5611176565b5b610bb286828701610ad6565b93509350506020610bc586828701610b5a565b9150509250925092565b60008060008060608587031215610be957610be861117b565b5b600085013567ffffffffffffffff811115610c0757610c06611176565b5b610c1387828801610ad6565b94509450506020610c2687828801610b5a565b9250506040610c3787828801610b5a565b91505092959194509250565b600060208284031215610c5957610c5861117b565b5b600082013567ffffffffffffffff811115610c7757610c76611176565b5b610c8384828501610b2c565b91505092915050565b600060208284031215610ca257610ca161117b565b5b6000610cb084828501610b5a565b91505092915050565b60008060408385031215610cd057610ccf61117b565b5b6000610cde85828601610b5a565b9250506020610cef85828601610ac1565b9150509250929050565b610d0281610f8f565b82525050565b610d1181610fa1565b82525050565b6000610d238385610f2e565b9350610d30838584610fd7565b82840190509392505050565b6000610d4782610f12565b610d518185610f1d565b9350610d61818560208601610fe6565b610d6a81611180565b840191505092915050565b60008154610d8281611043565b610d8c8186610f2e565b94506001821660008114610da75760018114610db857610deb565b60ff19831686528186019350610deb565b610dc185610efd565b60005b83811015610de357815481890152600182019150602081019050610dc4565b838801955050505b50505092915050565b610dfd81610fcd565b82525050565b6000610e10828486610d17565b91508190509392505050565b6000610e288284610d75565b915081905092915050565b6000602082019050610e486000830184610cf9565b92915050565b60006020820190508181036000830152610e688184610d3c565b905092915050565b6000606082019050610e856000830186610df4565b610e926020830185610df4565b610e9f6040830184610d08565b949350505050565b6000610eb1610ec2565b9050610ebd8282611075565b919050565b6000604051905090565b600067ffffffffffffffff821115610ee757610ee6611133565b5b610ef082611180565b9050602081019050919050565b60008190508160005260206000209050919050565b600081519050919050565b600082825260208201905092915050565b600081905092915050565b6000610f4482610fcd565b9150610f4f83610fcd565b9250827fffffffffffffffffffffffffffffffffffffffffffffffffffffffffffffffff03821115610f8457610f836110a6565b5b828201905092915050565b6000610f9a82610fad565b9050919050565b60008115159050919050565b600073ffffffffffffffffffffffffffffffffffffffff82169050919050565b6000819050919050565b82818337600083830152505050565b60005b83811015611004578082015181840152602081019050610fe9565b83811115611013576000848401525b50505050565b600061102482610fcd565b91506000821415611038576110376110a6565b5b600182039050919050565b6000600282049050600182168061105b57607f821691505b6020821081141561106f5761106e6110d5565b5b50919050565b61107e82611180565b810181811067ffffffffffffffff8211171561109d5761109c611133565b5b80604052505050565b7f4e487b7100000000000000000000000000000000000000000000000000000000600052601160045260246000fd5b7f4e487b7100000000000000000000000000000000000000000000000000000000600052602260045260246000fd5b7f4e487b7100000000000000000000000000000000000000000000000000000000600052603260045260246000fd5b7f4e487b7100000000000000000000000000000000000000000000000000000000600052604160045260246000fd5b600080fd5b600080fd5b600080fd5b600080fd5b600080fd5b600080fd5b6000601f19601f8301169050919050565b61119a81610f8f565b81146111a557600080fd5b50565b6111b181610fcd565b81146111bc57600080fd5b5056fea2646970667358221220dd30f7ef7c59c1d6c7d797d6857c4ef4d19d03117e8a7cbdf7eca636490bed8464736f6c63430008070033",
					"opcodes": "PUSH1 0x80 PUSH1 0x40 MSTORE PUSH2 0x11F5 DUP1 PUSH2 0x13 PUSH1 0x0 CODECOPY PUSH1 0x0 RETURN INVALID PUSH1 0x80 PUSH1 0x40 MSTORE PUSH1 0x4 CALLDATASIZE LT PUSH2 0x70 JUMPI PUSH1 0x0 CALLDATALOAD PUSH1 0xE0 SHR DUP1 PUSH4 0x74CBC350 GT PUSH2 0x4E JUMPI DUP1 PUSH4 0x74CBC350 EQ PUSH2 0x106 JUMPI DUP1 PUSH4 0x74CE0CA9 EQ PUSH2 0x145 JUMPI DUP1 PUSH4 0x8642269E EQ PUSH2 0x182 JUMPI DUP1 PUSH4 0xE4BCC7D4 EQ PUSH2 0x19E JUMPI PUSH2 0x70 JUMP JUMPDEST DUP1 PUSH4 0x186A423 EQ PUSH2 0x75 JUMPI DUP1 PUSH4 0xA5BD44B EQ PUSH2 0xB4 JUMPI DUP1 PUSH4 0x1D894EB8 EQ PUSH2 0xDD JUMPI JUMPDEST PUSH1 0x0 DUP1 REVERT JUMPDEST CALLVALUE DUP1 ISZERO PUSH2 0x81 JUMPI PUSH1 0x0 DUP1 REVERT JUMPDEST POP PUSH2 0x9C PUSH1 0x4 DUP1 CALLDATASIZE SUB DUP2 ADD SWAP1 PUSH2 0x97 SWAP2 SWAP1 PUSH2 0xC43 JUMP JUMPDEST PUSH2 0x1DB JUMP JUMPDEST PUSH1 0x40 MLOAD PUSH2 0xAB SWAP4 SWAP3 SWAP2 SWAP1 PUSH2 0xE70 JUMP JUMPDEST PUSH1 0x40 MLOAD DUP1 SWAP2 SUB SWAP1 RETURN JUMPDEST CALLVALUE DUP1 ISZERO PUSH2 0xC0 JUMPI PUSH1 0x0 DUP1 REVERT JUMPDEST POP PUSH2 0xDB PUSH1 0x4 DUP1 CALLDATASIZE SUB DUP2 ADD SWAP1 PUSH2 0xD6 SWAP2 SWAP1 PUSH2 0xBCF JUMP JUMPDEST PUSH2 0x228 JUMP JUMPDEST STOP JUMPDEST CALLVALUE DUP1 ISZERO PUSH2 0xE9 JUMPI PUSH1 0x0 DUP1 REVERT JUMPDEST POP PUSH2 0x104 PUSH1 0x4 DUP1 CALLDATASIZE SUB DUP2 ADD SWAP1 PUSH2 0xFF SWAP2 SWAP1 PUSH2 0xB6F JUMP JUMPDEST PUSH2 0x37B JUMP JUMPDEST STOP JUMPDEST CALLVALUE DUP1 ISZERO PUSH2 0x112 JUMPI PUSH1 0x0 DUP1 REVERT JUMPDEST POP PUSH2 0x12D PUSH1 0x4 DUP1 CALLDATASIZE SUB DUP2 ADD SWAP1 PUSH2 0x128 SWAP2 SWAP1 PUSH2 0xCB9 JUMP JUMPDEST PUSH2 0x427 JUMP JUMPDEST PUSH1 0x40 MLOAD PUSH2 0x13C SWAP4 SWAP3 SWAP2 SWAP1 PUSH2 0xE70 JUMP JUMPDEST PUSH1 0x40 MLOAD DUP1 SWAP2 SUB SWAP1 RETURN JUMPDEST CALLVALUE DUP1 ISZERO PUSH2 0x151 JUMPI PUSH1 0x0 DUP1 REVERT JUMPDEST POP PUSH2 0x16C PUSH1 0x4 DUP1 CALLDATASIZE SUB DUP2 ADD SWAP1 PUSH2 0x167 SWAP2 SWAP1 PUSH2 0xC8C JUMP JUMPDEST PUSH2 0x46B JUMP JUMPDEST PUSH1 0x40 MLOAD PUSH2 0x179 SWAP2 SWAP1 PUSH2 0xE33 JUMP JUMPDEST PUSH1 0x40 MLOAD DUP1 SWAP2 SUB SWAP1 RETURN JUMPDEST PUSH2 0x19C PUSH1 0x4 DUP1 CALLDATASIZE SUB DUP2 ADD SWAP1 PUSH2 0x197 SWAP2 SWAP1 PUSH2 0xC8C JUMP JUMPDEST PUSH2 0x502 JUMP JUMPDEST STOP JUMPDEST CALLVALUE DUP1 ISZERO PUSH2 0x1AA JUMPI PUSH1 0x0 DUP1 REVERT JUMPDEST POP PUSH2 0x1C5 PUSH1 0x4 DUP1 CALLDATASIZE SUB DUP2 ADD SWAP1 PUSH2 0x1C0 SWAP2 SWAP1 PUSH2 0xC8C JUMP JUMPDEST PUSH2 0x859 JUMP JUMPDEST PUSH1 0x40 MLOAD PUSH2 0x1D2 SWAP2 SWAP1 PUSH2 0xE4E JUMP JUMPDEST PUSH1 0x40 MLOAD DUP1 SWAP2 SUB SWAP1 RETURN JUMPDEST PUSH1 0x1 DUP2 DUP1 MLOAD PUSH1 0x20 DUP2 ADD DUP3 ADD DUP1 MLOAD DUP5 DUP3 MSTORE PUSH1 0x20 DUP4 ADD PUSH1 0x20 DUP6 ADD KECCAK256 DUP2 DUP4 MSTORE DUP1 SWAP6 POP POP POP POP POP POP PUSH1 0x0 SWAP2 POP SWAP1 POP DUP1 PUSH1 0x0 ADD SLOAD SWAP1 DUP1 PUSH1 0x1 ADD SLOAD SWAP1 DUP1 PUSH1 0x3 ADD PUSH1 0x0 SWAP1 SLOAD SWAP1 PUSH2 0x100 EXP SWAP1 DIV PUSH1 0xFF AND SWAP1 POP DUP4 JUMP JUMPDEST PUSH1 0x1 DUP5 DUP5 PUSH1 0x40 MLOAD PUSH2 0x23A SWAP3 SWAP2 SWAP1 PUSH2 0xE03 JUMP JUMPDEST SWAP1 DUP2 MSTORE PUSH1 0x20 ADD PUSH1 0x40 MLOAD DUP1 SWAP2 SUB SWAP1 KECCAK256 PUSH1 0x3 ADD PUSH1 0x0 SWAP1 SLOAD SWAP1 PUSH2 0x100 EXP SWAP1 DIV PUSH1 0xFF AND PUSH2 0x343 JUMPI PUSH2 0x265 PUSH2 0x905 JUMP JUMPDEST DUP3 DUP2 PUSH1 0x0 ADD DUP2 DUP2 MSTORE POP POP DUP2 DUP2 PUSH1 0x20 ADD DUP2 DUP2 MSTORE POP POP PUSH1 0x1 DUP2 PUSH1 0x60 ADD SWAP1 ISZERO ISZERO SWAP1 DUP2 ISZERO ISZERO DUP2 MSTORE POP POP DUP1 PUSH1 0x1 DUP7 DUP7 PUSH1 0x40 MLOAD PUSH2 0x29D SWAP3 SWAP2 SWAP1 PUSH2 0xE03 JUMP JUMPDEST SWAP1 DUP2 MSTORE PUSH1 0x20 ADD PUSH1 0x40 MLOAD DUP1 SWAP2 SUB SWAP1 KECCAK256 PUSH1 0x0 DUP3 ADD MLOAD DUP2 PUSH1 0x0 ADD SSTORE PUSH1 0x20 DUP3 ADD MLOAD DUP2 PUSH1 0x1 ADD SSTORE PUSH1 0x40 DUP3 ADD MLOAD DUP2 PUSH1 0x2 ADD SWAP1 DUP1 MLOAD SWAP1 PUSH1 0x20 ADD SWAP1 PUSH2 0x2DB SWAP3 SWAP2 SWAP1 PUSH2 0x92F JUMP JUMPDEST POP PUSH1 0x60 DUP3 ADD MLOAD DUP2 PUSH1 0x3 ADD PUSH1 0x0 PUSH2 0x100 EXP DUP2 SLOAD DUP2 PUSH1 0xFF MUL NOT AND SWAP1 DUP4 ISZERO ISZERO MUL OR SWAP1 SSTORE POP SWAP1 POP POP PUSH1 0x0 DUP6 DUP6 SWAP1 SWAP2 DUP1 PUSH1 0x1 DUP2 SLOAD ADD DUP1 DUP3 SSTORE DUP1 SWAP2 POP POP PUSH1 0x1 SWAP1 SUB SWAP1 PUSH1 0x0 MSTORE PUSH1 0x20 PUSH1 0x0 KECCAK256 ADD PUSH1 0x0 SWAP1 SWAP2 SWAP3 SWAP1 SWAP2 SWAP3 SWAP1 SWAP2 SWAP3 SWAP1 SWAP2 SWAP3 POP SWAP2 SWAP1 PUSH2 0x33C SWAP3 SWAP2 SWAP1 PUSH2 0x9B9 JUMP JUMPDEST POP POP PUSH2 0x375 JUMP JUMPDEST PUSH1 0x40 MLOAD PUSH32 0xB185DF3A00000000000000000000000000000000000000000000000000000000 DUP2 MSTORE PUSH1 0x4 ADD PUSH1 0x40 MLOAD DUP1 SWAP2 SUB SWAP1 REVERT JUMPDEST POP POP POP POP JUMP JUMPDEST PUSH1 0x1 DUP4 DUP4 PUSH1 0x40 MLOAD PUSH2 0x38D SWAP3 SWAP2 SWAP1 PUSH2 0xE03 JUMP JUMPDEST SWAP1 DUP2 MSTORE PUSH1 0x20 ADD PUSH1 0x40 MLOAD DUP1 SWAP2 SUB SWAP1 KECCAK256 PUSH1 0x3 ADD PUSH1 0x0 SWAP1 SLOAD SWAP1 PUSH2 0x100 EXP SWAP1 DIV PUSH1 0xFF AND ISZERO PUSH2 0x3F0 JUMPI DUP1 PUSH1 0x1 DUP5 DUP5 PUSH1 0x40 MLOAD PUSH2 0x3C4 SWAP3 SWAP2 SWAP1 PUSH2 0xE03 JUMP JUMPDEST SWAP1 DUP2 MSTORE PUSH1 0x20 ADD PUSH1 0x40 MLOAD DUP1 SWAP2 SUB SWAP1 KECCAK256 PUSH1 0x1 ADD PUSH1 0x0 DUP3 DUP3 SLOAD PUSH2 0x3E4 SWAP2 SWAP1 PUSH2 0xF39 JUMP JUMPDEST SWAP3 POP POP DUP2 SWAP1 SSTORE POP PUSH2 0x422 JUMP JUMPDEST PUSH1 0x40 MLOAD PUSH32 0x7E8D96A900000000000000000000000000000000000000000000000000000000 DUP2 MSTORE PUSH1 0x4 ADD PUSH1 0x40 MLOAD DUP1 SWAP2 SUB SWAP1 REVERT JUMPDEST POP POP POP JUMP JUMPDEST PUSH1 0x2 PUSH1 0x20 MSTORE DUP2 PUSH1 0x0 MSTORE PUSH1 0x40 PUSH1 0x0 KECCAK256 PUSH1 0x20 MSTORE DUP1 PUSH1 0x0 MSTORE PUSH1 0x40 PUSH1 0x0 KECCAK256 PUSH1 0x0 SWAP2 POP SWAP2 POP POP DUP1 PUSH1 0x0 ADD SLOAD SWAP1 DUP1 PUSH1 0x1 ADD SLOAD SWAP1 DUP1 PUSH1 0x2 ADD PUSH1 0x0 SWAP1 SLOAD SWAP1 PUSH2 0x100 EXP SWAP1 DIV PUSH1 0xFF AND SWAP1 POP DUP4 JUMP JUMPDEST PUSH1 0x0 DUP1 DUP1 SLOAD SWAP1 POP DUP3 LT ISZERO PUSH2 0x4FC JUMPI PUSH1 0x1 PUSH1 0x0 DUP4 DUP2 SLOAD DUP2 LT PUSH2 0x48F JUMPI PUSH2 0x48E PUSH2 0x1104 JUMP JUMPDEST JUMPDEST SWAP1 PUSH1 0x0 MSTORE PUSH1 0x20 PUSH1 0x0 KECCAK256 ADD PUSH1 0x40 MLOAD PUSH2 0x4A6 SWAP2 SWAP1 PUSH2 0xE1C JUMP JUMPDEST SWAP1 DUP2 MSTORE PUSH1 0x20 ADD PUSH1 0x40 MLOAD DUP1 SWAP2 SUB SWAP1 KECCAK256 PUSH1 0x2 ADD PUSH1 0x0 DUP2 SLOAD DUP2 LT PUSH2 0x4CA JUMPI PUSH2 0x4C9 PUSH2 0x1104 JUMP JUMPDEST JUMPDEST SWAP1 PUSH1 0x0 MSTORE PUSH1 0x20 PUSH1 0x0 KECCAK256 ADD PUSH1 0x0 SWAP1 SLOAD SWAP1 PUSH2 0x100 EXP SWAP1 DIV PUSH20 0xFFFFFFFFFFFFFFFFFFFFFFFFFFFFFFFFFFFFFFFF AND SWAP1 POP PUSH2 0x4FD JUMP JUMPDEST JUMPDEST SWAP2 SWAP1 POP JUMP JUMPDEST PUSH1 0x0 DUP1 SLOAD SWAP1 POP DUP2 LT DUP1 ISZERO PUSH2 0x574 JUMPI POP PUSH1 0x2 PUSH1 0x0 DUP3 DUP2 MSTORE PUSH1 0x20 ADD SWAP1 DUP2 MSTORE PUSH1 0x20 ADD PUSH1 0x0 KECCAK256 PUSH1 0x0 CALLER PUSH20 0xFFFFFFFFFFFFFFFFFFFFFFFFFFFFFFFFFFFFFFFF AND PUSH20 0xFFFFFFFFFFFFFFFFFFFFFFFFFFFFFFFFFFFFFFFF AND DUP2 MSTORE PUSH1 0x20 ADD SWAP1 DUP2 MSTORE PUSH1 0x20 ADD PUSH1 0x0 KECCAK256 PUSH1 0x2 ADD PUSH1 0x0 SWAP1 SLOAD SWAP1 PUSH2 0x100 EXP SWAP1 DIV PUSH1 0xFF AND ISZERO JUMPDEST ISZERO PUSH2 0x824 JUMPI PUSH1 0x0 PUSH1 0x1 PUSH1 0x0 DUP4 DUP2 SLOAD DUP2 LT PUSH2 0x591 JUMPI PUSH2 0x590 PUSH2 0x1104 JUMP JUMPDEST JUMPDEST SWAP1 PUSH1 0x0 MSTORE PUSH1 0x20 PUSH1 0x0 KECCAK256 ADD PUSH1 0x40 MLOAD PUSH2 0x5A8 SWAP2 SWAP1 PUSH2 0xE1C JUMP JUMPDEST SWAP1 DUP2 MSTORE PUSH1 0x20 ADD PUSH1 0x40 MLOAD DUP1 SWAP2 SUB SWAP1 KECCAK256 PUSH1 0x40 MLOAD DUP1 PUSH1 0x80 ADD PUSH1 0x40 MSTORE SWAP1 DUP2 PUSH1 0x0 DUP3 ADD SLOAD DUP2 MSTORE PUSH1 0x20 ADD PUSH1 0x1 DUP3 ADD SLOAD DUP2 MSTORE PUSH1 0x20 ADD PUSH1 0x2 DUP3 ADD DUP1 SLOAD DUP1 PUSH1 0x20 MUL PUSH1 0x20 ADD PUSH1 0x40 MLOAD SWAP1 DUP2 ADD PUSH1 0x40 MSTORE DUP1 SWAP3 SWAP2 SWAP1 DUP2 DUP2 MSTORE PUSH1 0x20 ADD DUP3 DUP1 SLOAD DUP1 ISZERO PUSH2 0x65A JUMPI PUSH1 0x20 MUL DUP3 ADD SWAP2 SWAP1 PUSH1 0x0 MSTORE PUSH1 0x20 PUSH1 0x0 KECCAK256 SWAP1 JUMPDEST DUP2 PUSH1 0x0 SWAP1 SLOAD SWAP1 PUSH2 0x100 EXP SWAP1 DIV PUSH20 0xFFFFFFFFFFFFFFFFFFFFFFFFFFFFFFFFFFFFFFFF AND PUSH20 0xFFFFFFFFFFFFFFFFFFFFFFFFFFFFFFFFFFFFFFFF AND DUP2 MSTORE PUSH1 0x20 ADD SWAP1 PUSH1 0x1 ADD SWAP1 DUP1 DUP4 GT PUSH2 0x610 JUMPI JUMPDEST POP POP POP POP POP DUP2 MSTORE PUSH1 0x20 ADD PUSH1 0x3 DUP3 ADD PUSH1 0x0 SWAP1 SLOAD SWAP1 PUSH2 0x100 EXP SWAP1 DIV PUSH1 0xFF AND ISZERO ISZERO ISZERO ISZERO DUP2 MSTORE POP POP SWAP1 POP DUP1 PUSH1 0x0 ADD MLOAD CALLVALUE LT ISZERO PUSH2 0x6BE JUMPI PUSH1 0x40 MLOAD PUSH32 0x538D76E800000000000000000000000000000000000000000000000000000000 DUP2 MSTORE PUSH1 0x4 ADD PUSH1 0x40 MLOAD DUP1 SWAP2 SUB SWAP1 REVERT JUMPDEST PUSH2 0x6C6 PUSH2 0xA3F JUMP JUMPDEST NUMBER DUP2 PUSH1 0x0 ADD DUP2 DUP2 MSTORE POP POP DUP2 PUSH1 0x0 ADD MLOAD DUP2 PUSH1 0x20 ADD DUP2 DUP2 MSTORE POP POP PUSH1 0x1 DUP2 PUSH1 0x40 ADD SWAP1 ISZERO ISZERO SWAP1 DUP2 ISZERO ISZERO DUP2 MSTORE POP POP DUP1 PUSH1 0x2 PUSH1 0x0 DUP6 DUP2 MSTORE PUSH1 0x20 ADD SWAP1 DUP2 MSTORE PUSH1 0x20 ADD PUSH1 0x0 KECCAK256 PUSH1 0x0 CALLER PUSH20 0xFFFFFFFFFFFFFFFFFFFFFFFFFFFFFFFFFFFFFFFF AND PUSH20 0xFFFFFFFFFFFFFFFFFFFFFFFFFFFFFFFFFFFFFFFF AND DUP2 MSTORE PUSH1 0x20 ADD SWAP1 DUP2 MSTORE PUSH1 0x20 ADD PUSH1 0x0 KECCAK256 PUSH1 0x0 DUP3 ADD MLOAD DUP2 PUSH1 0x0 ADD SSTORE PUSH1 0x20 DUP3 ADD MLOAD DUP2 PUSH1 0x1 ADD SSTORE PUSH1 0x40 DUP3 ADD MLOAD DUP2 PUSH1 0x2 ADD PUSH1 0x0 PUSH2 0x100 EXP DUP2 SLOAD DUP2 PUSH1 0xFF MUL NOT AND SWAP1 DUP4 ISZERO ISZERO MUL OR SWAP1 SSTORE POP SWAP1 POP POP DUP2 PUSH1 0x20 ADD DUP1 MLOAD DUP1 SWAP2 SWAP1 PUSH2 0x789 SWAP1 PUSH2 0x1019 JUMP JUMPDEST DUP2 MSTORE POP POP DUP2 PUSH1 0x1 PUSH1 0x0 DUP6 DUP2 SLOAD DUP2 LT PUSH2 0x7A4 JUMPI PUSH2 0x7A3 PUSH2 0x1104 JUMP JUMPDEST JUMPDEST SWAP1 PUSH1 0x0 MSTORE PUSH1 0x20 PUSH1 0x0 KECCAK256 ADD PUSH1 0x40 MLOAD PUSH2 0x7BB SWAP2 SWAP1 PUSH2 0xE1C JUMP JUMPDEST SWAP1 DUP2 MSTORE PUSH1 0x20 ADD PUSH1 0x40 MLOAD DUP1 SWAP2 SUB SWAP1 KECCAK256 PUSH1 0x0 DUP3 ADD MLOAD DUP2 PUSH1 0x0 ADD SSTORE PUSH1 0x20 DUP3 ADD MLOAD DUP2 PUSH1 0x1 ADD SSTORE PUSH1 0x40 DUP3 ADD MLOAD DUP2 PUSH1 0x2 ADD SWAP1 DUP1 MLOAD SWAP1 PUSH1 0x20 ADD SWAP1 PUSH2 0x7F9 SWAP3 SWAP2 SWAP1 PUSH2 0x92F JUMP JUMPDEST POP PUSH1 0x60 DUP3 ADD MLOAD DUP2 PUSH1 0x3 ADD PUSH1 0x0 PUSH2 0x100 EXP DUP2 SLOAD DUP2 PUSH1 0xFF MUL NOT AND SWAP1 DUP4 ISZERO ISZERO MUL OR SWAP1 SSTORE POP SWAP1 POP POP POP POP PUSH2 0x856 JUMP JUMPDEST PUSH1 0x40 MLOAD PUSH32 0xD42C9B8B00000000000000000000000000000000000000000000000000000000 DUP2 MSTORE PUSH1 0x4 ADD PUSH1 0x40 MLOAD DUP1 SWAP2 SUB SWAP1 REVERT JUMPDEST POP JUMP JUMPDEST PUSH1 0x0 DUP2 DUP2 SLOAD DUP2 LT PUSH2 0x869 JUMPI PUSH1 0x0 DUP1 REVERT JUMPDEST SWAP1 PUSH1 0x0 MSTORE PUSH1 0x20 PUSH1 0x0 KECCAK256 ADD PUSH1 0x0 SWAP2 POP SWAP1 POP DUP1 SLOAD PUSH2 0x884 SWAP1 PUSH2 0x1043 JUMP JUMPDEST DUP1 PUSH1 0x1F ADD PUSH1 0x20 DUP1 SWAP2 DIV MUL PUSH1 0x20 ADD PUSH1 0x40 MLOAD SWAP1 DUP2 ADD PUSH1 0x40 MSTORE DUP1 SWAP3 SWAP2 SWAP1 DUP2 DUP2 MSTORE PUSH1 0x20 ADD DUP3 DUP1 SLOAD PUSH2 0x8B0 SWAP1 PUSH2 0x1043 JUMP JUMPDEST DUP1 ISZERO PUSH2 0x8FD JUMPI DUP1 PUSH1 0x1F LT PUSH2 0x8D2 JUMPI PUSH2 0x100 DUP1 DUP4 SLOAD DIV MUL DUP4 MSTORE SWAP2 PUSH1 0x20 ADD SWAP2 PUSH2 0x8FD JUMP JUMPDEST DUP3 ADD SWAP2 SWAP1 PUSH1 0x0 MSTORE PUSH1 0x20 PUSH1 0x0 KECCAK256 SWAP1 JUMPDEST DUP2 SLOAD DUP2 MSTORE SWAP1 PUSH1 0x1 ADD SWAP1 PUSH1 0x20 ADD DUP1 DUP4 GT PUSH2 0x8E0 JUMPI DUP3 SWAP1 SUB PUSH1 0x1F AND DUP3 ADD SWAP2 JUMPDEST POP POP POP POP POP DUP2 JUMP JUMPDEST PUSH1 0x40 MLOAD DUP1 PUSH1 0x80 ADD PUSH1 0x40 MSTORE DUP1 PUSH1 0x0 DUP2 MSTORE PUSH1 0x20 ADD PUSH1 0x0 DUP2 MSTORE PUSH1 0x20 ADD PUSH1 0x60 DUP2 MSTORE PUSH1 0x20 ADD PUSH1 0x0 ISZERO ISZERO DUP2 MSTORE POP SWAP1 JUMP JUMPDEST DUP3 DUP1 SLOAD DUP3 DUP3 SSTORE SWAP1 PUSH1 0x0 MSTORE PUSH1 0x20 PUSH1 0x0 KECCAK256 SWAP1 DUP2 ADD SWAP3 DUP3 ISZERO PUSH2 0x9A8 JUMPI SWAP2 PUSH1 0x20 MUL DUP3 ADD JUMPDEST DUP3 DUP2 GT ISZERO PUSH2 0x9A7 JUMPI DUP3 MLOAD DUP3 PUSH1 0x0 PUSH2 0x100 EXP DUP2 SLOAD DUP2 PUSH20 0xFFFFFFFFFFFFFFFFFFFFFFFFFFFFFFFFFFFFFFFF MUL NOT AND SWAP1 DUP4 PUSH20 0xFFFFFFFFFFFFFFFFFFFFFFFFFFFFFFFFFFFFFFFF AND MUL OR SWAP1 SSTORE POP SWAP2 PUSH1 0x20 ADD SWAP2 SWAP1 PUSH1 0x1 ADD SWAP1 PUSH2 0x94F JUMP JUMPDEST JUMPDEST POP SWAP1 POP PUSH2 0x9B5 SWAP2 SWAP1 PUSH2 0xA62 JUMP JUMPDEST POP SWAP1 JUMP JUMPDEST DUP3 DUP1 SLOAD PUSH2 0x9C5 SWAP1 PUSH2 0x1043 JUMP JUMPDEST SWAP1 PUSH1 0x0 MSTORE PUSH1 0x20 PUSH1 0x0 KECCAK256 SWAP1 PUSH1 0x1F ADD PUSH1 0x20 SWAP1 DIV DUP2 ADD SWAP3 DUP3 PUSH2 0x9E7 JUMPI PUSH1 0x0 DUP6 SSTORE PUSH2 0xA2E JUMP JUMPDEST DUP3 PUSH1 0x1F LT PUSH2 0xA00 JUMPI DUP1 CALLDATALOAD PUSH1 0xFF NOT AND DUP4 DUP1 ADD OR DUP6 SSTORE PUSH2 0xA2E JUMP JUMPDEST DUP3 DUP1 ADD PUSH1 0x1 ADD DUP6 SSTORE DUP3 ISZERO PUSH2 0xA2E JUMPI SWAP2 DUP3 ADD JUMPDEST DUP3 DUP2 GT ISZERO PUSH2 0xA2D JUMPI DUP3 CALLDATALOAD DUP3 SSTORE SWAP2 PUSH1 0x20 ADD SWAP2 SWAP1 PUSH1 0x1 ADD SWAP1 PUSH2 0xA12 JUMP JUMPDEST JUMPDEST POP SWAP1 POP PUSH2 0xA3B SWAP2 SWAP1 PUSH2 0xA62 JUMP JUMPDEST POP SWAP1 JUMP JUMPDEST PUSH1 0x40 MLOAD DUP1 PUSH1 0x60 ADD PUSH1 0x40 MSTORE DUP1 PUSH1 0x0 DUP2 MSTORE PUSH1 0x20 ADD PUSH1 0x0 DUP2 MSTORE PUSH1 0x20 ADD PUSH1 0x0 ISZERO ISZERO DUP2 MSTORE POP SWAP1 JUMP JUMPDEST JUMPDEST DUP1 DUP3 GT ISZERO PUSH2 0xA7B JUMPI PUSH1 0x0 DUP2 PUSH1 0x0 SWAP1 SSTORE POP PUSH1 0x1 ADD PUSH2 0xA63 JUMP JUMPDEST POP SWAP1 JUMP JUMPDEST PUSH1 0x0 PUSH2 0xA92 PUSH2 0xA8D DUP5 PUSH2 0xECC JUMP JUMPDEST PUSH2 0xEA7 JUMP JUMPDEST SWAP1 POP DUP3 DUP2 MSTORE PUSH1 0x20 DUP2 ADD DUP5 DUP5 DUP5 ADD GT ISZERO PUSH2 0xAAE JUMPI PUSH2 0xAAD PUSH2 0x1171 JUMP JUMPDEST JUMPDEST PUSH2 0xAB9 DUP5 DUP3 DUP6 PUSH2 0xFD7 JUMP JUMPDEST POP SWAP4 SWAP3 POP POP POP JUMP JUMPDEST PUSH1 0x0 DUP2 CALLDATALOAD SWAP1 POP PUSH2 0xAD0 DUP2 PUSH2 0x1191 JUMP JUMPDEST SWAP3 SWAP2 POP POP JUMP JUMPDEST PUSH1 0x0 DUP1 DUP4 PUSH1 0x1F DUP5 ADD SLT PUSH2 0xAEC JUMPI PUSH2 0xAEB PUSH2 0x1167 JUMP JUMPDEST JUMPDEST DUP3 CALLDATALOAD SWAP1 POP PUSH8 0xFFFFFFFFFFFFFFFF DUP2 GT ISZERO PUSH2 0xB09 JUMPI PUSH2 0xB08 PUSH2 0x1162 JUMP JUMPDEST JUMPDEST PUSH1 0x20 DUP4 ADD SWAP2 POP DUP4 PUSH1 0x1 DUP3 MUL DUP4 ADD GT ISZERO PUSH2 0xB25 JUMPI PUSH2 0xB24 PUSH2 0x116C JUMP JUMPDEST JUMPDEST SWAP3 POP SWAP3 SWAP1 POP JUMP JUMPDEST PUSH1 0x0 DUP3 PUSH1 0x1F DUP4 ADD SLT PUSH2 0xB41 JUMPI PUSH2 0xB40 PUSH2 0x1167 JUMP JUMPDEST JUMPDEST DUP2 CALLDATALOAD PUSH2 0xB51 DUP5 DUP3 PUSH1 0x20 DUP7 ADD PUSH2 0xA7F JUMP JUMPDEST SWAP2 POP POP SWAP3 SWAP2 POP POP JUMP JUMPDEST PUSH1 0x0 DUP2 CALLDATALOAD SWAP1 POP PUSH2 0xB69 DUP2 PUSH2 0x11A8 JUMP JUMPDEST SWAP3 SWAP2 POP POP JUMP JUMPDEST PUSH1 0x0 DUP1 PUSH1 0x0 PUSH1 0x40 DUP5 DUP7 SUB SLT ISZERO PUSH2 0xB88 JUMPI PUSH2 0xB87 PUSH2 0x117B JUMP JUMPDEST JUMPDEST PUSH1 0x0 DUP5 ADD CALLDATALOAD PUSH8 0xFFFFFFFFFFFFFFFF DUP2 GT ISZERO PUSH2 0xBA6 JUMPI PUSH2 0xBA5 PUSH2 0x1176 JUMP JUMPDEST JUMPDEST PUSH2 0xBB2 DUP7 DUP3 DUP8 ADD PUSH2 0xAD6 JUMP JUMPDEST SWAP4 POP SWAP4 POP POP PUSH1 0x20 PUSH2 0xBC5 DUP7 DUP3 DUP8 ADD PUSH2 0xB5A JUMP JUMPDEST SWAP2 POP POP SWAP3 POP SWAP3 POP SWAP3 JUMP JUMPDEST PUSH1 0x0 DUP1 PUSH1 0x0 DUP1 PUSH1 0x60 DUP6 DUP8 SUB SLT ISZERO PUSH2 0xBE9 JUMPI PUSH2 0xBE8 PUSH2 0x117B JUMP JUMPDEST JUMPDEST PUSH1 0x0 DUP6 ADD CALLDATALOAD PUSH8 0xFFFFFFFFFFFFFFFF DUP2 GT ISZERO PUSH2 0xC07 JUMPI PUSH2 0xC06 PUSH2 0x1176 JUMP JUMPDEST JUMPDEST PUSH2 0xC13 DUP8 DUP3 DUP9 ADD PUSH2 0xAD6 JUMP JUMPDEST SWAP5 POP SWAP5 POP POP PUSH1 0x20 PUSH2 0xC26 DUP8 DUP3 DUP9 ADD PUSH2 0xB5A JUMP JUMPDEST SWAP3 POP POP PUSH1 0x40 PUSH2 0xC37 DUP8 DUP3 DUP9 ADD PUSH2 0xB5A JUMP JUMPDEST SWAP2 POP POP SWAP3 SWAP6 SWAP2 SWAP5 POP SWAP3 POP JUMP JUMPDEST PUSH1 0x0 PUSH1 0x20 DUP3 DUP5 SUB SLT ISZERO PUSH2 0xC59 JUMPI PUSH2 0xC58 PUSH2 0x117B JUMP JUMPDEST JUMPDEST PUSH1 0x0 DUP3 ADD CALLDATALOAD PUSH8 0xFFFFFFFFFFFFFFFF DUP2 GT ISZERO PUSH2 0xC77 JUMPI PUSH2 0xC76 PUSH2 0x1176 JUMP JUMPDEST JUMPDEST PUSH2 0xC83 DUP5 DUP3 DUP6 ADD PUSH2 0xB2C JUMP JUMPDEST SWAP2 POP POP SWAP3 SWAP2 POP POP JUMP JUMPDEST PUSH1 0x0 PUSH1 0x20 DUP3 DUP5 SUB SLT ISZERO PUSH2 0xCA2 JUMPI PUSH2 0xCA1 PUSH2 0x117B JUMP JUMPDEST JUMPDEST PUSH1 0x0 PUSH2 0xCB0 DUP5 DUP3 DUP6 ADD PUSH2 0xB5A JUMP JUMPDEST SWAP2 POP POP SWAP3 SWAP2 POP POP JUMP JUMPDEST PUSH1 0x0 DUP1 PUSH1 0x40 DUP4 DUP6 SUB SLT ISZERO PUSH2 0xCD0 JUMPI PUSH2 0xCCF PUSH2 0x117B JUMP JUMPDEST JUMPDEST PUSH1 0x0 PUSH2 0xCDE DUP6 DUP3 DUP7 ADD PUSH2 0xB5A JUMP JUMPDEST SWAP3 POP POP PUSH1 0x20 PUSH2 0xCEF DUP6 DUP3 DUP7 ADD PUSH2 0xAC1 JUMP JUMPDEST SWAP2 POP POP SWAP3 POP SWAP3 SWAP1 POP JUMP JUMPDEST PUSH2 0xD02 DUP2 PUSH2 0xF8F JUMP JUMPDEST DUP3 MSTORE POP POP JUMP JUMPDEST PUSH2 0xD11 DUP2 PUSH2 0xFA1 JUMP JUMPDEST DUP3 MSTORE POP POP JUMP JUMPDEST PUSH1 0x0 PUSH2 0xD23 DUP4 DUP6 PUSH2 0xF2E JUMP JUMPDEST SWAP4 POP PUSH2 0xD30 DUP4 DUP6 DUP5 PUSH2 0xFD7 JUMP JUMPDEST DUP3 DUP5 ADD SWAP1 POP SWAP4 SWAP3 POP POP POP JUMP JUMPDEST PUSH1 0x0 PUSH2 0xD47 DUP3 PUSH2 0xF12 JUMP JUMPDEST PUSH2 0xD51 DUP2 DUP6 PUSH2 0xF1D JUMP JUMPDEST SWAP4 POP PUSH2 0xD61 DUP2 DUP6 PUSH1 0x20 DUP7 ADD PUSH2 0xFE6 JUMP JUMPDEST PUSH2 0xD6A DUP2 PUSH2 0x1180 JUMP JUMPDEST DUP5 ADD SWAP2 POP POP SWAP3 SWAP2 POP POP JUMP JUMPDEST PUSH1 0x0 DUP2 SLOAD PUSH2 0xD82 DUP2 PUSH2 0x1043 JUMP JUMPDEST PUSH2 0xD8C DUP2 DUP7 PUSH2 0xF2E JUMP JUMPDEST SWAP5 POP PUSH1 0x1 DUP3 AND PUSH1 0x0 DUP2 EQ PUSH2 0xDA7 JUMPI PUSH1 0x1 DUP2 EQ PUSH2 0xDB8 JUMPI PUSH2 0xDEB JUMP JUMPDEST PUSH1 0xFF NOT DUP4 AND DUP7 MSTORE DUP2 DUP7 ADD SWAP4 POP PUSH2 0xDEB JUMP JUMPDEST PUSH2 0xDC1 DUP6 PUSH2 0xEFD JUMP JUMPDEST PUSH1 0x0 JUMPDEST DUP4 DUP2 LT ISZERO PUSH2 0xDE3 JUMPI DUP2 SLOAD DUP2 DUP10 ADD MSTORE PUSH1 0x1 DUP3 ADD SWAP2 POP PUSH1 0x20 DUP2 ADD SWAP1 POP PUSH2 0xDC4 JUMP JUMPDEST DUP4 DUP9 ADD SWAP6 POP POP POP JUMPDEST POP POP POP SWAP3 SWAP2 POP POP JUMP JUMPDEST PUSH2 0xDFD DUP2 PUSH2 0xFCD JUMP JUMPDEST DUP3 MSTORE POP POP JUMP JUMPDEST PUSH1 0x0 PUSH2 0xE10 DUP3 DUP5 DUP7 PUSH2 0xD17 JUMP JUMPDEST SWAP2 POP DUP2 SWAP1 POP SWAP4 SWAP3 POP POP POP JUMP JUMPDEST PUSH1 0x0 PUSH2 0xE28 DUP3 DUP5 PUSH2 0xD75 JUMP JUMPDEST SWAP2 POP DUP2 SWAP1 POP SWAP3 SWAP2 POP POP JUMP JUMPDEST PUSH1 0x0 PUSH1 0x20 DUP3 ADD SWAP1 POP PUSH2 0xE48 PUSH1 0x0 DUP4 ADD DUP5 PUSH2 0xCF9 JUMP JUMPDEST SWAP3 SWAP2 POP POP JUMP JUMPDEST PUSH1 0x0 PUSH1 0x20 DUP3 ADD SWAP1 POP DUP2 DUP2 SUB PUSH1 0x0 DUP4 ADD MSTORE PUSH2 0xE68 DUP2 DUP5 PUSH2 0xD3C JUMP JUMPDEST SWAP1 POP SWAP3 SWAP2 POP POP JUMP JUMPDEST PUSH1 0x0 PUSH1 0x60 DUP3 ADD SWAP1 POP PUSH2 0xE85 PUSH1 0x0 DUP4 ADD DUP7 PUSH2 0xDF4 JUMP JUMPDEST PUSH2 0xE92 PUSH1 0x20 DUP4 ADD DUP6 PUSH2 0xDF4 JUMP JUMPDEST PUSH2 0xE9F PUSH1 0x40 DUP4 ADD DUP5 PUSH2 0xD08 JUMP JUMPDEST SWAP5 SWAP4 POP POP POP POP JUMP JUMPDEST PUSH1 0x0 PUSH2 0xEB1 PUSH2 0xEC2 JUMP JUMPDEST SWAP1 POP PUSH2 0xEBD DUP3 DUP3 PUSH2 0x1075 JUMP JUMPDEST SWAP2 SWAP1 POP JUMP JUMPDEST PUSH1 0x0 PUSH1 0x40 MLOAD SWAP1 POP SWAP1 JUMP JUMPDEST PUSH1 0x0 PUSH8 0xFFFFFFFFFFFFFFFF DUP3 GT ISZERO PUSH2 0xEE7 JUMPI PUSH2 0xEE6 PUSH2 0x1133 JUMP JUMPDEST JUMPDEST PUSH2 0xEF0 DUP3 PUSH2 0x1180 JUMP JUMPDEST SWAP1 POP PUSH1 0x20 DUP2 ADD SWAP1 POP SWAP2 SWAP1 POP JUMP JUMPDEST PUSH1 0x0 DUP2 SWAP1 POP DUP2 PUSH1 0x0 MSTORE PUSH1 0x20 PUSH1 0x0 KECCAK256 SWAP1 POP SWAP2 SWAP1 POP JUMP JUMPDEST PUSH1 0x0 DUP2 MLOAD SWAP1 POP SWAP2 SWAP1 POP JUMP JUMPDEST PUSH1 0x0 DUP3 DUP3 MSTORE PUSH1 0x20 DUP3 ADD SWAP1 POP SWAP3 SWAP2 POP POP JUMP JUMPDEST PUSH1 0x0 DUP2 SWAP1 POP SWAP3 SWAP2 POP POP JUMP JUMPDEST PUSH1 0x0 PUSH2 0xF44 DUP3 PUSH2 0xFCD JUMP JUMPDEST SWAP2 POP PUSH2 0xF4F DUP4 PUSH2 0xFCD JUMP JUMPDEST SWAP3 POP DUP3 PUSH32 0xFFFFFFFFFFFFFFFFFFFFFFFFFFFFFFFFFFFFFFFFFFFFFFFFFFFFFFFFFFFFFFFF SUB DUP3 GT ISZERO PUSH2 0xF84 JUMPI PUSH2 0xF83 PUSH2 0x10A6 JUMP JUMPDEST JUMPDEST DUP3 DUP3 ADD SWAP1 POP SWAP3 SWAP2 POP POP JUMP JUMPDEST PUSH1 0x0 PUSH2 0xF9A DUP3 PUSH2 0xFAD JUMP JUMPDEST SWAP1 POP SWAP2 SWAP1 POP JUMP JUMPDEST PUSH1 0x0 DUP2 ISZERO ISZERO SWAP1 POP SWAP2 SWAP1 POP JUMP JUMPDEST PUSH1 0x0 PUSH20 0xFFFFFFFFFFFFFFFFFFFFFFFFFFFFFFFFFFFFFFFF DUP3 AND SWAP1 POP SWAP2 SWAP1 POP JUMP JUMPDEST PUSH1 0x0 DUP2 SWAP1 POP SWAP2 SWAP1 POP JUMP JUMPDEST DUP3 DUP2 DUP4 CALLDATACOPY PUSH1 0x0 DUP4 DUP4 ADD MSTORE POP POP POP JUMP JUMPDEST PUSH1 0x0 JUMPDEST DUP4 DUP2 LT ISZERO PUSH2 0x1004 JUMPI DUP1 DUP3 ADD MLOAD DUP2 DUP5 ADD MSTORE PUSH1 0x20 DUP2 ADD SWAP1 POP PUSH2 0xFE9 JUMP JUMPDEST DUP4 DUP2 GT ISZERO PUSH2 0x1013 JUMPI PUSH1 0x0 DUP5 DUP5 ADD MSTORE JUMPDEST POP POP POP POP JUMP JUMPDEST PUSH1 0x0 PUSH2 0x1024 DUP3 PUSH2 0xFCD JUMP JUMPDEST SWAP2 POP PUSH1 0x0 DUP3 EQ ISZERO PUSH2 0x1038 JUMPI PUSH2 0x1037 PUSH2 0x10A6 JUMP JUMPDEST JUMPDEST PUSH1 0x1 DUP3 SUB SWAP1 POP SWAP2 SWAP1 POP JUMP JUMPDEST PUSH1 0x0 PUSH1 0x2 DUP3 DIV SWAP1 POP PUSH1 0x1 DUP3 AND DUP1 PUSH2 0x105B JUMPI PUSH1 0x7F DUP3 AND SWAP2 POP JUMPDEST PUSH1 0x20 DUP3 LT DUP2 EQ ISZERO PUSH2 0x106F JUMPI PUSH2 0x106E PUSH2 0x10D5 JUMP JUMPDEST JUMPDEST POP SWAP2 SWAP1 POP JUMP JUMPDEST PUSH2 0x107E DUP3 PUSH2 0x1180 JUMP JUMPDEST DUP2 ADD DUP2 DUP2 LT PUSH8 0xFFFFFFFFFFFFFFFF DUP3 GT OR ISZERO PUSH2 0x109D JUMPI PUSH2 0x109C PUSH2 0x1133 JUMP JUMPDEST JUMPDEST DUP1 PUSH1 0x40 MSTORE POP POP POP JUMP JUMPDEST PUSH32 0x4E487B7100000000000000000000000000000000000000000000000000000000 PUSH1 0x0 MSTORE PUSH1 0x11 PUSH1 0x4 MSTORE PUSH1 0x24 PUSH1 0x0 REVERT JUMPDEST PUSH32 0x4E487B7100000000000000000000000000000000000000000000000000000000 PUSH1 0x0 MSTORE PUSH1 0x22 PUSH1 0x4 MSTORE PUSH1 0x24 PUSH1 0x0 REVERT JUMPDEST PUSH32 0x4E487B7100000000000000000000000000000000000000000000000000000000 PUSH1 0x0 MSTORE PUSH1 0x32 PUSH1 0x4 MSTORE PUSH1 0x24 PUSH1 0x0 REVERT JUMPDEST PUSH32 0x4E487B7100000000000000000000000000000000000000000000000000000000 PUSH1 0x0 MSTORE PUSH1 0x41 PUSH1 0x4 MSTORE PUSH1 0x24 PUSH1 0x0 REVERT JUMPDEST PUSH1 0x0 DUP1 REVERT JUMPDEST PUSH1 0x0 DUP1 REVERT JUMPDEST PUSH1 0x0 DUP1 REVERT JUMPDEST PUSH1 0x0 DUP1 REVERT JUMPDEST PUSH1 0x0 DUP1 REVERT JUMPDEST PUSH1 0x0 DUP1 REVERT JUMPDEST PUSH1 0x0 PUSH1 0x1F NOT PUSH1 0x1F DUP4 ADD AND SWAP1 POP SWAP2 SWAP1 POP JUMP JUMPDEST PUSH2 0x119A DUP2 PUSH2 0xF8F JUMP JUMPDEST DUP2 EQ PUSH2 0x11A5 JUMPI PUSH1 0x0 DUP1 REVERT JUMPDEST POP JUMP JUMPDEST PUSH2 0x11B1 DUP2 PUSH2 0xFCD JUMP JUMPDEST DUP2 EQ PUSH2 0x11BC JUMPI PUSH1 0x0 DUP1 REVERT JUMPDEST POP JUMP INVALID LOG2 PUSH5 0x6970667358 0x22 SLT KECCAK256 0xDD ADDRESS 0xF7 0xEF PUSH29 0x59C1D6C7D797D6857C4EF4D19D03117E8A7CBDF7ECA636490BED846473 PUSH16 0x6C634300080700330000000000000000 "
				},
				"gasEstimates": {
					"creation": {
						"codeDepositCost": "919400",
						"executionCost": "931",
						"totalCost": "920331"
					},
					"external": {
						"addNewProduct(string,uint256,uint256)": "infinite",
						"availableProducts(uint256)": "infinite",
						"buyProduct(uint256)": "infinite",
						"checkProductBuyers(uint256)": "infinite",
						"products(string)": "infinite",
						"transactions(uint256,address)": "infinite",
						"updateQuantity(string,uint256)": "infinite"
					}
				},
				"methodIdentifiers": {
					"addNewProduct(string,uint256,uint256)": "0a5bd44b",
					"availableProducts(uint256)": "e4bcc7d4",
					"buyProduct(uint256)": "8642269e",
					"checkProductBuyers(uint256)": "74ce0ca9",
					"products(string)": "0186a423",
					"transactions(uint256,address)": "74cbc350",
					"updateQuantity(string,uint256)": "1d894eb8"
				}
			},
			"storageLayout": {
				"storage": [
					{
						"astId": 33,
						"contract": "Project/TechnoLime.sol:TechnoLimeStore",
						"label": "availableProducts",
						"offset": 0,
						"slot": "0",
						"type": "t_array(t_string_storage)dyn_storage"
					},
					{
						"astId": 38,
						"contract": "Project/TechnoLime.sol:TechnoLimeStore",
						"label": "products",
						"offset": 0,
						"slot": "1",
						"type": "t_mapping(t_string_memory_ptr,t_struct(Product)30_storage)"
					},
					{
						"astId": 52,
						"contract": "Project/TechnoLime.sol:TechnoLimeStore",
						"label": "transactions",
						"offset": 0,
						"slot": "2",
						"type": "t_mapping(t_uint256,t_mapping(t_address,t_struct(Transaction)45_storage))"
					}
				],
				"types": {
					"t_address": {
						"encoding": "inplace",
						"label": "address",
						"numberOfBytes": "20"
					},
					"t_array(t_address)dyn_storage": {
						"base": "t_address",
						"encoding": "dynamic_array",
						"label": "address[]",
						"numberOfBytes": "32"
					},
					"t_array(t_string_storage)dyn_storage": {
						"base": "t_string_storage",
						"encoding": "dynamic_array",
						"label": "string[]",
						"numberOfBytes": "32"
					},
					"t_bool": {
						"encoding": "inplace",
						"label": "bool",
						"numberOfBytes": "1"
					},
					"t_mapping(t_address,t_struct(Transaction)45_storage)": {
						"encoding": "mapping",
						"key": "t_address",
						"label": "mapping(address => struct TechnoLimeStore.Transaction)",
						"numberOfBytes": "32",
						"value": "t_struct(Transaction)45_storage"
					},
					"t_mapping(t_string_memory_ptr,t_struct(Product)30_storage)": {
						"encoding": "mapping",
						"key": "t_string_memory_ptr",
						"label": "mapping(string => struct TechnoLimeStore.Product)",
						"numberOfBytes": "32",
						"value": "t_struct(Product)30_storage"
					},
					"t_mapping(t_uint256,t_mapping(t_address,t_struct(Transaction)45_storage))": {
						"encoding": "mapping",
						"key": "t_uint256",
						"label": "mapping(uint256 => mapping(address => struct TechnoLimeStore.Transaction))",
						"numberOfBytes": "32",
						"value": "t_mapping(t_address,t_struct(Transaction)45_storage)"
					},
					"t_string_memory_ptr": {
						"encoding": "bytes",
						"label": "string",
						"numberOfBytes": "32"
					},
					"t_string_storage": {
						"encoding": "bytes",
						"label": "string",
						"numberOfBytes": "32"
					},
					"t_struct(Product)30_storage": {
						"encoding": "inplace",
						"label": "struct TechnoLimeStore.Product",
						"members": [
							{
								"astId": 22,
								"contract": "Project/TechnoLime.sol:TechnoLimeStore",
								"label": "price",
								"offset": 0,
								"slot": "0",
								"type": "t_uint256"
							},
							{
								"astId": 24,
								"contract": "Project/TechnoLime.sol:TechnoLimeStore",
								"label": "quantity",
								"offset": 0,
								"slot": "1",
								"type": "t_uint256"
							},
							{
								"astId": 27,
								"contract": "Project/TechnoLime.sol:TechnoLimeStore",
								"label": "buyers",
								"offset": 0,
								"slot": "2",
								"type": "t_array(t_address)dyn_storage"
							},
							{
								"astId": 29,
								"contract": "Project/TechnoLime.sol:TechnoLimeStore",
								"label": "exists",
								"offset": 0,
								"slot": "3",
								"type": "t_bool"
							}
						],
						"numberOfBytes": "128"
					},
					"t_struct(Transaction)45_storage": {
						"encoding": "inplace",
						"label": "struct TechnoLimeStore.Transaction",
						"members": [
							{
								"astId": 40,
								"contract": "Project/TechnoLime.sol:TechnoLimeStore",
								"label": "blockNum",
								"offset": 0,
								"slot": "0",
								"type": "t_uint256"
							},
							{
								"astId": 42,
								"contract": "Project/TechnoLime.sol:TechnoLimeStore",
								"label": "price",
								"offset": 0,
								"slot": "1",
								"type": "t_uint256"
							},
							{
								"astId": 44,
								"contract": "Project/TechnoLime.sol:TechnoLimeStore",
								"label": "exists",
								"offset": 0,
								"slot": "2",
								"type": "t_bool"
							}
						],
						"numberOfBytes": "96"
					},
					"t_uint256": {
						"encoding": "inplace",
						"label": "uint256",
						"numberOfBytes": "32"
					}
				}
			},
			"userdoc": {
				"errors": {
					"ItemIdWrongOrBoughtAlready()": [
						{
							"notice": "Error trown when the productID doesn't exist or it has been bought once already"
						}
					],
					"LessThanPrice()": [
						{
							"notice": "Error trown when money sent is less than Product price"
						}
					],
					"ProductExists()": [
						{
							"notice": "Can't add a product that already exists"
						}
					]
				},
				"kind": "user",
				"methods": {},
				"version": 1
			}
		}
	}
}