{
	"Project/TechnoLime.sol": {
		"TechnoLimeStore": {
			"abi": [
				{
					"inputs": [],
					"stateMutability": "payable",
					"type": "constructor"
				},
				{
					"inputs": [],
					"name": "Blocks100Exceeded",
					"type": "error"
				},
				{
					"inputs": [],
					"name": "ItemIdWrongOrBoughtAlready",
					"type": "error"
				},
				{
					"inputs": [],
					"name": "LessThanPriceOrOutOfStock",
					"type": "error"
				},
				{
					"inputs": [],
					"name": "NothingToRefund",
					"type": "error"
				},
				{
					"inputs": [],
					"name": "ProductExists",
					"type": "error"
				},
				{
					"inputs": [],
					"name": "ProductNotExistent",
					"type": "error"
				},
				{
					"inputs": [],
					"name": "TransactionNotExistent",
					"type": "error"
				},
				{
					"inputs": [
						{
							"internalType": "string",
							"name": "_name",
							"type": "string"
						},
						{
							"internalType": "uint256",
							"name": "_price",
							"type": "uint256"
						},
						{
							"internalType": "uint256",
							"name": "_quantity",
							"type": "uint256"
						}
					],
					"name": "addNewProduct",
					"outputs": [],
					"stateMutability": "nonpayable",
					"type": "function"
				},
				{
					"inputs": [
						{
							"internalType": "uint256",
							"name": "",
							"type": "uint256"
						}
					],
					"name": "availableProducts",
					"outputs": [
						{
							"internalType": "string",
							"name": "",
							"type": "string"
						}
					],
					"stateMutability": "view",
					"type": "function"
				},
				{
					"inputs": [
						{
							"internalType": "uint256",
							"name": "_id",
							"type": "uint256"
						}
					],
					"name": "buyProduct",
					"outputs": [],
					"stateMutability": "payable",
					"type": "function"
				},
				{
					"inputs": [
						{
							"internalType": "uint256",
							"name": "",
							"type": "uint256"
						},
						{
							"internalType": "uint256",
							"name": "",
							"type": "uint256"
						}
					],
					"name": "buyers",
					"outputs": [
						{
							"internalType": "address",
							"name": "",
							"type": "address"
						}
					],
					"stateMutability": "view",
					"type": "function"
				},
				{
					"inputs": [
						{
							"internalType": "address",
							"name": "",
							"type": "address"
						}
					],
					"name": "pendingWithdrawals",
					"outputs": [
						{
							"internalType": "uint256",
							"name": "",
							"type": "uint256"
						}
					],
					"stateMutability": "view",
					"type": "function"
				},
				{
					"inputs": [
						{
							"internalType": "uint256",
							"name": "",
							"type": "uint256"
						}
					],
					"name": "products",
					"outputs": [
						{
							"internalType": "uint256",
							"name": "price",
							"type": "uint256"
						},
						{
							"internalType": "uint256",
							"name": "quantity",
							"type": "uint256"
						},
						{
							"internalType": "string",
							"name": "name",
							"type": "string"
						},
						{
							"internalType": "bool",
							"name": "exists",
							"type": "bool"
						}
					],
					"stateMutability": "view",
					"type": "function"
				},
				{
					"inputs": [
						{
							"internalType": "uint256",
							"name": "_id",
							"type": "uint256"
						}
					],
					"name": "returnProduct",
					"outputs": [],
					"stateMutability": "nonpayable",
					"type": "function"
				},
				{
					"inputs": [
						{
							"internalType": "uint256",
							"name": "",
							"type": "uint256"
						},
						{
							"internalType": "address",
							"name": "",
							"type": "address"
						}
					],
					"name": "transactions",
					"outputs": [
						{
							"internalType": "uint256",
							"name": "blockNum",
							"type": "uint256"
						},
						{
							"internalType": "uint256",
							"name": "price",
							"type": "uint256"
						},
						{
							"internalType": "uint256",
							"name": "status",
							"type": "uint256"
						}
					],
					"stateMutability": "view",
					"type": "function"
				},
				{
					"inputs": [
						{
							"internalType": "uint256",
							"name": "_id",
							"type": "uint256"
						},
						{
							"internalType": "uint256",
							"name": "_quantity",
							"type": "uint256"
						}
					],
					"name": "updateQuantity",
					"outputs": [],
					"stateMutability": "nonpayable",
					"type": "function"
				},
				{
					"inputs": [],
					"name": "withdraw",
					"outputs": [],
					"stateMutability": "nonpayable",
					"type": "function"
				}
			],
			"devdoc": {
				"kind": "dev",
				"methods": {},
				"version": 1
			},
			"evm": {
				"assembly": "    /* \"Project/TechnoLime.sol\":98:5178  contract TechnoLimeStore {\r... */\n  mstore(0x40, 0x80)\n  dataSize(sub_0)\n  dup1\n  dataOffset(sub_0)\n  0x00\n  codecopy\n  0x00\n  return\nstop\n\nsub_0: assembly {\n        /* \"Project/TechnoLime.sol\":98:5178  contract TechnoLimeStore {\r... */\n      mstore(0x40, 0x80)\n      jumpi(tag_1, lt(calldatasize, 0x04))\n      shr(0xe0, calldataload(0x00))\n      dup1\n      0x79cd4921\n      gt\n      tag_12\n      jumpi\n      dup1\n      0x79cd4921\n      eq\n      tag_7\n      jumpi\n      dup1\n      0x7acc0b20\n      eq\n      tag_8\n      jumpi\n      dup1\n      0x8642269e\n      eq\n      tag_9\n      jumpi\n      dup1\n      0xe4bcc7d4\n      eq\n      tag_10\n      jumpi\n      dup1\n      0xf3f43703\n      eq\n      tag_11\n      jumpi\n      jump(tag_1)\n    tag_12:\n      dup1\n      0x0a5bd44b\n      eq\n      tag_2\n      jumpi\n      dup1\n      0x131e407d\n      eq\n      tag_3\n      jumpi\n      dup1\n      0x27e7875a\n      eq\n      tag_4\n      jumpi\n      dup1\n      0x3ccfd60b\n      eq\n      tag_5\n      jumpi\n      dup1\n      0x74cbc350\n      eq\n      tag_6\n      jumpi\n    tag_1:\n      0x00\n      dup1\n      revert\n        /* \"Project/TechnoLime.sol\":1001:1655  function addNewProduct(string calldata _name, uint _price,uint _quantity) external{\r... */\n    tag_2:\n      callvalue\n      dup1\n      iszero\n      tag_13\n      jumpi\n      0x00\n      dup1\n      revert\n    tag_13:\n      pop\n      tag_14\n      0x04\n      dup1\n      calldatasize\n      sub\n      dup2\n      add\n      swap1\n      tag_15\n      swap2\n      swap1\n      tag_16\n      jump\t// in\n    tag_15:\n      tag_17\n      jump\t// in\n    tag_14:\n      stop\n        /* \"Project/TechnoLime.sol\":3375:4475  function returnProduct(uint _id) external {\r... */\n    tag_3:\n      callvalue\n      dup1\n      iszero\n      tag_18\n      jumpi\n      0x00\n      dup1\n      revert\n    tag_18:\n      pop\n      tag_19\n      0x04\n      dup1\n      calldatasize\n      sub\n      dup2\n      add\n      swap1\n      tag_20\n      swap2\n      swap1\n      tag_21\n      jump\t// in\n    tag_20:\n      tag_22\n      jump\t// in\n    tag_19:\n      stop\n        /* \"Project/TechnoLime.sol\":894:933  mapping(uint =>address[]) public buyers */\n    tag_4:\n      callvalue\n      dup1\n      iszero\n      tag_23\n      jumpi\n      0x00\n      dup1\n      revert\n    tag_23:\n      pop\n      tag_24\n      0x04\n      dup1\n      calldatasize\n      sub\n      dup2\n      add\n      swap1\n      tag_25\n      swap2\n      swap1\n      tag_26\n      jump\t// in\n    tag_25:\n      tag_27\n      jump\t// in\n    tag_24:\n      mload(0x40)\n      tag_28\n      swap2\n      swap1\n      tag_29\n      jump\t// in\n    tag_28:\n      mload(0x40)\n      dup1\n      swap2\n      sub\n      swap1\n      return\n        /* \"Project/TechnoLime.sol\":4642:5161  function withdraw() public {\r... */\n    tag_5:\n      callvalue\n      dup1\n      iszero\n      tag_30\n      jumpi\n      0x00\n      dup1\n      revert\n    tag_30:\n      pop\n      tag_31\n      tag_32\n      jump\t// in\n    tag_31:\n      stop\n        /* \"Project/TechnoLime.sol\":819:887  mapping(uint => mapping(address => Transaction)) public transactions */\n    tag_6:\n      callvalue\n      dup1\n      iszero\n      tag_33\n      jumpi\n      0x00\n      dup1\n      revert\n    tag_33:\n      pop\n      tag_34\n      0x04\n      dup1\n      calldatasize\n      sub\n      dup2\n      add\n      swap1\n      tag_35\n      swap2\n      swap1\n      tag_36\n      jump\t// in\n    tag_35:\n      tag_37\n      jump\t// in\n    tag_34:\n      mload(0x40)\n      tag_38\n      swap4\n      swap3\n      swap2\n      swap1\n      tag_39\n      jump\t// in\n    tag_38:\n      mload(0x40)\n      dup1\n      swap2\n      sub\n      swap1\n      return\n        /* \"Project/TechnoLime.sol\":1663:1997  function updateQuantity(uint _id,uint _quantity) external{\r... */\n    tag_7:\n      callvalue\n      dup1\n      iszero\n      tag_40\n      jumpi\n      0x00\n      dup1\n      revert\n    tag_40:\n      pop\n      tag_41\n      0x04\n      dup1\n      calldatasize\n      sub\n      dup2\n      add\n      swap1\n      tag_42\n      swap2\n      swap1\n      tag_26\n      jump\t// in\n    tag_42:\n      tag_43\n      jump\t// in\n    tag_41:\n      stop\n        /* \"Project/TechnoLime.sol\":634:674  mapping(uint => Product) public products */\n    tag_8:\n      callvalue\n      dup1\n      iszero\n      tag_44\n      jumpi\n      0x00\n      dup1\n      revert\n    tag_44:\n      pop\n      tag_45\n      0x04\n      dup1\n      calldatasize\n      sub\n      dup2\n      add\n      swap1\n      tag_46\n      swap2\n      swap1\n      tag_21\n      jump\t// in\n    tag_46:\n      tag_47\n      jump\t// in\n    tag_45:\n      mload(0x40)\n      tag_48\n      swap5\n      swap4\n      swap3\n      swap2\n      swap1\n      tag_49\n      jump\t// in\n    tag_48:\n      mload(0x40)\n      dup1\n      swap2\n      sub\n      swap1\n      return\n        /* \"Project/TechnoLime.sol\":2100:3361  function buyProduct (uint _id)  external payable { \r... */\n    tag_9:\n      tag_50\n      0x04\n      dup1\n      calldatasize\n      sub\n      dup2\n      add\n      swap1\n      tag_51\n      swap2\n      swap1\n      tag_21\n      jump\t// in\n    tag_51:\n      tag_52\n      jump\t// in\n    tag_50:\n      stop\n        /* \"Project/TechnoLime.sol\":594:627  string[] public availableProducts */\n    tag_10:\n      callvalue\n      dup1\n      iszero\n      tag_53\n      jumpi\n      0x00\n      dup1\n      revert\n    tag_53:\n      pop\n      tag_54\n      0x04\n      dup1\n      calldatasize\n      sub\n      dup2\n      add\n      swap1\n      tag_55\n      swap2\n      swap1\n      tag_21\n      jump\t// in\n    tag_55:\n      tag_56\n      jump\t// in\n    tag_54:\n      mload(0x40)\n      tag_57\n      swap2\n      swap1\n      tag_58\n      jump\t// in\n    tag_57:\n      mload(0x40)\n      dup1\n      swap2\n      sub\n      swap1\n      return\n        /* \"Project/TechnoLime.sol\":942:992  mapping (address =>uint) public pendingWithdrawals */\n    tag_11:\n      callvalue\n      dup1\n      iszero\n      tag_59\n      jumpi\n      0x00\n      dup1\n      revert\n    tag_59:\n      pop\n      tag_60\n      0x04\n      dup1\n      calldatasize\n      sub\n      dup2\n      add\n      swap1\n      tag_61\n      swap2\n      swap1\n      tag_62\n      jump\t// in\n    tag_61:\n      tag_63\n      jump\t// in\n    tag_60:\n      mload(0x40)\n      tag_64\n      swap2\n      swap1\n      tag_65\n      jump\t// in\n    tag_64:\n      mload(0x40)\n      dup1\n      swap2\n      sub\n      swap1\n      return\n        /* \"Project/TechnoLime.sol\":1001:1655  function addNewProduct(string calldata _name, uint _price,uint _quantity) external{\r... */\n    tag_17:\n        /* \"Project/TechnoLime.sol\":1100:1110  productMap */\n      0x02\n        /* \"Project/TechnoLime.sol\":1111:1116  _name */\n      dup5\n      dup5\n        /* \"Project/TechnoLime.sol\":1100:1117  productMap[_name] */\n      mload(0x40)\n      tag_67\n      swap3\n      swap2\n      swap1\n      tag_68\n      jump\t// in\n    tag_67:\n      swap1\n      dup2\n      mstore\n      0x20\n      add\n      mload(0x40)\n      dup1\n      swap2\n      sub\n      swap1\n      keccak256\n      0x00\n      swap1\n      sload\n      swap1\n      0x0100\n      exp\n      swap1\n      div\n      0xff\n      and\n        /* \"Project/TechnoLime.sol\":1095:1638  if (!productMap[_name]){\r... */\n      tag_69\n      jumpi\n        /* \"Project/TechnoLime.sol\":1134:1156  Product memory product */\n      tag_70\n      tag_71\n      jump\t// in\n    tag_70:\n        /* \"Project/TechnoLime.sol\":1188:1194  _price */\n      dup3\n        /* \"Project/TechnoLime.sol\":1172:1179  product */\n      dup2\n        /* \"Project/TechnoLime.sol\":1172:1185  product.price */\n      0x00\n      add\n        /* \"Project/TechnoLime.sol\":1172:1194  product.price = _price */\n      dup2\n      dup2\n      mstore\n      pop\n      pop\n        /* \"Project/TechnoLime.sol\":1229:1238  _quantity */\n      dup2\n        /* \"Project/TechnoLime.sol\":1210:1217  product */\n      dup2\n        /* \"Project/TechnoLime.sol\":1210:1226  product.quantity */\n      0x20\n      add\n        /* \"Project/TechnoLime.sol\":1210:1238  product.quantity = _quantity */\n      dup2\n      dup2\n      mstore\n      pop\n      pop\n        /* \"Project/TechnoLime.sol\":1269:1274  _name */\n      dup5\n      dup5\n        /* \"Project/TechnoLime.sol\":1254:1274  product.name = _name */\n      dup1\n      dup1\n      0x1f\n      add\n      0x20\n      dup1\n      swap2\n      div\n      mul\n      0x20\n      add\n      mload(0x40)\n      swap1\n      dup2\n      add\n      0x40\n      mstore\n      dup1\n      swap4\n      swap3\n      swap2\n      swap1\n      dup2\n      dup2\n      mstore\n      0x20\n      add\n      dup4\n      dup4\n      dup1\n      dup3\n      dup5\n      calldatacopy\n      0x00\n      dup2\n      dup5\n      add\n      mstore\n      not(0x1f)\n      0x1f\n      dup3\n      add\n      and\n      swap1\n      pop\n      dup1\n      dup4\n      add\n      swap3\n      pop\n      pop\n      pop\n      pop\n      pop\n      pop\n      pop\n        /* \"Project/TechnoLime.sol\":1254:1261  product */\n      dup2\n        /* \"Project/TechnoLime.sol\":1254:1266  product.name */\n      0x40\n      add\n        /* \"Project/TechnoLime.sol\":1254:1274  product.name = _name */\n      dup2\n      swap1\n      mstore\n      pop\n        /* \"Project/TechnoLime.sol\":1307:1311  true */\n      0x01\n        /* \"Project/TechnoLime.sol\":1290:1297  product */\n      dup2\n        /* \"Project/TechnoLime.sol\":1290:1304  product.exists */\n      0x60\n      add\n        /* \"Project/TechnoLime.sol\":1290:1311  product.exists = true */\n      swap1\n      iszero\n      iszero\n      swap1\n      dup2\n      iszero\n      iszero\n      dup2\n      mstore\n      pop\n      pop\n        /* \"Project/TechnoLime.sol\":1364:1371  product */\n      dup1\n        /* \"Project/TechnoLime.sol\":1327:1335  products */\n      0x01\n        /* \"Project/TechnoLime.sol\":1327:1361  products[availableProducts.length] */\n      0x00\n        /* \"Project/TechnoLime.sol\":1336:1353  availableProducts */\n      dup1\n        /* \"Project/TechnoLime.sol\":1336:1360  availableProducts.length */\n      dup1\n      sload\n      swap1\n      pop\n        /* \"Project/TechnoLime.sol\":1327:1361  products[availableProducts.length] */\n      dup2\n      mstore\n      0x20\n      add\n      swap1\n      dup2\n      mstore\n      0x20\n      add\n      0x00\n      keccak256\n        /* \"Project/TechnoLime.sol\":1327:1371  products[availableProducts.length] = product */\n      0x00\n      dup3\n      add\n      mload\n      dup2\n      0x00\n      add\n      sstore\n      0x20\n      dup3\n      add\n      mload\n      dup2\n      0x01\n      add\n      sstore\n      0x40\n      dup3\n      add\n      mload\n      dup2\n      0x02\n      add\n      swap1\n      dup1\n      mload\n      swap1\n      0x20\n      add\n      swap1\n      tag_72\n      swap3\n      swap2\n      swap1\n      tag_73\n      jump\t// in\n    tag_72:\n      pop\n      0x60\n      dup3\n      add\n      mload\n      dup2\n      0x03\n      add\n      exp(0x0100, 0x00)\n      dup2\n      sload\n      dup2\n      0xff\n      mul\n      not\n      and\n      swap1\n      dup4\n      iszero\n      iszero\n      mul\n      or\n      swap1\n      sstore\n      pop\n      swap1\n      pop\n      pop\n        /* \"Project/TechnoLime.sol\":1407:1411  true */\n      0x01\n        /* \"Project/TechnoLime.sol\":1387:1397  productMap */\n      0x02\n        /* \"Project/TechnoLime.sol\":1398:1403  _name */\n      dup7\n      dup7\n        /* \"Project/TechnoLime.sol\":1387:1404  productMap[_name] */\n      mload(0x40)\n      tag_74\n      swap3\n      swap2\n      swap1\n      tag_68\n      jump\t// in\n    tag_74:\n      swap1\n      dup2\n      mstore\n      0x20\n      add\n      mload(0x40)\n      dup1\n      swap2\n      sub\n      swap1\n      keccak256\n      0x00\n        /* \"Project/TechnoLime.sol\":1387:1411  productMap[_name] = true */\n      0x0100\n      exp\n      dup2\n      sload\n      dup2\n      0xff\n      mul\n      not\n      and\n      swap1\n      dup4\n      iszero\n      iszero\n      mul\n      or\n      swap1\n      sstore\n      pop\n        /* \"Project/TechnoLime.sol\":1427:1444  availableProducts */\n      0x00\n        /* \"Project/TechnoLime.sol\":1450:1455  _name */\n      dup6\n      dup6\n        /* \"Project/TechnoLime.sol\":1427:1456  availableProducts.push(_name) */\n      swap1\n      swap2\n      dup1\n      0x01\n      dup2\n      sload\n      add\n      dup1\n      dup3\n      sstore\n      dup1\n      swap2\n      pop\n      pop\n      0x01\n      swap1\n      sub\n      swap1\n      0x00\n      mstore\n      keccak256(0x00, 0x20)\n      add\n      0x00\n      swap1\n      swap2\n      swap3\n      swap1\n      swap2\n      swap3\n      swap1\n      swap2\n      swap3\n      swap1\n      swap2\n      swap3\n      pop\n      swap2\n      swap1\n      tag_76\n      swap3\n      swap2\n      swap1\n      tag_77\n      jump\t// in\n    tag_76:\n      pop\n        /* \"Project/TechnoLime.sol\":1118:1469  {\r... */\n      pop\n        /* \"Project/TechnoLime.sol\":1095:1638  if (!productMap[_name]){\r... */\n      jump(tag_78)\n    tag_69:\n        /* \"Project/TechnoLime.sol\":1603:1625  Errors.ProductExists() */\n      mload(0x40)\n      0xb185df3a00000000000000000000000000000000000000000000000000000000\n      dup2\n      mstore\n      0x04\n      add\n      mload(0x40)\n      dup1\n      swap2\n      sub\n      swap1\n      revert\n        /* \"Project/TechnoLime.sol\":1095:1638  if (!productMap[_name]){\r... */\n    tag_78:\n        /* \"Project/TechnoLime.sol\":1001:1655  function addNewProduct(string calldata _name, uint _price,uint _quantity) external{\r... */\n      pop\n      pop\n      pop\n      pop\n      jump\t// out\n        /* \"Project/TechnoLime.sol\":3375:4475  function returnProduct(uint _id) external {\r... */\n    tag_22:\n        /* \"Project/TechnoLime.sol\":3701:3702  1 */\n      0x01\n        /* \"Project/TechnoLime.sol\":3661:3673  transactions */\n      0x03\n        /* \"Project/TechnoLime.sol\":3661:3678  transactions[_id] */\n      0x00\n        /* \"Project/TechnoLime.sol\":3674:3677  _id */\n      dup4\n        /* \"Project/TechnoLime.sol\":3661:3678  transactions[_id] */\n      dup2\n      mstore\n      0x20\n      add\n      swap1\n      dup2\n      mstore\n      0x20\n      add\n      0x00\n      keccak256\n        /* \"Project/TechnoLime.sol\":3661:3690  transactions[_id][msg.sender] */\n      0x00\n        /* \"Project/TechnoLime.sol\":3679:3689  msg.sender */\n      caller\n        /* \"Project/TechnoLime.sol\":3661:3690  transactions[_id][msg.sender] */\n      0xffffffffffffffffffffffffffffffffffffffff\n      and\n      0xffffffffffffffffffffffffffffffffffffffff\n      and\n      dup2\n      mstore\n      0x20\n      add\n      swap1\n      dup2\n      mstore\n      0x20\n      add\n      0x00\n      keccak256\n        /* \"Project/TechnoLime.sol\":3661:3697  transactions[_id][msg.sender].status */\n      0x02\n      add\n      sload\n        /* \"Project/TechnoLime.sol\":3661:3702  transactions[_id][msg.sender].status == 1 */\n      eq\n        /* \"Project/TechnoLime.sol\":3657:4468  if (transactions[_id][msg.sender].status == 1){ \r... */\n      iszero\n      tag_80\n      jumpi\n        /* \"Project/TechnoLime.sol\":3831:3861  Transaction memory transaction */\n      0x00\n        /* \"Project/TechnoLime.sol\":3864:3876  transactions */\n      0x03\n        /* \"Project/TechnoLime.sol\":3864:3881  transactions[_id] */\n      0x00\n        /* \"Project/TechnoLime.sol\":3877:3880  _id */\n      dup4\n        /* \"Project/TechnoLime.sol\":3864:3881  transactions[_id] */\n      dup2\n      mstore\n      0x20\n      add\n      swap1\n      dup2\n      mstore\n      0x20\n      add\n      0x00\n      keccak256\n        /* \"Project/TechnoLime.sol\":3864:3893  transactions[_id][msg.sender] */\n      0x00\n        /* \"Project/TechnoLime.sol\":3882:3892  msg.sender */\n      caller\n        /* \"Project/TechnoLime.sol\":3864:3893  transactions[_id][msg.sender] */\n      0xffffffffffffffffffffffffffffffffffffffff\n      and\n      0xffffffffffffffffffffffffffffffffffffffff\n      and\n      dup2\n      mstore\n      0x20\n      add\n      swap1\n      dup2\n      mstore\n      0x20\n      add\n      0x00\n      keccak256\n        /* \"Project/TechnoLime.sol\":3831:3893  Transaction memory transaction = transactions[_id][msg.sender] */\n      mload(0x40)\n      dup1\n      0x60\n      add\n      0x40\n      mstore\n      swap1\n      dup2\n      0x00\n      dup3\n      add\n      sload\n      dup2\n      mstore\n      0x20\n      add\n      0x01\n      dup3\n      add\n      sload\n      dup2\n      mstore\n      0x20\n      add\n      0x02\n      dup3\n      add\n      sload\n      dup2\n      mstore\n      pop\n      pop\n      swap1\n      pop\n        /* \"Project/TechnoLime.sol\":3951:3954  100 */\n      0x64\n        /* \"Project/TechnoLime.sol\":3927:3938  transaction */\n      dup2\n        /* \"Project/TechnoLime.sol\":3927:3947  transaction.blockNum */\n      0x00\n      add\n      mload\n        /* \"Project/TechnoLime.sol\":3912:3924  block.number */\n      number\n        /* \"Project/TechnoLime.sol\":3912:3947  block.number - transaction.blockNum */\n      tag_81\n      swap2\n      swap1\n      tag_82\n      jump\t// in\n    tag_81:\n        /* \"Project/TechnoLime.sol\":3911:3954  (block.number - transaction.blockNum) > 100 */\n      gt\n        /* \"Project/TechnoLime.sol\":3908:4006  if((block.number - transaction.blockNum) > 100)\r... */\n      iszero\n      tag_83\n      jumpi\n        /* \"Project/TechnoLime.sol\":3980:4006  Errors.Blocks100Exceeded() */\n      mload(0x40)\n      0x6e9beb2100000000000000000000000000000000000000000000000000000000\n      dup2\n      mstore\n      0x04\n      add\n      mload(0x40)\n      dup1\n      swap2\n      sub\n      swap1\n      revert\n        /* \"Project/TechnoLime.sol\":3908:4006  if((block.number - transaction.blockNum) > 100)\r... */\n    tag_83:\n        /* \"Project/TechnoLime.sol\":4094:4095  2 */\n      0x02\n        /* \"Project/TechnoLime.sol\":4055:4067  transactions */\n      0x03\n        /* \"Project/TechnoLime.sol\":4055:4072  transactions[_id] */\n      0x00\n        /* \"Project/TechnoLime.sol\":4068:4071  _id */\n      dup5\n        /* \"Project/TechnoLime.sol\":4055:4072  transactions[_id] */\n      dup2\n      mstore\n      0x20\n      add\n      swap1\n      dup2\n      mstore\n      0x20\n      add\n      0x00\n      keccak256\n        /* \"Project/TechnoLime.sol\":4055:4084  transactions[_id][msg.sender] */\n      0x00\n        /* \"Project/TechnoLime.sol\":4073:4083  msg.sender */\n      caller\n        /* \"Project/TechnoLime.sol\":4055:4084  transactions[_id][msg.sender] */\n      0xffffffffffffffffffffffffffffffffffffffff\n      and\n      0xffffffffffffffffffffffffffffffffffffffff\n      and\n      dup2\n      mstore\n      0x20\n      add\n      swap1\n      dup2\n      mstore\n      0x20\n      add\n      0x00\n      keccak256\n        /* \"Project/TechnoLime.sol\":4055:4091  transactions[_id][msg.sender].status */\n      0x02\n      add\n        /* \"Project/TechnoLime.sol\":4055:4095  transactions[_id][msg.sender].status = 2 */\n      dup2\n      swap1\n      sstore\n      pop\n        /* \"Project/TechnoLime.sol\":4142:4150  products */\n      0x01\n        /* \"Project/TechnoLime.sol\":4142:4155  products[_id] */\n      0x00\n        /* \"Project/TechnoLime.sol\":4151:4154  _id */\n      dup4\n        /* \"Project/TechnoLime.sol\":4142:4155  products[_id] */\n      dup2\n      mstore\n      0x20\n      add\n      swap1\n      dup2\n      mstore\n      0x20\n      add\n      0x00\n      keccak256\n        /* \"Project/TechnoLime.sol\":4142:4164  products[_id].quantity */\n      0x01\n      add\n      0x00\n        /* \"Project/TechnoLime.sol\":4142:4167  products[_id].quantity ++ */\n      dup2\n      sload\n      dup1\n      swap3\n      swap2\n      swap1\n      tag_84\n      swap1\n      tag_85\n      jump\t// in\n    tag_84:\n      swap2\n      swap1\n      pop\n      sstore\n      pop\n        /* \"Project/TechnoLime.sol\":4248:4259  transaction */\n      dup1\n        /* \"Project/TechnoLime.sol\":4248:4265  transaction.price */\n      0x20\n      add\n      mload\n        /* \"Project/TechnoLime.sol\":4216:4234  pendingWithdrawals */\n      0x05\n        /* \"Project/TechnoLime.sol\":4216:4246  pendingWithdrawals[msg.sender] */\n      0x00\n        /* \"Project/TechnoLime.sol\":4235:4245  msg.sender */\n      caller\n        /* \"Project/TechnoLime.sol\":4216:4246  pendingWithdrawals[msg.sender] */\n      0xffffffffffffffffffffffffffffffffffffffff\n      and\n      0xffffffffffffffffffffffffffffffffffffffff\n      and\n      dup2\n      mstore\n      0x20\n      add\n      swap1\n      dup2\n      mstore\n      0x20\n      add\n      0x00\n      keccak256\n      0x00\n        /* \"Project/TechnoLime.sol\":4216:4265  pendingWithdrawals[msg.sender]+=transaction.price */\n      dup3\n      dup3\n      sload\n      tag_86\n      swap2\n      swap1\n      tag_87\n      jump\t// in\n    tag_86:\n      swap3\n      pop\n      pop\n      dup2\n      swap1\n      sstore\n      pop\n        /* \"Project/TechnoLime.sol\":3703:4291  { \r... */\n      pop\n        /* \"Project/TechnoLime.sol\":3657:4468  if (transactions[_id][msg.sender].status == 1){ \r... */\n      jump(tag_88)\n    tag_80:\n        /* \"Project/TechnoLime.sol\":4425:4456  Errors.TransactionNotExistent() */\n      mload(0x40)\n      0xc55091df00000000000000000000000000000000000000000000000000000000\n      dup2\n      mstore\n      0x04\n      add\n      mload(0x40)\n      dup1\n      swap2\n      sub\n      swap1\n      revert\n        /* \"Project/TechnoLime.sol\":3657:4468  if (transactions[_id][msg.sender].status == 1){ \r... */\n    tag_88:\n        /* \"Project/TechnoLime.sol\":3375:4475  function returnProduct(uint _id) external {\r... */\n      pop\n      jump\t// out\n        /* \"Project/TechnoLime.sol\":894:933  mapping(uint =>address[]) public buyers */\n    tag_27:\n      mstore(0x20, 0x04)\n      dup2\n      0x00\n      mstore\n      keccak256(0x00, 0x40)\n      dup2\n      dup2\n      sload\n      dup2\n      lt\n      tag_89\n      jumpi\n      0x00\n      dup1\n      revert\n    tag_89:\n      swap1\n      0x00\n      mstore\n      keccak256(0x00, 0x20)\n      add\n      0x00\n      swap2\n      pop\n      swap2\n      pop\n      swap1\n      sload\n      swap1\n      0x0100\n      exp\n      swap1\n      div\n      0xffffffffffffffffffffffffffffffffffffffff\n      and\n      dup2\n      jump\t// out\n        /* \"Project/TechnoLime.sol\":4642:5161  function withdraw() public {\r... */\n    tag_32:\n        /* \"Project/TechnoLime.sol\":4717:4718  0 */\n      0x00\n        /* \"Project/TechnoLime.sol\":4684:4702  pendingWithdrawals */\n      0x05\n        /* \"Project/TechnoLime.sol\":4684:4714  pendingWithdrawals[msg.sender] */\n      0x00\n        /* \"Project/TechnoLime.sol\":4703:4713  msg.sender */\n      caller\n        /* \"Project/TechnoLime.sol\":4684:4714  pendingWithdrawals[msg.sender] */\n      0xffffffffffffffffffffffffffffffffffffffff\n      and\n      0xffffffffffffffffffffffffffffffffffffffff\n      and\n      dup2\n      mstore\n      0x20\n      add\n      swap1\n      dup2\n      mstore\n      0x20\n      add\n      0x00\n      keccak256\n      sload\n        /* \"Project/TechnoLime.sol\":4684:4718  pendingWithdrawals[msg.sender] > 0 */\n      gt\n        /* \"Project/TechnoLime.sol\":4680:5154  if (pendingWithdrawals[msg.sender] > 0){\r... */\n      iszero\n      tag_92\n      jumpi\n        /* \"Project/TechnoLime.sol\":4860:4871  uint amount */\n      0x00\n        /* \"Project/TechnoLime.sol\":4874:4892  pendingWithdrawals */\n      0x05\n        /* \"Project/TechnoLime.sol\":4874:4904  pendingWithdrawals[msg.sender] */\n      0x00\n        /* \"Project/TechnoLime.sol\":4893:4903  msg.sender */\n      caller\n        /* \"Project/TechnoLime.sol\":4874:4904  pendingWithdrawals[msg.sender] */\n      0xffffffffffffffffffffffffffffffffffffffff\n      and\n      0xffffffffffffffffffffffffffffffffffffffff\n      and\n      dup2\n      mstore\n      0x20\n      add\n      swap1\n      dup2\n      mstore\n      0x20\n      add\n      0x00\n      keccak256\n      sload\n        /* \"Project/TechnoLime.sol\":4860:4904  uint amount = pendingWithdrawals[msg.sender] */\n      swap1\n      pop\n        /* \"Project/TechnoLime.sol\":5022:5023  0 */\n      0x00\n        /* \"Project/TechnoLime.sol\":4991:5009  pendingWithdrawals */\n      0x05\n        /* \"Project/TechnoLime.sol\":4991:5021  pendingWithdrawals[msg.sender] */\n      0x00\n        /* \"Project/TechnoLime.sol\":5010:5020  msg.sender */\n      caller\n        /* \"Project/TechnoLime.sol\":4991:5021  pendingWithdrawals[msg.sender] */\n      0xffffffffffffffffffffffffffffffffffffffff\n      and\n      0xffffffffffffffffffffffffffffffffffffffff\n      and\n      dup2\n      mstore\n      0x20\n      add\n      swap1\n      dup2\n      mstore\n      0x20\n      add\n      0x00\n      keccak256\n        /* \"Project/TechnoLime.sol\":4991:5023  pendingWithdrawals[msg.sender]=0 */\n      dup2\n      swap1\n      sstore\n      pop\n        /* \"Project/TechnoLime.sol\":5046:5056  msg.sender */\n      caller\n        /* \"Project/TechnoLime.sol\":5038:5062  payable(msg.sender).call */\n      0xffffffffffffffffffffffffffffffffffffffff\n      and\n        /* \"Project/TechnoLime.sol\":5069:5075  amount */\n      dup2\n        /* \"Project/TechnoLime.sol\":5038:5080  payable(msg.sender).call{value:amount}(\"\") */\n      mload(0x40)\n      tag_93\n      swap1\n      tag_94\n      jump\t// in\n    tag_93:\n      0x00\n      mload(0x40)\n      dup1\n      dup4\n      sub\n      dup2\n      dup6\n      dup8\n      gas\n      call\n      swap3\n      pop\n      pop\n      pop\n      returndatasize\n      dup1\n      0x00\n      dup2\n      eq\n      tag_97\n      jumpi\n      mload(0x40)\n      swap2\n      pop\n      and(add(returndatasize, 0x3f), not(0x1f))\n      dup3\n      add\n      0x40\n      mstore\n      returndatasize\n      dup3\n      mstore\n      returndatasize\n      0x00\n      0x20\n      dup5\n      add\n      returndatacopy\n      jump(tag_96)\n    tag_97:\n      0x60\n      swap2\n      pop\n    tag_96:\n      pop\n      pop\n      pop\n        /* \"Project/TechnoLime.sol\":4719:5092  {\r... */\n      pop\n        /* \"Project/TechnoLime.sol\":4680:5154  if (pendingWithdrawals[msg.sender] > 0){\r... */\n      jump(tag_98)\n    tag_92:\n        /* \"Project/TechnoLime.sol\":5118:5142  Errors.NothingToRefund() */\n      mload(0x40)\n      0xf76aef6500000000000000000000000000000000000000000000000000000000\n      dup2\n      mstore\n      0x04\n      add\n      mload(0x40)\n      dup1\n      swap2\n      sub\n      swap1\n      revert\n        /* \"Project/TechnoLime.sol\":4680:5154  if (pendingWithdrawals[msg.sender] > 0){\r... */\n    tag_98:\n        /* \"Project/TechnoLime.sol\":4642:5161  function withdraw() public {\r... */\n      jump\t// out\n        /* \"Project/TechnoLime.sol\":819:887  mapping(uint => mapping(address => Transaction)) public transactions */\n    tag_37:\n      mstore(0x20, 0x03)\n      dup2\n      0x00\n      mstore\n      mstore(0x20, keccak256(0x00, 0x40))\n      dup1\n      0x00\n      mstore\n      keccak256(0x00, 0x40)\n      0x00\n      swap2\n      pop\n      swap2\n      pop\n      pop\n      dup1\n      0x00\n      add\n      sload\n      swap1\n      dup1\n      0x01\n      add\n      sload\n      swap1\n      dup1\n      0x02\n      add\n      sload\n      swap1\n      pop\n      dup4\n      jump\t// out\n        /* \"Project/TechnoLime.sol\":1663:1997  function updateQuantity(uint _id,uint _quantity) external{\r... */\n    tag_43:\n        /* \"Project/TechnoLime.sol\":1735:1743  products */\n      0x01\n        /* \"Project/TechnoLime.sol\":1735:1748  products[_id] */\n      0x00\n        /* \"Project/TechnoLime.sol\":1744:1747  _id */\n      dup4\n        /* \"Project/TechnoLime.sol\":1735:1748  products[_id] */\n      dup2\n      mstore\n      0x20\n      add\n      swap1\n      dup2\n      mstore\n      0x20\n      add\n      0x00\n      keccak256\n        /* \"Project/TechnoLime.sol\":1735:1755  products[_id].exists */\n      0x03\n      add\n      0x00\n      swap1\n      sload\n      swap1\n      0x0100\n      exp\n      swap1\n      div\n      0xff\n      and\n        /* \"Project/TechnoLime.sol\":1731:1990  if (products[_id].exists){\r... */\n      iszero\n      tag_100\n      jumpi\n        /* \"Project/TechnoLime.sol\":1797:1806  _quantity */\n      dup1\n        /* \"Project/TechnoLime.sol\":1771:1779  products */\n      0x01\n        /* \"Project/TechnoLime.sol\":1771:1784  products[_id] */\n      0x00\n        /* \"Project/TechnoLime.sol\":1780:1783  _id */\n      dup5\n        /* \"Project/TechnoLime.sol\":1771:1784  products[_id] */\n      dup2\n      mstore\n      0x20\n      add\n      swap1\n      dup2\n      mstore\n      0x20\n      add\n      0x00\n      keccak256\n        /* \"Project/TechnoLime.sol\":1771:1793  products[_id].quantity */\n      0x01\n      add\n      0x00\n        /* \"Project/TechnoLime.sol\":1771:1806  products[_id].quantity += _quantity */\n      dup3\n      dup3\n      sload\n      tag_101\n      swap2\n      swap1\n      tag_87\n      jump\t// in\n    tag_101:\n      swap3\n      pop\n      pop\n      dup2\n      swap1\n      sstore\n      pop\n        /* \"Project/TechnoLime.sol\":1731:1990  if (products[_id].exists){\r... */\n      jump(tag_102)\n    tag_100:\n        /* \"Project/TechnoLime.sol\":1951:1978  Errors.ProductNotExistent() */\n      mload(0x40)\n      0x7e8d96a900000000000000000000000000000000000000000000000000000000\n      dup2\n      mstore\n      0x04\n      add\n      mload(0x40)\n      dup1\n      swap2\n      sub\n      swap1\n      revert\n        /* \"Project/TechnoLime.sol\":1731:1990  if (products[_id].exists){\r... */\n    tag_102:\n        /* \"Project/TechnoLime.sol\":1663:1997  function updateQuantity(uint _id,uint _quantity) external{\r... */\n      pop\n      pop\n      jump\t// out\n        /* \"Project/TechnoLime.sol\":634:674  mapping(uint => Product) public products */\n    tag_47:\n      mstore(0x20, 0x01)\n      dup1\n      0x00\n      mstore\n      keccak256(0x00, 0x40)\n      0x00\n      swap2\n      pop\n      swap1\n      pop\n      dup1\n      0x00\n      add\n      sload\n      swap1\n      dup1\n      0x01\n      add\n      sload\n      swap1\n      dup1\n      0x02\n      add\n      dup1\n      sload\n      tag_103\n      swap1\n      tag_104\n      jump\t// in\n    tag_103:\n      dup1\n      0x1f\n      add\n      0x20\n      dup1\n      swap2\n      div\n      mul\n      0x20\n      add\n      mload(0x40)\n      swap1\n      dup2\n      add\n      0x40\n      mstore\n      dup1\n      swap3\n      swap2\n      swap1\n      dup2\n      dup2\n      mstore\n      0x20\n      add\n      dup3\n      dup1\n      sload\n      tag_105\n      swap1\n      tag_104\n      jump\t// in\n    tag_105:\n      dup1\n      iszero\n      tag_106\n      jumpi\n      dup1\n      0x1f\n      lt\n      tag_107\n      jumpi\n      0x0100\n      dup1\n      dup4\n      sload\n      div\n      mul\n      dup4\n      mstore\n      swap2\n      0x20\n      add\n      swap2\n      jump(tag_106)\n    tag_107:\n      dup3\n      add\n      swap2\n      swap1\n      0x00\n      mstore\n      keccak256(0x00, 0x20)\n      swap1\n    tag_108:\n      dup2\n      sload\n      dup2\n      mstore\n      swap1\n      0x01\n      add\n      swap1\n      0x20\n      add\n      dup1\n      dup4\n      gt\n      tag_108\n      jumpi\n      dup3\n      swap1\n      sub\n      0x1f\n      and\n      dup3\n      add\n      swap2\n    tag_106:\n      pop\n      pop\n      pop\n      pop\n      pop\n      swap1\n      dup1\n      0x03\n      add\n      0x00\n      swap1\n      sload\n      swap1\n      0x0100\n      exp\n      swap1\n      div\n      0xff\n      and\n      swap1\n      pop\n      dup5\n      jump\t// out\n        /* \"Project/TechnoLime.sol\":2100:3361  function buyProduct (uint _id)  external payable { \r... */\n    tag_52:\n        /* \"Project/TechnoLime.sol\":2276:2293  availableProducts */\n      0x00\n        /* \"Project/TechnoLime.sol\":2276:2300  availableProducts.length */\n      dup1\n      sload\n      swap1\n      pop\n        /* \"Project/TechnoLime.sol\":2270:2273  _id */\n      dup2\n        /* \"Project/TechnoLime.sol\":2270:2300  _id < availableProducts.length */\n      lt\n        /* \"Project/TechnoLime.sol\":2270:2345  _id < availableProducts.length && transactions[_id][msg.sender].status != 1 */\n      dup1\n      iszero\n      tag_110\n      jumpi\n      pop\n        /* \"Project/TechnoLime.sol\":2344:2345  1 */\n      0x01\n        /* \"Project/TechnoLime.sol\":2304:2316  transactions */\n      0x03\n        /* \"Project/TechnoLime.sol\":2304:2321  transactions[_id] */\n      0x00\n        /* \"Project/TechnoLime.sol\":2317:2320  _id */\n      dup4\n        /* \"Project/TechnoLime.sol\":2304:2321  transactions[_id] */\n      dup2\n      mstore\n      0x20\n      add\n      swap1\n      dup2\n      mstore\n      0x20\n      add\n      0x00\n      keccak256\n        /* \"Project/TechnoLime.sol\":2304:2333  transactions[_id][msg.sender] */\n      0x00\n        /* \"Project/TechnoLime.sol\":2322:2332  msg.sender */\n      caller\n        /* \"Project/TechnoLime.sol\":2304:2333  transactions[_id][msg.sender] */\n      0xffffffffffffffffffffffffffffffffffffffff\n      and\n      0xffffffffffffffffffffffffffffffffffffffff\n      and\n      dup2\n      mstore\n      0x20\n      add\n      swap1\n      dup2\n      mstore\n      0x20\n      add\n      0x00\n      keccak256\n        /* \"Project/TechnoLime.sol\":2304:2340  transactions[_id][msg.sender].status */\n      0x02\n      add\n      sload\n        /* \"Project/TechnoLime.sol\":2304:2345  transactions[_id][msg.sender].status != 1 */\n      eq\n      iszero\n        /* \"Project/TechnoLime.sol\":2270:2345  _id < availableProducts.length && transactions[_id][msg.sender].status != 1 */\n    tag_110:\n        /* \"Project/TechnoLime.sol\":2267:3341  if(_id < availableProducts.length && transactions[_id][msg.sender].status != 1){\r... */\n      iszero\n      tag_111\n      jumpi\n        /* \"Project/TechnoLime.sol\":2499:2521  Product memory product */\n      0x00\n        /* \"Project/TechnoLime.sol\":2523:2531  products */\n      0x01\n        /* \"Project/TechnoLime.sol\":2523:2536  products[_id] */\n      0x00\n        /* \"Project/TechnoLime.sol\":2532:2535  _id */\n      dup4\n        /* \"Project/TechnoLime.sol\":2523:2536  products[_id] */\n      dup2\n      mstore\n      0x20\n      add\n      swap1\n      dup2\n      mstore\n      0x20\n      add\n      0x00\n      keccak256\n        /* \"Project/TechnoLime.sol\":2499:2536  Product memory product= products[_id] */\n      mload(0x40)\n      dup1\n      0x80\n      add\n      0x40\n      mstore\n      swap1\n      dup2\n      0x00\n      dup3\n      add\n      sload\n      dup2\n      mstore\n      0x20\n      add\n      0x01\n      dup3\n      add\n      sload\n      dup2\n      mstore\n      0x20\n      add\n      0x02\n      dup3\n      add\n      dup1\n      sload\n      tag_112\n      swap1\n      tag_104\n      jump\t// in\n    tag_112:\n      dup1\n      0x1f\n      add\n      0x20\n      dup1\n      swap2\n      div\n      mul\n      0x20\n      add\n      mload(0x40)\n      swap1\n      dup2\n      add\n      0x40\n      mstore\n      dup1\n      swap3\n      swap2\n      swap1\n      dup2\n      dup2\n      mstore\n      0x20\n      add\n      dup3\n      dup1\n      sload\n      tag_113\n      swap1\n      tag_104\n      jump\t// in\n    tag_113:\n      dup1\n      iszero\n      tag_114\n      jumpi\n      dup1\n      0x1f\n      lt\n      tag_115\n      jumpi\n      0x0100\n      dup1\n      dup4\n      sload\n      div\n      mul\n      dup4\n      mstore\n      swap2\n      0x20\n      add\n      swap2\n      jump(tag_114)\n    tag_115:\n      dup3\n      add\n      swap2\n      swap1\n      0x00\n      mstore\n      keccak256(0x00, 0x20)\n      swap1\n    tag_116:\n      dup2\n      sload\n      dup2\n      mstore\n      swap1\n      0x01\n      add\n      swap1\n      0x20\n      add\n      dup1\n      dup4\n      gt\n      tag_116\n      jumpi\n      dup3\n      swap1\n      sub\n      0x1f\n      and\n      dup3\n      add\n      swap2\n    tag_114:\n      pop\n      pop\n      pop\n      pop\n      pop\n      dup2\n      mstore\n      0x20\n      add\n      0x03\n      dup3\n      add\n      0x00\n      swap1\n      sload\n      swap1\n      0x0100\n      exp\n      swap1\n      div\n      0xff\n      and\n      iszero\n      iszero\n      iszero\n      iszero\n      dup2\n      mstore\n      pop\n      pop\n      swap1\n      pop\n        /* \"Project/TechnoLime.sol\":2566:2573  product */\n      dup1\n        /* \"Project/TechnoLime.sol\":2566:2579  product.price */\n      0x00\n      add\n      mload\n        /* \"Project/TechnoLime.sol\":2554:2563  msg.value */\n      callvalue\n        /* \"Project/TechnoLime.sol\":2554:2579  msg.value < product.price */\n      lt\n        /* \"Project/TechnoLime.sol\":2554:2603  msg.value < product.price || product.quantity < 1 */\n      dup1\n      tag_117\n      jumpi\n      pop\n        /* \"Project/TechnoLime.sol\":2602:2603  1 */\n      0x01\n        /* \"Project/TechnoLime.sol\":2583:2590  product */\n      dup2\n        /* \"Project/TechnoLime.sol\":2583:2599  product.quantity */\n      0x20\n      add\n      mload\n        /* \"Project/TechnoLime.sol\":2583:2603  product.quantity < 1 */\n      lt\n        /* \"Project/TechnoLime.sol\":2554:2603  msg.value < product.price || product.quantity < 1 */\n    tag_117:\n        /* \"Project/TechnoLime.sol\":2551:2731  if(msg.value < product.price || product.quantity < 1)\r... */\n      iszero\n      tag_118\n      jumpi\n        /* \"Project/TechnoLime.sol\":2697:2731  Errors.LessThanPriceOrOutOfStock() */\n      mload(0x40)\n      0xf80236cc00000000000000000000000000000000000000000000000000000000\n      dup2\n      mstore\n      0x04\n      add\n      mload(0x40)\n      dup1\n      swap2\n      sub\n      swap1\n      revert\n        /* \"Project/TechnoLime.sol\":2551:2731  if(msg.value < product.price || product.quantity < 1)\r... */\n    tag_118:\n        /* \"Project/TechnoLime.sol\":2748:2781  Transaction memory newTransaction */\n      tag_119\n      tag_120\n      jump\t// in\n    tag_119:\n        /* \"Project/TechnoLime.sol\":2822:2834  block.number */\n      number\n        /* \"Project/TechnoLime.sol\":2796:2810  newTransaction */\n      dup2\n        /* \"Project/TechnoLime.sol\":2796:2819  newTransaction.blockNum */\n      0x00\n      add\n        /* \"Project/TechnoLime.sol\":2796:2834  newTransaction.blockNum = block.number */\n      dup2\n      dup2\n      mstore\n      pop\n      pop\n        /* \"Project/TechnoLime.sol\":2872:2879  product */\n      dup2\n        /* \"Project/TechnoLime.sol\":2872:2885  product.price */\n      0x00\n      add\n      mload\n        /* \"Project/TechnoLime.sol\":2849:2863  newTransaction */\n      dup2\n        /* \"Project/TechnoLime.sol\":2849:2869  newTransaction.price */\n      0x20\n      add\n        /* \"Project/TechnoLime.sol\":2849:2885  newTransaction.price = product.price */\n      dup2\n      dup2\n      mstore\n      pop\n      pop\n        /* \"Project/TechnoLime.sol\":2924:2925  1 */\n      0x01\n        /* \"Project/TechnoLime.sol\":2900:2914  newTransaction */\n      dup2\n        /* \"Project/TechnoLime.sol\":2900:2921  newTransaction.status */\n      0x40\n      add\n        /* \"Project/TechnoLime.sol\":2900:2925  newTransaction.status = 1 */\n      dup2\n      dup2\n      mstore\n      pop\n      pop\n        /* \"Project/TechnoLime.sol\":3004:3018  newTransaction */\n      dup1\n        /* \"Project/TechnoLime.sol\":2972:2984  transactions */\n      0x03\n        /* \"Project/TechnoLime.sol\":2972:2989  transactions[_id] */\n      0x00\n        /* \"Project/TechnoLime.sol\":2985:2988  _id */\n      dup6\n        /* \"Project/TechnoLime.sol\":2972:2989  transactions[_id] */\n      dup2\n      mstore\n      0x20\n      add\n      swap1\n      dup2\n      mstore\n      0x20\n      add\n      0x00\n      keccak256\n        /* \"Project/TechnoLime.sol\":2972:3001  transactions[_id][msg.sender] */\n      0x00\n        /* \"Project/TechnoLime.sol\":2990:3000  msg.sender */\n      caller\n        /* \"Project/TechnoLime.sol\":2972:3001  transactions[_id][msg.sender] */\n      0xffffffffffffffffffffffffffffffffffffffff\n      and\n      0xffffffffffffffffffffffffffffffffffffffff\n      and\n      dup2\n      mstore\n      0x20\n      add\n      swap1\n      dup2\n      mstore\n      0x20\n      add\n      0x00\n      keccak256\n        /* \"Project/TechnoLime.sol\":2972:3018  transactions[_id][msg.sender] = newTransaction */\n      0x00\n      dup3\n      add\n      mload\n      dup2\n      0x00\n      add\n      sstore\n      0x20\n      dup3\n      add\n      mload\n      dup2\n      0x01\n      add\n      sstore\n      0x40\n      dup3\n      add\n      mload\n      dup2\n      0x02\n      add\n      sstore\n      swap1\n      pop\n      pop\n        /* \"Project/TechnoLime.sol\":3035:3042  product */\n      dup2\n        /* \"Project/TechnoLime.sol\":3035:3051  product.quantity */\n      0x20\n      add\n        /* \"Project/TechnoLime.sol\":3035:3053  product.quantity-- */\n      dup1\n      mload\n      dup1\n      swap2\n      swap1\n      tag_121\n      swap1\n      tag_122\n      jump\t// in\n    tag_121:\n      dup2\n      mstore\n      pop\n      pop\n        /* \"Project/TechnoLime.sol\":3114:3121  product */\n      dup2\n        /* \"Project/TechnoLime.sol\":3100:3108  products */\n      0x01\n        /* \"Project/TechnoLime.sol\":3100:3113  products[_id] */\n      0x00\n        /* \"Project/TechnoLime.sol\":3109:3112  _id */\n      dup6\n        /* \"Project/TechnoLime.sol\":3100:3113  products[_id] */\n      dup2\n      mstore\n      0x20\n      add\n      swap1\n      dup2\n      mstore\n      0x20\n      add\n      0x00\n      keccak256\n        /* \"Project/TechnoLime.sol\":3100:3121  products[_id]=product */\n      0x00\n      dup3\n      add\n      mload\n      dup2\n      0x00\n      add\n      sstore\n      0x20\n      dup3\n      add\n      mload\n      dup2\n      0x01\n      add\n      sstore\n      0x40\n      dup3\n      add\n      mload\n      dup2\n      0x02\n      add\n      swap1\n      dup1\n      mload\n      swap1\n      0x20\n      add\n      swap1\n      tag_123\n      swap3\n      swap2\n      swap1\n      tag_73\n      jump\t// in\n    tag_123:\n      pop\n      0x60\n      dup3\n      add\n      mload\n      dup2\n      0x03\n      add\n      exp(0x0100, 0x00)\n      dup2\n      sload\n      dup2\n      0xff\n      mul\n      not\n      and\n      swap1\n      dup4\n      iszero\n      iszero\n      mul\n      or\n      swap1\n      sstore\n      pop\n      swap1\n      pop\n      pop\n        /* \"Project/TechnoLime.sol\":3162:3168  buyers */\n      0x04\n        /* \"Project/TechnoLime.sol\":3162:3173  buyers[_id] */\n      0x00\n        /* \"Project/TechnoLime.sol\":3169:3172  _id */\n      dup5\n        /* \"Project/TechnoLime.sol\":3162:3173  buyers[_id] */\n      dup2\n      mstore\n      0x20\n      add\n      swap1\n      dup2\n      mstore\n      0x20\n      add\n      0x00\n      keccak256\n        /* \"Project/TechnoLime.sol\":3179:3189  msg.sender */\n      caller\n        /* \"Project/TechnoLime.sol\":3162:3190  buyers[_id].push(msg.sender) */\n      swap1\n      dup1\n      0x01\n      dup2\n      sload\n      add\n      dup1\n      dup3\n      sstore\n      dup1\n      swap2\n      pop\n      pop\n      0x01\n      swap1\n      sub\n      swap1\n      0x00\n      mstore\n      keccak256(0x00, 0x20)\n      add\n      0x00\n      swap1\n      swap2\n      swap1\n      swap2\n      swap1\n      swap2\n      0x0100\n      exp\n      dup2\n      sload\n      dup2\n      0xffffffffffffffffffffffffffffffffffffffff\n      mul\n      not\n      and\n      swap1\n      dup4\n      0xffffffffffffffffffffffffffffffffffffffff\n      and\n      mul\n      or\n      swap1\n      sstore\n      pop\n        /* \"Project/TechnoLime.sol\":2346:3204  {\r... */\n      pop\n      pop\n        /* \"Project/TechnoLime.sol\":2267:3341  if(_id < availableProducts.length && transactions[_id][msg.sender].status != 1){\r... */\n      jump(tag_125)\n    tag_111:\n        /* \"Project/TechnoLime.sol\":3294:3329  Errors.ItemIdWrongOrBoughtAlready() */\n      mload(0x40)\n      0xd42c9b8b00000000000000000000000000000000000000000000000000000000\n      dup2\n      mstore\n      0x04\n      add\n      mload(0x40)\n      dup1\n      swap2\n      sub\n      swap1\n      revert\n        /* \"Project/TechnoLime.sol\":2267:3341  if(_id < availableProducts.length && transactions[_id][msg.sender].status != 1){\r... */\n    tag_125:\n        /* \"Project/TechnoLime.sol\":2100:3361  function buyProduct (uint _id)  external payable { \r... */\n      pop\n      jump\t// out\n        /* \"Project/TechnoLime.sol\":594:627  string[] public availableProducts */\n    tag_56:\n      0x00\n      dup2\n      dup2\n      sload\n      dup2\n      lt\n      tag_126\n      jumpi\n      0x00\n      dup1\n      revert\n    tag_126:\n      swap1\n      0x00\n      mstore\n      keccak256(0x00, 0x20)\n      add\n      0x00\n      swap2\n      pop\n      swap1\n      pop\n      dup1\n      sload\n      tag_128\n      swap1\n      tag_104\n      jump\t// in\n    tag_128:\n      dup1\n      0x1f\n      add\n      0x20\n      dup1\n      swap2\n      div\n      mul\n      0x20\n      add\n      mload(0x40)\n      swap1\n      dup2\n      add\n      0x40\n      mstore\n      dup1\n      swap3\n      swap2\n      swap1\n      dup2\n      dup2\n      mstore\n      0x20\n      add\n      dup3\n      dup1\n      sload\n      tag_129\n      swap1\n      tag_104\n      jump\t// in\n    tag_129:\n      dup1\n      iszero\n      tag_130\n      jumpi\n      dup1\n      0x1f\n      lt\n      tag_131\n      jumpi\n      0x0100\n      dup1\n      dup4\n      sload\n      div\n      mul\n      dup4\n      mstore\n      swap2\n      0x20\n      add\n      swap2\n      jump(tag_130)\n    tag_131:\n      dup3\n      add\n      swap2\n      swap1\n      0x00\n      mstore\n      keccak256(0x00, 0x20)\n      swap1\n    tag_132:\n      dup2\n      sload\n      dup2\n      mstore\n      swap1\n      0x01\n      add\n      swap1\n      0x20\n      add\n      dup1\n      dup4\n      gt\n      tag_132\n      jumpi\n      dup3\n      swap1\n      sub\n      0x1f\n      and\n      dup3\n      add\n      swap2\n    tag_130:\n      pop\n      pop\n      pop\n      pop\n      pop\n      dup2\n      jump\t// out\n        /* \"Project/TechnoLime.sol\":942:992  mapping (address =>uint) public pendingWithdrawals */\n    tag_63:\n      mstore(0x20, 0x05)\n      dup1\n      0x00\n      mstore\n      keccak256(0x00, 0x40)\n      0x00\n      swap2\n      pop\n      swap1\n      pop\n      sload\n      dup2\n      jump\t// out\n    tag_71:\n      mload(0x40)\n      dup1\n      0x80\n      add\n      0x40\n      mstore\n      dup1\n      0x00\n      dup2\n      mstore\n      0x20\n      add\n      0x00\n      dup2\n      mstore\n      0x20\n      add\n      0x60\n      dup2\n      mstore\n      0x20\n      add\n      iszero(iszero(0x00))\n      dup2\n      mstore\n      pop\n      swap1\n      jump\t// out\n    tag_73:\n      dup3\n      dup1\n      sload\n      tag_133\n      swap1\n      tag_104\n      jump\t// in\n    tag_133:\n      swap1\n      0x00\n      mstore\n      keccak256(0x00, 0x20)\n      swap1\n      0x1f\n      add\n      0x20\n      swap1\n      div\n      dup2\n      add\n      swap3\n      dup3\n      tag_135\n      jumpi\n      0x00\n      dup6\n      sstore\n      jump(tag_134)\n    tag_135:\n      dup3\n      0x1f\n      lt\n      tag_136\n      jumpi\n      dup1\n      mload\n      not(0xff)\n      and\n      dup4\n      dup1\n      add\n      or\n      dup6\n      sstore\n      jump(tag_134)\n    tag_136:\n      dup3\n      dup1\n      add\n      0x01\n      add\n      dup6\n      sstore\n      dup3\n      iszero\n      tag_134\n      jumpi\n      swap2\n      dup3\n      add\n    tag_137:\n      dup3\n      dup2\n      gt\n      iszero\n      tag_138\n      jumpi\n      dup3\n      mload\n      dup3\n      sstore\n      swap2\n      0x20\n      add\n      swap2\n      swap1\n      0x01\n      add\n      swap1\n      jump(tag_137)\n    tag_138:\n    tag_134:\n      pop\n      swap1\n      pop\n      tag_139\n      swap2\n      swap1\n      tag_140\n      jump\t// in\n    tag_139:\n      pop\n      swap1\n      jump\t// out\n    tag_77:\n      dup3\n      dup1\n      sload\n      tag_141\n      swap1\n      tag_104\n      jump\t// in\n    tag_141:\n      swap1\n      0x00\n      mstore\n      keccak256(0x00, 0x20)\n      swap1\n      0x1f\n      add\n      0x20\n      swap1\n      div\n      dup2\n      add\n      swap3\n      dup3\n      tag_143\n      jumpi\n      0x00\n      dup6\n      sstore\n      jump(tag_142)\n    tag_143:\n      dup3\n      0x1f\n      lt\n      tag_144\n      jumpi\n      dup1\n      calldataload\n      not(0xff)\n      and\n      dup4\n      dup1\n      add\n      or\n      dup6\n      sstore\n      jump(tag_142)\n    tag_144:\n      dup3\n      dup1\n      add\n      0x01\n      add\n      dup6\n      sstore\n      dup3\n      iszero\n      tag_142\n      jumpi\n      swap2\n      dup3\n      add\n    tag_145:\n      dup3\n      dup2\n      gt\n      iszero\n      tag_146\n      jumpi\n      dup3\n      calldataload\n      dup3\n      sstore\n      swap2\n      0x20\n      add\n      swap2\n      swap1\n      0x01\n      add\n      swap1\n      jump(tag_145)\n    tag_146:\n    tag_142:\n      pop\n      swap1\n      pop\n      tag_147\n      swap2\n      swap1\n      tag_140\n      jump\t// in\n    tag_147:\n      pop\n      swap1\n      jump\t// out\n    tag_120:\n      mload(0x40)\n      dup1\n      0x60\n      add\n      0x40\n      mstore\n      dup1\n      0x00\n      dup2\n      mstore\n      0x20\n      add\n      0x00\n      dup2\n      mstore\n      0x20\n      add\n      0x00\n      dup2\n      mstore\n      pop\n      swap1\n      jump\t// out\n    tag_140:\n    tag_148:\n      dup1\n      dup3\n      gt\n      iszero\n      tag_149\n      jumpi\n      0x00\n      dup2\n      0x00\n      swap1\n      sstore\n      pop\n      0x01\n      add\n      jump(tag_148)\n    tag_149:\n      pop\n      swap1\n      jump\t// out\n        /* \"#utility.yul\":7:146   */\n    tag_151:\n        /* \"#utility.yul\":53:58   */\n      0x00\n        /* \"#utility.yul\":91:97   */\n      dup2\n        /* \"#utility.yul\":78:98   */\n      calldataload\n        /* \"#utility.yul\":69:98   */\n      swap1\n      pop\n        /* \"#utility.yul\":107:140   */\n      tag_153\n        /* \"#utility.yul\":134:139   */\n      dup2\n        /* \"#utility.yul\":107:140   */\n      tag_154\n      jump\t// in\n    tag_153:\n        /* \"#utility.yul\":7:146   */\n      swap3\n      swap2\n      pop\n      pop\n      jump\t// out\n        /* \"#utility.yul\":166:719   */\n    tag_155:\n        /* \"#utility.yul\":224:232   */\n      0x00\n        /* \"#utility.yul\":234:240   */\n      dup1\n        /* \"#utility.yul\":284:287   */\n      dup4\n        /* \"#utility.yul\":277:281   */\n      0x1f\n        /* \"#utility.yul\":269:275   */\n      dup5\n        /* \"#utility.yul\":265:282   */\n      add\n        /* \"#utility.yul\":261:288   */\n      slt\n        /* \"#utility.yul\":251:373   */\n      tag_157\n      jumpi\n        /* \"#utility.yul\":292:371   */\n      tag_158\n      tag_159\n      jump\t// in\n    tag_158:\n        /* \"#utility.yul\":251:373   */\n    tag_157:\n        /* \"#utility.yul\":405:411   */\n      dup3\n        /* \"#utility.yul\":392:412   */\n      calldataload\n        /* \"#utility.yul\":382:412   */\n      swap1\n      pop\n        /* \"#utility.yul\":435:453   */\n      0xffffffffffffffff\n        /* \"#utility.yul\":427:433   */\n      dup2\n        /* \"#utility.yul\":424:454   */\n      gt\n        /* \"#utility.yul\":421:538   */\n      iszero\n      tag_160\n      jumpi\n        /* \"#utility.yul\":457:536   */\n      tag_161\n      tag_162\n      jump\t// in\n    tag_161:\n        /* \"#utility.yul\":421:538   */\n    tag_160:\n        /* \"#utility.yul\":571:575   */\n      0x20\n        /* \"#utility.yul\":563:569   */\n      dup4\n        /* \"#utility.yul\":559:576   */\n      add\n        /* \"#utility.yul\":547:576   */\n      swap2\n      pop\n        /* \"#utility.yul\":625:628   */\n      dup4\n        /* \"#utility.yul\":617:621   */\n      0x01\n        /* \"#utility.yul\":609:615   */\n      dup3\n        /* \"#utility.yul\":605:622   */\n      mul\n        /* \"#utility.yul\":595:603   */\n      dup4\n        /* \"#utility.yul\":591:623   */\n      add\n        /* \"#utility.yul\":588:629   */\n      gt\n        /* \"#utility.yul\":585:713   */\n      iszero\n      tag_163\n      jumpi\n        /* \"#utility.yul\":632:711   */\n      tag_164\n      tag_165\n      jump\t// in\n    tag_164:\n        /* \"#utility.yul\":585:713   */\n    tag_163:\n        /* \"#utility.yul\":166:719   */\n      swap3\n      pop\n      swap3\n      swap1\n      pop\n      jump\t// out\n        /* \"#utility.yul\":725:864   */\n    tag_166:\n        /* \"#utility.yul\":771:776   */\n      0x00\n        /* \"#utility.yul\":809:815   */\n      dup2\n        /* \"#utility.yul\":796:816   */\n      calldataload\n        /* \"#utility.yul\":787:816   */\n      swap1\n      pop\n        /* \"#utility.yul\":825:858   */\n      tag_168\n        /* \"#utility.yul\":852:857   */\n      dup2\n        /* \"#utility.yul\":825:858   */\n      tag_169\n      jump\t// in\n    tag_168:\n        /* \"#utility.yul\":725:864   */\n      swap3\n      swap2\n      pop\n      pop\n      jump\t// out\n        /* \"#utility.yul\":870:1199   */\n    tag_62:\n        /* \"#utility.yul\":929:935   */\n      0x00\n        /* \"#utility.yul\":978:980   */\n      0x20\n        /* \"#utility.yul\":966:975   */\n      dup3\n        /* \"#utility.yul\":957:964   */\n      dup5\n        /* \"#utility.yul\":953:976   */\n      sub\n        /* \"#utility.yul\":949:981   */\n      slt\n        /* \"#utility.yul\":946:1065   */\n      iszero\n      tag_171\n      jumpi\n        /* \"#utility.yul\":984:1063   */\n      tag_172\n      tag_173\n      jump\t// in\n    tag_172:\n        /* \"#utility.yul\":946:1065   */\n    tag_171:\n        /* \"#utility.yul\":1104:1105   */\n      0x00\n        /* \"#utility.yul\":1129:1182   */\n      tag_174\n        /* \"#utility.yul\":1174:1181   */\n      dup5\n        /* \"#utility.yul\":1165:1171   */\n      dup3\n        /* \"#utility.yul\":1154:1163   */\n      dup6\n        /* \"#utility.yul\":1150:1172   */\n      add\n        /* \"#utility.yul\":1129:1182   */\n      tag_151\n      jump\t// in\n    tag_174:\n        /* \"#utility.yul\":1119:1182   */\n      swap2\n      pop\n        /* \"#utility.yul\":1075:1192   */\n      pop\n        /* \"#utility.yul\":870:1199   */\n      swap3\n      swap2\n      pop\n      pop\n      jump\t// out\n        /* \"#utility.yul\":1205:2024   */\n    tag_16:\n        /* \"#utility.yul\":1294:1300   */\n      0x00\n        /* \"#utility.yul\":1302:1308   */\n      dup1\n        /* \"#utility.yul\":1310:1316   */\n      0x00\n        /* \"#utility.yul\":1318:1324   */\n      dup1\n        /* \"#utility.yul\":1367:1369   */\n      0x60\n        /* \"#utility.yul\":1355:1364   */\n      dup6\n        /* \"#utility.yul\":1346:1353   */\n      dup8\n        /* \"#utility.yul\":1342:1365   */\n      sub\n        /* \"#utility.yul\":1338:1370   */\n      slt\n        /* \"#utility.yul\":1335:1454   */\n      iszero\n      tag_176\n      jumpi\n        /* \"#utility.yul\":1373:1452   */\n      tag_177\n      tag_173\n      jump\t// in\n    tag_177:\n        /* \"#utility.yul\":1335:1454   */\n    tag_176:\n        /* \"#utility.yul\":1521:1522   */\n      0x00\n        /* \"#utility.yul\":1510:1519   */\n      dup6\n        /* \"#utility.yul\":1506:1523   */\n      add\n        /* \"#utility.yul\":1493:1524   */\n      calldataload\n        /* \"#utility.yul\":1551:1569   */\n      0xffffffffffffffff\n        /* \"#utility.yul\":1543:1549   */\n      dup2\n        /* \"#utility.yul\":1540:1570   */\n      gt\n        /* \"#utility.yul\":1537:1654   */\n      iszero\n      tag_178\n      jumpi\n        /* \"#utility.yul\":1573:1652   */\n      tag_179\n      tag_180\n      jump\t// in\n    tag_179:\n        /* \"#utility.yul\":1537:1654   */\n    tag_178:\n        /* \"#utility.yul\":1686:1751   */\n      tag_181\n        /* \"#utility.yul\":1743:1750   */\n      dup8\n        /* \"#utility.yul\":1734:1740   */\n      dup3\n        /* \"#utility.yul\":1723:1732   */\n      dup9\n        /* \"#utility.yul\":1719:1741   */\n      add\n        /* \"#utility.yul\":1686:1751   */\n      tag_155\n      jump\t// in\n    tag_181:\n        /* \"#utility.yul\":1668:1751   */\n      swap5\n      pop\n      swap5\n      pop\n        /* \"#utility.yul\":1464:1761   */\n      pop\n        /* \"#utility.yul\":1800:1802   */\n      0x20\n        /* \"#utility.yul\":1826:1879   */\n      tag_182\n        /* \"#utility.yul\":1871:1878   */\n      dup8\n        /* \"#utility.yul\":1862:1868   */\n      dup3\n        /* \"#utility.yul\":1851:1860   */\n      dup9\n        /* \"#utility.yul\":1847:1869   */\n      add\n        /* \"#utility.yul\":1826:1879   */\n      tag_166\n      jump\t// in\n    tag_182:\n        /* \"#utility.yul\":1816:1879   */\n      swap3\n      pop\n        /* \"#utility.yul\":1771:1889   */\n      pop\n        /* \"#utility.yul\":1928:1930   */\n      0x40\n        /* \"#utility.yul\":1954:2007   */\n      tag_183\n        /* \"#utility.yul\":1999:2006   */\n      dup8\n        /* \"#utility.yul\":1990:1996   */\n      dup3\n        /* \"#utility.yul\":1979:1988   */\n      dup9\n        /* \"#utility.yul\":1975:1997   */\n      add\n        /* \"#utility.yul\":1954:2007   */\n      tag_166\n      jump\t// in\n    tag_183:\n        /* \"#utility.yul\":1944:2007   */\n      swap2\n      pop\n        /* \"#utility.yul\":1899:2017   */\n      pop\n        /* \"#utility.yul\":1205:2024   */\n      swap3\n      swap6\n      swap2\n      swap5\n      pop\n      swap3\n      pop\n      jump\t// out\n        /* \"#utility.yul\":2030:2359   */\n    tag_21:\n        /* \"#utility.yul\":2089:2095   */\n      0x00\n        /* \"#utility.yul\":2138:2140   */\n      0x20\n        /* \"#utility.yul\":2126:2135   */\n      dup3\n        /* \"#utility.yul\":2117:2124   */\n      dup5\n        /* \"#utility.yul\":2113:2136   */\n      sub\n        /* \"#utility.yul\":2109:2141   */\n      slt\n        /* \"#utility.yul\":2106:2225   */\n      iszero\n      tag_185\n      jumpi\n        /* \"#utility.yul\":2144:2223   */\n      tag_186\n      tag_173\n      jump\t// in\n    tag_186:\n        /* \"#utility.yul\":2106:2225   */\n    tag_185:\n        /* \"#utility.yul\":2264:2265   */\n      0x00\n        /* \"#utility.yul\":2289:2342   */\n      tag_187\n        /* \"#utility.yul\":2334:2341   */\n      dup5\n        /* \"#utility.yul\":2325:2331   */\n      dup3\n        /* \"#utility.yul\":2314:2323   */\n      dup6\n        /* \"#utility.yul\":2310:2332   */\n      add\n        /* \"#utility.yul\":2289:2342   */\n      tag_166\n      jump\t// in\n    tag_187:\n        /* \"#utility.yul\":2279:2342   */\n      swap2\n      pop\n        /* \"#utility.yul\":2235:2352   */\n      pop\n        /* \"#utility.yul\":2030:2359   */\n      swap3\n      swap2\n      pop\n      pop\n      jump\t// out\n        /* \"#utility.yul\":2365:2839   */\n    tag_36:\n        /* \"#utility.yul\":2433:2439   */\n      0x00\n        /* \"#utility.yul\":2441:2447   */\n      dup1\n        /* \"#utility.yul\":2490:2492   */\n      0x40\n        /* \"#utility.yul\":2478:2487   */\n      dup4\n        /* \"#utility.yul\":2469:2476   */\n      dup6\n        /* \"#utility.yul\":2465:2488   */\n      sub\n        /* \"#utility.yul\":2461:2493   */\n      slt\n        /* \"#utility.yul\":2458:2577   */\n      iszero\n      tag_189\n      jumpi\n        /* \"#utility.yul\":2496:2575   */\n      tag_190\n      tag_173\n      jump\t// in\n    tag_190:\n        /* \"#utility.yul\":2458:2577   */\n    tag_189:\n        /* \"#utility.yul\":2616:2617   */\n      0x00\n        /* \"#utility.yul\":2641:2694   */\n      tag_191\n        /* \"#utility.yul\":2686:2693   */\n      dup6\n        /* \"#utility.yul\":2677:2683   */\n      dup3\n        /* \"#utility.yul\":2666:2675   */\n      dup7\n        /* \"#utility.yul\":2662:2684   */\n      add\n        /* \"#utility.yul\":2641:2694   */\n      tag_166\n      jump\t// in\n    tag_191:\n        /* \"#utility.yul\":2631:2694   */\n      swap3\n      pop\n        /* \"#utility.yul\":2587:2704   */\n      pop\n        /* \"#utility.yul\":2743:2745   */\n      0x20\n        /* \"#utility.yul\":2769:2822   */\n      tag_192\n        /* \"#utility.yul\":2814:2821   */\n      dup6\n        /* \"#utility.yul\":2805:2811   */\n      dup3\n        /* \"#utility.yul\":2794:2803   */\n      dup7\n        /* \"#utility.yul\":2790:2812   */\n      add\n        /* \"#utility.yul\":2769:2822   */\n      tag_151\n      jump\t// in\n    tag_192:\n        /* \"#utility.yul\":2759:2822   */\n      swap2\n      pop\n        /* \"#utility.yul\":2714:2832   */\n      pop\n        /* \"#utility.yul\":2365:2839   */\n      swap3\n      pop\n      swap3\n      swap1\n      pop\n      jump\t// out\n        /* \"#utility.yul\":2845:3319   */\n    tag_26:\n        /* \"#utility.yul\":2913:2919   */\n      0x00\n        /* \"#utility.yul\":2921:2927   */\n      dup1\n        /* \"#utility.yul\":2970:2972   */\n      0x40\n        /* \"#utility.yul\":2958:2967   */\n      dup4\n        /* \"#utility.yul\":2949:2956   */\n      dup6\n        /* \"#utility.yul\":2945:2968   */\n      sub\n        /* \"#utility.yul\":2941:2973   */\n      slt\n        /* \"#utility.yul\":2938:3057   */\n      iszero\n      tag_194\n      jumpi\n        /* \"#utility.yul\":2976:3055   */\n      tag_195\n      tag_173\n      jump\t// in\n    tag_195:\n        /* \"#utility.yul\":2938:3057   */\n    tag_194:\n        /* \"#utility.yul\":3096:3097   */\n      0x00\n        /* \"#utility.yul\":3121:3174   */\n      tag_196\n        /* \"#utility.yul\":3166:3173   */\n      dup6\n        /* \"#utility.yul\":3157:3163   */\n      dup3\n        /* \"#utility.yul\":3146:3155   */\n      dup7\n        /* \"#utility.yul\":3142:3164   */\n      add\n        /* \"#utility.yul\":3121:3174   */\n      tag_166\n      jump\t// in\n    tag_196:\n        /* \"#utility.yul\":3111:3174   */\n      swap3\n      pop\n        /* \"#utility.yul\":3067:3184   */\n      pop\n        /* \"#utility.yul\":3223:3225   */\n      0x20\n        /* \"#utility.yul\":3249:3302   */\n      tag_197\n        /* \"#utility.yul\":3294:3301   */\n      dup6\n        /* \"#utility.yul\":3285:3291   */\n      dup3\n        /* \"#utility.yul\":3274:3283   */\n      dup7\n        /* \"#utility.yul\":3270:3292   */\n      add\n        /* \"#utility.yul\":3249:3302   */\n      tag_166\n      jump\t// in\n    tag_197:\n        /* \"#utility.yul\":3239:3302   */\n      swap2\n      pop\n        /* \"#utility.yul\":3194:3312   */\n      pop\n        /* \"#utility.yul\":2845:3319   */\n      swap3\n      pop\n      swap3\n      swap1\n      pop\n      jump\t// out\n        /* \"#utility.yul\":3325:3443   */\n    tag_198:\n        /* \"#utility.yul\":3412:3436   */\n      tag_200\n        /* \"#utility.yul\":3430:3435   */\n      dup2\n        /* \"#utility.yul\":3412:3436   */\n      tag_201\n      jump\t// in\n    tag_200:\n        /* \"#utility.yul\":3407:3410   */\n      dup3\n        /* \"#utility.yul\":3400:3437   */\n      mstore\n        /* \"#utility.yul\":3325:3443   */\n      pop\n      pop\n      jump\t// out\n        /* \"#utility.yul\":3449:3558   */\n    tag_202:\n        /* \"#utility.yul\":3530:3551   */\n      tag_204\n        /* \"#utility.yul\":3545:3550   */\n      dup2\n        /* \"#utility.yul\":3530:3551   */\n      tag_205\n      jump\t// in\n    tag_204:\n        /* \"#utility.yul\":3525:3528   */\n      dup3\n        /* \"#utility.yul\":3518:3552   */\n      mstore\n        /* \"#utility.yul\":3449:3558   */\n      pop\n      pop\n      jump\t// out\n        /* \"#utility.yul\":3588:3905   */\n    tag_206:\n        /* \"#utility.yul\":3704:3707   */\n      0x00\n        /* \"#utility.yul\":3725:3814   */\n      tag_208\n        /* \"#utility.yul\":3807:3813   */\n      dup4\n        /* \"#utility.yul\":3802:3805   */\n      dup6\n        /* \"#utility.yul\":3725:3814   */\n      tag_209\n      jump\t// in\n    tag_208:\n        /* \"#utility.yul\":3718:3814   */\n      swap4\n      pop\n        /* \"#utility.yul\":3824:3867   */\n      tag_210\n        /* \"#utility.yul\":3860:3866   */\n      dup4\n        /* \"#utility.yul\":3855:3858   */\n      dup6\n        /* \"#utility.yul\":3848:3853   */\n      dup5\n        /* \"#utility.yul\":3824:3867   */\n      tag_211\n      jump\t// in\n    tag_210:\n        /* \"#utility.yul\":3892:3898   */\n      dup3\n        /* \"#utility.yul\":3887:3890   */\n      dup5\n        /* \"#utility.yul\":3883:3899   */\n      add\n        /* \"#utility.yul\":3876:3899   */\n      swap1\n      pop\n        /* \"#utility.yul\":3588:3905   */\n      swap4\n      swap3\n      pop\n      pop\n      pop\n      jump\t// out\n        /* \"#utility.yul\":3911:4275   */\n    tag_212:\n        /* \"#utility.yul\":3999:4002   */\n      0x00\n        /* \"#utility.yul\":4027:4066   */\n      tag_214\n        /* \"#utility.yul\":4060:4065   */\n      dup3\n        /* \"#utility.yul\":4027:4066   */\n      tag_215\n      jump\t// in\n    tag_214:\n        /* \"#utility.yul\":4082:4153   */\n      tag_216\n        /* \"#utility.yul\":4146:4152   */\n      dup2\n        /* \"#utility.yul\":4141:4144   */\n      dup6\n        /* \"#utility.yul\":4082:4153   */\n      tag_217\n      jump\t// in\n    tag_216:\n        /* \"#utility.yul\":4075:4153   */\n      swap4\n      pop\n        /* \"#utility.yul\":4162:4214   */\n      tag_218\n        /* \"#utility.yul\":4207:4213   */\n      dup2\n        /* \"#utility.yul\":4202:4205   */\n      dup6\n        /* \"#utility.yul\":4195:4199   */\n      0x20\n        /* \"#utility.yul\":4188:4193   */\n      dup7\n        /* \"#utility.yul\":4184:4200   */\n      add\n        /* \"#utility.yul\":4162:4214   */\n      tag_219\n      jump\t// in\n    tag_218:\n        /* \"#utility.yul\":4239:4268   */\n      tag_220\n        /* \"#utility.yul\":4261:4267   */\n      dup2\n        /* \"#utility.yul\":4239:4268   */\n      tag_221\n      jump\t// in\n    tag_220:\n        /* \"#utility.yul\":4234:4237   */\n      dup5\n        /* \"#utility.yul\":4230:4269   */\n      add\n        /* \"#utility.yul\":4223:4269   */\n      swap2\n      pop\n        /* \"#utility.yul\":4003:4275   */\n      pop\n        /* \"#utility.yul\":3911:4275   */\n      swap3\n      swap2\n      pop\n      pop\n      jump\t// out\n        /* \"#utility.yul\":4281:4679   */\n    tag_222:\n        /* \"#utility.yul\":4440:4443   */\n      0x00\n        /* \"#utility.yul\":4461:4544   */\n      tag_224\n        /* \"#utility.yul\":4542:4543   */\n      0x00\n        /* \"#utility.yul\":4537:4540   */\n      dup4\n        /* \"#utility.yul\":4461:4544   */\n      tag_225\n      jump\t// in\n    tag_224:\n        /* \"#utility.yul\":4454:4544   */\n      swap2\n      pop\n        /* \"#utility.yul\":4553:4646   */\n      tag_226\n        /* \"#utility.yul\":4642:4645   */\n      dup3\n        /* \"#utility.yul\":4553:4646   */\n      tag_227\n      jump\t// in\n    tag_226:\n        /* \"#utility.yul\":4671:4672   */\n      0x00\n        /* \"#utility.yul\":4666:4669   */\n      dup3\n        /* \"#utility.yul\":4662:4673   */\n      add\n        /* \"#utility.yul\":4655:4673   */\n      swap1\n      pop\n        /* \"#utility.yul\":4281:4679   */\n      swap2\n      swap1\n      pop\n      jump\t// out\n        /* \"#utility.yul\":4685:4803   */\n    tag_228:\n        /* \"#utility.yul\":4772:4796   */\n      tag_230\n        /* \"#utility.yul\":4790:4795   */\n      dup2\n        /* \"#utility.yul\":4772:4796   */\n      tag_231\n      jump\t// in\n    tag_230:\n        /* \"#utility.yul\":4767:4770   */\n      dup3\n        /* \"#utility.yul\":4760:4797   */\n      mstore\n        /* \"#utility.yul\":4685:4803   */\n      pop\n      pop\n      jump\t// out\n        /* \"#utility.yul\":4809:5104   */\n    tag_68:\n        /* \"#utility.yul\":4951:4954   */\n      0x00\n        /* \"#utility.yul\":4973:5078   */\n      tag_233\n        /* \"#utility.yul\":5074:5077   */\n      dup3\n        /* \"#utility.yul\":5065:5071   */\n      dup5\n        /* \"#utility.yul\":5057:5063   */\n      dup7\n        /* \"#utility.yul\":4973:5078   */\n      tag_206\n      jump\t// in\n    tag_233:\n        /* \"#utility.yul\":4966:5078   */\n      swap2\n      pop\n        /* \"#utility.yul\":5095:5098   */\n      dup2\n        /* \"#utility.yul\":5088:5098   */\n      swap1\n      pop\n        /* \"#utility.yul\":4809:5104   */\n      swap4\n      swap3\n      pop\n      pop\n      pop\n      jump\t// out\n        /* \"#utility.yul\":5110:5489   */\n    tag_94:\n        /* \"#utility.yul\":5294:5297   */\n      0x00\n        /* \"#utility.yul\":5316:5463   */\n      tag_235\n        /* \"#utility.yul\":5459:5462   */\n      dup3\n        /* \"#utility.yul\":5316:5463   */\n      tag_222\n      jump\t// in\n    tag_235:\n        /* \"#utility.yul\":5309:5463   */\n      swap2\n      pop\n        /* \"#utility.yul\":5480:5483   */\n      dup2\n        /* \"#utility.yul\":5473:5483   */\n      swap1\n      pop\n        /* \"#utility.yul\":5110:5489   */\n      swap2\n      swap1\n      pop\n      jump\t// out\n        /* \"#utility.yul\":5495:5717   */\n    tag_29:\n        /* \"#utility.yul\":5588:5592   */\n      0x00\n        /* \"#utility.yul\":5626:5628   */\n      0x20\n        /* \"#utility.yul\":5615:5624   */\n      dup3\n        /* \"#utility.yul\":5611:5629   */\n      add\n        /* \"#utility.yul\":5603:5629   */\n      swap1\n      pop\n        /* \"#utility.yul\":5639:5710   */\n      tag_237\n        /* \"#utility.yul\":5707:5708   */\n      0x00\n        /* \"#utility.yul\":5696:5705   */\n      dup4\n        /* \"#utility.yul\":5692:5709   */\n      add\n        /* \"#utility.yul\":5683:5689   */\n      dup5\n        /* \"#utility.yul\":5639:5710   */\n      tag_198\n      jump\t// in\n    tag_237:\n        /* \"#utility.yul\":5495:5717   */\n      swap3\n      swap2\n      pop\n      pop\n      jump\t// out\n        /* \"#utility.yul\":5723:6036   */\n    tag_58:\n        /* \"#utility.yul\":5836:5840   */\n      0x00\n        /* \"#utility.yul\":5874:5876   */\n      0x20\n        /* \"#utility.yul\":5863:5872   */\n      dup3\n        /* \"#utility.yul\":5859:5877   */\n      add\n        /* \"#utility.yul\":5851:5877   */\n      swap1\n      pop\n        /* \"#utility.yul\":5923:5932   */\n      dup2\n        /* \"#utility.yul\":5917:5921   */\n      dup2\n        /* \"#utility.yul\":5913:5933   */\n      sub\n        /* \"#utility.yul\":5909:5910   */\n      0x00\n        /* \"#utility.yul\":5898:5907   */\n      dup4\n        /* \"#utility.yul\":5894:5911   */\n      add\n        /* \"#utility.yul\":5887:5934   */\n      mstore\n        /* \"#utility.yul\":5951:6029   */\n      tag_239\n        /* \"#utility.yul\":6024:6028   */\n      dup2\n        /* \"#utility.yul\":6015:6021   */\n      dup5\n        /* \"#utility.yul\":5951:6029   */\n      tag_212\n      jump\t// in\n    tag_239:\n        /* \"#utility.yul\":5943:6029   */\n      swap1\n      pop\n        /* \"#utility.yul\":5723:6036   */\n      swap3\n      swap2\n      pop\n      pop\n      jump\t// out\n        /* \"#utility.yul\":6042:6264   */\n    tag_65:\n        /* \"#utility.yul\":6135:6139   */\n      0x00\n        /* \"#utility.yul\":6173:6175   */\n      0x20\n        /* \"#utility.yul\":6162:6171   */\n      dup3\n        /* \"#utility.yul\":6158:6176   */\n      add\n        /* \"#utility.yul\":6150:6176   */\n      swap1\n      pop\n        /* \"#utility.yul\":6186:6257   */\n      tag_241\n        /* \"#utility.yul\":6254:6255   */\n      0x00\n        /* \"#utility.yul\":6243:6252   */\n      dup4\n        /* \"#utility.yul\":6239:6256   */\n      add\n        /* \"#utility.yul\":6230:6236   */\n      dup5\n        /* \"#utility.yul\":6186:6257   */\n      tag_228\n      jump\t// in\n    tag_241:\n        /* \"#utility.yul\":6042:6264   */\n      swap3\n      swap2\n      pop\n      pop\n      jump\t// out\n        /* \"#utility.yul\":6270:6902   */\n    tag_49:\n        /* \"#utility.yul\":6461:6465   */\n      0x00\n        /* \"#utility.yul\":6499:6502   */\n      0x80\n        /* \"#utility.yul\":6488:6497   */\n      dup3\n        /* \"#utility.yul\":6484:6503   */\n      add\n        /* \"#utility.yul\":6476:6503   */\n      swap1\n      pop\n        /* \"#utility.yul\":6513:6584   */\n      tag_243\n        /* \"#utility.yul\":6581:6582   */\n      0x00\n        /* \"#utility.yul\":6570:6579   */\n      dup4\n        /* \"#utility.yul\":6566:6583   */\n      add\n        /* \"#utility.yul\":6557:6563   */\n      dup8\n        /* \"#utility.yul\":6513:6584   */\n      tag_228\n      jump\t// in\n    tag_243:\n        /* \"#utility.yul\":6594:6666   */\n      tag_244\n        /* \"#utility.yul\":6662:6664   */\n      0x20\n        /* \"#utility.yul\":6651:6660   */\n      dup4\n        /* \"#utility.yul\":6647:6665   */\n      add\n        /* \"#utility.yul\":6638:6644   */\n      dup7\n        /* \"#utility.yul\":6594:6666   */\n      tag_228\n      jump\t// in\n    tag_244:\n        /* \"#utility.yul\":6713:6722   */\n      dup2\n        /* \"#utility.yul\":6707:6711   */\n      dup2\n        /* \"#utility.yul\":6703:6723   */\n      sub\n        /* \"#utility.yul\":6698:6700   */\n      0x40\n        /* \"#utility.yul\":6687:6696   */\n      dup4\n        /* \"#utility.yul\":6683:6701   */\n      add\n        /* \"#utility.yul\":6676:6724   */\n      mstore\n        /* \"#utility.yul\":6741:6819   */\n      tag_245\n        /* \"#utility.yul\":6814:6818   */\n      dup2\n        /* \"#utility.yul\":6805:6811   */\n      dup6\n        /* \"#utility.yul\":6741:6819   */\n      tag_212\n      jump\t// in\n    tag_245:\n        /* \"#utility.yul\":6733:6819   */\n      swap1\n      pop\n        /* \"#utility.yul\":6829:6895   */\n      tag_246\n        /* \"#utility.yul\":6891:6893   */\n      0x60\n        /* \"#utility.yul\":6880:6889   */\n      dup4\n        /* \"#utility.yul\":6876:6894   */\n      add\n        /* \"#utility.yul\":6867:6873   */\n      dup5\n        /* \"#utility.yul\":6829:6895   */\n      tag_202\n      jump\t// in\n    tag_246:\n        /* \"#utility.yul\":6270:6902   */\n      swap6\n      swap5\n      pop\n      pop\n      pop\n      pop\n      pop\n      jump\t// out\n        /* \"#utility.yul\":6908:7350   */\n    tag_39:\n        /* \"#utility.yul\":7057:7061   */\n      0x00\n        /* \"#utility.yul\":7095:7097   */\n      0x60\n        /* \"#utility.yul\":7084:7093   */\n      dup3\n        /* \"#utility.yul\":7080:7098   */\n      add\n        /* \"#utility.yul\":7072:7098   */\n      swap1\n      pop\n        /* \"#utility.yul\":7108:7179   */\n      tag_248\n        /* \"#utility.yul\":7176:7177   */\n      0x00\n        /* \"#utility.yul\":7165:7174   */\n      dup4\n        /* \"#utility.yul\":7161:7178   */\n      add\n        /* \"#utility.yul\":7152:7158   */\n      dup7\n        /* \"#utility.yul\":7108:7179   */\n      tag_228\n      jump\t// in\n    tag_248:\n        /* \"#utility.yul\":7189:7261   */\n      tag_249\n        /* \"#utility.yul\":7257:7259   */\n      0x20\n        /* \"#utility.yul\":7246:7255   */\n      dup4\n        /* \"#utility.yul\":7242:7260   */\n      add\n        /* \"#utility.yul\":7233:7239   */\n      dup6\n        /* \"#utility.yul\":7189:7261   */\n      tag_228\n      jump\t// in\n    tag_249:\n        /* \"#utility.yul\":7271:7343   */\n      tag_250\n        /* \"#utility.yul\":7339:7341   */\n      0x40\n        /* \"#utility.yul\":7328:7337   */\n      dup4\n        /* \"#utility.yul\":7324:7342   */\n      add\n        /* \"#utility.yul\":7315:7321   */\n      dup5\n        /* \"#utility.yul\":7271:7343   */\n      tag_228\n      jump\t// in\n    tag_250:\n        /* \"#utility.yul\":6908:7350   */\n      swap5\n      swap4\n      pop\n      pop\n      pop\n      pop\n      jump\t// out\n        /* \"#utility.yul\":7437:7536   */\n    tag_215:\n        /* \"#utility.yul\":7489:7495   */\n      0x00\n        /* \"#utility.yul\":7523:7528   */\n      dup2\n        /* \"#utility.yul\":7517:7529   */\n      mload\n        /* \"#utility.yul\":7507:7529   */\n      swap1\n      pop\n        /* \"#utility.yul\":7437:7536   */\n      swap2\n      swap1\n      pop\n      jump\t// out\n        /* \"#utility.yul\":7542:7689   */\n    tag_225:\n        /* \"#utility.yul\":7643:7654   */\n      0x00\n        /* \"#utility.yul\":7680:7683   */\n      dup2\n        /* \"#utility.yul\":7665:7683   */\n      swap1\n      pop\n        /* \"#utility.yul\":7542:7689   */\n      swap3\n      swap2\n      pop\n      pop\n      jump\t// out\n        /* \"#utility.yul\":7695:7864   */\n    tag_217:\n        /* \"#utility.yul\":7779:7790   */\n      0x00\n        /* \"#utility.yul\":7813:7819   */\n      dup3\n        /* \"#utility.yul\":7808:7811   */\n      dup3\n        /* \"#utility.yul\":7801:7820   */\n      mstore\n        /* \"#utility.yul\":7853:7857   */\n      0x20\n        /* \"#utility.yul\":7848:7851   */\n      dup3\n        /* \"#utility.yul\":7844:7858   */\n      add\n        /* \"#utility.yul\":7829:7858   */\n      swap1\n      pop\n        /* \"#utility.yul\":7695:7864   */\n      swap3\n      swap2\n      pop\n      pop\n      jump\t// out\n        /* \"#utility.yul\":7870:8018   */\n    tag_209:\n        /* \"#utility.yul\":7972:7983   */\n      0x00\n        /* \"#utility.yul\":8009:8012   */\n      dup2\n        /* \"#utility.yul\":7994:8012   */\n      swap1\n      pop\n        /* \"#utility.yul\":7870:8018   */\n      swap3\n      swap2\n      pop\n      pop\n      jump\t// out\n        /* \"#utility.yul\":8024:8329   */\n    tag_87:\n        /* \"#utility.yul\":8064:8067   */\n      0x00\n        /* \"#utility.yul\":8083:8103   */\n      tag_258\n        /* \"#utility.yul\":8101:8102   */\n      dup3\n        /* \"#utility.yul\":8083:8103   */\n      tag_231\n      jump\t// in\n    tag_258:\n        /* \"#utility.yul\":8078:8103   */\n      swap2\n      pop\n        /* \"#utility.yul\":8117:8137   */\n      tag_259\n        /* \"#utility.yul\":8135:8136   */\n      dup4\n        /* \"#utility.yul\":8117:8137   */\n      tag_231\n      jump\t// in\n    tag_259:\n        /* \"#utility.yul\":8112:8137   */\n      swap3\n      pop\n        /* \"#utility.yul\":8271:8272   */\n      dup3\n        /* \"#utility.yul\":8203:8269   */\n      0xffffffffffffffffffffffffffffffffffffffffffffffffffffffffffffffff\n        /* \"#utility.yul\":8199:8273   */\n      sub\n        /* \"#utility.yul\":8196:8197   */\n      dup3\n        /* \"#utility.yul\":8193:8274   */\n      gt\n        /* \"#utility.yul\":8190:8297   */\n      iszero\n      tag_260\n      jumpi\n        /* \"#utility.yul\":8277:8295   */\n      tag_261\n      tag_262\n      jump\t// in\n    tag_261:\n        /* \"#utility.yul\":8190:8297   */\n    tag_260:\n        /* \"#utility.yul\":8321:8322   */\n      dup3\n        /* \"#utility.yul\":8318:8319   */\n      dup3\n        /* \"#utility.yul\":8314:8323   */\n      add\n        /* \"#utility.yul\":8307:8323   */\n      swap1\n      pop\n        /* \"#utility.yul\":8024:8329   */\n      swap3\n      swap2\n      pop\n      pop\n      jump\t// out\n        /* \"#utility.yul\":8335:8526   */\n    tag_82:\n        /* \"#utility.yul\":8375:8379   */\n      0x00\n        /* \"#utility.yul\":8395:8415   */\n      tag_264\n        /* \"#utility.yul\":8413:8414   */\n      dup3\n        /* \"#utility.yul\":8395:8415   */\n      tag_231\n      jump\t// in\n    tag_264:\n        /* \"#utility.yul\":8390:8415   */\n      swap2\n      pop\n        /* \"#utility.yul\":8429:8449   */\n      tag_265\n        /* \"#utility.yul\":8447:8448   */\n      dup4\n        /* \"#utility.yul\":8429:8449   */\n      tag_231\n      jump\t// in\n    tag_265:\n        /* \"#utility.yul\":8424:8449   */\n      swap3\n      pop\n        /* \"#utility.yul\":8468:8469   */\n      dup3\n        /* \"#utility.yul\":8465:8466   */\n      dup3\n        /* \"#utility.yul\":8462:8470   */\n      lt\n        /* \"#utility.yul\":8459:8493   */\n      iszero\n      tag_266\n      jumpi\n        /* \"#utility.yul\":8473:8491   */\n      tag_267\n      tag_262\n      jump\t// in\n    tag_267:\n        /* \"#utility.yul\":8459:8493   */\n    tag_266:\n        /* \"#utility.yul\":8518:8519   */\n      dup3\n        /* \"#utility.yul\":8515:8516   */\n      dup3\n        /* \"#utility.yul\":8511:8520   */\n      sub\n        /* \"#utility.yul\":8503:8520   */\n      swap1\n      pop\n        /* \"#utility.yul\":8335:8526   */\n      swap3\n      swap2\n      pop\n      pop\n      jump\t// out\n        /* \"#utility.yul\":8532:8628   */\n    tag_201:\n        /* \"#utility.yul\":8569:8576   */\n      0x00\n        /* \"#utility.yul\":8598:8622   */\n      tag_269\n        /* \"#utility.yul\":8616:8621   */\n      dup3\n        /* \"#utility.yul\":8598:8622   */\n      tag_270\n      jump\t// in\n    tag_269:\n        /* \"#utility.yul\":8587:8622   */\n      swap1\n      pop\n        /* \"#utility.yul\":8532:8628   */\n      swap2\n      swap1\n      pop\n      jump\t// out\n        /* \"#utility.yul\":8634:8724   */\n    tag_205:\n        /* \"#utility.yul\":8668:8675   */\n      0x00\n        /* \"#utility.yul\":8711:8716   */\n      dup2\n        /* \"#utility.yul\":8704:8717   */\n      iszero\n        /* \"#utility.yul\":8697:8718   */\n      iszero\n        /* \"#utility.yul\":8686:8718   */\n      swap1\n      pop\n        /* \"#utility.yul\":8634:8724   */\n      swap2\n      swap1\n      pop\n      jump\t// out\n        /* \"#utility.yul\":8730:8856   */\n    tag_270:\n        /* \"#utility.yul\":8767:8774   */\n      0x00\n        /* \"#utility.yul\":8807:8849   */\n      0xffffffffffffffffffffffffffffffffffffffff\n        /* \"#utility.yul\":8800:8805   */\n      dup3\n        /* \"#utility.yul\":8796:8850   */\n      and\n        /* \"#utility.yul\":8785:8850   */\n      swap1\n      pop\n        /* \"#utility.yul\":8730:8856   */\n      swap2\n      swap1\n      pop\n      jump\t// out\n        /* \"#utility.yul\":8862:8939   */\n    tag_231:\n        /* \"#utility.yul\":8899:8906   */\n      0x00\n        /* \"#utility.yul\":8928:8933   */\n      dup2\n        /* \"#utility.yul\":8917:8933   */\n      swap1\n      pop\n        /* \"#utility.yul\":8862:8939   */\n      swap2\n      swap1\n      pop\n      jump\t// out\n        /* \"#utility.yul\":8945:9099   */\n    tag_211:\n        /* \"#utility.yul\":9029:9035   */\n      dup3\n        /* \"#utility.yul\":9024:9027   */\n      dup2\n        /* \"#utility.yul\":9019:9022   */\n      dup4\n        /* \"#utility.yul\":9006:9036   */\n      calldatacopy\n        /* \"#utility.yul\":9091:9092   */\n      0x00\n        /* \"#utility.yul\":9082:9088   */\n      dup4\n        /* \"#utility.yul\":9077:9080   */\n      dup4\n        /* \"#utility.yul\":9073:9089   */\n      add\n        /* \"#utility.yul\":9066:9093   */\n      mstore\n        /* \"#utility.yul\":8945:9099   */\n      pop\n      pop\n      pop\n      jump\t// out\n        /* \"#utility.yul\":9105:9412   */\n    tag_219:\n        /* \"#utility.yul\":9173:9174   */\n      0x00\n        /* \"#utility.yul\":9183:9296   */\n    tag_276:\n        /* \"#utility.yul\":9197:9203   */\n      dup4\n        /* \"#utility.yul\":9194:9195   */\n      dup2\n        /* \"#utility.yul\":9191:9204   */\n      lt\n        /* \"#utility.yul\":9183:9296   */\n      iszero\n      tag_278\n      jumpi\n        /* \"#utility.yul\":9282:9283   */\n      dup1\n        /* \"#utility.yul\":9277:9280   */\n      dup3\n        /* \"#utility.yul\":9273:9284   */\n      add\n        /* \"#utility.yul\":9267:9285   */\n      mload\n        /* \"#utility.yul\":9263:9264   */\n      dup2\n        /* \"#utility.yul\":9258:9261   */\n      dup5\n        /* \"#utility.yul\":9254:9265   */\n      add\n        /* \"#utility.yul\":9247:9286   */\n      mstore\n        /* \"#utility.yul\":9219:9221   */\n      0x20\n        /* \"#utility.yul\":9216:9217   */\n      dup2\n        /* \"#utility.yul\":9212:9222   */\n      add\n        /* \"#utility.yul\":9207:9222   */\n      swap1\n      pop\n        /* \"#utility.yul\":9183:9296   */\n      jump(tag_276)\n    tag_278:\n        /* \"#utility.yul\":9314:9320   */\n      dup4\n        /* \"#utility.yul\":9311:9312   */\n      dup2\n        /* \"#utility.yul\":9308:9321   */\n      gt\n        /* \"#utility.yul\":9305:9406   */\n      iszero\n      tag_279\n      jumpi\n        /* \"#utility.yul\":9394:9395   */\n      0x00\n        /* \"#utility.yul\":9385:9391   */\n      dup5\n        /* \"#utility.yul\":9380:9383   */\n      dup5\n        /* \"#utility.yul\":9376:9392   */\n      add\n        /* \"#utility.yul\":9369:9396   */\n      mstore\n        /* \"#utility.yul\":9305:9406   */\n    tag_279:\n        /* \"#utility.yul\":9154:9412   */\n      pop\n        /* \"#utility.yul\":9105:9412   */\n      pop\n      pop\n      pop\n      jump\t// out\n        /* \"#utility.yul\":9418:9589   */\n    tag_122:\n        /* \"#utility.yul\":9457:9460   */\n      0x00\n        /* \"#utility.yul\":9480:9504   */\n      tag_281\n        /* \"#utility.yul\":9498:9503   */\n      dup3\n        /* \"#utility.yul\":9480:9504   */\n      tag_231\n      jump\t// in\n    tag_281:\n        /* \"#utility.yul\":9471:9504   */\n      swap2\n      pop\n        /* \"#utility.yul\":9526:9530   */\n      0x00\n        /* \"#utility.yul\":9519:9524   */\n      dup3\n        /* \"#utility.yul\":9516:9531   */\n      eq\n        /* \"#utility.yul\":9513:9554   */\n      iszero\n      tag_282\n      jumpi\n        /* \"#utility.yul\":9534:9552   */\n      tag_283\n      tag_262\n      jump\t// in\n    tag_283:\n        /* \"#utility.yul\":9513:9554   */\n    tag_282:\n        /* \"#utility.yul\":9581:9582   */\n      0x01\n        /* \"#utility.yul\":9574:9579   */\n      dup3\n        /* \"#utility.yul\":9570:9583   */\n      sub\n        /* \"#utility.yul\":9563:9583   */\n      swap1\n      pop\n        /* \"#utility.yul\":9418:9589   */\n      swap2\n      swap1\n      pop\n      jump\t// out\n        /* \"#utility.yul\":9595:9915   */\n    tag_104:\n        /* \"#utility.yul\":9639:9645   */\n      0x00\n        /* \"#utility.yul\":9676:9677   */\n      0x02\n        /* \"#utility.yul\":9670:9674   */\n      dup3\n        /* \"#utility.yul\":9666:9678   */\n      div\n        /* \"#utility.yul\":9656:9678   */\n      swap1\n      pop\n        /* \"#utility.yul\":9723:9724   */\n      0x01\n        /* \"#utility.yul\":9717:9721   */\n      dup3\n        /* \"#utility.yul\":9713:9725   */\n      and\n        /* \"#utility.yul\":9744:9762   */\n      dup1\n        /* \"#utility.yul\":9734:9815   */\n      tag_285\n      jumpi\n        /* \"#utility.yul\":9800:9804   */\n      0x7f\n        /* \"#utility.yul\":9792:9798   */\n      dup3\n        /* \"#utility.yul\":9788:9805   */\n      and\n        /* \"#utility.yul\":9778:9805   */\n      swap2\n      pop\n        /* \"#utility.yul\":9734:9815   */\n    tag_285:\n        /* \"#utility.yul\":9862:9864   */\n      0x20\n        /* \"#utility.yul\":9854:9860   */\n      dup3\n        /* \"#utility.yul\":9851:9865   */\n      lt\n        /* \"#utility.yul\":9831:9849   */\n      dup2\n        /* \"#utility.yul\":9828:9866   */\n      eq\n        /* \"#utility.yul\":9825:9909   */\n      iszero\n      tag_286\n      jumpi\n        /* \"#utility.yul\":9881:9899   */\n      tag_287\n      tag_288\n      jump\t// in\n    tag_287:\n        /* \"#utility.yul\":9825:9909   */\n    tag_286:\n        /* \"#utility.yul\":9646:9915   */\n      pop\n        /* \"#utility.yul\":9595:9915   */\n      swap2\n      swap1\n      pop\n      jump\t// out\n        /* \"#utility.yul\":9921:10154   */\n    tag_85:\n        /* \"#utility.yul\":9960:9963   */\n      0x00\n        /* \"#utility.yul\":9983:10007   */\n      tag_290\n        /* \"#utility.yul\":10001:10006   */\n      dup3\n        /* \"#utility.yul\":9983:10007   */\n      tag_231\n      jump\t// in\n    tag_290:\n        /* \"#utility.yul\":9974:10007   */\n      swap2\n      pop\n        /* \"#utility.yul\":10029:10095   */\n      0xffffffffffffffffffffffffffffffffffffffffffffffffffffffffffffffff\n        /* \"#utility.yul\":10022:10027   */\n      dup3\n        /* \"#utility.yul\":10019:10096   */\n      eq\n        /* \"#utility.yul\":10016:10119   */\n      iszero\n      tag_291\n      jumpi\n        /* \"#utility.yul\":10099:10117   */\n      tag_292\n      tag_262\n      jump\t// in\n    tag_292:\n        /* \"#utility.yul\":10016:10119   */\n    tag_291:\n        /* \"#utility.yul\":10146:10147   */\n      0x01\n        /* \"#utility.yul\":10139:10144   */\n      dup3\n        /* \"#utility.yul\":10135:10148   */\n      add\n        /* \"#utility.yul\":10128:10148   */\n      swap1\n      pop\n        /* \"#utility.yul\":9921:10154   */\n      swap2\n      swap1\n      pop\n      jump\t// out\n        /* \"#utility.yul\":10160:10340   */\n    tag_262:\n        /* \"#utility.yul\":10208:10285   */\n      0x4e487b7100000000000000000000000000000000000000000000000000000000\n        /* \"#utility.yul\":10205:10206   */\n      0x00\n        /* \"#utility.yul\":10198:10286   */\n      mstore\n        /* \"#utility.yul\":10305:10309   */\n      0x11\n        /* \"#utility.yul\":10302:10303   */\n      0x04\n        /* \"#utility.yul\":10295:10310   */\n      mstore\n        /* \"#utility.yul\":10329:10333   */\n      0x24\n        /* \"#utility.yul\":10326:10327   */\n      0x00\n        /* \"#utility.yul\":10319:10334   */\n      revert\n        /* \"#utility.yul\":10346:10526   */\n    tag_288:\n        /* \"#utility.yul\":10394:10471   */\n      0x4e487b7100000000000000000000000000000000000000000000000000000000\n        /* \"#utility.yul\":10391:10392   */\n      0x00\n        /* \"#utility.yul\":10384:10472   */\n      mstore\n        /* \"#utility.yul\":10491:10495   */\n      0x22\n        /* \"#utility.yul\":10488:10489   */\n      0x04\n        /* \"#utility.yul\":10481:10496   */\n      mstore\n        /* \"#utility.yul\":10515:10519   */\n      0x24\n        /* \"#utility.yul\":10512:10513   */\n      0x00\n        /* \"#utility.yul\":10505:10520   */\n      revert\n        /* \"#utility.yul\":10532:10649   */\n    tag_162:\n        /* \"#utility.yul\":10641:10642   */\n      0x00\n        /* \"#utility.yul\":10638:10639   */\n      dup1\n        /* \"#utility.yul\":10631:10643   */\n      revert\n        /* \"#utility.yul\":10655:10772   */\n    tag_159:\n        /* \"#utility.yul\":10764:10765   */\n      0x00\n        /* \"#utility.yul\":10761:10762   */\n      dup1\n        /* \"#utility.yul\":10754:10766   */\n      revert\n        /* \"#utility.yul\":10778:10895   */\n    tag_165:\n        /* \"#utility.yul\":10887:10888   */\n      0x00\n        /* \"#utility.yul\":10884:10885   */\n      dup1\n        /* \"#utility.yul\":10877:10889   */\n      revert\n        /* \"#utility.yul\":10901:11018   */\n    tag_180:\n        /* \"#utility.yul\":11010:11011   */\n      0x00\n        /* \"#utility.yul\":11007:11008   */\n      dup1\n        /* \"#utility.yul\":11000:11012   */\n      revert\n        /* \"#utility.yul\":11024:11141   */\n    tag_173:\n        /* \"#utility.yul\":11133:11134   */\n      0x00\n        /* \"#utility.yul\":11130:11131   */\n      dup1\n        /* \"#utility.yul\":11123:11135   */\n      revert\n        /* \"#utility.yul\":11147:11249   */\n    tag_221:\n        /* \"#utility.yul\":11188:11194   */\n      0x00\n        /* \"#utility.yul\":11239:11241   */\n      0x1f\n        /* \"#utility.yul\":11235:11242   */\n      not\n        /* \"#utility.yul\":11230:11232   */\n      0x1f\n        /* \"#utility.yul\":11223:11228   */\n      dup4\n        /* \"#utility.yul\":11219:11233   */\n      add\n        /* \"#utility.yul\":11215:11243   */\n      and\n        /* \"#utility.yul\":11205:11243   */\n      swap1\n      pop\n        /* \"#utility.yul\":11147:11249   */\n      swap2\n      swap1\n      pop\n      jump\t// out\n        /* \"#utility.yul\":11255:11369   */\n    tag_227:\n      pop\n      jump\t// out\n        /* \"#utility.yul\":11375:11497   */\n    tag_154:\n        /* \"#utility.yul\":11448:11472   */\n      tag_303\n        /* \"#utility.yul\":11466:11471   */\n      dup2\n        /* \"#utility.yul\":11448:11472   */\n      tag_201\n      jump\t// in\n    tag_303:\n        /* \"#utility.yul\":11441:11446   */\n      dup2\n        /* \"#utility.yul\":11438:11473   */\n      eq\n        /* \"#utility.yul\":11428:11491   */\n      tag_304\n      jumpi\n        /* \"#utility.yul\":11487:11488   */\n      0x00\n        /* \"#utility.yul\":11484:11485   */\n      dup1\n        /* \"#utility.yul\":11477:11489   */\n      revert\n        /* \"#utility.yul\":11428:11491   */\n    tag_304:\n        /* \"#utility.yul\":11375:11497   */\n      pop\n      jump\t// out\n        /* \"#utility.yul\":11503:11625   */\n    tag_169:\n        /* \"#utility.yul\":11576:11600   */\n      tag_306\n        /* \"#utility.yul\":11594:11599   */\n      dup2\n        /* \"#utility.yul\":11576:11600   */\n      tag_231\n      jump\t// in\n    tag_306:\n        /* \"#utility.yul\":11569:11574   */\n      dup2\n        /* \"#utility.yul\":11566:11601   */\n      eq\n        /* \"#utility.yul\":11556:11619   */\n      tag_307\n      jumpi\n        /* \"#utility.yul\":11615:11616   */\n      0x00\n        /* \"#utility.yul\":11612:11613   */\n      dup1\n        /* \"#utility.yul\":11605:11617   */\n      revert\n        /* \"#utility.yul\":11556:11619   */\n    tag_307:\n        /* \"#utility.yul\":11503:11625   */\n      pop\n      jump\t// out\n\n    auxdata: 0xa264697066735822122014e4402864e3b3c3c8aebfbcb5a3c00f2940b14f1cc11e4fd79588ab7303657564736f6c63430008070033\n}\n",
				"bytecode": {
					"linkReferences": {},
					"object": "60806040526115d2806100136000396000f3fe6080604052600436106100915760003560e01c806379cd49211161005957806379cd49211461017b5780637acc0b20146101a45780638642269e146101e4578063e4bcc7d414610200578063f3f437031461023d57610091565b80630a5bd44b14610096578063131e407d146100bf57806327e7875a146100e85780633ccfd60b1461012557806374cbc3501461013c575b600080fd5b3480156100a257600080fd5b506100bd60048036038101906100b89190611020565b61027a565b005b3480156100cb57600080fd5b506100e660048036038101906100e19190611094565b610447565b005b3480156100f457600080fd5b5061010f600480360381019061010a9190611101565b610684565b60405161011c919061121d565b60405180910390f35b34801561013157600080fd5b5061013a6106d2565b005b34801561014857600080fd5b50610163600480360381019061015e91906110c1565b610846565b604051610172939291906112c1565b60405180910390f35b34801561018757600080fd5b506101a2600480360381019061019d9190611101565b61087d565b005b3480156101b057600080fd5b506101cb60048036038101906101c69190611094565b61090e565b6040516101db9493929190611275565b60405180910390f35b6101fe60048036038101906101f99190611094565b6109d3565b005b34801561020c57600080fd5b5061022760048036038101906102229190611094565b610d3b565b6040516102349190611238565b60405180910390f35b34801561024957600080fd5b50610264600480360381019061025f9190610ff3565b610de7565b604051610271919061125a565b60405180910390f35b6002848460405161028c9291906111ef565b908152602001604051809103902060009054906101000a900460ff1661040f576102b4610dff565b828160000181815250508181602001818152505084848080601f016020809104026020016040519081016040528093929190818152602001838380828437600081840152601f19601f82011690508083019250505050505050816040018190525060018160600190151590811515815250508060016000808054905081526020019081526020016000206000820151816000015560208201518160010155604082015181600201908051906020019061036e929190610e29565b5060608201518160030160006101000a81548160ff0219169083151502179055509050506001600286866040516103a69291906111ef565b908152602001604051809103902060006101000a81548160ff0219169083151502179055506000858590918060018154018082558091505060019003906000526020600020016000909192909192909192909192509190610408929190610eaf565b5050610441565b6040517fb185df3a00000000000000000000000000000000000000000000000000000000815260040160405180910390fd5b50505050565b60016003600083815260200190815260200160002060003373ffffffffffffffffffffffffffffffffffffffff1673ffffffffffffffffffffffffffffffffffffffff16815260200190815260200160002060020154141561064f5760006003600083815260200190815260200160002060003373ffffffffffffffffffffffffffffffffffffffff1673ffffffffffffffffffffffffffffffffffffffff1681526020019081526020016000206040518060600160405290816000820154815260200160018201548152602001600282015481525050905060648160000151436105329190611380565b111561056a576040517f6e9beb2100000000000000000000000000000000000000000000000000000000815260040160405180910390fd5b60026003600084815260200190815260200160002060003373ffffffffffffffffffffffffffffffffffffffff1673ffffffffffffffffffffffffffffffffffffffff168152602001908152602001600020600201819055506001600083815260200190815260200160002060010160008154809291906105ea9061149a565b91905055508060200151600560003373ffffffffffffffffffffffffffffffffffffffff1673ffffffffffffffffffffffffffffffffffffffff1681526020019081526020016000206000828254610642919061132a565b9250508190555050610681565b6040517fc55091df00000000000000000000000000000000000000000000000000000000815260040160405180910390fd5b50565b600460205281600052604060002081815481106106a057600080fd5b906000526020600020016000915091509054906101000a900473ffffffffffffffffffffffffffffffffffffffff1681565b6000600560003373ffffffffffffffffffffffffffffffffffffffff1673ffffffffffffffffffffffffffffffffffffffff168152602001908152602001600020541115610812576000600560003373ffffffffffffffffffffffffffffffffffffffff1673ffffffffffffffffffffffffffffffffffffffff1681526020019081526020016000205490506000600560003373ffffffffffffffffffffffffffffffffffffffff1673ffffffffffffffffffffffffffffffffffffffff168152602001908152602001600020819055503373ffffffffffffffffffffffffffffffffffffffff16816040516107c790611208565b60006040518083038185875af1925050503d8060008114610804576040519150601f19603f3d011682016040523d82523d6000602084013e610809565b606091505b50505050610844565b6040517ff76aef6500000000000000000000000000000000000000000000000000000000815260040160405180910390fd5b565b6003602052816000526040600020602052806000526040600020600091509150508060000154908060010154908060020154905083565b6001600083815260200190815260200160002060030160009054906101000a900460ff16156108d857806001600084815260200190815260200160002060010160008282546108cc919061132a565b9250508190555061090a565b6040517f7e8d96a900000000000000000000000000000000000000000000000000000000815260040160405180910390fd5b5050565b600160205280600052604060002060009150905080600001549080600101549080600201805461093d90611468565b80601f016020809104026020016040519081016040528092919081815260200182805461096990611468565b80156109b65780601f1061098b576101008083540402835291602001916109b6565b820191906000526020600020905b81548152906001019060200180831161099957829003601f168201915b5050505050908060030160009054906101000a900460ff16905084565b60008054905081108015610a3b575060016003600083815260200190815260200160002060003373ffffffffffffffffffffffffffffffffffffffff1673ffffffffffffffffffffffffffffffffffffffff1681526020019081526020016000206002015414155b15610d06576000600160008381526020019081526020016000206040518060800160405290816000820154815260200160018201548152602001600282018054610a8490611468565b80601f0160208091040260200160405190810160405280929190818152602001828054610ab090611468565b8015610afd5780601f10610ad257610100808354040283529160200191610afd565b820191906000526020600020905b815481529060010190602001808311610ae057829003601f168201915b505050505081526020016003820160009054906101000a900460ff16151515158152505090508060000151341080610b39575060018160200151105b15610b70576040517ff80236cc00000000000000000000000000000000000000000000000000000000815260040160405180910390fd5b610b78610f35565b4381600001818152505081600001518160200181815250506001816040018181525050806003600085815260200190815260200160002060003373ffffffffffffffffffffffffffffffffffffffff1673ffffffffffffffffffffffffffffffffffffffff168152602001908152602001600020600082015181600001556020820151816001015560408201518160020155905050816020018051809190610c1f9061143e565b81525050816001600085815260200190815260200160002060008201518160000155602082015181600101556040820151816002019080519060200190610c67929190610e29565b5060608201518160030160006101000a81548160ff02191690831515021790555090505060046000848152602001908152602001600020339080600181540180825580915050600190039060005260206000200160009091909190916101000a81548173ffffffffffffffffffffffffffffffffffffffff021916908373ffffffffffffffffffffffffffffffffffffffff1602179055505050610d38565b6040517fd42c9b8b00000000000000000000000000000000000000000000000000000000815260040160405180910390fd5b50565b60008181548110610d4b57600080fd5b906000526020600020016000915090508054610d6690611468565b80601f0160208091040260200160405190810160405280929190818152602001828054610d9290611468565b8015610ddf5780601f10610db457610100808354040283529160200191610ddf565b820191906000526020600020905b815481529060010190602001808311610dc257829003601f168201915b505050505081565b60056020528060005260406000206000915090505481565b60405180608001604052806000815260200160008152602001606081526020016000151581525090565b828054610e3590611468565b90600052602060002090601f016020900481019282610e575760008555610e9e565b82601f10610e7057805160ff1916838001178555610e9e565b82800160010185558215610e9e579182015b82811115610e9d578251825591602001919060010190610e82565b5b509050610eab9190610f56565b5090565b828054610ebb90611468565b90600052602060002090601f016020900481019282610edd5760008555610f24565b82601f10610ef657803560ff1916838001178555610f24565b82800160010185558215610f24579182015b82811115610f23578235825591602001919060010190610f08565b5b509050610f319190610f56565b5090565b60405180606001604052806000815260200160008152602001600081525090565b5b80821115610f6f576000816000905550600101610f57565b5090565b600081359050610f828161156e565b92915050565b60008083601f840112610f9e57610f9d611546565b5b8235905067ffffffffffffffff811115610fbb57610fba611541565b5b602083019150836001820283011115610fd757610fd661154b565b5b9250929050565b600081359050610fed81611585565b92915050565b60006020828403121561100957611008611555565b5b600061101784828501610f73565b91505092915050565b6000806000806060858703121561103a57611039611555565b5b600085013567ffffffffffffffff81111561105857611057611550565b5b61106487828801610f88565b9450945050602061107787828801610fde565b925050604061108887828801610fde565b91505092959194509250565b6000602082840312156110aa576110a9611555565b5b60006110b884828501610fde565b91505092915050565b600080604083850312156110d8576110d7611555565b5b60006110e685828601610fde565b92505060206110f785828601610f73565b9150509250929050565b6000806040838503121561111857611117611555565b5b600061112685828601610fde565b925050602061113785828601610fde565b9150509250929050565b61114a816113b4565b82525050565b611159816113c6565b82525050565b600061116b838561131f565b93506111788385846113fc565b82840190509392505050565b600061118f826112f8565b611199818561130e565b93506111a981856020860161140b565b6111b28161155a565b840191505092915050565b60006111ca600083611303565b91506111d58261156b565b600082019050919050565b6111e9816113f2565b82525050565b60006111fc82848661115f565b91508190509392505050565b6000611213826111bd565b9150819050919050565b60006020820190506112326000830184611141565b92915050565b600060208201905081810360008301526112528184611184565b905092915050565b600060208201905061126f60008301846111e0565b92915050565b600060808201905061128a60008301876111e0565b61129760208301866111e0565b81810360408301526112a98185611184565b90506112b86060830184611150565b95945050505050565b60006060820190506112d660008301866111e0565b6112e360208301856111e0565b6112f060408301846111e0565b949350505050565b600081519050919050565b600081905092915050565b600082825260208201905092915050565b600081905092915050565b6000611335826113f2565b9150611340836113f2565b9250827fffffffffffffffffffffffffffffffffffffffffffffffffffffffffffffffff03821115611375576113746114e3565b5b828201905092915050565b600061138b826113f2565b9150611396836113f2565b9250828210156113a9576113a86114e3565b5b828203905092915050565b60006113bf826113d2565b9050919050565b60008115159050919050565b600073ffffffffffffffffffffffffffffffffffffffff82169050919050565b6000819050919050565b82818337600083830152505050565b60005b8381101561142957808201518184015260208101905061140e565b83811115611438576000848401525b50505050565b6000611449826113f2565b9150600082141561145d5761145c6114e3565b5b600182039050919050565b6000600282049050600182168061148057607f821691505b6020821081141561149457611493611512565b5b50919050565b60006114a5826113f2565b91507fffffffffffffffffffffffffffffffffffffffffffffffffffffffffffffffff8214156114d8576114d76114e3565b5b600182019050919050565b7f4e487b7100000000000000000000000000000000000000000000000000000000600052601160045260246000fd5b7f4e487b7100000000000000000000000000000000000000000000000000000000600052602260045260246000fd5b600080fd5b600080fd5b600080fd5b600080fd5b600080fd5b6000601f19601f8301169050919050565b50565b611577816113b4565b811461158257600080fd5b50565b61158e816113f2565b811461159957600080fd5b5056fea264697066735822122014e4402864e3b3c3c8aebfbcb5a3c00f2940b14f1cc11e4fd79588ab7303657564736f6c63430008070033",
					"opcodes": "PUSH1 0x80 PUSH1 0x40 MSTORE PUSH2 0x15D2 DUP1 PUSH2 0x13 PUSH1 0x0 CODECOPY PUSH1 0x0 RETURN INVALID PUSH1 0x80 PUSH1 0x40 MSTORE PUSH1 0x4 CALLDATASIZE LT PUSH2 0x91 JUMPI PUSH1 0x0 CALLDATALOAD PUSH1 0xE0 SHR DUP1 PUSH4 0x79CD4921 GT PUSH2 0x59 JUMPI DUP1 PUSH4 0x79CD4921 EQ PUSH2 0x17B JUMPI DUP1 PUSH4 0x7ACC0B20 EQ PUSH2 0x1A4 JUMPI DUP1 PUSH4 0x8642269E EQ PUSH2 0x1E4 JUMPI DUP1 PUSH4 0xE4BCC7D4 EQ PUSH2 0x200 JUMPI DUP1 PUSH4 0xF3F43703 EQ PUSH2 0x23D JUMPI PUSH2 0x91 JUMP JUMPDEST DUP1 PUSH4 0xA5BD44B EQ PUSH2 0x96 JUMPI DUP1 PUSH4 0x131E407D EQ PUSH2 0xBF JUMPI DUP1 PUSH4 0x27E7875A EQ PUSH2 0xE8 JUMPI DUP1 PUSH4 0x3CCFD60B EQ PUSH2 0x125 JUMPI DUP1 PUSH4 0x74CBC350 EQ PUSH2 0x13C JUMPI JUMPDEST PUSH1 0x0 DUP1 REVERT JUMPDEST CALLVALUE DUP1 ISZERO PUSH2 0xA2 JUMPI PUSH1 0x0 DUP1 REVERT JUMPDEST POP PUSH2 0xBD PUSH1 0x4 DUP1 CALLDATASIZE SUB DUP2 ADD SWAP1 PUSH2 0xB8 SWAP2 SWAP1 PUSH2 0x1020 JUMP JUMPDEST PUSH2 0x27A JUMP JUMPDEST STOP JUMPDEST CALLVALUE DUP1 ISZERO PUSH2 0xCB JUMPI PUSH1 0x0 DUP1 REVERT JUMPDEST POP PUSH2 0xE6 PUSH1 0x4 DUP1 CALLDATASIZE SUB DUP2 ADD SWAP1 PUSH2 0xE1 SWAP2 SWAP1 PUSH2 0x1094 JUMP JUMPDEST PUSH2 0x447 JUMP JUMPDEST STOP JUMPDEST CALLVALUE DUP1 ISZERO PUSH2 0xF4 JUMPI PUSH1 0x0 DUP1 REVERT JUMPDEST POP PUSH2 0x10F PUSH1 0x4 DUP1 CALLDATASIZE SUB DUP2 ADD SWAP1 PUSH2 0x10A SWAP2 SWAP1 PUSH2 0x1101 JUMP JUMPDEST PUSH2 0x684 JUMP JUMPDEST PUSH1 0x40 MLOAD PUSH2 0x11C SWAP2 SWAP1 PUSH2 0x121D JUMP JUMPDEST PUSH1 0x40 MLOAD DUP1 SWAP2 SUB SWAP1 RETURN JUMPDEST CALLVALUE DUP1 ISZERO PUSH2 0x131 JUMPI PUSH1 0x0 DUP1 REVERT JUMPDEST POP PUSH2 0x13A PUSH2 0x6D2 JUMP JUMPDEST STOP JUMPDEST CALLVALUE DUP1 ISZERO PUSH2 0x148 JUMPI PUSH1 0x0 DUP1 REVERT JUMPDEST POP PUSH2 0x163 PUSH1 0x4 DUP1 CALLDATASIZE SUB DUP2 ADD SWAP1 PUSH2 0x15E SWAP2 SWAP1 PUSH2 0x10C1 JUMP JUMPDEST PUSH2 0x846 JUMP JUMPDEST PUSH1 0x40 MLOAD PUSH2 0x172 SWAP4 SWAP3 SWAP2 SWAP1 PUSH2 0x12C1 JUMP JUMPDEST PUSH1 0x40 MLOAD DUP1 SWAP2 SUB SWAP1 RETURN JUMPDEST CALLVALUE DUP1 ISZERO PUSH2 0x187 JUMPI PUSH1 0x0 DUP1 REVERT JUMPDEST POP PUSH2 0x1A2 PUSH1 0x4 DUP1 CALLDATASIZE SUB DUP2 ADD SWAP1 PUSH2 0x19D SWAP2 SWAP1 PUSH2 0x1101 JUMP JUMPDEST PUSH2 0x87D JUMP JUMPDEST STOP JUMPDEST CALLVALUE DUP1 ISZERO PUSH2 0x1B0 JUMPI PUSH1 0x0 DUP1 REVERT JUMPDEST POP PUSH2 0x1CB PUSH1 0x4 DUP1 CALLDATASIZE SUB DUP2 ADD SWAP1 PUSH2 0x1C6 SWAP2 SWAP1 PUSH2 0x1094 JUMP JUMPDEST PUSH2 0x90E JUMP JUMPDEST PUSH1 0x40 MLOAD PUSH2 0x1DB SWAP5 SWAP4 SWAP3 SWAP2 SWAP1 PUSH2 0x1275 JUMP JUMPDEST PUSH1 0x40 MLOAD DUP1 SWAP2 SUB SWAP1 RETURN JUMPDEST PUSH2 0x1FE PUSH1 0x4 DUP1 CALLDATASIZE SUB DUP2 ADD SWAP1 PUSH2 0x1F9 SWAP2 SWAP1 PUSH2 0x1094 JUMP JUMPDEST PUSH2 0x9D3 JUMP JUMPDEST STOP JUMPDEST CALLVALUE DUP1 ISZERO PUSH2 0x20C JUMPI PUSH1 0x0 DUP1 REVERT JUMPDEST POP PUSH2 0x227 PUSH1 0x4 DUP1 CALLDATASIZE SUB DUP2 ADD SWAP1 PUSH2 0x222 SWAP2 SWAP1 PUSH2 0x1094 JUMP JUMPDEST PUSH2 0xD3B JUMP JUMPDEST PUSH1 0x40 MLOAD PUSH2 0x234 SWAP2 SWAP1 PUSH2 0x1238 JUMP JUMPDEST PUSH1 0x40 MLOAD DUP1 SWAP2 SUB SWAP1 RETURN JUMPDEST CALLVALUE DUP1 ISZERO PUSH2 0x249 JUMPI PUSH1 0x0 DUP1 REVERT JUMPDEST POP PUSH2 0x264 PUSH1 0x4 DUP1 CALLDATASIZE SUB DUP2 ADD SWAP1 PUSH2 0x25F SWAP2 SWAP1 PUSH2 0xFF3 JUMP JUMPDEST PUSH2 0xDE7 JUMP JUMPDEST PUSH1 0x40 MLOAD PUSH2 0x271 SWAP2 SWAP1 PUSH2 0x125A JUMP JUMPDEST PUSH1 0x40 MLOAD DUP1 SWAP2 SUB SWAP1 RETURN JUMPDEST PUSH1 0x2 DUP5 DUP5 PUSH1 0x40 MLOAD PUSH2 0x28C SWAP3 SWAP2 SWAP1 PUSH2 0x11EF JUMP JUMPDEST SWAP1 DUP2 MSTORE PUSH1 0x20 ADD PUSH1 0x40 MLOAD DUP1 SWAP2 SUB SWAP1 KECCAK256 PUSH1 0x0 SWAP1 SLOAD SWAP1 PUSH2 0x100 EXP SWAP1 DIV PUSH1 0xFF AND PUSH2 0x40F JUMPI PUSH2 0x2B4 PUSH2 0xDFF JUMP JUMPDEST DUP3 DUP2 PUSH1 0x0 ADD DUP2 DUP2 MSTORE POP POP DUP2 DUP2 PUSH1 0x20 ADD DUP2 DUP2 MSTORE POP POP DUP5 DUP5 DUP1 DUP1 PUSH1 0x1F ADD PUSH1 0x20 DUP1 SWAP2 DIV MUL PUSH1 0x20 ADD PUSH1 0x40 MLOAD SWAP1 DUP2 ADD PUSH1 0x40 MSTORE DUP1 SWAP4 SWAP3 SWAP2 SWAP1 DUP2 DUP2 MSTORE PUSH1 0x20 ADD DUP4 DUP4 DUP1 DUP3 DUP5 CALLDATACOPY PUSH1 0x0 DUP2 DUP5 ADD MSTORE PUSH1 0x1F NOT PUSH1 0x1F DUP3 ADD AND SWAP1 POP DUP1 DUP4 ADD SWAP3 POP POP POP POP POP POP POP DUP2 PUSH1 0x40 ADD DUP2 SWAP1 MSTORE POP PUSH1 0x1 DUP2 PUSH1 0x60 ADD SWAP1 ISZERO ISZERO SWAP1 DUP2 ISZERO ISZERO DUP2 MSTORE POP POP DUP1 PUSH1 0x1 PUSH1 0x0 DUP1 DUP1 SLOAD SWAP1 POP DUP2 MSTORE PUSH1 0x20 ADD SWAP1 DUP2 MSTORE PUSH1 0x20 ADD PUSH1 0x0 KECCAK256 PUSH1 0x0 DUP3 ADD MLOAD DUP2 PUSH1 0x0 ADD SSTORE PUSH1 0x20 DUP3 ADD MLOAD DUP2 PUSH1 0x1 ADD SSTORE PUSH1 0x40 DUP3 ADD MLOAD DUP2 PUSH1 0x2 ADD SWAP1 DUP1 MLOAD SWAP1 PUSH1 0x20 ADD SWAP1 PUSH2 0x36E SWAP3 SWAP2 SWAP1 PUSH2 0xE29 JUMP JUMPDEST POP PUSH1 0x60 DUP3 ADD MLOAD DUP2 PUSH1 0x3 ADD PUSH1 0x0 PUSH2 0x100 EXP DUP2 SLOAD DUP2 PUSH1 0xFF MUL NOT AND SWAP1 DUP4 ISZERO ISZERO MUL OR SWAP1 SSTORE POP SWAP1 POP POP PUSH1 0x1 PUSH1 0x2 DUP7 DUP7 PUSH1 0x40 MLOAD PUSH2 0x3A6 SWAP3 SWAP2 SWAP1 PUSH2 0x11EF JUMP JUMPDEST SWAP1 DUP2 MSTORE PUSH1 0x20 ADD PUSH1 0x40 MLOAD DUP1 SWAP2 SUB SWAP1 KECCAK256 PUSH1 0x0 PUSH2 0x100 EXP DUP2 SLOAD DUP2 PUSH1 0xFF MUL NOT AND SWAP1 DUP4 ISZERO ISZERO MUL OR SWAP1 SSTORE POP PUSH1 0x0 DUP6 DUP6 SWAP1 SWAP2 DUP1 PUSH1 0x1 DUP2 SLOAD ADD DUP1 DUP3 SSTORE DUP1 SWAP2 POP POP PUSH1 0x1 SWAP1 SUB SWAP1 PUSH1 0x0 MSTORE PUSH1 0x20 PUSH1 0x0 KECCAK256 ADD PUSH1 0x0 SWAP1 SWAP2 SWAP3 SWAP1 SWAP2 SWAP3 SWAP1 SWAP2 SWAP3 SWAP1 SWAP2 SWAP3 POP SWAP2 SWAP1 PUSH2 0x408 SWAP3 SWAP2 SWAP1 PUSH2 0xEAF JUMP JUMPDEST POP POP PUSH2 0x441 JUMP JUMPDEST PUSH1 0x40 MLOAD PUSH32 0xB185DF3A00000000000000000000000000000000000000000000000000000000 DUP2 MSTORE PUSH1 0x4 ADD PUSH1 0x40 MLOAD DUP1 SWAP2 SUB SWAP1 REVERT JUMPDEST POP POP POP POP JUMP JUMPDEST PUSH1 0x1 PUSH1 0x3 PUSH1 0x0 DUP4 DUP2 MSTORE PUSH1 0x20 ADD SWAP1 DUP2 MSTORE PUSH1 0x20 ADD PUSH1 0x0 KECCAK256 PUSH1 0x0 CALLER PUSH20 0xFFFFFFFFFFFFFFFFFFFFFFFFFFFFFFFFFFFFFFFF AND PUSH20 0xFFFFFFFFFFFFFFFFFFFFFFFFFFFFFFFFFFFFFFFF AND DUP2 MSTORE PUSH1 0x20 ADD SWAP1 DUP2 MSTORE PUSH1 0x20 ADD PUSH1 0x0 KECCAK256 PUSH1 0x2 ADD SLOAD EQ ISZERO PUSH2 0x64F JUMPI PUSH1 0x0 PUSH1 0x3 PUSH1 0x0 DUP4 DUP2 MSTORE PUSH1 0x20 ADD SWAP1 DUP2 MSTORE PUSH1 0x20 ADD PUSH1 0x0 KECCAK256 PUSH1 0x0 CALLER PUSH20 0xFFFFFFFFFFFFFFFFFFFFFFFFFFFFFFFFFFFFFFFF AND PUSH20 0xFFFFFFFFFFFFFFFFFFFFFFFFFFFFFFFFFFFFFFFF AND DUP2 MSTORE PUSH1 0x20 ADD SWAP1 DUP2 MSTORE PUSH1 0x20 ADD PUSH1 0x0 KECCAK256 PUSH1 0x40 MLOAD DUP1 PUSH1 0x60 ADD PUSH1 0x40 MSTORE SWAP1 DUP2 PUSH1 0x0 DUP3 ADD SLOAD DUP2 MSTORE PUSH1 0x20 ADD PUSH1 0x1 DUP3 ADD SLOAD DUP2 MSTORE PUSH1 0x20 ADD PUSH1 0x2 DUP3 ADD SLOAD DUP2 MSTORE POP POP SWAP1 POP PUSH1 0x64 DUP2 PUSH1 0x0 ADD MLOAD NUMBER PUSH2 0x532 SWAP2 SWAP1 PUSH2 0x1380 JUMP JUMPDEST GT ISZERO PUSH2 0x56A JUMPI PUSH1 0x40 MLOAD PUSH32 0x6E9BEB2100000000000000000000000000000000000000000000000000000000 DUP2 MSTORE PUSH1 0x4 ADD PUSH1 0x40 MLOAD DUP1 SWAP2 SUB SWAP1 REVERT JUMPDEST PUSH1 0x2 PUSH1 0x3 PUSH1 0x0 DUP5 DUP2 MSTORE PUSH1 0x20 ADD SWAP1 DUP2 MSTORE PUSH1 0x20 ADD PUSH1 0x0 KECCAK256 PUSH1 0x0 CALLER PUSH20 0xFFFFFFFFFFFFFFFFFFFFFFFFFFFFFFFFFFFFFFFF AND PUSH20 0xFFFFFFFFFFFFFFFFFFFFFFFFFFFFFFFFFFFFFFFF AND DUP2 MSTORE PUSH1 0x20 ADD SWAP1 DUP2 MSTORE PUSH1 0x20 ADD PUSH1 0x0 KECCAK256 PUSH1 0x2 ADD DUP2 SWAP1 SSTORE POP PUSH1 0x1 PUSH1 0x0 DUP4 DUP2 MSTORE PUSH1 0x20 ADD SWAP1 DUP2 MSTORE PUSH1 0x20 ADD PUSH1 0x0 KECCAK256 PUSH1 0x1 ADD PUSH1 0x0 DUP2 SLOAD DUP1 SWAP3 SWAP2 SWAP1 PUSH2 0x5EA SWAP1 PUSH2 0x149A JUMP JUMPDEST SWAP2 SWAP1 POP SSTORE POP DUP1 PUSH1 0x20 ADD MLOAD PUSH1 0x5 PUSH1 0x0 CALLER PUSH20 0xFFFFFFFFFFFFFFFFFFFFFFFFFFFFFFFFFFFFFFFF AND PUSH20 0xFFFFFFFFFFFFFFFFFFFFFFFFFFFFFFFFFFFFFFFF AND DUP2 MSTORE PUSH1 0x20 ADD SWAP1 DUP2 MSTORE PUSH1 0x20 ADD PUSH1 0x0 KECCAK256 PUSH1 0x0 DUP3 DUP3 SLOAD PUSH2 0x642 SWAP2 SWAP1 PUSH2 0x132A JUMP JUMPDEST SWAP3 POP POP DUP2 SWAP1 SSTORE POP POP PUSH2 0x681 JUMP JUMPDEST PUSH1 0x40 MLOAD PUSH32 0xC55091DF00000000000000000000000000000000000000000000000000000000 DUP2 MSTORE PUSH1 0x4 ADD PUSH1 0x40 MLOAD DUP1 SWAP2 SUB SWAP1 REVERT JUMPDEST POP JUMP JUMPDEST PUSH1 0x4 PUSH1 0x20 MSTORE DUP2 PUSH1 0x0 MSTORE PUSH1 0x40 PUSH1 0x0 KECCAK256 DUP2 DUP2 SLOAD DUP2 LT PUSH2 0x6A0 JUMPI PUSH1 0x0 DUP1 REVERT JUMPDEST SWAP1 PUSH1 0x0 MSTORE PUSH1 0x20 PUSH1 0x0 KECCAK256 ADD PUSH1 0x0 SWAP2 POP SWAP2 POP SWAP1 SLOAD SWAP1 PUSH2 0x100 EXP SWAP1 DIV PUSH20 0xFFFFFFFFFFFFFFFFFFFFFFFFFFFFFFFFFFFFFFFF AND DUP2 JUMP JUMPDEST PUSH1 0x0 PUSH1 0x5 PUSH1 0x0 CALLER PUSH20 0xFFFFFFFFFFFFFFFFFFFFFFFFFFFFFFFFFFFFFFFF AND PUSH20 0xFFFFFFFFFFFFFFFFFFFFFFFFFFFFFFFFFFFFFFFF AND DUP2 MSTORE PUSH1 0x20 ADD SWAP1 DUP2 MSTORE PUSH1 0x20 ADD PUSH1 0x0 KECCAK256 SLOAD GT ISZERO PUSH2 0x812 JUMPI PUSH1 0x0 PUSH1 0x5 PUSH1 0x0 CALLER PUSH20 0xFFFFFFFFFFFFFFFFFFFFFFFFFFFFFFFFFFFFFFFF AND PUSH20 0xFFFFFFFFFFFFFFFFFFFFFFFFFFFFFFFFFFFFFFFF AND DUP2 MSTORE PUSH1 0x20 ADD SWAP1 DUP2 MSTORE PUSH1 0x20 ADD PUSH1 0x0 KECCAK256 SLOAD SWAP1 POP PUSH1 0x0 PUSH1 0x5 PUSH1 0x0 CALLER PUSH20 0xFFFFFFFFFFFFFFFFFFFFFFFFFFFFFFFFFFFFFFFF AND PUSH20 0xFFFFFFFFFFFFFFFFFFFFFFFFFFFFFFFFFFFFFFFF AND DUP2 MSTORE PUSH1 0x20 ADD SWAP1 DUP2 MSTORE PUSH1 0x20 ADD PUSH1 0x0 KECCAK256 DUP2 SWAP1 SSTORE POP CALLER PUSH20 0xFFFFFFFFFFFFFFFFFFFFFFFFFFFFFFFFFFFFFFFF AND DUP2 PUSH1 0x40 MLOAD PUSH2 0x7C7 SWAP1 PUSH2 0x1208 JUMP JUMPDEST PUSH1 0x0 PUSH1 0x40 MLOAD DUP1 DUP4 SUB DUP2 DUP6 DUP8 GAS CALL SWAP3 POP POP POP RETURNDATASIZE DUP1 PUSH1 0x0 DUP2 EQ PUSH2 0x804 JUMPI PUSH1 0x40 MLOAD SWAP2 POP PUSH1 0x1F NOT PUSH1 0x3F RETURNDATASIZE ADD AND DUP3 ADD PUSH1 0x40 MSTORE RETURNDATASIZE DUP3 MSTORE RETURNDATASIZE PUSH1 0x0 PUSH1 0x20 DUP5 ADD RETURNDATACOPY PUSH2 0x809 JUMP JUMPDEST PUSH1 0x60 SWAP2 POP JUMPDEST POP POP POP POP PUSH2 0x844 JUMP JUMPDEST PUSH1 0x40 MLOAD PUSH32 0xF76AEF6500000000000000000000000000000000000000000000000000000000 DUP2 MSTORE PUSH1 0x4 ADD PUSH1 0x40 MLOAD DUP1 SWAP2 SUB SWAP1 REVERT JUMPDEST JUMP JUMPDEST PUSH1 0x3 PUSH1 0x20 MSTORE DUP2 PUSH1 0x0 MSTORE PUSH1 0x40 PUSH1 0x0 KECCAK256 PUSH1 0x20 MSTORE DUP1 PUSH1 0x0 MSTORE PUSH1 0x40 PUSH1 0x0 KECCAK256 PUSH1 0x0 SWAP2 POP SWAP2 POP POP DUP1 PUSH1 0x0 ADD SLOAD SWAP1 DUP1 PUSH1 0x1 ADD SLOAD SWAP1 DUP1 PUSH1 0x2 ADD SLOAD SWAP1 POP DUP4 JUMP JUMPDEST PUSH1 0x1 PUSH1 0x0 DUP4 DUP2 MSTORE PUSH1 0x20 ADD SWAP1 DUP2 MSTORE PUSH1 0x20 ADD PUSH1 0x0 KECCAK256 PUSH1 0x3 ADD PUSH1 0x0 SWAP1 SLOAD SWAP1 PUSH2 0x100 EXP SWAP1 DIV PUSH1 0xFF AND ISZERO PUSH2 0x8D8 JUMPI DUP1 PUSH1 0x1 PUSH1 0x0 DUP5 DUP2 MSTORE PUSH1 0x20 ADD SWAP1 DUP2 MSTORE PUSH1 0x20 ADD PUSH1 0x0 KECCAK256 PUSH1 0x1 ADD PUSH1 0x0 DUP3 DUP3 SLOAD PUSH2 0x8CC SWAP2 SWAP1 PUSH2 0x132A JUMP JUMPDEST SWAP3 POP POP DUP2 SWAP1 SSTORE POP PUSH2 0x90A JUMP JUMPDEST PUSH1 0x40 MLOAD PUSH32 0x7E8D96A900000000000000000000000000000000000000000000000000000000 DUP2 MSTORE PUSH1 0x4 ADD PUSH1 0x40 MLOAD DUP1 SWAP2 SUB SWAP1 REVERT JUMPDEST POP POP JUMP JUMPDEST PUSH1 0x1 PUSH1 0x20 MSTORE DUP1 PUSH1 0x0 MSTORE PUSH1 0x40 PUSH1 0x0 KECCAK256 PUSH1 0x0 SWAP2 POP SWAP1 POP DUP1 PUSH1 0x0 ADD SLOAD SWAP1 DUP1 PUSH1 0x1 ADD SLOAD SWAP1 DUP1 PUSH1 0x2 ADD DUP1 SLOAD PUSH2 0x93D SWAP1 PUSH2 0x1468 JUMP JUMPDEST DUP1 PUSH1 0x1F ADD PUSH1 0x20 DUP1 SWAP2 DIV MUL PUSH1 0x20 ADD PUSH1 0x40 MLOAD SWAP1 DUP2 ADD PUSH1 0x40 MSTORE DUP1 SWAP3 SWAP2 SWAP1 DUP2 DUP2 MSTORE PUSH1 0x20 ADD DUP3 DUP1 SLOAD PUSH2 0x969 SWAP1 PUSH2 0x1468 JUMP JUMPDEST DUP1 ISZERO PUSH2 0x9B6 JUMPI DUP1 PUSH1 0x1F LT PUSH2 0x98B JUMPI PUSH2 0x100 DUP1 DUP4 SLOAD DIV MUL DUP4 MSTORE SWAP2 PUSH1 0x20 ADD SWAP2 PUSH2 0x9B6 JUMP JUMPDEST DUP3 ADD SWAP2 SWAP1 PUSH1 0x0 MSTORE PUSH1 0x20 PUSH1 0x0 KECCAK256 SWAP1 JUMPDEST DUP2 SLOAD DUP2 MSTORE SWAP1 PUSH1 0x1 ADD SWAP1 PUSH1 0x20 ADD DUP1 DUP4 GT PUSH2 0x999 JUMPI DUP3 SWAP1 SUB PUSH1 0x1F AND DUP3 ADD SWAP2 JUMPDEST POP POP POP POP POP SWAP1 DUP1 PUSH1 0x3 ADD PUSH1 0x0 SWAP1 SLOAD SWAP1 PUSH2 0x100 EXP SWAP1 DIV PUSH1 0xFF AND SWAP1 POP DUP5 JUMP JUMPDEST PUSH1 0x0 DUP1 SLOAD SWAP1 POP DUP2 LT DUP1 ISZERO PUSH2 0xA3B JUMPI POP PUSH1 0x1 PUSH1 0x3 PUSH1 0x0 DUP4 DUP2 MSTORE PUSH1 0x20 ADD SWAP1 DUP2 MSTORE PUSH1 0x20 ADD PUSH1 0x0 KECCAK256 PUSH1 0x0 CALLER PUSH20 0xFFFFFFFFFFFFFFFFFFFFFFFFFFFFFFFFFFFFFFFF AND PUSH20 0xFFFFFFFFFFFFFFFFFFFFFFFFFFFFFFFFFFFFFFFF AND DUP2 MSTORE PUSH1 0x20 ADD SWAP1 DUP2 MSTORE PUSH1 0x20 ADD PUSH1 0x0 KECCAK256 PUSH1 0x2 ADD SLOAD EQ ISZERO JUMPDEST ISZERO PUSH2 0xD06 JUMPI PUSH1 0x0 PUSH1 0x1 PUSH1 0x0 DUP4 DUP2 MSTORE PUSH1 0x20 ADD SWAP1 DUP2 MSTORE PUSH1 0x20 ADD PUSH1 0x0 KECCAK256 PUSH1 0x40 MLOAD DUP1 PUSH1 0x80 ADD PUSH1 0x40 MSTORE SWAP1 DUP2 PUSH1 0x0 DUP3 ADD SLOAD DUP2 MSTORE PUSH1 0x20 ADD PUSH1 0x1 DUP3 ADD SLOAD DUP2 MSTORE PUSH1 0x20 ADD PUSH1 0x2 DUP3 ADD DUP1 SLOAD PUSH2 0xA84 SWAP1 PUSH2 0x1468 JUMP JUMPDEST DUP1 PUSH1 0x1F ADD PUSH1 0x20 DUP1 SWAP2 DIV MUL PUSH1 0x20 ADD PUSH1 0x40 MLOAD SWAP1 DUP2 ADD PUSH1 0x40 MSTORE DUP1 SWAP3 SWAP2 SWAP1 DUP2 DUP2 MSTORE PUSH1 0x20 ADD DUP3 DUP1 SLOAD PUSH2 0xAB0 SWAP1 PUSH2 0x1468 JUMP JUMPDEST DUP1 ISZERO PUSH2 0xAFD JUMPI DUP1 PUSH1 0x1F LT PUSH2 0xAD2 JUMPI PUSH2 0x100 DUP1 DUP4 SLOAD DIV MUL DUP4 MSTORE SWAP2 PUSH1 0x20 ADD SWAP2 PUSH2 0xAFD JUMP JUMPDEST DUP3 ADD SWAP2 SWAP1 PUSH1 0x0 MSTORE PUSH1 0x20 PUSH1 0x0 KECCAK256 SWAP1 JUMPDEST DUP2 SLOAD DUP2 MSTORE SWAP1 PUSH1 0x1 ADD SWAP1 PUSH1 0x20 ADD DUP1 DUP4 GT PUSH2 0xAE0 JUMPI DUP3 SWAP1 SUB PUSH1 0x1F AND DUP3 ADD SWAP2 JUMPDEST POP POP POP POP POP DUP2 MSTORE PUSH1 0x20 ADD PUSH1 0x3 DUP3 ADD PUSH1 0x0 SWAP1 SLOAD SWAP1 PUSH2 0x100 EXP SWAP1 DIV PUSH1 0xFF AND ISZERO ISZERO ISZERO ISZERO DUP2 MSTORE POP POP SWAP1 POP DUP1 PUSH1 0x0 ADD MLOAD CALLVALUE LT DUP1 PUSH2 0xB39 JUMPI POP PUSH1 0x1 DUP2 PUSH1 0x20 ADD MLOAD LT JUMPDEST ISZERO PUSH2 0xB70 JUMPI PUSH1 0x40 MLOAD PUSH32 0xF80236CC00000000000000000000000000000000000000000000000000000000 DUP2 MSTORE PUSH1 0x4 ADD PUSH1 0x40 MLOAD DUP1 SWAP2 SUB SWAP1 REVERT JUMPDEST PUSH2 0xB78 PUSH2 0xF35 JUMP JUMPDEST NUMBER DUP2 PUSH1 0x0 ADD DUP2 DUP2 MSTORE POP POP DUP2 PUSH1 0x0 ADD MLOAD DUP2 PUSH1 0x20 ADD DUP2 DUP2 MSTORE POP POP PUSH1 0x1 DUP2 PUSH1 0x40 ADD DUP2 DUP2 MSTORE POP POP DUP1 PUSH1 0x3 PUSH1 0x0 DUP6 DUP2 MSTORE PUSH1 0x20 ADD SWAP1 DUP2 MSTORE PUSH1 0x20 ADD PUSH1 0x0 KECCAK256 PUSH1 0x0 CALLER PUSH20 0xFFFFFFFFFFFFFFFFFFFFFFFFFFFFFFFFFFFFFFFF AND PUSH20 0xFFFFFFFFFFFFFFFFFFFFFFFFFFFFFFFFFFFFFFFF AND DUP2 MSTORE PUSH1 0x20 ADD SWAP1 DUP2 MSTORE PUSH1 0x20 ADD PUSH1 0x0 KECCAK256 PUSH1 0x0 DUP3 ADD MLOAD DUP2 PUSH1 0x0 ADD SSTORE PUSH1 0x20 DUP3 ADD MLOAD DUP2 PUSH1 0x1 ADD SSTORE PUSH1 0x40 DUP3 ADD MLOAD DUP2 PUSH1 0x2 ADD SSTORE SWAP1 POP POP DUP2 PUSH1 0x20 ADD DUP1 MLOAD DUP1 SWAP2 SWAP1 PUSH2 0xC1F SWAP1 PUSH2 0x143E JUMP JUMPDEST DUP2 MSTORE POP POP DUP2 PUSH1 0x1 PUSH1 0x0 DUP6 DUP2 MSTORE PUSH1 0x20 ADD SWAP1 DUP2 MSTORE PUSH1 0x20 ADD PUSH1 0x0 KECCAK256 PUSH1 0x0 DUP3 ADD MLOAD DUP2 PUSH1 0x0 ADD SSTORE PUSH1 0x20 DUP3 ADD MLOAD DUP2 PUSH1 0x1 ADD SSTORE PUSH1 0x40 DUP3 ADD MLOAD DUP2 PUSH1 0x2 ADD SWAP1 DUP1 MLOAD SWAP1 PUSH1 0x20 ADD SWAP1 PUSH2 0xC67 SWAP3 SWAP2 SWAP1 PUSH2 0xE29 JUMP JUMPDEST POP PUSH1 0x60 DUP3 ADD MLOAD DUP2 PUSH1 0x3 ADD PUSH1 0x0 PUSH2 0x100 EXP DUP2 SLOAD DUP2 PUSH1 0xFF MUL NOT AND SWAP1 DUP4 ISZERO ISZERO MUL OR SWAP1 SSTORE POP SWAP1 POP POP PUSH1 0x4 PUSH1 0x0 DUP5 DUP2 MSTORE PUSH1 0x20 ADD SWAP1 DUP2 MSTORE PUSH1 0x20 ADD PUSH1 0x0 KECCAK256 CALLER SWAP1 DUP1 PUSH1 0x1 DUP2 SLOAD ADD DUP1 DUP3 SSTORE DUP1 SWAP2 POP POP PUSH1 0x1 SWAP1 SUB SWAP1 PUSH1 0x0 MSTORE PUSH1 0x20 PUSH1 0x0 KECCAK256 ADD PUSH1 0x0 SWAP1 SWAP2 SWAP1 SWAP2 SWAP1 SWAP2 PUSH2 0x100 EXP DUP2 SLOAD DUP2 PUSH20 0xFFFFFFFFFFFFFFFFFFFFFFFFFFFFFFFFFFFFFFFF MUL NOT AND SWAP1 DUP4 PUSH20 0xFFFFFFFFFFFFFFFFFFFFFFFFFFFFFFFFFFFFFFFF AND MUL OR SWAP1 SSTORE POP POP POP PUSH2 0xD38 JUMP JUMPDEST PUSH1 0x40 MLOAD PUSH32 0xD42C9B8B00000000000000000000000000000000000000000000000000000000 DUP2 MSTORE PUSH1 0x4 ADD PUSH1 0x40 MLOAD DUP1 SWAP2 SUB SWAP1 REVERT JUMPDEST POP JUMP JUMPDEST PUSH1 0x0 DUP2 DUP2 SLOAD DUP2 LT PUSH2 0xD4B JUMPI PUSH1 0x0 DUP1 REVERT JUMPDEST SWAP1 PUSH1 0x0 MSTORE PUSH1 0x20 PUSH1 0x0 KECCAK256 ADD PUSH1 0x0 SWAP2 POP SWAP1 POP DUP1 SLOAD PUSH2 0xD66 SWAP1 PUSH2 0x1468 JUMP JUMPDEST DUP1 PUSH1 0x1F ADD PUSH1 0x20 DUP1 SWAP2 DIV MUL PUSH1 0x20 ADD PUSH1 0x40 MLOAD SWAP1 DUP2 ADD PUSH1 0x40 MSTORE DUP1 SWAP3 SWAP2 SWAP1 DUP2 DUP2 MSTORE PUSH1 0x20 ADD DUP3 DUP1 SLOAD PUSH2 0xD92 SWAP1 PUSH2 0x1468 JUMP JUMPDEST DUP1 ISZERO PUSH2 0xDDF JUMPI DUP1 PUSH1 0x1F LT PUSH2 0xDB4 JUMPI PUSH2 0x100 DUP1 DUP4 SLOAD DIV MUL DUP4 MSTORE SWAP2 PUSH1 0x20 ADD SWAP2 PUSH2 0xDDF JUMP JUMPDEST DUP3 ADD SWAP2 SWAP1 PUSH1 0x0 MSTORE PUSH1 0x20 PUSH1 0x0 KECCAK256 SWAP1 JUMPDEST DUP2 SLOAD DUP2 MSTORE SWAP1 PUSH1 0x1 ADD SWAP1 PUSH1 0x20 ADD DUP1 DUP4 GT PUSH2 0xDC2 JUMPI DUP3 SWAP1 SUB PUSH1 0x1F AND DUP3 ADD SWAP2 JUMPDEST POP POP POP POP POP DUP2 JUMP JUMPDEST PUSH1 0x5 PUSH1 0x20 MSTORE DUP1 PUSH1 0x0 MSTORE PUSH1 0x40 PUSH1 0x0 KECCAK256 PUSH1 0x0 SWAP2 POP SWAP1 POP SLOAD DUP2 JUMP JUMPDEST PUSH1 0x40 MLOAD DUP1 PUSH1 0x80 ADD PUSH1 0x40 MSTORE DUP1 PUSH1 0x0 DUP2 MSTORE PUSH1 0x20 ADD PUSH1 0x0 DUP2 MSTORE PUSH1 0x20 ADD PUSH1 0x60 DUP2 MSTORE PUSH1 0x20 ADD PUSH1 0x0 ISZERO ISZERO DUP2 MSTORE POP SWAP1 JUMP JUMPDEST DUP3 DUP1 SLOAD PUSH2 0xE35 SWAP1 PUSH2 0x1468 JUMP JUMPDEST SWAP1 PUSH1 0x0 MSTORE PUSH1 0x20 PUSH1 0x0 KECCAK256 SWAP1 PUSH1 0x1F ADD PUSH1 0x20 SWAP1 DIV DUP2 ADD SWAP3 DUP3 PUSH2 0xE57 JUMPI PUSH1 0x0 DUP6 SSTORE PUSH2 0xE9E JUMP JUMPDEST DUP3 PUSH1 0x1F LT PUSH2 0xE70 JUMPI DUP1 MLOAD PUSH1 0xFF NOT AND DUP4 DUP1 ADD OR DUP6 SSTORE PUSH2 0xE9E JUMP JUMPDEST DUP3 DUP1 ADD PUSH1 0x1 ADD DUP6 SSTORE DUP3 ISZERO PUSH2 0xE9E JUMPI SWAP2 DUP3 ADD JUMPDEST DUP3 DUP2 GT ISZERO PUSH2 0xE9D JUMPI DUP3 MLOAD DUP3 SSTORE SWAP2 PUSH1 0x20 ADD SWAP2 SWAP1 PUSH1 0x1 ADD SWAP1 PUSH2 0xE82 JUMP JUMPDEST JUMPDEST POP SWAP1 POP PUSH2 0xEAB SWAP2 SWAP1 PUSH2 0xF56 JUMP JUMPDEST POP SWAP1 JUMP JUMPDEST DUP3 DUP1 SLOAD PUSH2 0xEBB SWAP1 PUSH2 0x1468 JUMP JUMPDEST SWAP1 PUSH1 0x0 MSTORE PUSH1 0x20 PUSH1 0x0 KECCAK256 SWAP1 PUSH1 0x1F ADD PUSH1 0x20 SWAP1 DIV DUP2 ADD SWAP3 DUP3 PUSH2 0xEDD JUMPI PUSH1 0x0 DUP6 SSTORE PUSH2 0xF24 JUMP JUMPDEST DUP3 PUSH1 0x1F LT PUSH2 0xEF6 JUMPI DUP1 CALLDATALOAD PUSH1 0xFF NOT AND DUP4 DUP1 ADD OR DUP6 SSTORE PUSH2 0xF24 JUMP JUMPDEST DUP3 DUP1 ADD PUSH1 0x1 ADD DUP6 SSTORE DUP3 ISZERO PUSH2 0xF24 JUMPI SWAP2 DUP3 ADD JUMPDEST DUP3 DUP2 GT ISZERO PUSH2 0xF23 JUMPI DUP3 CALLDATALOAD DUP3 SSTORE SWAP2 PUSH1 0x20 ADD SWAP2 SWAP1 PUSH1 0x1 ADD SWAP1 PUSH2 0xF08 JUMP JUMPDEST JUMPDEST POP SWAP1 POP PUSH2 0xF31 SWAP2 SWAP1 PUSH2 0xF56 JUMP JUMPDEST POP SWAP1 JUMP JUMPDEST PUSH1 0x40 MLOAD DUP1 PUSH1 0x60 ADD PUSH1 0x40 MSTORE DUP1 PUSH1 0x0 DUP2 MSTORE PUSH1 0x20 ADD PUSH1 0x0 DUP2 MSTORE PUSH1 0x20 ADD PUSH1 0x0 DUP2 MSTORE POP SWAP1 JUMP JUMPDEST JUMPDEST DUP1 DUP3 GT ISZERO PUSH2 0xF6F JUMPI PUSH1 0x0 DUP2 PUSH1 0x0 SWAP1 SSTORE POP PUSH1 0x1 ADD PUSH2 0xF57 JUMP JUMPDEST POP SWAP1 JUMP JUMPDEST PUSH1 0x0 DUP2 CALLDATALOAD SWAP1 POP PUSH2 0xF82 DUP2 PUSH2 0x156E JUMP JUMPDEST SWAP3 SWAP2 POP POP JUMP JUMPDEST PUSH1 0x0 DUP1 DUP4 PUSH1 0x1F DUP5 ADD SLT PUSH2 0xF9E JUMPI PUSH2 0xF9D PUSH2 0x1546 JUMP JUMPDEST JUMPDEST DUP3 CALLDATALOAD SWAP1 POP PUSH8 0xFFFFFFFFFFFFFFFF DUP2 GT ISZERO PUSH2 0xFBB JUMPI PUSH2 0xFBA PUSH2 0x1541 JUMP JUMPDEST JUMPDEST PUSH1 0x20 DUP4 ADD SWAP2 POP DUP4 PUSH1 0x1 DUP3 MUL DUP4 ADD GT ISZERO PUSH2 0xFD7 JUMPI PUSH2 0xFD6 PUSH2 0x154B JUMP JUMPDEST JUMPDEST SWAP3 POP SWAP3 SWAP1 POP JUMP JUMPDEST PUSH1 0x0 DUP2 CALLDATALOAD SWAP1 POP PUSH2 0xFED DUP2 PUSH2 0x1585 JUMP JUMPDEST SWAP3 SWAP2 POP POP JUMP JUMPDEST PUSH1 0x0 PUSH1 0x20 DUP3 DUP5 SUB SLT ISZERO PUSH2 0x1009 JUMPI PUSH2 0x1008 PUSH2 0x1555 JUMP JUMPDEST JUMPDEST PUSH1 0x0 PUSH2 0x1017 DUP5 DUP3 DUP6 ADD PUSH2 0xF73 JUMP JUMPDEST SWAP2 POP POP SWAP3 SWAP2 POP POP JUMP JUMPDEST PUSH1 0x0 DUP1 PUSH1 0x0 DUP1 PUSH1 0x60 DUP6 DUP8 SUB SLT ISZERO PUSH2 0x103A JUMPI PUSH2 0x1039 PUSH2 0x1555 JUMP JUMPDEST JUMPDEST PUSH1 0x0 DUP6 ADD CALLDATALOAD PUSH8 0xFFFFFFFFFFFFFFFF DUP2 GT ISZERO PUSH2 0x1058 JUMPI PUSH2 0x1057 PUSH2 0x1550 JUMP JUMPDEST JUMPDEST PUSH2 0x1064 DUP8 DUP3 DUP9 ADD PUSH2 0xF88 JUMP JUMPDEST SWAP5 POP SWAP5 POP POP PUSH1 0x20 PUSH2 0x1077 DUP8 DUP3 DUP9 ADD PUSH2 0xFDE JUMP JUMPDEST SWAP3 POP POP PUSH1 0x40 PUSH2 0x1088 DUP8 DUP3 DUP9 ADD PUSH2 0xFDE JUMP JUMPDEST SWAP2 POP POP SWAP3 SWAP6 SWAP2 SWAP5 POP SWAP3 POP JUMP JUMPDEST PUSH1 0x0 PUSH1 0x20 DUP3 DUP5 SUB SLT ISZERO PUSH2 0x10AA JUMPI PUSH2 0x10A9 PUSH2 0x1555 JUMP JUMPDEST JUMPDEST PUSH1 0x0 PUSH2 0x10B8 DUP5 DUP3 DUP6 ADD PUSH2 0xFDE JUMP JUMPDEST SWAP2 POP POP SWAP3 SWAP2 POP POP JUMP JUMPDEST PUSH1 0x0 DUP1 PUSH1 0x40 DUP4 DUP6 SUB SLT ISZERO PUSH2 0x10D8 JUMPI PUSH2 0x10D7 PUSH2 0x1555 JUMP JUMPDEST JUMPDEST PUSH1 0x0 PUSH2 0x10E6 DUP6 DUP3 DUP7 ADD PUSH2 0xFDE JUMP JUMPDEST SWAP3 POP POP PUSH1 0x20 PUSH2 0x10F7 DUP6 DUP3 DUP7 ADD PUSH2 0xF73 JUMP JUMPDEST SWAP2 POP POP SWAP3 POP SWAP3 SWAP1 POP JUMP JUMPDEST PUSH1 0x0 DUP1 PUSH1 0x40 DUP4 DUP6 SUB SLT ISZERO PUSH2 0x1118 JUMPI PUSH2 0x1117 PUSH2 0x1555 JUMP JUMPDEST JUMPDEST PUSH1 0x0 PUSH2 0x1126 DUP6 DUP3 DUP7 ADD PUSH2 0xFDE JUMP JUMPDEST SWAP3 POP POP PUSH1 0x20 PUSH2 0x1137 DUP6 DUP3 DUP7 ADD PUSH2 0xFDE JUMP JUMPDEST SWAP2 POP POP SWAP3 POP SWAP3 SWAP1 POP JUMP JUMPDEST PUSH2 0x114A DUP2 PUSH2 0x13B4 JUMP JUMPDEST DUP3 MSTORE POP POP JUMP JUMPDEST PUSH2 0x1159 DUP2 PUSH2 0x13C6 JUMP JUMPDEST DUP3 MSTORE POP POP JUMP JUMPDEST PUSH1 0x0 PUSH2 0x116B DUP4 DUP6 PUSH2 0x131F JUMP JUMPDEST SWAP4 POP PUSH2 0x1178 DUP4 DUP6 DUP5 PUSH2 0x13FC JUMP JUMPDEST DUP3 DUP5 ADD SWAP1 POP SWAP4 SWAP3 POP POP POP JUMP JUMPDEST PUSH1 0x0 PUSH2 0x118F DUP3 PUSH2 0x12F8 JUMP JUMPDEST PUSH2 0x1199 DUP2 DUP6 PUSH2 0x130E JUMP JUMPDEST SWAP4 POP PUSH2 0x11A9 DUP2 DUP6 PUSH1 0x20 DUP7 ADD PUSH2 0x140B JUMP JUMPDEST PUSH2 0x11B2 DUP2 PUSH2 0x155A JUMP JUMPDEST DUP5 ADD SWAP2 POP POP SWAP3 SWAP2 POP POP JUMP JUMPDEST PUSH1 0x0 PUSH2 0x11CA PUSH1 0x0 DUP4 PUSH2 0x1303 JUMP JUMPDEST SWAP2 POP PUSH2 0x11D5 DUP3 PUSH2 0x156B JUMP JUMPDEST PUSH1 0x0 DUP3 ADD SWAP1 POP SWAP2 SWAP1 POP JUMP JUMPDEST PUSH2 0x11E9 DUP2 PUSH2 0x13F2 JUMP JUMPDEST DUP3 MSTORE POP POP JUMP JUMPDEST PUSH1 0x0 PUSH2 0x11FC DUP3 DUP5 DUP7 PUSH2 0x115F JUMP JUMPDEST SWAP2 POP DUP2 SWAP1 POP SWAP4 SWAP3 POP POP POP JUMP JUMPDEST PUSH1 0x0 PUSH2 0x1213 DUP3 PUSH2 0x11BD JUMP JUMPDEST SWAP2 POP DUP2 SWAP1 POP SWAP2 SWAP1 POP JUMP JUMPDEST PUSH1 0x0 PUSH1 0x20 DUP3 ADD SWAP1 POP PUSH2 0x1232 PUSH1 0x0 DUP4 ADD DUP5 PUSH2 0x1141 JUMP JUMPDEST SWAP3 SWAP2 POP POP JUMP JUMPDEST PUSH1 0x0 PUSH1 0x20 DUP3 ADD SWAP1 POP DUP2 DUP2 SUB PUSH1 0x0 DUP4 ADD MSTORE PUSH2 0x1252 DUP2 DUP5 PUSH2 0x1184 JUMP JUMPDEST SWAP1 POP SWAP3 SWAP2 POP POP JUMP JUMPDEST PUSH1 0x0 PUSH1 0x20 DUP3 ADD SWAP1 POP PUSH2 0x126F PUSH1 0x0 DUP4 ADD DUP5 PUSH2 0x11E0 JUMP JUMPDEST SWAP3 SWAP2 POP POP JUMP JUMPDEST PUSH1 0x0 PUSH1 0x80 DUP3 ADD SWAP1 POP PUSH2 0x128A PUSH1 0x0 DUP4 ADD DUP8 PUSH2 0x11E0 JUMP JUMPDEST PUSH2 0x1297 PUSH1 0x20 DUP4 ADD DUP7 PUSH2 0x11E0 JUMP JUMPDEST DUP2 DUP2 SUB PUSH1 0x40 DUP4 ADD MSTORE PUSH2 0x12A9 DUP2 DUP6 PUSH2 0x1184 JUMP JUMPDEST SWAP1 POP PUSH2 0x12B8 PUSH1 0x60 DUP4 ADD DUP5 PUSH2 0x1150 JUMP JUMPDEST SWAP6 SWAP5 POP POP POP POP POP JUMP JUMPDEST PUSH1 0x0 PUSH1 0x60 DUP3 ADD SWAP1 POP PUSH2 0x12D6 PUSH1 0x0 DUP4 ADD DUP7 PUSH2 0x11E0 JUMP JUMPDEST PUSH2 0x12E3 PUSH1 0x20 DUP4 ADD DUP6 PUSH2 0x11E0 JUMP JUMPDEST PUSH2 0x12F0 PUSH1 0x40 DUP4 ADD DUP5 PUSH2 0x11E0 JUMP JUMPDEST SWAP5 SWAP4 POP POP POP POP JUMP JUMPDEST PUSH1 0x0 DUP2 MLOAD SWAP1 POP SWAP2 SWAP1 POP JUMP JUMPDEST PUSH1 0x0 DUP2 SWAP1 POP SWAP3 SWAP2 POP POP JUMP JUMPDEST PUSH1 0x0 DUP3 DUP3 MSTORE PUSH1 0x20 DUP3 ADD SWAP1 POP SWAP3 SWAP2 POP POP JUMP JUMPDEST PUSH1 0x0 DUP2 SWAP1 POP SWAP3 SWAP2 POP POP JUMP JUMPDEST PUSH1 0x0 PUSH2 0x1335 DUP3 PUSH2 0x13F2 JUMP JUMPDEST SWAP2 POP PUSH2 0x1340 DUP4 PUSH2 0x13F2 JUMP JUMPDEST SWAP3 POP DUP3 PUSH32 0xFFFFFFFFFFFFFFFFFFFFFFFFFFFFFFFFFFFFFFFFFFFFFFFFFFFFFFFFFFFFFFFF SUB DUP3 GT ISZERO PUSH2 0x1375 JUMPI PUSH2 0x1374 PUSH2 0x14E3 JUMP JUMPDEST JUMPDEST DUP3 DUP3 ADD SWAP1 POP SWAP3 SWAP2 POP POP JUMP JUMPDEST PUSH1 0x0 PUSH2 0x138B DUP3 PUSH2 0x13F2 JUMP JUMPDEST SWAP2 POP PUSH2 0x1396 DUP4 PUSH2 0x13F2 JUMP JUMPDEST SWAP3 POP DUP3 DUP3 LT ISZERO PUSH2 0x13A9 JUMPI PUSH2 0x13A8 PUSH2 0x14E3 JUMP JUMPDEST JUMPDEST DUP3 DUP3 SUB SWAP1 POP SWAP3 SWAP2 POP POP JUMP JUMPDEST PUSH1 0x0 PUSH2 0x13BF DUP3 PUSH2 0x13D2 JUMP JUMPDEST SWAP1 POP SWAP2 SWAP1 POP JUMP JUMPDEST PUSH1 0x0 DUP2 ISZERO ISZERO SWAP1 POP SWAP2 SWAP1 POP JUMP JUMPDEST PUSH1 0x0 PUSH20 0xFFFFFFFFFFFFFFFFFFFFFFFFFFFFFFFFFFFFFFFF DUP3 AND SWAP1 POP SWAP2 SWAP1 POP JUMP JUMPDEST PUSH1 0x0 DUP2 SWAP1 POP SWAP2 SWAP1 POP JUMP JUMPDEST DUP3 DUP2 DUP4 CALLDATACOPY PUSH1 0x0 DUP4 DUP4 ADD MSTORE POP POP POP JUMP JUMPDEST PUSH1 0x0 JUMPDEST DUP4 DUP2 LT ISZERO PUSH2 0x1429 JUMPI DUP1 DUP3 ADD MLOAD DUP2 DUP5 ADD MSTORE PUSH1 0x20 DUP2 ADD SWAP1 POP PUSH2 0x140E JUMP JUMPDEST DUP4 DUP2 GT ISZERO PUSH2 0x1438 JUMPI PUSH1 0x0 DUP5 DUP5 ADD MSTORE JUMPDEST POP POP POP POP JUMP JUMPDEST PUSH1 0x0 PUSH2 0x1449 DUP3 PUSH2 0x13F2 JUMP JUMPDEST SWAP2 POP PUSH1 0x0 DUP3 EQ ISZERO PUSH2 0x145D JUMPI PUSH2 0x145C PUSH2 0x14E3 JUMP JUMPDEST JUMPDEST PUSH1 0x1 DUP3 SUB SWAP1 POP SWAP2 SWAP1 POP JUMP JUMPDEST PUSH1 0x0 PUSH1 0x2 DUP3 DIV SWAP1 POP PUSH1 0x1 DUP3 AND DUP1 PUSH2 0x1480 JUMPI PUSH1 0x7F DUP3 AND SWAP2 POP JUMPDEST PUSH1 0x20 DUP3 LT DUP2 EQ ISZERO PUSH2 0x1494 JUMPI PUSH2 0x1493 PUSH2 0x1512 JUMP JUMPDEST JUMPDEST POP SWAP2 SWAP1 POP JUMP JUMPDEST PUSH1 0x0 PUSH2 0x14A5 DUP3 PUSH2 0x13F2 JUMP JUMPDEST SWAP2 POP PUSH32 0xFFFFFFFFFFFFFFFFFFFFFFFFFFFFFFFFFFFFFFFFFFFFFFFFFFFFFFFFFFFFFFFF DUP3 EQ ISZERO PUSH2 0x14D8 JUMPI PUSH2 0x14D7 PUSH2 0x14E3 JUMP JUMPDEST JUMPDEST PUSH1 0x1 DUP3 ADD SWAP1 POP SWAP2 SWAP1 POP JUMP JUMPDEST PUSH32 0x4E487B7100000000000000000000000000000000000000000000000000000000 PUSH1 0x0 MSTORE PUSH1 0x11 PUSH1 0x4 MSTORE PUSH1 0x24 PUSH1 0x0 REVERT JUMPDEST PUSH32 0x4E487B7100000000000000000000000000000000000000000000000000000000 PUSH1 0x0 MSTORE PUSH1 0x22 PUSH1 0x4 MSTORE PUSH1 0x24 PUSH1 0x0 REVERT JUMPDEST PUSH1 0x0 DUP1 REVERT JUMPDEST PUSH1 0x0 DUP1 REVERT JUMPDEST PUSH1 0x0 DUP1 REVERT JUMPDEST PUSH1 0x0 DUP1 REVERT JUMPDEST PUSH1 0x0 DUP1 REVERT JUMPDEST PUSH1 0x0 PUSH1 0x1F NOT PUSH1 0x1F DUP4 ADD AND SWAP1 POP SWAP2 SWAP1 POP JUMP JUMPDEST POP JUMP JUMPDEST PUSH2 0x1577 DUP2 PUSH2 0x13B4 JUMP JUMPDEST DUP2 EQ PUSH2 0x1582 JUMPI PUSH1 0x0 DUP1 REVERT JUMPDEST POP JUMP JUMPDEST PUSH2 0x158E DUP2 PUSH2 0x13F2 JUMP JUMPDEST DUP2 EQ PUSH2 0x1599 JUMPI PUSH1 0x0 DUP1 REVERT JUMPDEST POP JUMP INVALID LOG2 PUSH5 0x6970667358 0x22 SLT KECCAK256 EQ 0xE4 BLOCKHASH 0x28 PUSH5 0xE3B3C3C8AE 0xBF 0xBC 0xB5 LOG3 0xC0 0xF 0x29 BLOCKHASH 0xB1 0x4F SHR 0xC1 0x1E 0x4F 0xD7 SWAP6 DUP9 0xAB PUSH20 0x3657564736F6C63430008070033000000000000 "
				},
				"gasEstimates": {
					"creation": {
						"codeDepositCost": "1117200",
						"executionCost": "1136",
						"totalCost": "1118336"
					},
					"external": {
						"addNewProduct(string,uint256,uint256)": "infinite",
						"availableProducts(uint256)": "infinite",
						"buyProduct(uint256)": "infinite",
						"buyers(uint256,uint256)": "infinite",
						"pendingWithdrawals(address)": "2902",
						"products(uint256)": "infinite",
						"returnProduct(uint256)": "infinite",
						"transactions(uint256,address)": "infinite",
						"updateQuantity(uint256,uint256)": "infinite",
						"withdraw()": "infinite"
					}
				},
				"methodIdentifiers": {
					"addNewProduct(string,uint256,uint256)": "0a5bd44b",
					"availableProducts(uint256)": "e4bcc7d4",
					"buyProduct(uint256)": "8642269e",
					"buyers(uint256,uint256)": "27e7875a",
					"pendingWithdrawals(address)": "f3f43703",
					"products(uint256)": "7acc0b20",
					"returnProduct(uint256)": "131e407d",
					"transactions(uint256,address)": "74cbc350",
					"updateQuantity(uint256,uint256)": "79cd4921",
					"withdraw()": "3ccfd60b"
				}
			},
			"storageLayout": {
				"storage": [
					{
						"astId": 45,
						"contract": "Project/TechnoLime.sol:TechnoLimeStore",
						"label": "availableProducts",
						"offset": 0,
						"slot": "0",
						"type": "t_array(t_string_storage)dyn_storage"
					},
					{
						"astId": 50,
						"contract": "Project/TechnoLime.sol:TechnoLimeStore",
						"label": "products",
						"offset": 0,
						"slot": "1",
						"type": "t_mapping(t_uint256,t_struct(Product)35_storage)"
					},
					{
						"astId": 54,
						"contract": "Project/TechnoLime.sol:TechnoLimeStore",
						"label": "productMap",
						"offset": 0,
						"slot": "2",
						"type": "t_mapping(t_string_memory_ptr,t_bool)"
					},
					{
						"astId": 61,
						"contract": "Project/TechnoLime.sol:TechnoLimeStore",
						"label": "transactions",
						"offset": 0,
						"slot": "3",
						"type": "t_mapping(t_uint256,t_mapping(t_address,t_struct(Transaction)42_storage))"
					},
					{
						"astId": 66,
						"contract": "Project/TechnoLime.sol:TechnoLimeStore",
						"label": "buyers",
						"offset": 0,
						"slot": "4",
						"type": "t_mapping(t_uint256,t_array(t_address)dyn_storage)"
					},
					{
						"astId": 70,
						"contract": "Project/TechnoLime.sol:TechnoLimeStore",
						"label": "pendingWithdrawals",
						"offset": 0,
						"slot": "5",
						"type": "t_mapping(t_address,t_uint256)"
					}
				],
				"types": {
					"t_address": {
						"encoding": "inplace",
						"label": "address",
						"numberOfBytes": "20"
					},
					"t_array(t_address)dyn_storage": {
						"base": "t_address",
						"encoding": "dynamic_array",
						"label": "address[]",
						"numberOfBytes": "32"
					},
					"t_array(t_string_storage)dyn_storage": {
						"base": "t_string_storage",
						"encoding": "dynamic_array",
						"label": "string[]",
						"numberOfBytes": "32"
					},
					"t_bool": {
						"encoding": "inplace",
						"label": "bool",
						"numberOfBytes": "1"
					},
					"t_mapping(t_address,t_struct(Transaction)42_storage)": {
						"encoding": "mapping",
						"key": "t_address",
						"label": "mapping(address => struct TechnoLimeStore.Transaction)",
						"numberOfBytes": "32",
						"value": "t_struct(Transaction)42_storage"
					},
					"t_mapping(t_address,t_uint256)": {
						"encoding": "mapping",
						"key": "t_address",
						"label": "mapping(address => uint256)",
						"numberOfBytes": "32",
						"value": "t_uint256"
					},
					"t_mapping(t_string_memory_ptr,t_bool)": {
						"encoding": "mapping",
						"key": "t_string_memory_ptr",
						"label": "mapping(string => bool)",
						"numberOfBytes": "32",
						"value": "t_bool"
					},
					"t_mapping(t_uint256,t_array(t_address)dyn_storage)": {
						"encoding": "mapping",
						"key": "t_uint256",
						"label": "mapping(uint256 => address[])",
						"numberOfBytes": "32",
						"value": "t_array(t_address)dyn_storage"
					},
					"t_mapping(t_uint256,t_mapping(t_address,t_struct(Transaction)42_storage))": {
						"encoding": "mapping",
						"key": "t_uint256",
						"label": "mapping(uint256 => mapping(address => struct TechnoLimeStore.Transaction))",
						"numberOfBytes": "32",
						"value": "t_mapping(t_address,t_struct(Transaction)42_storage)"
					},
					"t_mapping(t_uint256,t_struct(Product)35_storage)": {
						"encoding": "mapping",
						"key": "t_uint256",
						"label": "mapping(uint256 => struct TechnoLimeStore.Product)",
						"numberOfBytes": "32",
						"value": "t_struct(Product)35_storage"
					},
					"t_string_memory_ptr": {
						"encoding": "bytes",
						"label": "string",
						"numberOfBytes": "32"
					},
					"t_string_storage": {
						"encoding": "bytes",
						"label": "string",
						"numberOfBytes": "32"
					},
					"t_struct(Product)35_storage": {
						"encoding": "inplace",
						"label": "struct TechnoLimeStore.Product",
						"members": [
							{
								"astId": 28,
								"contract": "Project/TechnoLime.sol:TechnoLimeStore",
								"label": "price",
								"offset": 0,
								"slot": "0",
								"type": "t_uint256"
							},
							{
								"astId": 30,
								"contract": "Project/TechnoLime.sol:TechnoLimeStore",
								"label": "quantity",
								"offset": 0,
								"slot": "1",
								"type": "t_uint256"
							},
							{
								"astId": 32,
								"contract": "Project/TechnoLime.sol:TechnoLimeStore",
								"label": "name",
								"offset": 0,
								"slot": "2",
								"type": "t_string_storage"
							},
							{
								"astId": 34,
								"contract": "Project/TechnoLime.sol:TechnoLimeStore",
								"label": "exists",
								"offset": 0,
								"slot": "3",
								"type": "t_bool"
							}
						],
						"numberOfBytes": "128"
					},
					"t_struct(Transaction)42_storage": {
						"encoding": "inplace",
						"label": "struct TechnoLimeStore.Transaction",
						"members": [
							{
								"astId": 37,
								"contract": "Project/TechnoLime.sol:TechnoLimeStore",
								"label": "blockNum",
								"offset": 0,
								"slot": "0",
								"type": "t_uint256"
							},
							{
								"astId": 39,
								"contract": "Project/TechnoLime.sol:TechnoLimeStore",
								"label": "price",
								"offset": 0,
								"slot": "1",
								"type": "t_uint256"
							},
							{
								"astId": 41,
								"contract": "Project/TechnoLime.sol:TechnoLimeStore",
								"label": "status",
								"offset": 0,
								"slot": "2",
								"type": "t_uint256"
							}
						],
						"numberOfBytes": "96"
					},
					"t_uint256": {
						"encoding": "inplace",
						"label": "uint256",
						"numberOfBytes": "32"
					}
				}
			},
			"userdoc": {
				"errors": {
					"ItemIdWrongOrBoughtAlready()": [
						{
							"notice": "Error trown when the productID doesn't exist or it has been bought once already"
						}
					],
					"LessThanPriceOrOutOfStock()": [
						{
							"notice": "Error trown when money sent is less than Product price"
						}
					],
					"ProductExists()": [
						{
							"notice": "Can't add a product that already exists"
						}
					]
				},
				"kind": "user",
				"methods": {},
				"version": 1
			}
		}
	}
}