{
	"Project/TechnoLime.sol": {
		"TechnoLimeStore": {
			"abi": [
				{
					"inputs": [],
					"name": "ProductExists",
					"type": "error"
				},
				{
					"inputs": [],
					"name": "ProductNotExistent",
					"type": "error"
				},
				{
					"inputs": [
						{
							"internalType": "string",
							"name": "productName",
							"type": "string"
						},
						{
							"internalType": "uint256",
							"name": "_price",
							"type": "uint256"
						},
						{
							"internalType": "uint256",
							"name": "_quantity",
							"type": "uint256"
						}
					],
					"name": "addNewProduct",
					"outputs": [],
					"stateMutability": "nonpayable",
					"type": "function"
				},
				{
					"inputs": [
						{
							"internalType": "uint256",
							"name": "",
							"type": "uint256"
						}
					],
					"name": "availableProducts",
					"outputs": [
						{
							"internalType": "string",
							"name": "",
							"type": "string"
						}
					],
					"stateMutability": "view",
					"type": "function"
				},
				{
					"inputs": [
						{
							"internalType": "string",
							"name": "",
							"type": "string"
						}
					],
					"name": "products",
					"outputs": [
						{
							"internalType": "uint256",
							"name": "price",
							"type": "uint256"
						},
						{
							"internalType": "uint256",
							"name": "quantity",
							"type": "uint256"
						},
						{
							"internalType": "bool",
							"name": "exists",
							"type": "bool"
						}
					],
					"stateMutability": "view",
					"type": "function"
				},
				{
					"inputs": [
						{
							"internalType": "string",
							"name": "productName",
							"type": "string"
						},
						{
							"internalType": "uint256",
							"name": "_quantity",
							"type": "uint256"
						}
					],
					"name": "updateQuantity",
					"outputs": [],
					"stateMutability": "nonpayable",
					"type": "function"
				}
			],
			"devdoc": {
				"kind": "dev",
				"methods": {},
				"version": 1
			},
			"evm": {
				"assembly": "    /* \"Project/TechnoLime.sol\":98:1366  contract TechnoLimeStore {\r... */\n  mstore(0x40, 0x80)\n  callvalue\n  dup1\n  iszero\n  tag_1\n  jumpi\n  0x00\n  dup1\n  revert\ntag_1:\n  pop\n  dataSize(sub_0)\n  dup1\n  dataOffset(sub_0)\n  0x00\n  codecopy\n  0x00\n  return\nstop\n\nsub_0: assembly {\n        /* \"Project/TechnoLime.sol\":98:1366  contract TechnoLimeStore {\r... */\n      mstore(0x40, 0x80)\n      callvalue\n      dup1\n      iszero\n      tag_1\n      jumpi\n      0x00\n      dup1\n      revert\n    tag_1:\n      pop\n      jumpi(tag_2, lt(calldatasize, 0x04))\n      shr(0xe0, calldataload(0x00))\n      dup1\n      0x0186a423\n      eq\n      tag_3\n      jumpi\n      dup1\n      0x0a5bd44b\n      eq\n      tag_4\n      jumpi\n      dup1\n      0x1d894eb8\n      eq\n      tag_5\n      jumpi\n      dup1\n      0xe4bcc7d4\n      eq\n      tag_6\n      jumpi\n    tag_2:\n      0x00\n      dup1\n      revert\n        /* \"Project/TechnoLime.sol\":298:340  mapping(string => Product) public products */\n    tag_3:\n      tag_7\n      0x04\n      dup1\n      calldatasize\n      sub\n      dup2\n      add\n      swap1\n      tag_8\n      swap2\n      swap1\n      tag_9\n      jump\t// in\n    tag_8:\n      tag_10\n      jump\t// in\n    tag_7:\n      mload(0x40)\n      tag_11\n      swap4\n      swap3\n      swap2\n      swap1\n      tag_12\n      jump\t// in\n    tag_11:\n      mload(0x40)\n      dup1\n      swap2\n      sub\n      swap1\n      return\n        /* \"Project/TechnoLime.sol\":499:1087  function addNewProduct(string calldata productName, uint _price,uint _quantity) external{\r... */\n    tag_4:\n      tag_13\n      0x04\n      dup1\n      calldatasize\n      sub\n      dup2\n      add\n      swap1\n      tag_14\n      swap2\n      swap1\n      tag_15\n      jump\t// in\n    tag_14:\n      tag_16\n      jump\t// in\n    tag_13:\n      stop\n        /* \"Project/TechnoLime.sol\":1095:1357  function updateQuantity(string calldata productName,uint _quantity) external{\r... */\n    tag_5:\n      tag_17\n      0x04\n      dup1\n      calldatasize\n      sub\n      dup2\n      add\n      swap1\n      tag_18\n      swap2\n      swap1\n      tag_19\n      jump\t// in\n    tag_18:\n      tag_20\n      jump\t// in\n    tag_17:\n      stop\n        /* \"Project/TechnoLime.sol\":258:291  string[] public availableProducts */\n    tag_6:\n      tag_21\n      0x04\n      dup1\n      calldatasize\n      sub\n      dup2\n      add\n      swap1\n      tag_22\n      swap2\n      swap1\n      tag_23\n      jump\t// in\n    tag_22:\n      tag_24\n      jump\t// in\n    tag_21:\n      mload(0x40)\n      tag_25\n      swap2\n      swap1\n      tag_26\n      jump\t// in\n    tag_25:\n      mload(0x40)\n      dup1\n      swap2\n      sub\n      swap1\n      return\n        /* \"Project/TechnoLime.sol\":298:340  mapping(string => Product) public products */\n    tag_10:\n      0x01\n      dup2\n      dup1\n      mload\n      0x20\n      dup2\n      add\n      dup3\n      add\n      dup1\n      mload\n      dup5\n      dup3\n      mstore\n      0x20\n      dup4\n      add\n      0x20\n      dup6\n      add\n      keccak256\n      dup2\n      dup4\n      mstore\n      dup1\n      swap6\n      pop\n      pop\n      pop\n      pop\n      pop\n      pop\n      0x00\n      swap2\n      pop\n      swap1\n      pop\n      dup1\n      0x00\n      add\n      sload\n      swap1\n      dup1\n      0x01\n      add\n      sload\n      swap1\n      dup1\n      0x03\n      add\n      0x00\n      swap1\n      sload\n      swap1\n      0x0100\n      exp\n      swap1\n      div\n      0xff\n      and\n      swap1\n      pop\n      dup4\n      jump\t// out\n        /* \"Project/TechnoLime.sol\":499:1087  function addNewProduct(string calldata productName, uint _price,uint _quantity) external{\r... */\n    tag_16:\n        /* \"Project/TechnoLime.sol\":604:612  products */\n      0x01\n        /* \"Project/TechnoLime.sol\":613:624  productName */\n      dup5\n      dup5\n        /* \"Project/TechnoLime.sol\":604:625  products[productName] */\n      mload(0x40)\n      tag_28\n      swap3\n      swap2\n      swap1\n      tag_29\n      jump\t// in\n    tag_28:\n      swap1\n      dup2\n      mstore\n      0x20\n      add\n      mload(0x40)\n      dup1\n      swap2\n      sub\n      swap1\n      keccak256\n        /* \"Project/TechnoLime.sol\":604:632  products[productName].exists */\n      0x03\n      add\n      0x00\n      swap1\n      sload\n      swap1\n      0x0100\n      exp\n      swap1\n      div\n      0xff\n      and\n        /* \"Project/TechnoLime.sol\":599:1070  if (!products[productName].exists){\r... */\n      tag_30\n      jumpi\n        /* \"Project/TechnoLime.sol\":649:671  Product memory product */\n      tag_31\n      tag_32\n      jump\t// in\n    tag_31:\n        /* \"Project/TechnoLime.sol\":703:709  _price */\n      dup3\n        /* \"Project/TechnoLime.sol\":687:694  product */\n      dup2\n        /* \"Project/TechnoLime.sol\":687:700  product.price */\n      0x00\n      add\n        /* \"Project/TechnoLime.sol\":687:709  product.price = _price */\n      dup2\n      dup2\n      mstore\n      pop\n      pop\n        /* \"Project/TechnoLime.sol\":744:753  _quantity */\n      dup2\n        /* \"Project/TechnoLime.sol\":725:732  product */\n      dup2\n        /* \"Project/TechnoLime.sol\":725:741  product.quantity */\n      0x20\n      add\n        /* \"Project/TechnoLime.sol\":725:753  product.quantity = _quantity */\n      dup2\n      dup2\n      mstore\n      pop\n      pop\n        /* \"Project/TechnoLime.sol\":786:790  true */\n      0x01\n        /* \"Project/TechnoLime.sol\":769:776  product */\n      dup2\n        /* \"Project/TechnoLime.sol\":769:783  product.exists */\n      0x60\n      add\n        /* \"Project/TechnoLime.sol\":769:790  product.exists = true */\n      swap1\n      iszero\n      iszero\n      swap1\n      dup2\n      iszero\n      iszero\n      dup2\n      mstore\n      pop\n      pop\n        /* \"Project/TechnoLime.sol\":830:837  product */\n      dup1\n        /* \"Project/TechnoLime.sol\":806:814  products */\n      0x01\n        /* \"Project/TechnoLime.sol\":815:826  productName */\n      dup7\n      dup7\n        /* \"Project/TechnoLime.sol\":806:827  products[productName] */\n      mload(0x40)\n      tag_33\n      swap3\n      swap2\n      swap1\n      tag_29\n      jump\t// in\n    tag_33:\n      swap1\n      dup2\n      mstore\n      0x20\n      add\n      mload(0x40)\n      dup1\n      swap2\n      sub\n      swap1\n      keccak256\n        /* \"Project/TechnoLime.sol\":806:837  products[productName] = product */\n      0x00\n      dup3\n      add\n      mload\n      dup2\n      0x00\n      add\n      sstore\n      0x20\n      dup3\n      add\n      mload\n      dup2\n      0x01\n      add\n      sstore\n      0x40\n      dup3\n      add\n      mload\n      dup2\n      0x02\n      add\n      swap1\n      dup1\n      mload\n      swap1\n      0x20\n      add\n      swap1\n      tag_34\n      swap3\n      swap2\n      swap1\n      tag_35\n      jump\t// in\n    tag_34:\n      pop\n      0x60\n      dup3\n      add\n      mload\n      dup2\n      0x03\n      add\n      exp(0x0100, 0x00)\n      dup2\n      sload\n      dup2\n      0xff\n      mul\n      not\n      and\n      swap1\n      dup4\n      iszero\n      iszero\n      mul\n      or\n      swap1\n      sstore\n      pop\n      swap1\n      pop\n      pop\n        /* \"Project/TechnoLime.sol\":853:870  availableProducts */\n      0x00\n        /* \"Project/TechnoLime.sol\":876:887  productName */\n      dup6\n      dup6\n        /* \"Project/TechnoLime.sol\":853:888  availableProducts.push(productName) */\n      swap1\n      swap2\n      dup1\n      0x01\n      dup2\n      sload\n      add\n      dup1\n      dup3\n      sstore\n      dup1\n      swap2\n      pop\n      pop\n      0x01\n      swap1\n      sub\n      swap1\n      0x00\n      mstore\n      keccak256(0x00, 0x20)\n      add\n      0x00\n      swap1\n      swap2\n      swap3\n      swap1\n      swap2\n      swap3\n      swap1\n      swap2\n      swap3\n      swap1\n      swap2\n      swap3\n      pop\n      swap2\n      swap1\n      tag_37\n      swap3\n      swap2\n      swap1\n      tag_38\n      jump\t// in\n    tag_37:\n      pop\n        /* \"Project/TechnoLime.sol\":633:901  {\r... */\n      pop\n        /* \"Project/TechnoLime.sol\":599:1070  if (!products[productName].exists){\r... */\n      jump(tag_39)\n    tag_30:\n        /* \"Project/TechnoLime.sol\":1035:1057  Errors.ProductExists() */\n      mload(0x40)\n      0xb185df3a00000000000000000000000000000000000000000000000000000000\n      dup2\n      mstore\n      0x04\n      add\n      mload(0x40)\n      dup1\n      swap2\n      sub\n      swap1\n      revert\n        /* \"Project/TechnoLime.sol\":599:1070  if (!products[productName].exists){\r... */\n    tag_39:\n        /* \"Project/TechnoLime.sol\":499:1087  function addNewProduct(string calldata productName, uint _price,uint _quantity) external{\r... */\n      pop\n      pop\n      pop\n      pop\n      jump\t// out\n        /* \"Project/TechnoLime.sol\":1095:1357  function updateQuantity(string calldata productName,uint _quantity) external{\r... */\n    tag_20:\n        /* \"Project/TechnoLime.sol\":1186:1194  products */\n      0x01\n        /* \"Project/TechnoLime.sol\":1195:1206  productName */\n      dup4\n      dup4\n        /* \"Project/TechnoLime.sol\":1186:1207  products[productName] */\n      mload(0x40)\n      tag_41\n      swap3\n      swap2\n      swap1\n      tag_29\n      jump\t// in\n    tag_41:\n      swap1\n      dup2\n      mstore\n      0x20\n      add\n      mload(0x40)\n      dup1\n      swap2\n      sub\n      swap1\n      keccak256\n        /* \"Project/TechnoLime.sol\":1186:1214  products[productName].exists */\n      0x03\n      add\n      0x00\n      swap1\n      sload\n      swap1\n      0x0100\n      exp\n      swap1\n      div\n      0xff\n      and\n        /* \"Project/TechnoLime.sol\":1182:1350  if (products[productName].exists){\r... */\n      iszero\n      tag_42\n      jumpi\n        /* \"Project/TechnoLime.sol\":1264:1273  _quantity */\n      dup1\n        /* \"Project/TechnoLime.sol\":1230:1238  products */\n      0x01\n        /* \"Project/TechnoLime.sol\":1239:1250  productName */\n      dup5\n      dup5\n        /* \"Project/TechnoLime.sol\":1230:1251  products[productName] */\n      mload(0x40)\n      tag_43\n      swap3\n      swap2\n      swap1\n      tag_29\n      jump\t// in\n    tag_43:\n      swap1\n      dup2\n      mstore\n      0x20\n      add\n      mload(0x40)\n      dup1\n      swap2\n      sub\n      swap1\n      keccak256\n        /* \"Project/TechnoLime.sol\":1230:1260  products[productName].quantity */\n      0x01\n      add\n      0x00\n        /* \"Project/TechnoLime.sol\":1230:1273  products[productName].quantity += _quantity */\n      dup3\n      dup3\n      sload\n      tag_44\n      swap2\n      swap1\n      tag_45\n      jump\t// in\n    tag_44:\n      swap3\n      pop\n      pop\n      dup2\n      swap1\n      sstore\n      pop\n        /* \"Project/TechnoLime.sol\":1182:1350  if (products[productName].exists){\r... */\n      jump(tag_46)\n    tag_42:\n        /* \"Project/TechnoLime.sol\":1311:1338  Errors.ProductNotExistent() */\n      mload(0x40)\n      0x7e8d96a900000000000000000000000000000000000000000000000000000000\n      dup2\n      mstore\n      0x04\n      add\n      mload(0x40)\n      dup1\n      swap2\n      sub\n      swap1\n      revert\n        /* \"Project/TechnoLime.sol\":1182:1350  if (products[productName].exists){\r... */\n    tag_46:\n        /* \"Project/TechnoLime.sol\":1095:1357  function updateQuantity(string calldata productName,uint _quantity) external{\r... */\n      pop\n      pop\n      pop\n      jump\t// out\n        /* \"Project/TechnoLime.sol\":258:291  string[] public availableProducts */\n    tag_24:\n      0x00\n      dup2\n      dup2\n      sload\n      dup2\n      lt\n      tag_47\n      jumpi\n      0x00\n      dup1\n      revert\n    tag_47:\n      swap1\n      0x00\n      mstore\n      keccak256(0x00, 0x20)\n      add\n      0x00\n      swap2\n      pop\n      swap1\n      pop\n      dup1\n      sload\n      tag_49\n      swap1\n      tag_50\n      jump\t// in\n    tag_49:\n      dup1\n      0x1f\n      add\n      0x20\n      dup1\n      swap2\n      div\n      mul\n      0x20\n      add\n      mload(0x40)\n      swap1\n      dup2\n      add\n      0x40\n      mstore\n      dup1\n      swap3\n      swap2\n      swap1\n      dup2\n      dup2\n      mstore\n      0x20\n      add\n      dup3\n      dup1\n      sload\n      tag_51\n      swap1\n      tag_50\n      jump\t// in\n    tag_51:\n      dup1\n      iszero\n      tag_52\n      jumpi\n      dup1\n      0x1f\n      lt\n      tag_53\n      jumpi\n      0x0100\n      dup1\n      dup4\n      sload\n      div\n      mul\n      dup4\n      mstore\n      swap2\n      0x20\n      add\n      swap2\n      jump(tag_52)\n    tag_53:\n      dup3\n      add\n      swap2\n      swap1\n      0x00\n      mstore\n      keccak256(0x00, 0x20)\n      swap1\n    tag_54:\n      dup2\n      sload\n      dup2\n      mstore\n      swap1\n      0x01\n      add\n      swap1\n      0x20\n      add\n      dup1\n      dup4\n      gt\n      tag_54\n      jumpi\n      dup3\n      swap1\n      sub\n      0x1f\n      and\n      dup3\n      add\n      swap2\n    tag_52:\n      pop\n      pop\n      pop\n      pop\n      pop\n      dup2\n      jump\t// out\n    tag_32:\n      mload(0x40)\n      dup1\n      0x80\n      add\n      0x40\n      mstore\n      dup1\n      0x00\n      dup2\n      mstore\n      0x20\n      add\n      0x00\n      dup2\n      mstore\n      0x20\n      add\n      0x60\n      dup2\n      mstore\n      0x20\n      add\n      iszero(iszero(0x00))\n      dup2\n      mstore\n      pop\n      swap1\n      jump\t// out\n    tag_35:\n      dup3\n      dup1\n      sload\n      dup3\n      dup3\n      sstore\n      swap1\n      0x00\n      mstore\n      keccak256(0x00, 0x20)\n      swap1\n      dup2\n      add\n      swap3\n      dup3\n      iszero\n      tag_55\n      jumpi\n      swap2\n      0x20\n      mul\n      dup3\n      add\n    tag_56:\n      dup3\n      dup2\n      gt\n      iszero\n      tag_57\n      jumpi\n      dup3\n      mload\n      dup3\n      exp(0x0100, 0x00)\n      dup2\n      sload\n      dup2\n      0xffffffffffffffffffffffffffffffffffffffff\n      mul\n      not\n      and\n      swap1\n      dup4\n      0xffffffffffffffffffffffffffffffffffffffff\n      and\n      mul\n      or\n      swap1\n      sstore\n      pop\n      swap2\n      0x20\n      add\n      swap2\n      swap1\n      0x01\n      add\n      swap1\n      jump(tag_56)\n    tag_57:\n    tag_55:\n      pop\n      swap1\n      pop\n      tag_58\n      swap2\n      swap1\n      tag_59\n      jump\t// in\n    tag_58:\n      pop\n      swap1\n      jump\t// out\n    tag_38:\n      dup3\n      dup1\n      sload\n      tag_60\n      swap1\n      tag_50\n      jump\t// in\n    tag_60:\n      swap1\n      0x00\n      mstore\n      keccak256(0x00, 0x20)\n      swap1\n      0x1f\n      add\n      0x20\n      swap1\n      div\n      dup2\n      add\n      swap3\n      dup3\n      tag_62\n      jumpi\n      0x00\n      dup6\n      sstore\n      jump(tag_61)\n    tag_62:\n      dup3\n      0x1f\n      lt\n      tag_63\n      jumpi\n      dup1\n      calldataload\n      not(0xff)\n      and\n      dup4\n      dup1\n      add\n      or\n      dup6\n      sstore\n      jump(tag_61)\n    tag_63:\n      dup3\n      dup1\n      add\n      0x01\n      add\n      dup6\n      sstore\n      dup3\n      iszero\n      tag_61\n      jumpi\n      swap2\n      dup3\n      add\n    tag_64:\n      dup3\n      dup2\n      gt\n      iszero\n      tag_65\n      jumpi\n      dup3\n      calldataload\n      dup3\n      sstore\n      swap2\n      0x20\n      add\n      swap2\n      swap1\n      0x01\n      add\n      swap1\n      jump(tag_64)\n    tag_65:\n    tag_61:\n      pop\n      swap1\n      pop\n      tag_66\n      swap2\n      swap1\n      tag_59\n      jump\t// in\n    tag_66:\n      pop\n      swap1\n      jump\t// out\n    tag_59:\n    tag_67:\n      dup1\n      dup3\n      gt\n      iszero\n      tag_68\n      jumpi\n      0x00\n      dup2\n      0x00\n      swap1\n      sstore\n      pop\n      0x01\n      add\n      jump(tag_67)\n    tag_68:\n      pop\n      swap1\n      jump\t// out\n        /* \"#utility.yul\":7:419   */\n    tag_70:\n        /* \"#utility.yul\":85:90   */\n      0x00\n        /* \"#utility.yul\":110:176   */\n      tag_72\n        /* \"#utility.yul\":126:175   */\n      tag_73\n        /* \"#utility.yul\":168:174   */\n      dup5\n        /* \"#utility.yul\":126:175   */\n      tag_74\n      jump\t// in\n    tag_73:\n        /* \"#utility.yul\":110:176   */\n      tag_75\n      jump\t// in\n    tag_72:\n        /* \"#utility.yul\":101:176   */\n      swap1\n      pop\n        /* \"#utility.yul\":199:205   */\n      dup3\n        /* \"#utility.yul\":192:197   */\n      dup2\n        /* \"#utility.yul\":185:206   */\n      mstore\n        /* \"#utility.yul\":237:241   */\n      0x20\n        /* \"#utility.yul\":230:235   */\n      dup2\n        /* \"#utility.yul\":226:242   */\n      add\n        /* \"#utility.yul\":275:278   */\n      dup5\n        /* \"#utility.yul\":266:272   */\n      dup5\n        /* \"#utility.yul\":261:264   */\n      dup5\n        /* \"#utility.yul\":257:273   */\n      add\n        /* \"#utility.yul\":254:279   */\n      gt\n        /* \"#utility.yul\":251:363   */\n      iszero\n      tag_76\n      jumpi\n        /* \"#utility.yul\":282:361   */\n      tag_77\n      tag_78\n      jump\t// in\n    tag_77:\n        /* \"#utility.yul\":251:363   */\n    tag_76:\n        /* \"#utility.yul\":372:413   */\n      tag_79\n        /* \"#utility.yul\":406:412   */\n      dup5\n        /* \"#utility.yul\":401:404   */\n      dup3\n        /* \"#utility.yul\":396:399   */\n      dup6\n        /* \"#utility.yul\":372:413   */\n      tag_80\n      jump\t// in\n    tag_79:\n        /* \"#utility.yul\":91:419   */\n      pop\n        /* \"#utility.yul\":7:419   */\n      swap4\n      swap3\n      pop\n      pop\n      pop\n      jump\t// out\n        /* \"#utility.yul\":439:992   */\n    tag_81:\n        /* \"#utility.yul\":497:505   */\n      0x00\n        /* \"#utility.yul\":507:513   */\n      dup1\n        /* \"#utility.yul\":557:560   */\n      dup4\n        /* \"#utility.yul\":550:554   */\n      0x1f\n        /* \"#utility.yul\":542:548   */\n      dup5\n        /* \"#utility.yul\":538:555   */\n      add\n        /* \"#utility.yul\":534:561   */\n      slt\n        /* \"#utility.yul\":524:646   */\n      tag_83\n      jumpi\n        /* \"#utility.yul\":565:644   */\n      tag_84\n      tag_85\n      jump\t// in\n    tag_84:\n        /* \"#utility.yul\":524:646   */\n    tag_83:\n        /* \"#utility.yul\":678:684   */\n      dup3\n        /* \"#utility.yul\":665:685   */\n      calldataload\n        /* \"#utility.yul\":655:685   */\n      swap1\n      pop\n        /* \"#utility.yul\":708:726   */\n      0xffffffffffffffff\n        /* \"#utility.yul\":700:706   */\n      dup2\n        /* \"#utility.yul\":697:727   */\n      gt\n        /* \"#utility.yul\":694:811   */\n      iszero\n      tag_86\n      jumpi\n        /* \"#utility.yul\":730:809   */\n      tag_87\n      tag_88\n      jump\t// in\n    tag_87:\n        /* \"#utility.yul\":694:811   */\n    tag_86:\n        /* \"#utility.yul\":844:848   */\n      0x20\n        /* \"#utility.yul\":836:842   */\n      dup4\n        /* \"#utility.yul\":832:849   */\n      add\n        /* \"#utility.yul\":820:849   */\n      swap2\n      pop\n        /* \"#utility.yul\":898:901   */\n      dup4\n        /* \"#utility.yul\":890:894   */\n      0x01\n        /* \"#utility.yul\":882:888   */\n      dup3\n        /* \"#utility.yul\":878:895   */\n      mul\n        /* \"#utility.yul\":868:876   */\n      dup4\n        /* \"#utility.yul\":864:896   */\n      add\n        /* \"#utility.yul\":861:902   */\n      gt\n        /* \"#utility.yul\":858:986   */\n      iszero\n      tag_89\n      jumpi\n        /* \"#utility.yul\":905:984   */\n      tag_90\n      tag_91\n      jump\t// in\n    tag_90:\n        /* \"#utility.yul\":858:986   */\n    tag_89:\n        /* \"#utility.yul\":439:992   */\n      swap3\n      pop\n      swap3\n      swap1\n      pop\n      jump\t// out\n        /* \"#utility.yul\":1012:1352   */\n    tag_92:\n        /* \"#utility.yul\":1068:1073   */\n      0x00\n        /* \"#utility.yul\":1117:1120   */\n      dup3\n        /* \"#utility.yul\":1110:1114   */\n      0x1f\n        /* \"#utility.yul\":1102:1108   */\n      dup4\n        /* \"#utility.yul\":1098:1115   */\n      add\n        /* \"#utility.yul\":1094:1121   */\n      slt\n        /* \"#utility.yul\":1084:1206   */\n      tag_94\n      jumpi\n        /* \"#utility.yul\":1125:1204   */\n      tag_95\n      tag_85\n      jump\t// in\n    tag_95:\n        /* \"#utility.yul\":1084:1206   */\n    tag_94:\n        /* \"#utility.yul\":1242:1248   */\n      dup2\n        /* \"#utility.yul\":1229:1249   */\n      calldataload\n        /* \"#utility.yul\":1267:1346   */\n      tag_96\n        /* \"#utility.yul\":1342:1345   */\n      dup5\n        /* \"#utility.yul\":1334:1340   */\n      dup3\n        /* \"#utility.yul\":1327:1331   */\n      0x20\n        /* \"#utility.yul\":1319:1325   */\n      dup7\n        /* \"#utility.yul\":1315:1332   */\n      add\n        /* \"#utility.yul\":1267:1346   */\n      tag_70\n      jump\t// in\n    tag_96:\n        /* \"#utility.yul\":1258:1346   */\n      swap2\n      pop\n        /* \"#utility.yul\":1074:1352   */\n      pop\n        /* \"#utility.yul\":1012:1352   */\n      swap3\n      swap2\n      pop\n      pop\n      jump\t// out\n        /* \"#utility.yul\":1358:1497   */\n    tag_97:\n        /* \"#utility.yul\":1404:1409   */\n      0x00\n        /* \"#utility.yul\":1442:1448   */\n      dup2\n        /* \"#utility.yul\":1429:1449   */\n      calldataload\n        /* \"#utility.yul\":1420:1449   */\n      swap1\n      pop\n        /* \"#utility.yul\":1458:1491   */\n      tag_99\n        /* \"#utility.yul\":1485:1490   */\n      dup2\n        /* \"#utility.yul\":1458:1491   */\n      tag_100\n      jump\t// in\n    tag_99:\n        /* \"#utility.yul\":1358:1497   */\n      swap3\n      swap2\n      pop\n      pop\n      jump\t// out\n        /* \"#utility.yul\":1503:2177   */\n    tag_19:\n        /* \"#utility.yul\":1583:1589   */\n      0x00\n        /* \"#utility.yul\":1591:1597   */\n      dup1\n        /* \"#utility.yul\":1599:1605   */\n      0x00\n        /* \"#utility.yul\":1648:1650   */\n      0x40\n        /* \"#utility.yul\":1636:1645   */\n      dup5\n        /* \"#utility.yul\":1627:1634   */\n      dup7\n        /* \"#utility.yul\":1623:1646   */\n      sub\n        /* \"#utility.yul\":1619:1651   */\n      slt\n        /* \"#utility.yul\":1616:1735   */\n      iszero\n      tag_102\n      jumpi\n        /* \"#utility.yul\":1654:1733   */\n      tag_103\n      tag_104\n      jump\t// in\n    tag_103:\n        /* \"#utility.yul\":1616:1735   */\n    tag_102:\n        /* \"#utility.yul\":1802:1803   */\n      0x00\n        /* \"#utility.yul\":1791:1800   */\n      dup5\n        /* \"#utility.yul\":1787:1804   */\n      add\n        /* \"#utility.yul\":1774:1805   */\n      calldataload\n        /* \"#utility.yul\":1832:1850   */\n      0xffffffffffffffff\n        /* \"#utility.yul\":1824:1830   */\n      dup2\n        /* \"#utility.yul\":1821:1851   */\n      gt\n        /* \"#utility.yul\":1818:1935   */\n      iszero\n      tag_105\n      jumpi\n        /* \"#utility.yul\":1854:1933   */\n      tag_106\n      tag_107\n      jump\t// in\n    tag_106:\n        /* \"#utility.yul\":1818:1935   */\n    tag_105:\n        /* \"#utility.yul\":1967:2032   */\n      tag_108\n        /* \"#utility.yul\":2024:2031   */\n      dup7\n        /* \"#utility.yul\":2015:2021   */\n      dup3\n        /* \"#utility.yul\":2004:2013   */\n      dup8\n        /* \"#utility.yul\":2000:2022   */\n      add\n        /* \"#utility.yul\":1967:2032   */\n      tag_81\n      jump\t// in\n    tag_108:\n        /* \"#utility.yul\":1949:2032   */\n      swap4\n      pop\n      swap4\n      pop\n        /* \"#utility.yul\":1745:2042   */\n      pop\n        /* \"#utility.yul\":2081:2083   */\n      0x20\n        /* \"#utility.yul\":2107:2160   */\n      tag_109\n        /* \"#utility.yul\":2152:2159   */\n      dup7\n        /* \"#utility.yul\":2143:2149   */\n      dup3\n        /* \"#utility.yul\":2132:2141   */\n      dup8\n        /* \"#utility.yul\":2128:2150   */\n      add\n        /* \"#utility.yul\":2107:2160   */\n      tag_97\n      jump\t// in\n    tag_109:\n        /* \"#utility.yul\":2097:2160   */\n      swap2\n      pop\n        /* \"#utility.yul\":2052:2170   */\n      pop\n        /* \"#utility.yul\":1503:2177   */\n      swap3\n      pop\n      swap3\n      pop\n      swap3\n      jump\t// out\n        /* \"#utility.yul\":2183:3002   */\n    tag_15:\n        /* \"#utility.yul\":2272:2278   */\n      0x00\n        /* \"#utility.yul\":2280:2286   */\n      dup1\n        /* \"#utility.yul\":2288:2294   */\n      0x00\n        /* \"#utility.yul\":2296:2302   */\n      dup1\n        /* \"#utility.yul\":2345:2347   */\n      0x60\n        /* \"#utility.yul\":2333:2342   */\n      dup6\n        /* \"#utility.yul\":2324:2331   */\n      dup8\n        /* \"#utility.yul\":2320:2343   */\n      sub\n        /* \"#utility.yul\":2316:2348   */\n      slt\n        /* \"#utility.yul\":2313:2432   */\n      iszero\n      tag_111\n      jumpi\n        /* \"#utility.yul\":2351:2430   */\n      tag_112\n      tag_104\n      jump\t// in\n    tag_112:\n        /* \"#utility.yul\":2313:2432   */\n    tag_111:\n        /* \"#utility.yul\":2499:2500   */\n      0x00\n        /* \"#utility.yul\":2488:2497   */\n      dup6\n        /* \"#utility.yul\":2484:2501   */\n      add\n        /* \"#utility.yul\":2471:2502   */\n      calldataload\n        /* \"#utility.yul\":2529:2547   */\n      0xffffffffffffffff\n        /* \"#utility.yul\":2521:2527   */\n      dup2\n        /* \"#utility.yul\":2518:2548   */\n      gt\n        /* \"#utility.yul\":2515:2632   */\n      iszero\n      tag_113\n      jumpi\n        /* \"#utility.yul\":2551:2630   */\n      tag_114\n      tag_107\n      jump\t// in\n    tag_114:\n        /* \"#utility.yul\":2515:2632   */\n    tag_113:\n        /* \"#utility.yul\":2664:2729   */\n      tag_115\n        /* \"#utility.yul\":2721:2728   */\n      dup8\n        /* \"#utility.yul\":2712:2718   */\n      dup3\n        /* \"#utility.yul\":2701:2710   */\n      dup9\n        /* \"#utility.yul\":2697:2719   */\n      add\n        /* \"#utility.yul\":2664:2729   */\n      tag_81\n      jump\t// in\n    tag_115:\n        /* \"#utility.yul\":2646:2729   */\n      swap5\n      pop\n      swap5\n      pop\n        /* \"#utility.yul\":2442:2739   */\n      pop\n        /* \"#utility.yul\":2778:2780   */\n      0x20\n        /* \"#utility.yul\":2804:2857   */\n      tag_116\n        /* \"#utility.yul\":2849:2856   */\n      dup8\n        /* \"#utility.yul\":2840:2846   */\n      dup3\n        /* \"#utility.yul\":2829:2838   */\n      dup9\n        /* \"#utility.yul\":2825:2847   */\n      add\n        /* \"#utility.yul\":2804:2857   */\n      tag_97\n      jump\t// in\n    tag_116:\n        /* \"#utility.yul\":2794:2857   */\n      swap3\n      pop\n        /* \"#utility.yul\":2749:2867   */\n      pop\n        /* \"#utility.yul\":2906:2908   */\n      0x40\n        /* \"#utility.yul\":2932:2985   */\n      tag_117\n        /* \"#utility.yul\":2977:2984   */\n      dup8\n        /* \"#utility.yul\":2968:2974   */\n      dup3\n        /* \"#utility.yul\":2957:2966   */\n      dup9\n        /* \"#utility.yul\":2953:2975   */\n      add\n        /* \"#utility.yul\":2932:2985   */\n      tag_97\n      jump\t// in\n    tag_117:\n        /* \"#utility.yul\":2922:2985   */\n      swap2\n      pop\n        /* \"#utility.yul\":2877:2995   */\n      pop\n        /* \"#utility.yul\":2183:3002   */\n      swap3\n      swap6\n      swap2\n      swap5\n      pop\n      swap3\n      pop\n      jump\t// out\n        /* \"#utility.yul\":3008:3517   */\n    tag_9:\n        /* \"#utility.yul\":3077:3083   */\n      0x00\n        /* \"#utility.yul\":3126:3128   */\n      0x20\n        /* \"#utility.yul\":3114:3123   */\n      dup3\n        /* \"#utility.yul\":3105:3112   */\n      dup5\n        /* \"#utility.yul\":3101:3124   */\n      sub\n        /* \"#utility.yul\":3097:3129   */\n      slt\n        /* \"#utility.yul\":3094:3213   */\n      iszero\n      tag_119\n      jumpi\n        /* \"#utility.yul\":3132:3211   */\n      tag_120\n      tag_104\n      jump\t// in\n    tag_120:\n        /* \"#utility.yul\":3094:3213   */\n    tag_119:\n        /* \"#utility.yul\":3280:3281   */\n      0x00\n        /* \"#utility.yul\":3269:3278   */\n      dup3\n        /* \"#utility.yul\":3265:3282   */\n      add\n        /* \"#utility.yul\":3252:3283   */\n      calldataload\n        /* \"#utility.yul\":3310:3328   */\n      0xffffffffffffffff\n        /* \"#utility.yul\":3302:3308   */\n      dup2\n        /* \"#utility.yul\":3299:3329   */\n      gt\n        /* \"#utility.yul\":3296:3413   */\n      iszero\n      tag_121\n      jumpi\n        /* \"#utility.yul\":3332:3411   */\n      tag_122\n      tag_107\n      jump\t// in\n    tag_122:\n        /* \"#utility.yul\":3296:3413   */\n    tag_121:\n        /* \"#utility.yul\":3437:3500   */\n      tag_123\n        /* \"#utility.yul\":3492:3499   */\n      dup5\n        /* \"#utility.yul\":3483:3489   */\n      dup3\n        /* \"#utility.yul\":3472:3481   */\n      dup6\n        /* \"#utility.yul\":3468:3490   */\n      add\n        /* \"#utility.yul\":3437:3500   */\n      tag_92\n      jump\t// in\n    tag_123:\n        /* \"#utility.yul\":3427:3500   */\n      swap2\n      pop\n        /* \"#utility.yul\":3223:3510   */\n      pop\n        /* \"#utility.yul\":3008:3517   */\n      swap3\n      swap2\n      pop\n      pop\n      jump\t// out\n        /* \"#utility.yul\":3523:3852   */\n    tag_23:\n        /* \"#utility.yul\":3582:3588   */\n      0x00\n        /* \"#utility.yul\":3631:3633   */\n      0x20\n        /* \"#utility.yul\":3619:3628   */\n      dup3\n        /* \"#utility.yul\":3610:3617   */\n      dup5\n        /* \"#utility.yul\":3606:3629   */\n      sub\n        /* \"#utility.yul\":3602:3634   */\n      slt\n        /* \"#utility.yul\":3599:3718   */\n      iszero\n      tag_125\n      jumpi\n        /* \"#utility.yul\":3637:3716   */\n      tag_126\n      tag_104\n      jump\t// in\n    tag_126:\n        /* \"#utility.yul\":3599:3718   */\n    tag_125:\n        /* \"#utility.yul\":3757:3758   */\n      0x00\n        /* \"#utility.yul\":3782:3835   */\n      tag_127\n        /* \"#utility.yul\":3827:3834   */\n      dup5\n        /* \"#utility.yul\":3818:3824   */\n      dup3\n        /* \"#utility.yul\":3807:3816   */\n      dup6\n        /* \"#utility.yul\":3803:3825   */\n      add\n        /* \"#utility.yul\":3782:3835   */\n      tag_97\n      jump\t// in\n    tag_127:\n        /* \"#utility.yul\":3772:3835   */\n      swap2\n      pop\n        /* \"#utility.yul\":3728:3845   */\n      pop\n        /* \"#utility.yul\":3523:3852   */\n      swap3\n      swap2\n      pop\n      pop\n      jump\t// out\n        /* \"#utility.yul\":3858:3967   */\n    tag_128:\n        /* \"#utility.yul\":3939:3960   */\n      tag_130\n        /* \"#utility.yul\":3954:3959   */\n      dup2\n        /* \"#utility.yul\":3939:3960   */\n      tag_131\n      jump\t// in\n    tag_130:\n        /* \"#utility.yul\":3934:3937   */\n      dup3\n        /* \"#utility.yul\":3927:3961   */\n      mstore\n        /* \"#utility.yul\":3858:3967   */\n      pop\n      pop\n      jump\t// out\n        /* \"#utility.yul\":3997:4314   */\n    tag_132:\n        /* \"#utility.yul\":4113:4116   */\n      0x00\n        /* \"#utility.yul\":4134:4223   */\n      tag_134\n        /* \"#utility.yul\":4216:4222   */\n      dup4\n        /* \"#utility.yul\":4211:4214   */\n      dup6\n        /* \"#utility.yul\":4134:4223   */\n      tag_135\n      jump\t// in\n    tag_134:\n        /* \"#utility.yul\":4127:4223   */\n      swap4\n      pop\n        /* \"#utility.yul\":4233:4276   */\n      tag_136\n        /* \"#utility.yul\":4269:4275   */\n      dup4\n        /* \"#utility.yul\":4264:4267   */\n      dup6\n        /* \"#utility.yul\":4257:4262   */\n      dup5\n        /* \"#utility.yul\":4233:4276   */\n      tag_80\n      jump\t// in\n    tag_136:\n        /* \"#utility.yul\":4301:4307   */\n      dup3\n        /* \"#utility.yul\":4296:4299   */\n      dup5\n        /* \"#utility.yul\":4292:4308   */\n      add\n        /* \"#utility.yul\":4285:4308   */\n      swap1\n      pop\n        /* \"#utility.yul\":3997:4314   */\n      swap4\n      swap3\n      pop\n      pop\n      pop\n      jump\t// out\n        /* \"#utility.yul\":4320:4684   */\n    tag_137:\n        /* \"#utility.yul\":4408:4411   */\n      0x00\n        /* \"#utility.yul\":4436:4475   */\n      tag_139\n        /* \"#utility.yul\":4469:4474   */\n      dup3\n        /* \"#utility.yul\":4436:4475   */\n      tag_140\n      jump\t// in\n    tag_139:\n        /* \"#utility.yul\":4491:4562   */\n      tag_141\n        /* \"#utility.yul\":4555:4561   */\n      dup2\n        /* \"#utility.yul\":4550:4553   */\n      dup6\n        /* \"#utility.yul\":4491:4562   */\n      tag_142\n      jump\t// in\n    tag_141:\n        /* \"#utility.yul\":4484:4562   */\n      swap4\n      pop\n        /* \"#utility.yul\":4571:4623   */\n      tag_143\n        /* \"#utility.yul\":4616:4622   */\n      dup2\n        /* \"#utility.yul\":4611:4614   */\n      dup6\n        /* \"#utility.yul\":4604:4608   */\n      0x20\n        /* \"#utility.yul\":4597:4602   */\n      dup7\n        /* \"#utility.yul\":4593:4609   */\n      add\n        /* \"#utility.yul\":4571:4623   */\n      tag_144\n      jump\t// in\n    tag_143:\n        /* \"#utility.yul\":4648:4677   */\n      tag_145\n        /* \"#utility.yul\":4670:4676   */\n      dup2\n        /* \"#utility.yul\":4648:4677   */\n      tag_146\n      jump\t// in\n    tag_145:\n        /* \"#utility.yul\":4643:4646   */\n      dup5\n        /* \"#utility.yul\":4639:4678   */\n      add\n        /* \"#utility.yul\":4632:4678   */\n      swap2\n      pop\n        /* \"#utility.yul\":4412:4684   */\n      pop\n        /* \"#utility.yul\":4320:4684   */\n      swap3\n      swap2\n      pop\n      pop\n      jump\t// out\n        /* \"#utility.yul\":4690:4808   */\n    tag_147:\n        /* \"#utility.yul\":4777:4801   */\n      tag_149\n        /* \"#utility.yul\":4795:4800   */\n      dup2\n        /* \"#utility.yul\":4777:4801   */\n      tag_150\n      jump\t// in\n    tag_149:\n        /* \"#utility.yul\":4772:4775   */\n      dup3\n        /* \"#utility.yul\":4765:4802   */\n      mstore\n        /* \"#utility.yul\":4690:4808   */\n      pop\n      pop\n      jump\t// out\n        /* \"#utility.yul\":4814:5109   */\n    tag_29:\n        /* \"#utility.yul\":4956:4959   */\n      0x00\n        /* \"#utility.yul\":4978:5083   */\n      tag_152\n        /* \"#utility.yul\":5079:5082   */\n      dup3\n        /* \"#utility.yul\":5070:5076   */\n      dup5\n        /* \"#utility.yul\":5062:5068   */\n      dup7\n        /* \"#utility.yul\":4978:5083   */\n      tag_132\n      jump\t// in\n    tag_152:\n        /* \"#utility.yul\":4971:5083   */\n      swap2\n      pop\n        /* \"#utility.yul\":5100:5103   */\n      dup2\n        /* \"#utility.yul\":5093:5103   */\n      swap1\n      pop\n        /* \"#utility.yul\":4814:5109   */\n      swap4\n      swap3\n      pop\n      pop\n      pop\n      jump\t// out\n        /* \"#utility.yul\":5115:5428   */\n    tag_26:\n        /* \"#utility.yul\":5228:5232   */\n      0x00\n        /* \"#utility.yul\":5266:5268   */\n      0x20\n        /* \"#utility.yul\":5255:5264   */\n      dup3\n        /* \"#utility.yul\":5251:5269   */\n      add\n        /* \"#utility.yul\":5243:5269   */\n      swap1\n      pop\n        /* \"#utility.yul\":5315:5324   */\n      dup2\n        /* \"#utility.yul\":5309:5313   */\n      dup2\n        /* \"#utility.yul\":5305:5325   */\n      sub\n        /* \"#utility.yul\":5301:5302   */\n      0x00\n        /* \"#utility.yul\":5290:5299   */\n      dup4\n        /* \"#utility.yul\":5286:5303   */\n      add\n        /* \"#utility.yul\":5279:5326   */\n      mstore\n        /* \"#utility.yul\":5343:5421   */\n      tag_154\n        /* \"#utility.yul\":5416:5420   */\n      dup2\n        /* \"#utility.yul\":5407:5413   */\n      dup5\n        /* \"#utility.yul\":5343:5421   */\n      tag_137\n      jump\t// in\n    tag_154:\n        /* \"#utility.yul\":5335:5421   */\n      swap1\n      pop\n        /* \"#utility.yul\":5115:5428   */\n      swap3\n      swap2\n      pop\n      pop\n      jump\t// out\n        /* \"#utility.yul\":5434:5864   */\n    tag_12:\n        /* \"#utility.yul\":5577:5581   */\n      0x00\n        /* \"#utility.yul\":5615:5617   */\n      0x60\n        /* \"#utility.yul\":5604:5613   */\n      dup3\n        /* \"#utility.yul\":5600:5618   */\n      add\n        /* \"#utility.yul\":5592:5618   */\n      swap1\n      pop\n        /* \"#utility.yul\":5628:5699   */\n      tag_156\n        /* \"#utility.yul\":5696:5697   */\n      0x00\n        /* \"#utility.yul\":5685:5694   */\n      dup4\n        /* \"#utility.yul\":5681:5698   */\n      add\n        /* \"#utility.yul\":5672:5678   */\n      dup7\n        /* \"#utility.yul\":5628:5699   */\n      tag_147\n      jump\t// in\n    tag_156:\n        /* \"#utility.yul\":5709:5781   */\n      tag_157\n        /* \"#utility.yul\":5777:5779   */\n      0x20\n        /* \"#utility.yul\":5766:5775   */\n      dup4\n        /* \"#utility.yul\":5762:5780   */\n      add\n        /* \"#utility.yul\":5753:5759   */\n      dup6\n        /* \"#utility.yul\":5709:5781   */\n      tag_147\n      jump\t// in\n    tag_157:\n        /* \"#utility.yul\":5791:5857   */\n      tag_158\n        /* \"#utility.yul\":5853:5855   */\n      0x40\n        /* \"#utility.yul\":5842:5851   */\n      dup4\n        /* \"#utility.yul\":5838:5856   */\n      add\n        /* \"#utility.yul\":5829:5835   */\n      dup5\n        /* \"#utility.yul\":5791:5857   */\n      tag_128\n      jump\t// in\n    tag_158:\n        /* \"#utility.yul\":5434:5864   */\n      swap5\n      swap4\n      pop\n      pop\n      pop\n      pop\n      jump\t// out\n        /* \"#utility.yul\":5870:5999   */\n    tag_75:\n        /* \"#utility.yul\":5904:5910   */\n      0x00\n        /* \"#utility.yul\":5931:5951   */\n      tag_160\n      tag_161\n      jump\t// in\n    tag_160:\n        /* \"#utility.yul\":5921:5951   */\n      swap1\n      pop\n        /* \"#utility.yul\":5960:5993   */\n      tag_162\n        /* \"#utility.yul\":5988:5992   */\n      dup3\n        /* \"#utility.yul\":5980:5986   */\n      dup3\n        /* \"#utility.yul\":5960:5993   */\n      tag_163\n      jump\t// in\n    tag_162:\n        /* \"#utility.yul\":5870:5999   */\n      swap2\n      swap1\n      pop\n      jump\t// out\n        /* \"#utility.yul\":6005:6080   */\n    tag_161:\n        /* \"#utility.yul\":6038:6044   */\n      0x00\n        /* \"#utility.yul\":6071:6073   */\n      0x40\n        /* \"#utility.yul\":6065:6074   */\n      mload\n        /* \"#utility.yul\":6055:6074   */\n      swap1\n      pop\n        /* \"#utility.yul\":6005:6080   */\n      swap1\n      jump\t// out\n        /* \"#utility.yul\":6086:6394   */\n    tag_74:\n        /* \"#utility.yul\":6148:6152   */\n      0x00\n        /* \"#utility.yul\":6238:6256   */\n      0xffffffffffffffff\n        /* \"#utility.yul\":6230:6236   */\n      dup3\n        /* \"#utility.yul\":6227:6257   */\n      gt\n        /* \"#utility.yul\":6224:6280   */\n      iszero\n      tag_166\n      jumpi\n        /* \"#utility.yul\":6260:6278   */\n      tag_167\n      tag_168\n      jump\t// in\n    tag_167:\n        /* \"#utility.yul\":6224:6280   */\n    tag_166:\n        /* \"#utility.yul\":6298:6327   */\n      tag_169\n        /* \"#utility.yul\":6320:6326   */\n      dup3\n        /* \"#utility.yul\":6298:6327   */\n      tag_146\n      jump\t// in\n    tag_169:\n        /* \"#utility.yul\":6290:6327   */\n      swap1\n      pop\n        /* \"#utility.yul\":6382:6386   */\n      0x20\n        /* \"#utility.yul\":6376:6380   */\n      dup2\n        /* \"#utility.yul\":6372:6387   */\n      add\n        /* \"#utility.yul\":6364:6387   */\n      swap1\n      pop\n        /* \"#utility.yul\":6086:6394   */\n      swap2\n      swap1\n      pop\n      jump\t// out\n        /* \"#utility.yul\":6400:6499   */\n    tag_140:\n        /* \"#utility.yul\":6452:6458   */\n      0x00\n        /* \"#utility.yul\":6486:6491   */\n      dup2\n        /* \"#utility.yul\":6480:6492   */\n      mload\n        /* \"#utility.yul\":6470:6492   */\n      swap1\n      pop\n        /* \"#utility.yul\":6400:6499   */\n      swap2\n      swap1\n      pop\n      jump\t// out\n        /* \"#utility.yul\":6505:6674   */\n    tag_142:\n        /* \"#utility.yul\":6589:6600   */\n      0x00\n        /* \"#utility.yul\":6623:6629   */\n      dup3\n        /* \"#utility.yul\":6618:6621   */\n      dup3\n        /* \"#utility.yul\":6611:6630   */\n      mstore\n        /* \"#utility.yul\":6663:6667   */\n      0x20\n        /* \"#utility.yul\":6658:6661   */\n      dup3\n        /* \"#utility.yul\":6654:6668   */\n      add\n        /* \"#utility.yul\":6639:6668   */\n      swap1\n      pop\n        /* \"#utility.yul\":6505:6674   */\n      swap3\n      swap2\n      pop\n      pop\n      jump\t// out\n        /* \"#utility.yul\":6680:6828   */\n    tag_135:\n        /* \"#utility.yul\":6782:6793   */\n      0x00\n        /* \"#utility.yul\":6819:6822   */\n      dup2\n        /* \"#utility.yul\":6804:6822   */\n      swap1\n      pop\n        /* \"#utility.yul\":6680:6828   */\n      swap3\n      swap2\n      pop\n      pop\n      jump\t// out\n        /* \"#utility.yul\":6834:7139   */\n    tag_45:\n        /* \"#utility.yul\":6874:6877   */\n      0x00\n        /* \"#utility.yul\":6893:6913   */\n      tag_174\n        /* \"#utility.yul\":6911:6912   */\n      dup3\n        /* \"#utility.yul\":6893:6913   */\n      tag_150\n      jump\t// in\n    tag_174:\n        /* \"#utility.yul\":6888:6913   */\n      swap2\n      pop\n        /* \"#utility.yul\":6927:6947   */\n      tag_175\n        /* \"#utility.yul\":6945:6946   */\n      dup4\n        /* \"#utility.yul\":6927:6947   */\n      tag_150\n      jump\t// in\n    tag_175:\n        /* \"#utility.yul\":6922:6947   */\n      swap3\n      pop\n        /* \"#utility.yul\":7081:7082   */\n      dup3\n        /* \"#utility.yul\":7013:7079   */\n      0xffffffffffffffffffffffffffffffffffffffffffffffffffffffffffffffff\n        /* \"#utility.yul\":7009:7083   */\n      sub\n        /* \"#utility.yul\":7006:7007   */\n      dup3\n        /* \"#utility.yul\":7003:7084   */\n      gt\n        /* \"#utility.yul\":7000:7107   */\n      iszero\n      tag_176\n      jumpi\n        /* \"#utility.yul\":7087:7105   */\n      tag_177\n      tag_178\n      jump\t// in\n    tag_177:\n        /* \"#utility.yul\":7000:7107   */\n    tag_176:\n        /* \"#utility.yul\":7131:7132   */\n      dup3\n        /* \"#utility.yul\":7128:7129   */\n      dup3\n        /* \"#utility.yul\":7124:7133   */\n      add\n        /* \"#utility.yul\":7117:7133   */\n      swap1\n      pop\n        /* \"#utility.yul\":6834:7139   */\n      swap3\n      swap2\n      pop\n      pop\n      jump\t// out\n        /* \"#utility.yul\":7145:7235   */\n    tag_131:\n        /* \"#utility.yul\":7179:7186   */\n      0x00\n        /* \"#utility.yul\":7222:7227   */\n      dup2\n        /* \"#utility.yul\":7215:7228   */\n      iszero\n        /* \"#utility.yul\":7208:7229   */\n      iszero\n        /* \"#utility.yul\":7197:7229   */\n      swap1\n      pop\n        /* \"#utility.yul\":7145:7235   */\n      swap2\n      swap1\n      pop\n      jump\t// out\n        /* \"#utility.yul\":7241:7318   */\n    tag_150:\n        /* \"#utility.yul\":7278:7285   */\n      0x00\n        /* \"#utility.yul\":7307:7312   */\n      dup2\n        /* \"#utility.yul\":7296:7312   */\n      swap1\n      pop\n        /* \"#utility.yul\":7241:7318   */\n      swap2\n      swap1\n      pop\n      jump\t// out\n        /* \"#utility.yul\":7324:7478   */\n    tag_80:\n        /* \"#utility.yul\":7408:7414   */\n      dup3\n        /* \"#utility.yul\":7403:7406   */\n      dup2\n        /* \"#utility.yul\":7398:7401   */\n      dup4\n        /* \"#utility.yul\":7385:7415   */\n      calldatacopy\n        /* \"#utility.yul\":7470:7471   */\n      0x00\n        /* \"#utility.yul\":7461:7467   */\n      dup4\n        /* \"#utility.yul\":7456:7459   */\n      dup4\n        /* \"#utility.yul\":7452:7468   */\n      add\n        /* \"#utility.yul\":7445:7472   */\n      mstore\n        /* \"#utility.yul\":7324:7478   */\n      pop\n      pop\n      pop\n      jump\t// out\n        /* \"#utility.yul\":7484:7791   */\n    tag_144:\n        /* \"#utility.yul\":7552:7553   */\n      0x00\n        /* \"#utility.yul\":7562:7675   */\n    tag_183:\n        /* \"#utility.yul\":7576:7582   */\n      dup4\n        /* \"#utility.yul\":7573:7574   */\n      dup2\n        /* \"#utility.yul\":7570:7583   */\n      lt\n        /* \"#utility.yul\":7562:7675   */\n      iszero\n      tag_185\n      jumpi\n        /* \"#utility.yul\":7661:7662   */\n      dup1\n        /* \"#utility.yul\":7656:7659   */\n      dup3\n        /* \"#utility.yul\":7652:7663   */\n      add\n        /* \"#utility.yul\":7646:7664   */\n      mload\n        /* \"#utility.yul\":7642:7643   */\n      dup2\n        /* \"#utility.yul\":7637:7640   */\n      dup5\n        /* \"#utility.yul\":7633:7644   */\n      add\n        /* \"#utility.yul\":7626:7665   */\n      mstore\n        /* \"#utility.yul\":7598:7600   */\n      0x20\n        /* \"#utility.yul\":7595:7596   */\n      dup2\n        /* \"#utility.yul\":7591:7601   */\n      add\n        /* \"#utility.yul\":7586:7601   */\n      swap1\n      pop\n        /* \"#utility.yul\":7562:7675   */\n      jump(tag_183)\n    tag_185:\n        /* \"#utility.yul\":7693:7699   */\n      dup4\n        /* \"#utility.yul\":7690:7691   */\n      dup2\n        /* \"#utility.yul\":7687:7700   */\n      gt\n        /* \"#utility.yul\":7684:7785   */\n      iszero\n      tag_186\n      jumpi\n        /* \"#utility.yul\":7773:7774   */\n      0x00\n        /* \"#utility.yul\":7764:7770   */\n      dup5\n        /* \"#utility.yul\":7759:7762   */\n      dup5\n        /* \"#utility.yul\":7755:7771   */\n      add\n        /* \"#utility.yul\":7748:7775   */\n      mstore\n        /* \"#utility.yul\":7684:7785   */\n    tag_186:\n        /* \"#utility.yul\":7533:7791   */\n      pop\n        /* \"#utility.yul\":7484:7791   */\n      pop\n      pop\n      pop\n      jump\t// out\n        /* \"#utility.yul\":7797:8117   */\n    tag_50:\n        /* \"#utility.yul\":7841:7847   */\n      0x00\n        /* \"#utility.yul\":7878:7879   */\n      0x02\n        /* \"#utility.yul\":7872:7876   */\n      dup3\n        /* \"#utility.yul\":7868:7880   */\n      div\n        /* \"#utility.yul\":7858:7880   */\n      swap1\n      pop\n        /* \"#utility.yul\":7925:7926   */\n      0x01\n        /* \"#utility.yul\":7919:7923   */\n      dup3\n        /* \"#utility.yul\":7915:7927   */\n      and\n        /* \"#utility.yul\":7946:7964   */\n      dup1\n        /* \"#utility.yul\":7936:8017   */\n      tag_188\n      jumpi\n        /* \"#utility.yul\":8002:8006   */\n      0x7f\n        /* \"#utility.yul\":7994:8000   */\n      dup3\n        /* \"#utility.yul\":7990:8007   */\n      and\n        /* \"#utility.yul\":7980:8007   */\n      swap2\n      pop\n        /* \"#utility.yul\":7936:8017   */\n    tag_188:\n        /* \"#utility.yul\":8064:8066   */\n      0x20\n        /* \"#utility.yul\":8056:8062   */\n      dup3\n        /* \"#utility.yul\":8053:8067   */\n      lt\n        /* \"#utility.yul\":8033:8051   */\n      dup2\n        /* \"#utility.yul\":8030:8068   */\n      eq\n        /* \"#utility.yul\":8027:8111   */\n      iszero\n      tag_189\n      jumpi\n        /* \"#utility.yul\":8083:8101   */\n      tag_190\n      tag_191\n      jump\t// in\n    tag_190:\n        /* \"#utility.yul\":8027:8111   */\n    tag_189:\n        /* \"#utility.yul\":7848:8117   */\n      pop\n        /* \"#utility.yul\":7797:8117   */\n      swap2\n      swap1\n      pop\n      jump\t// out\n        /* \"#utility.yul\":8123:8404   */\n    tag_163:\n        /* \"#utility.yul\":8206:8233   */\n      tag_193\n        /* \"#utility.yul\":8228:8232   */\n      dup3\n        /* \"#utility.yul\":8206:8233   */\n      tag_146\n      jump\t// in\n    tag_193:\n        /* \"#utility.yul\":8198:8204   */\n      dup2\n        /* \"#utility.yul\":8194:8234   */\n      add\n        /* \"#utility.yul\":8336:8342   */\n      dup2\n        /* \"#utility.yul\":8324:8334   */\n      dup2\n        /* \"#utility.yul\":8321:8343   */\n      lt\n        /* \"#utility.yul\":8300:8318   */\n      0xffffffffffffffff\n        /* \"#utility.yul\":8288:8298   */\n      dup3\n        /* \"#utility.yul\":8285:8319   */\n      gt\n        /* \"#utility.yul\":8282:8344   */\n      or\n        /* \"#utility.yul\":8279:8367   */\n      iszero\n      tag_194\n      jumpi\n        /* \"#utility.yul\":8347:8365   */\n      tag_195\n      tag_168\n      jump\t// in\n    tag_195:\n        /* \"#utility.yul\":8279:8367   */\n    tag_194:\n        /* \"#utility.yul\":8387:8397   */\n      dup1\n        /* \"#utility.yul\":8383:8385   */\n      0x40\n        /* \"#utility.yul\":8376:8398   */\n      mstore\n        /* \"#utility.yul\":8166:8404   */\n      pop\n        /* \"#utility.yul\":8123:8404   */\n      pop\n      pop\n      jump\t// out\n        /* \"#utility.yul\":8410:8590   */\n    tag_178:\n        /* \"#utility.yul\":8458:8535   */\n      0x4e487b7100000000000000000000000000000000000000000000000000000000\n        /* \"#utility.yul\":8455:8456   */\n      0x00\n        /* \"#utility.yul\":8448:8536   */\n      mstore\n        /* \"#utility.yul\":8555:8559   */\n      0x11\n        /* \"#utility.yul\":8552:8553   */\n      0x04\n        /* \"#utility.yul\":8545:8560   */\n      mstore\n        /* \"#utility.yul\":8579:8583   */\n      0x24\n        /* \"#utility.yul\":8576:8577   */\n      0x00\n        /* \"#utility.yul\":8569:8584   */\n      revert\n        /* \"#utility.yul\":8596:8776   */\n    tag_191:\n        /* \"#utility.yul\":8644:8721   */\n      0x4e487b7100000000000000000000000000000000000000000000000000000000\n        /* \"#utility.yul\":8641:8642   */\n      0x00\n        /* \"#utility.yul\":8634:8722   */\n      mstore\n        /* \"#utility.yul\":8741:8745   */\n      0x22\n        /* \"#utility.yul\":8738:8739   */\n      0x04\n        /* \"#utility.yul\":8731:8746   */\n      mstore\n        /* \"#utility.yul\":8765:8769   */\n      0x24\n        /* \"#utility.yul\":8762:8763   */\n      0x00\n        /* \"#utility.yul\":8755:8770   */\n      revert\n        /* \"#utility.yul\":8782:8962   */\n    tag_168:\n        /* \"#utility.yul\":8830:8907   */\n      0x4e487b7100000000000000000000000000000000000000000000000000000000\n        /* \"#utility.yul\":8827:8828   */\n      0x00\n        /* \"#utility.yul\":8820:8908   */\n      mstore\n        /* \"#utility.yul\":8927:8931   */\n      0x41\n        /* \"#utility.yul\":8924:8925   */\n      0x04\n        /* \"#utility.yul\":8917:8932   */\n      mstore\n        /* \"#utility.yul\":8951:8955   */\n      0x24\n        /* \"#utility.yul\":8948:8949   */\n      0x00\n        /* \"#utility.yul\":8941:8956   */\n      revert\n        /* \"#utility.yul\":8968:9085   */\n    tag_88:\n        /* \"#utility.yul\":9077:9078   */\n      0x00\n        /* \"#utility.yul\":9074:9075   */\n      dup1\n        /* \"#utility.yul\":9067:9079   */\n      revert\n        /* \"#utility.yul\":9091:9208   */\n    tag_85:\n        /* \"#utility.yul\":9200:9201   */\n      0x00\n        /* \"#utility.yul\":9197:9198   */\n      dup1\n        /* \"#utility.yul\":9190:9202   */\n      revert\n        /* \"#utility.yul\":9214:9331   */\n    tag_91:\n        /* \"#utility.yul\":9323:9324   */\n      0x00\n        /* \"#utility.yul\":9320:9321   */\n      dup1\n        /* \"#utility.yul\":9313:9325   */\n      revert\n        /* \"#utility.yul\":9337:9454   */\n    tag_78:\n        /* \"#utility.yul\":9446:9447   */\n      0x00\n        /* \"#utility.yul\":9443:9444   */\n      dup1\n        /* \"#utility.yul\":9436:9448   */\n      revert\n        /* \"#utility.yul\":9460:9577   */\n    tag_107:\n        /* \"#utility.yul\":9569:9570   */\n      0x00\n        /* \"#utility.yul\":9566:9567   */\n      dup1\n        /* \"#utility.yul\":9559:9571   */\n      revert\n        /* \"#utility.yul\":9583:9700   */\n    tag_104:\n        /* \"#utility.yul\":9692:9693   */\n      0x00\n        /* \"#utility.yul\":9689:9690   */\n      dup1\n        /* \"#utility.yul\":9682:9694   */\n      revert\n        /* \"#utility.yul\":9706:9808   */\n    tag_146:\n        /* \"#utility.yul\":9747:9753   */\n      0x00\n        /* \"#utility.yul\":9798:9800   */\n      0x1f\n        /* \"#utility.yul\":9794:9801   */\n      not\n        /* \"#utility.yul\":9789:9791   */\n      0x1f\n        /* \"#utility.yul\":9782:9787   */\n      dup4\n        /* \"#utility.yul\":9778:9792   */\n      add\n        /* \"#utility.yul\":9774:9802   */\n      and\n        /* \"#utility.yul\":9764:9802   */\n      swap1\n      pop\n        /* \"#utility.yul\":9706:9808   */\n      swap2\n      swap1\n      pop\n      jump\t// out\n        /* \"#utility.yul\":9814:9936   */\n    tag_100:\n        /* \"#utility.yul\":9887:9911   */\n      tag_207\n        /* \"#utility.yul\":9905:9910   */\n      dup2\n        /* \"#utility.yul\":9887:9911   */\n      tag_150\n      jump\t// in\n    tag_207:\n        /* \"#utility.yul\":9880:9885   */\n      dup2\n        /* \"#utility.yul\":9877:9912   */\n      eq\n        /* \"#utility.yul\":9867:9930   */\n      tag_208\n      jumpi\n        /* \"#utility.yul\":9926:9927   */\n      0x00\n        /* \"#utility.yul\":9923:9924   */\n      dup1\n        /* \"#utility.yul\":9916:9928   */\n      revert\n        /* \"#utility.yul\":9867:9930   */\n    tag_208:\n        /* \"#utility.yul\":9814:9936   */\n      pop\n      jump\t// out\n\n    auxdata: 0xa26469706673582212207e9bf8c9e857947334e502051940dfe3da7208d8b3dce79a87835a75be278b4764736f6c63430008070033\n}\n",
				"bytecode": {
					"linkReferences": {},
					"object": "608060405234801561001057600080fd5b50610ae4806100206000396000f3fe608060405234801561001057600080fd5b506004361061004c5760003560e01c80630186a423146100515780630a5bd44b146100835780631d894eb81461009f578063e4bcc7d4146100bb575b600080fd5b61006b600480360381019061006691906106e9565b6100eb565b60405161007a93929190610816565b60405180910390f35b61009d60048036038101906100989190610675565b610138565b005b6100b960048036038101906100b49190610615565b61028b565b005b6100d560048036038101906100d09190610732565b610337565b6040516100e291906107f4565b60405180910390f35b6001818051602081018201805184825260208301602085012081835280955050505050506000915090508060000154908060010154908060030160009054906101000a900460ff16905083565b6001848460405161014a9291906107db565b908152602001604051809103902060030160009054906101000a900460ff16610253576101756103e3565b8281600001818152505081816020018181525050600181606001901515908115158152505080600186866040516101ad9291906107db565b9081526020016040518091039020600082015181600001556020820151816001015560408201518160020190805190602001906101eb92919061040d565b5060608201518160030160006101000a81548160ff021916908315150217905550905050600085859091806001815401808255809150506001900390600052602060002001600090919290919290919290919250919061024c929190610497565b5050610285565b6040517fb185df3a00000000000000000000000000000000000000000000000000000000815260040160405180910390fd5b50505050565b6001838360405161029d9291906107db565b908152602001604051809103902060030160009054906101000a900460ff16156103005780600184846040516102d49291906107db565b908152602001604051809103902060010160008282546102f491906108ca565b92505081905550610332565b6040517f7e8d96a900000000000000000000000000000000000000000000000000000000815260040160405180910390fd5b505050565b6000818154811061034757600080fd5b90600052602060002001600091509050805461036290610978565b80601f016020809104026020016040519081016040528092919081815260200182805461038e90610978565b80156103db5780601f106103b0576101008083540402835291602001916103db565b820191906000526020600020905b8154815290600101906020018083116103be57829003601f168201915b505050505081565b60405180608001604052806000815260200160008152602001606081526020016000151581525090565b828054828255906000526020600020908101928215610486579160200282015b828111156104855782518260006101000a81548173ffffffffffffffffffffffffffffffffffffffff021916908373ffffffffffffffffffffffffffffffffffffffff1602179055509160200191906001019061042d565b5b509050610493919061051d565b5090565b8280546104a390610978565b90600052602060002090601f0160209004810192826104c5576000855561050c565b82601f106104de57803560ff191683800117855561050c565b8280016001018555821561050c579182015b8281111561050b5782358255916020019190600101906104f0565b5b509050610519919061051d565b5090565b5b8082111561053657600081600090555060010161051e565b5090565b600061054d61054884610872565b61084d565b90508281526020810184848401111561056957610568610a77565b5b610574848285610936565b509392505050565b60008083601f84011261059257610591610a6d565b5b8235905067ffffffffffffffff8111156105af576105ae610a68565b5b6020830191508360018202830111156105cb576105ca610a72565b5b9250929050565b600082601f8301126105e7576105e6610a6d565b5b81356105f784826020860161053a565b91505092915050565b60008135905061060f81610a97565b92915050565b60008060006040848603121561062e5761062d610a81565b5b600084013567ffffffffffffffff81111561064c5761064b610a7c565b5b6106588682870161057c565b9350935050602061066b86828701610600565b9150509250925092565b6000806000806060858703121561068f5761068e610a81565b5b600085013567ffffffffffffffff8111156106ad576106ac610a7c565b5b6106b98782880161057c565b945094505060206106cc87828801610600565b92505060406106dd87828801610600565b91505092959194509250565b6000602082840312156106ff576106fe610a81565b5b600082013567ffffffffffffffff81111561071d5761071c610a7c565b5b610729848285016105d2565b91505092915050565b60006020828403121561074857610747610a81565b5b600061075684828501610600565b91505092915050565b61076881610920565b82525050565b600061077a83856108bf565b9350610787838584610936565b82840190509392505050565b600061079e826108a3565b6107a881856108ae565b93506107b8818560208601610945565b6107c181610a86565b840191505092915050565b6107d58161092c565b82525050565b60006107e882848661076e565b91508190509392505050565b6000602082019050818103600083015261080e8184610793565b905092915050565b600060608201905061082b60008301866107cc565b61083860208301856107cc565b610845604083018461075f565b949350505050565b6000610857610868565b905061086382826109aa565b919050565b6000604051905090565b600067ffffffffffffffff82111561088d5761088c610a39565b5b61089682610a86565b9050602081019050919050565b600081519050919050565b600082825260208201905092915050565b600081905092915050565b60006108d58261092c565b91506108e08361092c565b9250827fffffffffffffffffffffffffffffffffffffffffffffffffffffffffffffffff03821115610915576109146109db565b5b828201905092915050565b60008115159050919050565b6000819050919050565b82818337600083830152505050565b60005b83811015610963578082015181840152602081019050610948565b83811115610972576000848401525b50505050565b6000600282049050600182168061099057607f821691505b602082108114156109a4576109a3610a0a565b5b50919050565b6109b382610a86565b810181811067ffffffffffffffff821117156109d2576109d1610a39565b5b80604052505050565b7f4e487b7100000000000000000000000000000000000000000000000000000000600052601160045260246000fd5b7f4e487b7100000000000000000000000000000000000000000000000000000000600052602260045260246000fd5b7f4e487b7100000000000000000000000000000000000000000000000000000000600052604160045260246000fd5b600080fd5b600080fd5b600080fd5b600080fd5b600080fd5b600080fd5b6000601f19601f8301169050919050565b610aa08161092c565b8114610aab57600080fd5b5056fea26469706673582212207e9bf8c9e857947334e502051940dfe3da7208d8b3dce79a87835a75be278b4764736f6c63430008070033",
					"opcodes": "PUSH1 0x80 PUSH1 0x40 MSTORE CALLVALUE DUP1 ISZERO PUSH2 0x10 JUMPI PUSH1 0x0 DUP1 REVERT JUMPDEST POP PUSH2 0xAE4 DUP1 PUSH2 0x20 PUSH1 0x0 CODECOPY PUSH1 0x0 RETURN INVALID PUSH1 0x80 PUSH1 0x40 MSTORE CALLVALUE DUP1 ISZERO PUSH2 0x10 JUMPI PUSH1 0x0 DUP1 REVERT JUMPDEST POP PUSH1 0x4 CALLDATASIZE LT PUSH2 0x4C JUMPI PUSH1 0x0 CALLDATALOAD PUSH1 0xE0 SHR DUP1 PUSH4 0x186A423 EQ PUSH2 0x51 JUMPI DUP1 PUSH4 0xA5BD44B EQ PUSH2 0x83 JUMPI DUP1 PUSH4 0x1D894EB8 EQ PUSH2 0x9F JUMPI DUP1 PUSH4 0xE4BCC7D4 EQ PUSH2 0xBB JUMPI JUMPDEST PUSH1 0x0 DUP1 REVERT JUMPDEST PUSH2 0x6B PUSH1 0x4 DUP1 CALLDATASIZE SUB DUP2 ADD SWAP1 PUSH2 0x66 SWAP2 SWAP1 PUSH2 0x6E9 JUMP JUMPDEST PUSH2 0xEB JUMP JUMPDEST PUSH1 0x40 MLOAD PUSH2 0x7A SWAP4 SWAP3 SWAP2 SWAP1 PUSH2 0x816 JUMP JUMPDEST PUSH1 0x40 MLOAD DUP1 SWAP2 SUB SWAP1 RETURN JUMPDEST PUSH2 0x9D PUSH1 0x4 DUP1 CALLDATASIZE SUB DUP2 ADD SWAP1 PUSH2 0x98 SWAP2 SWAP1 PUSH2 0x675 JUMP JUMPDEST PUSH2 0x138 JUMP JUMPDEST STOP JUMPDEST PUSH2 0xB9 PUSH1 0x4 DUP1 CALLDATASIZE SUB DUP2 ADD SWAP1 PUSH2 0xB4 SWAP2 SWAP1 PUSH2 0x615 JUMP JUMPDEST PUSH2 0x28B JUMP JUMPDEST STOP JUMPDEST PUSH2 0xD5 PUSH1 0x4 DUP1 CALLDATASIZE SUB DUP2 ADD SWAP1 PUSH2 0xD0 SWAP2 SWAP1 PUSH2 0x732 JUMP JUMPDEST PUSH2 0x337 JUMP JUMPDEST PUSH1 0x40 MLOAD PUSH2 0xE2 SWAP2 SWAP1 PUSH2 0x7F4 JUMP JUMPDEST PUSH1 0x40 MLOAD DUP1 SWAP2 SUB SWAP1 RETURN JUMPDEST PUSH1 0x1 DUP2 DUP1 MLOAD PUSH1 0x20 DUP2 ADD DUP3 ADD DUP1 MLOAD DUP5 DUP3 MSTORE PUSH1 0x20 DUP4 ADD PUSH1 0x20 DUP6 ADD KECCAK256 DUP2 DUP4 MSTORE DUP1 SWAP6 POP POP POP POP POP POP PUSH1 0x0 SWAP2 POP SWAP1 POP DUP1 PUSH1 0x0 ADD SLOAD SWAP1 DUP1 PUSH1 0x1 ADD SLOAD SWAP1 DUP1 PUSH1 0x3 ADD PUSH1 0x0 SWAP1 SLOAD SWAP1 PUSH2 0x100 EXP SWAP1 DIV PUSH1 0xFF AND SWAP1 POP DUP4 JUMP JUMPDEST PUSH1 0x1 DUP5 DUP5 PUSH1 0x40 MLOAD PUSH2 0x14A SWAP3 SWAP2 SWAP1 PUSH2 0x7DB JUMP JUMPDEST SWAP1 DUP2 MSTORE PUSH1 0x20 ADD PUSH1 0x40 MLOAD DUP1 SWAP2 SUB SWAP1 KECCAK256 PUSH1 0x3 ADD PUSH1 0x0 SWAP1 SLOAD SWAP1 PUSH2 0x100 EXP SWAP1 DIV PUSH1 0xFF AND PUSH2 0x253 JUMPI PUSH2 0x175 PUSH2 0x3E3 JUMP JUMPDEST DUP3 DUP2 PUSH1 0x0 ADD DUP2 DUP2 MSTORE POP POP DUP2 DUP2 PUSH1 0x20 ADD DUP2 DUP2 MSTORE POP POP PUSH1 0x1 DUP2 PUSH1 0x60 ADD SWAP1 ISZERO ISZERO SWAP1 DUP2 ISZERO ISZERO DUP2 MSTORE POP POP DUP1 PUSH1 0x1 DUP7 DUP7 PUSH1 0x40 MLOAD PUSH2 0x1AD SWAP3 SWAP2 SWAP1 PUSH2 0x7DB JUMP JUMPDEST SWAP1 DUP2 MSTORE PUSH1 0x20 ADD PUSH1 0x40 MLOAD DUP1 SWAP2 SUB SWAP1 KECCAK256 PUSH1 0x0 DUP3 ADD MLOAD DUP2 PUSH1 0x0 ADD SSTORE PUSH1 0x20 DUP3 ADD MLOAD DUP2 PUSH1 0x1 ADD SSTORE PUSH1 0x40 DUP3 ADD MLOAD DUP2 PUSH1 0x2 ADD SWAP1 DUP1 MLOAD SWAP1 PUSH1 0x20 ADD SWAP1 PUSH2 0x1EB SWAP3 SWAP2 SWAP1 PUSH2 0x40D JUMP JUMPDEST POP PUSH1 0x60 DUP3 ADD MLOAD DUP2 PUSH1 0x3 ADD PUSH1 0x0 PUSH2 0x100 EXP DUP2 SLOAD DUP2 PUSH1 0xFF MUL NOT AND SWAP1 DUP4 ISZERO ISZERO MUL OR SWAP1 SSTORE POP SWAP1 POP POP PUSH1 0x0 DUP6 DUP6 SWAP1 SWAP2 DUP1 PUSH1 0x1 DUP2 SLOAD ADD DUP1 DUP3 SSTORE DUP1 SWAP2 POP POP PUSH1 0x1 SWAP1 SUB SWAP1 PUSH1 0x0 MSTORE PUSH1 0x20 PUSH1 0x0 KECCAK256 ADD PUSH1 0x0 SWAP1 SWAP2 SWAP3 SWAP1 SWAP2 SWAP3 SWAP1 SWAP2 SWAP3 SWAP1 SWAP2 SWAP3 POP SWAP2 SWAP1 PUSH2 0x24C SWAP3 SWAP2 SWAP1 PUSH2 0x497 JUMP JUMPDEST POP POP PUSH2 0x285 JUMP JUMPDEST PUSH1 0x40 MLOAD PUSH32 0xB185DF3A00000000000000000000000000000000000000000000000000000000 DUP2 MSTORE PUSH1 0x4 ADD PUSH1 0x40 MLOAD DUP1 SWAP2 SUB SWAP1 REVERT JUMPDEST POP POP POP POP JUMP JUMPDEST PUSH1 0x1 DUP4 DUP4 PUSH1 0x40 MLOAD PUSH2 0x29D SWAP3 SWAP2 SWAP1 PUSH2 0x7DB JUMP JUMPDEST SWAP1 DUP2 MSTORE PUSH1 0x20 ADD PUSH1 0x40 MLOAD DUP1 SWAP2 SUB SWAP1 KECCAK256 PUSH1 0x3 ADD PUSH1 0x0 SWAP1 SLOAD SWAP1 PUSH2 0x100 EXP SWAP1 DIV PUSH1 0xFF AND ISZERO PUSH2 0x300 JUMPI DUP1 PUSH1 0x1 DUP5 DUP5 PUSH1 0x40 MLOAD PUSH2 0x2D4 SWAP3 SWAP2 SWAP1 PUSH2 0x7DB JUMP JUMPDEST SWAP1 DUP2 MSTORE PUSH1 0x20 ADD PUSH1 0x40 MLOAD DUP1 SWAP2 SUB SWAP1 KECCAK256 PUSH1 0x1 ADD PUSH1 0x0 DUP3 DUP3 SLOAD PUSH2 0x2F4 SWAP2 SWAP1 PUSH2 0x8CA JUMP JUMPDEST SWAP3 POP POP DUP2 SWAP1 SSTORE POP PUSH2 0x332 JUMP JUMPDEST PUSH1 0x40 MLOAD PUSH32 0x7E8D96A900000000000000000000000000000000000000000000000000000000 DUP2 MSTORE PUSH1 0x4 ADD PUSH1 0x40 MLOAD DUP1 SWAP2 SUB SWAP1 REVERT JUMPDEST POP POP POP JUMP JUMPDEST PUSH1 0x0 DUP2 DUP2 SLOAD DUP2 LT PUSH2 0x347 JUMPI PUSH1 0x0 DUP1 REVERT JUMPDEST SWAP1 PUSH1 0x0 MSTORE PUSH1 0x20 PUSH1 0x0 KECCAK256 ADD PUSH1 0x0 SWAP2 POP SWAP1 POP DUP1 SLOAD PUSH2 0x362 SWAP1 PUSH2 0x978 JUMP JUMPDEST DUP1 PUSH1 0x1F ADD PUSH1 0x20 DUP1 SWAP2 DIV MUL PUSH1 0x20 ADD PUSH1 0x40 MLOAD SWAP1 DUP2 ADD PUSH1 0x40 MSTORE DUP1 SWAP3 SWAP2 SWAP1 DUP2 DUP2 MSTORE PUSH1 0x20 ADD DUP3 DUP1 SLOAD PUSH2 0x38E SWAP1 PUSH2 0x978 JUMP JUMPDEST DUP1 ISZERO PUSH2 0x3DB JUMPI DUP1 PUSH1 0x1F LT PUSH2 0x3B0 JUMPI PUSH2 0x100 DUP1 DUP4 SLOAD DIV MUL DUP4 MSTORE SWAP2 PUSH1 0x20 ADD SWAP2 PUSH2 0x3DB JUMP JUMPDEST DUP3 ADD SWAP2 SWAP1 PUSH1 0x0 MSTORE PUSH1 0x20 PUSH1 0x0 KECCAK256 SWAP1 JUMPDEST DUP2 SLOAD DUP2 MSTORE SWAP1 PUSH1 0x1 ADD SWAP1 PUSH1 0x20 ADD DUP1 DUP4 GT PUSH2 0x3BE JUMPI DUP3 SWAP1 SUB PUSH1 0x1F AND DUP3 ADD SWAP2 JUMPDEST POP POP POP POP POP DUP2 JUMP JUMPDEST PUSH1 0x40 MLOAD DUP1 PUSH1 0x80 ADD PUSH1 0x40 MSTORE DUP1 PUSH1 0x0 DUP2 MSTORE PUSH1 0x20 ADD PUSH1 0x0 DUP2 MSTORE PUSH1 0x20 ADD PUSH1 0x60 DUP2 MSTORE PUSH1 0x20 ADD PUSH1 0x0 ISZERO ISZERO DUP2 MSTORE POP SWAP1 JUMP JUMPDEST DUP3 DUP1 SLOAD DUP3 DUP3 SSTORE SWAP1 PUSH1 0x0 MSTORE PUSH1 0x20 PUSH1 0x0 KECCAK256 SWAP1 DUP2 ADD SWAP3 DUP3 ISZERO PUSH2 0x486 JUMPI SWAP2 PUSH1 0x20 MUL DUP3 ADD JUMPDEST DUP3 DUP2 GT ISZERO PUSH2 0x485 JUMPI DUP3 MLOAD DUP3 PUSH1 0x0 PUSH2 0x100 EXP DUP2 SLOAD DUP2 PUSH20 0xFFFFFFFFFFFFFFFFFFFFFFFFFFFFFFFFFFFFFFFF MUL NOT AND SWAP1 DUP4 PUSH20 0xFFFFFFFFFFFFFFFFFFFFFFFFFFFFFFFFFFFFFFFF AND MUL OR SWAP1 SSTORE POP SWAP2 PUSH1 0x20 ADD SWAP2 SWAP1 PUSH1 0x1 ADD SWAP1 PUSH2 0x42D JUMP JUMPDEST JUMPDEST POP SWAP1 POP PUSH2 0x493 SWAP2 SWAP1 PUSH2 0x51D JUMP JUMPDEST POP SWAP1 JUMP JUMPDEST DUP3 DUP1 SLOAD PUSH2 0x4A3 SWAP1 PUSH2 0x978 JUMP JUMPDEST SWAP1 PUSH1 0x0 MSTORE PUSH1 0x20 PUSH1 0x0 KECCAK256 SWAP1 PUSH1 0x1F ADD PUSH1 0x20 SWAP1 DIV DUP2 ADD SWAP3 DUP3 PUSH2 0x4C5 JUMPI PUSH1 0x0 DUP6 SSTORE PUSH2 0x50C JUMP JUMPDEST DUP3 PUSH1 0x1F LT PUSH2 0x4DE JUMPI DUP1 CALLDATALOAD PUSH1 0xFF NOT AND DUP4 DUP1 ADD OR DUP6 SSTORE PUSH2 0x50C JUMP JUMPDEST DUP3 DUP1 ADD PUSH1 0x1 ADD DUP6 SSTORE DUP3 ISZERO PUSH2 0x50C JUMPI SWAP2 DUP3 ADD JUMPDEST DUP3 DUP2 GT ISZERO PUSH2 0x50B JUMPI DUP3 CALLDATALOAD DUP3 SSTORE SWAP2 PUSH1 0x20 ADD SWAP2 SWAP1 PUSH1 0x1 ADD SWAP1 PUSH2 0x4F0 JUMP JUMPDEST JUMPDEST POP SWAP1 POP PUSH2 0x519 SWAP2 SWAP1 PUSH2 0x51D JUMP JUMPDEST POP SWAP1 JUMP JUMPDEST JUMPDEST DUP1 DUP3 GT ISZERO PUSH2 0x536 JUMPI PUSH1 0x0 DUP2 PUSH1 0x0 SWAP1 SSTORE POP PUSH1 0x1 ADD PUSH2 0x51E JUMP JUMPDEST POP SWAP1 JUMP JUMPDEST PUSH1 0x0 PUSH2 0x54D PUSH2 0x548 DUP5 PUSH2 0x872 JUMP JUMPDEST PUSH2 0x84D JUMP JUMPDEST SWAP1 POP DUP3 DUP2 MSTORE PUSH1 0x20 DUP2 ADD DUP5 DUP5 DUP5 ADD GT ISZERO PUSH2 0x569 JUMPI PUSH2 0x568 PUSH2 0xA77 JUMP JUMPDEST JUMPDEST PUSH2 0x574 DUP5 DUP3 DUP6 PUSH2 0x936 JUMP JUMPDEST POP SWAP4 SWAP3 POP POP POP JUMP JUMPDEST PUSH1 0x0 DUP1 DUP4 PUSH1 0x1F DUP5 ADD SLT PUSH2 0x592 JUMPI PUSH2 0x591 PUSH2 0xA6D JUMP JUMPDEST JUMPDEST DUP3 CALLDATALOAD SWAP1 POP PUSH8 0xFFFFFFFFFFFFFFFF DUP2 GT ISZERO PUSH2 0x5AF JUMPI PUSH2 0x5AE PUSH2 0xA68 JUMP JUMPDEST JUMPDEST PUSH1 0x20 DUP4 ADD SWAP2 POP DUP4 PUSH1 0x1 DUP3 MUL DUP4 ADD GT ISZERO PUSH2 0x5CB JUMPI PUSH2 0x5CA PUSH2 0xA72 JUMP JUMPDEST JUMPDEST SWAP3 POP SWAP3 SWAP1 POP JUMP JUMPDEST PUSH1 0x0 DUP3 PUSH1 0x1F DUP4 ADD SLT PUSH2 0x5E7 JUMPI PUSH2 0x5E6 PUSH2 0xA6D JUMP JUMPDEST JUMPDEST DUP2 CALLDATALOAD PUSH2 0x5F7 DUP5 DUP3 PUSH1 0x20 DUP7 ADD PUSH2 0x53A JUMP JUMPDEST SWAP2 POP POP SWAP3 SWAP2 POP POP JUMP JUMPDEST PUSH1 0x0 DUP2 CALLDATALOAD SWAP1 POP PUSH2 0x60F DUP2 PUSH2 0xA97 JUMP JUMPDEST SWAP3 SWAP2 POP POP JUMP JUMPDEST PUSH1 0x0 DUP1 PUSH1 0x0 PUSH1 0x40 DUP5 DUP7 SUB SLT ISZERO PUSH2 0x62E JUMPI PUSH2 0x62D PUSH2 0xA81 JUMP JUMPDEST JUMPDEST PUSH1 0x0 DUP5 ADD CALLDATALOAD PUSH8 0xFFFFFFFFFFFFFFFF DUP2 GT ISZERO PUSH2 0x64C JUMPI PUSH2 0x64B PUSH2 0xA7C JUMP JUMPDEST JUMPDEST PUSH2 0x658 DUP7 DUP3 DUP8 ADD PUSH2 0x57C JUMP JUMPDEST SWAP4 POP SWAP4 POP POP PUSH1 0x20 PUSH2 0x66B DUP7 DUP3 DUP8 ADD PUSH2 0x600 JUMP JUMPDEST SWAP2 POP POP SWAP3 POP SWAP3 POP SWAP3 JUMP JUMPDEST PUSH1 0x0 DUP1 PUSH1 0x0 DUP1 PUSH1 0x60 DUP6 DUP8 SUB SLT ISZERO PUSH2 0x68F JUMPI PUSH2 0x68E PUSH2 0xA81 JUMP JUMPDEST JUMPDEST PUSH1 0x0 DUP6 ADD CALLDATALOAD PUSH8 0xFFFFFFFFFFFFFFFF DUP2 GT ISZERO PUSH2 0x6AD JUMPI PUSH2 0x6AC PUSH2 0xA7C JUMP JUMPDEST JUMPDEST PUSH2 0x6B9 DUP8 DUP3 DUP9 ADD PUSH2 0x57C JUMP JUMPDEST SWAP5 POP SWAP5 POP POP PUSH1 0x20 PUSH2 0x6CC DUP8 DUP3 DUP9 ADD PUSH2 0x600 JUMP JUMPDEST SWAP3 POP POP PUSH1 0x40 PUSH2 0x6DD DUP8 DUP3 DUP9 ADD PUSH2 0x600 JUMP JUMPDEST SWAP2 POP POP SWAP3 SWAP6 SWAP2 SWAP5 POP SWAP3 POP JUMP JUMPDEST PUSH1 0x0 PUSH1 0x20 DUP3 DUP5 SUB SLT ISZERO PUSH2 0x6FF JUMPI PUSH2 0x6FE PUSH2 0xA81 JUMP JUMPDEST JUMPDEST PUSH1 0x0 DUP3 ADD CALLDATALOAD PUSH8 0xFFFFFFFFFFFFFFFF DUP2 GT ISZERO PUSH2 0x71D JUMPI PUSH2 0x71C PUSH2 0xA7C JUMP JUMPDEST JUMPDEST PUSH2 0x729 DUP5 DUP3 DUP6 ADD PUSH2 0x5D2 JUMP JUMPDEST SWAP2 POP POP SWAP3 SWAP2 POP POP JUMP JUMPDEST PUSH1 0x0 PUSH1 0x20 DUP3 DUP5 SUB SLT ISZERO PUSH2 0x748 JUMPI PUSH2 0x747 PUSH2 0xA81 JUMP JUMPDEST JUMPDEST PUSH1 0x0 PUSH2 0x756 DUP5 DUP3 DUP6 ADD PUSH2 0x600 JUMP JUMPDEST SWAP2 POP POP SWAP3 SWAP2 POP POP JUMP JUMPDEST PUSH2 0x768 DUP2 PUSH2 0x920 JUMP JUMPDEST DUP3 MSTORE POP POP JUMP JUMPDEST PUSH1 0x0 PUSH2 0x77A DUP4 DUP6 PUSH2 0x8BF JUMP JUMPDEST SWAP4 POP PUSH2 0x787 DUP4 DUP6 DUP5 PUSH2 0x936 JUMP JUMPDEST DUP3 DUP5 ADD SWAP1 POP SWAP4 SWAP3 POP POP POP JUMP JUMPDEST PUSH1 0x0 PUSH2 0x79E DUP3 PUSH2 0x8A3 JUMP JUMPDEST PUSH2 0x7A8 DUP2 DUP6 PUSH2 0x8AE JUMP JUMPDEST SWAP4 POP PUSH2 0x7B8 DUP2 DUP6 PUSH1 0x20 DUP7 ADD PUSH2 0x945 JUMP JUMPDEST PUSH2 0x7C1 DUP2 PUSH2 0xA86 JUMP JUMPDEST DUP5 ADD SWAP2 POP POP SWAP3 SWAP2 POP POP JUMP JUMPDEST PUSH2 0x7D5 DUP2 PUSH2 0x92C JUMP JUMPDEST DUP3 MSTORE POP POP JUMP JUMPDEST PUSH1 0x0 PUSH2 0x7E8 DUP3 DUP5 DUP7 PUSH2 0x76E JUMP JUMPDEST SWAP2 POP DUP2 SWAP1 POP SWAP4 SWAP3 POP POP POP JUMP JUMPDEST PUSH1 0x0 PUSH1 0x20 DUP3 ADD SWAP1 POP DUP2 DUP2 SUB PUSH1 0x0 DUP4 ADD MSTORE PUSH2 0x80E DUP2 DUP5 PUSH2 0x793 JUMP JUMPDEST SWAP1 POP SWAP3 SWAP2 POP POP JUMP JUMPDEST PUSH1 0x0 PUSH1 0x60 DUP3 ADD SWAP1 POP PUSH2 0x82B PUSH1 0x0 DUP4 ADD DUP7 PUSH2 0x7CC JUMP JUMPDEST PUSH2 0x838 PUSH1 0x20 DUP4 ADD DUP6 PUSH2 0x7CC JUMP JUMPDEST PUSH2 0x845 PUSH1 0x40 DUP4 ADD DUP5 PUSH2 0x75F JUMP JUMPDEST SWAP5 SWAP4 POP POP POP POP JUMP JUMPDEST PUSH1 0x0 PUSH2 0x857 PUSH2 0x868 JUMP JUMPDEST SWAP1 POP PUSH2 0x863 DUP3 DUP3 PUSH2 0x9AA JUMP JUMPDEST SWAP2 SWAP1 POP JUMP JUMPDEST PUSH1 0x0 PUSH1 0x40 MLOAD SWAP1 POP SWAP1 JUMP JUMPDEST PUSH1 0x0 PUSH8 0xFFFFFFFFFFFFFFFF DUP3 GT ISZERO PUSH2 0x88D JUMPI PUSH2 0x88C PUSH2 0xA39 JUMP JUMPDEST JUMPDEST PUSH2 0x896 DUP3 PUSH2 0xA86 JUMP JUMPDEST SWAP1 POP PUSH1 0x20 DUP2 ADD SWAP1 POP SWAP2 SWAP1 POP JUMP JUMPDEST PUSH1 0x0 DUP2 MLOAD SWAP1 POP SWAP2 SWAP1 POP JUMP JUMPDEST PUSH1 0x0 DUP3 DUP3 MSTORE PUSH1 0x20 DUP3 ADD SWAP1 POP SWAP3 SWAP2 POP POP JUMP JUMPDEST PUSH1 0x0 DUP2 SWAP1 POP SWAP3 SWAP2 POP POP JUMP JUMPDEST PUSH1 0x0 PUSH2 0x8D5 DUP3 PUSH2 0x92C JUMP JUMPDEST SWAP2 POP PUSH2 0x8E0 DUP4 PUSH2 0x92C JUMP JUMPDEST SWAP3 POP DUP3 PUSH32 0xFFFFFFFFFFFFFFFFFFFFFFFFFFFFFFFFFFFFFFFFFFFFFFFFFFFFFFFFFFFFFFFF SUB DUP3 GT ISZERO PUSH2 0x915 JUMPI PUSH2 0x914 PUSH2 0x9DB JUMP JUMPDEST JUMPDEST DUP3 DUP3 ADD SWAP1 POP SWAP3 SWAP2 POP POP JUMP JUMPDEST PUSH1 0x0 DUP2 ISZERO ISZERO SWAP1 POP SWAP2 SWAP1 POP JUMP JUMPDEST PUSH1 0x0 DUP2 SWAP1 POP SWAP2 SWAP1 POP JUMP JUMPDEST DUP3 DUP2 DUP4 CALLDATACOPY PUSH1 0x0 DUP4 DUP4 ADD MSTORE POP POP POP JUMP JUMPDEST PUSH1 0x0 JUMPDEST DUP4 DUP2 LT ISZERO PUSH2 0x963 JUMPI DUP1 DUP3 ADD MLOAD DUP2 DUP5 ADD MSTORE PUSH1 0x20 DUP2 ADD SWAP1 POP PUSH2 0x948 JUMP JUMPDEST DUP4 DUP2 GT ISZERO PUSH2 0x972 JUMPI PUSH1 0x0 DUP5 DUP5 ADD MSTORE JUMPDEST POP POP POP POP JUMP JUMPDEST PUSH1 0x0 PUSH1 0x2 DUP3 DIV SWAP1 POP PUSH1 0x1 DUP3 AND DUP1 PUSH2 0x990 JUMPI PUSH1 0x7F DUP3 AND SWAP2 POP JUMPDEST PUSH1 0x20 DUP3 LT DUP2 EQ ISZERO PUSH2 0x9A4 JUMPI PUSH2 0x9A3 PUSH2 0xA0A JUMP JUMPDEST JUMPDEST POP SWAP2 SWAP1 POP JUMP JUMPDEST PUSH2 0x9B3 DUP3 PUSH2 0xA86 JUMP JUMPDEST DUP2 ADD DUP2 DUP2 LT PUSH8 0xFFFFFFFFFFFFFFFF DUP3 GT OR ISZERO PUSH2 0x9D2 JUMPI PUSH2 0x9D1 PUSH2 0xA39 JUMP JUMPDEST JUMPDEST DUP1 PUSH1 0x40 MSTORE POP POP POP JUMP JUMPDEST PUSH32 0x4E487B7100000000000000000000000000000000000000000000000000000000 PUSH1 0x0 MSTORE PUSH1 0x11 PUSH1 0x4 MSTORE PUSH1 0x24 PUSH1 0x0 REVERT JUMPDEST PUSH32 0x4E487B7100000000000000000000000000000000000000000000000000000000 PUSH1 0x0 MSTORE PUSH1 0x22 PUSH1 0x4 MSTORE PUSH1 0x24 PUSH1 0x0 REVERT JUMPDEST PUSH32 0x4E487B7100000000000000000000000000000000000000000000000000000000 PUSH1 0x0 MSTORE PUSH1 0x41 PUSH1 0x4 MSTORE PUSH1 0x24 PUSH1 0x0 REVERT JUMPDEST PUSH1 0x0 DUP1 REVERT JUMPDEST PUSH1 0x0 DUP1 REVERT JUMPDEST PUSH1 0x0 DUP1 REVERT JUMPDEST PUSH1 0x0 DUP1 REVERT JUMPDEST PUSH1 0x0 DUP1 REVERT JUMPDEST PUSH1 0x0 DUP1 REVERT JUMPDEST PUSH1 0x0 PUSH1 0x1F NOT PUSH1 0x1F DUP4 ADD AND SWAP1 POP SWAP2 SWAP1 POP JUMP JUMPDEST PUSH2 0xAA0 DUP2 PUSH2 0x92C JUMP JUMPDEST DUP2 EQ PUSH2 0xAAB JUMPI PUSH1 0x0 DUP1 REVERT JUMPDEST POP JUMP INVALID LOG2 PUSH5 0x6970667358 0x22 SLT KECCAK256 PUSH31 0x9BF8C9E857947334E502051940DFE3DA7208D8B3DCE79A87835A75BE278B47 PUSH5 0x736F6C6343 STOP ADDMOD SMOD STOP CALLER "
				},
				"gasEstimates": {
					"creation": {
						"codeDepositCost": "557600",
						"executionCost": "594",
						"totalCost": "558194"
					},
					"external": {
						"addNewProduct(string,uint256,uint256)": "infinite",
						"availableProducts(uint256)": "infinite",
						"products(string)": "infinite",
						"updateQuantity(string,uint256)": "infinite"
					}
				},
				"methodIdentifiers": {
					"addNewProduct(string,uint256,uint256)": "0a5bd44b",
					"availableProducts(uint256)": "e4bcc7d4",
					"products(string)": "0186a423",
					"updateQuantity(string,uint256)": "1d894eb8"
				}
			},
			"storageLayout": {
				"storage": [
					{
						"astId": 23,
						"contract": "Project/TechnoLime.sol:TechnoLimeStore",
						"label": "availableProducts",
						"offset": 0,
						"slot": "0",
						"type": "t_array(t_string_storage)dyn_storage"
					},
					{
						"astId": 28,
						"contract": "Project/TechnoLime.sol:TechnoLimeStore",
						"label": "products",
						"offset": 0,
						"slot": "1",
						"type": "t_mapping(t_string_memory_ptr,t_struct(Product)20_storage)"
					},
					{
						"astId": 40,
						"contract": "Project/TechnoLime.sol:TechnoLimeStore",
						"label": "transactions",
						"offset": 0,
						"slot": "2",
						"type": "t_mapping(t_uint256,t_mapping(t_address,t_struct(Transaction)33_storage))"
					}
				],
				"types": {
					"t_address": {
						"encoding": "inplace",
						"label": "address",
						"numberOfBytes": "20"
					},
					"t_array(t_address)dyn_storage": {
						"base": "t_address",
						"encoding": "dynamic_array",
						"label": "address[]",
						"numberOfBytes": "32"
					},
					"t_array(t_string_storage)dyn_storage": {
						"base": "t_string_storage",
						"encoding": "dynamic_array",
						"label": "string[]",
						"numberOfBytes": "32"
					},
					"t_bool": {
						"encoding": "inplace",
						"label": "bool",
						"numberOfBytes": "1"
					},
					"t_mapping(t_address,t_struct(Transaction)33_storage)": {
						"encoding": "mapping",
						"key": "t_address",
						"label": "mapping(address => struct TechnoLimeStore.Transaction)",
						"numberOfBytes": "32",
						"value": "t_struct(Transaction)33_storage"
					},
					"t_mapping(t_string_memory_ptr,t_struct(Product)20_storage)": {
						"encoding": "mapping",
						"key": "t_string_memory_ptr",
						"label": "mapping(string => struct TechnoLimeStore.Product)",
						"numberOfBytes": "32",
						"value": "t_struct(Product)20_storage"
					},
					"t_mapping(t_uint256,t_mapping(t_address,t_struct(Transaction)33_storage))": {
						"encoding": "mapping",
						"key": "t_uint256",
						"label": "mapping(uint256 => mapping(address => struct TechnoLimeStore.Transaction))",
						"numberOfBytes": "32",
						"value": "t_mapping(t_address,t_struct(Transaction)33_storage)"
					},
					"t_string_memory_ptr": {
						"encoding": "bytes",
						"label": "string",
						"numberOfBytes": "32"
					},
					"t_string_storage": {
						"encoding": "bytes",
						"label": "string",
						"numberOfBytes": "32"
					},
					"t_struct(Product)20_storage": {
						"encoding": "inplace",
						"label": "struct TechnoLimeStore.Product",
						"members": [
							{
								"astId": 12,
								"contract": "Project/TechnoLime.sol:TechnoLimeStore",
								"label": "price",
								"offset": 0,
								"slot": "0",
								"type": "t_uint256"
							},
							{
								"astId": 14,
								"contract": "Project/TechnoLime.sol:TechnoLimeStore",
								"label": "quantity",
								"offset": 0,
								"slot": "1",
								"type": "t_uint256"
							},
							{
								"astId": 17,
								"contract": "Project/TechnoLime.sol:TechnoLimeStore",
								"label": "buyers",
								"offset": 0,
								"slot": "2",
								"type": "t_array(t_address)dyn_storage"
							},
							{
								"astId": 19,
								"contract": "Project/TechnoLime.sol:TechnoLimeStore",
								"label": "exists",
								"offset": 0,
								"slot": "3",
								"type": "t_bool"
							}
						],
						"numberOfBytes": "128"
					},
					"t_struct(Transaction)33_storage": {
						"encoding": "inplace",
						"label": "struct TechnoLimeStore.Transaction",
						"members": [
							{
								"astId": 30,
								"contract": "Project/TechnoLime.sol:TechnoLimeStore",
								"label": "blockNum",
								"offset": 0,
								"slot": "0",
								"type": "t_uint256"
							},
							{
								"astId": 32,
								"contract": "Project/TechnoLime.sol:TechnoLimeStore",
								"label": "price",
								"offset": 0,
								"slot": "1",
								"type": "t_uint256"
							}
						],
						"numberOfBytes": "64"
					},
					"t_uint256": {
						"encoding": "inplace",
						"label": "uint256",
						"numberOfBytes": "32"
					}
				}
			},
			"userdoc": {
				"errors": {
					"ProductExists()": [
						{
							"notice": "Can't add a product that already exists"
						}
					]
				},
				"kind": "user",
				"methods": {},
				"version": 1
			}
		}
	}
}