{
	"Project/TechnoLime.sol": {
		"TechnoLimeStore": {
			"abi": [
				{
					"inputs": [],
					"stateMutability": "payable",
					"type": "constructor"
				},
				{
					"inputs": [],
					"name": "ItemIdWrongOrBoughtAlready",
					"type": "error"
				},
				{
					"inputs": [],
					"name": "LessThanPriceOrOutOfStock",
					"type": "error"
				},
				{
					"inputs": [],
					"name": "ProductExists",
					"type": "error"
				},
				{
					"inputs": [],
					"name": "ProductNotExistent",
					"type": "error"
				},
				{
					"inputs": [
						{
							"internalType": "string",
							"name": "productName",
							"type": "string"
						},
						{
							"internalType": "uint256",
							"name": "_price",
							"type": "uint256"
						},
						{
							"internalType": "uint256",
							"name": "_quantity",
							"type": "uint256"
						}
					],
					"name": "addNewProduct",
					"outputs": [],
					"stateMutability": "nonpayable",
					"type": "function"
				},
				{
					"inputs": [
						{
							"internalType": "uint256",
							"name": "",
							"type": "uint256"
						}
					],
					"name": "availableProducts",
					"outputs": [
						{
							"internalType": "string",
							"name": "",
							"type": "string"
						}
					],
					"stateMutability": "view",
					"type": "function"
				},
				{
					"inputs": [
						{
							"internalType": "uint256",
							"name": "ProductId",
							"type": "uint256"
						}
					],
					"name": "buyProduct",
					"outputs": [],
					"stateMutability": "payable",
					"type": "function"
				},
				{
					"inputs": [
						{
							"internalType": "uint256",
							"name": "",
							"type": "uint256"
						},
						{
							"internalType": "uint256",
							"name": "",
							"type": "uint256"
						}
					],
					"name": "buyers",
					"outputs": [
						{
							"internalType": "address",
							"name": "",
							"type": "address"
						}
					],
					"stateMutability": "view",
					"type": "function"
				},
				{
					"inputs": [
						{
							"internalType": "string",
							"name": "",
							"type": "string"
						}
					],
					"name": "products",
					"outputs": [
						{
							"internalType": "uint256",
							"name": "price",
							"type": "uint256"
						},
						{
							"internalType": "uint256",
							"name": "quantity",
							"type": "uint256"
						},
						{
							"internalType": "bool",
							"name": "exists",
							"type": "bool"
						}
					],
					"stateMutability": "view",
					"type": "function"
				},
				{
					"inputs": [
						{
							"internalType": "uint256",
							"name": "_id",
							"type": "uint256"
						}
					],
					"name": "test",
					"outputs": [
						{
							"components": [
								{
									"internalType": "uint256",
									"name": "price",
									"type": "uint256"
								},
								{
									"internalType": "uint256",
									"name": "quantity",
									"type": "uint256"
								},
								{
									"internalType": "bool",
									"name": "exists",
									"type": "bool"
								}
							],
							"internalType": "struct TechnoLimeStore.Product",
							"name": "",
							"type": "tuple"
						}
					],
					"stateMutability": "view",
					"type": "function"
				},
				{
					"inputs": [
						{
							"internalType": "uint256",
							"name": "",
							"type": "uint256"
						},
						{
							"internalType": "address",
							"name": "",
							"type": "address"
						}
					],
					"name": "transactions",
					"outputs": [
						{
							"internalType": "uint256",
							"name": "blockNum",
							"type": "uint256"
						},
						{
							"internalType": "uint256",
							"name": "price",
							"type": "uint256"
						},
						{
							"internalType": "bool",
							"name": "exists",
							"type": "bool"
						}
					],
					"stateMutability": "view",
					"type": "function"
				},
				{
					"inputs": [
						{
							"internalType": "string",
							"name": "productName",
							"type": "string"
						},
						{
							"internalType": "uint256",
							"name": "_quantity",
							"type": "uint256"
						}
					],
					"name": "updateQuantity",
					"outputs": [],
					"stateMutability": "nonpayable",
					"type": "function"
				}
			],
			"devdoc": {
				"kind": "dev",
				"methods": {},
				"version": 1
			},
			"evm": {
				"assembly": "    /* \"Project/TechnoLime.sol\":98:3430  contract TechnoLimeStore {\r... */\n  mstore(0x40, 0x80)\n  dataSize(sub_0)\n  dup1\n  dataOffset(sub_0)\n  0x00\n  codecopy\n  0x00\n  return\nstop\n\nsub_0: assembly {\n        /* \"Project/TechnoLime.sol\":98:3430  contract TechnoLimeStore {\r... */\n      mstore(0x40, 0x80)\n      jumpi(tag_1, lt(calldatasize, 0x04))\n      shr(0xe0, calldataload(0x00))\n      dup1\n      0x29e99f07\n      gt\n      tag_10\n      jumpi\n      dup1\n      0x29e99f07\n      eq\n      tag_6\n      jumpi\n      dup1\n      0x74cbc350\n      eq\n      tag_7\n      jumpi\n      dup1\n      0x8642269e\n      eq\n      tag_8\n      jumpi\n      dup1\n      0xe4bcc7d4\n      eq\n      tag_9\n      jumpi\n      jump(tag_1)\n    tag_10:\n      dup1\n      0x0186a423\n      eq\n      tag_2\n      jumpi\n      dup1\n      0x0a5bd44b\n      eq\n      tag_3\n      jumpi\n      dup1\n      0x1d894eb8\n      eq\n      tag_4\n      jumpi\n      dup1\n      0x27e7875a\n      eq\n      tag_5\n      jumpi\n    tag_1:\n      0x00\n      dup1\n      revert\n        /* \"Project/TechnoLime.sol\":510:552  mapping(string => Product) public products */\n    tag_2:\n      callvalue\n      dup1\n      iszero\n      tag_11\n      jumpi\n      0x00\n      dup1\n      revert\n    tag_11:\n      pop\n      tag_12\n      0x04\n      dup1\n      calldatasize\n      sub\n      dup2\n      add\n      swap1\n      tag_13\n      swap2\n      swap1\n      tag_14\n      jump\t// in\n    tag_13:\n      tag_15\n      jump\t// in\n    tag_12:\n      mload(0x40)\n      tag_16\n      swap4\n      swap3\n      swap2\n      swap1\n      tag_17\n      jump\t// in\n    tag_16:\n      mload(0x40)\n      dup1\n      swap2\n      sub\n      swap1\n      return\n        /* \"Project/TechnoLime.sol\":914:1502  function addNewProduct(string calldata productName, uint _price,uint _quantity) external{\r... */\n    tag_3:\n      callvalue\n      dup1\n      iszero\n      tag_18\n      jumpi\n      0x00\n      dup1\n      revert\n    tag_18:\n      pop\n      tag_19\n      0x04\n      dup1\n      calldatasize\n      sub\n      dup2\n      add\n      swap1\n      tag_20\n      swap2\n      swap1\n      tag_21\n      jump\t// in\n    tag_20:\n      tag_22\n      jump\t// in\n    tag_19:\n      stop\n        /* \"Project/TechnoLime.sol\":1510:1879  function updateQuantity(string calldata productName,uint _quantity) external{\r... */\n    tag_4:\n      callvalue\n      dup1\n      iszero\n      tag_23\n      jumpi\n      0x00\n      dup1\n      revert\n    tag_23:\n      pop\n      tag_24\n      0x04\n      dup1\n      calldatasize\n      sub\n      dup2\n      add\n      swap1\n      tag_25\n      swap2\n      swap1\n      tag_26\n      jump\t// in\n    tag_25:\n      tag_27\n      jump\t// in\n    tag_24:\n      stop\n        /* \"Project/TechnoLime.sol\":739:778  mapping(uint =>address[]) public buyers */\n    tag_5:\n      callvalue\n      dup1\n      iszero\n      tag_28\n      jumpi\n      0x00\n      dup1\n      revert\n    tag_28:\n      pop\n      tag_29\n      0x04\n      dup1\n      calldatasize\n      sub\n      dup2\n      add\n      swap1\n      tag_30\n      swap2\n      swap1\n      tag_31\n      jump\t// in\n    tag_30:\n      tag_32\n      jump\t// in\n    tag_29:\n      mload(0x40)\n      tag_33\n      swap2\n      swap1\n      tag_34\n      jump\t// in\n    tag_33:\n      mload(0x40)\n      dup1\n      swap2\n      sub\n      swap1\n      return\n        /* \"Project/TechnoLime.sol\":787:906  function test(uint _id) external view returns(Product memory){\r... */\n    tag_6:\n      callvalue\n      dup1\n      iszero\n      tag_35\n      jumpi\n      0x00\n      dup1\n      revert\n    tag_35:\n      pop\n      tag_36\n      0x04\n      dup1\n      calldatasize\n      sub\n      dup2\n      add\n      swap1\n      tag_37\n      swap2\n      swap1\n      tag_38\n      jump\t// in\n    tag_37:\n      tag_39\n      jump\t// in\n    tag_36:\n      mload(0x40)\n      tag_40\n      swap2\n      swap1\n      tag_41\n      jump\t// in\n    tag_40:\n      mload(0x40)\n      dup1\n      swap2\n      sub\n      swap1\n      return\n        /* \"Project/TechnoLime.sol\":664:732  mapping(uint => mapping(address => Transaction)) public transactions */\n    tag_7:\n      callvalue\n      dup1\n      iszero\n      tag_42\n      jumpi\n      0x00\n      dup1\n      revert\n    tag_42:\n      pop\n      tag_43\n      0x04\n      dup1\n      calldatasize\n      sub\n      dup2\n      add\n      swap1\n      tag_44\n      swap2\n      swap1\n      tag_45\n      jump\t// in\n    tag_44:\n      tag_46\n      jump\t// in\n    tag_43:\n      mload(0x40)\n      tag_47\n      swap4\n      swap3\n      swap2\n      swap1\n      tag_17\n      jump\t// in\n    tag_47:\n      mload(0x40)\n      dup1\n      swap2\n      sub\n      swap1\n      return\n        /* \"Project/TechnoLime.sol\":1981:3413  function buyProduct (uint ProductId)  external payable { \r... */\n    tag_8:\n      tag_48\n      0x04\n      dup1\n      calldatasize\n      sub\n      dup2\n      add\n      swap1\n      tag_49\n      swap2\n      swap1\n      tag_38\n      jump\t// in\n    tag_49:\n      tag_50\n      jump\t// in\n    tag_48:\n      stop\n        /* \"Project/TechnoLime.sol\":390:423  string[] public availableProducts */\n    tag_9:\n      callvalue\n      dup1\n      iszero\n      tag_51\n      jumpi\n      0x00\n      dup1\n      revert\n    tag_51:\n      pop\n      tag_52\n      0x04\n      dup1\n      calldatasize\n      sub\n      dup2\n      add\n      swap1\n      tag_53\n      swap2\n      swap1\n      tag_38\n      jump\t// in\n    tag_53:\n      tag_54\n      jump\t// in\n    tag_52:\n      mload(0x40)\n      tag_55\n      swap2\n      swap1\n      tag_56\n      jump\t// in\n    tag_55:\n      mload(0x40)\n      dup1\n      swap2\n      sub\n      swap1\n      return\n        /* \"Project/TechnoLime.sol\":510:552  mapping(string => Product) public products */\n    tag_15:\n      0x01\n      dup2\n      dup1\n      mload\n      0x20\n      dup2\n      add\n      dup3\n      add\n      dup1\n      mload\n      dup5\n      dup3\n      mstore\n      0x20\n      dup4\n      add\n      0x20\n      dup6\n      add\n      keccak256\n      dup2\n      dup4\n      mstore\n      dup1\n      swap6\n      pop\n      pop\n      pop\n      pop\n      pop\n      pop\n      0x00\n      swap2\n      pop\n      swap1\n      pop\n      dup1\n      0x00\n      add\n      sload\n      swap1\n      dup1\n      0x01\n      add\n      sload\n      swap1\n      dup1\n      0x02\n      add\n      0x00\n      swap1\n      sload\n      swap1\n      0x0100\n      exp\n      swap1\n      div\n      0xff\n      and\n      swap1\n      pop\n      dup4\n      jump\t// out\n        /* \"Project/TechnoLime.sol\":914:1502  function addNewProduct(string calldata productName, uint _price,uint _quantity) external{\r... */\n    tag_22:\n        /* \"Project/TechnoLime.sol\":1019:1027  products */\n      0x01\n        /* \"Project/TechnoLime.sol\":1028:1039  productName */\n      dup5\n      dup5\n        /* \"Project/TechnoLime.sol\":1019:1040  products[productName] */\n      mload(0x40)\n      tag_58\n      swap3\n      swap2\n      swap1\n      tag_59\n      jump\t// in\n    tag_58:\n      swap1\n      dup2\n      mstore\n      0x20\n      add\n      mload(0x40)\n      dup1\n      swap2\n      sub\n      swap1\n      keccak256\n        /* \"Project/TechnoLime.sol\":1019:1047  products[productName].exists */\n      0x02\n      add\n      0x00\n      swap1\n      sload\n      swap1\n      0x0100\n      exp\n      swap1\n      div\n      0xff\n      and\n        /* \"Project/TechnoLime.sol\":1014:1485  if (!products[productName].exists){\r... */\n      tag_60\n      jumpi\n        /* \"Project/TechnoLime.sol\":1064:1086  Product memory product */\n      tag_61\n      tag_62\n      jump\t// in\n    tag_61:\n        /* \"Project/TechnoLime.sol\":1118:1124  _price */\n      dup3\n        /* \"Project/TechnoLime.sol\":1102:1109  product */\n      dup2\n        /* \"Project/TechnoLime.sol\":1102:1115  product.price */\n      0x00\n      add\n        /* \"Project/TechnoLime.sol\":1102:1124  product.price = _price */\n      dup2\n      dup2\n      mstore\n      pop\n      pop\n        /* \"Project/TechnoLime.sol\":1159:1168  _quantity */\n      dup2\n        /* \"Project/TechnoLime.sol\":1140:1147  product */\n      dup2\n        /* \"Project/TechnoLime.sol\":1140:1156  product.quantity */\n      0x20\n      add\n        /* \"Project/TechnoLime.sol\":1140:1168  product.quantity = _quantity */\n      dup2\n      dup2\n      mstore\n      pop\n      pop\n        /* \"Project/TechnoLime.sol\":1201:1205  true */\n      0x01\n        /* \"Project/TechnoLime.sol\":1184:1191  product */\n      dup2\n        /* \"Project/TechnoLime.sol\":1184:1198  product.exists */\n      0x40\n      add\n        /* \"Project/TechnoLime.sol\":1184:1205  product.exists = true */\n      swap1\n      iszero\n      iszero\n      swap1\n      dup2\n      iszero\n      iszero\n      dup2\n      mstore\n      pop\n      pop\n        /* \"Project/TechnoLime.sol\":1245:1252  product */\n      dup1\n        /* \"Project/TechnoLime.sol\":1221:1229  products */\n      0x01\n        /* \"Project/TechnoLime.sol\":1230:1241  productName */\n      dup7\n      dup7\n        /* \"Project/TechnoLime.sol\":1221:1242  products[productName] */\n      mload(0x40)\n      tag_63\n      swap3\n      swap2\n      swap1\n      tag_59\n      jump\t// in\n    tag_63:\n      swap1\n      dup2\n      mstore\n      0x20\n      add\n      mload(0x40)\n      dup1\n      swap2\n      sub\n      swap1\n      keccak256\n        /* \"Project/TechnoLime.sol\":1221:1252  products[productName] = product */\n      0x00\n      dup3\n      add\n      mload\n      dup2\n      0x00\n      add\n      sstore\n      0x20\n      dup3\n      add\n      mload\n      dup2\n      0x01\n      add\n      sstore\n      0x40\n      dup3\n      add\n      mload\n      dup2\n      0x02\n      add\n      exp(0x0100, 0x00)\n      dup2\n      sload\n      dup2\n      0xff\n      mul\n      not\n      and\n      swap1\n      dup4\n      iszero\n      iszero\n      mul\n      or\n      swap1\n      sstore\n      pop\n      swap1\n      pop\n      pop\n        /* \"Project/TechnoLime.sol\":1268:1285  availableProducts */\n      0x00\n        /* \"Project/TechnoLime.sol\":1291:1302  productName */\n      dup6\n      dup6\n        /* \"Project/TechnoLime.sol\":1268:1303  availableProducts.push(productName) */\n      swap1\n      swap2\n      dup1\n      0x01\n      dup2\n      sload\n      add\n      dup1\n      dup3\n      sstore\n      dup1\n      swap2\n      pop\n      pop\n      0x01\n      swap1\n      sub\n      swap1\n      0x00\n      mstore\n      keccak256(0x00, 0x20)\n      add\n      0x00\n      swap1\n      swap2\n      swap3\n      swap1\n      swap2\n      swap3\n      swap1\n      swap2\n      swap3\n      swap1\n      swap2\n      swap3\n      pop\n      swap2\n      swap1\n      tag_65\n      swap3\n      swap2\n      swap1\n      tag_66\n      jump\t// in\n    tag_65:\n      pop\n        /* \"Project/TechnoLime.sol\":1048:1316  {\r... */\n      pop\n        /* \"Project/TechnoLime.sol\":1014:1485  if (!products[productName].exists){\r... */\n      jump(tag_67)\n    tag_60:\n        /* \"Project/TechnoLime.sol\":1450:1472  Errors.ProductExists() */\n      mload(0x40)\n      0xb185df3a00000000000000000000000000000000000000000000000000000000\n      dup2\n      mstore\n      0x04\n      add\n      mload(0x40)\n      dup1\n      swap2\n      sub\n      swap1\n      revert\n        /* \"Project/TechnoLime.sol\":1014:1485  if (!products[productName].exists){\r... */\n    tag_67:\n        /* \"Project/TechnoLime.sol\":914:1502  function addNewProduct(string calldata productName, uint _price,uint _quantity) external{\r... */\n      pop\n      pop\n      pop\n      pop\n      jump\t// out\n        /* \"Project/TechnoLime.sol\":1510:1879  function updateQuantity(string calldata productName,uint _quantity) external{\r... */\n    tag_27:\n        /* \"Project/TechnoLime.sol\":1601:1609  products */\n      0x01\n        /* \"Project/TechnoLime.sol\":1610:1621  productName */\n      dup4\n      dup4\n        /* \"Project/TechnoLime.sol\":1601:1622  products[productName] */\n      mload(0x40)\n      tag_69\n      swap3\n      swap2\n      swap1\n      tag_59\n      jump\t// in\n    tag_69:\n      swap1\n      dup2\n      mstore\n      0x20\n      add\n      mload(0x40)\n      dup1\n      swap2\n      sub\n      swap1\n      keccak256\n        /* \"Project/TechnoLime.sol\":1601:1629  products[productName].exists */\n      0x02\n      add\n      0x00\n      swap1\n      sload\n      swap1\n      0x0100\n      exp\n      swap1\n      div\n      0xff\n      and\n        /* \"Project/TechnoLime.sol\":1597:1872  if (products[productName].exists){\r... */\n      iszero\n      tag_70\n      jumpi\n        /* \"Project/TechnoLime.sol\":1679:1688  _quantity */\n      dup1\n        /* \"Project/TechnoLime.sol\":1645:1653  products */\n      0x01\n        /* \"Project/TechnoLime.sol\":1654:1665  productName */\n      dup5\n      dup5\n        /* \"Project/TechnoLime.sol\":1645:1666  products[productName] */\n      mload(0x40)\n      tag_71\n      swap3\n      swap2\n      swap1\n      tag_59\n      jump\t// in\n    tag_71:\n      swap1\n      dup2\n      mstore\n      0x20\n      add\n      mload(0x40)\n      dup1\n      swap2\n      sub\n      swap1\n      keccak256\n        /* \"Project/TechnoLime.sol\":1645:1675  products[productName].quantity */\n      0x01\n      add\n      0x00\n        /* \"Project/TechnoLime.sol\":1645:1688  products[productName].quantity += _quantity */\n      dup3\n      dup3\n      sload\n      tag_72\n      swap2\n      swap1\n      tag_73\n      jump\t// in\n    tag_72:\n      swap3\n      pop\n      pop\n      dup2\n      swap1\n      sstore\n      pop\n        /* \"Project/TechnoLime.sol\":1597:1872  if (products[productName].exists){\r... */\n      jump(tag_74)\n    tag_70:\n        /* \"Project/TechnoLime.sol\":1833:1860  Errors.ProductNotExistent() */\n      mload(0x40)\n      0x7e8d96a900000000000000000000000000000000000000000000000000000000\n      dup2\n      mstore\n      0x04\n      add\n      mload(0x40)\n      dup1\n      swap2\n      sub\n      swap1\n      revert\n        /* \"Project/TechnoLime.sol\":1597:1872  if (products[productName].exists){\r... */\n    tag_74:\n        /* \"Project/TechnoLime.sol\":1510:1879  function updateQuantity(string calldata productName,uint _quantity) external{\r... */\n      pop\n      pop\n      pop\n      jump\t// out\n        /* \"Project/TechnoLime.sol\":739:778  mapping(uint =>address[]) public buyers */\n    tag_32:\n      mstore(0x20, 0x03)\n      dup2\n      0x00\n      mstore\n      keccak256(0x00, 0x40)\n      dup2\n      dup2\n      sload\n      dup2\n      lt\n      tag_75\n      jumpi\n      0x00\n      dup1\n      revert\n    tag_75:\n      swap1\n      0x00\n      mstore\n      keccak256(0x00, 0x20)\n      add\n      0x00\n      swap2\n      pop\n      swap2\n      pop\n      swap1\n      sload\n      swap1\n      0x0100\n      exp\n      swap1\n      div\n      0xffffffffffffffffffffffffffffffffffffffff\n      and\n      dup2\n      jump\t// out\n        /* \"Project/TechnoLime.sol\":787:906  function test(uint _id) external view returns(Product memory){\r... */\n    tag_39:\n        /* \"Project/TechnoLime.sol\":833:847  Product memory */\n      tag_77\n      tag_62\n      jump\t// in\n    tag_77:\n        /* \"Project/TechnoLime.sol\":866:874  products */\n      0x01\n        /* \"Project/TechnoLime.sol\":875:892  availableProducts */\n      0x00\n        /* \"Project/TechnoLime.sol\":893:896  _id */\n      dup4\n        /* \"Project/TechnoLime.sol\":875:897  availableProducts[_id] */\n      dup2\n      sload\n      dup2\n      lt\n      tag_79\n      jumpi\n      tag_80\n      tag_81\n      jump\t// in\n    tag_80:\n    tag_79:\n      swap1\n      0x00\n      mstore\n      keccak256(0x00, 0x20)\n      add\n        /* \"Project/TechnoLime.sol\":866:898  products[availableProducts[_id]] */\n      mload(0x40)\n      tag_83\n      swap2\n      swap1\n      tag_84\n      jump\t// in\n    tag_83:\n      swap1\n      dup2\n      mstore\n      0x20\n      add\n      mload(0x40)\n      dup1\n      swap2\n      sub\n      swap1\n      keccak256\n        /* \"Project/TechnoLime.sol\":859:898  return products[availableProducts[_id]] */\n      mload(0x40)\n      dup1\n      0x60\n      add\n      0x40\n      mstore\n      swap1\n      dup2\n      0x00\n      dup3\n      add\n      sload\n      dup2\n      mstore\n      0x20\n      add\n      0x01\n      dup3\n      add\n      sload\n      dup2\n      mstore\n      0x20\n      add\n      0x02\n      dup3\n      add\n      0x00\n      swap1\n      sload\n      swap1\n      0x0100\n      exp\n      swap1\n      div\n      0xff\n      and\n      iszero\n      iszero\n      iszero\n      iszero\n      dup2\n      mstore\n      pop\n      pop\n      swap1\n      pop\n        /* \"Project/TechnoLime.sol\":787:906  function test(uint _id) external view returns(Product memory){\r... */\n      swap2\n      swap1\n      pop\n      jump\t// out\n        /* \"Project/TechnoLime.sol\":664:732  mapping(uint => mapping(address => Transaction)) public transactions */\n    tag_46:\n      mstore(0x20, 0x02)\n      dup2\n      0x00\n      mstore\n      mstore(0x20, keccak256(0x00, 0x40))\n      dup1\n      0x00\n      mstore\n      keccak256(0x00, 0x40)\n      0x00\n      swap2\n      pop\n      swap2\n      pop\n      pop\n      dup1\n      0x00\n      add\n      sload\n      swap1\n      dup1\n      0x01\n      add\n      sload\n      swap1\n      dup1\n      0x02\n      add\n      0x00\n      swap1\n      sload\n      swap1\n      0x0100\n      exp\n      swap1\n      div\n      0xff\n      and\n      swap1\n      pop\n      dup4\n      jump\t// out\n        /* \"Project/TechnoLime.sol\":1981:3413  function buyProduct (uint ProductId)  external payable { \r... */\n    tag_50:\n        /* \"Project/TechnoLime.sol\":2173:2190  availableProducts */\n      0x00\n        /* \"Project/TechnoLime.sol\":2173:2197  availableProducts.length */\n      dup1\n      sload\n      swap1\n      pop\n        /* \"Project/TechnoLime.sol\":2161:2170  ProductId */\n      dup2\n        /* \"Project/TechnoLime.sol\":2161:2197  ProductId < availableProducts.length */\n      lt\n        /* \"Project/TechnoLime.sol\":2161:2244  ProductId < availableProducts.length && !transactions[ProductId][msg.sender].exists */\n      dup1\n      iszero\n      tag_86\n      jumpi\n      pop\n        /* \"Project/TechnoLime.sol\":2202:2214  transactions */\n      0x02\n        /* \"Project/TechnoLime.sol\":2202:2225  transactions[ProductId] */\n      0x00\n        /* \"Project/TechnoLime.sol\":2215:2224  ProductId */\n      dup3\n        /* \"Project/TechnoLime.sol\":2202:2225  transactions[ProductId] */\n      dup2\n      mstore\n      0x20\n      add\n      swap1\n      dup2\n      mstore\n      0x20\n      add\n      0x00\n      keccak256\n        /* \"Project/TechnoLime.sol\":2202:2237  transactions[ProductId][msg.sender] */\n      0x00\n        /* \"Project/TechnoLime.sol\":2226:2236  msg.sender */\n      caller\n        /* \"Project/TechnoLime.sol\":2202:2237  transactions[ProductId][msg.sender] */\n      0xffffffffffffffffffffffffffffffffffffffff\n      and\n      0xffffffffffffffffffffffffffffffffffffffff\n      and\n      dup2\n      mstore\n      0x20\n      add\n      swap1\n      dup2\n      mstore\n      0x20\n      add\n      0x00\n      keccak256\n        /* \"Project/TechnoLime.sol\":2202:2244  transactions[ProductId][msg.sender].exists */\n      0x02\n      add\n      0x00\n      swap1\n      sload\n      swap1\n      0x0100\n      exp\n      swap1\n      div\n      0xff\n      and\n        /* \"Project/TechnoLime.sol\":2201:2244  !transactions[ProductId][msg.sender].exists */\n      iszero\n        /* \"Project/TechnoLime.sol\":2161:2244  ProductId < availableProducts.length && !transactions[ProductId][msg.sender].exists */\n    tag_86:\n        /* \"Project/TechnoLime.sol\":2158:3385  if(ProductId < availableProducts.length && !transactions[ProductId][msg.sender].exists){\r... */\n      iszero\n      tag_87\n      jumpi\n        /* \"Project/TechnoLime.sol\":2406:2428  Product memory product */\n      0x00\n        /* \"Project/TechnoLime.sol\":2430:2438  products */\n      0x01\n        /* \"Project/TechnoLime.sol\":2439:2456  availableProducts */\n      0x00\n        /* \"Project/TechnoLime.sol\":2457:2466  ProductId */\n      dup4\n        /* \"Project/TechnoLime.sol\":2439:2467  availableProducts[ProductId] */\n      dup2\n      sload\n      dup2\n      lt\n      tag_88\n      jumpi\n      tag_89\n      tag_81\n      jump\t// in\n    tag_89:\n    tag_88:\n      swap1\n      0x00\n      mstore\n      keccak256(0x00, 0x20)\n      add\n        /* \"Project/TechnoLime.sol\":2430:2468  products[availableProducts[ProductId]] */\n      mload(0x40)\n      tag_91\n      swap2\n      swap1\n      tag_84\n      jump\t// in\n    tag_91:\n      swap1\n      dup2\n      mstore\n      0x20\n      add\n      mload(0x40)\n      dup1\n      swap2\n      sub\n      swap1\n      keccak256\n        /* \"Project/TechnoLime.sol\":2406:2468  Product memory product= products[availableProducts[ProductId]] */\n      mload(0x40)\n      dup1\n      0x60\n      add\n      0x40\n      mstore\n      swap1\n      dup2\n      0x00\n      dup3\n      add\n      sload\n      dup2\n      mstore\n      0x20\n      add\n      0x01\n      dup3\n      add\n      sload\n      dup2\n      mstore\n      0x20\n      add\n      0x02\n      dup3\n      add\n      0x00\n      swap1\n      sload\n      swap1\n      0x0100\n      exp\n      swap1\n      div\n      0xff\n      and\n      iszero\n      iszero\n      iszero\n      iszero\n      dup2\n      mstore\n      pop\n      pop\n      swap1\n      pop\n        /* \"Project/TechnoLime.sol\":2502:2509  product */\n      dup1\n        /* \"Project/TechnoLime.sol\":2502:2515  product.price */\n      0x00\n      add\n      mload\n        /* \"Project/TechnoLime.sol\":2490:2499  msg.value */\n      callvalue\n        /* \"Project/TechnoLime.sol\":2490:2515  msg.value < product.price */\n      lt\n        /* \"Project/TechnoLime.sol\":2490:2539  msg.value < product.price || product.quantity < 1 */\n      dup1\n      tag_92\n      jumpi\n      pop\n        /* \"Project/TechnoLime.sol\":2538:2539  1 */\n      0x01\n        /* \"Project/TechnoLime.sol\":2519:2526  product */\n      dup2\n        /* \"Project/TechnoLime.sol\":2519:2535  product.quantity */\n      0x20\n      add\n      mload\n        /* \"Project/TechnoLime.sol\":2519:2539  product.quantity < 1 */\n      lt\n        /* \"Project/TechnoLime.sol\":2490:2539  msg.value < product.price || product.quantity < 1 */\n    tag_92:\n        /* \"Project/TechnoLime.sol\":2487:2675  if(msg.value < product.price || product.quantity < 1)\r... */\n      iszero\n      tag_93\n      jumpi\n        /* \"Project/TechnoLime.sol\":2641:2675  Errors.LessThanPriceOrOutOfStock() */\n      mload(0x40)\n      0xf80236cc00000000000000000000000000000000000000000000000000000000\n      dup2\n      mstore\n      0x04\n      add\n      mload(0x40)\n      dup1\n      swap2\n      sub\n      swap1\n      revert\n        /* \"Project/TechnoLime.sol\":2487:2675  if(msg.value < product.price || product.quantity < 1)\r... */\n    tag_93:\n        /* \"Project/TechnoLime.sol\":2696:2729  Transaction memory newTransaction */\n      tag_94\n      tag_95\n      jump\t// in\n    tag_94:\n        /* \"Project/TechnoLime.sol\":2774:2786  block.number */\n      number\n        /* \"Project/TechnoLime.sol\":2748:2762  newTransaction */\n      dup2\n        /* \"Project/TechnoLime.sol\":2748:2771  newTransaction.blockNum */\n      0x00\n      add\n        /* \"Project/TechnoLime.sol\":2748:2786  newTransaction.blockNum = block.number */\n      dup2\n      dup2\n      mstore\n      pop\n      pop\n        /* \"Project/TechnoLime.sol\":2828:2835  product */\n      dup2\n        /* \"Project/TechnoLime.sol\":2828:2841  product.price */\n      0x00\n      add\n      mload\n        /* \"Project/TechnoLime.sol\":2805:2819  newTransaction */\n      dup2\n        /* \"Project/TechnoLime.sol\":2805:2825  newTransaction.price */\n      0x20\n      add\n        /* \"Project/TechnoLime.sol\":2805:2841  newTransaction.price = product.price */\n      dup2\n      dup2\n      mstore\n      pop\n      pop\n        /* \"Project/TechnoLime.sol\":2884:2888  true */\n      0x01\n        /* \"Project/TechnoLime.sol\":2860:2874  newTransaction */\n      dup2\n        /* \"Project/TechnoLime.sol\":2860:2881  newTransaction.exists */\n      0x40\n      add\n        /* \"Project/TechnoLime.sol\":2860:2888  newTransaction.exists = true */\n      swap1\n      iszero\n      iszero\n      swap1\n      dup2\n      iszero\n      iszero\n      dup2\n      mstore\n      pop\n      pop\n        /* \"Project/TechnoLime.sol\":2981:2995  newTransaction */\n      dup1\n        /* \"Project/TechnoLime.sol\":2943:2955  transactions */\n      0x02\n        /* \"Project/TechnoLime.sol\":2943:2966  transactions[ProductId] */\n      0x00\n        /* \"Project/TechnoLime.sol\":2956:2965  ProductId */\n      dup6\n        /* \"Project/TechnoLime.sol\":2943:2966  transactions[ProductId] */\n      dup2\n      mstore\n      0x20\n      add\n      swap1\n      dup2\n      mstore\n      0x20\n      add\n      0x00\n      keccak256\n        /* \"Project/TechnoLime.sol\":2943:2978  transactions[ProductId][msg.sender] */\n      0x00\n        /* \"Project/TechnoLime.sol\":2967:2977  msg.sender */\n      caller\n        /* \"Project/TechnoLime.sol\":2943:2978  transactions[ProductId][msg.sender] */\n      0xffffffffffffffffffffffffffffffffffffffff\n      and\n      0xffffffffffffffffffffffffffffffffffffffff\n      and\n      dup2\n      mstore\n      0x20\n      add\n      swap1\n      dup2\n      mstore\n      0x20\n      add\n      0x00\n      keccak256\n        /* \"Project/TechnoLime.sol\":2943:2995  transactions[ProductId][msg.sender] = newTransaction */\n      0x00\n      dup3\n      add\n      mload\n      dup2\n      0x00\n      add\n      sstore\n      0x20\n      dup3\n      add\n      mload\n      dup2\n      0x01\n      add\n      sstore\n      0x40\n      dup3\n      add\n      mload\n      dup2\n      0x02\n      add\n      exp(0x0100, 0x00)\n      dup2\n      sload\n      dup2\n      0xff\n      mul\n      not\n      and\n      swap1\n      dup4\n      iszero\n      iszero\n      mul\n      or\n      swap1\n      sstore\n      pop\n      swap1\n      pop\n      pop\n        /* \"Project/TechnoLime.sol\":3016:3023  product */\n      dup2\n        /* \"Project/TechnoLime.sol\":3016:3032  product.quantity */\n      0x20\n      add\n        /* \"Project/TechnoLime.sol\":3016:3034  product.quantity-- */\n      dup1\n      mload\n      dup1\n      swap2\n      swap1\n      tag_96\n      swap1\n      tag_97\n      jump\t// in\n    tag_96:\n      dup2\n      mstore\n      pop\n      pop\n        /* \"Project/TechnoLime.sol\":3128:3135  product */\n      dup2\n        /* \"Project/TechnoLime.sol\":3089:3097  products */\n      0x01\n        /* \"Project/TechnoLime.sol\":3098:3115  availableProducts */\n      0x00\n        /* \"Project/TechnoLime.sol\":3116:3125  ProductId */\n      dup6\n        /* \"Project/TechnoLime.sol\":3098:3126  availableProducts[ProductId] */\n      dup2\n      sload\n      dup2\n      lt\n      tag_98\n      jumpi\n      tag_99\n      tag_81\n      jump\t// in\n    tag_99:\n    tag_98:\n      swap1\n      0x00\n      mstore\n      keccak256(0x00, 0x20)\n      add\n        /* \"Project/TechnoLime.sol\":3089:3127  products[availableProducts[ProductId]] */\n      mload(0x40)\n      tag_101\n      swap2\n      swap1\n      tag_84\n      jump\t// in\n    tag_101:\n      swap1\n      dup2\n      mstore\n      0x20\n      add\n      mload(0x40)\n      dup1\n      swap2\n      sub\n      swap1\n      keccak256\n        /* \"Project/TechnoLime.sol\":3089:3135  products[availableProducts[ProductId]]=product */\n      0x00\n      dup3\n      add\n      mload\n      dup2\n      0x00\n      add\n      sstore\n      0x20\n      dup3\n      add\n      mload\n      dup2\n      0x01\n      add\n      sstore\n      0x40\n      dup3\n      add\n      mload\n      dup2\n      0x02\n      add\n      exp(0x0100, 0x00)\n      dup2\n      sload\n      dup2\n      0xff\n      mul\n      not\n      and\n      swap1\n      dup4\n      iszero\n      iszero\n      mul\n      or\n      swap1\n      sstore\n      pop\n      swap1\n      pop\n      pop\n        /* \"Project/TechnoLime.sol\":3184:3190  buyers */\n      0x03\n        /* \"Project/TechnoLime.sol\":3184:3201  buyers[ProductId] */\n      0x00\n        /* \"Project/TechnoLime.sol\":3191:3200  ProductId */\n      dup5\n        /* \"Project/TechnoLime.sol\":3184:3201  buyers[ProductId] */\n      dup2\n      mstore\n      0x20\n      add\n      swap1\n      dup2\n      mstore\n      0x20\n      add\n      0x00\n      keccak256\n        /* \"Project/TechnoLime.sol\":3207:3217  msg.sender */\n      caller\n        /* \"Project/TechnoLime.sol\":3184:3218  buyers[ProductId].push(msg.sender) */\n      swap1\n      dup1\n      0x01\n      dup2\n      sload\n      add\n      dup1\n      dup3\n      sstore\n      dup1\n      swap2\n      pop\n      pop\n      0x01\n      swap1\n      sub\n      swap1\n      0x00\n      mstore\n      keccak256(0x00, 0x20)\n      add\n      0x00\n      swap1\n      swap2\n      swap1\n      swap2\n      swap1\n      swap2\n      0x0100\n      exp\n      dup2\n      sload\n      dup2\n      0xffffffffffffffffffffffffffffffffffffffff\n      mul\n      not\n      and\n      swap1\n      dup4\n      0xffffffffffffffffffffffffffffffffffffffff\n      and\n      mul\n      or\n      swap1\n      sstore\n      pop\n        /* \"Project/TechnoLime.sol\":2245:3236  {\r... */\n      pop\n      pop\n        /* \"Project/TechnoLime.sol\":2158:3385  if(ProductId < availableProducts.length && !transactions[ProductId][msg.sender].exists){\r... */\n      jump(tag_103)\n    tag_87:\n        /* \"Project/TechnoLime.sol\":3334:3369  Errors.ItemIdWrongOrBoughtAlready() */\n      mload(0x40)\n      0xd42c9b8b00000000000000000000000000000000000000000000000000000000\n      dup2\n      mstore\n      0x04\n      add\n      mload(0x40)\n      dup1\n      swap2\n      sub\n      swap1\n      revert\n        /* \"Project/TechnoLime.sol\":2158:3385  if(ProductId < availableProducts.length && !transactions[ProductId][msg.sender].exists){\r... */\n    tag_103:\n        /* \"Project/TechnoLime.sol\":1981:3413  function buyProduct (uint ProductId)  external payable { \r... */\n      pop\n      jump\t// out\n        /* \"Project/TechnoLime.sol\":390:423  string[] public availableProducts */\n    tag_54:\n      0x00\n      dup2\n      dup2\n      sload\n      dup2\n      lt\n      tag_104\n      jumpi\n      0x00\n      dup1\n      revert\n    tag_104:\n      swap1\n      0x00\n      mstore\n      keccak256(0x00, 0x20)\n      add\n      0x00\n      swap2\n      pop\n      swap1\n      pop\n      dup1\n      sload\n      tag_106\n      swap1\n      tag_107\n      jump\t// in\n    tag_106:\n      dup1\n      0x1f\n      add\n      0x20\n      dup1\n      swap2\n      div\n      mul\n      0x20\n      add\n      mload(0x40)\n      swap1\n      dup2\n      add\n      0x40\n      mstore\n      dup1\n      swap3\n      swap2\n      swap1\n      dup2\n      dup2\n      mstore\n      0x20\n      add\n      dup3\n      dup1\n      sload\n      tag_108\n      swap1\n      tag_107\n      jump\t// in\n    tag_108:\n      dup1\n      iszero\n      tag_109\n      jumpi\n      dup1\n      0x1f\n      lt\n      tag_110\n      jumpi\n      0x0100\n      dup1\n      dup4\n      sload\n      div\n      mul\n      dup4\n      mstore\n      swap2\n      0x20\n      add\n      swap2\n      jump(tag_109)\n    tag_110:\n      dup3\n      add\n      swap2\n      swap1\n      0x00\n      mstore\n      keccak256(0x00, 0x20)\n      swap1\n    tag_111:\n      dup2\n      sload\n      dup2\n      mstore\n      swap1\n      0x01\n      add\n      swap1\n      0x20\n      add\n      dup1\n      dup4\n      gt\n      tag_111\n      jumpi\n      dup3\n      swap1\n      sub\n      0x1f\n      and\n      dup3\n      add\n      swap2\n    tag_109:\n      pop\n      pop\n      pop\n      pop\n      pop\n      dup2\n      jump\t// out\n    tag_62:\n      mload(0x40)\n      dup1\n      0x60\n      add\n      0x40\n      mstore\n      dup1\n      0x00\n      dup2\n      mstore\n      0x20\n      add\n      0x00\n      dup2\n      mstore\n      0x20\n      add\n      iszero(iszero(0x00))\n      dup2\n      mstore\n      pop\n      swap1\n      jump\t// out\n    tag_66:\n      dup3\n      dup1\n      sload\n      tag_112\n      swap1\n      tag_107\n      jump\t// in\n    tag_112:\n      swap1\n      0x00\n      mstore\n      keccak256(0x00, 0x20)\n      swap1\n      0x1f\n      add\n      0x20\n      swap1\n      div\n      dup2\n      add\n      swap3\n      dup3\n      tag_114\n      jumpi\n      0x00\n      dup6\n      sstore\n      jump(tag_113)\n    tag_114:\n      dup3\n      0x1f\n      lt\n      tag_115\n      jumpi\n      dup1\n      calldataload\n      not(0xff)\n      and\n      dup4\n      dup1\n      add\n      or\n      dup6\n      sstore\n      jump(tag_113)\n    tag_115:\n      dup3\n      dup1\n      add\n      0x01\n      add\n      dup6\n      sstore\n      dup3\n      iszero\n      tag_113\n      jumpi\n      swap2\n      dup3\n      add\n    tag_116:\n      dup3\n      dup2\n      gt\n      iszero\n      tag_117\n      jumpi\n      dup3\n      calldataload\n      dup3\n      sstore\n      swap2\n      0x20\n      add\n      swap2\n      swap1\n      0x01\n      add\n      swap1\n      jump(tag_116)\n    tag_117:\n    tag_113:\n      pop\n      swap1\n      pop\n      tag_118\n      swap2\n      swap1\n      tag_119\n      jump\t// in\n    tag_118:\n      pop\n      swap1\n      jump\t// out\n    tag_95:\n      mload(0x40)\n      dup1\n      0x60\n      add\n      0x40\n      mstore\n      dup1\n      0x00\n      dup2\n      mstore\n      0x20\n      add\n      0x00\n      dup2\n      mstore\n      0x20\n      add\n      iszero(iszero(0x00))\n      dup2\n      mstore\n      pop\n      swap1\n      jump\t// out\n    tag_119:\n    tag_120:\n      dup1\n      dup3\n      gt\n      iszero\n      tag_121\n      jumpi\n      0x00\n      dup2\n      0x00\n      swap1\n      sstore\n      pop\n      0x01\n      add\n      jump(tag_120)\n    tag_121:\n      pop\n      swap1\n      jump\t// out\n        /* \"#utility.yul\":7:419   */\n    tag_123:\n        /* \"#utility.yul\":85:90   */\n      0x00\n        /* \"#utility.yul\":110:176   */\n      tag_125\n        /* \"#utility.yul\":126:175   */\n      tag_126\n        /* \"#utility.yul\":168:174   */\n      dup5\n        /* \"#utility.yul\":126:175   */\n      tag_127\n      jump\t// in\n    tag_126:\n        /* \"#utility.yul\":110:176   */\n      tag_128\n      jump\t// in\n    tag_125:\n        /* \"#utility.yul\":101:176   */\n      swap1\n      pop\n        /* \"#utility.yul\":199:205   */\n      dup3\n        /* \"#utility.yul\":192:197   */\n      dup2\n        /* \"#utility.yul\":185:206   */\n      mstore\n        /* \"#utility.yul\":237:241   */\n      0x20\n        /* \"#utility.yul\":230:235   */\n      dup2\n        /* \"#utility.yul\":226:242   */\n      add\n        /* \"#utility.yul\":275:278   */\n      dup5\n        /* \"#utility.yul\":266:272   */\n      dup5\n        /* \"#utility.yul\":261:264   */\n      dup5\n        /* \"#utility.yul\":257:273   */\n      add\n        /* \"#utility.yul\":254:279   */\n      gt\n        /* \"#utility.yul\":251:363   */\n      iszero\n      tag_129\n      jumpi\n        /* \"#utility.yul\":282:361   */\n      tag_130\n      tag_131\n      jump\t// in\n    tag_130:\n        /* \"#utility.yul\":251:363   */\n    tag_129:\n        /* \"#utility.yul\":372:413   */\n      tag_132\n        /* \"#utility.yul\":406:412   */\n      dup5\n        /* \"#utility.yul\":401:404   */\n      dup3\n        /* \"#utility.yul\":396:399   */\n      dup6\n        /* \"#utility.yul\":372:413   */\n      tag_133\n      jump\t// in\n    tag_132:\n        /* \"#utility.yul\":91:419   */\n      pop\n        /* \"#utility.yul\":7:419   */\n      swap4\n      swap3\n      pop\n      pop\n      pop\n      jump\t// out\n        /* \"#utility.yul\":425:564   */\n    tag_134:\n        /* \"#utility.yul\":471:476   */\n      0x00\n        /* \"#utility.yul\":509:515   */\n      dup2\n        /* \"#utility.yul\":496:516   */\n      calldataload\n        /* \"#utility.yul\":487:516   */\n      swap1\n      pop\n        /* \"#utility.yul\":525:558   */\n      tag_136\n        /* \"#utility.yul\":552:557   */\n      dup2\n        /* \"#utility.yul\":525:558   */\n      tag_137\n      jump\t// in\n    tag_136:\n        /* \"#utility.yul\":425:564   */\n      swap3\n      swap2\n      pop\n      pop\n      jump\t// out\n        /* \"#utility.yul\":584:1137   */\n    tag_138:\n        /* \"#utility.yul\":642:650   */\n      0x00\n        /* \"#utility.yul\":652:658   */\n      dup1\n        /* \"#utility.yul\":702:705   */\n      dup4\n        /* \"#utility.yul\":695:699   */\n      0x1f\n        /* \"#utility.yul\":687:693   */\n      dup5\n        /* \"#utility.yul\":683:700   */\n      add\n        /* \"#utility.yul\":679:706   */\n      slt\n        /* \"#utility.yul\":669:791   */\n      tag_140\n      jumpi\n        /* \"#utility.yul\":710:789   */\n      tag_141\n      tag_142\n      jump\t// in\n    tag_141:\n        /* \"#utility.yul\":669:791   */\n    tag_140:\n        /* \"#utility.yul\":823:829   */\n      dup3\n        /* \"#utility.yul\":810:830   */\n      calldataload\n        /* \"#utility.yul\":800:830   */\n      swap1\n      pop\n        /* \"#utility.yul\":853:871   */\n      0xffffffffffffffff\n        /* \"#utility.yul\":845:851   */\n      dup2\n        /* \"#utility.yul\":842:872   */\n      gt\n        /* \"#utility.yul\":839:956   */\n      iszero\n      tag_143\n      jumpi\n        /* \"#utility.yul\":875:954   */\n      tag_144\n      tag_145\n      jump\t// in\n    tag_144:\n        /* \"#utility.yul\":839:956   */\n    tag_143:\n        /* \"#utility.yul\":989:993   */\n      0x20\n        /* \"#utility.yul\":981:987   */\n      dup4\n        /* \"#utility.yul\":977:994   */\n      add\n        /* \"#utility.yul\":965:994   */\n      swap2\n      pop\n        /* \"#utility.yul\":1043:1046   */\n      dup4\n        /* \"#utility.yul\":1035:1039   */\n      0x01\n        /* \"#utility.yul\":1027:1033   */\n      dup3\n        /* \"#utility.yul\":1023:1040   */\n      mul\n        /* \"#utility.yul\":1013:1021   */\n      dup4\n        /* \"#utility.yul\":1009:1041   */\n      add\n        /* \"#utility.yul\":1006:1047   */\n      gt\n        /* \"#utility.yul\":1003:1131   */\n      iszero\n      tag_146\n      jumpi\n        /* \"#utility.yul\":1050:1129   */\n      tag_147\n      tag_148\n      jump\t// in\n    tag_147:\n        /* \"#utility.yul\":1003:1131   */\n    tag_146:\n        /* \"#utility.yul\":584:1137   */\n      swap3\n      pop\n      swap3\n      swap1\n      pop\n      jump\t// out\n        /* \"#utility.yul\":1157:1497   */\n    tag_149:\n        /* \"#utility.yul\":1213:1218   */\n      0x00\n        /* \"#utility.yul\":1262:1265   */\n      dup3\n        /* \"#utility.yul\":1255:1259   */\n      0x1f\n        /* \"#utility.yul\":1247:1253   */\n      dup4\n        /* \"#utility.yul\":1243:1260   */\n      add\n        /* \"#utility.yul\":1239:1266   */\n      slt\n        /* \"#utility.yul\":1229:1351   */\n      tag_151\n      jumpi\n        /* \"#utility.yul\":1270:1349   */\n      tag_152\n      tag_142\n      jump\t// in\n    tag_152:\n        /* \"#utility.yul\":1229:1351   */\n    tag_151:\n        /* \"#utility.yul\":1387:1393   */\n      dup2\n        /* \"#utility.yul\":1374:1394   */\n      calldataload\n        /* \"#utility.yul\":1412:1491   */\n      tag_153\n        /* \"#utility.yul\":1487:1490   */\n      dup5\n        /* \"#utility.yul\":1479:1485   */\n      dup3\n        /* \"#utility.yul\":1472:1476   */\n      0x20\n        /* \"#utility.yul\":1464:1470   */\n      dup7\n        /* \"#utility.yul\":1460:1477   */\n      add\n        /* \"#utility.yul\":1412:1491   */\n      tag_123\n      jump\t// in\n    tag_153:\n        /* \"#utility.yul\":1403:1491   */\n      swap2\n      pop\n        /* \"#utility.yul\":1219:1497   */\n      pop\n        /* \"#utility.yul\":1157:1497   */\n      swap3\n      swap2\n      pop\n      pop\n      jump\t// out\n        /* \"#utility.yul\":1503:1642   */\n    tag_154:\n        /* \"#utility.yul\":1549:1554   */\n      0x00\n        /* \"#utility.yul\":1587:1593   */\n      dup2\n        /* \"#utility.yul\":1574:1594   */\n      calldataload\n        /* \"#utility.yul\":1565:1594   */\n      swap1\n      pop\n        /* \"#utility.yul\":1603:1636   */\n      tag_156\n        /* \"#utility.yul\":1630:1635   */\n      dup2\n        /* \"#utility.yul\":1603:1636   */\n      tag_157\n      jump\t// in\n    tag_156:\n        /* \"#utility.yul\":1503:1642   */\n      swap3\n      swap2\n      pop\n      pop\n      jump\t// out\n        /* \"#utility.yul\":1648:2322   */\n    tag_26:\n        /* \"#utility.yul\":1728:1734   */\n      0x00\n        /* \"#utility.yul\":1736:1742   */\n      dup1\n        /* \"#utility.yul\":1744:1750   */\n      0x00\n        /* \"#utility.yul\":1793:1795   */\n      0x40\n        /* \"#utility.yul\":1781:1790   */\n      dup5\n        /* \"#utility.yul\":1772:1779   */\n      dup7\n        /* \"#utility.yul\":1768:1791   */\n      sub\n        /* \"#utility.yul\":1764:1796   */\n      slt\n        /* \"#utility.yul\":1761:1880   */\n      iszero\n      tag_159\n      jumpi\n        /* \"#utility.yul\":1799:1878   */\n      tag_160\n      tag_161\n      jump\t// in\n    tag_160:\n        /* \"#utility.yul\":1761:1880   */\n    tag_159:\n        /* \"#utility.yul\":1947:1948   */\n      0x00\n        /* \"#utility.yul\":1936:1945   */\n      dup5\n        /* \"#utility.yul\":1932:1949   */\n      add\n        /* \"#utility.yul\":1919:1950   */\n      calldataload\n        /* \"#utility.yul\":1977:1995   */\n      0xffffffffffffffff\n        /* \"#utility.yul\":1969:1975   */\n      dup2\n        /* \"#utility.yul\":1966:1996   */\n      gt\n        /* \"#utility.yul\":1963:2080   */\n      iszero\n      tag_162\n      jumpi\n        /* \"#utility.yul\":1999:2078   */\n      tag_163\n      tag_164\n      jump\t// in\n    tag_163:\n        /* \"#utility.yul\":1963:2080   */\n    tag_162:\n        /* \"#utility.yul\":2112:2177   */\n      tag_165\n        /* \"#utility.yul\":2169:2176   */\n      dup7\n        /* \"#utility.yul\":2160:2166   */\n      dup3\n        /* \"#utility.yul\":2149:2158   */\n      dup8\n        /* \"#utility.yul\":2145:2167   */\n      add\n        /* \"#utility.yul\":2112:2177   */\n      tag_138\n      jump\t// in\n    tag_165:\n        /* \"#utility.yul\":2094:2177   */\n      swap4\n      pop\n      swap4\n      pop\n        /* \"#utility.yul\":1890:2187   */\n      pop\n        /* \"#utility.yul\":2226:2228   */\n      0x20\n        /* \"#utility.yul\":2252:2305   */\n      tag_166\n        /* \"#utility.yul\":2297:2304   */\n      dup7\n        /* \"#utility.yul\":2288:2294   */\n      dup3\n        /* \"#utility.yul\":2277:2286   */\n      dup8\n        /* \"#utility.yul\":2273:2295   */\n      add\n        /* \"#utility.yul\":2252:2305   */\n      tag_154\n      jump\t// in\n    tag_166:\n        /* \"#utility.yul\":2242:2305   */\n      swap2\n      pop\n        /* \"#utility.yul\":2197:2315   */\n      pop\n        /* \"#utility.yul\":1648:2322   */\n      swap3\n      pop\n      swap3\n      pop\n      swap3\n      jump\t// out\n        /* \"#utility.yul\":2328:3147   */\n    tag_21:\n        /* \"#utility.yul\":2417:2423   */\n      0x00\n        /* \"#utility.yul\":2425:2431   */\n      dup1\n        /* \"#utility.yul\":2433:2439   */\n      0x00\n        /* \"#utility.yul\":2441:2447   */\n      dup1\n        /* \"#utility.yul\":2490:2492   */\n      0x60\n        /* \"#utility.yul\":2478:2487   */\n      dup6\n        /* \"#utility.yul\":2469:2476   */\n      dup8\n        /* \"#utility.yul\":2465:2488   */\n      sub\n        /* \"#utility.yul\":2461:2493   */\n      slt\n        /* \"#utility.yul\":2458:2577   */\n      iszero\n      tag_168\n      jumpi\n        /* \"#utility.yul\":2496:2575   */\n      tag_169\n      tag_161\n      jump\t// in\n    tag_169:\n        /* \"#utility.yul\":2458:2577   */\n    tag_168:\n        /* \"#utility.yul\":2644:2645   */\n      0x00\n        /* \"#utility.yul\":2633:2642   */\n      dup6\n        /* \"#utility.yul\":2629:2646   */\n      add\n        /* \"#utility.yul\":2616:2647   */\n      calldataload\n        /* \"#utility.yul\":2674:2692   */\n      0xffffffffffffffff\n        /* \"#utility.yul\":2666:2672   */\n      dup2\n        /* \"#utility.yul\":2663:2693   */\n      gt\n        /* \"#utility.yul\":2660:2777   */\n      iszero\n      tag_170\n      jumpi\n        /* \"#utility.yul\":2696:2775   */\n      tag_171\n      tag_164\n      jump\t// in\n    tag_171:\n        /* \"#utility.yul\":2660:2777   */\n    tag_170:\n        /* \"#utility.yul\":2809:2874   */\n      tag_172\n        /* \"#utility.yul\":2866:2873   */\n      dup8\n        /* \"#utility.yul\":2857:2863   */\n      dup3\n        /* \"#utility.yul\":2846:2855   */\n      dup9\n        /* \"#utility.yul\":2842:2864   */\n      add\n        /* \"#utility.yul\":2809:2874   */\n      tag_138\n      jump\t// in\n    tag_172:\n        /* \"#utility.yul\":2791:2874   */\n      swap5\n      pop\n      swap5\n      pop\n        /* \"#utility.yul\":2587:2884   */\n      pop\n        /* \"#utility.yul\":2923:2925   */\n      0x20\n        /* \"#utility.yul\":2949:3002   */\n      tag_173\n        /* \"#utility.yul\":2994:3001   */\n      dup8\n        /* \"#utility.yul\":2985:2991   */\n      dup3\n        /* \"#utility.yul\":2974:2983   */\n      dup9\n        /* \"#utility.yul\":2970:2992   */\n      add\n        /* \"#utility.yul\":2949:3002   */\n      tag_154\n      jump\t// in\n    tag_173:\n        /* \"#utility.yul\":2939:3002   */\n      swap3\n      pop\n        /* \"#utility.yul\":2894:3012   */\n      pop\n        /* \"#utility.yul\":3051:3053   */\n      0x40\n        /* \"#utility.yul\":3077:3130   */\n      tag_174\n        /* \"#utility.yul\":3122:3129   */\n      dup8\n        /* \"#utility.yul\":3113:3119   */\n      dup3\n        /* \"#utility.yul\":3102:3111   */\n      dup9\n        /* \"#utility.yul\":3098:3120   */\n      add\n        /* \"#utility.yul\":3077:3130   */\n      tag_154\n      jump\t// in\n    tag_174:\n        /* \"#utility.yul\":3067:3130   */\n      swap2\n      pop\n        /* \"#utility.yul\":3022:3140   */\n      pop\n        /* \"#utility.yul\":2328:3147   */\n      swap3\n      swap6\n      swap2\n      swap5\n      pop\n      swap3\n      pop\n      jump\t// out\n        /* \"#utility.yul\":3153:3662   */\n    tag_14:\n        /* \"#utility.yul\":3222:3228   */\n      0x00\n        /* \"#utility.yul\":3271:3273   */\n      0x20\n        /* \"#utility.yul\":3259:3268   */\n      dup3\n        /* \"#utility.yul\":3250:3257   */\n      dup5\n        /* \"#utility.yul\":3246:3269   */\n      sub\n        /* \"#utility.yul\":3242:3274   */\n      slt\n        /* \"#utility.yul\":3239:3358   */\n      iszero\n      tag_176\n      jumpi\n        /* \"#utility.yul\":3277:3356   */\n      tag_177\n      tag_161\n      jump\t// in\n    tag_177:\n        /* \"#utility.yul\":3239:3358   */\n    tag_176:\n        /* \"#utility.yul\":3425:3426   */\n      0x00\n        /* \"#utility.yul\":3414:3423   */\n      dup3\n        /* \"#utility.yul\":3410:3427   */\n      add\n        /* \"#utility.yul\":3397:3428   */\n      calldataload\n        /* \"#utility.yul\":3455:3473   */\n      0xffffffffffffffff\n        /* \"#utility.yul\":3447:3453   */\n      dup2\n        /* \"#utility.yul\":3444:3474   */\n      gt\n        /* \"#utility.yul\":3441:3558   */\n      iszero\n      tag_178\n      jumpi\n        /* \"#utility.yul\":3477:3556   */\n      tag_179\n      tag_164\n      jump\t// in\n    tag_179:\n        /* \"#utility.yul\":3441:3558   */\n    tag_178:\n        /* \"#utility.yul\":3582:3645   */\n      tag_180\n        /* \"#utility.yul\":3637:3644   */\n      dup5\n        /* \"#utility.yul\":3628:3634   */\n      dup3\n        /* \"#utility.yul\":3617:3626   */\n      dup6\n        /* \"#utility.yul\":3613:3635   */\n      add\n        /* \"#utility.yul\":3582:3645   */\n      tag_149\n      jump\t// in\n    tag_180:\n        /* \"#utility.yul\":3572:3645   */\n      swap2\n      pop\n        /* \"#utility.yul\":3368:3655   */\n      pop\n        /* \"#utility.yul\":3153:3662   */\n      swap3\n      swap2\n      pop\n      pop\n      jump\t// out\n        /* \"#utility.yul\":3668:3997   */\n    tag_38:\n        /* \"#utility.yul\":3727:3733   */\n      0x00\n        /* \"#utility.yul\":3776:3778   */\n      0x20\n        /* \"#utility.yul\":3764:3773   */\n      dup3\n        /* \"#utility.yul\":3755:3762   */\n      dup5\n        /* \"#utility.yul\":3751:3774   */\n      sub\n        /* \"#utility.yul\":3747:3779   */\n      slt\n        /* \"#utility.yul\":3744:3863   */\n      iszero\n      tag_182\n      jumpi\n        /* \"#utility.yul\":3782:3861   */\n      tag_183\n      tag_161\n      jump\t// in\n    tag_183:\n        /* \"#utility.yul\":3744:3863   */\n    tag_182:\n        /* \"#utility.yul\":3902:3903   */\n      0x00\n        /* \"#utility.yul\":3927:3980   */\n      tag_184\n        /* \"#utility.yul\":3972:3979   */\n      dup5\n        /* \"#utility.yul\":3963:3969   */\n      dup3\n        /* \"#utility.yul\":3952:3961   */\n      dup6\n        /* \"#utility.yul\":3948:3970   */\n      add\n        /* \"#utility.yul\":3927:3980   */\n      tag_154\n      jump\t// in\n    tag_184:\n        /* \"#utility.yul\":3917:3980   */\n      swap2\n      pop\n        /* \"#utility.yul\":3873:3990   */\n      pop\n        /* \"#utility.yul\":3668:3997   */\n      swap3\n      swap2\n      pop\n      pop\n      jump\t// out\n        /* \"#utility.yul\":4003:4477   */\n    tag_45:\n        /* \"#utility.yul\":4071:4077   */\n      0x00\n        /* \"#utility.yul\":4079:4085   */\n      dup1\n        /* \"#utility.yul\":4128:4130   */\n      0x40\n        /* \"#utility.yul\":4116:4125   */\n      dup4\n        /* \"#utility.yul\":4107:4114   */\n      dup6\n        /* \"#utility.yul\":4103:4126   */\n      sub\n        /* \"#utility.yul\":4099:4131   */\n      slt\n        /* \"#utility.yul\":4096:4215   */\n      iszero\n      tag_186\n      jumpi\n        /* \"#utility.yul\":4134:4213   */\n      tag_187\n      tag_161\n      jump\t// in\n    tag_187:\n        /* \"#utility.yul\":4096:4215   */\n    tag_186:\n        /* \"#utility.yul\":4254:4255   */\n      0x00\n        /* \"#utility.yul\":4279:4332   */\n      tag_188\n        /* \"#utility.yul\":4324:4331   */\n      dup6\n        /* \"#utility.yul\":4315:4321   */\n      dup3\n        /* \"#utility.yul\":4304:4313   */\n      dup7\n        /* \"#utility.yul\":4300:4322   */\n      add\n        /* \"#utility.yul\":4279:4332   */\n      tag_154\n      jump\t// in\n    tag_188:\n        /* \"#utility.yul\":4269:4332   */\n      swap3\n      pop\n        /* \"#utility.yul\":4225:4342   */\n      pop\n        /* \"#utility.yul\":4381:4383   */\n      0x20\n        /* \"#utility.yul\":4407:4460   */\n      tag_189\n        /* \"#utility.yul\":4452:4459   */\n      dup6\n        /* \"#utility.yul\":4443:4449   */\n      dup3\n        /* \"#utility.yul\":4432:4441   */\n      dup7\n        /* \"#utility.yul\":4428:4450   */\n      add\n        /* \"#utility.yul\":4407:4460   */\n      tag_134\n      jump\t// in\n    tag_189:\n        /* \"#utility.yul\":4397:4460   */\n      swap2\n      pop\n        /* \"#utility.yul\":4352:4470   */\n      pop\n        /* \"#utility.yul\":4003:4477   */\n      swap3\n      pop\n      swap3\n      swap1\n      pop\n      jump\t// out\n        /* \"#utility.yul\":4483:4957   */\n    tag_31:\n        /* \"#utility.yul\":4551:4557   */\n      0x00\n        /* \"#utility.yul\":4559:4565   */\n      dup1\n        /* \"#utility.yul\":4608:4610   */\n      0x40\n        /* \"#utility.yul\":4596:4605   */\n      dup4\n        /* \"#utility.yul\":4587:4594   */\n      dup6\n        /* \"#utility.yul\":4583:4606   */\n      sub\n        /* \"#utility.yul\":4579:4611   */\n      slt\n        /* \"#utility.yul\":4576:4695   */\n      iszero\n      tag_191\n      jumpi\n        /* \"#utility.yul\":4614:4693   */\n      tag_192\n      tag_161\n      jump\t// in\n    tag_192:\n        /* \"#utility.yul\":4576:4695   */\n    tag_191:\n        /* \"#utility.yul\":4734:4735   */\n      0x00\n        /* \"#utility.yul\":4759:4812   */\n      tag_193\n        /* \"#utility.yul\":4804:4811   */\n      dup6\n        /* \"#utility.yul\":4795:4801   */\n      dup3\n        /* \"#utility.yul\":4784:4793   */\n      dup7\n        /* \"#utility.yul\":4780:4802   */\n      add\n        /* \"#utility.yul\":4759:4812   */\n      tag_154\n      jump\t// in\n    tag_193:\n        /* \"#utility.yul\":4749:4812   */\n      swap3\n      pop\n        /* \"#utility.yul\":4705:4822   */\n      pop\n        /* \"#utility.yul\":4861:4863   */\n      0x20\n        /* \"#utility.yul\":4887:4940   */\n      tag_194\n        /* \"#utility.yul\":4932:4939   */\n      dup6\n        /* \"#utility.yul\":4923:4929   */\n      dup3\n        /* \"#utility.yul\":4912:4921   */\n      dup7\n        /* \"#utility.yul\":4908:4930   */\n      add\n        /* \"#utility.yul\":4887:4940   */\n      tag_154\n      jump\t// in\n    tag_194:\n        /* \"#utility.yul\":4877:4940   */\n      swap2\n      pop\n        /* \"#utility.yul\":4832:4950   */\n      pop\n        /* \"#utility.yul\":4483:4957   */\n      swap3\n      pop\n      swap3\n      swap1\n      pop\n      jump\t// out\n        /* \"#utility.yul\":4963:5081   */\n    tag_195:\n        /* \"#utility.yul\":5050:5074   */\n      tag_197\n        /* \"#utility.yul\":5068:5073   */\n      dup2\n        /* \"#utility.yul\":5050:5074   */\n      tag_198\n      jump\t// in\n    tag_197:\n        /* \"#utility.yul\":5045:5048   */\n      dup3\n        /* \"#utility.yul\":5038:5075   */\n      mstore\n        /* \"#utility.yul\":4963:5081   */\n      pop\n      pop\n      jump\t// out\n        /* \"#utility.yul\":5087:5186   */\n    tag_199:\n        /* \"#utility.yul\":5158:5179   */\n      tag_201\n        /* \"#utility.yul\":5173:5178   */\n      dup2\n        /* \"#utility.yul\":5158:5179   */\n      tag_202\n      jump\t// in\n    tag_201:\n        /* \"#utility.yul\":5153:5156   */\n      dup3\n        /* \"#utility.yul\":5146:5180   */\n      mstore\n        /* \"#utility.yul\":5087:5186   */\n      pop\n      pop\n      jump\t// out\n        /* \"#utility.yul\":5192:5301   */\n    tag_203:\n        /* \"#utility.yul\":5273:5294   */\n      tag_205\n        /* \"#utility.yul\":5288:5293   */\n      dup2\n        /* \"#utility.yul\":5273:5294   */\n      tag_202\n      jump\t// in\n    tag_205:\n        /* \"#utility.yul\":5268:5271   */\n      dup3\n        /* \"#utility.yul\":5261:5295   */\n      mstore\n        /* \"#utility.yul\":5192:5301   */\n      pop\n      pop\n      jump\t// out\n        /* \"#utility.yul\":5331:5648   */\n    tag_206:\n        /* \"#utility.yul\":5447:5450   */\n      0x00\n        /* \"#utility.yul\":5468:5557   */\n      tag_208\n        /* \"#utility.yul\":5550:5556   */\n      dup4\n        /* \"#utility.yul\":5545:5548   */\n      dup6\n        /* \"#utility.yul\":5468:5557   */\n      tag_209\n      jump\t// in\n    tag_208:\n        /* \"#utility.yul\":5461:5557   */\n      swap4\n      pop\n        /* \"#utility.yul\":5567:5610   */\n      tag_210\n        /* \"#utility.yul\":5603:5609   */\n      dup4\n        /* \"#utility.yul\":5598:5601   */\n      dup6\n        /* \"#utility.yul\":5591:5596   */\n      dup5\n        /* \"#utility.yul\":5567:5610   */\n      tag_133\n      jump\t// in\n    tag_210:\n        /* \"#utility.yul\":5635:5641   */\n      dup3\n        /* \"#utility.yul\":5630:5633   */\n      dup5\n        /* \"#utility.yul\":5626:5642   */\n      add\n        /* \"#utility.yul\":5619:5642   */\n      swap1\n      pop\n        /* \"#utility.yul\":5331:5648   */\n      swap4\n      swap3\n      pop\n      pop\n      pop\n      jump\t// out\n        /* \"#utility.yul\":5654:6018   */\n    tag_211:\n        /* \"#utility.yul\":5742:5745   */\n      0x00\n        /* \"#utility.yul\":5770:5809   */\n      tag_213\n        /* \"#utility.yul\":5803:5808   */\n      dup3\n        /* \"#utility.yul\":5770:5809   */\n      tag_214\n      jump\t// in\n    tag_213:\n        /* \"#utility.yul\":5825:5896   */\n      tag_215\n        /* \"#utility.yul\":5889:5895   */\n      dup2\n        /* \"#utility.yul\":5884:5887   */\n      dup6\n        /* \"#utility.yul\":5825:5896   */\n      tag_216\n      jump\t// in\n    tag_215:\n        /* \"#utility.yul\":5818:5896   */\n      swap4\n      pop\n        /* \"#utility.yul\":5905:5957   */\n      tag_217\n        /* \"#utility.yul\":5950:5956   */\n      dup2\n        /* \"#utility.yul\":5945:5948   */\n      dup6\n        /* \"#utility.yul\":5938:5942   */\n      0x20\n        /* \"#utility.yul\":5931:5936   */\n      dup7\n        /* \"#utility.yul\":5927:5943   */\n      add\n        /* \"#utility.yul\":5905:5957   */\n      tag_218\n      jump\t// in\n    tag_217:\n        /* \"#utility.yul\":5982:6011   */\n      tag_219\n        /* \"#utility.yul\":6004:6010   */\n      dup2\n        /* \"#utility.yul\":5982:6011   */\n      tag_220\n      jump\t// in\n    tag_219:\n        /* \"#utility.yul\":5977:5980   */\n      dup5\n        /* \"#utility.yul\":5973:6012   */\n      add\n        /* \"#utility.yul\":5966:6012   */\n      swap2\n      pop\n        /* \"#utility.yul\":5746:6018   */\n      pop\n        /* \"#utility.yul\":5654:6018   */\n      swap3\n      swap2\n      pop\n      pop\n      jump\t// out\n        /* \"#utility.yul\":6048:6893   */\n    tag_221:\n        /* \"#utility.yul\":6151:6154   */\n      0x00\n        /* \"#utility.yul\":6188:6193   */\n      dup2\n        /* \"#utility.yul\":6182:6194   */\n      sload\n        /* \"#utility.yul\":6217:6253   */\n      tag_223\n        /* \"#utility.yul\":6243:6252   */\n      dup2\n        /* \"#utility.yul\":6217:6253   */\n      tag_107\n      jump\t// in\n    tag_223:\n        /* \"#utility.yul\":6269:6358   */\n      tag_224\n        /* \"#utility.yul\":6351:6357   */\n      dup2\n        /* \"#utility.yul\":6346:6349   */\n      dup7\n        /* \"#utility.yul\":6269:6358   */\n      tag_209\n      jump\t// in\n    tag_224:\n        /* \"#utility.yul\":6262:6358   */\n      swap5\n      pop\n        /* \"#utility.yul\":6389:6390   */\n      0x01\n        /* \"#utility.yul\":6378:6387   */\n      dup3\n        /* \"#utility.yul\":6374:6391   */\n      and\n        /* \"#utility.yul\":6405:6406   */\n      0x00\n        /* \"#utility.yul\":6400:6537   */\n      dup2\n      eq\n      tag_226\n      jumpi\n        /* \"#utility.yul\":6551:6552   */\n      0x01\n        /* \"#utility.yul\":6546:6887   */\n      dup2\n      eq\n      tag_227\n      jumpi\n        /* \"#utility.yul\":6367:6887   */\n      jump(tag_225)\n        /* \"#utility.yul\":6400:6537   */\n    tag_226:\n        /* \"#utility.yul\":6484:6488   */\n      0xff\n        /* \"#utility.yul\":6480:6489   */\n      not\n        /* \"#utility.yul\":6469:6478   */\n      dup4\n        /* \"#utility.yul\":6465:6490   */\n      and\n        /* \"#utility.yul\":6460:6463   */\n      dup7\n        /* \"#utility.yul\":6453:6491   */\n      mstore\n        /* \"#utility.yul\":6520:6526   */\n      dup2\n        /* \"#utility.yul\":6515:6518   */\n      dup7\n        /* \"#utility.yul\":6511:6527   */\n      add\n        /* \"#utility.yul\":6504:6527   */\n      swap4\n      pop\n        /* \"#utility.yul\":6400:6537   */\n      jump(tag_225)\n        /* \"#utility.yul\":6546:6887   */\n    tag_227:\n        /* \"#utility.yul\":6613:6651   */\n      tag_228\n        /* \"#utility.yul\":6645:6650   */\n      dup6\n        /* \"#utility.yul\":6613:6651   */\n      tag_229\n      jump\t// in\n    tag_228:\n        /* \"#utility.yul\":6673:6674   */\n      0x00\n        /* \"#utility.yul\":6687:6841   */\n    tag_230:\n        /* \"#utility.yul\":6701:6707   */\n      dup4\n        /* \"#utility.yul\":6698:6699   */\n      dup2\n        /* \"#utility.yul\":6695:6708   */\n      lt\n        /* \"#utility.yul\":6687:6841   */\n      iszero\n      tag_232\n      jumpi\n        /* \"#utility.yul\":6775:6782   */\n      dup2\n        /* \"#utility.yul\":6769:6783   */\n      sload\n        /* \"#utility.yul\":6765:6766   */\n      dup2\n        /* \"#utility.yul\":6760:6763   */\n      dup10\n        /* \"#utility.yul\":6756:6767   */\n      add\n        /* \"#utility.yul\":6749:6784   */\n      mstore\n        /* \"#utility.yul\":6825:6826   */\n      0x01\n        /* \"#utility.yul\":6816:6823   */\n      dup3\n        /* \"#utility.yul\":6812:6827   */\n      add\n        /* \"#utility.yul\":6801:6827   */\n      swap2\n      pop\n        /* \"#utility.yul\":6723:6727   */\n      0x20\n        /* \"#utility.yul\":6720:6721   */\n      dup2\n        /* \"#utility.yul\":6716:6728   */\n      add\n        /* \"#utility.yul\":6711:6728   */\n      swap1\n      pop\n        /* \"#utility.yul\":6687:6841   */\n      jump(tag_230)\n    tag_232:\n        /* \"#utility.yul\":6870:6876   */\n      dup4\n        /* \"#utility.yul\":6865:6868   */\n      dup9\n        /* \"#utility.yul\":6861:6877   */\n      add\n        /* \"#utility.yul\":6854:6877   */\n      swap6\n      pop\n        /* \"#utility.yul\":6553:6887   */\n      pop\n      pop\n        /* \"#utility.yul\":6367:6887   */\n    tag_225:\n      pop\n        /* \"#utility.yul\":6155:6893   */\n      pop\n      pop\n        /* \"#utility.yul\":6048:6893   */\n      swap3\n      swap2\n      pop\n      pop\n      jump\t// out\n        /* \"#utility.yul\":6971:7649   */\n    tag_233:\n        /* \"#utility.yul\":7114:7118   */\n      0x60\n        /* \"#utility.yul\":7109:7112   */\n      dup3\n        /* \"#utility.yul\":7105:7119   */\n      add\n        /* \"#utility.yul\":7202:7206   */\n      0x00\n        /* \"#utility.yul\":7195:7200   */\n      dup3\n        /* \"#utility.yul\":7191:7207   */\n      add\n        /* \"#utility.yul\":7185:7208   */\n      mload\n        /* \"#utility.yul\":7221:7284   */\n      tag_235\n        /* \"#utility.yul\":7278:7282   */\n      0x00\n        /* \"#utility.yul\":7273:7276   */\n      dup6\n        /* \"#utility.yul\":7269:7283   */\n      add\n        /* \"#utility.yul\":7255:7267   */\n      dup3\n        /* \"#utility.yul\":7221:7284   */\n      tag_236\n      jump\t// in\n    tag_235:\n        /* \"#utility.yul\":7129:7294   */\n      pop\n        /* \"#utility.yul\":7380:7384   */\n      0x20\n        /* \"#utility.yul\":7373:7378   */\n      dup3\n        /* \"#utility.yul\":7369:7385   */\n      add\n        /* \"#utility.yul\":7363:7386   */\n      mload\n        /* \"#utility.yul\":7399:7462   */\n      tag_237\n        /* \"#utility.yul\":7456:7460   */\n      0x20\n        /* \"#utility.yul\":7451:7454   */\n      dup6\n        /* \"#utility.yul\":7447:7461   */\n      add\n        /* \"#utility.yul\":7433:7445   */\n      dup3\n        /* \"#utility.yul\":7399:7462   */\n      tag_236\n      jump\t// in\n    tag_237:\n        /* \"#utility.yul\":7304:7472   */\n      pop\n        /* \"#utility.yul\":7556:7560   */\n      0x40\n        /* \"#utility.yul\":7549:7554   */\n      dup3\n        /* \"#utility.yul\":7545:7561   */\n      add\n        /* \"#utility.yul\":7539:7562   */\n      mload\n        /* \"#utility.yul\":7575:7632   */\n      tag_238\n        /* \"#utility.yul\":7626:7630   */\n      0x40\n        /* \"#utility.yul\":7621:7624   */\n      dup6\n        /* \"#utility.yul\":7617:7631   */\n      add\n        /* \"#utility.yul\":7603:7615   */\n      dup3\n        /* \"#utility.yul\":7575:7632   */\n      tag_199\n      jump\t// in\n    tag_238:\n        /* \"#utility.yul\":7482:7642   */\n      pop\n        /* \"#utility.yul\":7083:7649   */\n      pop\n        /* \"#utility.yul\":6971:7649   */\n      pop\n      pop\n      jump\t// out\n        /* \"#utility.yul\":7655:7763   */\n    tag_236:\n        /* \"#utility.yul\":7732:7756   */\n      tag_240\n        /* \"#utility.yul\":7750:7755   */\n      dup2\n        /* \"#utility.yul\":7732:7756   */\n      tag_241\n      jump\t// in\n    tag_240:\n        /* \"#utility.yul\":7727:7730   */\n      dup3\n        /* \"#utility.yul\":7720:7757   */\n      mstore\n        /* \"#utility.yul\":7655:7763   */\n      pop\n      pop\n      jump\t// out\n        /* \"#utility.yul\":7769:7887   */\n    tag_242:\n        /* \"#utility.yul\":7856:7880   */\n      tag_244\n        /* \"#utility.yul\":7874:7879   */\n      dup2\n        /* \"#utility.yul\":7856:7880   */\n      tag_241\n      jump\t// in\n    tag_244:\n        /* \"#utility.yul\":7851:7854   */\n      dup3\n        /* \"#utility.yul\":7844:7881   */\n      mstore\n        /* \"#utility.yul\":7769:7887   */\n      pop\n      pop\n      jump\t// out\n        /* \"#utility.yul\":7893:8188   */\n    tag_59:\n        /* \"#utility.yul\":8035:8038   */\n      0x00\n        /* \"#utility.yul\":8057:8162   */\n      tag_246\n        /* \"#utility.yul\":8158:8161   */\n      dup3\n        /* \"#utility.yul\":8149:8155   */\n      dup5\n        /* \"#utility.yul\":8141:8147   */\n      dup7\n        /* \"#utility.yul\":8057:8162   */\n      tag_206\n      jump\t// in\n    tag_246:\n        /* \"#utility.yul\":8050:8162   */\n      swap2\n      pop\n        /* \"#utility.yul\":8179:8182   */\n      dup2\n        /* \"#utility.yul\":8172:8182   */\n      swap1\n      pop\n        /* \"#utility.yul\":7893:8188   */\n      swap4\n      swap3\n      pop\n      pop\n      pop\n      jump\t// out\n        /* \"#utility.yul\":8194:8463   */\n    tag_84:\n        /* \"#utility.yul\":8323:8326   */\n      0x00\n        /* \"#utility.yul\":8345:8437   */\n      tag_248\n        /* \"#utility.yul\":8433:8436   */\n      dup3\n        /* \"#utility.yul\":8424:8430   */\n      dup5\n        /* \"#utility.yul\":8345:8437   */\n      tag_221\n      jump\t// in\n    tag_248:\n        /* \"#utility.yul\":8338:8437   */\n      swap2\n      pop\n        /* \"#utility.yul\":8454:8457   */\n      dup2\n        /* \"#utility.yul\":8447:8457   */\n      swap1\n      pop\n        /* \"#utility.yul\":8194:8463   */\n      swap3\n      swap2\n      pop\n      pop\n      jump\t// out\n        /* \"#utility.yul\":8469:8691   */\n    tag_34:\n        /* \"#utility.yul\":8562:8566   */\n      0x00\n        /* \"#utility.yul\":8600:8602   */\n      0x20\n        /* \"#utility.yul\":8589:8598   */\n      dup3\n        /* \"#utility.yul\":8585:8603   */\n      add\n        /* \"#utility.yul\":8577:8603   */\n      swap1\n      pop\n        /* \"#utility.yul\":8613:8684   */\n      tag_250\n        /* \"#utility.yul\":8681:8682   */\n      0x00\n        /* \"#utility.yul\":8670:8679   */\n      dup4\n        /* \"#utility.yul\":8666:8683   */\n      add\n        /* \"#utility.yul\":8657:8663   */\n      dup5\n        /* \"#utility.yul\":8613:8684   */\n      tag_195\n      jump\t// in\n    tag_250:\n        /* \"#utility.yul\":8469:8691   */\n      swap3\n      swap2\n      pop\n      pop\n      jump\t// out\n        /* \"#utility.yul\":8697:9010   */\n    tag_56:\n        /* \"#utility.yul\":8810:8814   */\n      0x00\n        /* \"#utility.yul\":8848:8850   */\n      0x20\n        /* \"#utility.yul\":8837:8846   */\n      dup3\n        /* \"#utility.yul\":8833:8851   */\n      add\n        /* \"#utility.yul\":8825:8851   */\n      swap1\n      pop\n        /* \"#utility.yul\":8897:8906   */\n      dup2\n        /* \"#utility.yul\":8891:8895   */\n      dup2\n        /* \"#utility.yul\":8887:8907   */\n      sub\n        /* \"#utility.yul\":8883:8884   */\n      0x00\n        /* \"#utility.yul\":8872:8881   */\n      dup4\n        /* \"#utility.yul\":8868:8885   */\n      add\n        /* \"#utility.yul\":8861:8908   */\n      mstore\n        /* \"#utility.yul\":8925:9003   */\n      tag_252\n        /* \"#utility.yul\":8998:9002   */\n      dup2\n        /* \"#utility.yul\":8989:8995   */\n      dup5\n        /* \"#utility.yul\":8925:9003   */\n      tag_211\n      jump\t// in\n    tag_252:\n        /* \"#utility.yul\":8917:9003   */\n      swap1\n      pop\n        /* \"#utility.yul\":8697:9010   */\n      swap3\n      swap2\n      pop\n      pop\n      jump\t// out\n        /* \"#utility.yul\":9016:9330   */\n    tag_41:\n        /* \"#utility.yul\":9155:9159   */\n      0x00\n        /* \"#utility.yul\":9193:9195   */\n      0x60\n        /* \"#utility.yul\":9182:9191   */\n      dup3\n        /* \"#utility.yul\":9178:9196   */\n      add\n        /* \"#utility.yul\":9170:9196   */\n      swap1\n      pop\n        /* \"#utility.yul\":9206:9323   */\n      tag_254\n        /* \"#utility.yul\":9320:9321   */\n      0x00\n        /* \"#utility.yul\":9309:9318   */\n      dup4\n        /* \"#utility.yul\":9305:9322   */\n      add\n        /* \"#utility.yul\":9296:9302   */\n      dup5\n        /* \"#utility.yul\":9206:9323   */\n      tag_233\n      jump\t// in\n    tag_254:\n        /* \"#utility.yul\":9016:9330   */\n      swap3\n      swap2\n      pop\n      pop\n      jump\t// out\n        /* \"#utility.yul\":9336:9766   */\n    tag_17:\n        /* \"#utility.yul\":9479:9483   */\n      0x00\n        /* \"#utility.yul\":9517:9519   */\n      0x60\n        /* \"#utility.yul\":9506:9515   */\n      dup3\n        /* \"#utility.yul\":9502:9520   */\n      add\n        /* \"#utility.yul\":9494:9520   */\n      swap1\n      pop\n        /* \"#utility.yul\":9530:9601   */\n      tag_256\n        /* \"#utility.yul\":9598:9599   */\n      0x00\n        /* \"#utility.yul\":9587:9596   */\n      dup4\n        /* \"#utility.yul\":9583:9600   */\n      add\n        /* \"#utility.yul\":9574:9580   */\n      dup7\n        /* \"#utility.yul\":9530:9601   */\n      tag_242\n      jump\t// in\n    tag_256:\n        /* \"#utility.yul\":9611:9683   */\n      tag_257\n        /* \"#utility.yul\":9679:9681   */\n      0x20\n        /* \"#utility.yul\":9668:9677   */\n      dup4\n        /* \"#utility.yul\":9664:9682   */\n      add\n        /* \"#utility.yul\":9655:9661   */\n      dup6\n        /* \"#utility.yul\":9611:9683   */\n      tag_242\n      jump\t// in\n    tag_257:\n        /* \"#utility.yul\":9693:9759   */\n      tag_258\n        /* \"#utility.yul\":9755:9757   */\n      0x40\n        /* \"#utility.yul\":9744:9753   */\n      dup4\n        /* \"#utility.yul\":9740:9758   */\n      add\n        /* \"#utility.yul\":9731:9737   */\n      dup5\n        /* \"#utility.yul\":9693:9759   */\n      tag_203\n      jump\t// in\n    tag_258:\n        /* \"#utility.yul\":9336:9766   */\n      swap5\n      swap4\n      pop\n      pop\n      pop\n      pop\n      jump\t// out\n        /* \"#utility.yul\":9772:9901   */\n    tag_128:\n        /* \"#utility.yul\":9806:9812   */\n      0x00\n        /* \"#utility.yul\":9833:9853   */\n      tag_260\n      tag_261\n      jump\t// in\n    tag_260:\n        /* \"#utility.yul\":9823:9853   */\n      swap1\n      pop\n        /* \"#utility.yul\":9862:9895   */\n      tag_262\n        /* \"#utility.yul\":9890:9894   */\n      dup3\n        /* \"#utility.yul\":9882:9888   */\n      dup3\n        /* \"#utility.yul\":9862:9895   */\n      tag_263\n      jump\t// in\n    tag_262:\n        /* \"#utility.yul\":9772:9901   */\n      swap2\n      swap1\n      pop\n      jump\t// out\n        /* \"#utility.yul\":9907:9982   */\n    tag_261:\n        /* \"#utility.yul\":9940:9946   */\n      0x00\n        /* \"#utility.yul\":9973:9975   */\n      0x40\n        /* \"#utility.yul\":9967:9976   */\n      mload\n        /* \"#utility.yul\":9957:9976   */\n      swap1\n      pop\n        /* \"#utility.yul\":9907:9982   */\n      swap1\n      jump\t// out\n        /* \"#utility.yul\":9988:10296   */\n    tag_127:\n        /* \"#utility.yul\":10050:10054   */\n      0x00\n        /* \"#utility.yul\":10140:10158   */\n      0xffffffffffffffff\n        /* \"#utility.yul\":10132:10138   */\n      dup3\n        /* \"#utility.yul\":10129:10159   */\n      gt\n        /* \"#utility.yul\":10126:10182   */\n      iszero\n      tag_266\n      jumpi\n        /* \"#utility.yul\":10162:10180   */\n      tag_267\n      tag_268\n      jump\t// in\n    tag_267:\n        /* \"#utility.yul\":10126:10182   */\n    tag_266:\n        /* \"#utility.yul\":10200:10229   */\n      tag_269\n        /* \"#utility.yul\":10222:10228   */\n      dup3\n        /* \"#utility.yul\":10200:10229   */\n      tag_220\n      jump\t// in\n    tag_269:\n        /* \"#utility.yul\":10192:10229   */\n      swap1\n      pop\n        /* \"#utility.yul\":10284:10288   */\n      0x20\n        /* \"#utility.yul\":10278:10282   */\n      dup2\n        /* \"#utility.yul\":10274:10289   */\n      add\n        /* \"#utility.yul\":10266:10289   */\n      swap1\n      pop\n        /* \"#utility.yul\":9988:10296   */\n      swap2\n      swap1\n      pop\n      jump\t// out\n        /* \"#utility.yul\":10302:10443   */\n    tag_229:\n        /* \"#utility.yul\":10351:10355   */\n      0x00\n        /* \"#utility.yul\":10374:10377   */\n      dup2\n        /* \"#utility.yul\":10366:10377   */\n      swap1\n      pop\n        /* \"#utility.yul\":10397:10400   */\n      dup2\n        /* \"#utility.yul\":10394:10395   */\n      0x00\n        /* \"#utility.yul\":10387:10401   */\n      mstore\n        /* \"#utility.yul\":10431:10435   */\n      0x20\n        /* \"#utility.yul\":10428:10429   */\n      0x00\n        /* \"#utility.yul\":10418:10436   */\n      keccak256\n        /* \"#utility.yul\":10410:10436   */\n      swap1\n      pop\n        /* \"#utility.yul\":10302:10443   */\n      swap2\n      swap1\n      pop\n      jump\t// out\n        /* \"#utility.yul\":10449:10548   */\n    tag_214:\n        /* \"#utility.yul\":10501:10507   */\n      0x00\n        /* \"#utility.yul\":10535:10540   */\n      dup2\n        /* \"#utility.yul\":10529:10541   */\n      mload\n        /* \"#utility.yul\":10519:10541   */\n      swap1\n      pop\n        /* \"#utility.yul\":10449:10548   */\n      swap2\n      swap1\n      pop\n      jump\t// out\n        /* \"#utility.yul\":10554:10723   */\n    tag_216:\n        /* \"#utility.yul\":10638:10649   */\n      0x00\n        /* \"#utility.yul\":10672:10678   */\n      dup3\n        /* \"#utility.yul\":10667:10670   */\n      dup3\n        /* \"#utility.yul\":10660:10679   */\n      mstore\n        /* \"#utility.yul\":10712:10716   */\n      0x20\n        /* \"#utility.yul\":10707:10710   */\n      dup3\n        /* \"#utility.yul\":10703:10717   */\n      add\n        /* \"#utility.yul\":10688:10717   */\n      swap1\n      pop\n        /* \"#utility.yul\":10554:10723   */\n      swap3\n      swap2\n      pop\n      pop\n      jump\t// out\n        /* \"#utility.yul\":10729:10877   */\n    tag_209:\n        /* \"#utility.yul\":10831:10842   */\n      0x00\n        /* \"#utility.yul\":10868:10871   */\n      dup2\n        /* \"#utility.yul\":10853:10871   */\n      swap1\n      pop\n        /* \"#utility.yul\":10729:10877   */\n      swap3\n      swap2\n      pop\n      pop\n      jump\t// out\n        /* \"#utility.yul\":10883:11188   */\n    tag_73:\n        /* \"#utility.yul\":10923:10926   */\n      0x00\n        /* \"#utility.yul\":10942:10962   */\n      tag_275\n        /* \"#utility.yul\":10960:10961   */\n      dup3\n        /* \"#utility.yul\":10942:10962   */\n      tag_241\n      jump\t// in\n    tag_275:\n        /* \"#utility.yul\":10937:10962   */\n      swap2\n      pop\n        /* \"#utility.yul\":10976:10996   */\n      tag_276\n        /* \"#utility.yul\":10994:10995   */\n      dup4\n        /* \"#utility.yul\":10976:10996   */\n      tag_241\n      jump\t// in\n    tag_276:\n        /* \"#utility.yul\":10971:10996   */\n      swap3\n      pop\n        /* \"#utility.yul\":11130:11131   */\n      dup3\n        /* \"#utility.yul\":11062:11128   */\n      0xffffffffffffffffffffffffffffffffffffffffffffffffffffffffffffffff\n        /* \"#utility.yul\":11058:11132   */\n      sub\n        /* \"#utility.yul\":11055:11056   */\n      dup3\n        /* \"#utility.yul\":11052:11133   */\n      gt\n        /* \"#utility.yul\":11049:11156   */\n      iszero\n      tag_277\n      jumpi\n        /* \"#utility.yul\":11136:11154   */\n      tag_278\n      tag_279\n      jump\t// in\n    tag_278:\n        /* \"#utility.yul\":11049:11156   */\n    tag_277:\n        /* \"#utility.yul\":11180:11181   */\n      dup3\n        /* \"#utility.yul\":11177:11178   */\n      dup3\n        /* \"#utility.yul\":11173:11182   */\n      add\n        /* \"#utility.yul\":11166:11182   */\n      swap1\n      pop\n        /* \"#utility.yul\":10883:11188   */\n      swap3\n      swap2\n      pop\n      pop\n      jump\t// out\n        /* \"#utility.yul\":11194:11290   */\n    tag_198:\n        /* \"#utility.yul\":11231:11238   */\n      0x00\n        /* \"#utility.yul\":11260:11284   */\n      tag_281\n        /* \"#utility.yul\":11278:11283   */\n      dup3\n        /* \"#utility.yul\":11260:11284   */\n      tag_282\n      jump\t// in\n    tag_281:\n        /* \"#utility.yul\":11249:11284   */\n      swap1\n      pop\n        /* \"#utility.yul\":11194:11290   */\n      swap2\n      swap1\n      pop\n      jump\t// out\n        /* \"#utility.yul\":11296:11386   */\n    tag_202:\n        /* \"#utility.yul\":11330:11337   */\n      0x00\n        /* \"#utility.yul\":11373:11378   */\n      dup2\n        /* \"#utility.yul\":11366:11379   */\n      iszero\n        /* \"#utility.yul\":11359:11380   */\n      iszero\n        /* \"#utility.yul\":11348:11380   */\n      swap1\n      pop\n        /* \"#utility.yul\":11296:11386   */\n      swap2\n      swap1\n      pop\n      jump\t// out\n        /* \"#utility.yul\":11392:11518   */\n    tag_282:\n        /* \"#utility.yul\":11429:11436   */\n      0x00\n        /* \"#utility.yul\":11469:11511   */\n      0xffffffffffffffffffffffffffffffffffffffff\n        /* \"#utility.yul\":11462:11467   */\n      dup3\n        /* \"#utility.yul\":11458:11512   */\n      and\n        /* \"#utility.yul\":11447:11512   */\n      swap1\n      pop\n        /* \"#utility.yul\":11392:11518   */\n      swap2\n      swap1\n      pop\n      jump\t// out\n        /* \"#utility.yul\":11524:11601   */\n    tag_241:\n        /* \"#utility.yul\":11561:11568   */\n      0x00\n        /* \"#utility.yul\":11590:11595   */\n      dup2\n        /* \"#utility.yul\":11579:11595   */\n      swap1\n      pop\n        /* \"#utility.yul\":11524:11601   */\n      swap2\n      swap1\n      pop\n      jump\t// out\n        /* \"#utility.yul\":11607:11761   */\n    tag_133:\n        /* \"#utility.yul\":11691:11697   */\n      dup3\n        /* \"#utility.yul\":11686:11689   */\n      dup2\n        /* \"#utility.yul\":11681:11684   */\n      dup4\n        /* \"#utility.yul\":11668:11698   */\n      calldatacopy\n        /* \"#utility.yul\":11753:11754   */\n      0x00\n        /* \"#utility.yul\":11744:11750   */\n      dup4\n        /* \"#utility.yul\":11739:11742   */\n      dup4\n        /* \"#utility.yul\":11735:11751   */\n      add\n        /* \"#utility.yul\":11728:11755   */\n      mstore\n        /* \"#utility.yul\":11607:11761   */\n      pop\n      pop\n      pop\n      jump\t// out\n        /* \"#utility.yul\":11767:12074   */\n    tag_218:\n        /* \"#utility.yul\":11835:11836   */\n      0x00\n        /* \"#utility.yul\":11845:11958   */\n    tag_288:\n        /* \"#utility.yul\":11859:11865   */\n      dup4\n        /* \"#utility.yul\":11856:11857   */\n      dup2\n        /* \"#utility.yul\":11853:11866   */\n      lt\n        /* \"#utility.yul\":11845:11958   */\n      iszero\n      tag_290\n      jumpi\n        /* \"#utility.yul\":11944:11945   */\n      dup1\n        /* \"#utility.yul\":11939:11942   */\n      dup3\n        /* \"#utility.yul\":11935:11946   */\n      add\n        /* \"#utility.yul\":11929:11947   */\n      mload\n        /* \"#utility.yul\":11925:11926   */\n      dup2\n        /* \"#utility.yul\":11920:11923   */\n      dup5\n        /* \"#utility.yul\":11916:11927   */\n      add\n        /* \"#utility.yul\":11909:11948   */\n      mstore\n        /* \"#utility.yul\":11881:11883   */\n      0x20\n        /* \"#utility.yul\":11878:11879   */\n      dup2\n        /* \"#utility.yul\":11874:11884   */\n      add\n        /* \"#utility.yul\":11869:11884   */\n      swap1\n      pop\n        /* \"#utility.yul\":11845:11958   */\n      jump(tag_288)\n    tag_290:\n        /* \"#utility.yul\":11976:11982   */\n      dup4\n        /* \"#utility.yul\":11973:11974   */\n      dup2\n        /* \"#utility.yul\":11970:11983   */\n      gt\n        /* \"#utility.yul\":11967:12068   */\n      iszero\n      tag_291\n      jumpi\n        /* \"#utility.yul\":12056:12057   */\n      0x00\n        /* \"#utility.yul\":12047:12053   */\n      dup5\n        /* \"#utility.yul\":12042:12045   */\n      dup5\n        /* \"#utility.yul\":12038:12054   */\n      add\n        /* \"#utility.yul\":12031:12058   */\n      mstore\n        /* \"#utility.yul\":11967:12068   */\n    tag_291:\n        /* \"#utility.yul\":11816:12074   */\n      pop\n        /* \"#utility.yul\":11767:12074   */\n      pop\n      pop\n      pop\n      jump\t// out\n        /* \"#utility.yul\":12080:12251   */\n    tag_97:\n        /* \"#utility.yul\":12119:12122   */\n      0x00\n        /* \"#utility.yul\":12142:12166   */\n      tag_293\n        /* \"#utility.yul\":12160:12165   */\n      dup3\n        /* \"#utility.yul\":12142:12166   */\n      tag_241\n      jump\t// in\n    tag_293:\n        /* \"#utility.yul\":12133:12166   */\n      swap2\n      pop\n        /* \"#utility.yul\":12188:12192   */\n      0x00\n        /* \"#utility.yul\":12181:12186   */\n      dup3\n        /* \"#utility.yul\":12178:12193   */\n      eq\n        /* \"#utility.yul\":12175:12216   */\n      iszero\n      tag_294\n      jumpi\n        /* \"#utility.yul\":12196:12214   */\n      tag_295\n      tag_279\n      jump\t// in\n    tag_295:\n        /* \"#utility.yul\":12175:12216   */\n    tag_294:\n        /* \"#utility.yul\":12243:12244   */\n      0x01\n        /* \"#utility.yul\":12236:12241   */\n      dup3\n        /* \"#utility.yul\":12232:12245   */\n      sub\n        /* \"#utility.yul\":12225:12245   */\n      swap1\n      pop\n        /* \"#utility.yul\":12080:12251   */\n      swap2\n      swap1\n      pop\n      jump\t// out\n        /* \"#utility.yul\":12257:12577   */\n    tag_107:\n        /* \"#utility.yul\":12301:12307   */\n      0x00\n        /* \"#utility.yul\":12338:12339   */\n      0x02\n        /* \"#utility.yul\":12332:12336   */\n      dup3\n        /* \"#utility.yul\":12328:12340   */\n      div\n        /* \"#utility.yul\":12318:12340   */\n      swap1\n      pop\n        /* \"#utility.yul\":12385:12386   */\n      0x01\n        /* \"#utility.yul\":12379:12383   */\n      dup3\n        /* \"#utility.yul\":12375:12387   */\n      and\n        /* \"#utility.yul\":12406:12424   */\n      dup1\n        /* \"#utility.yul\":12396:12477   */\n      tag_297\n      jumpi\n        /* \"#utility.yul\":12462:12466   */\n      0x7f\n        /* \"#utility.yul\":12454:12460   */\n      dup3\n        /* \"#utility.yul\":12450:12467   */\n      and\n        /* \"#utility.yul\":12440:12467   */\n      swap2\n      pop\n        /* \"#utility.yul\":12396:12477   */\n    tag_297:\n        /* \"#utility.yul\":12524:12526   */\n      0x20\n        /* \"#utility.yul\":12516:12522   */\n      dup3\n        /* \"#utility.yul\":12513:12527   */\n      lt\n        /* \"#utility.yul\":12493:12511   */\n      dup2\n        /* \"#utility.yul\":12490:12528   */\n      eq\n        /* \"#utility.yul\":12487:12571   */\n      iszero\n      tag_298\n      jumpi\n        /* \"#utility.yul\":12543:12561   */\n      tag_299\n      tag_300\n      jump\t// in\n    tag_299:\n        /* \"#utility.yul\":12487:12571   */\n    tag_298:\n        /* \"#utility.yul\":12308:12577   */\n      pop\n        /* \"#utility.yul\":12257:12577   */\n      swap2\n      swap1\n      pop\n      jump\t// out\n        /* \"#utility.yul\":12583:12864   */\n    tag_263:\n        /* \"#utility.yul\":12666:12693   */\n      tag_302\n        /* \"#utility.yul\":12688:12692   */\n      dup3\n        /* \"#utility.yul\":12666:12693   */\n      tag_220\n      jump\t// in\n    tag_302:\n        /* \"#utility.yul\":12658:12664   */\n      dup2\n        /* \"#utility.yul\":12654:12694   */\n      add\n        /* \"#utility.yul\":12796:12802   */\n      dup2\n        /* \"#utility.yul\":12784:12794   */\n      dup2\n        /* \"#utility.yul\":12781:12803   */\n      lt\n        /* \"#utility.yul\":12760:12778   */\n      0xffffffffffffffff\n        /* \"#utility.yul\":12748:12758   */\n      dup3\n        /* \"#utility.yul\":12745:12779   */\n      gt\n        /* \"#utility.yul\":12742:12804   */\n      or\n        /* \"#utility.yul\":12739:12827   */\n      iszero\n      tag_303\n      jumpi\n        /* \"#utility.yul\":12807:12825   */\n      tag_304\n      tag_268\n      jump\t// in\n    tag_304:\n        /* \"#utility.yul\":12739:12827   */\n    tag_303:\n        /* \"#utility.yul\":12847:12857   */\n      dup1\n        /* \"#utility.yul\":12843:12845   */\n      0x40\n        /* \"#utility.yul\":12836:12858   */\n      mstore\n        /* \"#utility.yul\":12626:12864   */\n      pop\n        /* \"#utility.yul\":12583:12864   */\n      pop\n      pop\n      jump\t// out\n        /* \"#utility.yul\":12870:13050   */\n    tag_279:\n        /* \"#utility.yul\":12918:12995   */\n      0x4e487b7100000000000000000000000000000000000000000000000000000000\n        /* \"#utility.yul\":12915:12916   */\n      0x00\n        /* \"#utility.yul\":12908:12996   */\n      mstore\n        /* \"#utility.yul\":13015:13019   */\n      0x11\n        /* \"#utility.yul\":13012:13013   */\n      0x04\n        /* \"#utility.yul\":13005:13020   */\n      mstore\n        /* \"#utility.yul\":13039:13043   */\n      0x24\n        /* \"#utility.yul\":13036:13037   */\n      0x00\n        /* \"#utility.yul\":13029:13044   */\n      revert\n        /* \"#utility.yul\":13056:13236   */\n    tag_300:\n        /* \"#utility.yul\":13104:13181   */\n      0x4e487b7100000000000000000000000000000000000000000000000000000000\n        /* \"#utility.yul\":13101:13102   */\n      0x00\n        /* \"#utility.yul\":13094:13182   */\n      mstore\n        /* \"#utility.yul\":13201:13205   */\n      0x22\n        /* \"#utility.yul\":13198:13199   */\n      0x04\n        /* \"#utility.yul\":13191:13206   */\n      mstore\n        /* \"#utility.yul\":13225:13229   */\n      0x24\n        /* \"#utility.yul\":13222:13223   */\n      0x00\n        /* \"#utility.yul\":13215:13230   */\n      revert\n        /* \"#utility.yul\":13242:13422   */\n    tag_81:\n        /* \"#utility.yul\":13290:13367   */\n      0x4e487b7100000000000000000000000000000000000000000000000000000000\n        /* \"#utility.yul\":13287:13288   */\n      0x00\n        /* \"#utility.yul\":13280:13368   */\n      mstore\n        /* \"#utility.yul\":13387:13391   */\n      0x32\n        /* \"#utility.yul\":13384:13385   */\n      0x04\n        /* \"#utility.yul\":13377:13392   */\n      mstore\n        /* \"#utility.yul\":13411:13415   */\n      0x24\n        /* \"#utility.yul\":13408:13409   */\n      0x00\n        /* \"#utility.yul\":13401:13416   */\n      revert\n        /* \"#utility.yul\":13428:13608   */\n    tag_268:\n        /* \"#utility.yul\":13476:13553   */\n      0x4e487b7100000000000000000000000000000000000000000000000000000000\n        /* \"#utility.yul\":13473:13474   */\n      0x00\n        /* \"#utility.yul\":13466:13554   */\n      mstore\n        /* \"#utility.yul\":13573:13577   */\n      0x41\n        /* \"#utility.yul\":13570:13571   */\n      0x04\n        /* \"#utility.yul\":13563:13578   */\n      mstore\n        /* \"#utility.yul\":13597:13601   */\n      0x24\n        /* \"#utility.yul\":13594:13595   */\n      0x00\n        /* \"#utility.yul\":13587:13602   */\n      revert\n        /* \"#utility.yul\":13614:13731   */\n    tag_145:\n        /* \"#utility.yul\":13723:13724   */\n      0x00\n        /* \"#utility.yul\":13720:13721   */\n      dup1\n        /* \"#utility.yul\":13713:13725   */\n      revert\n        /* \"#utility.yul\":13737:13854   */\n    tag_142:\n        /* \"#utility.yul\":13846:13847   */\n      0x00\n        /* \"#utility.yul\":13843:13844   */\n      dup1\n        /* \"#utility.yul\":13836:13848   */\n      revert\n        /* \"#utility.yul\":13860:13977   */\n    tag_148:\n        /* \"#utility.yul\":13969:13970   */\n      0x00\n        /* \"#utility.yul\":13966:13967   */\n      dup1\n        /* \"#utility.yul\":13959:13971   */\n      revert\n        /* \"#utility.yul\":13983:14100   */\n    tag_131:\n        /* \"#utility.yul\":14092:14093   */\n      0x00\n        /* \"#utility.yul\":14089:14090   */\n      dup1\n        /* \"#utility.yul\":14082:14094   */\n      revert\n        /* \"#utility.yul\":14106:14223   */\n    tag_164:\n        /* \"#utility.yul\":14215:14216   */\n      0x00\n        /* \"#utility.yul\":14212:14213   */\n      dup1\n        /* \"#utility.yul\":14205:14217   */\n      revert\n        /* \"#utility.yul\":14229:14346   */\n    tag_161:\n        /* \"#utility.yul\":14338:14339   */\n      0x00\n        /* \"#utility.yul\":14335:14336   */\n      dup1\n        /* \"#utility.yul\":14328:14340   */\n      revert\n        /* \"#utility.yul\":14352:14454   */\n    tag_220:\n        /* \"#utility.yul\":14393:14399   */\n      0x00\n        /* \"#utility.yul\":14444:14446   */\n      0x1f\n        /* \"#utility.yul\":14440:14447   */\n      not\n        /* \"#utility.yul\":14435:14437   */\n      0x1f\n        /* \"#utility.yul\":14428:14433   */\n      dup4\n        /* \"#utility.yul\":14424:14438   */\n      add\n        /* \"#utility.yul\":14420:14448   */\n      and\n        /* \"#utility.yul\":14410:14448   */\n      swap1\n      pop\n        /* \"#utility.yul\":14352:14454   */\n      swap2\n      swap1\n      pop\n      jump\t// out\n        /* \"#utility.yul\":14460:14582   */\n    tag_137:\n        /* \"#utility.yul\":14533:14557   */\n      tag_317\n        /* \"#utility.yul\":14551:14556   */\n      dup2\n        /* \"#utility.yul\":14533:14557   */\n      tag_198\n      jump\t// in\n    tag_317:\n        /* \"#utility.yul\":14526:14531   */\n      dup2\n        /* \"#utility.yul\":14523:14558   */\n      eq\n        /* \"#utility.yul\":14513:14576   */\n      tag_318\n      jumpi\n        /* \"#utility.yul\":14572:14573   */\n      0x00\n        /* \"#utility.yul\":14569:14570   */\n      dup1\n        /* \"#utility.yul\":14562:14574   */\n      revert\n        /* \"#utility.yul\":14513:14576   */\n    tag_318:\n        /* \"#utility.yul\":14460:14582   */\n      pop\n      jump\t// out\n        /* \"#utility.yul\":14588:14710   */\n    tag_157:\n        /* \"#utility.yul\":14661:14685   */\n      tag_320\n        /* \"#utility.yul\":14679:14684   */\n      dup2\n        /* \"#utility.yul\":14661:14685   */\n      tag_241\n      jump\t// in\n    tag_320:\n        /* \"#utility.yul\":14654:14659   */\n      dup2\n        /* \"#utility.yul\":14651:14686   */\n      eq\n        /* \"#utility.yul\":14641:14704   */\n      tag_321\n      jumpi\n        /* \"#utility.yul\":14700:14701   */\n      0x00\n        /* \"#utility.yul\":14697:14698   */\n      dup1\n        /* \"#utility.yul\":14690:14702   */\n      revert\n        /* \"#utility.yul\":14641:14704   */\n    tag_321:\n        /* \"#utility.yul\":14588:14710   */\n      pop\n      jump\t// out\n\n    auxdata: 0xa2646970667358221220f93ba843872936b76068f9b26da7f6839b1cf683dfe9482d2e6c0a4fd09b06f964736f6c63430008070033\n}\n",
				"bytecode": {
					"linkReferences": {},
					"object": "608060405261125d806100136000396000f3fe60806040526004361061007b5760003560e01c806329e99f071161004e57806329e99f071461014e57806374cbc3501461018b5780638642269e146101ca578063e4bcc7d4146101e65761007b565b80630186a423146100805780630a5bd44b146100bf5780631d894eb8146100e857806327e7875a14610111575b600080fd5b34801561008c57600080fd5b506100a760048036038101906100a29190610bf0565b610223565b6040516100b693929190610ed8565b60405180910390f35b3480156100cb57600080fd5b506100e660048036038101906100e19190610b7c565b610270565b005b3480156100f457600080fd5b5061010f600480360381019061010a9190610b1c565b6103a6565b005b34801561011d57600080fd5b5061013860048036038101906101339190610ca6565b610452565b6040516101459190610e80565b60405180910390f35b34801561015a57600080fd5b5061017560048036038101906101709190610c39565b6104a0565b6040516101829190610ebd565b60405180910390f35b34801561019757600080fd5b506101b260048036038101906101ad9190610c66565b610524565b6040516101c193929190610ed8565b60405180910390f35b6101e460048036038101906101df9190610c39565b610568565b005b3480156101f257600080fd5b5061020d60048036038101906102089190610c39565b610897565b60405161021a9190610e9b565b60405180910390f35b6001818051602081018201805184825260208301602085012081835280955050505050506000915090508060000154908060010154908060020160009054906101000a900460ff16905083565b60018484604051610282929190610e50565b908152602001604051809103902060020160009054906101000a900460ff1661036e576102ad610943565b8281600001818152505081816020018181525050600181604001901515908115158152505080600186866040516102e5929190610e50565b9081526020016040518091039020600082015181600001556020820151816001015560408201518160020160006101000a81548160ff0219169083151502179055509050506000858590918060018154018082558091505060019003906000526020600020016000909192909192909192909192509190610367929190610966565b50506103a0565b6040517fb185df3a00000000000000000000000000000000000000000000000000000000815260040160405180910390fd5b50505050565b600183836040516103b8929190610e50565b908152602001604051809103902060020160009054906101000a900460ff161561041b5780600184846040516103ef929190610e50565b9081526020016040518091039020600101600082825461040f9190610fa1565b9250508190555061044d565b6040517f7e8d96a900000000000000000000000000000000000000000000000000000000815260040160405180910390fd5b505050565b6003602052816000526040600020818154811061046e57600080fd5b906000526020600020016000915091509054906101000a900473ffffffffffffffffffffffffffffffffffffffff1681565b6104a8610943565b6001600083815481106104be576104bd61116c565b5b906000526020600020016040516104d59190610e69565b908152602001604051809103902060405180606001604052908160008201548152602001600182015481526020016002820160009054906101000a900460ff1615151515815250509050919050565b6002602052816000526040600020602052806000526040600020600091509150508060000154908060010154908060020160009054906101000a900460ff16905083565b600080549050811080156105da57506002600082815260200190815260200160002060003373ffffffffffffffffffffffffffffffffffffffff1673ffffffffffffffffffffffffffffffffffffffff16815260200190815260200160002060020160009054906101000a900460ff16155b156108625760006001600083815481106105f7576105f661116c565b5b9060005260206000200160405161060e9190610e69565b908152602001604051809103902060405180606001604052908160008201548152602001600182015481526020016002820160009054906101000a900460ff1615151515815250509050806000015134108061066e575060018160200151105b156106a5576040517ff80236cc00000000000000000000000000000000000000000000000000000000815260040160405180910390fd5b6106ad6109ec565b4381600001818152505081600001518160200181815250506001816040019015159081151581525050806002600085815260200190815260200160002060003373ffffffffffffffffffffffffffffffffffffffff1673ffffffffffffffffffffffffffffffffffffffff168152602001908152602001600020600082015181600001556020820151816001015560408201518160020160006101000a81548160ff02191690831515021790555090505081602001805180919061077090611081565b815250508160016000858154811061078b5761078a61116c565b5b906000526020600020016040516107a29190610e69565b9081526020016040518091039020600082015181600001556020820151816001015560408201518160020160006101000a81548160ff02191690831515021790555090505060036000848152602001908152602001600020339080600181540180825580915050600190039060005260206000200160009091909190916101000a81548173ffffffffffffffffffffffffffffffffffffffff021916908373ffffffffffffffffffffffffffffffffffffffff1602179055505050610894565b6040517fd42c9b8b00000000000000000000000000000000000000000000000000000000815260040160405180910390fd5b50565b600081815481106108a757600080fd5b9060005260206000200160009150905080546108c2906110ab565b80601f01602080910402602001604051908101604052809291908181526020018280546108ee906110ab565b801561093b5780601f106109105761010080835404028352916020019161093b565b820191906000526020600020905b81548152906001019060200180831161091e57829003601f168201915b505050505081565b604051806060016040528060008152602001600081526020016000151581525090565b828054610972906110ab565b90600052602060002090601f01602090048101928261099457600085556109db565b82601f106109ad57803560ff19168380011785556109db565b828001600101855582156109db579182015b828111156109da5782358255916020019190600101906109bf565b5b5090506109e89190610a0f565b5090565b604051806060016040528060008152602001600081526020016000151581525090565b5b80821115610a28576000816000905550600101610a10565b5090565b6000610a3f610a3a84610f34565b610f0f565b905082815260208101848484011115610a5b57610a5a6111d9565b5b610a6684828561103f565b509392505050565b600081359050610a7d816111f9565b92915050565b60008083601f840112610a9957610a986111cf565b5b8235905067ffffffffffffffff811115610ab657610ab56111ca565b5b602083019150836001820283011115610ad257610ad16111d4565b5b9250929050565b600082601f830112610aee57610aed6111cf565b5b8135610afe848260208601610a2c565b91505092915050565b600081359050610b1681611210565b92915050565b600080600060408486031215610b3557610b346111e3565b5b600084013567ffffffffffffffff811115610b5357610b526111de565b5b610b5f86828701610a83565b93509350506020610b7286828701610b07565b9150509250925092565b60008060008060608587031215610b9657610b956111e3565b5b600085013567ffffffffffffffff811115610bb457610bb36111de565b5b610bc087828801610a83565b94509450506020610bd387828801610b07565b9250506040610be487828801610b07565b91505092959194509250565b600060208284031215610c0657610c056111e3565b5b600082013567ffffffffffffffff811115610c2457610c236111de565b5b610c3084828501610ad9565b91505092915050565b600060208284031215610c4f57610c4e6111e3565b5b6000610c5d84828501610b07565b91505092915050565b60008060408385031215610c7d57610c7c6111e3565b5b6000610c8b85828601610b07565b9250506020610c9c85828601610a6e565b9150509250929050565b60008060408385031215610cbd57610cbc6111e3565b5b6000610ccb85828601610b07565b9250506020610cdc85828601610b07565b9150509250929050565b610cef81610ff7565b82525050565b610cfe81611009565b82525050565b610d0d81611009565b82525050565b6000610d1f8385610f96565b9350610d2c83858461103f565b82840190509392505050565b6000610d4382610f7a565b610d4d8185610f85565b9350610d5d81856020860161104e565b610d66816111e8565b840191505092915050565b60008154610d7e816110ab565b610d888186610f96565b94506001821660008114610da35760018114610db457610de7565b60ff19831686528186019350610de7565b610dbd85610f65565b60005b83811015610ddf57815481890152600182019150602081019050610dc0565b838801955050505b50505092915050565b606082016000820151610e066000850182610e32565b506020820151610e196020850182610e32565b506040820151610e2c6040850182610cf5565b50505050565b610e3b81611035565b82525050565b610e4a81611035565b82525050565b6000610e5d828486610d13565b91508190509392505050565b6000610e758284610d71565b915081905092915050565b6000602082019050610e956000830184610ce6565b92915050565b60006020820190508181036000830152610eb58184610d38565b905092915050565b6000606082019050610ed26000830184610df0565b92915050565b6000606082019050610eed6000830186610e41565b610efa6020830185610e41565b610f076040830184610d04565b949350505050565b6000610f19610f2a565b9050610f2582826110dd565b919050565b6000604051905090565b600067ffffffffffffffff821115610f4f57610f4e61119b565b5b610f58826111e8565b9050602081019050919050565b60008190508160005260206000209050919050565b600081519050919050565b600082825260208201905092915050565b600081905092915050565b6000610fac82611035565b9150610fb783611035565b9250827fffffffffffffffffffffffffffffffffffffffffffffffffffffffffffffffff03821115610fec57610feb61110e565b5b828201905092915050565b600061100282611015565b9050919050565b60008115159050919050565b600073ffffffffffffffffffffffffffffffffffffffff82169050919050565b6000819050919050565b82818337600083830152505050565b60005b8381101561106c578082015181840152602081019050611051565b8381111561107b576000848401525b50505050565b600061108c82611035565b915060008214156110a05761109f61110e565b5b600182039050919050565b600060028204905060018216806110c357607f821691505b602082108114156110d7576110d661113d565b5b50919050565b6110e6826111e8565b810181811067ffffffffffffffff821117156111055761110461119b565b5b80604052505050565b7f4e487b7100000000000000000000000000000000000000000000000000000000600052601160045260246000fd5b7f4e487b7100000000000000000000000000000000000000000000000000000000600052602260045260246000fd5b7f4e487b7100000000000000000000000000000000000000000000000000000000600052603260045260246000fd5b7f4e487b7100000000000000000000000000000000000000000000000000000000600052604160045260246000fd5b600080fd5b600080fd5b600080fd5b600080fd5b600080fd5b600080fd5b6000601f19601f8301169050919050565b61120281610ff7565b811461120d57600080fd5b50565b61121981611035565b811461122457600080fd5b5056fea2646970667358221220f93ba843872936b76068f9b26da7f6839b1cf683dfe9482d2e6c0a4fd09b06f964736f6c63430008070033",
					"opcodes": "PUSH1 0x80 PUSH1 0x40 MSTORE PUSH2 0x125D DUP1 PUSH2 0x13 PUSH1 0x0 CODECOPY PUSH1 0x0 RETURN INVALID PUSH1 0x80 PUSH1 0x40 MSTORE PUSH1 0x4 CALLDATASIZE LT PUSH2 0x7B JUMPI PUSH1 0x0 CALLDATALOAD PUSH1 0xE0 SHR DUP1 PUSH4 0x29E99F07 GT PUSH2 0x4E JUMPI DUP1 PUSH4 0x29E99F07 EQ PUSH2 0x14E JUMPI DUP1 PUSH4 0x74CBC350 EQ PUSH2 0x18B JUMPI DUP1 PUSH4 0x8642269E EQ PUSH2 0x1CA JUMPI DUP1 PUSH4 0xE4BCC7D4 EQ PUSH2 0x1E6 JUMPI PUSH2 0x7B JUMP JUMPDEST DUP1 PUSH4 0x186A423 EQ PUSH2 0x80 JUMPI DUP1 PUSH4 0xA5BD44B EQ PUSH2 0xBF JUMPI DUP1 PUSH4 0x1D894EB8 EQ PUSH2 0xE8 JUMPI DUP1 PUSH4 0x27E7875A EQ PUSH2 0x111 JUMPI JUMPDEST PUSH1 0x0 DUP1 REVERT JUMPDEST CALLVALUE DUP1 ISZERO PUSH2 0x8C JUMPI PUSH1 0x0 DUP1 REVERT JUMPDEST POP PUSH2 0xA7 PUSH1 0x4 DUP1 CALLDATASIZE SUB DUP2 ADD SWAP1 PUSH2 0xA2 SWAP2 SWAP1 PUSH2 0xBF0 JUMP JUMPDEST PUSH2 0x223 JUMP JUMPDEST PUSH1 0x40 MLOAD PUSH2 0xB6 SWAP4 SWAP3 SWAP2 SWAP1 PUSH2 0xED8 JUMP JUMPDEST PUSH1 0x40 MLOAD DUP1 SWAP2 SUB SWAP1 RETURN JUMPDEST CALLVALUE DUP1 ISZERO PUSH2 0xCB JUMPI PUSH1 0x0 DUP1 REVERT JUMPDEST POP PUSH2 0xE6 PUSH1 0x4 DUP1 CALLDATASIZE SUB DUP2 ADD SWAP1 PUSH2 0xE1 SWAP2 SWAP1 PUSH2 0xB7C JUMP JUMPDEST PUSH2 0x270 JUMP JUMPDEST STOP JUMPDEST CALLVALUE DUP1 ISZERO PUSH2 0xF4 JUMPI PUSH1 0x0 DUP1 REVERT JUMPDEST POP PUSH2 0x10F PUSH1 0x4 DUP1 CALLDATASIZE SUB DUP2 ADD SWAP1 PUSH2 0x10A SWAP2 SWAP1 PUSH2 0xB1C JUMP JUMPDEST PUSH2 0x3A6 JUMP JUMPDEST STOP JUMPDEST CALLVALUE DUP1 ISZERO PUSH2 0x11D JUMPI PUSH1 0x0 DUP1 REVERT JUMPDEST POP PUSH2 0x138 PUSH1 0x4 DUP1 CALLDATASIZE SUB DUP2 ADD SWAP1 PUSH2 0x133 SWAP2 SWAP1 PUSH2 0xCA6 JUMP JUMPDEST PUSH2 0x452 JUMP JUMPDEST PUSH1 0x40 MLOAD PUSH2 0x145 SWAP2 SWAP1 PUSH2 0xE80 JUMP JUMPDEST PUSH1 0x40 MLOAD DUP1 SWAP2 SUB SWAP1 RETURN JUMPDEST CALLVALUE DUP1 ISZERO PUSH2 0x15A JUMPI PUSH1 0x0 DUP1 REVERT JUMPDEST POP PUSH2 0x175 PUSH1 0x4 DUP1 CALLDATASIZE SUB DUP2 ADD SWAP1 PUSH2 0x170 SWAP2 SWAP1 PUSH2 0xC39 JUMP JUMPDEST PUSH2 0x4A0 JUMP JUMPDEST PUSH1 0x40 MLOAD PUSH2 0x182 SWAP2 SWAP1 PUSH2 0xEBD JUMP JUMPDEST PUSH1 0x40 MLOAD DUP1 SWAP2 SUB SWAP1 RETURN JUMPDEST CALLVALUE DUP1 ISZERO PUSH2 0x197 JUMPI PUSH1 0x0 DUP1 REVERT JUMPDEST POP PUSH2 0x1B2 PUSH1 0x4 DUP1 CALLDATASIZE SUB DUP2 ADD SWAP1 PUSH2 0x1AD SWAP2 SWAP1 PUSH2 0xC66 JUMP JUMPDEST PUSH2 0x524 JUMP JUMPDEST PUSH1 0x40 MLOAD PUSH2 0x1C1 SWAP4 SWAP3 SWAP2 SWAP1 PUSH2 0xED8 JUMP JUMPDEST PUSH1 0x40 MLOAD DUP1 SWAP2 SUB SWAP1 RETURN JUMPDEST PUSH2 0x1E4 PUSH1 0x4 DUP1 CALLDATASIZE SUB DUP2 ADD SWAP1 PUSH2 0x1DF SWAP2 SWAP1 PUSH2 0xC39 JUMP JUMPDEST PUSH2 0x568 JUMP JUMPDEST STOP JUMPDEST CALLVALUE DUP1 ISZERO PUSH2 0x1F2 JUMPI PUSH1 0x0 DUP1 REVERT JUMPDEST POP PUSH2 0x20D PUSH1 0x4 DUP1 CALLDATASIZE SUB DUP2 ADD SWAP1 PUSH2 0x208 SWAP2 SWAP1 PUSH2 0xC39 JUMP JUMPDEST PUSH2 0x897 JUMP JUMPDEST PUSH1 0x40 MLOAD PUSH2 0x21A SWAP2 SWAP1 PUSH2 0xE9B JUMP JUMPDEST PUSH1 0x40 MLOAD DUP1 SWAP2 SUB SWAP1 RETURN JUMPDEST PUSH1 0x1 DUP2 DUP1 MLOAD PUSH1 0x20 DUP2 ADD DUP3 ADD DUP1 MLOAD DUP5 DUP3 MSTORE PUSH1 0x20 DUP4 ADD PUSH1 0x20 DUP6 ADD KECCAK256 DUP2 DUP4 MSTORE DUP1 SWAP6 POP POP POP POP POP POP PUSH1 0x0 SWAP2 POP SWAP1 POP DUP1 PUSH1 0x0 ADD SLOAD SWAP1 DUP1 PUSH1 0x1 ADD SLOAD SWAP1 DUP1 PUSH1 0x2 ADD PUSH1 0x0 SWAP1 SLOAD SWAP1 PUSH2 0x100 EXP SWAP1 DIV PUSH1 0xFF AND SWAP1 POP DUP4 JUMP JUMPDEST PUSH1 0x1 DUP5 DUP5 PUSH1 0x40 MLOAD PUSH2 0x282 SWAP3 SWAP2 SWAP1 PUSH2 0xE50 JUMP JUMPDEST SWAP1 DUP2 MSTORE PUSH1 0x20 ADD PUSH1 0x40 MLOAD DUP1 SWAP2 SUB SWAP1 KECCAK256 PUSH1 0x2 ADD PUSH1 0x0 SWAP1 SLOAD SWAP1 PUSH2 0x100 EXP SWAP1 DIV PUSH1 0xFF AND PUSH2 0x36E JUMPI PUSH2 0x2AD PUSH2 0x943 JUMP JUMPDEST DUP3 DUP2 PUSH1 0x0 ADD DUP2 DUP2 MSTORE POP POP DUP2 DUP2 PUSH1 0x20 ADD DUP2 DUP2 MSTORE POP POP PUSH1 0x1 DUP2 PUSH1 0x40 ADD SWAP1 ISZERO ISZERO SWAP1 DUP2 ISZERO ISZERO DUP2 MSTORE POP POP DUP1 PUSH1 0x1 DUP7 DUP7 PUSH1 0x40 MLOAD PUSH2 0x2E5 SWAP3 SWAP2 SWAP1 PUSH2 0xE50 JUMP JUMPDEST SWAP1 DUP2 MSTORE PUSH1 0x20 ADD PUSH1 0x40 MLOAD DUP1 SWAP2 SUB SWAP1 KECCAK256 PUSH1 0x0 DUP3 ADD MLOAD DUP2 PUSH1 0x0 ADD SSTORE PUSH1 0x20 DUP3 ADD MLOAD DUP2 PUSH1 0x1 ADD SSTORE PUSH1 0x40 DUP3 ADD MLOAD DUP2 PUSH1 0x2 ADD PUSH1 0x0 PUSH2 0x100 EXP DUP2 SLOAD DUP2 PUSH1 0xFF MUL NOT AND SWAP1 DUP4 ISZERO ISZERO MUL OR SWAP1 SSTORE POP SWAP1 POP POP PUSH1 0x0 DUP6 DUP6 SWAP1 SWAP2 DUP1 PUSH1 0x1 DUP2 SLOAD ADD DUP1 DUP3 SSTORE DUP1 SWAP2 POP POP PUSH1 0x1 SWAP1 SUB SWAP1 PUSH1 0x0 MSTORE PUSH1 0x20 PUSH1 0x0 KECCAK256 ADD PUSH1 0x0 SWAP1 SWAP2 SWAP3 SWAP1 SWAP2 SWAP3 SWAP1 SWAP2 SWAP3 SWAP1 SWAP2 SWAP3 POP SWAP2 SWAP1 PUSH2 0x367 SWAP3 SWAP2 SWAP1 PUSH2 0x966 JUMP JUMPDEST POP POP PUSH2 0x3A0 JUMP JUMPDEST PUSH1 0x40 MLOAD PUSH32 0xB185DF3A00000000000000000000000000000000000000000000000000000000 DUP2 MSTORE PUSH1 0x4 ADD PUSH1 0x40 MLOAD DUP1 SWAP2 SUB SWAP1 REVERT JUMPDEST POP POP POP POP JUMP JUMPDEST PUSH1 0x1 DUP4 DUP4 PUSH1 0x40 MLOAD PUSH2 0x3B8 SWAP3 SWAP2 SWAP1 PUSH2 0xE50 JUMP JUMPDEST SWAP1 DUP2 MSTORE PUSH1 0x20 ADD PUSH1 0x40 MLOAD DUP1 SWAP2 SUB SWAP1 KECCAK256 PUSH1 0x2 ADD PUSH1 0x0 SWAP1 SLOAD SWAP1 PUSH2 0x100 EXP SWAP1 DIV PUSH1 0xFF AND ISZERO PUSH2 0x41B JUMPI DUP1 PUSH1 0x1 DUP5 DUP5 PUSH1 0x40 MLOAD PUSH2 0x3EF SWAP3 SWAP2 SWAP1 PUSH2 0xE50 JUMP JUMPDEST SWAP1 DUP2 MSTORE PUSH1 0x20 ADD PUSH1 0x40 MLOAD DUP1 SWAP2 SUB SWAP1 KECCAK256 PUSH1 0x1 ADD PUSH1 0x0 DUP3 DUP3 SLOAD PUSH2 0x40F SWAP2 SWAP1 PUSH2 0xFA1 JUMP JUMPDEST SWAP3 POP POP DUP2 SWAP1 SSTORE POP PUSH2 0x44D JUMP JUMPDEST PUSH1 0x40 MLOAD PUSH32 0x7E8D96A900000000000000000000000000000000000000000000000000000000 DUP2 MSTORE PUSH1 0x4 ADD PUSH1 0x40 MLOAD DUP1 SWAP2 SUB SWAP1 REVERT JUMPDEST POP POP POP JUMP JUMPDEST PUSH1 0x3 PUSH1 0x20 MSTORE DUP2 PUSH1 0x0 MSTORE PUSH1 0x40 PUSH1 0x0 KECCAK256 DUP2 DUP2 SLOAD DUP2 LT PUSH2 0x46E JUMPI PUSH1 0x0 DUP1 REVERT JUMPDEST SWAP1 PUSH1 0x0 MSTORE PUSH1 0x20 PUSH1 0x0 KECCAK256 ADD PUSH1 0x0 SWAP2 POP SWAP2 POP SWAP1 SLOAD SWAP1 PUSH2 0x100 EXP SWAP1 DIV PUSH20 0xFFFFFFFFFFFFFFFFFFFFFFFFFFFFFFFFFFFFFFFF AND DUP2 JUMP JUMPDEST PUSH2 0x4A8 PUSH2 0x943 JUMP JUMPDEST PUSH1 0x1 PUSH1 0x0 DUP4 DUP2 SLOAD DUP2 LT PUSH2 0x4BE JUMPI PUSH2 0x4BD PUSH2 0x116C JUMP JUMPDEST JUMPDEST SWAP1 PUSH1 0x0 MSTORE PUSH1 0x20 PUSH1 0x0 KECCAK256 ADD PUSH1 0x40 MLOAD PUSH2 0x4D5 SWAP2 SWAP1 PUSH2 0xE69 JUMP JUMPDEST SWAP1 DUP2 MSTORE PUSH1 0x20 ADD PUSH1 0x40 MLOAD DUP1 SWAP2 SUB SWAP1 KECCAK256 PUSH1 0x40 MLOAD DUP1 PUSH1 0x60 ADD PUSH1 0x40 MSTORE SWAP1 DUP2 PUSH1 0x0 DUP3 ADD SLOAD DUP2 MSTORE PUSH1 0x20 ADD PUSH1 0x1 DUP3 ADD SLOAD DUP2 MSTORE PUSH1 0x20 ADD PUSH1 0x2 DUP3 ADD PUSH1 0x0 SWAP1 SLOAD SWAP1 PUSH2 0x100 EXP SWAP1 DIV PUSH1 0xFF AND ISZERO ISZERO ISZERO ISZERO DUP2 MSTORE POP POP SWAP1 POP SWAP2 SWAP1 POP JUMP JUMPDEST PUSH1 0x2 PUSH1 0x20 MSTORE DUP2 PUSH1 0x0 MSTORE PUSH1 0x40 PUSH1 0x0 KECCAK256 PUSH1 0x20 MSTORE DUP1 PUSH1 0x0 MSTORE PUSH1 0x40 PUSH1 0x0 KECCAK256 PUSH1 0x0 SWAP2 POP SWAP2 POP POP DUP1 PUSH1 0x0 ADD SLOAD SWAP1 DUP1 PUSH1 0x1 ADD SLOAD SWAP1 DUP1 PUSH1 0x2 ADD PUSH1 0x0 SWAP1 SLOAD SWAP1 PUSH2 0x100 EXP SWAP1 DIV PUSH1 0xFF AND SWAP1 POP DUP4 JUMP JUMPDEST PUSH1 0x0 DUP1 SLOAD SWAP1 POP DUP2 LT DUP1 ISZERO PUSH2 0x5DA JUMPI POP PUSH1 0x2 PUSH1 0x0 DUP3 DUP2 MSTORE PUSH1 0x20 ADD SWAP1 DUP2 MSTORE PUSH1 0x20 ADD PUSH1 0x0 KECCAK256 PUSH1 0x0 CALLER PUSH20 0xFFFFFFFFFFFFFFFFFFFFFFFFFFFFFFFFFFFFFFFF AND PUSH20 0xFFFFFFFFFFFFFFFFFFFFFFFFFFFFFFFFFFFFFFFF AND DUP2 MSTORE PUSH1 0x20 ADD SWAP1 DUP2 MSTORE PUSH1 0x20 ADD PUSH1 0x0 KECCAK256 PUSH1 0x2 ADD PUSH1 0x0 SWAP1 SLOAD SWAP1 PUSH2 0x100 EXP SWAP1 DIV PUSH1 0xFF AND ISZERO JUMPDEST ISZERO PUSH2 0x862 JUMPI PUSH1 0x0 PUSH1 0x1 PUSH1 0x0 DUP4 DUP2 SLOAD DUP2 LT PUSH2 0x5F7 JUMPI PUSH2 0x5F6 PUSH2 0x116C JUMP JUMPDEST JUMPDEST SWAP1 PUSH1 0x0 MSTORE PUSH1 0x20 PUSH1 0x0 KECCAK256 ADD PUSH1 0x40 MLOAD PUSH2 0x60E SWAP2 SWAP1 PUSH2 0xE69 JUMP JUMPDEST SWAP1 DUP2 MSTORE PUSH1 0x20 ADD PUSH1 0x40 MLOAD DUP1 SWAP2 SUB SWAP1 KECCAK256 PUSH1 0x40 MLOAD DUP1 PUSH1 0x60 ADD PUSH1 0x40 MSTORE SWAP1 DUP2 PUSH1 0x0 DUP3 ADD SLOAD DUP2 MSTORE PUSH1 0x20 ADD PUSH1 0x1 DUP3 ADD SLOAD DUP2 MSTORE PUSH1 0x20 ADD PUSH1 0x2 DUP3 ADD PUSH1 0x0 SWAP1 SLOAD SWAP1 PUSH2 0x100 EXP SWAP1 DIV PUSH1 0xFF AND ISZERO ISZERO ISZERO ISZERO DUP2 MSTORE POP POP SWAP1 POP DUP1 PUSH1 0x0 ADD MLOAD CALLVALUE LT DUP1 PUSH2 0x66E JUMPI POP PUSH1 0x1 DUP2 PUSH1 0x20 ADD MLOAD LT JUMPDEST ISZERO PUSH2 0x6A5 JUMPI PUSH1 0x40 MLOAD PUSH32 0xF80236CC00000000000000000000000000000000000000000000000000000000 DUP2 MSTORE PUSH1 0x4 ADD PUSH1 0x40 MLOAD DUP1 SWAP2 SUB SWAP1 REVERT JUMPDEST PUSH2 0x6AD PUSH2 0x9EC JUMP JUMPDEST NUMBER DUP2 PUSH1 0x0 ADD DUP2 DUP2 MSTORE POP POP DUP2 PUSH1 0x0 ADD MLOAD DUP2 PUSH1 0x20 ADD DUP2 DUP2 MSTORE POP POP PUSH1 0x1 DUP2 PUSH1 0x40 ADD SWAP1 ISZERO ISZERO SWAP1 DUP2 ISZERO ISZERO DUP2 MSTORE POP POP DUP1 PUSH1 0x2 PUSH1 0x0 DUP6 DUP2 MSTORE PUSH1 0x20 ADD SWAP1 DUP2 MSTORE PUSH1 0x20 ADD PUSH1 0x0 KECCAK256 PUSH1 0x0 CALLER PUSH20 0xFFFFFFFFFFFFFFFFFFFFFFFFFFFFFFFFFFFFFFFF AND PUSH20 0xFFFFFFFFFFFFFFFFFFFFFFFFFFFFFFFFFFFFFFFF AND DUP2 MSTORE PUSH1 0x20 ADD SWAP1 DUP2 MSTORE PUSH1 0x20 ADD PUSH1 0x0 KECCAK256 PUSH1 0x0 DUP3 ADD MLOAD DUP2 PUSH1 0x0 ADD SSTORE PUSH1 0x20 DUP3 ADD MLOAD DUP2 PUSH1 0x1 ADD SSTORE PUSH1 0x40 DUP3 ADD MLOAD DUP2 PUSH1 0x2 ADD PUSH1 0x0 PUSH2 0x100 EXP DUP2 SLOAD DUP2 PUSH1 0xFF MUL NOT AND SWAP1 DUP4 ISZERO ISZERO MUL OR SWAP1 SSTORE POP SWAP1 POP POP DUP2 PUSH1 0x20 ADD DUP1 MLOAD DUP1 SWAP2 SWAP1 PUSH2 0x770 SWAP1 PUSH2 0x1081 JUMP JUMPDEST DUP2 MSTORE POP POP DUP2 PUSH1 0x1 PUSH1 0x0 DUP6 DUP2 SLOAD DUP2 LT PUSH2 0x78B JUMPI PUSH2 0x78A PUSH2 0x116C JUMP JUMPDEST JUMPDEST SWAP1 PUSH1 0x0 MSTORE PUSH1 0x20 PUSH1 0x0 KECCAK256 ADD PUSH1 0x40 MLOAD PUSH2 0x7A2 SWAP2 SWAP1 PUSH2 0xE69 JUMP JUMPDEST SWAP1 DUP2 MSTORE PUSH1 0x20 ADD PUSH1 0x40 MLOAD DUP1 SWAP2 SUB SWAP1 KECCAK256 PUSH1 0x0 DUP3 ADD MLOAD DUP2 PUSH1 0x0 ADD SSTORE PUSH1 0x20 DUP3 ADD MLOAD DUP2 PUSH1 0x1 ADD SSTORE PUSH1 0x40 DUP3 ADD MLOAD DUP2 PUSH1 0x2 ADD PUSH1 0x0 PUSH2 0x100 EXP DUP2 SLOAD DUP2 PUSH1 0xFF MUL NOT AND SWAP1 DUP4 ISZERO ISZERO MUL OR SWAP1 SSTORE POP SWAP1 POP POP PUSH1 0x3 PUSH1 0x0 DUP5 DUP2 MSTORE PUSH1 0x20 ADD SWAP1 DUP2 MSTORE PUSH1 0x20 ADD PUSH1 0x0 KECCAK256 CALLER SWAP1 DUP1 PUSH1 0x1 DUP2 SLOAD ADD DUP1 DUP3 SSTORE DUP1 SWAP2 POP POP PUSH1 0x1 SWAP1 SUB SWAP1 PUSH1 0x0 MSTORE PUSH1 0x20 PUSH1 0x0 KECCAK256 ADD PUSH1 0x0 SWAP1 SWAP2 SWAP1 SWAP2 SWAP1 SWAP2 PUSH2 0x100 EXP DUP2 SLOAD DUP2 PUSH20 0xFFFFFFFFFFFFFFFFFFFFFFFFFFFFFFFFFFFFFFFF MUL NOT AND SWAP1 DUP4 PUSH20 0xFFFFFFFFFFFFFFFFFFFFFFFFFFFFFFFFFFFFFFFF AND MUL OR SWAP1 SSTORE POP POP POP PUSH2 0x894 JUMP JUMPDEST PUSH1 0x40 MLOAD PUSH32 0xD42C9B8B00000000000000000000000000000000000000000000000000000000 DUP2 MSTORE PUSH1 0x4 ADD PUSH1 0x40 MLOAD DUP1 SWAP2 SUB SWAP1 REVERT JUMPDEST POP JUMP JUMPDEST PUSH1 0x0 DUP2 DUP2 SLOAD DUP2 LT PUSH2 0x8A7 JUMPI PUSH1 0x0 DUP1 REVERT JUMPDEST SWAP1 PUSH1 0x0 MSTORE PUSH1 0x20 PUSH1 0x0 KECCAK256 ADD PUSH1 0x0 SWAP2 POP SWAP1 POP DUP1 SLOAD PUSH2 0x8C2 SWAP1 PUSH2 0x10AB JUMP JUMPDEST DUP1 PUSH1 0x1F ADD PUSH1 0x20 DUP1 SWAP2 DIV MUL PUSH1 0x20 ADD PUSH1 0x40 MLOAD SWAP1 DUP2 ADD PUSH1 0x40 MSTORE DUP1 SWAP3 SWAP2 SWAP1 DUP2 DUP2 MSTORE PUSH1 0x20 ADD DUP3 DUP1 SLOAD PUSH2 0x8EE SWAP1 PUSH2 0x10AB JUMP JUMPDEST DUP1 ISZERO PUSH2 0x93B JUMPI DUP1 PUSH1 0x1F LT PUSH2 0x910 JUMPI PUSH2 0x100 DUP1 DUP4 SLOAD DIV MUL DUP4 MSTORE SWAP2 PUSH1 0x20 ADD SWAP2 PUSH2 0x93B JUMP JUMPDEST DUP3 ADD SWAP2 SWAP1 PUSH1 0x0 MSTORE PUSH1 0x20 PUSH1 0x0 KECCAK256 SWAP1 JUMPDEST DUP2 SLOAD DUP2 MSTORE SWAP1 PUSH1 0x1 ADD SWAP1 PUSH1 0x20 ADD DUP1 DUP4 GT PUSH2 0x91E JUMPI DUP3 SWAP1 SUB PUSH1 0x1F AND DUP3 ADD SWAP2 JUMPDEST POP POP POP POP POP DUP2 JUMP JUMPDEST PUSH1 0x40 MLOAD DUP1 PUSH1 0x60 ADD PUSH1 0x40 MSTORE DUP1 PUSH1 0x0 DUP2 MSTORE PUSH1 0x20 ADD PUSH1 0x0 DUP2 MSTORE PUSH1 0x20 ADD PUSH1 0x0 ISZERO ISZERO DUP2 MSTORE POP SWAP1 JUMP JUMPDEST DUP3 DUP1 SLOAD PUSH2 0x972 SWAP1 PUSH2 0x10AB JUMP JUMPDEST SWAP1 PUSH1 0x0 MSTORE PUSH1 0x20 PUSH1 0x0 KECCAK256 SWAP1 PUSH1 0x1F ADD PUSH1 0x20 SWAP1 DIV DUP2 ADD SWAP3 DUP3 PUSH2 0x994 JUMPI PUSH1 0x0 DUP6 SSTORE PUSH2 0x9DB JUMP JUMPDEST DUP3 PUSH1 0x1F LT PUSH2 0x9AD JUMPI DUP1 CALLDATALOAD PUSH1 0xFF NOT AND DUP4 DUP1 ADD OR DUP6 SSTORE PUSH2 0x9DB JUMP JUMPDEST DUP3 DUP1 ADD PUSH1 0x1 ADD DUP6 SSTORE DUP3 ISZERO PUSH2 0x9DB JUMPI SWAP2 DUP3 ADD JUMPDEST DUP3 DUP2 GT ISZERO PUSH2 0x9DA JUMPI DUP3 CALLDATALOAD DUP3 SSTORE SWAP2 PUSH1 0x20 ADD SWAP2 SWAP1 PUSH1 0x1 ADD SWAP1 PUSH2 0x9BF JUMP JUMPDEST JUMPDEST POP SWAP1 POP PUSH2 0x9E8 SWAP2 SWAP1 PUSH2 0xA0F JUMP JUMPDEST POP SWAP1 JUMP JUMPDEST PUSH1 0x40 MLOAD DUP1 PUSH1 0x60 ADD PUSH1 0x40 MSTORE DUP1 PUSH1 0x0 DUP2 MSTORE PUSH1 0x20 ADD PUSH1 0x0 DUP2 MSTORE PUSH1 0x20 ADD PUSH1 0x0 ISZERO ISZERO DUP2 MSTORE POP SWAP1 JUMP JUMPDEST JUMPDEST DUP1 DUP3 GT ISZERO PUSH2 0xA28 JUMPI PUSH1 0x0 DUP2 PUSH1 0x0 SWAP1 SSTORE POP PUSH1 0x1 ADD PUSH2 0xA10 JUMP JUMPDEST POP SWAP1 JUMP JUMPDEST PUSH1 0x0 PUSH2 0xA3F PUSH2 0xA3A DUP5 PUSH2 0xF34 JUMP JUMPDEST PUSH2 0xF0F JUMP JUMPDEST SWAP1 POP DUP3 DUP2 MSTORE PUSH1 0x20 DUP2 ADD DUP5 DUP5 DUP5 ADD GT ISZERO PUSH2 0xA5B JUMPI PUSH2 0xA5A PUSH2 0x11D9 JUMP JUMPDEST JUMPDEST PUSH2 0xA66 DUP5 DUP3 DUP6 PUSH2 0x103F JUMP JUMPDEST POP SWAP4 SWAP3 POP POP POP JUMP JUMPDEST PUSH1 0x0 DUP2 CALLDATALOAD SWAP1 POP PUSH2 0xA7D DUP2 PUSH2 0x11F9 JUMP JUMPDEST SWAP3 SWAP2 POP POP JUMP JUMPDEST PUSH1 0x0 DUP1 DUP4 PUSH1 0x1F DUP5 ADD SLT PUSH2 0xA99 JUMPI PUSH2 0xA98 PUSH2 0x11CF JUMP JUMPDEST JUMPDEST DUP3 CALLDATALOAD SWAP1 POP PUSH8 0xFFFFFFFFFFFFFFFF DUP2 GT ISZERO PUSH2 0xAB6 JUMPI PUSH2 0xAB5 PUSH2 0x11CA JUMP JUMPDEST JUMPDEST PUSH1 0x20 DUP4 ADD SWAP2 POP DUP4 PUSH1 0x1 DUP3 MUL DUP4 ADD GT ISZERO PUSH2 0xAD2 JUMPI PUSH2 0xAD1 PUSH2 0x11D4 JUMP JUMPDEST JUMPDEST SWAP3 POP SWAP3 SWAP1 POP JUMP JUMPDEST PUSH1 0x0 DUP3 PUSH1 0x1F DUP4 ADD SLT PUSH2 0xAEE JUMPI PUSH2 0xAED PUSH2 0x11CF JUMP JUMPDEST JUMPDEST DUP2 CALLDATALOAD PUSH2 0xAFE DUP5 DUP3 PUSH1 0x20 DUP7 ADD PUSH2 0xA2C JUMP JUMPDEST SWAP2 POP POP SWAP3 SWAP2 POP POP JUMP JUMPDEST PUSH1 0x0 DUP2 CALLDATALOAD SWAP1 POP PUSH2 0xB16 DUP2 PUSH2 0x1210 JUMP JUMPDEST SWAP3 SWAP2 POP POP JUMP JUMPDEST PUSH1 0x0 DUP1 PUSH1 0x0 PUSH1 0x40 DUP5 DUP7 SUB SLT ISZERO PUSH2 0xB35 JUMPI PUSH2 0xB34 PUSH2 0x11E3 JUMP JUMPDEST JUMPDEST PUSH1 0x0 DUP5 ADD CALLDATALOAD PUSH8 0xFFFFFFFFFFFFFFFF DUP2 GT ISZERO PUSH2 0xB53 JUMPI PUSH2 0xB52 PUSH2 0x11DE JUMP JUMPDEST JUMPDEST PUSH2 0xB5F DUP7 DUP3 DUP8 ADD PUSH2 0xA83 JUMP JUMPDEST SWAP4 POP SWAP4 POP POP PUSH1 0x20 PUSH2 0xB72 DUP7 DUP3 DUP8 ADD PUSH2 0xB07 JUMP JUMPDEST SWAP2 POP POP SWAP3 POP SWAP3 POP SWAP3 JUMP JUMPDEST PUSH1 0x0 DUP1 PUSH1 0x0 DUP1 PUSH1 0x60 DUP6 DUP8 SUB SLT ISZERO PUSH2 0xB96 JUMPI PUSH2 0xB95 PUSH2 0x11E3 JUMP JUMPDEST JUMPDEST PUSH1 0x0 DUP6 ADD CALLDATALOAD PUSH8 0xFFFFFFFFFFFFFFFF DUP2 GT ISZERO PUSH2 0xBB4 JUMPI PUSH2 0xBB3 PUSH2 0x11DE JUMP JUMPDEST JUMPDEST PUSH2 0xBC0 DUP8 DUP3 DUP9 ADD PUSH2 0xA83 JUMP JUMPDEST SWAP5 POP SWAP5 POP POP PUSH1 0x20 PUSH2 0xBD3 DUP8 DUP3 DUP9 ADD PUSH2 0xB07 JUMP JUMPDEST SWAP3 POP POP PUSH1 0x40 PUSH2 0xBE4 DUP8 DUP3 DUP9 ADD PUSH2 0xB07 JUMP JUMPDEST SWAP2 POP POP SWAP3 SWAP6 SWAP2 SWAP5 POP SWAP3 POP JUMP JUMPDEST PUSH1 0x0 PUSH1 0x20 DUP3 DUP5 SUB SLT ISZERO PUSH2 0xC06 JUMPI PUSH2 0xC05 PUSH2 0x11E3 JUMP JUMPDEST JUMPDEST PUSH1 0x0 DUP3 ADD CALLDATALOAD PUSH8 0xFFFFFFFFFFFFFFFF DUP2 GT ISZERO PUSH2 0xC24 JUMPI PUSH2 0xC23 PUSH2 0x11DE JUMP JUMPDEST JUMPDEST PUSH2 0xC30 DUP5 DUP3 DUP6 ADD PUSH2 0xAD9 JUMP JUMPDEST SWAP2 POP POP SWAP3 SWAP2 POP POP JUMP JUMPDEST PUSH1 0x0 PUSH1 0x20 DUP3 DUP5 SUB SLT ISZERO PUSH2 0xC4F JUMPI PUSH2 0xC4E PUSH2 0x11E3 JUMP JUMPDEST JUMPDEST PUSH1 0x0 PUSH2 0xC5D DUP5 DUP3 DUP6 ADD PUSH2 0xB07 JUMP JUMPDEST SWAP2 POP POP SWAP3 SWAP2 POP POP JUMP JUMPDEST PUSH1 0x0 DUP1 PUSH1 0x40 DUP4 DUP6 SUB SLT ISZERO PUSH2 0xC7D JUMPI PUSH2 0xC7C PUSH2 0x11E3 JUMP JUMPDEST JUMPDEST PUSH1 0x0 PUSH2 0xC8B DUP6 DUP3 DUP7 ADD PUSH2 0xB07 JUMP JUMPDEST SWAP3 POP POP PUSH1 0x20 PUSH2 0xC9C DUP6 DUP3 DUP7 ADD PUSH2 0xA6E JUMP JUMPDEST SWAP2 POP POP SWAP3 POP SWAP3 SWAP1 POP JUMP JUMPDEST PUSH1 0x0 DUP1 PUSH1 0x40 DUP4 DUP6 SUB SLT ISZERO PUSH2 0xCBD JUMPI PUSH2 0xCBC PUSH2 0x11E3 JUMP JUMPDEST JUMPDEST PUSH1 0x0 PUSH2 0xCCB DUP6 DUP3 DUP7 ADD PUSH2 0xB07 JUMP JUMPDEST SWAP3 POP POP PUSH1 0x20 PUSH2 0xCDC DUP6 DUP3 DUP7 ADD PUSH2 0xB07 JUMP JUMPDEST SWAP2 POP POP SWAP3 POP SWAP3 SWAP1 POP JUMP JUMPDEST PUSH2 0xCEF DUP2 PUSH2 0xFF7 JUMP JUMPDEST DUP3 MSTORE POP POP JUMP JUMPDEST PUSH2 0xCFE DUP2 PUSH2 0x1009 JUMP JUMPDEST DUP3 MSTORE POP POP JUMP JUMPDEST PUSH2 0xD0D DUP2 PUSH2 0x1009 JUMP JUMPDEST DUP3 MSTORE POP POP JUMP JUMPDEST PUSH1 0x0 PUSH2 0xD1F DUP4 DUP6 PUSH2 0xF96 JUMP JUMPDEST SWAP4 POP PUSH2 0xD2C DUP4 DUP6 DUP5 PUSH2 0x103F JUMP JUMPDEST DUP3 DUP5 ADD SWAP1 POP SWAP4 SWAP3 POP POP POP JUMP JUMPDEST PUSH1 0x0 PUSH2 0xD43 DUP3 PUSH2 0xF7A JUMP JUMPDEST PUSH2 0xD4D DUP2 DUP6 PUSH2 0xF85 JUMP JUMPDEST SWAP4 POP PUSH2 0xD5D DUP2 DUP6 PUSH1 0x20 DUP7 ADD PUSH2 0x104E JUMP JUMPDEST PUSH2 0xD66 DUP2 PUSH2 0x11E8 JUMP JUMPDEST DUP5 ADD SWAP2 POP POP SWAP3 SWAP2 POP POP JUMP JUMPDEST PUSH1 0x0 DUP2 SLOAD PUSH2 0xD7E DUP2 PUSH2 0x10AB JUMP JUMPDEST PUSH2 0xD88 DUP2 DUP7 PUSH2 0xF96 JUMP JUMPDEST SWAP5 POP PUSH1 0x1 DUP3 AND PUSH1 0x0 DUP2 EQ PUSH2 0xDA3 JUMPI PUSH1 0x1 DUP2 EQ PUSH2 0xDB4 JUMPI PUSH2 0xDE7 JUMP JUMPDEST PUSH1 0xFF NOT DUP4 AND DUP7 MSTORE DUP2 DUP7 ADD SWAP4 POP PUSH2 0xDE7 JUMP JUMPDEST PUSH2 0xDBD DUP6 PUSH2 0xF65 JUMP JUMPDEST PUSH1 0x0 JUMPDEST DUP4 DUP2 LT ISZERO PUSH2 0xDDF JUMPI DUP2 SLOAD DUP2 DUP10 ADD MSTORE PUSH1 0x1 DUP3 ADD SWAP2 POP PUSH1 0x20 DUP2 ADD SWAP1 POP PUSH2 0xDC0 JUMP JUMPDEST DUP4 DUP9 ADD SWAP6 POP POP POP JUMPDEST POP POP POP SWAP3 SWAP2 POP POP JUMP JUMPDEST PUSH1 0x60 DUP3 ADD PUSH1 0x0 DUP3 ADD MLOAD PUSH2 0xE06 PUSH1 0x0 DUP6 ADD DUP3 PUSH2 0xE32 JUMP JUMPDEST POP PUSH1 0x20 DUP3 ADD MLOAD PUSH2 0xE19 PUSH1 0x20 DUP6 ADD DUP3 PUSH2 0xE32 JUMP JUMPDEST POP PUSH1 0x40 DUP3 ADD MLOAD PUSH2 0xE2C PUSH1 0x40 DUP6 ADD DUP3 PUSH2 0xCF5 JUMP JUMPDEST POP POP POP POP JUMP JUMPDEST PUSH2 0xE3B DUP2 PUSH2 0x1035 JUMP JUMPDEST DUP3 MSTORE POP POP JUMP JUMPDEST PUSH2 0xE4A DUP2 PUSH2 0x1035 JUMP JUMPDEST DUP3 MSTORE POP POP JUMP JUMPDEST PUSH1 0x0 PUSH2 0xE5D DUP3 DUP5 DUP7 PUSH2 0xD13 JUMP JUMPDEST SWAP2 POP DUP2 SWAP1 POP SWAP4 SWAP3 POP POP POP JUMP JUMPDEST PUSH1 0x0 PUSH2 0xE75 DUP3 DUP5 PUSH2 0xD71 JUMP JUMPDEST SWAP2 POP DUP2 SWAP1 POP SWAP3 SWAP2 POP POP JUMP JUMPDEST PUSH1 0x0 PUSH1 0x20 DUP3 ADD SWAP1 POP PUSH2 0xE95 PUSH1 0x0 DUP4 ADD DUP5 PUSH2 0xCE6 JUMP JUMPDEST SWAP3 SWAP2 POP POP JUMP JUMPDEST PUSH1 0x0 PUSH1 0x20 DUP3 ADD SWAP1 POP DUP2 DUP2 SUB PUSH1 0x0 DUP4 ADD MSTORE PUSH2 0xEB5 DUP2 DUP5 PUSH2 0xD38 JUMP JUMPDEST SWAP1 POP SWAP3 SWAP2 POP POP JUMP JUMPDEST PUSH1 0x0 PUSH1 0x60 DUP3 ADD SWAP1 POP PUSH2 0xED2 PUSH1 0x0 DUP4 ADD DUP5 PUSH2 0xDF0 JUMP JUMPDEST SWAP3 SWAP2 POP POP JUMP JUMPDEST PUSH1 0x0 PUSH1 0x60 DUP3 ADD SWAP1 POP PUSH2 0xEED PUSH1 0x0 DUP4 ADD DUP7 PUSH2 0xE41 JUMP JUMPDEST PUSH2 0xEFA PUSH1 0x20 DUP4 ADD DUP6 PUSH2 0xE41 JUMP JUMPDEST PUSH2 0xF07 PUSH1 0x40 DUP4 ADD DUP5 PUSH2 0xD04 JUMP JUMPDEST SWAP5 SWAP4 POP POP POP POP JUMP JUMPDEST PUSH1 0x0 PUSH2 0xF19 PUSH2 0xF2A JUMP JUMPDEST SWAP1 POP PUSH2 0xF25 DUP3 DUP3 PUSH2 0x10DD JUMP JUMPDEST SWAP2 SWAP1 POP JUMP JUMPDEST PUSH1 0x0 PUSH1 0x40 MLOAD SWAP1 POP SWAP1 JUMP JUMPDEST PUSH1 0x0 PUSH8 0xFFFFFFFFFFFFFFFF DUP3 GT ISZERO PUSH2 0xF4F JUMPI PUSH2 0xF4E PUSH2 0x119B JUMP JUMPDEST JUMPDEST PUSH2 0xF58 DUP3 PUSH2 0x11E8 JUMP JUMPDEST SWAP1 POP PUSH1 0x20 DUP2 ADD SWAP1 POP SWAP2 SWAP1 POP JUMP JUMPDEST PUSH1 0x0 DUP2 SWAP1 POP DUP2 PUSH1 0x0 MSTORE PUSH1 0x20 PUSH1 0x0 KECCAK256 SWAP1 POP SWAP2 SWAP1 POP JUMP JUMPDEST PUSH1 0x0 DUP2 MLOAD SWAP1 POP SWAP2 SWAP1 POP JUMP JUMPDEST PUSH1 0x0 DUP3 DUP3 MSTORE PUSH1 0x20 DUP3 ADD SWAP1 POP SWAP3 SWAP2 POP POP JUMP JUMPDEST PUSH1 0x0 DUP2 SWAP1 POP SWAP3 SWAP2 POP POP JUMP JUMPDEST PUSH1 0x0 PUSH2 0xFAC DUP3 PUSH2 0x1035 JUMP JUMPDEST SWAP2 POP PUSH2 0xFB7 DUP4 PUSH2 0x1035 JUMP JUMPDEST SWAP3 POP DUP3 PUSH32 0xFFFFFFFFFFFFFFFFFFFFFFFFFFFFFFFFFFFFFFFFFFFFFFFFFFFFFFFFFFFFFFFF SUB DUP3 GT ISZERO PUSH2 0xFEC JUMPI PUSH2 0xFEB PUSH2 0x110E JUMP JUMPDEST JUMPDEST DUP3 DUP3 ADD SWAP1 POP SWAP3 SWAP2 POP POP JUMP JUMPDEST PUSH1 0x0 PUSH2 0x1002 DUP3 PUSH2 0x1015 JUMP JUMPDEST SWAP1 POP SWAP2 SWAP1 POP JUMP JUMPDEST PUSH1 0x0 DUP2 ISZERO ISZERO SWAP1 POP SWAP2 SWAP1 POP JUMP JUMPDEST PUSH1 0x0 PUSH20 0xFFFFFFFFFFFFFFFFFFFFFFFFFFFFFFFFFFFFFFFF DUP3 AND SWAP1 POP SWAP2 SWAP1 POP JUMP JUMPDEST PUSH1 0x0 DUP2 SWAP1 POP SWAP2 SWAP1 POP JUMP JUMPDEST DUP3 DUP2 DUP4 CALLDATACOPY PUSH1 0x0 DUP4 DUP4 ADD MSTORE POP POP POP JUMP JUMPDEST PUSH1 0x0 JUMPDEST DUP4 DUP2 LT ISZERO PUSH2 0x106C JUMPI DUP1 DUP3 ADD MLOAD DUP2 DUP5 ADD MSTORE PUSH1 0x20 DUP2 ADD SWAP1 POP PUSH2 0x1051 JUMP JUMPDEST DUP4 DUP2 GT ISZERO PUSH2 0x107B JUMPI PUSH1 0x0 DUP5 DUP5 ADD MSTORE JUMPDEST POP POP POP POP JUMP JUMPDEST PUSH1 0x0 PUSH2 0x108C DUP3 PUSH2 0x1035 JUMP JUMPDEST SWAP2 POP PUSH1 0x0 DUP3 EQ ISZERO PUSH2 0x10A0 JUMPI PUSH2 0x109F PUSH2 0x110E JUMP JUMPDEST JUMPDEST PUSH1 0x1 DUP3 SUB SWAP1 POP SWAP2 SWAP1 POP JUMP JUMPDEST PUSH1 0x0 PUSH1 0x2 DUP3 DIV SWAP1 POP PUSH1 0x1 DUP3 AND DUP1 PUSH2 0x10C3 JUMPI PUSH1 0x7F DUP3 AND SWAP2 POP JUMPDEST PUSH1 0x20 DUP3 LT DUP2 EQ ISZERO PUSH2 0x10D7 JUMPI PUSH2 0x10D6 PUSH2 0x113D JUMP JUMPDEST JUMPDEST POP SWAP2 SWAP1 POP JUMP JUMPDEST PUSH2 0x10E6 DUP3 PUSH2 0x11E8 JUMP JUMPDEST DUP2 ADD DUP2 DUP2 LT PUSH8 0xFFFFFFFFFFFFFFFF DUP3 GT OR ISZERO PUSH2 0x1105 JUMPI PUSH2 0x1104 PUSH2 0x119B JUMP JUMPDEST JUMPDEST DUP1 PUSH1 0x40 MSTORE POP POP POP JUMP JUMPDEST PUSH32 0x4E487B7100000000000000000000000000000000000000000000000000000000 PUSH1 0x0 MSTORE PUSH1 0x11 PUSH1 0x4 MSTORE PUSH1 0x24 PUSH1 0x0 REVERT JUMPDEST PUSH32 0x4E487B7100000000000000000000000000000000000000000000000000000000 PUSH1 0x0 MSTORE PUSH1 0x22 PUSH1 0x4 MSTORE PUSH1 0x24 PUSH1 0x0 REVERT JUMPDEST PUSH32 0x4E487B7100000000000000000000000000000000000000000000000000000000 PUSH1 0x0 MSTORE PUSH1 0x32 PUSH1 0x4 MSTORE PUSH1 0x24 PUSH1 0x0 REVERT JUMPDEST PUSH32 0x4E487B7100000000000000000000000000000000000000000000000000000000 PUSH1 0x0 MSTORE PUSH1 0x41 PUSH1 0x4 MSTORE PUSH1 0x24 PUSH1 0x0 REVERT JUMPDEST PUSH1 0x0 DUP1 REVERT JUMPDEST PUSH1 0x0 DUP1 REVERT JUMPDEST PUSH1 0x0 DUP1 REVERT JUMPDEST PUSH1 0x0 DUP1 REVERT JUMPDEST PUSH1 0x0 DUP1 REVERT JUMPDEST PUSH1 0x0 DUP1 REVERT JUMPDEST PUSH1 0x0 PUSH1 0x1F NOT PUSH1 0x1F DUP4 ADD AND SWAP1 POP SWAP2 SWAP1 POP JUMP JUMPDEST PUSH2 0x1202 DUP2 PUSH2 0xFF7 JUMP JUMPDEST DUP2 EQ PUSH2 0x120D JUMPI PUSH1 0x0 DUP1 REVERT JUMPDEST POP JUMP JUMPDEST PUSH2 0x1219 DUP2 PUSH2 0x1035 JUMP JUMPDEST DUP2 EQ PUSH2 0x1224 JUMPI PUSH1 0x0 DUP1 REVERT JUMPDEST POP JUMP INVALID LOG2 PUSH5 0x6970667358 0x22 SLT KECCAK256 0xF9 EXTCODESIZE 0xA8 NUMBER DUP8 0x29 CALLDATASIZE 0xB7 PUSH1 0x68 0xF9 0xB2 PUSH14 0xA7F6839B1CF683DFE9482D2E6C0A 0x4F 0xD0 SWAP12 MOD 0xF9 PUSH5 0x736F6C6343 STOP ADDMOD SMOD STOP CALLER "
				},
				"gasEstimates": {
					"creation": {
						"codeDepositCost": "940200",
						"executionCost": "951",
						"totalCost": "941151"
					},
					"external": {
						"addNewProduct(string,uint256,uint256)": "infinite",
						"availableProducts(uint256)": "infinite",
						"buyProduct(uint256)": "infinite",
						"buyers(uint256,uint256)": "infinite",
						"products(string)": "infinite",
						"test(uint256)": "infinite",
						"transactions(uint256,address)": "infinite",
						"updateQuantity(string,uint256)": "infinite"
					}
				},
				"methodIdentifiers": {
					"addNewProduct(string,uint256,uint256)": "0a5bd44b",
					"availableProducts(uint256)": "e4bcc7d4",
					"buyProduct(uint256)": "8642269e",
					"buyers(uint256,uint256)": "27e7875a",
					"products(string)": "0186a423",
					"test(uint256)": "29e99f07",
					"transactions(uint256,address)": "74cbc350",
					"updateQuantity(string,uint256)": "1d894eb8"
				}
			},
			"storageLayout": {
				"storage": [
					{
						"astId": 30,
						"contract": "Project/TechnoLime.sol:TechnoLimeStore",
						"label": "availableProducts",
						"offset": 0,
						"slot": "0",
						"type": "t_array(t_string_storage)dyn_storage"
					},
					{
						"astId": 35,
						"contract": "Project/TechnoLime.sol:TechnoLimeStore",
						"label": "products",
						"offset": 0,
						"slot": "1",
						"type": "t_mapping(t_string_memory_ptr,t_struct(Product)27_storage)"
					},
					{
						"astId": 49,
						"contract": "Project/TechnoLime.sol:TechnoLimeStore",
						"label": "transactions",
						"offset": 0,
						"slot": "2",
						"type": "t_mapping(t_uint256,t_mapping(t_address,t_struct(Transaction)42_storage))"
					},
					{
						"astId": 54,
						"contract": "Project/TechnoLime.sol:TechnoLimeStore",
						"label": "buyers",
						"offset": 0,
						"slot": "3",
						"type": "t_mapping(t_uint256,t_array(t_address)dyn_storage)"
					}
				],
				"types": {
					"t_address": {
						"encoding": "inplace",
						"label": "address",
						"numberOfBytes": "20"
					},
					"t_array(t_address)dyn_storage": {
						"base": "t_address",
						"encoding": "dynamic_array",
						"label": "address[]",
						"numberOfBytes": "32"
					},
					"t_array(t_string_storage)dyn_storage": {
						"base": "t_string_storage",
						"encoding": "dynamic_array",
						"label": "string[]",
						"numberOfBytes": "32"
					},
					"t_bool": {
						"encoding": "inplace",
						"label": "bool",
						"numberOfBytes": "1"
					},
					"t_mapping(t_address,t_struct(Transaction)42_storage)": {
						"encoding": "mapping",
						"key": "t_address",
						"label": "mapping(address => struct TechnoLimeStore.Transaction)",
						"numberOfBytes": "32",
						"value": "t_struct(Transaction)42_storage"
					},
					"t_mapping(t_string_memory_ptr,t_struct(Product)27_storage)": {
						"encoding": "mapping",
						"key": "t_string_memory_ptr",
						"label": "mapping(string => struct TechnoLimeStore.Product)",
						"numberOfBytes": "32",
						"value": "t_struct(Product)27_storage"
					},
					"t_mapping(t_uint256,t_array(t_address)dyn_storage)": {
						"encoding": "mapping",
						"key": "t_uint256",
						"label": "mapping(uint256 => address[])",
						"numberOfBytes": "32",
						"value": "t_array(t_address)dyn_storage"
					},
					"t_mapping(t_uint256,t_mapping(t_address,t_struct(Transaction)42_storage))": {
						"encoding": "mapping",
						"key": "t_uint256",
						"label": "mapping(uint256 => mapping(address => struct TechnoLimeStore.Transaction))",
						"numberOfBytes": "32",
						"value": "t_mapping(t_address,t_struct(Transaction)42_storage)"
					},
					"t_string_memory_ptr": {
						"encoding": "bytes",
						"label": "string",
						"numberOfBytes": "32"
					},
					"t_string_storage": {
						"encoding": "bytes",
						"label": "string",
						"numberOfBytes": "32"
					},
					"t_struct(Product)27_storage": {
						"encoding": "inplace",
						"label": "struct TechnoLimeStore.Product",
						"members": [
							{
								"astId": 22,
								"contract": "Project/TechnoLime.sol:TechnoLimeStore",
								"label": "price",
								"offset": 0,
								"slot": "0",
								"type": "t_uint256"
							},
							{
								"astId": 24,
								"contract": "Project/TechnoLime.sol:TechnoLimeStore",
								"label": "quantity",
								"offset": 0,
								"slot": "1",
								"type": "t_uint256"
							},
							{
								"astId": 26,
								"contract": "Project/TechnoLime.sol:TechnoLimeStore",
								"label": "exists",
								"offset": 0,
								"slot": "2",
								"type": "t_bool"
							}
						],
						"numberOfBytes": "96"
					},
					"t_struct(Transaction)42_storage": {
						"encoding": "inplace",
						"label": "struct TechnoLimeStore.Transaction",
						"members": [
							{
								"astId": 37,
								"contract": "Project/TechnoLime.sol:TechnoLimeStore",
								"label": "blockNum",
								"offset": 0,
								"slot": "0",
								"type": "t_uint256"
							},
							{
								"astId": 39,
								"contract": "Project/TechnoLime.sol:TechnoLimeStore",
								"label": "price",
								"offset": 0,
								"slot": "1",
								"type": "t_uint256"
							},
							{
								"astId": 41,
								"contract": "Project/TechnoLime.sol:TechnoLimeStore",
								"label": "exists",
								"offset": 0,
								"slot": "2",
								"type": "t_bool"
							}
						],
						"numberOfBytes": "96"
					},
					"t_uint256": {
						"encoding": "inplace",
						"label": "uint256",
						"numberOfBytes": "32"
					}
				}
			},
			"userdoc": {
				"errors": {
					"ItemIdWrongOrBoughtAlready()": [
						{
							"notice": "Error trown when the productID doesn't exist or it has been bought once already"
						}
					],
					"LessThanPriceOrOutOfStock()": [
						{
							"notice": "Error trown when money sent is less than Product price"
						}
					],
					"ProductExists()": [
						{
							"notice": "Can't add a product that already exists"
						}
					]
				},
				"kind": "user",
				"methods": {},
				"version": 1
			}
		}
	}
}