{
	"Project/TechnoLime.sol": {
		"TechnoLimeStore": {
			"abi": [
				{
					"inputs": [
						{
							"internalType": "uint256",
							"name": "",
							"type": "uint256"
						}
					],
					"name": "availableProducts",
					"outputs": [
						{
							"internalType": "string",
							"name": "",
							"type": "string"
						}
					],
					"stateMutability": "view",
					"type": "function"
				},
				{
					"inputs": [
						{
							"internalType": "string",
							"name": "productName",
							"type": "string"
						},
						{
							"components": [
								{
									"internalType": "uint256",
									"name": "price",
									"type": "uint256"
								},
								{
									"internalType": "address[]",
									"name": "buyers",
									"type": "address[]"
								}
							],
							"internalType": "struct TechnoLimeStore.Product",
							"name": "product",
							"type": "tuple"
						}
					],
					"name": "manageProduct",
					"outputs": [],
					"stateMutability": "nonpayable",
					"type": "function"
				},
				{
					"inputs": [
						{
							"internalType": "string",
							"name": "",
							"type": "string"
						}
					],
					"name": "products",
					"outputs": [
						{
							"internalType": "uint256",
							"name": "price",
							"type": "uint256"
						}
					],
					"stateMutability": "view",
					"type": "function"
				}
			],
			"devdoc": {
				"kind": "dev",
				"methods": {},
				"version": 1
			},
			"evm": {
				"assembly": "    /* \"Project/TechnoLime.sol\":4:526  contract TechnoLimeStore {\r... */\n  mstore(0x40, 0x80)\n  callvalue\n  dup1\n  iszero\n  tag_1\n  jumpi\n  0x00\n  dup1\n  revert\ntag_1:\n  pop\n  dataSize(sub_0)\n  dup1\n  dataOffset(sub_0)\n  0x00\n  codecopy\n  0x00\n  return\nstop\n\nsub_0: assembly {\n        /* \"Project/TechnoLime.sol\":4:526  contract TechnoLimeStore {\r... */\n      mstore(0x40, 0x80)\n      callvalue\n      dup1\n      iszero\n      tag_1\n      jumpi\n      0x00\n      dup1\n      revert\n    tag_1:\n      pop\n      jumpi(tag_2, lt(calldatasize, 0x04))\n      shr(0xe0, calldataload(0x00))\n      dup1\n      0x0186a423\n      eq\n      tag_3\n      jumpi\n      dup1\n      0x223df9f1\n      eq\n      tag_4\n      jumpi\n      dup1\n      0xe4bcc7d4\n      eq\n      tag_5\n      jumpi\n    tag_2:\n      0x00\n      dup1\n      revert\n        /* \"Project/TechnoLime.sol\":157:199  mapping(string => Product) public products */\n    tag_3:\n      tag_6\n      0x04\n      dup1\n      calldatasize\n      sub\n      dup2\n      add\n      swap1\n      tag_7\n      swap2\n      swap1\n      tag_8\n      jump\t// in\n    tag_7:\n      tag_9\n      jump\t// in\n    tag_6:\n      mload(0x40)\n      tag_10\n      swap2\n      swap1\n      tag_11\n      jump\t// in\n    tag_10:\n      mload(0x40)\n      dup1\n      swap2\n      sub\n      swap1\n      return\n        /* \"Project/TechnoLime.sol\":358:517  function manageProduct(string calldata productName, Product calldata product) external{\r... */\n    tag_4:\n      tag_12\n      0x04\n      dup1\n      calldatasize\n      sub\n      dup2\n      add\n      swap1\n      tag_13\n      swap2\n      swap1\n      tag_14\n      jump\t// in\n    tag_13:\n      tag_15\n      jump\t// in\n    tag_12:\n      stop\n        /* \"Project/TechnoLime.sol\":117:150  string[] public availableProducts */\n    tag_5:\n      tag_16\n      0x04\n      dup1\n      calldatasize\n      sub\n      dup2\n      add\n      swap1\n      tag_17\n      swap2\n      swap1\n      tag_18\n      jump\t// in\n    tag_17:\n      tag_19\n      jump\t// in\n    tag_16:\n      mload(0x40)\n      tag_20\n      swap2\n      swap1\n      tag_21\n      jump\t// in\n    tag_20:\n      mload(0x40)\n      dup1\n      swap2\n      sub\n      swap1\n      return\n        /* \"Project/TechnoLime.sol\":157:199  mapping(string => Product) public products */\n    tag_9:\n      0x01\n      dup2\n      dup1\n      mload\n      0x20\n      dup2\n      add\n      dup3\n      add\n      dup1\n      mload\n      dup5\n      dup3\n      mstore\n      0x20\n      dup4\n      add\n      0x20\n      dup6\n      add\n      keccak256\n      dup2\n      dup4\n      mstore\n      dup1\n      swap6\n      pop\n      pop\n      pop\n      pop\n      pop\n      pop\n      0x00\n      swap2\n      pop\n      swap1\n      pop\n      dup1\n      0x00\n      add\n      sload\n      swap1\n      pop\n      dup2\n      jump\t// out\n        /* \"Project/TechnoLime.sol\":358:517  function manageProduct(string calldata productName, Product calldata product) external{\r... */\n    tag_15:\n        /* \"Project/TechnoLime.sol\":455:485  Product memory existingProduct */\n      0x00\n        /* \"Project/TechnoLime.sol\":488:496  products */\n      0x01\n        /* \"Project/TechnoLime.sol\":497:508  productName */\n      dup5\n      dup5\n        /* \"Project/TechnoLime.sol\":488:509  products[productName] */\n      mload(0x40)\n      tag_23\n      swap3\n      swap2\n      swap1\n      tag_24\n      jump\t// in\n    tag_23:\n      swap1\n      dup2\n      mstore\n      0x20\n      add\n      mload(0x40)\n      dup1\n      swap2\n      sub\n      swap1\n      keccak256\n        /* \"Project/TechnoLime.sol\":455:509  Product memory existingProduct = products[productName] */\n      mload(0x40)\n      dup1\n      0x40\n      add\n      0x40\n      mstore\n      swap1\n      dup2\n      0x00\n      dup3\n      add\n      sload\n      dup2\n      mstore\n      0x20\n      add\n      0x01\n      dup3\n      add\n      dup1\n      sload\n      dup1\n      0x20\n      mul\n      0x20\n      add\n      mload(0x40)\n      swap1\n      dup2\n      add\n      0x40\n      mstore\n      dup1\n      swap3\n      swap2\n      swap1\n      dup2\n      dup2\n      mstore\n      0x20\n      add\n      dup3\n      dup1\n      sload\n      dup1\n      iszero\n      tag_25\n      jumpi\n      0x20\n      mul\n      dup3\n      add\n      swap2\n      swap1\n      0x00\n      mstore\n      keccak256(0x00, 0x20)\n      swap1\n    tag_26:\n      dup2\n      0x00\n      swap1\n      sload\n      swap1\n      0x0100\n      exp\n      swap1\n      div\n      0xffffffffffffffffffffffffffffffffffffffff\n      and\n      0xffffffffffffffffffffffffffffffffffffffff\n      and\n      dup2\n      mstore\n      0x20\n      add\n      swap1\n      0x01\n      add\n      swap1\n      dup1\n      dup4\n      gt\n      tag_26\n      jumpi\n    tag_25:\n      pop\n      pop\n      pop\n      pop\n      pop\n      dup2\n      mstore\n      pop\n      pop\n      swap1\n      pop\n        /* \"Project/TechnoLime.sol\":444:517  {\r... */\n      pop\n        /* \"Project/TechnoLime.sol\":358:517  function manageProduct(string calldata productName, Product calldata product) external{\r... */\n      pop\n      pop\n      pop\n      jump\t// out\n        /* \"Project/TechnoLime.sol\":117:150  string[] public availableProducts */\n    tag_19:\n      0x00\n      dup2\n      dup2\n      sload\n      dup2\n      lt\n      tag_27\n      jumpi\n      0x00\n      dup1\n      revert\n    tag_27:\n      swap1\n      0x00\n      mstore\n      keccak256(0x00, 0x20)\n      add\n      0x00\n      swap2\n      pop\n      swap1\n      pop\n      dup1\n      sload\n      tag_29\n      swap1\n      tag_30\n      jump\t// in\n    tag_29:\n      dup1\n      0x1f\n      add\n      0x20\n      dup1\n      swap2\n      div\n      mul\n      0x20\n      add\n      mload(0x40)\n      swap1\n      dup2\n      add\n      0x40\n      mstore\n      dup1\n      swap3\n      swap2\n      swap1\n      dup2\n      dup2\n      mstore\n      0x20\n      add\n      dup3\n      dup1\n      sload\n      tag_31\n      swap1\n      tag_30\n      jump\t// in\n    tag_31:\n      dup1\n      iszero\n      tag_32\n      jumpi\n      dup1\n      0x1f\n      lt\n      tag_33\n      jumpi\n      0x0100\n      dup1\n      dup4\n      sload\n      div\n      mul\n      dup4\n      mstore\n      swap2\n      0x20\n      add\n      swap2\n      jump(tag_32)\n    tag_33:\n      dup3\n      add\n      swap2\n      swap1\n      0x00\n      mstore\n      keccak256(0x00, 0x20)\n      swap1\n    tag_34:\n      dup2\n      sload\n      dup2\n      mstore\n      swap1\n      0x01\n      add\n      swap1\n      0x20\n      add\n      dup1\n      dup4\n      gt\n      tag_34\n      jumpi\n      dup3\n      swap1\n      sub\n      0x1f\n      and\n      dup3\n      add\n      swap2\n    tag_32:\n      pop\n      pop\n      pop\n      pop\n      pop\n      dup2\n      jump\t// out\n        /* \"#utility.yul\":7:419   */\n    tag_36:\n        /* \"#utility.yul\":85:90   */\n      0x00\n        /* \"#utility.yul\":110:176   */\n      tag_38\n        /* \"#utility.yul\":126:175   */\n      tag_39\n        /* \"#utility.yul\":168:174   */\n      dup5\n        /* \"#utility.yul\":126:175   */\n      tag_40\n      jump\t// in\n    tag_39:\n        /* \"#utility.yul\":110:176   */\n      tag_41\n      jump\t// in\n    tag_38:\n        /* \"#utility.yul\":101:176   */\n      swap1\n      pop\n        /* \"#utility.yul\":199:205   */\n      dup3\n        /* \"#utility.yul\":192:197   */\n      dup2\n        /* \"#utility.yul\":185:206   */\n      mstore\n        /* \"#utility.yul\":237:241   */\n      0x20\n        /* \"#utility.yul\":230:235   */\n      dup2\n        /* \"#utility.yul\":226:242   */\n      add\n        /* \"#utility.yul\":275:278   */\n      dup5\n        /* \"#utility.yul\":266:272   */\n      dup5\n        /* \"#utility.yul\":261:264   */\n      dup5\n        /* \"#utility.yul\":257:273   */\n      add\n        /* \"#utility.yul\":254:279   */\n      gt\n        /* \"#utility.yul\":251:363   */\n      iszero\n      tag_42\n      jumpi\n        /* \"#utility.yul\":282:361   */\n      tag_43\n      tag_44\n      jump\t// in\n    tag_43:\n        /* \"#utility.yul\":251:363   */\n    tag_42:\n        /* \"#utility.yul\":372:413   */\n      tag_45\n        /* \"#utility.yul\":406:412   */\n      dup5\n        /* \"#utility.yul\":401:404   */\n      dup3\n        /* \"#utility.yul\":396:399   */\n      dup6\n        /* \"#utility.yul\":372:413   */\n      tag_46\n      jump\t// in\n    tag_45:\n        /* \"#utility.yul\":91:419   */\n      pop\n        /* \"#utility.yul\":7:419   */\n      swap4\n      swap3\n      pop\n      pop\n      pop\n      jump\t// out\n        /* \"#utility.yul\":439:992   */\n    tag_47:\n        /* \"#utility.yul\":497:505   */\n      0x00\n        /* \"#utility.yul\":507:513   */\n      dup1\n        /* \"#utility.yul\":557:560   */\n      dup4\n        /* \"#utility.yul\":550:554   */\n      0x1f\n        /* \"#utility.yul\":542:548   */\n      dup5\n        /* \"#utility.yul\":538:555   */\n      add\n        /* \"#utility.yul\":534:561   */\n      slt\n        /* \"#utility.yul\":524:646   */\n      tag_49\n      jumpi\n        /* \"#utility.yul\":565:644   */\n      tag_50\n      tag_51\n      jump\t// in\n    tag_50:\n        /* \"#utility.yul\":524:646   */\n    tag_49:\n        /* \"#utility.yul\":678:684   */\n      dup3\n        /* \"#utility.yul\":665:685   */\n      calldataload\n        /* \"#utility.yul\":655:685   */\n      swap1\n      pop\n        /* \"#utility.yul\":708:726   */\n      0xffffffffffffffff\n        /* \"#utility.yul\":700:706   */\n      dup2\n        /* \"#utility.yul\":697:727   */\n      gt\n        /* \"#utility.yul\":694:811   */\n      iszero\n      tag_52\n      jumpi\n        /* \"#utility.yul\":730:809   */\n      tag_53\n      tag_54\n      jump\t// in\n    tag_53:\n        /* \"#utility.yul\":694:811   */\n    tag_52:\n        /* \"#utility.yul\":844:848   */\n      0x20\n        /* \"#utility.yul\":836:842   */\n      dup4\n        /* \"#utility.yul\":832:849   */\n      add\n        /* \"#utility.yul\":820:849   */\n      swap2\n      pop\n        /* \"#utility.yul\":898:901   */\n      dup4\n        /* \"#utility.yul\":890:894   */\n      0x01\n        /* \"#utility.yul\":882:888   */\n      dup3\n        /* \"#utility.yul\":878:895   */\n      mul\n        /* \"#utility.yul\":868:876   */\n      dup4\n        /* \"#utility.yul\":864:896   */\n      add\n        /* \"#utility.yul\":861:902   */\n      gt\n        /* \"#utility.yul\":858:986   */\n      iszero\n      tag_55\n      jumpi\n        /* \"#utility.yul\":905:984   */\n      tag_56\n      tag_57\n      jump\t// in\n    tag_56:\n        /* \"#utility.yul\":858:986   */\n    tag_55:\n        /* \"#utility.yul\":439:992   */\n      swap3\n      pop\n      swap3\n      swap1\n      pop\n      jump\t// out\n        /* \"#utility.yul\":1012:1352   */\n    tag_58:\n        /* \"#utility.yul\":1068:1073   */\n      0x00\n        /* \"#utility.yul\":1117:1120   */\n      dup3\n        /* \"#utility.yul\":1110:1114   */\n      0x1f\n        /* \"#utility.yul\":1102:1108   */\n      dup4\n        /* \"#utility.yul\":1098:1115   */\n      add\n        /* \"#utility.yul\":1094:1121   */\n      slt\n        /* \"#utility.yul\":1084:1206   */\n      tag_60\n      jumpi\n        /* \"#utility.yul\":1125:1204   */\n      tag_61\n      tag_51\n      jump\t// in\n    tag_61:\n        /* \"#utility.yul\":1084:1206   */\n    tag_60:\n        /* \"#utility.yul\":1242:1248   */\n      dup2\n        /* \"#utility.yul\":1229:1249   */\n      calldataload\n        /* \"#utility.yul\":1267:1346   */\n      tag_62\n        /* \"#utility.yul\":1342:1345   */\n      dup5\n        /* \"#utility.yul\":1334:1340   */\n      dup3\n        /* \"#utility.yul\":1327:1331   */\n      0x20\n        /* \"#utility.yul\":1319:1325   */\n      dup7\n        /* \"#utility.yul\":1315:1332   */\n      add\n        /* \"#utility.yul\":1267:1346   */\n      tag_36\n      jump\t// in\n    tag_62:\n        /* \"#utility.yul\":1258:1346   */\n      swap2\n      pop\n        /* \"#utility.yul\":1074:1352   */\n      pop\n        /* \"#utility.yul\":1012:1352   */\n      swap3\n      swap2\n      pop\n      pop\n      jump\t// out\n        /* \"#utility.yul\":1396:1624   */\n    tag_63:\n        /* \"#utility.yul\":1466:1471   */\n      0x00\n        /* \"#utility.yul\":1507:1509   */\n      0x40\n        /* \"#utility.yul\":1498:1504   */\n      dup3\n        /* \"#utility.yul\":1493:1496   */\n      dup5\n        /* \"#utility.yul\":1489:1505   */\n      sub\n        /* \"#utility.yul\":1485:1510   */\n      slt\n        /* \"#utility.yul\":1482:1594   */\n      iszero\n      tag_65\n      jumpi\n        /* \"#utility.yul\":1513:1592   */\n      tag_66\n      tag_67\n      jump\t// in\n    tag_66:\n        /* \"#utility.yul\":1482:1594   */\n    tag_65:\n        /* \"#utility.yul\":1612:1618   */\n      dup2\n        /* \"#utility.yul\":1603:1618   */\n      swap1\n      pop\n        /* \"#utility.yul\":1396:1624   */\n      swap3\n      swap2\n      pop\n      pop\n      jump\t// out\n        /* \"#utility.yul\":1630:1769   */\n    tag_68:\n        /* \"#utility.yul\":1676:1681   */\n      0x00\n        /* \"#utility.yul\":1714:1720   */\n      dup2\n        /* \"#utility.yul\":1701:1721   */\n      calldataload\n        /* \"#utility.yul\":1692:1721   */\n      swap1\n      pop\n        /* \"#utility.yul\":1730:1763   */\n      tag_70\n        /* \"#utility.yul\":1757:1762   */\n      dup2\n        /* \"#utility.yul\":1730:1763   */\n      tag_71\n      jump\t// in\n    tag_70:\n        /* \"#utility.yul\":1630:1769   */\n      swap3\n      swap2\n      pop\n      pop\n      jump\t// out\n        /* \"#utility.yul\":1775:2657   */\n    tag_14:\n        /* \"#utility.yul\":1879:1885   */\n      0x00\n        /* \"#utility.yul\":1887:1893   */\n      dup1\n        /* \"#utility.yul\":1895:1901   */\n      0x00\n        /* \"#utility.yul\":1944:1946   */\n      0x40\n        /* \"#utility.yul\":1932:1941   */\n      dup5\n        /* \"#utility.yul\":1923:1930   */\n      dup7\n        /* \"#utility.yul\":1919:1942   */\n      sub\n        /* \"#utility.yul\":1915:1947   */\n      slt\n        /* \"#utility.yul\":1912:2031   */\n      iszero\n      tag_73\n      jumpi\n        /* \"#utility.yul\":1950:2029   */\n      tag_74\n      tag_75\n      jump\t// in\n    tag_74:\n        /* \"#utility.yul\":1912:2031   */\n    tag_73:\n        /* \"#utility.yul\":2098:2099   */\n      0x00\n        /* \"#utility.yul\":2087:2096   */\n      dup5\n        /* \"#utility.yul\":2083:2100   */\n      add\n        /* \"#utility.yul\":2070:2101   */\n      calldataload\n        /* \"#utility.yul\":2128:2146   */\n      0xffffffffffffffff\n        /* \"#utility.yul\":2120:2126   */\n      dup2\n        /* \"#utility.yul\":2117:2147   */\n      gt\n        /* \"#utility.yul\":2114:2231   */\n      iszero\n      tag_76\n      jumpi\n        /* \"#utility.yul\":2150:2229   */\n      tag_77\n      tag_78\n      jump\t// in\n    tag_77:\n        /* \"#utility.yul\":2114:2231   */\n    tag_76:\n        /* \"#utility.yul\":2263:2328   */\n      tag_79\n        /* \"#utility.yul\":2320:2327   */\n      dup7\n        /* \"#utility.yul\":2311:2317   */\n      dup3\n        /* \"#utility.yul\":2300:2309   */\n      dup8\n        /* \"#utility.yul\":2296:2318   */\n      add\n        /* \"#utility.yul\":2263:2328   */\n      tag_47\n      jump\t// in\n    tag_79:\n        /* \"#utility.yul\":2245:2328   */\n      swap4\n      pop\n      swap4\n      pop\n        /* \"#utility.yul\":2041:2338   */\n      pop\n        /* \"#utility.yul\":2405:2407   */\n      0x20\n        /* \"#utility.yul\":2394:2403   */\n      dup5\n        /* \"#utility.yul\":2390:2408   */\n      add\n        /* \"#utility.yul\":2377:2409   */\n      calldataload\n        /* \"#utility.yul\":2436:2454   */\n      0xffffffffffffffff\n        /* \"#utility.yul\":2428:2434   */\n      dup2\n        /* \"#utility.yul\":2425:2455   */\n      gt\n        /* \"#utility.yul\":2422:2539   */\n      iszero\n      tag_80\n      jumpi\n        /* \"#utility.yul\":2458:2537   */\n      tag_81\n      tag_78\n      jump\t// in\n    tag_81:\n        /* \"#utility.yul\":2422:2539   */\n    tag_80:\n        /* \"#utility.yul\":2563:2640   */\n      tag_82\n        /* \"#utility.yul\":2632:2639   */\n      dup7\n        /* \"#utility.yul\":2623:2629   */\n      dup3\n        /* \"#utility.yul\":2612:2621   */\n      dup8\n        /* \"#utility.yul\":2608:2630   */\n      add\n        /* \"#utility.yul\":2563:2640   */\n      tag_63\n      jump\t// in\n    tag_82:\n        /* \"#utility.yul\":2553:2640   */\n      swap2\n      pop\n        /* \"#utility.yul\":2348:2650   */\n      pop\n        /* \"#utility.yul\":1775:2657   */\n      swap3\n      pop\n      swap3\n      pop\n      swap3\n      jump\t// out\n        /* \"#utility.yul\":2663:3172   */\n    tag_8:\n        /* \"#utility.yul\":2732:2738   */\n      0x00\n        /* \"#utility.yul\":2781:2783   */\n      0x20\n        /* \"#utility.yul\":2769:2778   */\n      dup3\n        /* \"#utility.yul\":2760:2767   */\n      dup5\n        /* \"#utility.yul\":2756:2779   */\n      sub\n        /* \"#utility.yul\":2752:2784   */\n      slt\n        /* \"#utility.yul\":2749:2868   */\n      iszero\n      tag_84\n      jumpi\n        /* \"#utility.yul\":2787:2866   */\n      tag_85\n      tag_75\n      jump\t// in\n    tag_85:\n        /* \"#utility.yul\":2749:2868   */\n    tag_84:\n        /* \"#utility.yul\":2935:2936   */\n      0x00\n        /* \"#utility.yul\":2924:2933   */\n      dup3\n        /* \"#utility.yul\":2920:2937   */\n      add\n        /* \"#utility.yul\":2907:2938   */\n      calldataload\n        /* \"#utility.yul\":2965:2983   */\n      0xffffffffffffffff\n        /* \"#utility.yul\":2957:2963   */\n      dup2\n        /* \"#utility.yul\":2954:2984   */\n      gt\n        /* \"#utility.yul\":2951:3068   */\n      iszero\n      tag_86\n      jumpi\n        /* \"#utility.yul\":2987:3066   */\n      tag_87\n      tag_78\n      jump\t// in\n    tag_87:\n        /* \"#utility.yul\":2951:3068   */\n    tag_86:\n        /* \"#utility.yul\":3092:3155   */\n      tag_88\n        /* \"#utility.yul\":3147:3154   */\n      dup5\n        /* \"#utility.yul\":3138:3144   */\n      dup3\n        /* \"#utility.yul\":3127:3136   */\n      dup6\n        /* \"#utility.yul\":3123:3145   */\n      add\n        /* \"#utility.yul\":3092:3155   */\n      tag_58\n      jump\t// in\n    tag_88:\n        /* \"#utility.yul\":3082:3155   */\n      swap2\n      pop\n        /* \"#utility.yul\":2878:3165   */\n      pop\n        /* \"#utility.yul\":2663:3172   */\n      swap3\n      swap2\n      pop\n      pop\n      jump\t// out\n        /* \"#utility.yul\":3178:3507   */\n    tag_18:\n        /* \"#utility.yul\":3237:3243   */\n      0x00\n        /* \"#utility.yul\":3286:3288   */\n      0x20\n        /* \"#utility.yul\":3274:3283   */\n      dup3\n        /* \"#utility.yul\":3265:3272   */\n      dup5\n        /* \"#utility.yul\":3261:3284   */\n      sub\n        /* \"#utility.yul\":3257:3289   */\n      slt\n        /* \"#utility.yul\":3254:3373   */\n      iszero\n      tag_90\n      jumpi\n        /* \"#utility.yul\":3292:3371   */\n      tag_91\n      tag_75\n      jump\t// in\n    tag_91:\n        /* \"#utility.yul\":3254:3373   */\n    tag_90:\n        /* \"#utility.yul\":3412:3413   */\n      0x00\n        /* \"#utility.yul\":3437:3490   */\n      tag_92\n        /* \"#utility.yul\":3482:3489   */\n      dup5\n        /* \"#utility.yul\":3473:3479   */\n      dup3\n        /* \"#utility.yul\":3462:3471   */\n      dup6\n        /* \"#utility.yul\":3458:3480   */\n      add\n        /* \"#utility.yul\":3437:3490   */\n      tag_68\n      jump\t// in\n    tag_92:\n        /* \"#utility.yul\":3427:3490   */\n      swap2\n      pop\n        /* \"#utility.yul\":3383:3500   */\n      pop\n        /* \"#utility.yul\":3178:3507   */\n      swap3\n      swap2\n      pop\n      pop\n      jump\t// out\n        /* \"#utility.yul\":3537:3854   */\n    tag_93:\n        /* \"#utility.yul\":3653:3656   */\n      0x00\n        /* \"#utility.yul\":3674:3763   */\n      tag_95\n        /* \"#utility.yul\":3756:3762   */\n      dup4\n        /* \"#utility.yul\":3751:3754   */\n      dup6\n        /* \"#utility.yul\":3674:3763   */\n      tag_96\n      jump\t// in\n    tag_95:\n        /* \"#utility.yul\":3667:3763   */\n      swap4\n      pop\n        /* \"#utility.yul\":3773:3816   */\n      tag_97\n        /* \"#utility.yul\":3809:3815   */\n      dup4\n        /* \"#utility.yul\":3804:3807   */\n      dup6\n        /* \"#utility.yul\":3797:3802   */\n      dup5\n        /* \"#utility.yul\":3773:3816   */\n      tag_46\n      jump\t// in\n    tag_97:\n        /* \"#utility.yul\":3841:3847   */\n      dup3\n        /* \"#utility.yul\":3836:3839   */\n      dup5\n        /* \"#utility.yul\":3832:3848   */\n      add\n        /* \"#utility.yul\":3825:3848   */\n      swap1\n      pop\n        /* \"#utility.yul\":3537:3854   */\n      swap4\n      swap3\n      pop\n      pop\n      pop\n      jump\t// out\n        /* \"#utility.yul\":3860:4224   */\n    tag_98:\n        /* \"#utility.yul\":3948:3951   */\n      0x00\n        /* \"#utility.yul\":3976:4015   */\n      tag_100\n        /* \"#utility.yul\":4009:4014   */\n      dup3\n        /* \"#utility.yul\":3976:4015   */\n      tag_101\n      jump\t// in\n    tag_100:\n        /* \"#utility.yul\":4031:4102   */\n      tag_102\n        /* \"#utility.yul\":4095:4101   */\n      dup2\n        /* \"#utility.yul\":4090:4093   */\n      dup6\n        /* \"#utility.yul\":4031:4102   */\n      tag_103\n      jump\t// in\n    tag_102:\n        /* \"#utility.yul\":4024:4102   */\n      swap4\n      pop\n        /* \"#utility.yul\":4111:4163   */\n      tag_104\n        /* \"#utility.yul\":4156:4162   */\n      dup2\n        /* \"#utility.yul\":4151:4154   */\n      dup6\n        /* \"#utility.yul\":4144:4148   */\n      0x20\n        /* \"#utility.yul\":4137:4142   */\n      dup7\n        /* \"#utility.yul\":4133:4149   */\n      add\n        /* \"#utility.yul\":4111:4163   */\n      tag_105\n      jump\t// in\n    tag_104:\n        /* \"#utility.yul\":4188:4217   */\n      tag_106\n        /* \"#utility.yul\":4210:4216   */\n      dup2\n        /* \"#utility.yul\":4188:4217   */\n      tag_107\n      jump\t// in\n    tag_106:\n        /* \"#utility.yul\":4183:4186   */\n      dup5\n        /* \"#utility.yul\":4179:4218   */\n      add\n        /* \"#utility.yul\":4172:4218   */\n      swap2\n      pop\n        /* \"#utility.yul\":3952:4224   */\n      pop\n        /* \"#utility.yul\":3860:4224   */\n      swap3\n      swap2\n      pop\n      pop\n      jump\t// out\n        /* \"#utility.yul\":4230:4348   */\n    tag_108:\n        /* \"#utility.yul\":4317:4341   */\n      tag_110\n        /* \"#utility.yul\":4335:4340   */\n      dup2\n        /* \"#utility.yul\":4317:4341   */\n      tag_111\n      jump\t// in\n    tag_110:\n        /* \"#utility.yul\":4312:4315   */\n      dup3\n        /* \"#utility.yul\":4305:4342   */\n      mstore\n        /* \"#utility.yul\":4230:4348   */\n      pop\n      pop\n      jump\t// out\n        /* \"#utility.yul\":4354:4649   */\n    tag_24:\n        /* \"#utility.yul\":4496:4499   */\n      0x00\n        /* \"#utility.yul\":4518:4623   */\n      tag_113\n        /* \"#utility.yul\":4619:4622   */\n      dup3\n        /* \"#utility.yul\":4610:4616   */\n      dup5\n        /* \"#utility.yul\":4602:4608   */\n      dup7\n        /* \"#utility.yul\":4518:4623   */\n      tag_93\n      jump\t// in\n    tag_113:\n        /* \"#utility.yul\":4511:4623   */\n      swap2\n      pop\n        /* \"#utility.yul\":4640:4643   */\n      dup2\n        /* \"#utility.yul\":4633:4643   */\n      swap1\n      pop\n        /* \"#utility.yul\":4354:4649   */\n      swap4\n      swap3\n      pop\n      pop\n      pop\n      jump\t// out\n        /* \"#utility.yul\":4655:4968   */\n    tag_21:\n        /* \"#utility.yul\":4768:4772   */\n      0x00\n        /* \"#utility.yul\":4806:4808   */\n      0x20\n        /* \"#utility.yul\":4795:4804   */\n      dup3\n        /* \"#utility.yul\":4791:4809   */\n      add\n        /* \"#utility.yul\":4783:4809   */\n      swap1\n      pop\n        /* \"#utility.yul\":4855:4864   */\n      dup2\n        /* \"#utility.yul\":4849:4853   */\n      dup2\n        /* \"#utility.yul\":4845:4865   */\n      sub\n        /* \"#utility.yul\":4841:4842   */\n      0x00\n        /* \"#utility.yul\":4830:4839   */\n      dup4\n        /* \"#utility.yul\":4826:4843   */\n      add\n        /* \"#utility.yul\":4819:4866   */\n      mstore\n        /* \"#utility.yul\":4883:4961   */\n      tag_115\n        /* \"#utility.yul\":4956:4960   */\n      dup2\n        /* \"#utility.yul\":4947:4953   */\n      dup5\n        /* \"#utility.yul\":4883:4961   */\n      tag_98\n      jump\t// in\n    tag_115:\n        /* \"#utility.yul\":4875:4961   */\n      swap1\n      pop\n        /* \"#utility.yul\":4655:4968   */\n      swap3\n      swap2\n      pop\n      pop\n      jump\t// out\n        /* \"#utility.yul\":4974:5196   */\n    tag_11:\n        /* \"#utility.yul\":5067:5071   */\n      0x00\n        /* \"#utility.yul\":5105:5107   */\n      0x20\n        /* \"#utility.yul\":5094:5103   */\n      dup3\n        /* \"#utility.yul\":5090:5108   */\n      add\n        /* \"#utility.yul\":5082:5108   */\n      swap1\n      pop\n        /* \"#utility.yul\":5118:5189   */\n      tag_117\n        /* \"#utility.yul\":5186:5187   */\n      0x00\n        /* \"#utility.yul\":5175:5184   */\n      dup4\n        /* \"#utility.yul\":5171:5188   */\n      add\n        /* \"#utility.yul\":5162:5168   */\n      dup5\n        /* \"#utility.yul\":5118:5189   */\n      tag_108\n      jump\t// in\n    tag_117:\n        /* \"#utility.yul\":4974:5196   */\n      swap3\n      swap2\n      pop\n      pop\n      jump\t// out\n        /* \"#utility.yul\":5202:5331   */\n    tag_41:\n        /* \"#utility.yul\":5236:5242   */\n      0x00\n        /* \"#utility.yul\":5263:5283   */\n      tag_119\n      tag_120\n      jump\t// in\n    tag_119:\n        /* \"#utility.yul\":5253:5283   */\n      swap1\n      pop\n        /* \"#utility.yul\":5292:5325   */\n      tag_121\n        /* \"#utility.yul\":5320:5324   */\n      dup3\n        /* \"#utility.yul\":5312:5318   */\n      dup3\n        /* \"#utility.yul\":5292:5325   */\n      tag_122\n      jump\t// in\n    tag_121:\n        /* \"#utility.yul\":5202:5331   */\n      swap2\n      swap1\n      pop\n      jump\t// out\n        /* \"#utility.yul\":5337:5412   */\n    tag_120:\n        /* \"#utility.yul\":5370:5376   */\n      0x00\n        /* \"#utility.yul\":5403:5405   */\n      0x40\n        /* \"#utility.yul\":5397:5406   */\n      mload\n        /* \"#utility.yul\":5387:5406   */\n      swap1\n      pop\n        /* \"#utility.yul\":5337:5412   */\n      swap1\n      jump\t// out\n        /* \"#utility.yul\":5418:5726   */\n    tag_40:\n        /* \"#utility.yul\":5480:5484   */\n      0x00\n        /* \"#utility.yul\":5570:5588   */\n      0xffffffffffffffff\n        /* \"#utility.yul\":5562:5568   */\n      dup3\n        /* \"#utility.yul\":5559:5589   */\n      gt\n        /* \"#utility.yul\":5556:5612   */\n      iszero\n      tag_125\n      jumpi\n        /* \"#utility.yul\":5592:5610   */\n      tag_126\n      tag_127\n      jump\t// in\n    tag_126:\n        /* \"#utility.yul\":5556:5612   */\n    tag_125:\n        /* \"#utility.yul\":5630:5659   */\n      tag_128\n        /* \"#utility.yul\":5652:5658   */\n      dup3\n        /* \"#utility.yul\":5630:5659   */\n      tag_107\n      jump\t// in\n    tag_128:\n        /* \"#utility.yul\":5622:5659   */\n      swap1\n      pop\n        /* \"#utility.yul\":5714:5718   */\n      0x20\n        /* \"#utility.yul\":5708:5712   */\n      dup2\n        /* \"#utility.yul\":5704:5719   */\n      add\n        /* \"#utility.yul\":5696:5719   */\n      swap1\n      pop\n        /* \"#utility.yul\":5418:5726   */\n      swap2\n      swap1\n      pop\n      jump\t// out\n        /* \"#utility.yul\":5732:5831   */\n    tag_101:\n        /* \"#utility.yul\":5784:5790   */\n      0x00\n        /* \"#utility.yul\":5818:5823   */\n      dup2\n        /* \"#utility.yul\":5812:5824   */\n      mload\n        /* \"#utility.yul\":5802:5824   */\n      swap1\n      pop\n        /* \"#utility.yul\":5732:5831   */\n      swap2\n      swap1\n      pop\n      jump\t// out\n        /* \"#utility.yul\":5837:6006   */\n    tag_103:\n        /* \"#utility.yul\":5921:5932   */\n      0x00\n        /* \"#utility.yul\":5955:5961   */\n      dup3\n        /* \"#utility.yul\":5950:5953   */\n      dup3\n        /* \"#utility.yul\":5943:5962   */\n      mstore\n        /* \"#utility.yul\":5995:5999   */\n      0x20\n        /* \"#utility.yul\":5990:5993   */\n      dup3\n        /* \"#utility.yul\":5986:6000   */\n      add\n        /* \"#utility.yul\":5971:6000   */\n      swap1\n      pop\n        /* \"#utility.yul\":5837:6006   */\n      swap3\n      swap2\n      pop\n      pop\n      jump\t// out\n        /* \"#utility.yul\":6012:6160   */\n    tag_96:\n        /* \"#utility.yul\":6114:6125   */\n      0x00\n        /* \"#utility.yul\":6151:6154   */\n      dup2\n        /* \"#utility.yul\":6136:6154   */\n      swap1\n      pop\n        /* \"#utility.yul\":6012:6160   */\n      swap3\n      swap2\n      pop\n      pop\n      jump\t// out\n        /* \"#utility.yul\":6166:6243   */\n    tag_111:\n        /* \"#utility.yul\":6203:6210   */\n      0x00\n        /* \"#utility.yul\":6232:6237   */\n      dup2\n        /* \"#utility.yul\":6221:6237   */\n      swap1\n      pop\n        /* \"#utility.yul\":6166:6243   */\n      swap2\n      swap1\n      pop\n      jump\t// out\n        /* \"#utility.yul\":6249:6403   */\n    tag_46:\n        /* \"#utility.yul\":6333:6339   */\n      dup3\n        /* \"#utility.yul\":6328:6331   */\n      dup2\n        /* \"#utility.yul\":6323:6326   */\n      dup4\n        /* \"#utility.yul\":6310:6340   */\n      calldatacopy\n        /* \"#utility.yul\":6395:6396   */\n      0x00\n        /* \"#utility.yul\":6386:6392   */\n      dup4\n        /* \"#utility.yul\":6381:6384   */\n      dup4\n        /* \"#utility.yul\":6377:6393   */\n      add\n        /* \"#utility.yul\":6370:6397   */\n      mstore\n        /* \"#utility.yul\":6249:6403   */\n      pop\n      pop\n      pop\n      jump\t// out\n        /* \"#utility.yul\":6409:6716   */\n    tag_105:\n        /* \"#utility.yul\":6477:6478   */\n      0x00\n        /* \"#utility.yul\":6487:6600   */\n    tag_135:\n        /* \"#utility.yul\":6501:6507   */\n      dup4\n        /* \"#utility.yul\":6498:6499   */\n      dup2\n        /* \"#utility.yul\":6495:6508   */\n      lt\n        /* \"#utility.yul\":6487:6600   */\n      iszero\n      tag_137\n      jumpi\n        /* \"#utility.yul\":6586:6587   */\n      dup1\n        /* \"#utility.yul\":6581:6584   */\n      dup3\n        /* \"#utility.yul\":6577:6588   */\n      add\n        /* \"#utility.yul\":6571:6589   */\n      mload\n        /* \"#utility.yul\":6567:6568   */\n      dup2\n        /* \"#utility.yul\":6562:6565   */\n      dup5\n        /* \"#utility.yul\":6558:6569   */\n      add\n        /* \"#utility.yul\":6551:6590   */\n      mstore\n        /* \"#utility.yul\":6523:6525   */\n      0x20\n        /* \"#utility.yul\":6520:6521   */\n      dup2\n        /* \"#utility.yul\":6516:6526   */\n      add\n        /* \"#utility.yul\":6511:6526   */\n      swap1\n      pop\n        /* \"#utility.yul\":6487:6600   */\n      jump(tag_135)\n    tag_137:\n        /* \"#utility.yul\":6618:6624   */\n      dup4\n        /* \"#utility.yul\":6615:6616   */\n      dup2\n        /* \"#utility.yul\":6612:6625   */\n      gt\n        /* \"#utility.yul\":6609:6710   */\n      iszero\n      tag_138\n      jumpi\n        /* \"#utility.yul\":6698:6699   */\n      0x00\n        /* \"#utility.yul\":6689:6695   */\n      dup5\n        /* \"#utility.yul\":6684:6687   */\n      dup5\n        /* \"#utility.yul\":6680:6696   */\n      add\n        /* \"#utility.yul\":6673:6700   */\n      mstore\n        /* \"#utility.yul\":6609:6710   */\n    tag_138:\n        /* \"#utility.yul\":6458:6716   */\n      pop\n        /* \"#utility.yul\":6409:6716   */\n      pop\n      pop\n      pop\n      jump\t// out\n        /* \"#utility.yul\":6722:7042   */\n    tag_30:\n        /* \"#utility.yul\":6766:6772   */\n      0x00\n        /* \"#utility.yul\":6803:6804   */\n      0x02\n        /* \"#utility.yul\":6797:6801   */\n      dup3\n        /* \"#utility.yul\":6793:6805   */\n      div\n        /* \"#utility.yul\":6783:6805   */\n      swap1\n      pop\n        /* \"#utility.yul\":6850:6851   */\n      0x01\n        /* \"#utility.yul\":6844:6848   */\n      dup3\n        /* \"#utility.yul\":6840:6852   */\n      and\n        /* \"#utility.yul\":6871:6889   */\n      dup1\n        /* \"#utility.yul\":6861:6942   */\n      tag_140\n      jumpi\n        /* \"#utility.yul\":6927:6931   */\n      0x7f\n        /* \"#utility.yul\":6919:6925   */\n      dup3\n        /* \"#utility.yul\":6915:6932   */\n      and\n        /* \"#utility.yul\":6905:6932   */\n      swap2\n      pop\n        /* \"#utility.yul\":6861:6942   */\n    tag_140:\n        /* \"#utility.yul\":6989:6991   */\n      0x20\n        /* \"#utility.yul\":6981:6987   */\n      dup3\n        /* \"#utility.yul\":6978:6992   */\n      lt\n        /* \"#utility.yul\":6958:6976   */\n      dup2\n        /* \"#utility.yul\":6955:6993   */\n      eq\n        /* \"#utility.yul\":6952:7036   */\n      iszero\n      tag_141\n      jumpi\n        /* \"#utility.yul\":7008:7026   */\n      tag_142\n      tag_143\n      jump\t// in\n    tag_142:\n        /* \"#utility.yul\":6952:7036   */\n    tag_141:\n        /* \"#utility.yul\":6773:7042   */\n      pop\n        /* \"#utility.yul\":6722:7042   */\n      swap2\n      swap1\n      pop\n      jump\t// out\n        /* \"#utility.yul\":7048:7329   */\n    tag_122:\n        /* \"#utility.yul\":7131:7158   */\n      tag_145\n        /* \"#utility.yul\":7153:7157   */\n      dup3\n        /* \"#utility.yul\":7131:7158   */\n      tag_107\n      jump\t// in\n    tag_145:\n        /* \"#utility.yul\":7123:7129   */\n      dup2\n        /* \"#utility.yul\":7119:7159   */\n      add\n        /* \"#utility.yul\":7261:7267   */\n      dup2\n        /* \"#utility.yul\":7249:7259   */\n      dup2\n        /* \"#utility.yul\":7246:7268   */\n      lt\n        /* \"#utility.yul\":7225:7243   */\n      0xffffffffffffffff\n        /* \"#utility.yul\":7213:7223   */\n      dup3\n        /* \"#utility.yul\":7210:7244   */\n      gt\n        /* \"#utility.yul\":7207:7269   */\n      or\n        /* \"#utility.yul\":7204:7292   */\n      iszero\n      tag_146\n      jumpi\n        /* \"#utility.yul\":7272:7290   */\n      tag_147\n      tag_127\n      jump\t// in\n    tag_147:\n        /* \"#utility.yul\":7204:7292   */\n    tag_146:\n        /* \"#utility.yul\":7312:7322   */\n      dup1\n        /* \"#utility.yul\":7308:7310   */\n      0x40\n        /* \"#utility.yul\":7301:7323   */\n      mstore\n        /* \"#utility.yul\":7091:7329   */\n      pop\n        /* \"#utility.yul\":7048:7329   */\n      pop\n      pop\n      jump\t// out\n        /* \"#utility.yul\":7335:7515   */\n    tag_143:\n        /* \"#utility.yul\":7383:7460   */\n      0x4e487b7100000000000000000000000000000000000000000000000000000000\n        /* \"#utility.yul\":7380:7381   */\n      0x00\n        /* \"#utility.yul\":7373:7461   */\n      mstore\n        /* \"#utility.yul\":7480:7484   */\n      0x22\n        /* \"#utility.yul\":7477:7478   */\n      0x04\n        /* \"#utility.yul\":7470:7485   */\n      mstore\n        /* \"#utility.yul\":7504:7508   */\n      0x24\n        /* \"#utility.yul\":7501:7502   */\n      0x00\n        /* \"#utility.yul\":7494:7509   */\n      revert\n        /* \"#utility.yul\":7521:7701   */\n    tag_127:\n        /* \"#utility.yul\":7569:7646   */\n      0x4e487b7100000000000000000000000000000000000000000000000000000000\n        /* \"#utility.yul\":7566:7567   */\n      0x00\n        /* \"#utility.yul\":7559:7647   */\n      mstore\n        /* \"#utility.yul\":7666:7670   */\n      0x41\n        /* \"#utility.yul\":7663:7664   */\n      0x04\n        /* \"#utility.yul\":7656:7671   */\n      mstore\n        /* \"#utility.yul\":7690:7694   */\n      0x24\n        /* \"#utility.yul\":7687:7688   */\n      0x00\n        /* \"#utility.yul\":7680:7695   */\n      revert\n        /* \"#utility.yul\":7707:7824   */\n    tag_54:\n        /* \"#utility.yul\":7816:7817   */\n      0x00\n        /* \"#utility.yul\":7813:7814   */\n      dup1\n        /* \"#utility.yul\":7806:7818   */\n      revert\n        /* \"#utility.yul\":7830:7947   */\n    tag_51:\n        /* \"#utility.yul\":7939:7940   */\n      0x00\n        /* \"#utility.yul\":7936:7937   */\n      dup1\n        /* \"#utility.yul\":7929:7941   */\n      revert\n        /* \"#utility.yul\":7953:8070   */\n    tag_67:\n        /* \"#utility.yul\":8062:8063   */\n      0x00\n        /* \"#utility.yul\":8059:8060   */\n      dup1\n        /* \"#utility.yul\":8052:8064   */\n      revert\n        /* \"#utility.yul\":8076:8193   */\n    tag_57:\n        /* \"#utility.yul\":8185:8186   */\n      0x00\n        /* \"#utility.yul\":8182:8183   */\n      dup1\n        /* \"#utility.yul\":8175:8187   */\n      revert\n        /* \"#utility.yul\":8199:8316   */\n    tag_44:\n        /* \"#utility.yul\":8308:8309   */\n      0x00\n        /* \"#utility.yul\":8305:8306   */\n      dup1\n        /* \"#utility.yul\":8298:8310   */\n      revert\n        /* \"#utility.yul\":8322:8439   */\n    tag_78:\n        /* \"#utility.yul\":8431:8432   */\n      0x00\n        /* \"#utility.yul\":8428:8429   */\n      dup1\n        /* \"#utility.yul\":8421:8433   */\n      revert\n        /* \"#utility.yul\":8445:8562   */\n    tag_75:\n        /* \"#utility.yul\":8554:8555   */\n      0x00\n        /* \"#utility.yul\":8551:8552   */\n      dup1\n        /* \"#utility.yul\":8544:8556   */\n      revert\n        /* \"#utility.yul\":8568:8670   */\n    tag_107:\n        /* \"#utility.yul\":8609:8615   */\n      0x00\n        /* \"#utility.yul\":8660:8662   */\n      0x1f\n        /* \"#utility.yul\":8656:8663   */\n      not\n        /* \"#utility.yul\":8651:8653   */\n      0x1f\n        /* \"#utility.yul\":8644:8649   */\n      dup4\n        /* \"#utility.yul\":8640:8654   */\n      add\n        /* \"#utility.yul\":8636:8664   */\n      and\n        /* \"#utility.yul\":8626:8664   */\n      swap1\n      pop\n        /* \"#utility.yul\":8568:8670   */\n      swap2\n      swap1\n      pop\n      jump\t// out\n        /* \"#utility.yul\":8676:8798   */\n    tag_71:\n        /* \"#utility.yul\":8749:8773   */\n      tag_159\n        /* \"#utility.yul\":8767:8772   */\n      dup2\n        /* \"#utility.yul\":8749:8773   */\n      tag_111\n      jump\t// in\n    tag_159:\n        /* \"#utility.yul\":8742:8747   */\n      dup2\n        /* \"#utility.yul\":8739:8774   */\n      eq\n        /* \"#utility.yul\":8729:8792   */\n      tag_160\n      jumpi\n        /* \"#utility.yul\":8788:8789   */\n      0x00\n        /* \"#utility.yul\":8785:8786   */\n      dup1\n        /* \"#utility.yul\":8778:8790   */\n      revert\n        /* \"#utility.yul\":8729:8792   */\n    tag_160:\n        /* \"#utility.yul\":8676:8798   */\n      pop\n      jump\t// out\n\n    auxdata: 0xa264697066735822122031f39f8548cecbe5d791ce8b375cb01dda74575603faf14852cee9f7a1aba4a964736f6c63430008070033\n}\n",
				"bytecode": {
					"linkReferences": {},
					"object": "608060405234801561001057600080fd5b50610729806100206000396000f3fe608060405234801561001057600080fd5b50600436106100415760003560e01c80630186a42314610046578063223df9f114610076578063e4bcc7d414610092575b600080fd5b610060600480360381019061005b91906103e5565b6100c2565b60405161006d9190610503565b60405180910390f35b610090600480360381019061008b9190610369565b6100f6565b005b6100ac60048036038101906100a7919061042e565b6101c3565b6040516100b991906104e1565b60405180910390f35b6001818051602081018201805184825260208301602085012081835280955050505050506000915090508060000154905081565b60006001848460405161010a9291906104c8565b908152602001604051809103902060405180604001604052908160008201548152602001600182018054806020026020016040519081016040528092919081815260200182805480156101b257602002820191906000526020600020905b8160009054906101000a900473ffffffffffffffffffffffffffffffffffffffff1673ffffffffffffffffffffffffffffffffffffffff1681526020019060010190808311610168575b505050505081525050905050505050565b600081815481106101d357600080fd5b9060005260206000200160009150905080546101ee906105e7565b80601f016020809104026020016040519081016040528092919081815260200182805461021a906105e7565b80156102675780601f1061023c57610100808354040283529160200191610267565b820191906000526020600020905b81548152906001019060200180831161024a57829003601f168201915b505050505081565b600061028261027d84610543565b61051e565b90508281526020810184848401111561029e5761029d6106bc565b5b6102a98482856105a5565b509392505050565b60008083601f8401126102c7576102c66106ad565b5b8235905067ffffffffffffffff8111156102e4576102e36106a8565b5b602083019150836001820283011115610300576102ff6106b7565b5b9250929050565b600082601f83011261031c5761031b6106ad565b5b813561032c84826020860161026f565b91505092915050565b60006040828403121561034b5761034a6106b2565b5b81905092915050565b600081359050610363816106dc565b92915050565b600080600060408486031215610382576103816106c6565b5b600084013567ffffffffffffffff8111156103a05761039f6106c1565b5b6103ac868287016102b1565b9350935050602084013567ffffffffffffffff8111156103cf576103ce6106c1565b5b6103db86828701610335565b9150509250925092565b6000602082840312156103fb576103fa6106c6565b5b600082013567ffffffffffffffff811115610419576104186106c1565b5b61042584828501610307565b91505092915050565b600060208284031215610444576104436106c6565b5b600061045284828501610354565b91505092915050565b60006104678385610590565b93506104748385846105a5565b82840190509392505050565b600061048b82610574565b610495818561057f565b93506104a58185602086016105b4565b6104ae816106cb565b840191505092915050565b6104c28161059b565b82525050565b60006104d582848661045b565b91508190509392505050565b600060208201905081810360008301526104fb8184610480565b905092915050565b600060208201905061051860008301846104b9565b92915050565b6000610528610539565b90506105348282610619565b919050565b6000604051905090565b600067ffffffffffffffff82111561055e5761055d610679565b5b610567826106cb565b9050602081019050919050565b600081519050919050565b600082825260208201905092915050565b600081905092915050565b6000819050919050565b82818337600083830152505050565b60005b838110156105d25780820151818401526020810190506105b7565b838111156105e1576000848401525b50505050565b600060028204905060018216806105ff57607f821691505b602082108114156106135761061261064a565b5b50919050565b610622826106cb565b810181811067ffffffffffffffff8211171561064157610640610679565b5b80604052505050565b7f4e487b7100000000000000000000000000000000000000000000000000000000600052602260045260246000fd5b7f4e487b7100000000000000000000000000000000000000000000000000000000600052604160045260246000fd5b600080fd5b600080fd5b600080fd5b600080fd5b600080fd5b600080fd5b600080fd5b6000601f19601f8301169050919050565b6106e58161059b565b81146106f057600080fd5b5056fea264697066735822122031f39f8548cecbe5d791ce8b375cb01dda74575603faf14852cee9f7a1aba4a964736f6c63430008070033",
					"opcodes": "PUSH1 0x80 PUSH1 0x40 MSTORE CALLVALUE DUP1 ISZERO PUSH2 0x10 JUMPI PUSH1 0x0 DUP1 REVERT JUMPDEST POP PUSH2 0x729 DUP1 PUSH2 0x20 PUSH1 0x0 CODECOPY PUSH1 0x0 RETURN INVALID PUSH1 0x80 PUSH1 0x40 MSTORE CALLVALUE DUP1 ISZERO PUSH2 0x10 JUMPI PUSH1 0x0 DUP1 REVERT JUMPDEST POP PUSH1 0x4 CALLDATASIZE LT PUSH2 0x41 JUMPI PUSH1 0x0 CALLDATALOAD PUSH1 0xE0 SHR DUP1 PUSH4 0x186A423 EQ PUSH2 0x46 JUMPI DUP1 PUSH4 0x223DF9F1 EQ PUSH2 0x76 JUMPI DUP1 PUSH4 0xE4BCC7D4 EQ PUSH2 0x92 JUMPI JUMPDEST PUSH1 0x0 DUP1 REVERT JUMPDEST PUSH2 0x60 PUSH1 0x4 DUP1 CALLDATASIZE SUB DUP2 ADD SWAP1 PUSH2 0x5B SWAP2 SWAP1 PUSH2 0x3E5 JUMP JUMPDEST PUSH2 0xC2 JUMP JUMPDEST PUSH1 0x40 MLOAD PUSH2 0x6D SWAP2 SWAP1 PUSH2 0x503 JUMP JUMPDEST PUSH1 0x40 MLOAD DUP1 SWAP2 SUB SWAP1 RETURN JUMPDEST PUSH2 0x90 PUSH1 0x4 DUP1 CALLDATASIZE SUB DUP2 ADD SWAP1 PUSH2 0x8B SWAP2 SWAP1 PUSH2 0x369 JUMP JUMPDEST PUSH2 0xF6 JUMP JUMPDEST STOP JUMPDEST PUSH2 0xAC PUSH1 0x4 DUP1 CALLDATASIZE SUB DUP2 ADD SWAP1 PUSH2 0xA7 SWAP2 SWAP1 PUSH2 0x42E JUMP JUMPDEST PUSH2 0x1C3 JUMP JUMPDEST PUSH1 0x40 MLOAD PUSH2 0xB9 SWAP2 SWAP1 PUSH2 0x4E1 JUMP JUMPDEST PUSH1 0x40 MLOAD DUP1 SWAP2 SUB SWAP1 RETURN JUMPDEST PUSH1 0x1 DUP2 DUP1 MLOAD PUSH1 0x20 DUP2 ADD DUP3 ADD DUP1 MLOAD DUP5 DUP3 MSTORE PUSH1 0x20 DUP4 ADD PUSH1 0x20 DUP6 ADD KECCAK256 DUP2 DUP4 MSTORE DUP1 SWAP6 POP POP POP POP POP POP PUSH1 0x0 SWAP2 POP SWAP1 POP DUP1 PUSH1 0x0 ADD SLOAD SWAP1 POP DUP2 JUMP JUMPDEST PUSH1 0x0 PUSH1 0x1 DUP5 DUP5 PUSH1 0x40 MLOAD PUSH2 0x10A SWAP3 SWAP2 SWAP1 PUSH2 0x4C8 JUMP JUMPDEST SWAP1 DUP2 MSTORE PUSH1 0x20 ADD PUSH1 0x40 MLOAD DUP1 SWAP2 SUB SWAP1 KECCAK256 PUSH1 0x40 MLOAD DUP1 PUSH1 0x40 ADD PUSH1 0x40 MSTORE SWAP1 DUP2 PUSH1 0x0 DUP3 ADD SLOAD DUP2 MSTORE PUSH1 0x20 ADD PUSH1 0x1 DUP3 ADD DUP1 SLOAD DUP1 PUSH1 0x20 MUL PUSH1 0x20 ADD PUSH1 0x40 MLOAD SWAP1 DUP2 ADD PUSH1 0x40 MSTORE DUP1 SWAP3 SWAP2 SWAP1 DUP2 DUP2 MSTORE PUSH1 0x20 ADD DUP3 DUP1 SLOAD DUP1 ISZERO PUSH2 0x1B2 JUMPI PUSH1 0x20 MUL DUP3 ADD SWAP2 SWAP1 PUSH1 0x0 MSTORE PUSH1 0x20 PUSH1 0x0 KECCAK256 SWAP1 JUMPDEST DUP2 PUSH1 0x0 SWAP1 SLOAD SWAP1 PUSH2 0x100 EXP SWAP1 DIV PUSH20 0xFFFFFFFFFFFFFFFFFFFFFFFFFFFFFFFFFFFFFFFF AND PUSH20 0xFFFFFFFFFFFFFFFFFFFFFFFFFFFFFFFFFFFFFFFF AND DUP2 MSTORE PUSH1 0x20 ADD SWAP1 PUSH1 0x1 ADD SWAP1 DUP1 DUP4 GT PUSH2 0x168 JUMPI JUMPDEST POP POP POP POP POP DUP2 MSTORE POP POP SWAP1 POP POP POP POP POP JUMP JUMPDEST PUSH1 0x0 DUP2 DUP2 SLOAD DUP2 LT PUSH2 0x1D3 JUMPI PUSH1 0x0 DUP1 REVERT JUMPDEST SWAP1 PUSH1 0x0 MSTORE PUSH1 0x20 PUSH1 0x0 KECCAK256 ADD PUSH1 0x0 SWAP2 POP SWAP1 POP DUP1 SLOAD PUSH2 0x1EE SWAP1 PUSH2 0x5E7 JUMP JUMPDEST DUP1 PUSH1 0x1F ADD PUSH1 0x20 DUP1 SWAP2 DIV MUL PUSH1 0x20 ADD PUSH1 0x40 MLOAD SWAP1 DUP2 ADD PUSH1 0x40 MSTORE DUP1 SWAP3 SWAP2 SWAP1 DUP2 DUP2 MSTORE PUSH1 0x20 ADD DUP3 DUP1 SLOAD PUSH2 0x21A SWAP1 PUSH2 0x5E7 JUMP JUMPDEST DUP1 ISZERO PUSH2 0x267 JUMPI DUP1 PUSH1 0x1F LT PUSH2 0x23C JUMPI PUSH2 0x100 DUP1 DUP4 SLOAD DIV MUL DUP4 MSTORE SWAP2 PUSH1 0x20 ADD SWAP2 PUSH2 0x267 JUMP JUMPDEST DUP3 ADD SWAP2 SWAP1 PUSH1 0x0 MSTORE PUSH1 0x20 PUSH1 0x0 KECCAK256 SWAP1 JUMPDEST DUP2 SLOAD DUP2 MSTORE SWAP1 PUSH1 0x1 ADD SWAP1 PUSH1 0x20 ADD DUP1 DUP4 GT PUSH2 0x24A JUMPI DUP3 SWAP1 SUB PUSH1 0x1F AND DUP3 ADD SWAP2 JUMPDEST POP POP POP POP POP DUP2 JUMP JUMPDEST PUSH1 0x0 PUSH2 0x282 PUSH2 0x27D DUP5 PUSH2 0x543 JUMP JUMPDEST PUSH2 0x51E JUMP JUMPDEST SWAP1 POP DUP3 DUP2 MSTORE PUSH1 0x20 DUP2 ADD DUP5 DUP5 DUP5 ADD GT ISZERO PUSH2 0x29E JUMPI PUSH2 0x29D PUSH2 0x6BC JUMP JUMPDEST JUMPDEST PUSH2 0x2A9 DUP5 DUP3 DUP6 PUSH2 0x5A5 JUMP JUMPDEST POP SWAP4 SWAP3 POP POP POP JUMP JUMPDEST PUSH1 0x0 DUP1 DUP4 PUSH1 0x1F DUP5 ADD SLT PUSH2 0x2C7 JUMPI PUSH2 0x2C6 PUSH2 0x6AD JUMP JUMPDEST JUMPDEST DUP3 CALLDATALOAD SWAP1 POP PUSH8 0xFFFFFFFFFFFFFFFF DUP2 GT ISZERO PUSH2 0x2E4 JUMPI PUSH2 0x2E3 PUSH2 0x6A8 JUMP JUMPDEST JUMPDEST PUSH1 0x20 DUP4 ADD SWAP2 POP DUP4 PUSH1 0x1 DUP3 MUL DUP4 ADD GT ISZERO PUSH2 0x300 JUMPI PUSH2 0x2FF PUSH2 0x6B7 JUMP JUMPDEST JUMPDEST SWAP3 POP SWAP3 SWAP1 POP JUMP JUMPDEST PUSH1 0x0 DUP3 PUSH1 0x1F DUP4 ADD SLT PUSH2 0x31C JUMPI PUSH2 0x31B PUSH2 0x6AD JUMP JUMPDEST JUMPDEST DUP2 CALLDATALOAD PUSH2 0x32C DUP5 DUP3 PUSH1 0x20 DUP7 ADD PUSH2 0x26F JUMP JUMPDEST SWAP2 POP POP SWAP3 SWAP2 POP POP JUMP JUMPDEST PUSH1 0x0 PUSH1 0x40 DUP3 DUP5 SUB SLT ISZERO PUSH2 0x34B JUMPI PUSH2 0x34A PUSH2 0x6B2 JUMP JUMPDEST JUMPDEST DUP2 SWAP1 POP SWAP3 SWAP2 POP POP JUMP JUMPDEST PUSH1 0x0 DUP2 CALLDATALOAD SWAP1 POP PUSH2 0x363 DUP2 PUSH2 0x6DC JUMP JUMPDEST SWAP3 SWAP2 POP POP JUMP JUMPDEST PUSH1 0x0 DUP1 PUSH1 0x0 PUSH1 0x40 DUP5 DUP7 SUB SLT ISZERO PUSH2 0x382 JUMPI PUSH2 0x381 PUSH2 0x6C6 JUMP JUMPDEST JUMPDEST PUSH1 0x0 DUP5 ADD CALLDATALOAD PUSH8 0xFFFFFFFFFFFFFFFF DUP2 GT ISZERO PUSH2 0x3A0 JUMPI PUSH2 0x39F PUSH2 0x6C1 JUMP JUMPDEST JUMPDEST PUSH2 0x3AC DUP7 DUP3 DUP8 ADD PUSH2 0x2B1 JUMP JUMPDEST SWAP4 POP SWAP4 POP POP PUSH1 0x20 DUP5 ADD CALLDATALOAD PUSH8 0xFFFFFFFFFFFFFFFF DUP2 GT ISZERO PUSH2 0x3CF JUMPI PUSH2 0x3CE PUSH2 0x6C1 JUMP JUMPDEST JUMPDEST PUSH2 0x3DB DUP7 DUP3 DUP8 ADD PUSH2 0x335 JUMP JUMPDEST SWAP2 POP POP SWAP3 POP SWAP3 POP SWAP3 JUMP JUMPDEST PUSH1 0x0 PUSH1 0x20 DUP3 DUP5 SUB SLT ISZERO PUSH2 0x3FB JUMPI PUSH2 0x3FA PUSH2 0x6C6 JUMP JUMPDEST JUMPDEST PUSH1 0x0 DUP3 ADD CALLDATALOAD PUSH8 0xFFFFFFFFFFFFFFFF DUP2 GT ISZERO PUSH2 0x419 JUMPI PUSH2 0x418 PUSH2 0x6C1 JUMP JUMPDEST JUMPDEST PUSH2 0x425 DUP5 DUP3 DUP6 ADD PUSH2 0x307 JUMP JUMPDEST SWAP2 POP POP SWAP3 SWAP2 POP POP JUMP JUMPDEST PUSH1 0x0 PUSH1 0x20 DUP3 DUP5 SUB SLT ISZERO PUSH2 0x444 JUMPI PUSH2 0x443 PUSH2 0x6C6 JUMP JUMPDEST JUMPDEST PUSH1 0x0 PUSH2 0x452 DUP5 DUP3 DUP6 ADD PUSH2 0x354 JUMP JUMPDEST SWAP2 POP POP SWAP3 SWAP2 POP POP JUMP JUMPDEST PUSH1 0x0 PUSH2 0x467 DUP4 DUP6 PUSH2 0x590 JUMP JUMPDEST SWAP4 POP PUSH2 0x474 DUP4 DUP6 DUP5 PUSH2 0x5A5 JUMP JUMPDEST DUP3 DUP5 ADD SWAP1 POP SWAP4 SWAP3 POP POP POP JUMP JUMPDEST PUSH1 0x0 PUSH2 0x48B DUP3 PUSH2 0x574 JUMP JUMPDEST PUSH2 0x495 DUP2 DUP6 PUSH2 0x57F JUMP JUMPDEST SWAP4 POP PUSH2 0x4A5 DUP2 DUP6 PUSH1 0x20 DUP7 ADD PUSH2 0x5B4 JUMP JUMPDEST PUSH2 0x4AE DUP2 PUSH2 0x6CB JUMP JUMPDEST DUP5 ADD SWAP2 POP POP SWAP3 SWAP2 POP POP JUMP JUMPDEST PUSH2 0x4C2 DUP2 PUSH2 0x59B JUMP JUMPDEST DUP3 MSTORE POP POP JUMP JUMPDEST PUSH1 0x0 PUSH2 0x4D5 DUP3 DUP5 DUP7 PUSH2 0x45B JUMP JUMPDEST SWAP2 POP DUP2 SWAP1 POP SWAP4 SWAP3 POP POP POP JUMP JUMPDEST PUSH1 0x0 PUSH1 0x20 DUP3 ADD SWAP1 POP DUP2 DUP2 SUB PUSH1 0x0 DUP4 ADD MSTORE PUSH2 0x4FB DUP2 DUP5 PUSH2 0x480 JUMP JUMPDEST SWAP1 POP SWAP3 SWAP2 POP POP JUMP JUMPDEST PUSH1 0x0 PUSH1 0x20 DUP3 ADD SWAP1 POP PUSH2 0x518 PUSH1 0x0 DUP4 ADD DUP5 PUSH2 0x4B9 JUMP JUMPDEST SWAP3 SWAP2 POP POP JUMP JUMPDEST PUSH1 0x0 PUSH2 0x528 PUSH2 0x539 JUMP JUMPDEST SWAP1 POP PUSH2 0x534 DUP3 DUP3 PUSH2 0x619 JUMP JUMPDEST SWAP2 SWAP1 POP JUMP JUMPDEST PUSH1 0x0 PUSH1 0x40 MLOAD SWAP1 POP SWAP1 JUMP JUMPDEST PUSH1 0x0 PUSH8 0xFFFFFFFFFFFFFFFF DUP3 GT ISZERO PUSH2 0x55E JUMPI PUSH2 0x55D PUSH2 0x679 JUMP JUMPDEST JUMPDEST PUSH2 0x567 DUP3 PUSH2 0x6CB JUMP JUMPDEST SWAP1 POP PUSH1 0x20 DUP2 ADD SWAP1 POP SWAP2 SWAP1 POP JUMP JUMPDEST PUSH1 0x0 DUP2 MLOAD SWAP1 POP SWAP2 SWAP1 POP JUMP JUMPDEST PUSH1 0x0 DUP3 DUP3 MSTORE PUSH1 0x20 DUP3 ADD SWAP1 POP SWAP3 SWAP2 POP POP JUMP JUMPDEST PUSH1 0x0 DUP2 SWAP1 POP SWAP3 SWAP2 POP POP JUMP JUMPDEST PUSH1 0x0 DUP2 SWAP1 POP SWAP2 SWAP1 POP JUMP JUMPDEST DUP3 DUP2 DUP4 CALLDATACOPY PUSH1 0x0 DUP4 DUP4 ADD MSTORE POP POP POP JUMP JUMPDEST PUSH1 0x0 JUMPDEST DUP4 DUP2 LT ISZERO PUSH2 0x5D2 JUMPI DUP1 DUP3 ADD MLOAD DUP2 DUP5 ADD MSTORE PUSH1 0x20 DUP2 ADD SWAP1 POP PUSH2 0x5B7 JUMP JUMPDEST DUP4 DUP2 GT ISZERO PUSH2 0x5E1 JUMPI PUSH1 0x0 DUP5 DUP5 ADD MSTORE JUMPDEST POP POP POP POP JUMP JUMPDEST PUSH1 0x0 PUSH1 0x2 DUP3 DIV SWAP1 POP PUSH1 0x1 DUP3 AND DUP1 PUSH2 0x5FF JUMPI PUSH1 0x7F DUP3 AND SWAP2 POP JUMPDEST PUSH1 0x20 DUP3 LT DUP2 EQ ISZERO PUSH2 0x613 JUMPI PUSH2 0x612 PUSH2 0x64A JUMP JUMPDEST JUMPDEST POP SWAP2 SWAP1 POP JUMP JUMPDEST PUSH2 0x622 DUP3 PUSH2 0x6CB JUMP JUMPDEST DUP2 ADD DUP2 DUP2 LT PUSH8 0xFFFFFFFFFFFFFFFF DUP3 GT OR ISZERO PUSH2 0x641 JUMPI PUSH2 0x640 PUSH2 0x679 JUMP JUMPDEST JUMPDEST DUP1 PUSH1 0x40 MSTORE POP POP POP JUMP JUMPDEST PUSH32 0x4E487B7100000000000000000000000000000000000000000000000000000000 PUSH1 0x0 MSTORE PUSH1 0x22 PUSH1 0x4 MSTORE PUSH1 0x24 PUSH1 0x0 REVERT JUMPDEST PUSH32 0x4E487B7100000000000000000000000000000000000000000000000000000000 PUSH1 0x0 MSTORE PUSH1 0x41 PUSH1 0x4 MSTORE PUSH1 0x24 PUSH1 0x0 REVERT JUMPDEST PUSH1 0x0 DUP1 REVERT JUMPDEST PUSH1 0x0 DUP1 REVERT JUMPDEST PUSH1 0x0 DUP1 REVERT JUMPDEST PUSH1 0x0 DUP1 REVERT JUMPDEST PUSH1 0x0 DUP1 REVERT JUMPDEST PUSH1 0x0 DUP1 REVERT JUMPDEST PUSH1 0x0 DUP1 REVERT JUMPDEST PUSH1 0x0 PUSH1 0x1F NOT PUSH1 0x1F DUP4 ADD AND SWAP1 POP SWAP2 SWAP1 POP JUMP JUMPDEST PUSH2 0x6E5 DUP2 PUSH2 0x59B JUMP JUMPDEST DUP2 EQ PUSH2 0x6F0 JUMPI PUSH1 0x0 DUP1 REVERT JUMPDEST POP JUMP INVALID LOG2 PUSH5 0x6970667358 0x22 SLT KECCAK256 BALANCE RETURN SWAP16 DUP6 BASEFEE 0xCE 0xCB 0xE5 0xD7 SWAP2 0xCE DUP12 CALLDATACOPY 0x5C 0xB0 SAR 0xDA PUSH21 0x575603FAF14852CEE9F7A1ABA4A964736F6C634300 ADDMOD SMOD STOP CALLER "
				},
				"gasEstimates": {
					"creation": {
						"codeDepositCost": "366600",
						"executionCost": "405",
						"totalCost": "367005"
					},
					"external": {
						"availableProducts(uint256)": "infinite",
						"manageProduct(string,(uint256,address[]))": "infinite",
						"products(string)": "infinite"
					}
				},
				"methodIdentifiers": {
					"availableProducts(uint256)": "e4bcc7d4",
					"manageProduct(string,(uint256,address[]))": "223df9f1",
					"products(string)": "0186a423"
				}
			},
			"storageLayout": {
				"storage": [
					{
						"astId": 9,
						"contract": "Project/TechnoLime.sol:TechnoLimeStore",
						"label": "availableProducts",
						"offset": 0,
						"slot": "0",
						"type": "t_array(t_string_storage)dyn_storage"
					},
					{
						"astId": 14,
						"contract": "Project/TechnoLime.sol:TechnoLimeStore",
						"label": "products",
						"offset": 0,
						"slot": "1",
						"type": "t_mapping(t_string_memory_ptr,t_struct(Product)6_storage)"
					},
					{
						"astId": 26,
						"contract": "Project/TechnoLime.sol:TechnoLimeStore",
						"label": "transactions",
						"offset": 0,
						"slot": "2",
						"type": "t_mapping(t_uint256,t_mapping(t_address,t_struct(Transaction)19_storage))"
					}
				],
				"types": {
					"t_address": {
						"encoding": "inplace",
						"label": "address",
						"numberOfBytes": "20"
					},
					"t_array(t_address)dyn_storage": {
						"base": "t_address",
						"encoding": "dynamic_array",
						"label": "address[]",
						"numberOfBytes": "32"
					},
					"t_array(t_string_storage)dyn_storage": {
						"base": "t_string_storage",
						"encoding": "dynamic_array",
						"label": "string[]",
						"numberOfBytes": "32"
					},
					"t_mapping(t_address,t_struct(Transaction)19_storage)": {
						"encoding": "mapping",
						"key": "t_address",
						"label": "mapping(address => struct TechnoLimeStore.Transaction)",
						"numberOfBytes": "32",
						"value": "t_struct(Transaction)19_storage"
					},
					"t_mapping(t_string_memory_ptr,t_struct(Product)6_storage)": {
						"encoding": "mapping",
						"key": "t_string_memory_ptr",
						"label": "mapping(string => struct TechnoLimeStore.Product)",
						"numberOfBytes": "32",
						"value": "t_struct(Product)6_storage"
					},
					"t_mapping(t_uint256,t_mapping(t_address,t_struct(Transaction)19_storage))": {
						"encoding": "mapping",
						"key": "t_uint256",
						"label": "mapping(uint256 => mapping(address => struct TechnoLimeStore.Transaction))",
						"numberOfBytes": "32",
						"value": "t_mapping(t_address,t_struct(Transaction)19_storage)"
					},
					"t_string_memory_ptr": {
						"encoding": "bytes",
						"label": "string",
						"numberOfBytes": "32"
					},
					"t_string_storage": {
						"encoding": "bytes",
						"label": "string",
						"numberOfBytes": "32"
					},
					"t_struct(Product)6_storage": {
						"encoding": "inplace",
						"label": "struct TechnoLimeStore.Product",
						"members": [
							{
								"astId": 2,
								"contract": "Project/TechnoLime.sol:TechnoLimeStore",
								"label": "price",
								"offset": 0,
								"slot": "0",
								"type": "t_uint256"
							},
							{
								"astId": 5,
								"contract": "Project/TechnoLime.sol:TechnoLimeStore",
								"label": "buyers",
								"offset": 0,
								"slot": "1",
								"type": "t_array(t_address)dyn_storage"
							}
						],
						"numberOfBytes": "64"
					},
					"t_struct(Transaction)19_storage": {
						"encoding": "inplace",
						"label": "struct TechnoLimeStore.Transaction",
						"members": [
							{
								"astId": 16,
								"contract": "Project/TechnoLime.sol:TechnoLimeStore",
								"label": "blockNum",
								"offset": 0,
								"slot": "0",
								"type": "t_uint256"
							},
							{
								"astId": 18,
								"contract": "Project/TechnoLime.sol:TechnoLimeStore",
								"label": "price",
								"offset": 0,
								"slot": "1",
								"type": "t_uint256"
							}
						],
						"numberOfBytes": "64"
					},
					"t_uint256": {
						"encoding": "inplace",
						"label": "uint256",
						"numberOfBytes": "32"
					}
				}
			},
			"userdoc": {
				"kind": "user",
				"methods": {},
				"version": 1
			}
		}
	}
}