{
	"Project/TechnoLime.sol": {
		"TechnoLimeStore": {
			"abi": [
				{
					"inputs": [],
					"stateMutability": "payable",
					"type": "constructor"
				},
				{
					"inputs": [],
					"name": "ItemIdWrongOrBoughtAlready",
					"type": "error"
				},
				{
					"inputs": [],
					"name": "LessThanPriceOrOutOfStock",
					"type": "error"
				},
				{
					"inputs": [],
					"name": "ProductExists",
					"type": "error"
				},
				{
					"inputs": [],
					"name": "ProductNotExistent",
					"type": "error"
				},
				{
					"inputs": [
						{
							"internalType": "string",
							"name": "productName",
							"type": "string"
						},
						{
							"internalType": "uint256",
							"name": "_price",
							"type": "uint256"
						},
						{
							"internalType": "uint256",
							"name": "_quantity",
							"type": "uint256"
						}
					],
					"name": "addNewProduct",
					"outputs": [],
					"stateMutability": "nonpayable",
					"type": "function"
				},
				{
					"inputs": [
						{
							"internalType": "uint256",
							"name": "",
							"type": "uint256"
						}
					],
					"name": "availableProducts",
					"outputs": [
						{
							"internalType": "string",
							"name": "",
							"type": "string"
						}
					],
					"stateMutability": "view",
					"type": "function"
				},
				{
					"inputs": [
						{
							"internalType": "uint256",
							"name": "ProductId",
							"type": "uint256"
						}
					],
					"name": "buyProduct",
					"outputs": [],
					"stateMutability": "payable",
					"type": "function"
				},
				{
					"inputs": [
						{
							"internalType": "uint256",
							"name": "",
							"type": "uint256"
						},
						{
							"internalType": "uint256",
							"name": "",
							"type": "uint256"
						}
					],
					"name": "buyers",
					"outputs": [
						{
							"internalType": "address",
							"name": "",
							"type": "address"
						}
					],
					"stateMutability": "view",
					"type": "function"
				},
				{
					"inputs": [
						{
							"internalType": "string",
							"name": "",
							"type": "string"
						}
					],
					"name": "products",
					"outputs": [
						{
							"internalType": "uint256",
							"name": "price",
							"type": "uint256"
						},
						{
							"internalType": "uint256",
							"name": "quantity",
							"type": "uint256"
						},
						{
							"internalType": "bool",
							"name": "exists",
							"type": "bool"
						}
					],
					"stateMutability": "view",
					"type": "function"
				},
				{
					"inputs": [
						{
							"internalType": "uint256",
							"name": "",
							"type": "uint256"
						}
					],
					"name": "productsID",
					"outputs": [
						{
							"internalType": "uint256",
							"name": "price",
							"type": "uint256"
						},
						{
							"internalType": "uint256",
							"name": "quantity",
							"type": "uint256"
						},
						{
							"internalType": "bool",
							"name": "exists",
							"type": "bool"
						}
					],
					"stateMutability": "view",
					"type": "function"
				},
				{
					"inputs": [
						{
							"internalType": "uint256",
							"name": "",
							"type": "uint256"
						},
						{
							"internalType": "address",
							"name": "",
							"type": "address"
						}
					],
					"name": "transactions",
					"outputs": [
						{
							"internalType": "uint256",
							"name": "blockNum",
							"type": "uint256"
						},
						{
							"internalType": "uint256",
							"name": "price",
							"type": "uint256"
						},
						{
							"internalType": "bool",
							"name": "exists",
							"type": "bool"
						}
					],
					"stateMutability": "view",
					"type": "function"
				},
				{
					"inputs": [
						{
							"internalType": "string",
							"name": "productName",
							"type": "string"
						},
						{
							"internalType": "uint256",
							"name": "_quantity",
							"type": "uint256"
						}
					],
					"name": "updateQuantity",
					"outputs": [],
					"stateMutability": "nonpayable",
					"type": "function"
				}
			],
			"devdoc": {
				"kind": "dev",
				"methods": {},
				"version": 1
			},
			"evm": {
				"assembly": "    /* \"Project/TechnoLime.sol\":98:3529  contract TechnoLimeStore {\r... */\n  mstore(0x40, 0x80)\n  dataSize(sub_0)\n  dup1\n  dataOffset(sub_0)\n  0x00\n  codecopy\n  0x00\n  return\nstop\n\nsub_0: assembly {\n        /* \"Project/TechnoLime.sol\":98:3529  contract TechnoLimeStore {\r... */\n      mstore(0x40, 0x80)\n      jumpi(tag_1, lt(calldatasize, 0x04))\n      shr(0xe0, calldataload(0x00))\n      dup1\n      0x74cbc350\n      gt\n      tag_10\n      jumpi\n      dup1\n      0x74cbc350\n      eq\n      tag_6\n      jumpi\n      dup1\n      0x8642269e\n      eq\n      tag_7\n      jumpi\n      dup1\n      0xe4bcc7d4\n      eq\n      tag_8\n      jumpi\n      dup1\n      0xf8cfabb9\n      eq\n      tag_9\n      jumpi\n      jump(tag_1)\n    tag_10:\n      dup1\n      0x0186a423\n      eq\n      tag_2\n      jumpi\n      dup1\n      0x0a5bd44b\n      eq\n      tag_3\n      jumpi\n      dup1\n      0x1d894eb8\n      eq\n      tag_4\n      jumpi\n      dup1\n      0x27e7875a\n      eq\n      tag_5\n      jumpi\n    tag_1:\n      0x00\n      dup1\n      revert\n        /* \"Project/TechnoLime.sol\":578:620  mapping(string => Product) public products */\n    tag_2:\n      callvalue\n      dup1\n      iszero\n      tag_11\n      jumpi\n      0x00\n      dup1\n      revert\n    tag_11:\n      pop\n      tag_12\n      0x04\n      dup1\n      calldatasize\n      sub\n      dup2\n      add\n      swap1\n      tag_13\n      swap2\n      swap1\n      tag_14\n      jump\t// in\n    tag_13:\n      tag_15\n      jump\t// in\n    tag_12:\n      mload(0x40)\n      tag_16\n      swap4\n      swap3\n      swap2\n      swap1\n      tag_17\n      jump\t// in\n    tag_16:\n      mload(0x40)\n      dup1\n      swap2\n      sub\n      swap1\n      return\n        /* \"Project/TechnoLime.sol\":974:1601  function addNewProduct(string calldata productName, uint _price,uint _quantity) external{\r... */\n    tag_3:\n      callvalue\n      dup1\n      iszero\n      tag_18\n      jumpi\n      0x00\n      dup1\n      revert\n    tag_18:\n      pop\n      tag_19\n      0x04\n      dup1\n      calldatasize\n      sub\n      dup2\n      add\n      swap1\n      tag_20\n      swap2\n      swap1\n      tag_21\n      jump\t// in\n    tag_20:\n      tag_22\n      jump\t// in\n    tag_19:\n      stop\n        /* \"Project/TechnoLime.sol\":1609:1978  function updateQuantity(string calldata productName,uint _quantity) external{\r... */\n    tag_4:\n      callvalue\n      dup1\n      iszero\n      tag_23\n      jumpi\n      0x00\n      dup1\n      revert\n    tag_23:\n      pop\n      tag_24\n      0x04\n      dup1\n      calldatasize\n      sub\n      dup2\n      add\n      swap1\n      tag_25\n      swap2\n      swap1\n      tag_26\n      jump\t// in\n    tag_25:\n      tag_27\n      jump\t// in\n    tag_24:\n      stop\n        /* \"Project/TechnoLime.sol\":807:846  mapping(uint =>address[]) public buyers */\n    tag_5:\n      callvalue\n      dup1\n      iszero\n      tag_28\n      jumpi\n      0x00\n      dup1\n      revert\n    tag_28:\n      pop\n      tag_29\n      0x04\n      dup1\n      calldatasize\n      sub\n      dup2\n      add\n      swap1\n      tag_30\n      swap2\n      swap1\n      tag_31\n      jump\t// in\n    tag_30:\n      tag_32\n      jump\t// in\n    tag_29:\n      mload(0x40)\n      tag_33\n      swap2\n      swap1\n      tag_34\n      jump\t// in\n    tag_33:\n      mload(0x40)\n      dup1\n      swap2\n      sub\n      swap1\n      return\n        /* \"Project/TechnoLime.sol\":732:800  mapping(uint => mapping(address => Transaction)) public transactions */\n    tag_6:\n      callvalue\n      dup1\n      iszero\n      tag_35\n      jumpi\n      0x00\n      dup1\n      revert\n    tag_35:\n      pop\n      tag_36\n      0x04\n      dup1\n      calldatasize\n      sub\n      dup2\n      add\n      swap1\n      tag_37\n      swap2\n      swap1\n      tag_38\n      jump\t// in\n    tag_37:\n      tag_39\n      jump\t// in\n    tag_36:\n      mload(0x40)\n      tag_40\n      swap4\n      swap3\n      swap2\n      swap1\n      tag_17\n      jump\t// in\n    tag_40:\n      mload(0x40)\n      dup1\n      swap2\n      sub\n      swap1\n      return\n        /* \"Project/TechnoLime.sol\":2080:3512  function buyProduct (uint ProductId)  external payable { \r... */\n    tag_7:\n      tag_41\n      0x04\n      dup1\n      calldatasize\n      sub\n      dup2\n      add\n      swap1\n      tag_42\n      swap2\n      swap1\n      tag_43\n      jump\t// in\n    tag_42:\n      tag_44\n      jump\t// in\n    tag_41:\n      stop\n        /* \"Project/TechnoLime.sol\":390:423  string[] public availableProducts */\n    tag_8:\n      callvalue\n      dup1\n      iszero\n      tag_45\n      jumpi\n      0x00\n      dup1\n      revert\n    tag_45:\n      pop\n      tag_46\n      0x04\n      dup1\n      calldatasize\n      sub\n      dup2\n      add\n      swap1\n      tag_47\n      swap2\n      swap1\n      tag_43\n      jump\t// in\n    tag_47:\n      tag_48\n      jump\t// in\n    tag_46:\n      mload(0x40)\n      tag_49\n      swap2\n      swap1\n      tag_50\n      jump\t// in\n    tag_49:\n      mload(0x40)\n      dup1\n      swap2\n      sub\n      swap1\n      return\n        /* \"Project/TechnoLime.sol\":430:472  mapping(uint => Product) public productsID */\n    tag_9:\n      callvalue\n      dup1\n      iszero\n      tag_51\n      jumpi\n      0x00\n      dup1\n      revert\n    tag_51:\n      pop\n      tag_52\n      0x04\n      dup1\n      calldatasize\n      sub\n      dup2\n      add\n      swap1\n      tag_53\n      swap2\n      swap1\n      tag_43\n      jump\t// in\n    tag_53:\n      tag_54\n      jump\t// in\n    tag_52:\n      mload(0x40)\n      tag_55\n      swap4\n      swap3\n      swap2\n      swap1\n      tag_17\n      jump\t// in\n    tag_55:\n      mload(0x40)\n      dup1\n      swap2\n      sub\n      swap1\n      return\n        /* \"Project/TechnoLime.sol\":578:620  mapping(string => Product) public products */\n    tag_15:\n      0x02\n      dup2\n      dup1\n      mload\n      0x20\n      dup2\n      add\n      dup3\n      add\n      dup1\n      mload\n      dup5\n      dup3\n      mstore\n      0x20\n      dup4\n      add\n      0x20\n      dup6\n      add\n      keccak256\n      dup2\n      dup4\n      mstore\n      dup1\n      swap6\n      pop\n      pop\n      pop\n      pop\n      pop\n      pop\n      0x00\n      swap2\n      pop\n      swap1\n      pop\n      dup1\n      0x00\n      add\n      sload\n      swap1\n      dup1\n      0x01\n      add\n      sload\n      swap1\n      dup1\n      0x02\n      add\n      0x00\n      swap1\n      sload\n      swap1\n      0x0100\n      exp\n      swap1\n      div\n      0xff\n      and\n      swap1\n      pop\n      dup4\n      jump\t// out\n        /* \"Project/TechnoLime.sol\":974:1601  function addNewProduct(string calldata productName, uint _price,uint _quantity) external{\r... */\n    tag_22:\n        /* \"Project/TechnoLime.sol\":1079:1087  products */\n      0x02\n        /* \"Project/TechnoLime.sol\":1088:1099  productName */\n      dup5\n      dup5\n        /* \"Project/TechnoLime.sol\":1079:1100  products[productName] */\n      mload(0x40)\n      tag_57\n      swap3\n      swap2\n      swap1\n      tag_58\n      jump\t// in\n    tag_57:\n      swap1\n      dup2\n      mstore\n      0x20\n      add\n      mload(0x40)\n      dup1\n      swap2\n      sub\n      swap1\n      keccak256\n        /* \"Project/TechnoLime.sol\":1079:1107  products[productName].exists */\n      0x02\n      add\n      0x00\n      swap1\n      sload\n      swap1\n      0x0100\n      exp\n      swap1\n      div\n      0xff\n      and\n        /* \"Project/TechnoLime.sol\":1074:1584  if (!products[productName].exists){\r... */\n      tag_59\n      jumpi\n        /* \"Project/TechnoLime.sol\":1124:1146  Product memory product */\n      tag_60\n      tag_61\n      jump\t// in\n    tag_60:\n        /* \"Project/TechnoLime.sol\":1178:1184  _price */\n      dup3\n        /* \"Project/TechnoLime.sol\":1162:1169  product */\n      dup2\n        /* \"Project/TechnoLime.sol\":1162:1175  product.price */\n      0x00\n      add\n        /* \"Project/TechnoLime.sol\":1162:1184  product.price = _price */\n      dup2\n      dup2\n      mstore\n      pop\n      pop\n        /* \"Project/TechnoLime.sol\":1219:1228  _quantity */\n      dup2\n        /* \"Project/TechnoLime.sol\":1200:1207  product */\n      dup2\n        /* \"Project/TechnoLime.sol\":1200:1216  product.quantity */\n      0x20\n      add\n        /* \"Project/TechnoLime.sol\":1200:1228  product.quantity = _quantity */\n      dup2\n      dup2\n      mstore\n      pop\n      pop\n        /* \"Project/TechnoLime.sol\":1261:1265  true */\n      0x01\n        /* \"Project/TechnoLime.sol\":1244:1251  product */\n      dup2\n        /* \"Project/TechnoLime.sol\":1244:1258  product.exists */\n      0x40\n      add\n        /* \"Project/TechnoLime.sol\":1244:1265  product.exists = true */\n      swap1\n      iszero\n      iszero\n      swap1\n      dup2\n      iszero\n      iszero\n      dup2\n      mstore\n      pop\n      pop\n        /* \"Project/TechnoLime.sol\":1305:1312  product */\n      dup1\n        /* \"Project/TechnoLime.sol\":1281:1289  products */\n      0x02\n        /* \"Project/TechnoLime.sol\":1290:1301  productName */\n      dup7\n      dup7\n        /* \"Project/TechnoLime.sol\":1281:1302  products[productName] */\n      mload(0x40)\n      tag_62\n      swap3\n      swap2\n      swap1\n      tag_58\n      jump\t// in\n    tag_62:\n      swap1\n      dup2\n      mstore\n      0x20\n      add\n      mload(0x40)\n      dup1\n      swap2\n      sub\n      swap1\n      keccak256\n        /* \"Project/TechnoLime.sol\":1281:1312  products[productName] = product */\n      0x00\n      dup3\n      add\n      mload\n      dup2\n      0x00\n      add\n      sstore\n      0x20\n      dup3\n      add\n      mload\n      dup2\n      0x01\n      add\n      sstore\n      0x40\n      dup3\n      add\n      mload\n      dup2\n      0x02\n      add\n      exp(0x0100, 0x00)\n      dup2\n      sload\n      dup2\n      0xff\n      mul\n      not\n      and\n      swap1\n      dup4\n      iszero\n      iszero\n      mul\n      or\n      swap1\n      sstore\n      pop\n      swap1\n      pop\n      pop\n        /* \"Project/TechnoLime.sol\":1344:1351  product */\n      dup1\n        /* \"Project/TechnoLime.sol\":1328:1338  productsID */\n      0x01\n        /* \"Project/TechnoLime.sol\":1328:1341  productsID[0] */\n      0x00\n        /* \"Project/TechnoLime.sol\":1339:1340  0 */\n      dup1\n        /* \"Project/TechnoLime.sol\":1328:1341  productsID[0] */\n      dup2\n      mstore\n      0x20\n      add\n      swap1\n      dup2\n      mstore\n      0x20\n      add\n      0x00\n      keccak256\n        /* \"Project/TechnoLime.sol\":1328:1351  productsID[0] = product */\n      0x00\n      dup3\n      add\n      mload\n      dup2\n      0x00\n      add\n      sstore\n      0x20\n      dup3\n      add\n      mload\n      dup2\n      0x01\n      add\n      sstore\n      0x40\n      dup3\n      add\n      mload\n      dup2\n      0x02\n      add\n      exp(0x0100, 0x00)\n      dup2\n      sload\n      dup2\n      0xff\n      mul\n      not\n      and\n      swap1\n      dup4\n      iszero\n      iszero\n      mul\n      or\n      swap1\n      sstore\n      pop\n      swap1\n      pop\n      pop\n        /* \"Project/TechnoLime.sol\":1367:1384  availableProducts */\n      0x00\n        /* \"Project/TechnoLime.sol\":1390:1401  productName */\n      dup6\n      dup6\n        /* \"Project/TechnoLime.sol\":1367:1402  availableProducts.push(productName) */\n      swap1\n      swap2\n      dup1\n      0x01\n      dup2\n      sload\n      add\n      dup1\n      dup3\n      sstore\n      dup1\n      swap2\n      pop\n      pop\n      0x01\n      swap1\n      sub\n      swap1\n      0x00\n      mstore\n      keccak256(0x00, 0x20)\n      add\n      0x00\n      swap1\n      swap2\n      swap3\n      swap1\n      swap2\n      swap3\n      swap1\n      swap2\n      swap3\n      swap1\n      swap2\n      swap3\n      pop\n      swap2\n      swap1\n      tag_64\n      swap3\n      swap2\n      swap1\n      tag_65\n      jump\t// in\n    tag_64:\n      pop\n        /* \"Project/TechnoLime.sol\":1108:1415  {\r... */\n      pop\n        /* \"Project/TechnoLime.sol\":1074:1584  if (!products[productName].exists){\r... */\n      jump(tag_66)\n    tag_59:\n        /* \"Project/TechnoLime.sol\":1549:1571  Errors.ProductExists() */\n      mload(0x40)\n      0xb185df3a00000000000000000000000000000000000000000000000000000000\n      dup2\n      mstore\n      0x04\n      add\n      mload(0x40)\n      dup1\n      swap2\n      sub\n      swap1\n      revert\n        /* \"Project/TechnoLime.sol\":1074:1584  if (!products[productName].exists){\r... */\n    tag_66:\n        /* \"Project/TechnoLime.sol\":974:1601  function addNewProduct(string calldata productName, uint _price,uint _quantity) external{\r... */\n      pop\n      pop\n      pop\n      pop\n      jump\t// out\n        /* \"Project/TechnoLime.sol\":1609:1978  function updateQuantity(string calldata productName,uint _quantity) external{\r... */\n    tag_27:\n        /* \"Project/TechnoLime.sol\":1700:1708  products */\n      0x02\n        /* \"Project/TechnoLime.sol\":1709:1720  productName */\n      dup4\n      dup4\n        /* \"Project/TechnoLime.sol\":1700:1721  products[productName] */\n      mload(0x40)\n      tag_68\n      swap3\n      swap2\n      swap1\n      tag_58\n      jump\t// in\n    tag_68:\n      swap1\n      dup2\n      mstore\n      0x20\n      add\n      mload(0x40)\n      dup1\n      swap2\n      sub\n      swap1\n      keccak256\n        /* \"Project/TechnoLime.sol\":1700:1728  products[productName].exists */\n      0x02\n      add\n      0x00\n      swap1\n      sload\n      swap1\n      0x0100\n      exp\n      swap1\n      div\n      0xff\n      and\n        /* \"Project/TechnoLime.sol\":1696:1971  if (products[productName].exists){\r... */\n      iszero\n      tag_69\n      jumpi\n        /* \"Project/TechnoLime.sol\":1778:1787  _quantity */\n      dup1\n        /* \"Project/TechnoLime.sol\":1744:1752  products */\n      0x02\n        /* \"Project/TechnoLime.sol\":1753:1764  productName */\n      dup5\n      dup5\n        /* \"Project/TechnoLime.sol\":1744:1765  products[productName] */\n      mload(0x40)\n      tag_70\n      swap3\n      swap2\n      swap1\n      tag_58\n      jump\t// in\n    tag_70:\n      swap1\n      dup2\n      mstore\n      0x20\n      add\n      mload(0x40)\n      dup1\n      swap2\n      sub\n      swap1\n      keccak256\n        /* \"Project/TechnoLime.sol\":1744:1774  products[productName].quantity */\n      0x01\n      add\n      0x00\n        /* \"Project/TechnoLime.sol\":1744:1787  products[productName].quantity += _quantity */\n      dup3\n      dup3\n      sload\n      tag_71\n      swap2\n      swap1\n      tag_72\n      jump\t// in\n    tag_71:\n      swap3\n      pop\n      pop\n      dup2\n      swap1\n      sstore\n      pop\n        /* \"Project/TechnoLime.sol\":1696:1971  if (products[productName].exists){\r... */\n      jump(tag_73)\n    tag_69:\n        /* \"Project/TechnoLime.sol\":1932:1959  Errors.ProductNotExistent() */\n      mload(0x40)\n      0x7e8d96a900000000000000000000000000000000000000000000000000000000\n      dup2\n      mstore\n      0x04\n      add\n      mload(0x40)\n      dup1\n      swap2\n      sub\n      swap1\n      revert\n        /* \"Project/TechnoLime.sol\":1696:1971  if (products[productName].exists){\r... */\n    tag_73:\n        /* \"Project/TechnoLime.sol\":1609:1978  function updateQuantity(string calldata productName,uint _quantity) external{\r... */\n      pop\n      pop\n      pop\n      jump\t// out\n        /* \"Project/TechnoLime.sol\":807:846  mapping(uint =>address[]) public buyers */\n    tag_32:\n      mstore(0x20, 0x04)\n      dup2\n      0x00\n      mstore\n      keccak256(0x00, 0x40)\n      dup2\n      dup2\n      sload\n      dup2\n      lt\n      tag_74\n      jumpi\n      0x00\n      dup1\n      revert\n    tag_74:\n      swap1\n      0x00\n      mstore\n      keccak256(0x00, 0x20)\n      add\n      0x00\n      swap2\n      pop\n      swap2\n      pop\n      swap1\n      sload\n      swap1\n      0x0100\n      exp\n      swap1\n      div\n      0xffffffffffffffffffffffffffffffffffffffff\n      and\n      dup2\n      jump\t// out\n        /* \"Project/TechnoLime.sol\":732:800  mapping(uint => mapping(address => Transaction)) public transactions */\n    tag_39:\n      mstore(0x20, 0x03)\n      dup2\n      0x00\n      mstore\n      mstore(0x20, keccak256(0x00, 0x40))\n      dup1\n      0x00\n      mstore\n      keccak256(0x00, 0x40)\n      0x00\n      swap2\n      pop\n      swap2\n      pop\n      pop\n      dup1\n      0x00\n      add\n      sload\n      swap1\n      dup1\n      0x01\n      add\n      sload\n      swap1\n      dup1\n      0x02\n      add\n      0x00\n      swap1\n      sload\n      swap1\n      0x0100\n      exp\n      swap1\n      div\n      0xff\n      and\n      swap1\n      pop\n      dup4\n      jump\t// out\n        /* \"Project/TechnoLime.sol\":2080:3512  function buyProduct (uint ProductId)  external payable { \r... */\n    tag_44:\n        /* \"Project/TechnoLime.sol\":2272:2289  availableProducts */\n      0x00\n        /* \"Project/TechnoLime.sol\":2272:2296  availableProducts.length */\n      dup1\n      sload\n      swap1\n      pop\n        /* \"Project/TechnoLime.sol\":2260:2269  ProductId */\n      dup2\n        /* \"Project/TechnoLime.sol\":2260:2296  ProductId < availableProducts.length */\n      lt\n        /* \"Project/TechnoLime.sol\":2260:2343  ProductId < availableProducts.length && !transactions[ProductId][msg.sender].exists */\n      dup1\n      iszero\n      tag_77\n      jumpi\n      pop\n        /* \"Project/TechnoLime.sol\":2301:2313  transactions */\n      0x03\n        /* \"Project/TechnoLime.sol\":2301:2324  transactions[ProductId] */\n      0x00\n        /* \"Project/TechnoLime.sol\":2314:2323  ProductId */\n      dup3\n        /* \"Project/TechnoLime.sol\":2301:2324  transactions[ProductId] */\n      dup2\n      mstore\n      0x20\n      add\n      swap1\n      dup2\n      mstore\n      0x20\n      add\n      0x00\n      keccak256\n        /* \"Project/TechnoLime.sol\":2301:2336  transactions[ProductId][msg.sender] */\n      0x00\n        /* \"Project/TechnoLime.sol\":2325:2335  msg.sender */\n      caller\n        /* \"Project/TechnoLime.sol\":2301:2336  transactions[ProductId][msg.sender] */\n      0xffffffffffffffffffffffffffffffffffffffff\n      and\n      0xffffffffffffffffffffffffffffffffffffffff\n      and\n      dup2\n      mstore\n      0x20\n      add\n      swap1\n      dup2\n      mstore\n      0x20\n      add\n      0x00\n      keccak256\n        /* \"Project/TechnoLime.sol\":2301:2343  transactions[ProductId][msg.sender].exists */\n      0x02\n      add\n      0x00\n      swap1\n      sload\n      swap1\n      0x0100\n      exp\n      swap1\n      div\n      0xff\n      and\n        /* \"Project/TechnoLime.sol\":2300:2343  !transactions[ProductId][msg.sender].exists */\n      iszero\n        /* \"Project/TechnoLime.sol\":2260:2343  ProductId < availableProducts.length && !transactions[ProductId][msg.sender].exists */\n    tag_77:\n        /* \"Project/TechnoLime.sol\":2257:3484  if(ProductId < availableProducts.length && !transactions[ProductId][msg.sender].exists){\r... */\n      iszero\n      tag_78\n      jumpi\n        /* \"Project/TechnoLime.sol\":2505:2527  Product memory product */\n      0x00\n        /* \"Project/TechnoLime.sol\":2529:2537  products */\n      0x02\n        /* \"Project/TechnoLime.sol\":2538:2555  availableProducts */\n      0x00\n        /* \"Project/TechnoLime.sol\":2556:2565  ProductId */\n      dup4\n        /* \"Project/TechnoLime.sol\":2538:2566  availableProducts[ProductId] */\n      dup2\n      sload\n      dup2\n      lt\n      tag_79\n      jumpi\n      tag_80\n      tag_81\n      jump\t// in\n    tag_80:\n    tag_79:\n      swap1\n      0x00\n      mstore\n      keccak256(0x00, 0x20)\n      add\n        /* \"Project/TechnoLime.sol\":2529:2567  products[availableProducts[ProductId]] */\n      mload(0x40)\n      tag_83\n      swap2\n      swap1\n      tag_84\n      jump\t// in\n    tag_83:\n      swap1\n      dup2\n      mstore\n      0x20\n      add\n      mload(0x40)\n      dup1\n      swap2\n      sub\n      swap1\n      keccak256\n        /* \"Project/TechnoLime.sol\":2505:2567  Product memory product= products[availableProducts[ProductId]] */\n      mload(0x40)\n      dup1\n      0x60\n      add\n      0x40\n      mstore\n      swap1\n      dup2\n      0x00\n      dup3\n      add\n      sload\n      dup2\n      mstore\n      0x20\n      add\n      0x01\n      dup3\n      add\n      sload\n      dup2\n      mstore\n      0x20\n      add\n      0x02\n      dup3\n      add\n      0x00\n      swap1\n      sload\n      swap1\n      0x0100\n      exp\n      swap1\n      div\n      0xff\n      and\n      iszero\n      iszero\n      iszero\n      iszero\n      dup2\n      mstore\n      pop\n      pop\n      swap1\n      pop\n        /* \"Project/TechnoLime.sol\":2601:2608  product */\n      dup1\n        /* \"Project/TechnoLime.sol\":2601:2614  product.price */\n      0x00\n      add\n      mload\n        /* \"Project/TechnoLime.sol\":2589:2598  msg.value */\n      callvalue\n        /* \"Project/TechnoLime.sol\":2589:2614  msg.value < product.price */\n      lt\n        /* \"Project/TechnoLime.sol\":2589:2638  msg.value < product.price || product.quantity < 1 */\n      dup1\n      tag_85\n      jumpi\n      pop\n        /* \"Project/TechnoLime.sol\":2637:2638  1 */\n      0x01\n        /* \"Project/TechnoLime.sol\":2618:2625  product */\n      dup2\n        /* \"Project/TechnoLime.sol\":2618:2634  product.quantity */\n      0x20\n      add\n      mload\n        /* \"Project/TechnoLime.sol\":2618:2638  product.quantity < 1 */\n      lt\n        /* \"Project/TechnoLime.sol\":2589:2638  msg.value < product.price || product.quantity < 1 */\n    tag_85:\n        /* \"Project/TechnoLime.sol\":2586:2774  if(msg.value < product.price || product.quantity < 1)\r... */\n      iszero\n      tag_86\n      jumpi\n        /* \"Project/TechnoLime.sol\":2740:2774  Errors.LessThanPriceOrOutOfStock() */\n      mload(0x40)\n      0xf80236cc00000000000000000000000000000000000000000000000000000000\n      dup2\n      mstore\n      0x04\n      add\n      mload(0x40)\n      dup1\n      swap2\n      sub\n      swap1\n      revert\n        /* \"Project/TechnoLime.sol\":2586:2774  if(msg.value < product.price || product.quantity < 1)\r... */\n    tag_86:\n        /* \"Project/TechnoLime.sol\":2795:2828  Transaction memory newTransaction */\n      tag_87\n      tag_88\n      jump\t// in\n    tag_87:\n        /* \"Project/TechnoLime.sol\":2873:2885  block.number */\n      number\n        /* \"Project/TechnoLime.sol\":2847:2861  newTransaction */\n      dup2\n        /* \"Project/TechnoLime.sol\":2847:2870  newTransaction.blockNum */\n      0x00\n      add\n        /* \"Project/TechnoLime.sol\":2847:2885  newTransaction.blockNum = block.number */\n      dup2\n      dup2\n      mstore\n      pop\n      pop\n        /* \"Project/TechnoLime.sol\":2927:2934  product */\n      dup2\n        /* \"Project/TechnoLime.sol\":2927:2940  product.price */\n      0x00\n      add\n      mload\n        /* \"Project/TechnoLime.sol\":2904:2918  newTransaction */\n      dup2\n        /* \"Project/TechnoLime.sol\":2904:2924  newTransaction.price */\n      0x20\n      add\n        /* \"Project/TechnoLime.sol\":2904:2940  newTransaction.price = product.price */\n      dup2\n      dup2\n      mstore\n      pop\n      pop\n        /* \"Project/TechnoLime.sol\":2983:2987  true */\n      0x01\n        /* \"Project/TechnoLime.sol\":2959:2973  newTransaction */\n      dup2\n        /* \"Project/TechnoLime.sol\":2959:2980  newTransaction.exists */\n      0x40\n      add\n        /* \"Project/TechnoLime.sol\":2959:2987  newTransaction.exists = true */\n      swap1\n      iszero\n      iszero\n      swap1\n      dup2\n      iszero\n      iszero\n      dup2\n      mstore\n      pop\n      pop\n        /* \"Project/TechnoLime.sol\":3080:3094  newTransaction */\n      dup1\n        /* \"Project/TechnoLime.sol\":3042:3054  transactions */\n      0x03\n        /* \"Project/TechnoLime.sol\":3042:3065  transactions[ProductId] */\n      0x00\n        /* \"Project/TechnoLime.sol\":3055:3064  ProductId */\n      dup6\n        /* \"Project/TechnoLime.sol\":3042:3065  transactions[ProductId] */\n      dup2\n      mstore\n      0x20\n      add\n      swap1\n      dup2\n      mstore\n      0x20\n      add\n      0x00\n      keccak256\n        /* \"Project/TechnoLime.sol\":3042:3077  transactions[ProductId][msg.sender] */\n      0x00\n        /* \"Project/TechnoLime.sol\":3066:3076  msg.sender */\n      caller\n        /* \"Project/TechnoLime.sol\":3042:3077  transactions[ProductId][msg.sender] */\n      0xffffffffffffffffffffffffffffffffffffffff\n      and\n      0xffffffffffffffffffffffffffffffffffffffff\n      and\n      dup2\n      mstore\n      0x20\n      add\n      swap1\n      dup2\n      mstore\n      0x20\n      add\n      0x00\n      keccak256\n        /* \"Project/TechnoLime.sol\":3042:3094  transactions[ProductId][msg.sender] = newTransaction */\n      0x00\n      dup3\n      add\n      mload\n      dup2\n      0x00\n      add\n      sstore\n      0x20\n      dup3\n      add\n      mload\n      dup2\n      0x01\n      add\n      sstore\n      0x40\n      dup3\n      add\n      mload\n      dup2\n      0x02\n      add\n      exp(0x0100, 0x00)\n      dup2\n      sload\n      dup2\n      0xff\n      mul\n      not\n      and\n      swap1\n      dup4\n      iszero\n      iszero\n      mul\n      or\n      swap1\n      sstore\n      pop\n      swap1\n      pop\n      pop\n        /* \"Project/TechnoLime.sol\":3115:3122  product */\n      dup2\n        /* \"Project/TechnoLime.sol\":3115:3131  product.quantity */\n      0x20\n      add\n        /* \"Project/TechnoLime.sol\":3115:3133  product.quantity-- */\n      dup1\n      mload\n      dup1\n      swap2\n      swap1\n      tag_89\n      swap1\n      tag_90\n      jump\t// in\n    tag_89:\n      dup2\n      mstore\n      pop\n      pop\n        /* \"Project/TechnoLime.sol\":3227:3234  product */\n      dup2\n        /* \"Project/TechnoLime.sol\":3188:3196  products */\n      0x02\n        /* \"Project/TechnoLime.sol\":3197:3214  availableProducts */\n      0x00\n        /* \"Project/TechnoLime.sol\":3215:3224  ProductId */\n      dup6\n        /* \"Project/TechnoLime.sol\":3197:3225  availableProducts[ProductId] */\n      dup2\n      sload\n      dup2\n      lt\n      tag_91\n      jumpi\n      tag_92\n      tag_81\n      jump\t// in\n    tag_92:\n    tag_91:\n      swap1\n      0x00\n      mstore\n      keccak256(0x00, 0x20)\n      add\n        /* \"Project/TechnoLime.sol\":3188:3226  products[availableProducts[ProductId]] */\n      mload(0x40)\n      tag_94\n      swap2\n      swap1\n      tag_84\n      jump\t// in\n    tag_94:\n      swap1\n      dup2\n      mstore\n      0x20\n      add\n      mload(0x40)\n      dup1\n      swap2\n      sub\n      swap1\n      keccak256\n        /* \"Project/TechnoLime.sol\":3188:3234  products[availableProducts[ProductId]]=product */\n      0x00\n      dup3\n      add\n      mload\n      dup2\n      0x00\n      add\n      sstore\n      0x20\n      dup3\n      add\n      mload\n      dup2\n      0x01\n      add\n      sstore\n      0x40\n      dup3\n      add\n      mload\n      dup2\n      0x02\n      add\n      exp(0x0100, 0x00)\n      dup2\n      sload\n      dup2\n      0xff\n      mul\n      not\n      and\n      swap1\n      dup4\n      iszero\n      iszero\n      mul\n      or\n      swap1\n      sstore\n      pop\n      swap1\n      pop\n      pop\n        /* \"Project/TechnoLime.sol\":3283:3289  buyers */\n      0x04\n        /* \"Project/TechnoLime.sol\":3283:3300  buyers[ProductId] */\n      0x00\n        /* \"Project/TechnoLime.sol\":3290:3299  ProductId */\n      dup5\n        /* \"Project/TechnoLime.sol\":3283:3300  buyers[ProductId] */\n      dup2\n      mstore\n      0x20\n      add\n      swap1\n      dup2\n      mstore\n      0x20\n      add\n      0x00\n      keccak256\n        /* \"Project/TechnoLime.sol\":3306:3316  msg.sender */\n      caller\n        /* \"Project/TechnoLime.sol\":3283:3317  buyers[ProductId].push(msg.sender) */\n      swap1\n      dup1\n      0x01\n      dup2\n      sload\n      add\n      dup1\n      dup3\n      sstore\n      dup1\n      swap2\n      pop\n      pop\n      0x01\n      swap1\n      sub\n      swap1\n      0x00\n      mstore\n      keccak256(0x00, 0x20)\n      add\n      0x00\n      swap1\n      swap2\n      swap1\n      swap2\n      swap1\n      swap2\n      0x0100\n      exp\n      dup2\n      sload\n      dup2\n      0xffffffffffffffffffffffffffffffffffffffff\n      mul\n      not\n      and\n      swap1\n      dup4\n      0xffffffffffffffffffffffffffffffffffffffff\n      and\n      mul\n      or\n      swap1\n      sstore\n      pop\n        /* \"Project/TechnoLime.sol\":2344:3335  {\r... */\n      pop\n      pop\n        /* \"Project/TechnoLime.sol\":2257:3484  if(ProductId < availableProducts.length && !transactions[ProductId][msg.sender].exists){\r... */\n      jump(tag_96)\n    tag_78:\n        /* \"Project/TechnoLime.sol\":3433:3468  Errors.ItemIdWrongOrBoughtAlready() */\n      mload(0x40)\n      0xd42c9b8b00000000000000000000000000000000000000000000000000000000\n      dup2\n      mstore\n      0x04\n      add\n      mload(0x40)\n      dup1\n      swap2\n      sub\n      swap1\n      revert\n        /* \"Project/TechnoLime.sol\":2257:3484  if(ProductId < availableProducts.length && !transactions[ProductId][msg.sender].exists){\r... */\n    tag_96:\n        /* \"Project/TechnoLime.sol\":2080:3512  function buyProduct (uint ProductId)  external payable { \r... */\n      pop\n      jump\t// out\n        /* \"Project/TechnoLime.sol\":390:423  string[] public availableProducts */\n    tag_48:\n      0x00\n      dup2\n      dup2\n      sload\n      dup2\n      lt\n      tag_97\n      jumpi\n      0x00\n      dup1\n      revert\n    tag_97:\n      swap1\n      0x00\n      mstore\n      keccak256(0x00, 0x20)\n      add\n      0x00\n      swap2\n      pop\n      swap1\n      pop\n      dup1\n      sload\n      tag_99\n      swap1\n      tag_100\n      jump\t// in\n    tag_99:\n      dup1\n      0x1f\n      add\n      0x20\n      dup1\n      swap2\n      div\n      mul\n      0x20\n      add\n      mload(0x40)\n      swap1\n      dup2\n      add\n      0x40\n      mstore\n      dup1\n      swap3\n      swap2\n      swap1\n      dup2\n      dup2\n      mstore\n      0x20\n      add\n      dup3\n      dup1\n      sload\n      tag_101\n      swap1\n      tag_100\n      jump\t// in\n    tag_101:\n      dup1\n      iszero\n      tag_102\n      jumpi\n      dup1\n      0x1f\n      lt\n      tag_103\n      jumpi\n      0x0100\n      dup1\n      dup4\n      sload\n      div\n      mul\n      dup4\n      mstore\n      swap2\n      0x20\n      add\n      swap2\n      jump(tag_102)\n    tag_103:\n      dup3\n      add\n      swap2\n      swap1\n      0x00\n      mstore\n      keccak256(0x00, 0x20)\n      swap1\n    tag_104:\n      dup2\n      sload\n      dup2\n      mstore\n      swap1\n      0x01\n      add\n      swap1\n      0x20\n      add\n      dup1\n      dup4\n      gt\n      tag_104\n      jumpi\n      dup3\n      swap1\n      sub\n      0x1f\n      and\n      dup3\n      add\n      swap2\n    tag_102:\n      pop\n      pop\n      pop\n      pop\n      pop\n      dup2\n      jump\t// out\n        /* \"Project/TechnoLime.sol\":430:472  mapping(uint => Product) public productsID */\n    tag_54:\n      mstore(0x20, 0x01)\n      dup1\n      0x00\n      mstore\n      keccak256(0x00, 0x40)\n      0x00\n      swap2\n      pop\n      swap1\n      pop\n      dup1\n      0x00\n      add\n      sload\n      swap1\n      dup1\n      0x01\n      add\n      sload\n      swap1\n      dup1\n      0x02\n      add\n      0x00\n      swap1\n      sload\n      swap1\n      0x0100\n      exp\n      swap1\n      div\n      0xff\n      and\n      swap1\n      pop\n      dup4\n      jump\t// out\n    tag_61:\n      mload(0x40)\n      dup1\n      0x60\n      add\n      0x40\n      mstore\n      dup1\n      0x00\n      dup2\n      mstore\n      0x20\n      add\n      0x00\n      dup2\n      mstore\n      0x20\n      add\n      iszero(iszero(0x00))\n      dup2\n      mstore\n      pop\n      swap1\n      jump\t// out\n    tag_65:\n      dup3\n      dup1\n      sload\n      tag_105\n      swap1\n      tag_100\n      jump\t// in\n    tag_105:\n      swap1\n      0x00\n      mstore\n      keccak256(0x00, 0x20)\n      swap1\n      0x1f\n      add\n      0x20\n      swap1\n      div\n      dup2\n      add\n      swap3\n      dup3\n      tag_107\n      jumpi\n      0x00\n      dup6\n      sstore\n      jump(tag_106)\n    tag_107:\n      dup3\n      0x1f\n      lt\n      tag_108\n      jumpi\n      dup1\n      calldataload\n      not(0xff)\n      and\n      dup4\n      dup1\n      add\n      or\n      dup6\n      sstore\n      jump(tag_106)\n    tag_108:\n      dup3\n      dup1\n      add\n      0x01\n      add\n      dup6\n      sstore\n      dup3\n      iszero\n      tag_106\n      jumpi\n      swap2\n      dup3\n      add\n    tag_109:\n      dup3\n      dup2\n      gt\n      iszero\n      tag_110\n      jumpi\n      dup3\n      calldataload\n      dup3\n      sstore\n      swap2\n      0x20\n      add\n      swap2\n      swap1\n      0x01\n      add\n      swap1\n      jump(tag_109)\n    tag_110:\n    tag_106:\n      pop\n      swap1\n      pop\n      tag_111\n      swap2\n      swap1\n      tag_112\n      jump\t// in\n    tag_111:\n      pop\n      swap1\n      jump\t// out\n    tag_88:\n      mload(0x40)\n      dup1\n      0x60\n      add\n      0x40\n      mstore\n      dup1\n      0x00\n      dup2\n      mstore\n      0x20\n      add\n      0x00\n      dup2\n      mstore\n      0x20\n      add\n      iszero(iszero(0x00))\n      dup2\n      mstore\n      pop\n      swap1\n      jump\t// out\n    tag_112:\n    tag_113:\n      dup1\n      dup3\n      gt\n      iszero\n      tag_114\n      jumpi\n      0x00\n      dup2\n      0x00\n      swap1\n      sstore\n      pop\n      0x01\n      add\n      jump(tag_113)\n    tag_114:\n      pop\n      swap1\n      jump\t// out\n        /* \"#utility.yul\":7:419   */\n    tag_116:\n        /* \"#utility.yul\":85:90   */\n      0x00\n        /* \"#utility.yul\":110:176   */\n      tag_118\n        /* \"#utility.yul\":126:175   */\n      tag_119\n        /* \"#utility.yul\":168:174   */\n      dup5\n        /* \"#utility.yul\":126:175   */\n      tag_120\n      jump\t// in\n    tag_119:\n        /* \"#utility.yul\":110:176   */\n      tag_121\n      jump\t// in\n    tag_118:\n        /* \"#utility.yul\":101:176   */\n      swap1\n      pop\n        /* \"#utility.yul\":199:205   */\n      dup3\n        /* \"#utility.yul\":192:197   */\n      dup2\n        /* \"#utility.yul\":185:206   */\n      mstore\n        /* \"#utility.yul\":237:241   */\n      0x20\n        /* \"#utility.yul\":230:235   */\n      dup2\n        /* \"#utility.yul\":226:242   */\n      add\n        /* \"#utility.yul\":275:278   */\n      dup5\n        /* \"#utility.yul\":266:272   */\n      dup5\n        /* \"#utility.yul\":261:264   */\n      dup5\n        /* \"#utility.yul\":257:273   */\n      add\n        /* \"#utility.yul\":254:279   */\n      gt\n        /* \"#utility.yul\":251:363   */\n      iszero\n      tag_122\n      jumpi\n        /* \"#utility.yul\":282:361   */\n      tag_123\n      tag_124\n      jump\t// in\n    tag_123:\n        /* \"#utility.yul\":251:363   */\n    tag_122:\n        /* \"#utility.yul\":372:413   */\n      tag_125\n        /* \"#utility.yul\":406:412   */\n      dup5\n        /* \"#utility.yul\":401:404   */\n      dup3\n        /* \"#utility.yul\":396:399   */\n      dup6\n        /* \"#utility.yul\":372:413   */\n      tag_126\n      jump\t// in\n    tag_125:\n        /* \"#utility.yul\":91:419   */\n      pop\n        /* \"#utility.yul\":7:419   */\n      swap4\n      swap3\n      pop\n      pop\n      pop\n      jump\t// out\n        /* \"#utility.yul\":425:564   */\n    tag_127:\n        /* \"#utility.yul\":471:476   */\n      0x00\n        /* \"#utility.yul\":509:515   */\n      dup2\n        /* \"#utility.yul\":496:516   */\n      calldataload\n        /* \"#utility.yul\":487:516   */\n      swap1\n      pop\n        /* \"#utility.yul\":525:558   */\n      tag_129\n        /* \"#utility.yul\":552:557   */\n      dup2\n        /* \"#utility.yul\":525:558   */\n      tag_130\n      jump\t// in\n    tag_129:\n        /* \"#utility.yul\":425:564   */\n      swap3\n      swap2\n      pop\n      pop\n      jump\t// out\n        /* \"#utility.yul\":584:1137   */\n    tag_131:\n        /* \"#utility.yul\":642:650   */\n      0x00\n        /* \"#utility.yul\":652:658   */\n      dup1\n        /* \"#utility.yul\":702:705   */\n      dup4\n        /* \"#utility.yul\":695:699   */\n      0x1f\n        /* \"#utility.yul\":687:693   */\n      dup5\n        /* \"#utility.yul\":683:700   */\n      add\n        /* \"#utility.yul\":679:706   */\n      slt\n        /* \"#utility.yul\":669:791   */\n      tag_133\n      jumpi\n        /* \"#utility.yul\":710:789   */\n      tag_134\n      tag_135\n      jump\t// in\n    tag_134:\n        /* \"#utility.yul\":669:791   */\n    tag_133:\n        /* \"#utility.yul\":823:829   */\n      dup3\n        /* \"#utility.yul\":810:830   */\n      calldataload\n        /* \"#utility.yul\":800:830   */\n      swap1\n      pop\n        /* \"#utility.yul\":853:871   */\n      0xffffffffffffffff\n        /* \"#utility.yul\":845:851   */\n      dup2\n        /* \"#utility.yul\":842:872   */\n      gt\n        /* \"#utility.yul\":839:956   */\n      iszero\n      tag_136\n      jumpi\n        /* \"#utility.yul\":875:954   */\n      tag_137\n      tag_138\n      jump\t// in\n    tag_137:\n        /* \"#utility.yul\":839:956   */\n    tag_136:\n        /* \"#utility.yul\":989:993   */\n      0x20\n        /* \"#utility.yul\":981:987   */\n      dup4\n        /* \"#utility.yul\":977:994   */\n      add\n        /* \"#utility.yul\":965:994   */\n      swap2\n      pop\n        /* \"#utility.yul\":1043:1046   */\n      dup4\n        /* \"#utility.yul\":1035:1039   */\n      0x01\n        /* \"#utility.yul\":1027:1033   */\n      dup3\n        /* \"#utility.yul\":1023:1040   */\n      mul\n        /* \"#utility.yul\":1013:1021   */\n      dup4\n        /* \"#utility.yul\":1009:1041   */\n      add\n        /* \"#utility.yul\":1006:1047   */\n      gt\n        /* \"#utility.yul\":1003:1131   */\n      iszero\n      tag_139\n      jumpi\n        /* \"#utility.yul\":1050:1129   */\n      tag_140\n      tag_141\n      jump\t// in\n    tag_140:\n        /* \"#utility.yul\":1003:1131   */\n    tag_139:\n        /* \"#utility.yul\":584:1137   */\n      swap3\n      pop\n      swap3\n      swap1\n      pop\n      jump\t// out\n        /* \"#utility.yul\":1157:1497   */\n    tag_142:\n        /* \"#utility.yul\":1213:1218   */\n      0x00\n        /* \"#utility.yul\":1262:1265   */\n      dup3\n        /* \"#utility.yul\":1255:1259   */\n      0x1f\n        /* \"#utility.yul\":1247:1253   */\n      dup4\n        /* \"#utility.yul\":1243:1260   */\n      add\n        /* \"#utility.yul\":1239:1266   */\n      slt\n        /* \"#utility.yul\":1229:1351   */\n      tag_144\n      jumpi\n        /* \"#utility.yul\":1270:1349   */\n      tag_145\n      tag_135\n      jump\t// in\n    tag_145:\n        /* \"#utility.yul\":1229:1351   */\n    tag_144:\n        /* \"#utility.yul\":1387:1393   */\n      dup2\n        /* \"#utility.yul\":1374:1394   */\n      calldataload\n        /* \"#utility.yul\":1412:1491   */\n      tag_146\n        /* \"#utility.yul\":1487:1490   */\n      dup5\n        /* \"#utility.yul\":1479:1485   */\n      dup3\n        /* \"#utility.yul\":1472:1476   */\n      0x20\n        /* \"#utility.yul\":1464:1470   */\n      dup7\n        /* \"#utility.yul\":1460:1477   */\n      add\n        /* \"#utility.yul\":1412:1491   */\n      tag_116\n      jump\t// in\n    tag_146:\n        /* \"#utility.yul\":1403:1491   */\n      swap2\n      pop\n        /* \"#utility.yul\":1219:1497   */\n      pop\n        /* \"#utility.yul\":1157:1497   */\n      swap3\n      swap2\n      pop\n      pop\n      jump\t// out\n        /* \"#utility.yul\":1503:1642   */\n    tag_147:\n        /* \"#utility.yul\":1549:1554   */\n      0x00\n        /* \"#utility.yul\":1587:1593   */\n      dup2\n        /* \"#utility.yul\":1574:1594   */\n      calldataload\n        /* \"#utility.yul\":1565:1594   */\n      swap1\n      pop\n        /* \"#utility.yul\":1603:1636   */\n      tag_149\n        /* \"#utility.yul\":1630:1635   */\n      dup2\n        /* \"#utility.yul\":1603:1636   */\n      tag_150\n      jump\t// in\n    tag_149:\n        /* \"#utility.yul\":1503:1642   */\n      swap3\n      swap2\n      pop\n      pop\n      jump\t// out\n        /* \"#utility.yul\":1648:2322   */\n    tag_26:\n        /* \"#utility.yul\":1728:1734   */\n      0x00\n        /* \"#utility.yul\":1736:1742   */\n      dup1\n        /* \"#utility.yul\":1744:1750   */\n      0x00\n        /* \"#utility.yul\":1793:1795   */\n      0x40\n        /* \"#utility.yul\":1781:1790   */\n      dup5\n        /* \"#utility.yul\":1772:1779   */\n      dup7\n        /* \"#utility.yul\":1768:1791   */\n      sub\n        /* \"#utility.yul\":1764:1796   */\n      slt\n        /* \"#utility.yul\":1761:1880   */\n      iszero\n      tag_152\n      jumpi\n        /* \"#utility.yul\":1799:1878   */\n      tag_153\n      tag_154\n      jump\t// in\n    tag_153:\n        /* \"#utility.yul\":1761:1880   */\n    tag_152:\n        /* \"#utility.yul\":1947:1948   */\n      0x00\n        /* \"#utility.yul\":1936:1945   */\n      dup5\n        /* \"#utility.yul\":1932:1949   */\n      add\n        /* \"#utility.yul\":1919:1950   */\n      calldataload\n        /* \"#utility.yul\":1977:1995   */\n      0xffffffffffffffff\n        /* \"#utility.yul\":1969:1975   */\n      dup2\n        /* \"#utility.yul\":1966:1996   */\n      gt\n        /* \"#utility.yul\":1963:2080   */\n      iszero\n      tag_155\n      jumpi\n        /* \"#utility.yul\":1999:2078   */\n      tag_156\n      tag_157\n      jump\t// in\n    tag_156:\n        /* \"#utility.yul\":1963:2080   */\n    tag_155:\n        /* \"#utility.yul\":2112:2177   */\n      tag_158\n        /* \"#utility.yul\":2169:2176   */\n      dup7\n        /* \"#utility.yul\":2160:2166   */\n      dup3\n        /* \"#utility.yul\":2149:2158   */\n      dup8\n        /* \"#utility.yul\":2145:2167   */\n      add\n        /* \"#utility.yul\":2112:2177   */\n      tag_131\n      jump\t// in\n    tag_158:\n        /* \"#utility.yul\":2094:2177   */\n      swap4\n      pop\n      swap4\n      pop\n        /* \"#utility.yul\":1890:2187   */\n      pop\n        /* \"#utility.yul\":2226:2228   */\n      0x20\n        /* \"#utility.yul\":2252:2305   */\n      tag_159\n        /* \"#utility.yul\":2297:2304   */\n      dup7\n        /* \"#utility.yul\":2288:2294   */\n      dup3\n        /* \"#utility.yul\":2277:2286   */\n      dup8\n        /* \"#utility.yul\":2273:2295   */\n      add\n        /* \"#utility.yul\":2252:2305   */\n      tag_147\n      jump\t// in\n    tag_159:\n        /* \"#utility.yul\":2242:2305   */\n      swap2\n      pop\n        /* \"#utility.yul\":2197:2315   */\n      pop\n        /* \"#utility.yul\":1648:2322   */\n      swap3\n      pop\n      swap3\n      pop\n      swap3\n      jump\t// out\n        /* \"#utility.yul\":2328:3147   */\n    tag_21:\n        /* \"#utility.yul\":2417:2423   */\n      0x00\n        /* \"#utility.yul\":2425:2431   */\n      dup1\n        /* \"#utility.yul\":2433:2439   */\n      0x00\n        /* \"#utility.yul\":2441:2447   */\n      dup1\n        /* \"#utility.yul\":2490:2492   */\n      0x60\n        /* \"#utility.yul\":2478:2487   */\n      dup6\n        /* \"#utility.yul\":2469:2476   */\n      dup8\n        /* \"#utility.yul\":2465:2488   */\n      sub\n        /* \"#utility.yul\":2461:2493   */\n      slt\n        /* \"#utility.yul\":2458:2577   */\n      iszero\n      tag_161\n      jumpi\n        /* \"#utility.yul\":2496:2575   */\n      tag_162\n      tag_154\n      jump\t// in\n    tag_162:\n        /* \"#utility.yul\":2458:2577   */\n    tag_161:\n        /* \"#utility.yul\":2644:2645   */\n      0x00\n        /* \"#utility.yul\":2633:2642   */\n      dup6\n        /* \"#utility.yul\":2629:2646   */\n      add\n        /* \"#utility.yul\":2616:2647   */\n      calldataload\n        /* \"#utility.yul\":2674:2692   */\n      0xffffffffffffffff\n        /* \"#utility.yul\":2666:2672   */\n      dup2\n        /* \"#utility.yul\":2663:2693   */\n      gt\n        /* \"#utility.yul\":2660:2777   */\n      iszero\n      tag_163\n      jumpi\n        /* \"#utility.yul\":2696:2775   */\n      tag_164\n      tag_157\n      jump\t// in\n    tag_164:\n        /* \"#utility.yul\":2660:2777   */\n    tag_163:\n        /* \"#utility.yul\":2809:2874   */\n      tag_165\n        /* \"#utility.yul\":2866:2873   */\n      dup8\n        /* \"#utility.yul\":2857:2863   */\n      dup3\n        /* \"#utility.yul\":2846:2855   */\n      dup9\n        /* \"#utility.yul\":2842:2864   */\n      add\n        /* \"#utility.yul\":2809:2874   */\n      tag_131\n      jump\t// in\n    tag_165:\n        /* \"#utility.yul\":2791:2874   */\n      swap5\n      pop\n      swap5\n      pop\n        /* \"#utility.yul\":2587:2884   */\n      pop\n        /* \"#utility.yul\":2923:2925   */\n      0x20\n        /* \"#utility.yul\":2949:3002   */\n      tag_166\n        /* \"#utility.yul\":2994:3001   */\n      dup8\n        /* \"#utility.yul\":2985:2991   */\n      dup3\n        /* \"#utility.yul\":2974:2983   */\n      dup9\n        /* \"#utility.yul\":2970:2992   */\n      add\n        /* \"#utility.yul\":2949:3002   */\n      tag_147\n      jump\t// in\n    tag_166:\n        /* \"#utility.yul\":2939:3002   */\n      swap3\n      pop\n        /* \"#utility.yul\":2894:3012   */\n      pop\n        /* \"#utility.yul\":3051:3053   */\n      0x40\n        /* \"#utility.yul\":3077:3130   */\n      tag_167\n        /* \"#utility.yul\":3122:3129   */\n      dup8\n        /* \"#utility.yul\":3113:3119   */\n      dup3\n        /* \"#utility.yul\":3102:3111   */\n      dup9\n        /* \"#utility.yul\":3098:3120   */\n      add\n        /* \"#utility.yul\":3077:3130   */\n      tag_147\n      jump\t// in\n    tag_167:\n        /* \"#utility.yul\":3067:3130   */\n      swap2\n      pop\n        /* \"#utility.yul\":3022:3140   */\n      pop\n        /* \"#utility.yul\":2328:3147   */\n      swap3\n      swap6\n      swap2\n      swap5\n      pop\n      swap3\n      pop\n      jump\t// out\n        /* \"#utility.yul\":3153:3662   */\n    tag_14:\n        /* \"#utility.yul\":3222:3228   */\n      0x00\n        /* \"#utility.yul\":3271:3273   */\n      0x20\n        /* \"#utility.yul\":3259:3268   */\n      dup3\n        /* \"#utility.yul\":3250:3257   */\n      dup5\n        /* \"#utility.yul\":3246:3269   */\n      sub\n        /* \"#utility.yul\":3242:3274   */\n      slt\n        /* \"#utility.yul\":3239:3358   */\n      iszero\n      tag_169\n      jumpi\n        /* \"#utility.yul\":3277:3356   */\n      tag_170\n      tag_154\n      jump\t// in\n    tag_170:\n        /* \"#utility.yul\":3239:3358   */\n    tag_169:\n        /* \"#utility.yul\":3425:3426   */\n      0x00\n        /* \"#utility.yul\":3414:3423   */\n      dup3\n        /* \"#utility.yul\":3410:3427   */\n      add\n        /* \"#utility.yul\":3397:3428   */\n      calldataload\n        /* \"#utility.yul\":3455:3473   */\n      0xffffffffffffffff\n        /* \"#utility.yul\":3447:3453   */\n      dup2\n        /* \"#utility.yul\":3444:3474   */\n      gt\n        /* \"#utility.yul\":3441:3558   */\n      iszero\n      tag_171\n      jumpi\n        /* \"#utility.yul\":3477:3556   */\n      tag_172\n      tag_157\n      jump\t// in\n    tag_172:\n        /* \"#utility.yul\":3441:3558   */\n    tag_171:\n        /* \"#utility.yul\":3582:3645   */\n      tag_173\n        /* \"#utility.yul\":3637:3644   */\n      dup5\n        /* \"#utility.yul\":3628:3634   */\n      dup3\n        /* \"#utility.yul\":3617:3626   */\n      dup6\n        /* \"#utility.yul\":3613:3635   */\n      add\n        /* \"#utility.yul\":3582:3645   */\n      tag_142\n      jump\t// in\n    tag_173:\n        /* \"#utility.yul\":3572:3645   */\n      swap2\n      pop\n        /* \"#utility.yul\":3368:3655   */\n      pop\n        /* \"#utility.yul\":3153:3662   */\n      swap3\n      swap2\n      pop\n      pop\n      jump\t// out\n        /* \"#utility.yul\":3668:3997   */\n    tag_43:\n        /* \"#utility.yul\":3727:3733   */\n      0x00\n        /* \"#utility.yul\":3776:3778   */\n      0x20\n        /* \"#utility.yul\":3764:3773   */\n      dup3\n        /* \"#utility.yul\":3755:3762   */\n      dup5\n        /* \"#utility.yul\":3751:3774   */\n      sub\n        /* \"#utility.yul\":3747:3779   */\n      slt\n        /* \"#utility.yul\":3744:3863   */\n      iszero\n      tag_175\n      jumpi\n        /* \"#utility.yul\":3782:3861   */\n      tag_176\n      tag_154\n      jump\t// in\n    tag_176:\n        /* \"#utility.yul\":3744:3863   */\n    tag_175:\n        /* \"#utility.yul\":3902:3903   */\n      0x00\n        /* \"#utility.yul\":3927:3980   */\n      tag_177\n        /* \"#utility.yul\":3972:3979   */\n      dup5\n        /* \"#utility.yul\":3963:3969   */\n      dup3\n        /* \"#utility.yul\":3952:3961   */\n      dup6\n        /* \"#utility.yul\":3948:3970   */\n      add\n        /* \"#utility.yul\":3927:3980   */\n      tag_147\n      jump\t// in\n    tag_177:\n        /* \"#utility.yul\":3917:3980   */\n      swap2\n      pop\n        /* \"#utility.yul\":3873:3990   */\n      pop\n        /* \"#utility.yul\":3668:3997   */\n      swap3\n      swap2\n      pop\n      pop\n      jump\t// out\n        /* \"#utility.yul\":4003:4477   */\n    tag_38:\n        /* \"#utility.yul\":4071:4077   */\n      0x00\n        /* \"#utility.yul\":4079:4085   */\n      dup1\n        /* \"#utility.yul\":4128:4130   */\n      0x40\n        /* \"#utility.yul\":4116:4125   */\n      dup4\n        /* \"#utility.yul\":4107:4114   */\n      dup6\n        /* \"#utility.yul\":4103:4126   */\n      sub\n        /* \"#utility.yul\":4099:4131   */\n      slt\n        /* \"#utility.yul\":4096:4215   */\n      iszero\n      tag_179\n      jumpi\n        /* \"#utility.yul\":4134:4213   */\n      tag_180\n      tag_154\n      jump\t// in\n    tag_180:\n        /* \"#utility.yul\":4096:4215   */\n    tag_179:\n        /* \"#utility.yul\":4254:4255   */\n      0x00\n        /* \"#utility.yul\":4279:4332   */\n      tag_181\n        /* \"#utility.yul\":4324:4331   */\n      dup6\n        /* \"#utility.yul\":4315:4321   */\n      dup3\n        /* \"#utility.yul\":4304:4313   */\n      dup7\n        /* \"#utility.yul\":4300:4322   */\n      add\n        /* \"#utility.yul\":4279:4332   */\n      tag_147\n      jump\t// in\n    tag_181:\n        /* \"#utility.yul\":4269:4332   */\n      swap3\n      pop\n        /* \"#utility.yul\":4225:4342   */\n      pop\n        /* \"#utility.yul\":4381:4383   */\n      0x20\n        /* \"#utility.yul\":4407:4460   */\n      tag_182\n        /* \"#utility.yul\":4452:4459   */\n      dup6\n        /* \"#utility.yul\":4443:4449   */\n      dup3\n        /* \"#utility.yul\":4432:4441   */\n      dup7\n        /* \"#utility.yul\":4428:4450   */\n      add\n        /* \"#utility.yul\":4407:4460   */\n      tag_127\n      jump\t// in\n    tag_182:\n        /* \"#utility.yul\":4397:4460   */\n      swap2\n      pop\n        /* \"#utility.yul\":4352:4470   */\n      pop\n        /* \"#utility.yul\":4003:4477   */\n      swap3\n      pop\n      swap3\n      swap1\n      pop\n      jump\t// out\n        /* \"#utility.yul\":4483:4957   */\n    tag_31:\n        /* \"#utility.yul\":4551:4557   */\n      0x00\n        /* \"#utility.yul\":4559:4565   */\n      dup1\n        /* \"#utility.yul\":4608:4610   */\n      0x40\n        /* \"#utility.yul\":4596:4605   */\n      dup4\n        /* \"#utility.yul\":4587:4594   */\n      dup6\n        /* \"#utility.yul\":4583:4606   */\n      sub\n        /* \"#utility.yul\":4579:4611   */\n      slt\n        /* \"#utility.yul\":4576:4695   */\n      iszero\n      tag_184\n      jumpi\n        /* \"#utility.yul\":4614:4693   */\n      tag_185\n      tag_154\n      jump\t// in\n    tag_185:\n        /* \"#utility.yul\":4576:4695   */\n    tag_184:\n        /* \"#utility.yul\":4734:4735   */\n      0x00\n        /* \"#utility.yul\":4759:4812   */\n      tag_186\n        /* \"#utility.yul\":4804:4811   */\n      dup6\n        /* \"#utility.yul\":4795:4801   */\n      dup3\n        /* \"#utility.yul\":4784:4793   */\n      dup7\n        /* \"#utility.yul\":4780:4802   */\n      add\n        /* \"#utility.yul\":4759:4812   */\n      tag_147\n      jump\t// in\n    tag_186:\n        /* \"#utility.yul\":4749:4812   */\n      swap3\n      pop\n        /* \"#utility.yul\":4705:4822   */\n      pop\n        /* \"#utility.yul\":4861:4863   */\n      0x20\n        /* \"#utility.yul\":4887:4940   */\n      tag_187\n        /* \"#utility.yul\":4932:4939   */\n      dup6\n        /* \"#utility.yul\":4923:4929   */\n      dup3\n        /* \"#utility.yul\":4912:4921   */\n      dup7\n        /* \"#utility.yul\":4908:4930   */\n      add\n        /* \"#utility.yul\":4887:4940   */\n      tag_147\n      jump\t// in\n    tag_187:\n        /* \"#utility.yul\":4877:4940   */\n      swap2\n      pop\n        /* \"#utility.yul\":4832:4950   */\n      pop\n        /* \"#utility.yul\":4483:4957   */\n      swap3\n      pop\n      swap3\n      swap1\n      pop\n      jump\t// out\n        /* \"#utility.yul\":4963:5081   */\n    tag_188:\n        /* \"#utility.yul\":5050:5074   */\n      tag_190\n        /* \"#utility.yul\":5068:5073   */\n      dup2\n        /* \"#utility.yul\":5050:5074   */\n      tag_191\n      jump\t// in\n    tag_190:\n        /* \"#utility.yul\":5045:5048   */\n      dup3\n        /* \"#utility.yul\":5038:5075   */\n      mstore\n        /* \"#utility.yul\":4963:5081   */\n      pop\n      pop\n      jump\t// out\n        /* \"#utility.yul\":5087:5196   */\n    tag_192:\n        /* \"#utility.yul\":5168:5189   */\n      tag_194\n        /* \"#utility.yul\":5183:5188   */\n      dup2\n        /* \"#utility.yul\":5168:5189   */\n      tag_195\n      jump\t// in\n    tag_194:\n        /* \"#utility.yul\":5163:5166   */\n      dup3\n        /* \"#utility.yul\":5156:5190   */\n      mstore\n        /* \"#utility.yul\":5087:5196   */\n      pop\n      pop\n      jump\t// out\n        /* \"#utility.yul\":5226:5543   */\n    tag_196:\n        /* \"#utility.yul\":5342:5345   */\n      0x00\n        /* \"#utility.yul\":5363:5452   */\n      tag_198\n        /* \"#utility.yul\":5445:5451   */\n      dup4\n        /* \"#utility.yul\":5440:5443   */\n      dup6\n        /* \"#utility.yul\":5363:5452   */\n      tag_199\n      jump\t// in\n    tag_198:\n        /* \"#utility.yul\":5356:5452   */\n      swap4\n      pop\n        /* \"#utility.yul\":5462:5505   */\n      tag_200\n        /* \"#utility.yul\":5498:5504   */\n      dup4\n        /* \"#utility.yul\":5493:5496   */\n      dup6\n        /* \"#utility.yul\":5486:5491   */\n      dup5\n        /* \"#utility.yul\":5462:5505   */\n      tag_126\n      jump\t// in\n    tag_200:\n        /* \"#utility.yul\":5530:5536   */\n      dup3\n        /* \"#utility.yul\":5525:5528   */\n      dup5\n        /* \"#utility.yul\":5521:5537   */\n      add\n        /* \"#utility.yul\":5514:5537   */\n      swap1\n      pop\n        /* \"#utility.yul\":5226:5543   */\n      swap4\n      swap3\n      pop\n      pop\n      pop\n      jump\t// out\n        /* \"#utility.yul\":5549:5913   */\n    tag_201:\n        /* \"#utility.yul\":5637:5640   */\n      0x00\n        /* \"#utility.yul\":5665:5704   */\n      tag_203\n        /* \"#utility.yul\":5698:5703   */\n      dup3\n        /* \"#utility.yul\":5665:5704   */\n      tag_204\n      jump\t// in\n    tag_203:\n        /* \"#utility.yul\":5720:5791   */\n      tag_205\n        /* \"#utility.yul\":5784:5790   */\n      dup2\n        /* \"#utility.yul\":5779:5782   */\n      dup6\n        /* \"#utility.yul\":5720:5791   */\n      tag_206\n      jump\t// in\n    tag_205:\n        /* \"#utility.yul\":5713:5791   */\n      swap4\n      pop\n        /* \"#utility.yul\":5800:5852   */\n      tag_207\n        /* \"#utility.yul\":5845:5851   */\n      dup2\n        /* \"#utility.yul\":5840:5843   */\n      dup6\n        /* \"#utility.yul\":5833:5837   */\n      0x20\n        /* \"#utility.yul\":5826:5831   */\n      dup7\n        /* \"#utility.yul\":5822:5838   */\n      add\n        /* \"#utility.yul\":5800:5852   */\n      tag_208\n      jump\t// in\n    tag_207:\n        /* \"#utility.yul\":5877:5906   */\n      tag_209\n        /* \"#utility.yul\":5899:5905   */\n      dup2\n        /* \"#utility.yul\":5877:5906   */\n      tag_210\n      jump\t// in\n    tag_209:\n        /* \"#utility.yul\":5872:5875   */\n      dup5\n        /* \"#utility.yul\":5868:5907   */\n      add\n        /* \"#utility.yul\":5861:5907   */\n      swap2\n      pop\n        /* \"#utility.yul\":5641:5913   */\n      pop\n        /* \"#utility.yul\":5549:5913   */\n      swap3\n      swap2\n      pop\n      pop\n      jump\t// out\n        /* \"#utility.yul\":5943:6788   */\n    tag_211:\n        /* \"#utility.yul\":6046:6049   */\n      0x00\n        /* \"#utility.yul\":6083:6088   */\n      dup2\n        /* \"#utility.yul\":6077:6089   */\n      sload\n        /* \"#utility.yul\":6112:6148   */\n      tag_213\n        /* \"#utility.yul\":6138:6147   */\n      dup2\n        /* \"#utility.yul\":6112:6148   */\n      tag_100\n      jump\t// in\n    tag_213:\n        /* \"#utility.yul\":6164:6253   */\n      tag_214\n        /* \"#utility.yul\":6246:6252   */\n      dup2\n        /* \"#utility.yul\":6241:6244   */\n      dup7\n        /* \"#utility.yul\":6164:6253   */\n      tag_199\n      jump\t// in\n    tag_214:\n        /* \"#utility.yul\":6157:6253   */\n      swap5\n      pop\n        /* \"#utility.yul\":6284:6285   */\n      0x01\n        /* \"#utility.yul\":6273:6282   */\n      dup3\n        /* \"#utility.yul\":6269:6286   */\n      and\n        /* \"#utility.yul\":6300:6301   */\n      0x00\n        /* \"#utility.yul\":6295:6432   */\n      dup2\n      eq\n      tag_216\n      jumpi\n        /* \"#utility.yul\":6446:6447   */\n      0x01\n        /* \"#utility.yul\":6441:6782   */\n      dup2\n      eq\n      tag_217\n      jumpi\n        /* \"#utility.yul\":6262:6782   */\n      jump(tag_215)\n        /* \"#utility.yul\":6295:6432   */\n    tag_216:\n        /* \"#utility.yul\":6379:6383   */\n      0xff\n        /* \"#utility.yul\":6375:6384   */\n      not\n        /* \"#utility.yul\":6364:6373   */\n      dup4\n        /* \"#utility.yul\":6360:6385   */\n      and\n        /* \"#utility.yul\":6355:6358   */\n      dup7\n        /* \"#utility.yul\":6348:6386   */\n      mstore\n        /* \"#utility.yul\":6415:6421   */\n      dup2\n        /* \"#utility.yul\":6410:6413   */\n      dup7\n        /* \"#utility.yul\":6406:6422   */\n      add\n        /* \"#utility.yul\":6399:6422   */\n      swap4\n      pop\n        /* \"#utility.yul\":6295:6432   */\n      jump(tag_215)\n        /* \"#utility.yul\":6441:6782   */\n    tag_217:\n        /* \"#utility.yul\":6508:6546   */\n      tag_218\n        /* \"#utility.yul\":6540:6545   */\n      dup6\n        /* \"#utility.yul\":6508:6546   */\n      tag_219\n      jump\t// in\n    tag_218:\n        /* \"#utility.yul\":6568:6569   */\n      0x00\n        /* \"#utility.yul\":6582:6736   */\n    tag_220:\n        /* \"#utility.yul\":6596:6602   */\n      dup4\n        /* \"#utility.yul\":6593:6594   */\n      dup2\n        /* \"#utility.yul\":6590:6603   */\n      lt\n        /* \"#utility.yul\":6582:6736   */\n      iszero\n      tag_222\n      jumpi\n        /* \"#utility.yul\":6670:6677   */\n      dup2\n        /* \"#utility.yul\":6664:6678   */\n      sload\n        /* \"#utility.yul\":6660:6661   */\n      dup2\n        /* \"#utility.yul\":6655:6658   */\n      dup10\n        /* \"#utility.yul\":6651:6662   */\n      add\n        /* \"#utility.yul\":6644:6679   */\n      mstore\n        /* \"#utility.yul\":6720:6721   */\n      0x01\n        /* \"#utility.yul\":6711:6718   */\n      dup3\n        /* \"#utility.yul\":6707:6722   */\n      add\n        /* \"#utility.yul\":6696:6722   */\n      swap2\n      pop\n        /* \"#utility.yul\":6618:6622   */\n      0x20\n        /* \"#utility.yul\":6615:6616   */\n      dup2\n        /* \"#utility.yul\":6611:6623   */\n      add\n        /* \"#utility.yul\":6606:6623   */\n      swap1\n      pop\n        /* \"#utility.yul\":6582:6736   */\n      jump(tag_220)\n    tag_222:\n        /* \"#utility.yul\":6765:6771   */\n      dup4\n        /* \"#utility.yul\":6760:6763   */\n      dup9\n        /* \"#utility.yul\":6756:6772   */\n      add\n        /* \"#utility.yul\":6749:6772   */\n      swap6\n      pop\n        /* \"#utility.yul\":6448:6782   */\n      pop\n      pop\n        /* \"#utility.yul\":6262:6782   */\n    tag_215:\n      pop\n        /* \"#utility.yul\":6050:6788   */\n      pop\n      pop\n        /* \"#utility.yul\":5943:6788   */\n      swap3\n      swap2\n      pop\n      pop\n      jump\t// out\n        /* \"#utility.yul\":6794:6912   */\n    tag_223:\n        /* \"#utility.yul\":6881:6905   */\n      tag_225\n        /* \"#utility.yul\":6899:6904   */\n      dup2\n        /* \"#utility.yul\":6881:6905   */\n      tag_226\n      jump\t// in\n    tag_225:\n        /* \"#utility.yul\":6876:6879   */\n      dup3\n        /* \"#utility.yul\":6869:6906   */\n      mstore\n        /* \"#utility.yul\":6794:6912   */\n      pop\n      pop\n      jump\t// out\n        /* \"#utility.yul\":6918:7213   */\n    tag_58:\n        /* \"#utility.yul\":7060:7063   */\n      0x00\n        /* \"#utility.yul\":7082:7187   */\n      tag_228\n        /* \"#utility.yul\":7183:7186   */\n      dup3\n        /* \"#utility.yul\":7174:7180   */\n      dup5\n        /* \"#utility.yul\":7166:7172   */\n      dup7\n        /* \"#utility.yul\":7082:7187   */\n      tag_196\n      jump\t// in\n    tag_228:\n        /* \"#utility.yul\":7075:7187   */\n      swap2\n      pop\n        /* \"#utility.yul\":7204:7207   */\n      dup2\n        /* \"#utility.yul\":7197:7207   */\n      swap1\n      pop\n        /* \"#utility.yul\":6918:7213   */\n      swap4\n      swap3\n      pop\n      pop\n      pop\n      jump\t// out\n        /* \"#utility.yul\":7219:7488   */\n    tag_84:\n        /* \"#utility.yul\":7348:7351   */\n      0x00\n        /* \"#utility.yul\":7370:7462   */\n      tag_230\n        /* \"#utility.yul\":7458:7461   */\n      dup3\n        /* \"#utility.yul\":7449:7455   */\n      dup5\n        /* \"#utility.yul\":7370:7462   */\n      tag_211\n      jump\t// in\n    tag_230:\n        /* \"#utility.yul\":7363:7462   */\n      swap2\n      pop\n        /* \"#utility.yul\":7479:7482   */\n      dup2\n        /* \"#utility.yul\":7472:7482   */\n      swap1\n      pop\n        /* \"#utility.yul\":7219:7488   */\n      swap3\n      swap2\n      pop\n      pop\n      jump\t// out\n        /* \"#utility.yul\":7494:7716   */\n    tag_34:\n        /* \"#utility.yul\":7587:7591   */\n      0x00\n        /* \"#utility.yul\":7625:7627   */\n      0x20\n        /* \"#utility.yul\":7614:7623   */\n      dup3\n        /* \"#utility.yul\":7610:7628   */\n      add\n        /* \"#utility.yul\":7602:7628   */\n      swap1\n      pop\n        /* \"#utility.yul\":7638:7709   */\n      tag_232\n        /* \"#utility.yul\":7706:7707   */\n      0x00\n        /* \"#utility.yul\":7695:7704   */\n      dup4\n        /* \"#utility.yul\":7691:7708   */\n      add\n        /* \"#utility.yul\":7682:7688   */\n      dup5\n        /* \"#utility.yul\":7638:7709   */\n      tag_188\n      jump\t// in\n    tag_232:\n        /* \"#utility.yul\":7494:7716   */\n      swap3\n      swap2\n      pop\n      pop\n      jump\t// out\n        /* \"#utility.yul\":7722:8035   */\n    tag_50:\n        /* \"#utility.yul\":7835:7839   */\n      0x00\n        /* \"#utility.yul\":7873:7875   */\n      0x20\n        /* \"#utility.yul\":7862:7871   */\n      dup3\n        /* \"#utility.yul\":7858:7876   */\n      add\n        /* \"#utility.yul\":7850:7876   */\n      swap1\n      pop\n        /* \"#utility.yul\":7922:7931   */\n      dup2\n        /* \"#utility.yul\":7916:7920   */\n      dup2\n        /* \"#utility.yul\":7912:7932   */\n      sub\n        /* \"#utility.yul\":7908:7909   */\n      0x00\n        /* \"#utility.yul\":7897:7906   */\n      dup4\n        /* \"#utility.yul\":7893:7910   */\n      add\n        /* \"#utility.yul\":7886:7933   */\n      mstore\n        /* \"#utility.yul\":7950:8028   */\n      tag_234\n        /* \"#utility.yul\":8023:8027   */\n      dup2\n        /* \"#utility.yul\":8014:8020   */\n      dup5\n        /* \"#utility.yul\":7950:8028   */\n      tag_201\n      jump\t// in\n    tag_234:\n        /* \"#utility.yul\":7942:8028   */\n      swap1\n      pop\n        /* \"#utility.yul\":7722:8035   */\n      swap3\n      swap2\n      pop\n      pop\n      jump\t// out\n        /* \"#utility.yul\":8041:8471   */\n    tag_17:\n        /* \"#utility.yul\":8184:8188   */\n      0x00\n        /* \"#utility.yul\":8222:8224   */\n      0x60\n        /* \"#utility.yul\":8211:8220   */\n      dup3\n        /* \"#utility.yul\":8207:8225   */\n      add\n        /* \"#utility.yul\":8199:8225   */\n      swap1\n      pop\n        /* \"#utility.yul\":8235:8306   */\n      tag_236\n        /* \"#utility.yul\":8303:8304   */\n      0x00\n        /* \"#utility.yul\":8292:8301   */\n      dup4\n        /* \"#utility.yul\":8288:8305   */\n      add\n        /* \"#utility.yul\":8279:8285   */\n      dup7\n        /* \"#utility.yul\":8235:8306   */\n      tag_223\n      jump\t// in\n    tag_236:\n        /* \"#utility.yul\":8316:8388   */\n      tag_237\n        /* \"#utility.yul\":8384:8386   */\n      0x20\n        /* \"#utility.yul\":8373:8382   */\n      dup4\n        /* \"#utility.yul\":8369:8387   */\n      add\n        /* \"#utility.yul\":8360:8366   */\n      dup6\n        /* \"#utility.yul\":8316:8388   */\n      tag_223\n      jump\t// in\n    tag_237:\n        /* \"#utility.yul\":8398:8464   */\n      tag_238\n        /* \"#utility.yul\":8460:8462   */\n      0x40\n        /* \"#utility.yul\":8449:8458   */\n      dup4\n        /* \"#utility.yul\":8445:8463   */\n      add\n        /* \"#utility.yul\":8436:8442   */\n      dup5\n        /* \"#utility.yul\":8398:8464   */\n      tag_192\n      jump\t// in\n    tag_238:\n        /* \"#utility.yul\":8041:8471   */\n      swap5\n      swap4\n      pop\n      pop\n      pop\n      pop\n      jump\t// out\n        /* \"#utility.yul\":8477:8606   */\n    tag_121:\n        /* \"#utility.yul\":8511:8517   */\n      0x00\n        /* \"#utility.yul\":8538:8558   */\n      tag_240\n      tag_241\n      jump\t// in\n    tag_240:\n        /* \"#utility.yul\":8528:8558   */\n      swap1\n      pop\n        /* \"#utility.yul\":8567:8600   */\n      tag_242\n        /* \"#utility.yul\":8595:8599   */\n      dup3\n        /* \"#utility.yul\":8587:8593   */\n      dup3\n        /* \"#utility.yul\":8567:8600   */\n      tag_243\n      jump\t// in\n    tag_242:\n        /* \"#utility.yul\":8477:8606   */\n      swap2\n      swap1\n      pop\n      jump\t// out\n        /* \"#utility.yul\":8612:8687   */\n    tag_241:\n        /* \"#utility.yul\":8645:8651   */\n      0x00\n        /* \"#utility.yul\":8678:8680   */\n      0x40\n        /* \"#utility.yul\":8672:8681   */\n      mload\n        /* \"#utility.yul\":8662:8681   */\n      swap1\n      pop\n        /* \"#utility.yul\":8612:8687   */\n      swap1\n      jump\t// out\n        /* \"#utility.yul\":8693:9001   */\n    tag_120:\n        /* \"#utility.yul\":8755:8759   */\n      0x00\n        /* \"#utility.yul\":8845:8863   */\n      0xffffffffffffffff\n        /* \"#utility.yul\":8837:8843   */\n      dup3\n        /* \"#utility.yul\":8834:8864   */\n      gt\n        /* \"#utility.yul\":8831:8887   */\n      iszero\n      tag_246\n      jumpi\n        /* \"#utility.yul\":8867:8885   */\n      tag_247\n      tag_248\n      jump\t// in\n    tag_247:\n        /* \"#utility.yul\":8831:8887   */\n    tag_246:\n        /* \"#utility.yul\":8905:8934   */\n      tag_249\n        /* \"#utility.yul\":8927:8933   */\n      dup3\n        /* \"#utility.yul\":8905:8934   */\n      tag_210\n      jump\t// in\n    tag_249:\n        /* \"#utility.yul\":8897:8934   */\n      swap1\n      pop\n        /* \"#utility.yul\":8989:8993   */\n      0x20\n        /* \"#utility.yul\":8983:8987   */\n      dup2\n        /* \"#utility.yul\":8979:8994   */\n      add\n        /* \"#utility.yul\":8971:8994   */\n      swap1\n      pop\n        /* \"#utility.yul\":8693:9001   */\n      swap2\n      swap1\n      pop\n      jump\t// out\n        /* \"#utility.yul\":9007:9148   */\n    tag_219:\n        /* \"#utility.yul\":9056:9060   */\n      0x00\n        /* \"#utility.yul\":9079:9082   */\n      dup2\n        /* \"#utility.yul\":9071:9082   */\n      swap1\n      pop\n        /* \"#utility.yul\":9102:9105   */\n      dup2\n        /* \"#utility.yul\":9099:9100   */\n      0x00\n        /* \"#utility.yul\":9092:9106   */\n      mstore\n        /* \"#utility.yul\":9136:9140   */\n      0x20\n        /* \"#utility.yul\":9133:9134   */\n      0x00\n        /* \"#utility.yul\":9123:9141   */\n      keccak256\n        /* \"#utility.yul\":9115:9141   */\n      swap1\n      pop\n        /* \"#utility.yul\":9007:9148   */\n      swap2\n      swap1\n      pop\n      jump\t// out\n        /* \"#utility.yul\":9154:9253   */\n    tag_204:\n        /* \"#utility.yul\":9206:9212   */\n      0x00\n        /* \"#utility.yul\":9240:9245   */\n      dup2\n        /* \"#utility.yul\":9234:9246   */\n      mload\n        /* \"#utility.yul\":9224:9246   */\n      swap1\n      pop\n        /* \"#utility.yul\":9154:9253   */\n      swap2\n      swap1\n      pop\n      jump\t// out\n        /* \"#utility.yul\":9259:9428   */\n    tag_206:\n        /* \"#utility.yul\":9343:9354   */\n      0x00\n        /* \"#utility.yul\":9377:9383   */\n      dup3\n        /* \"#utility.yul\":9372:9375   */\n      dup3\n        /* \"#utility.yul\":9365:9384   */\n      mstore\n        /* \"#utility.yul\":9417:9421   */\n      0x20\n        /* \"#utility.yul\":9412:9415   */\n      dup3\n        /* \"#utility.yul\":9408:9422   */\n      add\n        /* \"#utility.yul\":9393:9422   */\n      swap1\n      pop\n        /* \"#utility.yul\":9259:9428   */\n      swap3\n      swap2\n      pop\n      pop\n      jump\t// out\n        /* \"#utility.yul\":9434:9582   */\n    tag_199:\n        /* \"#utility.yul\":9536:9547   */\n      0x00\n        /* \"#utility.yul\":9573:9576   */\n      dup2\n        /* \"#utility.yul\":9558:9576   */\n      swap1\n      pop\n        /* \"#utility.yul\":9434:9582   */\n      swap3\n      swap2\n      pop\n      pop\n      jump\t// out\n        /* \"#utility.yul\":9588:9893   */\n    tag_72:\n        /* \"#utility.yul\":9628:9631   */\n      0x00\n        /* \"#utility.yul\":9647:9667   */\n      tag_255\n        /* \"#utility.yul\":9665:9666   */\n      dup3\n        /* \"#utility.yul\":9647:9667   */\n      tag_226\n      jump\t// in\n    tag_255:\n        /* \"#utility.yul\":9642:9667   */\n      swap2\n      pop\n        /* \"#utility.yul\":9681:9701   */\n      tag_256\n        /* \"#utility.yul\":9699:9700   */\n      dup4\n        /* \"#utility.yul\":9681:9701   */\n      tag_226\n      jump\t// in\n    tag_256:\n        /* \"#utility.yul\":9676:9701   */\n      swap3\n      pop\n        /* \"#utility.yul\":9835:9836   */\n      dup3\n        /* \"#utility.yul\":9767:9833   */\n      0xffffffffffffffffffffffffffffffffffffffffffffffffffffffffffffffff\n        /* \"#utility.yul\":9763:9837   */\n      sub\n        /* \"#utility.yul\":9760:9761   */\n      dup3\n        /* \"#utility.yul\":9757:9838   */\n      gt\n        /* \"#utility.yul\":9754:9861   */\n      iszero\n      tag_257\n      jumpi\n        /* \"#utility.yul\":9841:9859   */\n      tag_258\n      tag_259\n      jump\t// in\n    tag_258:\n        /* \"#utility.yul\":9754:9861   */\n    tag_257:\n        /* \"#utility.yul\":9885:9886   */\n      dup3\n        /* \"#utility.yul\":9882:9883   */\n      dup3\n        /* \"#utility.yul\":9878:9887   */\n      add\n        /* \"#utility.yul\":9871:9887   */\n      swap1\n      pop\n        /* \"#utility.yul\":9588:9893   */\n      swap3\n      swap2\n      pop\n      pop\n      jump\t// out\n        /* \"#utility.yul\":9899:9995   */\n    tag_191:\n        /* \"#utility.yul\":9936:9943   */\n      0x00\n        /* \"#utility.yul\":9965:9989   */\n      tag_261\n        /* \"#utility.yul\":9983:9988   */\n      dup3\n        /* \"#utility.yul\":9965:9989   */\n      tag_262\n      jump\t// in\n    tag_261:\n        /* \"#utility.yul\":9954:9989   */\n      swap1\n      pop\n        /* \"#utility.yul\":9899:9995   */\n      swap2\n      swap1\n      pop\n      jump\t// out\n        /* \"#utility.yul\":10001:10091   */\n    tag_195:\n        /* \"#utility.yul\":10035:10042   */\n      0x00\n        /* \"#utility.yul\":10078:10083   */\n      dup2\n        /* \"#utility.yul\":10071:10084   */\n      iszero\n        /* \"#utility.yul\":10064:10085   */\n      iszero\n        /* \"#utility.yul\":10053:10085   */\n      swap1\n      pop\n        /* \"#utility.yul\":10001:10091   */\n      swap2\n      swap1\n      pop\n      jump\t// out\n        /* \"#utility.yul\":10097:10223   */\n    tag_262:\n        /* \"#utility.yul\":10134:10141   */\n      0x00\n        /* \"#utility.yul\":10174:10216   */\n      0xffffffffffffffffffffffffffffffffffffffff\n        /* \"#utility.yul\":10167:10172   */\n      dup3\n        /* \"#utility.yul\":10163:10217   */\n      and\n        /* \"#utility.yul\":10152:10217   */\n      swap1\n      pop\n        /* \"#utility.yul\":10097:10223   */\n      swap2\n      swap1\n      pop\n      jump\t// out\n        /* \"#utility.yul\":10229:10306   */\n    tag_226:\n        /* \"#utility.yul\":10266:10273   */\n      0x00\n        /* \"#utility.yul\":10295:10300   */\n      dup2\n        /* \"#utility.yul\":10284:10300   */\n      swap1\n      pop\n        /* \"#utility.yul\":10229:10306   */\n      swap2\n      swap1\n      pop\n      jump\t// out\n        /* \"#utility.yul\":10312:10466   */\n    tag_126:\n        /* \"#utility.yul\":10396:10402   */\n      dup3\n        /* \"#utility.yul\":10391:10394   */\n      dup2\n        /* \"#utility.yul\":10386:10389   */\n      dup4\n        /* \"#utility.yul\":10373:10403   */\n      calldatacopy\n        /* \"#utility.yul\":10458:10459   */\n      0x00\n        /* \"#utility.yul\":10449:10455   */\n      dup4\n        /* \"#utility.yul\":10444:10447   */\n      dup4\n        /* \"#utility.yul\":10440:10456   */\n      add\n        /* \"#utility.yul\":10433:10460   */\n      mstore\n        /* \"#utility.yul\":10312:10466   */\n      pop\n      pop\n      pop\n      jump\t// out\n        /* \"#utility.yul\":10472:10779   */\n    tag_208:\n        /* \"#utility.yul\":10540:10541   */\n      0x00\n        /* \"#utility.yul\":10550:10663   */\n    tag_268:\n        /* \"#utility.yul\":10564:10570   */\n      dup4\n        /* \"#utility.yul\":10561:10562   */\n      dup2\n        /* \"#utility.yul\":10558:10571   */\n      lt\n        /* \"#utility.yul\":10550:10663   */\n      iszero\n      tag_270\n      jumpi\n        /* \"#utility.yul\":10649:10650   */\n      dup1\n        /* \"#utility.yul\":10644:10647   */\n      dup3\n        /* \"#utility.yul\":10640:10651   */\n      add\n        /* \"#utility.yul\":10634:10652   */\n      mload\n        /* \"#utility.yul\":10630:10631   */\n      dup2\n        /* \"#utility.yul\":10625:10628   */\n      dup5\n        /* \"#utility.yul\":10621:10632   */\n      add\n        /* \"#utility.yul\":10614:10653   */\n      mstore\n        /* \"#utility.yul\":10586:10588   */\n      0x20\n        /* \"#utility.yul\":10583:10584   */\n      dup2\n        /* \"#utility.yul\":10579:10589   */\n      add\n        /* \"#utility.yul\":10574:10589   */\n      swap1\n      pop\n        /* \"#utility.yul\":10550:10663   */\n      jump(tag_268)\n    tag_270:\n        /* \"#utility.yul\":10681:10687   */\n      dup4\n        /* \"#utility.yul\":10678:10679   */\n      dup2\n        /* \"#utility.yul\":10675:10688   */\n      gt\n        /* \"#utility.yul\":10672:10773   */\n      iszero\n      tag_271\n      jumpi\n        /* \"#utility.yul\":10761:10762   */\n      0x00\n        /* \"#utility.yul\":10752:10758   */\n      dup5\n        /* \"#utility.yul\":10747:10750   */\n      dup5\n        /* \"#utility.yul\":10743:10759   */\n      add\n        /* \"#utility.yul\":10736:10763   */\n      mstore\n        /* \"#utility.yul\":10672:10773   */\n    tag_271:\n        /* \"#utility.yul\":10521:10779   */\n      pop\n        /* \"#utility.yul\":10472:10779   */\n      pop\n      pop\n      pop\n      jump\t// out\n        /* \"#utility.yul\":10785:10956   */\n    tag_90:\n        /* \"#utility.yul\":10824:10827   */\n      0x00\n        /* \"#utility.yul\":10847:10871   */\n      tag_273\n        /* \"#utility.yul\":10865:10870   */\n      dup3\n        /* \"#utility.yul\":10847:10871   */\n      tag_226\n      jump\t// in\n    tag_273:\n        /* \"#utility.yul\":10838:10871   */\n      swap2\n      pop\n        /* \"#utility.yul\":10893:10897   */\n      0x00\n        /* \"#utility.yul\":10886:10891   */\n      dup3\n        /* \"#utility.yul\":10883:10898   */\n      eq\n        /* \"#utility.yul\":10880:10921   */\n      iszero\n      tag_274\n      jumpi\n        /* \"#utility.yul\":10901:10919   */\n      tag_275\n      tag_259\n      jump\t// in\n    tag_275:\n        /* \"#utility.yul\":10880:10921   */\n    tag_274:\n        /* \"#utility.yul\":10948:10949   */\n      0x01\n        /* \"#utility.yul\":10941:10946   */\n      dup3\n        /* \"#utility.yul\":10937:10950   */\n      sub\n        /* \"#utility.yul\":10930:10950   */\n      swap1\n      pop\n        /* \"#utility.yul\":10785:10956   */\n      swap2\n      swap1\n      pop\n      jump\t// out\n        /* \"#utility.yul\":10962:11282   */\n    tag_100:\n        /* \"#utility.yul\":11006:11012   */\n      0x00\n        /* \"#utility.yul\":11043:11044   */\n      0x02\n        /* \"#utility.yul\":11037:11041   */\n      dup3\n        /* \"#utility.yul\":11033:11045   */\n      div\n        /* \"#utility.yul\":11023:11045   */\n      swap1\n      pop\n        /* \"#utility.yul\":11090:11091   */\n      0x01\n        /* \"#utility.yul\":11084:11088   */\n      dup3\n        /* \"#utility.yul\":11080:11092   */\n      and\n        /* \"#utility.yul\":11111:11129   */\n      dup1\n        /* \"#utility.yul\":11101:11182   */\n      tag_277\n      jumpi\n        /* \"#utility.yul\":11167:11171   */\n      0x7f\n        /* \"#utility.yul\":11159:11165   */\n      dup3\n        /* \"#utility.yul\":11155:11172   */\n      and\n        /* \"#utility.yul\":11145:11172   */\n      swap2\n      pop\n        /* \"#utility.yul\":11101:11182   */\n    tag_277:\n        /* \"#utility.yul\":11229:11231   */\n      0x20\n        /* \"#utility.yul\":11221:11227   */\n      dup3\n        /* \"#utility.yul\":11218:11232   */\n      lt\n        /* \"#utility.yul\":11198:11216   */\n      dup2\n        /* \"#utility.yul\":11195:11233   */\n      eq\n        /* \"#utility.yul\":11192:11276   */\n      iszero\n      tag_278\n      jumpi\n        /* \"#utility.yul\":11248:11266   */\n      tag_279\n      tag_280\n      jump\t// in\n    tag_279:\n        /* \"#utility.yul\":11192:11276   */\n    tag_278:\n        /* \"#utility.yul\":11013:11282   */\n      pop\n        /* \"#utility.yul\":10962:11282   */\n      swap2\n      swap1\n      pop\n      jump\t// out\n        /* \"#utility.yul\":11288:11569   */\n    tag_243:\n        /* \"#utility.yul\":11371:11398   */\n      tag_282\n        /* \"#utility.yul\":11393:11397   */\n      dup3\n        /* \"#utility.yul\":11371:11398   */\n      tag_210\n      jump\t// in\n    tag_282:\n        /* \"#utility.yul\":11363:11369   */\n      dup2\n        /* \"#utility.yul\":11359:11399   */\n      add\n        /* \"#utility.yul\":11501:11507   */\n      dup2\n        /* \"#utility.yul\":11489:11499   */\n      dup2\n        /* \"#utility.yul\":11486:11508   */\n      lt\n        /* \"#utility.yul\":11465:11483   */\n      0xffffffffffffffff\n        /* \"#utility.yul\":11453:11463   */\n      dup3\n        /* \"#utility.yul\":11450:11484   */\n      gt\n        /* \"#utility.yul\":11447:11509   */\n      or\n        /* \"#utility.yul\":11444:11532   */\n      iszero\n      tag_283\n      jumpi\n        /* \"#utility.yul\":11512:11530   */\n      tag_284\n      tag_248\n      jump\t// in\n    tag_284:\n        /* \"#utility.yul\":11444:11532   */\n    tag_283:\n        /* \"#utility.yul\":11552:11562   */\n      dup1\n        /* \"#utility.yul\":11548:11550   */\n      0x40\n        /* \"#utility.yul\":11541:11563   */\n      mstore\n        /* \"#utility.yul\":11331:11569   */\n      pop\n        /* \"#utility.yul\":11288:11569   */\n      pop\n      pop\n      jump\t// out\n        /* \"#utility.yul\":11575:11755   */\n    tag_259:\n        /* \"#utility.yul\":11623:11700   */\n      0x4e487b7100000000000000000000000000000000000000000000000000000000\n        /* \"#utility.yul\":11620:11621   */\n      0x00\n        /* \"#utility.yul\":11613:11701   */\n      mstore\n        /* \"#utility.yul\":11720:11724   */\n      0x11\n        /* \"#utility.yul\":11717:11718   */\n      0x04\n        /* \"#utility.yul\":11710:11725   */\n      mstore\n        /* \"#utility.yul\":11744:11748   */\n      0x24\n        /* \"#utility.yul\":11741:11742   */\n      0x00\n        /* \"#utility.yul\":11734:11749   */\n      revert\n        /* \"#utility.yul\":11761:11941   */\n    tag_280:\n        /* \"#utility.yul\":11809:11886   */\n      0x4e487b7100000000000000000000000000000000000000000000000000000000\n        /* \"#utility.yul\":11806:11807   */\n      0x00\n        /* \"#utility.yul\":11799:11887   */\n      mstore\n        /* \"#utility.yul\":11906:11910   */\n      0x22\n        /* \"#utility.yul\":11903:11904   */\n      0x04\n        /* \"#utility.yul\":11896:11911   */\n      mstore\n        /* \"#utility.yul\":11930:11934   */\n      0x24\n        /* \"#utility.yul\":11927:11928   */\n      0x00\n        /* \"#utility.yul\":11920:11935   */\n      revert\n        /* \"#utility.yul\":11947:12127   */\n    tag_81:\n        /* \"#utility.yul\":11995:12072   */\n      0x4e487b7100000000000000000000000000000000000000000000000000000000\n        /* \"#utility.yul\":11992:11993   */\n      0x00\n        /* \"#utility.yul\":11985:12073   */\n      mstore\n        /* \"#utility.yul\":12092:12096   */\n      0x32\n        /* \"#utility.yul\":12089:12090   */\n      0x04\n        /* \"#utility.yul\":12082:12097   */\n      mstore\n        /* \"#utility.yul\":12116:12120   */\n      0x24\n        /* \"#utility.yul\":12113:12114   */\n      0x00\n        /* \"#utility.yul\":12106:12121   */\n      revert\n        /* \"#utility.yul\":12133:12313   */\n    tag_248:\n        /* \"#utility.yul\":12181:12258   */\n      0x4e487b7100000000000000000000000000000000000000000000000000000000\n        /* \"#utility.yul\":12178:12179   */\n      0x00\n        /* \"#utility.yul\":12171:12259   */\n      mstore\n        /* \"#utility.yul\":12278:12282   */\n      0x41\n        /* \"#utility.yul\":12275:12276   */\n      0x04\n        /* \"#utility.yul\":12268:12283   */\n      mstore\n        /* \"#utility.yul\":12302:12306   */\n      0x24\n        /* \"#utility.yul\":12299:12300   */\n      0x00\n        /* \"#utility.yul\":12292:12307   */\n      revert\n        /* \"#utility.yul\":12319:12436   */\n    tag_138:\n        /* \"#utility.yul\":12428:12429   */\n      0x00\n        /* \"#utility.yul\":12425:12426   */\n      dup1\n        /* \"#utility.yul\":12418:12430   */\n      revert\n        /* \"#utility.yul\":12442:12559   */\n    tag_135:\n        /* \"#utility.yul\":12551:12552   */\n      0x00\n        /* \"#utility.yul\":12548:12549   */\n      dup1\n        /* \"#utility.yul\":12541:12553   */\n      revert\n        /* \"#utility.yul\":12565:12682   */\n    tag_141:\n        /* \"#utility.yul\":12674:12675   */\n      0x00\n        /* \"#utility.yul\":12671:12672   */\n      dup1\n        /* \"#utility.yul\":12664:12676   */\n      revert\n        /* \"#utility.yul\":12688:12805   */\n    tag_124:\n        /* \"#utility.yul\":12797:12798   */\n      0x00\n        /* \"#utility.yul\":12794:12795   */\n      dup1\n        /* \"#utility.yul\":12787:12799   */\n      revert\n        /* \"#utility.yul\":12811:12928   */\n    tag_157:\n        /* \"#utility.yul\":12920:12921   */\n      0x00\n        /* \"#utility.yul\":12917:12918   */\n      dup1\n        /* \"#utility.yul\":12910:12922   */\n      revert\n        /* \"#utility.yul\":12934:13051   */\n    tag_154:\n        /* \"#utility.yul\":13043:13044   */\n      0x00\n        /* \"#utility.yul\":13040:13041   */\n      dup1\n        /* \"#utility.yul\":13033:13045   */\n      revert\n        /* \"#utility.yul\":13057:13159   */\n    tag_210:\n        /* \"#utility.yul\":13098:13104   */\n      0x00\n        /* \"#utility.yul\":13149:13151   */\n      0x1f\n        /* \"#utility.yul\":13145:13152   */\n      not\n        /* \"#utility.yul\":13140:13142   */\n      0x1f\n        /* \"#utility.yul\":13133:13138   */\n      dup4\n        /* \"#utility.yul\":13129:13143   */\n      add\n        /* \"#utility.yul\":13125:13153   */\n      and\n        /* \"#utility.yul\":13115:13153   */\n      swap1\n      pop\n        /* \"#utility.yul\":13057:13159   */\n      swap2\n      swap1\n      pop\n      jump\t// out\n        /* \"#utility.yul\":13165:13287   */\n    tag_130:\n        /* \"#utility.yul\":13238:13262   */\n      tag_297\n        /* \"#utility.yul\":13256:13261   */\n      dup2\n        /* \"#utility.yul\":13238:13262   */\n      tag_191\n      jump\t// in\n    tag_297:\n        /* \"#utility.yul\":13231:13236   */\n      dup2\n        /* \"#utility.yul\":13228:13263   */\n      eq\n        /* \"#utility.yul\":13218:13281   */\n      tag_298\n      jumpi\n        /* \"#utility.yul\":13277:13278   */\n      0x00\n        /* \"#utility.yul\":13274:13275   */\n      dup1\n        /* \"#utility.yul\":13267:13279   */\n      revert\n        /* \"#utility.yul\":13218:13281   */\n    tag_298:\n        /* \"#utility.yul\":13165:13287   */\n      pop\n      jump\t// out\n        /* \"#utility.yul\":13293:13415   */\n    tag_150:\n        /* \"#utility.yul\":13366:13390   */\n      tag_300\n        /* \"#utility.yul\":13384:13389   */\n      dup2\n        /* \"#utility.yul\":13366:13390   */\n      tag_226\n      jump\t// in\n    tag_300:\n        /* \"#utility.yul\":13359:13364   */\n      dup2\n        /* \"#utility.yul\":13356:13391   */\n      eq\n        /* \"#utility.yul\":13346:13409   */\n      tag_301\n      jumpi\n        /* \"#utility.yul\":13405:13406   */\n      0x00\n        /* \"#utility.yul\":13402:13403   */\n      dup1\n        /* \"#utility.yul\":13395:13407   */\n      revert\n        /* \"#utility.yul\":13346:13409   */\n    tag_301:\n        /* \"#utility.yul\":13293:13415   */\n      pop\n      jump\t// out\n\n    auxdata: 0xa26469706673582212203744294bcb28b232b32b53c9238e6f48b6bbb1f600d95bc8b7e464245aacdee864736f6c63430008070033\n}\n",
				"bytecode": {
					"linkReferences": {},
					"object": "60806040526111e2806100136000396000f3fe60806040526004361061007b5760003560e01c806374cbc3501161004e57806374cbc3501461014e5780638642269e1461018d578063e4bcc7d4146101a9578063f8cfabb9146101e65761007b565b80630186a423146100805780630a5bd44b146100bf5780631d894eb8146100e857806327e7875a14610111575b600080fd5b34801561008c57600080fd5b506100a760048036038101906100a29190610bf0565b610225565b6040516100b693929190610e5d565b60405180910390f35b3480156100cb57600080fd5b506100e660048036038101906100e19190610b7c565b610272565b005b3480156100f457600080fd5b5061010f600480360381019061010a9190610b1c565b6103f3565b005b34801561011d57600080fd5b5061013860048036038101906101339190610ca6565b61049f565b6040516101459190610e20565b60405180910390f35b34801561015a57600080fd5b5061017560048036038101906101709190610c66565b6104ed565b60405161018493929190610e5d565b60405180910390f35b6101a760048036038101906101a29190610c39565b610531565b005b3480156101b557600080fd5b506101d060048036038101906101cb9190610c39565b610860565b6040516101dd9190610e3b565b60405180910390f35b3480156101f257600080fd5b5061020d60048036038101906102089190610c39565b61090c565b60405161021c93929190610e5d565b60405180910390f35b6002818051602081018201805184825260208301602085012081835280955050505050506000915090508060000154908060010154908060020160009054906101000a900460ff16905083565b60028484604051610284929190610df0565b908152602001604051809103902060020160009054906101000a900460ff166103bb576102af610943565b8281600001818152505081816020018181525050600181604001901515908115158152505080600286866040516102e7929190610df0565b9081526020016040518091039020600082015181600001556020820151816001015560408201518160020160006101000a81548160ff0219169083151502179055509050508060016000808152602001908152602001600020600082015181600001556020820151816001015560408201518160020160006101000a81548160ff02191690831515021790555090505060008585909180600181540180825580915050600190039060005260206000200160009091929091929091929091925091906103b4929190610966565b50506103ed565b6040517fb185df3a00000000000000000000000000000000000000000000000000000000815260040160405180910390fd5b50505050565b60028383604051610405929190610df0565b908152602001604051809103902060020160009054906101000a900460ff161561046857806002848460405161043c929190610df0565b9081526020016040518091039020600101600082825461045c9190610f26565b9250508190555061049a565b6040517f7e8d96a900000000000000000000000000000000000000000000000000000000815260040160405180910390fd5b505050565b600460205281600052604060002081815481106104bb57600080fd5b906000526020600020016000915091509054906101000a900473ffffffffffffffffffffffffffffffffffffffff1681565b6003602052816000526040600020602052806000526040600020600091509150508060000154908060010154908060020160009054906101000a900460ff16905083565b600080549050811080156105a357506003600082815260200190815260200160002060003373ffffffffffffffffffffffffffffffffffffffff1673ffffffffffffffffffffffffffffffffffffffff16815260200190815260200160002060020160009054906101000a900460ff16155b1561082b5760006002600083815481106105c0576105bf6110f1565b5b906000526020600020016040516105d79190610e09565b908152602001604051809103902060405180606001604052908160008201548152602001600182015481526020016002820160009054906101000a900460ff16151515158152505090508060000151341080610637575060018160200151105b1561066e576040517ff80236cc00000000000000000000000000000000000000000000000000000000815260040160405180910390fd5b6106766109ec565b4381600001818152505081600001518160200181815250506001816040019015159081151581525050806003600085815260200190815260200160002060003373ffffffffffffffffffffffffffffffffffffffff1673ffffffffffffffffffffffffffffffffffffffff168152602001908152602001600020600082015181600001556020820151816001015560408201518160020160006101000a81548160ff02191690831515021790555090505081602001805180919061073990611006565b8152505081600260008581548110610754576107536110f1565b5b9060005260206000200160405161076b9190610e09565b9081526020016040518091039020600082015181600001556020820151816001015560408201518160020160006101000a81548160ff02191690831515021790555090505060046000848152602001908152602001600020339080600181540180825580915050600190039060005260206000200160009091909190916101000a81548173ffffffffffffffffffffffffffffffffffffffff021916908373ffffffffffffffffffffffffffffffffffffffff160217905550505061085d565b6040517fd42c9b8b00000000000000000000000000000000000000000000000000000000815260040160405180910390fd5b50565b6000818154811061087057600080fd5b90600052602060002001600091509050805461088b90611030565b80601f01602080910402602001604051908101604052809291908181526020018280546108b790611030565b80156109045780601f106108d957610100808354040283529160200191610904565b820191906000526020600020905b8154815290600101906020018083116108e757829003601f168201915b505050505081565b60016020528060005260406000206000915090508060000154908060010154908060020160009054906101000a900460ff16905083565b604051806060016040528060008152602001600081526020016000151581525090565b82805461097290611030565b90600052602060002090601f01602090048101928261099457600085556109db565b82601f106109ad57803560ff19168380011785556109db565b828001600101855582156109db579182015b828111156109da5782358255916020019190600101906109bf565b5b5090506109e89190610a0f565b5090565b604051806060016040528060008152602001600081526020016000151581525090565b5b80821115610a28576000816000905550600101610a10565b5090565b6000610a3f610a3a84610eb9565b610e94565b905082815260208101848484011115610a5b57610a5a61115e565b5b610a66848285610fc4565b509392505050565b600081359050610a7d8161117e565b92915050565b60008083601f840112610a9957610a98611154565b5b8235905067ffffffffffffffff811115610ab657610ab561114f565b5b602083019150836001820283011115610ad257610ad1611159565b5b9250929050565b600082601f830112610aee57610aed611154565b5b8135610afe848260208601610a2c565b91505092915050565b600081359050610b1681611195565b92915050565b600080600060408486031215610b3557610b34611168565b5b600084013567ffffffffffffffff811115610b5357610b52611163565b5b610b5f86828701610a83565b93509350506020610b7286828701610b07565b9150509250925092565b60008060008060608587031215610b9657610b95611168565b5b600085013567ffffffffffffffff811115610bb457610bb3611163565b5b610bc087828801610a83565b94509450506020610bd387828801610b07565b9250506040610be487828801610b07565b91505092959194509250565b600060208284031215610c0657610c05611168565b5b600082013567ffffffffffffffff811115610c2457610c23611163565b5b610c3084828501610ad9565b91505092915050565b600060208284031215610c4f57610c4e611168565b5b6000610c5d84828501610b07565b91505092915050565b60008060408385031215610c7d57610c7c611168565b5b6000610c8b85828601610b07565b9250506020610c9c85828601610a6e565b9150509250929050565b60008060408385031215610cbd57610cbc611168565b5b6000610ccb85828601610b07565b9250506020610cdc85828601610b07565b9150509250929050565b610cef81610f7c565b82525050565b610cfe81610f8e565b82525050565b6000610d108385610f1b565b9350610d1d838584610fc4565b82840190509392505050565b6000610d3482610eff565b610d3e8185610f0a565b9350610d4e818560208601610fd3565b610d578161116d565b840191505092915050565b60008154610d6f81611030565b610d798186610f1b565b94506001821660008114610d945760018114610da557610dd8565b60ff19831686528186019350610dd8565b610dae85610eea565b60005b83811015610dd057815481890152600182019150602081019050610db1565b838801955050505b50505092915050565b610dea81610fba565b82525050565b6000610dfd828486610d04565b91508190509392505050565b6000610e158284610d62565b915081905092915050565b6000602082019050610e356000830184610ce6565b92915050565b60006020820190508181036000830152610e558184610d29565b905092915050565b6000606082019050610e726000830186610de1565b610e7f6020830185610de1565b610e8c6040830184610cf5565b949350505050565b6000610e9e610eaf565b9050610eaa8282611062565b919050565b6000604051905090565b600067ffffffffffffffff821115610ed457610ed3611120565b5b610edd8261116d565b9050602081019050919050565b60008190508160005260206000209050919050565b600081519050919050565b600082825260208201905092915050565b600081905092915050565b6000610f3182610fba565b9150610f3c83610fba565b9250827fffffffffffffffffffffffffffffffffffffffffffffffffffffffffffffffff03821115610f7157610f70611093565b5b828201905092915050565b6000610f8782610f9a565b9050919050565b60008115159050919050565b600073ffffffffffffffffffffffffffffffffffffffff82169050919050565b6000819050919050565b82818337600083830152505050565b60005b83811015610ff1578082015181840152602081019050610fd6565b83811115611000576000848401525b50505050565b600061101182610fba565b9150600082141561102557611024611093565b5b600182039050919050565b6000600282049050600182168061104857607f821691505b6020821081141561105c5761105b6110c2565b5b50919050565b61106b8261116d565b810181811067ffffffffffffffff8211171561108a57611089611120565b5b80604052505050565b7f4e487b7100000000000000000000000000000000000000000000000000000000600052601160045260246000fd5b7f4e487b7100000000000000000000000000000000000000000000000000000000600052602260045260246000fd5b7f4e487b7100000000000000000000000000000000000000000000000000000000600052603260045260246000fd5b7f4e487b7100000000000000000000000000000000000000000000000000000000600052604160045260246000fd5b600080fd5b600080fd5b600080fd5b600080fd5b600080fd5b600080fd5b6000601f19601f8301169050919050565b61118781610f7c565b811461119257600080fd5b50565b61119e81610fba565b81146111a957600080fd5b5056fea26469706673582212203744294bcb28b232b32b53c9238e6f48b6bbb1f600d95bc8b7e464245aacdee864736f6c63430008070033",
					"opcodes": "PUSH1 0x80 PUSH1 0x40 MSTORE PUSH2 0x11E2 DUP1 PUSH2 0x13 PUSH1 0x0 CODECOPY PUSH1 0x0 RETURN INVALID PUSH1 0x80 PUSH1 0x40 MSTORE PUSH1 0x4 CALLDATASIZE LT PUSH2 0x7B JUMPI PUSH1 0x0 CALLDATALOAD PUSH1 0xE0 SHR DUP1 PUSH4 0x74CBC350 GT PUSH2 0x4E JUMPI DUP1 PUSH4 0x74CBC350 EQ PUSH2 0x14E JUMPI DUP1 PUSH4 0x8642269E EQ PUSH2 0x18D JUMPI DUP1 PUSH4 0xE4BCC7D4 EQ PUSH2 0x1A9 JUMPI DUP1 PUSH4 0xF8CFABB9 EQ PUSH2 0x1E6 JUMPI PUSH2 0x7B JUMP JUMPDEST DUP1 PUSH4 0x186A423 EQ PUSH2 0x80 JUMPI DUP1 PUSH4 0xA5BD44B EQ PUSH2 0xBF JUMPI DUP1 PUSH4 0x1D894EB8 EQ PUSH2 0xE8 JUMPI DUP1 PUSH4 0x27E7875A EQ PUSH2 0x111 JUMPI JUMPDEST PUSH1 0x0 DUP1 REVERT JUMPDEST CALLVALUE DUP1 ISZERO PUSH2 0x8C JUMPI PUSH1 0x0 DUP1 REVERT JUMPDEST POP PUSH2 0xA7 PUSH1 0x4 DUP1 CALLDATASIZE SUB DUP2 ADD SWAP1 PUSH2 0xA2 SWAP2 SWAP1 PUSH2 0xBF0 JUMP JUMPDEST PUSH2 0x225 JUMP JUMPDEST PUSH1 0x40 MLOAD PUSH2 0xB6 SWAP4 SWAP3 SWAP2 SWAP1 PUSH2 0xE5D JUMP JUMPDEST PUSH1 0x40 MLOAD DUP1 SWAP2 SUB SWAP1 RETURN JUMPDEST CALLVALUE DUP1 ISZERO PUSH2 0xCB JUMPI PUSH1 0x0 DUP1 REVERT JUMPDEST POP PUSH2 0xE6 PUSH1 0x4 DUP1 CALLDATASIZE SUB DUP2 ADD SWAP1 PUSH2 0xE1 SWAP2 SWAP1 PUSH2 0xB7C JUMP JUMPDEST PUSH2 0x272 JUMP JUMPDEST STOP JUMPDEST CALLVALUE DUP1 ISZERO PUSH2 0xF4 JUMPI PUSH1 0x0 DUP1 REVERT JUMPDEST POP PUSH2 0x10F PUSH1 0x4 DUP1 CALLDATASIZE SUB DUP2 ADD SWAP1 PUSH2 0x10A SWAP2 SWAP1 PUSH2 0xB1C JUMP JUMPDEST PUSH2 0x3F3 JUMP JUMPDEST STOP JUMPDEST CALLVALUE DUP1 ISZERO PUSH2 0x11D JUMPI PUSH1 0x0 DUP1 REVERT JUMPDEST POP PUSH2 0x138 PUSH1 0x4 DUP1 CALLDATASIZE SUB DUP2 ADD SWAP1 PUSH2 0x133 SWAP2 SWAP1 PUSH2 0xCA6 JUMP JUMPDEST PUSH2 0x49F JUMP JUMPDEST PUSH1 0x40 MLOAD PUSH2 0x145 SWAP2 SWAP1 PUSH2 0xE20 JUMP JUMPDEST PUSH1 0x40 MLOAD DUP1 SWAP2 SUB SWAP1 RETURN JUMPDEST CALLVALUE DUP1 ISZERO PUSH2 0x15A JUMPI PUSH1 0x0 DUP1 REVERT JUMPDEST POP PUSH2 0x175 PUSH1 0x4 DUP1 CALLDATASIZE SUB DUP2 ADD SWAP1 PUSH2 0x170 SWAP2 SWAP1 PUSH2 0xC66 JUMP JUMPDEST PUSH2 0x4ED JUMP JUMPDEST PUSH1 0x40 MLOAD PUSH2 0x184 SWAP4 SWAP3 SWAP2 SWAP1 PUSH2 0xE5D JUMP JUMPDEST PUSH1 0x40 MLOAD DUP1 SWAP2 SUB SWAP1 RETURN JUMPDEST PUSH2 0x1A7 PUSH1 0x4 DUP1 CALLDATASIZE SUB DUP2 ADD SWAP1 PUSH2 0x1A2 SWAP2 SWAP1 PUSH2 0xC39 JUMP JUMPDEST PUSH2 0x531 JUMP JUMPDEST STOP JUMPDEST CALLVALUE DUP1 ISZERO PUSH2 0x1B5 JUMPI PUSH1 0x0 DUP1 REVERT JUMPDEST POP PUSH2 0x1D0 PUSH1 0x4 DUP1 CALLDATASIZE SUB DUP2 ADD SWAP1 PUSH2 0x1CB SWAP2 SWAP1 PUSH2 0xC39 JUMP JUMPDEST PUSH2 0x860 JUMP JUMPDEST PUSH1 0x40 MLOAD PUSH2 0x1DD SWAP2 SWAP1 PUSH2 0xE3B JUMP JUMPDEST PUSH1 0x40 MLOAD DUP1 SWAP2 SUB SWAP1 RETURN JUMPDEST CALLVALUE DUP1 ISZERO PUSH2 0x1F2 JUMPI PUSH1 0x0 DUP1 REVERT JUMPDEST POP PUSH2 0x20D PUSH1 0x4 DUP1 CALLDATASIZE SUB DUP2 ADD SWAP1 PUSH2 0x208 SWAP2 SWAP1 PUSH2 0xC39 JUMP JUMPDEST PUSH2 0x90C JUMP JUMPDEST PUSH1 0x40 MLOAD PUSH2 0x21C SWAP4 SWAP3 SWAP2 SWAP1 PUSH2 0xE5D JUMP JUMPDEST PUSH1 0x40 MLOAD DUP1 SWAP2 SUB SWAP1 RETURN JUMPDEST PUSH1 0x2 DUP2 DUP1 MLOAD PUSH1 0x20 DUP2 ADD DUP3 ADD DUP1 MLOAD DUP5 DUP3 MSTORE PUSH1 0x20 DUP4 ADD PUSH1 0x20 DUP6 ADD KECCAK256 DUP2 DUP4 MSTORE DUP1 SWAP6 POP POP POP POP POP POP PUSH1 0x0 SWAP2 POP SWAP1 POP DUP1 PUSH1 0x0 ADD SLOAD SWAP1 DUP1 PUSH1 0x1 ADD SLOAD SWAP1 DUP1 PUSH1 0x2 ADD PUSH1 0x0 SWAP1 SLOAD SWAP1 PUSH2 0x100 EXP SWAP1 DIV PUSH1 0xFF AND SWAP1 POP DUP4 JUMP JUMPDEST PUSH1 0x2 DUP5 DUP5 PUSH1 0x40 MLOAD PUSH2 0x284 SWAP3 SWAP2 SWAP1 PUSH2 0xDF0 JUMP JUMPDEST SWAP1 DUP2 MSTORE PUSH1 0x20 ADD PUSH1 0x40 MLOAD DUP1 SWAP2 SUB SWAP1 KECCAK256 PUSH1 0x2 ADD PUSH1 0x0 SWAP1 SLOAD SWAP1 PUSH2 0x100 EXP SWAP1 DIV PUSH1 0xFF AND PUSH2 0x3BB JUMPI PUSH2 0x2AF PUSH2 0x943 JUMP JUMPDEST DUP3 DUP2 PUSH1 0x0 ADD DUP2 DUP2 MSTORE POP POP DUP2 DUP2 PUSH1 0x20 ADD DUP2 DUP2 MSTORE POP POP PUSH1 0x1 DUP2 PUSH1 0x40 ADD SWAP1 ISZERO ISZERO SWAP1 DUP2 ISZERO ISZERO DUP2 MSTORE POP POP DUP1 PUSH1 0x2 DUP7 DUP7 PUSH1 0x40 MLOAD PUSH2 0x2E7 SWAP3 SWAP2 SWAP1 PUSH2 0xDF0 JUMP JUMPDEST SWAP1 DUP2 MSTORE PUSH1 0x20 ADD PUSH1 0x40 MLOAD DUP1 SWAP2 SUB SWAP1 KECCAK256 PUSH1 0x0 DUP3 ADD MLOAD DUP2 PUSH1 0x0 ADD SSTORE PUSH1 0x20 DUP3 ADD MLOAD DUP2 PUSH1 0x1 ADD SSTORE PUSH1 0x40 DUP3 ADD MLOAD DUP2 PUSH1 0x2 ADD PUSH1 0x0 PUSH2 0x100 EXP DUP2 SLOAD DUP2 PUSH1 0xFF MUL NOT AND SWAP1 DUP4 ISZERO ISZERO MUL OR SWAP1 SSTORE POP SWAP1 POP POP DUP1 PUSH1 0x1 PUSH1 0x0 DUP1 DUP2 MSTORE PUSH1 0x20 ADD SWAP1 DUP2 MSTORE PUSH1 0x20 ADD PUSH1 0x0 KECCAK256 PUSH1 0x0 DUP3 ADD MLOAD DUP2 PUSH1 0x0 ADD SSTORE PUSH1 0x20 DUP3 ADD MLOAD DUP2 PUSH1 0x1 ADD SSTORE PUSH1 0x40 DUP3 ADD MLOAD DUP2 PUSH1 0x2 ADD PUSH1 0x0 PUSH2 0x100 EXP DUP2 SLOAD DUP2 PUSH1 0xFF MUL NOT AND SWAP1 DUP4 ISZERO ISZERO MUL OR SWAP1 SSTORE POP SWAP1 POP POP PUSH1 0x0 DUP6 DUP6 SWAP1 SWAP2 DUP1 PUSH1 0x1 DUP2 SLOAD ADD DUP1 DUP3 SSTORE DUP1 SWAP2 POP POP PUSH1 0x1 SWAP1 SUB SWAP1 PUSH1 0x0 MSTORE PUSH1 0x20 PUSH1 0x0 KECCAK256 ADD PUSH1 0x0 SWAP1 SWAP2 SWAP3 SWAP1 SWAP2 SWAP3 SWAP1 SWAP2 SWAP3 SWAP1 SWAP2 SWAP3 POP SWAP2 SWAP1 PUSH2 0x3B4 SWAP3 SWAP2 SWAP1 PUSH2 0x966 JUMP JUMPDEST POP POP PUSH2 0x3ED JUMP JUMPDEST PUSH1 0x40 MLOAD PUSH32 0xB185DF3A00000000000000000000000000000000000000000000000000000000 DUP2 MSTORE PUSH1 0x4 ADD PUSH1 0x40 MLOAD DUP1 SWAP2 SUB SWAP1 REVERT JUMPDEST POP POP POP POP JUMP JUMPDEST PUSH1 0x2 DUP4 DUP4 PUSH1 0x40 MLOAD PUSH2 0x405 SWAP3 SWAP2 SWAP1 PUSH2 0xDF0 JUMP JUMPDEST SWAP1 DUP2 MSTORE PUSH1 0x20 ADD PUSH1 0x40 MLOAD DUP1 SWAP2 SUB SWAP1 KECCAK256 PUSH1 0x2 ADD PUSH1 0x0 SWAP1 SLOAD SWAP1 PUSH2 0x100 EXP SWAP1 DIV PUSH1 0xFF AND ISZERO PUSH2 0x468 JUMPI DUP1 PUSH1 0x2 DUP5 DUP5 PUSH1 0x40 MLOAD PUSH2 0x43C SWAP3 SWAP2 SWAP1 PUSH2 0xDF0 JUMP JUMPDEST SWAP1 DUP2 MSTORE PUSH1 0x20 ADD PUSH1 0x40 MLOAD DUP1 SWAP2 SUB SWAP1 KECCAK256 PUSH1 0x1 ADD PUSH1 0x0 DUP3 DUP3 SLOAD PUSH2 0x45C SWAP2 SWAP1 PUSH2 0xF26 JUMP JUMPDEST SWAP3 POP POP DUP2 SWAP1 SSTORE POP PUSH2 0x49A JUMP JUMPDEST PUSH1 0x40 MLOAD PUSH32 0x7E8D96A900000000000000000000000000000000000000000000000000000000 DUP2 MSTORE PUSH1 0x4 ADD PUSH1 0x40 MLOAD DUP1 SWAP2 SUB SWAP1 REVERT JUMPDEST POP POP POP JUMP JUMPDEST PUSH1 0x4 PUSH1 0x20 MSTORE DUP2 PUSH1 0x0 MSTORE PUSH1 0x40 PUSH1 0x0 KECCAK256 DUP2 DUP2 SLOAD DUP2 LT PUSH2 0x4BB JUMPI PUSH1 0x0 DUP1 REVERT JUMPDEST SWAP1 PUSH1 0x0 MSTORE PUSH1 0x20 PUSH1 0x0 KECCAK256 ADD PUSH1 0x0 SWAP2 POP SWAP2 POP SWAP1 SLOAD SWAP1 PUSH2 0x100 EXP SWAP1 DIV PUSH20 0xFFFFFFFFFFFFFFFFFFFFFFFFFFFFFFFFFFFFFFFF AND DUP2 JUMP JUMPDEST PUSH1 0x3 PUSH1 0x20 MSTORE DUP2 PUSH1 0x0 MSTORE PUSH1 0x40 PUSH1 0x0 KECCAK256 PUSH1 0x20 MSTORE DUP1 PUSH1 0x0 MSTORE PUSH1 0x40 PUSH1 0x0 KECCAK256 PUSH1 0x0 SWAP2 POP SWAP2 POP POP DUP1 PUSH1 0x0 ADD SLOAD SWAP1 DUP1 PUSH1 0x1 ADD SLOAD SWAP1 DUP1 PUSH1 0x2 ADD PUSH1 0x0 SWAP1 SLOAD SWAP1 PUSH2 0x100 EXP SWAP1 DIV PUSH1 0xFF AND SWAP1 POP DUP4 JUMP JUMPDEST PUSH1 0x0 DUP1 SLOAD SWAP1 POP DUP2 LT DUP1 ISZERO PUSH2 0x5A3 JUMPI POP PUSH1 0x3 PUSH1 0x0 DUP3 DUP2 MSTORE PUSH1 0x20 ADD SWAP1 DUP2 MSTORE PUSH1 0x20 ADD PUSH1 0x0 KECCAK256 PUSH1 0x0 CALLER PUSH20 0xFFFFFFFFFFFFFFFFFFFFFFFFFFFFFFFFFFFFFFFF AND PUSH20 0xFFFFFFFFFFFFFFFFFFFFFFFFFFFFFFFFFFFFFFFF AND DUP2 MSTORE PUSH1 0x20 ADD SWAP1 DUP2 MSTORE PUSH1 0x20 ADD PUSH1 0x0 KECCAK256 PUSH1 0x2 ADD PUSH1 0x0 SWAP1 SLOAD SWAP1 PUSH2 0x100 EXP SWAP1 DIV PUSH1 0xFF AND ISZERO JUMPDEST ISZERO PUSH2 0x82B JUMPI PUSH1 0x0 PUSH1 0x2 PUSH1 0x0 DUP4 DUP2 SLOAD DUP2 LT PUSH2 0x5C0 JUMPI PUSH2 0x5BF PUSH2 0x10F1 JUMP JUMPDEST JUMPDEST SWAP1 PUSH1 0x0 MSTORE PUSH1 0x20 PUSH1 0x0 KECCAK256 ADD PUSH1 0x40 MLOAD PUSH2 0x5D7 SWAP2 SWAP1 PUSH2 0xE09 JUMP JUMPDEST SWAP1 DUP2 MSTORE PUSH1 0x20 ADD PUSH1 0x40 MLOAD DUP1 SWAP2 SUB SWAP1 KECCAK256 PUSH1 0x40 MLOAD DUP1 PUSH1 0x60 ADD PUSH1 0x40 MSTORE SWAP1 DUP2 PUSH1 0x0 DUP3 ADD SLOAD DUP2 MSTORE PUSH1 0x20 ADD PUSH1 0x1 DUP3 ADD SLOAD DUP2 MSTORE PUSH1 0x20 ADD PUSH1 0x2 DUP3 ADD PUSH1 0x0 SWAP1 SLOAD SWAP1 PUSH2 0x100 EXP SWAP1 DIV PUSH1 0xFF AND ISZERO ISZERO ISZERO ISZERO DUP2 MSTORE POP POP SWAP1 POP DUP1 PUSH1 0x0 ADD MLOAD CALLVALUE LT DUP1 PUSH2 0x637 JUMPI POP PUSH1 0x1 DUP2 PUSH1 0x20 ADD MLOAD LT JUMPDEST ISZERO PUSH2 0x66E JUMPI PUSH1 0x40 MLOAD PUSH32 0xF80236CC00000000000000000000000000000000000000000000000000000000 DUP2 MSTORE PUSH1 0x4 ADD PUSH1 0x40 MLOAD DUP1 SWAP2 SUB SWAP1 REVERT JUMPDEST PUSH2 0x676 PUSH2 0x9EC JUMP JUMPDEST NUMBER DUP2 PUSH1 0x0 ADD DUP2 DUP2 MSTORE POP POP DUP2 PUSH1 0x0 ADD MLOAD DUP2 PUSH1 0x20 ADD DUP2 DUP2 MSTORE POP POP PUSH1 0x1 DUP2 PUSH1 0x40 ADD SWAP1 ISZERO ISZERO SWAP1 DUP2 ISZERO ISZERO DUP2 MSTORE POP POP DUP1 PUSH1 0x3 PUSH1 0x0 DUP6 DUP2 MSTORE PUSH1 0x20 ADD SWAP1 DUP2 MSTORE PUSH1 0x20 ADD PUSH1 0x0 KECCAK256 PUSH1 0x0 CALLER PUSH20 0xFFFFFFFFFFFFFFFFFFFFFFFFFFFFFFFFFFFFFFFF AND PUSH20 0xFFFFFFFFFFFFFFFFFFFFFFFFFFFFFFFFFFFFFFFF AND DUP2 MSTORE PUSH1 0x20 ADD SWAP1 DUP2 MSTORE PUSH1 0x20 ADD PUSH1 0x0 KECCAK256 PUSH1 0x0 DUP3 ADD MLOAD DUP2 PUSH1 0x0 ADD SSTORE PUSH1 0x20 DUP3 ADD MLOAD DUP2 PUSH1 0x1 ADD SSTORE PUSH1 0x40 DUP3 ADD MLOAD DUP2 PUSH1 0x2 ADD PUSH1 0x0 PUSH2 0x100 EXP DUP2 SLOAD DUP2 PUSH1 0xFF MUL NOT AND SWAP1 DUP4 ISZERO ISZERO MUL OR SWAP1 SSTORE POP SWAP1 POP POP DUP2 PUSH1 0x20 ADD DUP1 MLOAD DUP1 SWAP2 SWAP1 PUSH2 0x739 SWAP1 PUSH2 0x1006 JUMP JUMPDEST DUP2 MSTORE POP POP DUP2 PUSH1 0x2 PUSH1 0x0 DUP6 DUP2 SLOAD DUP2 LT PUSH2 0x754 JUMPI PUSH2 0x753 PUSH2 0x10F1 JUMP JUMPDEST JUMPDEST SWAP1 PUSH1 0x0 MSTORE PUSH1 0x20 PUSH1 0x0 KECCAK256 ADD PUSH1 0x40 MLOAD PUSH2 0x76B SWAP2 SWAP1 PUSH2 0xE09 JUMP JUMPDEST SWAP1 DUP2 MSTORE PUSH1 0x20 ADD PUSH1 0x40 MLOAD DUP1 SWAP2 SUB SWAP1 KECCAK256 PUSH1 0x0 DUP3 ADD MLOAD DUP2 PUSH1 0x0 ADD SSTORE PUSH1 0x20 DUP3 ADD MLOAD DUP2 PUSH1 0x1 ADD SSTORE PUSH1 0x40 DUP3 ADD MLOAD DUP2 PUSH1 0x2 ADD PUSH1 0x0 PUSH2 0x100 EXP DUP2 SLOAD DUP2 PUSH1 0xFF MUL NOT AND SWAP1 DUP4 ISZERO ISZERO MUL OR SWAP1 SSTORE POP SWAP1 POP POP PUSH1 0x4 PUSH1 0x0 DUP5 DUP2 MSTORE PUSH1 0x20 ADD SWAP1 DUP2 MSTORE PUSH1 0x20 ADD PUSH1 0x0 KECCAK256 CALLER SWAP1 DUP1 PUSH1 0x1 DUP2 SLOAD ADD DUP1 DUP3 SSTORE DUP1 SWAP2 POP POP PUSH1 0x1 SWAP1 SUB SWAP1 PUSH1 0x0 MSTORE PUSH1 0x20 PUSH1 0x0 KECCAK256 ADD PUSH1 0x0 SWAP1 SWAP2 SWAP1 SWAP2 SWAP1 SWAP2 PUSH2 0x100 EXP DUP2 SLOAD DUP2 PUSH20 0xFFFFFFFFFFFFFFFFFFFFFFFFFFFFFFFFFFFFFFFF MUL NOT AND SWAP1 DUP4 PUSH20 0xFFFFFFFFFFFFFFFFFFFFFFFFFFFFFFFFFFFFFFFF AND MUL OR SWAP1 SSTORE POP POP POP PUSH2 0x85D JUMP JUMPDEST PUSH1 0x40 MLOAD PUSH32 0xD42C9B8B00000000000000000000000000000000000000000000000000000000 DUP2 MSTORE PUSH1 0x4 ADD PUSH1 0x40 MLOAD DUP1 SWAP2 SUB SWAP1 REVERT JUMPDEST POP JUMP JUMPDEST PUSH1 0x0 DUP2 DUP2 SLOAD DUP2 LT PUSH2 0x870 JUMPI PUSH1 0x0 DUP1 REVERT JUMPDEST SWAP1 PUSH1 0x0 MSTORE PUSH1 0x20 PUSH1 0x0 KECCAK256 ADD PUSH1 0x0 SWAP2 POP SWAP1 POP DUP1 SLOAD PUSH2 0x88B SWAP1 PUSH2 0x1030 JUMP JUMPDEST DUP1 PUSH1 0x1F ADD PUSH1 0x20 DUP1 SWAP2 DIV MUL PUSH1 0x20 ADD PUSH1 0x40 MLOAD SWAP1 DUP2 ADD PUSH1 0x40 MSTORE DUP1 SWAP3 SWAP2 SWAP1 DUP2 DUP2 MSTORE PUSH1 0x20 ADD DUP3 DUP1 SLOAD PUSH2 0x8B7 SWAP1 PUSH2 0x1030 JUMP JUMPDEST DUP1 ISZERO PUSH2 0x904 JUMPI DUP1 PUSH1 0x1F LT PUSH2 0x8D9 JUMPI PUSH2 0x100 DUP1 DUP4 SLOAD DIV MUL DUP4 MSTORE SWAP2 PUSH1 0x20 ADD SWAP2 PUSH2 0x904 JUMP JUMPDEST DUP3 ADD SWAP2 SWAP1 PUSH1 0x0 MSTORE PUSH1 0x20 PUSH1 0x0 KECCAK256 SWAP1 JUMPDEST DUP2 SLOAD DUP2 MSTORE SWAP1 PUSH1 0x1 ADD SWAP1 PUSH1 0x20 ADD DUP1 DUP4 GT PUSH2 0x8E7 JUMPI DUP3 SWAP1 SUB PUSH1 0x1F AND DUP3 ADD SWAP2 JUMPDEST POP POP POP POP POP DUP2 JUMP JUMPDEST PUSH1 0x1 PUSH1 0x20 MSTORE DUP1 PUSH1 0x0 MSTORE PUSH1 0x40 PUSH1 0x0 KECCAK256 PUSH1 0x0 SWAP2 POP SWAP1 POP DUP1 PUSH1 0x0 ADD SLOAD SWAP1 DUP1 PUSH1 0x1 ADD SLOAD SWAP1 DUP1 PUSH1 0x2 ADD PUSH1 0x0 SWAP1 SLOAD SWAP1 PUSH2 0x100 EXP SWAP1 DIV PUSH1 0xFF AND SWAP1 POP DUP4 JUMP JUMPDEST PUSH1 0x40 MLOAD DUP1 PUSH1 0x60 ADD PUSH1 0x40 MSTORE DUP1 PUSH1 0x0 DUP2 MSTORE PUSH1 0x20 ADD PUSH1 0x0 DUP2 MSTORE PUSH1 0x20 ADD PUSH1 0x0 ISZERO ISZERO DUP2 MSTORE POP SWAP1 JUMP JUMPDEST DUP3 DUP1 SLOAD PUSH2 0x972 SWAP1 PUSH2 0x1030 JUMP JUMPDEST SWAP1 PUSH1 0x0 MSTORE PUSH1 0x20 PUSH1 0x0 KECCAK256 SWAP1 PUSH1 0x1F ADD PUSH1 0x20 SWAP1 DIV DUP2 ADD SWAP3 DUP3 PUSH2 0x994 JUMPI PUSH1 0x0 DUP6 SSTORE PUSH2 0x9DB JUMP JUMPDEST DUP3 PUSH1 0x1F LT PUSH2 0x9AD JUMPI DUP1 CALLDATALOAD PUSH1 0xFF NOT AND DUP4 DUP1 ADD OR DUP6 SSTORE PUSH2 0x9DB JUMP JUMPDEST DUP3 DUP1 ADD PUSH1 0x1 ADD DUP6 SSTORE DUP3 ISZERO PUSH2 0x9DB JUMPI SWAP2 DUP3 ADD JUMPDEST DUP3 DUP2 GT ISZERO PUSH2 0x9DA JUMPI DUP3 CALLDATALOAD DUP3 SSTORE SWAP2 PUSH1 0x20 ADD SWAP2 SWAP1 PUSH1 0x1 ADD SWAP1 PUSH2 0x9BF JUMP JUMPDEST JUMPDEST POP SWAP1 POP PUSH2 0x9E8 SWAP2 SWAP1 PUSH2 0xA0F JUMP JUMPDEST POP SWAP1 JUMP JUMPDEST PUSH1 0x40 MLOAD DUP1 PUSH1 0x60 ADD PUSH1 0x40 MSTORE DUP1 PUSH1 0x0 DUP2 MSTORE PUSH1 0x20 ADD PUSH1 0x0 DUP2 MSTORE PUSH1 0x20 ADD PUSH1 0x0 ISZERO ISZERO DUP2 MSTORE POP SWAP1 JUMP JUMPDEST JUMPDEST DUP1 DUP3 GT ISZERO PUSH2 0xA28 JUMPI PUSH1 0x0 DUP2 PUSH1 0x0 SWAP1 SSTORE POP PUSH1 0x1 ADD PUSH2 0xA10 JUMP JUMPDEST POP SWAP1 JUMP JUMPDEST PUSH1 0x0 PUSH2 0xA3F PUSH2 0xA3A DUP5 PUSH2 0xEB9 JUMP JUMPDEST PUSH2 0xE94 JUMP JUMPDEST SWAP1 POP DUP3 DUP2 MSTORE PUSH1 0x20 DUP2 ADD DUP5 DUP5 DUP5 ADD GT ISZERO PUSH2 0xA5B JUMPI PUSH2 0xA5A PUSH2 0x115E JUMP JUMPDEST JUMPDEST PUSH2 0xA66 DUP5 DUP3 DUP6 PUSH2 0xFC4 JUMP JUMPDEST POP SWAP4 SWAP3 POP POP POP JUMP JUMPDEST PUSH1 0x0 DUP2 CALLDATALOAD SWAP1 POP PUSH2 0xA7D DUP2 PUSH2 0x117E JUMP JUMPDEST SWAP3 SWAP2 POP POP JUMP JUMPDEST PUSH1 0x0 DUP1 DUP4 PUSH1 0x1F DUP5 ADD SLT PUSH2 0xA99 JUMPI PUSH2 0xA98 PUSH2 0x1154 JUMP JUMPDEST JUMPDEST DUP3 CALLDATALOAD SWAP1 POP PUSH8 0xFFFFFFFFFFFFFFFF DUP2 GT ISZERO PUSH2 0xAB6 JUMPI PUSH2 0xAB5 PUSH2 0x114F JUMP JUMPDEST JUMPDEST PUSH1 0x20 DUP4 ADD SWAP2 POP DUP4 PUSH1 0x1 DUP3 MUL DUP4 ADD GT ISZERO PUSH2 0xAD2 JUMPI PUSH2 0xAD1 PUSH2 0x1159 JUMP JUMPDEST JUMPDEST SWAP3 POP SWAP3 SWAP1 POP JUMP JUMPDEST PUSH1 0x0 DUP3 PUSH1 0x1F DUP4 ADD SLT PUSH2 0xAEE JUMPI PUSH2 0xAED PUSH2 0x1154 JUMP JUMPDEST JUMPDEST DUP2 CALLDATALOAD PUSH2 0xAFE DUP5 DUP3 PUSH1 0x20 DUP7 ADD PUSH2 0xA2C JUMP JUMPDEST SWAP2 POP POP SWAP3 SWAP2 POP POP JUMP JUMPDEST PUSH1 0x0 DUP2 CALLDATALOAD SWAP1 POP PUSH2 0xB16 DUP2 PUSH2 0x1195 JUMP JUMPDEST SWAP3 SWAP2 POP POP JUMP JUMPDEST PUSH1 0x0 DUP1 PUSH1 0x0 PUSH1 0x40 DUP5 DUP7 SUB SLT ISZERO PUSH2 0xB35 JUMPI PUSH2 0xB34 PUSH2 0x1168 JUMP JUMPDEST JUMPDEST PUSH1 0x0 DUP5 ADD CALLDATALOAD PUSH8 0xFFFFFFFFFFFFFFFF DUP2 GT ISZERO PUSH2 0xB53 JUMPI PUSH2 0xB52 PUSH2 0x1163 JUMP JUMPDEST JUMPDEST PUSH2 0xB5F DUP7 DUP3 DUP8 ADD PUSH2 0xA83 JUMP JUMPDEST SWAP4 POP SWAP4 POP POP PUSH1 0x20 PUSH2 0xB72 DUP7 DUP3 DUP8 ADD PUSH2 0xB07 JUMP JUMPDEST SWAP2 POP POP SWAP3 POP SWAP3 POP SWAP3 JUMP JUMPDEST PUSH1 0x0 DUP1 PUSH1 0x0 DUP1 PUSH1 0x60 DUP6 DUP8 SUB SLT ISZERO PUSH2 0xB96 JUMPI PUSH2 0xB95 PUSH2 0x1168 JUMP JUMPDEST JUMPDEST PUSH1 0x0 DUP6 ADD CALLDATALOAD PUSH8 0xFFFFFFFFFFFFFFFF DUP2 GT ISZERO PUSH2 0xBB4 JUMPI PUSH2 0xBB3 PUSH2 0x1163 JUMP JUMPDEST JUMPDEST PUSH2 0xBC0 DUP8 DUP3 DUP9 ADD PUSH2 0xA83 JUMP JUMPDEST SWAP5 POP SWAP5 POP POP PUSH1 0x20 PUSH2 0xBD3 DUP8 DUP3 DUP9 ADD PUSH2 0xB07 JUMP JUMPDEST SWAP3 POP POP PUSH1 0x40 PUSH2 0xBE4 DUP8 DUP3 DUP9 ADD PUSH2 0xB07 JUMP JUMPDEST SWAP2 POP POP SWAP3 SWAP6 SWAP2 SWAP5 POP SWAP3 POP JUMP JUMPDEST PUSH1 0x0 PUSH1 0x20 DUP3 DUP5 SUB SLT ISZERO PUSH2 0xC06 JUMPI PUSH2 0xC05 PUSH2 0x1168 JUMP JUMPDEST JUMPDEST PUSH1 0x0 DUP3 ADD CALLDATALOAD PUSH8 0xFFFFFFFFFFFFFFFF DUP2 GT ISZERO PUSH2 0xC24 JUMPI PUSH2 0xC23 PUSH2 0x1163 JUMP JUMPDEST JUMPDEST PUSH2 0xC30 DUP5 DUP3 DUP6 ADD PUSH2 0xAD9 JUMP JUMPDEST SWAP2 POP POP SWAP3 SWAP2 POP POP JUMP JUMPDEST PUSH1 0x0 PUSH1 0x20 DUP3 DUP5 SUB SLT ISZERO PUSH2 0xC4F JUMPI PUSH2 0xC4E PUSH2 0x1168 JUMP JUMPDEST JUMPDEST PUSH1 0x0 PUSH2 0xC5D DUP5 DUP3 DUP6 ADD PUSH2 0xB07 JUMP JUMPDEST SWAP2 POP POP SWAP3 SWAP2 POP POP JUMP JUMPDEST PUSH1 0x0 DUP1 PUSH1 0x40 DUP4 DUP6 SUB SLT ISZERO PUSH2 0xC7D JUMPI PUSH2 0xC7C PUSH2 0x1168 JUMP JUMPDEST JUMPDEST PUSH1 0x0 PUSH2 0xC8B DUP6 DUP3 DUP7 ADD PUSH2 0xB07 JUMP JUMPDEST SWAP3 POP POP PUSH1 0x20 PUSH2 0xC9C DUP6 DUP3 DUP7 ADD PUSH2 0xA6E JUMP JUMPDEST SWAP2 POP POP SWAP3 POP SWAP3 SWAP1 POP JUMP JUMPDEST PUSH1 0x0 DUP1 PUSH1 0x40 DUP4 DUP6 SUB SLT ISZERO PUSH2 0xCBD JUMPI PUSH2 0xCBC PUSH2 0x1168 JUMP JUMPDEST JUMPDEST PUSH1 0x0 PUSH2 0xCCB DUP6 DUP3 DUP7 ADD PUSH2 0xB07 JUMP JUMPDEST SWAP3 POP POP PUSH1 0x20 PUSH2 0xCDC DUP6 DUP3 DUP7 ADD PUSH2 0xB07 JUMP JUMPDEST SWAP2 POP POP SWAP3 POP SWAP3 SWAP1 POP JUMP JUMPDEST PUSH2 0xCEF DUP2 PUSH2 0xF7C JUMP JUMPDEST DUP3 MSTORE POP POP JUMP JUMPDEST PUSH2 0xCFE DUP2 PUSH2 0xF8E JUMP JUMPDEST DUP3 MSTORE POP POP JUMP JUMPDEST PUSH1 0x0 PUSH2 0xD10 DUP4 DUP6 PUSH2 0xF1B JUMP JUMPDEST SWAP4 POP PUSH2 0xD1D DUP4 DUP6 DUP5 PUSH2 0xFC4 JUMP JUMPDEST DUP3 DUP5 ADD SWAP1 POP SWAP4 SWAP3 POP POP POP JUMP JUMPDEST PUSH1 0x0 PUSH2 0xD34 DUP3 PUSH2 0xEFF JUMP JUMPDEST PUSH2 0xD3E DUP2 DUP6 PUSH2 0xF0A JUMP JUMPDEST SWAP4 POP PUSH2 0xD4E DUP2 DUP6 PUSH1 0x20 DUP7 ADD PUSH2 0xFD3 JUMP JUMPDEST PUSH2 0xD57 DUP2 PUSH2 0x116D JUMP JUMPDEST DUP5 ADD SWAP2 POP POP SWAP3 SWAP2 POP POP JUMP JUMPDEST PUSH1 0x0 DUP2 SLOAD PUSH2 0xD6F DUP2 PUSH2 0x1030 JUMP JUMPDEST PUSH2 0xD79 DUP2 DUP7 PUSH2 0xF1B JUMP JUMPDEST SWAP5 POP PUSH1 0x1 DUP3 AND PUSH1 0x0 DUP2 EQ PUSH2 0xD94 JUMPI PUSH1 0x1 DUP2 EQ PUSH2 0xDA5 JUMPI PUSH2 0xDD8 JUMP JUMPDEST PUSH1 0xFF NOT DUP4 AND DUP7 MSTORE DUP2 DUP7 ADD SWAP4 POP PUSH2 0xDD8 JUMP JUMPDEST PUSH2 0xDAE DUP6 PUSH2 0xEEA JUMP JUMPDEST PUSH1 0x0 JUMPDEST DUP4 DUP2 LT ISZERO PUSH2 0xDD0 JUMPI DUP2 SLOAD DUP2 DUP10 ADD MSTORE PUSH1 0x1 DUP3 ADD SWAP2 POP PUSH1 0x20 DUP2 ADD SWAP1 POP PUSH2 0xDB1 JUMP JUMPDEST DUP4 DUP9 ADD SWAP6 POP POP POP JUMPDEST POP POP POP SWAP3 SWAP2 POP POP JUMP JUMPDEST PUSH2 0xDEA DUP2 PUSH2 0xFBA JUMP JUMPDEST DUP3 MSTORE POP POP JUMP JUMPDEST PUSH1 0x0 PUSH2 0xDFD DUP3 DUP5 DUP7 PUSH2 0xD04 JUMP JUMPDEST SWAP2 POP DUP2 SWAP1 POP SWAP4 SWAP3 POP POP POP JUMP JUMPDEST PUSH1 0x0 PUSH2 0xE15 DUP3 DUP5 PUSH2 0xD62 JUMP JUMPDEST SWAP2 POP DUP2 SWAP1 POP SWAP3 SWAP2 POP POP JUMP JUMPDEST PUSH1 0x0 PUSH1 0x20 DUP3 ADD SWAP1 POP PUSH2 0xE35 PUSH1 0x0 DUP4 ADD DUP5 PUSH2 0xCE6 JUMP JUMPDEST SWAP3 SWAP2 POP POP JUMP JUMPDEST PUSH1 0x0 PUSH1 0x20 DUP3 ADD SWAP1 POP DUP2 DUP2 SUB PUSH1 0x0 DUP4 ADD MSTORE PUSH2 0xE55 DUP2 DUP5 PUSH2 0xD29 JUMP JUMPDEST SWAP1 POP SWAP3 SWAP2 POP POP JUMP JUMPDEST PUSH1 0x0 PUSH1 0x60 DUP3 ADD SWAP1 POP PUSH2 0xE72 PUSH1 0x0 DUP4 ADD DUP7 PUSH2 0xDE1 JUMP JUMPDEST PUSH2 0xE7F PUSH1 0x20 DUP4 ADD DUP6 PUSH2 0xDE1 JUMP JUMPDEST PUSH2 0xE8C PUSH1 0x40 DUP4 ADD DUP5 PUSH2 0xCF5 JUMP JUMPDEST SWAP5 SWAP4 POP POP POP POP JUMP JUMPDEST PUSH1 0x0 PUSH2 0xE9E PUSH2 0xEAF JUMP JUMPDEST SWAP1 POP PUSH2 0xEAA DUP3 DUP3 PUSH2 0x1062 JUMP JUMPDEST SWAP2 SWAP1 POP JUMP JUMPDEST PUSH1 0x0 PUSH1 0x40 MLOAD SWAP1 POP SWAP1 JUMP JUMPDEST PUSH1 0x0 PUSH8 0xFFFFFFFFFFFFFFFF DUP3 GT ISZERO PUSH2 0xED4 JUMPI PUSH2 0xED3 PUSH2 0x1120 JUMP JUMPDEST JUMPDEST PUSH2 0xEDD DUP3 PUSH2 0x116D JUMP JUMPDEST SWAP1 POP PUSH1 0x20 DUP2 ADD SWAP1 POP SWAP2 SWAP1 POP JUMP JUMPDEST PUSH1 0x0 DUP2 SWAP1 POP DUP2 PUSH1 0x0 MSTORE PUSH1 0x20 PUSH1 0x0 KECCAK256 SWAP1 POP SWAP2 SWAP1 POP JUMP JUMPDEST PUSH1 0x0 DUP2 MLOAD SWAP1 POP SWAP2 SWAP1 POP JUMP JUMPDEST PUSH1 0x0 DUP3 DUP3 MSTORE PUSH1 0x20 DUP3 ADD SWAP1 POP SWAP3 SWAP2 POP POP JUMP JUMPDEST PUSH1 0x0 DUP2 SWAP1 POP SWAP3 SWAP2 POP POP JUMP JUMPDEST PUSH1 0x0 PUSH2 0xF31 DUP3 PUSH2 0xFBA JUMP JUMPDEST SWAP2 POP PUSH2 0xF3C DUP4 PUSH2 0xFBA JUMP JUMPDEST SWAP3 POP DUP3 PUSH32 0xFFFFFFFFFFFFFFFFFFFFFFFFFFFFFFFFFFFFFFFFFFFFFFFFFFFFFFFFFFFFFFFF SUB DUP3 GT ISZERO PUSH2 0xF71 JUMPI PUSH2 0xF70 PUSH2 0x1093 JUMP JUMPDEST JUMPDEST DUP3 DUP3 ADD SWAP1 POP SWAP3 SWAP2 POP POP JUMP JUMPDEST PUSH1 0x0 PUSH2 0xF87 DUP3 PUSH2 0xF9A JUMP JUMPDEST SWAP1 POP SWAP2 SWAP1 POP JUMP JUMPDEST PUSH1 0x0 DUP2 ISZERO ISZERO SWAP1 POP SWAP2 SWAP1 POP JUMP JUMPDEST PUSH1 0x0 PUSH20 0xFFFFFFFFFFFFFFFFFFFFFFFFFFFFFFFFFFFFFFFF DUP3 AND SWAP1 POP SWAP2 SWAP1 POP JUMP JUMPDEST PUSH1 0x0 DUP2 SWAP1 POP SWAP2 SWAP1 POP JUMP JUMPDEST DUP3 DUP2 DUP4 CALLDATACOPY PUSH1 0x0 DUP4 DUP4 ADD MSTORE POP POP POP JUMP JUMPDEST PUSH1 0x0 JUMPDEST DUP4 DUP2 LT ISZERO PUSH2 0xFF1 JUMPI DUP1 DUP3 ADD MLOAD DUP2 DUP5 ADD MSTORE PUSH1 0x20 DUP2 ADD SWAP1 POP PUSH2 0xFD6 JUMP JUMPDEST DUP4 DUP2 GT ISZERO PUSH2 0x1000 JUMPI PUSH1 0x0 DUP5 DUP5 ADD MSTORE JUMPDEST POP POP POP POP JUMP JUMPDEST PUSH1 0x0 PUSH2 0x1011 DUP3 PUSH2 0xFBA JUMP JUMPDEST SWAP2 POP PUSH1 0x0 DUP3 EQ ISZERO PUSH2 0x1025 JUMPI PUSH2 0x1024 PUSH2 0x1093 JUMP JUMPDEST JUMPDEST PUSH1 0x1 DUP3 SUB SWAP1 POP SWAP2 SWAP1 POP JUMP JUMPDEST PUSH1 0x0 PUSH1 0x2 DUP3 DIV SWAP1 POP PUSH1 0x1 DUP3 AND DUP1 PUSH2 0x1048 JUMPI PUSH1 0x7F DUP3 AND SWAP2 POP JUMPDEST PUSH1 0x20 DUP3 LT DUP2 EQ ISZERO PUSH2 0x105C JUMPI PUSH2 0x105B PUSH2 0x10C2 JUMP JUMPDEST JUMPDEST POP SWAP2 SWAP1 POP JUMP JUMPDEST PUSH2 0x106B DUP3 PUSH2 0x116D JUMP JUMPDEST DUP2 ADD DUP2 DUP2 LT PUSH8 0xFFFFFFFFFFFFFFFF DUP3 GT OR ISZERO PUSH2 0x108A JUMPI PUSH2 0x1089 PUSH2 0x1120 JUMP JUMPDEST JUMPDEST DUP1 PUSH1 0x40 MSTORE POP POP POP JUMP JUMPDEST PUSH32 0x4E487B7100000000000000000000000000000000000000000000000000000000 PUSH1 0x0 MSTORE PUSH1 0x11 PUSH1 0x4 MSTORE PUSH1 0x24 PUSH1 0x0 REVERT JUMPDEST PUSH32 0x4E487B7100000000000000000000000000000000000000000000000000000000 PUSH1 0x0 MSTORE PUSH1 0x22 PUSH1 0x4 MSTORE PUSH1 0x24 PUSH1 0x0 REVERT JUMPDEST PUSH32 0x4E487B7100000000000000000000000000000000000000000000000000000000 PUSH1 0x0 MSTORE PUSH1 0x32 PUSH1 0x4 MSTORE PUSH1 0x24 PUSH1 0x0 REVERT JUMPDEST PUSH32 0x4E487B7100000000000000000000000000000000000000000000000000000000 PUSH1 0x0 MSTORE PUSH1 0x41 PUSH1 0x4 MSTORE PUSH1 0x24 PUSH1 0x0 REVERT JUMPDEST PUSH1 0x0 DUP1 REVERT JUMPDEST PUSH1 0x0 DUP1 REVERT JUMPDEST PUSH1 0x0 DUP1 REVERT JUMPDEST PUSH1 0x0 DUP1 REVERT JUMPDEST PUSH1 0x0 DUP1 REVERT JUMPDEST PUSH1 0x0 DUP1 REVERT JUMPDEST PUSH1 0x0 PUSH1 0x1F NOT PUSH1 0x1F DUP4 ADD AND SWAP1 POP SWAP2 SWAP1 POP JUMP JUMPDEST PUSH2 0x1187 DUP2 PUSH2 0xF7C JUMP JUMPDEST DUP2 EQ PUSH2 0x1192 JUMPI PUSH1 0x0 DUP1 REVERT JUMPDEST POP JUMP JUMPDEST PUSH2 0x119E DUP2 PUSH2 0xFBA JUMP JUMPDEST DUP2 EQ PUSH2 0x11A9 JUMPI PUSH1 0x0 DUP1 REVERT JUMPDEST POP JUMP INVALID LOG2 PUSH5 0x6970667358 0x22 SLT KECCAK256 CALLDATACOPY DIFFICULTY 0x29 0x4B 0xCB 0x28 0xB2 ORIGIN 0xB3 0x2B MSTORE8 0xC9 0x23 DUP15 PUSH16 0x48B6BBB1F600D95BC8B7E464245AACDE 0xE8 PUSH5 0x736F6C6343 STOP ADDMOD SMOD STOP CALLER "
				},
				"gasEstimates": {
					"creation": {
						"codeDepositCost": "915600",
						"executionCost": "931",
						"totalCost": "916531"
					},
					"external": {
						"addNewProduct(string,uint256,uint256)": "infinite",
						"availableProducts(uint256)": "infinite",
						"buyProduct(uint256)": "infinite",
						"buyers(uint256,uint256)": "infinite",
						"products(string)": "infinite",
						"productsID(uint256)": "infinite",
						"transactions(uint256,address)": "infinite",
						"updateQuantity(string,uint256)": "infinite"
					}
				},
				"methodIdentifiers": {
					"addNewProduct(string,uint256,uint256)": "0a5bd44b",
					"availableProducts(uint256)": "e4bcc7d4",
					"buyProduct(uint256)": "8642269e",
					"buyers(uint256,uint256)": "27e7875a",
					"products(string)": "0186a423",
					"productsID(uint256)": "f8cfabb9",
					"transactions(uint256,address)": "74cbc350",
					"updateQuantity(string,uint256)": "1d894eb8"
				}
			},
			"storageLayout": {
				"storage": [
					{
						"astId": 30,
						"contract": "Project/TechnoLime.sol:TechnoLimeStore",
						"label": "availableProducts",
						"offset": 0,
						"slot": "0",
						"type": "t_array(t_string_storage)dyn_storage"
					},
					{
						"astId": 35,
						"contract": "Project/TechnoLime.sol:TechnoLimeStore",
						"label": "productsID",
						"offset": 0,
						"slot": "1",
						"type": "t_mapping(t_uint256,t_struct(Product)27_storage)"
					},
					{
						"astId": 40,
						"contract": "Project/TechnoLime.sol:TechnoLimeStore",
						"label": "products",
						"offset": 0,
						"slot": "2",
						"type": "t_mapping(t_string_memory_ptr,t_struct(Product)27_storage)"
					},
					{
						"astId": 54,
						"contract": "Project/TechnoLime.sol:TechnoLimeStore",
						"label": "transactions",
						"offset": 0,
						"slot": "3",
						"type": "t_mapping(t_uint256,t_mapping(t_address,t_struct(Transaction)47_storage))"
					},
					{
						"astId": 59,
						"contract": "Project/TechnoLime.sol:TechnoLimeStore",
						"label": "buyers",
						"offset": 0,
						"slot": "4",
						"type": "t_mapping(t_uint256,t_array(t_address)dyn_storage)"
					}
				],
				"types": {
					"t_address": {
						"encoding": "inplace",
						"label": "address",
						"numberOfBytes": "20"
					},
					"t_array(t_address)dyn_storage": {
						"base": "t_address",
						"encoding": "dynamic_array",
						"label": "address[]",
						"numberOfBytes": "32"
					},
					"t_array(t_string_storage)dyn_storage": {
						"base": "t_string_storage",
						"encoding": "dynamic_array",
						"label": "string[]",
						"numberOfBytes": "32"
					},
					"t_bool": {
						"encoding": "inplace",
						"label": "bool",
						"numberOfBytes": "1"
					},
					"t_mapping(t_address,t_struct(Transaction)47_storage)": {
						"encoding": "mapping",
						"key": "t_address",
						"label": "mapping(address => struct TechnoLimeStore.Transaction)",
						"numberOfBytes": "32",
						"value": "t_struct(Transaction)47_storage"
					},
					"t_mapping(t_string_memory_ptr,t_struct(Product)27_storage)": {
						"encoding": "mapping",
						"key": "t_string_memory_ptr",
						"label": "mapping(string => struct TechnoLimeStore.Product)",
						"numberOfBytes": "32",
						"value": "t_struct(Product)27_storage"
					},
					"t_mapping(t_uint256,t_array(t_address)dyn_storage)": {
						"encoding": "mapping",
						"key": "t_uint256",
						"label": "mapping(uint256 => address[])",
						"numberOfBytes": "32",
						"value": "t_array(t_address)dyn_storage"
					},
					"t_mapping(t_uint256,t_mapping(t_address,t_struct(Transaction)47_storage))": {
						"encoding": "mapping",
						"key": "t_uint256",
						"label": "mapping(uint256 => mapping(address => struct TechnoLimeStore.Transaction))",
						"numberOfBytes": "32",
						"value": "t_mapping(t_address,t_struct(Transaction)47_storage)"
					},
					"t_mapping(t_uint256,t_struct(Product)27_storage)": {
						"encoding": "mapping",
						"key": "t_uint256",
						"label": "mapping(uint256 => struct TechnoLimeStore.Product)",
						"numberOfBytes": "32",
						"value": "t_struct(Product)27_storage"
					},
					"t_string_memory_ptr": {
						"encoding": "bytes",
						"label": "string",
						"numberOfBytes": "32"
					},
					"t_string_storage": {
						"encoding": "bytes",
						"label": "string",
						"numberOfBytes": "32"
					},
					"t_struct(Product)27_storage": {
						"encoding": "inplace",
						"label": "struct TechnoLimeStore.Product",
						"members": [
							{
								"astId": 22,
								"contract": "Project/TechnoLime.sol:TechnoLimeStore",
								"label": "price",
								"offset": 0,
								"slot": "0",
								"type": "t_uint256"
							},
							{
								"astId": 24,
								"contract": "Project/TechnoLime.sol:TechnoLimeStore",
								"label": "quantity",
								"offset": 0,
								"slot": "1",
								"type": "t_uint256"
							},
							{
								"astId": 26,
								"contract": "Project/TechnoLime.sol:TechnoLimeStore",
								"label": "exists",
								"offset": 0,
								"slot": "2",
								"type": "t_bool"
							}
						],
						"numberOfBytes": "96"
					},
					"t_struct(Transaction)47_storage": {
						"encoding": "inplace",
						"label": "struct TechnoLimeStore.Transaction",
						"members": [
							{
								"astId": 42,
								"contract": "Project/TechnoLime.sol:TechnoLimeStore",
								"label": "blockNum",
								"offset": 0,
								"slot": "0",
								"type": "t_uint256"
							},
							{
								"astId": 44,
								"contract": "Project/TechnoLime.sol:TechnoLimeStore",
								"label": "price",
								"offset": 0,
								"slot": "1",
								"type": "t_uint256"
							},
							{
								"astId": 46,
								"contract": "Project/TechnoLime.sol:TechnoLimeStore",
								"label": "exists",
								"offset": 0,
								"slot": "2",
								"type": "t_bool"
							}
						],
						"numberOfBytes": "96"
					},
					"t_uint256": {
						"encoding": "inplace",
						"label": "uint256",
						"numberOfBytes": "32"
					}
				}
			},
			"userdoc": {
				"errors": {
					"ItemIdWrongOrBoughtAlready()": [
						{
							"notice": "Error trown when the productID doesn't exist or it has been bought once already"
						}
					],
					"LessThanPriceOrOutOfStock()": [
						{
							"notice": "Error trown when money sent is less than Product price"
						}
					],
					"ProductExists()": [
						{
							"notice": "Can't add a product that already exists"
						}
					]
				},
				"kind": "user",
				"methods": {},
				"version": 1
			}
		}
	}
}