{
	"Project/TechnoLime.sol": {
		"TechnoLimeStore": {
			"abi": [
				{
					"inputs": [],
					"stateMutability": "payable",
					"type": "constructor"
				},
				{
					"inputs": [],
					"name": "Blocks100Exceeded",
					"type": "error"
				},
				{
					"inputs": [],
					"name": "ItemIdWrongOrBoughtAlready",
					"type": "error"
				},
				{
					"inputs": [],
					"name": "LessThanPriceOrOutOfStock",
					"type": "error"
				},
				{
					"inputs": [],
					"name": "ProductExists",
					"type": "error"
				},
				{
					"inputs": [],
					"name": "ProductNotExistent",
					"type": "error"
				},
				{
					"inputs": [],
					"name": "TransactionNotExistent",
					"type": "error"
				},
				{
					"inputs": [
						{
							"internalType": "string",
							"name": "_name",
							"type": "string"
						},
						{
							"internalType": "uint256",
							"name": "_price",
							"type": "uint256"
						},
						{
							"internalType": "uint256",
							"name": "_quantity",
							"type": "uint256"
						}
					],
					"name": "addNewProduct",
					"outputs": [],
					"stateMutability": "nonpayable",
					"type": "function"
				},
				{
					"inputs": [
						{
							"internalType": "uint256",
							"name": "",
							"type": "uint256"
						}
					],
					"name": "availableProducts",
					"outputs": [
						{
							"internalType": "string",
							"name": "",
							"type": "string"
						}
					],
					"stateMutability": "view",
					"type": "function"
				},
				{
					"inputs": [
						{
							"internalType": "uint256",
							"name": "_id",
							"type": "uint256"
						}
					],
					"name": "buyProduct",
					"outputs": [],
					"stateMutability": "payable",
					"type": "function"
				},
				{
					"inputs": [
						{
							"internalType": "uint256",
							"name": "",
							"type": "uint256"
						},
						{
							"internalType": "uint256",
							"name": "",
							"type": "uint256"
						}
					],
					"name": "buyers",
					"outputs": [
						{
							"internalType": "address",
							"name": "",
							"type": "address"
						}
					],
					"stateMutability": "view",
					"type": "function"
				},
				{
					"inputs": [
						{
							"internalType": "uint256",
							"name": "",
							"type": "uint256"
						}
					],
					"name": "products",
					"outputs": [
						{
							"internalType": "uint256",
							"name": "price",
							"type": "uint256"
						},
						{
							"internalType": "uint256",
							"name": "quantity",
							"type": "uint256"
						},
						{
							"internalType": "string",
							"name": "name",
							"type": "string"
						},
						{
							"internalType": "bool",
							"name": "exists",
							"type": "bool"
						}
					],
					"stateMutability": "view",
					"type": "function"
				},
				{
					"inputs": [
						{
							"internalType": "uint256",
							"name": "_id",
							"type": "uint256"
						}
					],
					"name": "returnProduct",
					"outputs": [],
					"stateMutability": "nonpayable",
					"type": "function"
				},
				{
					"inputs": [
						{
							"internalType": "uint256",
							"name": "",
							"type": "uint256"
						},
						{
							"internalType": "address",
							"name": "",
							"type": "address"
						}
					],
					"name": "transactions",
					"outputs": [
						{
							"internalType": "uint256",
							"name": "blockNum",
							"type": "uint256"
						},
						{
							"internalType": "uint256",
							"name": "price",
							"type": "uint256"
						},
						{
							"internalType": "uint256",
							"name": "status",
							"type": "uint256"
						}
					],
					"stateMutability": "view",
					"type": "function"
				},
				{
					"inputs": [
						{
							"internalType": "uint256",
							"name": "_id",
							"type": "uint256"
						},
						{
							"internalType": "uint256",
							"name": "_quantity",
							"type": "uint256"
						}
					],
					"name": "updateQuantity",
					"outputs": [],
					"stateMutability": "nonpayable",
					"type": "function"
				},
				{
					"inputs": [
						{
							"internalType": "uint256",
							"name": "_id",
							"type": "uint256"
						}
					],
					"name": "withdraw",
					"outputs": [],
					"stateMutability": "nonpayable",
					"type": "function"
				}
			],
			"devdoc": {
				"kind": "dev",
				"methods": {},
				"version": 1
			},
			"evm": {
				"assembly": "    /* \"Project/TechnoLime.sol\":98:4705  contract TechnoLimeStore {\r... */\n  mstore(0x40, 0x80)\n  dataSize(sub_0)\n  dup1\n  dataOffset(sub_0)\n  0x00\n  codecopy\n  0x00\n  return\nstop\n\nsub_0: assembly {\n        /* \"Project/TechnoLime.sol\":98:4705  contract TechnoLimeStore {\r... */\n      mstore(0x40, 0x80)\n      jumpi(tag_1, lt(calldatasize, 0x04))\n      shr(0xe0, calldataload(0x00))\n      dup1\n      0x74cbc350\n      gt\n      tag_11\n      jumpi\n      dup1\n      0x74cbc350\n      eq\n      tag_6\n      jumpi\n      dup1\n      0x79cd4921\n      eq\n      tag_7\n      jumpi\n      dup1\n      0x7acc0b20\n      eq\n      tag_8\n      jumpi\n      dup1\n      0x8642269e\n      eq\n      tag_9\n      jumpi\n      dup1\n      0xe4bcc7d4\n      eq\n      tag_10\n      jumpi\n      jump(tag_1)\n    tag_11:\n      dup1\n      0x0a5bd44b\n      eq\n      tag_2\n      jumpi\n      dup1\n      0x131e407d\n      eq\n      tag_3\n      jumpi\n      dup1\n      0x27e7875a\n      eq\n      tag_4\n      jumpi\n      dup1\n      0x2e1a7d4d\n      eq\n      tag_5\n      jumpi\n    tag_1:\n      0x00\n      dup1\n      revert\n        /* \"Project/TechnoLime.sol\":995:1649  function addNewProduct(string calldata _name, uint _price,uint _quantity) external{\r... */\n    tag_2:\n      callvalue\n      dup1\n      iszero\n      tag_12\n      jumpi\n      0x00\n      dup1\n      revert\n    tag_12:\n      pop\n      tag_13\n      0x04\n      dup1\n      calldatasize\n      sub\n      dup2\n      add\n      swap1\n      tag_14\n      swap2\n      swap1\n      tag_15\n      jump\t// in\n    tag_14:\n      tag_16\n      jump\t// in\n    tag_13:\n      stop\n        /* \"Project/TechnoLime.sol\":3481:4483  function returnProduct(uint _id) external {\r... */\n    tag_3:\n      callvalue\n      dup1\n      iszero\n      tag_17\n      jumpi\n      0x00\n      dup1\n      revert\n    tag_17:\n      pop\n      tag_18\n      0x04\n      dup1\n      calldatasize\n      sub\n      dup2\n      add\n      swap1\n      tag_19\n      swap2\n      swap1\n      tag_20\n      jump\t// in\n    tag_19:\n      tag_21\n      jump\t// in\n    tag_18:\n      stop\n        /* \"Project/TechnoLime.sol\":894:933  mapping(uint =>address[]) public buyers */\n    tag_4:\n      callvalue\n      dup1\n      iszero\n      tag_22\n      jumpi\n      0x00\n      dup1\n      revert\n    tag_22:\n      pop\n      tag_23\n      0x04\n      dup1\n      calldatasize\n      sub\n      dup2\n      add\n      swap1\n      tag_24\n      swap2\n      swap1\n      tag_25\n      jump\t// in\n    tag_24:\n      tag_26\n      jump\t// in\n    tag_23:\n      mload(0x40)\n      tag_27\n      swap2\n      swap1\n      tag_28\n      jump\t// in\n    tag_27:\n      mload(0x40)\n      dup1\n      swap2\n      sub\n      swap1\n      return\n        /* \"Project/TechnoLime.sol\":4643:4688  function withdraw(uint _id) public {\r... */\n    tag_5:\n      callvalue\n      dup1\n      iszero\n      tag_29\n      jumpi\n      0x00\n      dup1\n      revert\n    tag_29:\n      pop\n      tag_30\n      0x04\n      dup1\n      calldatasize\n      sub\n      dup2\n      add\n      swap1\n      tag_31\n      swap2\n      swap1\n      tag_20\n      jump\t// in\n    tag_31:\n      tag_32\n      jump\t// in\n    tag_30:\n      stop\n        /* \"Project/TechnoLime.sol\":819:887  mapping(uint => mapping(address => Transaction)) public transactions */\n    tag_6:\n      callvalue\n      dup1\n      iszero\n      tag_33\n      jumpi\n      0x00\n      dup1\n      revert\n    tag_33:\n      pop\n      tag_34\n      0x04\n      dup1\n      calldatasize\n      sub\n      dup2\n      add\n      swap1\n      tag_35\n      swap2\n      swap1\n      tag_36\n      jump\t// in\n    tag_35:\n      tag_37\n      jump\t// in\n    tag_34:\n      mload(0x40)\n      tag_38\n      swap4\n      swap3\n      swap2\n      swap1\n      tag_39\n      jump\t// in\n    tag_38:\n      mload(0x40)\n      dup1\n      swap2\n      sub\n      swap1\n      return\n        /* \"Project/TechnoLime.sol\":1657:1991  function updateQuantity(uint _id,uint _quantity) external{\r... */\n    tag_7:\n      callvalue\n      dup1\n      iszero\n      tag_40\n      jumpi\n      0x00\n      dup1\n      revert\n    tag_40:\n      pop\n      tag_41\n      0x04\n      dup1\n      calldatasize\n      sub\n      dup2\n      add\n      swap1\n      tag_42\n      swap2\n      swap1\n      tag_25\n      jump\t// in\n    tag_42:\n      tag_43\n      jump\t// in\n    tag_41:\n      stop\n        /* \"Project/TechnoLime.sol\":634:674  mapping(uint => Product) public products */\n    tag_8:\n      callvalue\n      dup1\n      iszero\n      tag_44\n      jumpi\n      0x00\n      dup1\n      revert\n    tag_44:\n      pop\n      tag_45\n      0x04\n      dup1\n      calldatasize\n      sub\n      dup2\n      add\n      swap1\n      tag_46\n      swap2\n      swap1\n      tag_20\n      jump\t// in\n    tag_46:\n      tag_47\n      jump\t// in\n    tag_45:\n      mload(0x40)\n      tag_48\n      swap5\n      swap4\n      swap3\n      swap2\n      swap1\n      tag_49\n      jump\t// in\n    tag_48:\n      mload(0x40)\n      dup1\n      swap2\n      sub\n      swap1\n      return\n        /* \"Project/TechnoLime.sol\":2094:3355  function buyProduct (uint _id)  external payable { \r... */\n    tag_9:\n      tag_50\n      0x04\n      dup1\n      calldatasize\n      sub\n      dup2\n      add\n      swap1\n      tag_51\n      swap2\n      swap1\n      tag_20\n      jump\t// in\n    tag_51:\n      tag_52\n      jump\t// in\n    tag_50:\n      stop\n        /* \"Project/TechnoLime.sol\":594:627  string[] public availableProducts */\n    tag_10:\n      callvalue\n      dup1\n      iszero\n      tag_53\n      jumpi\n      0x00\n      dup1\n      revert\n    tag_53:\n      pop\n      tag_54\n      0x04\n      dup1\n      calldatasize\n      sub\n      dup2\n      add\n      swap1\n      tag_55\n      swap2\n      swap1\n      tag_20\n      jump\t// in\n    tag_55:\n      tag_56\n      jump\t// in\n    tag_54:\n      mload(0x40)\n      tag_57\n      swap2\n      swap1\n      tag_58\n      jump\t// in\n    tag_57:\n      mload(0x40)\n      dup1\n      swap2\n      sub\n      swap1\n      return\n        /* \"Project/TechnoLime.sol\":995:1649  function addNewProduct(string calldata _name, uint _price,uint _quantity) external{\r... */\n    tag_16:\n        /* \"Project/TechnoLime.sol\":1094:1104  productMap */\n      0x02\n        /* \"Project/TechnoLime.sol\":1105:1110  _name */\n      dup5\n      dup5\n        /* \"Project/TechnoLime.sol\":1094:1111  productMap[_name] */\n      mload(0x40)\n      tag_60\n      swap3\n      swap2\n      swap1\n      tag_61\n      jump\t// in\n    tag_60:\n      swap1\n      dup2\n      mstore\n      0x20\n      add\n      mload(0x40)\n      dup1\n      swap2\n      sub\n      swap1\n      keccak256\n      0x00\n      swap1\n      sload\n      swap1\n      0x0100\n      exp\n      swap1\n      div\n      0xff\n      and\n        /* \"Project/TechnoLime.sol\":1089:1632  if (!productMap[_name]){\r... */\n      tag_62\n      jumpi\n        /* \"Project/TechnoLime.sol\":1128:1150  Product memory product */\n      tag_63\n      tag_64\n      jump\t// in\n    tag_63:\n        /* \"Project/TechnoLime.sol\":1182:1188  _price */\n      dup3\n        /* \"Project/TechnoLime.sol\":1166:1173  product */\n      dup2\n        /* \"Project/TechnoLime.sol\":1166:1179  product.price */\n      0x00\n      add\n        /* \"Project/TechnoLime.sol\":1166:1188  product.price = _price */\n      dup2\n      dup2\n      mstore\n      pop\n      pop\n        /* \"Project/TechnoLime.sol\":1223:1232  _quantity */\n      dup2\n        /* \"Project/TechnoLime.sol\":1204:1211  product */\n      dup2\n        /* \"Project/TechnoLime.sol\":1204:1220  product.quantity */\n      0x20\n      add\n        /* \"Project/TechnoLime.sol\":1204:1232  product.quantity = _quantity */\n      dup2\n      dup2\n      mstore\n      pop\n      pop\n        /* \"Project/TechnoLime.sol\":1263:1268  _name */\n      dup5\n      dup5\n        /* \"Project/TechnoLime.sol\":1248:1268  product.name = _name */\n      dup1\n      dup1\n      0x1f\n      add\n      0x20\n      dup1\n      swap2\n      div\n      mul\n      0x20\n      add\n      mload(0x40)\n      swap1\n      dup2\n      add\n      0x40\n      mstore\n      dup1\n      swap4\n      swap3\n      swap2\n      swap1\n      dup2\n      dup2\n      mstore\n      0x20\n      add\n      dup4\n      dup4\n      dup1\n      dup3\n      dup5\n      calldatacopy\n      0x00\n      dup2\n      dup5\n      add\n      mstore\n      not(0x1f)\n      0x1f\n      dup3\n      add\n      and\n      swap1\n      pop\n      dup1\n      dup4\n      add\n      swap3\n      pop\n      pop\n      pop\n      pop\n      pop\n      pop\n      pop\n        /* \"Project/TechnoLime.sol\":1248:1255  product */\n      dup2\n        /* \"Project/TechnoLime.sol\":1248:1260  product.name */\n      0x40\n      add\n        /* \"Project/TechnoLime.sol\":1248:1268  product.name = _name */\n      dup2\n      swap1\n      mstore\n      pop\n        /* \"Project/TechnoLime.sol\":1301:1305  true */\n      0x01\n        /* \"Project/TechnoLime.sol\":1284:1291  product */\n      dup2\n        /* \"Project/TechnoLime.sol\":1284:1298  product.exists */\n      0x60\n      add\n        /* \"Project/TechnoLime.sol\":1284:1305  product.exists = true */\n      swap1\n      iszero\n      iszero\n      swap1\n      dup2\n      iszero\n      iszero\n      dup2\n      mstore\n      pop\n      pop\n        /* \"Project/TechnoLime.sol\":1358:1365  product */\n      dup1\n        /* \"Project/TechnoLime.sol\":1321:1329  products */\n      0x01\n        /* \"Project/TechnoLime.sol\":1321:1355  products[availableProducts.length] */\n      0x00\n        /* \"Project/TechnoLime.sol\":1330:1347  availableProducts */\n      dup1\n        /* \"Project/TechnoLime.sol\":1330:1354  availableProducts.length */\n      dup1\n      sload\n      swap1\n      pop\n        /* \"Project/TechnoLime.sol\":1321:1355  products[availableProducts.length] */\n      dup2\n      mstore\n      0x20\n      add\n      swap1\n      dup2\n      mstore\n      0x20\n      add\n      0x00\n      keccak256\n        /* \"Project/TechnoLime.sol\":1321:1365  products[availableProducts.length] = product */\n      0x00\n      dup3\n      add\n      mload\n      dup2\n      0x00\n      add\n      sstore\n      0x20\n      dup3\n      add\n      mload\n      dup2\n      0x01\n      add\n      sstore\n      0x40\n      dup3\n      add\n      mload\n      dup2\n      0x02\n      add\n      swap1\n      dup1\n      mload\n      swap1\n      0x20\n      add\n      swap1\n      tag_65\n      swap3\n      swap2\n      swap1\n      tag_66\n      jump\t// in\n    tag_65:\n      pop\n      0x60\n      dup3\n      add\n      mload\n      dup2\n      0x03\n      add\n      exp(0x0100, 0x00)\n      dup2\n      sload\n      dup2\n      0xff\n      mul\n      not\n      and\n      swap1\n      dup4\n      iszero\n      iszero\n      mul\n      or\n      swap1\n      sstore\n      pop\n      swap1\n      pop\n      pop\n        /* \"Project/TechnoLime.sol\":1401:1405  true */\n      0x01\n        /* \"Project/TechnoLime.sol\":1381:1391  productMap */\n      0x02\n        /* \"Project/TechnoLime.sol\":1392:1397  _name */\n      dup7\n      dup7\n        /* \"Project/TechnoLime.sol\":1381:1398  productMap[_name] */\n      mload(0x40)\n      tag_67\n      swap3\n      swap2\n      swap1\n      tag_61\n      jump\t// in\n    tag_67:\n      swap1\n      dup2\n      mstore\n      0x20\n      add\n      mload(0x40)\n      dup1\n      swap2\n      sub\n      swap1\n      keccak256\n      0x00\n        /* \"Project/TechnoLime.sol\":1381:1405  productMap[_name] = true */\n      0x0100\n      exp\n      dup2\n      sload\n      dup2\n      0xff\n      mul\n      not\n      and\n      swap1\n      dup4\n      iszero\n      iszero\n      mul\n      or\n      swap1\n      sstore\n      pop\n        /* \"Project/TechnoLime.sol\":1421:1438  availableProducts */\n      0x00\n        /* \"Project/TechnoLime.sol\":1444:1449  _name */\n      dup6\n      dup6\n        /* \"Project/TechnoLime.sol\":1421:1450  availableProducts.push(_name) */\n      swap1\n      swap2\n      dup1\n      0x01\n      dup2\n      sload\n      add\n      dup1\n      dup3\n      sstore\n      dup1\n      swap2\n      pop\n      pop\n      0x01\n      swap1\n      sub\n      swap1\n      0x00\n      mstore\n      keccak256(0x00, 0x20)\n      add\n      0x00\n      swap1\n      swap2\n      swap3\n      swap1\n      swap2\n      swap3\n      swap1\n      swap2\n      swap3\n      swap1\n      swap2\n      swap3\n      pop\n      swap2\n      swap1\n      tag_69\n      swap3\n      swap2\n      swap1\n      tag_70\n      jump\t// in\n    tag_69:\n      pop\n        /* \"Project/TechnoLime.sol\":1112:1463  {\r... */\n      pop\n        /* \"Project/TechnoLime.sol\":1089:1632  if (!productMap[_name]){\r... */\n      jump(tag_71)\n    tag_62:\n        /* \"Project/TechnoLime.sol\":1597:1619  Errors.ProductExists() */\n      mload(0x40)\n      0xb185df3a00000000000000000000000000000000000000000000000000000000\n      dup2\n      mstore\n      0x04\n      add\n      mload(0x40)\n      dup1\n      swap2\n      sub\n      swap1\n      revert\n        /* \"Project/TechnoLime.sol\":1089:1632  if (!productMap[_name]){\r... */\n    tag_71:\n        /* \"Project/TechnoLime.sol\":995:1649  function addNewProduct(string calldata _name, uint _price,uint _quantity) external{\r... */\n      pop\n      pop\n      pop\n      pop\n      jump\t// out\n        /* \"Project/TechnoLime.sol\":3481:4483  function returnProduct(uint _id) external {\r... */\n    tag_21:\n        /* \"Project/TechnoLime.sol\":3807:3808  1 */\n      0x01\n        /* \"Project/TechnoLime.sol\":3767:3779  transactions */\n      0x03\n        /* \"Project/TechnoLime.sol\":3767:3784  transactions[_id] */\n      0x00\n        /* \"Project/TechnoLime.sol\":3780:3783  _id */\n      dup4\n        /* \"Project/TechnoLime.sol\":3767:3784  transactions[_id] */\n      dup2\n      mstore\n      0x20\n      add\n      swap1\n      dup2\n      mstore\n      0x20\n      add\n      0x00\n      keccak256\n        /* \"Project/TechnoLime.sol\":3767:3796  transactions[_id][msg.sender] */\n      0x00\n        /* \"Project/TechnoLime.sol\":3785:3795  msg.sender */\n      caller\n        /* \"Project/TechnoLime.sol\":3767:3796  transactions[_id][msg.sender] */\n      0xffffffffffffffffffffffffffffffffffffffff\n      and\n      0xffffffffffffffffffffffffffffffffffffffff\n      and\n      dup2\n      mstore\n      0x20\n      add\n      swap1\n      dup2\n      mstore\n      0x20\n      add\n      0x00\n      keccak256\n        /* \"Project/TechnoLime.sol\":3767:3803  transactions[_id][msg.sender].status */\n      0x02\n      add\n      sload\n        /* \"Project/TechnoLime.sol\":3767:3808  transactions[_id][msg.sender].status == 1 */\n      eq\n        /* \"Project/TechnoLime.sol\":3763:4476  if (transactions[_id][msg.sender].status == 1){ \r... */\n      iszero\n      tag_73\n      jumpi\n        /* \"Project/TechnoLime.sol\":3937:3967  Transaction memory transaction */\n      0x00\n        /* \"Project/TechnoLime.sol\":3970:3982  transactions */\n      0x03\n        /* \"Project/TechnoLime.sol\":3970:3987  transactions[_id] */\n      0x00\n        /* \"Project/TechnoLime.sol\":3983:3986  _id */\n      dup4\n        /* \"Project/TechnoLime.sol\":3970:3987  transactions[_id] */\n      dup2\n      mstore\n      0x20\n      add\n      swap1\n      dup2\n      mstore\n      0x20\n      add\n      0x00\n      keccak256\n        /* \"Project/TechnoLime.sol\":3970:3999  transactions[_id][msg.sender] */\n      0x00\n        /* \"Project/TechnoLime.sol\":3988:3998  msg.sender */\n      caller\n        /* \"Project/TechnoLime.sol\":3970:3999  transactions[_id][msg.sender] */\n      0xffffffffffffffffffffffffffffffffffffffff\n      and\n      0xffffffffffffffffffffffffffffffffffffffff\n      and\n      dup2\n      mstore\n      0x20\n      add\n      swap1\n      dup2\n      mstore\n      0x20\n      add\n      0x00\n      keccak256\n        /* \"Project/TechnoLime.sol\":3937:3999  Transaction memory transaction = transactions[_id][msg.sender] */\n      mload(0x40)\n      dup1\n      0x60\n      add\n      0x40\n      mstore\n      swap1\n      dup2\n      0x00\n      dup3\n      add\n      sload\n      dup2\n      mstore\n      0x20\n      add\n      0x01\n      dup3\n      add\n      sload\n      dup2\n      mstore\n      0x20\n      add\n      0x02\n      dup3\n      add\n      sload\n      dup2\n      mstore\n      pop\n      pop\n      swap1\n      pop\n        /* \"Project/TechnoLime.sol\":4057:4060  100 */\n      0x64\n        /* \"Project/TechnoLime.sol\":4033:4044  transaction */\n      dup2\n        /* \"Project/TechnoLime.sol\":4033:4053  transaction.blockNum */\n      0x00\n      add\n      mload\n        /* \"Project/TechnoLime.sol\":4018:4030  block.number */\n      number\n        /* \"Project/TechnoLime.sol\":4018:4053  block.number - transaction.blockNum */\n      tag_74\n      swap2\n      swap1\n      tag_75\n      jump\t// in\n    tag_74:\n        /* \"Project/TechnoLime.sol\":4017:4060  (block.number - transaction.blockNum) > 100 */\n      gt\n        /* \"Project/TechnoLime.sol\":4014:4112  if((block.number - transaction.blockNum) > 100)\r... */\n      iszero\n      tag_76\n      jumpi\n        /* \"Project/TechnoLime.sol\":4086:4112  Errors.Blocks100Exceeded() */\n      mload(0x40)\n      0x6e9beb2100000000000000000000000000000000000000000000000000000000\n      dup2\n      mstore\n      0x04\n      add\n      mload(0x40)\n      dup1\n      swap2\n      sub\n      swap1\n      revert\n        /* \"Project/TechnoLime.sol\":4014:4112  if((block.number - transaction.blockNum) > 100)\r... */\n    tag_76:\n        /* \"Project/TechnoLime.sol\":4200:4201  2 */\n      0x02\n        /* \"Project/TechnoLime.sol\":4161:4173  transactions */\n      0x03\n        /* \"Project/TechnoLime.sol\":4161:4178  transactions[_id] */\n      0x00\n        /* \"Project/TechnoLime.sol\":4174:4177  _id */\n      dup5\n        /* \"Project/TechnoLime.sol\":4161:4178  transactions[_id] */\n      dup2\n      mstore\n      0x20\n      add\n      swap1\n      dup2\n      mstore\n      0x20\n      add\n      0x00\n      keccak256\n        /* \"Project/TechnoLime.sol\":4161:4190  transactions[_id][msg.sender] */\n      0x00\n        /* \"Project/TechnoLime.sol\":4179:4189  msg.sender */\n      caller\n        /* \"Project/TechnoLime.sol\":4161:4190  transactions[_id][msg.sender] */\n      0xffffffffffffffffffffffffffffffffffffffff\n      and\n      0xffffffffffffffffffffffffffffffffffffffff\n      and\n      dup2\n      mstore\n      0x20\n      add\n      swap1\n      dup2\n      mstore\n      0x20\n      add\n      0x00\n      keccak256\n        /* \"Project/TechnoLime.sol\":4161:4197  transactions[_id][msg.sender].status */\n      0x02\n      add\n        /* \"Project/TechnoLime.sol\":4161:4201  transactions[_id][msg.sender].status = 2 */\n      dup2\n      swap1\n      sstore\n      pop\n        /* \"Project/TechnoLime.sol\":4248:4256  products */\n      0x01\n        /* \"Project/TechnoLime.sol\":4248:4261  products[_id] */\n      0x00\n        /* \"Project/TechnoLime.sol\":4257:4260  _id */\n      dup4\n        /* \"Project/TechnoLime.sol\":4248:4261  products[_id] */\n      dup2\n      mstore\n      0x20\n      add\n      swap1\n      dup2\n      mstore\n      0x20\n      add\n      0x00\n      keccak256\n        /* \"Project/TechnoLime.sol\":4248:4270  products[_id].quantity */\n      0x01\n      add\n      0x00\n        /* \"Project/TechnoLime.sol\":4248:4273  products[_id].quantity ++ */\n      dup2\n      sload\n      dup1\n      swap3\n      swap2\n      swap1\n      tag_77\n      swap1\n      tag_78\n      jump\t// in\n    tag_77:\n      swap2\n      swap1\n      pop\n      sstore\n      pop\n        /* \"Project/TechnoLime.sol\":3809:4299  { \r... */\n      pop\n        /* \"Project/TechnoLime.sol\":3763:4476  if (transactions[_id][msg.sender].status == 1){ \r... */\n      jump(tag_79)\n    tag_73:\n        /* \"Project/TechnoLime.sol\":4433:4464  Errors.TransactionNotExistent() */\n      mload(0x40)\n      0xc55091df00000000000000000000000000000000000000000000000000000000\n      dup2\n      mstore\n      0x04\n      add\n      mload(0x40)\n      dup1\n      swap2\n      sub\n      swap1\n      revert\n        /* \"Project/TechnoLime.sol\":3763:4476  if (transactions[_id][msg.sender].status == 1){ \r... */\n    tag_79:\n        /* \"Project/TechnoLime.sol\":3481:4483  function returnProduct(uint _id) external {\r... */\n      pop\n      jump\t// out\n        /* \"Project/TechnoLime.sol\":894:933  mapping(uint =>address[]) public buyers */\n    tag_26:\n      mstore(0x20, 0x04)\n      dup2\n      0x00\n      mstore\n      keccak256(0x00, 0x40)\n      dup2\n      dup2\n      sload\n      dup2\n      lt\n      tag_80\n      jumpi\n      0x00\n      dup1\n      revert\n    tag_80:\n      swap1\n      0x00\n      mstore\n      keccak256(0x00, 0x20)\n      add\n      0x00\n      swap2\n      pop\n      swap2\n      pop\n      swap1\n      sload\n      swap1\n      0x0100\n      exp\n      swap1\n      div\n      0xffffffffffffffffffffffffffffffffffffffff\n      and\n      dup2\n      jump\t// out\n        /* \"Project/TechnoLime.sol\":4643:4688  function withdraw(uint _id) public {\r... */\n    tag_32:\n      pop\n      jump\t// out\n        /* \"Project/TechnoLime.sol\":819:887  mapping(uint => mapping(address => Transaction)) public transactions */\n    tag_37:\n      mstore(0x20, 0x03)\n      dup2\n      0x00\n      mstore\n      mstore(0x20, keccak256(0x00, 0x40))\n      dup1\n      0x00\n      mstore\n      keccak256(0x00, 0x40)\n      0x00\n      swap2\n      pop\n      swap2\n      pop\n      pop\n      dup1\n      0x00\n      add\n      sload\n      swap1\n      dup1\n      0x01\n      add\n      sload\n      swap1\n      dup1\n      0x02\n      add\n      sload\n      swap1\n      pop\n      dup4\n      jump\t// out\n        /* \"Project/TechnoLime.sol\":1657:1991  function updateQuantity(uint _id,uint _quantity) external{\r... */\n    tag_43:\n        /* \"Project/TechnoLime.sol\":1729:1737  products */\n      0x01\n        /* \"Project/TechnoLime.sol\":1729:1742  products[_id] */\n      0x00\n        /* \"Project/TechnoLime.sol\":1738:1741  _id */\n      dup4\n        /* \"Project/TechnoLime.sol\":1729:1742  products[_id] */\n      dup2\n      mstore\n      0x20\n      add\n      swap1\n      dup2\n      mstore\n      0x20\n      add\n      0x00\n      keccak256\n        /* \"Project/TechnoLime.sol\":1729:1749  products[_id].exists */\n      0x03\n      add\n      0x00\n      swap1\n      sload\n      swap1\n      0x0100\n      exp\n      swap1\n      div\n      0xff\n      and\n        /* \"Project/TechnoLime.sol\":1725:1984  if (products[_id].exists){\r... */\n      iszero\n      tag_84\n      jumpi\n        /* \"Project/TechnoLime.sol\":1791:1800  _quantity */\n      dup1\n        /* \"Project/TechnoLime.sol\":1765:1773  products */\n      0x01\n        /* \"Project/TechnoLime.sol\":1765:1778  products[_id] */\n      0x00\n        /* \"Project/TechnoLime.sol\":1774:1777  _id */\n      dup5\n        /* \"Project/TechnoLime.sol\":1765:1778  products[_id] */\n      dup2\n      mstore\n      0x20\n      add\n      swap1\n      dup2\n      mstore\n      0x20\n      add\n      0x00\n      keccak256\n        /* \"Project/TechnoLime.sol\":1765:1787  products[_id].quantity */\n      0x01\n      add\n      0x00\n        /* \"Project/TechnoLime.sol\":1765:1800  products[_id].quantity += _quantity */\n      dup3\n      dup3\n      sload\n      tag_85\n      swap2\n      swap1\n      tag_86\n      jump\t// in\n    tag_85:\n      swap3\n      pop\n      pop\n      dup2\n      swap1\n      sstore\n      pop\n        /* \"Project/TechnoLime.sol\":1725:1984  if (products[_id].exists){\r... */\n      jump(tag_87)\n    tag_84:\n        /* \"Project/TechnoLime.sol\":1945:1972  Errors.ProductNotExistent() */\n      mload(0x40)\n      0x7e8d96a900000000000000000000000000000000000000000000000000000000\n      dup2\n      mstore\n      0x04\n      add\n      mload(0x40)\n      dup1\n      swap2\n      sub\n      swap1\n      revert\n        /* \"Project/TechnoLime.sol\":1725:1984  if (products[_id].exists){\r... */\n    tag_87:\n        /* \"Project/TechnoLime.sol\":1657:1991  function updateQuantity(uint _id,uint _quantity) external{\r... */\n      pop\n      pop\n      jump\t// out\n        /* \"Project/TechnoLime.sol\":634:674  mapping(uint => Product) public products */\n    tag_47:\n      mstore(0x20, 0x01)\n      dup1\n      0x00\n      mstore\n      keccak256(0x00, 0x40)\n      0x00\n      swap2\n      pop\n      swap1\n      pop\n      dup1\n      0x00\n      add\n      sload\n      swap1\n      dup1\n      0x01\n      add\n      sload\n      swap1\n      dup1\n      0x02\n      add\n      dup1\n      sload\n      tag_88\n      swap1\n      tag_89\n      jump\t// in\n    tag_88:\n      dup1\n      0x1f\n      add\n      0x20\n      dup1\n      swap2\n      div\n      mul\n      0x20\n      add\n      mload(0x40)\n      swap1\n      dup2\n      add\n      0x40\n      mstore\n      dup1\n      swap3\n      swap2\n      swap1\n      dup2\n      dup2\n      mstore\n      0x20\n      add\n      dup3\n      dup1\n      sload\n      tag_90\n      swap1\n      tag_89\n      jump\t// in\n    tag_90:\n      dup1\n      iszero\n      tag_91\n      jumpi\n      dup1\n      0x1f\n      lt\n      tag_92\n      jumpi\n      0x0100\n      dup1\n      dup4\n      sload\n      div\n      mul\n      dup4\n      mstore\n      swap2\n      0x20\n      add\n      swap2\n      jump(tag_91)\n    tag_92:\n      dup3\n      add\n      swap2\n      swap1\n      0x00\n      mstore\n      keccak256(0x00, 0x20)\n      swap1\n    tag_93:\n      dup2\n      sload\n      dup2\n      mstore\n      swap1\n      0x01\n      add\n      swap1\n      0x20\n      add\n      dup1\n      dup4\n      gt\n      tag_93\n      jumpi\n      dup3\n      swap1\n      sub\n      0x1f\n      and\n      dup3\n      add\n      swap2\n    tag_91:\n      pop\n      pop\n      pop\n      pop\n      pop\n      swap1\n      dup1\n      0x03\n      add\n      0x00\n      swap1\n      sload\n      swap1\n      0x0100\n      exp\n      swap1\n      div\n      0xff\n      and\n      swap1\n      pop\n      dup5\n      jump\t// out\n        /* \"Project/TechnoLime.sol\":2094:3355  function buyProduct (uint _id)  external payable { \r... */\n    tag_52:\n        /* \"Project/TechnoLime.sol\":2270:2287  availableProducts */\n      0x00\n        /* \"Project/TechnoLime.sol\":2270:2294  availableProducts.length */\n      dup1\n      sload\n      swap1\n      pop\n        /* \"Project/TechnoLime.sol\":2264:2267  _id */\n      dup2\n        /* \"Project/TechnoLime.sol\":2264:2294  _id < availableProducts.length */\n      lt\n        /* \"Project/TechnoLime.sol\":2264:2339  _id < availableProducts.length && transactions[_id][msg.sender].status != 1 */\n      dup1\n      iszero\n      tag_95\n      jumpi\n      pop\n        /* \"Project/TechnoLime.sol\":2338:2339  1 */\n      0x01\n        /* \"Project/TechnoLime.sol\":2298:2310  transactions */\n      0x03\n        /* \"Project/TechnoLime.sol\":2298:2315  transactions[_id] */\n      0x00\n        /* \"Project/TechnoLime.sol\":2311:2314  _id */\n      dup4\n        /* \"Project/TechnoLime.sol\":2298:2315  transactions[_id] */\n      dup2\n      mstore\n      0x20\n      add\n      swap1\n      dup2\n      mstore\n      0x20\n      add\n      0x00\n      keccak256\n        /* \"Project/TechnoLime.sol\":2298:2327  transactions[_id][msg.sender] */\n      0x00\n        /* \"Project/TechnoLime.sol\":2316:2326  msg.sender */\n      caller\n        /* \"Project/TechnoLime.sol\":2298:2327  transactions[_id][msg.sender] */\n      0xffffffffffffffffffffffffffffffffffffffff\n      and\n      0xffffffffffffffffffffffffffffffffffffffff\n      and\n      dup2\n      mstore\n      0x20\n      add\n      swap1\n      dup2\n      mstore\n      0x20\n      add\n      0x00\n      keccak256\n        /* \"Project/TechnoLime.sol\":2298:2334  transactions[_id][msg.sender].status */\n      0x02\n      add\n      sload\n        /* \"Project/TechnoLime.sol\":2298:2339  transactions[_id][msg.sender].status != 1 */\n      eq\n      iszero\n        /* \"Project/TechnoLime.sol\":2264:2339  _id < availableProducts.length && transactions[_id][msg.sender].status != 1 */\n    tag_95:\n        /* \"Project/TechnoLime.sol\":2261:3335  if(_id < availableProducts.length && transactions[_id][msg.sender].status != 1){\r... */\n      iszero\n      tag_96\n      jumpi\n        /* \"Project/TechnoLime.sol\":2493:2515  Product memory product */\n      0x00\n        /* \"Project/TechnoLime.sol\":2517:2525  products */\n      0x01\n        /* \"Project/TechnoLime.sol\":2517:2530  products[_id] */\n      0x00\n        /* \"Project/TechnoLime.sol\":2526:2529  _id */\n      dup4\n        /* \"Project/TechnoLime.sol\":2517:2530  products[_id] */\n      dup2\n      mstore\n      0x20\n      add\n      swap1\n      dup2\n      mstore\n      0x20\n      add\n      0x00\n      keccak256\n        /* \"Project/TechnoLime.sol\":2493:2530  Product memory product= products[_id] */\n      mload(0x40)\n      dup1\n      0x80\n      add\n      0x40\n      mstore\n      swap1\n      dup2\n      0x00\n      dup3\n      add\n      sload\n      dup2\n      mstore\n      0x20\n      add\n      0x01\n      dup3\n      add\n      sload\n      dup2\n      mstore\n      0x20\n      add\n      0x02\n      dup3\n      add\n      dup1\n      sload\n      tag_97\n      swap1\n      tag_89\n      jump\t// in\n    tag_97:\n      dup1\n      0x1f\n      add\n      0x20\n      dup1\n      swap2\n      div\n      mul\n      0x20\n      add\n      mload(0x40)\n      swap1\n      dup2\n      add\n      0x40\n      mstore\n      dup1\n      swap3\n      swap2\n      swap1\n      dup2\n      dup2\n      mstore\n      0x20\n      add\n      dup3\n      dup1\n      sload\n      tag_98\n      swap1\n      tag_89\n      jump\t// in\n    tag_98:\n      dup1\n      iszero\n      tag_99\n      jumpi\n      dup1\n      0x1f\n      lt\n      tag_100\n      jumpi\n      0x0100\n      dup1\n      dup4\n      sload\n      div\n      mul\n      dup4\n      mstore\n      swap2\n      0x20\n      add\n      swap2\n      jump(tag_99)\n    tag_100:\n      dup3\n      add\n      swap2\n      swap1\n      0x00\n      mstore\n      keccak256(0x00, 0x20)\n      swap1\n    tag_101:\n      dup2\n      sload\n      dup2\n      mstore\n      swap1\n      0x01\n      add\n      swap1\n      0x20\n      add\n      dup1\n      dup4\n      gt\n      tag_101\n      jumpi\n      dup3\n      swap1\n      sub\n      0x1f\n      and\n      dup3\n      add\n      swap2\n    tag_99:\n      pop\n      pop\n      pop\n      pop\n      pop\n      dup2\n      mstore\n      0x20\n      add\n      0x03\n      dup3\n      add\n      0x00\n      swap1\n      sload\n      swap1\n      0x0100\n      exp\n      swap1\n      div\n      0xff\n      and\n      iszero\n      iszero\n      iszero\n      iszero\n      dup2\n      mstore\n      pop\n      pop\n      swap1\n      pop\n        /* \"Project/TechnoLime.sol\":2560:2567  product */\n      dup1\n        /* \"Project/TechnoLime.sol\":2560:2573  product.price */\n      0x00\n      add\n      mload\n        /* \"Project/TechnoLime.sol\":2548:2557  msg.value */\n      callvalue\n        /* \"Project/TechnoLime.sol\":2548:2573  msg.value < product.price */\n      lt\n        /* \"Project/TechnoLime.sol\":2548:2597  msg.value < product.price || product.quantity < 1 */\n      dup1\n      tag_102\n      jumpi\n      pop\n        /* \"Project/TechnoLime.sol\":2596:2597  1 */\n      0x01\n        /* \"Project/TechnoLime.sol\":2577:2584  product */\n      dup2\n        /* \"Project/TechnoLime.sol\":2577:2593  product.quantity */\n      0x20\n      add\n      mload\n        /* \"Project/TechnoLime.sol\":2577:2597  product.quantity < 1 */\n      lt\n        /* \"Project/TechnoLime.sol\":2548:2597  msg.value < product.price || product.quantity < 1 */\n    tag_102:\n        /* \"Project/TechnoLime.sol\":2545:2725  if(msg.value < product.price || product.quantity < 1)\r... */\n      iszero\n      tag_103\n      jumpi\n        /* \"Project/TechnoLime.sol\":2691:2725  Errors.LessThanPriceOrOutOfStock() */\n      mload(0x40)\n      0xf80236cc00000000000000000000000000000000000000000000000000000000\n      dup2\n      mstore\n      0x04\n      add\n      mload(0x40)\n      dup1\n      swap2\n      sub\n      swap1\n      revert\n        /* \"Project/TechnoLime.sol\":2545:2725  if(msg.value < product.price || product.quantity < 1)\r... */\n    tag_103:\n        /* \"Project/TechnoLime.sol\":2742:2775  Transaction memory newTransaction */\n      tag_104\n      tag_105\n      jump\t// in\n    tag_104:\n        /* \"Project/TechnoLime.sol\":2816:2828  block.number */\n      number\n        /* \"Project/TechnoLime.sol\":2790:2804  newTransaction */\n      dup2\n        /* \"Project/TechnoLime.sol\":2790:2813  newTransaction.blockNum */\n      0x00\n      add\n        /* \"Project/TechnoLime.sol\":2790:2828  newTransaction.blockNum = block.number */\n      dup2\n      dup2\n      mstore\n      pop\n      pop\n        /* \"Project/TechnoLime.sol\":2866:2873  product */\n      dup2\n        /* \"Project/TechnoLime.sol\":2866:2879  product.price */\n      0x00\n      add\n      mload\n        /* \"Project/TechnoLime.sol\":2843:2857  newTransaction */\n      dup2\n        /* \"Project/TechnoLime.sol\":2843:2863  newTransaction.price */\n      0x20\n      add\n        /* \"Project/TechnoLime.sol\":2843:2879  newTransaction.price = product.price */\n      dup2\n      dup2\n      mstore\n      pop\n      pop\n        /* \"Project/TechnoLime.sol\":2918:2919  1 */\n      0x01\n        /* \"Project/TechnoLime.sol\":2894:2908  newTransaction */\n      dup2\n        /* \"Project/TechnoLime.sol\":2894:2915  newTransaction.status */\n      0x40\n      add\n        /* \"Project/TechnoLime.sol\":2894:2919  newTransaction.status = 1 */\n      dup2\n      dup2\n      mstore\n      pop\n      pop\n        /* \"Project/TechnoLime.sol\":2998:3012  newTransaction */\n      dup1\n        /* \"Project/TechnoLime.sol\":2966:2978  transactions */\n      0x03\n        /* \"Project/TechnoLime.sol\":2966:2983  transactions[_id] */\n      0x00\n        /* \"Project/TechnoLime.sol\":2979:2982  _id */\n      dup6\n        /* \"Project/TechnoLime.sol\":2966:2983  transactions[_id] */\n      dup2\n      mstore\n      0x20\n      add\n      swap1\n      dup2\n      mstore\n      0x20\n      add\n      0x00\n      keccak256\n        /* \"Project/TechnoLime.sol\":2966:2995  transactions[_id][msg.sender] */\n      0x00\n        /* \"Project/TechnoLime.sol\":2984:2994  msg.sender */\n      caller\n        /* \"Project/TechnoLime.sol\":2966:2995  transactions[_id][msg.sender] */\n      0xffffffffffffffffffffffffffffffffffffffff\n      and\n      0xffffffffffffffffffffffffffffffffffffffff\n      and\n      dup2\n      mstore\n      0x20\n      add\n      swap1\n      dup2\n      mstore\n      0x20\n      add\n      0x00\n      keccak256\n        /* \"Project/TechnoLime.sol\":2966:3012  transactions[_id][msg.sender] = newTransaction */\n      0x00\n      dup3\n      add\n      mload\n      dup2\n      0x00\n      add\n      sstore\n      0x20\n      dup3\n      add\n      mload\n      dup2\n      0x01\n      add\n      sstore\n      0x40\n      dup3\n      add\n      mload\n      dup2\n      0x02\n      add\n      sstore\n      swap1\n      pop\n      pop\n        /* \"Project/TechnoLime.sol\":3029:3036  product */\n      dup2\n        /* \"Project/TechnoLime.sol\":3029:3045  product.quantity */\n      0x20\n      add\n        /* \"Project/TechnoLime.sol\":3029:3047  product.quantity-- */\n      dup1\n      mload\n      dup1\n      swap2\n      swap1\n      tag_106\n      swap1\n      tag_107\n      jump\t// in\n    tag_106:\n      dup2\n      mstore\n      pop\n      pop\n        /* \"Project/TechnoLime.sol\":3108:3115  product */\n      dup2\n        /* \"Project/TechnoLime.sol\":3094:3102  products */\n      0x01\n        /* \"Project/TechnoLime.sol\":3094:3107  products[_id] */\n      0x00\n        /* \"Project/TechnoLime.sol\":3103:3106  _id */\n      dup6\n        /* \"Project/TechnoLime.sol\":3094:3107  products[_id] */\n      dup2\n      mstore\n      0x20\n      add\n      swap1\n      dup2\n      mstore\n      0x20\n      add\n      0x00\n      keccak256\n        /* \"Project/TechnoLime.sol\":3094:3115  products[_id]=product */\n      0x00\n      dup3\n      add\n      mload\n      dup2\n      0x00\n      add\n      sstore\n      0x20\n      dup3\n      add\n      mload\n      dup2\n      0x01\n      add\n      sstore\n      0x40\n      dup3\n      add\n      mload\n      dup2\n      0x02\n      add\n      swap1\n      dup1\n      mload\n      swap1\n      0x20\n      add\n      swap1\n      tag_108\n      swap3\n      swap2\n      swap1\n      tag_66\n      jump\t// in\n    tag_108:\n      pop\n      0x60\n      dup3\n      add\n      mload\n      dup2\n      0x03\n      add\n      exp(0x0100, 0x00)\n      dup2\n      sload\n      dup2\n      0xff\n      mul\n      not\n      and\n      swap1\n      dup4\n      iszero\n      iszero\n      mul\n      or\n      swap1\n      sstore\n      pop\n      swap1\n      pop\n      pop\n        /* \"Project/TechnoLime.sol\":3156:3162  buyers */\n      0x04\n        /* \"Project/TechnoLime.sol\":3156:3167  buyers[_id] */\n      0x00\n        /* \"Project/TechnoLime.sol\":3163:3166  _id */\n      dup5\n        /* \"Project/TechnoLime.sol\":3156:3167  buyers[_id] */\n      dup2\n      mstore\n      0x20\n      add\n      swap1\n      dup2\n      mstore\n      0x20\n      add\n      0x00\n      keccak256\n        /* \"Project/TechnoLime.sol\":3173:3183  msg.sender */\n      caller\n        /* \"Project/TechnoLime.sol\":3156:3184  buyers[_id].push(msg.sender) */\n      swap1\n      dup1\n      0x01\n      dup2\n      sload\n      add\n      dup1\n      dup3\n      sstore\n      dup1\n      swap2\n      pop\n      pop\n      0x01\n      swap1\n      sub\n      swap1\n      0x00\n      mstore\n      keccak256(0x00, 0x20)\n      add\n      0x00\n      swap1\n      swap2\n      swap1\n      swap2\n      swap1\n      swap2\n      0x0100\n      exp\n      dup2\n      sload\n      dup2\n      0xffffffffffffffffffffffffffffffffffffffff\n      mul\n      not\n      and\n      swap1\n      dup4\n      0xffffffffffffffffffffffffffffffffffffffff\n      and\n      mul\n      or\n      swap1\n      sstore\n      pop\n        /* \"Project/TechnoLime.sol\":2340:3198  {\r... */\n      pop\n      pop\n        /* \"Project/TechnoLime.sol\":2261:3335  if(_id < availableProducts.length && transactions[_id][msg.sender].status != 1){\r... */\n      jump(tag_110)\n    tag_96:\n        /* \"Project/TechnoLime.sol\":3288:3323  Errors.ItemIdWrongOrBoughtAlready() */\n      mload(0x40)\n      0xd42c9b8b00000000000000000000000000000000000000000000000000000000\n      dup2\n      mstore\n      0x04\n      add\n      mload(0x40)\n      dup1\n      swap2\n      sub\n      swap1\n      revert\n        /* \"Project/TechnoLime.sol\":2261:3335  if(_id < availableProducts.length && transactions[_id][msg.sender].status != 1){\r... */\n    tag_110:\n        /* \"Project/TechnoLime.sol\":2094:3355  function buyProduct (uint _id)  external payable { \r... */\n      pop\n      jump\t// out\n        /* \"Project/TechnoLime.sol\":594:627  string[] public availableProducts */\n    tag_56:\n      0x00\n      dup2\n      dup2\n      sload\n      dup2\n      lt\n      tag_111\n      jumpi\n      0x00\n      dup1\n      revert\n    tag_111:\n      swap1\n      0x00\n      mstore\n      keccak256(0x00, 0x20)\n      add\n      0x00\n      swap2\n      pop\n      swap1\n      pop\n      dup1\n      sload\n      tag_113\n      swap1\n      tag_89\n      jump\t// in\n    tag_113:\n      dup1\n      0x1f\n      add\n      0x20\n      dup1\n      swap2\n      div\n      mul\n      0x20\n      add\n      mload(0x40)\n      swap1\n      dup2\n      add\n      0x40\n      mstore\n      dup1\n      swap3\n      swap2\n      swap1\n      dup2\n      dup2\n      mstore\n      0x20\n      add\n      dup3\n      dup1\n      sload\n      tag_114\n      swap1\n      tag_89\n      jump\t// in\n    tag_114:\n      dup1\n      iszero\n      tag_115\n      jumpi\n      dup1\n      0x1f\n      lt\n      tag_116\n      jumpi\n      0x0100\n      dup1\n      dup4\n      sload\n      div\n      mul\n      dup4\n      mstore\n      swap2\n      0x20\n      add\n      swap2\n      jump(tag_115)\n    tag_116:\n      dup3\n      add\n      swap2\n      swap1\n      0x00\n      mstore\n      keccak256(0x00, 0x20)\n      swap1\n    tag_117:\n      dup2\n      sload\n      dup2\n      mstore\n      swap1\n      0x01\n      add\n      swap1\n      0x20\n      add\n      dup1\n      dup4\n      gt\n      tag_117\n      jumpi\n      dup3\n      swap1\n      sub\n      0x1f\n      and\n      dup3\n      add\n      swap2\n    tag_115:\n      pop\n      pop\n      pop\n      pop\n      pop\n      dup2\n      jump\t// out\n    tag_64:\n      mload(0x40)\n      dup1\n      0x80\n      add\n      0x40\n      mstore\n      dup1\n      0x00\n      dup2\n      mstore\n      0x20\n      add\n      0x00\n      dup2\n      mstore\n      0x20\n      add\n      0x60\n      dup2\n      mstore\n      0x20\n      add\n      iszero(iszero(0x00))\n      dup2\n      mstore\n      pop\n      swap1\n      jump\t// out\n    tag_66:\n      dup3\n      dup1\n      sload\n      tag_118\n      swap1\n      tag_89\n      jump\t// in\n    tag_118:\n      swap1\n      0x00\n      mstore\n      keccak256(0x00, 0x20)\n      swap1\n      0x1f\n      add\n      0x20\n      swap1\n      div\n      dup2\n      add\n      swap3\n      dup3\n      tag_120\n      jumpi\n      0x00\n      dup6\n      sstore\n      jump(tag_119)\n    tag_120:\n      dup3\n      0x1f\n      lt\n      tag_121\n      jumpi\n      dup1\n      mload\n      not(0xff)\n      and\n      dup4\n      dup1\n      add\n      or\n      dup6\n      sstore\n      jump(tag_119)\n    tag_121:\n      dup3\n      dup1\n      add\n      0x01\n      add\n      dup6\n      sstore\n      dup3\n      iszero\n      tag_119\n      jumpi\n      swap2\n      dup3\n      add\n    tag_122:\n      dup3\n      dup2\n      gt\n      iszero\n      tag_123\n      jumpi\n      dup3\n      mload\n      dup3\n      sstore\n      swap2\n      0x20\n      add\n      swap2\n      swap1\n      0x01\n      add\n      swap1\n      jump(tag_122)\n    tag_123:\n    tag_119:\n      pop\n      swap1\n      pop\n      tag_124\n      swap2\n      swap1\n      tag_125\n      jump\t// in\n    tag_124:\n      pop\n      swap1\n      jump\t// out\n    tag_70:\n      dup3\n      dup1\n      sload\n      tag_126\n      swap1\n      tag_89\n      jump\t// in\n    tag_126:\n      swap1\n      0x00\n      mstore\n      keccak256(0x00, 0x20)\n      swap1\n      0x1f\n      add\n      0x20\n      swap1\n      div\n      dup2\n      add\n      swap3\n      dup3\n      tag_128\n      jumpi\n      0x00\n      dup6\n      sstore\n      jump(tag_127)\n    tag_128:\n      dup3\n      0x1f\n      lt\n      tag_129\n      jumpi\n      dup1\n      calldataload\n      not(0xff)\n      and\n      dup4\n      dup1\n      add\n      or\n      dup6\n      sstore\n      jump(tag_127)\n    tag_129:\n      dup3\n      dup1\n      add\n      0x01\n      add\n      dup6\n      sstore\n      dup3\n      iszero\n      tag_127\n      jumpi\n      swap2\n      dup3\n      add\n    tag_130:\n      dup3\n      dup2\n      gt\n      iszero\n      tag_131\n      jumpi\n      dup3\n      calldataload\n      dup3\n      sstore\n      swap2\n      0x20\n      add\n      swap2\n      swap1\n      0x01\n      add\n      swap1\n      jump(tag_130)\n    tag_131:\n    tag_127:\n      pop\n      swap1\n      pop\n      tag_132\n      swap2\n      swap1\n      tag_125\n      jump\t// in\n    tag_132:\n      pop\n      swap1\n      jump\t// out\n    tag_105:\n      mload(0x40)\n      dup1\n      0x60\n      add\n      0x40\n      mstore\n      dup1\n      0x00\n      dup2\n      mstore\n      0x20\n      add\n      0x00\n      dup2\n      mstore\n      0x20\n      add\n      0x00\n      dup2\n      mstore\n      pop\n      swap1\n      jump\t// out\n    tag_125:\n    tag_133:\n      dup1\n      dup3\n      gt\n      iszero\n      tag_134\n      jumpi\n      0x00\n      dup2\n      0x00\n      swap1\n      sstore\n      pop\n      0x01\n      add\n      jump(tag_133)\n    tag_134:\n      pop\n      swap1\n      jump\t// out\n        /* \"#utility.yul\":7:146   */\n    tag_136:\n        /* \"#utility.yul\":53:58   */\n      0x00\n        /* \"#utility.yul\":91:97   */\n      dup2\n        /* \"#utility.yul\":78:98   */\n      calldataload\n        /* \"#utility.yul\":69:98   */\n      swap1\n      pop\n        /* \"#utility.yul\":107:140   */\n      tag_138\n        /* \"#utility.yul\":134:139   */\n      dup2\n        /* \"#utility.yul\":107:140   */\n      tag_139\n      jump\t// in\n    tag_138:\n        /* \"#utility.yul\":7:146   */\n      swap3\n      swap2\n      pop\n      pop\n      jump\t// out\n        /* \"#utility.yul\":166:719   */\n    tag_140:\n        /* \"#utility.yul\":224:232   */\n      0x00\n        /* \"#utility.yul\":234:240   */\n      dup1\n        /* \"#utility.yul\":284:287   */\n      dup4\n        /* \"#utility.yul\":277:281   */\n      0x1f\n        /* \"#utility.yul\":269:275   */\n      dup5\n        /* \"#utility.yul\":265:282   */\n      add\n        /* \"#utility.yul\":261:288   */\n      slt\n        /* \"#utility.yul\":251:373   */\n      tag_142\n      jumpi\n        /* \"#utility.yul\":292:371   */\n      tag_143\n      tag_144\n      jump\t// in\n    tag_143:\n        /* \"#utility.yul\":251:373   */\n    tag_142:\n        /* \"#utility.yul\":405:411   */\n      dup3\n        /* \"#utility.yul\":392:412   */\n      calldataload\n        /* \"#utility.yul\":382:412   */\n      swap1\n      pop\n        /* \"#utility.yul\":435:453   */\n      0xffffffffffffffff\n        /* \"#utility.yul\":427:433   */\n      dup2\n        /* \"#utility.yul\":424:454   */\n      gt\n        /* \"#utility.yul\":421:538   */\n      iszero\n      tag_145\n      jumpi\n        /* \"#utility.yul\":457:536   */\n      tag_146\n      tag_147\n      jump\t// in\n    tag_146:\n        /* \"#utility.yul\":421:538   */\n    tag_145:\n        /* \"#utility.yul\":571:575   */\n      0x20\n        /* \"#utility.yul\":563:569   */\n      dup4\n        /* \"#utility.yul\":559:576   */\n      add\n        /* \"#utility.yul\":547:576   */\n      swap2\n      pop\n        /* \"#utility.yul\":625:628   */\n      dup4\n        /* \"#utility.yul\":617:621   */\n      0x01\n        /* \"#utility.yul\":609:615   */\n      dup3\n        /* \"#utility.yul\":605:622   */\n      mul\n        /* \"#utility.yul\":595:603   */\n      dup4\n        /* \"#utility.yul\":591:623   */\n      add\n        /* \"#utility.yul\":588:629   */\n      gt\n        /* \"#utility.yul\":585:713   */\n      iszero\n      tag_148\n      jumpi\n        /* \"#utility.yul\":632:711   */\n      tag_149\n      tag_150\n      jump\t// in\n    tag_149:\n        /* \"#utility.yul\":585:713   */\n    tag_148:\n        /* \"#utility.yul\":166:719   */\n      swap3\n      pop\n      swap3\n      swap1\n      pop\n      jump\t// out\n        /* \"#utility.yul\":725:864   */\n    tag_151:\n        /* \"#utility.yul\":771:776   */\n      0x00\n        /* \"#utility.yul\":809:815   */\n      dup2\n        /* \"#utility.yul\":796:816   */\n      calldataload\n        /* \"#utility.yul\":787:816   */\n      swap1\n      pop\n        /* \"#utility.yul\":825:858   */\n      tag_153\n        /* \"#utility.yul\":852:857   */\n      dup2\n        /* \"#utility.yul\":825:858   */\n      tag_154\n      jump\t// in\n    tag_153:\n        /* \"#utility.yul\":725:864   */\n      swap3\n      swap2\n      pop\n      pop\n      jump\t// out\n        /* \"#utility.yul\":870:1689   */\n    tag_15:\n        /* \"#utility.yul\":959:965   */\n      0x00\n        /* \"#utility.yul\":967:973   */\n      dup1\n        /* \"#utility.yul\":975:981   */\n      0x00\n        /* \"#utility.yul\":983:989   */\n      dup1\n        /* \"#utility.yul\":1032:1034   */\n      0x60\n        /* \"#utility.yul\":1020:1029   */\n      dup6\n        /* \"#utility.yul\":1011:1018   */\n      dup8\n        /* \"#utility.yul\":1007:1030   */\n      sub\n        /* \"#utility.yul\":1003:1035   */\n      slt\n        /* \"#utility.yul\":1000:1119   */\n      iszero\n      tag_156\n      jumpi\n        /* \"#utility.yul\":1038:1117   */\n      tag_157\n      tag_158\n      jump\t// in\n    tag_157:\n        /* \"#utility.yul\":1000:1119   */\n    tag_156:\n        /* \"#utility.yul\":1186:1187   */\n      0x00\n        /* \"#utility.yul\":1175:1184   */\n      dup6\n        /* \"#utility.yul\":1171:1188   */\n      add\n        /* \"#utility.yul\":1158:1189   */\n      calldataload\n        /* \"#utility.yul\":1216:1234   */\n      0xffffffffffffffff\n        /* \"#utility.yul\":1208:1214   */\n      dup2\n        /* \"#utility.yul\":1205:1235   */\n      gt\n        /* \"#utility.yul\":1202:1319   */\n      iszero\n      tag_159\n      jumpi\n        /* \"#utility.yul\":1238:1317   */\n      tag_160\n      tag_161\n      jump\t// in\n    tag_160:\n        /* \"#utility.yul\":1202:1319   */\n    tag_159:\n        /* \"#utility.yul\":1351:1416   */\n      tag_162\n        /* \"#utility.yul\":1408:1415   */\n      dup8\n        /* \"#utility.yul\":1399:1405   */\n      dup3\n        /* \"#utility.yul\":1388:1397   */\n      dup9\n        /* \"#utility.yul\":1384:1406   */\n      add\n        /* \"#utility.yul\":1351:1416   */\n      tag_140\n      jump\t// in\n    tag_162:\n        /* \"#utility.yul\":1333:1416   */\n      swap5\n      pop\n      swap5\n      pop\n        /* \"#utility.yul\":1129:1426   */\n      pop\n        /* \"#utility.yul\":1465:1467   */\n      0x20\n        /* \"#utility.yul\":1491:1544   */\n      tag_163\n        /* \"#utility.yul\":1536:1543   */\n      dup8\n        /* \"#utility.yul\":1527:1533   */\n      dup3\n        /* \"#utility.yul\":1516:1525   */\n      dup9\n        /* \"#utility.yul\":1512:1534   */\n      add\n        /* \"#utility.yul\":1491:1544   */\n      tag_151\n      jump\t// in\n    tag_163:\n        /* \"#utility.yul\":1481:1544   */\n      swap3\n      pop\n        /* \"#utility.yul\":1436:1554   */\n      pop\n        /* \"#utility.yul\":1593:1595   */\n      0x40\n        /* \"#utility.yul\":1619:1672   */\n      tag_164\n        /* \"#utility.yul\":1664:1671   */\n      dup8\n        /* \"#utility.yul\":1655:1661   */\n      dup3\n        /* \"#utility.yul\":1644:1653   */\n      dup9\n        /* \"#utility.yul\":1640:1662   */\n      add\n        /* \"#utility.yul\":1619:1672   */\n      tag_151\n      jump\t// in\n    tag_164:\n        /* \"#utility.yul\":1609:1672   */\n      swap2\n      pop\n        /* \"#utility.yul\":1564:1682   */\n      pop\n        /* \"#utility.yul\":870:1689   */\n      swap3\n      swap6\n      swap2\n      swap5\n      pop\n      swap3\n      pop\n      jump\t// out\n        /* \"#utility.yul\":1695:2024   */\n    tag_20:\n        /* \"#utility.yul\":1754:1760   */\n      0x00\n        /* \"#utility.yul\":1803:1805   */\n      0x20\n        /* \"#utility.yul\":1791:1800   */\n      dup3\n        /* \"#utility.yul\":1782:1789   */\n      dup5\n        /* \"#utility.yul\":1778:1801   */\n      sub\n        /* \"#utility.yul\":1774:1806   */\n      slt\n        /* \"#utility.yul\":1771:1890   */\n      iszero\n      tag_166\n      jumpi\n        /* \"#utility.yul\":1809:1888   */\n      tag_167\n      tag_158\n      jump\t// in\n    tag_167:\n        /* \"#utility.yul\":1771:1890   */\n    tag_166:\n        /* \"#utility.yul\":1929:1930   */\n      0x00\n        /* \"#utility.yul\":1954:2007   */\n      tag_168\n        /* \"#utility.yul\":1999:2006   */\n      dup5\n        /* \"#utility.yul\":1990:1996   */\n      dup3\n        /* \"#utility.yul\":1979:1988   */\n      dup6\n        /* \"#utility.yul\":1975:1997   */\n      add\n        /* \"#utility.yul\":1954:2007   */\n      tag_151\n      jump\t// in\n    tag_168:\n        /* \"#utility.yul\":1944:2007   */\n      swap2\n      pop\n        /* \"#utility.yul\":1900:2017   */\n      pop\n        /* \"#utility.yul\":1695:2024   */\n      swap3\n      swap2\n      pop\n      pop\n      jump\t// out\n        /* \"#utility.yul\":2030:2504   */\n    tag_36:\n        /* \"#utility.yul\":2098:2104   */\n      0x00\n        /* \"#utility.yul\":2106:2112   */\n      dup1\n        /* \"#utility.yul\":2155:2157   */\n      0x40\n        /* \"#utility.yul\":2143:2152   */\n      dup4\n        /* \"#utility.yul\":2134:2141   */\n      dup6\n        /* \"#utility.yul\":2130:2153   */\n      sub\n        /* \"#utility.yul\":2126:2158   */\n      slt\n        /* \"#utility.yul\":2123:2242   */\n      iszero\n      tag_170\n      jumpi\n        /* \"#utility.yul\":2161:2240   */\n      tag_171\n      tag_158\n      jump\t// in\n    tag_171:\n        /* \"#utility.yul\":2123:2242   */\n    tag_170:\n        /* \"#utility.yul\":2281:2282   */\n      0x00\n        /* \"#utility.yul\":2306:2359   */\n      tag_172\n        /* \"#utility.yul\":2351:2358   */\n      dup6\n        /* \"#utility.yul\":2342:2348   */\n      dup3\n        /* \"#utility.yul\":2331:2340   */\n      dup7\n        /* \"#utility.yul\":2327:2349   */\n      add\n        /* \"#utility.yul\":2306:2359   */\n      tag_151\n      jump\t// in\n    tag_172:\n        /* \"#utility.yul\":2296:2359   */\n      swap3\n      pop\n        /* \"#utility.yul\":2252:2369   */\n      pop\n        /* \"#utility.yul\":2408:2410   */\n      0x20\n        /* \"#utility.yul\":2434:2487   */\n      tag_173\n        /* \"#utility.yul\":2479:2486   */\n      dup6\n        /* \"#utility.yul\":2470:2476   */\n      dup3\n        /* \"#utility.yul\":2459:2468   */\n      dup7\n        /* \"#utility.yul\":2455:2477   */\n      add\n        /* \"#utility.yul\":2434:2487   */\n      tag_136\n      jump\t// in\n    tag_173:\n        /* \"#utility.yul\":2424:2487   */\n      swap2\n      pop\n        /* \"#utility.yul\":2379:2497   */\n      pop\n        /* \"#utility.yul\":2030:2504   */\n      swap3\n      pop\n      swap3\n      swap1\n      pop\n      jump\t// out\n        /* \"#utility.yul\":2510:2984   */\n    tag_25:\n        /* \"#utility.yul\":2578:2584   */\n      0x00\n        /* \"#utility.yul\":2586:2592   */\n      dup1\n        /* \"#utility.yul\":2635:2637   */\n      0x40\n        /* \"#utility.yul\":2623:2632   */\n      dup4\n        /* \"#utility.yul\":2614:2621   */\n      dup6\n        /* \"#utility.yul\":2610:2633   */\n      sub\n        /* \"#utility.yul\":2606:2638   */\n      slt\n        /* \"#utility.yul\":2603:2722   */\n      iszero\n      tag_175\n      jumpi\n        /* \"#utility.yul\":2641:2720   */\n      tag_176\n      tag_158\n      jump\t// in\n    tag_176:\n        /* \"#utility.yul\":2603:2722   */\n    tag_175:\n        /* \"#utility.yul\":2761:2762   */\n      0x00\n        /* \"#utility.yul\":2786:2839   */\n      tag_177\n        /* \"#utility.yul\":2831:2838   */\n      dup6\n        /* \"#utility.yul\":2822:2828   */\n      dup3\n        /* \"#utility.yul\":2811:2820   */\n      dup7\n        /* \"#utility.yul\":2807:2829   */\n      add\n        /* \"#utility.yul\":2786:2839   */\n      tag_151\n      jump\t// in\n    tag_177:\n        /* \"#utility.yul\":2776:2839   */\n      swap3\n      pop\n        /* \"#utility.yul\":2732:2849   */\n      pop\n        /* \"#utility.yul\":2888:2890   */\n      0x20\n        /* \"#utility.yul\":2914:2967   */\n      tag_178\n        /* \"#utility.yul\":2959:2966   */\n      dup6\n        /* \"#utility.yul\":2950:2956   */\n      dup3\n        /* \"#utility.yul\":2939:2948   */\n      dup7\n        /* \"#utility.yul\":2935:2957   */\n      add\n        /* \"#utility.yul\":2914:2967   */\n      tag_151\n      jump\t// in\n    tag_178:\n        /* \"#utility.yul\":2904:2967   */\n      swap2\n      pop\n        /* \"#utility.yul\":2859:2977   */\n      pop\n        /* \"#utility.yul\":2510:2984   */\n      swap3\n      pop\n      swap3\n      swap1\n      pop\n      jump\t// out\n        /* \"#utility.yul\":2990:3108   */\n    tag_179:\n        /* \"#utility.yul\":3077:3101   */\n      tag_181\n        /* \"#utility.yul\":3095:3100   */\n      dup2\n        /* \"#utility.yul\":3077:3101   */\n      tag_182\n      jump\t// in\n    tag_181:\n        /* \"#utility.yul\":3072:3075   */\n      dup3\n        /* \"#utility.yul\":3065:3102   */\n      mstore\n        /* \"#utility.yul\":2990:3108   */\n      pop\n      pop\n      jump\t// out\n        /* \"#utility.yul\":3114:3223   */\n    tag_183:\n        /* \"#utility.yul\":3195:3216   */\n      tag_185\n        /* \"#utility.yul\":3210:3215   */\n      dup2\n        /* \"#utility.yul\":3195:3216   */\n      tag_186\n      jump\t// in\n    tag_185:\n        /* \"#utility.yul\":3190:3193   */\n      dup3\n        /* \"#utility.yul\":3183:3217   */\n      mstore\n        /* \"#utility.yul\":3114:3223   */\n      pop\n      pop\n      jump\t// out\n        /* \"#utility.yul\":3253:3570   */\n    tag_187:\n        /* \"#utility.yul\":3369:3372   */\n      0x00\n        /* \"#utility.yul\":3390:3479   */\n      tag_189\n        /* \"#utility.yul\":3472:3478   */\n      dup4\n        /* \"#utility.yul\":3467:3470   */\n      dup6\n        /* \"#utility.yul\":3390:3479   */\n      tag_190\n      jump\t// in\n    tag_189:\n        /* \"#utility.yul\":3383:3479   */\n      swap4\n      pop\n        /* \"#utility.yul\":3489:3532   */\n      tag_191\n        /* \"#utility.yul\":3525:3531   */\n      dup4\n        /* \"#utility.yul\":3520:3523   */\n      dup6\n        /* \"#utility.yul\":3513:3518   */\n      dup5\n        /* \"#utility.yul\":3489:3532   */\n      tag_192\n      jump\t// in\n    tag_191:\n        /* \"#utility.yul\":3557:3563   */\n      dup3\n        /* \"#utility.yul\":3552:3555   */\n      dup5\n        /* \"#utility.yul\":3548:3564   */\n      add\n        /* \"#utility.yul\":3541:3564   */\n      swap1\n      pop\n        /* \"#utility.yul\":3253:3570   */\n      swap4\n      swap3\n      pop\n      pop\n      pop\n      jump\t// out\n        /* \"#utility.yul\":3576:3940   */\n    tag_193:\n        /* \"#utility.yul\":3664:3667   */\n      0x00\n        /* \"#utility.yul\":3692:3731   */\n      tag_195\n        /* \"#utility.yul\":3725:3730   */\n      dup3\n        /* \"#utility.yul\":3692:3731   */\n      tag_196\n      jump\t// in\n    tag_195:\n        /* \"#utility.yul\":3747:3818   */\n      tag_197\n        /* \"#utility.yul\":3811:3817   */\n      dup2\n        /* \"#utility.yul\":3806:3809   */\n      dup6\n        /* \"#utility.yul\":3747:3818   */\n      tag_198\n      jump\t// in\n    tag_197:\n        /* \"#utility.yul\":3740:3818   */\n      swap4\n      pop\n        /* \"#utility.yul\":3827:3879   */\n      tag_199\n        /* \"#utility.yul\":3872:3878   */\n      dup2\n        /* \"#utility.yul\":3867:3870   */\n      dup6\n        /* \"#utility.yul\":3860:3864   */\n      0x20\n        /* \"#utility.yul\":3853:3858   */\n      dup7\n        /* \"#utility.yul\":3849:3865   */\n      add\n        /* \"#utility.yul\":3827:3879   */\n      tag_200\n      jump\t// in\n    tag_199:\n        /* \"#utility.yul\":3904:3933   */\n      tag_201\n        /* \"#utility.yul\":3926:3932   */\n      dup2\n        /* \"#utility.yul\":3904:3933   */\n      tag_202\n      jump\t// in\n    tag_201:\n        /* \"#utility.yul\":3899:3902   */\n      dup5\n        /* \"#utility.yul\":3895:3934   */\n      add\n        /* \"#utility.yul\":3888:3934   */\n      swap2\n      pop\n        /* \"#utility.yul\":3668:3940   */\n      pop\n        /* \"#utility.yul\":3576:3940   */\n      swap3\n      swap2\n      pop\n      pop\n      jump\t// out\n        /* \"#utility.yul\":3946:4064   */\n    tag_203:\n        /* \"#utility.yul\":4033:4057   */\n      tag_205\n        /* \"#utility.yul\":4051:4056   */\n      dup2\n        /* \"#utility.yul\":4033:4057   */\n      tag_206\n      jump\t// in\n    tag_205:\n        /* \"#utility.yul\":4028:4031   */\n      dup3\n        /* \"#utility.yul\":4021:4058   */\n      mstore\n        /* \"#utility.yul\":3946:4064   */\n      pop\n      pop\n      jump\t// out\n        /* \"#utility.yul\":4070:4365   */\n    tag_61:\n        /* \"#utility.yul\":4212:4215   */\n      0x00\n        /* \"#utility.yul\":4234:4339   */\n      tag_208\n        /* \"#utility.yul\":4335:4338   */\n      dup3\n        /* \"#utility.yul\":4326:4332   */\n      dup5\n        /* \"#utility.yul\":4318:4324   */\n      dup7\n        /* \"#utility.yul\":4234:4339   */\n      tag_187\n      jump\t// in\n    tag_208:\n        /* \"#utility.yul\":4227:4339   */\n      swap2\n      pop\n        /* \"#utility.yul\":4356:4359   */\n      dup2\n        /* \"#utility.yul\":4349:4359   */\n      swap1\n      pop\n        /* \"#utility.yul\":4070:4365   */\n      swap4\n      swap3\n      pop\n      pop\n      pop\n      jump\t// out\n        /* \"#utility.yul\":4371:4593   */\n    tag_28:\n        /* \"#utility.yul\":4464:4468   */\n      0x00\n        /* \"#utility.yul\":4502:4504   */\n      0x20\n        /* \"#utility.yul\":4491:4500   */\n      dup3\n        /* \"#utility.yul\":4487:4505   */\n      add\n        /* \"#utility.yul\":4479:4505   */\n      swap1\n      pop\n        /* \"#utility.yul\":4515:4586   */\n      tag_210\n        /* \"#utility.yul\":4583:4584   */\n      0x00\n        /* \"#utility.yul\":4572:4581   */\n      dup4\n        /* \"#utility.yul\":4568:4585   */\n      add\n        /* \"#utility.yul\":4559:4565   */\n      dup5\n        /* \"#utility.yul\":4515:4586   */\n      tag_179\n      jump\t// in\n    tag_210:\n        /* \"#utility.yul\":4371:4593   */\n      swap3\n      swap2\n      pop\n      pop\n      jump\t// out\n        /* \"#utility.yul\":4599:4912   */\n    tag_58:\n        /* \"#utility.yul\":4712:4716   */\n      0x00\n        /* \"#utility.yul\":4750:4752   */\n      0x20\n        /* \"#utility.yul\":4739:4748   */\n      dup3\n        /* \"#utility.yul\":4735:4753   */\n      add\n        /* \"#utility.yul\":4727:4753   */\n      swap1\n      pop\n        /* \"#utility.yul\":4799:4808   */\n      dup2\n        /* \"#utility.yul\":4793:4797   */\n      dup2\n        /* \"#utility.yul\":4789:4809   */\n      sub\n        /* \"#utility.yul\":4785:4786   */\n      0x00\n        /* \"#utility.yul\":4774:4783   */\n      dup4\n        /* \"#utility.yul\":4770:4787   */\n      add\n        /* \"#utility.yul\":4763:4810   */\n      mstore\n        /* \"#utility.yul\":4827:4905   */\n      tag_212\n        /* \"#utility.yul\":4900:4904   */\n      dup2\n        /* \"#utility.yul\":4891:4897   */\n      dup5\n        /* \"#utility.yul\":4827:4905   */\n      tag_193\n      jump\t// in\n    tag_212:\n        /* \"#utility.yul\":4819:4905   */\n      swap1\n      pop\n        /* \"#utility.yul\":4599:4912   */\n      swap3\n      swap2\n      pop\n      pop\n      jump\t// out\n        /* \"#utility.yul\":4918:5550   */\n    tag_49:\n        /* \"#utility.yul\":5109:5113   */\n      0x00\n        /* \"#utility.yul\":5147:5150   */\n      0x80\n        /* \"#utility.yul\":5136:5145   */\n      dup3\n        /* \"#utility.yul\":5132:5151   */\n      add\n        /* \"#utility.yul\":5124:5151   */\n      swap1\n      pop\n        /* \"#utility.yul\":5161:5232   */\n      tag_214\n        /* \"#utility.yul\":5229:5230   */\n      0x00\n        /* \"#utility.yul\":5218:5227   */\n      dup4\n        /* \"#utility.yul\":5214:5231   */\n      add\n        /* \"#utility.yul\":5205:5211   */\n      dup8\n        /* \"#utility.yul\":5161:5232   */\n      tag_203\n      jump\t// in\n    tag_214:\n        /* \"#utility.yul\":5242:5314   */\n      tag_215\n        /* \"#utility.yul\":5310:5312   */\n      0x20\n        /* \"#utility.yul\":5299:5308   */\n      dup4\n        /* \"#utility.yul\":5295:5313   */\n      add\n        /* \"#utility.yul\":5286:5292   */\n      dup7\n        /* \"#utility.yul\":5242:5314   */\n      tag_203\n      jump\t// in\n    tag_215:\n        /* \"#utility.yul\":5361:5370   */\n      dup2\n        /* \"#utility.yul\":5355:5359   */\n      dup2\n        /* \"#utility.yul\":5351:5371   */\n      sub\n        /* \"#utility.yul\":5346:5348   */\n      0x40\n        /* \"#utility.yul\":5335:5344   */\n      dup4\n        /* \"#utility.yul\":5331:5349   */\n      add\n        /* \"#utility.yul\":5324:5372   */\n      mstore\n        /* \"#utility.yul\":5389:5467   */\n      tag_216\n        /* \"#utility.yul\":5462:5466   */\n      dup2\n        /* \"#utility.yul\":5453:5459   */\n      dup6\n        /* \"#utility.yul\":5389:5467   */\n      tag_193\n      jump\t// in\n    tag_216:\n        /* \"#utility.yul\":5381:5467   */\n      swap1\n      pop\n        /* \"#utility.yul\":5477:5543   */\n      tag_217\n        /* \"#utility.yul\":5539:5541   */\n      0x60\n        /* \"#utility.yul\":5528:5537   */\n      dup4\n        /* \"#utility.yul\":5524:5542   */\n      add\n        /* \"#utility.yul\":5515:5521   */\n      dup5\n        /* \"#utility.yul\":5477:5543   */\n      tag_183\n      jump\t// in\n    tag_217:\n        /* \"#utility.yul\":4918:5550   */\n      swap6\n      swap5\n      pop\n      pop\n      pop\n      pop\n      pop\n      jump\t// out\n        /* \"#utility.yul\":5556:5998   */\n    tag_39:\n        /* \"#utility.yul\":5705:5709   */\n      0x00\n        /* \"#utility.yul\":5743:5745   */\n      0x60\n        /* \"#utility.yul\":5732:5741   */\n      dup3\n        /* \"#utility.yul\":5728:5746   */\n      add\n        /* \"#utility.yul\":5720:5746   */\n      swap1\n      pop\n        /* \"#utility.yul\":5756:5827   */\n      tag_219\n        /* \"#utility.yul\":5824:5825   */\n      0x00\n        /* \"#utility.yul\":5813:5822   */\n      dup4\n        /* \"#utility.yul\":5809:5826   */\n      add\n        /* \"#utility.yul\":5800:5806   */\n      dup7\n        /* \"#utility.yul\":5756:5827   */\n      tag_203\n      jump\t// in\n    tag_219:\n        /* \"#utility.yul\":5837:5909   */\n      tag_220\n        /* \"#utility.yul\":5905:5907   */\n      0x20\n        /* \"#utility.yul\":5894:5903   */\n      dup4\n        /* \"#utility.yul\":5890:5908   */\n      add\n        /* \"#utility.yul\":5881:5887   */\n      dup6\n        /* \"#utility.yul\":5837:5909   */\n      tag_203\n      jump\t// in\n    tag_220:\n        /* \"#utility.yul\":5919:5991   */\n      tag_221\n        /* \"#utility.yul\":5987:5989   */\n      0x40\n        /* \"#utility.yul\":5976:5985   */\n      dup4\n        /* \"#utility.yul\":5972:5990   */\n      add\n        /* \"#utility.yul\":5963:5969   */\n      dup5\n        /* \"#utility.yul\":5919:5991   */\n      tag_203\n      jump\t// in\n    tag_221:\n        /* \"#utility.yul\":5556:5998   */\n      swap5\n      swap4\n      pop\n      pop\n      pop\n      pop\n      jump\t// out\n        /* \"#utility.yul\":6085:6184   */\n    tag_196:\n        /* \"#utility.yul\":6137:6143   */\n      0x00\n        /* \"#utility.yul\":6171:6176   */\n      dup2\n        /* \"#utility.yul\":6165:6177   */\n      mload\n        /* \"#utility.yul\":6155:6177   */\n      swap1\n      pop\n        /* \"#utility.yul\":6085:6184   */\n      swap2\n      swap1\n      pop\n      jump\t// out\n        /* \"#utility.yul\":6190:6359   */\n    tag_198:\n        /* \"#utility.yul\":6274:6285   */\n      0x00\n        /* \"#utility.yul\":6308:6314   */\n      dup3\n        /* \"#utility.yul\":6303:6306   */\n      dup3\n        /* \"#utility.yul\":6296:6315   */\n      mstore\n        /* \"#utility.yul\":6348:6352   */\n      0x20\n        /* \"#utility.yul\":6343:6346   */\n      dup3\n        /* \"#utility.yul\":6339:6353   */\n      add\n        /* \"#utility.yul\":6324:6353   */\n      swap1\n      pop\n        /* \"#utility.yul\":6190:6359   */\n      swap3\n      swap2\n      pop\n      pop\n      jump\t// out\n        /* \"#utility.yul\":6365:6513   */\n    tag_190:\n        /* \"#utility.yul\":6467:6478   */\n      0x00\n        /* \"#utility.yul\":6504:6507   */\n      dup2\n        /* \"#utility.yul\":6489:6507   */\n      swap1\n      pop\n        /* \"#utility.yul\":6365:6513   */\n      swap3\n      swap2\n      pop\n      pop\n      jump\t// out\n        /* \"#utility.yul\":6519:6824   */\n    tag_86:\n        /* \"#utility.yul\":6559:6562   */\n      0x00\n        /* \"#utility.yul\":6578:6598   */\n      tag_228\n        /* \"#utility.yul\":6596:6597   */\n      dup3\n        /* \"#utility.yul\":6578:6598   */\n      tag_206\n      jump\t// in\n    tag_228:\n        /* \"#utility.yul\":6573:6598   */\n      swap2\n      pop\n        /* \"#utility.yul\":6612:6632   */\n      tag_229\n        /* \"#utility.yul\":6630:6631   */\n      dup4\n        /* \"#utility.yul\":6612:6632   */\n      tag_206\n      jump\t// in\n    tag_229:\n        /* \"#utility.yul\":6607:6632   */\n      swap3\n      pop\n        /* \"#utility.yul\":6766:6767   */\n      dup3\n        /* \"#utility.yul\":6698:6764   */\n      0xffffffffffffffffffffffffffffffffffffffffffffffffffffffffffffffff\n        /* \"#utility.yul\":6694:6768   */\n      sub\n        /* \"#utility.yul\":6691:6692   */\n      dup3\n        /* \"#utility.yul\":6688:6769   */\n      gt\n        /* \"#utility.yul\":6685:6792   */\n      iszero\n      tag_230\n      jumpi\n        /* \"#utility.yul\":6772:6790   */\n      tag_231\n      tag_232\n      jump\t// in\n    tag_231:\n        /* \"#utility.yul\":6685:6792   */\n    tag_230:\n        /* \"#utility.yul\":6816:6817   */\n      dup3\n        /* \"#utility.yul\":6813:6814   */\n      dup3\n        /* \"#utility.yul\":6809:6818   */\n      add\n        /* \"#utility.yul\":6802:6818   */\n      swap1\n      pop\n        /* \"#utility.yul\":6519:6824   */\n      swap3\n      swap2\n      pop\n      pop\n      jump\t// out\n        /* \"#utility.yul\":6830:7021   */\n    tag_75:\n        /* \"#utility.yul\":6870:6874   */\n      0x00\n        /* \"#utility.yul\":6890:6910   */\n      tag_234\n        /* \"#utility.yul\":6908:6909   */\n      dup3\n        /* \"#utility.yul\":6890:6910   */\n      tag_206\n      jump\t// in\n    tag_234:\n        /* \"#utility.yul\":6885:6910   */\n      swap2\n      pop\n        /* \"#utility.yul\":6924:6944   */\n      tag_235\n        /* \"#utility.yul\":6942:6943   */\n      dup4\n        /* \"#utility.yul\":6924:6944   */\n      tag_206\n      jump\t// in\n    tag_235:\n        /* \"#utility.yul\":6919:6944   */\n      swap3\n      pop\n        /* \"#utility.yul\":6963:6964   */\n      dup3\n        /* \"#utility.yul\":6960:6961   */\n      dup3\n        /* \"#utility.yul\":6957:6965   */\n      lt\n        /* \"#utility.yul\":6954:6988   */\n      iszero\n      tag_236\n      jumpi\n        /* \"#utility.yul\":6968:6986   */\n      tag_237\n      tag_232\n      jump\t// in\n    tag_237:\n        /* \"#utility.yul\":6954:6988   */\n    tag_236:\n        /* \"#utility.yul\":7013:7014   */\n      dup3\n        /* \"#utility.yul\":7010:7011   */\n      dup3\n        /* \"#utility.yul\":7006:7015   */\n      sub\n        /* \"#utility.yul\":6998:7015   */\n      swap1\n      pop\n        /* \"#utility.yul\":6830:7021   */\n      swap3\n      swap2\n      pop\n      pop\n      jump\t// out\n        /* \"#utility.yul\":7027:7123   */\n    tag_182:\n        /* \"#utility.yul\":7064:7071   */\n      0x00\n        /* \"#utility.yul\":7093:7117   */\n      tag_239\n        /* \"#utility.yul\":7111:7116   */\n      dup3\n        /* \"#utility.yul\":7093:7117   */\n      tag_240\n      jump\t// in\n    tag_239:\n        /* \"#utility.yul\":7082:7117   */\n      swap1\n      pop\n        /* \"#utility.yul\":7027:7123   */\n      swap2\n      swap1\n      pop\n      jump\t// out\n        /* \"#utility.yul\":7129:7219   */\n    tag_186:\n        /* \"#utility.yul\":7163:7170   */\n      0x00\n        /* \"#utility.yul\":7206:7211   */\n      dup2\n        /* \"#utility.yul\":7199:7212   */\n      iszero\n        /* \"#utility.yul\":7192:7213   */\n      iszero\n        /* \"#utility.yul\":7181:7213   */\n      swap1\n      pop\n        /* \"#utility.yul\":7129:7219   */\n      swap2\n      swap1\n      pop\n      jump\t// out\n        /* \"#utility.yul\":7225:7351   */\n    tag_240:\n        /* \"#utility.yul\":7262:7269   */\n      0x00\n        /* \"#utility.yul\":7302:7344   */\n      0xffffffffffffffffffffffffffffffffffffffff\n        /* \"#utility.yul\":7295:7300   */\n      dup3\n        /* \"#utility.yul\":7291:7345   */\n      and\n        /* \"#utility.yul\":7280:7345   */\n      swap1\n      pop\n        /* \"#utility.yul\":7225:7351   */\n      swap2\n      swap1\n      pop\n      jump\t// out\n        /* \"#utility.yul\":7357:7434   */\n    tag_206:\n        /* \"#utility.yul\":7394:7401   */\n      0x00\n        /* \"#utility.yul\":7423:7428   */\n      dup2\n        /* \"#utility.yul\":7412:7428   */\n      swap1\n      pop\n        /* \"#utility.yul\":7357:7434   */\n      swap2\n      swap1\n      pop\n      jump\t// out\n        /* \"#utility.yul\":7440:7594   */\n    tag_192:\n        /* \"#utility.yul\":7524:7530   */\n      dup3\n        /* \"#utility.yul\":7519:7522   */\n      dup2\n        /* \"#utility.yul\":7514:7517   */\n      dup4\n        /* \"#utility.yul\":7501:7531   */\n      calldatacopy\n        /* \"#utility.yul\":7586:7587   */\n      0x00\n        /* \"#utility.yul\":7577:7583   */\n      dup4\n        /* \"#utility.yul\":7572:7575   */\n      dup4\n        /* \"#utility.yul\":7568:7584   */\n      add\n        /* \"#utility.yul\":7561:7588   */\n      mstore\n        /* \"#utility.yul\":7440:7594   */\n      pop\n      pop\n      pop\n      jump\t// out\n        /* \"#utility.yul\":7600:7907   */\n    tag_200:\n        /* \"#utility.yul\":7668:7669   */\n      0x00\n        /* \"#utility.yul\":7678:7791   */\n    tag_246:\n        /* \"#utility.yul\":7692:7698   */\n      dup4\n        /* \"#utility.yul\":7689:7690   */\n      dup2\n        /* \"#utility.yul\":7686:7699   */\n      lt\n        /* \"#utility.yul\":7678:7791   */\n      iszero\n      tag_248\n      jumpi\n        /* \"#utility.yul\":7777:7778   */\n      dup1\n        /* \"#utility.yul\":7772:7775   */\n      dup3\n        /* \"#utility.yul\":7768:7779   */\n      add\n        /* \"#utility.yul\":7762:7780   */\n      mload\n        /* \"#utility.yul\":7758:7759   */\n      dup2\n        /* \"#utility.yul\":7753:7756   */\n      dup5\n        /* \"#utility.yul\":7749:7760   */\n      add\n        /* \"#utility.yul\":7742:7781   */\n      mstore\n        /* \"#utility.yul\":7714:7716   */\n      0x20\n        /* \"#utility.yul\":7711:7712   */\n      dup2\n        /* \"#utility.yul\":7707:7717   */\n      add\n        /* \"#utility.yul\":7702:7717   */\n      swap1\n      pop\n        /* \"#utility.yul\":7678:7791   */\n      jump(tag_246)\n    tag_248:\n        /* \"#utility.yul\":7809:7815   */\n      dup4\n        /* \"#utility.yul\":7806:7807   */\n      dup2\n        /* \"#utility.yul\":7803:7816   */\n      gt\n        /* \"#utility.yul\":7800:7901   */\n      iszero\n      tag_249\n      jumpi\n        /* \"#utility.yul\":7889:7890   */\n      0x00\n        /* \"#utility.yul\":7880:7886   */\n      dup5\n        /* \"#utility.yul\":7875:7878   */\n      dup5\n        /* \"#utility.yul\":7871:7887   */\n      add\n        /* \"#utility.yul\":7864:7891   */\n      mstore\n        /* \"#utility.yul\":7800:7901   */\n    tag_249:\n        /* \"#utility.yul\":7649:7907   */\n      pop\n        /* \"#utility.yul\":7600:7907   */\n      pop\n      pop\n      pop\n      jump\t// out\n        /* \"#utility.yul\":7913:8084   */\n    tag_107:\n        /* \"#utility.yul\":7952:7955   */\n      0x00\n        /* \"#utility.yul\":7975:7999   */\n      tag_251\n        /* \"#utility.yul\":7993:7998   */\n      dup3\n        /* \"#utility.yul\":7975:7999   */\n      tag_206\n      jump\t// in\n    tag_251:\n        /* \"#utility.yul\":7966:7999   */\n      swap2\n      pop\n        /* \"#utility.yul\":8021:8025   */\n      0x00\n        /* \"#utility.yul\":8014:8019   */\n      dup3\n        /* \"#utility.yul\":8011:8026   */\n      eq\n        /* \"#utility.yul\":8008:8049   */\n      iszero\n      tag_252\n      jumpi\n        /* \"#utility.yul\":8029:8047   */\n      tag_253\n      tag_232\n      jump\t// in\n    tag_253:\n        /* \"#utility.yul\":8008:8049   */\n    tag_252:\n        /* \"#utility.yul\":8076:8077   */\n      0x01\n        /* \"#utility.yul\":8069:8074   */\n      dup3\n        /* \"#utility.yul\":8065:8078   */\n      sub\n        /* \"#utility.yul\":8058:8078   */\n      swap1\n      pop\n        /* \"#utility.yul\":7913:8084   */\n      swap2\n      swap1\n      pop\n      jump\t// out\n        /* \"#utility.yul\":8090:8410   */\n    tag_89:\n        /* \"#utility.yul\":8134:8140   */\n      0x00\n        /* \"#utility.yul\":8171:8172   */\n      0x02\n        /* \"#utility.yul\":8165:8169   */\n      dup3\n        /* \"#utility.yul\":8161:8173   */\n      div\n        /* \"#utility.yul\":8151:8173   */\n      swap1\n      pop\n        /* \"#utility.yul\":8218:8219   */\n      0x01\n        /* \"#utility.yul\":8212:8216   */\n      dup3\n        /* \"#utility.yul\":8208:8220   */\n      and\n        /* \"#utility.yul\":8239:8257   */\n      dup1\n        /* \"#utility.yul\":8229:8310   */\n      tag_255\n      jumpi\n        /* \"#utility.yul\":8295:8299   */\n      0x7f\n        /* \"#utility.yul\":8287:8293   */\n      dup3\n        /* \"#utility.yul\":8283:8300   */\n      and\n        /* \"#utility.yul\":8273:8300   */\n      swap2\n      pop\n        /* \"#utility.yul\":8229:8310   */\n    tag_255:\n        /* \"#utility.yul\":8357:8359   */\n      0x20\n        /* \"#utility.yul\":8349:8355   */\n      dup3\n        /* \"#utility.yul\":8346:8360   */\n      lt\n        /* \"#utility.yul\":8326:8344   */\n      dup2\n        /* \"#utility.yul\":8323:8361   */\n      eq\n        /* \"#utility.yul\":8320:8404   */\n      iszero\n      tag_256\n      jumpi\n        /* \"#utility.yul\":8376:8394   */\n      tag_257\n      tag_258\n      jump\t// in\n    tag_257:\n        /* \"#utility.yul\":8320:8404   */\n    tag_256:\n        /* \"#utility.yul\":8141:8410   */\n      pop\n        /* \"#utility.yul\":8090:8410   */\n      swap2\n      swap1\n      pop\n      jump\t// out\n        /* \"#utility.yul\":8416:8649   */\n    tag_78:\n        /* \"#utility.yul\":8455:8458   */\n      0x00\n        /* \"#utility.yul\":8478:8502   */\n      tag_260\n        /* \"#utility.yul\":8496:8501   */\n      dup3\n        /* \"#utility.yul\":8478:8502   */\n      tag_206\n      jump\t// in\n    tag_260:\n        /* \"#utility.yul\":8469:8502   */\n      swap2\n      pop\n        /* \"#utility.yul\":8524:8590   */\n      0xffffffffffffffffffffffffffffffffffffffffffffffffffffffffffffffff\n        /* \"#utility.yul\":8517:8522   */\n      dup3\n        /* \"#utility.yul\":8514:8591   */\n      eq\n        /* \"#utility.yul\":8511:8614   */\n      iszero\n      tag_261\n      jumpi\n        /* \"#utility.yul\":8594:8612   */\n      tag_262\n      tag_232\n      jump\t// in\n    tag_262:\n        /* \"#utility.yul\":8511:8614   */\n    tag_261:\n        /* \"#utility.yul\":8641:8642   */\n      0x01\n        /* \"#utility.yul\":8634:8639   */\n      dup3\n        /* \"#utility.yul\":8630:8643   */\n      add\n        /* \"#utility.yul\":8623:8643   */\n      swap1\n      pop\n        /* \"#utility.yul\":8416:8649   */\n      swap2\n      swap1\n      pop\n      jump\t// out\n        /* \"#utility.yul\":8655:8835   */\n    tag_232:\n        /* \"#utility.yul\":8703:8780   */\n      0x4e487b7100000000000000000000000000000000000000000000000000000000\n        /* \"#utility.yul\":8700:8701   */\n      0x00\n        /* \"#utility.yul\":8693:8781   */\n      mstore\n        /* \"#utility.yul\":8800:8804   */\n      0x11\n        /* \"#utility.yul\":8797:8798   */\n      0x04\n        /* \"#utility.yul\":8790:8805   */\n      mstore\n        /* \"#utility.yul\":8824:8828   */\n      0x24\n        /* \"#utility.yul\":8821:8822   */\n      0x00\n        /* \"#utility.yul\":8814:8829   */\n      revert\n        /* \"#utility.yul\":8841:9021   */\n    tag_258:\n        /* \"#utility.yul\":8889:8966   */\n      0x4e487b7100000000000000000000000000000000000000000000000000000000\n        /* \"#utility.yul\":8886:8887   */\n      0x00\n        /* \"#utility.yul\":8879:8967   */\n      mstore\n        /* \"#utility.yul\":8986:8990   */\n      0x22\n        /* \"#utility.yul\":8983:8984   */\n      0x04\n        /* \"#utility.yul\":8976:8991   */\n      mstore\n        /* \"#utility.yul\":9010:9014   */\n      0x24\n        /* \"#utility.yul\":9007:9008   */\n      0x00\n        /* \"#utility.yul\":9000:9015   */\n      revert\n        /* \"#utility.yul\":9027:9144   */\n    tag_147:\n        /* \"#utility.yul\":9136:9137   */\n      0x00\n        /* \"#utility.yul\":9133:9134   */\n      dup1\n        /* \"#utility.yul\":9126:9138   */\n      revert\n        /* \"#utility.yul\":9150:9267   */\n    tag_144:\n        /* \"#utility.yul\":9259:9260   */\n      0x00\n        /* \"#utility.yul\":9256:9257   */\n      dup1\n        /* \"#utility.yul\":9249:9261   */\n      revert\n        /* \"#utility.yul\":9273:9390   */\n    tag_150:\n        /* \"#utility.yul\":9382:9383   */\n      0x00\n        /* \"#utility.yul\":9379:9380   */\n      dup1\n        /* \"#utility.yul\":9372:9384   */\n      revert\n        /* \"#utility.yul\":9396:9513   */\n    tag_161:\n        /* \"#utility.yul\":9505:9506   */\n      0x00\n        /* \"#utility.yul\":9502:9503   */\n      dup1\n        /* \"#utility.yul\":9495:9507   */\n      revert\n        /* \"#utility.yul\":9519:9636   */\n    tag_158:\n        /* \"#utility.yul\":9628:9629   */\n      0x00\n        /* \"#utility.yul\":9625:9626   */\n      dup1\n        /* \"#utility.yul\":9618:9630   */\n      revert\n        /* \"#utility.yul\":9642:9744   */\n    tag_202:\n        /* \"#utility.yul\":9683:9689   */\n      0x00\n        /* \"#utility.yul\":9734:9736   */\n      0x1f\n        /* \"#utility.yul\":9730:9737   */\n      not\n        /* \"#utility.yul\":9725:9727   */\n      0x1f\n        /* \"#utility.yul\":9718:9723   */\n      dup4\n        /* \"#utility.yul\":9714:9728   */\n      add\n        /* \"#utility.yul\":9710:9738   */\n      and\n        /* \"#utility.yul\":9700:9738   */\n      swap1\n      pop\n        /* \"#utility.yul\":9642:9744   */\n      swap2\n      swap1\n      pop\n      jump\t// out\n        /* \"#utility.yul\":9750:9872   */\n    tag_139:\n        /* \"#utility.yul\":9823:9847   */\n      tag_272\n        /* \"#utility.yul\":9841:9846   */\n      dup2\n        /* \"#utility.yul\":9823:9847   */\n      tag_182\n      jump\t// in\n    tag_272:\n        /* \"#utility.yul\":9816:9821   */\n      dup2\n        /* \"#utility.yul\":9813:9848   */\n      eq\n        /* \"#utility.yul\":9803:9866   */\n      tag_273\n      jumpi\n        /* \"#utility.yul\":9862:9863   */\n      0x00\n        /* \"#utility.yul\":9859:9860   */\n      dup1\n        /* \"#utility.yul\":9852:9864   */\n      revert\n        /* \"#utility.yul\":9803:9866   */\n    tag_273:\n        /* \"#utility.yul\":9750:9872   */\n      pop\n      jump\t// out\n        /* \"#utility.yul\":9878:10000   */\n    tag_154:\n        /* \"#utility.yul\":9951:9975   */\n      tag_275\n        /* \"#utility.yul\":9969:9974   */\n      dup2\n        /* \"#utility.yul\":9951:9975   */\n      tag_206\n      jump\t// in\n    tag_275:\n        /* \"#utility.yul\":9944:9949   */\n      dup2\n        /* \"#utility.yul\":9941:9976   */\n      eq\n        /* \"#utility.yul\":9931:9994   */\n      tag_276\n      jumpi\n        /* \"#utility.yul\":9990:9991   */\n      0x00\n        /* \"#utility.yul\":9987:9988   */\n      dup1\n        /* \"#utility.yul\":9980:9992   */\n      revert\n        /* \"#utility.yul\":9931:9994   */\n    tag_276:\n        /* \"#utility.yul\":9878:10000   */\n      pop\n      jump\t// out\n\n    auxdata: 0xa264697066735822122011720035c646e692822b4c86ee4872a9170fc2e4d3b306d43b5985639033d2e064736f6c63430008070033\n}\n",
				"bytecode": {
					"linkReferences": {},
					"object": "608060405261132b806100136000396000f3fe6080604052600436106100865760003560e01c806374cbc3501161005957806374cbc3501461014357806379cd4921146101825780637acc0b20146101ab5780638642269e146101eb578063e4bcc7d41461020757610086565b80630a5bd44b1461008b578063131e407d146100b457806327e7875a146100dd5780632e1a7d4d1461011a575b600080fd5b34801561009757600080fd5b506100b260048036038101906100ad9190610dda565b610244565b005b3480156100c057600080fd5b506100db60048036038101906100d69190610e4e565b610411565b005b3480156100e957600080fd5b5061010460048036038101906100ff9190610ebb565b6105f4565b6040516101119190610f9f565b60405180910390f35b34801561012657600080fd5b50610141600480360381019061013c9190610e4e565b610642565b005b34801561014f57600080fd5b5061016a60048036038101906101659190610e7b565b610645565b60405161017993929190611028565b60405180910390f35b34801561018e57600080fd5b506101a960048036038101906101a49190610ebb565b61067c565b005b3480156101b757600080fd5b506101d260048036038101906101cd9190610e4e565b61070d565b6040516101e29493929190610fdc565b60405180910390f35b61020560048036038101906102009190610e4e565b6107d2565b005b34801561021357600080fd5b5061022e60048036038101906102299190610e4e565b610b3a565b60405161023b9190610fba565b60405180910390f35b60028484604051610256929190610f86565b908152602001604051809103902060009054906101000a900460ff166103d95761027e610be6565b828160000181815250508181602001818152505084848080601f016020809104026020016040519081016040528093929190818152602001838380828437600081840152601f19601f820116905080830192505050505050508160400181905250600181606001901515908115158152505080600160008080549050815260200190815260200160002060008201518160000155602082015181600101556040820151816002019080519060200190610338929190610c10565b5060608201518160030160006101000a81548160ff021916908315150217905550905050600160028686604051610370929190610f86565b908152602001604051809103902060006101000a81548160ff02191690831515021790555060008585909180600181540180825580915050600190039060005260206000200160009091929091929091929091925091906103d2929190610c96565b505061040b565b6040517fb185df3a00000000000000000000000000000000000000000000000000000000815260040160405180910390fd5b50505050565b60016003600083815260200190815260200160002060003373ffffffffffffffffffffffffffffffffffffffff1673ffffffffffffffffffffffffffffffffffffffff1681526020019081526020016000206002015414156105bf5760006003600083815260200190815260200160002060003373ffffffffffffffffffffffffffffffffffffffff1673ffffffffffffffffffffffffffffffffffffffff1681526020019081526020016000206040518060600160405290816000820154815260200160018201548152602001600282015481525050905060648160000151436104fc91906110dc565b1115610534576040517f6e9beb2100000000000000000000000000000000000000000000000000000000815260040160405180910390fd5b60026003600084815260200190815260200160002060003373ffffffffffffffffffffffffffffffffffffffff1673ffffffffffffffffffffffffffffffffffffffff168152602001908152602001600020600201819055506001600083815260200190815260200160002060010160008154809291906105b4906111f6565b9190505550506105f1565b6040517fc55091df00000000000000000000000000000000000000000000000000000000815260040160405180910390fd5b50565b6004602052816000526040600020818154811061061057600080fd5b906000526020600020016000915091509054906101000a900473ffffffffffffffffffffffffffffffffffffffff1681565b50565b6003602052816000526040600020602052806000526040600020600091509150508060000154908060010154908060020154905083565b6001600083815260200190815260200160002060030160009054906101000a900460ff16156106d757806001600084815260200190815260200160002060010160008282546106cb9190611086565b92505081905550610709565b6040517f7e8d96a900000000000000000000000000000000000000000000000000000000815260040160405180910390fd5b5050565b600160205280600052604060002060009150905080600001549080600101549080600201805461073c906111c4565b80601f0160208091040260200160405190810160405280929190818152602001828054610768906111c4565b80156107b55780601f1061078a576101008083540402835291602001916107b5565b820191906000526020600020905b81548152906001019060200180831161079857829003601f168201915b5050505050908060030160009054906101000a900460ff16905084565b6000805490508110801561083a575060016003600083815260200190815260200160002060003373ffffffffffffffffffffffffffffffffffffffff1673ffffffffffffffffffffffffffffffffffffffff1681526020019081526020016000206002015414155b15610b05576000600160008381526020019081526020016000206040518060800160405290816000820154815260200160018201548152602001600282018054610883906111c4565b80601f01602080910402602001604051908101604052809291908181526020018280546108af906111c4565b80156108fc5780601f106108d1576101008083540402835291602001916108fc565b820191906000526020600020905b8154815290600101906020018083116108df57829003601f168201915b505050505081526020016003820160009054906101000a900460ff16151515158152505090508060000151341080610938575060018160200151105b1561096f576040517ff80236cc00000000000000000000000000000000000000000000000000000000815260040160405180910390fd5b610977610d1c565b4381600001818152505081600001518160200181815250506001816040018181525050806003600085815260200190815260200160002060003373ffffffffffffffffffffffffffffffffffffffff1673ffffffffffffffffffffffffffffffffffffffff168152602001908152602001600020600082015181600001556020820151816001015560408201518160020155905050816020018051809190610a1e9061119a565b81525050816001600085815260200190815260200160002060008201518160000155602082015181600101556040820151816002019080519060200190610a66929190610c10565b5060608201518160030160006101000a81548160ff02191690831515021790555090505060046000848152602001908152602001600020339080600181540180825580915050600190039060005260206000200160009091909190916101000a81548173ffffffffffffffffffffffffffffffffffffffff021916908373ffffffffffffffffffffffffffffffffffffffff1602179055505050610b37565b6040517fd42c9b8b00000000000000000000000000000000000000000000000000000000815260040160405180910390fd5b50565b60008181548110610b4a57600080fd5b906000526020600020016000915090508054610b65906111c4565b80601f0160208091040260200160405190810160405280929190818152602001828054610b91906111c4565b8015610bde5780601f10610bb357610100808354040283529160200191610bde565b820191906000526020600020905b815481529060010190602001808311610bc157829003601f168201915b505050505081565b60405180608001604052806000815260200160008152602001606081526020016000151581525090565b828054610c1c906111c4565b90600052602060002090601f016020900481019282610c3e5760008555610c85565b82601f10610c5757805160ff1916838001178555610c85565b82800160010185558215610c85579182015b82811115610c84578251825591602001919060010190610c69565b5b509050610c929190610d3d565b5090565b828054610ca2906111c4565b90600052602060002090601f016020900481019282610cc45760008555610d0b565b82601f10610cdd57803560ff1916838001178555610d0b565b82800160010185558215610d0b579182015b82811115610d0a578235825591602001919060010190610cef565b5b509050610d189190610d3d565b5090565b60405180606001604052806000815260200160008152602001600081525090565b5b80821115610d56576000816000905550600101610d3e565b5090565b600081359050610d69816112c7565b92915050565b60008083601f840112610d8557610d846112a2565b5b8235905067ffffffffffffffff811115610da257610da161129d565b5b602083019150836001820283011115610dbe57610dbd6112a7565b5b9250929050565b600081359050610dd4816112de565b92915050565b60008060008060608587031215610df457610df36112b1565b5b600085013567ffffffffffffffff811115610e1257610e116112ac565b5b610e1e87828801610d6f565b94509450506020610e3187828801610dc5565b9250506040610e4287828801610dc5565b91505092959194509250565b600060208284031215610e6457610e636112b1565b5b6000610e7284828501610dc5565b91505092915050565b60008060408385031215610e9257610e916112b1565b5b6000610ea085828601610dc5565b9250506020610eb185828601610d5a565b9150509250929050565b60008060408385031215610ed257610ed16112b1565b5b6000610ee085828601610dc5565b9250506020610ef185828601610dc5565b9150509250929050565b610f0481611110565b82525050565b610f1381611122565b82525050565b6000610f25838561107b565b9350610f32838584611158565b82840190509392505050565b6000610f498261105f565b610f53818561106a565b9350610f63818560208601611167565b610f6c816112b6565b840191505092915050565b610f808161114e565b82525050565b6000610f93828486610f19565b91508190509392505050565b6000602082019050610fb46000830184610efb565b92915050565b60006020820190508181036000830152610fd48184610f3e565b905092915050565b6000608082019050610ff16000830187610f77565b610ffe6020830186610f77565b81810360408301526110108185610f3e565b905061101f6060830184610f0a565b95945050505050565b600060608201905061103d6000830186610f77565b61104a6020830185610f77565b6110576040830184610f77565b949350505050565b600081519050919050565b600082825260208201905092915050565b600081905092915050565b60006110918261114e565b915061109c8361114e565b9250827fffffffffffffffffffffffffffffffffffffffffffffffffffffffffffffffff038211156110d1576110d061123f565b5b828201905092915050565b60006110e78261114e565b91506110f28361114e565b9250828210156111055761110461123f565b5b828203905092915050565b600061111b8261112e565b9050919050565b60008115159050919050565b600073ffffffffffffffffffffffffffffffffffffffff82169050919050565b6000819050919050565b82818337600083830152505050565b60005b8381101561118557808201518184015260208101905061116a565b83811115611194576000848401525b50505050565b60006111a58261114e565b915060008214156111b9576111b861123f565b5b600182039050919050565b600060028204905060018216806111dc57607f821691505b602082108114156111f0576111ef61126e565b5b50919050565b60006112018261114e565b91507fffffffffffffffffffffffffffffffffffffffffffffffffffffffffffffffff8214156112345761123361123f565b5b600182019050919050565b7f4e487b7100000000000000000000000000000000000000000000000000000000600052601160045260246000fd5b7f4e487b7100000000000000000000000000000000000000000000000000000000600052602260045260246000fd5b600080fd5b600080fd5b600080fd5b600080fd5b600080fd5b6000601f19601f8301169050919050565b6112d081611110565b81146112db57600080fd5b50565b6112e78161114e565b81146112f257600080fd5b5056fea264697066735822122011720035c646e692822b4c86ee4872a9170fc2e4d3b306d43b5985639033d2e064736f6c63430008070033",
					"opcodes": "PUSH1 0x80 PUSH1 0x40 MSTORE PUSH2 0x132B DUP1 PUSH2 0x13 PUSH1 0x0 CODECOPY PUSH1 0x0 RETURN INVALID PUSH1 0x80 PUSH1 0x40 MSTORE PUSH1 0x4 CALLDATASIZE LT PUSH2 0x86 JUMPI PUSH1 0x0 CALLDATALOAD PUSH1 0xE0 SHR DUP1 PUSH4 0x74CBC350 GT PUSH2 0x59 JUMPI DUP1 PUSH4 0x74CBC350 EQ PUSH2 0x143 JUMPI DUP1 PUSH4 0x79CD4921 EQ PUSH2 0x182 JUMPI DUP1 PUSH4 0x7ACC0B20 EQ PUSH2 0x1AB JUMPI DUP1 PUSH4 0x8642269E EQ PUSH2 0x1EB JUMPI DUP1 PUSH4 0xE4BCC7D4 EQ PUSH2 0x207 JUMPI PUSH2 0x86 JUMP JUMPDEST DUP1 PUSH4 0xA5BD44B EQ PUSH2 0x8B JUMPI DUP1 PUSH4 0x131E407D EQ PUSH2 0xB4 JUMPI DUP1 PUSH4 0x27E7875A EQ PUSH2 0xDD JUMPI DUP1 PUSH4 0x2E1A7D4D EQ PUSH2 0x11A JUMPI JUMPDEST PUSH1 0x0 DUP1 REVERT JUMPDEST CALLVALUE DUP1 ISZERO PUSH2 0x97 JUMPI PUSH1 0x0 DUP1 REVERT JUMPDEST POP PUSH2 0xB2 PUSH1 0x4 DUP1 CALLDATASIZE SUB DUP2 ADD SWAP1 PUSH2 0xAD SWAP2 SWAP1 PUSH2 0xDDA JUMP JUMPDEST PUSH2 0x244 JUMP JUMPDEST STOP JUMPDEST CALLVALUE DUP1 ISZERO PUSH2 0xC0 JUMPI PUSH1 0x0 DUP1 REVERT JUMPDEST POP PUSH2 0xDB PUSH1 0x4 DUP1 CALLDATASIZE SUB DUP2 ADD SWAP1 PUSH2 0xD6 SWAP2 SWAP1 PUSH2 0xE4E JUMP JUMPDEST PUSH2 0x411 JUMP JUMPDEST STOP JUMPDEST CALLVALUE DUP1 ISZERO PUSH2 0xE9 JUMPI PUSH1 0x0 DUP1 REVERT JUMPDEST POP PUSH2 0x104 PUSH1 0x4 DUP1 CALLDATASIZE SUB DUP2 ADD SWAP1 PUSH2 0xFF SWAP2 SWAP1 PUSH2 0xEBB JUMP JUMPDEST PUSH2 0x5F4 JUMP JUMPDEST PUSH1 0x40 MLOAD PUSH2 0x111 SWAP2 SWAP1 PUSH2 0xF9F JUMP JUMPDEST PUSH1 0x40 MLOAD DUP1 SWAP2 SUB SWAP1 RETURN JUMPDEST CALLVALUE DUP1 ISZERO PUSH2 0x126 JUMPI PUSH1 0x0 DUP1 REVERT JUMPDEST POP PUSH2 0x141 PUSH1 0x4 DUP1 CALLDATASIZE SUB DUP2 ADD SWAP1 PUSH2 0x13C SWAP2 SWAP1 PUSH2 0xE4E JUMP JUMPDEST PUSH2 0x642 JUMP JUMPDEST STOP JUMPDEST CALLVALUE DUP1 ISZERO PUSH2 0x14F JUMPI PUSH1 0x0 DUP1 REVERT JUMPDEST POP PUSH2 0x16A PUSH1 0x4 DUP1 CALLDATASIZE SUB DUP2 ADD SWAP1 PUSH2 0x165 SWAP2 SWAP1 PUSH2 0xE7B JUMP JUMPDEST PUSH2 0x645 JUMP JUMPDEST PUSH1 0x40 MLOAD PUSH2 0x179 SWAP4 SWAP3 SWAP2 SWAP1 PUSH2 0x1028 JUMP JUMPDEST PUSH1 0x40 MLOAD DUP1 SWAP2 SUB SWAP1 RETURN JUMPDEST CALLVALUE DUP1 ISZERO PUSH2 0x18E JUMPI PUSH1 0x0 DUP1 REVERT JUMPDEST POP PUSH2 0x1A9 PUSH1 0x4 DUP1 CALLDATASIZE SUB DUP2 ADD SWAP1 PUSH2 0x1A4 SWAP2 SWAP1 PUSH2 0xEBB JUMP JUMPDEST PUSH2 0x67C JUMP JUMPDEST STOP JUMPDEST CALLVALUE DUP1 ISZERO PUSH2 0x1B7 JUMPI PUSH1 0x0 DUP1 REVERT JUMPDEST POP PUSH2 0x1D2 PUSH1 0x4 DUP1 CALLDATASIZE SUB DUP2 ADD SWAP1 PUSH2 0x1CD SWAP2 SWAP1 PUSH2 0xE4E JUMP JUMPDEST PUSH2 0x70D JUMP JUMPDEST PUSH1 0x40 MLOAD PUSH2 0x1E2 SWAP5 SWAP4 SWAP3 SWAP2 SWAP1 PUSH2 0xFDC JUMP JUMPDEST PUSH1 0x40 MLOAD DUP1 SWAP2 SUB SWAP1 RETURN JUMPDEST PUSH2 0x205 PUSH1 0x4 DUP1 CALLDATASIZE SUB DUP2 ADD SWAP1 PUSH2 0x200 SWAP2 SWAP1 PUSH2 0xE4E JUMP JUMPDEST PUSH2 0x7D2 JUMP JUMPDEST STOP JUMPDEST CALLVALUE DUP1 ISZERO PUSH2 0x213 JUMPI PUSH1 0x0 DUP1 REVERT JUMPDEST POP PUSH2 0x22E PUSH1 0x4 DUP1 CALLDATASIZE SUB DUP2 ADD SWAP1 PUSH2 0x229 SWAP2 SWAP1 PUSH2 0xE4E JUMP JUMPDEST PUSH2 0xB3A JUMP JUMPDEST PUSH1 0x40 MLOAD PUSH2 0x23B SWAP2 SWAP1 PUSH2 0xFBA JUMP JUMPDEST PUSH1 0x40 MLOAD DUP1 SWAP2 SUB SWAP1 RETURN JUMPDEST PUSH1 0x2 DUP5 DUP5 PUSH1 0x40 MLOAD PUSH2 0x256 SWAP3 SWAP2 SWAP1 PUSH2 0xF86 JUMP JUMPDEST SWAP1 DUP2 MSTORE PUSH1 0x20 ADD PUSH1 0x40 MLOAD DUP1 SWAP2 SUB SWAP1 KECCAK256 PUSH1 0x0 SWAP1 SLOAD SWAP1 PUSH2 0x100 EXP SWAP1 DIV PUSH1 0xFF AND PUSH2 0x3D9 JUMPI PUSH2 0x27E PUSH2 0xBE6 JUMP JUMPDEST DUP3 DUP2 PUSH1 0x0 ADD DUP2 DUP2 MSTORE POP POP DUP2 DUP2 PUSH1 0x20 ADD DUP2 DUP2 MSTORE POP POP DUP5 DUP5 DUP1 DUP1 PUSH1 0x1F ADD PUSH1 0x20 DUP1 SWAP2 DIV MUL PUSH1 0x20 ADD PUSH1 0x40 MLOAD SWAP1 DUP2 ADD PUSH1 0x40 MSTORE DUP1 SWAP4 SWAP3 SWAP2 SWAP1 DUP2 DUP2 MSTORE PUSH1 0x20 ADD DUP4 DUP4 DUP1 DUP3 DUP5 CALLDATACOPY PUSH1 0x0 DUP2 DUP5 ADD MSTORE PUSH1 0x1F NOT PUSH1 0x1F DUP3 ADD AND SWAP1 POP DUP1 DUP4 ADD SWAP3 POP POP POP POP POP POP POP DUP2 PUSH1 0x40 ADD DUP2 SWAP1 MSTORE POP PUSH1 0x1 DUP2 PUSH1 0x60 ADD SWAP1 ISZERO ISZERO SWAP1 DUP2 ISZERO ISZERO DUP2 MSTORE POP POP DUP1 PUSH1 0x1 PUSH1 0x0 DUP1 DUP1 SLOAD SWAP1 POP DUP2 MSTORE PUSH1 0x20 ADD SWAP1 DUP2 MSTORE PUSH1 0x20 ADD PUSH1 0x0 KECCAK256 PUSH1 0x0 DUP3 ADD MLOAD DUP2 PUSH1 0x0 ADD SSTORE PUSH1 0x20 DUP3 ADD MLOAD DUP2 PUSH1 0x1 ADD SSTORE PUSH1 0x40 DUP3 ADD MLOAD DUP2 PUSH1 0x2 ADD SWAP1 DUP1 MLOAD SWAP1 PUSH1 0x20 ADD SWAP1 PUSH2 0x338 SWAP3 SWAP2 SWAP1 PUSH2 0xC10 JUMP JUMPDEST POP PUSH1 0x60 DUP3 ADD MLOAD DUP2 PUSH1 0x3 ADD PUSH1 0x0 PUSH2 0x100 EXP DUP2 SLOAD DUP2 PUSH1 0xFF MUL NOT AND SWAP1 DUP4 ISZERO ISZERO MUL OR SWAP1 SSTORE POP SWAP1 POP POP PUSH1 0x1 PUSH1 0x2 DUP7 DUP7 PUSH1 0x40 MLOAD PUSH2 0x370 SWAP3 SWAP2 SWAP1 PUSH2 0xF86 JUMP JUMPDEST SWAP1 DUP2 MSTORE PUSH1 0x20 ADD PUSH1 0x40 MLOAD DUP1 SWAP2 SUB SWAP1 KECCAK256 PUSH1 0x0 PUSH2 0x100 EXP DUP2 SLOAD DUP2 PUSH1 0xFF MUL NOT AND SWAP1 DUP4 ISZERO ISZERO MUL OR SWAP1 SSTORE POP PUSH1 0x0 DUP6 DUP6 SWAP1 SWAP2 DUP1 PUSH1 0x1 DUP2 SLOAD ADD DUP1 DUP3 SSTORE DUP1 SWAP2 POP POP PUSH1 0x1 SWAP1 SUB SWAP1 PUSH1 0x0 MSTORE PUSH1 0x20 PUSH1 0x0 KECCAK256 ADD PUSH1 0x0 SWAP1 SWAP2 SWAP3 SWAP1 SWAP2 SWAP3 SWAP1 SWAP2 SWAP3 SWAP1 SWAP2 SWAP3 POP SWAP2 SWAP1 PUSH2 0x3D2 SWAP3 SWAP2 SWAP1 PUSH2 0xC96 JUMP JUMPDEST POP POP PUSH2 0x40B JUMP JUMPDEST PUSH1 0x40 MLOAD PUSH32 0xB185DF3A00000000000000000000000000000000000000000000000000000000 DUP2 MSTORE PUSH1 0x4 ADD PUSH1 0x40 MLOAD DUP1 SWAP2 SUB SWAP1 REVERT JUMPDEST POP POP POP POP JUMP JUMPDEST PUSH1 0x1 PUSH1 0x3 PUSH1 0x0 DUP4 DUP2 MSTORE PUSH1 0x20 ADD SWAP1 DUP2 MSTORE PUSH1 0x20 ADD PUSH1 0x0 KECCAK256 PUSH1 0x0 CALLER PUSH20 0xFFFFFFFFFFFFFFFFFFFFFFFFFFFFFFFFFFFFFFFF AND PUSH20 0xFFFFFFFFFFFFFFFFFFFFFFFFFFFFFFFFFFFFFFFF AND DUP2 MSTORE PUSH1 0x20 ADD SWAP1 DUP2 MSTORE PUSH1 0x20 ADD PUSH1 0x0 KECCAK256 PUSH1 0x2 ADD SLOAD EQ ISZERO PUSH2 0x5BF JUMPI PUSH1 0x0 PUSH1 0x3 PUSH1 0x0 DUP4 DUP2 MSTORE PUSH1 0x20 ADD SWAP1 DUP2 MSTORE PUSH1 0x20 ADD PUSH1 0x0 KECCAK256 PUSH1 0x0 CALLER PUSH20 0xFFFFFFFFFFFFFFFFFFFFFFFFFFFFFFFFFFFFFFFF AND PUSH20 0xFFFFFFFFFFFFFFFFFFFFFFFFFFFFFFFFFFFFFFFF AND DUP2 MSTORE PUSH1 0x20 ADD SWAP1 DUP2 MSTORE PUSH1 0x20 ADD PUSH1 0x0 KECCAK256 PUSH1 0x40 MLOAD DUP1 PUSH1 0x60 ADD PUSH1 0x40 MSTORE SWAP1 DUP2 PUSH1 0x0 DUP3 ADD SLOAD DUP2 MSTORE PUSH1 0x20 ADD PUSH1 0x1 DUP3 ADD SLOAD DUP2 MSTORE PUSH1 0x20 ADD PUSH1 0x2 DUP3 ADD SLOAD DUP2 MSTORE POP POP SWAP1 POP PUSH1 0x64 DUP2 PUSH1 0x0 ADD MLOAD NUMBER PUSH2 0x4FC SWAP2 SWAP1 PUSH2 0x10DC JUMP JUMPDEST GT ISZERO PUSH2 0x534 JUMPI PUSH1 0x40 MLOAD PUSH32 0x6E9BEB2100000000000000000000000000000000000000000000000000000000 DUP2 MSTORE PUSH1 0x4 ADD PUSH1 0x40 MLOAD DUP1 SWAP2 SUB SWAP1 REVERT JUMPDEST PUSH1 0x2 PUSH1 0x3 PUSH1 0x0 DUP5 DUP2 MSTORE PUSH1 0x20 ADD SWAP1 DUP2 MSTORE PUSH1 0x20 ADD PUSH1 0x0 KECCAK256 PUSH1 0x0 CALLER PUSH20 0xFFFFFFFFFFFFFFFFFFFFFFFFFFFFFFFFFFFFFFFF AND PUSH20 0xFFFFFFFFFFFFFFFFFFFFFFFFFFFFFFFFFFFFFFFF AND DUP2 MSTORE PUSH1 0x20 ADD SWAP1 DUP2 MSTORE PUSH1 0x20 ADD PUSH1 0x0 KECCAK256 PUSH1 0x2 ADD DUP2 SWAP1 SSTORE POP PUSH1 0x1 PUSH1 0x0 DUP4 DUP2 MSTORE PUSH1 0x20 ADD SWAP1 DUP2 MSTORE PUSH1 0x20 ADD PUSH1 0x0 KECCAK256 PUSH1 0x1 ADD PUSH1 0x0 DUP2 SLOAD DUP1 SWAP3 SWAP2 SWAP1 PUSH2 0x5B4 SWAP1 PUSH2 0x11F6 JUMP JUMPDEST SWAP2 SWAP1 POP SSTORE POP POP PUSH2 0x5F1 JUMP JUMPDEST PUSH1 0x40 MLOAD PUSH32 0xC55091DF00000000000000000000000000000000000000000000000000000000 DUP2 MSTORE PUSH1 0x4 ADD PUSH1 0x40 MLOAD DUP1 SWAP2 SUB SWAP1 REVERT JUMPDEST POP JUMP JUMPDEST PUSH1 0x4 PUSH1 0x20 MSTORE DUP2 PUSH1 0x0 MSTORE PUSH1 0x40 PUSH1 0x0 KECCAK256 DUP2 DUP2 SLOAD DUP2 LT PUSH2 0x610 JUMPI PUSH1 0x0 DUP1 REVERT JUMPDEST SWAP1 PUSH1 0x0 MSTORE PUSH1 0x20 PUSH1 0x0 KECCAK256 ADD PUSH1 0x0 SWAP2 POP SWAP2 POP SWAP1 SLOAD SWAP1 PUSH2 0x100 EXP SWAP1 DIV PUSH20 0xFFFFFFFFFFFFFFFFFFFFFFFFFFFFFFFFFFFFFFFF AND DUP2 JUMP JUMPDEST POP JUMP JUMPDEST PUSH1 0x3 PUSH1 0x20 MSTORE DUP2 PUSH1 0x0 MSTORE PUSH1 0x40 PUSH1 0x0 KECCAK256 PUSH1 0x20 MSTORE DUP1 PUSH1 0x0 MSTORE PUSH1 0x40 PUSH1 0x0 KECCAK256 PUSH1 0x0 SWAP2 POP SWAP2 POP POP DUP1 PUSH1 0x0 ADD SLOAD SWAP1 DUP1 PUSH1 0x1 ADD SLOAD SWAP1 DUP1 PUSH1 0x2 ADD SLOAD SWAP1 POP DUP4 JUMP JUMPDEST PUSH1 0x1 PUSH1 0x0 DUP4 DUP2 MSTORE PUSH1 0x20 ADD SWAP1 DUP2 MSTORE PUSH1 0x20 ADD PUSH1 0x0 KECCAK256 PUSH1 0x3 ADD PUSH1 0x0 SWAP1 SLOAD SWAP1 PUSH2 0x100 EXP SWAP1 DIV PUSH1 0xFF AND ISZERO PUSH2 0x6D7 JUMPI DUP1 PUSH1 0x1 PUSH1 0x0 DUP5 DUP2 MSTORE PUSH1 0x20 ADD SWAP1 DUP2 MSTORE PUSH1 0x20 ADD PUSH1 0x0 KECCAK256 PUSH1 0x1 ADD PUSH1 0x0 DUP3 DUP3 SLOAD PUSH2 0x6CB SWAP2 SWAP1 PUSH2 0x1086 JUMP JUMPDEST SWAP3 POP POP DUP2 SWAP1 SSTORE POP PUSH2 0x709 JUMP JUMPDEST PUSH1 0x40 MLOAD PUSH32 0x7E8D96A900000000000000000000000000000000000000000000000000000000 DUP2 MSTORE PUSH1 0x4 ADD PUSH1 0x40 MLOAD DUP1 SWAP2 SUB SWAP1 REVERT JUMPDEST POP POP JUMP JUMPDEST PUSH1 0x1 PUSH1 0x20 MSTORE DUP1 PUSH1 0x0 MSTORE PUSH1 0x40 PUSH1 0x0 KECCAK256 PUSH1 0x0 SWAP2 POP SWAP1 POP DUP1 PUSH1 0x0 ADD SLOAD SWAP1 DUP1 PUSH1 0x1 ADD SLOAD SWAP1 DUP1 PUSH1 0x2 ADD DUP1 SLOAD PUSH2 0x73C SWAP1 PUSH2 0x11C4 JUMP JUMPDEST DUP1 PUSH1 0x1F ADD PUSH1 0x20 DUP1 SWAP2 DIV MUL PUSH1 0x20 ADD PUSH1 0x40 MLOAD SWAP1 DUP2 ADD PUSH1 0x40 MSTORE DUP1 SWAP3 SWAP2 SWAP1 DUP2 DUP2 MSTORE PUSH1 0x20 ADD DUP3 DUP1 SLOAD PUSH2 0x768 SWAP1 PUSH2 0x11C4 JUMP JUMPDEST DUP1 ISZERO PUSH2 0x7B5 JUMPI DUP1 PUSH1 0x1F LT PUSH2 0x78A JUMPI PUSH2 0x100 DUP1 DUP4 SLOAD DIV MUL DUP4 MSTORE SWAP2 PUSH1 0x20 ADD SWAP2 PUSH2 0x7B5 JUMP JUMPDEST DUP3 ADD SWAP2 SWAP1 PUSH1 0x0 MSTORE PUSH1 0x20 PUSH1 0x0 KECCAK256 SWAP1 JUMPDEST DUP2 SLOAD DUP2 MSTORE SWAP1 PUSH1 0x1 ADD SWAP1 PUSH1 0x20 ADD DUP1 DUP4 GT PUSH2 0x798 JUMPI DUP3 SWAP1 SUB PUSH1 0x1F AND DUP3 ADD SWAP2 JUMPDEST POP POP POP POP POP SWAP1 DUP1 PUSH1 0x3 ADD PUSH1 0x0 SWAP1 SLOAD SWAP1 PUSH2 0x100 EXP SWAP1 DIV PUSH1 0xFF AND SWAP1 POP DUP5 JUMP JUMPDEST PUSH1 0x0 DUP1 SLOAD SWAP1 POP DUP2 LT DUP1 ISZERO PUSH2 0x83A JUMPI POP PUSH1 0x1 PUSH1 0x3 PUSH1 0x0 DUP4 DUP2 MSTORE PUSH1 0x20 ADD SWAP1 DUP2 MSTORE PUSH1 0x20 ADD PUSH1 0x0 KECCAK256 PUSH1 0x0 CALLER PUSH20 0xFFFFFFFFFFFFFFFFFFFFFFFFFFFFFFFFFFFFFFFF AND PUSH20 0xFFFFFFFFFFFFFFFFFFFFFFFFFFFFFFFFFFFFFFFF AND DUP2 MSTORE PUSH1 0x20 ADD SWAP1 DUP2 MSTORE PUSH1 0x20 ADD PUSH1 0x0 KECCAK256 PUSH1 0x2 ADD SLOAD EQ ISZERO JUMPDEST ISZERO PUSH2 0xB05 JUMPI PUSH1 0x0 PUSH1 0x1 PUSH1 0x0 DUP4 DUP2 MSTORE PUSH1 0x20 ADD SWAP1 DUP2 MSTORE PUSH1 0x20 ADD PUSH1 0x0 KECCAK256 PUSH1 0x40 MLOAD DUP1 PUSH1 0x80 ADD PUSH1 0x40 MSTORE SWAP1 DUP2 PUSH1 0x0 DUP3 ADD SLOAD DUP2 MSTORE PUSH1 0x20 ADD PUSH1 0x1 DUP3 ADD SLOAD DUP2 MSTORE PUSH1 0x20 ADD PUSH1 0x2 DUP3 ADD DUP1 SLOAD PUSH2 0x883 SWAP1 PUSH2 0x11C4 JUMP JUMPDEST DUP1 PUSH1 0x1F ADD PUSH1 0x20 DUP1 SWAP2 DIV MUL PUSH1 0x20 ADD PUSH1 0x40 MLOAD SWAP1 DUP2 ADD PUSH1 0x40 MSTORE DUP1 SWAP3 SWAP2 SWAP1 DUP2 DUP2 MSTORE PUSH1 0x20 ADD DUP3 DUP1 SLOAD PUSH2 0x8AF SWAP1 PUSH2 0x11C4 JUMP JUMPDEST DUP1 ISZERO PUSH2 0x8FC JUMPI DUP1 PUSH1 0x1F LT PUSH2 0x8D1 JUMPI PUSH2 0x100 DUP1 DUP4 SLOAD DIV MUL DUP4 MSTORE SWAP2 PUSH1 0x20 ADD SWAP2 PUSH2 0x8FC JUMP JUMPDEST DUP3 ADD SWAP2 SWAP1 PUSH1 0x0 MSTORE PUSH1 0x20 PUSH1 0x0 KECCAK256 SWAP1 JUMPDEST DUP2 SLOAD DUP2 MSTORE SWAP1 PUSH1 0x1 ADD SWAP1 PUSH1 0x20 ADD DUP1 DUP4 GT PUSH2 0x8DF JUMPI DUP3 SWAP1 SUB PUSH1 0x1F AND DUP3 ADD SWAP2 JUMPDEST POP POP POP POP POP DUP2 MSTORE PUSH1 0x20 ADD PUSH1 0x3 DUP3 ADD PUSH1 0x0 SWAP1 SLOAD SWAP1 PUSH2 0x100 EXP SWAP1 DIV PUSH1 0xFF AND ISZERO ISZERO ISZERO ISZERO DUP2 MSTORE POP POP SWAP1 POP DUP1 PUSH1 0x0 ADD MLOAD CALLVALUE LT DUP1 PUSH2 0x938 JUMPI POP PUSH1 0x1 DUP2 PUSH1 0x20 ADD MLOAD LT JUMPDEST ISZERO PUSH2 0x96F JUMPI PUSH1 0x40 MLOAD PUSH32 0xF80236CC00000000000000000000000000000000000000000000000000000000 DUP2 MSTORE PUSH1 0x4 ADD PUSH1 0x40 MLOAD DUP1 SWAP2 SUB SWAP1 REVERT JUMPDEST PUSH2 0x977 PUSH2 0xD1C JUMP JUMPDEST NUMBER DUP2 PUSH1 0x0 ADD DUP2 DUP2 MSTORE POP POP DUP2 PUSH1 0x0 ADD MLOAD DUP2 PUSH1 0x20 ADD DUP2 DUP2 MSTORE POP POP PUSH1 0x1 DUP2 PUSH1 0x40 ADD DUP2 DUP2 MSTORE POP POP DUP1 PUSH1 0x3 PUSH1 0x0 DUP6 DUP2 MSTORE PUSH1 0x20 ADD SWAP1 DUP2 MSTORE PUSH1 0x20 ADD PUSH1 0x0 KECCAK256 PUSH1 0x0 CALLER PUSH20 0xFFFFFFFFFFFFFFFFFFFFFFFFFFFFFFFFFFFFFFFF AND PUSH20 0xFFFFFFFFFFFFFFFFFFFFFFFFFFFFFFFFFFFFFFFF AND DUP2 MSTORE PUSH1 0x20 ADD SWAP1 DUP2 MSTORE PUSH1 0x20 ADD PUSH1 0x0 KECCAK256 PUSH1 0x0 DUP3 ADD MLOAD DUP2 PUSH1 0x0 ADD SSTORE PUSH1 0x20 DUP3 ADD MLOAD DUP2 PUSH1 0x1 ADD SSTORE PUSH1 0x40 DUP3 ADD MLOAD DUP2 PUSH1 0x2 ADD SSTORE SWAP1 POP POP DUP2 PUSH1 0x20 ADD DUP1 MLOAD DUP1 SWAP2 SWAP1 PUSH2 0xA1E SWAP1 PUSH2 0x119A JUMP JUMPDEST DUP2 MSTORE POP POP DUP2 PUSH1 0x1 PUSH1 0x0 DUP6 DUP2 MSTORE PUSH1 0x20 ADD SWAP1 DUP2 MSTORE PUSH1 0x20 ADD PUSH1 0x0 KECCAK256 PUSH1 0x0 DUP3 ADD MLOAD DUP2 PUSH1 0x0 ADD SSTORE PUSH1 0x20 DUP3 ADD MLOAD DUP2 PUSH1 0x1 ADD SSTORE PUSH1 0x40 DUP3 ADD MLOAD DUP2 PUSH1 0x2 ADD SWAP1 DUP1 MLOAD SWAP1 PUSH1 0x20 ADD SWAP1 PUSH2 0xA66 SWAP3 SWAP2 SWAP1 PUSH2 0xC10 JUMP JUMPDEST POP PUSH1 0x60 DUP3 ADD MLOAD DUP2 PUSH1 0x3 ADD PUSH1 0x0 PUSH2 0x100 EXP DUP2 SLOAD DUP2 PUSH1 0xFF MUL NOT AND SWAP1 DUP4 ISZERO ISZERO MUL OR SWAP1 SSTORE POP SWAP1 POP POP PUSH1 0x4 PUSH1 0x0 DUP5 DUP2 MSTORE PUSH1 0x20 ADD SWAP1 DUP2 MSTORE PUSH1 0x20 ADD PUSH1 0x0 KECCAK256 CALLER SWAP1 DUP1 PUSH1 0x1 DUP2 SLOAD ADD DUP1 DUP3 SSTORE DUP1 SWAP2 POP POP PUSH1 0x1 SWAP1 SUB SWAP1 PUSH1 0x0 MSTORE PUSH1 0x20 PUSH1 0x0 KECCAK256 ADD PUSH1 0x0 SWAP1 SWAP2 SWAP1 SWAP2 SWAP1 SWAP2 PUSH2 0x100 EXP DUP2 SLOAD DUP2 PUSH20 0xFFFFFFFFFFFFFFFFFFFFFFFFFFFFFFFFFFFFFFFF MUL NOT AND SWAP1 DUP4 PUSH20 0xFFFFFFFFFFFFFFFFFFFFFFFFFFFFFFFFFFFFFFFF AND MUL OR SWAP1 SSTORE POP POP POP PUSH2 0xB37 JUMP JUMPDEST PUSH1 0x40 MLOAD PUSH32 0xD42C9B8B00000000000000000000000000000000000000000000000000000000 DUP2 MSTORE PUSH1 0x4 ADD PUSH1 0x40 MLOAD DUP1 SWAP2 SUB SWAP1 REVERT JUMPDEST POP JUMP JUMPDEST PUSH1 0x0 DUP2 DUP2 SLOAD DUP2 LT PUSH2 0xB4A JUMPI PUSH1 0x0 DUP1 REVERT JUMPDEST SWAP1 PUSH1 0x0 MSTORE PUSH1 0x20 PUSH1 0x0 KECCAK256 ADD PUSH1 0x0 SWAP2 POP SWAP1 POP DUP1 SLOAD PUSH2 0xB65 SWAP1 PUSH2 0x11C4 JUMP JUMPDEST DUP1 PUSH1 0x1F ADD PUSH1 0x20 DUP1 SWAP2 DIV MUL PUSH1 0x20 ADD PUSH1 0x40 MLOAD SWAP1 DUP2 ADD PUSH1 0x40 MSTORE DUP1 SWAP3 SWAP2 SWAP1 DUP2 DUP2 MSTORE PUSH1 0x20 ADD DUP3 DUP1 SLOAD PUSH2 0xB91 SWAP1 PUSH2 0x11C4 JUMP JUMPDEST DUP1 ISZERO PUSH2 0xBDE JUMPI DUP1 PUSH1 0x1F LT PUSH2 0xBB3 JUMPI PUSH2 0x100 DUP1 DUP4 SLOAD DIV MUL DUP4 MSTORE SWAP2 PUSH1 0x20 ADD SWAP2 PUSH2 0xBDE JUMP JUMPDEST DUP3 ADD SWAP2 SWAP1 PUSH1 0x0 MSTORE PUSH1 0x20 PUSH1 0x0 KECCAK256 SWAP1 JUMPDEST DUP2 SLOAD DUP2 MSTORE SWAP1 PUSH1 0x1 ADD SWAP1 PUSH1 0x20 ADD DUP1 DUP4 GT PUSH2 0xBC1 JUMPI DUP3 SWAP1 SUB PUSH1 0x1F AND DUP3 ADD SWAP2 JUMPDEST POP POP POP POP POP DUP2 JUMP JUMPDEST PUSH1 0x40 MLOAD DUP1 PUSH1 0x80 ADD PUSH1 0x40 MSTORE DUP1 PUSH1 0x0 DUP2 MSTORE PUSH1 0x20 ADD PUSH1 0x0 DUP2 MSTORE PUSH1 0x20 ADD PUSH1 0x60 DUP2 MSTORE PUSH1 0x20 ADD PUSH1 0x0 ISZERO ISZERO DUP2 MSTORE POP SWAP1 JUMP JUMPDEST DUP3 DUP1 SLOAD PUSH2 0xC1C SWAP1 PUSH2 0x11C4 JUMP JUMPDEST SWAP1 PUSH1 0x0 MSTORE PUSH1 0x20 PUSH1 0x0 KECCAK256 SWAP1 PUSH1 0x1F ADD PUSH1 0x20 SWAP1 DIV DUP2 ADD SWAP3 DUP3 PUSH2 0xC3E JUMPI PUSH1 0x0 DUP6 SSTORE PUSH2 0xC85 JUMP JUMPDEST DUP3 PUSH1 0x1F LT PUSH2 0xC57 JUMPI DUP1 MLOAD PUSH1 0xFF NOT AND DUP4 DUP1 ADD OR DUP6 SSTORE PUSH2 0xC85 JUMP JUMPDEST DUP3 DUP1 ADD PUSH1 0x1 ADD DUP6 SSTORE DUP3 ISZERO PUSH2 0xC85 JUMPI SWAP2 DUP3 ADD JUMPDEST DUP3 DUP2 GT ISZERO PUSH2 0xC84 JUMPI DUP3 MLOAD DUP3 SSTORE SWAP2 PUSH1 0x20 ADD SWAP2 SWAP1 PUSH1 0x1 ADD SWAP1 PUSH2 0xC69 JUMP JUMPDEST JUMPDEST POP SWAP1 POP PUSH2 0xC92 SWAP2 SWAP1 PUSH2 0xD3D JUMP JUMPDEST POP SWAP1 JUMP JUMPDEST DUP3 DUP1 SLOAD PUSH2 0xCA2 SWAP1 PUSH2 0x11C4 JUMP JUMPDEST SWAP1 PUSH1 0x0 MSTORE PUSH1 0x20 PUSH1 0x0 KECCAK256 SWAP1 PUSH1 0x1F ADD PUSH1 0x20 SWAP1 DIV DUP2 ADD SWAP3 DUP3 PUSH2 0xCC4 JUMPI PUSH1 0x0 DUP6 SSTORE PUSH2 0xD0B JUMP JUMPDEST DUP3 PUSH1 0x1F LT PUSH2 0xCDD JUMPI DUP1 CALLDATALOAD PUSH1 0xFF NOT AND DUP4 DUP1 ADD OR DUP6 SSTORE PUSH2 0xD0B JUMP JUMPDEST DUP3 DUP1 ADD PUSH1 0x1 ADD DUP6 SSTORE DUP3 ISZERO PUSH2 0xD0B JUMPI SWAP2 DUP3 ADD JUMPDEST DUP3 DUP2 GT ISZERO PUSH2 0xD0A JUMPI DUP3 CALLDATALOAD DUP3 SSTORE SWAP2 PUSH1 0x20 ADD SWAP2 SWAP1 PUSH1 0x1 ADD SWAP1 PUSH2 0xCEF JUMP JUMPDEST JUMPDEST POP SWAP1 POP PUSH2 0xD18 SWAP2 SWAP1 PUSH2 0xD3D JUMP JUMPDEST POP SWAP1 JUMP JUMPDEST PUSH1 0x40 MLOAD DUP1 PUSH1 0x60 ADD PUSH1 0x40 MSTORE DUP1 PUSH1 0x0 DUP2 MSTORE PUSH1 0x20 ADD PUSH1 0x0 DUP2 MSTORE PUSH1 0x20 ADD PUSH1 0x0 DUP2 MSTORE POP SWAP1 JUMP JUMPDEST JUMPDEST DUP1 DUP3 GT ISZERO PUSH2 0xD56 JUMPI PUSH1 0x0 DUP2 PUSH1 0x0 SWAP1 SSTORE POP PUSH1 0x1 ADD PUSH2 0xD3E JUMP JUMPDEST POP SWAP1 JUMP JUMPDEST PUSH1 0x0 DUP2 CALLDATALOAD SWAP1 POP PUSH2 0xD69 DUP2 PUSH2 0x12C7 JUMP JUMPDEST SWAP3 SWAP2 POP POP JUMP JUMPDEST PUSH1 0x0 DUP1 DUP4 PUSH1 0x1F DUP5 ADD SLT PUSH2 0xD85 JUMPI PUSH2 0xD84 PUSH2 0x12A2 JUMP JUMPDEST JUMPDEST DUP3 CALLDATALOAD SWAP1 POP PUSH8 0xFFFFFFFFFFFFFFFF DUP2 GT ISZERO PUSH2 0xDA2 JUMPI PUSH2 0xDA1 PUSH2 0x129D JUMP JUMPDEST JUMPDEST PUSH1 0x20 DUP4 ADD SWAP2 POP DUP4 PUSH1 0x1 DUP3 MUL DUP4 ADD GT ISZERO PUSH2 0xDBE JUMPI PUSH2 0xDBD PUSH2 0x12A7 JUMP JUMPDEST JUMPDEST SWAP3 POP SWAP3 SWAP1 POP JUMP JUMPDEST PUSH1 0x0 DUP2 CALLDATALOAD SWAP1 POP PUSH2 0xDD4 DUP2 PUSH2 0x12DE JUMP JUMPDEST SWAP3 SWAP2 POP POP JUMP JUMPDEST PUSH1 0x0 DUP1 PUSH1 0x0 DUP1 PUSH1 0x60 DUP6 DUP8 SUB SLT ISZERO PUSH2 0xDF4 JUMPI PUSH2 0xDF3 PUSH2 0x12B1 JUMP JUMPDEST JUMPDEST PUSH1 0x0 DUP6 ADD CALLDATALOAD PUSH8 0xFFFFFFFFFFFFFFFF DUP2 GT ISZERO PUSH2 0xE12 JUMPI PUSH2 0xE11 PUSH2 0x12AC JUMP JUMPDEST JUMPDEST PUSH2 0xE1E DUP8 DUP3 DUP9 ADD PUSH2 0xD6F JUMP JUMPDEST SWAP5 POP SWAP5 POP POP PUSH1 0x20 PUSH2 0xE31 DUP8 DUP3 DUP9 ADD PUSH2 0xDC5 JUMP JUMPDEST SWAP3 POP POP PUSH1 0x40 PUSH2 0xE42 DUP8 DUP3 DUP9 ADD PUSH2 0xDC5 JUMP JUMPDEST SWAP2 POP POP SWAP3 SWAP6 SWAP2 SWAP5 POP SWAP3 POP JUMP JUMPDEST PUSH1 0x0 PUSH1 0x20 DUP3 DUP5 SUB SLT ISZERO PUSH2 0xE64 JUMPI PUSH2 0xE63 PUSH2 0x12B1 JUMP JUMPDEST JUMPDEST PUSH1 0x0 PUSH2 0xE72 DUP5 DUP3 DUP6 ADD PUSH2 0xDC5 JUMP JUMPDEST SWAP2 POP POP SWAP3 SWAP2 POP POP JUMP JUMPDEST PUSH1 0x0 DUP1 PUSH1 0x40 DUP4 DUP6 SUB SLT ISZERO PUSH2 0xE92 JUMPI PUSH2 0xE91 PUSH2 0x12B1 JUMP JUMPDEST JUMPDEST PUSH1 0x0 PUSH2 0xEA0 DUP6 DUP3 DUP7 ADD PUSH2 0xDC5 JUMP JUMPDEST SWAP3 POP POP PUSH1 0x20 PUSH2 0xEB1 DUP6 DUP3 DUP7 ADD PUSH2 0xD5A JUMP JUMPDEST SWAP2 POP POP SWAP3 POP SWAP3 SWAP1 POP JUMP JUMPDEST PUSH1 0x0 DUP1 PUSH1 0x40 DUP4 DUP6 SUB SLT ISZERO PUSH2 0xED2 JUMPI PUSH2 0xED1 PUSH2 0x12B1 JUMP JUMPDEST JUMPDEST PUSH1 0x0 PUSH2 0xEE0 DUP6 DUP3 DUP7 ADD PUSH2 0xDC5 JUMP JUMPDEST SWAP3 POP POP PUSH1 0x20 PUSH2 0xEF1 DUP6 DUP3 DUP7 ADD PUSH2 0xDC5 JUMP JUMPDEST SWAP2 POP POP SWAP3 POP SWAP3 SWAP1 POP JUMP JUMPDEST PUSH2 0xF04 DUP2 PUSH2 0x1110 JUMP JUMPDEST DUP3 MSTORE POP POP JUMP JUMPDEST PUSH2 0xF13 DUP2 PUSH2 0x1122 JUMP JUMPDEST DUP3 MSTORE POP POP JUMP JUMPDEST PUSH1 0x0 PUSH2 0xF25 DUP4 DUP6 PUSH2 0x107B JUMP JUMPDEST SWAP4 POP PUSH2 0xF32 DUP4 DUP6 DUP5 PUSH2 0x1158 JUMP JUMPDEST DUP3 DUP5 ADD SWAP1 POP SWAP4 SWAP3 POP POP POP JUMP JUMPDEST PUSH1 0x0 PUSH2 0xF49 DUP3 PUSH2 0x105F JUMP JUMPDEST PUSH2 0xF53 DUP2 DUP6 PUSH2 0x106A JUMP JUMPDEST SWAP4 POP PUSH2 0xF63 DUP2 DUP6 PUSH1 0x20 DUP7 ADD PUSH2 0x1167 JUMP JUMPDEST PUSH2 0xF6C DUP2 PUSH2 0x12B6 JUMP JUMPDEST DUP5 ADD SWAP2 POP POP SWAP3 SWAP2 POP POP JUMP JUMPDEST PUSH2 0xF80 DUP2 PUSH2 0x114E JUMP JUMPDEST DUP3 MSTORE POP POP JUMP JUMPDEST PUSH1 0x0 PUSH2 0xF93 DUP3 DUP5 DUP7 PUSH2 0xF19 JUMP JUMPDEST SWAP2 POP DUP2 SWAP1 POP SWAP4 SWAP3 POP POP POP JUMP JUMPDEST PUSH1 0x0 PUSH1 0x20 DUP3 ADD SWAP1 POP PUSH2 0xFB4 PUSH1 0x0 DUP4 ADD DUP5 PUSH2 0xEFB JUMP JUMPDEST SWAP3 SWAP2 POP POP JUMP JUMPDEST PUSH1 0x0 PUSH1 0x20 DUP3 ADD SWAP1 POP DUP2 DUP2 SUB PUSH1 0x0 DUP4 ADD MSTORE PUSH2 0xFD4 DUP2 DUP5 PUSH2 0xF3E JUMP JUMPDEST SWAP1 POP SWAP3 SWAP2 POP POP JUMP JUMPDEST PUSH1 0x0 PUSH1 0x80 DUP3 ADD SWAP1 POP PUSH2 0xFF1 PUSH1 0x0 DUP4 ADD DUP8 PUSH2 0xF77 JUMP JUMPDEST PUSH2 0xFFE PUSH1 0x20 DUP4 ADD DUP7 PUSH2 0xF77 JUMP JUMPDEST DUP2 DUP2 SUB PUSH1 0x40 DUP4 ADD MSTORE PUSH2 0x1010 DUP2 DUP6 PUSH2 0xF3E JUMP JUMPDEST SWAP1 POP PUSH2 0x101F PUSH1 0x60 DUP4 ADD DUP5 PUSH2 0xF0A JUMP JUMPDEST SWAP6 SWAP5 POP POP POP POP POP JUMP JUMPDEST PUSH1 0x0 PUSH1 0x60 DUP3 ADD SWAP1 POP PUSH2 0x103D PUSH1 0x0 DUP4 ADD DUP7 PUSH2 0xF77 JUMP JUMPDEST PUSH2 0x104A PUSH1 0x20 DUP4 ADD DUP6 PUSH2 0xF77 JUMP JUMPDEST PUSH2 0x1057 PUSH1 0x40 DUP4 ADD DUP5 PUSH2 0xF77 JUMP JUMPDEST SWAP5 SWAP4 POP POP POP POP JUMP JUMPDEST PUSH1 0x0 DUP2 MLOAD SWAP1 POP SWAP2 SWAP1 POP JUMP JUMPDEST PUSH1 0x0 DUP3 DUP3 MSTORE PUSH1 0x20 DUP3 ADD SWAP1 POP SWAP3 SWAP2 POP POP JUMP JUMPDEST PUSH1 0x0 DUP2 SWAP1 POP SWAP3 SWAP2 POP POP JUMP JUMPDEST PUSH1 0x0 PUSH2 0x1091 DUP3 PUSH2 0x114E JUMP JUMPDEST SWAP2 POP PUSH2 0x109C DUP4 PUSH2 0x114E JUMP JUMPDEST SWAP3 POP DUP3 PUSH32 0xFFFFFFFFFFFFFFFFFFFFFFFFFFFFFFFFFFFFFFFFFFFFFFFFFFFFFFFFFFFFFFFF SUB DUP3 GT ISZERO PUSH2 0x10D1 JUMPI PUSH2 0x10D0 PUSH2 0x123F JUMP JUMPDEST JUMPDEST DUP3 DUP3 ADD SWAP1 POP SWAP3 SWAP2 POP POP JUMP JUMPDEST PUSH1 0x0 PUSH2 0x10E7 DUP3 PUSH2 0x114E JUMP JUMPDEST SWAP2 POP PUSH2 0x10F2 DUP4 PUSH2 0x114E JUMP JUMPDEST SWAP3 POP DUP3 DUP3 LT ISZERO PUSH2 0x1105 JUMPI PUSH2 0x1104 PUSH2 0x123F JUMP JUMPDEST JUMPDEST DUP3 DUP3 SUB SWAP1 POP SWAP3 SWAP2 POP POP JUMP JUMPDEST PUSH1 0x0 PUSH2 0x111B DUP3 PUSH2 0x112E JUMP JUMPDEST SWAP1 POP SWAP2 SWAP1 POP JUMP JUMPDEST PUSH1 0x0 DUP2 ISZERO ISZERO SWAP1 POP SWAP2 SWAP1 POP JUMP JUMPDEST PUSH1 0x0 PUSH20 0xFFFFFFFFFFFFFFFFFFFFFFFFFFFFFFFFFFFFFFFF DUP3 AND SWAP1 POP SWAP2 SWAP1 POP JUMP JUMPDEST PUSH1 0x0 DUP2 SWAP1 POP SWAP2 SWAP1 POP JUMP JUMPDEST DUP3 DUP2 DUP4 CALLDATACOPY PUSH1 0x0 DUP4 DUP4 ADD MSTORE POP POP POP JUMP JUMPDEST PUSH1 0x0 JUMPDEST DUP4 DUP2 LT ISZERO PUSH2 0x1185 JUMPI DUP1 DUP3 ADD MLOAD DUP2 DUP5 ADD MSTORE PUSH1 0x20 DUP2 ADD SWAP1 POP PUSH2 0x116A JUMP JUMPDEST DUP4 DUP2 GT ISZERO PUSH2 0x1194 JUMPI PUSH1 0x0 DUP5 DUP5 ADD MSTORE JUMPDEST POP POP POP POP JUMP JUMPDEST PUSH1 0x0 PUSH2 0x11A5 DUP3 PUSH2 0x114E JUMP JUMPDEST SWAP2 POP PUSH1 0x0 DUP3 EQ ISZERO PUSH2 0x11B9 JUMPI PUSH2 0x11B8 PUSH2 0x123F JUMP JUMPDEST JUMPDEST PUSH1 0x1 DUP3 SUB SWAP1 POP SWAP2 SWAP1 POP JUMP JUMPDEST PUSH1 0x0 PUSH1 0x2 DUP3 DIV SWAP1 POP PUSH1 0x1 DUP3 AND DUP1 PUSH2 0x11DC JUMPI PUSH1 0x7F DUP3 AND SWAP2 POP JUMPDEST PUSH1 0x20 DUP3 LT DUP2 EQ ISZERO PUSH2 0x11F0 JUMPI PUSH2 0x11EF PUSH2 0x126E JUMP JUMPDEST JUMPDEST POP SWAP2 SWAP1 POP JUMP JUMPDEST PUSH1 0x0 PUSH2 0x1201 DUP3 PUSH2 0x114E JUMP JUMPDEST SWAP2 POP PUSH32 0xFFFFFFFFFFFFFFFFFFFFFFFFFFFFFFFFFFFFFFFFFFFFFFFFFFFFFFFFFFFFFFFF DUP3 EQ ISZERO PUSH2 0x1234 JUMPI PUSH2 0x1233 PUSH2 0x123F JUMP JUMPDEST JUMPDEST PUSH1 0x1 DUP3 ADD SWAP1 POP SWAP2 SWAP1 POP JUMP JUMPDEST PUSH32 0x4E487B7100000000000000000000000000000000000000000000000000000000 PUSH1 0x0 MSTORE PUSH1 0x11 PUSH1 0x4 MSTORE PUSH1 0x24 PUSH1 0x0 REVERT JUMPDEST PUSH32 0x4E487B7100000000000000000000000000000000000000000000000000000000 PUSH1 0x0 MSTORE PUSH1 0x22 PUSH1 0x4 MSTORE PUSH1 0x24 PUSH1 0x0 REVERT JUMPDEST PUSH1 0x0 DUP1 REVERT JUMPDEST PUSH1 0x0 DUP1 REVERT JUMPDEST PUSH1 0x0 DUP1 REVERT JUMPDEST PUSH1 0x0 DUP1 REVERT JUMPDEST PUSH1 0x0 DUP1 REVERT JUMPDEST PUSH1 0x0 PUSH1 0x1F NOT PUSH1 0x1F DUP4 ADD AND SWAP1 POP SWAP2 SWAP1 POP JUMP JUMPDEST PUSH2 0x12D0 DUP2 PUSH2 0x1110 JUMP JUMPDEST DUP2 EQ PUSH2 0x12DB JUMPI PUSH1 0x0 DUP1 REVERT JUMPDEST POP JUMP JUMPDEST PUSH2 0x12E7 DUP2 PUSH2 0x114E JUMP JUMPDEST DUP2 EQ PUSH2 0x12F2 JUMPI PUSH1 0x0 DUP1 REVERT JUMPDEST POP JUMP INVALID LOG2 PUSH5 0x6970667358 0x22 SLT KECCAK256 GT PUSH19 0x35C646E692822B4C86EE4872A9170FC2E4D3 0xB3 MOD 0xD4 EXTCODESIZE MSIZE DUP6 PUSH4 0x9033D2E0 PUSH5 0x736F6C6343 STOP ADDMOD SMOD STOP CALLER "
				},
				"gasEstimates": {
					"creation": {
						"codeDepositCost": "981400",
						"executionCost": "997",
						"totalCost": "982397"
					},
					"external": {
						"addNewProduct(string,uint256,uint256)": "infinite",
						"availableProducts(uint256)": "infinite",
						"buyProduct(uint256)": "infinite",
						"buyers(uint256,uint256)": "infinite",
						"products(uint256)": "infinite",
						"returnProduct(uint256)": "infinite",
						"transactions(uint256,address)": "infinite",
						"updateQuantity(uint256,uint256)": "infinite",
						"withdraw(uint256)": "473"
					}
				},
				"methodIdentifiers": {
					"addNewProduct(string,uint256,uint256)": "0a5bd44b",
					"availableProducts(uint256)": "e4bcc7d4",
					"buyProduct(uint256)": "8642269e",
					"buyers(uint256,uint256)": "27e7875a",
					"products(uint256)": "7acc0b20",
					"returnProduct(uint256)": "131e407d",
					"transactions(uint256,address)": "74cbc350",
					"updateQuantity(uint256,uint256)": "79cd4921",
					"withdraw(uint256)": "2e1a7d4d"
				}
			},
			"storageLayout": {
				"storage": [
					{
						"astId": 43,
						"contract": "Project/TechnoLime.sol:TechnoLimeStore",
						"label": "availableProducts",
						"offset": 0,
						"slot": "0",
						"type": "t_array(t_string_storage)dyn_storage"
					},
					{
						"astId": 48,
						"contract": "Project/TechnoLime.sol:TechnoLimeStore",
						"label": "products",
						"offset": 0,
						"slot": "1",
						"type": "t_mapping(t_uint256,t_struct(Product)33_storage)"
					},
					{
						"astId": 52,
						"contract": "Project/TechnoLime.sol:TechnoLimeStore",
						"label": "productMap",
						"offset": 0,
						"slot": "2",
						"type": "t_mapping(t_string_memory_ptr,t_bool)"
					},
					{
						"astId": 59,
						"contract": "Project/TechnoLime.sol:TechnoLimeStore",
						"label": "transactions",
						"offset": 0,
						"slot": "3",
						"type": "t_mapping(t_uint256,t_mapping(t_address,t_struct(Transaction)40_storage))"
					},
					{
						"astId": 64,
						"contract": "Project/TechnoLime.sol:TechnoLimeStore",
						"label": "buyers",
						"offset": 0,
						"slot": "4",
						"type": "t_mapping(t_uint256,t_array(t_address)dyn_storage)"
					},
					{
						"astId": 68,
						"contract": "Project/TechnoLime.sol:TechnoLimeStore",
						"label": "pendingWithdrawals",
						"offset": 0,
						"slot": "5",
						"type": "t_mapping(t_address,t_uint256)"
					}
				],
				"types": {
					"t_address": {
						"encoding": "inplace",
						"label": "address",
						"numberOfBytes": "20"
					},
					"t_array(t_address)dyn_storage": {
						"base": "t_address",
						"encoding": "dynamic_array",
						"label": "address[]",
						"numberOfBytes": "32"
					},
					"t_array(t_string_storage)dyn_storage": {
						"base": "t_string_storage",
						"encoding": "dynamic_array",
						"label": "string[]",
						"numberOfBytes": "32"
					},
					"t_bool": {
						"encoding": "inplace",
						"label": "bool",
						"numberOfBytes": "1"
					},
					"t_mapping(t_address,t_struct(Transaction)40_storage)": {
						"encoding": "mapping",
						"key": "t_address",
						"label": "mapping(address => struct TechnoLimeStore.Transaction)",
						"numberOfBytes": "32",
						"value": "t_struct(Transaction)40_storage"
					},
					"t_mapping(t_address,t_uint256)": {
						"encoding": "mapping",
						"key": "t_address",
						"label": "mapping(address => uint256)",
						"numberOfBytes": "32",
						"value": "t_uint256"
					},
					"t_mapping(t_string_memory_ptr,t_bool)": {
						"encoding": "mapping",
						"key": "t_string_memory_ptr",
						"label": "mapping(string => bool)",
						"numberOfBytes": "32",
						"value": "t_bool"
					},
					"t_mapping(t_uint256,t_array(t_address)dyn_storage)": {
						"encoding": "mapping",
						"key": "t_uint256",
						"label": "mapping(uint256 => address[])",
						"numberOfBytes": "32",
						"value": "t_array(t_address)dyn_storage"
					},
					"t_mapping(t_uint256,t_mapping(t_address,t_struct(Transaction)40_storage))": {
						"encoding": "mapping",
						"key": "t_uint256",
						"label": "mapping(uint256 => mapping(address => struct TechnoLimeStore.Transaction))",
						"numberOfBytes": "32",
						"value": "t_mapping(t_address,t_struct(Transaction)40_storage)"
					},
					"t_mapping(t_uint256,t_struct(Product)33_storage)": {
						"encoding": "mapping",
						"key": "t_uint256",
						"label": "mapping(uint256 => struct TechnoLimeStore.Product)",
						"numberOfBytes": "32",
						"value": "t_struct(Product)33_storage"
					},
					"t_string_memory_ptr": {
						"encoding": "bytes",
						"label": "string",
						"numberOfBytes": "32"
					},
					"t_string_storage": {
						"encoding": "bytes",
						"label": "string",
						"numberOfBytes": "32"
					},
					"t_struct(Product)33_storage": {
						"encoding": "inplace",
						"label": "struct TechnoLimeStore.Product",
						"members": [
							{
								"astId": 26,
								"contract": "Project/TechnoLime.sol:TechnoLimeStore",
								"label": "price",
								"offset": 0,
								"slot": "0",
								"type": "t_uint256"
							},
							{
								"astId": 28,
								"contract": "Project/TechnoLime.sol:TechnoLimeStore",
								"label": "quantity",
								"offset": 0,
								"slot": "1",
								"type": "t_uint256"
							},
							{
								"astId": 30,
								"contract": "Project/TechnoLime.sol:TechnoLimeStore",
								"label": "name",
								"offset": 0,
								"slot": "2",
								"type": "t_string_storage"
							},
							{
								"astId": 32,
								"contract": "Project/TechnoLime.sol:TechnoLimeStore",
								"label": "exists",
								"offset": 0,
								"slot": "3",
								"type": "t_bool"
							}
						],
						"numberOfBytes": "128"
					},
					"t_struct(Transaction)40_storage": {
						"encoding": "inplace",
						"label": "struct TechnoLimeStore.Transaction",
						"members": [
							{
								"astId": 35,
								"contract": "Project/TechnoLime.sol:TechnoLimeStore",
								"label": "blockNum",
								"offset": 0,
								"slot": "0",
								"type": "t_uint256"
							},
							{
								"astId": 37,
								"contract": "Project/TechnoLime.sol:TechnoLimeStore",
								"label": "price",
								"offset": 0,
								"slot": "1",
								"type": "t_uint256"
							},
							{
								"astId": 39,
								"contract": "Project/TechnoLime.sol:TechnoLimeStore",
								"label": "status",
								"offset": 0,
								"slot": "2",
								"type": "t_uint256"
							}
						],
						"numberOfBytes": "96"
					},
					"t_uint256": {
						"encoding": "inplace",
						"label": "uint256",
						"numberOfBytes": "32"
					}
				}
			},
			"userdoc": {
				"errors": {
					"ItemIdWrongOrBoughtAlready()": [
						{
							"notice": "Error trown when the productID doesn't exist or it has been bought once already"
						}
					],
					"LessThanPriceOrOutOfStock()": [
						{
							"notice": "Error trown when money sent is less than Product price"
						}
					],
					"ProductExists()": [
						{
							"notice": "Can't add a product that already exists"
						}
					]
				},
				"kind": "user",
				"methods": {},
				"version": 1
			}
		}
	}
}