{
	"Project/TechnoLime.sol": {
		"TechnoLimeStore": {
			"abi": [
				{
					"inputs": [
						{
							"internalType": "string",
							"name": "productName",
							"type": "string"
						},
						{
							"internalType": "uint256",
							"name": "_price",
							"type": "uint256"
						},
						{
							"internalType": "uint256",
							"name": "_quantity",
							"type": "uint256"
						}
					],
					"name": "addNewProduct",
					"outputs": [
						{
							"components": [
								{
									"internalType": "uint256",
									"name": "price",
									"type": "uint256"
								},
								{
									"internalType": "uint256",
									"name": "quantity",
									"type": "uint256"
								},
								{
									"internalType": "address[]",
									"name": "buyers",
									"type": "address[]"
								}
							],
							"internalType": "struct TechnoLimeStore.Product",
							"name": "",
							"type": "tuple"
						}
					],
					"stateMutability": "nonpayable",
					"type": "function"
				},
				{
					"inputs": [
						{
							"internalType": "uint256",
							"name": "",
							"type": "uint256"
						}
					],
					"name": "availableProducts",
					"outputs": [
						{
							"internalType": "string",
							"name": "",
							"type": "string"
						}
					],
					"stateMutability": "view",
					"type": "function"
				},
				{
					"inputs": [
						{
							"internalType": "string",
							"name": "",
							"type": "string"
						}
					],
					"name": "products",
					"outputs": [
						{
							"internalType": "uint256",
							"name": "price",
							"type": "uint256"
						},
						{
							"internalType": "uint256",
							"name": "quantity",
							"type": "uint256"
						}
					],
					"stateMutability": "view",
					"type": "function"
				}
			],
			"devdoc": {
				"kind": "dev",
				"methods": {},
				"version": 1
			},
			"evm": {
				"assembly": "    /* \"Project/TechnoLime.sol\":4:764  contract TechnoLimeStore {\r... */\n  mstore(0x40, 0x80)\n  callvalue\n  dup1\n  iszero\n  tag_1\n  jumpi\n  0x00\n  dup1\n  revert\ntag_1:\n  pop\n  dataSize(sub_0)\n  dup1\n  dataOffset(sub_0)\n  0x00\n  codecopy\n  0x00\n  return\nstop\n\nsub_0: assembly {\n        /* \"Project/TechnoLime.sol\":4:764  contract TechnoLimeStore {\r... */\n      mstore(0x40, 0x80)\n      callvalue\n      dup1\n      iszero\n      tag_1\n      jumpi\n      0x00\n      dup1\n      revert\n    tag_1:\n      pop\n      jumpi(tag_2, lt(calldatasize, 0x04))\n      shr(0xe0, calldataload(0x00))\n      dup1\n      0x0186a423\n      eq\n      tag_3\n      jumpi\n      dup1\n      0x0a5bd44b\n      eq\n      tag_4\n      jumpi\n      dup1\n      0xe4bcc7d4\n      eq\n      tag_5\n      jumpi\n    tag_2:\n      0x00\n      dup1\n      revert\n        /* \"Project/TechnoLime.sol\":181:223  mapping(string => Product) public products */\n    tag_3:\n      tag_6\n      0x04\n      dup1\n      calldatasize\n      sub\n      dup2\n      add\n      swap1\n      tag_7\n      swap2\n      swap1\n      tag_8\n      jump\t// in\n    tag_7:\n      tag_9\n      jump\t// in\n    tag_6:\n      mload(0x40)\n      tag_10\n      swap3\n      swap2\n      swap1\n      tag_11\n      jump\t// in\n    tag_10:\n      mload(0x40)\n      dup1\n      swap2\n      sub\n      swap1\n      return\n        /* \"Project/TechnoLime.sol\":382:755  function addNewProduct(string calldata productName, uint _price,uint _quantity) external returns(Product memory){\r... */\n    tag_4:\n      tag_12\n      0x04\n      dup1\n      calldatasize\n      sub\n      dup2\n      add\n      swap1\n      tag_13\n      swap2\n      swap1\n      tag_14\n      jump\t// in\n    tag_13:\n      tag_15\n      jump\t// in\n    tag_12:\n      mload(0x40)\n      tag_16\n      swap2\n      swap1\n      tag_17\n      jump\t// in\n    tag_16:\n      mload(0x40)\n      dup1\n      swap2\n      sub\n      swap1\n      return\n        /* \"Project/TechnoLime.sol\":141:174  string[] public availableProducts */\n    tag_5:\n      tag_18\n      0x04\n      dup1\n      calldatasize\n      sub\n      dup2\n      add\n      swap1\n      tag_19\n      swap2\n      swap1\n      tag_20\n      jump\t// in\n    tag_19:\n      tag_21\n      jump\t// in\n    tag_18:\n      mload(0x40)\n      tag_22\n      swap2\n      swap1\n      tag_23\n      jump\t// in\n    tag_22:\n      mload(0x40)\n      dup1\n      swap2\n      sub\n      swap1\n      return\n        /* \"Project/TechnoLime.sol\":181:223  mapping(string => Product) public products */\n    tag_9:\n      0x01\n      dup2\n      dup1\n      mload\n      0x20\n      dup2\n      add\n      dup3\n      add\n      dup1\n      mload\n      dup5\n      dup3\n      mstore\n      0x20\n      dup4\n      add\n      0x20\n      dup6\n      add\n      keccak256\n      dup2\n      dup4\n      mstore\n      dup1\n      swap6\n      pop\n      pop\n      pop\n      pop\n      pop\n      pop\n      0x00\n      swap2\n      pop\n      swap1\n      pop\n      dup1\n      0x00\n      add\n      sload\n      swap1\n      dup1\n      0x01\n      add\n      sload\n      swap1\n      pop\n      dup3\n      jump\t// out\n        /* \"Project/TechnoLime.sol\":382:755  function addNewProduct(string calldata productName, uint _price,uint _quantity) external returns(Product memory){\r... */\n    tag_15:\n        /* \"Project/TechnoLime.sol\":479:493  Product memory */\n      tag_24\n      tag_25\n      jump\t// in\n    tag_24:\n        /* \"Project/TechnoLime.sol\":716:724  products */\n      0x01\n        /* \"Project/TechnoLime.sol\":725:736  productName */\n      dup6\n      dup6\n        /* \"Project/TechnoLime.sol\":716:737  products[productName] */\n      mload(0x40)\n      tag_27\n      swap3\n      swap2\n      swap1\n      tag_28\n      jump\t// in\n    tag_27:\n      swap1\n      dup2\n      mstore\n      0x20\n      add\n      mload(0x40)\n      dup1\n      swap2\n      sub\n      swap1\n      keccak256\n        /* \"Project/TechnoLime.sol\":709:737  return products[productName] */\n      mload(0x40)\n      dup1\n      0x60\n      add\n      0x40\n      mstore\n      swap1\n      dup2\n      0x00\n      dup3\n      add\n      sload\n      dup2\n      mstore\n      0x20\n      add\n      0x01\n      dup3\n      add\n      sload\n      dup2\n      mstore\n      0x20\n      add\n      0x02\n      dup3\n      add\n      dup1\n      sload\n      dup1\n      0x20\n      mul\n      0x20\n      add\n      mload(0x40)\n      swap1\n      dup2\n      add\n      0x40\n      mstore\n      dup1\n      swap3\n      swap2\n      swap1\n      dup2\n      dup2\n      mstore\n      0x20\n      add\n      dup3\n      dup1\n      sload\n      dup1\n      iszero\n      tag_29\n      jumpi\n      0x20\n      mul\n      dup3\n      add\n      swap2\n      swap1\n      0x00\n      mstore\n      keccak256(0x00, 0x20)\n      swap1\n    tag_30:\n      dup2\n      0x00\n      swap1\n      sload\n      swap1\n      0x0100\n      exp\n      swap1\n      div\n      0xffffffffffffffffffffffffffffffffffffffff\n      and\n      0xffffffffffffffffffffffffffffffffffffffff\n      and\n      dup2\n      mstore\n      0x20\n      add\n      swap1\n      0x01\n      add\n      swap1\n      dup1\n      dup4\n      gt\n      tag_30\n      jumpi\n    tag_29:\n      pop\n      pop\n      pop\n      pop\n      pop\n      dup2\n      mstore\n      pop\n      pop\n      swap1\n      pop\n        /* \"Project/TechnoLime.sol\":382:755  function addNewProduct(string calldata productName, uint _price,uint _quantity) external returns(Product memory){\r... */\n      swap5\n      swap4\n      pop\n      pop\n      pop\n      pop\n      jump\t// out\n        /* \"Project/TechnoLime.sol\":141:174  string[] public availableProducts */\n    tag_21:\n      0x00\n      dup2\n      dup2\n      sload\n      dup2\n      lt\n      tag_31\n      jumpi\n      0x00\n      dup1\n      revert\n    tag_31:\n      swap1\n      0x00\n      mstore\n      keccak256(0x00, 0x20)\n      add\n      0x00\n      swap2\n      pop\n      swap1\n      pop\n      dup1\n      sload\n      tag_33\n      swap1\n      tag_34\n      jump\t// in\n    tag_33:\n      dup1\n      0x1f\n      add\n      0x20\n      dup1\n      swap2\n      div\n      mul\n      0x20\n      add\n      mload(0x40)\n      swap1\n      dup2\n      add\n      0x40\n      mstore\n      dup1\n      swap3\n      swap2\n      swap1\n      dup2\n      dup2\n      mstore\n      0x20\n      add\n      dup3\n      dup1\n      sload\n      tag_35\n      swap1\n      tag_34\n      jump\t// in\n    tag_35:\n      dup1\n      iszero\n      tag_36\n      jumpi\n      dup1\n      0x1f\n      lt\n      tag_37\n      jumpi\n      0x0100\n      dup1\n      dup4\n      sload\n      div\n      mul\n      dup4\n      mstore\n      swap2\n      0x20\n      add\n      swap2\n      jump(tag_36)\n    tag_37:\n      dup3\n      add\n      swap2\n      swap1\n      0x00\n      mstore\n      keccak256(0x00, 0x20)\n      swap1\n    tag_38:\n      dup2\n      sload\n      dup2\n      mstore\n      swap1\n      0x01\n      add\n      swap1\n      0x20\n      add\n      dup1\n      dup4\n      gt\n      tag_38\n      jumpi\n      dup3\n      swap1\n      sub\n      0x1f\n      and\n      dup3\n      add\n      swap2\n    tag_36:\n      pop\n      pop\n      pop\n      pop\n      pop\n      dup2\n      jump\t// out\n    tag_25:\n      mload(0x40)\n      dup1\n      0x60\n      add\n      0x40\n      mstore\n      dup1\n      0x00\n      dup2\n      mstore\n      0x20\n      add\n      0x00\n      dup2\n      mstore\n      0x20\n      add\n      0x60\n      dup2\n      mstore\n      pop\n      swap1\n      jump\t// out\n        /* \"#utility.yul\":7:419   */\n    tag_40:\n        /* \"#utility.yul\":85:90   */\n      0x00\n        /* \"#utility.yul\":110:176   */\n      tag_42\n        /* \"#utility.yul\":126:175   */\n      tag_43\n        /* \"#utility.yul\":168:174   */\n      dup5\n        /* \"#utility.yul\":126:175   */\n      tag_44\n      jump\t// in\n    tag_43:\n        /* \"#utility.yul\":110:176   */\n      tag_45\n      jump\t// in\n    tag_42:\n        /* \"#utility.yul\":101:176   */\n      swap1\n      pop\n        /* \"#utility.yul\":199:205   */\n      dup3\n        /* \"#utility.yul\":192:197   */\n      dup2\n        /* \"#utility.yul\":185:206   */\n      mstore\n        /* \"#utility.yul\":237:241   */\n      0x20\n        /* \"#utility.yul\":230:235   */\n      dup2\n        /* \"#utility.yul\":226:242   */\n      add\n        /* \"#utility.yul\":275:278   */\n      dup5\n        /* \"#utility.yul\":266:272   */\n      dup5\n        /* \"#utility.yul\":261:264   */\n      dup5\n        /* \"#utility.yul\":257:273   */\n      add\n        /* \"#utility.yul\":254:279   */\n      gt\n        /* \"#utility.yul\":251:363   */\n      iszero\n      tag_46\n      jumpi\n        /* \"#utility.yul\":282:361   */\n      tag_47\n      tag_48\n      jump\t// in\n    tag_47:\n        /* \"#utility.yul\":251:363   */\n    tag_46:\n        /* \"#utility.yul\":372:413   */\n      tag_49\n        /* \"#utility.yul\":406:412   */\n      dup5\n        /* \"#utility.yul\":401:404   */\n      dup3\n        /* \"#utility.yul\":396:399   */\n      dup6\n        /* \"#utility.yul\":372:413   */\n      tag_50\n      jump\t// in\n    tag_49:\n        /* \"#utility.yul\":91:419   */\n      pop\n        /* \"#utility.yul\":7:419   */\n      swap4\n      swap3\n      pop\n      pop\n      pop\n      jump\t// out\n        /* \"#utility.yul\":439:992   */\n    tag_51:\n        /* \"#utility.yul\":497:505   */\n      0x00\n        /* \"#utility.yul\":507:513   */\n      dup1\n        /* \"#utility.yul\":557:560   */\n      dup4\n        /* \"#utility.yul\":550:554   */\n      0x1f\n        /* \"#utility.yul\":542:548   */\n      dup5\n        /* \"#utility.yul\":538:555   */\n      add\n        /* \"#utility.yul\":534:561   */\n      slt\n        /* \"#utility.yul\":524:646   */\n      tag_53\n      jumpi\n        /* \"#utility.yul\":565:644   */\n      tag_54\n      tag_55\n      jump\t// in\n    tag_54:\n        /* \"#utility.yul\":524:646   */\n    tag_53:\n        /* \"#utility.yul\":678:684   */\n      dup3\n        /* \"#utility.yul\":665:685   */\n      calldataload\n        /* \"#utility.yul\":655:685   */\n      swap1\n      pop\n        /* \"#utility.yul\":708:726   */\n      0xffffffffffffffff\n        /* \"#utility.yul\":700:706   */\n      dup2\n        /* \"#utility.yul\":697:727   */\n      gt\n        /* \"#utility.yul\":694:811   */\n      iszero\n      tag_56\n      jumpi\n        /* \"#utility.yul\":730:809   */\n      tag_57\n      tag_58\n      jump\t// in\n    tag_57:\n        /* \"#utility.yul\":694:811   */\n    tag_56:\n        /* \"#utility.yul\":844:848   */\n      0x20\n        /* \"#utility.yul\":836:842   */\n      dup4\n        /* \"#utility.yul\":832:849   */\n      add\n        /* \"#utility.yul\":820:849   */\n      swap2\n      pop\n        /* \"#utility.yul\":898:901   */\n      dup4\n        /* \"#utility.yul\":890:894   */\n      0x01\n        /* \"#utility.yul\":882:888   */\n      dup3\n        /* \"#utility.yul\":878:895   */\n      mul\n        /* \"#utility.yul\":868:876   */\n      dup4\n        /* \"#utility.yul\":864:896   */\n      add\n        /* \"#utility.yul\":861:902   */\n      gt\n        /* \"#utility.yul\":858:986   */\n      iszero\n      tag_59\n      jumpi\n        /* \"#utility.yul\":905:984   */\n      tag_60\n      tag_61\n      jump\t// in\n    tag_60:\n        /* \"#utility.yul\":858:986   */\n    tag_59:\n        /* \"#utility.yul\":439:992   */\n      swap3\n      pop\n      swap3\n      swap1\n      pop\n      jump\t// out\n        /* \"#utility.yul\":1012:1352   */\n    tag_62:\n        /* \"#utility.yul\":1068:1073   */\n      0x00\n        /* \"#utility.yul\":1117:1120   */\n      dup3\n        /* \"#utility.yul\":1110:1114   */\n      0x1f\n        /* \"#utility.yul\":1102:1108   */\n      dup4\n        /* \"#utility.yul\":1098:1115   */\n      add\n        /* \"#utility.yul\":1094:1121   */\n      slt\n        /* \"#utility.yul\":1084:1206   */\n      tag_64\n      jumpi\n        /* \"#utility.yul\":1125:1204   */\n      tag_65\n      tag_55\n      jump\t// in\n    tag_65:\n        /* \"#utility.yul\":1084:1206   */\n    tag_64:\n        /* \"#utility.yul\":1242:1248   */\n      dup2\n        /* \"#utility.yul\":1229:1249   */\n      calldataload\n        /* \"#utility.yul\":1267:1346   */\n      tag_66\n        /* \"#utility.yul\":1342:1345   */\n      dup5\n        /* \"#utility.yul\":1334:1340   */\n      dup3\n        /* \"#utility.yul\":1327:1331   */\n      0x20\n        /* \"#utility.yul\":1319:1325   */\n      dup7\n        /* \"#utility.yul\":1315:1332   */\n      add\n        /* \"#utility.yul\":1267:1346   */\n      tag_40\n      jump\t// in\n    tag_66:\n        /* \"#utility.yul\":1258:1346   */\n      swap2\n      pop\n        /* \"#utility.yul\":1074:1352   */\n      pop\n        /* \"#utility.yul\":1012:1352   */\n      swap3\n      swap2\n      pop\n      pop\n      jump\t// out\n        /* \"#utility.yul\":1358:1497   */\n    tag_67:\n        /* \"#utility.yul\":1404:1409   */\n      0x00\n        /* \"#utility.yul\":1442:1448   */\n      dup2\n        /* \"#utility.yul\":1429:1449   */\n      calldataload\n        /* \"#utility.yul\":1420:1449   */\n      swap1\n      pop\n        /* \"#utility.yul\":1458:1491   */\n      tag_69\n        /* \"#utility.yul\":1485:1490   */\n      dup2\n        /* \"#utility.yul\":1458:1491   */\n      tag_70\n      jump\t// in\n    tag_69:\n        /* \"#utility.yul\":1358:1497   */\n      swap3\n      swap2\n      pop\n      pop\n      jump\t// out\n        /* \"#utility.yul\":1503:2322   */\n    tag_14:\n        /* \"#utility.yul\":1592:1598   */\n      0x00\n        /* \"#utility.yul\":1600:1606   */\n      dup1\n        /* \"#utility.yul\":1608:1614   */\n      0x00\n        /* \"#utility.yul\":1616:1622   */\n      dup1\n        /* \"#utility.yul\":1665:1667   */\n      0x60\n        /* \"#utility.yul\":1653:1662   */\n      dup6\n        /* \"#utility.yul\":1644:1651   */\n      dup8\n        /* \"#utility.yul\":1640:1663   */\n      sub\n        /* \"#utility.yul\":1636:1668   */\n      slt\n        /* \"#utility.yul\":1633:1752   */\n      iszero\n      tag_72\n      jumpi\n        /* \"#utility.yul\":1671:1750   */\n      tag_73\n      tag_74\n      jump\t// in\n    tag_73:\n        /* \"#utility.yul\":1633:1752   */\n    tag_72:\n        /* \"#utility.yul\":1819:1820   */\n      0x00\n        /* \"#utility.yul\":1808:1817   */\n      dup6\n        /* \"#utility.yul\":1804:1821   */\n      add\n        /* \"#utility.yul\":1791:1822   */\n      calldataload\n        /* \"#utility.yul\":1849:1867   */\n      0xffffffffffffffff\n        /* \"#utility.yul\":1841:1847   */\n      dup2\n        /* \"#utility.yul\":1838:1868   */\n      gt\n        /* \"#utility.yul\":1835:1952   */\n      iszero\n      tag_75\n      jumpi\n        /* \"#utility.yul\":1871:1950   */\n      tag_76\n      tag_77\n      jump\t// in\n    tag_76:\n        /* \"#utility.yul\":1835:1952   */\n    tag_75:\n        /* \"#utility.yul\":1984:2049   */\n      tag_78\n        /* \"#utility.yul\":2041:2048   */\n      dup8\n        /* \"#utility.yul\":2032:2038   */\n      dup3\n        /* \"#utility.yul\":2021:2030   */\n      dup9\n        /* \"#utility.yul\":2017:2039   */\n      add\n        /* \"#utility.yul\":1984:2049   */\n      tag_51\n      jump\t// in\n    tag_78:\n        /* \"#utility.yul\":1966:2049   */\n      swap5\n      pop\n      swap5\n      pop\n        /* \"#utility.yul\":1762:2059   */\n      pop\n        /* \"#utility.yul\":2098:2100   */\n      0x20\n        /* \"#utility.yul\":2124:2177   */\n      tag_79\n        /* \"#utility.yul\":2169:2176   */\n      dup8\n        /* \"#utility.yul\":2160:2166   */\n      dup3\n        /* \"#utility.yul\":2149:2158   */\n      dup9\n        /* \"#utility.yul\":2145:2167   */\n      add\n        /* \"#utility.yul\":2124:2177   */\n      tag_67\n      jump\t// in\n    tag_79:\n        /* \"#utility.yul\":2114:2177   */\n      swap3\n      pop\n        /* \"#utility.yul\":2069:2187   */\n      pop\n        /* \"#utility.yul\":2226:2228   */\n      0x40\n        /* \"#utility.yul\":2252:2305   */\n      tag_80\n        /* \"#utility.yul\":2297:2304   */\n      dup8\n        /* \"#utility.yul\":2288:2294   */\n      dup3\n        /* \"#utility.yul\":2277:2286   */\n      dup9\n        /* \"#utility.yul\":2273:2295   */\n      add\n        /* \"#utility.yul\":2252:2305   */\n      tag_67\n      jump\t// in\n    tag_80:\n        /* \"#utility.yul\":2242:2305   */\n      swap2\n      pop\n        /* \"#utility.yul\":2197:2315   */\n      pop\n        /* \"#utility.yul\":1503:2322   */\n      swap3\n      swap6\n      swap2\n      swap5\n      pop\n      swap3\n      pop\n      jump\t// out\n        /* \"#utility.yul\":2328:2837   */\n    tag_8:\n        /* \"#utility.yul\":2397:2403   */\n      0x00\n        /* \"#utility.yul\":2446:2448   */\n      0x20\n        /* \"#utility.yul\":2434:2443   */\n      dup3\n        /* \"#utility.yul\":2425:2432   */\n      dup5\n        /* \"#utility.yul\":2421:2444   */\n      sub\n        /* \"#utility.yul\":2417:2449   */\n      slt\n        /* \"#utility.yul\":2414:2533   */\n      iszero\n      tag_82\n      jumpi\n        /* \"#utility.yul\":2452:2531   */\n      tag_83\n      tag_74\n      jump\t// in\n    tag_83:\n        /* \"#utility.yul\":2414:2533   */\n    tag_82:\n        /* \"#utility.yul\":2600:2601   */\n      0x00\n        /* \"#utility.yul\":2589:2598   */\n      dup3\n        /* \"#utility.yul\":2585:2602   */\n      add\n        /* \"#utility.yul\":2572:2603   */\n      calldataload\n        /* \"#utility.yul\":2630:2648   */\n      0xffffffffffffffff\n        /* \"#utility.yul\":2622:2628   */\n      dup2\n        /* \"#utility.yul\":2619:2649   */\n      gt\n        /* \"#utility.yul\":2616:2733   */\n      iszero\n      tag_84\n      jumpi\n        /* \"#utility.yul\":2652:2731   */\n      tag_85\n      tag_77\n      jump\t// in\n    tag_85:\n        /* \"#utility.yul\":2616:2733   */\n    tag_84:\n        /* \"#utility.yul\":2757:2820   */\n      tag_86\n        /* \"#utility.yul\":2812:2819   */\n      dup5\n        /* \"#utility.yul\":2803:2809   */\n      dup3\n        /* \"#utility.yul\":2792:2801   */\n      dup6\n        /* \"#utility.yul\":2788:2810   */\n      add\n        /* \"#utility.yul\":2757:2820   */\n      tag_62\n      jump\t// in\n    tag_86:\n        /* \"#utility.yul\":2747:2820   */\n      swap2\n      pop\n        /* \"#utility.yul\":2543:2830   */\n      pop\n        /* \"#utility.yul\":2328:2837   */\n      swap3\n      swap2\n      pop\n      pop\n      jump\t// out\n        /* \"#utility.yul\":2843:3172   */\n    tag_20:\n        /* \"#utility.yul\":2902:2908   */\n      0x00\n        /* \"#utility.yul\":2951:2953   */\n      0x20\n        /* \"#utility.yul\":2939:2948   */\n      dup3\n        /* \"#utility.yul\":2930:2937   */\n      dup5\n        /* \"#utility.yul\":2926:2949   */\n      sub\n        /* \"#utility.yul\":2922:2954   */\n      slt\n        /* \"#utility.yul\":2919:3038   */\n      iszero\n      tag_88\n      jumpi\n        /* \"#utility.yul\":2957:3036   */\n      tag_89\n      tag_74\n      jump\t// in\n    tag_89:\n        /* \"#utility.yul\":2919:3038   */\n    tag_88:\n        /* \"#utility.yul\":3077:3078   */\n      0x00\n        /* \"#utility.yul\":3102:3155   */\n      tag_90\n        /* \"#utility.yul\":3147:3154   */\n      dup5\n        /* \"#utility.yul\":3138:3144   */\n      dup3\n        /* \"#utility.yul\":3127:3136   */\n      dup6\n        /* \"#utility.yul\":3123:3145   */\n      add\n        /* \"#utility.yul\":3102:3155   */\n      tag_67\n      jump\t// in\n    tag_90:\n        /* \"#utility.yul\":3092:3155   */\n      swap2\n      pop\n        /* \"#utility.yul\":3048:3165   */\n      pop\n        /* \"#utility.yul\":2843:3172   */\n      swap3\n      swap2\n      pop\n      pop\n      jump\t// out\n        /* \"#utility.yul\":3178:3357   */\n    tag_91:\n        /* \"#utility.yul\":3247:3257   */\n      0x00\n        /* \"#utility.yul\":3268:3314   */\n      tag_93\n        /* \"#utility.yul\":3310:3313   */\n      dup4\n        /* \"#utility.yul\":3302:3308   */\n      dup4\n        /* \"#utility.yul\":3268:3314   */\n      tag_94\n      jump\t// in\n    tag_93:\n        /* \"#utility.yul\":3346:3350   */\n      0x20\n        /* \"#utility.yul\":3341:3344   */\n      dup4\n        /* \"#utility.yul\":3337:3351   */\n      add\n        /* \"#utility.yul\":3323:3351   */\n      swap1\n      pop\n        /* \"#utility.yul\":3178:3357   */\n      swap3\n      swap2\n      pop\n      pop\n      jump\t// out\n        /* \"#utility.yul\":3363:3471   */\n    tag_94:\n        /* \"#utility.yul\":3440:3464   */\n      tag_96\n        /* \"#utility.yul\":3458:3463   */\n      dup2\n        /* \"#utility.yul\":3440:3464   */\n      tag_97\n      jump\t// in\n    tag_96:\n        /* \"#utility.yul\":3435:3438   */\n      dup3\n        /* \"#utility.yul\":3428:3465   */\n      mstore\n        /* \"#utility.yul\":3363:3471   */\n      pop\n      pop\n      jump\t// out\n        /* \"#utility.yul\":3507:4219   */\n    tag_98:\n        /* \"#utility.yul\":3616:3619   */\n      0x00\n        /* \"#utility.yul\":3645:3699   */\n      tag_100\n        /* \"#utility.yul\":3693:3698   */\n      dup3\n        /* \"#utility.yul\":3645:3699   */\n      tag_101\n      jump\t// in\n    tag_100:\n        /* \"#utility.yul\":3715:3791   */\n      tag_102\n        /* \"#utility.yul\":3784:3790   */\n      dup2\n        /* \"#utility.yul\":3779:3782   */\n      dup6\n        /* \"#utility.yul\":3715:3791   */\n      tag_103\n      jump\t// in\n    tag_102:\n        /* \"#utility.yul\":3708:3791   */\n      swap4\n      pop\n        /* \"#utility.yul\":3815:3871   */\n      tag_104\n        /* \"#utility.yul\":3865:3870   */\n      dup4\n        /* \"#utility.yul\":3815:3871   */\n      tag_105\n      jump\t// in\n    tag_104:\n        /* \"#utility.yul\":3894:3901   */\n      dup1\n        /* \"#utility.yul\":3925:3926   */\n      0x00\n        /* \"#utility.yul\":3910:4194   */\n    tag_106:\n        /* \"#utility.yul\":3935:3941   */\n      dup4\n        /* \"#utility.yul\":3932:3933   */\n      dup2\n        /* \"#utility.yul\":3929:3942   */\n      lt\n        /* \"#utility.yul\":3910:4194   */\n      iszero\n      tag_108\n      jumpi\n        /* \"#utility.yul\":4011:4017   */\n      dup2\n        /* \"#utility.yul\":4005:4018   */\n      mload\n        /* \"#utility.yul\":4038:4101   */\n      tag_109\n        /* \"#utility.yul\":4097:4100   */\n      dup9\n        /* \"#utility.yul\":4082:4095   */\n      dup3\n        /* \"#utility.yul\":4038:4101   */\n      tag_91\n      jump\t// in\n    tag_109:\n        /* \"#utility.yul\":4031:4101   */\n      swap8\n      pop\n        /* \"#utility.yul\":4124:4184   */\n      tag_110\n        /* \"#utility.yul\":4177:4183   */\n      dup4\n        /* \"#utility.yul\":4124:4184   */\n      tag_111\n      jump\t// in\n    tag_110:\n        /* \"#utility.yul\":4114:4184   */\n      swap3\n      pop\n        /* \"#utility.yul\":3970:4194   */\n      pop\n        /* \"#utility.yul\":3957:3958   */\n      0x01\n        /* \"#utility.yul\":3954:3955   */\n      dup2\n        /* \"#utility.yul\":3950:3959   */\n      add\n        /* \"#utility.yul\":3945:3959   */\n      swap1\n      pop\n        /* \"#utility.yul\":3910:4194   */\n      jump(tag_106)\n    tag_108:\n        /* \"#utility.yul\":3914:3928   */\n      pop\n        /* \"#utility.yul\":4210:4213   */\n      dup6\n        /* \"#utility.yul\":4203:4213   */\n      swap4\n      pop\n        /* \"#utility.yul\":3621:4219   */\n      pop\n      pop\n      pop\n        /* \"#utility.yul\":3507:4219   */\n      swap3\n      swap2\n      pop\n      pop\n      jump\t// out\n        /* \"#utility.yul\":4249:4566   */\n    tag_112:\n        /* \"#utility.yul\":4365:4368   */\n      0x00\n        /* \"#utility.yul\":4386:4475   */\n      tag_114\n        /* \"#utility.yul\":4468:4474   */\n      dup4\n        /* \"#utility.yul\":4463:4466   */\n      dup6\n        /* \"#utility.yul\":4386:4475   */\n      tag_115\n      jump\t// in\n    tag_114:\n        /* \"#utility.yul\":4379:4475   */\n      swap4\n      pop\n        /* \"#utility.yul\":4485:4528   */\n      tag_116\n        /* \"#utility.yul\":4521:4527   */\n      dup4\n        /* \"#utility.yul\":4516:4519   */\n      dup6\n        /* \"#utility.yul\":4509:4514   */\n      dup5\n        /* \"#utility.yul\":4485:4528   */\n      tag_50\n      jump\t// in\n    tag_116:\n        /* \"#utility.yul\":4553:4559   */\n      dup3\n        /* \"#utility.yul\":4548:4551   */\n      dup5\n        /* \"#utility.yul\":4544:4560   */\n      add\n        /* \"#utility.yul\":4537:4560   */\n      swap1\n      pop\n        /* \"#utility.yul\":4249:4566   */\n      swap4\n      swap3\n      pop\n      pop\n      pop\n      jump\t// out\n        /* \"#utility.yul\":4572:4936   */\n    tag_117:\n        /* \"#utility.yul\":4660:4663   */\n      0x00\n        /* \"#utility.yul\":4688:4727   */\n      tag_119\n        /* \"#utility.yul\":4721:4726   */\n      dup3\n        /* \"#utility.yul\":4688:4727   */\n      tag_120\n      jump\t// in\n    tag_119:\n        /* \"#utility.yul\":4743:4814   */\n      tag_121\n        /* \"#utility.yul\":4807:4813   */\n      dup2\n        /* \"#utility.yul\":4802:4805   */\n      dup6\n        /* \"#utility.yul\":4743:4814   */\n      tag_122\n      jump\t// in\n    tag_121:\n        /* \"#utility.yul\":4736:4814   */\n      swap4\n      pop\n        /* \"#utility.yul\":4823:4875   */\n      tag_123\n        /* \"#utility.yul\":4868:4874   */\n      dup2\n        /* \"#utility.yul\":4863:4866   */\n      dup6\n        /* \"#utility.yul\":4856:4860   */\n      0x20\n        /* \"#utility.yul\":4849:4854   */\n      dup7\n        /* \"#utility.yul\":4845:4861   */\n      add\n        /* \"#utility.yul\":4823:4875   */\n      tag_124\n      jump\t// in\n    tag_123:\n        /* \"#utility.yul\":4900:4929   */\n      tag_125\n        /* \"#utility.yul\":4922:4928   */\n      dup2\n        /* \"#utility.yul\":4900:4929   */\n      tag_126\n      jump\t// in\n    tag_125:\n        /* \"#utility.yul\":4895:4898   */\n      dup5\n        /* \"#utility.yul\":4891:4930   */\n      add\n        /* \"#utility.yul\":4884:4930   */\n      swap2\n      pop\n        /* \"#utility.yul\":4664:4936   */\n      pop\n        /* \"#utility.yul\":4572:4936   */\n      swap3\n      swap2\n      pop\n      pop\n      jump\t// out\n        /* \"#utility.yul\":5014:5825   */\n    tag_127:\n        /* \"#utility.yul\":5127:5130   */\n      0x00\n        /* \"#utility.yul\":5163:5167   */\n      0x60\n        /* \"#utility.yul\":5158:5161   */\n      dup4\n        /* \"#utility.yul\":5154:5168   */\n      add\n        /* \"#utility.yul\":5251:5255   */\n      0x00\n        /* \"#utility.yul\":5244:5249   */\n      dup4\n        /* \"#utility.yul\":5240:5256   */\n      add\n        /* \"#utility.yul\":5234:5257   */\n      mload\n        /* \"#utility.yul\":5270:5333   */\n      tag_129\n        /* \"#utility.yul\":5327:5331   */\n      0x00\n        /* \"#utility.yul\":5322:5325   */\n      dup7\n        /* \"#utility.yul\":5318:5332   */\n      add\n        /* \"#utility.yul\":5304:5316   */\n      dup3\n        /* \"#utility.yul\":5270:5333   */\n      tag_130\n      jump\t// in\n    tag_129:\n        /* \"#utility.yul\":5178:5343   */\n      pop\n        /* \"#utility.yul\":5429:5433   */\n      0x20\n        /* \"#utility.yul\":5422:5427   */\n      dup4\n        /* \"#utility.yul\":5418:5434   */\n      add\n        /* \"#utility.yul\":5412:5435   */\n      mload\n        /* \"#utility.yul\":5448:5511   */\n      tag_131\n        /* \"#utility.yul\":5505:5509   */\n      0x20\n        /* \"#utility.yul\":5500:5503   */\n      dup7\n        /* \"#utility.yul\":5496:5510   */\n      add\n        /* \"#utility.yul\":5482:5494   */\n      dup3\n        /* \"#utility.yul\":5448:5511   */\n      tag_130\n      jump\t// in\n    tag_131:\n        /* \"#utility.yul\":5353:5521   */\n      pop\n        /* \"#utility.yul\":5605:5609   */\n      0x40\n        /* \"#utility.yul\":5598:5603   */\n      dup4\n        /* \"#utility.yul\":5594:5610   */\n      add\n        /* \"#utility.yul\":5588:5611   */\n      mload\n        /* \"#utility.yul\":5658:5661   */\n      dup5\n        /* \"#utility.yul\":5652:5656   */\n      dup3\n        /* \"#utility.yul\":5648:5662   */\n      sub\n        /* \"#utility.yul\":5641:5645   */\n      0x40\n        /* \"#utility.yul\":5636:5639   */\n      dup7\n        /* \"#utility.yul\":5632:5646   */\n      add\n        /* \"#utility.yul\":5625:5663   */\n      mstore\n        /* \"#utility.yul\":5684:5787   */\n      tag_132\n        /* \"#utility.yul\":5782:5786   */\n      dup3\n        /* \"#utility.yul\":5768:5780   */\n      dup3\n        /* \"#utility.yul\":5684:5787   */\n      tag_98\n      jump\t// in\n    tag_132:\n        /* \"#utility.yul\":5676:5787   */\n      swap2\n      pop\n        /* \"#utility.yul\":5531:5798   */\n      pop\n        /* \"#utility.yul\":5815:5819   */\n      dup1\n        /* \"#utility.yul\":5808:5819   */\n      swap2\n      pop\n        /* \"#utility.yul\":5132:5825   */\n      pop\n        /* \"#utility.yul\":5014:5825   */\n      swap3\n      swap2\n      pop\n      pop\n      jump\t// out\n        /* \"#utility.yul\":5831:5939   */\n    tag_130:\n        /* \"#utility.yul\":5908:5932   */\n      tag_134\n        /* \"#utility.yul\":5926:5931   */\n      dup2\n        /* \"#utility.yul\":5908:5932   */\n      tag_135\n      jump\t// in\n    tag_134:\n        /* \"#utility.yul\":5903:5906   */\n      dup3\n        /* \"#utility.yul\":5896:5933   */\n      mstore\n        /* \"#utility.yul\":5831:5939   */\n      pop\n      pop\n      jump\t// out\n        /* \"#utility.yul\":5945:6063   */\n    tag_136:\n        /* \"#utility.yul\":6032:6056   */\n      tag_138\n        /* \"#utility.yul\":6050:6055   */\n      dup2\n        /* \"#utility.yul\":6032:6056   */\n      tag_135\n      jump\t// in\n    tag_138:\n        /* \"#utility.yul\":6027:6030   */\n      dup3\n        /* \"#utility.yul\":6020:6057   */\n      mstore\n        /* \"#utility.yul\":5945:6063   */\n      pop\n      pop\n      jump\t// out\n        /* \"#utility.yul\":6069:6364   */\n    tag_28:\n        /* \"#utility.yul\":6211:6214   */\n      0x00\n        /* \"#utility.yul\":6233:6338   */\n      tag_140\n        /* \"#utility.yul\":6334:6337   */\n      dup3\n        /* \"#utility.yul\":6325:6331   */\n      dup5\n        /* \"#utility.yul\":6317:6323   */\n      dup7\n        /* \"#utility.yul\":6233:6338   */\n      tag_112\n      jump\t// in\n    tag_140:\n        /* \"#utility.yul\":6226:6338   */\n      swap2\n      pop\n        /* \"#utility.yul\":6355:6358   */\n      dup2\n        /* \"#utility.yul\":6348:6358   */\n      swap1\n      pop\n        /* \"#utility.yul\":6069:6364   */\n      swap4\n      swap3\n      pop\n      pop\n      pop\n      jump\t// out\n        /* \"#utility.yul\":6370:6683   */\n    tag_23:\n        /* \"#utility.yul\":6483:6487   */\n      0x00\n        /* \"#utility.yul\":6521:6523   */\n      0x20\n        /* \"#utility.yul\":6510:6519   */\n      dup3\n        /* \"#utility.yul\":6506:6524   */\n      add\n        /* \"#utility.yul\":6498:6524   */\n      swap1\n      pop\n        /* \"#utility.yul\":6570:6579   */\n      dup2\n        /* \"#utility.yul\":6564:6568   */\n      dup2\n        /* \"#utility.yul\":6560:6580   */\n      sub\n        /* \"#utility.yul\":6556:6557   */\n      0x00\n        /* \"#utility.yul\":6545:6554   */\n      dup4\n        /* \"#utility.yul\":6541:6558   */\n      add\n        /* \"#utility.yul\":6534:6581   */\n      mstore\n        /* \"#utility.yul\":6598:6676   */\n      tag_142\n        /* \"#utility.yul\":6671:6675   */\n      dup2\n        /* \"#utility.yul\":6662:6668   */\n      dup5\n        /* \"#utility.yul\":6598:6676   */\n      tag_117\n      jump\t// in\n    tag_142:\n        /* \"#utility.yul\":6590:6676   */\n      swap1\n      pop\n        /* \"#utility.yul\":6370:6683   */\n      swap3\n      swap2\n      pop\n      pop\n      jump\t// out\n        /* \"#utility.yul\":6689:7050   */\n    tag_17:\n        /* \"#utility.yul\":6826:6830   */\n      0x00\n        /* \"#utility.yul\":6864:6866   */\n      0x20\n        /* \"#utility.yul\":6853:6862   */\n      dup3\n        /* \"#utility.yul\":6849:6867   */\n      add\n        /* \"#utility.yul\":6841:6867   */\n      swap1\n      pop\n        /* \"#utility.yul\":6913:6922   */\n      dup2\n        /* \"#utility.yul\":6907:6911   */\n      dup2\n        /* \"#utility.yul\":6903:6923   */\n      sub\n        /* \"#utility.yul\":6899:6900   */\n      0x00\n        /* \"#utility.yul\":6888:6897   */\n      dup4\n        /* \"#utility.yul\":6884:6901   */\n      add\n        /* \"#utility.yul\":6877:6924   */\n      mstore\n        /* \"#utility.yul\":6941:7043   */\n      tag_144\n        /* \"#utility.yul\":7038:7042   */\n      dup2\n        /* \"#utility.yul\":7029:7035   */\n      dup5\n        /* \"#utility.yul\":6941:7043   */\n      tag_127\n      jump\t// in\n    tag_144:\n        /* \"#utility.yul\":6933:7043   */\n      swap1\n      pop\n        /* \"#utility.yul\":6689:7050   */\n      swap3\n      swap2\n      pop\n      pop\n      jump\t// out\n        /* \"#utility.yul\":7056:7388   */\n    tag_11:\n        /* \"#utility.yul\":7177:7181   */\n      0x00\n        /* \"#utility.yul\":7215:7217   */\n      0x40\n        /* \"#utility.yul\":7204:7213   */\n      dup3\n        /* \"#utility.yul\":7200:7218   */\n      add\n        /* \"#utility.yul\":7192:7218   */\n      swap1\n      pop\n        /* \"#utility.yul\":7228:7299   */\n      tag_146\n        /* \"#utility.yul\":7296:7297   */\n      0x00\n        /* \"#utility.yul\":7285:7294   */\n      dup4\n        /* \"#utility.yul\":7281:7298   */\n      add\n        /* \"#utility.yul\":7272:7278   */\n      dup6\n        /* \"#utility.yul\":7228:7299   */\n      tag_136\n      jump\t// in\n    tag_146:\n        /* \"#utility.yul\":7309:7381   */\n      tag_147\n        /* \"#utility.yul\":7377:7379   */\n      0x20\n        /* \"#utility.yul\":7366:7375   */\n      dup4\n        /* \"#utility.yul\":7362:7380   */\n      add\n        /* \"#utility.yul\":7353:7359   */\n      dup5\n        /* \"#utility.yul\":7309:7381   */\n      tag_136\n      jump\t// in\n    tag_147:\n        /* \"#utility.yul\":7056:7388   */\n      swap4\n      swap3\n      pop\n      pop\n      pop\n      jump\t// out\n        /* \"#utility.yul\":7394:7523   */\n    tag_45:\n        /* \"#utility.yul\":7428:7434   */\n      0x00\n        /* \"#utility.yul\":7455:7475   */\n      tag_149\n      tag_150\n      jump\t// in\n    tag_149:\n        /* \"#utility.yul\":7445:7475   */\n      swap1\n      pop\n        /* \"#utility.yul\":7484:7517   */\n      tag_151\n        /* \"#utility.yul\":7512:7516   */\n      dup3\n        /* \"#utility.yul\":7504:7510   */\n      dup3\n        /* \"#utility.yul\":7484:7517   */\n      tag_152\n      jump\t// in\n    tag_151:\n        /* \"#utility.yul\":7394:7523   */\n      swap2\n      swap1\n      pop\n      jump\t// out\n        /* \"#utility.yul\":7529:7604   */\n    tag_150:\n        /* \"#utility.yul\":7562:7568   */\n      0x00\n        /* \"#utility.yul\":7595:7597   */\n      0x40\n        /* \"#utility.yul\":7589:7598   */\n      mload\n        /* \"#utility.yul\":7579:7598   */\n      swap1\n      pop\n        /* \"#utility.yul\":7529:7604   */\n      swap1\n      jump\t// out\n        /* \"#utility.yul\":7610:7918   */\n    tag_44:\n        /* \"#utility.yul\":7672:7676   */\n      0x00\n        /* \"#utility.yul\":7762:7780   */\n      0xffffffffffffffff\n        /* \"#utility.yul\":7754:7760   */\n      dup3\n        /* \"#utility.yul\":7751:7781   */\n      gt\n        /* \"#utility.yul\":7748:7804   */\n      iszero\n      tag_155\n      jumpi\n        /* \"#utility.yul\":7784:7802   */\n      tag_156\n      tag_157\n      jump\t// in\n    tag_156:\n        /* \"#utility.yul\":7748:7804   */\n    tag_155:\n        /* \"#utility.yul\":7822:7851   */\n      tag_158\n        /* \"#utility.yul\":7844:7850   */\n      dup3\n        /* \"#utility.yul\":7822:7851   */\n      tag_126\n      jump\t// in\n    tag_158:\n        /* \"#utility.yul\":7814:7851   */\n      swap1\n      pop\n        /* \"#utility.yul\":7906:7910   */\n      0x20\n        /* \"#utility.yul\":7900:7904   */\n      dup2\n        /* \"#utility.yul\":7896:7911   */\n      add\n        /* \"#utility.yul\":7888:7911   */\n      swap1\n      pop\n        /* \"#utility.yul\":7610:7918   */\n      swap2\n      swap1\n      pop\n      jump\t// out\n        /* \"#utility.yul\":7924:8056   */\n    tag_105:\n        /* \"#utility.yul\":7991:7995   */\n      0x00\n        /* \"#utility.yul\":8014:8017   */\n      dup2\n        /* \"#utility.yul\":8006:8017   */\n      swap1\n      pop\n        /* \"#utility.yul\":8044:8048   */\n      0x20\n        /* \"#utility.yul\":8039:8042   */\n      dup3\n        /* \"#utility.yul\":8035:8049   */\n      add\n        /* \"#utility.yul\":8027:8049   */\n      swap1\n      pop\n        /* \"#utility.yul\":7924:8056   */\n      swap2\n      swap1\n      pop\n      jump\t// out\n        /* \"#utility.yul\":8062:8176   */\n    tag_101:\n        /* \"#utility.yul\":8129:8135   */\n      0x00\n        /* \"#utility.yul\":8163:8168   */\n      dup2\n        /* \"#utility.yul\":8157:8169   */\n      mload\n        /* \"#utility.yul\":8147:8169   */\n      swap1\n      pop\n        /* \"#utility.yul\":8062:8176   */\n      swap2\n      swap1\n      pop\n      jump\t// out\n        /* \"#utility.yul\":8182:8281   */\n    tag_120:\n        /* \"#utility.yul\":8234:8240   */\n      0x00\n        /* \"#utility.yul\":8268:8273   */\n      dup2\n        /* \"#utility.yul\":8262:8274   */\n      mload\n        /* \"#utility.yul\":8252:8274   */\n      swap1\n      pop\n        /* \"#utility.yul\":8182:8281   */\n      swap2\n      swap1\n      pop\n      jump\t// out\n        /* \"#utility.yul\":8287:8400   */\n    tag_111:\n        /* \"#utility.yul\":8357:8361   */\n      0x00\n        /* \"#utility.yul\":8389:8393   */\n      0x20\n        /* \"#utility.yul\":8384:8387   */\n      dup3\n        /* \"#utility.yul\":8380:8394   */\n      add\n        /* \"#utility.yul\":8372:8394   */\n      swap1\n      pop\n        /* \"#utility.yul\":8287:8400   */\n      swap2\n      swap1\n      pop\n      jump\t// out\n        /* \"#utility.yul\":8406:8580   */\n    tag_103:\n        /* \"#utility.yul\":8495:8506   */\n      0x00\n        /* \"#utility.yul\":8529:8535   */\n      dup3\n        /* \"#utility.yul\":8524:8527   */\n      dup3\n        /* \"#utility.yul\":8517:8536   */\n      mstore\n        /* \"#utility.yul\":8569:8573   */\n      0x20\n        /* \"#utility.yul\":8564:8567   */\n      dup3\n        /* \"#utility.yul\":8560:8574   */\n      add\n        /* \"#utility.yul\":8545:8574   */\n      swap1\n      pop\n        /* \"#utility.yul\":8406:8580   */\n      swap3\n      swap2\n      pop\n      pop\n      jump\t// out\n        /* \"#utility.yul\":8586:8755   */\n    tag_122:\n        /* \"#utility.yul\":8670:8681   */\n      0x00\n        /* \"#utility.yul\":8704:8710   */\n      dup3\n        /* \"#utility.yul\":8699:8702   */\n      dup3\n        /* \"#utility.yul\":8692:8711   */\n      mstore\n        /* \"#utility.yul\":8744:8748   */\n      0x20\n        /* \"#utility.yul\":8739:8742   */\n      dup3\n        /* \"#utility.yul\":8735:8749   */\n      add\n        /* \"#utility.yul\":8720:8749   */\n      swap1\n      pop\n        /* \"#utility.yul\":8586:8755   */\n      swap3\n      swap2\n      pop\n      pop\n      jump\t// out\n        /* \"#utility.yul\":8761:8909   */\n    tag_115:\n        /* \"#utility.yul\":8863:8874   */\n      0x00\n        /* \"#utility.yul\":8900:8903   */\n      dup2\n        /* \"#utility.yul\":8885:8903   */\n      swap1\n      pop\n        /* \"#utility.yul\":8761:8909   */\n      swap3\n      swap2\n      pop\n      pop\n      jump\t// out\n        /* \"#utility.yul\":8915:9011   */\n    tag_97:\n        /* \"#utility.yul\":8952:8959   */\n      0x00\n        /* \"#utility.yul\":8981:9005   */\n      tag_167\n        /* \"#utility.yul\":8999:9004   */\n      dup3\n        /* \"#utility.yul\":8981:9005   */\n      tag_168\n      jump\t// in\n    tag_167:\n        /* \"#utility.yul\":8970:9005   */\n      swap1\n      pop\n        /* \"#utility.yul\":8915:9011   */\n      swap2\n      swap1\n      pop\n      jump\t// out\n        /* \"#utility.yul\":9017:9143   */\n    tag_168:\n        /* \"#utility.yul\":9054:9061   */\n      0x00\n        /* \"#utility.yul\":9094:9136   */\n      0xffffffffffffffffffffffffffffffffffffffff\n        /* \"#utility.yul\":9087:9092   */\n      dup3\n        /* \"#utility.yul\":9083:9137   */\n      and\n        /* \"#utility.yul\":9072:9137   */\n      swap1\n      pop\n        /* \"#utility.yul\":9017:9143   */\n      swap2\n      swap1\n      pop\n      jump\t// out\n        /* \"#utility.yul\":9149:9226   */\n    tag_135:\n        /* \"#utility.yul\":9186:9193   */\n      0x00\n        /* \"#utility.yul\":9215:9220   */\n      dup2\n        /* \"#utility.yul\":9204:9220   */\n      swap1\n      pop\n        /* \"#utility.yul\":9149:9226   */\n      swap2\n      swap1\n      pop\n      jump\t// out\n        /* \"#utility.yul\":9232:9386   */\n    tag_50:\n        /* \"#utility.yul\":9316:9322   */\n      dup3\n        /* \"#utility.yul\":9311:9314   */\n      dup2\n        /* \"#utility.yul\":9306:9309   */\n      dup4\n        /* \"#utility.yul\":9293:9323   */\n      calldatacopy\n        /* \"#utility.yul\":9378:9379   */\n      0x00\n        /* \"#utility.yul\":9369:9375   */\n      dup4\n        /* \"#utility.yul\":9364:9367   */\n      dup4\n        /* \"#utility.yul\":9360:9376   */\n      add\n        /* \"#utility.yul\":9353:9380   */\n      mstore\n        /* \"#utility.yul\":9232:9386   */\n      pop\n      pop\n      pop\n      jump\t// out\n        /* \"#utility.yul\":9392:9699   */\n    tag_124:\n        /* \"#utility.yul\":9460:9461   */\n      0x00\n        /* \"#utility.yul\":9470:9583   */\n    tag_173:\n        /* \"#utility.yul\":9484:9490   */\n      dup4\n        /* \"#utility.yul\":9481:9482   */\n      dup2\n        /* \"#utility.yul\":9478:9491   */\n      lt\n        /* \"#utility.yul\":9470:9583   */\n      iszero\n      tag_175\n      jumpi\n        /* \"#utility.yul\":9569:9570   */\n      dup1\n        /* \"#utility.yul\":9564:9567   */\n      dup3\n        /* \"#utility.yul\":9560:9571   */\n      add\n        /* \"#utility.yul\":9554:9572   */\n      mload\n        /* \"#utility.yul\":9550:9551   */\n      dup2\n        /* \"#utility.yul\":9545:9548   */\n      dup5\n        /* \"#utility.yul\":9541:9552   */\n      add\n        /* \"#utility.yul\":9534:9573   */\n      mstore\n        /* \"#utility.yul\":9506:9508   */\n      0x20\n        /* \"#utility.yul\":9503:9504   */\n      dup2\n        /* \"#utility.yul\":9499:9509   */\n      add\n        /* \"#utility.yul\":9494:9509   */\n      swap1\n      pop\n        /* \"#utility.yul\":9470:9583   */\n      jump(tag_173)\n    tag_175:\n        /* \"#utility.yul\":9601:9607   */\n      dup4\n        /* \"#utility.yul\":9598:9599   */\n      dup2\n        /* \"#utility.yul\":9595:9608   */\n      gt\n        /* \"#utility.yul\":9592:9693   */\n      iszero\n      tag_176\n      jumpi\n        /* \"#utility.yul\":9681:9682   */\n      0x00\n        /* \"#utility.yul\":9672:9678   */\n      dup5\n        /* \"#utility.yul\":9667:9670   */\n      dup5\n        /* \"#utility.yul\":9663:9679   */\n      add\n        /* \"#utility.yul\":9656:9683   */\n      mstore\n        /* \"#utility.yul\":9592:9693   */\n    tag_176:\n        /* \"#utility.yul\":9441:9699   */\n      pop\n        /* \"#utility.yul\":9392:9699   */\n      pop\n      pop\n      pop\n      jump\t// out\n        /* \"#utility.yul\":9705:10025   */\n    tag_34:\n        /* \"#utility.yul\":9749:9755   */\n      0x00\n        /* \"#utility.yul\":9786:9787   */\n      0x02\n        /* \"#utility.yul\":9780:9784   */\n      dup3\n        /* \"#utility.yul\":9776:9788   */\n      div\n        /* \"#utility.yul\":9766:9788   */\n      swap1\n      pop\n        /* \"#utility.yul\":9833:9834   */\n      0x01\n        /* \"#utility.yul\":9827:9831   */\n      dup3\n        /* \"#utility.yul\":9823:9835   */\n      and\n        /* \"#utility.yul\":9854:9872   */\n      dup1\n        /* \"#utility.yul\":9844:9925   */\n      tag_178\n      jumpi\n        /* \"#utility.yul\":9910:9914   */\n      0x7f\n        /* \"#utility.yul\":9902:9908   */\n      dup3\n        /* \"#utility.yul\":9898:9915   */\n      and\n        /* \"#utility.yul\":9888:9915   */\n      swap2\n      pop\n        /* \"#utility.yul\":9844:9925   */\n    tag_178:\n        /* \"#utility.yul\":9972:9974   */\n      0x20\n        /* \"#utility.yul\":9964:9970   */\n      dup3\n        /* \"#utility.yul\":9961:9975   */\n      lt\n        /* \"#utility.yul\":9941:9959   */\n      dup2\n        /* \"#utility.yul\":9938:9976   */\n      eq\n        /* \"#utility.yul\":9935:10019   */\n      iszero\n      tag_179\n      jumpi\n        /* \"#utility.yul\":9991:10009   */\n      tag_180\n      tag_181\n      jump\t// in\n    tag_180:\n        /* \"#utility.yul\":9935:10019   */\n    tag_179:\n        /* \"#utility.yul\":9756:10025   */\n      pop\n        /* \"#utility.yul\":9705:10025   */\n      swap2\n      swap1\n      pop\n      jump\t// out\n        /* \"#utility.yul\":10031:10312   */\n    tag_152:\n        /* \"#utility.yul\":10114:10141   */\n      tag_183\n        /* \"#utility.yul\":10136:10140   */\n      dup3\n        /* \"#utility.yul\":10114:10141   */\n      tag_126\n      jump\t// in\n    tag_183:\n        /* \"#utility.yul\":10106:10112   */\n      dup2\n        /* \"#utility.yul\":10102:10142   */\n      add\n        /* \"#utility.yul\":10244:10250   */\n      dup2\n        /* \"#utility.yul\":10232:10242   */\n      dup2\n        /* \"#utility.yul\":10229:10251   */\n      lt\n        /* \"#utility.yul\":10208:10226   */\n      0xffffffffffffffff\n        /* \"#utility.yul\":10196:10206   */\n      dup3\n        /* \"#utility.yul\":10193:10227   */\n      gt\n        /* \"#utility.yul\":10190:10252   */\n      or\n        /* \"#utility.yul\":10187:10275   */\n      iszero\n      tag_184\n      jumpi\n        /* \"#utility.yul\":10255:10273   */\n      tag_185\n      tag_157\n      jump\t// in\n    tag_185:\n        /* \"#utility.yul\":10187:10275   */\n    tag_184:\n        /* \"#utility.yul\":10295:10305   */\n      dup1\n        /* \"#utility.yul\":10291:10293   */\n      0x40\n        /* \"#utility.yul\":10284:10306   */\n      mstore\n        /* \"#utility.yul\":10074:10312   */\n      pop\n        /* \"#utility.yul\":10031:10312   */\n      pop\n      pop\n      jump\t// out\n        /* \"#utility.yul\":10318:10498   */\n    tag_181:\n        /* \"#utility.yul\":10366:10443   */\n      0x4e487b7100000000000000000000000000000000000000000000000000000000\n        /* \"#utility.yul\":10363:10364   */\n      0x00\n        /* \"#utility.yul\":10356:10444   */\n      mstore\n        /* \"#utility.yul\":10463:10467   */\n      0x22\n        /* \"#utility.yul\":10460:10461   */\n      0x04\n        /* \"#utility.yul\":10453:10468   */\n      mstore\n        /* \"#utility.yul\":10487:10491   */\n      0x24\n        /* \"#utility.yul\":10484:10485   */\n      0x00\n        /* \"#utility.yul\":10477:10492   */\n      revert\n        /* \"#utility.yul\":10504:10684   */\n    tag_157:\n        /* \"#utility.yul\":10552:10629   */\n      0x4e487b7100000000000000000000000000000000000000000000000000000000\n        /* \"#utility.yul\":10549:10550   */\n      0x00\n        /* \"#utility.yul\":10542:10630   */\n      mstore\n        /* \"#utility.yul\":10649:10653   */\n      0x41\n        /* \"#utility.yul\":10646:10647   */\n      0x04\n        /* \"#utility.yul\":10639:10654   */\n      mstore\n        /* \"#utility.yul\":10673:10677   */\n      0x24\n        /* \"#utility.yul\":10670:10671   */\n      0x00\n        /* \"#utility.yul\":10663:10678   */\n      revert\n        /* \"#utility.yul\":10690:10807   */\n    tag_58:\n        /* \"#utility.yul\":10799:10800   */\n      0x00\n        /* \"#utility.yul\":10796:10797   */\n      dup1\n        /* \"#utility.yul\":10789:10801   */\n      revert\n        /* \"#utility.yul\":10813:10930   */\n    tag_55:\n        /* \"#utility.yul\":10922:10923   */\n      0x00\n        /* \"#utility.yul\":10919:10920   */\n      dup1\n        /* \"#utility.yul\":10912:10924   */\n      revert\n        /* \"#utility.yul\":10936:11053   */\n    tag_61:\n        /* \"#utility.yul\":11045:11046   */\n      0x00\n        /* \"#utility.yul\":11042:11043   */\n      dup1\n        /* \"#utility.yul\":11035:11047   */\n      revert\n        /* \"#utility.yul\":11059:11176   */\n    tag_48:\n        /* \"#utility.yul\":11168:11169   */\n      0x00\n        /* \"#utility.yul\":11165:11166   */\n      dup1\n        /* \"#utility.yul\":11158:11170   */\n      revert\n        /* \"#utility.yul\":11182:11299   */\n    tag_77:\n        /* \"#utility.yul\":11291:11292   */\n      0x00\n        /* \"#utility.yul\":11288:11289   */\n      dup1\n        /* \"#utility.yul\":11281:11293   */\n      revert\n        /* \"#utility.yul\":11305:11422   */\n    tag_74:\n        /* \"#utility.yul\":11414:11415   */\n      0x00\n        /* \"#utility.yul\":11411:11412   */\n      dup1\n        /* \"#utility.yul\":11404:11416   */\n      revert\n        /* \"#utility.yul\":11428:11530   */\n    tag_126:\n        /* \"#utility.yul\":11469:11475   */\n      0x00\n        /* \"#utility.yul\":11520:11522   */\n      0x1f\n        /* \"#utility.yul\":11516:11523   */\n      not\n        /* \"#utility.yul\":11511:11513   */\n      0x1f\n        /* \"#utility.yul\":11504:11509   */\n      dup4\n        /* \"#utility.yul\":11500:11514   */\n      add\n        /* \"#utility.yul\":11496:11524   */\n      and\n        /* \"#utility.yul\":11486:11524   */\n      swap1\n      pop\n        /* \"#utility.yul\":11428:11530   */\n      swap2\n      swap1\n      pop\n      jump\t// out\n        /* \"#utility.yul\":11536:11658   */\n    tag_70:\n        /* \"#utility.yul\":11609:11633   */\n      tag_196\n        /* \"#utility.yul\":11627:11632   */\n      dup2\n        /* \"#utility.yul\":11609:11633   */\n      tag_135\n      jump\t// in\n    tag_196:\n        /* \"#utility.yul\":11602:11607   */\n      dup2\n        /* \"#utility.yul\":11599:11634   */\n      eq\n        /* \"#utility.yul\":11589:11652   */\n      tag_197\n      jumpi\n        /* \"#utility.yul\":11648:11649   */\n      0x00\n        /* \"#utility.yul\":11645:11646   */\n      dup1\n        /* \"#utility.yul\":11638:11650   */\n      revert\n        /* \"#utility.yul\":11589:11652   */\n    tag_197:\n        /* \"#utility.yul\":11536:11658   */\n      pop\n      jump\t// out\n\n    auxdata: 0xa2646970667358221220d5d09facaba3be47686b3925074d5e76d15427214bb013deee1e8d98234944e064736f6c63430008070033\n}\n",
				"bytecode": {
					"linkReferences": {},
					"object": "608060405234801561001057600080fd5b506108ca806100206000396000f3fe608060405234801561001057600080fd5b50600436106100415760003560e01c80630186a423146100465780630a5bd44b14610077578063e4bcc7d4146100a7575b600080fd5b610060600480360381019061005b919061040c565b6100d7565b60405161006e929190610630565b60405180910390f35b610091600480360381019061008c9190610398565b610111565b60405161009e919061060e565b60405180910390f35b6100c160048036038101906100bc9190610455565b6101f0565b6040516100ce91906105ec565b60405180910390f35b6001818051602081018201805184825260208301602085012081835280955050505050506000915090508060000154908060010154905082565b61011961029c565b6001858560405161012b9291906105d3565b90815260200160405180910390206040518060600160405290816000820154815260200160018201548152602001600282018054806020026020016040519081016040528092919081815260200182805480156101dd57602002820191906000526020600020905b8160009054906101000a900473ffffffffffffffffffffffffffffffffffffffff1673ffffffffffffffffffffffffffffffffffffffff1681526020019060010190808311610193575b5050505050815250509050949350505050565b6000818154811061020057600080fd5b90600052602060002001600091509050805461021b9061078d565b80601f01602080910402602001604051908101604052809291908181526020018280546102479061078d565b80156102945780601f1061026957610100808354040283529160200191610294565b820191906000526020600020905b81548152906001019060200180831161027757829003601f168201915b505050505081565b60405180606001604052806000815260200160008152602001606081525090565b60006102d06102cb8461067e565b610659565b9050828152602081018484840111156102ec576102eb61085d565b5b6102f784828561074b565b509392505050565b60008083601f84011261031557610314610853565b5b8235905067ffffffffffffffff8111156103325761033161084e565b5b60208301915083600182028301111561034e5761034d610858565b5b9250929050565b600082601f83011261036a57610369610853565b5b813561037a8482602086016102bd565b91505092915050565b6000813590506103928161087d565b92915050565b600080600080606085870312156103b2576103b1610867565b5b600085013567ffffffffffffffff8111156103d0576103cf610862565b5b6103dc878288016102ff565b945094505060206103ef87828801610383565b925050604061040087828801610383565b91505092959194509250565b60006020828403121561042257610421610867565b5b600082013567ffffffffffffffff8111156104405761043f610862565b5b61044c84828501610355565b91505092915050565b60006020828403121561046b5761046a610867565b5b600061047984828501610383565b91505092915050565b600061048e838361049a565b60208301905092915050565b6104a38161070f565b82525050565b60006104b4826106bf565b6104be81856106e2565b93506104c9836106af565b8060005b838110156104fa5781516104e18882610482565b97506104ec836106d5565b9250506001810190506104cd565b5085935050505092915050565b60006105138385610704565b935061052083858461074b565b82840190509392505050565b6000610537826106ca565b61054181856106f3565b935061055181856020860161075a565b61055a8161086c565b840191505092915050565b600060608301600083015161057d60008601826105b5565b50602083015161059060208601826105b5565b50604083015184820360408601526105a882826104a9565b9150508091505092915050565b6105be81610741565b82525050565b6105cd81610741565b82525050565b60006105e0828486610507565b91508190509392505050565b60006020820190508181036000830152610606818461052c565b905092915050565b600060208201905081810360008301526106288184610565565b905092915050565b600060408201905061064560008301856105c4565b61065260208301846105c4565b9392505050565b6000610663610674565b905061066f82826107bf565b919050565b6000604051905090565b600067ffffffffffffffff8211156106995761069861081f565b5b6106a28261086c565b9050602081019050919050565b6000819050602082019050919050565b600081519050919050565b600081519050919050565b6000602082019050919050565b600082825260208201905092915050565b600082825260208201905092915050565b600081905092915050565b600061071a82610721565b9050919050565b600073ffffffffffffffffffffffffffffffffffffffff82169050919050565b6000819050919050565b82818337600083830152505050565b60005b8381101561077857808201518184015260208101905061075d565b83811115610787576000848401525b50505050565b600060028204905060018216806107a557607f821691505b602082108114156107b9576107b86107f0565b5b50919050565b6107c88261086c565b810181811067ffffffffffffffff821117156107e7576107e661081f565b5b80604052505050565b7f4e487b7100000000000000000000000000000000000000000000000000000000600052602260045260246000fd5b7f4e487b7100000000000000000000000000000000000000000000000000000000600052604160045260246000fd5b600080fd5b600080fd5b600080fd5b600080fd5b600080fd5b600080fd5b6000601f19601f8301169050919050565b61088681610741565b811461089157600080fd5b5056fea2646970667358221220d5d09facaba3be47686b3925074d5e76d15427214bb013deee1e8d98234944e064736f6c63430008070033",
					"opcodes": "PUSH1 0x80 PUSH1 0x40 MSTORE CALLVALUE DUP1 ISZERO PUSH2 0x10 JUMPI PUSH1 0x0 DUP1 REVERT JUMPDEST POP PUSH2 0x8CA DUP1 PUSH2 0x20 PUSH1 0x0 CODECOPY PUSH1 0x0 RETURN INVALID PUSH1 0x80 PUSH1 0x40 MSTORE CALLVALUE DUP1 ISZERO PUSH2 0x10 JUMPI PUSH1 0x0 DUP1 REVERT JUMPDEST POP PUSH1 0x4 CALLDATASIZE LT PUSH2 0x41 JUMPI PUSH1 0x0 CALLDATALOAD PUSH1 0xE0 SHR DUP1 PUSH4 0x186A423 EQ PUSH2 0x46 JUMPI DUP1 PUSH4 0xA5BD44B EQ PUSH2 0x77 JUMPI DUP1 PUSH4 0xE4BCC7D4 EQ PUSH2 0xA7 JUMPI JUMPDEST PUSH1 0x0 DUP1 REVERT JUMPDEST PUSH2 0x60 PUSH1 0x4 DUP1 CALLDATASIZE SUB DUP2 ADD SWAP1 PUSH2 0x5B SWAP2 SWAP1 PUSH2 0x40C JUMP JUMPDEST PUSH2 0xD7 JUMP JUMPDEST PUSH1 0x40 MLOAD PUSH2 0x6E SWAP3 SWAP2 SWAP1 PUSH2 0x630 JUMP JUMPDEST PUSH1 0x40 MLOAD DUP1 SWAP2 SUB SWAP1 RETURN JUMPDEST PUSH2 0x91 PUSH1 0x4 DUP1 CALLDATASIZE SUB DUP2 ADD SWAP1 PUSH2 0x8C SWAP2 SWAP1 PUSH2 0x398 JUMP JUMPDEST PUSH2 0x111 JUMP JUMPDEST PUSH1 0x40 MLOAD PUSH2 0x9E SWAP2 SWAP1 PUSH2 0x60E JUMP JUMPDEST PUSH1 0x40 MLOAD DUP1 SWAP2 SUB SWAP1 RETURN JUMPDEST PUSH2 0xC1 PUSH1 0x4 DUP1 CALLDATASIZE SUB DUP2 ADD SWAP1 PUSH2 0xBC SWAP2 SWAP1 PUSH2 0x455 JUMP JUMPDEST PUSH2 0x1F0 JUMP JUMPDEST PUSH1 0x40 MLOAD PUSH2 0xCE SWAP2 SWAP1 PUSH2 0x5EC JUMP JUMPDEST PUSH1 0x40 MLOAD DUP1 SWAP2 SUB SWAP1 RETURN JUMPDEST PUSH1 0x1 DUP2 DUP1 MLOAD PUSH1 0x20 DUP2 ADD DUP3 ADD DUP1 MLOAD DUP5 DUP3 MSTORE PUSH1 0x20 DUP4 ADD PUSH1 0x20 DUP6 ADD KECCAK256 DUP2 DUP4 MSTORE DUP1 SWAP6 POP POP POP POP POP POP PUSH1 0x0 SWAP2 POP SWAP1 POP DUP1 PUSH1 0x0 ADD SLOAD SWAP1 DUP1 PUSH1 0x1 ADD SLOAD SWAP1 POP DUP3 JUMP JUMPDEST PUSH2 0x119 PUSH2 0x29C JUMP JUMPDEST PUSH1 0x1 DUP6 DUP6 PUSH1 0x40 MLOAD PUSH2 0x12B SWAP3 SWAP2 SWAP1 PUSH2 0x5D3 JUMP JUMPDEST SWAP1 DUP2 MSTORE PUSH1 0x20 ADD PUSH1 0x40 MLOAD DUP1 SWAP2 SUB SWAP1 KECCAK256 PUSH1 0x40 MLOAD DUP1 PUSH1 0x60 ADD PUSH1 0x40 MSTORE SWAP1 DUP2 PUSH1 0x0 DUP3 ADD SLOAD DUP2 MSTORE PUSH1 0x20 ADD PUSH1 0x1 DUP3 ADD SLOAD DUP2 MSTORE PUSH1 0x20 ADD PUSH1 0x2 DUP3 ADD DUP1 SLOAD DUP1 PUSH1 0x20 MUL PUSH1 0x20 ADD PUSH1 0x40 MLOAD SWAP1 DUP2 ADD PUSH1 0x40 MSTORE DUP1 SWAP3 SWAP2 SWAP1 DUP2 DUP2 MSTORE PUSH1 0x20 ADD DUP3 DUP1 SLOAD DUP1 ISZERO PUSH2 0x1DD JUMPI PUSH1 0x20 MUL DUP3 ADD SWAP2 SWAP1 PUSH1 0x0 MSTORE PUSH1 0x20 PUSH1 0x0 KECCAK256 SWAP1 JUMPDEST DUP2 PUSH1 0x0 SWAP1 SLOAD SWAP1 PUSH2 0x100 EXP SWAP1 DIV PUSH20 0xFFFFFFFFFFFFFFFFFFFFFFFFFFFFFFFFFFFFFFFF AND PUSH20 0xFFFFFFFFFFFFFFFFFFFFFFFFFFFFFFFFFFFFFFFF AND DUP2 MSTORE PUSH1 0x20 ADD SWAP1 PUSH1 0x1 ADD SWAP1 DUP1 DUP4 GT PUSH2 0x193 JUMPI JUMPDEST POP POP POP POP POP DUP2 MSTORE POP POP SWAP1 POP SWAP5 SWAP4 POP POP POP POP JUMP JUMPDEST PUSH1 0x0 DUP2 DUP2 SLOAD DUP2 LT PUSH2 0x200 JUMPI PUSH1 0x0 DUP1 REVERT JUMPDEST SWAP1 PUSH1 0x0 MSTORE PUSH1 0x20 PUSH1 0x0 KECCAK256 ADD PUSH1 0x0 SWAP2 POP SWAP1 POP DUP1 SLOAD PUSH2 0x21B SWAP1 PUSH2 0x78D JUMP JUMPDEST DUP1 PUSH1 0x1F ADD PUSH1 0x20 DUP1 SWAP2 DIV MUL PUSH1 0x20 ADD PUSH1 0x40 MLOAD SWAP1 DUP2 ADD PUSH1 0x40 MSTORE DUP1 SWAP3 SWAP2 SWAP1 DUP2 DUP2 MSTORE PUSH1 0x20 ADD DUP3 DUP1 SLOAD PUSH2 0x247 SWAP1 PUSH2 0x78D JUMP JUMPDEST DUP1 ISZERO PUSH2 0x294 JUMPI DUP1 PUSH1 0x1F LT PUSH2 0x269 JUMPI PUSH2 0x100 DUP1 DUP4 SLOAD DIV MUL DUP4 MSTORE SWAP2 PUSH1 0x20 ADD SWAP2 PUSH2 0x294 JUMP JUMPDEST DUP3 ADD SWAP2 SWAP1 PUSH1 0x0 MSTORE PUSH1 0x20 PUSH1 0x0 KECCAK256 SWAP1 JUMPDEST DUP2 SLOAD DUP2 MSTORE SWAP1 PUSH1 0x1 ADD SWAP1 PUSH1 0x20 ADD DUP1 DUP4 GT PUSH2 0x277 JUMPI DUP3 SWAP1 SUB PUSH1 0x1F AND DUP3 ADD SWAP2 JUMPDEST POP POP POP POP POP DUP2 JUMP JUMPDEST PUSH1 0x40 MLOAD DUP1 PUSH1 0x60 ADD PUSH1 0x40 MSTORE DUP1 PUSH1 0x0 DUP2 MSTORE PUSH1 0x20 ADD PUSH1 0x0 DUP2 MSTORE PUSH1 0x20 ADD PUSH1 0x60 DUP2 MSTORE POP SWAP1 JUMP JUMPDEST PUSH1 0x0 PUSH2 0x2D0 PUSH2 0x2CB DUP5 PUSH2 0x67E JUMP JUMPDEST PUSH2 0x659 JUMP JUMPDEST SWAP1 POP DUP3 DUP2 MSTORE PUSH1 0x20 DUP2 ADD DUP5 DUP5 DUP5 ADD GT ISZERO PUSH2 0x2EC JUMPI PUSH2 0x2EB PUSH2 0x85D JUMP JUMPDEST JUMPDEST PUSH2 0x2F7 DUP5 DUP3 DUP6 PUSH2 0x74B JUMP JUMPDEST POP SWAP4 SWAP3 POP POP POP JUMP JUMPDEST PUSH1 0x0 DUP1 DUP4 PUSH1 0x1F DUP5 ADD SLT PUSH2 0x315 JUMPI PUSH2 0x314 PUSH2 0x853 JUMP JUMPDEST JUMPDEST DUP3 CALLDATALOAD SWAP1 POP PUSH8 0xFFFFFFFFFFFFFFFF DUP2 GT ISZERO PUSH2 0x332 JUMPI PUSH2 0x331 PUSH2 0x84E JUMP JUMPDEST JUMPDEST PUSH1 0x20 DUP4 ADD SWAP2 POP DUP4 PUSH1 0x1 DUP3 MUL DUP4 ADD GT ISZERO PUSH2 0x34E JUMPI PUSH2 0x34D PUSH2 0x858 JUMP JUMPDEST JUMPDEST SWAP3 POP SWAP3 SWAP1 POP JUMP JUMPDEST PUSH1 0x0 DUP3 PUSH1 0x1F DUP4 ADD SLT PUSH2 0x36A JUMPI PUSH2 0x369 PUSH2 0x853 JUMP JUMPDEST JUMPDEST DUP2 CALLDATALOAD PUSH2 0x37A DUP5 DUP3 PUSH1 0x20 DUP7 ADD PUSH2 0x2BD JUMP JUMPDEST SWAP2 POP POP SWAP3 SWAP2 POP POP JUMP JUMPDEST PUSH1 0x0 DUP2 CALLDATALOAD SWAP1 POP PUSH2 0x392 DUP2 PUSH2 0x87D JUMP JUMPDEST SWAP3 SWAP2 POP POP JUMP JUMPDEST PUSH1 0x0 DUP1 PUSH1 0x0 DUP1 PUSH1 0x60 DUP6 DUP8 SUB SLT ISZERO PUSH2 0x3B2 JUMPI PUSH2 0x3B1 PUSH2 0x867 JUMP JUMPDEST JUMPDEST PUSH1 0x0 DUP6 ADD CALLDATALOAD PUSH8 0xFFFFFFFFFFFFFFFF DUP2 GT ISZERO PUSH2 0x3D0 JUMPI PUSH2 0x3CF PUSH2 0x862 JUMP JUMPDEST JUMPDEST PUSH2 0x3DC DUP8 DUP3 DUP9 ADD PUSH2 0x2FF JUMP JUMPDEST SWAP5 POP SWAP5 POP POP PUSH1 0x20 PUSH2 0x3EF DUP8 DUP3 DUP9 ADD PUSH2 0x383 JUMP JUMPDEST SWAP3 POP POP PUSH1 0x40 PUSH2 0x400 DUP8 DUP3 DUP9 ADD PUSH2 0x383 JUMP JUMPDEST SWAP2 POP POP SWAP3 SWAP6 SWAP2 SWAP5 POP SWAP3 POP JUMP JUMPDEST PUSH1 0x0 PUSH1 0x20 DUP3 DUP5 SUB SLT ISZERO PUSH2 0x422 JUMPI PUSH2 0x421 PUSH2 0x867 JUMP JUMPDEST JUMPDEST PUSH1 0x0 DUP3 ADD CALLDATALOAD PUSH8 0xFFFFFFFFFFFFFFFF DUP2 GT ISZERO PUSH2 0x440 JUMPI PUSH2 0x43F PUSH2 0x862 JUMP JUMPDEST JUMPDEST PUSH2 0x44C DUP5 DUP3 DUP6 ADD PUSH2 0x355 JUMP JUMPDEST SWAP2 POP POP SWAP3 SWAP2 POP POP JUMP JUMPDEST PUSH1 0x0 PUSH1 0x20 DUP3 DUP5 SUB SLT ISZERO PUSH2 0x46B JUMPI PUSH2 0x46A PUSH2 0x867 JUMP JUMPDEST JUMPDEST PUSH1 0x0 PUSH2 0x479 DUP5 DUP3 DUP6 ADD PUSH2 0x383 JUMP JUMPDEST SWAP2 POP POP SWAP3 SWAP2 POP POP JUMP JUMPDEST PUSH1 0x0 PUSH2 0x48E DUP4 DUP4 PUSH2 0x49A JUMP JUMPDEST PUSH1 0x20 DUP4 ADD SWAP1 POP SWAP3 SWAP2 POP POP JUMP JUMPDEST PUSH2 0x4A3 DUP2 PUSH2 0x70F JUMP JUMPDEST DUP3 MSTORE POP POP JUMP JUMPDEST PUSH1 0x0 PUSH2 0x4B4 DUP3 PUSH2 0x6BF JUMP JUMPDEST PUSH2 0x4BE DUP2 DUP6 PUSH2 0x6E2 JUMP JUMPDEST SWAP4 POP PUSH2 0x4C9 DUP4 PUSH2 0x6AF JUMP JUMPDEST DUP1 PUSH1 0x0 JUMPDEST DUP4 DUP2 LT ISZERO PUSH2 0x4FA JUMPI DUP2 MLOAD PUSH2 0x4E1 DUP9 DUP3 PUSH2 0x482 JUMP JUMPDEST SWAP8 POP PUSH2 0x4EC DUP4 PUSH2 0x6D5 JUMP JUMPDEST SWAP3 POP POP PUSH1 0x1 DUP2 ADD SWAP1 POP PUSH2 0x4CD JUMP JUMPDEST POP DUP6 SWAP4 POP POP POP POP SWAP3 SWAP2 POP POP JUMP JUMPDEST PUSH1 0x0 PUSH2 0x513 DUP4 DUP6 PUSH2 0x704 JUMP JUMPDEST SWAP4 POP PUSH2 0x520 DUP4 DUP6 DUP5 PUSH2 0x74B JUMP JUMPDEST DUP3 DUP5 ADD SWAP1 POP SWAP4 SWAP3 POP POP POP JUMP JUMPDEST PUSH1 0x0 PUSH2 0x537 DUP3 PUSH2 0x6CA JUMP JUMPDEST PUSH2 0x541 DUP2 DUP6 PUSH2 0x6F3 JUMP JUMPDEST SWAP4 POP PUSH2 0x551 DUP2 DUP6 PUSH1 0x20 DUP7 ADD PUSH2 0x75A JUMP JUMPDEST PUSH2 0x55A DUP2 PUSH2 0x86C JUMP JUMPDEST DUP5 ADD SWAP2 POP POP SWAP3 SWAP2 POP POP JUMP JUMPDEST PUSH1 0x0 PUSH1 0x60 DUP4 ADD PUSH1 0x0 DUP4 ADD MLOAD PUSH2 0x57D PUSH1 0x0 DUP7 ADD DUP3 PUSH2 0x5B5 JUMP JUMPDEST POP PUSH1 0x20 DUP4 ADD MLOAD PUSH2 0x590 PUSH1 0x20 DUP7 ADD DUP3 PUSH2 0x5B5 JUMP JUMPDEST POP PUSH1 0x40 DUP4 ADD MLOAD DUP5 DUP3 SUB PUSH1 0x40 DUP7 ADD MSTORE PUSH2 0x5A8 DUP3 DUP3 PUSH2 0x4A9 JUMP JUMPDEST SWAP2 POP POP DUP1 SWAP2 POP POP SWAP3 SWAP2 POP POP JUMP JUMPDEST PUSH2 0x5BE DUP2 PUSH2 0x741 JUMP JUMPDEST DUP3 MSTORE POP POP JUMP JUMPDEST PUSH2 0x5CD DUP2 PUSH2 0x741 JUMP JUMPDEST DUP3 MSTORE POP POP JUMP JUMPDEST PUSH1 0x0 PUSH2 0x5E0 DUP3 DUP5 DUP7 PUSH2 0x507 JUMP JUMPDEST SWAP2 POP DUP2 SWAP1 POP SWAP4 SWAP3 POP POP POP JUMP JUMPDEST PUSH1 0x0 PUSH1 0x20 DUP3 ADD SWAP1 POP DUP2 DUP2 SUB PUSH1 0x0 DUP4 ADD MSTORE PUSH2 0x606 DUP2 DUP5 PUSH2 0x52C JUMP JUMPDEST SWAP1 POP SWAP3 SWAP2 POP POP JUMP JUMPDEST PUSH1 0x0 PUSH1 0x20 DUP3 ADD SWAP1 POP DUP2 DUP2 SUB PUSH1 0x0 DUP4 ADD MSTORE PUSH2 0x628 DUP2 DUP5 PUSH2 0x565 JUMP JUMPDEST SWAP1 POP SWAP3 SWAP2 POP POP JUMP JUMPDEST PUSH1 0x0 PUSH1 0x40 DUP3 ADD SWAP1 POP PUSH2 0x645 PUSH1 0x0 DUP4 ADD DUP6 PUSH2 0x5C4 JUMP JUMPDEST PUSH2 0x652 PUSH1 0x20 DUP4 ADD DUP5 PUSH2 0x5C4 JUMP JUMPDEST SWAP4 SWAP3 POP POP POP JUMP JUMPDEST PUSH1 0x0 PUSH2 0x663 PUSH2 0x674 JUMP JUMPDEST SWAP1 POP PUSH2 0x66F DUP3 DUP3 PUSH2 0x7BF JUMP JUMPDEST SWAP2 SWAP1 POP JUMP JUMPDEST PUSH1 0x0 PUSH1 0x40 MLOAD SWAP1 POP SWAP1 JUMP JUMPDEST PUSH1 0x0 PUSH8 0xFFFFFFFFFFFFFFFF DUP3 GT ISZERO PUSH2 0x699 JUMPI PUSH2 0x698 PUSH2 0x81F JUMP JUMPDEST JUMPDEST PUSH2 0x6A2 DUP3 PUSH2 0x86C JUMP JUMPDEST SWAP1 POP PUSH1 0x20 DUP2 ADD SWAP1 POP SWAP2 SWAP1 POP JUMP JUMPDEST PUSH1 0x0 DUP2 SWAP1 POP PUSH1 0x20 DUP3 ADD SWAP1 POP SWAP2 SWAP1 POP JUMP JUMPDEST PUSH1 0x0 DUP2 MLOAD SWAP1 POP SWAP2 SWAP1 POP JUMP JUMPDEST PUSH1 0x0 DUP2 MLOAD SWAP1 POP SWAP2 SWAP1 POP JUMP JUMPDEST PUSH1 0x0 PUSH1 0x20 DUP3 ADD SWAP1 POP SWAP2 SWAP1 POP JUMP JUMPDEST PUSH1 0x0 DUP3 DUP3 MSTORE PUSH1 0x20 DUP3 ADD SWAP1 POP SWAP3 SWAP2 POP POP JUMP JUMPDEST PUSH1 0x0 DUP3 DUP3 MSTORE PUSH1 0x20 DUP3 ADD SWAP1 POP SWAP3 SWAP2 POP POP JUMP JUMPDEST PUSH1 0x0 DUP2 SWAP1 POP SWAP3 SWAP2 POP POP JUMP JUMPDEST PUSH1 0x0 PUSH2 0x71A DUP3 PUSH2 0x721 JUMP JUMPDEST SWAP1 POP SWAP2 SWAP1 POP JUMP JUMPDEST PUSH1 0x0 PUSH20 0xFFFFFFFFFFFFFFFFFFFFFFFFFFFFFFFFFFFFFFFF DUP3 AND SWAP1 POP SWAP2 SWAP1 POP JUMP JUMPDEST PUSH1 0x0 DUP2 SWAP1 POP SWAP2 SWAP1 POP JUMP JUMPDEST DUP3 DUP2 DUP4 CALLDATACOPY PUSH1 0x0 DUP4 DUP4 ADD MSTORE POP POP POP JUMP JUMPDEST PUSH1 0x0 JUMPDEST DUP4 DUP2 LT ISZERO PUSH2 0x778 JUMPI DUP1 DUP3 ADD MLOAD DUP2 DUP5 ADD MSTORE PUSH1 0x20 DUP2 ADD SWAP1 POP PUSH2 0x75D JUMP JUMPDEST DUP4 DUP2 GT ISZERO PUSH2 0x787 JUMPI PUSH1 0x0 DUP5 DUP5 ADD MSTORE JUMPDEST POP POP POP POP JUMP JUMPDEST PUSH1 0x0 PUSH1 0x2 DUP3 DIV SWAP1 POP PUSH1 0x1 DUP3 AND DUP1 PUSH2 0x7A5 JUMPI PUSH1 0x7F DUP3 AND SWAP2 POP JUMPDEST PUSH1 0x20 DUP3 LT DUP2 EQ ISZERO PUSH2 0x7B9 JUMPI PUSH2 0x7B8 PUSH2 0x7F0 JUMP JUMPDEST JUMPDEST POP SWAP2 SWAP1 POP JUMP JUMPDEST PUSH2 0x7C8 DUP3 PUSH2 0x86C JUMP JUMPDEST DUP2 ADD DUP2 DUP2 LT PUSH8 0xFFFFFFFFFFFFFFFF DUP3 GT OR ISZERO PUSH2 0x7E7 JUMPI PUSH2 0x7E6 PUSH2 0x81F JUMP JUMPDEST JUMPDEST DUP1 PUSH1 0x40 MSTORE POP POP POP JUMP JUMPDEST PUSH32 0x4E487B7100000000000000000000000000000000000000000000000000000000 PUSH1 0x0 MSTORE PUSH1 0x22 PUSH1 0x4 MSTORE PUSH1 0x24 PUSH1 0x0 REVERT JUMPDEST PUSH32 0x4E487B7100000000000000000000000000000000000000000000000000000000 PUSH1 0x0 MSTORE PUSH1 0x41 PUSH1 0x4 MSTORE PUSH1 0x24 PUSH1 0x0 REVERT JUMPDEST PUSH1 0x0 DUP1 REVERT JUMPDEST PUSH1 0x0 DUP1 REVERT JUMPDEST PUSH1 0x0 DUP1 REVERT JUMPDEST PUSH1 0x0 DUP1 REVERT JUMPDEST PUSH1 0x0 DUP1 REVERT JUMPDEST PUSH1 0x0 DUP1 REVERT JUMPDEST PUSH1 0x0 PUSH1 0x1F NOT PUSH1 0x1F DUP4 ADD AND SWAP1 POP SWAP2 SWAP1 POP JUMP JUMPDEST PUSH2 0x886 DUP2 PUSH2 0x741 JUMP JUMPDEST DUP2 EQ PUSH2 0x891 JUMPI PUSH1 0x0 DUP1 REVERT JUMPDEST POP JUMP INVALID LOG2 PUSH5 0x6970667358 0x22 SLT KECCAK256 0xD5 0xD0 SWAP16 0xAC 0xAB LOG3 0xBE SELFBALANCE PUSH9 0x6B3925074D5E76D154 0x27 0x21 0x4B 0xB0 SGT 0xDE 0xEE 0x1E DUP14 SWAP9 0x23 0x49 DIFFICULTY 0xE0 PUSH5 0x736F6C6343 STOP ADDMOD SMOD STOP CALLER "
				},
				"gasEstimates": {
					"creation": {
						"codeDepositCost": "450000",
						"executionCost": "486",
						"totalCost": "450486"
					},
					"external": {
						"addNewProduct(string,uint256,uint256)": "infinite",
						"availableProducts(uint256)": "infinite",
						"products(string)": "infinite"
					}
				},
				"methodIdentifiers": {
					"addNewProduct(string,uint256,uint256)": "0a5bd44b",
					"availableProducts(uint256)": "e4bcc7d4",
					"products(string)": "0186a423"
				}
			},
			"storageLayout": {
				"storage": [
					{
						"astId": 11,
						"contract": "Project/TechnoLime.sol:TechnoLimeStore",
						"label": "availableProducts",
						"offset": 0,
						"slot": "0",
						"type": "t_array(t_string_storage)dyn_storage"
					},
					{
						"astId": 16,
						"contract": "Project/TechnoLime.sol:TechnoLimeStore",
						"label": "products",
						"offset": 0,
						"slot": "1",
						"type": "t_mapping(t_string_memory_ptr,t_struct(Product)8_storage)"
					},
					{
						"astId": 28,
						"contract": "Project/TechnoLime.sol:TechnoLimeStore",
						"label": "transactions",
						"offset": 0,
						"slot": "2",
						"type": "t_mapping(t_uint256,t_mapping(t_address,t_struct(Transaction)21_storage))"
					}
				],
				"types": {
					"t_address": {
						"encoding": "inplace",
						"label": "address",
						"numberOfBytes": "20"
					},
					"t_array(t_address)dyn_storage": {
						"base": "t_address",
						"encoding": "dynamic_array",
						"label": "address[]",
						"numberOfBytes": "32"
					},
					"t_array(t_string_storage)dyn_storage": {
						"base": "t_string_storage",
						"encoding": "dynamic_array",
						"label": "string[]",
						"numberOfBytes": "32"
					},
					"t_mapping(t_address,t_struct(Transaction)21_storage)": {
						"encoding": "mapping",
						"key": "t_address",
						"label": "mapping(address => struct TechnoLimeStore.Transaction)",
						"numberOfBytes": "32",
						"value": "t_struct(Transaction)21_storage"
					},
					"t_mapping(t_string_memory_ptr,t_struct(Product)8_storage)": {
						"encoding": "mapping",
						"key": "t_string_memory_ptr",
						"label": "mapping(string => struct TechnoLimeStore.Product)",
						"numberOfBytes": "32",
						"value": "t_struct(Product)8_storage"
					},
					"t_mapping(t_uint256,t_mapping(t_address,t_struct(Transaction)21_storage))": {
						"encoding": "mapping",
						"key": "t_uint256",
						"label": "mapping(uint256 => mapping(address => struct TechnoLimeStore.Transaction))",
						"numberOfBytes": "32",
						"value": "t_mapping(t_address,t_struct(Transaction)21_storage)"
					},
					"t_string_memory_ptr": {
						"encoding": "bytes",
						"label": "string",
						"numberOfBytes": "32"
					},
					"t_string_storage": {
						"encoding": "bytes",
						"label": "string",
						"numberOfBytes": "32"
					},
					"t_struct(Product)8_storage": {
						"encoding": "inplace",
						"label": "struct TechnoLimeStore.Product",
						"members": [
							{
								"astId": 2,
								"contract": "Project/TechnoLime.sol:TechnoLimeStore",
								"label": "price",
								"offset": 0,
								"slot": "0",
								"type": "t_uint256"
							},
							{
								"astId": 4,
								"contract": "Project/TechnoLime.sol:TechnoLimeStore",
								"label": "quantity",
								"offset": 0,
								"slot": "1",
								"type": "t_uint256"
							},
							{
								"astId": 7,
								"contract": "Project/TechnoLime.sol:TechnoLimeStore",
								"label": "buyers",
								"offset": 0,
								"slot": "2",
								"type": "t_array(t_address)dyn_storage"
							}
						],
						"numberOfBytes": "96"
					},
					"t_struct(Transaction)21_storage": {
						"encoding": "inplace",
						"label": "struct TechnoLimeStore.Transaction",
						"members": [
							{
								"astId": 18,
								"contract": "Project/TechnoLime.sol:TechnoLimeStore",
								"label": "blockNum",
								"offset": 0,
								"slot": "0",
								"type": "t_uint256"
							},
							{
								"astId": 20,
								"contract": "Project/TechnoLime.sol:TechnoLimeStore",
								"label": "price",
								"offset": 0,
								"slot": "1",
								"type": "t_uint256"
							}
						],
						"numberOfBytes": "64"
					},
					"t_uint256": {
						"encoding": "inplace",
						"label": "uint256",
						"numberOfBytes": "32"
					}
				}
			},
			"userdoc": {
				"kind": "user",
				"methods": {},
				"version": 1
			}
		}
	}
}