{
	"Project/TechnoLime.sol": {
		"TechnoLimeStore": {
			"abi": [
				{
					"inputs": [
						{
							"internalType": "string",
							"name": "productName",
							"type": "string"
						},
						{
							"internalType": "uint256",
							"name": "_price",
							"type": "uint256"
						},
						{
							"internalType": "uint256",
							"name": "_quantity",
							"type": "uint256"
						}
					],
					"name": "addNewProduct",
					"outputs": [
						{
							"internalType": "uint256",
							"name": "",
							"type": "uint256"
						}
					],
					"stateMutability": "view",
					"type": "function"
				},
				{
					"inputs": [
						{
							"internalType": "uint256",
							"name": "",
							"type": "uint256"
						}
					],
					"name": "availableProducts",
					"outputs": [
						{
							"internalType": "string",
							"name": "",
							"type": "string"
						}
					],
					"stateMutability": "view",
					"type": "function"
				},
				{
					"inputs": [
						{
							"internalType": "string",
							"name": "",
							"type": "string"
						}
					],
					"name": "products",
					"outputs": [
						{
							"internalType": "uint256",
							"name": "price",
							"type": "uint256"
						},
						{
							"internalType": "uint256",
							"name": "quantity",
							"type": "uint256"
						},
						{
							"internalType": "bool",
							"name": "exists",
							"type": "bool"
						}
					],
					"stateMutability": "view",
					"type": "function"
				}
			],
			"devdoc": {
				"kind": "dev",
				"methods": {},
				"version": 1
			},
			"evm": {
				"assembly": "    /* \"Project/TechnoLime.sol\":4:789  contract TechnoLimeStore {\r... */\n  mstore(0x40, 0x80)\n  callvalue\n  dup1\n  iszero\n  tag_1\n  jumpi\n  0x00\n  dup1\n  revert\ntag_1:\n  pop\n  dataSize(sub_0)\n  dup1\n  dataOffset(sub_0)\n  0x00\n  codecopy\n  0x00\n  return\nstop\n\nsub_0: assembly {\n        /* \"Project/TechnoLime.sol\":4:789  contract TechnoLimeStore {\r... */\n      mstore(0x40, 0x80)\n      callvalue\n      dup1\n      iszero\n      tag_1\n      jumpi\n      0x00\n      dup1\n      revert\n    tag_1:\n      pop\n      jumpi(tag_2, lt(calldatasize, 0x04))\n      shr(0xe0, calldataload(0x00))\n      dup1\n      0x0186a423\n      eq\n      tag_3\n      jumpi\n      dup1\n      0x0a5bd44b\n      eq\n      tag_4\n      jumpi\n      dup1\n      0xe4bcc7d4\n      eq\n      tag_5\n      jumpi\n    tag_2:\n      0x00\n      dup1\n      revert\n        /* \"Project/TechnoLime.sol\":204:246  mapping(string => Product) public products */\n    tag_3:\n      tag_6\n      0x04\n      dup1\n      calldatasize\n      sub\n      dup2\n      add\n      swap1\n      tag_7\n      swap2\n      swap1\n      tag_8\n      jump\t// in\n    tag_7:\n      tag_9\n      jump\t// in\n    tag_6:\n      mload(0x40)\n      tag_10\n      swap4\n      swap3\n      swap2\n      swap1\n      tag_11\n      jump\t// in\n    tag_10:\n      mload(0x40)\n      dup1\n      swap2\n      sub\n      swap1\n      return\n        /* \"Project/TechnoLime.sol\":405:780  function addNewProduct(string calldata productName, uint _price,uint _quantity) external view returns(uint ){\r... */\n    tag_4:\n      tag_12\n      0x04\n      dup1\n      calldatasize\n      sub\n      dup2\n      add\n      swap1\n      tag_13\n      swap2\n      swap1\n      tag_14\n      jump\t// in\n    tag_13:\n      tag_15\n      jump\t// in\n    tag_12:\n      mload(0x40)\n      tag_16\n      swap2\n      swap1\n      tag_17\n      jump\t// in\n    tag_16:\n      mload(0x40)\n      dup1\n      swap2\n      sub\n      swap1\n      return\n        /* \"Project/TechnoLime.sol\":164:197  string[] public availableProducts */\n    tag_5:\n      tag_18\n      0x04\n      dup1\n      calldatasize\n      sub\n      dup2\n      add\n      swap1\n      tag_19\n      swap2\n      swap1\n      tag_20\n      jump\t// in\n    tag_19:\n      tag_21\n      jump\t// in\n    tag_18:\n      mload(0x40)\n      tag_22\n      swap2\n      swap1\n      tag_23\n      jump\t// in\n    tag_22:\n      mload(0x40)\n      dup1\n      swap2\n      sub\n      swap1\n      return\n        /* \"Project/TechnoLime.sol\":204:246  mapping(string => Product) public products */\n    tag_9:\n      0x01\n      dup2\n      dup1\n      mload\n      0x20\n      dup2\n      add\n      dup3\n      add\n      dup1\n      mload\n      dup5\n      dup3\n      mstore\n      0x20\n      dup4\n      add\n      0x20\n      dup6\n      add\n      keccak256\n      dup2\n      dup4\n      mstore\n      dup1\n      swap6\n      pop\n      pop\n      pop\n      pop\n      pop\n      pop\n      0x00\n      swap2\n      pop\n      swap1\n      pop\n      dup1\n      0x00\n      add\n      sload\n      swap1\n      dup1\n      0x01\n      add\n      sload\n      swap1\n      dup1\n      0x03\n      add\n      0x00\n      swap1\n      sload\n      swap1\n      0x0100\n      exp\n      swap1\n      div\n      0xff\n      and\n      swap1\n      pop\n      dup4\n      jump\t// out\n        /* \"Project/TechnoLime.sol\":405:780  function addNewProduct(string calldata productName, uint _price,uint _quantity) external view returns(uint ){\r... */\n    tag_15:\n        /* \"Project/TechnoLime.sol\":507:511  uint */\n      0x00\n        /* \"Project/TechnoLime.sol\":735:743  products */\n      0x01\n        /* \"Project/TechnoLime.sol\":744:755  productName */\n      dup6\n      dup6\n        /* \"Project/TechnoLime.sol\":735:756  products[productName] */\n      mload(0x40)\n      tag_25\n      swap3\n      swap2\n      swap1\n      tag_26\n      jump\t// in\n    tag_25:\n      swap1\n      dup2\n      mstore\n      0x20\n      add\n      mload(0x40)\n      dup1\n      swap2\n      sub\n      swap1\n      keccak256\n        /* \"Project/TechnoLime.sol\":735:762  products[productName].price */\n      0x00\n      add\n      sload\n        /* \"Project/TechnoLime.sol\":728:762  return products[productName].price */\n      swap1\n      pop\n        /* \"Project/TechnoLime.sol\":405:780  function addNewProduct(string calldata productName, uint _price,uint _quantity) external view returns(uint ){\r... */\n      swap5\n      swap4\n      pop\n      pop\n      pop\n      pop\n      jump\t// out\n        /* \"Project/TechnoLime.sol\":164:197  string[] public availableProducts */\n    tag_21:\n      0x00\n      dup2\n      dup2\n      sload\n      dup2\n      lt\n      tag_27\n      jumpi\n      0x00\n      dup1\n      revert\n    tag_27:\n      swap1\n      0x00\n      mstore\n      keccak256(0x00, 0x20)\n      add\n      0x00\n      swap2\n      pop\n      swap1\n      pop\n      dup1\n      sload\n      tag_29\n      swap1\n      tag_30\n      jump\t// in\n    tag_29:\n      dup1\n      0x1f\n      add\n      0x20\n      dup1\n      swap2\n      div\n      mul\n      0x20\n      add\n      mload(0x40)\n      swap1\n      dup2\n      add\n      0x40\n      mstore\n      dup1\n      swap3\n      swap2\n      swap1\n      dup2\n      dup2\n      mstore\n      0x20\n      add\n      dup3\n      dup1\n      sload\n      tag_31\n      swap1\n      tag_30\n      jump\t// in\n    tag_31:\n      dup1\n      iszero\n      tag_32\n      jumpi\n      dup1\n      0x1f\n      lt\n      tag_33\n      jumpi\n      0x0100\n      dup1\n      dup4\n      sload\n      div\n      mul\n      dup4\n      mstore\n      swap2\n      0x20\n      add\n      swap2\n      jump(tag_32)\n    tag_33:\n      dup3\n      add\n      swap2\n      swap1\n      0x00\n      mstore\n      keccak256(0x00, 0x20)\n      swap1\n    tag_34:\n      dup2\n      sload\n      dup2\n      mstore\n      swap1\n      0x01\n      add\n      swap1\n      0x20\n      add\n      dup1\n      dup4\n      gt\n      tag_34\n      jumpi\n      dup3\n      swap1\n      sub\n      0x1f\n      and\n      dup3\n      add\n      swap2\n    tag_32:\n      pop\n      pop\n      pop\n      pop\n      pop\n      dup2\n      jump\t// out\n        /* \"#utility.yul\":7:419   */\n    tag_36:\n        /* \"#utility.yul\":85:90   */\n      0x00\n        /* \"#utility.yul\":110:176   */\n      tag_38\n        /* \"#utility.yul\":126:175   */\n      tag_39\n        /* \"#utility.yul\":168:174   */\n      dup5\n        /* \"#utility.yul\":126:175   */\n      tag_40\n      jump\t// in\n    tag_39:\n        /* \"#utility.yul\":110:176   */\n      tag_41\n      jump\t// in\n    tag_38:\n        /* \"#utility.yul\":101:176   */\n      swap1\n      pop\n        /* \"#utility.yul\":199:205   */\n      dup3\n        /* \"#utility.yul\":192:197   */\n      dup2\n        /* \"#utility.yul\":185:206   */\n      mstore\n        /* \"#utility.yul\":237:241   */\n      0x20\n        /* \"#utility.yul\":230:235   */\n      dup2\n        /* \"#utility.yul\":226:242   */\n      add\n        /* \"#utility.yul\":275:278   */\n      dup5\n        /* \"#utility.yul\":266:272   */\n      dup5\n        /* \"#utility.yul\":261:264   */\n      dup5\n        /* \"#utility.yul\":257:273   */\n      add\n        /* \"#utility.yul\":254:279   */\n      gt\n        /* \"#utility.yul\":251:363   */\n      iszero\n      tag_42\n      jumpi\n        /* \"#utility.yul\":282:361   */\n      tag_43\n      tag_44\n      jump\t// in\n    tag_43:\n        /* \"#utility.yul\":251:363   */\n    tag_42:\n        /* \"#utility.yul\":372:413   */\n      tag_45\n        /* \"#utility.yul\":406:412   */\n      dup5\n        /* \"#utility.yul\":401:404   */\n      dup3\n        /* \"#utility.yul\":396:399   */\n      dup6\n        /* \"#utility.yul\":372:413   */\n      tag_46\n      jump\t// in\n    tag_45:\n        /* \"#utility.yul\":91:419   */\n      pop\n        /* \"#utility.yul\":7:419   */\n      swap4\n      swap3\n      pop\n      pop\n      pop\n      jump\t// out\n        /* \"#utility.yul\":439:992   */\n    tag_47:\n        /* \"#utility.yul\":497:505   */\n      0x00\n        /* \"#utility.yul\":507:513   */\n      dup1\n        /* \"#utility.yul\":557:560   */\n      dup4\n        /* \"#utility.yul\":550:554   */\n      0x1f\n        /* \"#utility.yul\":542:548   */\n      dup5\n        /* \"#utility.yul\":538:555   */\n      add\n        /* \"#utility.yul\":534:561   */\n      slt\n        /* \"#utility.yul\":524:646   */\n      tag_49\n      jumpi\n        /* \"#utility.yul\":565:644   */\n      tag_50\n      tag_51\n      jump\t// in\n    tag_50:\n        /* \"#utility.yul\":524:646   */\n    tag_49:\n        /* \"#utility.yul\":678:684   */\n      dup3\n        /* \"#utility.yul\":665:685   */\n      calldataload\n        /* \"#utility.yul\":655:685   */\n      swap1\n      pop\n        /* \"#utility.yul\":708:726   */\n      0xffffffffffffffff\n        /* \"#utility.yul\":700:706   */\n      dup2\n        /* \"#utility.yul\":697:727   */\n      gt\n        /* \"#utility.yul\":694:811   */\n      iszero\n      tag_52\n      jumpi\n        /* \"#utility.yul\":730:809   */\n      tag_53\n      tag_54\n      jump\t// in\n    tag_53:\n        /* \"#utility.yul\":694:811   */\n    tag_52:\n        /* \"#utility.yul\":844:848   */\n      0x20\n        /* \"#utility.yul\":836:842   */\n      dup4\n        /* \"#utility.yul\":832:849   */\n      add\n        /* \"#utility.yul\":820:849   */\n      swap2\n      pop\n        /* \"#utility.yul\":898:901   */\n      dup4\n        /* \"#utility.yul\":890:894   */\n      0x01\n        /* \"#utility.yul\":882:888   */\n      dup3\n        /* \"#utility.yul\":878:895   */\n      mul\n        /* \"#utility.yul\":868:876   */\n      dup4\n        /* \"#utility.yul\":864:896   */\n      add\n        /* \"#utility.yul\":861:902   */\n      gt\n        /* \"#utility.yul\":858:986   */\n      iszero\n      tag_55\n      jumpi\n        /* \"#utility.yul\":905:984   */\n      tag_56\n      tag_57\n      jump\t// in\n    tag_56:\n        /* \"#utility.yul\":858:986   */\n    tag_55:\n        /* \"#utility.yul\":439:992   */\n      swap3\n      pop\n      swap3\n      swap1\n      pop\n      jump\t// out\n        /* \"#utility.yul\":1012:1352   */\n    tag_58:\n        /* \"#utility.yul\":1068:1073   */\n      0x00\n        /* \"#utility.yul\":1117:1120   */\n      dup3\n        /* \"#utility.yul\":1110:1114   */\n      0x1f\n        /* \"#utility.yul\":1102:1108   */\n      dup4\n        /* \"#utility.yul\":1098:1115   */\n      add\n        /* \"#utility.yul\":1094:1121   */\n      slt\n        /* \"#utility.yul\":1084:1206   */\n      tag_60\n      jumpi\n        /* \"#utility.yul\":1125:1204   */\n      tag_61\n      tag_51\n      jump\t// in\n    tag_61:\n        /* \"#utility.yul\":1084:1206   */\n    tag_60:\n        /* \"#utility.yul\":1242:1248   */\n      dup2\n        /* \"#utility.yul\":1229:1249   */\n      calldataload\n        /* \"#utility.yul\":1267:1346   */\n      tag_62\n        /* \"#utility.yul\":1342:1345   */\n      dup5\n        /* \"#utility.yul\":1334:1340   */\n      dup3\n        /* \"#utility.yul\":1327:1331   */\n      0x20\n        /* \"#utility.yul\":1319:1325   */\n      dup7\n        /* \"#utility.yul\":1315:1332   */\n      add\n        /* \"#utility.yul\":1267:1346   */\n      tag_36\n      jump\t// in\n    tag_62:\n        /* \"#utility.yul\":1258:1346   */\n      swap2\n      pop\n        /* \"#utility.yul\":1074:1352   */\n      pop\n        /* \"#utility.yul\":1012:1352   */\n      swap3\n      swap2\n      pop\n      pop\n      jump\t// out\n        /* \"#utility.yul\":1358:1497   */\n    tag_63:\n        /* \"#utility.yul\":1404:1409   */\n      0x00\n        /* \"#utility.yul\":1442:1448   */\n      dup2\n        /* \"#utility.yul\":1429:1449   */\n      calldataload\n        /* \"#utility.yul\":1420:1449   */\n      swap1\n      pop\n        /* \"#utility.yul\":1458:1491   */\n      tag_65\n        /* \"#utility.yul\":1485:1490   */\n      dup2\n        /* \"#utility.yul\":1458:1491   */\n      tag_66\n      jump\t// in\n    tag_65:\n        /* \"#utility.yul\":1358:1497   */\n      swap3\n      swap2\n      pop\n      pop\n      jump\t// out\n        /* \"#utility.yul\":1503:2322   */\n    tag_14:\n        /* \"#utility.yul\":1592:1598   */\n      0x00\n        /* \"#utility.yul\":1600:1606   */\n      dup1\n        /* \"#utility.yul\":1608:1614   */\n      0x00\n        /* \"#utility.yul\":1616:1622   */\n      dup1\n        /* \"#utility.yul\":1665:1667   */\n      0x60\n        /* \"#utility.yul\":1653:1662   */\n      dup6\n        /* \"#utility.yul\":1644:1651   */\n      dup8\n        /* \"#utility.yul\":1640:1663   */\n      sub\n        /* \"#utility.yul\":1636:1668   */\n      slt\n        /* \"#utility.yul\":1633:1752   */\n      iszero\n      tag_68\n      jumpi\n        /* \"#utility.yul\":1671:1750   */\n      tag_69\n      tag_70\n      jump\t// in\n    tag_69:\n        /* \"#utility.yul\":1633:1752   */\n    tag_68:\n        /* \"#utility.yul\":1819:1820   */\n      0x00\n        /* \"#utility.yul\":1808:1817   */\n      dup6\n        /* \"#utility.yul\":1804:1821   */\n      add\n        /* \"#utility.yul\":1791:1822   */\n      calldataload\n        /* \"#utility.yul\":1849:1867   */\n      0xffffffffffffffff\n        /* \"#utility.yul\":1841:1847   */\n      dup2\n        /* \"#utility.yul\":1838:1868   */\n      gt\n        /* \"#utility.yul\":1835:1952   */\n      iszero\n      tag_71\n      jumpi\n        /* \"#utility.yul\":1871:1950   */\n      tag_72\n      tag_73\n      jump\t// in\n    tag_72:\n        /* \"#utility.yul\":1835:1952   */\n    tag_71:\n        /* \"#utility.yul\":1984:2049   */\n      tag_74\n        /* \"#utility.yul\":2041:2048   */\n      dup8\n        /* \"#utility.yul\":2032:2038   */\n      dup3\n        /* \"#utility.yul\":2021:2030   */\n      dup9\n        /* \"#utility.yul\":2017:2039   */\n      add\n        /* \"#utility.yul\":1984:2049   */\n      tag_47\n      jump\t// in\n    tag_74:\n        /* \"#utility.yul\":1966:2049   */\n      swap5\n      pop\n      swap5\n      pop\n        /* \"#utility.yul\":1762:2059   */\n      pop\n        /* \"#utility.yul\":2098:2100   */\n      0x20\n        /* \"#utility.yul\":2124:2177   */\n      tag_75\n        /* \"#utility.yul\":2169:2176   */\n      dup8\n        /* \"#utility.yul\":2160:2166   */\n      dup3\n        /* \"#utility.yul\":2149:2158   */\n      dup9\n        /* \"#utility.yul\":2145:2167   */\n      add\n        /* \"#utility.yul\":2124:2177   */\n      tag_63\n      jump\t// in\n    tag_75:\n        /* \"#utility.yul\":2114:2177   */\n      swap3\n      pop\n        /* \"#utility.yul\":2069:2187   */\n      pop\n        /* \"#utility.yul\":2226:2228   */\n      0x40\n        /* \"#utility.yul\":2252:2305   */\n      tag_76\n        /* \"#utility.yul\":2297:2304   */\n      dup8\n        /* \"#utility.yul\":2288:2294   */\n      dup3\n        /* \"#utility.yul\":2277:2286   */\n      dup9\n        /* \"#utility.yul\":2273:2295   */\n      add\n        /* \"#utility.yul\":2252:2305   */\n      tag_63\n      jump\t// in\n    tag_76:\n        /* \"#utility.yul\":2242:2305   */\n      swap2\n      pop\n        /* \"#utility.yul\":2197:2315   */\n      pop\n        /* \"#utility.yul\":1503:2322   */\n      swap3\n      swap6\n      swap2\n      swap5\n      pop\n      swap3\n      pop\n      jump\t// out\n        /* \"#utility.yul\":2328:2837   */\n    tag_8:\n        /* \"#utility.yul\":2397:2403   */\n      0x00\n        /* \"#utility.yul\":2446:2448   */\n      0x20\n        /* \"#utility.yul\":2434:2443   */\n      dup3\n        /* \"#utility.yul\":2425:2432   */\n      dup5\n        /* \"#utility.yul\":2421:2444   */\n      sub\n        /* \"#utility.yul\":2417:2449   */\n      slt\n        /* \"#utility.yul\":2414:2533   */\n      iszero\n      tag_78\n      jumpi\n        /* \"#utility.yul\":2452:2531   */\n      tag_79\n      tag_70\n      jump\t// in\n    tag_79:\n        /* \"#utility.yul\":2414:2533   */\n    tag_78:\n        /* \"#utility.yul\":2600:2601   */\n      0x00\n        /* \"#utility.yul\":2589:2598   */\n      dup3\n        /* \"#utility.yul\":2585:2602   */\n      add\n        /* \"#utility.yul\":2572:2603   */\n      calldataload\n        /* \"#utility.yul\":2630:2648   */\n      0xffffffffffffffff\n        /* \"#utility.yul\":2622:2628   */\n      dup2\n        /* \"#utility.yul\":2619:2649   */\n      gt\n        /* \"#utility.yul\":2616:2733   */\n      iszero\n      tag_80\n      jumpi\n        /* \"#utility.yul\":2652:2731   */\n      tag_81\n      tag_73\n      jump\t// in\n    tag_81:\n        /* \"#utility.yul\":2616:2733   */\n    tag_80:\n        /* \"#utility.yul\":2757:2820   */\n      tag_82\n        /* \"#utility.yul\":2812:2819   */\n      dup5\n        /* \"#utility.yul\":2803:2809   */\n      dup3\n        /* \"#utility.yul\":2792:2801   */\n      dup6\n        /* \"#utility.yul\":2788:2810   */\n      add\n        /* \"#utility.yul\":2757:2820   */\n      tag_58\n      jump\t// in\n    tag_82:\n        /* \"#utility.yul\":2747:2820   */\n      swap2\n      pop\n        /* \"#utility.yul\":2543:2830   */\n      pop\n        /* \"#utility.yul\":2328:2837   */\n      swap3\n      swap2\n      pop\n      pop\n      jump\t// out\n        /* \"#utility.yul\":2843:3172   */\n    tag_20:\n        /* \"#utility.yul\":2902:2908   */\n      0x00\n        /* \"#utility.yul\":2951:2953   */\n      0x20\n        /* \"#utility.yul\":2939:2948   */\n      dup3\n        /* \"#utility.yul\":2930:2937   */\n      dup5\n        /* \"#utility.yul\":2926:2949   */\n      sub\n        /* \"#utility.yul\":2922:2954   */\n      slt\n        /* \"#utility.yul\":2919:3038   */\n      iszero\n      tag_84\n      jumpi\n        /* \"#utility.yul\":2957:3036   */\n      tag_85\n      tag_70\n      jump\t// in\n    tag_85:\n        /* \"#utility.yul\":2919:3038   */\n    tag_84:\n        /* \"#utility.yul\":3077:3078   */\n      0x00\n        /* \"#utility.yul\":3102:3155   */\n      tag_86\n        /* \"#utility.yul\":3147:3154   */\n      dup5\n        /* \"#utility.yul\":3138:3144   */\n      dup3\n        /* \"#utility.yul\":3127:3136   */\n      dup6\n        /* \"#utility.yul\":3123:3145   */\n      add\n        /* \"#utility.yul\":3102:3155   */\n      tag_63\n      jump\t// in\n    tag_86:\n        /* \"#utility.yul\":3092:3155   */\n      swap2\n      pop\n        /* \"#utility.yul\":3048:3165   */\n      pop\n        /* \"#utility.yul\":2843:3172   */\n      swap3\n      swap2\n      pop\n      pop\n      jump\t// out\n        /* \"#utility.yul\":3178:3287   */\n    tag_87:\n        /* \"#utility.yul\":3259:3280   */\n      tag_89\n        /* \"#utility.yul\":3274:3279   */\n      dup2\n        /* \"#utility.yul\":3259:3280   */\n      tag_90\n      jump\t// in\n    tag_89:\n        /* \"#utility.yul\":3254:3257   */\n      dup3\n        /* \"#utility.yul\":3247:3281   */\n      mstore\n        /* \"#utility.yul\":3178:3287   */\n      pop\n      pop\n      jump\t// out\n        /* \"#utility.yul\":3317:3634   */\n    tag_91:\n        /* \"#utility.yul\":3433:3436   */\n      0x00\n        /* \"#utility.yul\":3454:3543   */\n      tag_93\n        /* \"#utility.yul\":3536:3542   */\n      dup4\n        /* \"#utility.yul\":3531:3534   */\n      dup6\n        /* \"#utility.yul\":3454:3543   */\n      tag_94\n      jump\t// in\n    tag_93:\n        /* \"#utility.yul\":3447:3543   */\n      swap4\n      pop\n        /* \"#utility.yul\":3553:3596   */\n      tag_95\n        /* \"#utility.yul\":3589:3595   */\n      dup4\n        /* \"#utility.yul\":3584:3587   */\n      dup6\n        /* \"#utility.yul\":3577:3582   */\n      dup5\n        /* \"#utility.yul\":3553:3596   */\n      tag_46\n      jump\t// in\n    tag_95:\n        /* \"#utility.yul\":3621:3627   */\n      dup3\n        /* \"#utility.yul\":3616:3619   */\n      dup5\n        /* \"#utility.yul\":3612:3628   */\n      add\n        /* \"#utility.yul\":3605:3628   */\n      swap1\n      pop\n        /* \"#utility.yul\":3317:3634   */\n      swap4\n      swap3\n      pop\n      pop\n      pop\n      jump\t// out\n        /* \"#utility.yul\":3640:4004   */\n    tag_96:\n        /* \"#utility.yul\":3728:3731   */\n      0x00\n        /* \"#utility.yul\":3756:3795   */\n      tag_98\n        /* \"#utility.yul\":3789:3794   */\n      dup3\n        /* \"#utility.yul\":3756:3795   */\n      tag_99\n      jump\t// in\n    tag_98:\n        /* \"#utility.yul\":3811:3882   */\n      tag_100\n        /* \"#utility.yul\":3875:3881   */\n      dup2\n        /* \"#utility.yul\":3870:3873   */\n      dup6\n        /* \"#utility.yul\":3811:3882   */\n      tag_101\n      jump\t// in\n    tag_100:\n        /* \"#utility.yul\":3804:3882   */\n      swap4\n      pop\n        /* \"#utility.yul\":3891:3943   */\n      tag_102\n        /* \"#utility.yul\":3936:3942   */\n      dup2\n        /* \"#utility.yul\":3931:3934   */\n      dup6\n        /* \"#utility.yul\":3924:3928   */\n      0x20\n        /* \"#utility.yul\":3917:3922   */\n      dup7\n        /* \"#utility.yul\":3913:3929   */\n      add\n        /* \"#utility.yul\":3891:3943   */\n      tag_103\n      jump\t// in\n    tag_102:\n        /* \"#utility.yul\":3968:3997   */\n      tag_104\n        /* \"#utility.yul\":3990:3996   */\n      dup2\n        /* \"#utility.yul\":3968:3997   */\n      tag_105\n      jump\t// in\n    tag_104:\n        /* \"#utility.yul\":3963:3966   */\n      dup5\n        /* \"#utility.yul\":3959:3998   */\n      add\n        /* \"#utility.yul\":3952:3998   */\n      swap2\n      pop\n        /* \"#utility.yul\":3732:4004   */\n      pop\n        /* \"#utility.yul\":3640:4004   */\n      swap3\n      swap2\n      pop\n      pop\n      jump\t// out\n        /* \"#utility.yul\":4010:4128   */\n    tag_106:\n        /* \"#utility.yul\":4097:4121   */\n      tag_108\n        /* \"#utility.yul\":4115:4120   */\n      dup2\n        /* \"#utility.yul\":4097:4121   */\n      tag_109\n      jump\t// in\n    tag_108:\n        /* \"#utility.yul\":4092:4095   */\n      dup3\n        /* \"#utility.yul\":4085:4122   */\n      mstore\n        /* \"#utility.yul\":4010:4128   */\n      pop\n      pop\n      jump\t// out\n        /* \"#utility.yul\":4134:4429   */\n    tag_26:\n        /* \"#utility.yul\":4276:4279   */\n      0x00\n        /* \"#utility.yul\":4298:4403   */\n      tag_111\n        /* \"#utility.yul\":4399:4402   */\n      dup3\n        /* \"#utility.yul\":4390:4396   */\n      dup5\n        /* \"#utility.yul\":4382:4388   */\n      dup7\n        /* \"#utility.yul\":4298:4403   */\n      tag_91\n      jump\t// in\n    tag_111:\n        /* \"#utility.yul\":4291:4403   */\n      swap2\n      pop\n        /* \"#utility.yul\":4420:4423   */\n      dup2\n        /* \"#utility.yul\":4413:4423   */\n      swap1\n      pop\n        /* \"#utility.yul\":4134:4429   */\n      swap4\n      swap3\n      pop\n      pop\n      pop\n      jump\t// out\n        /* \"#utility.yul\":4435:4748   */\n    tag_23:\n        /* \"#utility.yul\":4548:4552   */\n      0x00\n        /* \"#utility.yul\":4586:4588   */\n      0x20\n        /* \"#utility.yul\":4575:4584   */\n      dup3\n        /* \"#utility.yul\":4571:4589   */\n      add\n        /* \"#utility.yul\":4563:4589   */\n      swap1\n      pop\n        /* \"#utility.yul\":4635:4644   */\n      dup2\n        /* \"#utility.yul\":4629:4633   */\n      dup2\n        /* \"#utility.yul\":4625:4645   */\n      sub\n        /* \"#utility.yul\":4621:4622   */\n      0x00\n        /* \"#utility.yul\":4610:4619   */\n      dup4\n        /* \"#utility.yul\":4606:4623   */\n      add\n        /* \"#utility.yul\":4599:4646   */\n      mstore\n        /* \"#utility.yul\":4663:4741   */\n      tag_113\n        /* \"#utility.yul\":4736:4740   */\n      dup2\n        /* \"#utility.yul\":4727:4733   */\n      dup5\n        /* \"#utility.yul\":4663:4741   */\n      tag_96\n      jump\t// in\n    tag_113:\n        /* \"#utility.yul\":4655:4741   */\n      swap1\n      pop\n        /* \"#utility.yul\":4435:4748   */\n      swap3\n      swap2\n      pop\n      pop\n      jump\t// out\n        /* \"#utility.yul\":4754:4976   */\n    tag_17:\n        /* \"#utility.yul\":4847:4851   */\n      0x00\n        /* \"#utility.yul\":4885:4887   */\n      0x20\n        /* \"#utility.yul\":4874:4883   */\n      dup3\n        /* \"#utility.yul\":4870:4888   */\n      add\n        /* \"#utility.yul\":4862:4888   */\n      swap1\n      pop\n        /* \"#utility.yul\":4898:4969   */\n      tag_115\n        /* \"#utility.yul\":4966:4967   */\n      0x00\n        /* \"#utility.yul\":4955:4964   */\n      dup4\n        /* \"#utility.yul\":4951:4968   */\n      add\n        /* \"#utility.yul\":4942:4948   */\n      dup5\n        /* \"#utility.yul\":4898:4969   */\n      tag_106\n      jump\t// in\n    tag_115:\n        /* \"#utility.yul\":4754:4976   */\n      swap3\n      swap2\n      pop\n      pop\n      jump\t// out\n        /* \"#utility.yul\":4982:5412   */\n    tag_11:\n        /* \"#utility.yul\":5125:5129   */\n      0x00\n        /* \"#utility.yul\":5163:5165   */\n      0x60\n        /* \"#utility.yul\":5152:5161   */\n      dup3\n        /* \"#utility.yul\":5148:5166   */\n      add\n        /* \"#utility.yul\":5140:5166   */\n      swap1\n      pop\n        /* \"#utility.yul\":5176:5247   */\n      tag_117\n        /* \"#utility.yul\":5244:5245   */\n      0x00\n        /* \"#utility.yul\":5233:5242   */\n      dup4\n        /* \"#utility.yul\":5229:5246   */\n      add\n        /* \"#utility.yul\":5220:5226   */\n      dup7\n        /* \"#utility.yul\":5176:5247   */\n      tag_106\n      jump\t// in\n    tag_117:\n        /* \"#utility.yul\":5257:5329   */\n      tag_118\n        /* \"#utility.yul\":5325:5327   */\n      0x20\n        /* \"#utility.yul\":5314:5323   */\n      dup4\n        /* \"#utility.yul\":5310:5328   */\n      add\n        /* \"#utility.yul\":5301:5307   */\n      dup6\n        /* \"#utility.yul\":5257:5329   */\n      tag_106\n      jump\t// in\n    tag_118:\n        /* \"#utility.yul\":5339:5405   */\n      tag_119\n        /* \"#utility.yul\":5401:5403   */\n      0x40\n        /* \"#utility.yul\":5390:5399   */\n      dup4\n        /* \"#utility.yul\":5386:5404   */\n      add\n        /* \"#utility.yul\":5377:5383   */\n      dup5\n        /* \"#utility.yul\":5339:5405   */\n      tag_87\n      jump\t// in\n    tag_119:\n        /* \"#utility.yul\":4982:5412   */\n      swap5\n      swap4\n      pop\n      pop\n      pop\n      pop\n      jump\t// out\n        /* \"#utility.yul\":5418:5547   */\n    tag_41:\n        /* \"#utility.yul\":5452:5458   */\n      0x00\n        /* \"#utility.yul\":5479:5499   */\n      tag_121\n      tag_122\n      jump\t// in\n    tag_121:\n        /* \"#utility.yul\":5469:5499   */\n      swap1\n      pop\n        /* \"#utility.yul\":5508:5541   */\n      tag_123\n        /* \"#utility.yul\":5536:5540   */\n      dup3\n        /* \"#utility.yul\":5528:5534   */\n      dup3\n        /* \"#utility.yul\":5508:5541   */\n      tag_124\n      jump\t// in\n    tag_123:\n        /* \"#utility.yul\":5418:5547   */\n      swap2\n      swap1\n      pop\n      jump\t// out\n        /* \"#utility.yul\":5553:5628   */\n    tag_122:\n        /* \"#utility.yul\":5586:5592   */\n      0x00\n        /* \"#utility.yul\":5619:5621   */\n      0x40\n        /* \"#utility.yul\":5613:5622   */\n      mload\n        /* \"#utility.yul\":5603:5622   */\n      swap1\n      pop\n        /* \"#utility.yul\":5553:5628   */\n      swap1\n      jump\t// out\n        /* \"#utility.yul\":5634:5942   */\n    tag_40:\n        /* \"#utility.yul\":5696:5700   */\n      0x00\n        /* \"#utility.yul\":5786:5804   */\n      0xffffffffffffffff\n        /* \"#utility.yul\":5778:5784   */\n      dup3\n        /* \"#utility.yul\":5775:5805   */\n      gt\n        /* \"#utility.yul\":5772:5828   */\n      iszero\n      tag_127\n      jumpi\n        /* \"#utility.yul\":5808:5826   */\n      tag_128\n      tag_129\n      jump\t// in\n    tag_128:\n        /* \"#utility.yul\":5772:5828   */\n    tag_127:\n        /* \"#utility.yul\":5846:5875   */\n      tag_130\n        /* \"#utility.yul\":5868:5874   */\n      dup3\n        /* \"#utility.yul\":5846:5875   */\n      tag_105\n      jump\t// in\n    tag_130:\n        /* \"#utility.yul\":5838:5875   */\n      swap1\n      pop\n        /* \"#utility.yul\":5930:5934   */\n      0x20\n        /* \"#utility.yul\":5924:5928   */\n      dup2\n        /* \"#utility.yul\":5920:5935   */\n      add\n        /* \"#utility.yul\":5912:5935   */\n      swap1\n      pop\n        /* \"#utility.yul\":5634:5942   */\n      swap2\n      swap1\n      pop\n      jump\t// out\n        /* \"#utility.yul\":5948:6047   */\n    tag_99:\n        /* \"#utility.yul\":6000:6006   */\n      0x00\n        /* \"#utility.yul\":6034:6039   */\n      dup2\n        /* \"#utility.yul\":6028:6040   */\n      mload\n        /* \"#utility.yul\":6018:6040   */\n      swap1\n      pop\n        /* \"#utility.yul\":5948:6047   */\n      swap2\n      swap1\n      pop\n      jump\t// out\n        /* \"#utility.yul\":6053:6222   */\n    tag_101:\n        /* \"#utility.yul\":6137:6148   */\n      0x00\n        /* \"#utility.yul\":6171:6177   */\n      dup3\n        /* \"#utility.yul\":6166:6169   */\n      dup3\n        /* \"#utility.yul\":6159:6178   */\n      mstore\n        /* \"#utility.yul\":6211:6215   */\n      0x20\n        /* \"#utility.yul\":6206:6209   */\n      dup3\n        /* \"#utility.yul\":6202:6216   */\n      add\n        /* \"#utility.yul\":6187:6216   */\n      swap1\n      pop\n        /* \"#utility.yul\":6053:6222   */\n      swap3\n      swap2\n      pop\n      pop\n      jump\t// out\n        /* \"#utility.yul\":6228:6376   */\n    tag_94:\n        /* \"#utility.yul\":6330:6341   */\n      0x00\n        /* \"#utility.yul\":6367:6370   */\n      dup2\n        /* \"#utility.yul\":6352:6370   */\n      swap1\n      pop\n        /* \"#utility.yul\":6228:6376   */\n      swap3\n      swap2\n      pop\n      pop\n      jump\t// out\n        /* \"#utility.yul\":6382:6472   */\n    tag_90:\n        /* \"#utility.yul\":6416:6423   */\n      0x00\n        /* \"#utility.yul\":6459:6464   */\n      dup2\n        /* \"#utility.yul\":6452:6465   */\n      iszero\n        /* \"#utility.yul\":6445:6466   */\n      iszero\n        /* \"#utility.yul\":6434:6466   */\n      swap1\n      pop\n        /* \"#utility.yul\":6382:6472   */\n      swap2\n      swap1\n      pop\n      jump\t// out\n        /* \"#utility.yul\":6478:6555   */\n    tag_109:\n        /* \"#utility.yul\":6515:6522   */\n      0x00\n        /* \"#utility.yul\":6544:6549   */\n      dup2\n        /* \"#utility.yul\":6533:6549   */\n      swap1\n      pop\n        /* \"#utility.yul\":6478:6555   */\n      swap2\n      swap1\n      pop\n      jump\t// out\n        /* \"#utility.yul\":6561:6715   */\n    tag_46:\n        /* \"#utility.yul\":6645:6651   */\n      dup3\n        /* \"#utility.yul\":6640:6643   */\n      dup2\n        /* \"#utility.yul\":6635:6638   */\n      dup4\n        /* \"#utility.yul\":6622:6652   */\n      calldatacopy\n        /* \"#utility.yul\":6707:6708   */\n      0x00\n        /* \"#utility.yul\":6698:6704   */\n      dup4\n        /* \"#utility.yul\":6693:6696   */\n      dup4\n        /* \"#utility.yul\":6689:6705   */\n      add\n        /* \"#utility.yul\":6682:6709   */\n      mstore\n        /* \"#utility.yul\":6561:6715   */\n      pop\n      pop\n      pop\n      jump\t// out\n        /* \"#utility.yul\":6721:7028   */\n    tag_103:\n        /* \"#utility.yul\":6789:6790   */\n      0x00\n        /* \"#utility.yul\":6799:6912   */\n    tag_138:\n        /* \"#utility.yul\":6813:6819   */\n      dup4\n        /* \"#utility.yul\":6810:6811   */\n      dup2\n        /* \"#utility.yul\":6807:6820   */\n      lt\n        /* \"#utility.yul\":6799:6912   */\n      iszero\n      tag_140\n      jumpi\n        /* \"#utility.yul\":6898:6899   */\n      dup1\n        /* \"#utility.yul\":6893:6896   */\n      dup3\n        /* \"#utility.yul\":6889:6900   */\n      add\n        /* \"#utility.yul\":6883:6901   */\n      mload\n        /* \"#utility.yul\":6879:6880   */\n      dup2\n        /* \"#utility.yul\":6874:6877   */\n      dup5\n        /* \"#utility.yul\":6870:6881   */\n      add\n        /* \"#utility.yul\":6863:6902   */\n      mstore\n        /* \"#utility.yul\":6835:6837   */\n      0x20\n        /* \"#utility.yul\":6832:6833   */\n      dup2\n        /* \"#utility.yul\":6828:6838   */\n      add\n        /* \"#utility.yul\":6823:6838   */\n      swap1\n      pop\n        /* \"#utility.yul\":6799:6912   */\n      jump(tag_138)\n    tag_140:\n        /* \"#utility.yul\":6930:6936   */\n      dup4\n        /* \"#utility.yul\":6927:6928   */\n      dup2\n        /* \"#utility.yul\":6924:6937   */\n      gt\n        /* \"#utility.yul\":6921:7022   */\n      iszero\n      tag_141\n      jumpi\n        /* \"#utility.yul\":7010:7011   */\n      0x00\n        /* \"#utility.yul\":7001:7007   */\n      dup5\n        /* \"#utility.yul\":6996:6999   */\n      dup5\n        /* \"#utility.yul\":6992:7008   */\n      add\n        /* \"#utility.yul\":6985:7012   */\n      mstore\n        /* \"#utility.yul\":6921:7022   */\n    tag_141:\n        /* \"#utility.yul\":6770:7028   */\n      pop\n        /* \"#utility.yul\":6721:7028   */\n      pop\n      pop\n      pop\n      jump\t// out\n        /* \"#utility.yul\":7034:7354   */\n    tag_30:\n        /* \"#utility.yul\":7078:7084   */\n      0x00\n        /* \"#utility.yul\":7115:7116   */\n      0x02\n        /* \"#utility.yul\":7109:7113   */\n      dup3\n        /* \"#utility.yul\":7105:7117   */\n      div\n        /* \"#utility.yul\":7095:7117   */\n      swap1\n      pop\n        /* \"#utility.yul\":7162:7163   */\n      0x01\n        /* \"#utility.yul\":7156:7160   */\n      dup3\n        /* \"#utility.yul\":7152:7164   */\n      and\n        /* \"#utility.yul\":7183:7201   */\n      dup1\n        /* \"#utility.yul\":7173:7254   */\n      tag_143\n      jumpi\n        /* \"#utility.yul\":7239:7243   */\n      0x7f\n        /* \"#utility.yul\":7231:7237   */\n      dup3\n        /* \"#utility.yul\":7227:7244   */\n      and\n        /* \"#utility.yul\":7217:7244   */\n      swap2\n      pop\n        /* \"#utility.yul\":7173:7254   */\n    tag_143:\n        /* \"#utility.yul\":7301:7303   */\n      0x20\n        /* \"#utility.yul\":7293:7299   */\n      dup3\n        /* \"#utility.yul\":7290:7304   */\n      lt\n        /* \"#utility.yul\":7270:7288   */\n      dup2\n        /* \"#utility.yul\":7267:7305   */\n      eq\n        /* \"#utility.yul\":7264:7348   */\n      iszero\n      tag_144\n      jumpi\n        /* \"#utility.yul\":7320:7338   */\n      tag_145\n      tag_146\n      jump\t// in\n    tag_145:\n        /* \"#utility.yul\":7264:7348   */\n    tag_144:\n        /* \"#utility.yul\":7085:7354   */\n      pop\n        /* \"#utility.yul\":7034:7354   */\n      swap2\n      swap1\n      pop\n      jump\t// out\n        /* \"#utility.yul\":7360:7641   */\n    tag_124:\n        /* \"#utility.yul\":7443:7470   */\n      tag_148\n        /* \"#utility.yul\":7465:7469   */\n      dup3\n        /* \"#utility.yul\":7443:7470   */\n      tag_105\n      jump\t// in\n    tag_148:\n        /* \"#utility.yul\":7435:7441   */\n      dup2\n        /* \"#utility.yul\":7431:7471   */\n      add\n        /* \"#utility.yul\":7573:7579   */\n      dup2\n        /* \"#utility.yul\":7561:7571   */\n      dup2\n        /* \"#utility.yul\":7558:7580   */\n      lt\n        /* \"#utility.yul\":7537:7555   */\n      0xffffffffffffffff\n        /* \"#utility.yul\":7525:7535   */\n      dup3\n        /* \"#utility.yul\":7522:7556   */\n      gt\n        /* \"#utility.yul\":7519:7581   */\n      or\n        /* \"#utility.yul\":7516:7604   */\n      iszero\n      tag_149\n      jumpi\n        /* \"#utility.yul\":7584:7602   */\n      tag_150\n      tag_129\n      jump\t// in\n    tag_150:\n        /* \"#utility.yul\":7516:7604   */\n    tag_149:\n        /* \"#utility.yul\":7624:7634   */\n      dup1\n        /* \"#utility.yul\":7620:7622   */\n      0x40\n        /* \"#utility.yul\":7613:7635   */\n      mstore\n        /* \"#utility.yul\":7403:7641   */\n      pop\n        /* \"#utility.yul\":7360:7641   */\n      pop\n      pop\n      jump\t// out\n        /* \"#utility.yul\":7647:7827   */\n    tag_146:\n        /* \"#utility.yul\":7695:7772   */\n      0x4e487b7100000000000000000000000000000000000000000000000000000000\n        /* \"#utility.yul\":7692:7693   */\n      0x00\n        /* \"#utility.yul\":7685:7773   */\n      mstore\n        /* \"#utility.yul\":7792:7796   */\n      0x22\n        /* \"#utility.yul\":7789:7790   */\n      0x04\n        /* \"#utility.yul\":7782:7797   */\n      mstore\n        /* \"#utility.yul\":7816:7820   */\n      0x24\n        /* \"#utility.yul\":7813:7814   */\n      0x00\n        /* \"#utility.yul\":7806:7821   */\n      revert\n        /* \"#utility.yul\":7833:8013   */\n    tag_129:\n        /* \"#utility.yul\":7881:7958   */\n      0x4e487b7100000000000000000000000000000000000000000000000000000000\n        /* \"#utility.yul\":7878:7879   */\n      0x00\n        /* \"#utility.yul\":7871:7959   */\n      mstore\n        /* \"#utility.yul\":7978:7982   */\n      0x41\n        /* \"#utility.yul\":7975:7976   */\n      0x04\n        /* \"#utility.yul\":7968:7983   */\n      mstore\n        /* \"#utility.yul\":8002:8006   */\n      0x24\n        /* \"#utility.yul\":7999:8000   */\n      0x00\n        /* \"#utility.yul\":7992:8007   */\n      revert\n        /* \"#utility.yul\":8019:8136   */\n    tag_54:\n        /* \"#utility.yul\":8128:8129   */\n      0x00\n        /* \"#utility.yul\":8125:8126   */\n      dup1\n        /* \"#utility.yul\":8118:8130   */\n      revert\n        /* \"#utility.yul\":8142:8259   */\n    tag_51:\n        /* \"#utility.yul\":8251:8252   */\n      0x00\n        /* \"#utility.yul\":8248:8249   */\n      dup1\n        /* \"#utility.yul\":8241:8253   */\n      revert\n        /* \"#utility.yul\":8265:8382   */\n    tag_57:\n        /* \"#utility.yul\":8374:8375   */\n      0x00\n        /* \"#utility.yul\":8371:8372   */\n      dup1\n        /* \"#utility.yul\":8364:8376   */\n      revert\n        /* \"#utility.yul\":8388:8505   */\n    tag_44:\n        /* \"#utility.yul\":8497:8498   */\n      0x00\n        /* \"#utility.yul\":8494:8495   */\n      dup1\n        /* \"#utility.yul\":8487:8499   */\n      revert\n        /* \"#utility.yul\":8511:8628   */\n    tag_73:\n        /* \"#utility.yul\":8620:8621   */\n      0x00\n        /* \"#utility.yul\":8617:8618   */\n      dup1\n        /* \"#utility.yul\":8610:8622   */\n      revert\n        /* \"#utility.yul\":8634:8751   */\n    tag_70:\n        /* \"#utility.yul\":8743:8744   */\n      0x00\n        /* \"#utility.yul\":8740:8741   */\n      dup1\n        /* \"#utility.yul\":8733:8745   */\n      revert\n        /* \"#utility.yul\":8757:8859   */\n    tag_105:\n        /* \"#utility.yul\":8798:8804   */\n      0x00\n        /* \"#utility.yul\":8849:8851   */\n      0x1f\n        /* \"#utility.yul\":8845:8852   */\n      not\n        /* \"#utility.yul\":8840:8842   */\n      0x1f\n        /* \"#utility.yul\":8833:8838   */\n      dup4\n        /* \"#utility.yul\":8829:8843   */\n      add\n        /* \"#utility.yul\":8825:8853   */\n      and\n        /* \"#utility.yul\":8815:8853   */\n      swap1\n      pop\n        /* \"#utility.yul\":8757:8859   */\n      swap2\n      swap1\n      pop\n      jump\t// out\n        /* \"#utility.yul\":8865:8987   */\n    tag_66:\n        /* \"#utility.yul\":8938:8962   */\n      tag_161\n        /* \"#utility.yul\":8956:8961   */\n      dup2\n        /* \"#utility.yul\":8938:8962   */\n      tag_109\n      jump\t// in\n    tag_161:\n        /* \"#utility.yul\":8931:8936   */\n      dup2\n        /* \"#utility.yul\":8928:8963   */\n      eq\n        /* \"#utility.yul\":8918:8981   */\n      tag_162\n      jumpi\n        /* \"#utility.yul\":8977:8978   */\n      0x00\n        /* \"#utility.yul\":8974:8975   */\n      dup1\n        /* \"#utility.yul\":8967:8979   */\n      revert\n        /* \"#utility.yul\":8918:8981   */\n    tag_162:\n        /* \"#utility.yul\":8865:8987   */\n      pop\n      jump\t// out\n\n    auxdata: 0xa2646970667358221220657fc60ed51ff97ddd0b640ab4c1dc59a7ee8cb651e5f47b2a98d6a128ad748964736f6c63430008070033\n}\n",
				"bytecode": {
					"linkReferences": {},
					"object": "608060405234801561001057600080fd5b506106e1806100206000396000f3fe608060405234801561001057600080fd5b50600436106100415760003560e01c80630186a423146100465780630a5bd44b14610078578063e4bcc7d4146100a8575b600080fd5b610060600480360381019061005b9190610350565b6100d8565b60405161006f93929190610498565b60405180910390f35b610092600480360381019061008d91906102dc565b610125565b60405161009f919061047d565b60405180910390f35b6100c260048036038101906100bd9190610399565b610155565b6040516100cf919061045b565b60405180910390f35b6001818051602081018201805184825260208301602085012081835280955050505050506000915090508060000154908060010154908060030160009054906101000a900460ff16905083565b600060018585604051610139929190610442565b9081526020016040518091039020600001549050949350505050565b6000818154811061016557600080fd5b906000526020600020016000915090508054610180906105a4565b80601f01602080910402602001604051908101604052809291908181526020018280546101ac906105a4565b80156101f95780601f106101ce576101008083540402835291602001916101f9565b820191906000526020600020905b8154815290600101906020018083116101dc57829003601f168201915b505050505081565b600061021461020f846104f4565b6104cf565b9050828152602081018484840111156102305761022f610674565b5b61023b848285610562565b509392505050565b60008083601f8401126102595761025861066a565b5b8235905067ffffffffffffffff81111561027657610275610665565b5b6020830191508360018202830111156102925761029161066f565b5b9250929050565b600082601f8301126102ae576102ad61066a565b5b81356102be848260208601610201565b91505092915050565b6000813590506102d681610694565b92915050565b600080600080606085870312156102f6576102f561067e565b5b600085013567ffffffffffffffff81111561031457610313610679565b5b61032087828801610243565b94509450506020610333878288016102c7565b9250506040610344878288016102c7565b91505092959194509250565b6000602082840312156103665761036561067e565b5b600082013567ffffffffffffffff81111561038457610383610679565b5b61039084828501610299565b91505092915050565b6000602082840312156103af576103ae61067e565b5b60006103bd848285016102c7565b91505092915050565b6103cf8161054c565b82525050565b60006103e18385610541565b93506103ee838584610562565b82840190509392505050565b600061040582610525565b61040f8185610530565b935061041f818560208601610571565b61042881610683565b840191505092915050565b61043c81610558565b82525050565b600061044f8284866103d5565b91508190509392505050565b6000602082019050818103600083015261047581846103fa565b905092915050565b60006020820190506104926000830184610433565b92915050565b60006060820190506104ad6000830186610433565b6104ba6020830185610433565b6104c760408301846103c6565b949350505050565b60006104d96104ea565b90506104e582826105d6565b919050565b6000604051905090565b600067ffffffffffffffff82111561050f5761050e610636565b5b61051882610683565b9050602081019050919050565b600081519050919050565b600082825260208201905092915050565b600081905092915050565b60008115159050919050565b6000819050919050565b82818337600083830152505050565b60005b8381101561058f578082015181840152602081019050610574565b8381111561059e576000848401525b50505050565b600060028204905060018216806105bc57607f821691505b602082108114156105d0576105cf610607565b5b50919050565b6105df82610683565b810181811067ffffffffffffffff821117156105fe576105fd610636565b5b80604052505050565b7f4e487b7100000000000000000000000000000000000000000000000000000000600052602260045260246000fd5b7f4e487b7100000000000000000000000000000000000000000000000000000000600052604160045260246000fd5b600080fd5b600080fd5b600080fd5b600080fd5b600080fd5b600080fd5b6000601f19601f8301169050919050565b61069d81610558565b81146106a857600080fd5b5056fea2646970667358221220657fc60ed51ff97ddd0b640ab4c1dc59a7ee8cb651e5f47b2a98d6a128ad748964736f6c63430008070033",
					"opcodes": "PUSH1 0x80 PUSH1 0x40 MSTORE CALLVALUE DUP1 ISZERO PUSH2 0x10 JUMPI PUSH1 0x0 DUP1 REVERT JUMPDEST POP PUSH2 0x6E1 DUP1 PUSH2 0x20 PUSH1 0x0 CODECOPY PUSH1 0x0 RETURN INVALID PUSH1 0x80 PUSH1 0x40 MSTORE CALLVALUE DUP1 ISZERO PUSH2 0x10 JUMPI PUSH1 0x0 DUP1 REVERT JUMPDEST POP PUSH1 0x4 CALLDATASIZE LT PUSH2 0x41 JUMPI PUSH1 0x0 CALLDATALOAD PUSH1 0xE0 SHR DUP1 PUSH4 0x186A423 EQ PUSH2 0x46 JUMPI DUP1 PUSH4 0xA5BD44B EQ PUSH2 0x78 JUMPI DUP1 PUSH4 0xE4BCC7D4 EQ PUSH2 0xA8 JUMPI JUMPDEST PUSH1 0x0 DUP1 REVERT JUMPDEST PUSH2 0x60 PUSH1 0x4 DUP1 CALLDATASIZE SUB DUP2 ADD SWAP1 PUSH2 0x5B SWAP2 SWAP1 PUSH2 0x350 JUMP JUMPDEST PUSH2 0xD8 JUMP JUMPDEST PUSH1 0x40 MLOAD PUSH2 0x6F SWAP4 SWAP3 SWAP2 SWAP1 PUSH2 0x498 JUMP JUMPDEST PUSH1 0x40 MLOAD DUP1 SWAP2 SUB SWAP1 RETURN JUMPDEST PUSH2 0x92 PUSH1 0x4 DUP1 CALLDATASIZE SUB DUP2 ADD SWAP1 PUSH2 0x8D SWAP2 SWAP1 PUSH2 0x2DC JUMP JUMPDEST PUSH2 0x125 JUMP JUMPDEST PUSH1 0x40 MLOAD PUSH2 0x9F SWAP2 SWAP1 PUSH2 0x47D JUMP JUMPDEST PUSH1 0x40 MLOAD DUP1 SWAP2 SUB SWAP1 RETURN JUMPDEST PUSH2 0xC2 PUSH1 0x4 DUP1 CALLDATASIZE SUB DUP2 ADD SWAP1 PUSH2 0xBD SWAP2 SWAP1 PUSH2 0x399 JUMP JUMPDEST PUSH2 0x155 JUMP JUMPDEST PUSH1 0x40 MLOAD PUSH2 0xCF SWAP2 SWAP1 PUSH2 0x45B JUMP JUMPDEST PUSH1 0x40 MLOAD DUP1 SWAP2 SUB SWAP1 RETURN JUMPDEST PUSH1 0x1 DUP2 DUP1 MLOAD PUSH1 0x20 DUP2 ADD DUP3 ADD DUP1 MLOAD DUP5 DUP3 MSTORE PUSH1 0x20 DUP4 ADD PUSH1 0x20 DUP6 ADD KECCAK256 DUP2 DUP4 MSTORE DUP1 SWAP6 POP POP POP POP POP POP PUSH1 0x0 SWAP2 POP SWAP1 POP DUP1 PUSH1 0x0 ADD SLOAD SWAP1 DUP1 PUSH1 0x1 ADD SLOAD SWAP1 DUP1 PUSH1 0x3 ADD PUSH1 0x0 SWAP1 SLOAD SWAP1 PUSH2 0x100 EXP SWAP1 DIV PUSH1 0xFF AND SWAP1 POP DUP4 JUMP JUMPDEST PUSH1 0x0 PUSH1 0x1 DUP6 DUP6 PUSH1 0x40 MLOAD PUSH2 0x139 SWAP3 SWAP2 SWAP1 PUSH2 0x442 JUMP JUMPDEST SWAP1 DUP2 MSTORE PUSH1 0x20 ADD PUSH1 0x40 MLOAD DUP1 SWAP2 SUB SWAP1 KECCAK256 PUSH1 0x0 ADD SLOAD SWAP1 POP SWAP5 SWAP4 POP POP POP POP JUMP JUMPDEST PUSH1 0x0 DUP2 DUP2 SLOAD DUP2 LT PUSH2 0x165 JUMPI PUSH1 0x0 DUP1 REVERT JUMPDEST SWAP1 PUSH1 0x0 MSTORE PUSH1 0x20 PUSH1 0x0 KECCAK256 ADD PUSH1 0x0 SWAP2 POP SWAP1 POP DUP1 SLOAD PUSH2 0x180 SWAP1 PUSH2 0x5A4 JUMP JUMPDEST DUP1 PUSH1 0x1F ADD PUSH1 0x20 DUP1 SWAP2 DIV MUL PUSH1 0x20 ADD PUSH1 0x40 MLOAD SWAP1 DUP2 ADD PUSH1 0x40 MSTORE DUP1 SWAP3 SWAP2 SWAP1 DUP2 DUP2 MSTORE PUSH1 0x20 ADD DUP3 DUP1 SLOAD PUSH2 0x1AC SWAP1 PUSH2 0x5A4 JUMP JUMPDEST DUP1 ISZERO PUSH2 0x1F9 JUMPI DUP1 PUSH1 0x1F LT PUSH2 0x1CE JUMPI PUSH2 0x100 DUP1 DUP4 SLOAD DIV MUL DUP4 MSTORE SWAP2 PUSH1 0x20 ADD SWAP2 PUSH2 0x1F9 JUMP JUMPDEST DUP3 ADD SWAP2 SWAP1 PUSH1 0x0 MSTORE PUSH1 0x20 PUSH1 0x0 KECCAK256 SWAP1 JUMPDEST DUP2 SLOAD DUP2 MSTORE SWAP1 PUSH1 0x1 ADD SWAP1 PUSH1 0x20 ADD DUP1 DUP4 GT PUSH2 0x1DC JUMPI DUP3 SWAP1 SUB PUSH1 0x1F AND DUP3 ADD SWAP2 JUMPDEST POP POP POP POP POP DUP2 JUMP JUMPDEST PUSH1 0x0 PUSH2 0x214 PUSH2 0x20F DUP5 PUSH2 0x4F4 JUMP JUMPDEST PUSH2 0x4CF JUMP JUMPDEST SWAP1 POP DUP3 DUP2 MSTORE PUSH1 0x20 DUP2 ADD DUP5 DUP5 DUP5 ADD GT ISZERO PUSH2 0x230 JUMPI PUSH2 0x22F PUSH2 0x674 JUMP JUMPDEST JUMPDEST PUSH2 0x23B DUP5 DUP3 DUP6 PUSH2 0x562 JUMP JUMPDEST POP SWAP4 SWAP3 POP POP POP JUMP JUMPDEST PUSH1 0x0 DUP1 DUP4 PUSH1 0x1F DUP5 ADD SLT PUSH2 0x259 JUMPI PUSH2 0x258 PUSH2 0x66A JUMP JUMPDEST JUMPDEST DUP3 CALLDATALOAD SWAP1 POP PUSH8 0xFFFFFFFFFFFFFFFF DUP2 GT ISZERO PUSH2 0x276 JUMPI PUSH2 0x275 PUSH2 0x665 JUMP JUMPDEST JUMPDEST PUSH1 0x20 DUP4 ADD SWAP2 POP DUP4 PUSH1 0x1 DUP3 MUL DUP4 ADD GT ISZERO PUSH2 0x292 JUMPI PUSH2 0x291 PUSH2 0x66F JUMP JUMPDEST JUMPDEST SWAP3 POP SWAP3 SWAP1 POP JUMP JUMPDEST PUSH1 0x0 DUP3 PUSH1 0x1F DUP4 ADD SLT PUSH2 0x2AE JUMPI PUSH2 0x2AD PUSH2 0x66A JUMP JUMPDEST JUMPDEST DUP2 CALLDATALOAD PUSH2 0x2BE DUP5 DUP3 PUSH1 0x20 DUP7 ADD PUSH2 0x201 JUMP JUMPDEST SWAP2 POP POP SWAP3 SWAP2 POP POP JUMP JUMPDEST PUSH1 0x0 DUP2 CALLDATALOAD SWAP1 POP PUSH2 0x2D6 DUP2 PUSH2 0x694 JUMP JUMPDEST SWAP3 SWAP2 POP POP JUMP JUMPDEST PUSH1 0x0 DUP1 PUSH1 0x0 DUP1 PUSH1 0x60 DUP6 DUP8 SUB SLT ISZERO PUSH2 0x2F6 JUMPI PUSH2 0x2F5 PUSH2 0x67E JUMP JUMPDEST JUMPDEST PUSH1 0x0 DUP6 ADD CALLDATALOAD PUSH8 0xFFFFFFFFFFFFFFFF DUP2 GT ISZERO PUSH2 0x314 JUMPI PUSH2 0x313 PUSH2 0x679 JUMP JUMPDEST JUMPDEST PUSH2 0x320 DUP8 DUP3 DUP9 ADD PUSH2 0x243 JUMP JUMPDEST SWAP5 POP SWAP5 POP POP PUSH1 0x20 PUSH2 0x333 DUP8 DUP3 DUP9 ADD PUSH2 0x2C7 JUMP JUMPDEST SWAP3 POP POP PUSH1 0x40 PUSH2 0x344 DUP8 DUP3 DUP9 ADD PUSH2 0x2C7 JUMP JUMPDEST SWAP2 POP POP SWAP3 SWAP6 SWAP2 SWAP5 POP SWAP3 POP JUMP JUMPDEST PUSH1 0x0 PUSH1 0x20 DUP3 DUP5 SUB SLT ISZERO PUSH2 0x366 JUMPI PUSH2 0x365 PUSH2 0x67E JUMP JUMPDEST JUMPDEST PUSH1 0x0 DUP3 ADD CALLDATALOAD PUSH8 0xFFFFFFFFFFFFFFFF DUP2 GT ISZERO PUSH2 0x384 JUMPI PUSH2 0x383 PUSH2 0x679 JUMP JUMPDEST JUMPDEST PUSH2 0x390 DUP5 DUP3 DUP6 ADD PUSH2 0x299 JUMP JUMPDEST SWAP2 POP POP SWAP3 SWAP2 POP POP JUMP JUMPDEST PUSH1 0x0 PUSH1 0x20 DUP3 DUP5 SUB SLT ISZERO PUSH2 0x3AF JUMPI PUSH2 0x3AE PUSH2 0x67E JUMP JUMPDEST JUMPDEST PUSH1 0x0 PUSH2 0x3BD DUP5 DUP3 DUP6 ADD PUSH2 0x2C7 JUMP JUMPDEST SWAP2 POP POP SWAP3 SWAP2 POP POP JUMP JUMPDEST PUSH2 0x3CF DUP2 PUSH2 0x54C JUMP JUMPDEST DUP3 MSTORE POP POP JUMP JUMPDEST PUSH1 0x0 PUSH2 0x3E1 DUP4 DUP6 PUSH2 0x541 JUMP JUMPDEST SWAP4 POP PUSH2 0x3EE DUP4 DUP6 DUP5 PUSH2 0x562 JUMP JUMPDEST DUP3 DUP5 ADD SWAP1 POP SWAP4 SWAP3 POP POP POP JUMP JUMPDEST PUSH1 0x0 PUSH2 0x405 DUP3 PUSH2 0x525 JUMP JUMPDEST PUSH2 0x40F DUP2 DUP6 PUSH2 0x530 JUMP JUMPDEST SWAP4 POP PUSH2 0x41F DUP2 DUP6 PUSH1 0x20 DUP7 ADD PUSH2 0x571 JUMP JUMPDEST PUSH2 0x428 DUP2 PUSH2 0x683 JUMP JUMPDEST DUP5 ADD SWAP2 POP POP SWAP3 SWAP2 POP POP JUMP JUMPDEST PUSH2 0x43C DUP2 PUSH2 0x558 JUMP JUMPDEST DUP3 MSTORE POP POP JUMP JUMPDEST PUSH1 0x0 PUSH2 0x44F DUP3 DUP5 DUP7 PUSH2 0x3D5 JUMP JUMPDEST SWAP2 POP DUP2 SWAP1 POP SWAP4 SWAP3 POP POP POP JUMP JUMPDEST PUSH1 0x0 PUSH1 0x20 DUP3 ADD SWAP1 POP DUP2 DUP2 SUB PUSH1 0x0 DUP4 ADD MSTORE PUSH2 0x475 DUP2 DUP5 PUSH2 0x3FA JUMP JUMPDEST SWAP1 POP SWAP3 SWAP2 POP POP JUMP JUMPDEST PUSH1 0x0 PUSH1 0x20 DUP3 ADD SWAP1 POP PUSH2 0x492 PUSH1 0x0 DUP4 ADD DUP5 PUSH2 0x433 JUMP JUMPDEST SWAP3 SWAP2 POP POP JUMP JUMPDEST PUSH1 0x0 PUSH1 0x60 DUP3 ADD SWAP1 POP PUSH2 0x4AD PUSH1 0x0 DUP4 ADD DUP7 PUSH2 0x433 JUMP JUMPDEST PUSH2 0x4BA PUSH1 0x20 DUP4 ADD DUP6 PUSH2 0x433 JUMP JUMPDEST PUSH2 0x4C7 PUSH1 0x40 DUP4 ADD DUP5 PUSH2 0x3C6 JUMP JUMPDEST SWAP5 SWAP4 POP POP POP POP JUMP JUMPDEST PUSH1 0x0 PUSH2 0x4D9 PUSH2 0x4EA JUMP JUMPDEST SWAP1 POP PUSH2 0x4E5 DUP3 DUP3 PUSH2 0x5D6 JUMP JUMPDEST SWAP2 SWAP1 POP JUMP JUMPDEST PUSH1 0x0 PUSH1 0x40 MLOAD SWAP1 POP SWAP1 JUMP JUMPDEST PUSH1 0x0 PUSH8 0xFFFFFFFFFFFFFFFF DUP3 GT ISZERO PUSH2 0x50F JUMPI PUSH2 0x50E PUSH2 0x636 JUMP JUMPDEST JUMPDEST PUSH2 0x518 DUP3 PUSH2 0x683 JUMP JUMPDEST SWAP1 POP PUSH1 0x20 DUP2 ADD SWAP1 POP SWAP2 SWAP1 POP JUMP JUMPDEST PUSH1 0x0 DUP2 MLOAD SWAP1 POP SWAP2 SWAP1 POP JUMP JUMPDEST PUSH1 0x0 DUP3 DUP3 MSTORE PUSH1 0x20 DUP3 ADD SWAP1 POP SWAP3 SWAP2 POP POP JUMP JUMPDEST PUSH1 0x0 DUP2 SWAP1 POP SWAP3 SWAP2 POP POP JUMP JUMPDEST PUSH1 0x0 DUP2 ISZERO ISZERO SWAP1 POP SWAP2 SWAP1 POP JUMP JUMPDEST PUSH1 0x0 DUP2 SWAP1 POP SWAP2 SWAP1 POP JUMP JUMPDEST DUP3 DUP2 DUP4 CALLDATACOPY PUSH1 0x0 DUP4 DUP4 ADD MSTORE POP POP POP JUMP JUMPDEST PUSH1 0x0 JUMPDEST DUP4 DUP2 LT ISZERO PUSH2 0x58F JUMPI DUP1 DUP3 ADD MLOAD DUP2 DUP5 ADD MSTORE PUSH1 0x20 DUP2 ADD SWAP1 POP PUSH2 0x574 JUMP JUMPDEST DUP4 DUP2 GT ISZERO PUSH2 0x59E JUMPI PUSH1 0x0 DUP5 DUP5 ADD MSTORE JUMPDEST POP POP POP POP JUMP JUMPDEST PUSH1 0x0 PUSH1 0x2 DUP3 DIV SWAP1 POP PUSH1 0x1 DUP3 AND DUP1 PUSH2 0x5BC JUMPI PUSH1 0x7F DUP3 AND SWAP2 POP JUMPDEST PUSH1 0x20 DUP3 LT DUP2 EQ ISZERO PUSH2 0x5D0 JUMPI PUSH2 0x5CF PUSH2 0x607 JUMP JUMPDEST JUMPDEST POP SWAP2 SWAP1 POP JUMP JUMPDEST PUSH2 0x5DF DUP3 PUSH2 0x683 JUMP JUMPDEST DUP2 ADD DUP2 DUP2 LT PUSH8 0xFFFFFFFFFFFFFFFF DUP3 GT OR ISZERO PUSH2 0x5FE JUMPI PUSH2 0x5FD PUSH2 0x636 JUMP JUMPDEST JUMPDEST DUP1 PUSH1 0x40 MSTORE POP POP POP JUMP JUMPDEST PUSH32 0x4E487B7100000000000000000000000000000000000000000000000000000000 PUSH1 0x0 MSTORE PUSH1 0x22 PUSH1 0x4 MSTORE PUSH1 0x24 PUSH1 0x0 REVERT JUMPDEST PUSH32 0x4E487B7100000000000000000000000000000000000000000000000000000000 PUSH1 0x0 MSTORE PUSH1 0x41 PUSH1 0x4 MSTORE PUSH1 0x24 PUSH1 0x0 REVERT JUMPDEST PUSH1 0x0 DUP1 REVERT JUMPDEST PUSH1 0x0 DUP1 REVERT JUMPDEST PUSH1 0x0 DUP1 REVERT JUMPDEST PUSH1 0x0 DUP1 REVERT JUMPDEST PUSH1 0x0 DUP1 REVERT JUMPDEST PUSH1 0x0 DUP1 REVERT JUMPDEST PUSH1 0x0 PUSH1 0x1F NOT PUSH1 0x1F DUP4 ADD AND SWAP1 POP SWAP2 SWAP1 POP JUMP JUMPDEST PUSH2 0x69D DUP2 PUSH2 0x558 JUMP JUMPDEST DUP2 EQ PUSH2 0x6A8 JUMPI PUSH1 0x0 DUP1 REVERT JUMPDEST POP JUMP INVALID LOG2 PUSH5 0x6970667358 0x22 SLT KECCAK256 PUSH6 0x7FC60ED51FF9 PUSH30 0xDD0B640AB4C1DC59A7EE8CB651E5F47B2A98D6A128AD748964736F6C6343 STOP ADDMOD SMOD STOP CALLER "
				},
				"gasEstimates": {
					"creation": {
						"codeDepositCost": "352200",
						"executionCost": "393",
						"totalCost": "352593"
					},
					"external": {
						"addNewProduct(string,uint256,uint256)": "infinite",
						"availableProducts(uint256)": "infinite",
						"products(string)": "infinite"
					}
				},
				"methodIdentifiers": {
					"addNewProduct(string,uint256,uint256)": "0a5bd44b",
					"availableProducts(uint256)": "e4bcc7d4",
					"products(string)": "0186a423"
				}
			},
			"storageLayout": {
				"storage": [
					{
						"astId": 13,
						"contract": "Project/TechnoLime.sol:TechnoLimeStore",
						"label": "availableProducts",
						"offset": 0,
						"slot": "0",
						"type": "t_array(t_string_storage)dyn_storage"
					},
					{
						"astId": 18,
						"contract": "Project/TechnoLime.sol:TechnoLimeStore",
						"label": "products",
						"offset": 0,
						"slot": "1",
						"type": "t_mapping(t_string_memory_ptr,t_struct(Product)10_storage)"
					},
					{
						"astId": 30,
						"contract": "Project/TechnoLime.sol:TechnoLimeStore",
						"label": "transactions",
						"offset": 0,
						"slot": "2",
						"type": "t_mapping(t_uint256,t_mapping(t_address,t_struct(Transaction)23_storage))"
					}
				],
				"types": {
					"t_address": {
						"encoding": "inplace",
						"label": "address",
						"numberOfBytes": "20"
					},
					"t_array(t_address)dyn_storage": {
						"base": "t_address",
						"encoding": "dynamic_array",
						"label": "address[]",
						"numberOfBytes": "32"
					},
					"t_array(t_string_storage)dyn_storage": {
						"base": "t_string_storage",
						"encoding": "dynamic_array",
						"label": "string[]",
						"numberOfBytes": "32"
					},
					"t_bool": {
						"encoding": "inplace",
						"label": "bool",
						"numberOfBytes": "1"
					},
					"t_mapping(t_address,t_struct(Transaction)23_storage)": {
						"encoding": "mapping",
						"key": "t_address",
						"label": "mapping(address => struct TechnoLimeStore.Transaction)",
						"numberOfBytes": "32",
						"value": "t_struct(Transaction)23_storage"
					},
					"t_mapping(t_string_memory_ptr,t_struct(Product)10_storage)": {
						"encoding": "mapping",
						"key": "t_string_memory_ptr",
						"label": "mapping(string => struct TechnoLimeStore.Product)",
						"numberOfBytes": "32",
						"value": "t_struct(Product)10_storage"
					},
					"t_mapping(t_uint256,t_mapping(t_address,t_struct(Transaction)23_storage))": {
						"encoding": "mapping",
						"key": "t_uint256",
						"label": "mapping(uint256 => mapping(address => struct TechnoLimeStore.Transaction))",
						"numberOfBytes": "32",
						"value": "t_mapping(t_address,t_struct(Transaction)23_storage)"
					},
					"t_string_memory_ptr": {
						"encoding": "bytes",
						"label": "string",
						"numberOfBytes": "32"
					},
					"t_string_storage": {
						"encoding": "bytes",
						"label": "string",
						"numberOfBytes": "32"
					},
					"t_struct(Product)10_storage": {
						"encoding": "inplace",
						"label": "struct TechnoLimeStore.Product",
						"members": [
							{
								"astId": 2,
								"contract": "Project/TechnoLime.sol:TechnoLimeStore",
								"label": "price",
								"offset": 0,
								"slot": "0",
								"type": "t_uint256"
							},
							{
								"astId": 4,
								"contract": "Project/TechnoLime.sol:TechnoLimeStore",
								"label": "quantity",
								"offset": 0,
								"slot": "1",
								"type": "t_uint256"
							},
							{
								"astId": 7,
								"contract": "Project/TechnoLime.sol:TechnoLimeStore",
								"label": "buyers",
								"offset": 0,
								"slot": "2",
								"type": "t_array(t_address)dyn_storage"
							},
							{
								"astId": 9,
								"contract": "Project/TechnoLime.sol:TechnoLimeStore",
								"label": "exists",
								"offset": 0,
								"slot": "3",
								"type": "t_bool"
							}
						],
						"numberOfBytes": "128"
					},
					"t_struct(Transaction)23_storage": {
						"encoding": "inplace",
						"label": "struct TechnoLimeStore.Transaction",
						"members": [
							{
								"astId": 20,
								"contract": "Project/TechnoLime.sol:TechnoLimeStore",
								"label": "blockNum",
								"offset": 0,
								"slot": "0",
								"type": "t_uint256"
							},
							{
								"astId": 22,
								"contract": "Project/TechnoLime.sol:TechnoLimeStore",
								"label": "price",
								"offset": 0,
								"slot": "1",
								"type": "t_uint256"
							}
						],
						"numberOfBytes": "64"
					},
					"t_uint256": {
						"encoding": "inplace",
						"label": "uint256",
						"numberOfBytes": "32"
					}
				}
			},
			"userdoc": {
				"kind": "user",
				"methods": {},
				"version": 1
			}
		}
	}
}