{
	"Project/TechnoLime.sol": {
		"TechnoLimeStore": {
			"abi": [
				{
					"inputs": [],
					"name": "ItemIdWrongOrBoughtAlready",
					"type": "error"
				},
				{
					"inputs": [],
					"name": "ProductExists",
					"type": "error"
				},
				{
					"inputs": [],
					"name": "ProductNotExistent",
					"type": "error"
				},
				{
					"inputs": [
						{
							"internalType": "string",
							"name": "productName",
							"type": "string"
						},
						{
							"internalType": "uint256",
							"name": "_price",
							"type": "uint256"
						},
						{
							"internalType": "uint256",
							"name": "_quantity",
							"type": "uint256"
						}
					],
					"name": "addNewProduct",
					"outputs": [],
					"stateMutability": "nonpayable",
					"type": "function"
				},
				{
					"inputs": [
						{
							"internalType": "uint256",
							"name": "",
							"type": "uint256"
						}
					],
					"name": "availableProducts",
					"outputs": [
						{
							"internalType": "string",
							"name": "",
							"type": "string"
						}
					],
					"stateMutability": "view",
					"type": "function"
				},
				{
					"inputs": [
						{
							"internalType": "uint256",
							"name": "ProductId",
							"type": "uint256"
						}
					],
					"name": "buyProduct",
					"outputs": [],
					"stateMutability": "payable",
					"type": "function"
				},
				{
					"inputs": [
						{
							"internalType": "string",
							"name": "",
							"type": "string"
						}
					],
					"name": "products",
					"outputs": [
						{
							"internalType": "uint256",
							"name": "price",
							"type": "uint256"
						},
						{
							"internalType": "uint256",
							"name": "quantity",
							"type": "uint256"
						},
						{
							"internalType": "bool",
							"name": "exists",
							"type": "bool"
						}
					],
					"stateMutability": "view",
					"type": "function"
				},
				{
					"inputs": [
						{
							"internalType": "string",
							"name": "productName",
							"type": "string"
						},
						{
							"internalType": "uint256",
							"name": "_quantity",
							"type": "uint256"
						}
					],
					"name": "updateQuantity",
					"outputs": [],
					"stateMutability": "nonpayable",
					"type": "function"
				}
			],
			"devdoc": {
				"kind": "dev",
				"methods": {},
				"version": 1
			},
			"evm": {
				"assembly": "    /* \"Project/TechnoLime.sol\":98:2321  contract TechnoLimeStore {\r... */\n  mstore(0x40, 0x80)\n  callvalue\n  dup1\n  iszero\n  tag_1\n  jumpi\n  0x00\n  dup1\n  revert\ntag_1:\n  pop\n  dataSize(sub_0)\n  dup1\n  dataOffset(sub_0)\n  0x00\n  codecopy\n  0x00\n  return\nstop\n\nsub_0: assembly {\n        /* \"Project/TechnoLime.sol\":98:2321  contract TechnoLimeStore {\r... */\n      mstore(0x40, 0x80)\n      jumpi(tag_1, lt(calldatasize, 0x04))\n      shr(0xe0, calldataload(0x00))\n      dup1\n      0x0186a423\n      eq\n      tag_2\n      jumpi\n      dup1\n      0x0a5bd44b\n      eq\n      tag_3\n      jumpi\n      dup1\n      0x1d894eb8\n      eq\n      tag_4\n      jumpi\n      dup1\n      0x8642269e\n      eq\n      tag_5\n      jumpi\n      dup1\n      0xe4bcc7d4\n      eq\n      tag_6\n      jumpi\n    tag_1:\n      0x00\n      dup1\n      revert\n        /* \"Project/TechnoLime.sol\":343:385  mapping(string => Product) public products */\n    tag_2:\n      callvalue\n      dup1\n      iszero\n      tag_7\n      jumpi\n      0x00\n      dup1\n      revert\n    tag_7:\n      pop\n      tag_8\n      0x04\n      dup1\n      calldatasize\n      sub\n      dup2\n      add\n      swap1\n      tag_9\n      swap2\n      swap1\n      tag_10\n      jump\t// in\n    tag_9:\n      tag_11\n      jump\t// in\n    tag_8:\n      mload(0x40)\n      tag_12\n      swap4\n      swap3\n      swap2\n      swap1\n      tag_13\n      jump\t// in\n    tag_12:\n      mload(0x40)\n      dup1\n      swap2\n      sub\n      swap1\n      return\n        /* \"Project/TechnoLime.sol\":567:1155  function addNewProduct(string calldata productName, uint _price,uint _quantity) external{\r... */\n    tag_3:\n      callvalue\n      dup1\n      iszero\n      tag_14\n      jumpi\n      0x00\n      dup1\n      revert\n    tag_14:\n      pop\n      tag_15\n      0x04\n      dup1\n      calldatasize\n      sub\n      dup2\n      add\n      swap1\n      tag_16\n      swap2\n      swap1\n      tag_17\n      jump\t// in\n    tag_16:\n      tag_18\n      jump\t// in\n    tag_15:\n      stop\n        /* \"Project/TechnoLime.sol\":1163:1532  function updateQuantity(string calldata productName,uint _quantity) external{\r... */\n    tag_4:\n      callvalue\n      dup1\n      iszero\n      tag_19\n      jumpi\n      0x00\n      dup1\n      revert\n    tag_19:\n      pop\n      tag_20\n      0x04\n      dup1\n      calldatasize\n      sub\n      dup2\n      add\n      swap1\n      tag_21\n      swap2\n      swap1\n      tag_22\n      jump\t// in\n    tag_21:\n      tag_23\n      jump\t// in\n    tag_20:\n      stop\n        /* \"Project/TechnoLime.sol\":1635:2312  function buyProduct (uint ProductId) external payable { \r... */\n    tag_5:\n      tag_24\n      0x04\n      dup1\n      calldatasize\n      sub\n      dup2\n      add\n      swap1\n      tag_25\n      swap2\n      swap1\n      tag_26\n      jump\t// in\n    tag_25:\n      tag_27\n      jump\t// in\n    tag_24:\n      stop\n        /* \"Project/TechnoLime.sol\":303:336  string[] public availableProducts */\n    tag_6:\n      callvalue\n      dup1\n      iszero\n      tag_28\n      jumpi\n      0x00\n      dup1\n      revert\n    tag_28:\n      pop\n      tag_29\n      0x04\n      dup1\n      calldatasize\n      sub\n      dup2\n      add\n      swap1\n      tag_30\n      swap2\n      swap1\n      tag_26\n      jump\t// in\n    tag_30:\n      tag_31\n      jump\t// in\n    tag_29:\n      mload(0x40)\n      tag_32\n      swap2\n      swap1\n      tag_33\n      jump\t// in\n    tag_32:\n      mload(0x40)\n      dup1\n      swap2\n      sub\n      swap1\n      return\n        /* \"Project/TechnoLime.sol\":343:385  mapping(string => Product) public products */\n    tag_11:\n      0x01\n      dup2\n      dup1\n      mload\n      0x20\n      dup2\n      add\n      dup3\n      add\n      dup1\n      mload\n      dup5\n      dup3\n      mstore\n      0x20\n      dup4\n      add\n      0x20\n      dup6\n      add\n      keccak256\n      dup2\n      dup4\n      mstore\n      dup1\n      swap6\n      pop\n      pop\n      pop\n      pop\n      pop\n      pop\n      0x00\n      swap2\n      pop\n      swap1\n      pop\n      dup1\n      0x00\n      add\n      sload\n      swap1\n      dup1\n      0x01\n      add\n      sload\n      swap1\n      dup1\n      0x03\n      add\n      0x00\n      swap1\n      sload\n      swap1\n      0x0100\n      exp\n      swap1\n      div\n      0xff\n      and\n      swap1\n      pop\n      dup4\n      jump\t// out\n        /* \"Project/TechnoLime.sol\":567:1155  function addNewProduct(string calldata productName, uint _price,uint _quantity) external{\r... */\n    tag_18:\n        /* \"Project/TechnoLime.sol\":672:680  products */\n      0x01\n        /* \"Project/TechnoLime.sol\":681:692  productName */\n      dup5\n      dup5\n        /* \"Project/TechnoLime.sol\":672:693  products[productName] */\n      mload(0x40)\n      tag_35\n      swap3\n      swap2\n      swap1\n      tag_36\n      jump\t// in\n    tag_35:\n      swap1\n      dup2\n      mstore\n      0x20\n      add\n      mload(0x40)\n      dup1\n      swap2\n      sub\n      swap1\n      keccak256\n        /* \"Project/TechnoLime.sol\":672:700  products[productName].exists */\n      0x03\n      add\n      0x00\n      swap1\n      sload\n      swap1\n      0x0100\n      exp\n      swap1\n      div\n      0xff\n      and\n        /* \"Project/TechnoLime.sol\":667:1138  if (!products[productName].exists){\r... */\n      tag_37\n      jumpi\n        /* \"Project/TechnoLime.sol\":717:739  Product memory product */\n      tag_38\n      tag_39\n      jump\t// in\n    tag_38:\n        /* \"Project/TechnoLime.sol\":771:777  _price */\n      dup3\n        /* \"Project/TechnoLime.sol\":755:762  product */\n      dup2\n        /* \"Project/TechnoLime.sol\":755:768  product.price */\n      0x00\n      add\n        /* \"Project/TechnoLime.sol\":755:777  product.price = _price */\n      dup2\n      dup2\n      mstore\n      pop\n      pop\n        /* \"Project/TechnoLime.sol\":812:821  _quantity */\n      dup2\n        /* \"Project/TechnoLime.sol\":793:800  product */\n      dup2\n        /* \"Project/TechnoLime.sol\":793:809  product.quantity */\n      0x20\n      add\n        /* \"Project/TechnoLime.sol\":793:821  product.quantity = _quantity */\n      dup2\n      dup2\n      mstore\n      pop\n      pop\n        /* \"Project/TechnoLime.sol\":854:858  true */\n      0x01\n        /* \"Project/TechnoLime.sol\":837:844  product */\n      dup2\n        /* \"Project/TechnoLime.sol\":837:851  product.exists */\n      0x60\n      add\n        /* \"Project/TechnoLime.sol\":837:858  product.exists = true */\n      swap1\n      iszero\n      iszero\n      swap1\n      dup2\n      iszero\n      iszero\n      dup2\n      mstore\n      pop\n      pop\n        /* \"Project/TechnoLime.sol\":898:905  product */\n      dup1\n        /* \"Project/TechnoLime.sol\":874:882  products */\n      0x01\n        /* \"Project/TechnoLime.sol\":883:894  productName */\n      dup7\n      dup7\n        /* \"Project/TechnoLime.sol\":874:895  products[productName] */\n      mload(0x40)\n      tag_40\n      swap3\n      swap2\n      swap1\n      tag_36\n      jump\t// in\n    tag_40:\n      swap1\n      dup2\n      mstore\n      0x20\n      add\n      mload(0x40)\n      dup1\n      swap2\n      sub\n      swap1\n      keccak256\n        /* \"Project/TechnoLime.sol\":874:905  products[productName] = product */\n      0x00\n      dup3\n      add\n      mload\n      dup2\n      0x00\n      add\n      sstore\n      0x20\n      dup3\n      add\n      mload\n      dup2\n      0x01\n      add\n      sstore\n      0x40\n      dup3\n      add\n      mload\n      dup2\n      0x02\n      add\n      swap1\n      dup1\n      mload\n      swap1\n      0x20\n      add\n      swap1\n      tag_41\n      swap3\n      swap2\n      swap1\n      tag_42\n      jump\t// in\n    tag_41:\n      pop\n      0x60\n      dup3\n      add\n      mload\n      dup2\n      0x03\n      add\n      exp(0x0100, 0x00)\n      dup2\n      sload\n      dup2\n      0xff\n      mul\n      not\n      and\n      swap1\n      dup4\n      iszero\n      iszero\n      mul\n      or\n      swap1\n      sstore\n      pop\n      swap1\n      pop\n      pop\n        /* \"Project/TechnoLime.sol\":921:938  availableProducts */\n      0x00\n        /* \"Project/TechnoLime.sol\":944:955  productName */\n      dup6\n      dup6\n        /* \"Project/TechnoLime.sol\":921:956  availableProducts.push(productName) */\n      swap1\n      swap2\n      dup1\n      0x01\n      dup2\n      sload\n      add\n      dup1\n      dup3\n      sstore\n      dup1\n      swap2\n      pop\n      pop\n      0x01\n      swap1\n      sub\n      swap1\n      0x00\n      mstore\n      keccak256(0x00, 0x20)\n      add\n      0x00\n      swap1\n      swap2\n      swap3\n      swap1\n      swap2\n      swap3\n      swap1\n      swap2\n      swap3\n      swap1\n      swap2\n      swap3\n      pop\n      swap2\n      swap1\n      tag_44\n      swap3\n      swap2\n      swap1\n      tag_45\n      jump\t// in\n    tag_44:\n      pop\n        /* \"Project/TechnoLime.sol\":701:969  {\r... */\n      pop\n        /* \"Project/TechnoLime.sol\":667:1138  if (!products[productName].exists){\r... */\n      jump(tag_46)\n    tag_37:\n        /* \"Project/TechnoLime.sol\":1103:1125  Errors.ProductExists() */\n      mload(0x40)\n      0xb185df3a00000000000000000000000000000000000000000000000000000000\n      dup2\n      mstore\n      0x04\n      add\n      mload(0x40)\n      dup1\n      swap2\n      sub\n      swap1\n      revert\n        /* \"Project/TechnoLime.sol\":667:1138  if (!products[productName].exists){\r... */\n    tag_46:\n        /* \"Project/TechnoLime.sol\":567:1155  function addNewProduct(string calldata productName, uint _price,uint _quantity) external{\r... */\n      pop\n      pop\n      pop\n      pop\n      jump\t// out\n        /* \"Project/TechnoLime.sol\":1163:1532  function updateQuantity(string calldata productName,uint _quantity) external{\r... */\n    tag_23:\n        /* \"Project/TechnoLime.sol\":1254:1262  products */\n      0x01\n        /* \"Project/TechnoLime.sol\":1263:1274  productName */\n      dup4\n      dup4\n        /* \"Project/TechnoLime.sol\":1254:1275  products[productName] */\n      mload(0x40)\n      tag_48\n      swap3\n      swap2\n      swap1\n      tag_36\n      jump\t// in\n    tag_48:\n      swap1\n      dup2\n      mstore\n      0x20\n      add\n      mload(0x40)\n      dup1\n      swap2\n      sub\n      swap1\n      keccak256\n        /* \"Project/TechnoLime.sol\":1254:1282  products[productName].exists */\n      0x03\n      add\n      0x00\n      swap1\n      sload\n      swap1\n      0x0100\n      exp\n      swap1\n      div\n      0xff\n      and\n        /* \"Project/TechnoLime.sol\":1250:1525  if (products[productName].exists){\r... */\n      iszero\n      tag_49\n      jumpi\n        /* \"Project/TechnoLime.sol\":1332:1341  _quantity */\n      dup1\n        /* \"Project/TechnoLime.sol\":1298:1306  products */\n      0x01\n        /* \"Project/TechnoLime.sol\":1307:1318  productName */\n      dup5\n      dup5\n        /* \"Project/TechnoLime.sol\":1298:1319  products[productName] */\n      mload(0x40)\n      tag_50\n      swap3\n      swap2\n      swap1\n      tag_36\n      jump\t// in\n    tag_50:\n      swap1\n      dup2\n      mstore\n      0x20\n      add\n      mload(0x40)\n      dup1\n      swap2\n      sub\n      swap1\n      keccak256\n        /* \"Project/TechnoLime.sol\":1298:1328  products[productName].quantity */\n      0x01\n      add\n      0x00\n        /* \"Project/TechnoLime.sol\":1298:1341  products[productName].quantity += _quantity */\n      dup3\n      dup3\n      sload\n      tag_51\n      swap2\n      swap1\n      tag_52\n      jump\t// in\n    tag_51:\n      swap3\n      pop\n      pop\n      dup2\n      swap1\n      sstore\n      pop\n        /* \"Project/TechnoLime.sol\":1250:1525  if (products[productName].exists){\r... */\n      jump(tag_53)\n    tag_49:\n        /* \"Project/TechnoLime.sol\":1486:1513  Errors.ProductNotExistent() */\n      mload(0x40)\n      0x7e8d96a900000000000000000000000000000000000000000000000000000000\n      dup2\n      mstore\n      0x04\n      add\n      mload(0x40)\n      dup1\n      swap2\n      sub\n      swap1\n      revert\n        /* \"Project/TechnoLime.sol\":1250:1525  if (products[productName].exists){\r... */\n    tag_53:\n        /* \"Project/TechnoLime.sol\":1163:1532  function updateQuantity(string calldata productName,uint _quantity) external{\r... */\n      pop\n      pop\n      pop\n      jump\t// out\n        /* \"Project/TechnoLime.sol\":1635:2312  function buyProduct (uint ProductId) external payable { \r... */\n    tag_27:\n        /* \"Project/TechnoLime.sol\":1720:1737  availableProducts */\n      0x00\n        /* \"Project/TechnoLime.sol\":1720:1744  availableProducts.length */\n      dup1\n      sload\n      swap1\n      pop\n        /* \"Project/TechnoLime.sol\":1708:1717  ProductId */\n      dup2\n        /* \"Project/TechnoLime.sol\":1708:1744  ProductId < availableProducts.length */\n      lt\n        /* \"Project/TechnoLime.sol\":1708:1791  ProductId < availableProducts.length && !transactions[ProductId][msg.sender].exists */\n      dup1\n      iszero\n      tag_55\n      jumpi\n      pop\n        /* \"Project/TechnoLime.sol\":1749:1761  transactions */\n      0x02\n        /* \"Project/TechnoLime.sol\":1749:1772  transactions[ProductId] */\n      0x00\n        /* \"Project/TechnoLime.sol\":1762:1771  ProductId */\n      dup3\n        /* \"Project/TechnoLime.sol\":1749:1772  transactions[ProductId] */\n      dup2\n      mstore\n      0x20\n      add\n      swap1\n      dup2\n      mstore\n      0x20\n      add\n      0x00\n      keccak256\n        /* \"Project/TechnoLime.sol\":1749:1784  transactions[ProductId][msg.sender] */\n      0x00\n        /* \"Project/TechnoLime.sol\":1773:1783  msg.sender */\n      caller\n        /* \"Project/TechnoLime.sol\":1749:1784  transactions[ProductId][msg.sender] */\n      0xffffffffffffffffffffffffffffffffffffffff\n      and\n      0xffffffffffffffffffffffffffffffffffffffff\n      and\n      dup2\n      mstore\n      0x20\n      add\n      swap1\n      dup2\n      mstore\n      0x20\n      add\n      0x00\n      keccak256\n        /* \"Project/TechnoLime.sol\":1749:1791  transactions[ProductId][msg.sender].exists */\n      0x02\n      add\n      0x00\n      swap1\n      sload\n      swap1\n      0x0100\n      exp\n      swap1\n      div\n      0xff\n      and\n        /* \"Project/TechnoLime.sol\":1748:1791  !transactions[ProductId][msg.sender].exists */\n      iszero\n        /* \"Project/TechnoLime.sol\":1708:1791  ProductId < availableProducts.length && !transactions[ProductId][msg.sender].exists */\n    tag_55:\n        /* \"Project/TechnoLime.sol\":1705:2305  if(ProductId < availableProducts.length && !transactions[ProductId][msg.sender].exists){\r... */\n      iszero\n      tag_56\n      jumpi\n        /* \"Project/TechnoLime.sol\":1811:1833  Product memory product */\n      0x00\n        /* \"Project/TechnoLime.sol\":1835:1843  products */\n      0x01\n        /* \"Project/TechnoLime.sol\":1844:1861  availableProducts */\n      0x00\n        /* \"Project/TechnoLime.sol\":1862:1871  ProductId */\n      dup4\n        /* \"Project/TechnoLime.sol\":1844:1872  availableProducts[ProductId] */\n      dup2\n      sload\n      dup2\n      lt\n      tag_57\n      jumpi\n      tag_58\n      tag_59\n      jump\t// in\n    tag_58:\n    tag_57:\n      swap1\n      0x00\n      mstore\n      keccak256(0x00, 0x20)\n      add\n        /* \"Project/TechnoLime.sol\":1835:1873  products[availableProducts[ProductId]] */\n      mload(0x40)\n      tag_61\n      swap2\n      swap1\n      tag_62\n      jump\t// in\n    tag_61:\n      swap1\n      dup2\n      mstore\n      0x20\n      add\n      mload(0x40)\n      dup1\n      swap2\n      sub\n      swap1\n      keccak256\n        /* \"Project/TechnoLime.sol\":1811:1873  Product memory product= products[availableProducts[ProductId]] */\n      mload(0x40)\n      dup1\n      0x80\n      add\n      0x40\n      mstore\n      swap1\n      dup2\n      0x00\n      dup3\n      add\n      sload\n      dup2\n      mstore\n      0x20\n      add\n      0x01\n      dup3\n      add\n      sload\n      dup2\n      mstore\n      0x20\n      add\n      0x02\n      dup3\n      add\n      dup1\n      sload\n      dup1\n      0x20\n      mul\n      0x20\n      add\n      mload(0x40)\n      swap1\n      dup2\n      add\n      0x40\n      mstore\n      dup1\n      swap3\n      swap2\n      swap1\n      dup2\n      dup2\n      mstore\n      0x20\n      add\n      dup3\n      dup1\n      sload\n      dup1\n      iszero\n      tag_63\n      jumpi\n      0x20\n      mul\n      dup3\n      add\n      swap2\n      swap1\n      0x00\n      mstore\n      keccak256(0x00, 0x20)\n      swap1\n    tag_64:\n      dup2\n      0x00\n      swap1\n      sload\n      swap1\n      0x0100\n      exp\n      swap1\n      div\n      0xffffffffffffffffffffffffffffffffffffffff\n      and\n      0xffffffffffffffffffffffffffffffffffffffff\n      and\n      dup2\n      mstore\n      0x20\n      add\n      swap1\n      0x01\n      add\n      swap1\n      dup1\n      dup4\n      gt\n      tag_64\n      jumpi\n    tag_63:\n      pop\n      pop\n      pop\n      pop\n      pop\n      dup2\n      mstore\n      0x20\n      add\n      0x03\n      dup3\n      add\n      0x00\n      swap1\n      sload\n      swap1\n      0x0100\n      exp\n      swap1\n      div\n      0xff\n      and\n      iszero\n      iszero\n      iszero\n      iszero\n      dup2\n      mstore\n      pop\n      pop\n      swap1\n      pop\n        /* \"Project/TechnoLime.sol\":1892:1922  Transaction memory transaction */\n      tag_65\n      tag_66\n      jump\t// in\n    tag_65:\n        /* \"Project/TechnoLime.sol\":1964:1976  block.number */\n      number\n        /* \"Project/TechnoLime.sol\":1941:1952  transaction */\n      dup2\n        /* \"Project/TechnoLime.sol\":1941:1961  transaction.blockNum */\n      0x00\n      add\n        /* \"Project/TechnoLime.sol\":1941:1976  transaction.blockNum = block.number */\n      dup2\n      dup2\n      mstore\n      pop\n      pop\n        /* \"Project/TechnoLime.sol\":2015:2022  product */\n      dup2\n        /* \"Project/TechnoLime.sol\":2015:2028  product.price */\n      0x00\n      add\n      mload\n        /* \"Project/TechnoLime.sol\":1995:2006  transaction */\n      dup2\n        /* \"Project/TechnoLime.sol\":1995:2012  transaction.price */\n      0x20\n      add\n        /* \"Project/TechnoLime.sol\":1995:2028  transaction.price = product.price */\n      dup2\n      dup2\n      mstore\n      pop\n      pop\n        /* \"Project/TechnoLime.sol\":2068:2072  true */\n      0x01\n        /* \"Project/TechnoLime.sol\":2047:2058  transaction */\n      dup2\n        /* \"Project/TechnoLime.sol\":2047:2065  transaction.exists */\n      0x40\n      add\n        /* \"Project/TechnoLime.sol\":2047:2072  transaction.exists = true */\n      swap1\n      iszero\n      iszero\n      swap1\n      dup2\n      iszero\n      iszero\n      dup2\n      mstore\n      pop\n      pop\n        /* \"Project/TechnoLime.sol\":2129:2140  transaction */\n      dup1\n        /* \"Project/TechnoLime.sol\":2091:2103  transactions */\n      0x02\n        /* \"Project/TechnoLime.sol\":2091:2114  transactions[ProductId] */\n      0x00\n        /* \"Project/TechnoLime.sol\":2104:2113  ProductId */\n      dup6\n        /* \"Project/TechnoLime.sol\":2091:2114  transactions[ProductId] */\n      dup2\n      mstore\n      0x20\n      add\n      swap1\n      dup2\n      mstore\n      0x20\n      add\n      0x00\n      keccak256\n        /* \"Project/TechnoLime.sol\":2091:2126  transactions[ProductId][msg.sender] */\n      0x00\n        /* \"Project/TechnoLime.sol\":2115:2125  msg.sender */\n      caller\n        /* \"Project/TechnoLime.sol\":2091:2126  transactions[ProductId][msg.sender] */\n      0xffffffffffffffffffffffffffffffffffffffff\n      and\n      0xffffffffffffffffffffffffffffffffffffffff\n      and\n      dup2\n      mstore\n      0x20\n      add\n      swap1\n      dup2\n      mstore\n      0x20\n      add\n      0x00\n      keccak256\n        /* \"Project/TechnoLime.sol\":2091:2140  transactions[ProductId][msg.sender] = transaction */\n      0x00\n      dup3\n      add\n      mload\n      dup2\n      0x00\n      add\n      sstore\n      0x20\n      dup3\n      add\n      mload\n      dup2\n      0x01\n      add\n      sstore\n      0x40\n      dup3\n      add\n      mload\n      dup2\n      0x02\n      add\n      exp(0x0100, 0x00)\n      dup2\n      sload\n      dup2\n      0xff\n      mul\n      not\n      and\n      swap1\n      dup4\n      iszero\n      iszero\n      mul\n      or\n      swap1\n      sstore\n      pop\n      swap1\n      pop\n      pop\n        /* \"Project/TechnoLime.sol\":1792:2156  {\r... */\n      pop\n      pop\n        /* \"Project/TechnoLime.sol\":1705:2305  if(ProductId < availableProducts.length && !transactions[ProductId][msg.sender].exists){\r... */\n      jump(tag_67)\n    tag_56:\n        /* \"Project/TechnoLime.sol\":2254:2289  Errors.ItemIdWrongOrBoughtAlready() */\n      mload(0x40)\n      0xd42c9b8b00000000000000000000000000000000000000000000000000000000\n      dup2\n      mstore\n      0x04\n      add\n      mload(0x40)\n      dup1\n      swap2\n      sub\n      swap1\n      revert\n        /* \"Project/TechnoLime.sol\":1705:2305  if(ProductId < availableProducts.length && !transactions[ProductId][msg.sender].exists){\r... */\n    tag_67:\n        /* \"Project/TechnoLime.sol\":1635:2312  function buyProduct (uint ProductId) external payable { \r... */\n      pop\n      jump\t// out\n        /* \"Project/TechnoLime.sol\":303:336  string[] public availableProducts */\n    tag_31:\n      0x00\n      dup2\n      dup2\n      sload\n      dup2\n      lt\n      tag_68\n      jumpi\n      0x00\n      dup1\n      revert\n    tag_68:\n      swap1\n      0x00\n      mstore\n      keccak256(0x00, 0x20)\n      add\n      0x00\n      swap2\n      pop\n      swap1\n      pop\n      dup1\n      sload\n      tag_70\n      swap1\n      tag_71\n      jump\t// in\n    tag_70:\n      dup1\n      0x1f\n      add\n      0x20\n      dup1\n      swap2\n      div\n      mul\n      0x20\n      add\n      mload(0x40)\n      swap1\n      dup2\n      add\n      0x40\n      mstore\n      dup1\n      swap3\n      swap2\n      swap1\n      dup2\n      dup2\n      mstore\n      0x20\n      add\n      dup3\n      dup1\n      sload\n      tag_72\n      swap1\n      tag_71\n      jump\t// in\n    tag_72:\n      dup1\n      iszero\n      tag_73\n      jumpi\n      dup1\n      0x1f\n      lt\n      tag_74\n      jumpi\n      0x0100\n      dup1\n      dup4\n      sload\n      div\n      mul\n      dup4\n      mstore\n      swap2\n      0x20\n      add\n      swap2\n      jump(tag_73)\n    tag_74:\n      dup3\n      add\n      swap2\n      swap1\n      0x00\n      mstore\n      keccak256(0x00, 0x20)\n      swap1\n    tag_75:\n      dup2\n      sload\n      dup2\n      mstore\n      swap1\n      0x01\n      add\n      swap1\n      0x20\n      add\n      dup1\n      dup4\n      gt\n      tag_75\n      jumpi\n      dup3\n      swap1\n      sub\n      0x1f\n      and\n      dup3\n      add\n      swap2\n    tag_73:\n      pop\n      pop\n      pop\n      pop\n      pop\n      dup2\n      jump\t// out\n    tag_39:\n      mload(0x40)\n      dup1\n      0x80\n      add\n      0x40\n      mstore\n      dup1\n      0x00\n      dup2\n      mstore\n      0x20\n      add\n      0x00\n      dup2\n      mstore\n      0x20\n      add\n      0x60\n      dup2\n      mstore\n      0x20\n      add\n      iszero(iszero(0x00))\n      dup2\n      mstore\n      pop\n      swap1\n      jump\t// out\n    tag_42:\n      dup3\n      dup1\n      sload\n      dup3\n      dup3\n      sstore\n      swap1\n      0x00\n      mstore\n      keccak256(0x00, 0x20)\n      swap1\n      dup2\n      add\n      swap3\n      dup3\n      iszero\n      tag_76\n      jumpi\n      swap2\n      0x20\n      mul\n      dup3\n      add\n    tag_77:\n      dup3\n      dup2\n      gt\n      iszero\n      tag_78\n      jumpi\n      dup3\n      mload\n      dup3\n      exp(0x0100, 0x00)\n      dup2\n      sload\n      dup2\n      0xffffffffffffffffffffffffffffffffffffffff\n      mul\n      not\n      and\n      swap1\n      dup4\n      0xffffffffffffffffffffffffffffffffffffffff\n      and\n      mul\n      or\n      swap1\n      sstore\n      pop\n      swap2\n      0x20\n      add\n      swap2\n      swap1\n      0x01\n      add\n      swap1\n      jump(tag_77)\n    tag_78:\n    tag_76:\n      pop\n      swap1\n      pop\n      tag_79\n      swap2\n      swap1\n      tag_80\n      jump\t// in\n    tag_79:\n      pop\n      swap1\n      jump\t// out\n    tag_45:\n      dup3\n      dup1\n      sload\n      tag_81\n      swap1\n      tag_71\n      jump\t// in\n    tag_81:\n      swap1\n      0x00\n      mstore\n      keccak256(0x00, 0x20)\n      swap1\n      0x1f\n      add\n      0x20\n      swap1\n      div\n      dup2\n      add\n      swap3\n      dup3\n      tag_83\n      jumpi\n      0x00\n      dup6\n      sstore\n      jump(tag_82)\n    tag_83:\n      dup3\n      0x1f\n      lt\n      tag_84\n      jumpi\n      dup1\n      calldataload\n      not(0xff)\n      and\n      dup4\n      dup1\n      add\n      or\n      dup6\n      sstore\n      jump(tag_82)\n    tag_84:\n      dup3\n      dup1\n      add\n      0x01\n      add\n      dup6\n      sstore\n      dup3\n      iszero\n      tag_82\n      jumpi\n      swap2\n      dup3\n      add\n    tag_85:\n      dup3\n      dup2\n      gt\n      iszero\n      tag_86\n      jumpi\n      dup3\n      calldataload\n      dup3\n      sstore\n      swap2\n      0x20\n      add\n      swap2\n      swap1\n      0x01\n      add\n      swap1\n      jump(tag_85)\n    tag_86:\n    tag_82:\n      pop\n      swap1\n      pop\n      tag_87\n      swap2\n      swap1\n      tag_80\n      jump\t// in\n    tag_87:\n      pop\n      swap1\n      jump\t// out\n    tag_66:\n      mload(0x40)\n      dup1\n      0x60\n      add\n      0x40\n      mstore\n      dup1\n      0x00\n      dup2\n      mstore\n      0x20\n      add\n      0x00\n      dup2\n      mstore\n      0x20\n      add\n      iszero(iszero(0x00))\n      dup2\n      mstore\n      pop\n      swap1\n      jump\t// out\n    tag_80:\n    tag_88:\n      dup1\n      dup3\n      gt\n      iszero\n      tag_89\n      jumpi\n      0x00\n      dup2\n      0x00\n      swap1\n      sstore\n      pop\n      0x01\n      add\n      jump(tag_88)\n    tag_89:\n      pop\n      swap1\n      jump\t// out\n        /* \"#utility.yul\":7:419   */\n    tag_91:\n        /* \"#utility.yul\":85:90   */\n      0x00\n        /* \"#utility.yul\":110:176   */\n      tag_93\n        /* \"#utility.yul\":126:175   */\n      tag_94\n        /* \"#utility.yul\":168:174   */\n      dup5\n        /* \"#utility.yul\":126:175   */\n      tag_95\n      jump\t// in\n    tag_94:\n        /* \"#utility.yul\":110:176   */\n      tag_96\n      jump\t// in\n    tag_93:\n        /* \"#utility.yul\":101:176   */\n      swap1\n      pop\n        /* \"#utility.yul\":199:205   */\n      dup3\n        /* \"#utility.yul\":192:197   */\n      dup2\n        /* \"#utility.yul\":185:206   */\n      mstore\n        /* \"#utility.yul\":237:241   */\n      0x20\n        /* \"#utility.yul\":230:235   */\n      dup2\n        /* \"#utility.yul\":226:242   */\n      add\n        /* \"#utility.yul\":275:278   */\n      dup5\n        /* \"#utility.yul\":266:272   */\n      dup5\n        /* \"#utility.yul\":261:264   */\n      dup5\n        /* \"#utility.yul\":257:273   */\n      add\n        /* \"#utility.yul\":254:279   */\n      gt\n        /* \"#utility.yul\":251:363   */\n      iszero\n      tag_97\n      jumpi\n        /* \"#utility.yul\":282:361   */\n      tag_98\n      tag_99\n      jump\t// in\n    tag_98:\n        /* \"#utility.yul\":251:363   */\n    tag_97:\n        /* \"#utility.yul\":372:413   */\n      tag_100\n        /* \"#utility.yul\":406:412   */\n      dup5\n        /* \"#utility.yul\":401:404   */\n      dup3\n        /* \"#utility.yul\":396:399   */\n      dup6\n        /* \"#utility.yul\":372:413   */\n      tag_101\n      jump\t// in\n    tag_100:\n        /* \"#utility.yul\":91:419   */\n      pop\n        /* \"#utility.yul\":7:419   */\n      swap4\n      swap3\n      pop\n      pop\n      pop\n      jump\t// out\n        /* \"#utility.yul\":439:992   */\n    tag_102:\n        /* \"#utility.yul\":497:505   */\n      0x00\n        /* \"#utility.yul\":507:513   */\n      dup1\n        /* \"#utility.yul\":557:560   */\n      dup4\n        /* \"#utility.yul\":550:554   */\n      0x1f\n        /* \"#utility.yul\":542:548   */\n      dup5\n        /* \"#utility.yul\":538:555   */\n      add\n        /* \"#utility.yul\":534:561   */\n      slt\n        /* \"#utility.yul\":524:646   */\n      tag_104\n      jumpi\n        /* \"#utility.yul\":565:644   */\n      tag_105\n      tag_106\n      jump\t// in\n    tag_105:\n        /* \"#utility.yul\":524:646   */\n    tag_104:\n        /* \"#utility.yul\":678:684   */\n      dup3\n        /* \"#utility.yul\":665:685   */\n      calldataload\n        /* \"#utility.yul\":655:685   */\n      swap1\n      pop\n        /* \"#utility.yul\":708:726   */\n      0xffffffffffffffff\n        /* \"#utility.yul\":700:706   */\n      dup2\n        /* \"#utility.yul\":697:727   */\n      gt\n        /* \"#utility.yul\":694:811   */\n      iszero\n      tag_107\n      jumpi\n        /* \"#utility.yul\":730:809   */\n      tag_108\n      tag_109\n      jump\t// in\n    tag_108:\n        /* \"#utility.yul\":694:811   */\n    tag_107:\n        /* \"#utility.yul\":844:848   */\n      0x20\n        /* \"#utility.yul\":836:842   */\n      dup4\n        /* \"#utility.yul\":832:849   */\n      add\n        /* \"#utility.yul\":820:849   */\n      swap2\n      pop\n        /* \"#utility.yul\":898:901   */\n      dup4\n        /* \"#utility.yul\":890:894   */\n      0x01\n        /* \"#utility.yul\":882:888   */\n      dup3\n        /* \"#utility.yul\":878:895   */\n      mul\n        /* \"#utility.yul\":868:876   */\n      dup4\n        /* \"#utility.yul\":864:896   */\n      add\n        /* \"#utility.yul\":861:902   */\n      gt\n        /* \"#utility.yul\":858:986   */\n      iszero\n      tag_110\n      jumpi\n        /* \"#utility.yul\":905:984   */\n      tag_111\n      tag_112\n      jump\t// in\n    tag_111:\n        /* \"#utility.yul\":858:986   */\n    tag_110:\n        /* \"#utility.yul\":439:992   */\n      swap3\n      pop\n      swap3\n      swap1\n      pop\n      jump\t// out\n        /* \"#utility.yul\":1012:1352   */\n    tag_113:\n        /* \"#utility.yul\":1068:1073   */\n      0x00\n        /* \"#utility.yul\":1117:1120   */\n      dup3\n        /* \"#utility.yul\":1110:1114   */\n      0x1f\n        /* \"#utility.yul\":1102:1108   */\n      dup4\n        /* \"#utility.yul\":1098:1115   */\n      add\n        /* \"#utility.yul\":1094:1121   */\n      slt\n        /* \"#utility.yul\":1084:1206   */\n      tag_115\n      jumpi\n        /* \"#utility.yul\":1125:1204   */\n      tag_116\n      tag_106\n      jump\t// in\n    tag_116:\n        /* \"#utility.yul\":1084:1206   */\n    tag_115:\n        /* \"#utility.yul\":1242:1248   */\n      dup2\n        /* \"#utility.yul\":1229:1249   */\n      calldataload\n        /* \"#utility.yul\":1267:1346   */\n      tag_117\n        /* \"#utility.yul\":1342:1345   */\n      dup5\n        /* \"#utility.yul\":1334:1340   */\n      dup3\n        /* \"#utility.yul\":1327:1331   */\n      0x20\n        /* \"#utility.yul\":1319:1325   */\n      dup7\n        /* \"#utility.yul\":1315:1332   */\n      add\n        /* \"#utility.yul\":1267:1346   */\n      tag_91\n      jump\t// in\n    tag_117:\n        /* \"#utility.yul\":1258:1346   */\n      swap2\n      pop\n        /* \"#utility.yul\":1074:1352   */\n      pop\n        /* \"#utility.yul\":1012:1352   */\n      swap3\n      swap2\n      pop\n      pop\n      jump\t// out\n        /* \"#utility.yul\":1358:1497   */\n    tag_118:\n        /* \"#utility.yul\":1404:1409   */\n      0x00\n        /* \"#utility.yul\":1442:1448   */\n      dup2\n        /* \"#utility.yul\":1429:1449   */\n      calldataload\n        /* \"#utility.yul\":1420:1449   */\n      swap1\n      pop\n        /* \"#utility.yul\":1458:1491   */\n      tag_120\n        /* \"#utility.yul\":1485:1490   */\n      dup2\n        /* \"#utility.yul\":1458:1491   */\n      tag_121\n      jump\t// in\n    tag_120:\n        /* \"#utility.yul\":1358:1497   */\n      swap3\n      swap2\n      pop\n      pop\n      jump\t// out\n        /* \"#utility.yul\":1503:2177   */\n    tag_22:\n        /* \"#utility.yul\":1583:1589   */\n      0x00\n        /* \"#utility.yul\":1591:1597   */\n      dup1\n        /* \"#utility.yul\":1599:1605   */\n      0x00\n        /* \"#utility.yul\":1648:1650   */\n      0x40\n        /* \"#utility.yul\":1636:1645   */\n      dup5\n        /* \"#utility.yul\":1627:1634   */\n      dup7\n        /* \"#utility.yul\":1623:1646   */\n      sub\n        /* \"#utility.yul\":1619:1651   */\n      slt\n        /* \"#utility.yul\":1616:1735   */\n      iszero\n      tag_123\n      jumpi\n        /* \"#utility.yul\":1654:1733   */\n      tag_124\n      tag_125\n      jump\t// in\n    tag_124:\n        /* \"#utility.yul\":1616:1735   */\n    tag_123:\n        /* \"#utility.yul\":1802:1803   */\n      0x00\n        /* \"#utility.yul\":1791:1800   */\n      dup5\n        /* \"#utility.yul\":1787:1804   */\n      add\n        /* \"#utility.yul\":1774:1805   */\n      calldataload\n        /* \"#utility.yul\":1832:1850   */\n      0xffffffffffffffff\n        /* \"#utility.yul\":1824:1830   */\n      dup2\n        /* \"#utility.yul\":1821:1851   */\n      gt\n        /* \"#utility.yul\":1818:1935   */\n      iszero\n      tag_126\n      jumpi\n        /* \"#utility.yul\":1854:1933   */\n      tag_127\n      tag_128\n      jump\t// in\n    tag_127:\n        /* \"#utility.yul\":1818:1935   */\n    tag_126:\n        /* \"#utility.yul\":1967:2032   */\n      tag_129\n        /* \"#utility.yul\":2024:2031   */\n      dup7\n        /* \"#utility.yul\":2015:2021   */\n      dup3\n        /* \"#utility.yul\":2004:2013   */\n      dup8\n        /* \"#utility.yul\":2000:2022   */\n      add\n        /* \"#utility.yul\":1967:2032   */\n      tag_102\n      jump\t// in\n    tag_129:\n        /* \"#utility.yul\":1949:2032   */\n      swap4\n      pop\n      swap4\n      pop\n        /* \"#utility.yul\":1745:2042   */\n      pop\n        /* \"#utility.yul\":2081:2083   */\n      0x20\n        /* \"#utility.yul\":2107:2160   */\n      tag_130\n        /* \"#utility.yul\":2152:2159   */\n      dup7\n        /* \"#utility.yul\":2143:2149   */\n      dup3\n        /* \"#utility.yul\":2132:2141   */\n      dup8\n        /* \"#utility.yul\":2128:2150   */\n      add\n        /* \"#utility.yul\":2107:2160   */\n      tag_118\n      jump\t// in\n    tag_130:\n        /* \"#utility.yul\":2097:2160   */\n      swap2\n      pop\n        /* \"#utility.yul\":2052:2170   */\n      pop\n        /* \"#utility.yul\":1503:2177   */\n      swap3\n      pop\n      swap3\n      pop\n      swap3\n      jump\t// out\n        /* \"#utility.yul\":2183:3002   */\n    tag_17:\n        /* \"#utility.yul\":2272:2278   */\n      0x00\n        /* \"#utility.yul\":2280:2286   */\n      dup1\n        /* \"#utility.yul\":2288:2294   */\n      0x00\n        /* \"#utility.yul\":2296:2302   */\n      dup1\n        /* \"#utility.yul\":2345:2347   */\n      0x60\n        /* \"#utility.yul\":2333:2342   */\n      dup6\n        /* \"#utility.yul\":2324:2331   */\n      dup8\n        /* \"#utility.yul\":2320:2343   */\n      sub\n        /* \"#utility.yul\":2316:2348   */\n      slt\n        /* \"#utility.yul\":2313:2432   */\n      iszero\n      tag_132\n      jumpi\n        /* \"#utility.yul\":2351:2430   */\n      tag_133\n      tag_125\n      jump\t// in\n    tag_133:\n        /* \"#utility.yul\":2313:2432   */\n    tag_132:\n        /* \"#utility.yul\":2499:2500   */\n      0x00\n        /* \"#utility.yul\":2488:2497   */\n      dup6\n        /* \"#utility.yul\":2484:2501   */\n      add\n        /* \"#utility.yul\":2471:2502   */\n      calldataload\n        /* \"#utility.yul\":2529:2547   */\n      0xffffffffffffffff\n        /* \"#utility.yul\":2521:2527   */\n      dup2\n        /* \"#utility.yul\":2518:2548   */\n      gt\n        /* \"#utility.yul\":2515:2632   */\n      iszero\n      tag_134\n      jumpi\n        /* \"#utility.yul\":2551:2630   */\n      tag_135\n      tag_128\n      jump\t// in\n    tag_135:\n        /* \"#utility.yul\":2515:2632   */\n    tag_134:\n        /* \"#utility.yul\":2664:2729   */\n      tag_136\n        /* \"#utility.yul\":2721:2728   */\n      dup8\n        /* \"#utility.yul\":2712:2718   */\n      dup3\n        /* \"#utility.yul\":2701:2710   */\n      dup9\n        /* \"#utility.yul\":2697:2719   */\n      add\n        /* \"#utility.yul\":2664:2729   */\n      tag_102\n      jump\t// in\n    tag_136:\n        /* \"#utility.yul\":2646:2729   */\n      swap5\n      pop\n      swap5\n      pop\n        /* \"#utility.yul\":2442:2739   */\n      pop\n        /* \"#utility.yul\":2778:2780   */\n      0x20\n        /* \"#utility.yul\":2804:2857   */\n      tag_137\n        /* \"#utility.yul\":2849:2856   */\n      dup8\n        /* \"#utility.yul\":2840:2846   */\n      dup3\n        /* \"#utility.yul\":2829:2838   */\n      dup9\n        /* \"#utility.yul\":2825:2847   */\n      add\n        /* \"#utility.yul\":2804:2857   */\n      tag_118\n      jump\t// in\n    tag_137:\n        /* \"#utility.yul\":2794:2857   */\n      swap3\n      pop\n        /* \"#utility.yul\":2749:2867   */\n      pop\n        /* \"#utility.yul\":2906:2908   */\n      0x40\n        /* \"#utility.yul\":2932:2985   */\n      tag_138\n        /* \"#utility.yul\":2977:2984   */\n      dup8\n        /* \"#utility.yul\":2968:2974   */\n      dup3\n        /* \"#utility.yul\":2957:2966   */\n      dup9\n        /* \"#utility.yul\":2953:2975   */\n      add\n        /* \"#utility.yul\":2932:2985   */\n      tag_118\n      jump\t// in\n    tag_138:\n        /* \"#utility.yul\":2922:2985   */\n      swap2\n      pop\n        /* \"#utility.yul\":2877:2995   */\n      pop\n        /* \"#utility.yul\":2183:3002   */\n      swap3\n      swap6\n      swap2\n      swap5\n      pop\n      swap3\n      pop\n      jump\t// out\n        /* \"#utility.yul\":3008:3517   */\n    tag_10:\n        /* \"#utility.yul\":3077:3083   */\n      0x00\n        /* \"#utility.yul\":3126:3128   */\n      0x20\n        /* \"#utility.yul\":3114:3123   */\n      dup3\n        /* \"#utility.yul\":3105:3112   */\n      dup5\n        /* \"#utility.yul\":3101:3124   */\n      sub\n        /* \"#utility.yul\":3097:3129   */\n      slt\n        /* \"#utility.yul\":3094:3213   */\n      iszero\n      tag_140\n      jumpi\n        /* \"#utility.yul\":3132:3211   */\n      tag_141\n      tag_125\n      jump\t// in\n    tag_141:\n        /* \"#utility.yul\":3094:3213   */\n    tag_140:\n        /* \"#utility.yul\":3280:3281   */\n      0x00\n        /* \"#utility.yul\":3269:3278   */\n      dup3\n        /* \"#utility.yul\":3265:3282   */\n      add\n        /* \"#utility.yul\":3252:3283   */\n      calldataload\n        /* \"#utility.yul\":3310:3328   */\n      0xffffffffffffffff\n        /* \"#utility.yul\":3302:3308   */\n      dup2\n        /* \"#utility.yul\":3299:3329   */\n      gt\n        /* \"#utility.yul\":3296:3413   */\n      iszero\n      tag_142\n      jumpi\n        /* \"#utility.yul\":3332:3411   */\n      tag_143\n      tag_128\n      jump\t// in\n    tag_143:\n        /* \"#utility.yul\":3296:3413   */\n    tag_142:\n        /* \"#utility.yul\":3437:3500   */\n      tag_144\n        /* \"#utility.yul\":3492:3499   */\n      dup5\n        /* \"#utility.yul\":3483:3489   */\n      dup3\n        /* \"#utility.yul\":3472:3481   */\n      dup6\n        /* \"#utility.yul\":3468:3490   */\n      add\n        /* \"#utility.yul\":3437:3500   */\n      tag_113\n      jump\t// in\n    tag_144:\n        /* \"#utility.yul\":3427:3500   */\n      swap2\n      pop\n        /* \"#utility.yul\":3223:3510   */\n      pop\n        /* \"#utility.yul\":3008:3517   */\n      swap3\n      swap2\n      pop\n      pop\n      jump\t// out\n        /* \"#utility.yul\":3523:3852   */\n    tag_26:\n        /* \"#utility.yul\":3582:3588   */\n      0x00\n        /* \"#utility.yul\":3631:3633   */\n      0x20\n        /* \"#utility.yul\":3619:3628   */\n      dup3\n        /* \"#utility.yul\":3610:3617   */\n      dup5\n        /* \"#utility.yul\":3606:3629   */\n      sub\n        /* \"#utility.yul\":3602:3634   */\n      slt\n        /* \"#utility.yul\":3599:3718   */\n      iszero\n      tag_146\n      jumpi\n        /* \"#utility.yul\":3637:3716   */\n      tag_147\n      tag_125\n      jump\t// in\n    tag_147:\n        /* \"#utility.yul\":3599:3718   */\n    tag_146:\n        /* \"#utility.yul\":3757:3758   */\n      0x00\n        /* \"#utility.yul\":3782:3835   */\n      tag_148\n        /* \"#utility.yul\":3827:3834   */\n      dup5\n        /* \"#utility.yul\":3818:3824   */\n      dup3\n        /* \"#utility.yul\":3807:3816   */\n      dup6\n        /* \"#utility.yul\":3803:3825   */\n      add\n        /* \"#utility.yul\":3782:3835   */\n      tag_118\n      jump\t// in\n    tag_148:\n        /* \"#utility.yul\":3772:3835   */\n      swap2\n      pop\n        /* \"#utility.yul\":3728:3845   */\n      pop\n        /* \"#utility.yul\":3523:3852   */\n      swap3\n      swap2\n      pop\n      pop\n      jump\t// out\n        /* \"#utility.yul\":3858:3967   */\n    tag_149:\n        /* \"#utility.yul\":3939:3960   */\n      tag_151\n        /* \"#utility.yul\":3954:3959   */\n      dup2\n        /* \"#utility.yul\":3939:3960   */\n      tag_152\n      jump\t// in\n    tag_151:\n        /* \"#utility.yul\":3934:3937   */\n      dup3\n        /* \"#utility.yul\":3927:3961   */\n      mstore\n        /* \"#utility.yul\":3858:3967   */\n      pop\n      pop\n      jump\t// out\n        /* \"#utility.yul\":3997:4314   */\n    tag_153:\n        /* \"#utility.yul\":4113:4116   */\n      0x00\n        /* \"#utility.yul\":4134:4223   */\n      tag_155\n        /* \"#utility.yul\":4216:4222   */\n      dup4\n        /* \"#utility.yul\":4211:4214   */\n      dup6\n        /* \"#utility.yul\":4134:4223   */\n      tag_156\n      jump\t// in\n    tag_155:\n        /* \"#utility.yul\":4127:4223   */\n      swap4\n      pop\n        /* \"#utility.yul\":4233:4276   */\n      tag_157\n        /* \"#utility.yul\":4269:4275   */\n      dup4\n        /* \"#utility.yul\":4264:4267   */\n      dup6\n        /* \"#utility.yul\":4257:4262   */\n      dup5\n        /* \"#utility.yul\":4233:4276   */\n      tag_101\n      jump\t// in\n    tag_157:\n        /* \"#utility.yul\":4301:4307   */\n      dup3\n        /* \"#utility.yul\":4296:4299   */\n      dup5\n        /* \"#utility.yul\":4292:4308   */\n      add\n        /* \"#utility.yul\":4285:4308   */\n      swap1\n      pop\n        /* \"#utility.yul\":3997:4314   */\n      swap4\n      swap3\n      pop\n      pop\n      pop\n      jump\t// out\n        /* \"#utility.yul\":4320:4684   */\n    tag_158:\n        /* \"#utility.yul\":4408:4411   */\n      0x00\n        /* \"#utility.yul\":4436:4475   */\n      tag_160\n        /* \"#utility.yul\":4469:4474   */\n      dup3\n        /* \"#utility.yul\":4436:4475   */\n      tag_161\n      jump\t// in\n    tag_160:\n        /* \"#utility.yul\":4491:4562   */\n      tag_162\n        /* \"#utility.yul\":4555:4561   */\n      dup2\n        /* \"#utility.yul\":4550:4553   */\n      dup6\n        /* \"#utility.yul\":4491:4562   */\n      tag_163\n      jump\t// in\n    tag_162:\n        /* \"#utility.yul\":4484:4562   */\n      swap4\n      pop\n        /* \"#utility.yul\":4571:4623   */\n      tag_164\n        /* \"#utility.yul\":4616:4622   */\n      dup2\n        /* \"#utility.yul\":4611:4614   */\n      dup6\n        /* \"#utility.yul\":4604:4608   */\n      0x20\n        /* \"#utility.yul\":4597:4602   */\n      dup7\n        /* \"#utility.yul\":4593:4609   */\n      add\n        /* \"#utility.yul\":4571:4623   */\n      tag_165\n      jump\t// in\n    tag_164:\n        /* \"#utility.yul\":4648:4677   */\n      tag_166\n        /* \"#utility.yul\":4670:4676   */\n      dup2\n        /* \"#utility.yul\":4648:4677   */\n      tag_167\n      jump\t// in\n    tag_166:\n        /* \"#utility.yul\":4643:4646   */\n      dup5\n        /* \"#utility.yul\":4639:4678   */\n      add\n        /* \"#utility.yul\":4632:4678   */\n      swap2\n      pop\n        /* \"#utility.yul\":4412:4684   */\n      pop\n        /* \"#utility.yul\":4320:4684   */\n      swap3\n      swap2\n      pop\n      pop\n      jump\t// out\n        /* \"#utility.yul\":4714:5559   */\n    tag_168:\n        /* \"#utility.yul\":4817:4820   */\n      0x00\n        /* \"#utility.yul\":4854:4859   */\n      dup2\n        /* \"#utility.yul\":4848:4860   */\n      sload\n        /* \"#utility.yul\":4883:4919   */\n      tag_170\n        /* \"#utility.yul\":4909:4918   */\n      dup2\n        /* \"#utility.yul\":4883:4919   */\n      tag_71\n      jump\t// in\n    tag_170:\n        /* \"#utility.yul\":4935:5024   */\n      tag_171\n        /* \"#utility.yul\":5017:5023   */\n      dup2\n        /* \"#utility.yul\":5012:5015   */\n      dup7\n        /* \"#utility.yul\":4935:5024   */\n      tag_156\n      jump\t// in\n    tag_171:\n        /* \"#utility.yul\":4928:5024   */\n      swap5\n      pop\n        /* \"#utility.yul\":5055:5056   */\n      0x01\n        /* \"#utility.yul\":5044:5053   */\n      dup3\n        /* \"#utility.yul\":5040:5057   */\n      and\n        /* \"#utility.yul\":5071:5072   */\n      0x00\n        /* \"#utility.yul\":5066:5203   */\n      dup2\n      eq\n      tag_173\n      jumpi\n        /* \"#utility.yul\":5217:5218   */\n      0x01\n        /* \"#utility.yul\":5212:5553   */\n      dup2\n      eq\n      tag_174\n      jumpi\n        /* \"#utility.yul\":5033:5553   */\n      jump(tag_172)\n        /* \"#utility.yul\":5066:5203   */\n    tag_173:\n        /* \"#utility.yul\":5150:5154   */\n      0xff\n        /* \"#utility.yul\":5146:5155   */\n      not\n        /* \"#utility.yul\":5135:5144   */\n      dup4\n        /* \"#utility.yul\":5131:5156   */\n      and\n        /* \"#utility.yul\":5126:5129   */\n      dup7\n        /* \"#utility.yul\":5119:5157   */\n      mstore\n        /* \"#utility.yul\":5186:5192   */\n      dup2\n        /* \"#utility.yul\":5181:5184   */\n      dup7\n        /* \"#utility.yul\":5177:5193   */\n      add\n        /* \"#utility.yul\":5170:5193   */\n      swap4\n      pop\n        /* \"#utility.yul\":5066:5203   */\n      jump(tag_172)\n        /* \"#utility.yul\":5212:5553   */\n    tag_174:\n        /* \"#utility.yul\":5279:5317   */\n      tag_175\n        /* \"#utility.yul\":5311:5316   */\n      dup6\n        /* \"#utility.yul\":5279:5317   */\n      tag_176\n      jump\t// in\n    tag_175:\n        /* \"#utility.yul\":5339:5340   */\n      0x00\n        /* \"#utility.yul\":5353:5507   */\n    tag_177:\n        /* \"#utility.yul\":5367:5373   */\n      dup4\n        /* \"#utility.yul\":5364:5365   */\n      dup2\n        /* \"#utility.yul\":5361:5374   */\n      lt\n        /* \"#utility.yul\":5353:5507   */\n      iszero\n      tag_179\n      jumpi\n        /* \"#utility.yul\":5441:5448   */\n      dup2\n        /* \"#utility.yul\":5435:5449   */\n      sload\n        /* \"#utility.yul\":5431:5432   */\n      dup2\n        /* \"#utility.yul\":5426:5429   */\n      dup10\n        /* \"#utility.yul\":5422:5433   */\n      add\n        /* \"#utility.yul\":5415:5450   */\n      mstore\n        /* \"#utility.yul\":5491:5492   */\n      0x01\n        /* \"#utility.yul\":5482:5489   */\n      dup3\n        /* \"#utility.yul\":5478:5493   */\n      add\n        /* \"#utility.yul\":5467:5493   */\n      swap2\n      pop\n        /* \"#utility.yul\":5389:5393   */\n      0x20\n        /* \"#utility.yul\":5386:5387   */\n      dup2\n        /* \"#utility.yul\":5382:5394   */\n      add\n        /* \"#utility.yul\":5377:5394   */\n      swap1\n      pop\n        /* \"#utility.yul\":5353:5507   */\n      jump(tag_177)\n    tag_179:\n        /* \"#utility.yul\":5536:5542   */\n      dup4\n        /* \"#utility.yul\":5531:5534   */\n      dup9\n        /* \"#utility.yul\":5527:5543   */\n      add\n        /* \"#utility.yul\":5520:5543   */\n      swap6\n      pop\n        /* \"#utility.yul\":5219:5553   */\n      pop\n      pop\n        /* \"#utility.yul\":5033:5553   */\n    tag_172:\n      pop\n        /* \"#utility.yul\":4821:5559   */\n      pop\n      pop\n        /* \"#utility.yul\":4714:5559   */\n      swap3\n      swap2\n      pop\n      pop\n      jump\t// out\n        /* \"#utility.yul\":5565:5683   */\n    tag_180:\n        /* \"#utility.yul\":5652:5676   */\n      tag_182\n        /* \"#utility.yul\":5670:5675   */\n      dup2\n        /* \"#utility.yul\":5652:5676   */\n      tag_183\n      jump\t// in\n    tag_182:\n        /* \"#utility.yul\":5647:5650   */\n      dup3\n        /* \"#utility.yul\":5640:5677   */\n      mstore\n        /* \"#utility.yul\":5565:5683   */\n      pop\n      pop\n      jump\t// out\n        /* \"#utility.yul\":5689:5984   */\n    tag_36:\n        /* \"#utility.yul\":5831:5834   */\n      0x00\n        /* \"#utility.yul\":5853:5958   */\n      tag_185\n        /* \"#utility.yul\":5954:5957   */\n      dup3\n        /* \"#utility.yul\":5945:5951   */\n      dup5\n        /* \"#utility.yul\":5937:5943   */\n      dup7\n        /* \"#utility.yul\":5853:5958   */\n      tag_153\n      jump\t// in\n    tag_185:\n        /* \"#utility.yul\":5846:5958   */\n      swap2\n      pop\n        /* \"#utility.yul\":5975:5978   */\n      dup2\n        /* \"#utility.yul\":5968:5978   */\n      swap1\n      pop\n        /* \"#utility.yul\":5689:5984   */\n      swap4\n      swap3\n      pop\n      pop\n      pop\n      jump\t// out\n        /* \"#utility.yul\":5990:6259   */\n    tag_62:\n        /* \"#utility.yul\":6119:6122   */\n      0x00\n        /* \"#utility.yul\":6141:6233   */\n      tag_187\n        /* \"#utility.yul\":6229:6232   */\n      dup3\n        /* \"#utility.yul\":6220:6226   */\n      dup5\n        /* \"#utility.yul\":6141:6233   */\n      tag_168\n      jump\t// in\n    tag_187:\n        /* \"#utility.yul\":6134:6233   */\n      swap2\n      pop\n        /* \"#utility.yul\":6250:6253   */\n      dup2\n        /* \"#utility.yul\":6243:6253   */\n      swap1\n      pop\n        /* \"#utility.yul\":5990:6259   */\n      swap3\n      swap2\n      pop\n      pop\n      jump\t// out\n        /* \"#utility.yul\":6265:6578   */\n    tag_33:\n        /* \"#utility.yul\":6378:6382   */\n      0x00\n        /* \"#utility.yul\":6416:6418   */\n      0x20\n        /* \"#utility.yul\":6405:6414   */\n      dup3\n        /* \"#utility.yul\":6401:6419   */\n      add\n        /* \"#utility.yul\":6393:6419   */\n      swap1\n      pop\n        /* \"#utility.yul\":6465:6474   */\n      dup2\n        /* \"#utility.yul\":6459:6463   */\n      dup2\n        /* \"#utility.yul\":6455:6475   */\n      sub\n        /* \"#utility.yul\":6451:6452   */\n      0x00\n        /* \"#utility.yul\":6440:6449   */\n      dup4\n        /* \"#utility.yul\":6436:6453   */\n      add\n        /* \"#utility.yul\":6429:6476   */\n      mstore\n        /* \"#utility.yul\":6493:6571   */\n      tag_189\n        /* \"#utility.yul\":6566:6570   */\n      dup2\n        /* \"#utility.yul\":6557:6563   */\n      dup5\n        /* \"#utility.yul\":6493:6571   */\n      tag_158\n      jump\t// in\n    tag_189:\n        /* \"#utility.yul\":6485:6571   */\n      swap1\n      pop\n        /* \"#utility.yul\":6265:6578   */\n      swap3\n      swap2\n      pop\n      pop\n      jump\t// out\n        /* \"#utility.yul\":6584:7014   */\n    tag_13:\n        /* \"#utility.yul\":6727:6731   */\n      0x00\n        /* \"#utility.yul\":6765:6767   */\n      0x60\n        /* \"#utility.yul\":6754:6763   */\n      dup3\n        /* \"#utility.yul\":6750:6768   */\n      add\n        /* \"#utility.yul\":6742:6768   */\n      swap1\n      pop\n        /* \"#utility.yul\":6778:6849   */\n      tag_191\n        /* \"#utility.yul\":6846:6847   */\n      0x00\n        /* \"#utility.yul\":6835:6844   */\n      dup4\n        /* \"#utility.yul\":6831:6848   */\n      add\n        /* \"#utility.yul\":6822:6828   */\n      dup7\n        /* \"#utility.yul\":6778:6849   */\n      tag_180\n      jump\t// in\n    tag_191:\n        /* \"#utility.yul\":6859:6931   */\n      tag_192\n        /* \"#utility.yul\":6927:6929   */\n      0x20\n        /* \"#utility.yul\":6916:6925   */\n      dup4\n        /* \"#utility.yul\":6912:6930   */\n      add\n        /* \"#utility.yul\":6903:6909   */\n      dup6\n        /* \"#utility.yul\":6859:6931   */\n      tag_180\n      jump\t// in\n    tag_192:\n        /* \"#utility.yul\":6941:7007   */\n      tag_193\n        /* \"#utility.yul\":7003:7005   */\n      0x40\n        /* \"#utility.yul\":6992:7001   */\n      dup4\n        /* \"#utility.yul\":6988:7006   */\n      add\n        /* \"#utility.yul\":6979:6985   */\n      dup5\n        /* \"#utility.yul\":6941:7007   */\n      tag_149\n      jump\t// in\n    tag_193:\n        /* \"#utility.yul\":6584:7014   */\n      swap5\n      swap4\n      pop\n      pop\n      pop\n      pop\n      jump\t// out\n        /* \"#utility.yul\":7020:7149   */\n    tag_96:\n        /* \"#utility.yul\":7054:7060   */\n      0x00\n        /* \"#utility.yul\":7081:7101   */\n      tag_195\n      tag_196\n      jump\t// in\n    tag_195:\n        /* \"#utility.yul\":7071:7101   */\n      swap1\n      pop\n        /* \"#utility.yul\":7110:7143   */\n      tag_197\n        /* \"#utility.yul\":7138:7142   */\n      dup3\n        /* \"#utility.yul\":7130:7136   */\n      dup3\n        /* \"#utility.yul\":7110:7143   */\n      tag_198\n      jump\t// in\n    tag_197:\n        /* \"#utility.yul\":7020:7149   */\n      swap2\n      swap1\n      pop\n      jump\t// out\n        /* \"#utility.yul\":7155:7230   */\n    tag_196:\n        /* \"#utility.yul\":7188:7194   */\n      0x00\n        /* \"#utility.yul\":7221:7223   */\n      0x40\n        /* \"#utility.yul\":7215:7224   */\n      mload\n        /* \"#utility.yul\":7205:7224   */\n      swap1\n      pop\n        /* \"#utility.yul\":7155:7230   */\n      swap1\n      jump\t// out\n        /* \"#utility.yul\":7236:7544   */\n    tag_95:\n        /* \"#utility.yul\":7298:7302   */\n      0x00\n        /* \"#utility.yul\":7388:7406   */\n      0xffffffffffffffff\n        /* \"#utility.yul\":7380:7386   */\n      dup3\n        /* \"#utility.yul\":7377:7407   */\n      gt\n        /* \"#utility.yul\":7374:7430   */\n      iszero\n      tag_201\n      jumpi\n        /* \"#utility.yul\":7410:7428   */\n      tag_202\n      tag_203\n      jump\t// in\n    tag_202:\n        /* \"#utility.yul\":7374:7430   */\n    tag_201:\n        /* \"#utility.yul\":7448:7477   */\n      tag_204\n        /* \"#utility.yul\":7470:7476   */\n      dup3\n        /* \"#utility.yul\":7448:7477   */\n      tag_167\n      jump\t// in\n    tag_204:\n        /* \"#utility.yul\":7440:7477   */\n      swap1\n      pop\n        /* \"#utility.yul\":7532:7536   */\n      0x20\n        /* \"#utility.yul\":7526:7530   */\n      dup2\n        /* \"#utility.yul\":7522:7537   */\n      add\n        /* \"#utility.yul\":7514:7537   */\n      swap1\n      pop\n        /* \"#utility.yul\":7236:7544   */\n      swap2\n      swap1\n      pop\n      jump\t// out\n        /* \"#utility.yul\":7550:7691   */\n    tag_176:\n        /* \"#utility.yul\":7599:7603   */\n      0x00\n        /* \"#utility.yul\":7622:7625   */\n      dup2\n        /* \"#utility.yul\":7614:7625   */\n      swap1\n      pop\n        /* \"#utility.yul\":7645:7648   */\n      dup2\n        /* \"#utility.yul\":7642:7643   */\n      0x00\n        /* \"#utility.yul\":7635:7649   */\n      mstore\n        /* \"#utility.yul\":7679:7683   */\n      0x20\n        /* \"#utility.yul\":7676:7677   */\n      0x00\n        /* \"#utility.yul\":7666:7684   */\n      keccak256\n        /* \"#utility.yul\":7658:7684   */\n      swap1\n      pop\n        /* \"#utility.yul\":7550:7691   */\n      swap2\n      swap1\n      pop\n      jump\t// out\n        /* \"#utility.yul\":7697:7796   */\n    tag_161:\n        /* \"#utility.yul\":7749:7755   */\n      0x00\n        /* \"#utility.yul\":7783:7788   */\n      dup2\n        /* \"#utility.yul\":7777:7789   */\n      mload\n        /* \"#utility.yul\":7767:7789   */\n      swap1\n      pop\n        /* \"#utility.yul\":7697:7796   */\n      swap2\n      swap1\n      pop\n      jump\t// out\n        /* \"#utility.yul\":7802:7971   */\n    tag_163:\n        /* \"#utility.yul\":7886:7897   */\n      0x00\n        /* \"#utility.yul\":7920:7926   */\n      dup3\n        /* \"#utility.yul\":7915:7918   */\n      dup3\n        /* \"#utility.yul\":7908:7927   */\n      mstore\n        /* \"#utility.yul\":7960:7964   */\n      0x20\n        /* \"#utility.yul\":7955:7958   */\n      dup3\n        /* \"#utility.yul\":7951:7965   */\n      add\n        /* \"#utility.yul\":7936:7965   */\n      swap1\n      pop\n        /* \"#utility.yul\":7802:7971   */\n      swap3\n      swap2\n      pop\n      pop\n      jump\t// out\n        /* \"#utility.yul\":7977:8125   */\n    tag_156:\n        /* \"#utility.yul\":8079:8090   */\n      0x00\n        /* \"#utility.yul\":8116:8119   */\n      dup2\n        /* \"#utility.yul\":8101:8119   */\n      swap1\n      pop\n        /* \"#utility.yul\":7977:8125   */\n      swap3\n      swap2\n      pop\n      pop\n      jump\t// out\n        /* \"#utility.yul\":8131:8436   */\n    tag_52:\n        /* \"#utility.yul\":8171:8174   */\n      0x00\n        /* \"#utility.yul\":8190:8210   */\n      tag_210\n        /* \"#utility.yul\":8208:8209   */\n      dup3\n        /* \"#utility.yul\":8190:8210   */\n      tag_183\n      jump\t// in\n    tag_210:\n        /* \"#utility.yul\":8185:8210   */\n      swap2\n      pop\n        /* \"#utility.yul\":8224:8244   */\n      tag_211\n        /* \"#utility.yul\":8242:8243   */\n      dup4\n        /* \"#utility.yul\":8224:8244   */\n      tag_183\n      jump\t// in\n    tag_211:\n        /* \"#utility.yul\":8219:8244   */\n      swap3\n      pop\n        /* \"#utility.yul\":8378:8379   */\n      dup3\n        /* \"#utility.yul\":8310:8376   */\n      0xffffffffffffffffffffffffffffffffffffffffffffffffffffffffffffffff\n        /* \"#utility.yul\":8306:8380   */\n      sub\n        /* \"#utility.yul\":8303:8304   */\n      dup3\n        /* \"#utility.yul\":8300:8381   */\n      gt\n        /* \"#utility.yul\":8297:8404   */\n      iszero\n      tag_212\n      jumpi\n        /* \"#utility.yul\":8384:8402   */\n      tag_213\n      tag_214\n      jump\t// in\n    tag_213:\n        /* \"#utility.yul\":8297:8404   */\n    tag_212:\n        /* \"#utility.yul\":8428:8429   */\n      dup3\n        /* \"#utility.yul\":8425:8426   */\n      dup3\n        /* \"#utility.yul\":8421:8430   */\n      add\n        /* \"#utility.yul\":8414:8430   */\n      swap1\n      pop\n        /* \"#utility.yul\":8131:8436   */\n      swap3\n      swap2\n      pop\n      pop\n      jump\t// out\n        /* \"#utility.yul\":8442:8532   */\n    tag_152:\n        /* \"#utility.yul\":8476:8483   */\n      0x00\n        /* \"#utility.yul\":8519:8524   */\n      dup2\n        /* \"#utility.yul\":8512:8525   */\n      iszero\n        /* \"#utility.yul\":8505:8526   */\n      iszero\n        /* \"#utility.yul\":8494:8526   */\n      swap1\n      pop\n        /* \"#utility.yul\":8442:8532   */\n      swap2\n      swap1\n      pop\n      jump\t// out\n        /* \"#utility.yul\":8538:8615   */\n    tag_183:\n        /* \"#utility.yul\":8575:8582   */\n      0x00\n        /* \"#utility.yul\":8604:8609   */\n      dup2\n        /* \"#utility.yul\":8593:8609   */\n      swap1\n      pop\n        /* \"#utility.yul\":8538:8615   */\n      swap2\n      swap1\n      pop\n      jump\t// out\n        /* \"#utility.yul\":8621:8775   */\n    tag_101:\n        /* \"#utility.yul\":8705:8711   */\n      dup3\n        /* \"#utility.yul\":8700:8703   */\n      dup2\n        /* \"#utility.yul\":8695:8698   */\n      dup4\n        /* \"#utility.yul\":8682:8712   */\n      calldatacopy\n        /* \"#utility.yul\":8767:8768   */\n      0x00\n        /* \"#utility.yul\":8758:8764   */\n      dup4\n        /* \"#utility.yul\":8753:8756   */\n      dup4\n        /* \"#utility.yul\":8749:8765   */\n      add\n        /* \"#utility.yul\":8742:8769   */\n      mstore\n        /* \"#utility.yul\":8621:8775   */\n      pop\n      pop\n      pop\n      jump\t// out\n        /* \"#utility.yul\":8781:9088   */\n    tag_165:\n        /* \"#utility.yul\":8849:8850   */\n      0x00\n        /* \"#utility.yul\":8859:8972   */\n    tag_219:\n        /* \"#utility.yul\":8873:8879   */\n      dup4\n        /* \"#utility.yul\":8870:8871   */\n      dup2\n        /* \"#utility.yul\":8867:8880   */\n      lt\n        /* \"#utility.yul\":8859:8972   */\n      iszero\n      tag_221\n      jumpi\n        /* \"#utility.yul\":8958:8959   */\n      dup1\n        /* \"#utility.yul\":8953:8956   */\n      dup3\n        /* \"#utility.yul\":8949:8960   */\n      add\n        /* \"#utility.yul\":8943:8961   */\n      mload\n        /* \"#utility.yul\":8939:8940   */\n      dup2\n        /* \"#utility.yul\":8934:8937   */\n      dup5\n        /* \"#utility.yul\":8930:8941   */\n      add\n        /* \"#utility.yul\":8923:8962   */\n      mstore\n        /* \"#utility.yul\":8895:8897   */\n      0x20\n        /* \"#utility.yul\":8892:8893   */\n      dup2\n        /* \"#utility.yul\":8888:8898   */\n      add\n        /* \"#utility.yul\":8883:8898   */\n      swap1\n      pop\n        /* \"#utility.yul\":8859:8972   */\n      jump(tag_219)\n    tag_221:\n        /* \"#utility.yul\":8990:8996   */\n      dup4\n        /* \"#utility.yul\":8987:8988   */\n      dup2\n        /* \"#utility.yul\":8984:8997   */\n      gt\n        /* \"#utility.yul\":8981:9082   */\n      iszero\n      tag_222\n      jumpi\n        /* \"#utility.yul\":9070:9071   */\n      0x00\n        /* \"#utility.yul\":9061:9067   */\n      dup5\n        /* \"#utility.yul\":9056:9059   */\n      dup5\n        /* \"#utility.yul\":9052:9068   */\n      add\n        /* \"#utility.yul\":9045:9072   */\n      mstore\n        /* \"#utility.yul\":8981:9082   */\n    tag_222:\n        /* \"#utility.yul\":8830:9088   */\n      pop\n        /* \"#utility.yul\":8781:9088   */\n      pop\n      pop\n      pop\n      jump\t// out\n        /* \"#utility.yul\":9094:9414   */\n    tag_71:\n        /* \"#utility.yul\":9138:9144   */\n      0x00\n        /* \"#utility.yul\":9175:9176   */\n      0x02\n        /* \"#utility.yul\":9169:9173   */\n      dup3\n        /* \"#utility.yul\":9165:9177   */\n      div\n        /* \"#utility.yul\":9155:9177   */\n      swap1\n      pop\n        /* \"#utility.yul\":9222:9223   */\n      0x01\n        /* \"#utility.yul\":9216:9220   */\n      dup3\n        /* \"#utility.yul\":9212:9224   */\n      and\n        /* \"#utility.yul\":9243:9261   */\n      dup1\n        /* \"#utility.yul\":9233:9314   */\n      tag_224\n      jumpi\n        /* \"#utility.yul\":9299:9303   */\n      0x7f\n        /* \"#utility.yul\":9291:9297   */\n      dup3\n        /* \"#utility.yul\":9287:9304   */\n      and\n        /* \"#utility.yul\":9277:9304   */\n      swap2\n      pop\n        /* \"#utility.yul\":9233:9314   */\n    tag_224:\n        /* \"#utility.yul\":9361:9363   */\n      0x20\n        /* \"#utility.yul\":9353:9359   */\n      dup3\n        /* \"#utility.yul\":9350:9364   */\n      lt\n        /* \"#utility.yul\":9330:9348   */\n      dup2\n        /* \"#utility.yul\":9327:9365   */\n      eq\n        /* \"#utility.yul\":9324:9408   */\n      iszero\n      tag_225\n      jumpi\n        /* \"#utility.yul\":9380:9398   */\n      tag_226\n      tag_227\n      jump\t// in\n    tag_226:\n        /* \"#utility.yul\":9324:9408   */\n    tag_225:\n        /* \"#utility.yul\":9145:9414   */\n      pop\n        /* \"#utility.yul\":9094:9414   */\n      swap2\n      swap1\n      pop\n      jump\t// out\n        /* \"#utility.yul\":9420:9701   */\n    tag_198:\n        /* \"#utility.yul\":9503:9530   */\n      tag_229\n        /* \"#utility.yul\":9525:9529   */\n      dup3\n        /* \"#utility.yul\":9503:9530   */\n      tag_167\n      jump\t// in\n    tag_229:\n        /* \"#utility.yul\":9495:9501   */\n      dup2\n        /* \"#utility.yul\":9491:9531   */\n      add\n        /* \"#utility.yul\":9633:9639   */\n      dup2\n        /* \"#utility.yul\":9621:9631   */\n      dup2\n        /* \"#utility.yul\":9618:9640   */\n      lt\n        /* \"#utility.yul\":9597:9615   */\n      0xffffffffffffffff\n        /* \"#utility.yul\":9585:9595   */\n      dup3\n        /* \"#utility.yul\":9582:9616   */\n      gt\n        /* \"#utility.yul\":9579:9641   */\n      or\n        /* \"#utility.yul\":9576:9664   */\n      iszero\n      tag_230\n      jumpi\n        /* \"#utility.yul\":9644:9662   */\n      tag_231\n      tag_203\n      jump\t// in\n    tag_231:\n        /* \"#utility.yul\":9576:9664   */\n    tag_230:\n        /* \"#utility.yul\":9684:9694   */\n      dup1\n        /* \"#utility.yul\":9680:9682   */\n      0x40\n        /* \"#utility.yul\":9673:9695   */\n      mstore\n        /* \"#utility.yul\":9463:9701   */\n      pop\n        /* \"#utility.yul\":9420:9701   */\n      pop\n      pop\n      jump\t// out\n        /* \"#utility.yul\":9707:9887   */\n    tag_214:\n        /* \"#utility.yul\":9755:9832   */\n      0x4e487b7100000000000000000000000000000000000000000000000000000000\n        /* \"#utility.yul\":9752:9753   */\n      0x00\n        /* \"#utility.yul\":9745:9833   */\n      mstore\n        /* \"#utility.yul\":9852:9856   */\n      0x11\n        /* \"#utility.yul\":9849:9850   */\n      0x04\n        /* \"#utility.yul\":9842:9857   */\n      mstore\n        /* \"#utility.yul\":9876:9880   */\n      0x24\n        /* \"#utility.yul\":9873:9874   */\n      0x00\n        /* \"#utility.yul\":9866:9881   */\n      revert\n        /* \"#utility.yul\":9893:10073   */\n    tag_227:\n        /* \"#utility.yul\":9941:10018   */\n      0x4e487b7100000000000000000000000000000000000000000000000000000000\n        /* \"#utility.yul\":9938:9939   */\n      0x00\n        /* \"#utility.yul\":9931:10019   */\n      mstore\n        /* \"#utility.yul\":10038:10042   */\n      0x22\n        /* \"#utility.yul\":10035:10036   */\n      0x04\n        /* \"#utility.yul\":10028:10043   */\n      mstore\n        /* \"#utility.yul\":10062:10066   */\n      0x24\n        /* \"#utility.yul\":10059:10060   */\n      0x00\n        /* \"#utility.yul\":10052:10067   */\n      revert\n        /* \"#utility.yul\":10079:10259   */\n    tag_59:\n        /* \"#utility.yul\":10127:10204   */\n      0x4e487b7100000000000000000000000000000000000000000000000000000000\n        /* \"#utility.yul\":10124:10125   */\n      0x00\n        /* \"#utility.yul\":10117:10205   */\n      mstore\n        /* \"#utility.yul\":10224:10228   */\n      0x32\n        /* \"#utility.yul\":10221:10222   */\n      0x04\n        /* \"#utility.yul\":10214:10229   */\n      mstore\n        /* \"#utility.yul\":10248:10252   */\n      0x24\n        /* \"#utility.yul\":10245:10246   */\n      0x00\n        /* \"#utility.yul\":10238:10253   */\n      revert\n        /* \"#utility.yul\":10265:10445   */\n    tag_203:\n        /* \"#utility.yul\":10313:10390   */\n      0x4e487b7100000000000000000000000000000000000000000000000000000000\n        /* \"#utility.yul\":10310:10311   */\n      0x00\n        /* \"#utility.yul\":10303:10391   */\n      mstore\n        /* \"#utility.yul\":10410:10414   */\n      0x41\n        /* \"#utility.yul\":10407:10408   */\n      0x04\n        /* \"#utility.yul\":10400:10415   */\n      mstore\n        /* \"#utility.yul\":10434:10438   */\n      0x24\n        /* \"#utility.yul\":10431:10432   */\n      0x00\n        /* \"#utility.yul\":10424:10439   */\n      revert\n        /* \"#utility.yul\":10451:10568   */\n    tag_109:\n        /* \"#utility.yul\":10560:10561   */\n      0x00\n        /* \"#utility.yul\":10557:10558   */\n      dup1\n        /* \"#utility.yul\":10550:10562   */\n      revert\n        /* \"#utility.yul\":10574:10691   */\n    tag_106:\n        /* \"#utility.yul\":10683:10684   */\n      0x00\n        /* \"#utility.yul\":10680:10681   */\n      dup1\n        /* \"#utility.yul\":10673:10685   */\n      revert\n        /* \"#utility.yul\":10697:10814   */\n    tag_112:\n        /* \"#utility.yul\":10806:10807   */\n      0x00\n        /* \"#utility.yul\":10803:10804   */\n      dup1\n        /* \"#utility.yul\":10796:10808   */\n      revert\n        /* \"#utility.yul\":10820:10937   */\n    tag_99:\n        /* \"#utility.yul\":10929:10930   */\n      0x00\n        /* \"#utility.yul\":10926:10927   */\n      dup1\n        /* \"#utility.yul\":10919:10931   */\n      revert\n        /* \"#utility.yul\":10943:11060   */\n    tag_128:\n        /* \"#utility.yul\":11052:11053   */\n      0x00\n        /* \"#utility.yul\":11049:11050   */\n      dup1\n        /* \"#utility.yul\":11042:11054   */\n      revert\n        /* \"#utility.yul\":11066:11183   */\n    tag_125:\n        /* \"#utility.yul\":11175:11176   */\n      0x00\n        /* \"#utility.yul\":11172:11173   */\n      dup1\n        /* \"#utility.yul\":11165:11177   */\n      revert\n        /* \"#utility.yul\":11189:11291   */\n    tag_167:\n        /* \"#utility.yul\":11230:11236   */\n      0x00\n        /* \"#utility.yul\":11281:11283   */\n      0x1f\n        /* \"#utility.yul\":11277:11284   */\n      not\n        /* \"#utility.yul\":11272:11274   */\n      0x1f\n        /* \"#utility.yul\":11265:11270   */\n      dup4\n        /* \"#utility.yul\":11261:11275   */\n      add\n        /* \"#utility.yul\":11257:11285   */\n      and\n        /* \"#utility.yul\":11247:11285   */\n      swap1\n      pop\n        /* \"#utility.yul\":11189:11291   */\n      swap2\n      swap1\n      pop\n      jump\t// out\n        /* \"#utility.yul\":11297:11419   */\n    tag_121:\n        /* \"#utility.yul\":11370:11394   */\n      tag_244\n        /* \"#utility.yul\":11388:11393   */\n      dup2\n        /* \"#utility.yul\":11370:11394   */\n      tag_183\n      jump\t// in\n    tag_244:\n        /* \"#utility.yul\":11363:11368   */\n      dup2\n        /* \"#utility.yul\":11360:11395   */\n      eq\n        /* \"#utility.yul\":11350:11413   */\n      tag_245\n      jumpi\n        /* \"#utility.yul\":11409:11410   */\n      0x00\n        /* \"#utility.yul\":11406:11407   */\n      dup1\n        /* \"#utility.yul\":11399:11411   */\n      revert\n        /* \"#utility.yul\":11350:11413   */\n    tag_245:\n        /* \"#utility.yul\":11297:11419   */\n      pop\n      jump\t// out\n\n    auxdata: 0xa264697066735822122003edc187588ac946926122d29fb9a1dfc249c877de73115bdc52cd6e4dd4fa8564736f6c63430008070033\n}\n",
				"bytecode": {
					"linkReferences": {},
					"object": "608060405234801561001057600080fd5b50610ea2806100206000396000f3fe60806040526004361061004a5760003560e01c80630186a4231461004f5780630a5bd44b1461008e5780631d894eb8146100b75780638642269e146100e0578063e4bcc7d4146100fc575b600080fd5b34801561005b57600080fd5b50610076600480360381019061007191906109cd565b610139565b60405161008593929190610b90565b60405180910390f35b34801561009a57600080fd5b506100b560048036038101906100b09190610959565b610186565b005b3480156100c357600080fd5b506100de60048036038101906100d991906108f9565b6102d9565b005b6100fa60048036038101906100f59190610a16565b610385565b005b34801561010857600080fd5b50610123600480360381019061011e9190610a16565b6105f8565b6040516101309190610b6e565b60405180910390f35b6001818051602081018201805184825260208301602085012081835280955050505050506000915090508060000154908060010154908060030160009054906101000a900460ff16905083565b60018484604051610198929190610b3e565b908152602001604051809103902060030160009054906101000a900460ff166102a1576101c36106a4565b8281600001818152505081816020018181525050600181606001901515908115158152505080600186866040516101fb929190610b3e565b9081526020016040518091039020600082015181600001556020820151816001015560408201518160020190805190602001906102399291906106ce565b5060608201518160030160006101000a81548160ff021916908315150217905550905050600085859091806001815401808255809150506001900390600052602060002001600090919290919290919290919250919061029a929190610758565b50506102d3565b6040517fb185df3a00000000000000000000000000000000000000000000000000000000815260040160405180910390fd5b50505050565b600183836040516102eb929190610b3e565b908152602001604051809103902060030160009054906101000a900460ff161561034e578060018484604051610322929190610b3e565b908152602001604051809103902060010160008282546103429190610c59565b92505081905550610380565b6040517f7e8d96a900000000000000000000000000000000000000000000000000000000815260040160405180910390fd5b505050565b600080549050811080156103f757506002600082815260200190815260200160002060003373ffffffffffffffffffffffffffffffffffffffff1673ffffffffffffffffffffffffffffffffffffffff16815260200190815260200160002060020160009054906101000a900460ff16155b156105c357600060016000838154811061041457610413610dc8565b5b9060005260206000200160405161042b9190610b57565b90815260200160405180910390206040518060800160405290816000820154815260200160018201548152602001600282018054806020026020016040519081016040528092919081815260200182805480156104dd57602002820191906000526020600020905b8160009054906101000a900473ffffffffffffffffffffffffffffffffffffffff1673ffffffffffffffffffffffffffffffffffffffff1681526020019060010190808311610493575b505050505081526020016003820160009054906101000a900460ff161515151581525050905061050b6107de565b4381600001818152505081600001518160200181815250506001816040019015159081151581525050806002600085815260200190815260200160002060003373ffffffffffffffffffffffffffffffffffffffff1673ffffffffffffffffffffffffffffffffffffffff168152602001908152602001600020600082015181600001556020820151816001015560408201518160020160006101000a81548160ff02191690831515021790555090505050506105f5565b6040517fd42c9b8b00000000000000000000000000000000000000000000000000000000815260040160405180910390fd5b50565b6000818154811061060857600080fd5b90600052602060002001600091509050805461062390610d07565b80601f016020809104026020016040519081016040528092919081815260200182805461064f90610d07565b801561069c5780601f106106715761010080835404028352916020019161069c565b820191906000526020600020905b81548152906001019060200180831161067f57829003601f168201915b505050505081565b60405180608001604052806000815260200160008152602001606081526020016000151581525090565b828054828255906000526020600020908101928215610747579160200282015b828111156107465782518260006101000a81548173ffffffffffffffffffffffffffffffffffffffff021916908373ffffffffffffffffffffffffffffffffffffffff160217905550916020019190600101906106ee565b5b5090506107549190610801565b5090565b82805461076490610d07565b90600052602060002090601f01602090048101928261078657600085556107cd565b82601f1061079f57803560ff19168380011785556107cd565b828001600101855582156107cd579182015b828111156107cc5782358255916020019190600101906107b1565b5b5090506107da9190610801565b5090565b604051806060016040528060008152602001600081526020016000151581525090565b5b8082111561081a576000816000905550600101610802565b5090565b600061083161082c84610bec565b610bc7565b90508281526020810184848401111561084d5761084c610e35565b5b610858848285610cc5565b509392505050565b60008083601f84011261087657610875610e2b565b5b8235905067ffffffffffffffff81111561089357610892610e26565b5b6020830191508360018202830111156108af576108ae610e30565b5b9250929050565b600082601f8301126108cb576108ca610e2b565b5b81356108db84826020860161081e565b91505092915050565b6000813590506108f381610e55565b92915050565b60008060006040848603121561091257610911610e3f565b5b600084013567ffffffffffffffff8111156109305761092f610e3a565b5b61093c86828701610860565b9350935050602061094f868287016108e4565b9150509250925092565b6000806000806060858703121561097357610972610e3f565b5b600085013567ffffffffffffffff81111561099157610990610e3a565b5b61099d87828801610860565b945094505060206109b0878288016108e4565b92505060406109c1878288016108e4565b91505092959194509250565b6000602082840312156109e3576109e2610e3f565b5b600082013567ffffffffffffffff811115610a0157610a00610e3a565b5b610a0d848285016108b6565b91505092915050565b600060208284031215610a2c57610a2b610e3f565b5b6000610a3a848285016108e4565b91505092915050565b610a4c81610caf565b82525050565b6000610a5e8385610c4e565b9350610a6b838584610cc5565b82840190509392505050565b6000610a8282610c32565b610a8c8185610c3d565b9350610a9c818560208601610cd4565b610aa581610e44565b840191505092915050565b60008154610abd81610d07565b610ac78186610c4e565b94506001821660008114610ae25760018114610af357610b26565b60ff19831686528186019350610b26565b610afc85610c1d565b60005b83811015610b1e57815481890152600182019150602081019050610aff565b838801955050505b50505092915050565b610b3881610cbb565b82525050565b6000610b4b828486610a52565b91508190509392505050565b6000610b638284610ab0565b915081905092915050565b60006020820190508181036000830152610b888184610a77565b905092915050565b6000606082019050610ba56000830186610b2f565b610bb26020830185610b2f565b610bbf6040830184610a43565b949350505050565b6000610bd1610be2565b9050610bdd8282610d39565b919050565b6000604051905090565b600067ffffffffffffffff821115610c0757610c06610df7565b5b610c1082610e44565b9050602081019050919050565b60008190508160005260206000209050919050565b600081519050919050565b600082825260208201905092915050565b600081905092915050565b6000610c6482610cbb565b9150610c6f83610cbb565b9250827fffffffffffffffffffffffffffffffffffffffffffffffffffffffffffffffff03821115610ca457610ca3610d6a565b5b828201905092915050565b60008115159050919050565b6000819050919050565b82818337600083830152505050565b60005b83811015610cf2578082015181840152602081019050610cd7565b83811115610d01576000848401525b50505050565b60006002820490506001821680610d1f57607f821691505b60208210811415610d3357610d32610d99565b5b50919050565b610d4282610e44565b810181811067ffffffffffffffff82111715610d6157610d60610df7565b5b80604052505050565b7f4e487b7100000000000000000000000000000000000000000000000000000000600052601160045260246000fd5b7f4e487b7100000000000000000000000000000000000000000000000000000000600052602260045260246000fd5b7f4e487b7100000000000000000000000000000000000000000000000000000000600052603260045260246000fd5b7f4e487b7100000000000000000000000000000000000000000000000000000000600052604160045260246000fd5b600080fd5b600080fd5b600080fd5b600080fd5b600080fd5b600080fd5b6000601f19601f8301169050919050565b610e5e81610cbb565b8114610e6957600080fd5b5056fea264697066735822122003edc187588ac946926122d29fb9a1dfc249c877de73115bdc52cd6e4dd4fa8564736f6c63430008070033",
					"opcodes": "PUSH1 0x80 PUSH1 0x40 MSTORE CALLVALUE DUP1 ISZERO PUSH2 0x10 JUMPI PUSH1 0x0 DUP1 REVERT JUMPDEST POP PUSH2 0xEA2 DUP1 PUSH2 0x20 PUSH1 0x0 CODECOPY PUSH1 0x0 RETURN INVALID PUSH1 0x80 PUSH1 0x40 MSTORE PUSH1 0x4 CALLDATASIZE LT PUSH2 0x4A JUMPI PUSH1 0x0 CALLDATALOAD PUSH1 0xE0 SHR DUP1 PUSH4 0x186A423 EQ PUSH2 0x4F JUMPI DUP1 PUSH4 0xA5BD44B EQ PUSH2 0x8E JUMPI DUP1 PUSH4 0x1D894EB8 EQ PUSH2 0xB7 JUMPI DUP1 PUSH4 0x8642269E EQ PUSH2 0xE0 JUMPI DUP1 PUSH4 0xE4BCC7D4 EQ PUSH2 0xFC JUMPI JUMPDEST PUSH1 0x0 DUP1 REVERT JUMPDEST CALLVALUE DUP1 ISZERO PUSH2 0x5B JUMPI PUSH1 0x0 DUP1 REVERT JUMPDEST POP PUSH2 0x76 PUSH1 0x4 DUP1 CALLDATASIZE SUB DUP2 ADD SWAP1 PUSH2 0x71 SWAP2 SWAP1 PUSH2 0x9CD JUMP JUMPDEST PUSH2 0x139 JUMP JUMPDEST PUSH1 0x40 MLOAD PUSH2 0x85 SWAP4 SWAP3 SWAP2 SWAP1 PUSH2 0xB90 JUMP JUMPDEST PUSH1 0x40 MLOAD DUP1 SWAP2 SUB SWAP1 RETURN JUMPDEST CALLVALUE DUP1 ISZERO PUSH2 0x9A JUMPI PUSH1 0x0 DUP1 REVERT JUMPDEST POP PUSH2 0xB5 PUSH1 0x4 DUP1 CALLDATASIZE SUB DUP2 ADD SWAP1 PUSH2 0xB0 SWAP2 SWAP1 PUSH2 0x959 JUMP JUMPDEST PUSH2 0x186 JUMP JUMPDEST STOP JUMPDEST CALLVALUE DUP1 ISZERO PUSH2 0xC3 JUMPI PUSH1 0x0 DUP1 REVERT JUMPDEST POP PUSH2 0xDE PUSH1 0x4 DUP1 CALLDATASIZE SUB DUP2 ADD SWAP1 PUSH2 0xD9 SWAP2 SWAP1 PUSH2 0x8F9 JUMP JUMPDEST PUSH2 0x2D9 JUMP JUMPDEST STOP JUMPDEST PUSH2 0xFA PUSH1 0x4 DUP1 CALLDATASIZE SUB DUP2 ADD SWAP1 PUSH2 0xF5 SWAP2 SWAP1 PUSH2 0xA16 JUMP JUMPDEST PUSH2 0x385 JUMP JUMPDEST STOP JUMPDEST CALLVALUE DUP1 ISZERO PUSH2 0x108 JUMPI PUSH1 0x0 DUP1 REVERT JUMPDEST POP PUSH2 0x123 PUSH1 0x4 DUP1 CALLDATASIZE SUB DUP2 ADD SWAP1 PUSH2 0x11E SWAP2 SWAP1 PUSH2 0xA16 JUMP JUMPDEST PUSH2 0x5F8 JUMP JUMPDEST PUSH1 0x40 MLOAD PUSH2 0x130 SWAP2 SWAP1 PUSH2 0xB6E JUMP JUMPDEST PUSH1 0x40 MLOAD DUP1 SWAP2 SUB SWAP1 RETURN JUMPDEST PUSH1 0x1 DUP2 DUP1 MLOAD PUSH1 0x20 DUP2 ADD DUP3 ADD DUP1 MLOAD DUP5 DUP3 MSTORE PUSH1 0x20 DUP4 ADD PUSH1 0x20 DUP6 ADD KECCAK256 DUP2 DUP4 MSTORE DUP1 SWAP6 POP POP POP POP POP POP PUSH1 0x0 SWAP2 POP SWAP1 POP DUP1 PUSH1 0x0 ADD SLOAD SWAP1 DUP1 PUSH1 0x1 ADD SLOAD SWAP1 DUP1 PUSH1 0x3 ADD PUSH1 0x0 SWAP1 SLOAD SWAP1 PUSH2 0x100 EXP SWAP1 DIV PUSH1 0xFF AND SWAP1 POP DUP4 JUMP JUMPDEST PUSH1 0x1 DUP5 DUP5 PUSH1 0x40 MLOAD PUSH2 0x198 SWAP3 SWAP2 SWAP1 PUSH2 0xB3E JUMP JUMPDEST SWAP1 DUP2 MSTORE PUSH1 0x20 ADD PUSH1 0x40 MLOAD DUP1 SWAP2 SUB SWAP1 KECCAK256 PUSH1 0x3 ADD PUSH1 0x0 SWAP1 SLOAD SWAP1 PUSH2 0x100 EXP SWAP1 DIV PUSH1 0xFF AND PUSH2 0x2A1 JUMPI PUSH2 0x1C3 PUSH2 0x6A4 JUMP JUMPDEST DUP3 DUP2 PUSH1 0x0 ADD DUP2 DUP2 MSTORE POP POP DUP2 DUP2 PUSH1 0x20 ADD DUP2 DUP2 MSTORE POP POP PUSH1 0x1 DUP2 PUSH1 0x60 ADD SWAP1 ISZERO ISZERO SWAP1 DUP2 ISZERO ISZERO DUP2 MSTORE POP POP DUP1 PUSH1 0x1 DUP7 DUP7 PUSH1 0x40 MLOAD PUSH2 0x1FB SWAP3 SWAP2 SWAP1 PUSH2 0xB3E JUMP JUMPDEST SWAP1 DUP2 MSTORE PUSH1 0x20 ADD PUSH1 0x40 MLOAD DUP1 SWAP2 SUB SWAP1 KECCAK256 PUSH1 0x0 DUP3 ADD MLOAD DUP2 PUSH1 0x0 ADD SSTORE PUSH1 0x20 DUP3 ADD MLOAD DUP2 PUSH1 0x1 ADD SSTORE PUSH1 0x40 DUP3 ADD MLOAD DUP2 PUSH1 0x2 ADD SWAP1 DUP1 MLOAD SWAP1 PUSH1 0x20 ADD SWAP1 PUSH2 0x239 SWAP3 SWAP2 SWAP1 PUSH2 0x6CE JUMP JUMPDEST POP PUSH1 0x60 DUP3 ADD MLOAD DUP2 PUSH1 0x3 ADD PUSH1 0x0 PUSH2 0x100 EXP DUP2 SLOAD DUP2 PUSH1 0xFF MUL NOT AND SWAP1 DUP4 ISZERO ISZERO MUL OR SWAP1 SSTORE POP SWAP1 POP POP PUSH1 0x0 DUP6 DUP6 SWAP1 SWAP2 DUP1 PUSH1 0x1 DUP2 SLOAD ADD DUP1 DUP3 SSTORE DUP1 SWAP2 POP POP PUSH1 0x1 SWAP1 SUB SWAP1 PUSH1 0x0 MSTORE PUSH1 0x20 PUSH1 0x0 KECCAK256 ADD PUSH1 0x0 SWAP1 SWAP2 SWAP3 SWAP1 SWAP2 SWAP3 SWAP1 SWAP2 SWAP3 SWAP1 SWAP2 SWAP3 POP SWAP2 SWAP1 PUSH2 0x29A SWAP3 SWAP2 SWAP1 PUSH2 0x758 JUMP JUMPDEST POP POP PUSH2 0x2D3 JUMP JUMPDEST PUSH1 0x40 MLOAD PUSH32 0xB185DF3A00000000000000000000000000000000000000000000000000000000 DUP2 MSTORE PUSH1 0x4 ADD PUSH1 0x40 MLOAD DUP1 SWAP2 SUB SWAP1 REVERT JUMPDEST POP POP POP POP JUMP JUMPDEST PUSH1 0x1 DUP4 DUP4 PUSH1 0x40 MLOAD PUSH2 0x2EB SWAP3 SWAP2 SWAP1 PUSH2 0xB3E JUMP JUMPDEST SWAP1 DUP2 MSTORE PUSH1 0x20 ADD PUSH1 0x40 MLOAD DUP1 SWAP2 SUB SWAP1 KECCAK256 PUSH1 0x3 ADD PUSH1 0x0 SWAP1 SLOAD SWAP1 PUSH2 0x100 EXP SWAP1 DIV PUSH1 0xFF AND ISZERO PUSH2 0x34E JUMPI DUP1 PUSH1 0x1 DUP5 DUP5 PUSH1 0x40 MLOAD PUSH2 0x322 SWAP3 SWAP2 SWAP1 PUSH2 0xB3E JUMP JUMPDEST SWAP1 DUP2 MSTORE PUSH1 0x20 ADD PUSH1 0x40 MLOAD DUP1 SWAP2 SUB SWAP1 KECCAK256 PUSH1 0x1 ADD PUSH1 0x0 DUP3 DUP3 SLOAD PUSH2 0x342 SWAP2 SWAP1 PUSH2 0xC59 JUMP JUMPDEST SWAP3 POP POP DUP2 SWAP1 SSTORE POP PUSH2 0x380 JUMP JUMPDEST PUSH1 0x40 MLOAD PUSH32 0x7E8D96A900000000000000000000000000000000000000000000000000000000 DUP2 MSTORE PUSH1 0x4 ADD PUSH1 0x40 MLOAD DUP1 SWAP2 SUB SWAP1 REVERT JUMPDEST POP POP POP JUMP JUMPDEST PUSH1 0x0 DUP1 SLOAD SWAP1 POP DUP2 LT DUP1 ISZERO PUSH2 0x3F7 JUMPI POP PUSH1 0x2 PUSH1 0x0 DUP3 DUP2 MSTORE PUSH1 0x20 ADD SWAP1 DUP2 MSTORE PUSH1 0x20 ADD PUSH1 0x0 KECCAK256 PUSH1 0x0 CALLER PUSH20 0xFFFFFFFFFFFFFFFFFFFFFFFFFFFFFFFFFFFFFFFF AND PUSH20 0xFFFFFFFFFFFFFFFFFFFFFFFFFFFFFFFFFFFFFFFF AND DUP2 MSTORE PUSH1 0x20 ADD SWAP1 DUP2 MSTORE PUSH1 0x20 ADD PUSH1 0x0 KECCAK256 PUSH1 0x2 ADD PUSH1 0x0 SWAP1 SLOAD SWAP1 PUSH2 0x100 EXP SWAP1 DIV PUSH1 0xFF AND ISZERO JUMPDEST ISZERO PUSH2 0x5C3 JUMPI PUSH1 0x0 PUSH1 0x1 PUSH1 0x0 DUP4 DUP2 SLOAD DUP2 LT PUSH2 0x414 JUMPI PUSH2 0x413 PUSH2 0xDC8 JUMP JUMPDEST JUMPDEST SWAP1 PUSH1 0x0 MSTORE PUSH1 0x20 PUSH1 0x0 KECCAK256 ADD PUSH1 0x40 MLOAD PUSH2 0x42B SWAP2 SWAP1 PUSH2 0xB57 JUMP JUMPDEST SWAP1 DUP2 MSTORE PUSH1 0x20 ADD PUSH1 0x40 MLOAD DUP1 SWAP2 SUB SWAP1 KECCAK256 PUSH1 0x40 MLOAD DUP1 PUSH1 0x80 ADD PUSH1 0x40 MSTORE SWAP1 DUP2 PUSH1 0x0 DUP3 ADD SLOAD DUP2 MSTORE PUSH1 0x20 ADD PUSH1 0x1 DUP3 ADD SLOAD DUP2 MSTORE PUSH1 0x20 ADD PUSH1 0x2 DUP3 ADD DUP1 SLOAD DUP1 PUSH1 0x20 MUL PUSH1 0x20 ADD PUSH1 0x40 MLOAD SWAP1 DUP2 ADD PUSH1 0x40 MSTORE DUP1 SWAP3 SWAP2 SWAP1 DUP2 DUP2 MSTORE PUSH1 0x20 ADD DUP3 DUP1 SLOAD DUP1 ISZERO PUSH2 0x4DD JUMPI PUSH1 0x20 MUL DUP3 ADD SWAP2 SWAP1 PUSH1 0x0 MSTORE PUSH1 0x20 PUSH1 0x0 KECCAK256 SWAP1 JUMPDEST DUP2 PUSH1 0x0 SWAP1 SLOAD SWAP1 PUSH2 0x100 EXP SWAP1 DIV PUSH20 0xFFFFFFFFFFFFFFFFFFFFFFFFFFFFFFFFFFFFFFFF AND PUSH20 0xFFFFFFFFFFFFFFFFFFFFFFFFFFFFFFFFFFFFFFFF AND DUP2 MSTORE PUSH1 0x20 ADD SWAP1 PUSH1 0x1 ADD SWAP1 DUP1 DUP4 GT PUSH2 0x493 JUMPI JUMPDEST POP POP POP POP POP DUP2 MSTORE PUSH1 0x20 ADD PUSH1 0x3 DUP3 ADD PUSH1 0x0 SWAP1 SLOAD SWAP1 PUSH2 0x100 EXP SWAP1 DIV PUSH1 0xFF AND ISZERO ISZERO ISZERO ISZERO DUP2 MSTORE POP POP SWAP1 POP PUSH2 0x50B PUSH2 0x7DE JUMP JUMPDEST NUMBER DUP2 PUSH1 0x0 ADD DUP2 DUP2 MSTORE POP POP DUP2 PUSH1 0x0 ADD MLOAD DUP2 PUSH1 0x20 ADD DUP2 DUP2 MSTORE POP POP PUSH1 0x1 DUP2 PUSH1 0x40 ADD SWAP1 ISZERO ISZERO SWAP1 DUP2 ISZERO ISZERO DUP2 MSTORE POP POP DUP1 PUSH1 0x2 PUSH1 0x0 DUP6 DUP2 MSTORE PUSH1 0x20 ADD SWAP1 DUP2 MSTORE PUSH1 0x20 ADD PUSH1 0x0 KECCAK256 PUSH1 0x0 CALLER PUSH20 0xFFFFFFFFFFFFFFFFFFFFFFFFFFFFFFFFFFFFFFFF AND PUSH20 0xFFFFFFFFFFFFFFFFFFFFFFFFFFFFFFFFFFFFFFFF AND DUP2 MSTORE PUSH1 0x20 ADD SWAP1 DUP2 MSTORE PUSH1 0x20 ADD PUSH1 0x0 KECCAK256 PUSH1 0x0 DUP3 ADD MLOAD DUP2 PUSH1 0x0 ADD SSTORE PUSH1 0x20 DUP3 ADD MLOAD DUP2 PUSH1 0x1 ADD SSTORE PUSH1 0x40 DUP3 ADD MLOAD DUP2 PUSH1 0x2 ADD PUSH1 0x0 PUSH2 0x100 EXP DUP2 SLOAD DUP2 PUSH1 0xFF MUL NOT AND SWAP1 DUP4 ISZERO ISZERO MUL OR SWAP1 SSTORE POP SWAP1 POP POP POP POP PUSH2 0x5F5 JUMP JUMPDEST PUSH1 0x40 MLOAD PUSH32 0xD42C9B8B00000000000000000000000000000000000000000000000000000000 DUP2 MSTORE PUSH1 0x4 ADD PUSH1 0x40 MLOAD DUP1 SWAP2 SUB SWAP1 REVERT JUMPDEST POP JUMP JUMPDEST PUSH1 0x0 DUP2 DUP2 SLOAD DUP2 LT PUSH2 0x608 JUMPI PUSH1 0x0 DUP1 REVERT JUMPDEST SWAP1 PUSH1 0x0 MSTORE PUSH1 0x20 PUSH1 0x0 KECCAK256 ADD PUSH1 0x0 SWAP2 POP SWAP1 POP DUP1 SLOAD PUSH2 0x623 SWAP1 PUSH2 0xD07 JUMP JUMPDEST DUP1 PUSH1 0x1F ADD PUSH1 0x20 DUP1 SWAP2 DIV MUL PUSH1 0x20 ADD PUSH1 0x40 MLOAD SWAP1 DUP2 ADD PUSH1 0x40 MSTORE DUP1 SWAP3 SWAP2 SWAP1 DUP2 DUP2 MSTORE PUSH1 0x20 ADD DUP3 DUP1 SLOAD PUSH2 0x64F SWAP1 PUSH2 0xD07 JUMP JUMPDEST DUP1 ISZERO PUSH2 0x69C JUMPI DUP1 PUSH1 0x1F LT PUSH2 0x671 JUMPI PUSH2 0x100 DUP1 DUP4 SLOAD DIV MUL DUP4 MSTORE SWAP2 PUSH1 0x20 ADD SWAP2 PUSH2 0x69C JUMP JUMPDEST DUP3 ADD SWAP2 SWAP1 PUSH1 0x0 MSTORE PUSH1 0x20 PUSH1 0x0 KECCAK256 SWAP1 JUMPDEST DUP2 SLOAD DUP2 MSTORE SWAP1 PUSH1 0x1 ADD SWAP1 PUSH1 0x20 ADD DUP1 DUP4 GT PUSH2 0x67F JUMPI DUP3 SWAP1 SUB PUSH1 0x1F AND DUP3 ADD SWAP2 JUMPDEST POP POP POP POP POP DUP2 JUMP JUMPDEST PUSH1 0x40 MLOAD DUP1 PUSH1 0x80 ADD PUSH1 0x40 MSTORE DUP1 PUSH1 0x0 DUP2 MSTORE PUSH1 0x20 ADD PUSH1 0x0 DUP2 MSTORE PUSH1 0x20 ADD PUSH1 0x60 DUP2 MSTORE PUSH1 0x20 ADD PUSH1 0x0 ISZERO ISZERO DUP2 MSTORE POP SWAP1 JUMP JUMPDEST DUP3 DUP1 SLOAD DUP3 DUP3 SSTORE SWAP1 PUSH1 0x0 MSTORE PUSH1 0x20 PUSH1 0x0 KECCAK256 SWAP1 DUP2 ADD SWAP3 DUP3 ISZERO PUSH2 0x747 JUMPI SWAP2 PUSH1 0x20 MUL DUP3 ADD JUMPDEST DUP3 DUP2 GT ISZERO PUSH2 0x746 JUMPI DUP3 MLOAD DUP3 PUSH1 0x0 PUSH2 0x100 EXP DUP2 SLOAD DUP2 PUSH20 0xFFFFFFFFFFFFFFFFFFFFFFFFFFFFFFFFFFFFFFFF MUL NOT AND SWAP1 DUP4 PUSH20 0xFFFFFFFFFFFFFFFFFFFFFFFFFFFFFFFFFFFFFFFF AND MUL OR SWAP1 SSTORE POP SWAP2 PUSH1 0x20 ADD SWAP2 SWAP1 PUSH1 0x1 ADD SWAP1 PUSH2 0x6EE JUMP JUMPDEST JUMPDEST POP SWAP1 POP PUSH2 0x754 SWAP2 SWAP1 PUSH2 0x801 JUMP JUMPDEST POP SWAP1 JUMP JUMPDEST DUP3 DUP1 SLOAD PUSH2 0x764 SWAP1 PUSH2 0xD07 JUMP JUMPDEST SWAP1 PUSH1 0x0 MSTORE PUSH1 0x20 PUSH1 0x0 KECCAK256 SWAP1 PUSH1 0x1F ADD PUSH1 0x20 SWAP1 DIV DUP2 ADD SWAP3 DUP3 PUSH2 0x786 JUMPI PUSH1 0x0 DUP6 SSTORE PUSH2 0x7CD JUMP JUMPDEST DUP3 PUSH1 0x1F LT PUSH2 0x79F JUMPI DUP1 CALLDATALOAD PUSH1 0xFF NOT AND DUP4 DUP1 ADD OR DUP6 SSTORE PUSH2 0x7CD JUMP JUMPDEST DUP3 DUP1 ADD PUSH1 0x1 ADD DUP6 SSTORE DUP3 ISZERO PUSH2 0x7CD JUMPI SWAP2 DUP3 ADD JUMPDEST DUP3 DUP2 GT ISZERO PUSH2 0x7CC JUMPI DUP3 CALLDATALOAD DUP3 SSTORE SWAP2 PUSH1 0x20 ADD SWAP2 SWAP1 PUSH1 0x1 ADD SWAP1 PUSH2 0x7B1 JUMP JUMPDEST JUMPDEST POP SWAP1 POP PUSH2 0x7DA SWAP2 SWAP1 PUSH2 0x801 JUMP JUMPDEST POP SWAP1 JUMP JUMPDEST PUSH1 0x40 MLOAD DUP1 PUSH1 0x60 ADD PUSH1 0x40 MSTORE DUP1 PUSH1 0x0 DUP2 MSTORE PUSH1 0x20 ADD PUSH1 0x0 DUP2 MSTORE PUSH1 0x20 ADD PUSH1 0x0 ISZERO ISZERO DUP2 MSTORE POP SWAP1 JUMP JUMPDEST JUMPDEST DUP1 DUP3 GT ISZERO PUSH2 0x81A JUMPI PUSH1 0x0 DUP2 PUSH1 0x0 SWAP1 SSTORE POP PUSH1 0x1 ADD PUSH2 0x802 JUMP JUMPDEST POP SWAP1 JUMP JUMPDEST PUSH1 0x0 PUSH2 0x831 PUSH2 0x82C DUP5 PUSH2 0xBEC JUMP JUMPDEST PUSH2 0xBC7 JUMP JUMPDEST SWAP1 POP DUP3 DUP2 MSTORE PUSH1 0x20 DUP2 ADD DUP5 DUP5 DUP5 ADD GT ISZERO PUSH2 0x84D JUMPI PUSH2 0x84C PUSH2 0xE35 JUMP JUMPDEST JUMPDEST PUSH2 0x858 DUP5 DUP3 DUP6 PUSH2 0xCC5 JUMP JUMPDEST POP SWAP4 SWAP3 POP POP POP JUMP JUMPDEST PUSH1 0x0 DUP1 DUP4 PUSH1 0x1F DUP5 ADD SLT PUSH2 0x876 JUMPI PUSH2 0x875 PUSH2 0xE2B JUMP JUMPDEST JUMPDEST DUP3 CALLDATALOAD SWAP1 POP PUSH8 0xFFFFFFFFFFFFFFFF DUP2 GT ISZERO PUSH2 0x893 JUMPI PUSH2 0x892 PUSH2 0xE26 JUMP JUMPDEST JUMPDEST PUSH1 0x20 DUP4 ADD SWAP2 POP DUP4 PUSH1 0x1 DUP3 MUL DUP4 ADD GT ISZERO PUSH2 0x8AF JUMPI PUSH2 0x8AE PUSH2 0xE30 JUMP JUMPDEST JUMPDEST SWAP3 POP SWAP3 SWAP1 POP JUMP JUMPDEST PUSH1 0x0 DUP3 PUSH1 0x1F DUP4 ADD SLT PUSH2 0x8CB JUMPI PUSH2 0x8CA PUSH2 0xE2B JUMP JUMPDEST JUMPDEST DUP2 CALLDATALOAD PUSH2 0x8DB DUP5 DUP3 PUSH1 0x20 DUP7 ADD PUSH2 0x81E JUMP JUMPDEST SWAP2 POP POP SWAP3 SWAP2 POP POP JUMP JUMPDEST PUSH1 0x0 DUP2 CALLDATALOAD SWAP1 POP PUSH2 0x8F3 DUP2 PUSH2 0xE55 JUMP JUMPDEST SWAP3 SWAP2 POP POP JUMP JUMPDEST PUSH1 0x0 DUP1 PUSH1 0x0 PUSH1 0x40 DUP5 DUP7 SUB SLT ISZERO PUSH2 0x912 JUMPI PUSH2 0x911 PUSH2 0xE3F JUMP JUMPDEST JUMPDEST PUSH1 0x0 DUP5 ADD CALLDATALOAD PUSH8 0xFFFFFFFFFFFFFFFF DUP2 GT ISZERO PUSH2 0x930 JUMPI PUSH2 0x92F PUSH2 0xE3A JUMP JUMPDEST JUMPDEST PUSH2 0x93C DUP7 DUP3 DUP8 ADD PUSH2 0x860 JUMP JUMPDEST SWAP4 POP SWAP4 POP POP PUSH1 0x20 PUSH2 0x94F DUP7 DUP3 DUP8 ADD PUSH2 0x8E4 JUMP JUMPDEST SWAP2 POP POP SWAP3 POP SWAP3 POP SWAP3 JUMP JUMPDEST PUSH1 0x0 DUP1 PUSH1 0x0 DUP1 PUSH1 0x60 DUP6 DUP8 SUB SLT ISZERO PUSH2 0x973 JUMPI PUSH2 0x972 PUSH2 0xE3F JUMP JUMPDEST JUMPDEST PUSH1 0x0 DUP6 ADD CALLDATALOAD PUSH8 0xFFFFFFFFFFFFFFFF DUP2 GT ISZERO PUSH2 0x991 JUMPI PUSH2 0x990 PUSH2 0xE3A JUMP JUMPDEST JUMPDEST PUSH2 0x99D DUP8 DUP3 DUP9 ADD PUSH2 0x860 JUMP JUMPDEST SWAP5 POP SWAP5 POP POP PUSH1 0x20 PUSH2 0x9B0 DUP8 DUP3 DUP9 ADD PUSH2 0x8E4 JUMP JUMPDEST SWAP3 POP POP PUSH1 0x40 PUSH2 0x9C1 DUP8 DUP3 DUP9 ADD PUSH2 0x8E4 JUMP JUMPDEST SWAP2 POP POP SWAP3 SWAP6 SWAP2 SWAP5 POP SWAP3 POP JUMP JUMPDEST PUSH1 0x0 PUSH1 0x20 DUP3 DUP5 SUB SLT ISZERO PUSH2 0x9E3 JUMPI PUSH2 0x9E2 PUSH2 0xE3F JUMP JUMPDEST JUMPDEST PUSH1 0x0 DUP3 ADD CALLDATALOAD PUSH8 0xFFFFFFFFFFFFFFFF DUP2 GT ISZERO PUSH2 0xA01 JUMPI PUSH2 0xA00 PUSH2 0xE3A JUMP JUMPDEST JUMPDEST PUSH2 0xA0D DUP5 DUP3 DUP6 ADD PUSH2 0x8B6 JUMP JUMPDEST SWAP2 POP POP SWAP3 SWAP2 POP POP JUMP JUMPDEST PUSH1 0x0 PUSH1 0x20 DUP3 DUP5 SUB SLT ISZERO PUSH2 0xA2C JUMPI PUSH2 0xA2B PUSH2 0xE3F JUMP JUMPDEST JUMPDEST PUSH1 0x0 PUSH2 0xA3A DUP5 DUP3 DUP6 ADD PUSH2 0x8E4 JUMP JUMPDEST SWAP2 POP POP SWAP3 SWAP2 POP POP JUMP JUMPDEST PUSH2 0xA4C DUP2 PUSH2 0xCAF JUMP JUMPDEST DUP3 MSTORE POP POP JUMP JUMPDEST PUSH1 0x0 PUSH2 0xA5E DUP4 DUP6 PUSH2 0xC4E JUMP JUMPDEST SWAP4 POP PUSH2 0xA6B DUP4 DUP6 DUP5 PUSH2 0xCC5 JUMP JUMPDEST DUP3 DUP5 ADD SWAP1 POP SWAP4 SWAP3 POP POP POP JUMP JUMPDEST PUSH1 0x0 PUSH2 0xA82 DUP3 PUSH2 0xC32 JUMP JUMPDEST PUSH2 0xA8C DUP2 DUP6 PUSH2 0xC3D JUMP JUMPDEST SWAP4 POP PUSH2 0xA9C DUP2 DUP6 PUSH1 0x20 DUP7 ADD PUSH2 0xCD4 JUMP JUMPDEST PUSH2 0xAA5 DUP2 PUSH2 0xE44 JUMP JUMPDEST DUP5 ADD SWAP2 POP POP SWAP3 SWAP2 POP POP JUMP JUMPDEST PUSH1 0x0 DUP2 SLOAD PUSH2 0xABD DUP2 PUSH2 0xD07 JUMP JUMPDEST PUSH2 0xAC7 DUP2 DUP7 PUSH2 0xC4E JUMP JUMPDEST SWAP5 POP PUSH1 0x1 DUP3 AND PUSH1 0x0 DUP2 EQ PUSH2 0xAE2 JUMPI PUSH1 0x1 DUP2 EQ PUSH2 0xAF3 JUMPI PUSH2 0xB26 JUMP JUMPDEST PUSH1 0xFF NOT DUP4 AND DUP7 MSTORE DUP2 DUP7 ADD SWAP4 POP PUSH2 0xB26 JUMP JUMPDEST PUSH2 0xAFC DUP6 PUSH2 0xC1D JUMP JUMPDEST PUSH1 0x0 JUMPDEST DUP4 DUP2 LT ISZERO PUSH2 0xB1E JUMPI DUP2 SLOAD DUP2 DUP10 ADD MSTORE PUSH1 0x1 DUP3 ADD SWAP2 POP PUSH1 0x20 DUP2 ADD SWAP1 POP PUSH2 0xAFF JUMP JUMPDEST DUP4 DUP9 ADD SWAP6 POP POP POP JUMPDEST POP POP POP SWAP3 SWAP2 POP POP JUMP JUMPDEST PUSH2 0xB38 DUP2 PUSH2 0xCBB JUMP JUMPDEST DUP3 MSTORE POP POP JUMP JUMPDEST PUSH1 0x0 PUSH2 0xB4B DUP3 DUP5 DUP7 PUSH2 0xA52 JUMP JUMPDEST SWAP2 POP DUP2 SWAP1 POP SWAP4 SWAP3 POP POP POP JUMP JUMPDEST PUSH1 0x0 PUSH2 0xB63 DUP3 DUP5 PUSH2 0xAB0 JUMP JUMPDEST SWAP2 POP DUP2 SWAP1 POP SWAP3 SWAP2 POP POP JUMP JUMPDEST PUSH1 0x0 PUSH1 0x20 DUP3 ADD SWAP1 POP DUP2 DUP2 SUB PUSH1 0x0 DUP4 ADD MSTORE PUSH2 0xB88 DUP2 DUP5 PUSH2 0xA77 JUMP JUMPDEST SWAP1 POP SWAP3 SWAP2 POP POP JUMP JUMPDEST PUSH1 0x0 PUSH1 0x60 DUP3 ADD SWAP1 POP PUSH2 0xBA5 PUSH1 0x0 DUP4 ADD DUP7 PUSH2 0xB2F JUMP JUMPDEST PUSH2 0xBB2 PUSH1 0x20 DUP4 ADD DUP6 PUSH2 0xB2F JUMP JUMPDEST PUSH2 0xBBF PUSH1 0x40 DUP4 ADD DUP5 PUSH2 0xA43 JUMP JUMPDEST SWAP5 SWAP4 POP POP POP POP JUMP JUMPDEST PUSH1 0x0 PUSH2 0xBD1 PUSH2 0xBE2 JUMP JUMPDEST SWAP1 POP PUSH2 0xBDD DUP3 DUP3 PUSH2 0xD39 JUMP JUMPDEST SWAP2 SWAP1 POP JUMP JUMPDEST PUSH1 0x0 PUSH1 0x40 MLOAD SWAP1 POP SWAP1 JUMP JUMPDEST PUSH1 0x0 PUSH8 0xFFFFFFFFFFFFFFFF DUP3 GT ISZERO PUSH2 0xC07 JUMPI PUSH2 0xC06 PUSH2 0xDF7 JUMP JUMPDEST JUMPDEST PUSH2 0xC10 DUP3 PUSH2 0xE44 JUMP JUMPDEST SWAP1 POP PUSH1 0x20 DUP2 ADD SWAP1 POP SWAP2 SWAP1 POP JUMP JUMPDEST PUSH1 0x0 DUP2 SWAP1 POP DUP2 PUSH1 0x0 MSTORE PUSH1 0x20 PUSH1 0x0 KECCAK256 SWAP1 POP SWAP2 SWAP1 POP JUMP JUMPDEST PUSH1 0x0 DUP2 MLOAD SWAP1 POP SWAP2 SWAP1 POP JUMP JUMPDEST PUSH1 0x0 DUP3 DUP3 MSTORE PUSH1 0x20 DUP3 ADD SWAP1 POP SWAP3 SWAP2 POP POP JUMP JUMPDEST PUSH1 0x0 DUP2 SWAP1 POP SWAP3 SWAP2 POP POP JUMP JUMPDEST PUSH1 0x0 PUSH2 0xC64 DUP3 PUSH2 0xCBB JUMP JUMPDEST SWAP2 POP PUSH2 0xC6F DUP4 PUSH2 0xCBB JUMP JUMPDEST SWAP3 POP DUP3 PUSH32 0xFFFFFFFFFFFFFFFFFFFFFFFFFFFFFFFFFFFFFFFFFFFFFFFFFFFFFFFFFFFFFFFF SUB DUP3 GT ISZERO PUSH2 0xCA4 JUMPI PUSH2 0xCA3 PUSH2 0xD6A JUMP JUMPDEST JUMPDEST DUP3 DUP3 ADD SWAP1 POP SWAP3 SWAP2 POP POP JUMP JUMPDEST PUSH1 0x0 DUP2 ISZERO ISZERO SWAP1 POP SWAP2 SWAP1 POP JUMP JUMPDEST PUSH1 0x0 DUP2 SWAP1 POP SWAP2 SWAP1 POP JUMP JUMPDEST DUP3 DUP2 DUP4 CALLDATACOPY PUSH1 0x0 DUP4 DUP4 ADD MSTORE POP POP POP JUMP JUMPDEST PUSH1 0x0 JUMPDEST DUP4 DUP2 LT ISZERO PUSH2 0xCF2 JUMPI DUP1 DUP3 ADD MLOAD DUP2 DUP5 ADD MSTORE PUSH1 0x20 DUP2 ADD SWAP1 POP PUSH2 0xCD7 JUMP JUMPDEST DUP4 DUP2 GT ISZERO PUSH2 0xD01 JUMPI PUSH1 0x0 DUP5 DUP5 ADD MSTORE JUMPDEST POP POP POP POP JUMP JUMPDEST PUSH1 0x0 PUSH1 0x2 DUP3 DIV SWAP1 POP PUSH1 0x1 DUP3 AND DUP1 PUSH2 0xD1F JUMPI PUSH1 0x7F DUP3 AND SWAP2 POP JUMPDEST PUSH1 0x20 DUP3 LT DUP2 EQ ISZERO PUSH2 0xD33 JUMPI PUSH2 0xD32 PUSH2 0xD99 JUMP JUMPDEST JUMPDEST POP SWAP2 SWAP1 POP JUMP JUMPDEST PUSH2 0xD42 DUP3 PUSH2 0xE44 JUMP JUMPDEST DUP2 ADD DUP2 DUP2 LT PUSH8 0xFFFFFFFFFFFFFFFF DUP3 GT OR ISZERO PUSH2 0xD61 JUMPI PUSH2 0xD60 PUSH2 0xDF7 JUMP JUMPDEST JUMPDEST DUP1 PUSH1 0x40 MSTORE POP POP POP JUMP JUMPDEST PUSH32 0x4E487B7100000000000000000000000000000000000000000000000000000000 PUSH1 0x0 MSTORE PUSH1 0x11 PUSH1 0x4 MSTORE PUSH1 0x24 PUSH1 0x0 REVERT JUMPDEST PUSH32 0x4E487B7100000000000000000000000000000000000000000000000000000000 PUSH1 0x0 MSTORE PUSH1 0x22 PUSH1 0x4 MSTORE PUSH1 0x24 PUSH1 0x0 REVERT JUMPDEST PUSH32 0x4E487B7100000000000000000000000000000000000000000000000000000000 PUSH1 0x0 MSTORE PUSH1 0x32 PUSH1 0x4 MSTORE PUSH1 0x24 PUSH1 0x0 REVERT JUMPDEST PUSH32 0x4E487B7100000000000000000000000000000000000000000000000000000000 PUSH1 0x0 MSTORE PUSH1 0x41 PUSH1 0x4 MSTORE PUSH1 0x24 PUSH1 0x0 REVERT JUMPDEST PUSH1 0x0 DUP1 REVERT JUMPDEST PUSH1 0x0 DUP1 REVERT JUMPDEST PUSH1 0x0 DUP1 REVERT JUMPDEST PUSH1 0x0 DUP1 REVERT JUMPDEST PUSH1 0x0 DUP1 REVERT JUMPDEST PUSH1 0x0 DUP1 REVERT JUMPDEST PUSH1 0x0 PUSH1 0x1F NOT PUSH1 0x1F DUP4 ADD AND SWAP1 POP SWAP2 SWAP1 POP JUMP JUMPDEST PUSH2 0xE5E DUP2 PUSH2 0xCBB JUMP JUMPDEST DUP2 EQ PUSH2 0xE69 JUMPI PUSH1 0x0 DUP1 REVERT JUMPDEST POP JUMP INVALID LOG2 PUSH5 0x6970667358 0x22 SLT KECCAK256 SUB 0xED 0xC1 DUP8 PC DUP11 0xC9 CHAINID SWAP3 PUSH2 0x22D2 SWAP16 0xB9 LOG1 0xDF 0xC2 0x49 0xC8 PUSH24 0xDE73115BDC52CD6E4DD4FA8564736F6C6343000807003300 "
				},
				"gasEstimates": {
					"creation": {
						"codeDepositCost": "749200",
						"executionCost": "786",
						"totalCost": "749986"
					},
					"external": {
						"addNewProduct(string,uint256,uint256)": "infinite",
						"availableProducts(uint256)": "infinite",
						"buyProduct(uint256)": "infinite",
						"products(string)": "infinite",
						"updateQuantity(string,uint256)": "infinite"
					}
				},
				"methodIdentifiers": {
					"addNewProduct(string,uint256,uint256)": "0a5bd44b",
					"availableProducts(uint256)": "e4bcc7d4",
					"buyProduct(uint256)": "8642269e",
					"products(string)": "0186a423",
					"updateQuantity(string,uint256)": "1d894eb8"
				}
			},
			"storageLayout": {
				"storage": [
					{
						"astId": 26,
						"contract": "Project/TechnoLime.sol:TechnoLimeStore",
						"label": "availableProducts",
						"offset": 0,
						"slot": "0",
						"type": "t_array(t_string_storage)dyn_storage"
					},
					{
						"astId": 31,
						"contract": "Project/TechnoLime.sol:TechnoLimeStore",
						"label": "products",
						"offset": 0,
						"slot": "1",
						"type": "t_mapping(t_string_memory_ptr,t_struct(Product)23_storage)"
					},
					{
						"astId": 45,
						"contract": "Project/TechnoLime.sol:TechnoLimeStore",
						"label": "transactions",
						"offset": 0,
						"slot": "2",
						"type": "t_mapping(t_uint256,t_mapping(t_address,t_struct(Transaction)38_storage))"
					}
				],
				"types": {
					"t_address": {
						"encoding": "inplace",
						"label": "address",
						"numberOfBytes": "20"
					},
					"t_array(t_address)dyn_storage": {
						"base": "t_address",
						"encoding": "dynamic_array",
						"label": "address[]",
						"numberOfBytes": "32"
					},
					"t_array(t_string_storage)dyn_storage": {
						"base": "t_string_storage",
						"encoding": "dynamic_array",
						"label": "string[]",
						"numberOfBytes": "32"
					},
					"t_bool": {
						"encoding": "inplace",
						"label": "bool",
						"numberOfBytes": "1"
					},
					"t_mapping(t_address,t_struct(Transaction)38_storage)": {
						"encoding": "mapping",
						"key": "t_address",
						"label": "mapping(address => struct TechnoLimeStore.Transaction)",
						"numberOfBytes": "32",
						"value": "t_struct(Transaction)38_storage"
					},
					"t_mapping(t_string_memory_ptr,t_struct(Product)23_storage)": {
						"encoding": "mapping",
						"key": "t_string_memory_ptr",
						"label": "mapping(string => struct TechnoLimeStore.Product)",
						"numberOfBytes": "32",
						"value": "t_struct(Product)23_storage"
					},
					"t_mapping(t_uint256,t_mapping(t_address,t_struct(Transaction)38_storage))": {
						"encoding": "mapping",
						"key": "t_uint256",
						"label": "mapping(uint256 => mapping(address => struct TechnoLimeStore.Transaction))",
						"numberOfBytes": "32",
						"value": "t_mapping(t_address,t_struct(Transaction)38_storage)"
					},
					"t_string_memory_ptr": {
						"encoding": "bytes",
						"label": "string",
						"numberOfBytes": "32"
					},
					"t_string_storage": {
						"encoding": "bytes",
						"label": "string",
						"numberOfBytes": "32"
					},
					"t_struct(Product)23_storage": {
						"encoding": "inplace",
						"label": "struct TechnoLimeStore.Product",
						"members": [
							{
								"astId": 15,
								"contract": "Project/TechnoLime.sol:TechnoLimeStore",
								"label": "price",
								"offset": 0,
								"slot": "0",
								"type": "t_uint256"
							},
							{
								"astId": 17,
								"contract": "Project/TechnoLime.sol:TechnoLimeStore",
								"label": "quantity",
								"offset": 0,
								"slot": "1",
								"type": "t_uint256"
							},
							{
								"astId": 20,
								"contract": "Project/TechnoLime.sol:TechnoLimeStore",
								"label": "buyers",
								"offset": 0,
								"slot": "2",
								"type": "t_array(t_address)dyn_storage"
							},
							{
								"astId": 22,
								"contract": "Project/TechnoLime.sol:TechnoLimeStore",
								"label": "exists",
								"offset": 0,
								"slot": "3",
								"type": "t_bool"
							}
						],
						"numberOfBytes": "128"
					},
					"t_struct(Transaction)38_storage": {
						"encoding": "inplace",
						"label": "struct TechnoLimeStore.Transaction",
						"members": [
							{
								"astId": 33,
								"contract": "Project/TechnoLime.sol:TechnoLimeStore",
								"label": "blockNum",
								"offset": 0,
								"slot": "0",
								"type": "t_uint256"
							},
							{
								"astId": 35,
								"contract": "Project/TechnoLime.sol:TechnoLimeStore",
								"label": "price",
								"offset": 0,
								"slot": "1",
								"type": "t_uint256"
							},
							{
								"astId": 37,
								"contract": "Project/TechnoLime.sol:TechnoLimeStore",
								"label": "exists",
								"offset": 0,
								"slot": "2",
								"type": "t_bool"
							}
						],
						"numberOfBytes": "96"
					},
					"t_uint256": {
						"encoding": "inplace",
						"label": "uint256",
						"numberOfBytes": "32"
					}
				}
			},
			"userdoc": {
				"errors": {
					"ItemIdWrongOrBoughtAlready()": [
						{
							"notice": "Error thrown when the productID doesn't exist or it has been bought once already"
						}
					],
					"ProductExists()": [
						{
							"notice": "Can't add a product that already exists"
						}
					]
				},
				"kind": "user",
				"methods": {},
				"version": 1
			}
		}
	}
}