{
	"Project/baseContracts.sol": {
		"Products": {
			"abi": [
				{
					"inputs": [
						{
							"internalType": "uint256",
							"name": "",
							"type": "uint256"
						}
					],
					"name": "availableProducts",
					"outputs": [
						{
							"internalType": "string",
							"name": "",
							"type": "string"
						}
					],
					"stateMutability": "view",
					"type": "function"
				},
				{
					"inputs": [
						{
							"internalType": "uint256",
							"name": "",
							"type": "uint256"
						}
					],
					"name": "products",
					"outputs": [
						{
							"internalType": "uint256",
							"name": "price",
							"type": "uint256"
						},
						{
							"internalType": "uint256",
							"name": "quantity",
							"type": "uint256"
						},
						{
							"internalType": "string",
							"name": "name",
							"type": "string"
						},
						{
							"internalType": "bool",
							"name": "exists",
							"type": "bool"
						}
					],
					"stateMutability": "view",
					"type": "function"
				}
			],
			"devdoc": {
				"kind": "dev",
				"methods": {},
				"version": 1
			},
			"evm": {
				"assembly": "    /* \"Project/baseContracts.sol\":96:592  contract Products {\r... */\n  mstore(0x40, 0x80)\n  callvalue\n  dup1\n  iszero\n  tag_1\n  jumpi\n  0x00\n  dup1\n  revert\ntag_1:\n  pop\n  dataSize(sub_0)\n  dup1\n  dataOffset(sub_0)\n  0x00\n  codecopy\n  0x00\n  return\nstop\n\nsub_0: assembly {\n        /* \"Project/baseContracts.sol\":96:592  contract Products {\r... */\n      mstore(0x40, 0x80)\n      callvalue\n      dup1\n      iszero\n      tag_1\n      jumpi\n      0x00\n      dup1\n      revert\n    tag_1:\n      pop\n      jumpi(tag_2, lt(calldatasize, 0x04))\n      shr(0xe0, calldataload(0x00))\n      dup1\n      0x7acc0b20\n      eq\n      tag_3\n      jumpi\n      dup1\n      0xe4bcc7d4\n      eq\n      tag_4\n      jumpi\n    tag_2:\n      0x00\n      dup1\n      revert\n        /* \"Project/baseContracts.sol\":410:450  mapping(uint => Product) public products */\n    tag_3:\n      tag_5\n      0x04\n      dup1\n      calldatasize\n      sub\n      dup2\n      add\n      swap1\n      tag_6\n      swap2\n      swap1\n      tag_7\n      jump\t// in\n    tag_6:\n      tag_8\n      jump\t// in\n    tag_5:\n      mload(0x40)\n      tag_9\n      swap5\n      swap4\n      swap3\n      swap2\n      swap1\n      tag_10\n      jump\t// in\n    tag_9:\n      mload(0x40)\n      dup1\n      swap2\n      sub\n      swap1\n      return\n        /* \"Project/baseContracts.sol\":370:403  string[] public availableProducts */\n    tag_4:\n      tag_11\n      0x04\n      dup1\n      calldatasize\n      sub\n      dup2\n      add\n      swap1\n      tag_12\n      swap2\n      swap1\n      tag_7\n      jump\t// in\n    tag_12:\n      tag_13\n      jump\t// in\n    tag_11:\n      mload(0x40)\n      tag_14\n      swap2\n      swap1\n      tag_15\n      jump\t// in\n    tag_14:\n      mload(0x40)\n      dup1\n      swap2\n      sub\n      swap1\n      return\n        /* \"Project/baseContracts.sol\":410:450  mapping(uint => Product) public products */\n    tag_8:\n      mstore(0x20, 0x01)\n      dup1\n      0x00\n      mstore\n      keccak256(0x00, 0x40)\n      0x00\n      swap2\n      pop\n      swap1\n      pop\n      dup1\n      0x00\n      add\n      sload\n      swap1\n      dup1\n      0x01\n      add\n      sload\n      swap1\n      dup1\n      0x02\n      add\n      dup1\n      sload\n      tag_16\n      swap1\n      tag_17\n      jump\t// in\n    tag_16:\n      dup1\n      0x1f\n      add\n      0x20\n      dup1\n      swap2\n      div\n      mul\n      0x20\n      add\n      mload(0x40)\n      swap1\n      dup2\n      add\n      0x40\n      mstore\n      dup1\n      swap3\n      swap2\n      swap1\n      dup2\n      dup2\n      mstore\n      0x20\n      add\n      dup3\n      dup1\n      sload\n      tag_18\n      swap1\n      tag_17\n      jump\t// in\n    tag_18:\n      dup1\n      iszero\n      tag_19\n      jumpi\n      dup1\n      0x1f\n      lt\n      tag_20\n      jumpi\n      0x0100\n      dup1\n      dup4\n      sload\n      div\n      mul\n      dup4\n      mstore\n      swap2\n      0x20\n      add\n      swap2\n      jump(tag_19)\n    tag_20:\n      dup3\n      add\n      swap2\n      swap1\n      0x00\n      mstore\n      keccak256(0x00, 0x20)\n      swap1\n    tag_21:\n      dup2\n      sload\n      dup2\n      mstore\n      swap1\n      0x01\n      add\n      swap1\n      0x20\n      add\n      dup1\n      dup4\n      gt\n      tag_21\n      jumpi\n      dup3\n      swap1\n      sub\n      0x1f\n      and\n      dup3\n      add\n      swap2\n    tag_19:\n      pop\n      pop\n      pop\n      pop\n      pop\n      swap1\n      dup1\n      0x03\n      add\n      0x00\n      swap1\n      sload\n      swap1\n      0x0100\n      exp\n      swap1\n      div\n      0xff\n      and\n      swap1\n      pop\n      dup5\n      jump\t// out\n        /* \"Project/baseContracts.sol\":370:403  string[] public availableProducts */\n    tag_13:\n      0x00\n      dup2\n      dup2\n      sload\n      dup2\n      lt\n      tag_22\n      jumpi\n      0x00\n      dup1\n      revert\n    tag_22:\n      swap1\n      0x00\n      mstore\n      keccak256(0x00, 0x20)\n      add\n      0x00\n      swap2\n      pop\n      swap1\n      pop\n      dup1\n      sload\n      tag_24\n      swap1\n      tag_17\n      jump\t// in\n    tag_24:\n      dup1\n      0x1f\n      add\n      0x20\n      dup1\n      swap2\n      div\n      mul\n      0x20\n      add\n      mload(0x40)\n      swap1\n      dup2\n      add\n      0x40\n      mstore\n      dup1\n      swap3\n      swap2\n      swap1\n      dup2\n      dup2\n      mstore\n      0x20\n      add\n      dup3\n      dup1\n      sload\n      tag_25\n      swap1\n      tag_17\n      jump\t// in\n    tag_25:\n      dup1\n      iszero\n      tag_26\n      jumpi\n      dup1\n      0x1f\n      lt\n      tag_27\n      jumpi\n      0x0100\n      dup1\n      dup4\n      sload\n      div\n      mul\n      dup4\n      mstore\n      swap2\n      0x20\n      add\n      swap2\n      jump(tag_26)\n    tag_27:\n      dup3\n      add\n      swap2\n      swap1\n      0x00\n      mstore\n      keccak256(0x00, 0x20)\n      swap1\n    tag_28:\n      dup2\n      sload\n      dup2\n      mstore\n      swap1\n      0x01\n      add\n      swap1\n      0x20\n      add\n      dup1\n      dup4\n      gt\n      tag_28\n      jumpi\n      dup3\n      swap1\n      sub\n      0x1f\n      and\n      dup3\n      add\n      swap2\n    tag_26:\n      pop\n      pop\n      pop\n      pop\n      pop\n      dup2\n      jump\t// out\n        /* \"#utility.yul\":7:146   */\n    tag_30:\n        /* \"#utility.yul\":53:58   */\n      0x00\n        /* \"#utility.yul\":91:97   */\n      dup2\n        /* \"#utility.yul\":78:98   */\n      calldataload\n        /* \"#utility.yul\":69:98   */\n      swap1\n      pop\n        /* \"#utility.yul\":107:140   */\n      tag_32\n        /* \"#utility.yul\":134:139   */\n      dup2\n        /* \"#utility.yul\":107:140   */\n      tag_33\n      jump\t// in\n    tag_32:\n        /* \"#utility.yul\":7:146   */\n      swap3\n      swap2\n      pop\n      pop\n      jump\t// out\n        /* \"#utility.yul\":152:481   */\n    tag_7:\n        /* \"#utility.yul\":211:217   */\n      0x00\n        /* \"#utility.yul\":260:262   */\n      0x20\n        /* \"#utility.yul\":248:257   */\n      dup3\n        /* \"#utility.yul\":239:246   */\n      dup5\n        /* \"#utility.yul\":235:258   */\n      sub\n        /* \"#utility.yul\":231:263   */\n      slt\n        /* \"#utility.yul\":228:347   */\n      iszero\n      tag_35\n      jumpi\n        /* \"#utility.yul\":266:345   */\n      tag_36\n      tag_37\n      jump\t// in\n    tag_36:\n        /* \"#utility.yul\":228:347   */\n    tag_35:\n        /* \"#utility.yul\":386:387   */\n      0x00\n        /* \"#utility.yul\":411:464   */\n      tag_38\n        /* \"#utility.yul\":456:463   */\n      dup5\n        /* \"#utility.yul\":447:453   */\n      dup3\n        /* \"#utility.yul\":436:445   */\n      dup6\n        /* \"#utility.yul\":432:454   */\n      add\n        /* \"#utility.yul\":411:464   */\n      tag_30\n      jump\t// in\n    tag_38:\n        /* \"#utility.yul\":401:464   */\n      swap2\n      pop\n        /* \"#utility.yul\":357:474   */\n      pop\n        /* \"#utility.yul\":152:481   */\n      swap3\n      swap2\n      pop\n      pop\n      jump\t// out\n        /* \"#utility.yul\":487:596   */\n    tag_39:\n        /* \"#utility.yul\":568:589   */\n      tag_41\n        /* \"#utility.yul\":583:588   */\n      dup2\n        /* \"#utility.yul\":568:589   */\n      tag_42\n      jump\t// in\n    tag_41:\n        /* \"#utility.yul\":563:566   */\n      dup3\n        /* \"#utility.yul\":556:590   */\n      mstore\n        /* \"#utility.yul\":487:596   */\n      pop\n      pop\n      jump\t// out\n        /* \"#utility.yul\":602:966   */\n    tag_43:\n        /* \"#utility.yul\":690:693   */\n      0x00\n        /* \"#utility.yul\":718:757   */\n      tag_45\n        /* \"#utility.yul\":751:756   */\n      dup3\n        /* \"#utility.yul\":718:757   */\n      tag_46\n      jump\t// in\n    tag_45:\n        /* \"#utility.yul\":773:844   */\n      tag_47\n        /* \"#utility.yul\":837:843   */\n      dup2\n        /* \"#utility.yul\":832:835   */\n      dup6\n        /* \"#utility.yul\":773:844   */\n      tag_48\n      jump\t// in\n    tag_47:\n        /* \"#utility.yul\":766:844   */\n      swap4\n      pop\n        /* \"#utility.yul\":853:905   */\n      tag_49\n        /* \"#utility.yul\":898:904   */\n      dup2\n        /* \"#utility.yul\":893:896   */\n      dup6\n        /* \"#utility.yul\":886:890   */\n      0x20\n        /* \"#utility.yul\":879:884   */\n      dup7\n        /* \"#utility.yul\":875:891   */\n      add\n        /* \"#utility.yul\":853:905   */\n      tag_50\n      jump\t// in\n    tag_49:\n        /* \"#utility.yul\":930:959   */\n      tag_51\n        /* \"#utility.yul\":952:958   */\n      dup2\n        /* \"#utility.yul\":930:959   */\n      tag_52\n      jump\t// in\n    tag_51:\n        /* \"#utility.yul\":925:928   */\n      dup5\n        /* \"#utility.yul\":921:960   */\n      add\n        /* \"#utility.yul\":914:960   */\n      swap2\n      pop\n        /* \"#utility.yul\":694:966   */\n      pop\n        /* \"#utility.yul\":602:966   */\n      swap3\n      swap2\n      pop\n      pop\n      jump\t// out\n        /* \"#utility.yul\":972:1090   */\n    tag_53:\n        /* \"#utility.yul\":1059:1083   */\n      tag_55\n        /* \"#utility.yul\":1077:1082   */\n      dup2\n        /* \"#utility.yul\":1059:1083   */\n      tag_56\n      jump\t// in\n    tag_55:\n        /* \"#utility.yul\":1054:1057   */\n      dup3\n        /* \"#utility.yul\":1047:1084   */\n      mstore\n        /* \"#utility.yul\":972:1090   */\n      pop\n      pop\n      jump\t// out\n        /* \"#utility.yul\":1096:1409   */\n    tag_15:\n        /* \"#utility.yul\":1209:1213   */\n      0x00\n        /* \"#utility.yul\":1247:1249   */\n      0x20\n        /* \"#utility.yul\":1236:1245   */\n      dup3\n        /* \"#utility.yul\":1232:1250   */\n      add\n        /* \"#utility.yul\":1224:1250   */\n      swap1\n      pop\n        /* \"#utility.yul\":1296:1305   */\n      dup2\n        /* \"#utility.yul\":1290:1294   */\n      dup2\n        /* \"#utility.yul\":1286:1306   */\n      sub\n        /* \"#utility.yul\":1282:1283   */\n      0x00\n        /* \"#utility.yul\":1271:1280   */\n      dup4\n        /* \"#utility.yul\":1267:1284   */\n      add\n        /* \"#utility.yul\":1260:1307   */\n      mstore\n        /* \"#utility.yul\":1324:1402   */\n      tag_58\n        /* \"#utility.yul\":1397:1401   */\n      dup2\n        /* \"#utility.yul\":1388:1394   */\n      dup5\n        /* \"#utility.yul\":1324:1402   */\n      tag_43\n      jump\t// in\n    tag_58:\n        /* \"#utility.yul\":1316:1402   */\n      swap1\n      pop\n        /* \"#utility.yul\":1096:1409   */\n      swap3\n      swap2\n      pop\n      pop\n      jump\t// out\n        /* \"#utility.yul\":1415:2047   */\n    tag_10:\n        /* \"#utility.yul\":1606:1610   */\n      0x00\n        /* \"#utility.yul\":1644:1647   */\n      0x80\n        /* \"#utility.yul\":1633:1642   */\n      dup3\n        /* \"#utility.yul\":1629:1648   */\n      add\n        /* \"#utility.yul\":1621:1648   */\n      swap1\n      pop\n        /* \"#utility.yul\":1658:1729   */\n      tag_60\n        /* \"#utility.yul\":1726:1727   */\n      0x00\n        /* \"#utility.yul\":1715:1724   */\n      dup4\n        /* \"#utility.yul\":1711:1728   */\n      add\n        /* \"#utility.yul\":1702:1708   */\n      dup8\n        /* \"#utility.yul\":1658:1729   */\n      tag_53\n      jump\t// in\n    tag_60:\n        /* \"#utility.yul\":1739:1811   */\n      tag_61\n        /* \"#utility.yul\":1807:1809   */\n      0x20\n        /* \"#utility.yul\":1796:1805   */\n      dup4\n        /* \"#utility.yul\":1792:1810   */\n      add\n        /* \"#utility.yul\":1783:1789   */\n      dup7\n        /* \"#utility.yul\":1739:1811   */\n      tag_53\n      jump\t// in\n    tag_61:\n        /* \"#utility.yul\":1858:1867   */\n      dup2\n        /* \"#utility.yul\":1852:1856   */\n      dup2\n        /* \"#utility.yul\":1848:1868   */\n      sub\n        /* \"#utility.yul\":1843:1845   */\n      0x40\n        /* \"#utility.yul\":1832:1841   */\n      dup4\n        /* \"#utility.yul\":1828:1846   */\n      add\n        /* \"#utility.yul\":1821:1869   */\n      mstore\n        /* \"#utility.yul\":1886:1964   */\n      tag_62\n        /* \"#utility.yul\":1959:1963   */\n      dup2\n        /* \"#utility.yul\":1950:1956   */\n      dup6\n        /* \"#utility.yul\":1886:1964   */\n      tag_43\n      jump\t// in\n    tag_62:\n        /* \"#utility.yul\":1878:1964   */\n      swap1\n      pop\n        /* \"#utility.yul\":1974:2040   */\n      tag_63\n        /* \"#utility.yul\":2036:2038   */\n      0x60\n        /* \"#utility.yul\":2025:2034   */\n      dup4\n        /* \"#utility.yul\":2021:2039   */\n      add\n        /* \"#utility.yul\":2012:2018   */\n      dup5\n        /* \"#utility.yul\":1974:2040   */\n      tag_39\n      jump\t// in\n    tag_63:\n        /* \"#utility.yul\":1415:2047   */\n      swap6\n      swap5\n      pop\n      pop\n      pop\n      pop\n      pop\n      jump\t// out\n        /* \"#utility.yul\":2134:2233   */\n    tag_46:\n        /* \"#utility.yul\":2186:2192   */\n      0x00\n        /* \"#utility.yul\":2220:2225   */\n      dup2\n        /* \"#utility.yul\":2214:2226   */\n      mload\n        /* \"#utility.yul\":2204:2226   */\n      swap1\n      pop\n        /* \"#utility.yul\":2134:2233   */\n      swap2\n      swap1\n      pop\n      jump\t// out\n        /* \"#utility.yul\":2239:2408   */\n    tag_48:\n        /* \"#utility.yul\":2323:2334   */\n      0x00\n        /* \"#utility.yul\":2357:2363   */\n      dup3\n        /* \"#utility.yul\":2352:2355   */\n      dup3\n        /* \"#utility.yul\":2345:2364   */\n      mstore\n        /* \"#utility.yul\":2397:2401   */\n      0x20\n        /* \"#utility.yul\":2392:2395   */\n      dup3\n        /* \"#utility.yul\":2388:2402   */\n      add\n        /* \"#utility.yul\":2373:2402   */\n      swap1\n      pop\n        /* \"#utility.yul\":2239:2408   */\n      swap3\n      swap2\n      pop\n      pop\n      jump\t// out\n        /* \"#utility.yul\":2414:2504   */\n    tag_42:\n        /* \"#utility.yul\":2448:2455   */\n      0x00\n        /* \"#utility.yul\":2491:2496   */\n      dup2\n        /* \"#utility.yul\":2484:2497   */\n      iszero\n        /* \"#utility.yul\":2477:2498   */\n      iszero\n        /* \"#utility.yul\":2466:2498   */\n      swap1\n      pop\n        /* \"#utility.yul\":2414:2504   */\n      swap2\n      swap1\n      pop\n      jump\t// out\n        /* \"#utility.yul\":2510:2587   */\n    tag_56:\n        /* \"#utility.yul\":2547:2554   */\n      0x00\n        /* \"#utility.yul\":2576:2581   */\n      dup2\n        /* \"#utility.yul\":2565:2581   */\n      swap1\n      pop\n        /* \"#utility.yul\":2510:2587   */\n      swap2\n      swap1\n      pop\n      jump\t// out\n        /* \"#utility.yul\":2593:2900   */\n    tag_50:\n        /* \"#utility.yul\":2661:2662   */\n      0x00\n        /* \"#utility.yul\":2671:2784   */\n    tag_71:\n        /* \"#utility.yul\":2685:2691   */\n      dup4\n        /* \"#utility.yul\":2682:2683   */\n      dup2\n        /* \"#utility.yul\":2679:2692   */\n      lt\n        /* \"#utility.yul\":2671:2784   */\n      iszero\n      tag_73\n      jumpi\n        /* \"#utility.yul\":2770:2771   */\n      dup1\n        /* \"#utility.yul\":2765:2768   */\n      dup3\n        /* \"#utility.yul\":2761:2772   */\n      add\n        /* \"#utility.yul\":2755:2773   */\n      mload\n        /* \"#utility.yul\":2751:2752   */\n      dup2\n        /* \"#utility.yul\":2746:2749   */\n      dup5\n        /* \"#utility.yul\":2742:2753   */\n      add\n        /* \"#utility.yul\":2735:2774   */\n      mstore\n        /* \"#utility.yul\":2707:2709   */\n      0x20\n        /* \"#utility.yul\":2704:2705   */\n      dup2\n        /* \"#utility.yul\":2700:2710   */\n      add\n        /* \"#utility.yul\":2695:2710   */\n      swap1\n      pop\n        /* \"#utility.yul\":2671:2784   */\n      jump(tag_71)\n    tag_73:\n        /* \"#utility.yul\":2802:2808   */\n      dup4\n        /* \"#utility.yul\":2799:2800   */\n      dup2\n        /* \"#utility.yul\":2796:2809   */\n      gt\n        /* \"#utility.yul\":2793:2894   */\n      iszero\n      tag_74\n      jumpi\n        /* \"#utility.yul\":2882:2883   */\n      0x00\n        /* \"#utility.yul\":2873:2879   */\n      dup5\n        /* \"#utility.yul\":2868:2871   */\n      dup5\n        /* \"#utility.yul\":2864:2880   */\n      add\n        /* \"#utility.yul\":2857:2884   */\n      mstore\n        /* \"#utility.yul\":2793:2894   */\n    tag_74:\n        /* \"#utility.yul\":2642:2900   */\n      pop\n        /* \"#utility.yul\":2593:2900   */\n      pop\n      pop\n      pop\n      jump\t// out\n        /* \"#utility.yul\":2906:3226   */\n    tag_17:\n        /* \"#utility.yul\":2950:2956   */\n      0x00\n        /* \"#utility.yul\":2987:2988   */\n      0x02\n        /* \"#utility.yul\":2981:2985   */\n      dup3\n        /* \"#utility.yul\":2977:2989   */\n      div\n        /* \"#utility.yul\":2967:2989   */\n      swap1\n      pop\n        /* \"#utility.yul\":3034:3035   */\n      0x01\n        /* \"#utility.yul\":3028:3032   */\n      dup3\n        /* \"#utility.yul\":3024:3036   */\n      and\n        /* \"#utility.yul\":3055:3073   */\n      dup1\n        /* \"#utility.yul\":3045:3126   */\n      tag_76\n      jumpi\n        /* \"#utility.yul\":3111:3115   */\n      0x7f\n        /* \"#utility.yul\":3103:3109   */\n      dup3\n        /* \"#utility.yul\":3099:3116   */\n      and\n        /* \"#utility.yul\":3089:3116   */\n      swap2\n      pop\n        /* \"#utility.yul\":3045:3126   */\n    tag_76:\n        /* \"#utility.yul\":3173:3175   */\n      0x20\n        /* \"#utility.yul\":3165:3171   */\n      dup3\n        /* \"#utility.yul\":3162:3176   */\n      lt\n        /* \"#utility.yul\":3142:3160   */\n      dup2\n        /* \"#utility.yul\":3139:3177   */\n      eq\n        /* \"#utility.yul\":3136:3220   */\n      iszero\n      tag_77\n      jumpi\n        /* \"#utility.yul\":3192:3210   */\n      tag_78\n      tag_79\n      jump\t// in\n    tag_78:\n        /* \"#utility.yul\":3136:3220   */\n    tag_77:\n        /* \"#utility.yul\":2957:3226   */\n      pop\n        /* \"#utility.yul\":2906:3226   */\n      swap2\n      swap1\n      pop\n      jump\t// out\n        /* \"#utility.yul\":3232:3412   */\n    tag_79:\n        /* \"#utility.yul\":3280:3357   */\n      0x4e487b7100000000000000000000000000000000000000000000000000000000\n        /* \"#utility.yul\":3277:3278   */\n      0x00\n        /* \"#utility.yul\":3270:3358   */\n      mstore\n        /* \"#utility.yul\":3377:3381   */\n      0x22\n        /* \"#utility.yul\":3374:3375   */\n      0x04\n        /* \"#utility.yul\":3367:3382   */\n      mstore\n        /* \"#utility.yul\":3401:3405   */\n      0x24\n        /* \"#utility.yul\":3398:3399   */\n      0x00\n        /* \"#utility.yul\":3391:3406   */\n      revert\n        /* \"#utility.yul\":3541:3658   */\n    tag_37:\n        /* \"#utility.yul\":3650:3651   */\n      0x00\n        /* \"#utility.yul\":3647:3648   */\n      dup1\n        /* \"#utility.yul\":3640:3652   */\n      revert\n        /* \"#utility.yul\":3664:3766   */\n    tag_52:\n        /* \"#utility.yul\":3705:3711   */\n      0x00\n        /* \"#utility.yul\":3756:3758   */\n      0x1f\n        /* \"#utility.yul\":3752:3759   */\n      not\n        /* \"#utility.yul\":3747:3749   */\n      0x1f\n        /* \"#utility.yul\":3740:3745   */\n      dup4\n        /* \"#utility.yul\":3736:3750   */\n      add\n        /* \"#utility.yul\":3732:3760   */\n      and\n        /* \"#utility.yul\":3722:3760   */\n      swap1\n      pop\n        /* \"#utility.yul\":3664:3766   */\n      swap2\n      swap1\n      pop\n      jump\t// out\n        /* \"#utility.yul\":3772:3894   */\n    tag_33:\n        /* \"#utility.yul\":3845:3869   */\n      tag_86\n        /* \"#utility.yul\":3863:3868   */\n      dup2\n        /* \"#utility.yul\":3845:3869   */\n      tag_56\n      jump\t// in\n    tag_86:\n        /* \"#utility.yul\":3838:3843   */\n      dup2\n        /* \"#utility.yul\":3835:3870   */\n      eq\n        /* \"#utility.yul\":3825:3888   */\n      tag_87\n      jumpi\n        /* \"#utility.yul\":3884:3885   */\n      0x00\n        /* \"#utility.yul\":3881:3882   */\n      dup1\n        /* \"#utility.yul\":3874:3886   */\n      revert\n        /* \"#utility.yul\":3825:3888   */\n    tag_87:\n        /* \"#utility.yul\":3772:3894   */\n      pop\n      jump\t// out\n\n    auxdata: 0xa26469706673582212202a299820f11c163ec8fedfb02ab00b2b721f8618f48e8aa516ea55071ca20e0164736f6c63430008070033\n}\n",
				"bytecode": {
					"linkReferences": {},
					"object": "608060405234801561001057600080fd5b5061043f806100206000396000f3fe608060405234801561001057600080fd5b50600436106100365760003560e01c80637acc0b201461003b578063e4bcc7d41461006e575b600080fd5b61005560048036038101906100509190610224565b61009e565b60405161006594939291906102ca565b60405180910390f35b61008860048036038101906100839190610224565b610163565b60405161009591906102a8565b60405180910390f35b60016020528060005260406000206000915090508060000154908060010154908060020180546100cd9061037b565b80601f01602080910402602001604051908101604052809291908181526020018280546100f99061037b565b80156101465780601f1061011b57610100808354040283529160200191610146565b820191906000526020600020905b81548152906001019060200180831161012957829003601f168201915b5050505050908060030160009054906101000a900460ff16905084565b6000818154811061017357600080fd5b90600052602060002001600091509050805461018e9061037b565b80601f01602080910402602001604051908101604052809291908181526020018280546101ba9061037b565b80156102075780601f106101dc57610100808354040283529160200191610207565b820191906000526020600020905b8154815290600101906020018083116101ea57829003601f168201915b505050505081565b60008135905061021e816103f2565b92915050565b60006020828403121561023a576102396103dc565b5b60006102488482850161020f565b91505092915050565b61025a81610332565b82525050565b600061026b82610316565b6102758185610321565b9350610285818560208601610348565b61028e816103e1565b840191505092915050565b6102a28161033e565b82525050565b600060208201905081810360008301526102c28184610260565b905092915050565b60006080820190506102df6000830187610299565b6102ec6020830186610299565b81810360408301526102fe8185610260565b905061030d6060830184610251565b95945050505050565b600081519050919050565b600082825260208201905092915050565b60008115159050919050565b6000819050919050565b60005b8381101561036657808201518184015260208101905061034b565b83811115610375576000848401525b50505050565b6000600282049050600182168061039357607f821691505b602082108114156103a7576103a66103ad565b5b50919050565b7f4e487b7100000000000000000000000000000000000000000000000000000000600052602260045260246000fd5b600080fd5b6000601f19601f8301169050919050565b6103fb8161033e565b811461040657600080fd5b5056fea26469706673582212202a299820f11c163ec8fedfb02ab00b2b721f8618f48e8aa516ea55071ca20e0164736f6c63430008070033",
					"opcodes": "PUSH1 0x80 PUSH1 0x40 MSTORE CALLVALUE DUP1 ISZERO PUSH2 0x10 JUMPI PUSH1 0x0 DUP1 REVERT JUMPDEST POP PUSH2 0x43F DUP1 PUSH2 0x20 PUSH1 0x0 CODECOPY PUSH1 0x0 RETURN INVALID PUSH1 0x80 PUSH1 0x40 MSTORE CALLVALUE DUP1 ISZERO PUSH2 0x10 JUMPI PUSH1 0x0 DUP1 REVERT JUMPDEST POP PUSH1 0x4 CALLDATASIZE LT PUSH2 0x36 JUMPI PUSH1 0x0 CALLDATALOAD PUSH1 0xE0 SHR DUP1 PUSH4 0x7ACC0B20 EQ PUSH2 0x3B JUMPI DUP1 PUSH4 0xE4BCC7D4 EQ PUSH2 0x6E JUMPI JUMPDEST PUSH1 0x0 DUP1 REVERT JUMPDEST PUSH2 0x55 PUSH1 0x4 DUP1 CALLDATASIZE SUB DUP2 ADD SWAP1 PUSH2 0x50 SWAP2 SWAP1 PUSH2 0x224 JUMP JUMPDEST PUSH2 0x9E JUMP JUMPDEST PUSH1 0x40 MLOAD PUSH2 0x65 SWAP5 SWAP4 SWAP3 SWAP2 SWAP1 PUSH2 0x2CA JUMP JUMPDEST PUSH1 0x40 MLOAD DUP1 SWAP2 SUB SWAP1 RETURN JUMPDEST PUSH2 0x88 PUSH1 0x4 DUP1 CALLDATASIZE SUB DUP2 ADD SWAP1 PUSH2 0x83 SWAP2 SWAP1 PUSH2 0x224 JUMP JUMPDEST PUSH2 0x163 JUMP JUMPDEST PUSH1 0x40 MLOAD PUSH2 0x95 SWAP2 SWAP1 PUSH2 0x2A8 JUMP JUMPDEST PUSH1 0x40 MLOAD DUP1 SWAP2 SUB SWAP1 RETURN JUMPDEST PUSH1 0x1 PUSH1 0x20 MSTORE DUP1 PUSH1 0x0 MSTORE PUSH1 0x40 PUSH1 0x0 KECCAK256 PUSH1 0x0 SWAP2 POP SWAP1 POP DUP1 PUSH1 0x0 ADD SLOAD SWAP1 DUP1 PUSH1 0x1 ADD SLOAD SWAP1 DUP1 PUSH1 0x2 ADD DUP1 SLOAD PUSH2 0xCD SWAP1 PUSH2 0x37B JUMP JUMPDEST DUP1 PUSH1 0x1F ADD PUSH1 0x20 DUP1 SWAP2 DIV MUL PUSH1 0x20 ADD PUSH1 0x40 MLOAD SWAP1 DUP2 ADD PUSH1 0x40 MSTORE DUP1 SWAP3 SWAP2 SWAP1 DUP2 DUP2 MSTORE PUSH1 0x20 ADD DUP3 DUP1 SLOAD PUSH2 0xF9 SWAP1 PUSH2 0x37B JUMP JUMPDEST DUP1 ISZERO PUSH2 0x146 JUMPI DUP1 PUSH1 0x1F LT PUSH2 0x11B JUMPI PUSH2 0x100 DUP1 DUP4 SLOAD DIV MUL DUP4 MSTORE SWAP2 PUSH1 0x20 ADD SWAP2 PUSH2 0x146 JUMP JUMPDEST DUP3 ADD SWAP2 SWAP1 PUSH1 0x0 MSTORE PUSH1 0x20 PUSH1 0x0 KECCAK256 SWAP1 JUMPDEST DUP2 SLOAD DUP2 MSTORE SWAP1 PUSH1 0x1 ADD SWAP1 PUSH1 0x20 ADD DUP1 DUP4 GT PUSH2 0x129 JUMPI DUP3 SWAP1 SUB PUSH1 0x1F AND DUP3 ADD SWAP2 JUMPDEST POP POP POP POP POP SWAP1 DUP1 PUSH1 0x3 ADD PUSH1 0x0 SWAP1 SLOAD SWAP1 PUSH2 0x100 EXP SWAP1 DIV PUSH1 0xFF AND SWAP1 POP DUP5 JUMP JUMPDEST PUSH1 0x0 DUP2 DUP2 SLOAD DUP2 LT PUSH2 0x173 JUMPI PUSH1 0x0 DUP1 REVERT JUMPDEST SWAP1 PUSH1 0x0 MSTORE PUSH1 0x20 PUSH1 0x0 KECCAK256 ADD PUSH1 0x0 SWAP2 POP SWAP1 POP DUP1 SLOAD PUSH2 0x18E SWAP1 PUSH2 0x37B JUMP JUMPDEST DUP1 PUSH1 0x1F ADD PUSH1 0x20 DUP1 SWAP2 DIV MUL PUSH1 0x20 ADD PUSH1 0x40 MLOAD SWAP1 DUP2 ADD PUSH1 0x40 MSTORE DUP1 SWAP3 SWAP2 SWAP1 DUP2 DUP2 MSTORE PUSH1 0x20 ADD DUP3 DUP1 SLOAD PUSH2 0x1BA SWAP1 PUSH2 0x37B JUMP JUMPDEST DUP1 ISZERO PUSH2 0x207 JUMPI DUP1 PUSH1 0x1F LT PUSH2 0x1DC JUMPI PUSH2 0x100 DUP1 DUP4 SLOAD DIV MUL DUP4 MSTORE SWAP2 PUSH1 0x20 ADD SWAP2 PUSH2 0x207 JUMP JUMPDEST DUP3 ADD SWAP2 SWAP1 PUSH1 0x0 MSTORE PUSH1 0x20 PUSH1 0x0 KECCAK256 SWAP1 JUMPDEST DUP2 SLOAD DUP2 MSTORE SWAP1 PUSH1 0x1 ADD SWAP1 PUSH1 0x20 ADD DUP1 DUP4 GT PUSH2 0x1EA JUMPI DUP3 SWAP1 SUB PUSH1 0x1F AND DUP3 ADD SWAP2 JUMPDEST POP POP POP POP POP DUP2 JUMP JUMPDEST PUSH1 0x0 DUP2 CALLDATALOAD SWAP1 POP PUSH2 0x21E DUP2 PUSH2 0x3F2 JUMP JUMPDEST SWAP3 SWAP2 POP POP JUMP JUMPDEST PUSH1 0x0 PUSH1 0x20 DUP3 DUP5 SUB SLT ISZERO PUSH2 0x23A JUMPI PUSH2 0x239 PUSH2 0x3DC JUMP JUMPDEST JUMPDEST PUSH1 0x0 PUSH2 0x248 DUP5 DUP3 DUP6 ADD PUSH2 0x20F JUMP JUMPDEST SWAP2 POP POP SWAP3 SWAP2 POP POP JUMP JUMPDEST PUSH2 0x25A DUP2 PUSH2 0x332 JUMP JUMPDEST DUP3 MSTORE POP POP JUMP JUMPDEST PUSH1 0x0 PUSH2 0x26B DUP3 PUSH2 0x316 JUMP JUMPDEST PUSH2 0x275 DUP2 DUP6 PUSH2 0x321 JUMP JUMPDEST SWAP4 POP PUSH2 0x285 DUP2 DUP6 PUSH1 0x20 DUP7 ADD PUSH2 0x348 JUMP JUMPDEST PUSH2 0x28E DUP2 PUSH2 0x3E1 JUMP JUMPDEST DUP5 ADD SWAP2 POP POP SWAP3 SWAP2 POP POP JUMP JUMPDEST PUSH2 0x2A2 DUP2 PUSH2 0x33E JUMP JUMPDEST DUP3 MSTORE POP POP JUMP JUMPDEST PUSH1 0x0 PUSH1 0x20 DUP3 ADD SWAP1 POP DUP2 DUP2 SUB PUSH1 0x0 DUP4 ADD MSTORE PUSH2 0x2C2 DUP2 DUP5 PUSH2 0x260 JUMP JUMPDEST SWAP1 POP SWAP3 SWAP2 POP POP JUMP JUMPDEST PUSH1 0x0 PUSH1 0x80 DUP3 ADD SWAP1 POP PUSH2 0x2DF PUSH1 0x0 DUP4 ADD DUP8 PUSH2 0x299 JUMP JUMPDEST PUSH2 0x2EC PUSH1 0x20 DUP4 ADD DUP7 PUSH2 0x299 JUMP JUMPDEST DUP2 DUP2 SUB PUSH1 0x40 DUP4 ADD MSTORE PUSH2 0x2FE DUP2 DUP6 PUSH2 0x260 JUMP JUMPDEST SWAP1 POP PUSH2 0x30D PUSH1 0x60 DUP4 ADD DUP5 PUSH2 0x251 JUMP JUMPDEST SWAP6 SWAP5 POP POP POP POP POP JUMP JUMPDEST PUSH1 0x0 DUP2 MLOAD SWAP1 POP SWAP2 SWAP1 POP JUMP JUMPDEST PUSH1 0x0 DUP3 DUP3 MSTORE PUSH1 0x20 DUP3 ADD SWAP1 POP SWAP3 SWAP2 POP POP JUMP JUMPDEST PUSH1 0x0 DUP2 ISZERO ISZERO SWAP1 POP SWAP2 SWAP1 POP JUMP JUMPDEST PUSH1 0x0 DUP2 SWAP1 POP SWAP2 SWAP1 POP JUMP JUMPDEST PUSH1 0x0 JUMPDEST DUP4 DUP2 LT ISZERO PUSH2 0x366 JUMPI DUP1 DUP3 ADD MLOAD DUP2 DUP5 ADD MSTORE PUSH1 0x20 DUP2 ADD SWAP1 POP PUSH2 0x34B JUMP JUMPDEST DUP4 DUP2 GT ISZERO PUSH2 0x375 JUMPI PUSH1 0x0 DUP5 DUP5 ADD MSTORE JUMPDEST POP POP POP POP JUMP JUMPDEST PUSH1 0x0 PUSH1 0x2 DUP3 DIV SWAP1 POP PUSH1 0x1 DUP3 AND DUP1 PUSH2 0x393 JUMPI PUSH1 0x7F DUP3 AND SWAP2 POP JUMPDEST PUSH1 0x20 DUP3 LT DUP2 EQ ISZERO PUSH2 0x3A7 JUMPI PUSH2 0x3A6 PUSH2 0x3AD JUMP JUMPDEST JUMPDEST POP SWAP2 SWAP1 POP JUMP JUMPDEST PUSH32 0x4E487B7100000000000000000000000000000000000000000000000000000000 PUSH1 0x0 MSTORE PUSH1 0x22 PUSH1 0x4 MSTORE PUSH1 0x24 PUSH1 0x0 REVERT JUMPDEST PUSH1 0x0 DUP1 REVERT JUMPDEST PUSH1 0x0 PUSH1 0x1F NOT PUSH1 0x1F DUP4 ADD AND SWAP1 POP SWAP2 SWAP1 POP JUMP JUMPDEST PUSH2 0x3FB DUP2 PUSH2 0x33E JUMP JUMPDEST DUP2 EQ PUSH2 0x406 JUMPI PUSH1 0x0 DUP1 REVERT JUMPDEST POP JUMP INVALID LOG2 PUSH5 0x6970667358 0x22 SLT KECCAK256 0x2A 0x29 SWAP9 KECCAK256 CALL SHR AND RETURNDATACOPY 0xC8 INVALID 0xDF 0xB0 0x2A 0xB0 SIGNEXTEND 0x2B PUSH19 0x1F8618F48E8AA516EA55071CA20E0164736F6C PUSH4 0x43000807 STOP CALLER "
				},
				"gasEstimates": {
					"creation": {
						"codeDepositCost": "217400",
						"executionCost": "257",
						"totalCost": "217657"
					},
					"external": {
						"availableProducts(uint256)": "infinite",
						"products(uint256)": "infinite"
					}
				},
				"methodIdentifiers": {
					"availableProducts(uint256)": "e4bcc7d4",
					"products(uint256)": "7acc0b20"
				}
			},
			"storageLayout": {
				"storage": [
					{
						"astId": 93,
						"contract": "Project/baseContracts.sol:Products",
						"label": "availableProducts",
						"offset": 0,
						"slot": "0",
						"type": "t_array(t_string_storage)dyn_storage"
					},
					{
						"astId": 98,
						"contract": "Project/baseContracts.sol:Products",
						"label": "products",
						"offset": 0,
						"slot": "1",
						"type": "t_mapping(t_uint256,t_struct(Product)90_storage)"
					},
					{
						"astId": 102,
						"contract": "Project/baseContracts.sol:Products",
						"label": "productMap",
						"offset": 0,
						"slot": "2",
						"type": "t_mapping(t_string_memory_ptr,t_bool)"
					}
				],
				"types": {
					"t_array(t_string_storage)dyn_storage": {
						"base": "t_string_storage",
						"encoding": "dynamic_array",
						"label": "string[]",
						"numberOfBytes": "32"
					},
					"t_bool": {
						"encoding": "inplace",
						"label": "bool",
						"numberOfBytes": "1"
					},
					"t_mapping(t_string_memory_ptr,t_bool)": {
						"encoding": "mapping",
						"key": "t_string_memory_ptr",
						"label": "mapping(string => bool)",
						"numberOfBytes": "32",
						"value": "t_bool"
					},
					"t_mapping(t_uint256,t_struct(Product)90_storage)": {
						"encoding": "mapping",
						"key": "t_uint256",
						"label": "mapping(uint256 => struct Products.Product)",
						"numberOfBytes": "32",
						"value": "t_struct(Product)90_storage"
					},
					"t_string_memory_ptr": {
						"encoding": "bytes",
						"label": "string",
						"numberOfBytes": "32"
					},
					"t_string_storage": {
						"encoding": "bytes",
						"label": "string",
						"numberOfBytes": "32"
					},
					"t_struct(Product)90_storage": {
						"encoding": "inplace",
						"label": "struct Products.Product",
						"members": [
							{
								"astId": 83,
								"contract": "Project/baseContracts.sol:Products",
								"label": "price",
								"offset": 0,
								"slot": "0",
								"type": "t_uint256"
							},
							{
								"astId": 85,
								"contract": "Project/baseContracts.sol:Products",
								"label": "quantity",
								"offset": 0,
								"slot": "1",
								"type": "t_uint256"
							},
							{
								"astId": 87,
								"contract": "Project/baseContracts.sol:Products",
								"label": "name",
								"offset": 0,
								"slot": "2",
								"type": "t_string_storage"
							},
							{
								"astId": 89,
								"contract": "Project/baseContracts.sol:Products",
								"label": "exists",
								"offset": 0,
								"slot": "3",
								"type": "t_bool"
							}
						],
						"numberOfBytes": "128"
					},
					"t_uint256": {
						"encoding": "inplace",
						"label": "uint256",
						"numberOfBytes": "32"
					}
				}
			},
			"userdoc": {
				"kind": "user",
				"methods": {},
				"version": 1
			}
		}
	}
}