{
	"Project/TechnoLime.sol": {
		"TechnoLimeStore": {
			"abi": [
				{
					"inputs": [],
					"stateMutability": "payable",
					"type": "constructor"
				},
				{
					"inputs": [],
					"name": "Blocks100Exceeded",
					"type": "error"
				},
				{
					"inputs": [],
					"name": "ItemIdWrongOrBoughtAlready",
					"type": "error"
				},
				{
					"inputs": [],
					"name": "LessThanPriceOrOutOfStock",
					"type": "error"
				},
				{
					"inputs": [],
					"name": "ProductExists",
					"type": "error"
				},
				{
					"inputs": [],
					"name": "ProductNotExistent",
					"type": "error"
				},
				{
					"inputs": [],
					"name": "TransactionNotExistent",
					"type": "error"
				},
				{
					"inputs": [
						{
							"internalType": "string",
							"name": "_name",
							"type": "string"
						},
						{
							"internalType": "uint256",
							"name": "_price",
							"type": "uint256"
						},
						{
							"internalType": "uint256",
							"name": "_quantity",
							"type": "uint256"
						}
					],
					"name": "addNewProduct",
					"outputs": [],
					"stateMutability": "nonpayable",
					"type": "function"
				},
				{
					"inputs": [
						{
							"internalType": "uint256",
							"name": "",
							"type": "uint256"
						}
					],
					"name": "availableProducts",
					"outputs": [
						{
							"internalType": "string",
							"name": "",
							"type": "string"
						}
					],
					"stateMutability": "view",
					"type": "function"
				},
				{
					"inputs": [
						{
							"internalType": "uint256",
							"name": "_id",
							"type": "uint256"
						}
					],
					"name": "buyProduct",
					"outputs": [],
					"stateMutability": "payable",
					"type": "function"
				},
				{
					"inputs": [
						{
							"internalType": "uint256",
							"name": "",
							"type": "uint256"
						},
						{
							"internalType": "uint256",
							"name": "",
							"type": "uint256"
						}
					],
					"name": "buyers",
					"outputs": [
						{
							"internalType": "address",
							"name": "",
							"type": "address"
						}
					],
					"stateMutability": "view",
					"type": "function"
				},
				{
					"inputs": [
						{
							"internalType": "uint256",
							"name": "",
							"type": "uint256"
						}
					],
					"name": "products",
					"outputs": [
						{
							"internalType": "uint256",
							"name": "price",
							"type": "uint256"
						},
						{
							"internalType": "uint256",
							"name": "quantity",
							"type": "uint256"
						},
						{
							"internalType": "string",
							"name": "name",
							"type": "string"
						},
						{
							"internalType": "bool",
							"name": "exists",
							"type": "bool"
						}
					],
					"stateMutability": "view",
					"type": "function"
				},
				{
					"inputs": [
						{
							"internalType": "uint256",
							"name": "_id",
							"type": "uint256"
						}
					],
					"name": "returnProduct",
					"outputs": [],
					"stateMutability": "nonpayable",
					"type": "function"
				},
				{
					"inputs": [
						{
							"internalType": "uint256",
							"name": "",
							"type": "uint256"
						},
						{
							"internalType": "address",
							"name": "",
							"type": "address"
						}
					],
					"name": "transactions",
					"outputs": [
						{
							"internalType": "uint256",
							"name": "blockNum",
							"type": "uint256"
						},
						{
							"internalType": "uint256",
							"name": "price",
							"type": "uint256"
						},
						{
							"internalType": "uint256",
							"name": "status",
							"type": "uint256"
						}
					],
					"stateMutability": "view",
					"type": "function"
				},
				{
					"inputs": [
						{
							"internalType": "uint256",
							"name": "_id",
							"type": "uint256"
						},
						{
							"internalType": "uint256",
							"name": "_quantity",
							"type": "uint256"
						}
					],
					"name": "updateQuantity",
					"outputs": [],
					"stateMutability": "nonpayable",
					"type": "function"
				}
			],
			"devdoc": {
				"kind": "dev",
				"methods": {},
				"version": 1
			},
			"evm": {
				"assembly": "    /* \"Project/TechnoLime.sol\":98:4684  contract TechnoLimeStore {\r... */\n  mstore(0x40, 0x80)\n  dataSize(sub_0)\n  dup1\n  dataOffset(sub_0)\n  0x00\n  codecopy\n  0x00\n  return\nstop\n\nsub_0: assembly {\n        /* \"Project/TechnoLime.sol\":98:4684  contract TechnoLimeStore {\r... */\n      mstore(0x40, 0x80)\n      jumpi(tag_1, lt(calldatasize, 0x04))\n      shr(0xe0, calldataload(0x00))\n      dup1\n      0x79cd4921\n      gt\n      tag_10\n      jumpi\n      dup1\n      0x79cd4921\n      eq\n      tag_6\n      jumpi\n      dup1\n      0x7acc0b20\n      eq\n      tag_7\n      jumpi\n      dup1\n      0x8642269e\n      eq\n      tag_8\n      jumpi\n      dup1\n      0xe4bcc7d4\n      eq\n      tag_9\n      jumpi\n      jump(tag_1)\n    tag_10:\n      dup1\n      0x0a5bd44b\n      eq\n      tag_2\n      jumpi\n      dup1\n      0x131e407d\n      eq\n      tag_3\n      jumpi\n      dup1\n      0x27e7875a\n      eq\n      tag_4\n      jumpi\n      dup1\n      0x74cbc350\n      eq\n      tag_5\n      jumpi\n    tag_1:\n      0x00\n      dup1\n      revert\n        /* \"Project/TechnoLime.sol\":1061:1715  function addNewProduct(string calldata _name, uint _price,uint _quantity) external{\r... */\n    tag_2:\n      callvalue\n      dup1\n      iszero\n      tag_11\n      jumpi\n      0x00\n      dup1\n      revert\n    tag_11:\n      pop\n      tag_12\n      0x04\n      dup1\n      calldatasize\n      sub\n      dup2\n      add\n      swap1\n      tag_13\n      swap2\n      swap1\n      tag_14\n      jump\t// in\n    tag_13:\n      tag_15\n      jump\t// in\n    tag_12:\n      stop\n        /* \"Project/TechnoLime.sol\":3547:4663  function returnProduct(uint _id) external {\r... */\n    tag_3:\n      callvalue\n      dup1\n      iszero\n      tag_16\n      jumpi\n      0x00\n      dup1\n      revert\n    tag_16:\n      pop\n      tag_17\n      0x04\n      dup1\n      calldatasize\n      sub\n      dup2\n      add\n      swap1\n      tag_18\n      swap2\n      swap1\n      tag_19\n      jump\t// in\n    tag_18:\n      tag_20\n      jump\t// in\n    tag_17:\n      stop\n        /* \"Project/TechnoLime.sol\":894:933  mapping(uint =>address[]) public buyers */\n    tag_4:\n      callvalue\n      dup1\n      iszero\n      tag_21\n      jumpi\n      0x00\n      dup1\n      revert\n    tag_21:\n      pop\n      tag_22\n      0x04\n      dup1\n      calldatasize\n      sub\n      dup2\n      add\n      swap1\n      tag_23\n      swap2\n      swap1\n      tag_24\n      jump\t// in\n    tag_23:\n      tag_25\n      jump\t// in\n    tag_22:\n      mload(0x40)\n      tag_26\n      swap2\n      swap1\n      tag_27\n      jump\t// in\n    tag_26:\n      mload(0x40)\n      dup1\n      swap2\n      sub\n      swap1\n      return\n        /* \"Project/TechnoLime.sol\":819:887  mapping(uint => mapping(address => Transaction)) public transactions */\n    tag_5:\n      callvalue\n      dup1\n      iszero\n      tag_28\n      jumpi\n      0x00\n      dup1\n      revert\n    tag_28:\n      pop\n      tag_29\n      0x04\n      dup1\n      calldatasize\n      sub\n      dup2\n      add\n      swap1\n      tag_30\n      swap2\n      swap1\n      tag_31\n      jump\t// in\n    tag_30:\n      tag_32\n      jump\t// in\n    tag_29:\n      mload(0x40)\n      tag_33\n      swap4\n      swap3\n      swap2\n      swap1\n      tag_34\n      jump\t// in\n    tag_33:\n      mload(0x40)\n      dup1\n      swap2\n      sub\n      swap1\n      return\n        /* \"Project/TechnoLime.sol\":1723:2057  function updateQuantity(uint _id,uint _quantity) external{\r... */\n    tag_6:\n      callvalue\n      dup1\n      iszero\n      tag_35\n      jumpi\n      0x00\n      dup1\n      revert\n    tag_35:\n      pop\n      tag_36\n      0x04\n      dup1\n      calldatasize\n      sub\n      dup2\n      add\n      swap1\n      tag_37\n      swap2\n      swap1\n      tag_24\n      jump\t// in\n    tag_37:\n      tag_38\n      jump\t// in\n    tag_36:\n      stop\n        /* \"Project/TechnoLime.sol\":634:674  mapping(uint => Product) public products */\n    tag_7:\n      callvalue\n      dup1\n      iszero\n      tag_39\n      jumpi\n      0x00\n      dup1\n      revert\n    tag_39:\n      pop\n      tag_40\n      0x04\n      dup1\n      calldatasize\n      sub\n      dup2\n      add\n      swap1\n      tag_41\n      swap2\n      swap1\n      tag_19\n      jump\t// in\n    tag_41:\n      tag_42\n      jump\t// in\n    tag_40:\n      mload(0x40)\n      tag_43\n      swap5\n      swap4\n      swap3\n      swap2\n      swap1\n      tag_44\n      jump\t// in\n    tag_43:\n      mload(0x40)\n      dup1\n      swap2\n      sub\n      swap1\n      return\n        /* \"Project/TechnoLime.sol\":2160:3421  function buyProduct (uint _id)  external payable { \r... */\n    tag_8:\n      tag_45\n      0x04\n      dup1\n      calldatasize\n      sub\n      dup2\n      add\n      swap1\n      tag_46\n      swap2\n      swap1\n      tag_19\n      jump\t// in\n    tag_46:\n      tag_47\n      jump\t// in\n    tag_45:\n      stop\n        /* \"Project/TechnoLime.sol\":594:627  string[] public availableProducts */\n    tag_9:\n      callvalue\n      dup1\n      iszero\n      tag_48\n      jumpi\n      0x00\n      dup1\n      revert\n    tag_48:\n      pop\n      tag_49\n      0x04\n      dup1\n      calldatasize\n      sub\n      dup2\n      add\n      swap1\n      tag_50\n      swap2\n      swap1\n      tag_19\n      jump\t// in\n    tag_50:\n      tag_51\n      jump\t// in\n    tag_49:\n      mload(0x40)\n      tag_52\n      swap2\n      swap1\n      tag_53\n      jump\t// in\n    tag_52:\n      mload(0x40)\n      dup1\n      swap2\n      sub\n      swap1\n      return\n        /* \"Project/TechnoLime.sol\":1061:1715  function addNewProduct(string calldata _name, uint _price,uint _quantity) external{\r... */\n    tag_15:\n        /* \"Project/TechnoLime.sol\":1160:1170  productMap */\n      0x02\n        /* \"Project/TechnoLime.sol\":1171:1176  _name */\n      dup5\n      dup5\n        /* \"Project/TechnoLime.sol\":1160:1177  productMap[_name] */\n      mload(0x40)\n      tag_55\n      swap3\n      swap2\n      swap1\n      tag_56\n      jump\t// in\n    tag_55:\n      swap1\n      dup2\n      mstore\n      0x20\n      add\n      mload(0x40)\n      dup1\n      swap2\n      sub\n      swap1\n      keccak256\n      0x00\n      swap1\n      sload\n      swap1\n      0x0100\n      exp\n      swap1\n      div\n      0xff\n      and\n        /* \"Project/TechnoLime.sol\":1155:1698  if (!productMap[_name]){\r... */\n      tag_57\n      jumpi\n        /* \"Project/TechnoLime.sol\":1194:1216  Product memory product */\n      tag_58\n      tag_59\n      jump\t// in\n    tag_58:\n        /* \"Project/TechnoLime.sol\":1248:1254  _price */\n      dup3\n        /* \"Project/TechnoLime.sol\":1232:1239  product */\n      dup2\n        /* \"Project/TechnoLime.sol\":1232:1245  product.price */\n      0x00\n      add\n        /* \"Project/TechnoLime.sol\":1232:1254  product.price = _price */\n      dup2\n      dup2\n      mstore\n      pop\n      pop\n        /* \"Project/TechnoLime.sol\":1289:1298  _quantity */\n      dup2\n        /* \"Project/TechnoLime.sol\":1270:1277  product */\n      dup2\n        /* \"Project/TechnoLime.sol\":1270:1286  product.quantity */\n      0x20\n      add\n        /* \"Project/TechnoLime.sol\":1270:1298  product.quantity = _quantity */\n      dup2\n      dup2\n      mstore\n      pop\n      pop\n        /* \"Project/TechnoLime.sol\":1329:1334  _name */\n      dup5\n      dup5\n        /* \"Project/TechnoLime.sol\":1314:1334  product.name = _name */\n      dup1\n      dup1\n      0x1f\n      add\n      0x20\n      dup1\n      swap2\n      div\n      mul\n      0x20\n      add\n      mload(0x40)\n      swap1\n      dup2\n      add\n      0x40\n      mstore\n      dup1\n      swap4\n      swap3\n      swap2\n      swap1\n      dup2\n      dup2\n      mstore\n      0x20\n      add\n      dup4\n      dup4\n      dup1\n      dup3\n      dup5\n      calldatacopy\n      0x00\n      dup2\n      dup5\n      add\n      mstore\n      not(0x1f)\n      0x1f\n      dup3\n      add\n      and\n      swap1\n      pop\n      dup1\n      dup4\n      add\n      swap3\n      pop\n      pop\n      pop\n      pop\n      pop\n      pop\n      pop\n        /* \"Project/TechnoLime.sol\":1314:1321  product */\n      dup2\n        /* \"Project/TechnoLime.sol\":1314:1326  product.name */\n      0x40\n      add\n        /* \"Project/TechnoLime.sol\":1314:1334  product.name = _name */\n      dup2\n      swap1\n      mstore\n      pop\n        /* \"Project/TechnoLime.sol\":1367:1371  true */\n      0x01\n        /* \"Project/TechnoLime.sol\":1350:1357  product */\n      dup2\n        /* \"Project/TechnoLime.sol\":1350:1364  product.exists */\n      0x60\n      add\n        /* \"Project/TechnoLime.sol\":1350:1371  product.exists = true */\n      swap1\n      iszero\n      iszero\n      swap1\n      dup2\n      iszero\n      iszero\n      dup2\n      mstore\n      pop\n      pop\n        /* \"Project/TechnoLime.sol\":1424:1431  product */\n      dup1\n        /* \"Project/TechnoLime.sol\":1387:1395  products */\n      0x01\n        /* \"Project/TechnoLime.sol\":1387:1421  products[availableProducts.length] */\n      0x00\n        /* \"Project/TechnoLime.sol\":1396:1413  availableProducts */\n      dup1\n        /* \"Project/TechnoLime.sol\":1396:1420  availableProducts.length */\n      dup1\n      sload\n      swap1\n      pop\n        /* \"Project/TechnoLime.sol\":1387:1421  products[availableProducts.length] */\n      dup2\n      mstore\n      0x20\n      add\n      swap1\n      dup2\n      mstore\n      0x20\n      add\n      0x00\n      keccak256\n        /* \"Project/TechnoLime.sol\":1387:1431  products[availableProducts.length] = product */\n      0x00\n      dup3\n      add\n      mload\n      dup2\n      0x00\n      add\n      sstore\n      0x20\n      dup3\n      add\n      mload\n      dup2\n      0x01\n      add\n      sstore\n      0x40\n      dup3\n      add\n      mload\n      dup2\n      0x02\n      add\n      swap1\n      dup1\n      mload\n      swap1\n      0x20\n      add\n      swap1\n      tag_60\n      swap3\n      swap2\n      swap1\n      tag_61\n      jump\t// in\n    tag_60:\n      pop\n      0x60\n      dup3\n      add\n      mload\n      dup2\n      0x03\n      add\n      exp(0x0100, 0x00)\n      dup2\n      sload\n      dup2\n      0xff\n      mul\n      not\n      and\n      swap1\n      dup4\n      iszero\n      iszero\n      mul\n      or\n      swap1\n      sstore\n      pop\n      swap1\n      pop\n      pop\n        /* \"Project/TechnoLime.sol\":1467:1471  true */\n      0x01\n        /* \"Project/TechnoLime.sol\":1447:1457  productMap */\n      0x02\n        /* \"Project/TechnoLime.sol\":1458:1463  _name */\n      dup7\n      dup7\n        /* \"Project/TechnoLime.sol\":1447:1464  productMap[_name] */\n      mload(0x40)\n      tag_62\n      swap3\n      swap2\n      swap1\n      tag_56\n      jump\t// in\n    tag_62:\n      swap1\n      dup2\n      mstore\n      0x20\n      add\n      mload(0x40)\n      dup1\n      swap2\n      sub\n      swap1\n      keccak256\n      0x00\n        /* \"Project/TechnoLime.sol\":1447:1471  productMap[_name] = true */\n      0x0100\n      exp\n      dup2\n      sload\n      dup2\n      0xff\n      mul\n      not\n      and\n      swap1\n      dup4\n      iszero\n      iszero\n      mul\n      or\n      swap1\n      sstore\n      pop\n        /* \"Project/TechnoLime.sol\":1487:1504  availableProducts */\n      0x00\n        /* \"Project/TechnoLime.sol\":1510:1515  _name */\n      dup6\n      dup6\n        /* \"Project/TechnoLime.sol\":1487:1516  availableProducts.push(_name) */\n      swap1\n      swap2\n      dup1\n      0x01\n      dup2\n      sload\n      add\n      dup1\n      dup3\n      sstore\n      dup1\n      swap2\n      pop\n      pop\n      0x01\n      swap1\n      sub\n      swap1\n      0x00\n      mstore\n      keccak256(0x00, 0x20)\n      add\n      0x00\n      swap1\n      swap2\n      swap3\n      swap1\n      swap2\n      swap3\n      swap1\n      swap2\n      swap3\n      swap1\n      swap2\n      swap3\n      pop\n      swap2\n      swap1\n      tag_64\n      swap3\n      swap2\n      swap1\n      tag_65\n      jump\t// in\n    tag_64:\n      pop\n        /* \"Project/TechnoLime.sol\":1178:1529  {\r... */\n      pop\n        /* \"Project/TechnoLime.sol\":1155:1698  if (!productMap[_name]){\r... */\n      jump(tag_66)\n    tag_57:\n        /* \"Project/TechnoLime.sol\":1663:1685  Errors.ProductExists() */\n      mload(0x40)\n      0xb185df3a00000000000000000000000000000000000000000000000000000000\n      dup2\n      mstore\n      0x04\n      add\n      mload(0x40)\n      dup1\n      swap2\n      sub\n      swap1\n      revert\n        /* \"Project/TechnoLime.sol\":1155:1698  if (!productMap[_name]){\r... */\n    tag_66:\n        /* \"Project/TechnoLime.sol\":1061:1715  function addNewProduct(string calldata _name, uint _price,uint _quantity) external{\r... */\n      pop\n      pop\n      pop\n      pop\n      jump\t// out\n        /* \"Project/TechnoLime.sol\":3547:4663  function returnProduct(uint _id) external {\r... */\n    tag_20:\n        /* \"Project/TechnoLime.sol\":3873:3874  1 */\n      0x01\n        /* \"Project/TechnoLime.sol\":3833:3845  transactions */\n      0x03\n        /* \"Project/TechnoLime.sol\":3833:3850  transactions[_id] */\n      0x00\n        /* \"Project/TechnoLime.sol\":3846:3849  _id */\n      dup4\n        /* \"Project/TechnoLime.sol\":3833:3850  transactions[_id] */\n      dup2\n      mstore\n      0x20\n      add\n      swap1\n      dup2\n      mstore\n      0x20\n      add\n      0x00\n      keccak256\n        /* \"Project/TechnoLime.sol\":3833:3862  transactions[_id][msg.sender] */\n      0x00\n        /* \"Project/TechnoLime.sol\":3851:3861  msg.sender */\n      caller\n        /* \"Project/TechnoLime.sol\":3833:3862  transactions[_id][msg.sender] */\n      0xffffffffffffffffffffffffffffffffffffffff\n      and\n      0xffffffffffffffffffffffffffffffffffffffff\n      and\n      dup2\n      mstore\n      0x20\n      add\n      swap1\n      dup2\n      mstore\n      0x20\n      add\n      0x00\n      keccak256\n        /* \"Project/TechnoLime.sol\":3833:3869  transactions[_id][msg.sender].status */\n      0x02\n      add\n      sload\n        /* \"Project/TechnoLime.sol\":3833:3874  transactions[_id][msg.sender].status == 1 */\n      eq\n        /* \"Project/TechnoLime.sol\":3829:4656  if (transactions[_id][msg.sender].status == 1){ \r... */\n      iszero\n      tag_68\n      jumpi\n        /* \"Project/TechnoLime.sol\":4003:4033  Transaction memory transaction */\n      0x00\n        /* \"Project/TechnoLime.sol\":4036:4048  transactions */\n      0x03\n        /* \"Project/TechnoLime.sol\":4036:4053  transactions[_id] */\n      0x00\n        /* \"Project/TechnoLime.sol\":4049:4052  _id */\n      dup4\n        /* \"Project/TechnoLime.sol\":4036:4053  transactions[_id] */\n      dup2\n      mstore\n      0x20\n      add\n      swap1\n      dup2\n      mstore\n      0x20\n      add\n      0x00\n      keccak256\n        /* \"Project/TechnoLime.sol\":4036:4065  transactions[_id][msg.sender] */\n      0x00\n        /* \"Project/TechnoLime.sol\":4054:4064  msg.sender */\n      caller\n        /* \"Project/TechnoLime.sol\":4036:4065  transactions[_id][msg.sender] */\n      0xffffffffffffffffffffffffffffffffffffffff\n      and\n      0xffffffffffffffffffffffffffffffffffffffff\n      and\n      dup2\n      mstore\n      0x20\n      add\n      swap1\n      dup2\n      mstore\n      0x20\n      add\n      0x00\n      keccak256\n        /* \"Project/TechnoLime.sol\":4003:4065  Transaction memory transaction = transactions[_id][msg.sender] */\n      mload(0x40)\n      dup1\n      0x60\n      add\n      0x40\n      mstore\n      swap1\n      dup2\n      0x00\n      dup3\n      add\n      sload\n      dup2\n      mstore\n      0x20\n      add\n      0x01\n      dup3\n      add\n      sload\n      dup2\n      mstore\n      0x20\n      add\n      0x02\n      dup3\n      add\n      sload\n      dup2\n      mstore\n      pop\n      pop\n      swap1\n      pop\n        /* \"Project/TechnoLime.sol\":4123:4126  100 */\n      0x64\n        /* \"Project/TechnoLime.sol\":4099:4110  transaction */\n      dup2\n        /* \"Project/TechnoLime.sol\":4099:4119  transaction.blockNum */\n      0x00\n      add\n      mload\n        /* \"Project/TechnoLime.sol\":4084:4096  block.number */\n      number\n        /* \"Project/TechnoLime.sol\":4084:4119  block.number - transaction.blockNum */\n      tag_69\n      swap2\n      swap1\n      tag_70\n      jump\t// in\n    tag_69:\n        /* \"Project/TechnoLime.sol\":4083:4126  (block.number - transaction.blockNum) > 100 */\n      gt\n        /* \"Project/TechnoLime.sol\":4080:4178  if((block.number - transaction.blockNum) > 100)\r... */\n      iszero\n      tag_71\n      jumpi\n        /* \"Project/TechnoLime.sol\":4152:4178  Errors.Blocks100Exceeded() */\n      mload(0x40)\n      0x6e9beb2100000000000000000000000000000000000000000000000000000000\n      dup2\n      mstore\n      0x04\n      add\n      mload(0x40)\n      dup1\n      swap2\n      sub\n      swap1\n      revert\n        /* \"Project/TechnoLime.sol\":4080:4178  if((block.number - transaction.blockNum) > 100)\r... */\n    tag_71:\n        /* \"Project/TechnoLime.sol\":4266:4267  2 */\n      0x02\n        /* \"Project/TechnoLime.sol\":4227:4239  transactions */\n      0x03\n        /* \"Project/TechnoLime.sol\":4227:4244  transactions[_id] */\n      0x00\n        /* \"Project/TechnoLime.sol\":4240:4243  _id */\n      dup5\n        /* \"Project/TechnoLime.sol\":4227:4244  transactions[_id] */\n      dup2\n      mstore\n      0x20\n      add\n      swap1\n      dup2\n      mstore\n      0x20\n      add\n      0x00\n      keccak256\n        /* \"Project/TechnoLime.sol\":4227:4256  transactions[_id][msg.sender] */\n      0x00\n        /* \"Project/TechnoLime.sol\":4245:4255  msg.sender */\n      caller\n        /* \"Project/TechnoLime.sol\":4227:4256  transactions[_id][msg.sender] */\n      0xffffffffffffffffffffffffffffffffffffffff\n      and\n      0xffffffffffffffffffffffffffffffffffffffff\n      and\n      dup2\n      mstore\n      0x20\n      add\n      swap1\n      dup2\n      mstore\n      0x20\n      add\n      0x00\n      keccak256\n        /* \"Project/TechnoLime.sol\":4227:4263  transactions[_id][msg.sender].status */\n      0x02\n      add\n        /* \"Project/TechnoLime.sol\":4227:4267  transactions[_id][msg.sender].status = 2 */\n      dup2\n      swap1\n      sstore\n      pop\n        /* \"Project/TechnoLime.sol\":4314:4322  products */\n      0x01\n        /* \"Project/TechnoLime.sol\":4314:4327  products[_id] */\n      0x00\n        /* \"Project/TechnoLime.sol\":4323:4326  _id */\n      dup4\n        /* \"Project/TechnoLime.sol\":4314:4327  products[_id] */\n      dup2\n      mstore\n      0x20\n      add\n      swap1\n      dup2\n      mstore\n      0x20\n      add\n      0x00\n      keccak256\n        /* \"Project/TechnoLime.sol\":4314:4336  products[_id].quantity */\n      0x01\n      add\n      0x00\n        /* \"Project/TechnoLime.sol\":4314:4339  products[_id].quantity ++ */\n      dup2\n      sload\n      dup1\n      swap3\n      swap2\n      swap1\n      tag_72\n      swap1\n      tag_73\n      jump\t// in\n    tag_72:\n      swap2\n      swap1\n      pop\n      sstore\n      pop\n        /* \"Project/TechnoLime.sol\":4408:4418  msg.sender */\n      caller\n        /* \"Project/TechnoLime.sol\":4400:4424  payable(msg.sender).call */\n      0xffffffffffffffffffffffffffffffffffffffff\n      and\n        /* \"Project/TechnoLime.sol\":4431:4442  transaction */\n      dup2\n        /* \"Project/TechnoLime.sol\":4431:4448  transaction.price */\n      0x20\n      add\n      mload\n        /* \"Project/TechnoLime.sol\":4400:4453  payable(msg.sender).call{value:transaction.price}(\"\") */\n      mload(0x40)\n      tag_74\n      swap1\n      tag_75\n      jump\t// in\n    tag_74:\n      0x00\n      mload(0x40)\n      dup1\n      dup4\n      sub\n      dup2\n      dup6\n      dup8\n      gas\n      call\n      swap3\n      pop\n      pop\n      pop\n      returndatasize\n      dup1\n      0x00\n      dup2\n      eq\n      tag_78\n      jumpi\n      mload(0x40)\n      swap2\n      pop\n      and(add(returndatasize, 0x3f), not(0x1f))\n      dup3\n      add\n      0x40\n      mstore\n      returndatasize\n      dup3\n      mstore\n      returndatasize\n      0x00\n      0x20\n      dup5\n      add\n      returndatacopy\n      jump(tag_77)\n    tag_78:\n      0x60\n      swap2\n      pop\n    tag_77:\n      pop\n      pop\n      pop\n        /* \"Project/TechnoLime.sol\":3875:4479  { \r... */\n      pop\n        /* \"Project/TechnoLime.sol\":3829:4656  if (transactions[_id][msg.sender].status == 1){ \r... */\n      jump(tag_79)\n    tag_68:\n        /* \"Project/TechnoLime.sol\":4613:4644  Errors.TransactionNotExistent() */\n      mload(0x40)\n      0xc55091df00000000000000000000000000000000000000000000000000000000\n      dup2\n      mstore\n      0x04\n      add\n      mload(0x40)\n      dup1\n      swap2\n      sub\n      swap1\n      revert\n        /* \"Project/TechnoLime.sol\":3829:4656  if (transactions[_id][msg.sender].status == 1){ \r... */\n    tag_79:\n        /* \"Project/TechnoLime.sol\":3547:4663  function returnProduct(uint _id) external {\r... */\n      pop\n      jump\t// out\n        /* \"Project/TechnoLime.sol\":894:933  mapping(uint =>address[]) public buyers */\n    tag_25:\n      mstore(0x20, 0x04)\n      dup2\n      0x00\n      mstore\n      keccak256(0x00, 0x40)\n      dup2\n      dup2\n      sload\n      dup2\n      lt\n      tag_80\n      jumpi\n      0x00\n      dup1\n      revert\n    tag_80:\n      swap1\n      0x00\n      mstore\n      keccak256(0x00, 0x20)\n      add\n      0x00\n      swap2\n      pop\n      swap2\n      pop\n      swap1\n      sload\n      swap1\n      0x0100\n      exp\n      swap1\n      div\n      0xffffffffffffffffffffffffffffffffffffffff\n      and\n      dup2\n      jump\t// out\n        /* \"Project/TechnoLime.sol\":819:887  mapping(uint => mapping(address => Transaction)) public transactions */\n    tag_32:\n      mstore(0x20, 0x03)\n      dup2\n      0x00\n      mstore\n      mstore(0x20, keccak256(0x00, 0x40))\n      dup1\n      0x00\n      mstore\n      keccak256(0x00, 0x40)\n      0x00\n      swap2\n      pop\n      swap2\n      pop\n      pop\n      dup1\n      0x00\n      add\n      sload\n      swap1\n      dup1\n      0x01\n      add\n      sload\n      swap1\n      dup1\n      0x02\n      add\n      sload\n      swap1\n      pop\n      dup4\n      jump\t// out\n        /* \"Project/TechnoLime.sol\":1723:2057  function updateQuantity(uint _id,uint _quantity) external{\r... */\n    tag_38:\n        /* \"Project/TechnoLime.sol\":1795:1803  products */\n      0x01\n        /* \"Project/TechnoLime.sol\":1795:1808  products[_id] */\n      0x00\n        /* \"Project/TechnoLime.sol\":1804:1807  _id */\n      dup4\n        /* \"Project/TechnoLime.sol\":1795:1808  products[_id] */\n      dup2\n      mstore\n      0x20\n      add\n      swap1\n      dup2\n      mstore\n      0x20\n      add\n      0x00\n      keccak256\n        /* \"Project/TechnoLime.sol\":1795:1815  products[_id].exists */\n      0x03\n      add\n      0x00\n      swap1\n      sload\n      swap1\n      0x0100\n      exp\n      swap1\n      div\n      0xff\n      and\n        /* \"Project/TechnoLime.sol\":1791:2050  if (products[_id].exists){\r... */\n      iszero\n      tag_83\n      jumpi\n        /* \"Project/TechnoLime.sol\":1857:1866  _quantity */\n      dup1\n        /* \"Project/TechnoLime.sol\":1831:1839  products */\n      0x01\n        /* \"Project/TechnoLime.sol\":1831:1844  products[_id] */\n      0x00\n        /* \"Project/TechnoLime.sol\":1840:1843  _id */\n      dup5\n        /* \"Project/TechnoLime.sol\":1831:1844  products[_id] */\n      dup2\n      mstore\n      0x20\n      add\n      swap1\n      dup2\n      mstore\n      0x20\n      add\n      0x00\n      keccak256\n        /* \"Project/TechnoLime.sol\":1831:1853  products[_id].quantity */\n      0x01\n      add\n      0x00\n        /* \"Project/TechnoLime.sol\":1831:1866  products[_id].quantity += _quantity */\n      dup3\n      dup3\n      sload\n      tag_84\n      swap2\n      swap1\n      tag_85\n      jump\t// in\n    tag_84:\n      swap3\n      pop\n      pop\n      dup2\n      swap1\n      sstore\n      pop\n        /* \"Project/TechnoLime.sol\":1791:2050  if (products[_id].exists){\r... */\n      jump(tag_86)\n    tag_83:\n        /* \"Project/TechnoLime.sol\":2011:2038  Errors.ProductNotExistent() */\n      mload(0x40)\n      0x7e8d96a900000000000000000000000000000000000000000000000000000000\n      dup2\n      mstore\n      0x04\n      add\n      mload(0x40)\n      dup1\n      swap2\n      sub\n      swap1\n      revert\n        /* \"Project/TechnoLime.sol\":1791:2050  if (products[_id].exists){\r... */\n    tag_86:\n        /* \"Project/TechnoLime.sol\":1723:2057  function updateQuantity(uint _id,uint _quantity) external{\r... */\n      pop\n      pop\n      jump\t// out\n        /* \"Project/TechnoLime.sol\":634:674  mapping(uint => Product) public products */\n    tag_42:\n      mstore(0x20, 0x01)\n      dup1\n      0x00\n      mstore\n      keccak256(0x00, 0x40)\n      0x00\n      swap2\n      pop\n      swap1\n      pop\n      dup1\n      0x00\n      add\n      sload\n      swap1\n      dup1\n      0x01\n      add\n      sload\n      swap1\n      dup1\n      0x02\n      add\n      dup1\n      sload\n      tag_87\n      swap1\n      tag_88\n      jump\t// in\n    tag_87:\n      dup1\n      0x1f\n      add\n      0x20\n      dup1\n      swap2\n      div\n      mul\n      0x20\n      add\n      mload(0x40)\n      swap1\n      dup2\n      add\n      0x40\n      mstore\n      dup1\n      swap3\n      swap2\n      swap1\n      dup2\n      dup2\n      mstore\n      0x20\n      add\n      dup3\n      dup1\n      sload\n      tag_89\n      swap1\n      tag_88\n      jump\t// in\n    tag_89:\n      dup1\n      iszero\n      tag_90\n      jumpi\n      dup1\n      0x1f\n      lt\n      tag_91\n      jumpi\n      0x0100\n      dup1\n      dup4\n      sload\n      div\n      mul\n      dup4\n      mstore\n      swap2\n      0x20\n      add\n      swap2\n      jump(tag_90)\n    tag_91:\n      dup3\n      add\n      swap2\n      swap1\n      0x00\n      mstore\n      keccak256(0x00, 0x20)\n      swap1\n    tag_92:\n      dup2\n      sload\n      dup2\n      mstore\n      swap1\n      0x01\n      add\n      swap1\n      0x20\n      add\n      dup1\n      dup4\n      gt\n      tag_92\n      jumpi\n      dup3\n      swap1\n      sub\n      0x1f\n      and\n      dup3\n      add\n      swap2\n    tag_90:\n      pop\n      pop\n      pop\n      pop\n      pop\n      swap1\n      dup1\n      0x03\n      add\n      0x00\n      swap1\n      sload\n      swap1\n      0x0100\n      exp\n      swap1\n      div\n      0xff\n      and\n      swap1\n      pop\n      dup5\n      jump\t// out\n        /* \"Project/TechnoLime.sol\":2160:3421  function buyProduct (uint _id)  external payable { \r... */\n    tag_47:\n        /* \"Project/TechnoLime.sol\":2336:2353  availableProducts */\n      0x00\n        /* \"Project/TechnoLime.sol\":2336:2360  availableProducts.length */\n      dup1\n      sload\n      swap1\n      pop\n        /* \"Project/TechnoLime.sol\":2330:2333  _id */\n      dup2\n        /* \"Project/TechnoLime.sol\":2330:2360  _id < availableProducts.length */\n      lt\n        /* \"Project/TechnoLime.sol\":2330:2405  _id < availableProducts.length && transactions[_id][msg.sender].status != 1 */\n      dup1\n      iszero\n      tag_94\n      jumpi\n      pop\n        /* \"Project/TechnoLime.sol\":2404:2405  1 */\n      0x01\n        /* \"Project/TechnoLime.sol\":2364:2376  transactions */\n      0x03\n        /* \"Project/TechnoLime.sol\":2364:2381  transactions[_id] */\n      0x00\n        /* \"Project/TechnoLime.sol\":2377:2380  _id */\n      dup4\n        /* \"Project/TechnoLime.sol\":2364:2381  transactions[_id] */\n      dup2\n      mstore\n      0x20\n      add\n      swap1\n      dup2\n      mstore\n      0x20\n      add\n      0x00\n      keccak256\n        /* \"Project/TechnoLime.sol\":2364:2393  transactions[_id][msg.sender] */\n      0x00\n        /* \"Project/TechnoLime.sol\":2382:2392  msg.sender */\n      caller\n        /* \"Project/TechnoLime.sol\":2364:2393  transactions[_id][msg.sender] */\n      0xffffffffffffffffffffffffffffffffffffffff\n      and\n      0xffffffffffffffffffffffffffffffffffffffff\n      and\n      dup2\n      mstore\n      0x20\n      add\n      swap1\n      dup2\n      mstore\n      0x20\n      add\n      0x00\n      keccak256\n        /* \"Project/TechnoLime.sol\":2364:2400  transactions[_id][msg.sender].status */\n      0x02\n      add\n      sload\n        /* \"Project/TechnoLime.sol\":2364:2405  transactions[_id][msg.sender].status != 1 */\n      eq\n      iszero\n        /* \"Project/TechnoLime.sol\":2330:2405  _id < availableProducts.length && transactions[_id][msg.sender].status != 1 */\n    tag_94:\n        /* \"Project/TechnoLime.sol\":2327:3401  if(_id < availableProducts.length && transactions[_id][msg.sender].status != 1){\r... */\n      iszero\n      tag_95\n      jumpi\n        /* \"Project/TechnoLime.sol\":2559:2581  Product memory product */\n      0x00\n        /* \"Project/TechnoLime.sol\":2583:2591  products */\n      0x01\n        /* \"Project/TechnoLime.sol\":2583:2596  products[_id] */\n      0x00\n        /* \"Project/TechnoLime.sol\":2592:2595  _id */\n      dup4\n        /* \"Project/TechnoLime.sol\":2583:2596  products[_id] */\n      dup2\n      mstore\n      0x20\n      add\n      swap1\n      dup2\n      mstore\n      0x20\n      add\n      0x00\n      keccak256\n        /* \"Project/TechnoLime.sol\":2559:2596  Product memory product= products[_id] */\n      mload(0x40)\n      dup1\n      0x80\n      add\n      0x40\n      mstore\n      swap1\n      dup2\n      0x00\n      dup3\n      add\n      sload\n      dup2\n      mstore\n      0x20\n      add\n      0x01\n      dup3\n      add\n      sload\n      dup2\n      mstore\n      0x20\n      add\n      0x02\n      dup3\n      add\n      dup1\n      sload\n      tag_96\n      swap1\n      tag_88\n      jump\t// in\n    tag_96:\n      dup1\n      0x1f\n      add\n      0x20\n      dup1\n      swap2\n      div\n      mul\n      0x20\n      add\n      mload(0x40)\n      swap1\n      dup2\n      add\n      0x40\n      mstore\n      dup1\n      swap3\n      swap2\n      swap1\n      dup2\n      dup2\n      mstore\n      0x20\n      add\n      dup3\n      dup1\n      sload\n      tag_97\n      swap1\n      tag_88\n      jump\t// in\n    tag_97:\n      dup1\n      iszero\n      tag_98\n      jumpi\n      dup1\n      0x1f\n      lt\n      tag_99\n      jumpi\n      0x0100\n      dup1\n      dup4\n      sload\n      div\n      mul\n      dup4\n      mstore\n      swap2\n      0x20\n      add\n      swap2\n      jump(tag_98)\n    tag_99:\n      dup3\n      add\n      swap2\n      swap1\n      0x00\n      mstore\n      keccak256(0x00, 0x20)\n      swap1\n    tag_100:\n      dup2\n      sload\n      dup2\n      mstore\n      swap1\n      0x01\n      add\n      swap1\n      0x20\n      add\n      dup1\n      dup4\n      gt\n      tag_100\n      jumpi\n      dup3\n      swap1\n      sub\n      0x1f\n      and\n      dup3\n      add\n      swap2\n    tag_98:\n      pop\n      pop\n      pop\n      pop\n      pop\n      dup2\n      mstore\n      0x20\n      add\n      0x03\n      dup3\n      add\n      0x00\n      swap1\n      sload\n      swap1\n      0x0100\n      exp\n      swap1\n      div\n      0xff\n      and\n      iszero\n      iszero\n      iszero\n      iszero\n      dup2\n      mstore\n      pop\n      pop\n      swap1\n      pop\n        /* \"Project/TechnoLime.sol\":2626:2633  product */\n      dup1\n        /* \"Project/TechnoLime.sol\":2626:2639  product.price */\n      0x00\n      add\n      mload\n        /* \"Project/TechnoLime.sol\":2614:2623  msg.value */\n      callvalue\n        /* \"Project/TechnoLime.sol\":2614:2639  msg.value < product.price */\n      lt\n        /* \"Project/TechnoLime.sol\":2614:2663  msg.value < product.price || product.quantity < 1 */\n      dup1\n      tag_101\n      jumpi\n      pop\n        /* \"Project/TechnoLime.sol\":2662:2663  1 */\n      0x01\n        /* \"Project/TechnoLime.sol\":2643:2650  product */\n      dup2\n        /* \"Project/TechnoLime.sol\":2643:2659  product.quantity */\n      0x20\n      add\n      mload\n        /* \"Project/TechnoLime.sol\":2643:2663  product.quantity < 1 */\n      lt\n        /* \"Project/TechnoLime.sol\":2614:2663  msg.value < product.price || product.quantity < 1 */\n    tag_101:\n        /* \"Project/TechnoLime.sol\":2611:2791  if(msg.value < product.price || product.quantity < 1)\r... */\n      iszero\n      tag_102\n      jumpi\n        /* \"Project/TechnoLime.sol\":2757:2791  Errors.LessThanPriceOrOutOfStock() */\n      mload(0x40)\n      0xf80236cc00000000000000000000000000000000000000000000000000000000\n      dup2\n      mstore\n      0x04\n      add\n      mload(0x40)\n      dup1\n      swap2\n      sub\n      swap1\n      revert\n        /* \"Project/TechnoLime.sol\":2611:2791  if(msg.value < product.price || product.quantity < 1)\r... */\n    tag_102:\n        /* \"Project/TechnoLime.sol\":2808:2841  Transaction memory newTransaction */\n      tag_103\n      tag_104\n      jump\t// in\n    tag_103:\n        /* \"Project/TechnoLime.sol\":2882:2894  block.number */\n      number\n        /* \"Project/TechnoLime.sol\":2856:2870  newTransaction */\n      dup2\n        /* \"Project/TechnoLime.sol\":2856:2879  newTransaction.blockNum */\n      0x00\n      add\n        /* \"Project/TechnoLime.sol\":2856:2894  newTransaction.blockNum = block.number */\n      dup2\n      dup2\n      mstore\n      pop\n      pop\n        /* \"Project/TechnoLime.sol\":2932:2939  product */\n      dup2\n        /* \"Project/TechnoLime.sol\":2932:2945  product.price */\n      0x00\n      add\n      mload\n        /* \"Project/TechnoLime.sol\":2909:2923  newTransaction */\n      dup2\n        /* \"Project/TechnoLime.sol\":2909:2929  newTransaction.price */\n      0x20\n      add\n        /* \"Project/TechnoLime.sol\":2909:2945  newTransaction.price = product.price */\n      dup2\n      dup2\n      mstore\n      pop\n      pop\n        /* \"Project/TechnoLime.sol\":2984:2985  1 */\n      0x01\n        /* \"Project/TechnoLime.sol\":2960:2974  newTransaction */\n      dup2\n        /* \"Project/TechnoLime.sol\":2960:2981  newTransaction.status */\n      0x40\n      add\n        /* \"Project/TechnoLime.sol\":2960:2985  newTransaction.status = 1 */\n      dup2\n      dup2\n      mstore\n      pop\n      pop\n        /* \"Project/TechnoLime.sol\":3064:3078  newTransaction */\n      dup1\n        /* \"Project/TechnoLime.sol\":3032:3044  transactions */\n      0x03\n        /* \"Project/TechnoLime.sol\":3032:3049  transactions[_id] */\n      0x00\n        /* \"Project/TechnoLime.sol\":3045:3048  _id */\n      dup6\n        /* \"Project/TechnoLime.sol\":3032:3049  transactions[_id] */\n      dup2\n      mstore\n      0x20\n      add\n      swap1\n      dup2\n      mstore\n      0x20\n      add\n      0x00\n      keccak256\n        /* \"Project/TechnoLime.sol\":3032:3061  transactions[_id][msg.sender] */\n      0x00\n        /* \"Project/TechnoLime.sol\":3050:3060  msg.sender */\n      caller\n        /* \"Project/TechnoLime.sol\":3032:3061  transactions[_id][msg.sender] */\n      0xffffffffffffffffffffffffffffffffffffffff\n      and\n      0xffffffffffffffffffffffffffffffffffffffff\n      and\n      dup2\n      mstore\n      0x20\n      add\n      swap1\n      dup2\n      mstore\n      0x20\n      add\n      0x00\n      keccak256\n        /* \"Project/TechnoLime.sol\":3032:3078  transactions[_id][msg.sender] = newTransaction */\n      0x00\n      dup3\n      add\n      mload\n      dup2\n      0x00\n      add\n      sstore\n      0x20\n      dup3\n      add\n      mload\n      dup2\n      0x01\n      add\n      sstore\n      0x40\n      dup3\n      add\n      mload\n      dup2\n      0x02\n      add\n      sstore\n      swap1\n      pop\n      pop\n        /* \"Project/TechnoLime.sol\":3095:3102  product */\n      dup2\n        /* \"Project/TechnoLime.sol\":3095:3111  product.quantity */\n      0x20\n      add\n        /* \"Project/TechnoLime.sol\":3095:3113  product.quantity-- */\n      dup1\n      mload\n      dup1\n      swap2\n      swap1\n      tag_105\n      swap1\n      tag_106\n      jump\t// in\n    tag_105:\n      dup2\n      mstore\n      pop\n      pop\n        /* \"Project/TechnoLime.sol\":3174:3181  product */\n      dup2\n        /* \"Project/TechnoLime.sol\":3160:3168  products */\n      0x01\n        /* \"Project/TechnoLime.sol\":3160:3173  products[_id] */\n      0x00\n        /* \"Project/TechnoLime.sol\":3169:3172  _id */\n      dup6\n        /* \"Project/TechnoLime.sol\":3160:3173  products[_id] */\n      dup2\n      mstore\n      0x20\n      add\n      swap1\n      dup2\n      mstore\n      0x20\n      add\n      0x00\n      keccak256\n        /* \"Project/TechnoLime.sol\":3160:3181  products[_id]=product */\n      0x00\n      dup3\n      add\n      mload\n      dup2\n      0x00\n      add\n      sstore\n      0x20\n      dup3\n      add\n      mload\n      dup2\n      0x01\n      add\n      sstore\n      0x40\n      dup3\n      add\n      mload\n      dup2\n      0x02\n      add\n      swap1\n      dup1\n      mload\n      swap1\n      0x20\n      add\n      swap1\n      tag_107\n      swap3\n      swap2\n      swap1\n      tag_61\n      jump\t// in\n    tag_107:\n      pop\n      0x60\n      dup3\n      add\n      mload\n      dup2\n      0x03\n      add\n      exp(0x0100, 0x00)\n      dup2\n      sload\n      dup2\n      0xff\n      mul\n      not\n      and\n      swap1\n      dup4\n      iszero\n      iszero\n      mul\n      or\n      swap1\n      sstore\n      pop\n      swap1\n      pop\n      pop\n        /* \"Project/TechnoLime.sol\":3222:3228  buyers */\n      0x04\n        /* \"Project/TechnoLime.sol\":3222:3233  buyers[_id] */\n      0x00\n        /* \"Project/TechnoLime.sol\":3229:3232  _id */\n      dup5\n        /* \"Project/TechnoLime.sol\":3222:3233  buyers[_id] */\n      dup2\n      mstore\n      0x20\n      add\n      swap1\n      dup2\n      mstore\n      0x20\n      add\n      0x00\n      keccak256\n        /* \"Project/TechnoLime.sol\":3239:3249  msg.sender */\n      caller\n        /* \"Project/TechnoLime.sol\":3222:3250  buyers[_id].push(msg.sender) */\n      swap1\n      dup1\n      0x01\n      dup2\n      sload\n      add\n      dup1\n      dup3\n      sstore\n      dup1\n      swap2\n      pop\n      pop\n      0x01\n      swap1\n      sub\n      swap1\n      0x00\n      mstore\n      keccak256(0x00, 0x20)\n      add\n      0x00\n      swap1\n      swap2\n      swap1\n      swap2\n      swap1\n      swap2\n      0x0100\n      exp\n      dup2\n      sload\n      dup2\n      0xffffffffffffffffffffffffffffffffffffffff\n      mul\n      not\n      and\n      swap1\n      dup4\n      0xffffffffffffffffffffffffffffffffffffffff\n      and\n      mul\n      or\n      swap1\n      sstore\n      pop\n        /* \"Project/TechnoLime.sol\":2406:3264  {\r... */\n      pop\n      pop\n        /* \"Project/TechnoLime.sol\":2327:3401  if(_id < availableProducts.length && transactions[_id][msg.sender].status != 1){\r... */\n      jump(tag_109)\n    tag_95:\n        /* \"Project/TechnoLime.sol\":3354:3389  Errors.ItemIdWrongOrBoughtAlready() */\n      mload(0x40)\n      0xd42c9b8b00000000000000000000000000000000000000000000000000000000\n      dup2\n      mstore\n      0x04\n      add\n      mload(0x40)\n      dup1\n      swap2\n      sub\n      swap1\n      revert\n        /* \"Project/TechnoLime.sol\":2327:3401  if(_id < availableProducts.length && transactions[_id][msg.sender].status != 1){\r... */\n    tag_109:\n        /* \"Project/TechnoLime.sol\":2160:3421  function buyProduct (uint _id)  external payable { \r... */\n      pop\n      jump\t// out\n        /* \"Project/TechnoLime.sol\":594:627  string[] public availableProducts */\n    tag_51:\n      0x00\n      dup2\n      dup2\n      sload\n      dup2\n      lt\n      tag_110\n      jumpi\n      0x00\n      dup1\n      revert\n    tag_110:\n      swap1\n      0x00\n      mstore\n      keccak256(0x00, 0x20)\n      add\n      0x00\n      swap2\n      pop\n      swap1\n      pop\n      dup1\n      sload\n      tag_112\n      swap1\n      tag_88\n      jump\t// in\n    tag_112:\n      dup1\n      0x1f\n      add\n      0x20\n      dup1\n      swap2\n      div\n      mul\n      0x20\n      add\n      mload(0x40)\n      swap1\n      dup2\n      add\n      0x40\n      mstore\n      dup1\n      swap3\n      swap2\n      swap1\n      dup2\n      dup2\n      mstore\n      0x20\n      add\n      dup3\n      dup1\n      sload\n      tag_113\n      swap1\n      tag_88\n      jump\t// in\n    tag_113:\n      dup1\n      iszero\n      tag_114\n      jumpi\n      dup1\n      0x1f\n      lt\n      tag_115\n      jumpi\n      0x0100\n      dup1\n      dup4\n      sload\n      div\n      mul\n      dup4\n      mstore\n      swap2\n      0x20\n      add\n      swap2\n      jump(tag_114)\n    tag_115:\n      dup3\n      add\n      swap2\n      swap1\n      0x00\n      mstore\n      keccak256(0x00, 0x20)\n      swap1\n    tag_116:\n      dup2\n      sload\n      dup2\n      mstore\n      swap1\n      0x01\n      add\n      swap1\n      0x20\n      add\n      dup1\n      dup4\n      gt\n      tag_116\n      jumpi\n      dup3\n      swap1\n      sub\n      0x1f\n      and\n      dup3\n      add\n      swap2\n    tag_114:\n      pop\n      pop\n      pop\n      pop\n      pop\n      dup2\n      jump\t// out\n    tag_59:\n      mload(0x40)\n      dup1\n      0x80\n      add\n      0x40\n      mstore\n      dup1\n      0x00\n      dup2\n      mstore\n      0x20\n      add\n      0x00\n      dup2\n      mstore\n      0x20\n      add\n      0x60\n      dup2\n      mstore\n      0x20\n      add\n      iszero(iszero(0x00))\n      dup2\n      mstore\n      pop\n      swap1\n      jump\t// out\n    tag_61:\n      dup3\n      dup1\n      sload\n      tag_117\n      swap1\n      tag_88\n      jump\t// in\n    tag_117:\n      swap1\n      0x00\n      mstore\n      keccak256(0x00, 0x20)\n      swap1\n      0x1f\n      add\n      0x20\n      swap1\n      div\n      dup2\n      add\n      swap3\n      dup3\n      tag_119\n      jumpi\n      0x00\n      dup6\n      sstore\n      jump(tag_118)\n    tag_119:\n      dup3\n      0x1f\n      lt\n      tag_120\n      jumpi\n      dup1\n      mload\n      not(0xff)\n      and\n      dup4\n      dup1\n      add\n      or\n      dup6\n      sstore\n      jump(tag_118)\n    tag_120:\n      dup3\n      dup1\n      add\n      0x01\n      add\n      dup6\n      sstore\n      dup3\n      iszero\n      tag_118\n      jumpi\n      swap2\n      dup3\n      add\n    tag_121:\n      dup3\n      dup2\n      gt\n      iszero\n      tag_122\n      jumpi\n      dup3\n      mload\n      dup3\n      sstore\n      swap2\n      0x20\n      add\n      swap2\n      swap1\n      0x01\n      add\n      swap1\n      jump(tag_121)\n    tag_122:\n    tag_118:\n      pop\n      swap1\n      pop\n      tag_123\n      swap2\n      swap1\n      tag_124\n      jump\t// in\n    tag_123:\n      pop\n      swap1\n      jump\t// out\n    tag_65:\n      dup3\n      dup1\n      sload\n      tag_125\n      swap1\n      tag_88\n      jump\t// in\n    tag_125:\n      swap1\n      0x00\n      mstore\n      keccak256(0x00, 0x20)\n      swap1\n      0x1f\n      add\n      0x20\n      swap1\n      div\n      dup2\n      add\n      swap3\n      dup3\n      tag_127\n      jumpi\n      0x00\n      dup6\n      sstore\n      jump(tag_126)\n    tag_127:\n      dup3\n      0x1f\n      lt\n      tag_128\n      jumpi\n      dup1\n      calldataload\n      not(0xff)\n      and\n      dup4\n      dup1\n      add\n      or\n      dup6\n      sstore\n      jump(tag_126)\n    tag_128:\n      dup3\n      dup1\n      add\n      0x01\n      add\n      dup6\n      sstore\n      dup3\n      iszero\n      tag_126\n      jumpi\n      swap2\n      dup3\n      add\n    tag_129:\n      dup3\n      dup2\n      gt\n      iszero\n      tag_130\n      jumpi\n      dup3\n      calldataload\n      dup3\n      sstore\n      swap2\n      0x20\n      add\n      swap2\n      swap1\n      0x01\n      add\n      swap1\n      jump(tag_129)\n    tag_130:\n    tag_126:\n      pop\n      swap1\n      pop\n      tag_131\n      swap2\n      swap1\n      tag_124\n      jump\t// in\n    tag_131:\n      pop\n      swap1\n      jump\t// out\n    tag_104:\n      mload(0x40)\n      dup1\n      0x60\n      add\n      0x40\n      mstore\n      dup1\n      0x00\n      dup2\n      mstore\n      0x20\n      add\n      0x00\n      dup2\n      mstore\n      0x20\n      add\n      0x00\n      dup2\n      mstore\n      pop\n      swap1\n      jump\t// out\n    tag_124:\n    tag_132:\n      dup1\n      dup3\n      gt\n      iszero\n      tag_133\n      jumpi\n      0x00\n      dup2\n      0x00\n      swap1\n      sstore\n      pop\n      0x01\n      add\n      jump(tag_132)\n    tag_133:\n      pop\n      swap1\n      jump\t// out\n        /* \"#utility.yul\":7:146   */\n    tag_135:\n        /* \"#utility.yul\":53:58   */\n      0x00\n        /* \"#utility.yul\":91:97   */\n      dup2\n        /* \"#utility.yul\":78:98   */\n      calldataload\n        /* \"#utility.yul\":69:98   */\n      swap1\n      pop\n        /* \"#utility.yul\":107:140   */\n      tag_137\n        /* \"#utility.yul\":134:139   */\n      dup2\n        /* \"#utility.yul\":107:140   */\n      tag_138\n      jump\t// in\n    tag_137:\n        /* \"#utility.yul\":7:146   */\n      swap3\n      swap2\n      pop\n      pop\n      jump\t// out\n        /* \"#utility.yul\":166:719   */\n    tag_139:\n        /* \"#utility.yul\":224:232   */\n      0x00\n        /* \"#utility.yul\":234:240   */\n      dup1\n        /* \"#utility.yul\":284:287   */\n      dup4\n        /* \"#utility.yul\":277:281   */\n      0x1f\n        /* \"#utility.yul\":269:275   */\n      dup5\n        /* \"#utility.yul\":265:282   */\n      add\n        /* \"#utility.yul\":261:288   */\n      slt\n        /* \"#utility.yul\":251:373   */\n      tag_141\n      jumpi\n        /* \"#utility.yul\":292:371   */\n      tag_142\n      tag_143\n      jump\t// in\n    tag_142:\n        /* \"#utility.yul\":251:373   */\n    tag_141:\n        /* \"#utility.yul\":405:411   */\n      dup3\n        /* \"#utility.yul\":392:412   */\n      calldataload\n        /* \"#utility.yul\":382:412   */\n      swap1\n      pop\n        /* \"#utility.yul\":435:453   */\n      0xffffffffffffffff\n        /* \"#utility.yul\":427:433   */\n      dup2\n        /* \"#utility.yul\":424:454   */\n      gt\n        /* \"#utility.yul\":421:538   */\n      iszero\n      tag_144\n      jumpi\n        /* \"#utility.yul\":457:536   */\n      tag_145\n      tag_146\n      jump\t// in\n    tag_145:\n        /* \"#utility.yul\":421:538   */\n    tag_144:\n        /* \"#utility.yul\":571:575   */\n      0x20\n        /* \"#utility.yul\":563:569   */\n      dup4\n        /* \"#utility.yul\":559:576   */\n      add\n        /* \"#utility.yul\":547:576   */\n      swap2\n      pop\n        /* \"#utility.yul\":625:628   */\n      dup4\n        /* \"#utility.yul\":617:621   */\n      0x01\n        /* \"#utility.yul\":609:615   */\n      dup3\n        /* \"#utility.yul\":605:622   */\n      mul\n        /* \"#utility.yul\":595:603   */\n      dup4\n        /* \"#utility.yul\":591:623   */\n      add\n        /* \"#utility.yul\":588:629   */\n      gt\n        /* \"#utility.yul\":585:713   */\n      iszero\n      tag_147\n      jumpi\n        /* \"#utility.yul\":632:711   */\n      tag_148\n      tag_149\n      jump\t// in\n    tag_148:\n        /* \"#utility.yul\":585:713   */\n    tag_147:\n        /* \"#utility.yul\":166:719   */\n      swap3\n      pop\n      swap3\n      swap1\n      pop\n      jump\t// out\n        /* \"#utility.yul\":725:864   */\n    tag_150:\n        /* \"#utility.yul\":771:776   */\n      0x00\n        /* \"#utility.yul\":809:815   */\n      dup2\n        /* \"#utility.yul\":796:816   */\n      calldataload\n        /* \"#utility.yul\":787:816   */\n      swap1\n      pop\n        /* \"#utility.yul\":825:858   */\n      tag_152\n        /* \"#utility.yul\":852:857   */\n      dup2\n        /* \"#utility.yul\":825:858   */\n      tag_153\n      jump\t// in\n    tag_152:\n        /* \"#utility.yul\":725:864   */\n      swap3\n      swap2\n      pop\n      pop\n      jump\t// out\n        /* \"#utility.yul\":870:1689   */\n    tag_14:\n        /* \"#utility.yul\":959:965   */\n      0x00\n        /* \"#utility.yul\":967:973   */\n      dup1\n        /* \"#utility.yul\":975:981   */\n      0x00\n        /* \"#utility.yul\":983:989   */\n      dup1\n        /* \"#utility.yul\":1032:1034   */\n      0x60\n        /* \"#utility.yul\":1020:1029   */\n      dup6\n        /* \"#utility.yul\":1011:1018   */\n      dup8\n        /* \"#utility.yul\":1007:1030   */\n      sub\n        /* \"#utility.yul\":1003:1035   */\n      slt\n        /* \"#utility.yul\":1000:1119   */\n      iszero\n      tag_155\n      jumpi\n        /* \"#utility.yul\":1038:1117   */\n      tag_156\n      tag_157\n      jump\t// in\n    tag_156:\n        /* \"#utility.yul\":1000:1119   */\n    tag_155:\n        /* \"#utility.yul\":1186:1187   */\n      0x00\n        /* \"#utility.yul\":1175:1184   */\n      dup6\n        /* \"#utility.yul\":1171:1188   */\n      add\n        /* \"#utility.yul\":1158:1189   */\n      calldataload\n        /* \"#utility.yul\":1216:1234   */\n      0xffffffffffffffff\n        /* \"#utility.yul\":1208:1214   */\n      dup2\n        /* \"#utility.yul\":1205:1235   */\n      gt\n        /* \"#utility.yul\":1202:1319   */\n      iszero\n      tag_158\n      jumpi\n        /* \"#utility.yul\":1238:1317   */\n      tag_159\n      tag_160\n      jump\t// in\n    tag_159:\n        /* \"#utility.yul\":1202:1319   */\n    tag_158:\n        /* \"#utility.yul\":1351:1416   */\n      tag_161\n        /* \"#utility.yul\":1408:1415   */\n      dup8\n        /* \"#utility.yul\":1399:1405   */\n      dup3\n        /* \"#utility.yul\":1388:1397   */\n      dup9\n        /* \"#utility.yul\":1384:1406   */\n      add\n        /* \"#utility.yul\":1351:1416   */\n      tag_139\n      jump\t// in\n    tag_161:\n        /* \"#utility.yul\":1333:1416   */\n      swap5\n      pop\n      swap5\n      pop\n        /* \"#utility.yul\":1129:1426   */\n      pop\n        /* \"#utility.yul\":1465:1467   */\n      0x20\n        /* \"#utility.yul\":1491:1544   */\n      tag_162\n        /* \"#utility.yul\":1536:1543   */\n      dup8\n        /* \"#utility.yul\":1527:1533   */\n      dup3\n        /* \"#utility.yul\":1516:1525   */\n      dup9\n        /* \"#utility.yul\":1512:1534   */\n      add\n        /* \"#utility.yul\":1491:1544   */\n      tag_150\n      jump\t// in\n    tag_162:\n        /* \"#utility.yul\":1481:1544   */\n      swap3\n      pop\n        /* \"#utility.yul\":1436:1554   */\n      pop\n        /* \"#utility.yul\":1593:1595   */\n      0x40\n        /* \"#utility.yul\":1619:1672   */\n      tag_163\n        /* \"#utility.yul\":1664:1671   */\n      dup8\n        /* \"#utility.yul\":1655:1661   */\n      dup3\n        /* \"#utility.yul\":1644:1653   */\n      dup9\n        /* \"#utility.yul\":1640:1662   */\n      add\n        /* \"#utility.yul\":1619:1672   */\n      tag_150\n      jump\t// in\n    tag_163:\n        /* \"#utility.yul\":1609:1672   */\n      swap2\n      pop\n        /* \"#utility.yul\":1564:1682   */\n      pop\n        /* \"#utility.yul\":870:1689   */\n      swap3\n      swap6\n      swap2\n      swap5\n      pop\n      swap3\n      pop\n      jump\t// out\n        /* \"#utility.yul\":1695:2024   */\n    tag_19:\n        /* \"#utility.yul\":1754:1760   */\n      0x00\n        /* \"#utility.yul\":1803:1805   */\n      0x20\n        /* \"#utility.yul\":1791:1800   */\n      dup3\n        /* \"#utility.yul\":1782:1789   */\n      dup5\n        /* \"#utility.yul\":1778:1801   */\n      sub\n        /* \"#utility.yul\":1774:1806   */\n      slt\n        /* \"#utility.yul\":1771:1890   */\n      iszero\n      tag_165\n      jumpi\n        /* \"#utility.yul\":1809:1888   */\n      tag_166\n      tag_157\n      jump\t// in\n    tag_166:\n        /* \"#utility.yul\":1771:1890   */\n    tag_165:\n        /* \"#utility.yul\":1929:1930   */\n      0x00\n        /* \"#utility.yul\":1954:2007   */\n      tag_167\n        /* \"#utility.yul\":1999:2006   */\n      dup5\n        /* \"#utility.yul\":1990:1996   */\n      dup3\n        /* \"#utility.yul\":1979:1988   */\n      dup6\n        /* \"#utility.yul\":1975:1997   */\n      add\n        /* \"#utility.yul\":1954:2007   */\n      tag_150\n      jump\t// in\n    tag_167:\n        /* \"#utility.yul\":1944:2007   */\n      swap2\n      pop\n        /* \"#utility.yul\":1900:2017   */\n      pop\n        /* \"#utility.yul\":1695:2024   */\n      swap3\n      swap2\n      pop\n      pop\n      jump\t// out\n        /* \"#utility.yul\":2030:2504   */\n    tag_31:\n        /* \"#utility.yul\":2098:2104   */\n      0x00\n        /* \"#utility.yul\":2106:2112   */\n      dup1\n        /* \"#utility.yul\":2155:2157   */\n      0x40\n        /* \"#utility.yul\":2143:2152   */\n      dup4\n        /* \"#utility.yul\":2134:2141   */\n      dup6\n        /* \"#utility.yul\":2130:2153   */\n      sub\n        /* \"#utility.yul\":2126:2158   */\n      slt\n        /* \"#utility.yul\":2123:2242   */\n      iszero\n      tag_169\n      jumpi\n        /* \"#utility.yul\":2161:2240   */\n      tag_170\n      tag_157\n      jump\t// in\n    tag_170:\n        /* \"#utility.yul\":2123:2242   */\n    tag_169:\n        /* \"#utility.yul\":2281:2282   */\n      0x00\n        /* \"#utility.yul\":2306:2359   */\n      tag_171\n        /* \"#utility.yul\":2351:2358   */\n      dup6\n        /* \"#utility.yul\":2342:2348   */\n      dup3\n        /* \"#utility.yul\":2331:2340   */\n      dup7\n        /* \"#utility.yul\":2327:2349   */\n      add\n        /* \"#utility.yul\":2306:2359   */\n      tag_150\n      jump\t// in\n    tag_171:\n        /* \"#utility.yul\":2296:2359   */\n      swap3\n      pop\n        /* \"#utility.yul\":2252:2369   */\n      pop\n        /* \"#utility.yul\":2408:2410   */\n      0x20\n        /* \"#utility.yul\":2434:2487   */\n      tag_172\n        /* \"#utility.yul\":2479:2486   */\n      dup6\n        /* \"#utility.yul\":2470:2476   */\n      dup3\n        /* \"#utility.yul\":2459:2468   */\n      dup7\n        /* \"#utility.yul\":2455:2477   */\n      add\n        /* \"#utility.yul\":2434:2487   */\n      tag_135\n      jump\t// in\n    tag_172:\n        /* \"#utility.yul\":2424:2487   */\n      swap2\n      pop\n        /* \"#utility.yul\":2379:2497   */\n      pop\n        /* \"#utility.yul\":2030:2504   */\n      swap3\n      pop\n      swap3\n      swap1\n      pop\n      jump\t// out\n        /* \"#utility.yul\":2510:2984   */\n    tag_24:\n        /* \"#utility.yul\":2578:2584   */\n      0x00\n        /* \"#utility.yul\":2586:2592   */\n      dup1\n        /* \"#utility.yul\":2635:2637   */\n      0x40\n        /* \"#utility.yul\":2623:2632   */\n      dup4\n        /* \"#utility.yul\":2614:2621   */\n      dup6\n        /* \"#utility.yul\":2610:2633   */\n      sub\n        /* \"#utility.yul\":2606:2638   */\n      slt\n        /* \"#utility.yul\":2603:2722   */\n      iszero\n      tag_174\n      jumpi\n        /* \"#utility.yul\":2641:2720   */\n      tag_175\n      tag_157\n      jump\t// in\n    tag_175:\n        /* \"#utility.yul\":2603:2722   */\n    tag_174:\n        /* \"#utility.yul\":2761:2762   */\n      0x00\n        /* \"#utility.yul\":2786:2839   */\n      tag_176\n        /* \"#utility.yul\":2831:2838   */\n      dup6\n        /* \"#utility.yul\":2822:2828   */\n      dup3\n        /* \"#utility.yul\":2811:2820   */\n      dup7\n        /* \"#utility.yul\":2807:2829   */\n      add\n        /* \"#utility.yul\":2786:2839   */\n      tag_150\n      jump\t// in\n    tag_176:\n        /* \"#utility.yul\":2776:2839   */\n      swap3\n      pop\n        /* \"#utility.yul\":2732:2849   */\n      pop\n        /* \"#utility.yul\":2888:2890   */\n      0x20\n        /* \"#utility.yul\":2914:2967   */\n      tag_177\n        /* \"#utility.yul\":2959:2966   */\n      dup6\n        /* \"#utility.yul\":2950:2956   */\n      dup3\n        /* \"#utility.yul\":2939:2948   */\n      dup7\n        /* \"#utility.yul\":2935:2957   */\n      add\n        /* \"#utility.yul\":2914:2967   */\n      tag_150\n      jump\t// in\n    tag_177:\n        /* \"#utility.yul\":2904:2967   */\n      swap2\n      pop\n        /* \"#utility.yul\":2859:2977   */\n      pop\n        /* \"#utility.yul\":2510:2984   */\n      swap3\n      pop\n      swap3\n      swap1\n      pop\n      jump\t// out\n        /* \"#utility.yul\":2990:3108   */\n    tag_178:\n        /* \"#utility.yul\":3077:3101   */\n      tag_180\n        /* \"#utility.yul\":3095:3100   */\n      dup2\n        /* \"#utility.yul\":3077:3101   */\n      tag_181\n      jump\t// in\n    tag_180:\n        /* \"#utility.yul\":3072:3075   */\n      dup3\n        /* \"#utility.yul\":3065:3102   */\n      mstore\n        /* \"#utility.yul\":2990:3108   */\n      pop\n      pop\n      jump\t// out\n        /* \"#utility.yul\":3114:3223   */\n    tag_182:\n        /* \"#utility.yul\":3195:3216   */\n      tag_184\n        /* \"#utility.yul\":3210:3215   */\n      dup2\n        /* \"#utility.yul\":3195:3216   */\n      tag_185\n      jump\t// in\n    tag_184:\n        /* \"#utility.yul\":3190:3193   */\n      dup3\n        /* \"#utility.yul\":3183:3217   */\n      mstore\n        /* \"#utility.yul\":3114:3223   */\n      pop\n      pop\n      jump\t// out\n        /* \"#utility.yul\":3253:3570   */\n    tag_186:\n        /* \"#utility.yul\":3369:3372   */\n      0x00\n        /* \"#utility.yul\":3390:3479   */\n      tag_188\n        /* \"#utility.yul\":3472:3478   */\n      dup4\n        /* \"#utility.yul\":3467:3470   */\n      dup6\n        /* \"#utility.yul\":3390:3479   */\n      tag_189\n      jump\t// in\n    tag_188:\n        /* \"#utility.yul\":3383:3479   */\n      swap4\n      pop\n        /* \"#utility.yul\":3489:3532   */\n      tag_190\n        /* \"#utility.yul\":3525:3531   */\n      dup4\n        /* \"#utility.yul\":3520:3523   */\n      dup6\n        /* \"#utility.yul\":3513:3518   */\n      dup5\n        /* \"#utility.yul\":3489:3532   */\n      tag_191\n      jump\t// in\n    tag_190:\n        /* \"#utility.yul\":3557:3563   */\n      dup3\n        /* \"#utility.yul\":3552:3555   */\n      dup5\n        /* \"#utility.yul\":3548:3564   */\n      add\n        /* \"#utility.yul\":3541:3564   */\n      swap1\n      pop\n        /* \"#utility.yul\":3253:3570   */\n      swap4\n      swap3\n      pop\n      pop\n      pop\n      jump\t// out\n        /* \"#utility.yul\":3576:3940   */\n    tag_192:\n        /* \"#utility.yul\":3664:3667   */\n      0x00\n        /* \"#utility.yul\":3692:3731   */\n      tag_194\n        /* \"#utility.yul\":3725:3730   */\n      dup3\n        /* \"#utility.yul\":3692:3731   */\n      tag_195\n      jump\t// in\n    tag_194:\n        /* \"#utility.yul\":3747:3818   */\n      tag_196\n        /* \"#utility.yul\":3811:3817   */\n      dup2\n        /* \"#utility.yul\":3806:3809   */\n      dup6\n        /* \"#utility.yul\":3747:3818   */\n      tag_197\n      jump\t// in\n    tag_196:\n        /* \"#utility.yul\":3740:3818   */\n      swap4\n      pop\n        /* \"#utility.yul\":3827:3879   */\n      tag_198\n        /* \"#utility.yul\":3872:3878   */\n      dup2\n        /* \"#utility.yul\":3867:3870   */\n      dup6\n        /* \"#utility.yul\":3860:3864   */\n      0x20\n        /* \"#utility.yul\":3853:3858   */\n      dup7\n        /* \"#utility.yul\":3849:3865   */\n      add\n        /* \"#utility.yul\":3827:3879   */\n      tag_199\n      jump\t// in\n    tag_198:\n        /* \"#utility.yul\":3904:3933   */\n      tag_200\n        /* \"#utility.yul\":3926:3932   */\n      dup2\n        /* \"#utility.yul\":3904:3933   */\n      tag_201\n      jump\t// in\n    tag_200:\n        /* \"#utility.yul\":3899:3902   */\n      dup5\n        /* \"#utility.yul\":3895:3934   */\n      add\n        /* \"#utility.yul\":3888:3934   */\n      swap2\n      pop\n        /* \"#utility.yul\":3668:3940   */\n      pop\n        /* \"#utility.yul\":3576:3940   */\n      swap3\n      swap2\n      pop\n      pop\n      jump\t// out\n        /* \"#utility.yul\":3946:4344   */\n    tag_202:\n        /* \"#utility.yul\":4105:4108   */\n      0x00\n        /* \"#utility.yul\":4126:4209   */\n      tag_204\n        /* \"#utility.yul\":4207:4208   */\n      0x00\n        /* \"#utility.yul\":4202:4205   */\n      dup4\n        /* \"#utility.yul\":4126:4209   */\n      tag_205\n      jump\t// in\n    tag_204:\n        /* \"#utility.yul\":4119:4209   */\n      swap2\n      pop\n        /* \"#utility.yul\":4218:4311   */\n      tag_206\n        /* \"#utility.yul\":4307:4310   */\n      dup3\n        /* \"#utility.yul\":4218:4311   */\n      tag_207\n      jump\t// in\n    tag_206:\n        /* \"#utility.yul\":4336:4337   */\n      0x00\n        /* \"#utility.yul\":4331:4334   */\n      dup3\n        /* \"#utility.yul\":4327:4338   */\n      add\n        /* \"#utility.yul\":4320:4338   */\n      swap1\n      pop\n        /* \"#utility.yul\":3946:4344   */\n      swap2\n      swap1\n      pop\n      jump\t// out\n        /* \"#utility.yul\":4350:4468   */\n    tag_208:\n        /* \"#utility.yul\":4437:4461   */\n      tag_210\n        /* \"#utility.yul\":4455:4460   */\n      dup2\n        /* \"#utility.yul\":4437:4461   */\n      tag_211\n      jump\t// in\n    tag_210:\n        /* \"#utility.yul\":4432:4435   */\n      dup3\n        /* \"#utility.yul\":4425:4462   */\n      mstore\n        /* \"#utility.yul\":4350:4468   */\n      pop\n      pop\n      jump\t// out\n        /* \"#utility.yul\":4474:4769   */\n    tag_56:\n        /* \"#utility.yul\":4616:4619   */\n      0x00\n        /* \"#utility.yul\":4638:4743   */\n      tag_213\n        /* \"#utility.yul\":4739:4742   */\n      dup3\n        /* \"#utility.yul\":4730:4736   */\n      dup5\n        /* \"#utility.yul\":4722:4728   */\n      dup7\n        /* \"#utility.yul\":4638:4743   */\n      tag_186\n      jump\t// in\n    tag_213:\n        /* \"#utility.yul\":4631:4743   */\n      swap2\n      pop\n        /* \"#utility.yul\":4760:4763   */\n      dup2\n        /* \"#utility.yul\":4753:4763   */\n      swap1\n      pop\n        /* \"#utility.yul\":4474:4769   */\n      swap4\n      swap3\n      pop\n      pop\n      pop\n      jump\t// out\n        /* \"#utility.yul\":4775:5154   */\n    tag_75:\n        /* \"#utility.yul\":4959:4962   */\n      0x00\n        /* \"#utility.yul\":4981:5128   */\n      tag_215\n        /* \"#utility.yul\":5124:5127   */\n      dup3\n        /* \"#utility.yul\":4981:5128   */\n      tag_202\n      jump\t// in\n    tag_215:\n        /* \"#utility.yul\":4974:5128   */\n      swap2\n      pop\n        /* \"#utility.yul\":5145:5148   */\n      dup2\n        /* \"#utility.yul\":5138:5148   */\n      swap1\n      pop\n        /* \"#utility.yul\":4775:5154   */\n      swap2\n      swap1\n      pop\n      jump\t// out\n        /* \"#utility.yul\":5160:5382   */\n    tag_27:\n        /* \"#utility.yul\":5253:5257   */\n      0x00\n        /* \"#utility.yul\":5291:5293   */\n      0x20\n        /* \"#utility.yul\":5280:5289   */\n      dup3\n        /* \"#utility.yul\":5276:5294   */\n      add\n        /* \"#utility.yul\":5268:5294   */\n      swap1\n      pop\n        /* \"#utility.yul\":5304:5375   */\n      tag_217\n        /* \"#utility.yul\":5372:5373   */\n      0x00\n        /* \"#utility.yul\":5361:5370   */\n      dup4\n        /* \"#utility.yul\":5357:5374   */\n      add\n        /* \"#utility.yul\":5348:5354   */\n      dup5\n        /* \"#utility.yul\":5304:5375   */\n      tag_178\n      jump\t// in\n    tag_217:\n        /* \"#utility.yul\":5160:5382   */\n      swap3\n      swap2\n      pop\n      pop\n      jump\t// out\n        /* \"#utility.yul\":5388:5701   */\n    tag_53:\n        /* \"#utility.yul\":5501:5505   */\n      0x00\n        /* \"#utility.yul\":5539:5541   */\n      0x20\n        /* \"#utility.yul\":5528:5537   */\n      dup3\n        /* \"#utility.yul\":5524:5542   */\n      add\n        /* \"#utility.yul\":5516:5542   */\n      swap1\n      pop\n        /* \"#utility.yul\":5588:5597   */\n      dup2\n        /* \"#utility.yul\":5582:5586   */\n      dup2\n        /* \"#utility.yul\":5578:5598   */\n      sub\n        /* \"#utility.yul\":5574:5575   */\n      0x00\n        /* \"#utility.yul\":5563:5572   */\n      dup4\n        /* \"#utility.yul\":5559:5576   */\n      add\n        /* \"#utility.yul\":5552:5599   */\n      mstore\n        /* \"#utility.yul\":5616:5694   */\n      tag_219\n        /* \"#utility.yul\":5689:5693   */\n      dup2\n        /* \"#utility.yul\":5680:5686   */\n      dup5\n        /* \"#utility.yul\":5616:5694   */\n      tag_192\n      jump\t// in\n    tag_219:\n        /* \"#utility.yul\":5608:5694   */\n      swap1\n      pop\n        /* \"#utility.yul\":5388:5701   */\n      swap3\n      swap2\n      pop\n      pop\n      jump\t// out\n        /* \"#utility.yul\":5707:6339   */\n    tag_44:\n        /* \"#utility.yul\":5898:5902   */\n      0x00\n        /* \"#utility.yul\":5936:5939   */\n      0x80\n        /* \"#utility.yul\":5925:5934   */\n      dup3\n        /* \"#utility.yul\":5921:5940   */\n      add\n        /* \"#utility.yul\":5913:5940   */\n      swap1\n      pop\n        /* \"#utility.yul\":5950:6021   */\n      tag_221\n        /* \"#utility.yul\":6018:6019   */\n      0x00\n        /* \"#utility.yul\":6007:6016   */\n      dup4\n        /* \"#utility.yul\":6003:6020   */\n      add\n        /* \"#utility.yul\":5994:6000   */\n      dup8\n        /* \"#utility.yul\":5950:6021   */\n      tag_208\n      jump\t// in\n    tag_221:\n        /* \"#utility.yul\":6031:6103   */\n      tag_222\n        /* \"#utility.yul\":6099:6101   */\n      0x20\n        /* \"#utility.yul\":6088:6097   */\n      dup4\n        /* \"#utility.yul\":6084:6102   */\n      add\n        /* \"#utility.yul\":6075:6081   */\n      dup7\n        /* \"#utility.yul\":6031:6103   */\n      tag_208\n      jump\t// in\n    tag_222:\n        /* \"#utility.yul\":6150:6159   */\n      dup2\n        /* \"#utility.yul\":6144:6148   */\n      dup2\n        /* \"#utility.yul\":6140:6160   */\n      sub\n        /* \"#utility.yul\":6135:6137   */\n      0x40\n        /* \"#utility.yul\":6124:6133   */\n      dup4\n        /* \"#utility.yul\":6120:6138   */\n      add\n        /* \"#utility.yul\":6113:6161   */\n      mstore\n        /* \"#utility.yul\":6178:6256   */\n      tag_223\n        /* \"#utility.yul\":6251:6255   */\n      dup2\n        /* \"#utility.yul\":6242:6248   */\n      dup6\n        /* \"#utility.yul\":6178:6256   */\n      tag_192\n      jump\t// in\n    tag_223:\n        /* \"#utility.yul\":6170:6256   */\n      swap1\n      pop\n        /* \"#utility.yul\":6266:6332   */\n      tag_224\n        /* \"#utility.yul\":6328:6330   */\n      0x60\n        /* \"#utility.yul\":6317:6326   */\n      dup4\n        /* \"#utility.yul\":6313:6331   */\n      add\n        /* \"#utility.yul\":6304:6310   */\n      dup5\n        /* \"#utility.yul\":6266:6332   */\n      tag_182\n      jump\t// in\n    tag_224:\n        /* \"#utility.yul\":5707:6339   */\n      swap6\n      swap5\n      pop\n      pop\n      pop\n      pop\n      pop\n      jump\t// out\n        /* \"#utility.yul\":6345:6787   */\n    tag_34:\n        /* \"#utility.yul\":6494:6498   */\n      0x00\n        /* \"#utility.yul\":6532:6534   */\n      0x60\n        /* \"#utility.yul\":6521:6530   */\n      dup3\n        /* \"#utility.yul\":6517:6535   */\n      add\n        /* \"#utility.yul\":6509:6535   */\n      swap1\n      pop\n        /* \"#utility.yul\":6545:6616   */\n      tag_226\n        /* \"#utility.yul\":6613:6614   */\n      0x00\n        /* \"#utility.yul\":6602:6611   */\n      dup4\n        /* \"#utility.yul\":6598:6615   */\n      add\n        /* \"#utility.yul\":6589:6595   */\n      dup7\n        /* \"#utility.yul\":6545:6616   */\n      tag_208\n      jump\t// in\n    tag_226:\n        /* \"#utility.yul\":6626:6698   */\n      tag_227\n        /* \"#utility.yul\":6694:6696   */\n      0x20\n        /* \"#utility.yul\":6683:6692   */\n      dup4\n        /* \"#utility.yul\":6679:6697   */\n      add\n        /* \"#utility.yul\":6670:6676   */\n      dup6\n        /* \"#utility.yul\":6626:6698   */\n      tag_208\n      jump\t// in\n    tag_227:\n        /* \"#utility.yul\":6708:6780   */\n      tag_228\n        /* \"#utility.yul\":6776:6778   */\n      0x40\n        /* \"#utility.yul\":6765:6774   */\n      dup4\n        /* \"#utility.yul\":6761:6779   */\n      add\n        /* \"#utility.yul\":6752:6758   */\n      dup5\n        /* \"#utility.yul\":6708:6780   */\n      tag_208\n      jump\t// in\n    tag_228:\n        /* \"#utility.yul\":6345:6787   */\n      swap5\n      swap4\n      pop\n      pop\n      pop\n      pop\n      jump\t// out\n        /* \"#utility.yul\":6874:6973   */\n    tag_195:\n        /* \"#utility.yul\":6926:6932   */\n      0x00\n        /* \"#utility.yul\":6960:6965   */\n      dup2\n        /* \"#utility.yul\":6954:6966   */\n      mload\n        /* \"#utility.yul\":6944:6966   */\n      swap1\n      pop\n        /* \"#utility.yul\":6874:6973   */\n      swap2\n      swap1\n      pop\n      jump\t// out\n        /* \"#utility.yul\":6979:7126   */\n    tag_205:\n        /* \"#utility.yul\":7080:7091   */\n      0x00\n        /* \"#utility.yul\":7117:7120   */\n      dup2\n        /* \"#utility.yul\":7102:7120   */\n      swap1\n      pop\n        /* \"#utility.yul\":6979:7126   */\n      swap3\n      swap2\n      pop\n      pop\n      jump\t// out\n        /* \"#utility.yul\":7132:7301   */\n    tag_197:\n        /* \"#utility.yul\":7216:7227   */\n      0x00\n        /* \"#utility.yul\":7250:7256   */\n      dup3\n        /* \"#utility.yul\":7245:7248   */\n      dup3\n        /* \"#utility.yul\":7238:7257   */\n      mstore\n        /* \"#utility.yul\":7290:7294   */\n      0x20\n        /* \"#utility.yul\":7285:7288   */\n      dup3\n        /* \"#utility.yul\":7281:7295   */\n      add\n        /* \"#utility.yul\":7266:7295   */\n      swap1\n      pop\n        /* \"#utility.yul\":7132:7301   */\n      swap3\n      swap2\n      pop\n      pop\n      jump\t// out\n        /* \"#utility.yul\":7307:7455   */\n    tag_189:\n        /* \"#utility.yul\":7409:7420   */\n      0x00\n        /* \"#utility.yul\":7446:7449   */\n      dup2\n        /* \"#utility.yul\":7431:7449   */\n      swap1\n      pop\n        /* \"#utility.yul\":7307:7455   */\n      swap3\n      swap2\n      pop\n      pop\n      jump\t// out\n        /* \"#utility.yul\":7461:7766   */\n    tag_85:\n        /* \"#utility.yul\":7501:7504   */\n      0x00\n        /* \"#utility.yul\":7520:7540   */\n      tag_236\n        /* \"#utility.yul\":7538:7539   */\n      dup3\n        /* \"#utility.yul\":7520:7540   */\n      tag_211\n      jump\t// in\n    tag_236:\n        /* \"#utility.yul\":7515:7540   */\n      swap2\n      pop\n        /* \"#utility.yul\":7554:7574   */\n      tag_237\n        /* \"#utility.yul\":7572:7573   */\n      dup4\n        /* \"#utility.yul\":7554:7574   */\n      tag_211\n      jump\t// in\n    tag_237:\n        /* \"#utility.yul\":7549:7574   */\n      swap3\n      pop\n        /* \"#utility.yul\":7708:7709   */\n      dup3\n        /* \"#utility.yul\":7640:7706   */\n      0xffffffffffffffffffffffffffffffffffffffffffffffffffffffffffffffff\n        /* \"#utility.yul\":7636:7710   */\n      sub\n        /* \"#utility.yul\":7633:7634   */\n      dup3\n        /* \"#utility.yul\":7630:7711   */\n      gt\n        /* \"#utility.yul\":7627:7734   */\n      iszero\n      tag_238\n      jumpi\n        /* \"#utility.yul\":7714:7732   */\n      tag_239\n      tag_240\n      jump\t// in\n    tag_239:\n        /* \"#utility.yul\":7627:7734   */\n    tag_238:\n        /* \"#utility.yul\":7758:7759   */\n      dup3\n        /* \"#utility.yul\":7755:7756   */\n      dup3\n        /* \"#utility.yul\":7751:7760   */\n      add\n        /* \"#utility.yul\":7744:7760   */\n      swap1\n      pop\n        /* \"#utility.yul\":7461:7766   */\n      swap3\n      swap2\n      pop\n      pop\n      jump\t// out\n        /* \"#utility.yul\":7772:7963   */\n    tag_70:\n        /* \"#utility.yul\":7812:7816   */\n      0x00\n        /* \"#utility.yul\":7832:7852   */\n      tag_242\n        /* \"#utility.yul\":7850:7851   */\n      dup3\n        /* \"#utility.yul\":7832:7852   */\n      tag_211\n      jump\t// in\n    tag_242:\n        /* \"#utility.yul\":7827:7852   */\n      swap2\n      pop\n        /* \"#utility.yul\":7866:7886   */\n      tag_243\n        /* \"#utility.yul\":7884:7885   */\n      dup4\n        /* \"#utility.yul\":7866:7886   */\n      tag_211\n      jump\t// in\n    tag_243:\n        /* \"#utility.yul\":7861:7886   */\n      swap3\n      pop\n        /* \"#utility.yul\":7905:7906   */\n      dup3\n        /* \"#utility.yul\":7902:7903   */\n      dup3\n        /* \"#utility.yul\":7899:7907   */\n      lt\n        /* \"#utility.yul\":7896:7930   */\n      iszero\n      tag_244\n      jumpi\n        /* \"#utility.yul\":7910:7928   */\n      tag_245\n      tag_240\n      jump\t// in\n    tag_245:\n        /* \"#utility.yul\":7896:7930   */\n    tag_244:\n        /* \"#utility.yul\":7955:7956   */\n      dup3\n        /* \"#utility.yul\":7952:7953   */\n      dup3\n        /* \"#utility.yul\":7948:7957   */\n      sub\n        /* \"#utility.yul\":7940:7957   */\n      swap1\n      pop\n        /* \"#utility.yul\":7772:7963   */\n      swap3\n      swap2\n      pop\n      pop\n      jump\t// out\n        /* \"#utility.yul\":7969:8065   */\n    tag_181:\n        /* \"#utility.yul\":8006:8013   */\n      0x00\n        /* \"#utility.yul\":8035:8059   */\n      tag_247\n        /* \"#utility.yul\":8053:8058   */\n      dup3\n        /* \"#utility.yul\":8035:8059   */\n      tag_248\n      jump\t// in\n    tag_247:\n        /* \"#utility.yul\":8024:8059   */\n      swap1\n      pop\n        /* \"#utility.yul\":7969:8065   */\n      swap2\n      swap1\n      pop\n      jump\t// out\n        /* \"#utility.yul\":8071:8161   */\n    tag_185:\n        /* \"#utility.yul\":8105:8112   */\n      0x00\n        /* \"#utility.yul\":8148:8153   */\n      dup2\n        /* \"#utility.yul\":8141:8154   */\n      iszero\n        /* \"#utility.yul\":8134:8155   */\n      iszero\n        /* \"#utility.yul\":8123:8155   */\n      swap1\n      pop\n        /* \"#utility.yul\":8071:8161   */\n      swap2\n      swap1\n      pop\n      jump\t// out\n        /* \"#utility.yul\":8167:8293   */\n    tag_248:\n        /* \"#utility.yul\":8204:8211   */\n      0x00\n        /* \"#utility.yul\":8244:8286   */\n      0xffffffffffffffffffffffffffffffffffffffff\n        /* \"#utility.yul\":8237:8242   */\n      dup3\n        /* \"#utility.yul\":8233:8287   */\n      and\n        /* \"#utility.yul\":8222:8287   */\n      swap1\n      pop\n        /* \"#utility.yul\":8167:8293   */\n      swap2\n      swap1\n      pop\n      jump\t// out\n        /* \"#utility.yul\":8299:8376   */\n    tag_211:\n        /* \"#utility.yul\":8336:8343   */\n      0x00\n        /* \"#utility.yul\":8365:8370   */\n      dup2\n        /* \"#utility.yul\":8354:8370   */\n      swap1\n      pop\n        /* \"#utility.yul\":8299:8376   */\n      swap2\n      swap1\n      pop\n      jump\t// out\n        /* \"#utility.yul\":8382:8536   */\n    tag_191:\n        /* \"#utility.yul\":8466:8472   */\n      dup3\n        /* \"#utility.yul\":8461:8464   */\n      dup2\n        /* \"#utility.yul\":8456:8459   */\n      dup4\n        /* \"#utility.yul\":8443:8473   */\n      calldatacopy\n        /* \"#utility.yul\":8528:8529   */\n      0x00\n        /* \"#utility.yul\":8519:8525   */\n      dup4\n        /* \"#utility.yul\":8514:8517   */\n      dup4\n        /* \"#utility.yul\":8510:8526   */\n      add\n        /* \"#utility.yul\":8503:8530   */\n      mstore\n        /* \"#utility.yul\":8382:8536   */\n      pop\n      pop\n      pop\n      jump\t// out\n        /* \"#utility.yul\":8542:8849   */\n    tag_199:\n        /* \"#utility.yul\":8610:8611   */\n      0x00\n        /* \"#utility.yul\":8620:8733   */\n    tag_254:\n        /* \"#utility.yul\":8634:8640   */\n      dup4\n        /* \"#utility.yul\":8631:8632   */\n      dup2\n        /* \"#utility.yul\":8628:8641   */\n      lt\n        /* \"#utility.yul\":8620:8733   */\n      iszero\n      tag_256\n      jumpi\n        /* \"#utility.yul\":8719:8720   */\n      dup1\n        /* \"#utility.yul\":8714:8717   */\n      dup3\n        /* \"#utility.yul\":8710:8721   */\n      add\n        /* \"#utility.yul\":8704:8722   */\n      mload\n        /* \"#utility.yul\":8700:8701   */\n      dup2\n        /* \"#utility.yul\":8695:8698   */\n      dup5\n        /* \"#utility.yul\":8691:8702   */\n      add\n        /* \"#utility.yul\":8684:8723   */\n      mstore\n        /* \"#utility.yul\":8656:8658   */\n      0x20\n        /* \"#utility.yul\":8653:8654   */\n      dup2\n        /* \"#utility.yul\":8649:8659   */\n      add\n        /* \"#utility.yul\":8644:8659   */\n      swap1\n      pop\n        /* \"#utility.yul\":8620:8733   */\n      jump(tag_254)\n    tag_256:\n        /* \"#utility.yul\":8751:8757   */\n      dup4\n        /* \"#utility.yul\":8748:8749   */\n      dup2\n        /* \"#utility.yul\":8745:8758   */\n      gt\n        /* \"#utility.yul\":8742:8843   */\n      iszero\n      tag_257\n      jumpi\n        /* \"#utility.yul\":8831:8832   */\n      0x00\n        /* \"#utility.yul\":8822:8828   */\n      dup5\n        /* \"#utility.yul\":8817:8820   */\n      dup5\n        /* \"#utility.yul\":8813:8829   */\n      add\n        /* \"#utility.yul\":8806:8833   */\n      mstore\n        /* \"#utility.yul\":8742:8843   */\n    tag_257:\n        /* \"#utility.yul\":8591:8849   */\n      pop\n        /* \"#utility.yul\":8542:8849   */\n      pop\n      pop\n      pop\n      jump\t// out\n        /* \"#utility.yul\":8855:9026   */\n    tag_106:\n        /* \"#utility.yul\":8894:8897   */\n      0x00\n        /* \"#utility.yul\":8917:8941   */\n      tag_259\n        /* \"#utility.yul\":8935:8940   */\n      dup3\n        /* \"#utility.yul\":8917:8941   */\n      tag_211\n      jump\t// in\n    tag_259:\n        /* \"#utility.yul\":8908:8941   */\n      swap2\n      pop\n        /* \"#utility.yul\":8963:8967   */\n      0x00\n        /* \"#utility.yul\":8956:8961   */\n      dup3\n        /* \"#utility.yul\":8953:8968   */\n      eq\n        /* \"#utility.yul\":8950:8991   */\n      iszero\n      tag_260\n      jumpi\n        /* \"#utility.yul\":8971:8989   */\n      tag_261\n      tag_240\n      jump\t// in\n    tag_261:\n        /* \"#utility.yul\":8950:8991   */\n    tag_260:\n        /* \"#utility.yul\":9018:9019   */\n      0x01\n        /* \"#utility.yul\":9011:9016   */\n      dup3\n        /* \"#utility.yul\":9007:9020   */\n      sub\n        /* \"#utility.yul\":9000:9020   */\n      swap1\n      pop\n        /* \"#utility.yul\":8855:9026   */\n      swap2\n      swap1\n      pop\n      jump\t// out\n        /* \"#utility.yul\":9032:9352   */\n    tag_88:\n        /* \"#utility.yul\":9076:9082   */\n      0x00\n        /* \"#utility.yul\":9113:9114   */\n      0x02\n        /* \"#utility.yul\":9107:9111   */\n      dup3\n        /* \"#utility.yul\":9103:9115   */\n      div\n        /* \"#utility.yul\":9093:9115   */\n      swap1\n      pop\n        /* \"#utility.yul\":9160:9161   */\n      0x01\n        /* \"#utility.yul\":9154:9158   */\n      dup3\n        /* \"#utility.yul\":9150:9162   */\n      and\n        /* \"#utility.yul\":9181:9199   */\n      dup1\n        /* \"#utility.yul\":9171:9252   */\n      tag_263\n      jumpi\n        /* \"#utility.yul\":9237:9241   */\n      0x7f\n        /* \"#utility.yul\":9229:9235   */\n      dup3\n        /* \"#utility.yul\":9225:9242   */\n      and\n        /* \"#utility.yul\":9215:9242   */\n      swap2\n      pop\n        /* \"#utility.yul\":9171:9252   */\n    tag_263:\n        /* \"#utility.yul\":9299:9301   */\n      0x20\n        /* \"#utility.yul\":9291:9297   */\n      dup3\n        /* \"#utility.yul\":9288:9302   */\n      lt\n        /* \"#utility.yul\":9268:9286   */\n      dup2\n        /* \"#utility.yul\":9265:9303   */\n      eq\n        /* \"#utility.yul\":9262:9346   */\n      iszero\n      tag_264\n      jumpi\n        /* \"#utility.yul\":9318:9336   */\n      tag_265\n      tag_266\n      jump\t// in\n    tag_265:\n        /* \"#utility.yul\":9262:9346   */\n    tag_264:\n        /* \"#utility.yul\":9083:9352   */\n      pop\n        /* \"#utility.yul\":9032:9352   */\n      swap2\n      swap1\n      pop\n      jump\t// out\n        /* \"#utility.yul\":9358:9591   */\n    tag_73:\n        /* \"#utility.yul\":9397:9400   */\n      0x00\n        /* \"#utility.yul\":9420:9444   */\n      tag_268\n        /* \"#utility.yul\":9438:9443   */\n      dup3\n        /* \"#utility.yul\":9420:9444   */\n      tag_211\n      jump\t// in\n    tag_268:\n        /* \"#utility.yul\":9411:9444   */\n      swap2\n      pop\n        /* \"#utility.yul\":9466:9532   */\n      0xffffffffffffffffffffffffffffffffffffffffffffffffffffffffffffffff\n        /* \"#utility.yul\":9459:9464   */\n      dup3\n        /* \"#utility.yul\":9456:9533   */\n      eq\n        /* \"#utility.yul\":9453:9556   */\n      iszero\n      tag_269\n      jumpi\n        /* \"#utility.yul\":9536:9554   */\n      tag_270\n      tag_240\n      jump\t// in\n    tag_270:\n        /* \"#utility.yul\":9453:9556   */\n    tag_269:\n        /* \"#utility.yul\":9583:9584   */\n      0x01\n        /* \"#utility.yul\":9576:9581   */\n      dup3\n        /* \"#utility.yul\":9572:9585   */\n      add\n        /* \"#utility.yul\":9565:9585   */\n      swap1\n      pop\n        /* \"#utility.yul\":9358:9591   */\n      swap2\n      swap1\n      pop\n      jump\t// out\n        /* \"#utility.yul\":9597:9777   */\n    tag_240:\n        /* \"#utility.yul\":9645:9722   */\n      0x4e487b7100000000000000000000000000000000000000000000000000000000\n        /* \"#utility.yul\":9642:9643   */\n      0x00\n        /* \"#utility.yul\":9635:9723   */\n      mstore\n        /* \"#utility.yul\":9742:9746   */\n      0x11\n        /* \"#utility.yul\":9739:9740   */\n      0x04\n        /* \"#utility.yul\":9732:9747   */\n      mstore\n        /* \"#utility.yul\":9766:9770   */\n      0x24\n        /* \"#utility.yul\":9763:9764   */\n      0x00\n        /* \"#utility.yul\":9756:9771   */\n      revert\n        /* \"#utility.yul\":9783:9963   */\n    tag_266:\n        /* \"#utility.yul\":9831:9908   */\n      0x4e487b7100000000000000000000000000000000000000000000000000000000\n        /* \"#utility.yul\":9828:9829   */\n      0x00\n        /* \"#utility.yul\":9821:9909   */\n      mstore\n        /* \"#utility.yul\":9928:9932   */\n      0x22\n        /* \"#utility.yul\":9925:9926   */\n      0x04\n        /* \"#utility.yul\":9918:9933   */\n      mstore\n        /* \"#utility.yul\":9952:9956   */\n      0x24\n        /* \"#utility.yul\":9949:9950   */\n      0x00\n        /* \"#utility.yul\":9942:9957   */\n      revert\n        /* \"#utility.yul\":9969:10086   */\n    tag_146:\n        /* \"#utility.yul\":10078:10079   */\n      0x00\n        /* \"#utility.yul\":10075:10076   */\n      dup1\n        /* \"#utility.yul\":10068:10080   */\n      revert\n        /* \"#utility.yul\":10092:10209   */\n    tag_143:\n        /* \"#utility.yul\":10201:10202   */\n      0x00\n        /* \"#utility.yul\":10198:10199   */\n      dup1\n        /* \"#utility.yul\":10191:10203   */\n      revert\n        /* \"#utility.yul\":10215:10332   */\n    tag_149:\n        /* \"#utility.yul\":10324:10325   */\n      0x00\n        /* \"#utility.yul\":10321:10322   */\n      dup1\n        /* \"#utility.yul\":10314:10326   */\n      revert\n        /* \"#utility.yul\":10338:10455   */\n    tag_160:\n        /* \"#utility.yul\":10447:10448   */\n      0x00\n        /* \"#utility.yul\":10444:10445   */\n      dup1\n        /* \"#utility.yul\":10437:10449   */\n      revert\n        /* \"#utility.yul\":10461:10578   */\n    tag_157:\n        /* \"#utility.yul\":10570:10571   */\n      0x00\n        /* \"#utility.yul\":10567:10568   */\n      dup1\n        /* \"#utility.yul\":10560:10572   */\n      revert\n        /* \"#utility.yul\":10584:10686   */\n    tag_201:\n        /* \"#utility.yul\":10625:10631   */\n      0x00\n        /* \"#utility.yul\":10676:10678   */\n      0x1f\n        /* \"#utility.yul\":10672:10679   */\n      not\n        /* \"#utility.yul\":10667:10669   */\n      0x1f\n        /* \"#utility.yul\":10660:10665   */\n      dup4\n        /* \"#utility.yul\":10656:10670   */\n      add\n        /* \"#utility.yul\":10652:10680   */\n      and\n        /* \"#utility.yul\":10642:10680   */\n      swap1\n      pop\n        /* \"#utility.yul\":10584:10686   */\n      swap2\n      swap1\n      pop\n      jump\t// out\n        /* \"#utility.yul\":10692:10806   */\n    tag_207:\n      pop\n      jump\t// out\n        /* \"#utility.yul\":10812:10934   */\n    tag_138:\n        /* \"#utility.yul\":10885:10909   */\n      tag_281\n        /* \"#utility.yul\":10903:10908   */\n      dup2\n        /* \"#utility.yul\":10885:10909   */\n      tag_181\n      jump\t// in\n    tag_281:\n        /* \"#utility.yul\":10878:10883   */\n      dup2\n        /* \"#utility.yul\":10875:10910   */\n      eq\n        /* \"#utility.yul\":10865:10928   */\n      tag_282\n      jumpi\n        /* \"#utility.yul\":10924:10925   */\n      0x00\n        /* \"#utility.yul\":10921:10922   */\n      dup1\n        /* \"#utility.yul\":10914:10926   */\n      revert\n        /* \"#utility.yul\":10865:10928   */\n    tag_282:\n        /* \"#utility.yul\":10812:10934   */\n      pop\n      jump\t// out\n        /* \"#utility.yul\":10940:11062   */\n    tag_153:\n        /* \"#utility.yul\":11013:11037   */\n      tag_284\n        /* \"#utility.yul\":11031:11036   */\n      dup2\n        /* \"#utility.yul\":11013:11037   */\n      tag_211\n      jump\t// in\n    tag_284:\n        /* \"#utility.yul\":11006:11011   */\n      dup2\n        /* \"#utility.yul\":11003:11038   */\n      eq\n        /* \"#utility.yul\":10993:11056   */\n      tag_285\n      jumpi\n        /* \"#utility.yul\":11052:11053   */\n      0x00\n        /* \"#utility.yul\":11049:11050   */\n      dup1\n        /* \"#utility.yul\":11042:11054   */\n      revert\n        /* \"#utility.yul\":10993:11056   */\n    tag_285:\n        /* \"#utility.yul\":10940:11062   */\n      pop\n      jump\t// out\n\n    auxdata: 0xa2646970667358221220d4d65de6a665841bdcbd62d9468701ce326dda6297aa2e8a1f14a6332969b73964736f6c63430008070033\n}\n",
				"bytecode": {
					"linkReferences": {},
					"object": "60806040526113a7806100136000396000f3fe60806040526004361061007b5760003560e01c806379cd49211161004e57806379cd49211461014e5780637acc0b20146101775780638642269e146101b7578063e4bcc7d4146101d35761007b565b80630a5bd44b14610080578063131e407d146100a957806327e7875a146100d257806374cbc3501461010f575b600080fd5b34801561008c57600080fd5b506100a760048036038101906100a29190610e10565b610210565b005b3480156100b557600080fd5b506100d060048036038101906100cb9190610e84565b6103dd565b005b3480156100de57600080fd5b506100f960048036038101906100f49190610ef1565b61062d565b604051610106919061100d565b60405180910390f35b34801561011b57600080fd5b5061013660048036038101906101319190610eb1565b61067b565b60405161014593929190611096565b60405180910390f35b34801561015a57600080fd5b5061017560048036038101906101709190610ef1565b6106b2565b005b34801561018357600080fd5b5061019e60048036038101906101999190610e84565b610743565b6040516101ae949392919061104a565b60405180910390f35b6101d160048036038101906101cc9190610e84565b610808565b005b3480156101df57600080fd5b506101fa60048036038101906101f59190610e84565b610b70565b6040516102079190611028565b60405180910390f35b60028484604051610222929190610fdf565b908152602001604051809103902060009054906101000a900460ff166103a55761024a610c1c565b828160000181815250508181602001818152505084848080601f016020809104026020016040519081016040528093929190818152602001838380828437600081840152601f19601f820116905080830192505050505050508160400181905250600181606001901515908115158152505080600160008080549050815260200190815260200160002060008201518160000155602082015181600101556040820151816002019080519060200190610304929190610c46565b5060608201518160030160006101000a81548160ff02191690831515021790555090505060016002868660405161033c929190610fdf565b908152602001604051809103902060006101000a81548160ff021916908315150217905550600085859091806001815401808255809150506001900390600052602060002001600090919290919290919290919250919061039e929190610ccc565b50506103d7565b6040517fb185df3a00000000000000000000000000000000000000000000000000000000815260040160405180910390fd5b50505050565b60016003600083815260200190815260200160002060003373ffffffffffffffffffffffffffffffffffffffff1673ffffffffffffffffffffffffffffffffffffffff1681526020019081526020016000206002015414156105f85760006003600083815260200190815260200160002060003373ffffffffffffffffffffffffffffffffffffffff1673ffffffffffffffffffffffffffffffffffffffff1681526020019081526020016000206040518060600160405290816000820154815260200160018201548152602001600282015481525050905060648160000151436104c89190611155565b1115610500576040517f6e9beb2100000000000000000000000000000000000000000000000000000000815260040160405180910390fd5b60026003600084815260200190815260200160002060003373ffffffffffffffffffffffffffffffffffffffff1673ffffffffffffffffffffffffffffffffffffffff168152602001908152602001600020600201819055506001600083815260200190815260200160002060010160008154809291906105809061126f565b91905055503373ffffffffffffffffffffffffffffffffffffffff1681602001516040516105ad90610ff8565b60006040518083038185875af1925050503d80600081146105ea576040519150601f19603f3d011682016040523d82523d6000602084013e6105ef565b606091505b5050505061062a565b6040517fc55091df00000000000000000000000000000000000000000000000000000000815260040160405180910390fd5b50565b6004602052816000526040600020818154811061064957600080fd5b906000526020600020016000915091509054906101000a900473ffffffffffffffffffffffffffffffffffffffff1681565b6003602052816000526040600020602052806000526040600020600091509150508060000154908060010154908060020154905083565b6001600083815260200190815260200160002060030160009054906101000a900460ff161561070d578060016000848152602001908152602001600020600101600082825461070191906110ff565b9250508190555061073f565b6040517f7e8d96a900000000000000000000000000000000000000000000000000000000815260040160405180910390fd5b5050565b60016020528060005260406000206000915090508060000154908060010154908060020180546107729061123d565b80601f016020809104026020016040519081016040528092919081815260200182805461079e9061123d565b80156107eb5780601f106107c0576101008083540402835291602001916107eb565b820191906000526020600020905b8154815290600101906020018083116107ce57829003601f168201915b5050505050908060030160009054906101000a900460ff16905084565b60008054905081108015610870575060016003600083815260200190815260200160002060003373ffffffffffffffffffffffffffffffffffffffff1673ffffffffffffffffffffffffffffffffffffffff1681526020019081526020016000206002015414155b15610b3b5760006001600083815260200190815260200160002060405180608001604052908160008201548152602001600182015481526020016002820180546108b99061123d565b80601f01602080910402602001604051908101604052809291908181526020018280546108e59061123d565b80156109325780601f1061090757610100808354040283529160200191610932565b820191906000526020600020905b81548152906001019060200180831161091557829003601f168201915b505050505081526020016003820160009054906101000a900460ff1615151515815250509050806000015134108061096e575060018160200151105b156109a5576040517ff80236cc00000000000000000000000000000000000000000000000000000000815260040160405180910390fd5b6109ad610d52565b4381600001818152505081600001518160200181815250506001816040018181525050806003600085815260200190815260200160002060003373ffffffffffffffffffffffffffffffffffffffff1673ffffffffffffffffffffffffffffffffffffffff168152602001908152602001600020600082015181600001556020820151816001015560408201518160020155905050816020018051809190610a5490611213565b81525050816001600085815260200190815260200160002060008201518160000155602082015181600101556040820151816002019080519060200190610a9c929190610c46565b5060608201518160030160006101000a81548160ff02191690831515021790555090505060046000848152602001908152602001600020339080600181540180825580915050600190039060005260206000200160009091909190916101000a81548173ffffffffffffffffffffffffffffffffffffffff021916908373ffffffffffffffffffffffffffffffffffffffff1602179055505050610b6d565b6040517fd42c9b8b00000000000000000000000000000000000000000000000000000000815260040160405180910390fd5b50565b60008181548110610b8057600080fd5b906000526020600020016000915090508054610b9b9061123d565b80601f0160208091040260200160405190810160405280929190818152602001828054610bc79061123d565b8015610c145780601f10610be957610100808354040283529160200191610c14565b820191906000526020600020905b815481529060010190602001808311610bf757829003601f168201915b505050505081565b60405180608001604052806000815260200160008152602001606081526020016000151581525090565b828054610c529061123d565b90600052602060002090601f016020900481019282610c745760008555610cbb565b82601f10610c8d57805160ff1916838001178555610cbb565b82800160010185558215610cbb579182015b82811115610cba578251825591602001919060010190610c9f565b5b509050610cc89190610d73565b5090565b828054610cd89061123d565b90600052602060002090601f016020900481019282610cfa5760008555610d41565b82601f10610d1357803560ff1916838001178555610d41565b82800160010185558215610d41579182015b82811115610d40578235825591602001919060010190610d25565b5b509050610d4e9190610d73565b5090565b60405180606001604052806000815260200160008152602001600081525090565b5b80821115610d8c576000816000905550600101610d74565b5090565b600081359050610d9f81611343565b92915050565b60008083601f840112610dbb57610dba61131b565b5b8235905067ffffffffffffffff811115610dd857610dd7611316565b5b602083019150836001820283011115610df457610df3611320565b5b9250929050565b600081359050610e0a8161135a565b92915050565b60008060008060608587031215610e2a57610e2961132a565b5b600085013567ffffffffffffffff811115610e4857610e47611325565b5b610e5487828801610da5565b94509450506020610e6787828801610dfb565b9250506040610e7887828801610dfb565b91505092959194509250565b600060208284031215610e9a57610e9961132a565b5b6000610ea884828501610dfb565b91505092915050565b60008060408385031215610ec857610ec761132a565b5b6000610ed685828601610dfb565b9250506020610ee785828601610d90565b9150509250929050565b60008060408385031215610f0857610f0761132a565b5b6000610f1685828601610dfb565b9250506020610f2785828601610dfb565b9150509250929050565b610f3a81611189565b82525050565b610f498161119b565b82525050565b6000610f5b83856110f4565b9350610f688385846111d1565b82840190509392505050565b6000610f7f826110cd565b610f8981856110e3565b9350610f998185602086016111e0565b610fa28161132f565b840191505092915050565b6000610fba6000836110d8565b9150610fc582611340565b600082019050919050565b610fd9816111c7565b82525050565b6000610fec828486610f4f565b91508190509392505050565b600061100382610fad565b9150819050919050565b60006020820190506110226000830184610f31565b92915050565b600060208201905081810360008301526110428184610f74565b905092915050565b600060808201905061105f6000830187610fd0565b61106c6020830186610fd0565b818103604083015261107e8185610f74565b905061108d6060830184610f40565b95945050505050565b60006060820190506110ab6000830186610fd0565b6110b86020830185610fd0565b6110c56040830184610fd0565b949350505050565b600081519050919050565b600081905092915050565b600082825260208201905092915050565b600081905092915050565b600061110a826111c7565b9150611115836111c7565b9250827fffffffffffffffffffffffffffffffffffffffffffffffffffffffffffffffff0382111561114a576111496112b8565b5b828201905092915050565b6000611160826111c7565b915061116b836111c7565b92508282101561117e5761117d6112b8565b5b828203905092915050565b6000611194826111a7565b9050919050565b60008115159050919050565b600073ffffffffffffffffffffffffffffffffffffffff82169050919050565b6000819050919050565b82818337600083830152505050565b60005b838110156111fe5780820151818401526020810190506111e3565b8381111561120d576000848401525b50505050565b600061121e826111c7565b91506000821415611232576112316112b8565b5b600182039050919050565b6000600282049050600182168061125557607f821691505b60208210811415611269576112686112e7565b5b50919050565b600061127a826111c7565b91507fffffffffffffffffffffffffffffffffffffffffffffffffffffffffffffffff8214156112ad576112ac6112b8565b5b600182019050919050565b7f4e487b7100000000000000000000000000000000000000000000000000000000600052601160045260246000fd5b7f4e487b7100000000000000000000000000000000000000000000000000000000600052602260045260246000fd5b600080fd5b600080fd5b600080fd5b600080fd5b600080fd5b6000601f19601f8301169050919050565b50565b61134c81611189565b811461135757600080fd5b50565b611363816111c7565b811461136e57600080fd5b5056fea2646970667358221220d4d65de6a665841bdcbd62d9468701ce326dda6297aa2e8a1f14a6332969b73964736f6c63430008070033",
					"opcodes": "PUSH1 0x80 PUSH1 0x40 MSTORE PUSH2 0x13A7 DUP1 PUSH2 0x13 PUSH1 0x0 CODECOPY PUSH1 0x0 RETURN INVALID PUSH1 0x80 PUSH1 0x40 MSTORE PUSH1 0x4 CALLDATASIZE LT PUSH2 0x7B JUMPI PUSH1 0x0 CALLDATALOAD PUSH1 0xE0 SHR DUP1 PUSH4 0x79CD4921 GT PUSH2 0x4E JUMPI DUP1 PUSH4 0x79CD4921 EQ PUSH2 0x14E JUMPI DUP1 PUSH4 0x7ACC0B20 EQ PUSH2 0x177 JUMPI DUP1 PUSH4 0x8642269E EQ PUSH2 0x1B7 JUMPI DUP1 PUSH4 0xE4BCC7D4 EQ PUSH2 0x1D3 JUMPI PUSH2 0x7B JUMP JUMPDEST DUP1 PUSH4 0xA5BD44B EQ PUSH2 0x80 JUMPI DUP1 PUSH4 0x131E407D EQ PUSH2 0xA9 JUMPI DUP1 PUSH4 0x27E7875A EQ PUSH2 0xD2 JUMPI DUP1 PUSH4 0x74CBC350 EQ PUSH2 0x10F JUMPI JUMPDEST PUSH1 0x0 DUP1 REVERT JUMPDEST CALLVALUE DUP1 ISZERO PUSH2 0x8C JUMPI PUSH1 0x0 DUP1 REVERT JUMPDEST POP PUSH2 0xA7 PUSH1 0x4 DUP1 CALLDATASIZE SUB DUP2 ADD SWAP1 PUSH2 0xA2 SWAP2 SWAP1 PUSH2 0xE10 JUMP JUMPDEST PUSH2 0x210 JUMP JUMPDEST STOP JUMPDEST CALLVALUE DUP1 ISZERO PUSH2 0xB5 JUMPI PUSH1 0x0 DUP1 REVERT JUMPDEST POP PUSH2 0xD0 PUSH1 0x4 DUP1 CALLDATASIZE SUB DUP2 ADD SWAP1 PUSH2 0xCB SWAP2 SWAP1 PUSH2 0xE84 JUMP JUMPDEST PUSH2 0x3DD JUMP JUMPDEST STOP JUMPDEST CALLVALUE DUP1 ISZERO PUSH2 0xDE JUMPI PUSH1 0x0 DUP1 REVERT JUMPDEST POP PUSH2 0xF9 PUSH1 0x4 DUP1 CALLDATASIZE SUB DUP2 ADD SWAP1 PUSH2 0xF4 SWAP2 SWAP1 PUSH2 0xEF1 JUMP JUMPDEST PUSH2 0x62D JUMP JUMPDEST PUSH1 0x40 MLOAD PUSH2 0x106 SWAP2 SWAP1 PUSH2 0x100D JUMP JUMPDEST PUSH1 0x40 MLOAD DUP1 SWAP2 SUB SWAP1 RETURN JUMPDEST CALLVALUE DUP1 ISZERO PUSH2 0x11B JUMPI PUSH1 0x0 DUP1 REVERT JUMPDEST POP PUSH2 0x136 PUSH1 0x4 DUP1 CALLDATASIZE SUB DUP2 ADD SWAP1 PUSH2 0x131 SWAP2 SWAP1 PUSH2 0xEB1 JUMP JUMPDEST PUSH2 0x67B JUMP JUMPDEST PUSH1 0x40 MLOAD PUSH2 0x145 SWAP4 SWAP3 SWAP2 SWAP1 PUSH2 0x1096 JUMP JUMPDEST PUSH1 0x40 MLOAD DUP1 SWAP2 SUB SWAP1 RETURN JUMPDEST CALLVALUE DUP1 ISZERO PUSH2 0x15A JUMPI PUSH1 0x0 DUP1 REVERT JUMPDEST POP PUSH2 0x175 PUSH1 0x4 DUP1 CALLDATASIZE SUB DUP2 ADD SWAP1 PUSH2 0x170 SWAP2 SWAP1 PUSH2 0xEF1 JUMP JUMPDEST PUSH2 0x6B2 JUMP JUMPDEST STOP JUMPDEST CALLVALUE DUP1 ISZERO PUSH2 0x183 JUMPI PUSH1 0x0 DUP1 REVERT JUMPDEST POP PUSH2 0x19E PUSH1 0x4 DUP1 CALLDATASIZE SUB DUP2 ADD SWAP1 PUSH2 0x199 SWAP2 SWAP1 PUSH2 0xE84 JUMP JUMPDEST PUSH2 0x743 JUMP JUMPDEST PUSH1 0x40 MLOAD PUSH2 0x1AE SWAP5 SWAP4 SWAP3 SWAP2 SWAP1 PUSH2 0x104A JUMP JUMPDEST PUSH1 0x40 MLOAD DUP1 SWAP2 SUB SWAP1 RETURN JUMPDEST PUSH2 0x1D1 PUSH1 0x4 DUP1 CALLDATASIZE SUB DUP2 ADD SWAP1 PUSH2 0x1CC SWAP2 SWAP1 PUSH2 0xE84 JUMP JUMPDEST PUSH2 0x808 JUMP JUMPDEST STOP JUMPDEST CALLVALUE DUP1 ISZERO PUSH2 0x1DF JUMPI PUSH1 0x0 DUP1 REVERT JUMPDEST POP PUSH2 0x1FA PUSH1 0x4 DUP1 CALLDATASIZE SUB DUP2 ADD SWAP1 PUSH2 0x1F5 SWAP2 SWAP1 PUSH2 0xE84 JUMP JUMPDEST PUSH2 0xB70 JUMP JUMPDEST PUSH1 0x40 MLOAD PUSH2 0x207 SWAP2 SWAP1 PUSH2 0x1028 JUMP JUMPDEST PUSH1 0x40 MLOAD DUP1 SWAP2 SUB SWAP1 RETURN JUMPDEST PUSH1 0x2 DUP5 DUP5 PUSH1 0x40 MLOAD PUSH2 0x222 SWAP3 SWAP2 SWAP1 PUSH2 0xFDF JUMP JUMPDEST SWAP1 DUP2 MSTORE PUSH1 0x20 ADD PUSH1 0x40 MLOAD DUP1 SWAP2 SUB SWAP1 KECCAK256 PUSH1 0x0 SWAP1 SLOAD SWAP1 PUSH2 0x100 EXP SWAP1 DIV PUSH1 0xFF AND PUSH2 0x3A5 JUMPI PUSH2 0x24A PUSH2 0xC1C JUMP JUMPDEST DUP3 DUP2 PUSH1 0x0 ADD DUP2 DUP2 MSTORE POP POP DUP2 DUP2 PUSH1 0x20 ADD DUP2 DUP2 MSTORE POP POP DUP5 DUP5 DUP1 DUP1 PUSH1 0x1F ADD PUSH1 0x20 DUP1 SWAP2 DIV MUL PUSH1 0x20 ADD PUSH1 0x40 MLOAD SWAP1 DUP2 ADD PUSH1 0x40 MSTORE DUP1 SWAP4 SWAP3 SWAP2 SWAP1 DUP2 DUP2 MSTORE PUSH1 0x20 ADD DUP4 DUP4 DUP1 DUP3 DUP5 CALLDATACOPY PUSH1 0x0 DUP2 DUP5 ADD MSTORE PUSH1 0x1F NOT PUSH1 0x1F DUP3 ADD AND SWAP1 POP DUP1 DUP4 ADD SWAP3 POP POP POP POP POP POP POP DUP2 PUSH1 0x40 ADD DUP2 SWAP1 MSTORE POP PUSH1 0x1 DUP2 PUSH1 0x60 ADD SWAP1 ISZERO ISZERO SWAP1 DUP2 ISZERO ISZERO DUP2 MSTORE POP POP DUP1 PUSH1 0x1 PUSH1 0x0 DUP1 DUP1 SLOAD SWAP1 POP DUP2 MSTORE PUSH1 0x20 ADD SWAP1 DUP2 MSTORE PUSH1 0x20 ADD PUSH1 0x0 KECCAK256 PUSH1 0x0 DUP3 ADD MLOAD DUP2 PUSH1 0x0 ADD SSTORE PUSH1 0x20 DUP3 ADD MLOAD DUP2 PUSH1 0x1 ADD SSTORE PUSH1 0x40 DUP3 ADD MLOAD DUP2 PUSH1 0x2 ADD SWAP1 DUP1 MLOAD SWAP1 PUSH1 0x20 ADD SWAP1 PUSH2 0x304 SWAP3 SWAP2 SWAP1 PUSH2 0xC46 JUMP JUMPDEST POP PUSH1 0x60 DUP3 ADD MLOAD DUP2 PUSH1 0x3 ADD PUSH1 0x0 PUSH2 0x100 EXP DUP2 SLOAD DUP2 PUSH1 0xFF MUL NOT AND SWAP1 DUP4 ISZERO ISZERO MUL OR SWAP1 SSTORE POP SWAP1 POP POP PUSH1 0x1 PUSH1 0x2 DUP7 DUP7 PUSH1 0x40 MLOAD PUSH2 0x33C SWAP3 SWAP2 SWAP1 PUSH2 0xFDF JUMP JUMPDEST SWAP1 DUP2 MSTORE PUSH1 0x20 ADD PUSH1 0x40 MLOAD DUP1 SWAP2 SUB SWAP1 KECCAK256 PUSH1 0x0 PUSH2 0x100 EXP DUP2 SLOAD DUP2 PUSH1 0xFF MUL NOT AND SWAP1 DUP4 ISZERO ISZERO MUL OR SWAP1 SSTORE POP PUSH1 0x0 DUP6 DUP6 SWAP1 SWAP2 DUP1 PUSH1 0x1 DUP2 SLOAD ADD DUP1 DUP3 SSTORE DUP1 SWAP2 POP POP PUSH1 0x1 SWAP1 SUB SWAP1 PUSH1 0x0 MSTORE PUSH1 0x20 PUSH1 0x0 KECCAK256 ADD PUSH1 0x0 SWAP1 SWAP2 SWAP3 SWAP1 SWAP2 SWAP3 SWAP1 SWAP2 SWAP3 SWAP1 SWAP2 SWAP3 POP SWAP2 SWAP1 PUSH2 0x39E SWAP3 SWAP2 SWAP1 PUSH2 0xCCC JUMP JUMPDEST POP POP PUSH2 0x3D7 JUMP JUMPDEST PUSH1 0x40 MLOAD PUSH32 0xB185DF3A00000000000000000000000000000000000000000000000000000000 DUP2 MSTORE PUSH1 0x4 ADD PUSH1 0x40 MLOAD DUP1 SWAP2 SUB SWAP1 REVERT JUMPDEST POP POP POP POP JUMP JUMPDEST PUSH1 0x1 PUSH1 0x3 PUSH1 0x0 DUP4 DUP2 MSTORE PUSH1 0x20 ADD SWAP1 DUP2 MSTORE PUSH1 0x20 ADD PUSH1 0x0 KECCAK256 PUSH1 0x0 CALLER PUSH20 0xFFFFFFFFFFFFFFFFFFFFFFFFFFFFFFFFFFFFFFFF AND PUSH20 0xFFFFFFFFFFFFFFFFFFFFFFFFFFFFFFFFFFFFFFFF AND DUP2 MSTORE PUSH1 0x20 ADD SWAP1 DUP2 MSTORE PUSH1 0x20 ADD PUSH1 0x0 KECCAK256 PUSH1 0x2 ADD SLOAD EQ ISZERO PUSH2 0x5F8 JUMPI PUSH1 0x0 PUSH1 0x3 PUSH1 0x0 DUP4 DUP2 MSTORE PUSH1 0x20 ADD SWAP1 DUP2 MSTORE PUSH1 0x20 ADD PUSH1 0x0 KECCAK256 PUSH1 0x0 CALLER PUSH20 0xFFFFFFFFFFFFFFFFFFFFFFFFFFFFFFFFFFFFFFFF AND PUSH20 0xFFFFFFFFFFFFFFFFFFFFFFFFFFFFFFFFFFFFFFFF AND DUP2 MSTORE PUSH1 0x20 ADD SWAP1 DUP2 MSTORE PUSH1 0x20 ADD PUSH1 0x0 KECCAK256 PUSH1 0x40 MLOAD DUP1 PUSH1 0x60 ADD PUSH1 0x40 MSTORE SWAP1 DUP2 PUSH1 0x0 DUP3 ADD SLOAD DUP2 MSTORE PUSH1 0x20 ADD PUSH1 0x1 DUP3 ADD SLOAD DUP2 MSTORE PUSH1 0x20 ADD PUSH1 0x2 DUP3 ADD SLOAD DUP2 MSTORE POP POP SWAP1 POP PUSH1 0x64 DUP2 PUSH1 0x0 ADD MLOAD NUMBER PUSH2 0x4C8 SWAP2 SWAP1 PUSH2 0x1155 JUMP JUMPDEST GT ISZERO PUSH2 0x500 JUMPI PUSH1 0x40 MLOAD PUSH32 0x6E9BEB2100000000000000000000000000000000000000000000000000000000 DUP2 MSTORE PUSH1 0x4 ADD PUSH1 0x40 MLOAD DUP1 SWAP2 SUB SWAP1 REVERT JUMPDEST PUSH1 0x2 PUSH1 0x3 PUSH1 0x0 DUP5 DUP2 MSTORE PUSH1 0x20 ADD SWAP1 DUP2 MSTORE PUSH1 0x20 ADD PUSH1 0x0 KECCAK256 PUSH1 0x0 CALLER PUSH20 0xFFFFFFFFFFFFFFFFFFFFFFFFFFFFFFFFFFFFFFFF AND PUSH20 0xFFFFFFFFFFFFFFFFFFFFFFFFFFFFFFFFFFFFFFFF AND DUP2 MSTORE PUSH1 0x20 ADD SWAP1 DUP2 MSTORE PUSH1 0x20 ADD PUSH1 0x0 KECCAK256 PUSH1 0x2 ADD DUP2 SWAP1 SSTORE POP PUSH1 0x1 PUSH1 0x0 DUP4 DUP2 MSTORE PUSH1 0x20 ADD SWAP1 DUP2 MSTORE PUSH1 0x20 ADD PUSH1 0x0 KECCAK256 PUSH1 0x1 ADD PUSH1 0x0 DUP2 SLOAD DUP1 SWAP3 SWAP2 SWAP1 PUSH2 0x580 SWAP1 PUSH2 0x126F JUMP JUMPDEST SWAP2 SWAP1 POP SSTORE POP CALLER PUSH20 0xFFFFFFFFFFFFFFFFFFFFFFFFFFFFFFFFFFFFFFFF AND DUP2 PUSH1 0x20 ADD MLOAD PUSH1 0x40 MLOAD PUSH2 0x5AD SWAP1 PUSH2 0xFF8 JUMP JUMPDEST PUSH1 0x0 PUSH1 0x40 MLOAD DUP1 DUP4 SUB DUP2 DUP6 DUP8 GAS CALL SWAP3 POP POP POP RETURNDATASIZE DUP1 PUSH1 0x0 DUP2 EQ PUSH2 0x5EA JUMPI PUSH1 0x40 MLOAD SWAP2 POP PUSH1 0x1F NOT PUSH1 0x3F RETURNDATASIZE ADD AND DUP3 ADD PUSH1 0x40 MSTORE RETURNDATASIZE DUP3 MSTORE RETURNDATASIZE PUSH1 0x0 PUSH1 0x20 DUP5 ADD RETURNDATACOPY PUSH2 0x5EF JUMP JUMPDEST PUSH1 0x60 SWAP2 POP JUMPDEST POP POP POP POP PUSH2 0x62A JUMP JUMPDEST PUSH1 0x40 MLOAD PUSH32 0xC55091DF00000000000000000000000000000000000000000000000000000000 DUP2 MSTORE PUSH1 0x4 ADD PUSH1 0x40 MLOAD DUP1 SWAP2 SUB SWAP1 REVERT JUMPDEST POP JUMP JUMPDEST PUSH1 0x4 PUSH1 0x20 MSTORE DUP2 PUSH1 0x0 MSTORE PUSH1 0x40 PUSH1 0x0 KECCAK256 DUP2 DUP2 SLOAD DUP2 LT PUSH2 0x649 JUMPI PUSH1 0x0 DUP1 REVERT JUMPDEST SWAP1 PUSH1 0x0 MSTORE PUSH1 0x20 PUSH1 0x0 KECCAK256 ADD PUSH1 0x0 SWAP2 POP SWAP2 POP SWAP1 SLOAD SWAP1 PUSH2 0x100 EXP SWAP1 DIV PUSH20 0xFFFFFFFFFFFFFFFFFFFFFFFFFFFFFFFFFFFFFFFF AND DUP2 JUMP JUMPDEST PUSH1 0x3 PUSH1 0x20 MSTORE DUP2 PUSH1 0x0 MSTORE PUSH1 0x40 PUSH1 0x0 KECCAK256 PUSH1 0x20 MSTORE DUP1 PUSH1 0x0 MSTORE PUSH1 0x40 PUSH1 0x0 KECCAK256 PUSH1 0x0 SWAP2 POP SWAP2 POP POP DUP1 PUSH1 0x0 ADD SLOAD SWAP1 DUP1 PUSH1 0x1 ADD SLOAD SWAP1 DUP1 PUSH1 0x2 ADD SLOAD SWAP1 POP DUP4 JUMP JUMPDEST PUSH1 0x1 PUSH1 0x0 DUP4 DUP2 MSTORE PUSH1 0x20 ADD SWAP1 DUP2 MSTORE PUSH1 0x20 ADD PUSH1 0x0 KECCAK256 PUSH1 0x3 ADD PUSH1 0x0 SWAP1 SLOAD SWAP1 PUSH2 0x100 EXP SWAP1 DIV PUSH1 0xFF AND ISZERO PUSH2 0x70D JUMPI DUP1 PUSH1 0x1 PUSH1 0x0 DUP5 DUP2 MSTORE PUSH1 0x20 ADD SWAP1 DUP2 MSTORE PUSH1 0x20 ADD PUSH1 0x0 KECCAK256 PUSH1 0x1 ADD PUSH1 0x0 DUP3 DUP3 SLOAD PUSH2 0x701 SWAP2 SWAP1 PUSH2 0x10FF JUMP JUMPDEST SWAP3 POP POP DUP2 SWAP1 SSTORE POP PUSH2 0x73F JUMP JUMPDEST PUSH1 0x40 MLOAD PUSH32 0x7E8D96A900000000000000000000000000000000000000000000000000000000 DUP2 MSTORE PUSH1 0x4 ADD PUSH1 0x40 MLOAD DUP1 SWAP2 SUB SWAP1 REVERT JUMPDEST POP POP JUMP JUMPDEST PUSH1 0x1 PUSH1 0x20 MSTORE DUP1 PUSH1 0x0 MSTORE PUSH1 0x40 PUSH1 0x0 KECCAK256 PUSH1 0x0 SWAP2 POP SWAP1 POP DUP1 PUSH1 0x0 ADD SLOAD SWAP1 DUP1 PUSH1 0x1 ADD SLOAD SWAP1 DUP1 PUSH1 0x2 ADD DUP1 SLOAD PUSH2 0x772 SWAP1 PUSH2 0x123D JUMP JUMPDEST DUP1 PUSH1 0x1F ADD PUSH1 0x20 DUP1 SWAP2 DIV MUL PUSH1 0x20 ADD PUSH1 0x40 MLOAD SWAP1 DUP2 ADD PUSH1 0x40 MSTORE DUP1 SWAP3 SWAP2 SWAP1 DUP2 DUP2 MSTORE PUSH1 0x20 ADD DUP3 DUP1 SLOAD PUSH2 0x79E SWAP1 PUSH2 0x123D JUMP JUMPDEST DUP1 ISZERO PUSH2 0x7EB JUMPI DUP1 PUSH1 0x1F LT PUSH2 0x7C0 JUMPI PUSH2 0x100 DUP1 DUP4 SLOAD DIV MUL DUP4 MSTORE SWAP2 PUSH1 0x20 ADD SWAP2 PUSH2 0x7EB JUMP JUMPDEST DUP3 ADD SWAP2 SWAP1 PUSH1 0x0 MSTORE PUSH1 0x20 PUSH1 0x0 KECCAK256 SWAP1 JUMPDEST DUP2 SLOAD DUP2 MSTORE SWAP1 PUSH1 0x1 ADD SWAP1 PUSH1 0x20 ADD DUP1 DUP4 GT PUSH2 0x7CE JUMPI DUP3 SWAP1 SUB PUSH1 0x1F AND DUP3 ADD SWAP2 JUMPDEST POP POP POP POP POP SWAP1 DUP1 PUSH1 0x3 ADD PUSH1 0x0 SWAP1 SLOAD SWAP1 PUSH2 0x100 EXP SWAP1 DIV PUSH1 0xFF AND SWAP1 POP DUP5 JUMP JUMPDEST PUSH1 0x0 DUP1 SLOAD SWAP1 POP DUP2 LT DUP1 ISZERO PUSH2 0x870 JUMPI POP PUSH1 0x1 PUSH1 0x3 PUSH1 0x0 DUP4 DUP2 MSTORE PUSH1 0x20 ADD SWAP1 DUP2 MSTORE PUSH1 0x20 ADD PUSH1 0x0 KECCAK256 PUSH1 0x0 CALLER PUSH20 0xFFFFFFFFFFFFFFFFFFFFFFFFFFFFFFFFFFFFFFFF AND PUSH20 0xFFFFFFFFFFFFFFFFFFFFFFFFFFFFFFFFFFFFFFFF AND DUP2 MSTORE PUSH1 0x20 ADD SWAP1 DUP2 MSTORE PUSH1 0x20 ADD PUSH1 0x0 KECCAK256 PUSH1 0x2 ADD SLOAD EQ ISZERO JUMPDEST ISZERO PUSH2 0xB3B JUMPI PUSH1 0x0 PUSH1 0x1 PUSH1 0x0 DUP4 DUP2 MSTORE PUSH1 0x20 ADD SWAP1 DUP2 MSTORE PUSH1 0x20 ADD PUSH1 0x0 KECCAK256 PUSH1 0x40 MLOAD DUP1 PUSH1 0x80 ADD PUSH1 0x40 MSTORE SWAP1 DUP2 PUSH1 0x0 DUP3 ADD SLOAD DUP2 MSTORE PUSH1 0x20 ADD PUSH1 0x1 DUP3 ADD SLOAD DUP2 MSTORE PUSH1 0x20 ADD PUSH1 0x2 DUP3 ADD DUP1 SLOAD PUSH2 0x8B9 SWAP1 PUSH2 0x123D JUMP JUMPDEST DUP1 PUSH1 0x1F ADD PUSH1 0x20 DUP1 SWAP2 DIV MUL PUSH1 0x20 ADD PUSH1 0x40 MLOAD SWAP1 DUP2 ADD PUSH1 0x40 MSTORE DUP1 SWAP3 SWAP2 SWAP1 DUP2 DUP2 MSTORE PUSH1 0x20 ADD DUP3 DUP1 SLOAD PUSH2 0x8E5 SWAP1 PUSH2 0x123D JUMP JUMPDEST DUP1 ISZERO PUSH2 0x932 JUMPI DUP1 PUSH1 0x1F LT PUSH2 0x907 JUMPI PUSH2 0x100 DUP1 DUP4 SLOAD DIV MUL DUP4 MSTORE SWAP2 PUSH1 0x20 ADD SWAP2 PUSH2 0x932 JUMP JUMPDEST DUP3 ADD SWAP2 SWAP1 PUSH1 0x0 MSTORE PUSH1 0x20 PUSH1 0x0 KECCAK256 SWAP1 JUMPDEST DUP2 SLOAD DUP2 MSTORE SWAP1 PUSH1 0x1 ADD SWAP1 PUSH1 0x20 ADD DUP1 DUP4 GT PUSH2 0x915 JUMPI DUP3 SWAP1 SUB PUSH1 0x1F AND DUP3 ADD SWAP2 JUMPDEST POP POP POP POP POP DUP2 MSTORE PUSH1 0x20 ADD PUSH1 0x3 DUP3 ADD PUSH1 0x0 SWAP1 SLOAD SWAP1 PUSH2 0x100 EXP SWAP1 DIV PUSH1 0xFF AND ISZERO ISZERO ISZERO ISZERO DUP2 MSTORE POP POP SWAP1 POP DUP1 PUSH1 0x0 ADD MLOAD CALLVALUE LT DUP1 PUSH2 0x96E JUMPI POP PUSH1 0x1 DUP2 PUSH1 0x20 ADD MLOAD LT JUMPDEST ISZERO PUSH2 0x9A5 JUMPI PUSH1 0x40 MLOAD PUSH32 0xF80236CC00000000000000000000000000000000000000000000000000000000 DUP2 MSTORE PUSH1 0x4 ADD PUSH1 0x40 MLOAD DUP1 SWAP2 SUB SWAP1 REVERT JUMPDEST PUSH2 0x9AD PUSH2 0xD52 JUMP JUMPDEST NUMBER DUP2 PUSH1 0x0 ADD DUP2 DUP2 MSTORE POP POP DUP2 PUSH1 0x0 ADD MLOAD DUP2 PUSH1 0x20 ADD DUP2 DUP2 MSTORE POP POP PUSH1 0x1 DUP2 PUSH1 0x40 ADD DUP2 DUP2 MSTORE POP POP DUP1 PUSH1 0x3 PUSH1 0x0 DUP6 DUP2 MSTORE PUSH1 0x20 ADD SWAP1 DUP2 MSTORE PUSH1 0x20 ADD PUSH1 0x0 KECCAK256 PUSH1 0x0 CALLER PUSH20 0xFFFFFFFFFFFFFFFFFFFFFFFFFFFFFFFFFFFFFFFF AND PUSH20 0xFFFFFFFFFFFFFFFFFFFFFFFFFFFFFFFFFFFFFFFF AND DUP2 MSTORE PUSH1 0x20 ADD SWAP1 DUP2 MSTORE PUSH1 0x20 ADD PUSH1 0x0 KECCAK256 PUSH1 0x0 DUP3 ADD MLOAD DUP2 PUSH1 0x0 ADD SSTORE PUSH1 0x20 DUP3 ADD MLOAD DUP2 PUSH1 0x1 ADD SSTORE PUSH1 0x40 DUP3 ADD MLOAD DUP2 PUSH1 0x2 ADD SSTORE SWAP1 POP POP DUP2 PUSH1 0x20 ADD DUP1 MLOAD DUP1 SWAP2 SWAP1 PUSH2 0xA54 SWAP1 PUSH2 0x1213 JUMP JUMPDEST DUP2 MSTORE POP POP DUP2 PUSH1 0x1 PUSH1 0x0 DUP6 DUP2 MSTORE PUSH1 0x20 ADD SWAP1 DUP2 MSTORE PUSH1 0x20 ADD PUSH1 0x0 KECCAK256 PUSH1 0x0 DUP3 ADD MLOAD DUP2 PUSH1 0x0 ADD SSTORE PUSH1 0x20 DUP3 ADD MLOAD DUP2 PUSH1 0x1 ADD SSTORE PUSH1 0x40 DUP3 ADD MLOAD DUP2 PUSH1 0x2 ADD SWAP1 DUP1 MLOAD SWAP1 PUSH1 0x20 ADD SWAP1 PUSH2 0xA9C SWAP3 SWAP2 SWAP1 PUSH2 0xC46 JUMP JUMPDEST POP PUSH1 0x60 DUP3 ADD MLOAD DUP2 PUSH1 0x3 ADD PUSH1 0x0 PUSH2 0x100 EXP DUP2 SLOAD DUP2 PUSH1 0xFF MUL NOT AND SWAP1 DUP4 ISZERO ISZERO MUL OR SWAP1 SSTORE POP SWAP1 POP POP PUSH1 0x4 PUSH1 0x0 DUP5 DUP2 MSTORE PUSH1 0x20 ADD SWAP1 DUP2 MSTORE PUSH1 0x20 ADD PUSH1 0x0 KECCAK256 CALLER SWAP1 DUP1 PUSH1 0x1 DUP2 SLOAD ADD DUP1 DUP3 SSTORE DUP1 SWAP2 POP POP PUSH1 0x1 SWAP1 SUB SWAP1 PUSH1 0x0 MSTORE PUSH1 0x20 PUSH1 0x0 KECCAK256 ADD PUSH1 0x0 SWAP1 SWAP2 SWAP1 SWAP2 SWAP1 SWAP2 PUSH2 0x100 EXP DUP2 SLOAD DUP2 PUSH20 0xFFFFFFFFFFFFFFFFFFFFFFFFFFFFFFFFFFFFFFFF MUL NOT AND SWAP1 DUP4 PUSH20 0xFFFFFFFFFFFFFFFFFFFFFFFFFFFFFFFFFFFFFFFF AND MUL OR SWAP1 SSTORE POP POP POP PUSH2 0xB6D JUMP JUMPDEST PUSH1 0x40 MLOAD PUSH32 0xD42C9B8B00000000000000000000000000000000000000000000000000000000 DUP2 MSTORE PUSH1 0x4 ADD PUSH1 0x40 MLOAD DUP1 SWAP2 SUB SWAP1 REVERT JUMPDEST POP JUMP JUMPDEST PUSH1 0x0 DUP2 DUP2 SLOAD DUP2 LT PUSH2 0xB80 JUMPI PUSH1 0x0 DUP1 REVERT JUMPDEST SWAP1 PUSH1 0x0 MSTORE PUSH1 0x20 PUSH1 0x0 KECCAK256 ADD PUSH1 0x0 SWAP2 POP SWAP1 POP DUP1 SLOAD PUSH2 0xB9B SWAP1 PUSH2 0x123D JUMP JUMPDEST DUP1 PUSH1 0x1F ADD PUSH1 0x20 DUP1 SWAP2 DIV MUL PUSH1 0x20 ADD PUSH1 0x40 MLOAD SWAP1 DUP2 ADD PUSH1 0x40 MSTORE DUP1 SWAP3 SWAP2 SWAP1 DUP2 DUP2 MSTORE PUSH1 0x20 ADD DUP3 DUP1 SLOAD PUSH2 0xBC7 SWAP1 PUSH2 0x123D JUMP JUMPDEST DUP1 ISZERO PUSH2 0xC14 JUMPI DUP1 PUSH1 0x1F LT PUSH2 0xBE9 JUMPI PUSH2 0x100 DUP1 DUP4 SLOAD DIV MUL DUP4 MSTORE SWAP2 PUSH1 0x20 ADD SWAP2 PUSH2 0xC14 JUMP JUMPDEST DUP3 ADD SWAP2 SWAP1 PUSH1 0x0 MSTORE PUSH1 0x20 PUSH1 0x0 KECCAK256 SWAP1 JUMPDEST DUP2 SLOAD DUP2 MSTORE SWAP1 PUSH1 0x1 ADD SWAP1 PUSH1 0x20 ADD DUP1 DUP4 GT PUSH2 0xBF7 JUMPI DUP3 SWAP1 SUB PUSH1 0x1F AND DUP3 ADD SWAP2 JUMPDEST POP POP POP POP POP DUP2 JUMP JUMPDEST PUSH1 0x40 MLOAD DUP1 PUSH1 0x80 ADD PUSH1 0x40 MSTORE DUP1 PUSH1 0x0 DUP2 MSTORE PUSH1 0x20 ADD PUSH1 0x0 DUP2 MSTORE PUSH1 0x20 ADD PUSH1 0x60 DUP2 MSTORE PUSH1 0x20 ADD PUSH1 0x0 ISZERO ISZERO DUP2 MSTORE POP SWAP1 JUMP JUMPDEST DUP3 DUP1 SLOAD PUSH2 0xC52 SWAP1 PUSH2 0x123D JUMP JUMPDEST SWAP1 PUSH1 0x0 MSTORE PUSH1 0x20 PUSH1 0x0 KECCAK256 SWAP1 PUSH1 0x1F ADD PUSH1 0x20 SWAP1 DIV DUP2 ADD SWAP3 DUP3 PUSH2 0xC74 JUMPI PUSH1 0x0 DUP6 SSTORE PUSH2 0xCBB JUMP JUMPDEST DUP3 PUSH1 0x1F LT PUSH2 0xC8D JUMPI DUP1 MLOAD PUSH1 0xFF NOT AND DUP4 DUP1 ADD OR DUP6 SSTORE PUSH2 0xCBB JUMP JUMPDEST DUP3 DUP1 ADD PUSH1 0x1 ADD DUP6 SSTORE DUP3 ISZERO PUSH2 0xCBB JUMPI SWAP2 DUP3 ADD JUMPDEST DUP3 DUP2 GT ISZERO PUSH2 0xCBA JUMPI DUP3 MLOAD DUP3 SSTORE SWAP2 PUSH1 0x20 ADD SWAP2 SWAP1 PUSH1 0x1 ADD SWAP1 PUSH2 0xC9F JUMP JUMPDEST JUMPDEST POP SWAP1 POP PUSH2 0xCC8 SWAP2 SWAP1 PUSH2 0xD73 JUMP JUMPDEST POP SWAP1 JUMP JUMPDEST DUP3 DUP1 SLOAD PUSH2 0xCD8 SWAP1 PUSH2 0x123D JUMP JUMPDEST SWAP1 PUSH1 0x0 MSTORE PUSH1 0x20 PUSH1 0x0 KECCAK256 SWAP1 PUSH1 0x1F ADD PUSH1 0x20 SWAP1 DIV DUP2 ADD SWAP3 DUP3 PUSH2 0xCFA JUMPI PUSH1 0x0 DUP6 SSTORE PUSH2 0xD41 JUMP JUMPDEST DUP3 PUSH1 0x1F LT PUSH2 0xD13 JUMPI DUP1 CALLDATALOAD PUSH1 0xFF NOT AND DUP4 DUP1 ADD OR DUP6 SSTORE PUSH2 0xD41 JUMP JUMPDEST DUP3 DUP1 ADD PUSH1 0x1 ADD DUP6 SSTORE DUP3 ISZERO PUSH2 0xD41 JUMPI SWAP2 DUP3 ADD JUMPDEST DUP3 DUP2 GT ISZERO PUSH2 0xD40 JUMPI DUP3 CALLDATALOAD DUP3 SSTORE SWAP2 PUSH1 0x20 ADD SWAP2 SWAP1 PUSH1 0x1 ADD SWAP1 PUSH2 0xD25 JUMP JUMPDEST JUMPDEST POP SWAP1 POP PUSH2 0xD4E SWAP2 SWAP1 PUSH2 0xD73 JUMP JUMPDEST POP SWAP1 JUMP JUMPDEST PUSH1 0x40 MLOAD DUP1 PUSH1 0x60 ADD PUSH1 0x40 MSTORE DUP1 PUSH1 0x0 DUP2 MSTORE PUSH1 0x20 ADD PUSH1 0x0 DUP2 MSTORE PUSH1 0x20 ADD PUSH1 0x0 DUP2 MSTORE POP SWAP1 JUMP JUMPDEST JUMPDEST DUP1 DUP3 GT ISZERO PUSH2 0xD8C JUMPI PUSH1 0x0 DUP2 PUSH1 0x0 SWAP1 SSTORE POP PUSH1 0x1 ADD PUSH2 0xD74 JUMP JUMPDEST POP SWAP1 JUMP JUMPDEST PUSH1 0x0 DUP2 CALLDATALOAD SWAP1 POP PUSH2 0xD9F DUP2 PUSH2 0x1343 JUMP JUMPDEST SWAP3 SWAP2 POP POP JUMP JUMPDEST PUSH1 0x0 DUP1 DUP4 PUSH1 0x1F DUP5 ADD SLT PUSH2 0xDBB JUMPI PUSH2 0xDBA PUSH2 0x131B JUMP JUMPDEST JUMPDEST DUP3 CALLDATALOAD SWAP1 POP PUSH8 0xFFFFFFFFFFFFFFFF DUP2 GT ISZERO PUSH2 0xDD8 JUMPI PUSH2 0xDD7 PUSH2 0x1316 JUMP JUMPDEST JUMPDEST PUSH1 0x20 DUP4 ADD SWAP2 POP DUP4 PUSH1 0x1 DUP3 MUL DUP4 ADD GT ISZERO PUSH2 0xDF4 JUMPI PUSH2 0xDF3 PUSH2 0x1320 JUMP JUMPDEST JUMPDEST SWAP3 POP SWAP3 SWAP1 POP JUMP JUMPDEST PUSH1 0x0 DUP2 CALLDATALOAD SWAP1 POP PUSH2 0xE0A DUP2 PUSH2 0x135A JUMP JUMPDEST SWAP3 SWAP2 POP POP JUMP JUMPDEST PUSH1 0x0 DUP1 PUSH1 0x0 DUP1 PUSH1 0x60 DUP6 DUP8 SUB SLT ISZERO PUSH2 0xE2A JUMPI PUSH2 0xE29 PUSH2 0x132A JUMP JUMPDEST JUMPDEST PUSH1 0x0 DUP6 ADD CALLDATALOAD PUSH8 0xFFFFFFFFFFFFFFFF DUP2 GT ISZERO PUSH2 0xE48 JUMPI PUSH2 0xE47 PUSH2 0x1325 JUMP JUMPDEST JUMPDEST PUSH2 0xE54 DUP8 DUP3 DUP9 ADD PUSH2 0xDA5 JUMP JUMPDEST SWAP5 POP SWAP5 POP POP PUSH1 0x20 PUSH2 0xE67 DUP8 DUP3 DUP9 ADD PUSH2 0xDFB JUMP JUMPDEST SWAP3 POP POP PUSH1 0x40 PUSH2 0xE78 DUP8 DUP3 DUP9 ADD PUSH2 0xDFB JUMP JUMPDEST SWAP2 POP POP SWAP3 SWAP6 SWAP2 SWAP5 POP SWAP3 POP JUMP JUMPDEST PUSH1 0x0 PUSH1 0x20 DUP3 DUP5 SUB SLT ISZERO PUSH2 0xE9A JUMPI PUSH2 0xE99 PUSH2 0x132A JUMP JUMPDEST JUMPDEST PUSH1 0x0 PUSH2 0xEA8 DUP5 DUP3 DUP6 ADD PUSH2 0xDFB JUMP JUMPDEST SWAP2 POP POP SWAP3 SWAP2 POP POP JUMP JUMPDEST PUSH1 0x0 DUP1 PUSH1 0x40 DUP4 DUP6 SUB SLT ISZERO PUSH2 0xEC8 JUMPI PUSH2 0xEC7 PUSH2 0x132A JUMP JUMPDEST JUMPDEST PUSH1 0x0 PUSH2 0xED6 DUP6 DUP3 DUP7 ADD PUSH2 0xDFB JUMP JUMPDEST SWAP3 POP POP PUSH1 0x20 PUSH2 0xEE7 DUP6 DUP3 DUP7 ADD PUSH2 0xD90 JUMP JUMPDEST SWAP2 POP POP SWAP3 POP SWAP3 SWAP1 POP JUMP JUMPDEST PUSH1 0x0 DUP1 PUSH1 0x40 DUP4 DUP6 SUB SLT ISZERO PUSH2 0xF08 JUMPI PUSH2 0xF07 PUSH2 0x132A JUMP JUMPDEST JUMPDEST PUSH1 0x0 PUSH2 0xF16 DUP6 DUP3 DUP7 ADD PUSH2 0xDFB JUMP JUMPDEST SWAP3 POP POP PUSH1 0x20 PUSH2 0xF27 DUP6 DUP3 DUP7 ADD PUSH2 0xDFB JUMP JUMPDEST SWAP2 POP POP SWAP3 POP SWAP3 SWAP1 POP JUMP JUMPDEST PUSH2 0xF3A DUP2 PUSH2 0x1189 JUMP JUMPDEST DUP3 MSTORE POP POP JUMP JUMPDEST PUSH2 0xF49 DUP2 PUSH2 0x119B JUMP JUMPDEST DUP3 MSTORE POP POP JUMP JUMPDEST PUSH1 0x0 PUSH2 0xF5B DUP4 DUP6 PUSH2 0x10F4 JUMP JUMPDEST SWAP4 POP PUSH2 0xF68 DUP4 DUP6 DUP5 PUSH2 0x11D1 JUMP JUMPDEST DUP3 DUP5 ADD SWAP1 POP SWAP4 SWAP3 POP POP POP JUMP JUMPDEST PUSH1 0x0 PUSH2 0xF7F DUP3 PUSH2 0x10CD JUMP JUMPDEST PUSH2 0xF89 DUP2 DUP6 PUSH2 0x10E3 JUMP JUMPDEST SWAP4 POP PUSH2 0xF99 DUP2 DUP6 PUSH1 0x20 DUP7 ADD PUSH2 0x11E0 JUMP JUMPDEST PUSH2 0xFA2 DUP2 PUSH2 0x132F JUMP JUMPDEST DUP5 ADD SWAP2 POP POP SWAP3 SWAP2 POP POP JUMP JUMPDEST PUSH1 0x0 PUSH2 0xFBA PUSH1 0x0 DUP4 PUSH2 0x10D8 JUMP JUMPDEST SWAP2 POP PUSH2 0xFC5 DUP3 PUSH2 0x1340 JUMP JUMPDEST PUSH1 0x0 DUP3 ADD SWAP1 POP SWAP2 SWAP1 POP JUMP JUMPDEST PUSH2 0xFD9 DUP2 PUSH2 0x11C7 JUMP JUMPDEST DUP3 MSTORE POP POP JUMP JUMPDEST PUSH1 0x0 PUSH2 0xFEC DUP3 DUP5 DUP7 PUSH2 0xF4F JUMP JUMPDEST SWAP2 POP DUP2 SWAP1 POP SWAP4 SWAP3 POP POP POP JUMP JUMPDEST PUSH1 0x0 PUSH2 0x1003 DUP3 PUSH2 0xFAD JUMP JUMPDEST SWAP2 POP DUP2 SWAP1 POP SWAP2 SWAP1 POP JUMP JUMPDEST PUSH1 0x0 PUSH1 0x20 DUP3 ADD SWAP1 POP PUSH2 0x1022 PUSH1 0x0 DUP4 ADD DUP5 PUSH2 0xF31 JUMP JUMPDEST SWAP3 SWAP2 POP POP JUMP JUMPDEST PUSH1 0x0 PUSH1 0x20 DUP3 ADD SWAP1 POP DUP2 DUP2 SUB PUSH1 0x0 DUP4 ADD MSTORE PUSH2 0x1042 DUP2 DUP5 PUSH2 0xF74 JUMP JUMPDEST SWAP1 POP SWAP3 SWAP2 POP POP JUMP JUMPDEST PUSH1 0x0 PUSH1 0x80 DUP3 ADD SWAP1 POP PUSH2 0x105F PUSH1 0x0 DUP4 ADD DUP8 PUSH2 0xFD0 JUMP JUMPDEST PUSH2 0x106C PUSH1 0x20 DUP4 ADD DUP7 PUSH2 0xFD0 JUMP JUMPDEST DUP2 DUP2 SUB PUSH1 0x40 DUP4 ADD MSTORE PUSH2 0x107E DUP2 DUP6 PUSH2 0xF74 JUMP JUMPDEST SWAP1 POP PUSH2 0x108D PUSH1 0x60 DUP4 ADD DUP5 PUSH2 0xF40 JUMP JUMPDEST SWAP6 SWAP5 POP POP POP POP POP JUMP JUMPDEST PUSH1 0x0 PUSH1 0x60 DUP3 ADD SWAP1 POP PUSH2 0x10AB PUSH1 0x0 DUP4 ADD DUP7 PUSH2 0xFD0 JUMP JUMPDEST PUSH2 0x10B8 PUSH1 0x20 DUP4 ADD DUP6 PUSH2 0xFD0 JUMP JUMPDEST PUSH2 0x10C5 PUSH1 0x40 DUP4 ADD DUP5 PUSH2 0xFD0 JUMP JUMPDEST SWAP5 SWAP4 POP POP POP POP JUMP JUMPDEST PUSH1 0x0 DUP2 MLOAD SWAP1 POP SWAP2 SWAP1 POP JUMP JUMPDEST PUSH1 0x0 DUP2 SWAP1 POP SWAP3 SWAP2 POP POP JUMP JUMPDEST PUSH1 0x0 DUP3 DUP3 MSTORE PUSH1 0x20 DUP3 ADD SWAP1 POP SWAP3 SWAP2 POP POP JUMP JUMPDEST PUSH1 0x0 DUP2 SWAP1 POP SWAP3 SWAP2 POP POP JUMP JUMPDEST PUSH1 0x0 PUSH2 0x110A DUP3 PUSH2 0x11C7 JUMP JUMPDEST SWAP2 POP PUSH2 0x1115 DUP4 PUSH2 0x11C7 JUMP JUMPDEST SWAP3 POP DUP3 PUSH32 0xFFFFFFFFFFFFFFFFFFFFFFFFFFFFFFFFFFFFFFFFFFFFFFFFFFFFFFFFFFFFFFFF SUB DUP3 GT ISZERO PUSH2 0x114A JUMPI PUSH2 0x1149 PUSH2 0x12B8 JUMP JUMPDEST JUMPDEST DUP3 DUP3 ADD SWAP1 POP SWAP3 SWAP2 POP POP JUMP JUMPDEST PUSH1 0x0 PUSH2 0x1160 DUP3 PUSH2 0x11C7 JUMP JUMPDEST SWAP2 POP PUSH2 0x116B DUP4 PUSH2 0x11C7 JUMP JUMPDEST SWAP3 POP DUP3 DUP3 LT ISZERO PUSH2 0x117E JUMPI PUSH2 0x117D PUSH2 0x12B8 JUMP JUMPDEST JUMPDEST DUP3 DUP3 SUB SWAP1 POP SWAP3 SWAP2 POP POP JUMP JUMPDEST PUSH1 0x0 PUSH2 0x1194 DUP3 PUSH2 0x11A7 JUMP JUMPDEST SWAP1 POP SWAP2 SWAP1 POP JUMP JUMPDEST PUSH1 0x0 DUP2 ISZERO ISZERO SWAP1 POP SWAP2 SWAP1 POP JUMP JUMPDEST PUSH1 0x0 PUSH20 0xFFFFFFFFFFFFFFFFFFFFFFFFFFFFFFFFFFFFFFFF DUP3 AND SWAP1 POP SWAP2 SWAP1 POP JUMP JUMPDEST PUSH1 0x0 DUP2 SWAP1 POP SWAP2 SWAP1 POP JUMP JUMPDEST DUP3 DUP2 DUP4 CALLDATACOPY PUSH1 0x0 DUP4 DUP4 ADD MSTORE POP POP POP JUMP JUMPDEST PUSH1 0x0 JUMPDEST DUP4 DUP2 LT ISZERO PUSH2 0x11FE JUMPI DUP1 DUP3 ADD MLOAD DUP2 DUP5 ADD MSTORE PUSH1 0x20 DUP2 ADD SWAP1 POP PUSH2 0x11E3 JUMP JUMPDEST DUP4 DUP2 GT ISZERO PUSH2 0x120D JUMPI PUSH1 0x0 DUP5 DUP5 ADD MSTORE JUMPDEST POP POP POP POP JUMP JUMPDEST PUSH1 0x0 PUSH2 0x121E DUP3 PUSH2 0x11C7 JUMP JUMPDEST SWAP2 POP PUSH1 0x0 DUP3 EQ ISZERO PUSH2 0x1232 JUMPI PUSH2 0x1231 PUSH2 0x12B8 JUMP JUMPDEST JUMPDEST PUSH1 0x1 DUP3 SUB SWAP1 POP SWAP2 SWAP1 POP JUMP JUMPDEST PUSH1 0x0 PUSH1 0x2 DUP3 DIV SWAP1 POP PUSH1 0x1 DUP3 AND DUP1 PUSH2 0x1255 JUMPI PUSH1 0x7F DUP3 AND SWAP2 POP JUMPDEST PUSH1 0x20 DUP3 LT DUP2 EQ ISZERO PUSH2 0x1269 JUMPI PUSH2 0x1268 PUSH2 0x12E7 JUMP JUMPDEST JUMPDEST POP SWAP2 SWAP1 POP JUMP JUMPDEST PUSH1 0x0 PUSH2 0x127A DUP3 PUSH2 0x11C7 JUMP JUMPDEST SWAP2 POP PUSH32 0xFFFFFFFFFFFFFFFFFFFFFFFFFFFFFFFFFFFFFFFFFFFFFFFFFFFFFFFFFFFFFFFF DUP3 EQ ISZERO PUSH2 0x12AD JUMPI PUSH2 0x12AC PUSH2 0x12B8 JUMP JUMPDEST JUMPDEST PUSH1 0x1 DUP3 ADD SWAP1 POP SWAP2 SWAP1 POP JUMP JUMPDEST PUSH32 0x4E487B7100000000000000000000000000000000000000000000000000000000 PUSH1 0x0 MSTORE PUSH1 0x11 PUSH1 0x4 MSTORE PUSH1 0x24 PUSH1 0x0 REVERT JUMPDEST PUSH32 0x4E487B7100000000000000000000000000000000000000000000000000000000 PUSH1 0x0 MSTORE PUSH1 0x22 PUSH1 0x4 MSTORE PUSH1 0x24 PUSH1 0x0 REVERT JUMPDEST PUSH1 0x0 DUP1 REVERT JUMPDEST PUSH1 0x0 DUP1 REVERT JUMPDEST PUSH1 0x0 DUP1 REVERT JUMPDEST PUSH1 0x0 DUP1 REVERT JUMPDEST PUSH1 0x0 DUP1 REVERT JUMPDEST PUSH1 0x0 PUSH1 0x1F NOT PUSH1 0x1F DUP4 ADD AND SWAP1 POP SWAP2 SWAP1 POP JUMP JUMPDEST POP JUMP JUMPDEST PUSH2 0x134C DUP2 PUSH2 0x1189 JUMP JUMPDEST DUP2 EQ PUSH2 0x1357 JUMPI PUSH1 0x0 DUP1 REVERT JUMPDEST POP JUMP JUMPDEST PUSH2 0x1363 DUP2 PUSH2 0x11C7 JUMP JUMPDEST DUP2 EQ PUSH2 0x136E JUMPI PUSH1 0x0 DUP1 REVERT JUMPDEST POP JUMP INVALID LOG2 PUSH5 0x6970667358 0x22 SLT KECCAK256 0xD4 0xD6 0x5D 0xE6 0xA6 PUSH6 0x841BDCBD62D9 CHAINID DUP8 ADD 0xCE ORIGIN PUSH14 0xDA6297AA2E8A1F14A6332969B739 PUSH5 0x736F6C6343 STOP ADDMOD SMOD STOP CALLER "
				},
				"gasEstimates": {
					"creation": {
						"codeDepositCost": "1006200",
						"executionCost": "1023",
						"totalCost": "1007223"
					},
					"external": {
						"addNewProduct(string,uint256,uint256)": "infinite",
						"availableProducts(uint256)": "infinite",
						"buyProduct(uint256)": "infinite",
						"buyers(uint256,uint256)": "infinite",
						"products(uint256)": "infinite",
						"returnProduct(uint256)": "infinite",
						"transactions(uint256,address)": "infinite",
						"updateQuantity(uint256,uint256)": "infinite"
					}
				},
				"methodIdentifiers": {
					"addNewProduct(string,uint256,uint256)": "0a5bd44b",
					"availableProducts(uint256)": "e4bcc7d4",
					"buyProduct(uint256)": "8642269e",
					"buyers(uint256,uint256)": "27e7875a",
					"products(uint256)": "7acc0b20",
					"returnProduct(uint256)": "131e407d",
					"transactions(uint256,address)": "74cbc350",
					"updateQuantity(uint256,uint256)": "79cd4921"
				}
			},
			"storageLayout": {
				"storage": [
					{
						"astId": 43,
						"contract": "Project/TechnoLime.sol:TechnoLimeStore",
						"label": "availableProducts",
						"offset": 0,
						"slot": "0",
						"type": "t_array(t_string_storage)dyn_storage"
					},
					{
						"astId": 48,
						"contract": "Project/TechnoLime.sol:TechnoLimeStore",
						"label": "products",
						"offset": 0,
						"slot": "1",
						"type": "t_mapping(t_uint256,t_struct(Product)33_storage)"
					},
					{
						"astId": 52,
						"contract": "Project/TechnoLime.sol:TechnoLimeStore",
						"label": "productMap",
						"offset": 0,
						"slot": "2",
						"type": "t_mapping(t_string_memory_ptr,t_bool)"
					},
					{
						"astId": 59,
						"contract": "Project/TechnoLime.sol:TechnoLimeStore",
						"label": "transactions",
						"offset": 0,
						"slot": "3",
						"type": "t_mapping(t_uint256,t_mapping(t_address,t_struct(Transaction)40_storage))"
					},
					{
						"astId": 64,
						"contract": "Project/TechnoLime.sol:TechnoLimeStore",
						"label": "buyers",
						"offset": 0,
						"slot": "4",
						"type": "t_mapping(t_uint256,t_array(t_address)dyn_storage)"
					}
				],
				"types": {
					"t_address": {
						"encoding": "inplace",
						"label": "address",
						"numberOfBytes": "20"
					},
					"t_array(t_address)dyn_storage": {
						"base": "t_address",
						"encoding": "dynamic_array",
						"label": "address[]",
						"numberOfBytes": "32"
					},
					"t_array(t_string_storage)dyn_storage": {
						"base": "t_string_storage",
						"encoding": "dynamic_array",
						"label": "string[]",
						"numberOfBytes": "32"
					},
					"t_bool": {
						"encoding": "inplace",
						"label": "bool",
						"numberOfBytes": "1"
					},
					"t_mapping(t_address,t_struct(Transaction)40_storage)": {
						"encoding": "mapping",
						"key": "t_address",
						"label": "mapping(address => struct TechnoLimeStore.Transaction)",
						"numberOfBytes": "32",
						"value": "t_struct(Transaction)40_storage"
					},
					"t_mapping(t_string_memory_ptr,t_bool)": {
						"encoding": "mapping",
						"key": "t_string_memory_ptr",
						"label": "mapping(string => bool)",
						"numberOfBytes": "32",
						"value": "t_bool"
					},
					"t_mapping(t_uint256,t_array(t_address)dyn_storage)": {
						"encoding": "mapping",
						"key": "t_uint256",
						"label": "mapping(uint256 => address[])",
						"numberOfBytes": "32",
						"value": "t_array(t_address)dyn_storage"
					},
					"t_mapping(t_uint256,t_mapping(t_address,t_struct(Transaction)40_storage))": {
						"encoding": "mapping",
						"key": "t_uint256",
						"label": "mapping(uint256 => mapping(address => struct TechnoLimeStore.Transaction))",
						"numberOfBytes": "32",
						"value": "t_mapping(t_address,t_struct(Transaction)40_storage)"
					},
					"t_mapping(t_uint256,t_struct(Product)33_storage)": {
						"encoding": "mapping",
						"key": "t_uint256",
						"label": "mapping(uint256 => struct TechnoLimeStore.Product)",
						"numberOfBytes": "32",
						"value": "t_struct(Product)33_storage"
					},
					"t_string_memory_ptr": {
						"encoding": "bytes",
						"label": "string",
						"numberOfBytes": "32"
					},
					"t_string_storage": {
						"encoding": "bytes",
						"label": "string",
						"numberOfBytes": "32"
					},
					"t_struct(Product)33_storage": {
						"encoding": "inplace",
						"label": "struct TechnoLimeStore.Product",
						"members": [
							{
								"astId": 26,
								"contract": "Project/TechnoLime.sol:TechnoLimeStore",
								"label": "price",
								"offset": 0,
								"slot": "0",
								"type": "t_uint256"
							},
							{
								"astId": 28,
								"contract": "Project/TechnoLime.sol:TechnoLimeStore",
								"label": "quantity",
								"offset": 0,
								"slot": "1",
								"type": "t_uint256"
							},
							{
								"astId": 30,
								"contract": "Project/TechnoLime.sol:TechnoLimeStore",
								"label": "name",
								"offset": 0,
								"slot": "2",
								"type": "t_string_storage"
							},
							{
								"astId": 32,
								"contract": "Project/TechnoLime.sol:TechnoLimeStore",
								"label": "exists",
								"offset": 0,
								"slot": "3",
								"type": "t_bool"
							}
						],
						"numberOfBytes": "128"
					},
					"t_struct(Transaction)40_storage": {
						"encoding": "inplace",
						"label": "struct TechnoLimeStore.Transaction",
						"members": [
							{
								"astId": 35,
								"contract": "Project/TechnoLime.sol:TechnoLimeStore",
								"label": "blockNum",
								"offset": 0,
								"slot": "0",
								"type": "t_uint256"
							},
							{
								"astId": 37,
								"contract": "Project/TechnoLime.sol:TechnoLimeStore",
								"label": "price",
								"offset": 0,
								"slot": "1",
								"type": "t_uint256"
							},
							{
								"astId": 39,
								"contract": "Project/TechnoLime.sol:TechnoLimeStore",
								"label": "status",
								"offset": 0,
								"slot": "2",
								"type": "t_uint256"
							}
						],
						"numberOfBytes": "96"
					},
					"t_uint256": {
						"encoding": "inplace",
						"label": "uint256",
						"numberOfBytes": "32"
					}
				}
			},
			"userdoc": {
				"errors": {
					"ItemIdWrongOrBoughtAlready()": [
						{
							"notice": "Error trown when the productID doesn't exist or it has been bought once already"
						}
					],
					"LessThanPriceOrOutOfStock()": [
						{
							"notice": "Error trown when money sent is less than Product price"
						}
					],
					"ProductExists()": [
						{
							"notice": "Can't add a product that already exists"
						}
					]
				},
				"kind": "user",
				"methods": {},
				"version": 1
			}
		}
	}
}