{
	"Project/TechnoLime.sol": {
		"TechnoLimeStore": {
			"abi": [
				{
					"inputs": [],
					"stateMutability": "payable",
					"type": "constructor"
				},
				{
					"inputs": [],
					"name": "ItemIdWrongOrBoughtAlready",
					"type": "error"
				},
				{
					"inputs": [],
					"name": "LessThanPriceOrOutOfStock",
					"type": "error"
				},
				{
					"inputs": [],
					"name": "ProductExists",
					"type": "error"
				},
				{
					"inputs": [],
					"name": "ProductNotExistent",
					"type": "error"
				},
				{
					"inputs": [
						{
							"internalType": "string",
							"name": "productName",
							"type": "string"
						},
						{
							"internalType": "uint256",
							"name": "_price",
							"type": "uint256"
						},
						{
							"internalType": "uint256",
							"name": "_quantity",
							"type": "uint256"
						}
					],
					"name": "addNewProduct",
					"outputs": [],
					"stateMutability": "nonpayable",
					"type": "function"
				},
				{
					"inputs": [
						{
							"internalType": "uint256",
							"name": "",
							"type": "uint256"
						}
					],
					"name": "availableProducts",
					"outputs": [
						{
							"internalType": "string",
							"name": "",
							"type": "string"
						}
					],
					"stateMutability": "view",
					"type": "function"
				},
				{
					"inputs": [
						{
							"internalType": "uint256",
							"name": "ProductId",
							"type": "uint256"
						}
					],
					"name": "buyProduct",
					"outputs": [],
					"stateMutability": "payable",
					"type": "function"
				},
				{
					"inputs": [
						{
							"internalType": "uint256",
							"name": "",
							"type": "uint256"
						},
						{
							"internalType": "uint256",
							"name": "",
							"type": "uint256"
						}
					],
					"name": "buyers",
					"outputs": [
						{
							"internalType": "address",
							"name": "",
							"type": "address"
						}
					],
					"stateMutability": "view",
					"type": "function"
				},
				{
					"inputs": [
						{
							"internalType": "string",
							"name": "",
							"type": "string"
						}
					],
					"name": "products",
					"outputs": [
						{
							"internalType": "uint256",
							"name": "price",
							"type": "uint256"
						},
						{
							"internalType": "uint256",
							"name": "quantity",
							"type": "uint256"
						},
						{
							"internalType": "bool",
							"name": "exists",
							"type": "bool"
						}
					],
					"stateMutability": "view",
					"type": "function"
				},
				{
					"inputs": [
						{
							"internalType": "uint256",
							"name": "",
							"type": "uint256"
						},
						{
							"internalType": "address",
							"name": "",
							"type": "address"
						}
					],
					"name": "transactions",
					"outputs": [
						{
							"internalType": "uint256",
							"name": "blockNum",
							"type": "uint256"
						},
						{
							"internalType": "uint256",
							"name": "price",
							"type": "uint256"
						},
						{
							"internalType": "bool",
							"name": "exists",
							"type": "bool"
						}
					],
					"stateMutability": "view",
					"type": "function"
				},
				{
					"inputs": [
						{
							"internalType": "string",
							"name": "productName",
							"type": "string"
						},
						{
							"internalType": "uint256",
							"name": "_quantity",
							"type": "uint256"
						}
					],
					"name": "updateQuantity",
					"outputs": [],
					"stateMutability": "nonpayable",
					"type": "function"
				}
			],
			"devdoc": {
				"kind": "dev",
				"methods": {},
				"version": 1
			},
			"evm": {
				"assembly": "    /* \"Project/TechnoLime.sol\":98:3101  contract TechnoLimeStore {\r... */\n  mstore(0x40, 0x80)\n  dataSize(sub_0)\n  dup1\n  dataOffset(sub_0)\n  0x00\n  codecopy\n  0x00\n  return\nstop\n\nsub_0: assembly {\n        /* \"Project/TechnoLime.sol\":98:3101  contract TechnoLimeStore {\r... */\n      mstore(0x40, 0x80)\n      jumpi(tag_1, lt(calldatasize, 0x04))\n      shr(0xe0, calldataload(0x00))\n      dup1\n      0x27e7875a\n      gt\n      tag_9\n      jumpi\n      dup1\n      0x27e7875a\n      eq\n      tag_5\n      jumpi\n      dup1\n      0x74cbc350\n      eq\n      tag_6\n      jumpi\n      dup1\n      0x8642269e\n      eq\n      tag_7\n      jumpi\n      dup1\n      0xe4bcc7d4\n      eq\n      tag_8\n      jumpi\n      jump(tag_1)\n    tag_9:\n      dup1\n      0x0186a423\n      eq\n      tag_2\n      jumpi\n      dup1\n      0x0a5bd44b\n      eq\n      tag_3\n      jumpi\n      dup1\n      0x1d894eb8\n      eq\n      tag_4\n      jumpi\n    tag_1:\n      0x00\n      dup1\n      revert\n        /* \"Project/TechnoLime.sol\":381:423  mapping(string => Product) public products */\n    tag_2:\n      callvalue\n      dup1\n      iszero\n      tag_10\n      jumpi\n      0x00\n      dup1\n      revert\n    tag_10:\n      pop\n      tag_11\n      0x04\n      dup1\n      calldatasize\n      sub\n      dup2\n      add\n      swap1\n      tag_12\n      swap2\n      swap1\n      tag_13\n      jump\t// in\n    tag_12:\n      tag_14\n      jump\t// in\n    tag_11:\n      mload(0x40)\n      tag_15\n      swap4\n      swap3\n      swap2\n      swap1\n      tag_16\n      jump\t// in\n    tag_15:\n      mload(0x40)\n      dup1\n      swap2\n      sub\n      swap1\n      return\n        /* \"Project/TechnoLime.sol\":658:1246  function addNewProduct(string calldata productName, uint _price,uint _quantity) external{\r... */\n    tag_3:\n      callvalue\n      dup1\n      iszero\n      tag_17\n      jumpi\n      0x00\n      dup1\n      revert\n    tag_17:\n      pop\n      tag_18\n      0x04\n      dup1\n      calldatasize\n      sub\n      dup2\n      add\n      swap1\n      tag_19\n      swap2\n      swap1\n      tag_20\n      jump\t// in\n    tag_19:\n      tag_21\n      jump\t// in\n    tag_18:\n      stop\n        /* \"Project/TechnoLime.sol\":1254:1623  function updateQuantity(string calldata productName,uint _quantity) external{\r... */\n    tag_4:\n      callvalue\n      dup1\n      iszero\n      tag_22\n      jumpi\n      0x00\n      dup1\n      revert\n    tag_22:\n      pop\n      tag_23\n      0x04\n      dup1\n      calldatasize\n      sub\n      dup2\n      add\n      swap1\n      tag_24\n      swap2\n      swap1\n      tag_25\n      jump\t// in\n    tag_24:\n      tag_26\n      jump\t// in\n    tag_23:\n      stop\n        /* \"Project/TechnoLime.sol\":610:649  mapping(uint =>address[]) public buyers */\n    tag_5:\n      callvalue\n      dup1\n      iszero\n      tag_27\n      jumpi\n      0x00\n      dup1\n      revert\n    tag_27:\n      pop\n      tag_28\n      0x04\n      dup1\n      calldatasize\n      sub\n      dup2\n      add\n      swap1\n      tag_29\n      swap2\n      swap1\n      tag_30\n      jump\t// in\n    tag_29:\n      tag_31\n      jump\t// in\n    tag_28:\n      mload(0x40)\n      tag_32\n      swap2\n      swap1\n      tag_33\n      jump\t// in\n    tag_32:\n      mload(0x40)\n      dup1\n      swap2\n      sub\n      swap1\n      return\n        /* \"Project/TechnoLime.sol\":535:603  mapping(uint => mapping(address => Transaction)) public transactions */\n    tag_6:\n      callvalue\n      dup1\n      iszero\n      tag_34\n      jumpi\n      0x00\n      dup1\n      revert\n    tag_34:\n      pop\n      tag_35\n      0x04\n      dup1\n      calldatasize\n      sub\n      dup2\n      add\n      swap1\n      tag_36\n      swap2\n      swap1\n      tag_37\n      jump\t// in\n    tag_36:\n      tag_38\n      jump\t// in\n    tag_35:\n      mload(0x40)\n      tag_39\n      swap4\n      swap3\n      swap2\n      swap1\n      tag_16\n      jump\t// in\n    tag_39:\n      mload(0x40)\n      dup1\n      swap2\n      sub\n      swap1\n      return\n        /* \"Project/TechnoLime.sol\":1725:3084  function buyProduct (uint ProductId)  external payable { \r... */\n    tag_7:\n      tag_40\n      0x04\n      dup1\n      calldatasize\n      sub\n      dup2\n      add\n      swap1\n      tag_41\n      swap2\n      swap1\n      tag_42\n      jump\t// in\n    tag_41:\n      tag_43\n      jump\t// in\n    tag_40:\n      stop\n        /* \"Project/TechnoLime.sol\":341:374  string[] public availableProducts */\n    tag_8:\n      callvalue\n      dup1\n      iszero\n      tag_44\n      jumpi\n      0x00\n      dup1\n      revert\n    tag_44:\n      pop\n      tag_45\n      0x04\n      dup1\n      calldatasize\n      sub\n      dup2\n      add\n      swap1\n      tag_46\n      swap2\n      swap1\n      tag_42\n      jump\t// in\n    tag_46:\n      tag_47\n      jump\t// in\n    tag_45:\n      mload(0x40)\n      tag_48\n      swap2\n      swap1\n      tag_49\n      jump\t// in\n    tag_48:\n      mload(0x40)\n      dup1\n      swap2\n      sub\n      swap1\n      return\n        /* \"Project/TechnoLime.sol\":381:423  mapping(string => Product) public products */\n    tag_14:\n      0x01\n      dup2\n      dup1\n      mload\n      0x20\n      dup2\n      add\n      dup3\n      add\n      dup1\n      mload\n      dup5\n      dup3\n      mstore\n      0x20\n      dup4\n      add\n      0x20\n      dup6\n      add\n      keccak256\n      dup2\n      dup4\n      mstore\n      dup1\n      swap6\n      pop\n      pop\n      pop\n      pop\n      pop\n      pop\n      0x00\n      swap2\n      pop\n      swap1\n      pop\n      dup1\n      0x00\n      add\n      sload\n      swap1\n      dup1\n      0x01\n      add\n      sload\n      swap1\n      dup1\n      0x03\n      add\n      0x00\n      swap1\n      sload\n      swap1\n      0x0100\n      exp\n      swap1\n      div\n      0xff\n      and\n      swap1\n      pop\n      dup4\n      jump\t// out\n        /* \"Project/TechnoLime.sol\":658:1246  function addNewProduct(string calldata productName, uint _price,uint _quantity) external{\r... */\n    tag_21:\n        /* \"Project/TechnoLime.sol\":763:771  products */\n      0x01\n        /* \"Project/TechnoLime.sol\":772:783  productName */\n      dup5\n      dup5\n        /* \"Project/TechnoLime.sol\":763:784  products[productName] */\n      mload(0x40)\n      tag_51\n      swap3\n      swap2\n      swap1\n      tag_52\n      jump\t// in\n    tag_51:\n      swap1\n      dup2\n      mstore\n      0x20\n      add\n      mload(0x40)\n      dup1\n      swap2\n      sub\n      swap1\n      keccak256\n        /* \"Project/TechnoLime.sol\":763:791  products[productName].exists */\n      0x03\n      add\n      0x00\n      swap1\n      sload\n      swap1\n      0x0100\n      exp\n      swap1\n      div\n      0xff\n      and\n        /* \"Project/TechnoLime.sol\":758:1229  if (!products[productName].exists){\r... */\n      tag_53\n      jumpi\n        /* \"Project/TechnoLime.sol\":808:830  Product memory product */\n      tag_54\n      tag_55\n      jump\t// in\n    tag_54:\n        /* \"Project/TechnoLime.sol\":862:868  _price */\n      dup3\n        /* \"Project/TechnoLime.sol\":846:853  product */\n      dup2\n        /* \"Project/TechnoLime.sol\":846:859  product.price */\n      0x00\n      add\n        /* \"Project/TechnoLime.sol\":846:868  product.price = _price */\n      dup2\n      dup2\n      mstore\n      pop\n      pop\n        /* \"Project/TechnoLime.sol\":903:912  _quantity */\n      dup2\n        /* \"Project/TechnoLime.sol\":884:891  product */\n      dup2\n        /* \"Project/TechnoLime.sol\":884:900  product.quantity */\n      0x20\n      add\n        /* \"Project/TechnoLime.sol\":884:912  product.quantity = _quantity */\n      dup2\n      dup2\n      mstore\n      pop\n      pop\n        /* \"Project/TechnoLime.sol\":945:949  true */\n      0x01\n        /* \"Project/TechnoLime.sol\":928:935  product */\n      dup2\n        /* \"Project/TechnoLime.sol\":928:942  product.exists */\n      0x60\n      add\n        /* \"Project/TechnoLime.sol\":928:949  product.exists = true */\n      swap1\n      iszero\n      iszero\n      swap1\n      dup2\n      iszero\n      iszero\n      dup2\n      mstore\n      pop\n      pop\n        /* \"Project/TechnoLime.sol\":989:996  product */\n      dup1\n        /* \"Project/TechnoLime.sol\":965:973  products */\n      0x01\n        /* \"Project/TechnoLime.sol\":974:985  productName */\n      dup7\n      dup7\n        /* \"Project/TechnoLime.sol\":965:986  products[productName] */\n      mload(0x40)\n      tag_56\n      swap3\n      swap2\n      swap1\n      tag_52\n      jump\t// in\n    tag_56:\n      swap1\n      dup2\n      mstore\n      0x20\n      add\n      mload(0x40)\n      dup1\n      swap2\n      sub\n      swap1\n      keccak256\n        /* \"Project/TechnoLime.sol\":965:996  products[productName] = product */\n      0x00\n      dup3\n      add\n      mload\n      dup2\n      0x00\n      add\n      sstore\n      0x20\n      dup3\n      add\n      mload\n      dup2\n      0x01\n      add\n      sstore\n      0x40\n      dup3\n      add\n      mload\n      dup2\n      0x02\n      add\n      swap1\n      dup1\n      mload\n      swap1\n      0x20\n      add\n      swap1\n      tag_57\n      swap3\n      swap2\n      swap1\n      tag_58\n      jump\t// in\n    tag_57:\n      pop\n      0x60\n      dup3\n      add\n      mload\n      dup2\n      0x03\n      add\n      exp(0x0100, 0x00)\n      dup2\n      sload\n      dup2\n      0xff\n      mul\n      not\n      and\n      swap1\n      dup4\n      iszero\n      iszero\n      mul\n      or\n      swap1\n      sstore\n      pop\n      swap1\n      pop\n      pop\n        /* \"Project/TechnoLime.sol\":1012:1029  availableProducts */\n      0x00\n        /* \"Project/TechnoLime.sol\":1035:1046  productName */\n      dup6\n      dup6\n        /* \"Project/TechnoLime.sol\":1012:1047  availableProducts.push(productName) */\n      swap1\n      swap2\n      dup1\n      0x01\n      dup2\n      sload\n      add\n      dup1\n      dup3\n      sstore\n      dup1\n      swap2\n      pop\n      pop\n      0x01\n      swap1\n      sub\n      swap1\n      0x00\n      mstore\n      keccak256(0x00, 0x20)\n      add\n      0x00\n      swap1\n      swap2\n      swap3\n      swap1\n      swap2\n      swap3\n      swap1\n      swap2\n      swap3\n      swap1\n      swap2\n      swap3\n      pop\n      swap2\n      swap1\n      tag_60\n      swap3\n      swap2\n      swap1\n      tag_61\n      jump\t// in\n    tag_60:\n      pop\n        /* \"Project/TechnoLime.sol\":792:1060  {\r... */\n      pop\n        /* \"Project/TechnoLime.sol\":758:1229  if (!products[productName].exists){\r... */\n      jump(tag_62)\n    tag_53:\n        /* \"Project/TechnoLime.sol\":1194:1216  Errors.ProductExists() */\n      mload(0x40)\n      0xb185df3a00000000000000000000000000000000000000000000000000000000\n      dup2\n      mstore\n      0x04\n      add\n      mload(0x40)\n      dup1\n      swap2\n      sub\n      swap1\n      revert\n        /* \"Project/TechnoLime.sol\":758:1229  if (!products[productName].exists){\r... */\n    tag_62:\n        /* \"Project/TechnoLime.sol\":658:1246  function addNewProduct(string calldata productName, uint _price,uint _quantity) external{\r... */\n      pop\n      pop\n      pop\n      pop\n      jump\t// out\n        /* \"Project/TechnoLime.sol\":1254:1623  function updateQuantity(string calldata productName,uint _quantity) external{\r... */\n    tag_26:\n        /* \"Project/TechnoLime.sol\":1345:1353  products */\n      0x01\n        /* \"Project/TechnoLime.sol\":1354:1365  productName */\n      dup4\n      dup4\n        /* \"Project/TechnoLime.sol\":1345:1366  products[productName] */\n      mload(0x40)\n      tag_64\n      swap3\n      swap2\n      swap1\n      tag_52\n      jump\t// in\n    tag_64:\n      swap1\n      dup2\n      mstore\n      0x20\n      add\n      mload(0x40)\n      dup1\n      swap2\n      sub\n      swap1\n      keccak256\n        /* \"Project/TechnoLime.sol\":1345:1373  products[productName].exists */\n      0x03\n      add\n      0x00\n      swap1\n      sload\n      swap1\n      0x0100\n      exp\n      swap1\n      div\n      0xff\n      and\n        /* \"Project/TechnoLime.sol\":1341:1616  if (products[productName].exists){\r... */\n      iszero\n      tag_65\n      jumpi\n        /* \"Project/TechnoLime.sol\":1423:1432  _quantity */\n      dup1\n        /* \"Project/TechnoLime.sol\":1389:1397  products */\n      0x01\n        /* \"Project/TechnoLime.sol\":1398:1409  productName */\n      dup5\n      dup5\n        /* \"Project/TechnoLime.sol\":1389:1410  products[productName] */\n      mload(0x40)\n      tag_66\n      swap3\n      swap2\n      swap1\n      tag_52\n      jump\t// in\n    tag_66:\n      swap1\n      dup2\n      mstore\n      0x20\n      add\n      mload(0x40)\n      dup1\n      swap2\n      sub\n      swap1\n      keccak256\n        /* \"Project/TechnoLime.sol\":1389:1419  products[productName].quantity */\n      0x01\n      add\n      0x00\n        /* \"Project/TechnoLime.sol\":1389:1432  products[productName].quantity += _quantity */\n      dup3\n      dup3\n      sload\n      tag_67\n      swap2\n      swap1\n      tag_68\n      jump\t// in\n    tag_67:\n      swap3\n      pop\n      pop\n      dup2\n      swap1\n      sstore\n      pop\n        /* \"Project/TechnoLime.sol\":1341:1616  if (products[productName].exists){\r... */\n      jump(tag_69)\n    tag_65:\n        /* \"Project/TechnoLime.sol\":1577:1604  Errors.ProductNotExistent() */\n      mload(0x40)\n      0x7e8d96a900000000000000000000000000000000000000000000000000000000\n      dup2\n      mstore\n      0x04\n      add\n      mload(0x40)\n      dup1\n      swap2\n      sub\n      swap1\n      revert\n        /* \"Project/TechnoLime.sol\":1341:1616  if (products[productName].exists){\r... */\n    tag_69:\n        /* \"Project/TechnoLime.sol\":1254:1623  function updateQuantity(string calldata productName,uint _quantity) external{\r... */\n      pop\n      pop\n      pop\n      jump\t// out\n        /* \"Project/TechnoLime.sol\":610:649  mapping(uint =>address[]) public buyers */\n    tag_31:\n      mstore(0x20, 0x03)\n      dup2\n      0x00\n      mstore\n      keccak256(0x00, 0x40)\n      dup2\n      dup2\n      sload\n      dup2\n      lt\n      tag_70\n      jumpi\n      0x00\n      dup1\n      revert\n    tag_70:\n      swap1\n      0x00\n      mstore\n      keccak256(0x00, 0x20)\n      add\n      0x00\n      swap2\n      pop\n      swap2\n      pop\n      swap1\n      sload\n      swap1\n      0x0100\n      exp\n      swap1\n      div\n      0xffffffffffffffffffffffffffffffffffffffff\n      and\n      dup2\n      jump\t// out\n        /* \"Project/TechnoLime.sol\":535:603  mapping(uint => mapping(address => Transaction)) public transactions */\n    tag_38:\n      mstore(0x20, 0x02)\n      dup2\n      0x00\n      mstore\n      mstore(0x20, keccak256(0x00, 0x40))\n      dup1\n      0x00\n      mstore\n      keccak256(0x00, 0x40)\n      0x00\n      swap2\n      pop\n      swap2\n      pop\n      pop\n      dup1\n      0x00\n      add\n      sload\n      swap1\n      dup1\n      0x01\n      add\n      sload\n      swap1\n      dup1\n      0x02\n      add\n      0x00\n      swap1\n      sload\n      swap1\n      0x0100\n      exp\n      swap1\n      div\n      0xff\n      and\n      swap1\n      pop\n      dup4\n      jump\t// out\n        /* \"Project/TechnoLime.sol\":1725:3084  function buyProduct (uint ProductId)  external payable { \r... */\n    tag_43:\n        /* \"Project/TechnoLime.sol\":1917:1934  availableProducts */\n      0x00\n        /* \"Project/TechnoLime.sol\":1917:1941  availableProducts.length */\n      dup1\n      sload\n      swap1\n      pop\n        /* \"Project/TechnoLime.sol\":1905:1914  ProductId */\n      dup2\n        /* \"Project/TechnoLime.sol\":1905:1941  ProductId < availableProducts.length */\n      lt\n        /* \"Project/TechnoLime.sol\":1905:1988  ProductId < availableProducts.length && !transactions[ProductId][msg.sender].exists */\n      dup1\n      iszero\n      tag_73\n      jumpi\n      pop\n        /* \"Project/TechnoLime.sol\":1946:1958  transactions */\n      0x02\n        /* \"Project/TechnoLime.sol\":1946:1969  transactions[ProductId] */\n      0x00\n        /* \"Project/TechnoLime.sol\":1959:1968  ProductId */\n      dup3\n        /* \"Project/TechnoLime.sol\":1946:1969  transactions[ProductId] */\n      dup2\n      mstore\n      0x20\n      add\n      swap1\n      dup2\n      mstore\n      0x20\n      add\n      0x00\n      keccak256\n        /* \"Project/TechnoLime.sol\":1946:1981  transactions[ProductId][msg.sender] */\n      0x00\n        /* \"Project/TechnoLime.sol\":1970:1980  msg.sender */\n      caller\n        /* \"Project/TechnoLime.sol\":1946:1981  transactions[ProductId][msg.sender] */\n      0xffffffffffffffffffffffffffffffffffffffff\n      and\n      0xffffffffffffffffffffffffffffffffffffffff\n      and\n      dup2\n      mstore\n      0x20\n      add\n      swap1\n      dup2\n      mstore\n      0x20\n      add\n      0x00\n      keccak256\n        /* \"Project/TechnoLime.sol\":1946:1988  transactions[ProductId][msg.sender].exists */\n      0x02\n      add\n      0x00\n      swap1\n      sload\n      swap1\n      0x0100\n      exp\n      swap1\n      div\n      0xff\n      and\n        /* \"Project/TechnoLime.sol\":1945:1988  !transactions[ProductId][msg.sender].exists */\n      iszero\n        /* \"Project/TechnoLime.sol\":1905:1988  ProductId < availableProducts.length && !transactions[ProductId][msg.sender].exists */\n    tag_73:\n        /* \"Project/TechnoLime.sol\":1902:3056  if(ProductId < availableProducts.length && !transactions[ProductId][msg.sender].exists){\r... */\n      iszero\n      tag_74\n      jumpi\n        /* \"Project/TechnoLime.sol\":2150:2172  Product memory product */\n      0x00\n        /* \"Project/TechnoLime.sol\":2174:2182  products */\n      0x01\n        /* \"Project/TechnoLime.sol\":2183:2200  availableProducts */\n      0x00\n        /* \"Project/TechnoLime.sol\":2201:2210  ProductId */\n      dup4\n        /* \"Project/TechnoLime.sol\":2183:2211  availableProducts[ProductId] */\n      dup2\n      sload\n      dup2\n      lt\n      tag_75\n      jumpi\n      tag_76\n      tag_77\n      jump\t// in\n    tag_76:\n    tag_75:\n      swap1\n      0x00\n      mstore\n      keccak256(0x00, 0x20)\n      add\n        /* \"Project/TechnoLime.sol\":2174:2212  products[availableProducts[ProductId]] */\n      mload(0x40)\n      tag_79\n      swap2\n      swap1\n      tag_80\n      jump\t// in\n    tag_79:\n      swap1\n      dup2\n      mstore\n      0x20\n      add\n      mload(0x40)\n      dup1\n      swap2\n      sub\n      swap1\n      keccak256\n        /* \"Project/TechnoLime.sol\":2150:2212  Product memory product= products[availableProducts[ProductId]] */\n      mload(0x40)\n      dup1\n      0x80\n      add\n      0x40\n      mstore\n      swap1\n      dup2\n      0x00\n      dup3\n      add\n      sload\n      dup2\n      mstore\n      0x20\n      add\n      0x01\n      dup3\n      add\n      sload\n      dup2\n      mstore\n      0x20\n      add\n      0x02\n      dup3\n      add\n      dup1\n      sload\n      dup1\n      0x20\n      mul\n      0x20\n      add\n      mload(0x40)\n      swap1\n      dup2\n      add\n      0x40\n      mstore\n      dup1\n      swap3\n      swap2\n      swap1\n      dup2\n      dup2\n      mstore\n      0x20\n      add\n      dup3\n      dup1\n      sload\n      dup1\n      iszero\n      tag_81\n      jumpi\n      0x20\n      mul\n      dup3\n      add\n      swap2\n      swap1\n      0x00\n      mstore\n      keccak256(0x00, 0x20)\n      swap1\n    tag_82:\n      dup2\n      0x00\n      swap1\n      sload\n      swap1\n      0x0100\n      exp\n      swap1\n      div\n      0xffffffffffffffffffffffffffffffffffffffff\n      and\n      0xffffffffffffffffffffffffffffffffffffffff\n      and\n      dup2\n      mstore\n      0x20\n      add\n      swap1\n      0x01\n      add\n      swap1\n      dup1\n      dup4\n      gt\n      tag_82\n      jumpi\n    tag_81:\n      pop\n      pop\n      pop\n      pop\n      pop\n      dup2\n      mstore\n      0x20\n      add\n      0x03\n      dup3\n      add\n      0x00\n      swap1\n      sload\n      swap1\n      0x0100\n      exp\n      swap1\n      div\n      0xff\n      and\n      iszero\n      iszero\n      iszero\n      iszero\n      dup2\n      mstore\n      pop\n      pop\n      swap1\n      pop\n        /* \"Project/TechnoLime.sol\":2246:2253  product */\n      dup1\n        /* \"Project/TechnoLime.sol\":2246:2259  product.price */\n      0x00\n      add\n      mload\n        /* \"Project/TechnoLime.sol\":2234:2243  msg.value */\n      callvalue\n        /* \"Project/TechnoLime.sol\":2234:2259  msg.value < product.price */\n      lt\n        /* \"Project/TechnoLime.sol\":2234:2282  msg.value < product.price || product.quantity <0 */\n      dup1\n      tag_83\n      jumpi\n      pop\n        /* \"Project/TechnoLime.sol\":2281:2282  0 */\n      0x00\n        /* \"Project/TechnoLime.sol\":2263:2270  product */\n      dup2\n        /* \"Project/TechnoLime.sol\":2263:2279  product.quantity */\n      0x20\n      add\n      mload\n        /* \"Project/TechnoLime.sol\":2263:2282  product.quantity <0 */\n      lt\n        /* \"Project/TechnoLime.sol\":2234:2282  msg.value < product.price || product.quantity <0 */\n    tag_83:\n        /* \"Project/TechnoLime.sol\":2231:2346  if(msg.value < product.price || product.quantity <0)\r... */\n      iszero\n      tag_84\n      jumpi\n        /* \"Project/TechnoLime.sol\":2312:2346  Errors.LessThanPriceOrOutOfStock() */\n      mload(0x40)\n      0xf80236cc00000000000000000000000000000000000000000000000000000000\n      dup2\n      mstore\n      0x04\n      add\n      mload(0x40)\n      dup1\n      swap2\n      sub\n      swap1\n      revert\n        /* \"Project/TechnoLime.sol\":2231:2346  if(msg.value < product.price || product.quantity <0)\r... */\n    tag_84:\n        /* \"Project/TechnoLime.sol\":2367:2400  Transaction memory newTransaction */\n      tag_85\n      tag_86\n      jump\t// in\n    tag_85:\n        /* \"Project/TechnoLime.sol\":2445:2457  block.number */\n      number\n        /* \"Project/TechnoLime.sol\":2419:2433  newTransaction */\n      dup2\n        /* \"Project/TechnoLime.sol\":2419:2442  newTransaction.blockNum */\n      0x00\n      add\n        /* \"Project/TechnoLime.sol\":2419:2457  newTransaction.blockNum = block.number */\n      dup2\n      dup2\n      mstore\n      pop\n      pop\n        /* \"Project/TechnoLime.sol\":2499:2506  product */\n      dup2\n        /* \"Project/TechnoLime.sol\":2499:2512  product.price */\n      0x00\n      add\n      mload\n        /* \"Project/TechnoLime.sol\":2476:2490  newTransaction */\n      dup2\n        /* \"Project/TechnoLime.sol\":2476:2496  newTransaction.price */\n      0x20\n      add\n        /* \"Project/TechnoLime.sol\":2476:2512  newTransaction.price = product.price */\n      dup2\n      dup2\n      mstore\n      pop\n      pop\n        /* \"Project/TechnoLime.sol\":2555:2559  true */\n      0x01\n        /* \"Project/TechnoLime.sol\":2531:2545  newTransaction */\n      dup2\n        /* \"Project/TechnoLime.sol\":2531:2552  newTransaction.exists */\n      0x40\n      add\n        /* \"Project/TechnoLime.sol\":2531:2559  newTransaction.exists = true */\n      swap1\n      iszero\n      iszero\n      swap1\n      dup2\n      iszero\n      iszero\n      dup2\n      mstore\n      pop\n      pop\n        /* \"Project/TechnoLime.sol\":2652:2666  newTransaction */\n      dup1\n        /* \"Project/TechnoLime.sol\":2614:2626  transactions */\n      0x02\n        /* \"Project/TechnoLime.sol\":2614:2637  transactions[ProductId] */\n      0x00\n        /* \"Project/TechnoLime.sol\":2627:2636  ProductId */\n      dup6\n        /* \"Project/TechnoLime.sol\":2614:2637  transactions[ProductId] */\n      dup2\n      mstore\n      0x20\n      add\n      swap1\n      dup2\n      mstore\n      0x20\n      add\n      0x00\n      keccak256\n        /* \"Project/TechnoLime.sol\":2614:2649  transactions[ProductId][msg.sender] */\n      0x00\n        /* \"Project/TechnoLime.sol\":2638:2648  msg.sender */\n      caller\n        /* \"Project/TechnoLime.sol\":2614:2649  transactions[ProductId][msg.sender] */\n      0xffffffffffffffffffffffffffffffffffffffff\n      and\n      0xffffffffffffffffffffffffffffffffffffffff\n      and\n      dup2\n      mstore\n      0x20\n      add\n      swap1\n      dup2\n      mstore\n      0x20\n      add\n      0x00\n      keccak256\n        /* \"Project/TechnoLime.sol\":2614:2666  transactions[ProductId][msg.sender] = newTransaction */\n      0x00\n      dup3\n      add\n      mload\n      dup2\n      0x00\n      add\n      sstore\n      0x20\n      dup3\n      add\n      mload\n      dup2\n      0x01\n      add\n      sstore\n      0x40\n      dup3\n      add\n      mload\n      dup2\n      0x02\n      add\n      exp(0x0100, 0x00)\n      dup2\n      sload\n      dup2\n      0xff\n      mul\n      not\n      and\n      swap1\n      dup4\n      iszero\n      iszero\n      mul\n      or\n      swap1\n      sstore\n      pop\n      swap1\n      pop\n      pop\n        /* \"Project/TechnoLime.sol\":2687:2694  product */\n      dup2\n        /* \"Project/TechnoLime.sol\":2687:2703  product.quantity */\n      0x20\n      add\n        /* \"Project/TechnoLime.sol\":2687:2705  product.quantity-- */\n      dup1\n      mload\n      dup1\n      swap2\n      swap1\n      tag_87\n      swap1\n      tag_88\n      jump\t// in\n    tag_87:\n      dup2\n      mstore\n      pop\n      pop\n        /* \"Project/TechnoLime.sol\":2799:2806  product */\n      dup2\n        /* \"Project/TechnoLime.sol\":2760:2768  products */\n      0x01\n        /* \"Project/TechnoLime.sol\":2769:2786  availableProducts */\n      0x00\n        /* \"Project/TechnoLime.sol\":2787:2796  ProductId */\n      dup6\n        /* \"Project/TechnoLime.sol\":2769:2797  availableProducts[ProductId] */\n      dup2\n      sload\n      dup2\n      lt\n      tag_89\n      jumpi\n      tag_90\n      tag_77\n      jump\t// in\n    tag_90:\n    tag_89:\n      swap1\n      0x00\n      mstore\n      keccak256(0x00, 0x20)\n      add\n        /* \"Project/TechnoLime.sol\":2760:2798  products[availableProducts[ProductId]] */\n      mload(0x40)\n      tag_92\n      swap2\n      swap1\n      tag_80\n      jump\t// in\n    tag_92:\n      swap1\n      dup2\n      mstore\n      0x20\n      add\n      mload(0x40)\n      dup1\n      swap2\n      sub\n      swap1\n      keccak256\n        /* \"Project/TechnoLime.sol\":2760:2806  products[availableProducts[ProductId]]=product */\n      0x00\n      dup3\n      add\n      mload\n      dup2\n      0x00\n      add\n      sstore\n      0x20\n      dup3\n      add\n      mload\n      dup2\n      0x01\n      add\n      sstore\n      0x40\n      dup3\n      add\n      mload\n      dup2\n      0x02\n      add\n      swap1\n      dup1\n      mload\n      swap1\n      0x20\n      add\n      swap1\n      tag_93\n      swap3\n      swap2\n      swap1\n      tag_58\n      jump\t// in\n    tag_93:\n      pop\n      0x60\n      dup3\n      add\n      mload\n      dup2\n      0x03\n      add\n      exp(0x0100, 0x00)\n      dup2\n      sload\n      dup2\n      0xff\n      mul\n      not\n      and\n      swap1\n      dup4\n      iszero\n      iszero\n      mul\n      or\n      swap1\n      sstore\n      pop\n      swap1\n      pop\n      pop\n        /* \"Project/TechnoLime.sol\":2855:2861  buyers */\n      0x03\n        /* \"Project/TechnoLime.sol\":2855:2872  buyers[ProductId] */\n      0x00\n        /* \"Project/TechnoLime.sol\":2862:2871  ProductId */\n      dup5\n        /* \"Project/TechnoLime.sol\":2855:2872  buyers[ProductId] */\n      dup2\n      mstore\n      0x20\n      add\n      swap1\n      dup2\n      mstore\n      0x20\n      add\n      0x00\n      keccak256\n        /* \"Project/TechnoLime.sol\":2878:2888  msg.sender */\n      caller\n        /* \"Project/TechnoLime.sol\":2855:2889  buyers[ProductId].push(msg.sender) */\n      swap1\n      dup1\n      0x01\n      dup2\n      sload\n      add\n      dup1\n      dup3\n      sstore\n      dup1\n      swap2\n      pop\n      pop\n      0x01\n      swap1\n      sub\n      swap1\n      0x00\n      mstore\n      keccak256(0x00, 0x20)\n      add\n      0x00\n      swap1\n      swap2\n      swap1\n      swap2\n      swap1\n      swap2\n      0x0100\n      exp\n      dup2\n      sload\n      dup2\n      0xffffffffffffffffffffffffffffffffffffffff\n      mul\n      not\n      and\n      swap1\n      dup4\n      0xffffffffffffffffffffffffffffffffffffffff\n      and\n      mul\n      or\n      swap1\n      sstore\n      pop\n        /* \"Project/TechnoLime.sol\":1989:2907  {\r... */\n      pop\n      pop\n        /* \"Project/TechnoLime.sol\":1902:3056  if(ProductId < availableProducts.length && !transactions[ProductId][msg.sender].exists){\r... */\n      jump(tag_95)\n    tag_74:\n        /* \"Project/TechnoLime.sol\":3005:3040  Errors.ItemIdWrongOrBoughtAlready() */\n      mload(0x40)\n      0xd42c9b8b00000000000000000000000000000000000000000000000000000000\n      dup2\n      mstore\n      0x04\n      add\n      mload(0x40)\n      dup1\n      swap2\n      sub\n      swap1\n      revert\n        /* \"Project/TechnoLime.sol\":1902:3056  if(ProductId < availableProducts.length && !transactions[ProductId][msg.sender].exists){\r... */\n    tag_95:\n        /* \"Project/TechnoLime.sol\":1725:3084  function buyProduct (uint ProductId)  external payable { \r... */\n      pop\n      jump\t// out\n        /* \"Project/TechnoLime.sol\":341:374  string[] public availableProducts */\n    tag_47:\n      0x00\n      dup2\n      dup2\n      sload\n      dup2\n      lt\n      tag_96\n      jumpi\n      0x00\n      dup1\n      revert\n    tag_96:\n      swap1\n      0x00\n      mstore\n      keccak256(0x00, 0x20)\n      add\n      0x00\n      swap2\n      pop\n      swap1\n      pop\n      dup1\n      sload\n      tag_98\n      swap1\n      tag_99\n      jump\t// in\n    tag_98:\n      dup1\n      0x1f\n      add\n      0x20\n      dup1\n      swap2\n      div\n      mul\n      0x20\n      add\n      mload(0x40)\n      swap1\n      dup2\n      add\n      0x40\n      mstore\n      dup1\n      swap3\n      swap2\n      swap1\n      dup2\n      dup2\n      mstore\n      0x20\n      add\n      dup3\n      dup1\n      sload\n      tag_100\n      swap1\n      tag_99\n      jump\t// in\n    tag_100:\n      dup1\n      iszero\n      tag_101\n      jumpi\n      dup1\n      0x1f\n      lt\n      tag_102\n      jumpi\n      0x0100\n      dup1\n      dup4\n      sload\n      div\n      mul\n      dup4\n      mstore\n      swap2\n      0x20\n      add\n      swap2\n      jump(tag_101)\n    tag_102:\n      dup3\n      add\n      swap2\n      swap1\n      0x00\n      mstore\n      keccak256(0x00, 0x20)\n      swap1\n    tag_103:\n      dup2\n      sload\n      dup2\n      mstore\n      swap1\n      0x01\n      add\n      swap1\n      0x20\n      add\n      dup1\n      dup4\n      gt\n      tag_103\n      jumpi\n      dup3\n      swap1\n      sub\n      0x1f\n      and\n      dup3\n      add\n      swap2\n    tag_101:\n      pop\n      pop\n      pop\n      pop\n      pop\n      dup2\n      jump\t// out\n    tag_55:\n      mload(0x40)\n      dup1\n      0x80\n      add\n      0x40\n      mstore\n      dup1\n      0x00\n      dup2\n      mstore\n      0x20\n      add\n      0x00\n      dup2\n      mstore\n      0x20\n      add\n      0x60\n      dup2\n      mstore\n      0x20\n      add\n      iszero(iszero(0x00))\n      dup2\n      mstore\n      pop\n      swap1\n      jump\t// out\n    tag_58:\n      dup3\n      dup1\n      sload\n      dup3\n      dup3\n      sstore\n      swap1\n      0x00\n      mstore\n      keccak256(0x00, 0x20)\n      swap1\n      dup2\n      add\n      swap3\n      dup3\n      iszero\n      tag_104\n      jumpi\n      swap2\n      0x20\n      mul\n      dup3\n      add\n    tag_105:\n      dup3\n      dup2\n      gt\n      iszero\n      tag_106\n      jumpi\n      dup3\n      mload\n      dup3\n      exp(0x0100, 0x00)\n      dup2\n      sload\n      dup2\n      0xffffffffffffffffffffffffffffffffffffffff\n      mul\n      not\n      and\n      swap1\n      dup4\n      0xffffffffffffffffffffffffffffffffffffffff\n      and\n      mul\n      or\n      swap1\n      sstore\n      pop\n      swap2\n      0x20\n      add\n      swap2\n      swap1\n      0x01\n      add\n      swap1\n      jump(tag_105)\n    tag_106:\n    tag_104:\n      pop\n      swap1\n      pop\n      tag_107\n      swap2\n      swap1\n      tag_108\n      jump\t// in\n    tag_107:\n      pop\n      swap1\n      jump\t// out\n    tag_61:\n      dup3\n      dup1\n      sload\n      tag_109\n      swap1\n      tag_99\n      jump\t// in\n    tag_109:\n      swap1\n      0x00\n      mstore\n      keccak256(0x00, 0x20)\n      swap1\n      0x1f\n      add\n      0x20\n      swap1\n      div\n      dup2\n      add\n      swap3\n      dup3\n      tag_111\n      jumpi\n      0x00\n      dup6\n      sstore\n      jump(tag_110)\n    tag_111:\n      dup3\n      0x1f\n      lt\n      tag_112\n      jumpi\n      dup1\n      calldataload\n      not(0xff)\n      and\n      dup4\n      dup1\n      add\n      or\n      dup6\n      sstore\n      jump(tag_110)\n    tag_112:\n      dup3\n      dup1\n      add\n      0x01\n      add\n      dup6\n      sstore\n      dup3\n      iszero\n      tag_110\n      jumpi\n      swap2\n      dup3\n      add\n    tag_113:\n      dup3\n      dup2\n      gt\n      iszero\n      tag_114\n      jumpi\n      dup3\n      calldataload\n      dup3\n      sstore\n      swap2\n      0x20\n      add\n      swap2\n      swap1\n      0x01\n      add\n      swap1\n      jump(tag_113)\n    tag_114:\n    tag_110:\n      pop\n      swap1\n      pop\n      tag_115\n      swap2\n      swap1\n      tag_108\n      jump\t// in\n    tag_115:\n      pop\n      swap1\n      jump\t// out\n    tag_86:\n      mload(0x40)\n      dup1\n      0x60\n      add\n      0x40\n      mstore\n      dup1\n      0x00\n      dup2\n      mstore\n      0x20\n      add\n      0x00\n      dup2\n      mstore\n      0x20\n      add\n      iszero(iszero(0x00))\n      dup2\n      mstore\n      pop\n      swap1\n      jump\t// out\n    tag_108:\n    tag_116:\n      dup1\n      dup3\n      gt\n      iszero\n      tag_117\n      jumpi\n      0x00\n      dup2\n      0x00\n      swap1\n      sstore\n      pop\n      0x01\n      add\n      jump(tag_116)\n    tag_117:\n      pop\n      swap1\n      jump\t// out\n        /* \"#utility.yul\":7:419   */\n    tag_119:\n        /* \"#utility.yul\":85:90   */\n      0x00\n        /* \"#utility.yul\":110:176   */\n      tag_121\n        /* \"#utility.yul\":126:175   */\n      tag_122\n        /* \"#utility.yul\":168:174   */\n      dup5\n        /* \"#utility.yul\":126:175   */\n      tag_123\n      jump\t// in\n    tag_122:\n        /* \"#utility.yul\":110:176   */\n      tag_124\n      jump\t// in\n    tag_121:\n        /* \"#utility.yul\":101:176   */\n      swap1\n      pop\n        /* \"#utility.yul\":199:205   */\n      dup3\n        /* \"#utility.yul\":192:197   */\n      dup2\n        /* \"#utility.yul\":185:206   */\n      mstore\n        /* \"#utility.yul\":237:241   */\n      0x20\n        /* \"#utility.yul\":230:235   */\n      dup2\n        /* \"#utility.yul\":226:242   */\n      add\n        /* \"#utility.yul\":275:278   */\n      dup5\n        /* \"#utility.yul\":266:272   */\n      dup5\n        /* \"#utility.yul\":261:264   */\n      dup5\n        /* \"#utility.yul\":257:273   */\n      add\n        /* \"#utility.yul\":254:279   */\n      gt\n        /* \"#utility.yul\":251:363   */\n      iszero\n      tag_125\n      jumpi\n        /* \"#utility.yul\":282:361   */\n      tag_126\n      tag_127\n      jump\t// in\n    tag_126:\n        /* \"#utility.yul\":251:363   */\n    tag_125:\n        /* \"#utility.yul\":372:413   */\n      tag_128\n        /* \"#utility.yul\":406:412   */\n      dup5\n        /* \"#utility.yul\":401:404   */\n      dup3\n        /* \"#utility.yul\":396:399   */\n      dup6\n        /* \"#utility.yul\":372:413   */\n      tag_129\n      jump\t// in\n    tag_128:\n        /* \"#utility.yul\":91:419   */\n      pop\n        /* \"#utility.yul\":7:419   */\n      swap4\n      swap3\n      pop\n      pop\n      pop\n      jump\t// out\n        /* \"#utility.yul\":425:564   */\n    tag_130:\n        /* \"#utility.yul\":471:476   */\n      0x00\n        /* \"#utility.yul\":509:515   */\n      dup2\n        /* \"#utility.yul\":496:516   */\n      calldataload\n        /* \"#utility.yul\":487:516   */\n      swap1\n      pop\n        /* \"#utility.yul\":525:558   */\n      tag_132\n        /* \"#utility.yul\":552:557   */\n      dup2\n        /* \"#utility.yul\":525:558   */\n      tag_133\n      jump\t// in\n    tag_132:\n        /* \"#utility.yul\":425:564   */\n      swap3\n      swap2\n      pop\n      pop\n      jump\t// out\n        /* \"#utility.yul\":584:1137   */\n    tag_134:\n        /* \"#utility.yul\":642:650   */\n      0x00\n        /* \"#utility.yul\":652:658   */\n      dup1\n        /* \"#utility.yul\":702:705   */\n      dup4\n        /* \"#utility.yul\":695:699   */\n      0x1f\n        /* \"#utility.yul\":687:693   */\n      dup5\n        /* \"#utility.yul\":683:700   */\n      add\n        /* \"#utility.yul\":679:706   */\n      slt\n        /* \"#utility.yul\":669:791   */\n      tag_136\n      jumpi\n        /* \"#utility.yul\":710:789   */\n      tag_137\n      tag_138\n      jump\t// in\n    tag_137:\n        /* \"#utility.yul\":669:791   */\n    tag_136:\n        /* \"#utility.yul\":823:829   */\n      dup3\n        /* \"#utility.yul\":810:830   */\n      calldataload\n        /* \"#utility.yul\":800:830   */\n      swap1\n      pop\n        /* \"#utility.yul\":853:871   */\n      0xffffffffffffffff\n        /* \"#utility.yul\":845:851   */\n      dup2\n        /* \"#utility.yul\":842:872   */\n      gt\n        /* \"#utility.yul\":839:956   */\n      iszero\n      tag_139\n      jumpi\n        /* \"#utility.yul\":875:954   */\n      tag_140\n      tag_141\n      jump\t// in\n    tag_140:\n        /* \"#utility.yul\":839:956   */\n    tag_139:\n        /* \"#utility.yul\":989:993   */\n      0x20\n        /* \"#utility.yul\":981:987   */\n      dup4\n        /* \"#utility.yul\":977:994   */\n      add\n        /* \"#utility.yul\":965:994   */\n      swap2\n      pop\n        /* \"#utility.yul\":1043:1046   */\n      dup4\n        /* \"#utility.yul\":1035:1039   */\n      0x01\n        /* \"#utility.yul\":1027:1033   */\n      dup3\n        /* \"#utility.yul\":1023:1040   */\n      mul\n        /* \"#utility.yul\":1013:1021   */\n      dup4\n        /* \"#utility.yul\":1009:1041   */\n      add\n        /* \"#utility.yul\":1006:1047   */\n      gt\n        /* \"#utility.yul\":1003:1131   */\n      iszero\n      tag_142\n      jumpi\n        /* \"#utility.yul\":1050:1129   */\n      tag_143\n      tag_144\n      jump\t// in\n    tag_143:\n        /* \"#utility.yul\":1003:1131   */\n    tag_142:\n        /* \"#utility.yul\":584:1137   */\n      swap3\n      pop\n      swap3\n      swap1\n      pop\n      jump\t// out\n        /* \"#utility.yul\":1157:1497   */\n    tag_145:\n        /* \"#utility.yul\":1213:1218   */\n      0x00\n        /* \"#utility.yul\":1262:1265   */\n      dup3\n        /* \"#utility.yul\":1255:1259   */\n      0x1f\n        /* \"#utility.yul\":1247:1253   */\n      dup4\n        /* \"#utility.yul\":1243:1260   */\n      add\n        /* \"#utility.yul\":1239:1266   */\n      slt\n        /* \"#utility.yul\":1229:1351   */\n      tag_147\n      jumpi\n        /* \"#utility.yul\":1270:1349   */\n      tag_148\n      tag_138\n      jump\t// in\n    tag_148:\n        /* \"#utility.yul\":1229:1351   */\n    tag_147:\n        /* \"#utility.yul\":1387:1393   */\n      dup2\n        /* \"#utility.yul\":1374:1394   */\n      calldataload\n        /* \"#utility.yul\":1412:1491   */\n      tag_149\n        /* \"#utility.yul\":1487:1490   */\n      dup5\n        /* \"#utility.yul\":1479:1485   */\n      dup3\n        /* \"#utility.yul\":1472:1476   */\n      0x20\n        /* \"#utility.yul\":1464:1470   */\n      dup7\n        /* \"#utility.yul\":1460:1477   */\n      add\n        /* \"#utility.yul\":1412:1491   */\n      tag_119\n      jump\t// in\n    tag_149:\n        /* \"#utility.yul\":1403:1491   */\n      swap2\n      pop\n        /* \"#utility.yul\":1219:1497   */\n      pop\n        /* \"#utility.yul\":1157:1497   */\n      swap3\n      swap2\n      pop\n      pop\n      jump\t// out\n        /* \"#utility.yul\":1503:1642   */\n    tag_150:\n        /* \"#utility.yul\":1549:1554   */\n      0x00\n        /* \"#utility.yul\":1587:1593   */\n      dup2\n        /* \"#utility.yul\":1574:1594   */\n      calldataload\n        /* \"#utility.yul\":1565:1594   */\n      swap1\n      pop\n        /* \"#utility.yul\":1603:1636   */\n      tag_152\n        /* \"#utility.yul\":1630:1635   */\n      dup2\n        /* \"#utility.yul\":1603:1636   */\n      tag_153\n      jump\t// in\n    tag_152:\n        /* \"#utility.yul\":1503:1642   */\n      swap3\n      swap2\n      pop\n      pop\n      jump\t// out\n        /* \"#utility.yul\":1648:2322   */\n    tag_25:\n        /* \"#utility.yul\":1728:1734   */\n      0x00\n        /* \"#utility.yul\":1736:1742   */\n      dup1\n        /* \"#utility.yul\":1744:1750   */\n      0x00\n        /* \"#utility.yul\":1793:1795   */\n      0x40\n        /* \"#utility.yul\":1781:1790   */\n      dup5\n        /* \"#utility.yul\":1772:1779   */\n      dup7\n        /* \"#utility.yul\":1768:1791   */\n      sub\n        /* \"#utility.yul\":1764:1796   */\n      slt\n        /* \"#utility.yul\":1761:1880   */\n      iszero\n      tag_155\n      jumpi\n        /* \"#utility.yul\":1799:1878   */\n      tag_156\n      tag_157\n      jump\t// in\n    tag_156:\n        /* \"#utility.yul\":1761:1880   */\n    tag_155:\n        /* \"#utility.yul\":1947:1948   */\n      0x00\n        /* \"#utility.yul\":1936:1945   */\n      dup5\n        /* \"#utility.yul\":1932:1949   */\n      add\n        /* \"#utility.yul\":1919:1950   */\n      calldataload\n        /* \"#utility.yul\":1977:1995   */\n      0xffffffffffffffff\n        /* \"#utility.yul\":1969:1975   */\n      dup2\n        /* \"#utility.yul\":1966:1996   */\n      gt\n        /* \"#utility.yul\":1963:2080   */\n      iszero\n      tag_158\n      jumpi\n        /* \"#utility.yul\":1999:2078   */\n      tag_159\n      tag_160\n      jump\t// in\n    tag_159:\n        /* \"#utility.yul\":1963:2080   */\n    tag_158:\n        /* \"#utility.yul\":2112:2177   */\n      tag_161\n        /* \"#utility.yul\":2169:2176   */\n      dup7\n        /* \"#utility.yul\":2160:2166   */\n      dup3\n        /* \"#utility.yul\":2149:2158   */\n      dup8\n        /* \"#utility.yul\":2145:2167   */\n      add\n        /* \"#utility.yul\":2112:2177   */\n      tag_134\n      jump\t// in\n    tag_161:\n        /* \"#utility.yul\":2094:2177   */\n      swap4\n      pop\n      swap4\n      pop\n        /* \"#utility.yul\":1890:2187   */\n      pop\n        /* \"#utility.yul\":2226:2228   */\n      0x20\n        /* \"#utility.yul\":2252:2305   */\n      tag_162\n        /* \"#utility.yul\":2297:2304   */\n      dup7\n        /* \"#utility.yul\":2288:2294   */\n      dup3\n        /* \"#utility.yul\":2277:2286   */\n      dup8\n        /* \"#utility.yul\":2273:2295   */\n      add\n        /* \"#utility.yul\":2252:2305   */\n      tag_150\n      jump\t// in\n    tag_162:\n        /* \"#utility.yul\":2242:2305   */\n      swap2\n      pop\n        /* \"#utility.yul\":2197:2315   */\n      pop\n        /* \"#utility.yul\":1648:2322   */\n      swap3\n      pop\n      swap3\n      pop\n      swap3\n      jump\t// out\n        /* \"#utility.yul\":2328:3147   */\n    tag_20:\n        /* \"#utility.yul\":2417:2423   */\n      0x00\n        /* \"#utility.yul\":2425:2431   */\n      dup1\n        /* \"#utility.yul\":2433:2439   */\n      0x00\n        /* \"#utility.yul\":2441:2447   */\n      dup1\n        /* \"#utility.yul\":2490:2492   */\n      0x60\n        /* \"#utility.yul\":2478:2487   */\n      dup6\n        /* \"#utility.yul\":2469:2476   */\n      dup8\n        /* \"#utility.yul\":2465:2488   */\n      sub\n        /* \"#utility.yul\":2461:2493   */\n      slt\n        /* \"#utility.yul\":2458:2577   */\n      iszero\n      tag_164\n      jumpi\n        /* \"#utility.yul\":2496:2575   */\n      tag_165\n      tag_157\n      jump\t// in\n    tag_165:\n        /* \"#utility.yul\":2458:2577   */\n    tag_164:\n        /* \"#utility.yul\":2644:2645   */\n      0x00\n        /* \"#utility.yul\":2633:2642   */\n      dup6\n        /* \"#utility.yul\":2629:2646   */\n      add\n        /* \"#utility.yul\":2616:2647   */\n      calldataload\n        /* \"#utility.yul\":2674:2692   */\n      0xffffffffffffffff\n        /* \"#utility.yul\":2666:2672   */\n      dup2\n        /* \"#utility.yul\":2663:2693   */\n      gt\n        /* \"#utility.yul\":2660:2777   */\n      iszero\n      tag_166\n      jumpi\n        /* \"#utility.yul\":2696:2775   */\n      tag_167\n      tag_160\n      jump\t// in\n    tag_167:\n        /* \"#utility.yul\":2660:2777   */\n    tag_166:\n        /* \"#utility.yul\":2809:2874   */\n      tag_168\n        /* \"#utility.yul\":2866:2873   */\n      dup8\n        /* \"#utility.yul\":2857:2863   */\n      dup3\n        /* \"#utility.yul\":2846:2855   */\n      dup9\n        /* \"#utility.yul\":2842:2864   */\n      add\n        /* \"#utility.yul\":2809:2874   */\n      tag_134\n      jump\t// in\n    tag_168:\n        /* \"#utility.yul\":2791:2874   */\n      swap5\n      pop\n      swap5\n      pop\n        /* \"#utility.yul\":2587:2884   */\n      pop\n        /* \"#utility.yul\":2923:2925   */\n      0x20\n        /* \"#utility.yul\":2949:3002   */\n      tag_169\n        /* \"#utility.yul\":2994:3001   */\n      dup8\n        /* \"#utility.yul\":2985:2991   */\n      dup3\n        /* \"#utility.yul\":2974:2983   */\n      dup9\n        /* \"#utility.yul\":2970:2992   */\n      add\n        /* \"#utility.yul\":2949:3002   */\n      tag_150\n      jump\t// in\n    tag_169:\n        /* \"#utility.yul\":2939:3002   */\n      swap3\n      pop\n        /* \"#utility.yul\":2894:3012   */\n      pop\n        /* \"#utility.yul\":3051:3053   */\n      0x40\n        /* \"#utility.yul\":3077:3130   */\n      tag_170\n        /* \"#utility.yul\":3122:3129   */\n      dup8\n        /* \"#utility.yul\":3113:3119   */\n      dup3\n        /* \"#utility.yul\":3102:3111   */\n      dup9\n        /* \"#utility.yul\":3098:3120   */\n      add\n        /* \"#utility.yul\":3077:3130   */\n      tag_150\n      jump\t// in\n    tag_170:\n        /* \"#utility.yul\":3067:3130   */\n      swap2\n      pop\n        /* \"#utility.yul\":3022:3140   */\n      pop\n        /* \"#utility.yul\":2328:3147   */\n      swap3\n      swap6\n      swap2\n      swap5\n      pop\n      swap3\n      pop\n      jump\t// out\n        /* \"#utility.yul\":3153:3662   */\n    tag_13:\n        /* \"#utility.yul\":3222:3228   */\n      0x00\n        /* \"#utility.yul\":3271:3273   */\n      0x20\n        /* \"#utility.yul\":3259:3268   */\n      dup3\n        /* \"#utility.yul\":3250:3257   */\n      dup5\n        /* \"#utility.yul\":3246:3269   */\n      sub\n        /* \"#utility.yul\":3242:3274   */\n      slt\n        /* \"#utility.yul\":3239:3358   */\n      iszero\n      tag_172\n      jumpi\n        /* \"#utility.yul\":3277:3356   */\n      tag_173\n      tag_157\n      jump\t// in\n    tag_173:\n        /* \"#utility.yul\":3239:3358   */\n    tag_172:\n        /* \"#utility.yul\":3425:3426   */\n      0x00\n        /* \"#utility.yul\":3414:3423   */\n      dup3\n        /* \"#utility.yul\":3410:3427   */\n      add\n        /* \"#utility.yul\":3397:3428   */\n      calldataload\n        /* \"#utility.yul\":3455:3473   */\n      0xffffffffffffffff\n        /* \"#utility.yul\":3447:3453   */\n      dup2\n        /* \"#utility.yul\":3444:3474   */\n      gt\n        /* \"#utility.yul\":3441:3558   */\n      iszero\n      tag_174\n      jumpi\n        /* \"#utility.yul\":3477:3556   */\n      tag_175\n      tag_160\n      jump\t// in\n    tag_175:\n        /* \"#utility.yul\":3441:3558   */\n    tag_174:\n        /* \"#utility.yul\":3582:3645   */\n      tag_176\n        /* \"#utility.yul\":3637:3644   */\n      dup5\n        /* \"#utility.yul\":3628:3634   */\n      dup3\n        /* \"#utility.yul\":3617:3626   */\n      dup6\n        /* \"#utility.yul\":3613:3635   */\n      add\n        /* \"#utility.yul\":3582:3645   */\n      tag_145\n      jump\t// in\n    tag_176:\n        /* \"#utility.yul\":3572:3645   */\n      swap2\n      pop\n        /* \"#utility.yul\":3368:3655   */\n      pop\n        /* \"#utility.yul\":3153:3662   */\n      swap3\n      swap2\n      pop\n      pop\n      jump\t// out\n        /* \"#utility.yul\":3668:3997   */\n    tag_42:\n        /* \"#utility.yul\":3727:3733   */\n      0x00\n        /* \"#utility.yul\":3776:3778   */\n      0x20\n        /* \"#utility.yul\":3764:3773   */\n      dup3\n        /* \"#utility.yul\":3755:3762   */\n      dup5\n        /* \"#utility.yul\":3751:3774   */\n      sub\n        /* \"#utility.yul\":3747:3779   */\n      slt\n        /* \"#utility.yul\":3744:3863   */\n      iszero\n      tag_178\n      jumpi\n        /* \"#utility.yul\":3782:3861   */\n      tag_179\n      tag_157\n      jump\t// in\n    tag_179:\n        /* \"#utility.yul\":3744:3863   */\n    tag_178:\n        /* \"#utility.yul\":3902:3903   */\n      0x00\n        /* \"#utility.yul\":3927:3980   */\n      tag_180\n        /* \"#utility.yul\":3972:3979   */\n      dup5\n        /* \"#utility.yul\":3963:3969   */\n      dup3\n        /* \"#utility.yul\":3952:3961   */\n      dup6\n        /* \"#utility.yul\":3948:3970   */\n      add\n        /* \"#utility.yul\":3927:3980   */\n      tag_150\n      jump\t// in\n    tag_180:\n        /* \"#utility.yul\":3917:3980   */\n      swap2\n      pop\n        /* \"#utility.yul\":3873:3990   */\n      pop\n        /* \"#utility.yul\":3668:3997   */\n      swap3\n      swap2\n      pop\n      pop\n      jump\t// out\n        /* \"#utility.yul\":4003:4477   */\n    tag_37:\n        /* \"#utility.yul\":4071:4077   */\n      0x00\n        /* \"#utility.yul\":4079:4085   */\n      dup1\n        /* \"#utility.yul\":4128:4130   */\n      0x40\n        /* \"#utility.yul\":4116:4125   */\n      dup4\n        /* \"#utility.yul\":4107:4114   */\n      dup6\n        /* \"#utility.yul\":4103:4126   */\n      sub\n        /* \"#utility.yul\":4099:4131   */\n      slt\n        /* \"#utility.yul\":4096:4215   */\n      iszero\n      tag_182\n      jumpi\n        /* \"#utility.yul\":4134:4213   */\n      tag_183\n      tag_157\n      jump\t// in\n    tag_183:\n        /* \"#utility.yul\":4096:4215   */\n    tag_182:\n        /* \"#utility.yul\":4254:4255   */\n      0x00\n        /* \"#utility.yul\":4279:4332   */\n      tag_184\n        /* \"#utility.yul\":4324:4331   */\n      dup6\n        /* \"#utility.yul\":4315:4321   */\n      dup3\n        /* \"#utility.yul\":4304:4313   */\n      dup7\n        /* \"#utility.yul\":4300:4322   */\n      add\n        /* \"#utility.yul\":4279:4332   */\n      tag_150\n      jump\t// in\n    tag_184:\n        /* \"#utility.yul\":4269:4332   */\n      swap3\n      pop\n        /* \"#utility.yul\":4225:4342   */\n      pop\n        /* \"#utility.yul\":4381:4383   */\n      0x20\n        /* \"#utility.yul\":4407:4460   */\n      tag_185\n        /* \"#utility.yul\":4452:4459   */\n      dup6\n        /* \"#utility.yul\":4443:4449   */\n      dup3\n        /* \"#utility.yul\":4432:4441   */\n      dup7\n        /* \"#utility.yul\":4428:4450   */\n      add\n        /* \"#utility.yul\":4407:4460   */\n      tag_130\n      jump\t// in\n    tag_185:\n        /* \"#utility.yul\":4397:4460   */\n      swap2\n      pop\n        /* \"#utility.yul\":4352:4470   */\n      pop\n        /* \"#utility.yul\":4003:4477   */\n      swap3\n      pop\n      swap3\n      swap1\n      pop\n      jump\t// out\n        /* \"#utility.yul\":4483:4957   */\n    tag_30:\n        /* \"#utility.yul\":4551:4557   */\n      0x00\n        /* \"#utility.yul\":4559:4565   */\n      dup1\n        /* \"#utility.yul\":4608:4610   */\n      0x40\n        /* \"#utility.yul\":4596:4605   */\n      dup4\n        /* \"#utility.yul\":4587:4594   */\n      dup6\n        /* \"#utility.yul\":4583:4606   */\n      sub\n        /* \"#utility.yul\":4579:4611   */\n      slt\n        /* \"#utility.yul\":4576:4695   */\n      iszero\n      tag_187\n      jumpi\n        /* \"#utility.yul\":4614:4693   */\n      tag_188\n      tag_157\n      jump\t// in\n    tag_188:\n        /* \"#utility.yul\":4576:4695   */\n    tag_187:\n        /* \"#utility.yul\":4734:4735   */\n      0x00\n        /* \"#utility.yul\":4759:4812   */\n      tag_189\n        /* \"#utility.yul\":4804:4811   */\n      dup6\n        /* \"#utility.yul\":4795:4801   */\n      dup3\n        /* \"#utility.yul\":4784:4793   */\n      dup7\n        /* \"#utility.yul\":4780:4802   */\n      add\n        /* \"#utility.yul\":4759:4812   */\n      tag_150\n      jump\t// in\n    tag_189:\n        /* \"#utility.yul\":4749:4812   */\n      swap3\n      pop\n        /* \"#utility.yul\":4705:4822   */\n      pop\n        /* \"#utility.yul\":4861:4863   */\n      0x20\n        /* \"#utility.yul\":4887:4940   */\n      tag_190\n        /* \"#utility.yul\":4932:4939   */\n      dup6\n        /* \"#utility.yul\":4923:4929   */\n      dup3\n        /* \"#utility.yul\":4912:4921   */\n      dup7\n        /* \"#utility.yul\":4908:4930   */\n      add\n        /* \"#utility.yul\":4887:4940   */\n      tag_150\n      jump\t// in\n    tag_190:\n        /* \"#utility.yul\":4877:4940   */\n      swap2\n      pop\n        /* \"#utility.yul\":4832:4950   */\n      pop\n        /* \"#utility.yul\":4483:4957   */\n      swap3\n      pop\n      swap3\n      swap1\n      pop\n      jump\t// out\n        /* \"#utility.yul\":4963:5081   */\n    tag_191:\n        /* \"#utility.yul\":5050:5074   */\n      tag_193\n        /* \"#utility.yul\":5068:5073   */\n      dup2\n        /* \"#utility.yul\":5050:5074   */\n      tag_194\n      jump\t// in\n    tag_193:\n        /* \"#utility.yul\":5045:5048   */\n      dup3\n        /* \"#utility.yul\":5038:5075   */\n      mstore\n        /* \"#utility.yul\":4963:5081   */\n      pop\n      pop\n      jump\t// out\n        /* \"#utility.yul\":5087:5196   */\n    tag_195:\n        /* \"#utility.yul\":5168:5189   */\n      tag_197\n        /* \"#utility.yul\":5183:5188   */\n      dup2\n        /* \"#utility.yul\":5168:5189   */\n      tag_198\n      jump\t// in\n    tag_197:\n        /* \"#utility.yul\":5163:5166   */\n      dup3\n        /* \"#utility.yul\":5156:5190   */\n      mstore\n        /* \"#utility.yul\":5087:5196   */\n      pop\n      pop\n      jump\t// out\n        /* \"#utility.yul\":5226:5543   */\n    tag_199:\n        /* \"#utility.yul\":5342:5345   */\n      0x00\n        /* \"#utility.yul\":5363:5452   */\n      tag_201\n        /* \"#utility.yul\":5445:5451   */\n      dup4\n        /* \"#utility.yul\":5440:5443   */\n      dup6\n        /* \"#utility.yul\":5363:5452   */\n      tag_202\n      jump\t// in\n    tag_201:\n        /* \"#utility.yul\":5356:5452   */\n      swap4\n      pop\n        /* \"#utility.yul\":5462:5505   */\n      tag_203\n        /* \"#utility.yul\":5498:5504   */\n      dup4\n        /* \"#utility.yul\":5493:5496   */\n      dup6\n        /* \"#utility.yul\":5486:5491   */\n      dup5\n        /* \"#utility.yul\":5462:5505   */\n      tag_129\n      jump\t// in\n    tag_203:\n        /* \"#utility.yul\":5530:5536   */\n      dup3\n        /* \"#utility.yul\":5525:5528   */\n      dup5\n        /* \"#utility.yul\":5521:5537   */\n      add\n        /* \"#utility.yul\":5514:5537   */\n      swap1\n      pop\n        /* \"#utility.yul\":5226:5543   */\n      swap4\n      swap3\n      pop\n      pop\n      pop\n      jump\t// out\n        /* \"#utility.yul\":5549:5913   */\n    tag_204:\n        /* \"#utility.yul\":5637:5640   */\n      0x00\n        /* \"#utility.yul\":5665:5704   */\n      tag_206\n        /* \"#utility.yul\":5698:5703   */\n      dup3\n        /* \"#utility.yul\":5665:5704   */\n      tag_207\n      jump\t// in\n    tag_206:\n        /* \"#utility.yul\":5720:5791   */\n      tag_208\n        /* \"#utility.yul\":5784:5790   */\n      dup2\n        /* \"#utility.yul\":5779:5782   */\n      dup6\n        /* \"#utility.yul\":5720:5791   */\n      tag_209\n      jump\t// in\n    tag_208:\n        /* \"#utility.yul\":5713:5791   */\n      swap4\n      pop\n        /* \"#utility.yul\":5800:5852   */\n      tag_210\n        /* \"#utility.yul\":5845:5851   */\n      dup2\n        /* \"#utility.yul\":5840:5843   */\n      dup6\n        /* \"#utility.yul\":5833:5837   */\n      0x20\n        /* \"#utility.yul\":5826:5831   */\n      dup7\n        /* \"#utility.yul\":5822:5838   */\n      add\n        /* \"#utility.yul\":5800:5852   */\n      tag_211\n      jump\t// in\n    tag_210:\n        /* \"#utility.yul\":5877:5906   */\n      tag_212\n        /* \"#utility.yul\":5899:5905   */\n      dup2\n        /* \"#utility.yul\":5877:5906   */\n      tag_213\n      jump\t// in\n    tag_212:\n        /* \"#utility.yul\":5872:5875   */\n      dup5\n        /* \"#utility.yul\":5868:5907   */\n      add\n        /* \"#utility.yul\":5861:5907   */\n      swap2\n      pop\n        /* \"#utility.yul\":5641:5913   */\n      pop\n        /* \"#utility.yul\":5549:5913   */\n      swap3\n      swap2\n      pop\n      pop\n      jump\t// out\n        /* \"#utility.yul\":5943:6788   */\n    tag_214:\n        /* \"#utility.yul\":6046:6049   */\n      0x00\n        /* \"#utility.yul\":6083:6088   */\n      dup2\n        /* \"#utility.yul\":6077:6089   */\n      sload\n        /* \"#utility.yul\":6112:6148   */\n      tag_216\n        /* \"#utility.yul\":6138:6147   */\n      dup2\n        /* \"#utility.yul\":6112:6148   */\n      tag_99\n      jump\t// in\n    tag_216:\n        /* \"#utility.yul\":6164:6253   */\n      tag_217\n        /* \"#utility.yul\":6246:6252   */\n      dup2\n        /* \"#utility.yul\":6241:6244   */\n      dup7\n        /* \"#utility.yul\":6164:6253   */\n      tag_202\n      jump\t// in\n    tag_217:\n        /* \"#utility.yul\":6157:6253   */\n      swap5\n      pop\n        /* \"#utility.yul\":6284:6285   */\n      0x01\n        /* \"#utility.yul\":6273:6282   */\n      dup3\n        /* \"#utility.yul\":6269:6286   */\n      and\n        /* \"#utility.yul\":6300:6301   */\n      0x00\n        /* \"#utility.yul\":6295:6432   */\n      dup2\n      eq\n      tag_219\n      jumpi\n        /* \"#utility.yul\":6446:6447   */\n      0x01\n        /* \"#utility.yul\":6441:6782   */\n      dup2\n      eq\n      tag_220\n      jumpi\n        /* \"#utility.yul\":6262:6782   */\n      jump(tag_218)\n        /* \"#utility.yul\":6295:6432   */\n    tag_219:\n        /* \"#utility.yul\":6379:6383   */\n      0xff\n        /* \"#utility.yul\":6375:6384   */\n      not\n        /* \"#utility.yul\":6364:6373   */\n      dup4\n        /* \"#utility.yul\":6360:6385   */\n      and\n        /* \"#utility.yul\":6355:6358   */\n      dup7\n        /* \"#utility.yul\":6348:6386   */\n      mstore\n        /* \"#utility.yul\":6415:6421   */\n      dup2\n        /* \"#utility.yul\":6410:6413   */\n      dup7\n        /* \"#utility.yul\":6406:6422   */\n      add\n        /* \"#utility.yul\":6399:6422   */\n      swap4\n      pop\n        /* \"#utility.yul\":6295:6432   */\n      jump(tag_218)\n        /* \"#utility.yul\":6441:6782   */\n    tag_220:\n        /* \"#utility.yul\":6508:6546   */\n      tag_221\n        /* \"#utility.yul\":6540:6545   */\n      dup6\n        /* \"#utility.yul\":6508:6546   */\n      tag_222\n      jump\t// in\n    tag_221:\n        /* \"#utility.yul\":6568:6569   */\n      0x00\n        /* \"#utility.yul\":6582:6736   */\n    tag_223:\n        /* \"#utility.yul\":6596:6602   */\n      dup4\n        /* \"#utility.yul\":6593:6594   */\n      dup2\n        /* \"#utility.yul\":6590:6603   */\n      lt\n        /* \"#utility.yul\":6582:6736   */\n      iszero\n      tag_225\n      jumpi\n        /* \"#utility.yul\":6670:6677   */\n      dup2\n        /* \"#utility.yul\":6664:6678   */\n      sload\n        /* \"#utility.yul\":6660:6661   */\n      dup2\n        /* \"#utility.yul\":6655:6658   */\n      dup10\n        /* \"#utility.yul\":6651:6662   */\n      add\n        /* \"#utility.yul\":6644:6679   */\n      mstore\n        /* \"#utility.yul\":6720:6721   */\n      0x01\n        /* \"#utility.yul\":6711:6718   */\n      dup3\n        /* \"#utility.yul\":6707:6722   */\n      add\n        /* \"#utility.yul\":6696:6722   */\n      swap2\n      pop\n        /* \"#utility.yul\":6618:6622   */\n      0x20\n        /* \"#utility.yul\":6615:6616   */\n      dup2\n        /* \"#utility.yul\":6611:6623   */\n      add\n        /* \"#utility.yul\":6606:6623   */\n      swap1\n      pop\n        /* \"#utility.yul\":6582:6736   */\n      jump(tag_223)\n    tag_225:\n        /* \"#utility.yul\":6765:6771   */\n      dup4\n        /* \"#utility.yul\":6760:6763   */\n      dup9\n        /* \"#utility.yul\":6756:6772   */\n      add\n        /* \"#utility.yul\":6749:6772   */\n      swap6\n      pop\n        /* \"#utility.yul\":6448:6782   */\n      pop\n      pop\n        /* \"#utility.yul\":6262:6782   */\n    tag_218:\n      pop\n        /* \"#utility.yul\":6050:6788   */\n      pop\n      pop\n        /* \"#utility.yul\":5943:6788   */\n      swap3\n      swap2\n      pop\n      pop\n      jump\t// out\n        /* \"#utility.yul\":6794:6912   */\n    tag_226:\n        /* \"#utility.yul\":6881:6905   */\n      tag_228\n        /* \"#utility.yul\":6899:6904   */\n      dup2\n        /* \"#utility.yul\":6881:6905   */\n      tag_229\n      jump\t// in\n    tag_228:\n        /* \"#utility.yul\":6876:6879   */\n      dup3\n        /* \"#utility.yul\":6869:6906   */\n      mstore\n        /* \"#utility.yul\":6794:6912   */\n      pop\n      pop\n      jump\t// out\n        /* \"#utility.yul\":6918:7213   */\n    tag_52:\n        /* \"#utility.yul\":7060:7063   */\n      0x00\n        /* \"#utility.yul\":7082:7187   */\n      tag_231\n        /* \"#utility.yul\":7183:7186   */\n      dup3\n        /* \"#utility.yul\":7174:7180   */\n      dup5\n        /* \"#utility.yul\":7166:7172   */\n      dup7\n        /* \"#utility.yul\":7082:7187   */\n      tag_199\n      jump\t// in\n    tag_231:\n        /* \"#utility.yul\":7075:7187   */\n      swap2\n      pop\n        /* \"#utility.yul\":7204:7207   */\n      dup2\n        /* \"#utility.yul\":7197:7207   */\n      swap1\n      pop\n        /* \"#utility.yul\":6918:7213   */\n      swap4\n      swap3\n      pop\n      pop\n      pop\n      jump\t// out\n        /* \"#utility.yul\":7219:7488   */\n    tag_80:\n        /* \"#utility.yul\":7348:7351   */\n      0x00\n        /* \"#utility.yul\":7370:7462   */\n      tag_233\n        /* \"#utility.yul\":7458:7461   */\n      dup3\n        /* \"#utility.yul\":7449:7455   */\n      dup5\n        /* \"#utility.yul\":7370:7462   */\n      tag_214\n      jump\t// in\n    tag_233:\n        /* \"#utility.yul\":7363:7462   */\n      swap2\n      pop\n        /* \"#utility.yul\":7479:7482   */\n      dup2\n        /* \"#utility.yul\":7472:7482   */\n      swap1\n      pop\n        /* \"#utility.yul\":7219:7488   */\n      swap3\n      swap2\n      pop\n      pop\n      jump\t// out\n        /* \"#utility.yul\":7494:7716   */\n    tag_33:\n        /* \"#utility.yul\":7587:7591   */\n      0x00\n        /* \"#utility.yul\":7625:7627   */\n      0x20\n        /* \"#utility.yul\":7614:7623   */\n      dup3\n        /* \"#utility.yul\":7610:7628   */\n      add\n        /* \"#utility.yul\":7602:7628   */\n      swap1\n      pop\n        /* \"#utility.yul\":7638:7709   */\n      tag_235\n        /* \"#utility.yul\":7706:7707   */\n      0x00\n        /* \"#utility.yul\":7695:7704   */\n      dup4\n        /* \"#utility.yul\":7691:7708   */\n      add\n        /* \"#utility.yul\":7682:7688   */\n      dup5\n        /* \"#utility.yul\":7638:7709   */\n      tag_191\n      jump\t// in\n    tag_235:\n        /* \"#utility.yul\":7494:7716   */\n      swap3\n      swap2\n      pop\n      pop\n      jump\t// out\n        /* \"#utility.yul\":7722:8035   */\n    tag_49:\n        /* \"#utility.yul\":7835:7839   */\n      0x00\n        /* \"#utility.yul\":7873:7875   */\n      0x20\n        /* \"#utility.yul\":7862:7871   */\n      dup3\n        /* \"#utility.yul\":7858:7876   */\n      add\n        /* \"#utility.yul\":7850:7876   */\n      swap1\n      pop\n        /* \"#utility.yul\":7922:7931   */\n      dup2\n        /* \"#utility.yul\":7916:7920   */\n      dup2\n        /* \"#utility.yul\":7912:7932   */\n      sub\n        /* \"#utility.yul\":7908:7909   */\n      0x00\n        /* \"#utility.yul\":7897:7906   */\n      dup4\n        /* \"#utility.yul\":7893:7910   */\n      add\n        /* \"#utility.yul\":7886:7933   */\n      mstore\n        /* \"#utility.yul\":7950:8028   */\n      tag_237\n        /* \"#utility.yul\":8023:8027   */\n      dup2\n        /* \"#utility.yul\":8014:8020   */\n      dup5\n        /* \"#utility.yul\":7950:8028   */\n      tag_204\n      jump\t// in\n    tag_237:\n        /* \"#utility.yul\":7942:8028   */\n      swap1\n      pop\n        /* \"#utility.yul\":7722:8035   */\n      swap3\n      swap2\n      pop\n      pop\n      jump\t// out\n        /* \"#utility.yul\":8041:8471   */\n    tag_16:\n        /* \"#utility.yul\":8184:8188   */\n      0x00\n        /* \"#utility.yul\":8222:8224   */\n      0x60\n        /* \"#utility.yul\":8211:8220   */\n      dup3\n        /* \"#utility.yul\":8207:8225   */\n      add\n        /* \"#utility.yul\":8199:8225   */\n      swap1\n      pop\n        /* \"#utility.yul\":8235:8306   */\n      tag_239\n        /* \"#utility.yul\":8303:8304   */\n      0x00\n        /* \"#utility.yul\":8292:8301   */\n      dup4\n        /* \"#utility.yul\":8288:8305   */\n      add\n        /* \"#utility.yul\":8279:8285   */\n      dup7\n        /* \"#utility.yul\":8235:8306   */\n      tag_226\n      jump\t// in\n    tag_239:\n        /* \"#utility.yul\":8316:8388   */\n      tag_240\n        /* \"#utility.yul\":8384:8386   */\n      0x20\n        /* \"#utility.yul\":8373:8382   */\n      dup4\n        /* \"#utility.yul\":8369:8387   */\n      add\n        /* \"#utility.yul\":8360:8366   */\n      dup6\n        /* \"#utility.yul\":8316:8388   */\n      tag_226\n      jump\t// in\n    tag_240:\n        /* \"#utility.yul\":8398:8464   */\n      tag_241\n        /* \"#utility.yul\":8460:8462   */\n      0x40\n        /* \"#utility.yul\":8449:8458   */\n      dup4\n        /* \"#utility.yul\":8445:8463   */\n      add\n        /* \"#utility.yul\":8436:8442   */\n      dup5\n        /* \"#utility.yul\":8398:8464   */\n      tag_195\n      jump\t// in\n    tag_241:\n        /* \"#utility.yul\":8041:8471   */\n      swap5\n      swap4\n      pop\n      pop\n      pop\n      pop\n      jump\t// out\n        /* \"#utility.yul\":8477:8606   */\n    tag_124:\n        /* \"#utility.yul\":8511:8517   */\n      0x00\n        /* \"#utility.yul\":8538:8558   */\n      tag_243\n      tag_244\n      jump\t// in\n    tag_243:\n        /* \"#utility.yul\":8528:8558   */\n      swap1\n      pop\n        /* \"#utility.yul\":8567:8600   */\n      tag_245\n        /* \"#utility.yul\":8595:8599   */\n      dup3\n        /* \"#utility.yul\":8587:8593   */\n      dup3\n        /* \"#utility.yul\":8567:8600   */\n      tag_246\n      jump\t// in\n    tag_245:\n        /* \"#utility.yul\":8477:8606   */\n      swap2\n      swap1\n      pop\n      jump\t// out\n        /* \"#utility.yul\":8612:8687   */\n    tag_244:\n        /* \"#utility.yul\":8645:8651   */\n      0x00\n        /* \"#utility.yul\":8678:8680   */\n      0x40\n        /* \"#utility.yul\":8672:8681   */\n      mload\n        /* \"#utility.yul\":8662:8681   */\n      swap1\n      pop\n        /* \"#utility.yul\":8612:8687   */\n      swap1\n      jump\t// out\n        /* \"#utility.yul\":8693:9001   */\n    tag_123:\n        /* \"#utility.yul\":8755:8759   */\n      0x00\n        /* \"#utility.yul\":8845:8863   */\n      0xffffffffffffffff\n        /* \"#utility.yul\":8837:8843   */\n      dup3\n        /* \"#utility.yul\":8834:8864   */\n      gt\n        /* \"#utility.yul\":8831:8887   */\n      iszero\n      tag_249\n      jumpi\n        /* \"#utility.yul\":8867:8885   */\n      tag_250\n      tag_251\n      jump\t// in\n    tag_250:\n        /* \"#utility.yul\":8831:8887   */\n    tag_249:\n        /* \"#utility.yul\":8905:8934   */\n      tag_252\n        /* \"#utility.yul\":8927:8933   */\n      dup3\n        /* \"#utility.yul\":8905:8934   */\n      tag_213\n      jump\t// in\n    tag_252:\n        /* \"#utility.yul\":8897:8934   */\n      swap1\n      pop\n        /* \"#utility.yul\":8989:8993   */\n      0x20\n        /* \"#utility.yul\":8983:8987   */\n      dup2\n        /* \"#utility.yul\":8979:8994   */\n      add\n        /* \"#utility.yul\":8971:8994   */\n      swap1\n      pop\n        /* \"#utility.yul\":8693:9001   */\n      swap2\n      swap1\n      pop\n      jump\t// out\n        /* \"#utility.yul\":9007:9148   */\n    tag_222:\n        /* \"#utility.yul\":9056:9060   */\n      0x00\n        /* \"#utility.yul\":9079:9082   */\n      dup2\n        /* \"#utility.yul\":9071:9082   */\n      swap1\n      pop\n        /* \"#utility.yul\":9102:9105   */\n      dup2\n        /* \"#utility.yul\":9099:9100   */\n      0x00\n        /* \"#utility.yul\":9092:9106   */\n      mstore\n        /* \"#utility.yul\":9136:9140   */\n      0x20\n        /* \"#utility.yul\":9133:9134   */\n      0x00\n        /* \"#utility.yul\":9123:9141   */\n      keccak256\n        /* \"#utility.yul\":9115:9141   */\n      swap1\n      pop\n        /* \"#utility.yul\":9007:9148   */\n      swap2\n      swap1\n      pop\n      jump\t// out\n        /* \"#utility.yul\":9154:9253   */\n    tag_207:\n        /* \"#utility.yul\":9206:9212   */\n      0x00\n        /* \"#utility.yul\":9240:9245   */\n      dup2\n        /* \"#utility.yul\":9234:9246   */\n      mload\n        /* \"#utility.yul\":9224:9246   */\n      swap1\n      pop\n        /* \"#utility.yul\":9154:9253   */\n      swap2\n      swap1\n      pop\n      jump\t// out\n        /* \"#utility.yul\":9259:9428   */\n    tag_209:\n        /* \"#utility.yul\":9343:9354   */\n      0x00\n        /* \"#utility.yul\":9377:9383   */\n      dup3\n        /* \"#utility.yul\":9372:9375   */\n      dup3\n        /* \"#utility.yul\":9365:9384   */\n      mstore\n        /* \"#utility.yul\":9417:9421   */\n      0x20\n        /* \"#utility.yul\":9412:9415   */\n      dup3\n        /* \"#utility.yul\":9408:9422   */\n      add\n        /* \"#utility.yul\":9393:9422   */\n      swap1\n      pop\n        /* \"#utility.yul\":9259:9428   */\n      swap3\n      swap2\n      pop\n      pop\n      jump\t// out\n        /* \"#utility.yul\":9434:9582   */\n    tag_202:\n        /* \"#utility.yul\":9536:9547   */\n      0x00\n        /* \"#utility.yul\":9573:9576   */\n      dup2\n        /* \"#utility.yul\":9558:9576   */\n      swap1\n      pop\n        /* \"#utility.yul\":9434:9582   */\n      swap3\n      swap2\n      pop\n      pop\n      jump\t// out\n        /* \"#utility.yul\":9588:9893   */\n    tag_68:\n        /* \"#utility.yul\":9628:9631   */\n      0x00\n        /* \"#utility.yul\":9647:9667   */\n      tag_258\n        /* \"#utility.yul\":9665:9666   */\n      dup3\n        /* \"#utility.yul\":9647:9667   */\n      tag_229\n      jump\t// in\n    tag_258:\n        /* \"#utility.yul\":9642:9667   */\n      swap2\n      pop\n        /* \"#utility.yul\":9681:9701   */\n      tag_259\n        /* \"#utility.yul\":9699:9700   */\n      dup4\n        /* \"#utility.yul\":9681:9701   */\n      tag_229\n      jump\t// in\n    tag_259:\n        /* \"#utility.yul\":9676:9701   */\n      swap3\n      pop\n        /* \"#utility.yul\":9835:9836   */\n      dup3\n        /* \"#utility.yul\":9767:9833   */\n      0xffffffffffffffffffffffffffffffffffffffffffffffffffffffffffffffff\n        /* \"#utility.yul\":9763:9837   */\n      sub\n        /* \"#utility.yul\":9760:9761   */\n      dup3\n        /* \"#utility.yul\":9757:9838   */\n      gt\n        /* \"#utility.yul\":9754:9861   */\n      iszero\n      tag_260\n      jumpi\n        /* \"#utility.yul\":9841:9859   */\n      tag_261\n      tag_262\n      jump\t// in\n    tag_261:\n        /* \"#utility.yul\":9754:9861   */\n    tag_260:\n        /* \"#utility.yul\":9885:9886   */\n      dup3\n        /* \"#utility.yul\":9882:9883   */\n      dup3\n        /* \"#utility.yul\":9878:9887   */\n      add\n        /* \"#utility.yul\":9871:9887   */\n      swap1\n      pop\n        /* \"#utility.yul\":9588:9893   */\n      swap3\n      swap2\n      pop\n      pop\n      jump\t// out\n        /* \"#utility.yul\":9899:9995   */\n    tag_194:\n        /* \"#utility.yul\":9936:9943   */\n      0x00\n        /* \"#utility.yul\":9965:9989   */\n      tag_264\n        /* \"#utility.yul\":9983:9988   */\n      dup3\n        /* \"#utility.yul\":9965:9989   */\n      tag_265\n      jump\t// in\n    tag_264:\n        /* \"#utility.yul\":9954:9989   */\n      swap1\n      pop\n        /* \"#utility.yul\":9899:9995   */\n      swap2\n      swap1\n      pop\n      jump\t// out\n        /* \"#utility.yul\":10001:10091   */\n    tag_198:\n        /* \"#utility.yul\":10035:10042   */\n      0x00\n        /* \"#utility.yul\":10078:10083   */\n      dup2\n        /* \"#utility.yul\":10071:10084   */\n      iszero\n        /* \"#utility.yul\":10064:10085   */\n      iszero\n        /* \"#utility.yul\":10053:10085   */\n      swap1\n      pop\n        /* \"#utility.yul\":10001:10091   */\n      swap2\n      swap1\n      pop\n      jump\t// out\n        /* \"#utility.yul\":10097:10223   */\n    tag_265:\n        /* \"#utility.yul\":10134:10141   */\n      0x00\n        /* \"#utility.yul\":10174:10216   */\n      0xffffffffffffffffffffffffffffffffffffffff\n        /* \"#utility.yul\":10167:10172   */\n      dup3\n        /* \"#utility.yul\":10163:10217   */\n      and\n        /* \"#utility.yul\":10152:10217   */\n      swap1\n      pop\n        /* \"#utility.yul\":10097:10223   */\n      swap2\n      swap1\n      pop\n      jump\t// out\n        /* \"#utility.yul\":10229:10306   */\n    tag_229:\n        /* \"#utility.yul\":10266:10273   */\n      0x00\n        /* \"#utility.yul\":10295:10300   */\n      dup2\n        /* \"#utility.yul\":10284:10300   */\n      swap1\n      pop\n        /* \"#utility.yul\":10229:10306   */\n      swap2\n      swap1\n      pop\n      jump\t// out\n        /* \"#utility.yul\":10312:10466   */\n    tag_129:\n        /* \"#utility.yul\":10396:10402   */\n      dup3\n        /* \"#utility.yul\":10391:10394   */\n      dup2\n        /* \"#utility.yul\":10386:10389   */\n      dup4\n        /* \"#utility.yul\":10373:10403   */\n      calldatacopy\n        /* \"#utility.yul\":10458:10459   */\n      0x00\n        /* \"#utility.yul\":10449:10455   */\n      dup4\n        /* \"#utility.yul\":10444:10447   */\n      dup4\n        /* \"#utility.yul\":10440:10456   */\n      add\n        /* \"#utility.yul\":10433:10460   */\n      mstore\n        /* \"#utility.yul\":10312:10466   */\n      pop\n      pop\n      pop\n      jump\t// out\n        /* \"#utility.yul\":10472:10779   */\n    tag_211:\n        /* \"#utility.yul\":10540:10541   */\n      0x00\n        /* \"#utility.yul\":10550:10663   */\n    tag_271:\n        /* \"#utility.yul\":10564:10570   */\n      dup4\n        /* \"#utility.yul\":10561:10562   */\n      dup2\n        /* \"#utility.yul\":10558:10571   */\n      lt\n        /* \"#utility.yul\":10550:10663   */\n      iszero\n      tag_273\n      jumpi\n        /* \"#utility.yul\":10649:10650   */\n      dup1\n        /* \"#utility.yul\":10644:10647   */\n      dup3\n        /* \"#utility.yul\":10640:10651   */\n      add\n        /* \"#utility.yul\":10634:10652   */\n      mload\n        /* \"#utility.yul\":10630:10631   */\n      dup2\n        /* \"#utility.yul\":10625:10628   */\n      dup5\n        /* \"#utility.yul\":10621:10632   */\n      add\n        /* \"#utility.yul\":10614:10653   */\n      mstore\n        /* \"#utility.yul\":10586:10588   */\n      0x20\n        /* \"#utility.yul\":10583:10584   */\n      dup2\n        /* \"#utility.yul\":10579:10589   */\n      add\n        /* \"#utility.yul\":10574:10589   */\n      swap1\n      pop\n        /* \"#utility.yul\":10550:10663   */\n      jump(tag_271)\n    tag_273:\n        /* \"#utility.yul\":10681:10687   */\n      dup4\n        /* \"#utility.yul\":10678:10679   */\n      dup2\n        /* \"#utility.yul\":10675:10688   */\n      gt\n        /* \"#utility.yul\":10672:10773   */\n      iszero\n      tag_274\n      jumpi\n        /* \"#utility.yul\":10761:10762   */\n      0x00\n        /* \"#utility.yul\":10752:10758   */\n      dup5\n        /* \"#utility.yul\":10747:10750   */\n      dup5\n        /* \"#utility.yul\":10743:10759   */\n      add\n        /* \"#utility.yul\":10736:10763   */\n      mstore\n        /* \"#utility.yul\":10672:10773   */\n    tag_274:\n        /* \"#utility.yul\":10521:10779   */\n      pop\n        /* \"#utility.yul\":10472:10779   */\n      pop\n      pop\n      pop\n      jump\t// out\n        /* \"#utility.yul\":10785:10956   */\n    tag_88:\n        /* \"#utility.yul\":10824:10827   */\n      0x00\n        /* \"#utility.yul\":10847:10871   */\n      tag_276\n        /* \"#utility.yul\":10865:10870   */\n      dup3\n        /* \"#utility.yul\":10847:10871   */\n      tag_229\n      jump\t// in\n    tag_276:\n        /* \"#utility.yul\":10838:10871   */\n      swap2\n      pop\n        /* \"#utility.yul\":10893:10897   */\n      0x00\n        /* \"#utility.yul\":10886:10891   */\n      dup3\n        /* \"#utility.yul\":10883:10898   */\n      eq\n        /* \"#utility.yul\":10880:10921   */\n      iszero\n      tag_277\n      jumpi\n        /* \"#utility.yul\":10901:10919   */\n      tag_278\n      tag_262\n      jump\t// in\n    tag_278:\n        /* \"#utility.yul\":10880:10921   */\n    tag_277:\n        /* \"#utility.yul\":10948:10949   */\n      0x01\n        /* \"#utility.yul\":10941:10946   */\n      dup3\n        /* \"#utility.yul\":10937:10950   */\n      sub\n        /* \"#utility.yul\":10930:10950   */\n      swap1\n      pop\n        /* \"#utility.yul\":10785:10956   */\n      swap2\n      swap1\n      pop\n      jump\t// out\n        /* \"#utility.yul\":10962:11282   */\n    tag_99:\n        /* \"#utility.yul\":11006:11012   */\n      0x00\n        /* \"#utility.yul\":11043:11044   */\n      0x02\n        /* \"#utility.yul\":11037:11041   */\n      dup3\n        /* \"#utility.yul\":11033:11045   */\n      div\n        /* \"#utility.yul\":11023:11045   */\n      swap1\n      pop\n        /* \"#utility.yul\":11090:11091   */\n      0x01\n        /* \"#utility.yul\":11084:11088   */\n      dup3\n        /* \"#utility.yul\":11080:11092   */\n      and\n        /* \"#utility.yul\":11111:11129   */\n      dup1\n        /* \"#utility.yul\":11101:11182   */\n      tag_280\n      jumpi\n        /* \"#utility.yul\":11167:11171   */\n      0x7f\n        /* \"#utility.yul\":11159:11165   */\n      dup3\n        /* \"#utility.yul\":11155:11172   */\n      and\n        /* \"#utility.yul\":11145:11172   */\n      swap2\n      pop\n        /* \"#utility.yul\":11101:11182   */\n    tag_280:\n        /* \"#utility.yul\":11229:11231   */\n      0x20\n        /* \"#utility.yul\":11221:11227   */\n      dup3\n        /* \"#utility.yul\":11218:11232   */\n      lt\n        /* \"#utility.yul\":11198:11216   */\n      dup2\n        /* \"#utility.yul\":11195:11233   */\n      eq\n        /* \"#utility.yul\":11192:11276   */\n      iszero\n      tag_281\n      jumpi\n        /* \"#utility.yul\":11248:11266   */\n      tag_282\n      tag_283\n      jump\t// in\n    tag_282:\n        /* \"#utility.yul\":11192:11276   */\n    tag_281:\n        /* \"#utility.yul\":11013:11282   */\n      pop\n        /* \"#utility.yul\":10962:11282   */\n      swap2\n      swap1\n      pop\n      jump\t// out\n        /* \"#utility.yul\":11288:11569   */\n    tag_246:\n        /* \"#utility.yul\":11371:11398   */\n      tag_285\n        /* \"#utility.yul\":11393:11397   */\n      dup3\n        /* \"#utility.yul\":11371:11398   */\n      tag_213\n      jump\t// in\n    tag_285:\n        /* \"#utility.yul\":11363:11369   */\n      dup2\n        /* \"#utility.yul\":11359:11399   */\n      add\n        /* \"#utility.yul\":11501:11507   */\n      dup2\n        /* \"#utility.yul\":11489:11499   */\n      dup2\n        /* \"#utility.yul\":11486:11508   */\n      lt\n        /* \"#utility.yul\":11465:11483   */\n      0xffffffffffffffff\n        /* \"#utility.yul\":11453:11463   */\n      dup3\n        /* \"#utility.yul\":11450:11484   */\n      gt\n        /* \"#utility.yul\":11447:11509   */\n      or\n        /* \"#utility.yul\":11444:11532   */\n      iszero\n      tag_286\n      jumpi\n        /* \"#utility.yul\":11512:11530   */\n      tag_287\n      tag_251\n      jump\t// in\n    tag_287:\n        /* \"#utility.yul\":11444:11532   */\n    tag_286:\n        /* \"#utility.yul\":11552:11562   */\n      dup1\n        /* \"#utility.yul\":11548:11550   */\n      0x40\n        /* \"#utility.yul\":11541:11563   */\n      mstore\n        /* \"#utility.yul\":11331:11569   */\n      pop\n        /* \"#utility.yul\":11288:11569   */\n      pop\n      pop\n      jump\t// out\n        /* \"#utility.yul\":11575:11755   */\n    tag_262:\n        /* \"#utility.yul\":11623:11700   */\n      0x4e487b7100000000000000000000000000000000000000000000000000000000\n        /* \"#utility.yul\":11620:11621   */\n      0x00\n        /* \"#utility.yul\":11613:11701   */\n      mstore\n        /* \"#utility.yul\":11720:11724   */\n      0x11\n        /* \"#utility.yul\":11717:11718   */\n      0x04\n        /* \"#utility.yul\":11710:11725   */\n      mstore\n        /* \"#utility.yul\":11744:11748   */\n      0x24\n        /* \"#utility.yul\":11741:11742   */\n      0x00\n        /* \"#utility.yul\":11734:11749   */\n      revert\n        /* \"#utility.yul\":11761:11941   */\n    tag_283:\n        /* \"#utility.yul\":11809:11886   */\n      0x4e487b7100000000000000000000000000000000000000000000000000000000\n        /* \"#utility.yul\":11806:11807   */\n      0x00\n        /* \"#utility.yul\":11799:11887   */\n      mstore\n        /* \"#utility.yul\":11906:11910   */\n      0x22\n        /* \"#utility.yul\":11903:11904   */\n      0x04\n        /* \"#utility.yul\":11896:11911   */\n      mstore\n        /* \"#utility.yul\":11930:11934   */\n      0x24\n        /* \"#utility.yul\":11927:11928   */\n      0x00\n        /* \"#utility.yul\":11920:11935   */\n      revert\n        /* \"#utility.yul\":11947:12127   */\n    tag_77:\n        /* \"#utility.yul\":11995:12072   */\n      0x4e487b7100000000000000000000000000000000000000000000000000000000\n        /* \"#utility.yul\":11992:11993   */\n      0x00\n        /* \"#utility.yul\":11985:12073   */\n      mstore\n        /* \"#utility.yul\":12092:12096   */\n      0x32\n        /* \"#utility.yul\":12089:12090   */\n      0x04\n        /* \"#utility.yul\":12082:12097   */\n      mstore\n        /* \"#utility.yul\":12116:12120   */\n      0x24\n        /* \"#utility.yul\":12113:12114   */\n      0x00\n        /* \"#utility.yul\":12106:12121   */\n      revert\n        /* \"#utility.yul\":12133:12313   */\n    tag_251:\n        /* \"#utility.yul\":12181:12258   */\n      0x4e487b7100000000000000000000000000000000000000000000000000000000\n        /* \"#utility.yul\":12178:12179   */\n      0x00\n        /* \"#utility.yul\":12171:12259   */\n      mstore\n        /* \"#utility.yul\":12278:12282   */\n      0x41\n        /* \"#utility.yul\":12275:12276   */\n      0x04\n        /* \"#utility.yul\":12268:12283   */\n      mstore\n        /* \"#utility.yul\":12302:12306   */\n      0x24\n        /* \"#utility.yul\":12299:12300   */\n      0x00\n        /* \"#utility.yul\":12292:12307   */\n      revert\n        /* \"#utility.yul\":12319:12436   */\n    tag_141:\n        /* \"#utility.yul\":12428:12429   */\n      0x00\n        /* \"#utility.yul\":12425:12426   */\n      dup1\n        /* \"#utility.yul\":12418:12430   */\n      revert\n        /* \"#utility.yul\":12442:12559   */\n    tag_138:\n        /* \"#utility.yul\":12551:12552   */\n      0x00\n        /* \"#utility.yul\":12548:12549   */\n      dup1\n        /* \"#utility.yul\":12541:12553   */\n      revert\n        /* \"#utility.yul\":12565:12682   */\n    tag_144:\n        /* \"#utility.yul\":12674:12675   */\n      0x00\n        /* \"#utility.yul\":12671:12672   */\n      dup1\n        /* \"#utility.yul\":12664:12676   */\n      revert\n        /* \"#utility.yul\":12688:12805   */\n    tag_127:\n        /* \"#utility.yul\":12797:12798   */\n      0x00\n        /* \"#utility.yul\":12794:12795   */\n      dup1\n        /* \"#utility.yul\":12787:12799   */\n      revert\n        /* \"#utility.yul\":12811:12928   */\n    tag_160:\n        /* \"#utility.yul\":12920:12921   */\n      0x00\n        /* \"#utility.yul\":12917:12918   */\n      dup1\n        /* \"#utility.yul\":12910:12922   */\n      revert\n        /* \"#utility.yul\":12934:13051   */\n    tag_157:\n        /* \"#utility.yul\":13043:13044   */\n      0x00\n        /* \"#utility.yul\":13040:13041   */\n      dup1\n        /* \"#utility.yul\":13033:13045   */\n      revert\n        /* \"#utility.yul\":13057:13159   */\n    tag_213:\n        /* \"#utility.yul\":13098:13104   */\n      0x00\n        /* \"#utility.yul\":13149:13151   */\n      0x1f\n        /* \"#utility.yul\":13145:13152   */\n      not\n        /* \"#utility.yul\":13140:13142   */\n      0x1f\n        /* \"#utility.yul\":13133:13138   */\n      dup4\n        /* \"#utility.yul\":13129:13143   */\n      add\n        /* \"#utility.yul\":13125:13153   */\n      and\n        /* \"#utility.yul\":13115:13153   */\n      swap1\n      pop\n        /* \"#utility.yul\":13057:13159   */\n      swap2\n      swap1\n      pop\n      jump\t// out\n        /* \"#utility.yul\":13165:13287   */\n    tag_133:\n        /* \"#utility.yul\":13238:13262   */\n      tag_300\n        /* \"#utility.yul\":13256:13261   */\n      dup2\n        /* \"#utility.yul\":13238:13262   */\n      tag_194\n      jump\t// in\n    tag_300:\n        /* \"#utility.yul\":13231:13236   */\n      dup2\n        /* \"#utility.yul\":13228:13263   */\n      eq\n        /* \"#utility.yul\":13218:13281   */\n      tag_301\n      jumpi\n        /* \"#utility.yul\":13277:13278   */\n      0x00\n        /* \"#utility.yul\":13274:13275   */\n      dup1\n        /* \"#utility.yul\":13267:13279   */\n      revert\n        /* \"#utility.yul\":13218:13281   */\n    tag_301:\n        /* \"#utility.yul\":13165:13287   */\n      pop\n      jump\t// out\n        /* \"#utility.yul\":13293:13415   */\n    tag_153:\n        /* \"#utility.yul\":13366:13390   */\n      tag_303\n        /* \"#utility.yul\":13384:13389   */\n      dup2\n        /* \"#utility.yul\":13366:13390   */\n      tag_229\n      jump\t// in\n    tag_303:\n        /* \"#utility.yul\":13359:13364   */\n      dup2\n        /* \"#utility.yul\":13356:13391   */\n      eq\n        /* \"#utility.yul\":13346:13409   */\n      tag_304\n      jumpi\n        /* \"#utility.yul\":13405:13406   */\n      0x00\n        /* \"#utility.yul\":13402:13403   */\n      dup1\n        /* \"#utility.yul\":13395:13407   */\n      revert\n        /* \"#utility.yul\":13346:13409   */\n    tag_304:\n        /* \"#utility.yul\":13293:13415   */\n      pop\n      jump\t// out\n\n    auxdata: 0xa26469706673582212209957a361a18a774e09780b83eef54dcf24d5d2721a9a508bf6fa818974af535264736f6c63430008070033\n}\n",
				"bytecode": {
					"linkReferences": {},
					"object": "608060405261126f806100136000396000f3fe6080604052600436106100705760003560e01c806327e7875a1161004e57806327e7875a1461010657806374cbc350146101435780638642269e14610182578063e4bcc7d41461019e57610070565b80630186a423146100755780630a5bd44b146100b45780631d894eb8146100dd575b600080fd5b34801561008157600080fd5b5061009c60048036038101906100979190610c7d565b6101db565b6040516100ab93929190610eea565b60405180910390f35b3480156100c057600080fd5b506100db60048036038101906100d69190610c09565b610228565b005b3480156100e957600080fd5b5061010460048036038101906100ff9190610ba9565b61037b565b005b34801561011257600080fd5b5061012d60048036038101906101289190610d33565b610427565b60405161013a9190610ead565b60405180910390f35b34801561014f57600080fd5b5061016a60048036038101906101659190610cf3565b610475565b60405161017993929190610eea565b60405180910390f35b61019c60048036038101906101979190610cc6565b6104b9565b005b3480156101aa57600080fd5b506101c560048036038101906101c09190610cc6565b610893565b6040516101d29190610ec8565b60405180910390f35b6001818051602081018201805184825260208301602085012081835280955050505050506000915090508060000154908060010154908060030160009054906101000a900460ff16905083565b6001848460405161023a929190610e7d565b908152602001604051809103902060030160009054906101000a900460ff166103435761026561093f565b82816000018181525050818160200181815250506001816060019015159081151581525050806001868660405161029d929190610e7d565b9081526020016040518091039020600082015181600001556020820151816001015560408201518160020190805190602001906102db929190610969565b5060608201518160030160006101000a81548160ff021916908315150217905550905050600085859091806001815401808255809150506001900390600052602060002001600090919290919290919290919250919061033c9291906109f3565b5050610375565b6040517fb185df3a00000000000000000000000000000000000000000000000000000000815260040160405180910390fd5b50505050565b6001838360405161038d929190610e7d565b908152602001604051809103902060030160009054906101000a900460ff16156103f05780600184846040516103c4929190610e7d565b908152602001604051809103902060010160008282546103e49190610fb3565b92505081905550610422565b6040517f7e8d96a900000000000000000000000000000000000000000000000000000000815260040160405180910390fd5b505050565b6003602052816000526040600020818154811061044357600080fd5b906000526020600020016000915091509054906101000a900473ffffffffffffffffffffffffffffffffffffffff1681565b6002602052816000526040600020602052806000526040600020600091509150508060000154908060010154908060020160009054906101000a900460ff16905083565b6000805490508110801561052b57506002600082815260200190815260200160002060003373ffffffffffffffffffffffffffffffffffffffff1673ffffffffffffffffffffffffffffffffffffffff16815260200190815260200160002060020160009054906101000a900460ff16155b1561085e5760006001600083815481106105485761054761117e565b5b9060005260206000200160405161055f9190610e96565b908152602001604051809103902060405180608001604052908160008201548152602001600182015481526020016002820180548060200260200160405190810160405280929190818152602001828054801561061157602002820191906000526020600020905b8160009054906101000a900473ffffffffffffffffffffffffffffffffffffffff1673ffffffffffffffffffffffffffffffffffffffff16815260200190600101908083116105c7575b505050505081526020016003820160009054906101000a900460ff1615151515815250509050806000015134108061064d575060008160200151105b15610684576040517ff80236cc00000000000000000000000000000000000000000000000000000000815260040160405180910390fd5b61068c610a79565b4381600001818152505081600001518160200181815250506001816040019015159081151581525050806002600085815260200190815260200160002060003373ffffffffffffffffffffffffffffffffffffffff1673ffffffffffffffffffffffffffffffffffffffff168152602001908152602001600020600082015181600001556020820151816001015560408201518160020160006101000a81548160ff02191690831515021790555090505081602001805180919061074f90611093565b815250508160016000858154811061076a5761076961117e565b5b906000526020600020016040516107819190610e96565b9081526020016040518091039020600082015181600001556020820151816001015560408201518160020190805190602001906107bf929190610969565b5060608201518160030160006101000a81548160ff02191690831515021790555090505060036000848152602001908152602001600020339080600181540180825580915050600190039060005260206000200160009091909190916101000a81548173ffffffffffffffffffffffffffffffffffffffff021916908373ffffffffffffffffffffffffffffffffffffffff1602179055505050610890565b6040517fd42c9b8b00000000000000000000000000000000000000000000000000000000815260040160405180910390fd5b50565b600081815481106108a357600080fd5b9060005260206000200160009150905080546108be906110bd565b80601f01602080910402602001604051908101604052809291908181526020018280546108ea906110bd565b80156109375780601f1061090c57610100808354040283529160200191610937565b820191906000526020600020905b81548152906001019060200180831161091a57829003601f168201915b505050505081565b60405180608001604052806000815260200160008152602001606081526020016000151581525090565b8280548282559060005260206000209081019282156109e2579160200282015b828111156109e15782518260006101000a81548173ffffffffffffffffffffffffffffffffffffffff021916908373ffffffffffffffffffffffffffffffffffffffff16021790555091602001919060010190610989565b5b5090506109ef9190610a9c565b5090565b8280546109ff906110bd565b90600052602060002090601f016020900481019282610a215760008555610a68565b82601f10610a3a57803560ff1916838001178555610a68565b82800160010185558215610a68579182015b82811115610a67578235825591602001919060010190610a4c565b5b509050610a759190610a9c565b5090565b604051806060016040528060008152602001600081526020016000151581525090565b5b80821115610ab5576000816000905550600101610a9d565b5090565b6000610acc610ac784610f46565b610f21565b905082815260208101848484011115610ae857610ae76111eb565b5b610af3848285611051565b509392505050565b600081359050610b0a8161120b565b92915050565b60008083601f840112610b2657610b256111e1565b5b8235905067ffffffffffffffff811115610b4357610b426111dc565b5b602083019150836001820283011115610b5f57610b5e6111e6565b5b9250929050565b600082601f830112610b7b57610b7a6111e1565b5b8135610b8b848260208601610ab9565b91505092915050565b600081359050610ba381611222565b92915050565b600080600060408486031215610bc257610bc16111f5565b5b600084013567ffffffffffffffff811115610be057610bdf6111f0565b5b610bec86828701610b10565b93509350506020610bff86828701610b94565b9150509250925092565b60008060008060608587031215610c2357610c226111f5565b5b600085013567ffffffffffffffff811115610c4157610c406111f0565b5b610c4d87828801610b10565b94509450506020610c6087828801610b94565b9250506040610c7187828801610b94565b91505092959194509250565b600060208284031215610c9357610c926111f5565b5b600082013567ffffffffffffffff811115610cb157610cb06111f0565b5b610cbd84828501610b66565b91505092915050565b600060208284031215610cdc57610cdb6111f5565b5b6000610cea84828501610b94565b91505092915050565b60008060408385031215610d0a57610d096111f5565b5b6000610d1885828601610b94565b9250506020610d2985828601610afb565b9150509250929050565b60008060408385031215610d4a57610d496111f5565b5b6000610d5885828601610b94565b9250506020610d6985828601610b94565b9150509250929050565b610d7c81611009565b82525050565b610d8b8161101b565b82525050565b6000610d9d8385610fa8565b9350610daa838584611051565b82840190509392505050565b6000610dc182610f8c565b610dcb8185610f97565b9350610ddb818560208601611060565b610de4816111fa565b840191505092915050565b60008154610dfc816110bd565b610e068186610fa8565b94506001821660008114610e215760018114610e3257610e65565b60ff19831686528186019350610e65565b610e3b85610f77565b60005b83811015610e5d57815481890152600182019150602081019050610e3e565b838801955050505b50505092915050565b610e7781611047565b82525050565b6000610e8a828486610d91565b91508190509392505050565b6000610ea28284610def565b915081905092915050565b6000602082019050610ec26000830184610d73565b92915050565b60006020820190508181036000830152610ee28184610db6565b905092915050565b6000606082019050610eff6000830186610e6e565b610f0c6020830185610e6e565b610f196040830184610d82565b949350505050565b6000610f2b610f3c565b9050610f3782826110ef565b919050565b6000604051905090565b600067ffffffffffffffff821115610f6157610f606111ad565b5b610f6a826111fa565b9050602081019050919050565b60008190508160005260206000209050919050565b600081519050919050565b600082825260208201905092915050565b600081905092915050565b6000610fbe82611047565b9150610fc983611047565b9250827fffffffffffffffffffffffffffffffffffffffffffffffffffffffffffffffff03821115610ffe57610ffd611120565b5b828201905092915050565b600061101482611027565b9050919050565b60008115159050919050565b600073ffffffffffffffffffffffffffffffffffffffff82169050919050565b6000819050919050565b82818337600083830152505050565b60005b8381101561107e578082015181840152602081019050611063565b8381111561108d576000848401525b50505050565b600061109e82611047565b915060008214156110b2576110b1611120565b5b600182039050919050565b600060028204905060018216806110d557607f821691505b602082108114156110e9576110e861114f565b5b50919050565b6110f8826111fa565b810181811067ffffffffffffffff82111715611117576111166111ad565b5b80604052505050565b7f4e487b7100000000000000000000000000000000000000000000000000000000600052601160045260246000fd5b7f4e487b7100000000000000000000000000000000000000000000000000000000600052602260045260246000fd5b7f4e487b7100000000000000000000000000000000000000000000000000000000600052603260045260246000fd5b7f4e487b7100000000000000000000000000000000000000000000000000000000600052604160045260246000fd5b600080fd5b600080fd5b600080fd5b600080fd5b600080fd5b600080fd5b6000601f19601f8301169050919050565b61121481611009565b811461121f57600080fd5b50565b61122b81611047565b811461123657600080fd5b5056fea26469706673582212209957a361a18a774e09780b83eef54dcf24d5d2721a9a508bf6fa818974af535264736f6c63430008070033",
					"opcodes": "PUSH1 0x80 PUSH1 0x40 MSTORE PUSH2 0x126F DUP1 PUSH2 0x13 PUSH1 0x0 CODECOPY PUSH1 0x0 RETURN INVALID PUSH1 0x80 PUSH1 0x40 MSTORE PUSH1 0x4 CALLDATASIZE LT PUSH2 0x70 JUMPI PUSH1 0x0 CALLDATALOAD PUSH1 0xE0 SHR DUP1 PUSH4 0x27E7875A GT PUSH2 0x4E JUMPI DUP1 PUSH4 0x27E7875A EQ PUSH2 0x106 JUMPI DUP1 PUSH4 0x74CBC350 EQ PUSH2 0x143 JUMPI DUP1 PUSH4 0x8642269E EQ PUSH2 0x182 JUMPI DUP1 PUSH4 0xE4BCC7D4 EQ PUSH2 0x19E JUMPI PUSH2 0x70 JUMP JUMPDEST DUP1 PUSH4 0x186A423 EQ PUSH2 0x75 JUMPI DUP1 PUSH4 0xA5BD44B EQ PUSH2 0xB4 JUMPI DUP1 PUSH4 0x1D894EB8 EQ PUSH2 0xDD JUMPI JUMPDEST PUSH1 0x0 DUP1 REVERT JUMPDEST CALLVALUE DUP1 ISZERO PUSH2 0x81 JUMPI PUSH1 0x0 DUP1 REVERT JUMPDEST POP PUSH2 0x9C PUSH1 0x4 DUP1 CALLDATASIZE SUB DUP2 ADD SWAP1 PUSH2 0x97 SWAP2 SWAP1 PUSH2 0xC7D JUMP JUMPDEST PUSH2 0x1DB JUMP JUMPDEST PUSH1 0x40 MLOAD PUSH2 0xAB SWAP4 SWAP3 SWAP2 SWAP1 PUSH2 0xEEA JUMP JUMPDEST PUSH1 0x40 MLOAD DUP1 SWAP2 SUB SWAP1 RETURN JUMPDEST CALLVALUE DUP1 ISZERO PUSH2 0xC0 JUMPI PUSH1 0x0 DUP1 REVERT JUMPDEST POP PUSH2 0xDB PUSH1 0x4 DUP1 CALLDATASIZE SUB DUP2 ADD SWAP1 PUSH2 0xD6 SWAP2 SWAP1 PUSH2 0xC09 JUMP JUMPDEST PUSH2 0x228 JUMP JUMPDEST STOP JUMPDEST CALLVALUE DUP1 ISZERO PUSH2 0xE9 JUMPI PUSH1 0x0 DUP1 REVERT JUMPDEST POP PUSH2 0x104 PUSH1 0x4 DUP1 CALLDATASIZE SUB DUP2 ADD SWAP1 PUSH2 0xFF SWAP2 SWAP1 PUSH2 0xBA9 JUMP JUMPDEST PUSH2 0x37B JUMP JUMPDEST STOP JUMPDEST CALLVALUE DUP1 ISZERO PUSH2 0x112 JUMPI PUSH1 0x0 DUP1 REVERT JUMPDEST POP PUSH2 0x12D PUSH1 0x4 DUP1 CALLDATASIZE SUB DUP2 ADD SWAP1 PUSH2 0x128 SWAP2 SWAP1 PUSH2 0xD33 JUMP JUMPDEST PUSH2 0x427 JUMP JUMPDEST PUSH1 0x40 MLOAD PUSH2 0x13A SWAP2 SWAP1 PUSH2 0xEAD JUMP JUMPDEST PUSH1 0x40 MLOAD DUP1 SWAP2 SUB SWAP1 RETURN JUMPDEST CALLVALUE DUP1 ISZERO PUSH2 0x14F JUMPI PUSH1 0x0 DUP1 REVERT JUMPDEST POP PUSH2 0x16A PUSH1 0x4 DUP1 CALLDATASIZE SUB DUP2 ADD SWAP1 PUSH2 0x165 SWAP2 SWAP1 PUSH2 0xCF3 JUMP JUMPDEST PUSH2 0x475 JUMP JUMPDEST PUSH1 0x40 MLOAD PUSH2 0x179 SWAP4 SWAP3 SWAP2 SWAP1 PUSH2 0xEEA JUMP JUMPDEST PUSH1 0x40 MLOAD DUP1 SWAP2 SUB SWAP1 RETURN JUMPDEST PUSH2 0x19C PUSH1 0x4 DUP1 CALLDATASIZE SUB DUP2 ADD SWAP1 PUSH2 0x197 SWAP2 SWAP1 PUSH2 0xCC6 JUMP JUMPDEST PUSH2 0x4B9 JUMP JUMPDEST STOP JUMPDEST CALLVALUE DUP1 ISZERO PUSH2 0x1AA JUMPI PUSH1 0x0 DUP1 REVERT JUMPDEST POP PUSH2 0x1C5 PUSH1 0x4 DUP1 CALLDATASIZE SUB DUP2 ADD SWAP1 PUSH2 0x1C0 SWAP2 SWAP1 PUSH2 0xCC6 JUMP JUMPDEST PUSH2 0x893 JUMP JUMPDEST PUSH1 0x40 MLOAD PUSH2 0x1D2 SWAP2 SWAP1 PUSH2 0xEC8 JUMP JUMPDEST PUSH1 0x40 MLOAD DUP1 SWAP2 SUB SWAP1 RETURN JUMPDEST PUSH1 0x1 DUP2 DUP1 MLOAD PUSH1 0x20 DUP2 ADD DUP3 ADD DUP1 MLOAD DUP5 DUP3 MSTORE PUSH1 0x20 DUP4 ADD PUSH1 0x20 DUP6 ADD KECCAK256 DUP2 DUP4 MSTORE DUP1 SWAP6 POP POP POP POP POP POP PUSH1 0x0 SWAP2 POP SWAP1 POP DUP1 PUSH1 0x0 ADD SLOAD SWAP1 DUP1 PUSH1 0x1 ADD SLOAD SWAP1 DUP1 PUSH1 0x3 ADD PUSH1 0x0 SWAP1 SLOAD SWAP1 PUSH2 0x100 EXP SWAP1 DIV PUSH1 0xFF AND SWAP1 POP DUP4 JUMP JUMPDEST PUSH1 0x1 DUP5 DUP5 PUSH1 0x40 MLOAD PUSH2 0x23A SWAP3 SWAP2 SWAP1 PUSH2 0xE7D JUMP JUMPDEST SWAP1 DUP2 MSTORE PUSH1 0x20 ADD PUSH1 0x40 MLOAD DUP1 SWAP2 SUB SWAP1 KECCAK256 PUSH1 0x3 ADD PUSH1 0x0 SWAP1 SLOAD SWAP1 PUSH2 0x100 EXP SWAP1 DIV PUSH1 0xFF AND PUSH2 0x343 JUMPI PUSH2 0x265 PUSH2 0x93F JUMP JUMPDEST DUP3 DUP2 PUSH1 0x0 ADD DUP2 DUP2 MSTORE POP POP DUP2 DUP2 PUSH1 0x20 ADD DUP2 DUP2 MSTORE POP POP PUSH1 0x1 DUP2 PUSH1 0x60 ADD SWAP1 ISZERO ISZERO SWAP1 DUP2 ISZERO ISZERO DUP2 MSTORE POP POP DUP1 PUSH1 0x1 DUP7 DUP7 PUSH1 0x40 MLOAD PUSH2 0x29D SWAP3 SWAP2 SWAP1 PUSH2 0xE7D JUMP JUMPDEST SWAP1 DUP2 MSTORE PUSH1 0x20 ADD PUSH1 0x40 MLOAD DUP1 SWAP2 SUB SWAP1 KECCAK256 PUSH1 0x0 DUP3 ADD MLOAD DUP2 PUSH1 0x0 ADD SSTORE PUSH1 0x20 DUP3 ADD MLOAD DUP2 PUSH1 0x1 ADD SSTORE PUSH1 0x40 DUP3 ADD MLOAD DUP2 PUSH1 0x2 ADD SWAP1 DUP1 MLOAD SWAP1 PUSH1 0x20 ADD SWAP1 PUSH2 0x2DB SWAP3 SWAP2 SWAP1 PUSH2 0x969 JUMP JUMPDEST POP PUSH1 0x60 DUP3 ADD MLOAD DUP2 PUSH1 0x3 ADD PUSH1 0x0 PUSH2 0x100 EXP DUP2 SLOAD DUP2 PUSH1 0xFF MUL NOT AND SWAP1 DUP4 ISZERO ISZERO MUL OR SWAP1 SSTORE POP SWAP1 POP POP PUSH1 0x0 DUP6 DUP6 SWAP1 SWAP2 DUP1 PUSH1 0x1 DUP2 SLOAD ADD DUP1 DUP3 SSTORE DUP1 SWAP2 POP POP PUSH1 0x1 SWAP1 SUB SWAP1 PUSH1 0x0 MSTORE PUSH1 0x20 PUSH1 0x0 KECCAK256 ADD PUSH1 0x0 SWAP1 SWAP2 SWAP3 SWAP1 SWAP2 SWAP3 SWAP1 SWAP2 SWAP3 SWAP1 SWAP2 SWAP3 POP SWAP2 SWAP1 PUSH2 0x33C SWAP3 SWAP2 SWAP1 PUSH2 0x9F3 JUMP JUMPDEST POP POP PUSH2 0x375 JUMP JUMPDEST PUSH1 0x40 MLOAD PUSH32 0xB185DF3A00000000000000000000000000000000000000000000000000000000 DUP2 MSTORE PUSH1 0x4 ADD PUSH1 0x40 MLOAD DUP1 SWAP2 SUB SWAP1 REVERT JUMPDEST POP POP POP POP JUMP JUMPDEST PUSH1 0x1 DUP4 DUP4 PUSH1 0x40 MLOAD PUSH2 0x38D SWAP3 SWAP2 SWAP1 PUSH2 0xE7D JUMP JUMPDEST SWAP1 DUP2 MSTORE PUSH1 0x20 ADD PUSH1 0x40 MLOAD DUP1 SWAP2 SUB SWAP1 KECCAK256 PUSH1 0x3 ADD PUSH1 0x0 SWAP1 SLOAD SWAP1 PUSH2 0x100 EXP SWAP1 DIV PUSH1 0xFF AND ISZERO PUSH2 0x3F0 JUMPI DUP1 PUSH1 0x1 DUP5 DUP5 PUSH1 0x40 MLOAD PUSH2 0x3C4 SWAP3 SWAP2 SWAP1 PUSH2 0xE7D JUMP JUMPDEST SWAP1 DUP2 MSTORE PUSH1 0x20 ADD PUSH1 0x40 MLOAD DUP1 SWAP2 SUB SWAP1 KECCAK256 PUSH1 0x1 ADD PUSH1 0x0 DUP3 DUP3 SLOAD PUSH2 0x3E4 SWAP2 SWAP1 PUSH2 0xFB3 JUMP JUMPDEST SWAP3 POP POP DUP2 SWAP1 SSTORE POP PUSH2 0x422 JUMP JUMPDEST PUSH1 0x40 MLOAD PUSH32 0x7E8D96A900000000000000000000000000000000000000000000000000000000 DUP2 MSTORE PUSH1 0x4 ADD PUSH1 0x40 MLOAD DUP1 SWAP2 SUB SWAP1 REVERT JUMPDEST POP POP POP JUMP JUMPDEST PUSH1 0x3 PUSH1 0x20 MSTORE DUP2 PUSH1 0x0 MSTORE PUSH1 0x40 PUSH1 0x0 KECCAK256 DUP2 DUP2 SLOAD DUP2 LT PUSH2 0x443 JUMPI PUSH1 0x0 DUP1 REVERT JUMPDEST SWAP1 PUSH1 0x0 MSTORE PUSH1 0x20 PUSH1 0x0 KECCAK256 ADD PUSH1 0x0 SWAP2 POP SWAP2 POP SWAP1 SLOAD SWAP1 PUSH2 0x100 EXP SWAP1 DIV PUSH20 0xFFFFFFFFFFFFFFFFFFFFFFFFFFFFFFFFFFFFFFFF AND DUP2 JUMP JUMPDEST PUSH1 0x2 PUSH1 0x20 MSTORE DUP2 PUSH1 0x0 MSTORE PUSH1 0x40 PUSH1 0x0 KECCAK256 PUSH1 0x20 MSTORE DUP1 PUSH1 0x0 MSTORE PUSH1 0x40 PUSH1 0x0 KECCAK256 PUSH1 0x0 SWAP2 POP SWAP2 POP POP DUP1 PUSH1 0x0 ADD SLOAD SWAP1 DUP1 PUSH1 0x1 ADD SLOAD SWAP1 DUP1 PUSH1 0x2 ADD PUSH1 0x0 SWAP1 SLOAD SWAP1 PUSH2 0x100 EXP SWAP1 DIV PUSH1 0xFF AND SWAP1 POP DUP4 JUMP JUMPDEST PUSH1 0x0 DUP1 SLOAD SWAP1 POP DUP2 LT DUP1 ISZERO PUSH2 0x52B JUMPI POP PUSH1 0x2 PUSH1 0x0 DUP3 DUP2 MSTORE PUSH1 0x20 ADD SWAP1 DUP2 MSTORE PUSH1 0x20 ADD PUSH1 0x0 KECCAK256 PUSH1 0x0 CALLER PUSH20 0xFFFFFFFFFFFFFFFFFFFFFFFFFFFFFFFFFFFFFFFF AND PUSH20 0xFFFFFFFFFFFFFFFFFFFFFFFFFFFFFFFFFFFFFFFF AND DUP2 MSTORE PUSH1 0x20 ADD SWAP1 DUP2 MSTORE PUSH1 0x20 ADD PUSH1 0x0 KECCAK256 PUSH1 0x2 ADD PUSH1 0x0 SWAP1 SLOAD SWAP1 PUSH2 0x100 EXP SWAP1 DIV PUSH1 0xFF AND ISZERO JUMPDEST ISZERO PUSH2 0x85E JUMPI PUSH1 0x0 PUSH1 0x1 PUSH1 0x0 DUP4 DUP2 SLOAD DUP2 LT PUSH2 0x548 JUMPI PUSH2 0x547 PUSH2 0x117E JUMP JUMPDEST JUMPDEST SWAP1 PUSH1 0x0 MSTORE PUSH1 0x20 PUSH1 0x0 KECCAK256 ADD PUSH1 0x40 MLOAD PUSH2 0x55F SWAP2 SWAP1 PUSH2 0xE96 JUMP JUMPDEST SWAP1 DUP2 MSTORE PUSH1 0x20 ADD PUSH1 0x40 MLOAD DUP1 SWAP2 SUB SWAP1 KECCAK256 PUSH1 0x40 MLOAD DUP1 PUSH1 0x80 ADD PUSH1 0x40 MSTORE SWAP1 DUP2 PUSH1 0x0 DUP3 ADD SLOAD DUP2 MSTORE PUSH1 0x20 ADD PUSH1 0x1 DUP3 ADD SLOAD DUP2 MSTORE PUSH1 0x20 ADD PUSH1 0x2 DUP3 ADD DUP1 SLOAD DUP1 PUSH1 0x20 MUL PUSH1 0x20 ADD PUSH1 0x40 MLOAD SWAP1 DUP2 ADD PUSH1 0x40 MSTORE DUP1 SWAP3 SWAP2 SWAP1 DUP2 DUP2 MSTORE PUSH1 0x20 ADD DUP3 DUP1 SLOAD DUP1 ISZERO PUSH2 0x611 JUMPI PUSH1 0x20 MUL DUP3 ADD SWAP2 SWAP1 PUSH1 0x0 MSTORE PUSH1 0x20 PUSH1 0x0 KECCAK256 SWAP1 JUMPDEST DUP2 PUSH1 0x0 SWAP1 SLOAD SWAP1 PUSH2 0x100 EXP SWAP1 DIV PUSH20 0xFFFFFFFFFFFFFFFFFFFFFFFFFFFFFFFFFFFFFFFF AND PUSH20 0xFFFFFFFFFFFFFFFFFFFFFFFFFFFFFFFFFFFFFFFF AND DUP2 MSTORE PUSH1 0x20 ADD SWAP1 PUSH1 0x1 ADD SWAP1 DUP1 DUP4 GT PUSH2 0x5C7 JUMPI JUMPDEST POP POP POP POP POP DUP2 MSTORE PUSH1 0x20 ADD PUSH1 0x3 DUP3 ADD PUSH1 0x0 SWAP1 SLOAD SWAP1 PUSH2 0x100 EXP SWAP1 DIV PUSH1 0xFF AND ISZERO ISZERO ISZERO ISZERO DUP2 MSTORE POP POP SWAP1 POP DUP1 PUSH1 0x0 ADD MLOAD CALLVALUE LT DUP1 PUSH2 0x64D JUMPI POP PUSH1 0x0 DUP2 PUSH1 0x20 ADD MLOAD LT JUMPDEST ISZERO PUSH2 0x684 JUMPI PUSH1 0x40 MLOAD PUSH32 0xF80236CC00000000000000000000000000000000000000000000000000000000 DUP2 MSTORE PUSH1 0x4 ADD PUSH1 0x40 MLOAD DUP1 SWAP2 SUB SWAP1 REVERT JUMPDEST PUSH2 0x68C PUSH2 0xA79 JUMP JUMPDEST NUMBER DUP2 PUSH1 0x0 ADD DUP2 DUP2 MSTORE POP POP DUP2 PUSH1 0x0 ADD MLOAD DUP2 PUSH1 0x20 ADD DUP2 DUP2 MSTORE POP POP PUSH1 0x1 DUP2 PUSH1 0x40 ADD SWAP1 ISZERO ISZERO SWAP1 DUP2 ISZERO ISZERO DUP2 MSTORE POP POP DUP1 PUSH1 0x2 PUSH1 0x0 DUP6 DUP2 MSTORE PUSH1 0x20 ADD SWAP1 DUP2 MSTORE PUSH1 0x20 ADD PUSH1 0x0 KECCAK256 PUSH1 0x0 CALLER PUSH20 0xFFFFFFFFFFFFFFFFFFFFFFFFFFFFFFFFFFFFFFFF AND PUSH20 0xFFFFFFFFFFFFFFFFFFFFFFFFFFFFFFFFFFFFFFFF AND DUP2 MSTORE PUSH1 0x20 ADD SWAP1 DUP2 MSTORE PUSH1 0x20 ADD PUSH1 0x0 KECCAK256 PUSH1 0x0 DUP3 ADD MLOAD DUP2 PUSH1 0x0 ADD SSTORE PUSH1 0x20 DUP3 ADD MLOAD DUP2 PUSH1 0x1 ADD SSTORE PUSH1 0x40 DUP3 ADD MLOAD DUP2 PUSH1 0x2 ADD PUSH1 0x0 PUSH2 0x100 EXP DUP2 SLOAD DUP2 PUSH1 0xFF MUL NOT AND SWAP1 DUP4 ISZERO ISZERO MUL OR SWAP1 SSTORE POP SWAP1 POP POP DUP2 PUSH1 0x20 ADD DUP1 MLOAD DUP1 SWAP2 SWAP1 PUSH2 0x74F SWAP1 PUSH2 0x1093 JUMP JUMPDEST DUP2 MSTORE POP POP DUP2 PUSH1 0x1 PUSH1 0x0 DUP6 DUP2 SLOAD DUP2 LT PUSH2 0x76A JUMPI PUSH2 0x769 PUSH2 0x117E JUMP JUMPDEST JUMPDEST SWAP1 PUSH1 0x0 MSTORE PUSH1 0x20 PUSH1 0x0 KECCAK256 ADD PUSH1 0x40 MLOAD PUSH2 0x781 SWAP2 SWAP1 PUSH2 0xE96 JUMP JUMPDEST SWAP1 DUP2 MSTORE PUSH1 0x20 ADD PUSH1 0x40 MLOAD DUP1 SWAP2 SUB SWAP1 KECCAK256 PUSH1 0x0 DUP3 ADD MLOAD DUP2 PUSH1 0x0 ADD SSTORE PUSH1 0x20 DUP3 ADD MLOAD DUP2 PUSH1 0x1 ADD SSTORE PUSH1 0x40 DUP3 ADD MLOAD DUP2 PUSH1 0x2 ADD SWAP1 DUP1 MLOAD SWAP1 PUSH1 0x20 ADD SWAP1 PUSH2 0x7BF SWAP3 SWAP2 SWAP1 PUSH2 0x969 JUMP JUMPDEST POP PUSH1 0x60 DUP3 ADD MLOAD DUP2 PUSH1 0x3 ADD PUSH1 0x0 PUSH2 0x100 EXP DUP2 SLOAD DUP2 PUSH1 0xFF MUL NOT AND SWAP1 DUP4 ISZERO ISZERO MUL OR SWAP1 SSTORE POP SWAP1 POP POP PUSH1 0x3 PUSH1 0x0 DUP5 DUP2 MSTORE PUSH1 0x20 ADD SWAP1 DUP2 MSTORE PUSH1 0x20 ADD PUSH1 0x0 KECCAK256 CALLER SWAP1 DUP1 PUSH1 0x1 DUP2 SLOAD ADD DUP1 DUP3 SSTORE DUP1 SWAP2 POP POP PUSH1 0x1 SWAP1 SUB SWAP1 PUSH1 0x0 MSTORE PUSH1 0x20 PUSH1 0x0 KECCAK256 ADD PUSH1 0x0 SWAP1 SWAP2 SWAP1 SWAP2 SWAP1 SWAP2 PUSH2 0x100 EXP DUP2 SLOAD DUP2 PUSH20 0xFFFFFFFFFFFFFFFFFFFFFFFFFFFFFFFFFFFFFFFF MUL NOT AND SWAP1 DUP4 PUSH20 0xFFFFFFFFFFFFFFFFFFFFFFFFFFFFFFFFFFFFFFFF AND MUL OR SWAP1 SSTORE POP POP POP PUSH2 0x890 JUMP JUMPDEST PUSH1 0x40 MLOAD PUSH32 0xD42C9B8B00000000000000000000000000000000000000000000000000000000 DUP2 MSTORE PUSH1 0x4 ADD PUSH1 0x40 MLOAD DUP1 SWAP2 SUB SWAP1 REVERT JUMPDEST POP JUMP JUMPDEST PUSH1 0x0 DUP2 DUP2 SLOAD DUP2 LT PUSH2 0x8A3 JUMPI PUSH1 0x0 DUP1 REVERT JUMPDEST SWAP1 PUSH1 0x0 MSTORE PUSH1 0x20 PUSH1 0x0 KECCAK256 ADD PUSH1 0x0 SWAP2 POP SWAP1 POP DUP1 SLOAD PUSH2 0x8BE SWAP1 PUSH2 0x10BD JUMP JUMPDEST DUP1 PUSH1 0x1F ADD PUSH1 0x20 DUP1 SWAP2 DIV MUL PUSH1 0x20 ADD PUSH1 0x40 MLOAD SWAP1 DUP2 ADD PUSH1 0x40 MSTORE DUP1 SWAP3 SWAP2 SWAP1 DUP2 DUP2 MSTORE PUSH1 0x20 ADD DUP3 DUP1 SLOAD PUSH2 0x8EA SWAP1 PUSH2 0x10BD JUMP JUMPDEST DUP1 ISZERO PUSH2 0x937 JUMPI DUP1 PUSH1 0x1F LT PUSH2 0x90C JUMPI PUSH2 0x100 DUP1 DUP4 SLOAD DIV MUL DUP4 MSTORE SWAP2 PUSH1 0x20 ADD SWAP2 PUSH2 0x937 JUMP JUMPDEST DUP3 ADD SWAP2 SWAP1 PUSH1 0x0 MSTORE PUSH1 0x20 PUSH1 0x0 KECCAK256 SWAP1 JUMPDEST DUP2 SLOAD DUP2 MSTORE SWAP1 PUSH1 0x1 ADD SWAP1 PUSH1 0x20 ADD DUP1 DUP4 GT PUSH2 0x91A JUMPI DUP3 SWAP1 SUB PUSH1 0x1F AND DUP3 ADD SWAP2 JUMPDEST POP POP POP POP POP DUP2 JUMP JUMPDEST PUSH1 0x40 MLOAD DUP1 PUSH1 0x80 ADD PUSH1 0x40 MSTORE DUP1 PUSH1 0x0 DUP2 MSTORE PUSH1 0x20 ADD PUSH1 0x0 DUP2 MSTORE PUSH1 0x20 ADD PUSH1 0x60 DUP2 MSTORE PUSH1 0x20 ADD PUSH1 0x0 ISZERO ISZERO DUP2 MSTORE POP SWAP1 JUMP JUMPDEST DUP3 DUP1 SLOAD DUP3 DUP3 SSTORE SWAP1 PUSH1 0x0 MSTORE PUSH1 0x20 PUSH1 0x0 KECCAK256 SWAP1 DUP2 ADD SWAP3 DUP3 ISZERO PUSH2 0x9E2 JUMPI SWAP2 PUSH1 0x20 MUL DUP3 ADD JUMPDEST DUP3 DUP2 GT ISZERO PUSH2 0x9E1 JUMPI DUP3 MLOAD DUP3 PUSH1 0x0 PUSH2 0x100 EXP DUP2 SLOAD DUP2 PUSH20 0xFFFFFFFFFFFFFFFFFFFFFFFFFFFFFFFFFFFFFFFF MUL NOT AND SWAP1 DUP4 PUSH20 0xFFFFFFFFFFFFFFFFFFFFFFFFFFFFFFFFFFFFFFFF AND MUL OR SWAP1 SSTORE POP SWAP2 PUSH1 0x20 ADD SWAP2 SWAP1 PUSH1 0x1 ADD SWAP1 PUSH2 0x989 JUMP JUMPDEST JUMPDEST POP SWAP1 POP PUSH2 0x9EF SWAP2 SWAP1 PUSH2 0xA9C JUMP JUMPDEST POP SWAP1 JUMP JUMPDEST DUP3 DUP1 SLOAD PUSH2 0x9FF SWAP1 PUSH2 0x10BD JUMP JUMPDEST SWAP1 PUSH1 0x0 MSTORE PUSH1 0x20 PUSH1 0x0 KECCAK256 SWAP1 PUSH1 0x1F ADD PUSH1 0x20 SWAP1 DIV DUP2 ADD SWAP3 DUP3 PUSH2 0xA21 JUMPI PUSH1 0x0 DUP6 SSTORE PUSH2 0xA68 JUMP JUMPDEST DUP3 PUSH1 0x1F LT PUSH2 0xA3A JUMPI DUP1 CALLDATALOAD PUSH1 0xFF NOT AND DUP4 DUP1 ADD OR DUP6 SSTORE PUSH2 0xA68 JUMP JUMPDEST DUP3 DUP1 ADD PUSH1 0x1 ADD DUP6 SSTORE DUP3 ISZERO PUSH2 0xA68 JUMPI SWAP2 DUP3 ADD JUMPDEST DUP3 DUP2 GT ISZERO PUSH2 0xA67 JUMPI DUP3 CALLDATALOAD DUP3 SSTORE SWAP2 PUSH1 0x20 ADD SWAP2 SWAP1 PUSH1 0x1 ADD SWAP1 PUSH2 0xA4C JUMP JUMPDEST JUMPDEST POP SWAP1 POP PUSH2 0xA75 SWAP2 SWAP1 PUSH2 0xA9C JUMP JUMPDEST POP SWAP1 JUMP JUMPDEST PUSH1 0x40 MLOAD DUP1 PUSH1 0x60 ADD PUSH1 0x40 MSTORE DUP1 PUSH1 0x0 DUP2 MSTORE PUSH1 0x20 ADD PUSH1 0x0 DUP2 MSTORE PUSH1 0x20 ADD PUSH1 0x0 ISZERO ISZERO DUP2 MSTORE POP SWAP1 JUMP JUMPDEST JUMPDEST DUP1 DUP3 GT ISZERO PUSH2 0xAB5 JUMPI PUSH1 0x0 DUP2 PUSH1 0x0 SWAP1 SSTORE POP PUSH1 0x1 ADD PUSH2 0xA9D JUMP JUMPDEST POP SWAP1 JUMP JUMPDEST PUSH1 0x0 PUSH2 0xACC PUSH2 0xAC7 DUP5 PUSH2 0xF46 JUMP JUMPDEST PUSH2 0xF21 JUMP JUMPDEST SWAP1 POP DUP3 DUP2 MSTORE PUSH1 0x20 DUP2 ADD DUP5 DUP5 DUP5 ADD GT ISZERO PUSH2 0xAE8 JUMPI PUSH2 0xAE7 PUSH2 0x11EB JUMP JUMPDEST JUMPDEST PUSH2 0xAF3 DUP5 DUP3 DUP6 PUSH2 0x1051 JUMP JUMPDEST POP SWAP4 SWAP3 POP POP POP JUMP JUMPDEST PUSH1 0x0 DUP2 CALLDATALOAD SWAP1 POP PUSH2 0xB0A DUP2 PUSH2 0x120B JUMP JUMPDEST SWAP3 SWAP2 POP POP JUMP JUMPDEST PUSH1 0x0 DUP1 DUP4 PUSH1 0x1F DUP5 ADD SLT PUSH2 0xB26 JUMPI PUSH2 0xB25 PUSH2 0x11E1 JUMP JUMPDEST JUMPDEST DUP3 CALLDATALOAD SWAP1 POP PUSH8 0xFFFFFFFFFFFFFFFF DUP2 GT ISZERO PUSH2 0xB43 JUMPI PUSH2 0xB42 PUSH2 0x11DC JUMP JUMPDEST JUMPDEST PUSH1 0x20 DUP4 ADD SWAP2 POP DUP4 PUSH1 0x1 DUP3 MUL DUP4 ADD GT ISZERO PUSH2 0xB5F JUMPI PUSH2 0xB5E PUSH2 0x11E6 JUMP JUMPDEST JUMPDEST SWAP3 POP SWAP3 SWAP1 POP JUMP JUMPDEST PUSH1 0x0 DUP3 PUSH1 0x1F DUP4 ADD SLT PUSH2 0xB7B JUMPI PUSH2 0xB7A PUSH2 0x11E1 JUMP JUMPDEST JUMPDEST DUP2 CALLDATALOAD PUSH2 0xB8B DUP5 DUP3 PUSH1 0x20 DUP7 ADD PUSH2 0xAB9 JUMP JUMPDEST SWAP2 POP POP SWAP3 SWAP2 POP POP JUMP JUMPDEST PUSH1 0x0 DUP2 CALLDATALOAD SWAP1 POP PUSH2 0xBA3 DUP2 PUSH2 0x1222 JUMP JUMPDEST SWAP3 SWAP2 POP POP JUMP JUMPDEST PUSH1 0x0 DUP1 PUSH1 0x0 PUSH1 0x40 DUP5 DUP7 SUB SLT ISZERO PUSH2 0xBC2 JUMPI PUSH2 0xBC1 PUSH2 0x11F5 JUMP JUMPDEST JUMPDEST PUSH1 0x0 DUP5 ADD CALLDATALOAD PUSH8 0xFFFFFFFFFFFFFFFF DUP2 GT ISZERO PUSH2 0xBE0 JUMPI PUSH2 0xBDF PUSH2 0x11F0 JUMP JUMPDEST JUMPDEST PUSH2 0xBEC DUP7 DUP3 DUP8 ADD PUSH2 0xB10 JUMP JUMPDEST SWAP4 POP SWAP4 POP POP PUSH1 0x20 PUSH2 0xBFF DUP7 DUP3 DUP8 ADD PUSH2 0xB94 JUMP JUMPDEST SWAP2 POP POP SWAP3 POP SWAP3 POP SWAP3 JUMP JUMPDEST PUSH1 0x0 DUP1 PUSH1 0x0 DUP1 PUSH1 0x60 DUP6 DUP8 SUB SLT ISZERO PUSH2 0xC23 JUMPI PUSH2 0xC22 PUSH2 0x11F5 JUMP JUMPDEST JUMPDEST PUSH1 0x0 DUP6 ADD CALLDATALOAD PUSH8 0xFFFFFFFFFFFFFFFF DUP2 GT ISZERO PUSH2 0xC41 JUMPI PUSH2 0xC40 PUSH2 0x11F0 JUMP JUMPDEST JUMPDEST PUSH2 0xC4D DUP8 DUP3 DUP9 ADD PUSH2 0xB10 JUMP JUMPDEST SWAP5 POP SWAP5 POP POP PUSH1 0x20 PUSH2 0xC60 DUP8 DUP3 DUP9 ADD PUSH2 0xB94 JUMP JUMPDEST SWAP3 POP POP PUSH1 0x40 PUSH2 0xC71 DUP8 DUP3 DUP9 ADD PUSH2 0xB94 JUMP JUMPDEST SWAP2 POP POP SWAP3 SWAP6 SWAP2 SWAP5 POP SWAP3 POP JUMP JUMPDEST PUSH1 0x0 PUSH1 0x20 DUP3 DUP5 SUB SLT ISZERO PUSH2 0xC93 JUMPI PUSH2 0xC92 PUSH2 0x11F5 JUMP JUMPDEST JUMPDEST PUSH1 0x0 DUP3 ADD CALLDATALOAD PUSH8 0xFFFFFFFFFFFFFFFF DUP2 GT ISZERO PUSH2 0xCB1 JUMPI PUSH2 0xCB0 PUSH2 0x11F0 JUMP JUMPDEST JUMPDEST PUSH2 0xCBD DUP5 DUP3 DUP6 ADD PUSH2 0xB66 JUMP JUMPDEST SWAP2 POP POP SWAP3 SWAP2 POP POP JUMP JUMPDEST PUSH1 0x0 PUSH1 0x20 DUP3 DUP5 SUB SLT ISZERO PUSH2 0xCDC JUMPI PUSH2 0xCDB PUSH2 0x11F5 JUMP JUMPDEST JUMPDEST PUSH1 0x0 PUSH2 0xCEA DUP5 DUP3 DUP6 ADD PUSH2 0xB94 JUMP JUMPDEST SWAP2 POP POP SWAP3 SWAP2 POP POP JUMP JUMPDEST PUSH1 0x0 DUP1 PUSH1 0x40 DUP4 DUP6 SUB SLT ISZERO PUSH2 0xD0A JUMPI PUSH2 0xD09 PUSH2 0x11F5 JUMP JUMPDEST JUMPDEST PUSH1 0x0 PUSH2 0xD18 DUP6 DUP3 DUP7 ADD PUSH2 0xB94 JUMP JUMPDEST SWAP3 POP POP PUSH1 0x20 PUSH2 0xD29 DUP6 DUP3 DUP7 ADD PUSH2 0xAFB JUMP JUMPDEST SWAP2 POP POP SWAP3 POP SWAP3 SWAP1 POP JUMP JUMPDEST PUSH1 0x0 DUP1 PUSH1 0x40 DUP4 DUP6 SUB SLT ISZERO PUSH2 0xD4A JUMPI PUSH2 0xD49 PUSH2 0x11F5 JUMP JUMPDEST JUMPDEST PUSH1 0x0 PUSH2 0xD58 DUP6 DUP3 DUP7 ADD PUSH2 0xB94 JUMP JUMPDEST SWAP3 POP POP PUSH1 0x20 PUSH2 0xD69 DUP6 DUP3 DUP7 ADD PUSH2 0xB94 JUMP JUMPDEST SWAP2 POP POP SWAP3 POP SWAP3 SWAP1 POP JUMP JUMPDEST PUSH2 0xD7C DUP2 PUSH2 0x1009 JUMP JUMPDEST DUP3 MSTORE POP POP JUMP JUMPDEST PUSH2 0xD8B DUP2 PUSH2 0x101B JUMP JUMPDEST DUP3 MSTORE POP POP JUMP JUMPDEST PUSH1 0x0 PUSH2 0xD9D DUP4 DUP6 PUSH2 0xFA8 JUMP JUMPDEST SWAP4 POP PUSH2 0xDAA DUP4 DUP6 DUP5 PUSH2 0x1051 JUMP JUMPDEST DUP3 DUP5 ADD SWAP1 POP SWAP4 SWAP3 POP POP POP JUMP JUMPDEST PUSH1 0x0 PUSH2 0xDC1 DUP3 PUSH2 0xF8C JUMP JUMPDEST PUSH2 0xDCB DUP2 DUP6 PUSH2 0xF97 JUMP JUMPDEST SWAP4 POP PUSH2 0xDDB DUP2 DUP6 PUSH1 0x20 DUP7 ADD PUSH2 0x1060 JUMP JUMPDEST PUSH2 0xDE4 DUP2 PUSH2 0x11FA JUMP JUMPDEST DUP5 ADD SWAP2 POP POP SWAP3 SWAP2 POP POP JUMP JUMPDEST PUSH1 0x0 DUP2 SLOAD PUSH2 0xDFC DUP2 PUSH2 0x10BD JUMP JUMPDEST PUSH2 0xE06 DUP2 DUP7 PUSH2 0xFA8 JUMP JUMPDEST SWAP5 POP PUSH1 0x1 DUP3 AND PUSH1 0x0 DUP2 EQ PUSH2 0xE21 JUMPI PUSH1 0x1 DUP2 EQ PUSH2 0xE32 JUMPI PUSH2 0xE65 JUMP JUMPDEST PUSH1 0xFF NOT DUP4 AND DUP7 MSTORE DUP2 DUP7 ADD SWAP4 POP PUSH2 0xE65 JUMP JUMPDEST PUSH2 0xE3B DUP6 PUSH2 0xF77 JUMP JUMPDEST PUSH1 0x0 JUMPDEST DUP4 DUP2 LT ISZERO PUSH2 0xE5D JUMPI DUP2 SLOAD DUP2 DUP10 ADD MSTORE PUSH1 0x1 DUP3 ADD SWAP2 POP PUSH1 0x20 DUP2 ADD SWAP1 POP PUSH2 0xE3E JUMP JUMPDEST DUP4 DUP9 ADD SWAP6 POP POP POP JUMPDEST POP POP POP SWAP3 SWAP2 POP POP JUMP JUMPDEST PUSH2 0xE77 DUP2 PUSH2 0x1047 JUMP JUMPDEST DUP3 MSTORE POP POP JUMP JUMPDEST PUSH1 0x0 PUSH2 0xE8A DUP3 DUP5 DUP7 PUSH2 0xD91 JUMP JUMPDEST SWAP2 POP DUP2 SWAP1 POP SWAP4 SWAP3 POP POP POP JUMP JUMPDEST PUSH1 0x0 PUSH2 0xEA2 DUP3 DUP5 PUSH2 0xDEF JUMP JUMPDEST SWAP2 POP DUP2 SWAP1 POP SWAP3 SWAP2 POP POP JUMP JUMPDEST PUSH1 0x0 PUSH1 0x20 DUP3 ADD SWAP1 POP PUSH2 0xEC2 PUSH1 0x0 DUP4 ADD DUP5 PUSH2 0xD73 JUMP JUMPDEST SWAP3 SWAP2 POP POP JUMP JUMPDEST PUSH1 0x0 PUSH1 0x20 DUP3 ADD SWAP1 POP DUP2 DUP2 SUB PUSH1 0x0 DUP4 ADD MSTORE PUSH2 0xEE2 DUP2 DUP5 PUSH2 0xDB6 JUMP JUMPDEST SWAP1 POP SWAP3 SWAP2 POP POP JUMP JUMPDEST PUSH1 0x0 PUSH1 0x60 DUP3 ADD SWAP1 POP PUSH2 0xEFF PUSH1 0x0 DUP4 ADD DUP7 PUSH2 0xE6E JUMP JUMPDEST PUSH2 0xF0C PUSH1 0x20 DUP4 ADD DUP6 PUSH2 0xE6E JUMP JUMPDEST PUSH2 0xF19 PUSH1 0x40 DUP4 ADD DUP5 PUSH2 0xD82 JUMP JUMPDEST SWAP5 SWAP4 POP POP POP POP JUMP JUMPDEST PUSH1 0x0 PUSH2 0xF2B PUSH2 0xF3C JUMP JUMPDEST SWAP1 POP PUSH2 0xF37 DUP3 DUP3 PUSH2 0x10EF JUMP JUMPDEST SWAP2 SWAP1 POP JUMP JUMPDEST PUSH1 0x0 PUSH1 0x40 MLOAD SWAP1 POP SWAP1 JUMP JUMPDEST PUSH1 0x0 PUSH8 0xFFFFFFFFFFFFFFFF DUP3 GT ISZERO PUSH2 0xF61 JUMPI PUSH2 0xF60 PUSH2 0x11AD JUMP JUMPDEST JUMPDEST PUSH2 0xF6A DUP3 PUSH2 0x11FA JUMP JUMPDEST SWAP1 POP PUSH1 0x20 DUP2 ADD SWAP1 POP SWAP2 SWAP1 POP JUMP JUMPDEST PUSH1 0x0 DUP2 SWAP1 POP DUP2 PUSH1 0x0 MSTORE PUSH1 0x20 PUSH1 0x0 KECCAK256 SWAP1 POP SWAP2 SWAP1 POP JUMP JUMPDEST PUSH1 0x0 DUP2 MLOAD SWAP1 POP SWAP2 SWAP1 POP JUMP JUMPDEST PUSH1 0x0 DUP3 DUP3 MSTORE PUSH1 0x20 DUP3 ADD SWAP1 POP SWAP3 SWAP2 POP POP JUMP JUMPDEST PUSH1 0x0 DUP2 SWAP1 POP SWAP3 SWAP2 POP POP JUMP JUMPDEST PUSH1 0x0 PUSH2 0xFBE DUP3 PUSH2 0x1047 JUMP JUMPDEST SWAP2 POP PUSH2 0xFC9 DUP4 PUSH2 0x1047 JUMP JUMPDEST SWAP3 POP DUP3 PUSH32 0xFFFFFFFFFFFFFFFFFFFFFFFFFFFFFFFFFFFFFFFFFFFFFFFFFFFFFFFFFFFFFFFF SUB DUP3 GT ISZERO PUSH2 0xFFE JUMPI PUSH2 0xFFD PUSH2 0x1120 JUMP JUMPDEST JUMPDEST DUP3 DUP3 ADD SWAP1 POP SWAP3 SWAP2 POP POP JUMP JUMPDEST PUSH1 0x0 PUSH2 0x1014 DUP3 PUSH2 0x1027 JUMP JUMPDEST SWAP1 POP SWAP2 SWAP1 POP JUMP JUMPDEST PUSH1 0x0 DUP2 ISZERO ISZERO SWAP1 POP SWAP2 SWAP1 POP JUMP JUMPDEST PUSH1 0x0 PUSH20 0xFFFFFFFFFFFFFFFFFFFFFFFFFFFFFFFFFFFFFFFF DUP3 AND SWAP1 POP SWAP2 SWAP1 POP JUMP JUMPDEST PUSH1 0x0 DUP2 SWAP1 POP SWAP2 SWAP1 POP JUMP JUMPDEST DUP3 DUP2 DUP4 CALLDATACOPY PUSH1 0x0 DUP4 DUP4 ADD MSTORE POP POP POP JUMP JUMPDEST PUSH1 0x0 JUMPDEST DUP4 DUP2 LT ISZERO PUSH2 0x107E JUMPI DUP1 DUP3 ADD MLOAD DUP2 DUP5 ADD MSTORE PUSH1 0x20 DUP2 ADD SWAP1 POP PUSH2 0x1063 JUMP JUMPDEST DUP4 DUP2 GT ISZERO PUSH2 0x108D JUMPI PUSH1 0x0 DUP5 DUP5 ADD MSTORE JUMPDEST POP POP POP POP JUMP JUMPDEST PUSH1 0x0 PUSH2 0x109E DUP3 PUSH2 0x1047 JUMP JUMPDEST SWAP2 POP PUSH1 0x0 DUP3 EQ ISZERO PUSH2 0x10B2 JUMPI PUSH2 0x10B1 PUSH2 0x1120 JUMP JUMPDEST JUMPDEST PUSH1 0x1 DUP3 SUB SWAP1 POP SWAP2 SWAP1 POP JUMP JUMPDEST PUSH1 0x0 PUSH1 0x2 DUP3 DIV SWAP1 POP PUSH1 0x1 DUP3 AND DUP1 PUSH2 0x10D5 JUMPI PUSH1 0x7F DUP3 AND SWAP2 POP JUMPDEST PUSH1 0x20 DUP3 LT DUP2 EQ ISZERO PUSH2 0x10E9 JUMPI PUSH2 0x10E8 PUSH2 0x114F JUMP JUMPDEST JUMPDEST POP SWAP2 SWAP1 POP JUMP JUMPDEST PUSH2 0x10F8 DUP3 PUSH2 0x11FA JUMP JUMPDEST DUP2 ADD DUP2 DUP2 LT PUSH8 0xFFFFFFFFFFFFFFFF DUP3 GT OR ISZERO PUSH2 0x1117 JUMPI PUSH2 0x1116 PUSH2 0x11AD JUMP JUMPDEST JUMPDEST DUP1 PUSH1 0x40 MSTORE POP POP POP JUMP JUMPDEST PUSH32 0x4E487B7100000000000000000000000000000000000000000000000000000000 PUSH1 0x0 MSTORE PUSH1 0x11 PUSH1 0x4 MSTORE PUSH1 0x24 PUSH1 0x0 REVERT JUMPDEST PUSH32 0x4E487B7100000000000000000000000000000000000000000000000000000000 PUSH1 0x0 MSTORE PUSH1 0x22 PUSH1 0x4 MSTORE PUSH1 0x24 PUSH1 0x0 REVERT JUMPDEST PUSH32 0x4E487B7100000000000000000000000000000000000000000000000000000000 PUSH1 0x0 MSTORE PUSH1 0x32 PUSH1 0x4 MSTORE PUSH1 0x24 PUSH1 0x0 REVERT JUMPDEST PUSH32 0x4E487B7100000000000000000000000000000000000000000000000000000000 PUSH1 0x0 MSTORE PUSH1 0x41 PUSH1 0x4 MSTORE PUSH1 0x24 PUSH1 0x0 REVERT JUMPDEST PUSH1 0x0 DUP1 REVERT JUMPDEST PUSH1 0x0 DUP1 REVERT JUMPDEST PUSH1 0x0 DUP1 REVERT JUMPDEST PUSH1 0x0 DUP1 REVERT JUMPDEST PUSH1 0x0 DUP1 REVERT JUMPDEST PUSH1 0x0 DUP1 REVERT JUMPDEST PUSH1 0x0 PUSH1 0x1F NOT PUSH1 0x1F DUP4 ADD AND SWAP1 POP SWAP2 SWAP1 POP JUMP JUMPDEST PUSH2 0x1214 DUP2 PUSH2 0x1009 JUMP JUMPDEST DUP2 EQ PUSH2 0x121F JUMPI PUSH1 0x0 DUP1 REVERT JUMPDEST POP JUMP JUMPDEST PUSH2 0x122B DUP2 PUSH2 0x1047 JUMP JUMPDEST DUP2 EQ PUSH2 0x1236 JUMPI PUSH1 0x0 DUP1 REVERT JUMPDEST POP JUMP INVALID LOG2 PUSH5 0x6970667358 0x22 SLT KECCAK256 SWAP10 JUMPI LOG3 PUSH2 0xA18A PUSH24 0x4E09780B83EEF54DCF24D5D2721A9A508BF6FA818974AF53 MSTORE PUSH5 0x736F6C6343 STOP ADDMOD SMOD STOP CALLER "
				},
				"gasEstimates": {
					"creation": {
						"codeDepositCost": "943800",
						"executionCost": "957",
						"totalCost": "944757"
					},
					"external": {
						"addNewProduct(string,uint256,uint256)": "infinite",
						"availableProducts(uint256)": "infinite",
						"buyProduct(uint256)": "infinite",
						"buyers(uint256,uint256)": "infinite",
						"products(string)": "infinite",
						"transactions(uint256,address)": "infinite",
						"updateQuantity(string,uint256)": "infinite"
					}
				},
				"methodIdentifiers": {
					"addNewProduct(string,uint256,uint256)": "0a5bd44b",
					"availableProducts(uint256)": "e4bcc7d4",
					"buyProduct(uint256)": "8642269e",
					"buyers(uint256,uint256)": "27e7875a",
					"products(string)": "0186a423",
					"transactions(uint256,address)": "74cbc350",
					"updateQuantity(string,uint256)": "1d894eb8"
				}
			},
			"storageLayout": {
				"storage": [
					{
						"astId": 33,
						"contract": "Project/TechnoLime.sol:TechnoLimeStore",
						"label": "availableProducts",
						"offset": 0,
						"slot": "0",
						"type": "t_array(t_string_storage)dyn_storage"
					},
					{
						"astId": 38,
						"contract": "Project/TechnoLime.sol:TechnoLimeStore",
						"label": "products",
						"offset": 0,
						"slot": "1",
						"type": "t_mapping(t_string_memory_ptr,t_struct(Product)30_storage)"
					},
					{
						"astId": 52,
						"contract": "Project/TechnoLime.sol:TechnoLimeStore",
						"label": "transactions",
						"offset": 0,
						"slot": "2",
						"type": "t_mapping(t_uint256,t_mapping(t_address,t_struct(Transaction)45_storage))"
					},
					{
						"astId": 57,
						"contract": "Project/TechnoLime.sol:TechnoLimeStore",
						"label": "buyers",
						"offset": 0,
						"slot": "3",
						"type": "t_mapping(t_uint256,t_array(t_address)dyn_storage)"
					}
				],
				"types": {
					"t_address": {
						"encoding": "inplace",
						"label": "address",
						"numberOfBytes": "20"
					},
					"t_array(t_address)dyn_storage": {
						"base": "t_address",
						"encoding": "dynamic_array",
						"label": "address[]",
						"numberOfBytes": "32"
					},
					"t_array(t_string_storage)dyn_storage": {
						"base": "t_string_storage",
						"encoding": "dynamic_array",
						"label": "string[]",
						"numberOfBytes": "32"
					},
					"t_bool": {
						"encoding": "inplace",
						"label": "bool",
						"numberOfBytes": "1"
					},
					"t_mapping(t_address,t_struct(Transaction)45_storage)": {
						"encoding": "mapping",
						"key": "t_address",
						"label": "mapping(address => struct TechnoLimeStore.Transaction)",
						"numberOfBytes": "32",
						"value": "t_struct(Transaction)45_storage"
					},
					"t_mapping(t_string_memory_ptr,t_struct(Product)30_storage)": {
						"encoding": "mapping",
						"key": "t_string_memory_ptr",
						"label": "mapping(string => struct TechnoLimeStore.Product)",
						"numberOfBytes": "32",
						"value": "t_struct(Product)30_storage"
					},
					"t_mapping(t_uint256,t_array(t_address)dyn_storage)": {
						"encoding": "mapping",
						"key": "t_uint256",
						"label": "mapping(uint256 => address[])",
						"numberOfBytes": "32",
						"value": "t_array(t_address)dyn_storage"
					},
					"t_mapping(t_uint256,t_mapping(t_address,t_struct(Transaction)45_storage))": {
						"encoding": "mapping",
						"key": "t_uint256",
						"label": "mapping(uint256 => mapping(address => struct TechnoLimeStore.Transaction))",
						"numberOfBytes": "32",
						"value": "t_mapping(t_address,t_struct(Transaction)45_storage)"
					},
					"t_string_memory_ptr": {
						"encoding": "bytes",
						"label": "string",
						"numberOfBytes": "32"
					},
					"t_string_storage": {
						"encoding": "bytes",
						"label": "string",
						"numberOfBytes": "32"
					},
					"t_struct(Product)30_storage": {
						"encoding": "inplace",
						"label": "struct TechnoLimeStore.Product",
						"members": [
							{
								"astId": 22,
								"contract": "Project/TechnoLime.sol:TechnoLimeStore",
								"label": "price",
								"offset": 0,
								"slot": "0",
								"type": "t_uint256"
							},
							{
								"astId": 24,
								"contract": "Project/TechnoLime.sol:TechnoLimeStore",
								"label": "quantity",
								"offset": 0,
								"slot": "1",
								"type": "t_uint256"
							},
							{
								"astId": 27,
								"contract": "Project/TechnoLime.sol:TechnoLimeStore",
								"label": "buyers",
								"offset": 0,
								"slot": "2",
								"type": "t_array(t_address)dyn_storage"
							},
							{
								"astId": 29,
								"contract": "Project/TechnoLime.sol:TechnoLimeStore",
								"label": "exists",
								"offset": 0,
								"slot": "3",
								"type": "t_bool"
							}
						],
						"numberOfBytes": "128"
					},
					"t_struct(Transaction)45_storage": {
						"encoding": "inplace",
						"label": "struct TechnoLimeStore.Transaction",
						"members": [
							{
								"astId": 40,
								"contract": "Project/TechnoLime.sol:TechnoLimeStore",
								"label": "blockNum",
								"offset": 0,
								"slot": "0",
								"type": "t_uint256"
							},
							{
								"astId": 42,
								"contract": "Project/TechnoLime.sol:TechnoLimeStore",
								"label": "price",
								"offset": 0,
								"slot": "1",
								"type": "t_uint256"
							},
							{
								"astId": 44,
								"contract": "Project/TechnoLime.sol:TechnoLimeStore",
								"label": "exists",
								"offset": 0,
								"slot": "2",
								"type": "t_bool"
							}
						],
						"numberOfBytes": "96"
					},
					"t_uint256": {
						"encoding": "inplace",
						"label": "uint256",
						"numberOfBytes": "32"
					}
				}
			},
			"userdoc": {
				"errors": {
					"ItemIdWrongOrBoughtAlready()": [
						{
							"notice": "Error trown when the productID doesn't exist or it has been bought once already"
						}
					],
					"LessThanPriceOrOutOfStock()": [
						{
							"notice": "Error trown when money sent is less than Product price"
						}
					],
					"ProductExists()": [
						{
							"notice": "Can't add a product that already exists"
						}
					]
				},
				"kind": "user",
				"methods": {},
				"version": 1
			}
		}
	}
}