{
	"Project/TechnoLime.sol": {
		"TechnoLimeStore": {
			"abi": [
				{
					"inputs": [],
					"name": "Blocks100Exceeded",
					"type": "error"
				},
				{
					"inputs": [],
					"name": "ItemIdWrongOrBoughtAlready",
					"type": "error"
				},
				{
					"inputs": [],
					"name": "LessThanPriceOrOutOfStock",
					"type": "error"
				},
				{
					"inputs": [],
					"name": "NotAnAdmin",
					"type": "error"
				},
				{
					"inputs": [],
					"name": "NotAnEOA",
					"type": "error"
				},
				{
					"inputs": [],
					"name": "NothingToRefund",
					"type": "error"
				},
				{
					"inputs": [],
					"name": "ProductExists",
					"type": "error"
				},
				{
					"inputs": [],
					"name": "ProductNotExistent",
					"type": "error"
				},
				{
					"inputs": [],
					"name": "TransactionNotExistent",
					"type": "error"
				},
				{
					"inputs": [
						{
							"internalType": "string",
							"name": "_name",
							"type": "string"
						},
						{
							"internalType": "uint256",
							"name": "_price",
							"type": "uint256"
						},
						{
							"internalType": "uint256",
							"name": "_quantity",
							"type": "uint256"
						}
					],
					"name": "addNewProduct",
					"outputs": [],
					"stateMutability": "nonpayable",
					"type": "function"
				},
				{
					"inputs": [
						{
							"internalType": "uint256",
							"name": "_id",
							"type": "uint256"
						},
						{
							"internalType": "uint256",
							"name": "_quantity",
							"type": "uint256"
						}
					],
					"name": "addQuantity",
					"outputs": [],
					"stateMutability": "nonpayable",
					"type": "function"
				},
				{
					"inputs": [
						{
							"internalType": "uint256",
							"name": "",
							"type": "uint256"
						}
					],
					"name": "availableProducts",
					"outputs": [
						{
							"internalType": "string",
							"name": "",
							"type": "string"
						}
					],
					"stateMutability": "view",
					"type": "function"
				},
				{
					"inputs": [
						{
							"internalType": "uint256",
							"name": "_id",
							"type": "uint256"
						}
					],
					"name": "buyProduct",
					"outputs": [],
					"stateMutability": "payable",
					"type": "function"
				},
				{
					"inputs": [
						{
							"internalType": "address",
							"name": "",
							"type": "address"
						}
					],
					"name": "pendingWithdrawals",
					"outputs": [
						{
							"internalType": "uint256",
							"name": "",
							"type": "uint256"
						}
					],
					"stateMutability": "view",
					"type": "function"
				},
				{
					"inputs": [
						{
							"internalType": "uint256",
							"name": "",
							"type": "uint256"
						}
					],
					"name": "products",
					"outputs": [
						{
							"internalType": "uint256",
							"name": "price",
							"type": "uint256"
						},
						{
							"internalType": "uint256",
							"name": "quantity",
							"type": "uint256"
						},
						{
							"internalType": "string",
							"name": "name",
							"type": "string"
						},
						{
							"internalType": "bool",
							"name": "exists",
							"type": "bool"
						}
					],
					"stateMutability": "view",
					"type": "function"
				},
				{
					"inputs": [
						{
							"internalType": "uint256",
							"name": "_id",
							"type": "uint256"
						}
					],
					"name": "returnProduct",
					"outputs": [],
					"stateMutability": "nonpayable",
					"type": "function"
				},
				{
					"inputs": [
						{
							"internalType": "uint256",
							"name": "",
							"type": "uint256"
						},
						{
							"internalType": "address",
							"name": "",
							"type": "address"
						}
					],
					"name": "transactions",
					"outputs": [
						{
							"internalType": "uint256",
							"name": "blockNum",
							"type": "uint256"
						},
						{
							"internalType": "uint256",
							"name": "price",
							"type": "uint256"
						},
						{
							"internalType": "uint256",
							"name": "status",
							"type": "uint256"
						}
					],
					"stateMutability": "view",
					"type": "function"
				},
				{
					"inputs": [],
					"name": "withdraw",
					"outputs": [],
					"stateMutability": "nonpayable",
					"type": "function"
				}
			],
			"devdoc": {
				"kind": "dev",
				"methods": {},
				"version": 1
			},
			"evm": {
				"assembly": "    /* \"Project/TechnoLime.sol\":125:2698  contract TechnoLimeStore is Products,Transactions {\r... */\n  mstore(0x40, 0x80)\n  callvalue\n  dup1\n  iszero\n  tag_1\n  jumpi\n  0x00\n  dup1\n  revert\ntag_1:\n  pop\n    /* \"Project/baseContracts.sol\":253:262  uint size */\n  0x00\n    /* \"Project/baseContracts.sol\":273:287  address sender */\n  dup1\n    /* \"Project/baseContracts.sol\":290:300  msg.sender */\n  caller\n    /* \"Project/baseContracts.sol\":273:300  address sender = msg.sender */\n  swap1\n  pop\n    /* \"Project/baseContracts.sol\":340:346  sender */\n  dup1\n    /* \"Project/baseContracts.sol\":328:347  extcodesize(sender) */\n  extcodesize\n    /* \"Project/baseContracts.sol\":322:347  size:=extcodesize(sender) */\n  swap2\n  pop\n    /* \"Project/baseContracts.sol\":431:432  0 */\n  0x00\n    /* \"Project/baseContracts.sol\":424:428  size */\n  dup3\n    /* \"Project/baseContracts.sol\":424:432  size > 0 */\n  gt\n    /* \"Project/baseContracts.sol\":420:471  if (size > 0)\r... */\n  iszero\n  tag_4\n  jumpi\n    /* \"Project/baseContracts.sol\":454:471  Errors.NotAnEOA() */\n  mload(0x40)\n  0x90ecc18a00000000000000000000000000000000000000000000000000000000\n  dup2\n  mstore\n  0x04\n  add\n  mload(0x40)\n  dup1\n  swap2\n  sub\n  swap1\n  revert\n    /* \"Project/baseContracts.sol\":420:471  if (size > 0)\r... */\ntag_4:\n    /* \"Project/baseContracts.sol\":490:500  msg.sender */\n  caller\n    /* \"Project/baseContracts.sol\":482:487  owner */\n  0x00\n  dup1\n    /* \"Project/baseContracts.sol\":482:500  owner = msg.sender */\n  0x0100\n  exp\n  dup2\n  sload\n  dup2\n  0xffffffffffffffffffffffffffffffffffffffff\n  mul\n  not\n  and\n  swap1\n  dup4\n  0xffffffffffffffffffffffffffffffffffffffff\n  and\n  mul\n  or\n  swap1\n  sstore\n  pop\n    /* \"Project/baseContracts.sol\":242:514  {\r... */\n  pop\n  pop\n    /* \"Project/TechnoLime.sol\":125:2698  contract TechnoLimeStore is Products,Transactions {\r... */\n  dataSize(sub_0)\n  dup1\n  dataOffset(sub_0)\n  0x00\n  codecopy\n  0x00\n  return\nstop\n\nsub_0: assembly {\n        /* \"Project/TechnoLime.sol\":125:2698  contract TechnoLimeStore is Products,Transactions {\r... */\n      mstore(0x40, 0x80)\n      jumpi(tag_1, lt(calldatasize, 0x04))\n      shr(0xe0, calldataload(0x00))\n      dup1\n      0x7acc0b20\n      gt\n      tag_11\n      jumpi\n      dup1\n      0x7acc0b20\n      eq\n      tag_6\n      jumpi\n      dup1\n      0x8642269e\n      eq\n      tag_7\n      jumpi\n      dup1\n      0x9d64871c\n      eq\n      tag_8\n      jumpi\n      dup1\n      0xe4bcc7d4\n      eq\n      tag_9\n      jumpi\n      dup1\n      0xf3f43703\n      eq\n      tag_10\n      jumpi\n      jump(tag_1)\n    tag_11:\n      dup1\n      0x0a5bd44b\n      eq\n      tag_2\n      jumpi\n      dup1\n      0x131e407d\n      eq\n      tag_3\n      jumpi\n      dup1\n      0x3ccfd60b\n      eq\n      tag_4\n      jumpi\n      dup1\n      0x74cbc350\n      eq\n      tag_5\n      jumpi\n    tag_1:\n      0x00\n      dup1\n      revert\n        /* \"Project/baseContracts.sol\":1224:1886  function addNewProduct(string calldata _name, uint _price,uint _quantity) external isOwner{\r... */\n    tag_2:\n      callvalue\n      dup1\n      iszero\n      tag_12\n      jumpi\n      0x00\n      dup1\n      revert\n    tag_12:\n      pop\n      tag_13\n      0x04\n      dup1\n      calldatasize\n      sub\n      dup2\n      add\n      swap1\n      tag_14\n      swap2\n      swap1\n      tag_15\n      jump\t// in\n    tag_14:\n      tag_16\n      jump\t// in\n    tag_13:\n      stop\n        /* \"Project/TechnoLime.sol\":1465:2685  function returnProduct(uint _id) external {\r... */\n    tag_3:\n      callvalue\n      dup1\n      iszero\n      tag_17\n      jumpi\n      0x00\n      dup1\n      revert\n    tag_17:\n      pop\n      tag_18\n      0x04\n      dup1\n      calldatasize\n      sub\n      dup2\n      add\n      swap1\n      tag_19\n      swap2\n      swap1\n      tag_20\n      jump\t// in\n    tag_19:\n      tag_21\n      jump\t// in\n    tag_18:\n      stop\n        /* \"Project/baseContracts.sol\":2921:3652  function withdraw() public {\r... */\n    tag_4:\n      callvalue\n      dup1\n      iszero\n      tag_22\n      jumpi\n      0x00\n      dup1\n      revert\n    tag_22:\n      pop\n      tag_23\n      tag_24\n      jump\t// in\n    tag_23:\n      stop\n        /* \"Project/baseContracts.sol\":2543:2611  mapping(uint => mapping(address => Transaction)) public transactions */\n    tag_5:\n      callvalue\n      dup1\n      iszero\n      tag_25\n      jumpi\n      0x00\n      dup1\n      revert\n    tag_25:\n      pop\n      tag_26\n      0x04\n      dup1\n      calldatasize\n      sub\n      dup2\n      add\n      swap1\n      tag_27\n      swap2\n      swap1\n      tag_28\n      jump\t// in\n    tag_27:\n      tag_29\n      jump\t// in\n    tag_26:\n      mload(0x40)\n      tag_30\n      swap4\n      swap3\n      swap2\n      swap1\n      tag_31\n      jump\t// in\n    tag_30:\n      mload(0x40)\n      dup1\n      swap2\n      sub\n      swap1\n      return\n        /* \"Project/baseContracts.sol\":1010:1050  mapping(uint => Product) public products */\n    tag_6:\n      callvalue\n      dup1\n      iszero\n      tag_32\n      jumpi\n      0x00\n      dup1\n      revert\n    tag_32:\n      pop\n      tag_33\n      0x04\n      dup1\n      calldatasize\n      sub\n      dup2\n      add\n      swap1\n      tag_34\n      swap2\n      swap1\n      tag_20\n      jump\t// in\n    tag_34:\n      tag_35\n      jump\t// in\n    tag_33:\n      mload(0x40)\n      tag_36\n      swap5\n      swap4\n      swap3\n      swap2\n      swap1\n      tag_37\n      jump\t// in\n    tag_36:\n      mload(0x40)\n      dup1\n      swap2\n      sub\n      swap1\n      return\n        /* \"Project/TechnoLime.sol\":184:1451  function buyProduct (uint _id)  external payable { \r... */\n    tag_7:\n      tag_38\n      0x04\n      dup1\n      calldatasize\n      sub\n      dup2\n      add\n      swap1\n      tag_39\n      swap2\n      swap1\n      tag_20\n      jump\t// in\n    tag_39:\n      tag_40\n      jump\t// in\n    tag_38:\n      stop\n        /* \"Project/baseContracts.sol\":1896:2235  function addQuantity(uint _id,uint _quantity) external isOwner{\r... */\n    tag_8:\n      callvalue\n      dup1\n      iszero\n      tag_41\n      jumpi\n      0x00\n      dup1\n      revert\n    tag_41:\n      pop\n      tag_42\n      0x04\n      dup1\n      calldatasize\n      sub\n      dup2\n      add\n      swap1\n      tag_43\n      swap2\n      swap1\n      tag_44\n      jump\t// in\n    tag_43:\n      tag_45\n      jump\t// in\n    tag_42:\n      stop\n        /* \"Project/baseContracts.sol\":970:1003  string[] public availableProducts */\n    tag_9:\n      callvalue\n      dup1\n      iszero\n      tag_46\n      jumpi\n      0x00\n      dup1\n      revert\n    tag_46:\n      pop\n      tag_47\n      0x04\n      dup1\n      calldatasize\n      sub\n      dup2\n      add\n      swap1\n      tag_48\n      swap2\n      swap1\n      tag_20\n      jump\t// in\n    tag_48:\n      tag_49\n      jump\t// in\n    tag_47:\n      mload(0x40)\n      tag_50\n      swap2\n      swap1\n      tag_51\n      jump\t// in\n    tag_50:\n      mload(0x40)\n      dup1\n      swap2\n      sub\n      swap1\n      return\n        /* \"Project/baseContracts.sol\":2694:2744  mapping (address =>uint) public pendingWithdrawals */\n    tag_10:\n      callvalue\n      dup1\n      iszero\n      tag_52\n      jumpi\n      0x00\n      dup1\n      revert\n    tag_52:\n      pop\n      tag_53\n      0x04\n      dup1\n      calldatasize\n      sub\n      dup2\n      add\n      swap1\n      tag_54\n      swap2\n      swap1\n      tag_55\n      jump\t// in\n    tag_54:\n      tag_56\n      jump\t// in\n    tag_53:\n      mload(0x40)\n      tag_57\n      swap2\n      swap1\n      tag_58\n      jump\t// in\n    tag_57:\n      mload(0x40)\n      dup1\n      swap2\n      sub\n      swap1\n      return\n        /* \"Project/baseContracts.sol\":1224:1886  function addNewProduct(string calldata _name, uint _price,uint _quantity) external isOwner{\r... */\n    tag_16:\n        /* \"Project/baseContracts.sol\":568:573  owner */\n      0x00\n      dup1\n      sload\n      swap1\n      0x0100\n      exp\n      swap1\n      div\n      0xffffffffffffffffffffffffffffffffffffffff\n      and\n        /* \"Project/baseContracts.sol\":554:573  msg.sender != owner */\n      0xffffffffffffffffffffffffffffffffffffffff\n      and\n        /* \"Project/baseContracts.sol\":554:564  msg.sender */\n      caller\n        /* \"Project/baseContracts.sol\":554:573  msg.sender != owner */\n      0xffffffffffffffffffffffffffffffffffffffff\n      and\n      eq\n        /* \"Project/baseContracts.sol\":551:614  if(msg.sender != owner)\r... */\n      tag_60\n      jumpi\n        /* \"Project/baseContracts.sol\":595:614  Errors.NotAnAdmin() */\n      mload(0x40)\n      0x55098f2700000000000000000000000000000000000000000000000000000000\n      dup2\n      mstore\n      0x04\n      add\n      mload(0x40)\n      dup1\n      swap2\n      sub\n      swap1\n      revert\n        /* \"Project/baseContracts.sol\":551:614  if(msg.sender != owner)\r... */\n    tag_60:\n        /* \"Project/baseContracts.sol\":1331:1341  productMap */\n      0x03\n        /* \"Project/baseContracts.sol\":1342:1347  _name */\n      dup5\n      dup5\n        /* \"Project/baseContracts.sol\":1331:1348  productMap[_name] */\n      mload(0x40)\n      tag_62\n      swap3\n      swap2\n      swap1\n      tag_63\n      jump\t// in\n    tag_62:\n      swap1\n      dup2\n      mstore\n      0x20\n      add\n      mload(0x40)\n      dup1\n      swap2\n      sub\n      swap1\n      keccak256\n      0x00\n      swap1\n      sload\n      swap1\n      0x0100\n      exp\n      swap1\n      div\n      0xff\n      and\n        /* \"Project/baseContracts.sol\":1326:1869  if (!productMap[_name]){\r... */\n      tag_64\n      jumpi\n        /* \"Project/baseContracts.sol\":1365:1387  Product memory product */\n      tag_65\n      tag_66\n      jump\t// in\n    tag_65:\n        /* \"Project/baseContracts.sol\":1419:1425  _price */\n      dup3\n        /* \"Project/baseContracts.sol\":1403:1410  product */\n      dup2\n        /* \"Project/baseContracts.sol\":1403:1416  product.price */\n      0x00\n      add\n        /* \"Project/baseContracts.sol\":1403:1425  product.price = _price */\n      dup2\n      dup2\n      mstore\n      pop\n      pop\n        /* \"Project/baseContracts.sol\":1460:1469  _quantity */\n      dup2\n        /* \"Project/baseContracts.sol\":1441:1448  product */\n      dup2\n        /* \"Project/baseContracts.sol\":1441:1457  product.quantity */\n      0x20\n      add\n        /* \"Project/baseContracts.sol\":1441:1469  product.quantity = _quantity */\n      dup2\n      dup2\n      mstore\n      pop\n      pop\n        /* \"Project/baseContracts.sol\":1500:1505  _name */\n      dup5\n      dup5\n        /* \"Project/baseContracts.sol\":1485:1505  product.name = _name */\n      dup1\n      dup1\n      0x1f\n      add\n      0x20\n      dup1\n      swap2\n      div\n      mul\n      0x20\n      add\n      mload(0x40)\n      swap1\n      dup2\n      add\n      0x40\n      mstore\n      dup1\n      swap4\n      swap3\n      swap2\n      swap1\n      dup2\n      dup2\n      mstore\n      0x20\n      add\n      dup4\n      dup4\n      dup1\n      dup3\n      dup5\n      calldatacopy\n      0x00\n      dup2\n      dup5\n      add\n      mstore\n      not(0x1f)\n      0x1f\n      dup3\n      add\n      and\n      swap1\n      pop\n      dup1\n      dup4\n      add\n      swap3\n      pop\n      pop\n      pop\n      pop\n      pop\n      pop\n      pop\n        /* \"Project/baseContracts.sol\":1485:1492  product */\n      dup2\n        /* \"Project/baseContracts.sol\":1485:1497  product.name */\n      0x40\n      add\n        /* \"Project/baseContracts.sol\":1485:1505  product.name = _name */\n      dup2\n      swap1\n      mstore\n      pop\n        /* \"Project/baseContracts.sol\":1538:1542  true */\n      0x01\n        /* \"Project/baseContracts.sol\":1521:1528  product */\n      dup2\n        /* \"Project/baseContracts.sol\":1521:1535  product.exists */\n      0x60\n      add\n        /* \"Project/baseContracts.sol\":1521:1542  product.exists = true */\n      swap1\n      iszero\n      iszero\n      swap1\n      dup2\n      iszero\n      iszero\n      dup2\n      mstore\n      pop\n      pop\n        /* \"Project/baseContracts.sol\":1595:1602  product */\n      dup1\n        /* \"Project/baseContracts.sol\":1558:1566  products */\n      0x02\n        /* \"Project/baseContracts.sol\":1558:1592  products[availableProducts.length] */\n      0x00\n        /* \"Project/baseContracts.sol\":1567:1584  availableProducts */\n      0x01\n        /* \"Project/baseContracts.sol\":1567:1591  availableProducts.length */\n      dup1\n      sload\n      swap1\n      pop\n        /* \"Project/baseContracts.sol\":1558:1592  products[availableProducts.length] */\n      dup2\n      mstore\n      0x20\n      add\n      swap1\n      dup2\n      mstore\n      0x20\n      add\n      0x00\n      keccak256\n        /* \"Project/baseContracts.sol\":1558:1602  products[availableProducts.length] = product */\n      0x00\n      dup3\n      add\n      mload\n      dup2\n      0x00\n      add\n      sstore\n      0x20\n      dup3\n      add\n      mload\n      dup2\n      0x01\n      add\n      sstore\n      0x40\n      dup3\n      add\n      mload\n      dup2\n      0x02\n      add\n      swap1\n      dup1\n      mload\n      swap1\n      0x20\n      add\n      swap1\n      tag_67\n      swap3\n      swap2\n      swap1\n      tag_68\n      jump\t// in\n    tag_67:\n      pop\n      0x60\n      dup3\n      add\n      mload\n      dup2\n      0x03\n      add\n      exp(0x0100, 0x00)\n      dup2\n      sload\n      dup2\n      0xff\n      mul\n      not\n      and\n      swap1\n      dup4\n      iszero\n      iszero\n      mul\n      or\n      swap1\n      sstore\n      pop\n      swap1\n      pop\n      pop\n        /* \"Project/baseContracts.sol\":1638:1642  true */\n      0x01\n        /* \"Project/baseContracts.sol\":1618:1628  productMap */\n      0x03\n        /* \"Project/baseContracts.sol\":1629:1634  _name */\n      dup7\n      dup7\n        /* \"Project/baseContracts.sol\":1618:1635  productMap[_name] */\n      mload(0x40)\n      tag_69\n      swap3\n      swap2\n      swap1\n      tag_63\n      jump\t// in\n    tag_69:\n      swap1\n      dup2\n      mstore\n      0x20\n      add\n      mload(0x40)\n      dup1\n      swap2\n      sub\n      swap1\n      keccak256\n      0x00\n        /* \"Project/baseContracts.sol\":1618:1642  productMap[_name] = true */\n      0x0100\n      exp\n      dup2\n      sload\n      dup2\n      0xff\n      mul\n      not\n      and\n      swap1\n      dup4\n      iszero\n      iszero\n      mul\n      or\n      swap1\n      sstore\n      pop\n        /* \"Project/baseContracts.sol\":1658:1675  availableProducts */\n      0x01\n        /* \"Project/baseContracts.sol\":1681:1686  _name */\n      dup6\n      dup6\n        /* \"Project/baseContracts.sol\":1658:1687  availableProducts.push(_name) */\n      swap1\n      swap2\n      dup1\n      0x01\n      dup2\n      sload\n      add\n      dup1\n      dup3\n      sstore\n      dup1\n      swap2\n      pop\n      pop\n      0x01\n      swap1\n      sub\n      swap1\n      0x00\n      mstore\n      keccak256(0x00, 0x20)\n      add\n      0x00\n      swap1\n      swap2\n      swap3\n      swap1\n      swap2\n      swap3\n      swap1\n      swap2\n      swap3\n      swap1\n      swap2\n      swap3\n      pop\n      swap2\n      swap1\n      tag_71\n      swap3\n      swap2\n      swap1\n      tag_72\n      jump\t// in\n    tag_71:\n      pop\n        /* \"Project/baseContracts.sol\":1349:1700  {\r... */\n      pop\n        /* \"Project/baseContracts.sol\":1326:1869  if (!productMap[_name]){\r... */\n      jump(tag_73)\n    tag_64:\n        /* \"Project/baseContracts.sol\":1834:1856  Errors.ProductExists() */\n      mload(0x40)\n      0xb185df3a00000000000000000000000000000000000000000000000000000000\n      dup2\n      mstore\n      0x04\n      add\n      mload(0x40)\n      dup1\n      swap2\n      sub\n      swap1\n      revert\n        /* \"Project/baseContracts.sol\":1326:1869  if (!productMap[_name]){\r... */\n    tag_73:\n        /* \"Project/baseContracts.sol\":1224:1886  function addNewProduct(string calldata _name, uint _price,uint _quantity) external isOwner{\r... */\n      pop\n      pop\n      pop\n      pop\n      jump\t// out\n        /* \"Project/TechnoLime.sol\":1465:2685  function returnProduct(uint _id) external {\r... */\n    tag_21:\n        /* \"Project/TechnoLime.sol\":1791:1792  1 */\n      0x01\n        /* \"Project/TechnoLime.sol\":1751:1763  transactions */\n      0x04\n        /* \"Project/TechnoLime.sol\":1751:1768  transactions[_id] */\n      0x00\n        /* \"Project/TechnoLime.sol\":1764:1767  _id */\n      dup4\n        /* \"Project/TechnoLime.sol\":1751:1768  transactions[_id] */\n      dup2\n      mstore\n      0x20\n      add\n      swap1\n      dup2\n      mstore\n      0x20\n      add\n      0x00\n      keccak256\n        /* \"Project/TechnoLime.sol\":1751:1780  transactions[_id][msg.sender] */\n      0x00\n        /* \"Project/TechnoLime.sol\":1769:1779  msg.sender */\n      caller\n        /* \"Project/TechnoLime.sol\":1751:1780  transactions[_id][msg.sender] */\n      0xffffffffffffffffffffffffffffffffffffffff\n      and\n      0xffffffffffffffffffffffffffffffffffffffff\n      and\n      dup2\n      mstore\n      0x20\n      add\n      swap1\n      dup2\n      mstore\n      0x20\n      add\n      0x00\n      keccak256\n        /* \"Project/TechnoLime.sol\":1751:1787  transactions[_id][msg.sender].status */\n      0x02\n      add\n      sload\n        /* \"Project/TechnoLime.sol\":1751:1792  transactions[_id][msg.sender].status == 1 */\n      eq\n        /* \"Project/TechnoLime.sol\":1747:2678  if (transactions[_id][msg.sender].status == 1){ \r... */\n      iszero\n      tag_75\n      jumpi\n        /* \"Project/TechnoLime.sol\":1921:1951  Transaction memory transaction */\n      0x00\n        /* \"Project/TechnoLime.sol\":1954:1966  transactions */\n      0x04\n        /* \"Project/TechnoLime.sol\":1954:1971  transactions[_id] */\n      0x00\n        /* \"Project/TechnoLime.sol\":1967:1970  _id */\n      dup4\n        /* \"Project/TechnoLime.sol\":1954:1971  transactions[_id] */\n      dup2\n      mstore\n      0x20\n      add\n      swap1\n      dup2\n      mstore\n      0x20\n      add\n      0x00\n      keccak256\n        /* \"Project/TechnoLime.sol\":1954:1983  transactions[_id][msg.sender] */\n      0x00\n        /* \"Project/TechnoLime.sol\":1972:1982  msg.sender */\n      caller\n        /* \"Project/TechnoLime.sol\":1954:1983  transactions[_id][msg.sender] */\n      0xffffffffffffffffffffffffffffffffffffffff\n      and\n      0xffffffffffffffffffffffffffffffffffffffff\n      and\n      dup2\n      mstore\n      0x20\n      add\n      swap1\n      dup2\n      mstore\n      0x20\n      add\n      0x00\n      keccak256\n        /* \"Project/TechnoLime.sol\":1921:1983  Transaction memory transaction = transactions[_id][msg.sender] */\n      mload(0x40)\n      dup1\n      0x60\n      add\n      0x40\n      mstore\n      swap1\n      dup2\n      0x00\n      dup3\n      add\n      sload\n      dup2\n      mstore\n      0x20\n      add\n      0x01\n      dup3\n      add\n      sload\n      dup2\n      mstore\n      0x20\n      add\n      0x02\n      dup3\n      add\n      sload\n      dup2\n      mstore\n      pop\n      pop\n      swap1\n      pop\n        /* \"Project/TechnoLime.sol\":2041:2044  100 */\n      0x64\n        /* \"Project/TechnoLime.sol\":2017:2028  transaction */\n      dup2\n        /* \"Project/TechnoLime.sol\":2017:2037  transaction.blockNum */\n      0x00\n      add\n      mload\n        /* \"Project/TechnoLime.sol\":2002:2014  block.number */\n      number\n        /* \"Project/TechnoLime.sol\":2002:2037  block.number - transaction.blockNum */\n      tag_76\n      swap2\n      swap1\n      tag_77\n      jump\t// in\n    tag_76:\n        /* \"Project/TechnoLime.sol\":2001:2044  (block.number - transaction.blockNum) > 100 */\n      gt\n        /* \"Project/TechnoLime.sol\":1998:2096  if((block.number - transaction.blockNum) > 100)\r... */\n      iszero\n      tag_78\n      jumpi\n        /* \"Project/TechnoLime.sol\":2070:2096  Errors.Blocks100Exceeded() */\n      mload(0x40)\n      0x6e9beb2100000000000000000000000000000000000000000000000000000000\n      dup2\n      mstore\n      0x04\n      add\n      mload(0x40)\n      dup1\n      swap2\n      sub\n      swap1\n      revert\n        /* \"Project/TechnoLime.sol\":1998:2096  if((block.number - transaction.blockNum) > 100)\r... */\n    tag_78:\n        /* \"Project/TechnoLime.sol\":2185:2186  2 */\n      0x02\n        /* \"Project/TechnoLime.sol\":2146:2158  transactions */\n      0x04\n        /* \"Project/TechnoLime.sol\":2146:2163  transactions[_id] */\n      0x00\n        /* \"Project/TechnoLime.sol\":2159:2162  _id */\n      dup5\n        /* \"Project/TechnoLime.sol\":2146:2163  transactions[_id] */\n      dup2\n      mstore\n      0x20\n      add\n      swap1\n      dup2\n      mstore\n      0x20\n      add\n      0x00\n      keccak256\n        /* \"Project/TechnoLime.sol\":2146:2175  transactions[_id][msg.sender] */\n      0x00\n        /* \"Project/TechnoLime.sol\":2164:2174  msg.sender */\n      caller\n        /* \"Project/TechnoLime.sol\":2146:2175  transactions[_id][msg.sender] */\n      0xffffffffffffffffffffffffffffffffffffffff\n      and\n      0xffffffffffffffffffffffffffffffffffffffff\n      and\n      dup2\n      mstore\n      0x20\n      add\n      swap1\n      dup2\n      mstore\n      0x20\n      add\n      0x00\n      keccak256\n        /* \"Project/TechnoLime.sol\":2146:2182  transactions[_id][msg.sender].status */\n      0x02\n      add\n        /* \"Project/TechnoLime.sol\":2146:2186  transactions[_id][msg.sender].status = 2 */\n      dup2\n      swap1\n      sstore\n      pop\n        /* \"Project/TechnoLime.sol\":2233:2241  products */\n      0x02\n        /* \"Project/TechnoLime.sol\":2233:2246  products[_id] */\n      0x00\n        /* \"Project/TechnoLime.sol\":2242:2245  _id */\n      dup4\n        /* \"Project/TechnoLime.sol\":2233:2246  products[_id] */\n      dup2\n      mstore\n      0x20\n      add\n      swap1\n      dup2\n      mstore\n      0x20\n      add\n      0x00\n      keccak256\n        /* \"Project/TechnoLime.sol\":2233:2255  products[_id].quantity */\n      0x01\n      add\n      0x00\n        /* \"Project/TechnoLime.sol\":2233:2258  products[_id].quantity ++ */\n      dup2\n      sload\n      dup1\n      swap3\n      swap2\n      swap1\n      tag_79\n      swap1\n      tag_80\n      jump\t// in\n    tag_79:\n      swap2\n      swap1\n      pop\n      sstore\n      pop\n        /* \"Project/TechnoLime.sol\":2339:2350  transaction */\n      dup1\n        /* \"Project/TechnoLime.sol\":2339:2356  transaction.price */\n      0x20\n      add\n      mload\n        /* \"Project/TechnoLime.sol\":2307:2325  pendingWithdrawals */\n      0x05\n        /* \"Project/TechnoLime.sol\":2307:2337  pendingWithdrawals[msg.sender] */\n      0x00\n        /* \"Project/TechnoLime.sol\":2326:2336  msg.sender */\n      caller\n        /* \"Project/TechnoLime.sol\":2307:2337  pendingWithdrawals[msg.sender] */\n      0xffffffffffffffffffffffffffffffffffffffff\n      and\n      0xffffffffffffffffffffffffffffffffffffffff\n      and\n      dup2\n      mstore\n      0x20\n      add\n      swap1\n      dup2\n      mstore\n      0x20\n      add\n      0x00\n      keccak256\n      0x00\n        /* \"Project/TechnoLime.sol\":2307:2356  pendingWithdrawals[msg.sender]+=transaction.price */\n      dup3\n      dup3\n      sload\n      tag_81\n      swap2\n      swap1\n      tag_82\n      jump\t// in\n    tag_81:\n      swap3\n      pop\n      pop\n      dup2\n      swap1\n      sstore\n      pop\n        /* \"Project/TechnoLime.sol\":2426:2436  msg.sender */\n      caller\n        /* \"Project/TechnoLime.sol\":2409:2475  Events.NewReturn(msg.sender,_id,transaction.price,block.timestamp) */\n      0xffffffffffffffffffffffffffffffffffffffff\n      and\n      0x0e9843d242cdcb115d3afd9ab5a425357c91b3aa1daef371857091cdc4e5c8be\n        /* \"Project/TechnoLime.sol\":2437:2440  _id */\n      dup4\n        /* \"Project/TechnoLime.sol\":2441:2452  transaction */\n      dup4\n        /* \"Project/TechnoLime.sol\":2441:2458  transaction.price */\n      0x20\n      add\n      mload\n        /* \"Project/TechnoLime.sol\":2459:2474  block.timestamp */\n      timestamp\n        /* \"Project/TechnoLime.sol\":2409:2475  Events.NewReturn(msg.sender,_id,transaction.price,block.timestamp) */\n      mload(0x40)\n      tag_83\n      swap4\n      swap3\n      swap2\n      swap1\n      tag_31\n      jump\t// in\n    tag_83:\n      mload(0x40)\n      dup1\n      swap2\n      sub\n      swap1\n      log2\n        /* \"Project/TechnoLime.sol\":1793:2501  { \r... */\n      pop\n        /* \"Project/TechnoLime.sol\":1747:2678  if (transactions[_id][msg.sender].status == 1){ \r... */\n      jump(tag_84)\n    tag_75:\n        /* \"Project/TechnoLime.sol\":2635:2666  Errors.TransactionNotExistent() */\n      mload(0x40)\n      0xc55091df00000000000000000000000000000000000000000000000000000000\n      dup2\n      mstore\n      0x04\n      add\n      mload(0x40)\n      dup1\n      swap2\n      sub\n      swap1\n      revert\n        /* \"Project/TechnoLime.sol\":1747:2678  if (transactions[_id][msg.sender].status == 1){ \r... */\n    tag_84:\n        /* \"Project/TechnoLime.sol\":1465:2685  function returnProduct(uint _id) external {\r... */\n      pop\n      jump\t// out\n        /* \"Project/baseContracts.sol\":2921:3652  function withdraw() public {\r... */\n    tag_24:\n        /* \"Project/baseContracts.sol\":2996:2997  0 */\n      0x00\n        /* \"Project/baseContracts.sol\":2963:2981  pendingWithdrawals */\n      0x05\n        /* \"Project/baseContracts.sol\":2963:2993  pendingWithdrawals[msg.sender] */\n      0x00\n        /* \"Project/baseContracts.sol\":2982:2992  msg.sender */\n      caller\n        /* \"Project/baseContracts.sol\":2963:2993  pendingWithdrawals[msg.sender] */\n      0xffffffffffffffffffffffffffffffffffffffff\n      and\n      0xffffffffffffffffffffffffffffffffffffffff\n      and\n      dup2\n      mstore\n      0x20\n      add\n      swap1\n      dup2\n      mstore\n      0x20\n      add\n      0x00\n      keccak256\n      sload\n        /* \"Project/baseContracts.sol\":2963:2997  pendingWithdrawals[msg.sender] > 0 */\n      gt\n        /* \"Project/baseContracts.sol\":2959:3645  if (pendingWithdrawals[msg.sender] > 0){\r... */\n      iszero\n      tag_86\n      jumpi\n        /* \"Project/baseContracts.sol\":3139:3150  uint amount */\n      0x00\n        /* \"Project/baseContracts.sol\":3153:3171  pendingWithdrawals */\n      0x05\n        /* \"Project/baseContracts.sol\":3153:3183  pendingWithdrawals[msg.sender] */\n      0x00\n        /* \"Project/baseContracts.sol\":3172:3182  msg.sender */\n      caller\n        /* \"Project/baseContracts.sol\":3153:3183  pendingWithdrawals[msg.sender] */\n      0xffffffffffffffffffffffffffffffffffffffff\n      and\n      0xffffffffffffffffffffffffffffffffffffffff\n      and\n      dup2\n      mstore\n      0x20\n      add\n      swap1\n      dup2\n      mstore\n      0x20\n      add\n      0x00\n      keccak256\n      sload\n        /* \"Project/baseContracts.sol\":3139:3183  uint amount = pendingWithdrawals[msg.sender] */\n      swap1\n      pop\n        /* \"Project/baseContracts.sol\":3301:3302  0 */\n      0x00\n        /* \"Project/baseContracts.sol\":3270:3288  pendingWithdrawals */\n      0x05\n        /* \"Project/baseContracts.sol\":3270:3300  pendingWithdrawals[msg.sender] */\n      0x00\n        /* \"Project/baseContracts.sol\":3289:3299  msg.sender */\n      caller\n        /* \"Project/baseContracts.sol\":3270:3300  pendingWithdrawals[msg.sender] */\n      0xffffffffffffffffffffffffffffffffffffffff\n      and\n      0xffffffffffffffffffffffffffffffffffffffff\n      and\n      dup2\n      mstore\n      0x20\n      add\n      swap1\n      dup2\n      mstore\n      0x20\n      add\n      0x00\n      keccak256\n        /* \"Project/baseContracts.sol\":3270:3302  pendingWithdrawals[msg.sender]=0 */\n      dup2\n      swap1\n      sstore\n      pop\n        /* \"Project/baseContracts.sol\":3325:3335  msg.sender */\n      caller\n        /* \"Project/baseContracts.sol\":3317:3341  payable(msg.sender).call */\n      0xffffffffffffffffffffffffffffffffffffffff\n      and\n        /* \"Project/baseContracts.sol\":3348:3354  amount */\n      dup2\n        /* \"Project/baseContracts.sol\":3317:3359  payable(msg.sender).call{value:amount}(\"\") */\n      mload(0x40)\n      tag_87\n      swap1\n      tag_88\n      jump\t// in\n    tag_87:\n      0x00\n      mload(0x40)\n      dup1\n      dup4\n      sub\n      dup2\n      dup6\n      dup8\n      gas\n      call\n      swap3\n      pop\n      pop\n      pop\n      returndatasize\n      dup1\n      0x00\n      dup2\n      eq\n      tag_91\n      jumpi\n      mload(0x40)\n      swap2\n      pop\n      and(add(returndatasize, 0x3f), not(0x1f))\n      dup3\n      add\n      0x40\n      mstore\n      returndatasize\n      dup3\n      mstore\n      returndatasize\n      0x00\n      0x20\n      dup5\n      add\n      returndatacopy\n      jump(tag_90)\n    tag_91:\n      0x60\n      swap2\n      pop\n    tag_90:\n      pop\n      pop\n      pop\n        /* \"Project/baseContracts.sol\":3430:3440  msg.sender */\n      caller\n        /* \"Project/baseContracts.sol\":3413:3464  Events.NewRefund(msg.sender,amount,block.timestamp) */\n      0xffffffffffffffffffffffffffffffffffffffff\n      and\n      0x5d58dbdaab76702fb71954d3bb700396bd3705822f6f3b75b16c689064abb02d\n        /* \"Project/baseContracts.sol\":3441:3447  amount */\n      dup3\n        /* \"Project/baseContracts.sol\":3448:3463  block.timestamp */\n      timestamp\n        /* \"Project/baseContracts.sol\":3413:3464  Events.NewRefund(msg.sender,amount,block.timestamp) */\n      mload(0x40)\n      tag_92\n      swap3\n      swap2\n      swap1\n      tag_93\n      jump\t// in\n    tag_92:\n      mload(0x40)\n      dup1\n      swap2\n      sub\n      swap1\n      log2\n        /* \"Project/baseContracts.sol\":2998:3476  {\r... */\n      pop\n        /* \"Project/baseContracts.sol\":2959:3645  if (pendingWithdrawals[msg.sender] > 0){\r... */\n      jump(tag_94)\n    tag_86:\n        /* \"Project/baseContracts.sol\":3609:3633  Errors.NothingToRefund() */\n      mload(0x40)\n      0xf76aef6500000000000000000000000000000000000000000000000000000000\n      dup2\n      mstore\n      0x04\n      add\n      mload(0x40)\n      dup1\n      swap2\n      sub\n      swap1\n      revert\n        /* \"Project/baseContracts.sol\":2959:3645  if (pendingWithdrawals[msg.sender] > 0){\r... */\n    tag_94:\n        /* \"Project/baseContracts.sol\":2921:3652  function withdraw() public {\r... */\n      jump\t// out\n        /* \"Project/baseContracts.sol\":2543:2611  mapping(uint => mapping(address => Transaction)) public transactions */\n    tag_29:\n      mstore(0x20, 0x04)\n      dup2\n      0x00\n      mstore\n      mstore(0x20, keccak256(0x00, 0x40))\n      dup1\n      0x00\n      mstore\n      keccak256(0x00, 0x40)\n      0x00\n      swap2\n      pop\n      swap2\n      pop\n      pop\n      dup1\n      0x00\n      add\n      sload\n      swap1\n      dup1\n      0x01\n      add\n      sload\n      swap1\n      dup1\n      0x02\n      add\n      sload\n      swap1\n      pop\n      dup4\n      jump\t// out\n        /* \"Project/baseContracts.sol\":1010:1050  mapping(uint => Product) public products */\n    tag_35:\n      mstore(0x20, 0x02)\n      dup1\n      0x00\n      mstore\n      keccak256(0x00, 0x40)\n      0x00\n      swap2\n      pop\n      swap1\n      pop\n      dup1\n      0x00\n      add\n      sload\n      swap1\n      dup1\n      0x01\n      add\n      sload\n      swap1\n      dup1\n      0x02\n      add\n      dup1\n      sload\n      tag_95\n      swap1\n      tag_96\n      jump\t// in\n    tag_95:\n      dup1\n      0x1f\n      add\n      0x20\n      dup1\n      swap2\n      div\n      mul\n      0x20\n      add\n      mload(0x40)\n      swap1\n      dup2\n      add\n      0x40\n      mstore\n      dup1\n      swap3\n      swap2\n      swap1\n      dup2\n      dup2\n      mstore\n      0x20\n      add\n      dup3\n      dup1\n      sload\n      tag_97\n      swap1\n      tag_96\n      jump\t// in\n    tag_97:\n      dup1\n      iszero\n      tag_98\n      jumpi\n      dup1\n      0x1f\n      lt\n      tag_99\n      jumpi\n      0x0100\n      dup1\n      dup4\n      sload\n      div\n      mul\n      dup4\n      mstore\n      swap2\n      0x20\n      add\n      swap2\n      jump(tag_98)\n    tag_99:\n      dup3\n      add\n      swap2\n      swap1\n      0x00\n      mstore\n      keccak256(0x00, 0x20)\n      swap1\n    tag_100:\n      dup2\n      sload\n      dup2\n      mstore\n      swap1\n      0x01\n      add\n      swap1\n      0x20\n      add\n      dup1\n      dup4\n      gt\n      tag_100\n      jumpi\n      dup3\n      swap1\n      sub\n      0x1f\n      and\n      dup3\n      add\n      swap2\n    tag_98:\n      pop\n      pop\n      pop\n      pop\n      pop\n      swap1\n      dup1\n      0x03\n      add\n      0x00\n      swap1\n      sload\n      swap1\n      0x0100\n      exp\n      swap1\n      div\n      0xff\n      and\n      swap1\n      pop\n      dup5\n      jump\t// out\n        /* \"Project/TechnoLime.sol\":184:1451  function buyProduct (uint _id)  external payable { \r... */\n    tag_40:\n        /* \"Project/TechnoLime.sol\":360:377  availableProducts */\n      0x01\n        /* \"Project/TechnoLime.sol\":360:384  availableProducts.length */\n      dup1\n      sload\n      swap1\n      pop\n        /* \"Project/TechnoLime.sol\":354:357  _id */\n      dup2\n        /* \"Project/TechnoLime.sol\":354:384  _id < availableProducts.length */\n      lt\n        /* \"Project/TechnoLime.sol\":354:429  _id < availableProducts.length && transactions[_id][msg.sender].status != 1 */\n      dup1\n      iszero\n      tag_102\n      jumpi\n      pop\n        /* \"Project/TechnoLime.sol\":428:429  1 */\n      0x01\n        /* \"Project/TechnoLime.sol\":388:400  transactions */\n      0x04\n        /* \"Project/TechnoLime.sol\":388:405  transactions[_id] */\n      0x00\n        /* \"Project/TechnoLime.sol\":401:404  _id */\n      dup4\n        /* \"Project/TechnoLime.sol\":388:405  transactions[_id] */\n      dup2\n      mstore\n      0x20\n      add\n      swap1\n      dup2\n      mstore\n      0x20\n      add\n      0x00\n      keccak256\n        /* \"Project/TechnoLime.sol\":388:417  transactions[_id][msg.sender] */\n      0x00\n        /* \"Project/TechnoLime.sol\":406:416  msg.sender */\n      caller\n        /* \"Project/TechnoLime.sol\":388:417  transactions[_id][msg.sender] */\n      0xffffffffffffffffffffffffffffffffffffffff\n      and\n      0xffffffffffffffffffffffffffffffffffffffff\n      and\n      dup2\n      mstore\n      0x20\n      add\n      swap1\n      dup2\n      mstore\n      0x20\n      add\n      0x00\n      keccak256\n        /* \"Project/TechnoLime.sol\":388:424  transactions[_id][msg.sender].status */\n      0x02\n      add\n      sload\n        /* \"Project/TechnoLime.sol\":388:429  transactions[_id][msg.sender].status != 1 */\n      eq\n      iszero\n        /* \"Project/TechnoLime.sol\":354:429  _id < availableProducts.length && transactions[_id][msg.sender].status != 1 */\n    tag_102:\n        /* \"Project/TechnoLime.sol\":351:1431  if(_id < availableProducts.length && transactions[_id][msg.sender].status != 1){\r... */\n      iszero\n      tag_103\n      jumpi\n        /* \"Project/TechnoLime.sol\":583:605  Product memory product */\n      0x00\n        /* \"Project/TechnoLime.sol\":607:615  products */\n      0x02\n        /* \"Project/TechnoLime.sol\":607:620  products[_id] */\n      0x00\n        /* \"Project/TechnoLime.sol\":616:619  _id */\n      dup4\n        /* \"Project/TechnoLime.sol\":607:620  products[_id] */\n      dup2\n      mstore\n      0x20\n      add\n      swap1\n      dup2\n      mstore\n      0x20\n      add\n      0x00\n      keccak256\n        /* \"Project/TechnoLime.sol\":583:620  Product memory product= products[_id] */\n      mload(0x40)\n      dup1\n      0x80\n      add\n      0x40\n      mstore\n      swap1\n      dup2\n      0x00\n      dup3\n      add\n      sload\n      dup2\n      mstore\n      0x20\n      add\n      0x01\n      dup3\n      add\n      sload\n      dup2\n      mstore\n      0x20\n      add\n      0x02\n      dup3\n      add\n      dup1\n      sload\n      tag_104\n      swap1\n      tag_96\n      jump\t// in\n    tag_104:\n      dup1\n      0x1f\n      add\n      0x20\n      dup1\n      swap2\n      div\n      mul\n      0x20\n      add\n      mload(0x40)\n      swap1\n      dup2\n      add\n      0x40\n      mstore\n      dup1\n      swap3\n      swap2\n      swap1\n      dup2\n      dup2\n      mstore\n      0x20\n      add\n      dup3\n      dup1\n      sload\n      tag_105\n      swap1\n      tag_96\n      jump\t// in\n    tag_105:\n      dup1\n      iszero\n      tag_106\n      jumpi\n      dup1\n      0x1f\n      lt\n      tag_107\n      jumpi\n      0x0100\n      dup1\n      dup4\n      sload\n      div\n      mul\n      dup4\n      mstore\n      swap2\n      0x20\n      add\n      swap2\n      jump(tag_106)\n    tag_107:\n      dup3\n      add\n      swap2\n      swap1\n      0x00\n      mstore\n      keccak256(0x00, 0x20)\n      swap1\n    tag_108:\n      dup2\n      sload\n      dup2\n      mstore\n      swap1\n      0x01\n      add\n      swap1\n      0x20\n      add\n      dup1\n      dup4\n      gt\n      tag_108\n      jumpi\n      dup3\n      swap1\n      sub\n      0x1f\n      and\n      dup3\n      add\n      swap2\n    tag_106:\n      pop\n      pop\n      pop\n      pop\n      pop\n      dup2\n      mstore\n      0x20\n      add\n      0x03\n      dup3\n      add\n      0x00\n      swap1\n      sload\n      swap1\n      0x0100\n      exp\n      swap1\n      div\n      0xff\n      and\n      iszero\n      iszero\n      iszero\n      iszero\n      dup2\n      mstore\n      pop\n      pop\n      swap1\n      pop\n        /* \"Project/TechnoLime.sol\":650:657  product */\n      dup1\n        /* \"Project/TechnoLime.sol\":650:663  product.price */\n      0x00\n      add\n      mload\n        /* \"Project/TechnoLime.sol\":638:647  msg.value */\n      callvalue\n        /* \"Project/TechnoLime.sol\":638:663  msg.value < product.price */\n      lt\n        /* \"Project/TechnoLime.sol\":638:687  msg.value < product.price || product.quantity < 1 */\n      dup1\n      tag_109\n      jumpi\n      pop\n        /* \"Project/TechnoLime.sol\":686:687  1 */\n      0x01\n        /* \"Project/TechnoLime.sol\":667:674  product */\n      dup2\n        /* \"Project/TechnoLime.sol\":667:683  product.quantity */\n      0x20\n      add\n      mload\n        /* \"Project/TechnoLime.sol\":667:687  product.quantity < 1 */\n      lt\n        /* \"Project/TechnoLime.sol\":638:687  msg.value < product.price || product.quantity < 1 */\n    tag_109:\n        /* \"Project/TechnoLime.sol\":635:815  if(msg.value < product.price || product.quantity < 1)\r... */\n      iszero\n      tag_110\n      jumpi\n        /* \"Project/TechnoLime.sol\":781:815  Errors.LessThanPriceOrOutOfStock() */\n      mload(0x40)\n      0xf80236cc00000000000000000000000000000000000000000000000000000000\n      dup2\n      mstore\n      0x04\n      add\n      mload(0x40)\n      dup1\n      swap2\n      sub\n      swap1\n      revert\n        /* \"Project/TechnoLime.sol\":635:815  if(msg.value < product.price || product.quantity < 1)\r... */\n    tag_110:\n        /* \"Project/TechnoLime.sol\":832:865  Transaction memory newTransaction */\n      tag_111\n      tag_112\n      jump\t// in\n    tag_111:\n        /* \"Project/TechnoLime.sol\":906:918  block.number */\n      number\n        /* \"Project/TechnoLime.sol\":880:894  newTransaction */\n      dup2\n        /* \"Project/TechnoLime.sol\":880:903  newTransaction.blockNum */\n      0x00\n      add\n        /* \"Project/TechnoLime.sol\":880:918  newTransaction.blockNum = block.number */\n      dup2\n      dup2\n      mstore\n      pop\n      pop\n        /* \"Project/TechnoLime.sol\":956:963  product */\n      dup2\n        /* \"Project/TechnoLime.sol\":956:969  product.price */\n      0x00\n      add\n      mload\n        /* \"Project/TechnoLime.sol\":933:947  newTransaction */\n      dup2\n        /* \"Project/TechnoLime.sol\":933:953  newTransaction.price */\n      0x20\n      add\n        /* \"Project/TechnoLime.sol\":933:969  newTransaction.price = product.price */\n      dup2\n      dup2\n      mstore\n      pop\n      pop\n        /* \"Project/TechnoLime.sol\":1008:1009  1 */\n      0x01\n        /* \"Project/TechnoLime.sol\":984:998  newTransaction */\n      dup2\n        /* \"Project/TechnoLime.sol\":984:1005  newTransaction.status */\n      0x40\n      add\n        /* \"Project/TechnoLime.sol\":984:1009  newTransaction.status = 1 */\n      dup2\n      dup2\n      mstore\n      pop\n      pop\n        /* \"Project/TechnoLime.sol\":1088:1102  newTransaction */\n      dup1\n        /* \"Project/TechnoLime.sol\":1056:1068  transactions */\n      0x04\n        /* \"Project/TechnoLime.sol\":1056:1073  transactions[_id] */\n      0x00\n        /* \"Project/TechnoLime.sol\":1069:1072  _id */\n      dup6\n        /* \"Project/TechnoLime.sol\":1056:1073  transactions[_id] */\n      dup2\n      mstore\n      0x20\n      add\n      swap1\n      dup2\n      mstore\n      0x20\n      add\n      0x00\n      keccak256\n        /* \"Project/TechnoLime.sol\":1056:1085  transactions[_id][msg.sender] */\n      0x00\n        /* \"Project/TechnoLime.sol\":1074:1084  msg.sender */\n      caller\n        /* \"Project/TechnoLime.sol\":1056:1085  transactions[_id][msg.sender] */\n      0xffffffffffffffffffffffffffffffffffffffff\n      and\n      0xffffffffffffffffffffffffffffffffffffffff\n      and\n      dup2\n      mstore\n      0x20\n      add\n      swap1\n      dup2\n      mstore\n      0x20\n      add\n      0x00\n      keccak256\n        /* \"Project/TechnoLime.sol\":1056:1102  transactions[_id][msg.sender] = newTransaction */\n      0x00\n      dup3\n      add\n      mload\n      dup2\n      0x00\n      add\n      sstore\n      0x20\n      dup3\n      add\n      mload\n      dup2\n      0x01\n      add\n      sstore\n      0x40\n      dup3\n      add\n      mload\n      dup2\n      0x02\n      add\n      sstore\n      swap1\n      pop\n      pop\n        /* \"Project/TechnoLime.sol\":1119:1127  products */\n      0x02\n        /* \"Project/TechnoLime.sol\":1119:1132  products[_id] */\n      0x00\n        /* \"Project/TechnoLime.sol\":1128:1131  _id */\n      dup5\n        /* \"Project/TechnoLime.sol\":1119:1132  products[_id] */\n      dup2\n      mstore\n      0x20\n      add\n      swap1\n      dup2\n      mstore\n      0x20\n      add\n      0x00\n      keccak256\n        /* \"Project/TechnoLime.sol\":1119:1141  products[_id].quantity */\n      0x01\n      add\n      0x00\n        /* \"Project/TechnoLime.sol\":1119:1143  products[_id].quantity-- */\n      dup2\n      sload\n      dup1\n      swap3\n      swap2\n      swap1\n      tag_113\n      swap1\n      tag_114\n      jump\t// in\n    tag_113:\n      swap2\n      swap1\n      pop\n      sstore\n      pop\n        /* \"Project/TechnoLime.sol\":1239:1249  msg.sender */\n      caller\n        /* \"Project/TechnoLime.sol\":1213:1280  Events.NewTransaction(_id,msg.sender,product.price,block.timestamp) */\n      0xffffffffffffffffffffffffffffffffffffffff\n      and\n        /* \"Project/TechnoLime.sol\":1235:1238  _id */\n      dup4\n        /* \"Project/TechnoLime.sol\":1213:1280  Events.NewTransaction(_id,msg.sender,product.price,block.timestamp) */\n      0x669d67bb432d7e9516c3668af7dbbe4387aff51ab2dc26b0cddecebcbb7f2d58\n        /* \"Project/TechnoLime.sol\":1250:1257  product */\n      dup5\n        /* \"Project/TechnoLime.sol\":1250:1263  product.price */\n      0x00\n      add\n      mload\n        /* \"Project/TechnoLime.sol\":1264:1279  block.timestamp */\n      timestamp\n        /* \"Project/TechnoLime.sol\":1213:1280  Events.NewTransaction(_id,msg.sender,product.price,block.timestamp) */\n      mload(0x40)\n      tag_115\n      swap3\n      swap2\n      swap1\n      tag_93\n      jump\t// in\n    tag_115:\n      mload(0x40)\n      dup1\n      swap2\n      sub\n      swap1\n      log3\n        /* \"Project/TechnoLime.sol\":430:1294  {\r... */\n      pop\n      pop\n        /* \"Project/TechnoLime.sol\":351:1431  if(_id < availableProducts.length && transactions[_id][msg.sender].status != 1){\r... */\n      jump(tag_116)\n    tag_103:\n        /* \"Project/TechnoLime.sol\":1384:1419  Errors.ItemIdWrongOrBoughtAlready() */\n      mload(0x40)\n      0xd42c9b8b00000000000000000000000000000000000000000000000000000000\n      dup2\n      mstore\n      0x04\n      add\n      mload(0x40)\n      dup1\n      swap2\n      sub\n      swap1\n      revert\n        /* \"Project/TechnoLime.sol\":351:1431  if(_id < availableProducts.length && transactions[_id][msg.sender].status != 1){\r... */\n    tag_116:\n        /* \"Project/TechnoLime.sol\":184:1451  function buyProduct (uint _id)  external payable { \r... */\n      pop\n      jump\t// out\n        /* \"Project/baseContracts.sol\":1896:2235  function addQuantity(uint _id,uint _quantity) external isOwner{\r... */\n    tag_45:\n        /* \"Project/baseContracts.sol\":568:573  owner */\n      0x00\n      dup1\n      sload\n      swap1\n      0x0100\n      exp\n      swap1\n      div\n      0xffffffffffffffffffffffffffffffffffffffff\n      and\n        /* \"Project/baseContracts.sol\":554:573  msg.sender != owner */\n      0xffffffffffffffffffffffffffffffffffffffff\n      and\n        /* \"Project/baseContracts.sol\":554:564  msg.sender */\n      caller\n        /* \"Project/baseContracts.sol\":554:573  msg.sender != owner */\n      0xffffffffffffffffffffffffffffffffffffffff\n      and\n      eq\n        /* \"Project/baseContracts.sol\":551:614  if(msg.sender != owner)\r... */\n      tag_118\n      jumpi\n        /* \"Project/baseContracts.sol\":595:614  Errors.NotAnAdmin() */\n      mload(0x40)\n      0x55098f2700000000000000000000000000000000000000000000000000000000\n      dup2\n      mstore\n      0x04\n      add\n      mload(0x40)\n      dup1\n      swap2\n      sub\n      swap1\n      revert\n        /* \"Project/baseContracts.sol\":551:614  if(msg.sender != owner)\r... */\n    tag_118:\n        /* \"Project/baseContracts.sol\":1973:1981  products */\n      0x02\n        /* \"Project/baseContracts.sol\":1973:1986  products[_id] */\n      0x00\n        /* \"Project/baseContracts.sol\":1982:1985  _id */\n      dup4\n        /* \"Project/baseContracts.sol\":1973:1986  products[_id] */\n      dup2\n      mstore\n      0x20\n      add\n      swap1\n      dup2\n      mstore\n      0x20\n      add\n      0x00\n      keccak256\n        /* \"Project/baseContracts.sol\":1973:1993  products[_id].exists */\n      0x03\n      add\n      0x00\n      swap1\n      sload\n      swap1\n      0x0100\n      exp\n      swap1\n      div\n      0xff\n      and\n        /* \"Project/baseContracts.sol\":1969:2228  if (products[_id].exists){\r... */\n      iszero\n      tag_120\n      jumpi\n        /* \"Project/baseContracts.sol\":2035:2044  _quantity */\n      dup1\n        /* \"Project/baseContracts.sol\":2009:2017  products */\n      0x02\n        /* \"Project/baseContracts.sol\":2009:2022  products[_id] */\n      0x00\n        /* \"Project/baseContracts.sol\":2018:2021  _id */\n      dup5\n        /* \"Project/baseContracts.sol\":2009:2022  products[_id] */\n      dup2\n      mstore\n      0x20\n      add\n      swap1\n      dup2\n      mstore\n      0x20\n      add\n      0x00\n      keccak256\n        /* \"Project/baseContracts.sol\":2009:2031  products[_id].quantity */\n      0x01\n      add\n      0x00\n        /* \"Project/baseContracts.sol\":2009:2044  products[_id].quantity += _quantity */\n      dup3\n      dup3\n      sload\n      tag_121\n      swap2\n      swap1\n      tag_82\n      jump\t// in\n    tag_121:\n      swap3\n      pop\n      pop\n      dup2\n      swap1\n      sstore\n      pop\n        /* \"Project/baseContracts.sol\":1969:2228  if (products[_id].exists){\r... */\n      jump(tag_122)\n    tag_120:\n        /* \"Project/baseContracts.sol\":2189:2216  Errors.ProductNotExistent() */\n      mload(0x40)\n      0x7e8d96a900000000000000000000000000000000000000000000000000000000\n      dup2\n      mstore\n      0x04\n      add\n      mload(0x40)\n      dup1\n      swap2\n      sub\n      swap1\n      revert\n        /* \"Project/baseContracts.sol\":1969:2228  if (products[_id].exists){\r... */\n    tag_122:\n        /* \"Project/baseContracts.sol\":1896:2235  function addQuantity(uint _id,uint _quantity) external isOwner{\r... */\n      pop\n      pop\n      jump\t// out\n        /* \"Project/baseContracts.sol\":970:1003  string[] public availableProducts */\n    tag_49:\n      0x01\n      dup2\n      dup2\n      sload\n      dup2\n      lt\n      tag_123\n      jumpi\n      0x00\n      dup1\n      revert\n    tag_123:\n      swap1\n      0x00\n      mstore\n      keccak256(0x00, 0x20)\n      add\n      0x00\n      swap2\n      pop\n      swap1\n      pop\n      dup1\n      sload\n      tag_125\n      swap1\n      tag_96\n      jump\t// in\n    tag_125:\n      dup1\n      0x1f\n      add\n      0x20\n      dup1\n      swap2\n      div\n      mul\n      0x20\n      add\n      mload(0x40)\n      swap1\n      dup2\n      add\n      0x40\n      mstore\n      dup1\n      swap3\n      swap2\n      swap1\n      dup2\n      dup2\n      mstore\n      0x20\n      add\n      dup3\n      dup1\n      sload\n      tag_126\n      swap1\n      tag_96\n      jump\t// in\n    tag_126:\n      dup1\n      iszero\n      tag_127\n      jumpi\n      dup1\n      0x1f\n      lt\n      tag_128\n      jumpi\n      0x0100\n      dup1\n      dup4\n      sload\n      div\n      mul\n      dup4\n      mstore\n      swap2\n      0x20\n      add\n      swap2\n      jump(tag_127)\n    tag_128:\n      dup3\n      add\n      swap2\n      swap1\n      0x00\n      mstore\n      keccak256(0x00, 0x20)\n      swap1\n    tag_129:\n      dup2\n      sload\n      dup2\n      mstore\n      swap1\n      0x01\n      add\n      swap1\n      0x20\n      add\n      dup1\n      dup4\n      gt\n      tag_129\n      jumpi\n      dup3\n      swap1\n      sub\n      0x1f\n      and\n      dup3\n      add\n      swap2\n    tag_127:\n      pop\n      pop\n      pop\n      pop\n      pop\n      dup2\n      jump\t// out\n        /* \"Project/baseContracts.sol\":2694:2744  mapping (address =>uint) public pendingWithdrawals */\n    tag_56:\n      mstore(0x20, 0x05)\n      dup1\n      0x00\n      mstore\n      keccak256(0x00, 0x40)\n      0x00\n      swap2\n      pop\n      swap1\n      pop\n      sload\n      dup2\n      jump\t// out\n    tag_66:\n      mload(0x40)\n      dup1\n      0x80\n      add\n      0x40\n      mstore\n      dup1\n      0x00\n      dup2\n      mstore\n      0x20\n      add\n      0x00\n      dup2\n      mstore\n      0x20\n      add\n      0x60\n      dup2\n      mstore\n      0x20\n      add\n      iszero(iszero(0x00))\n      dup2\n      mstore\n      pop\n      swap1\n      jump\t// out\n    tag_68:\n      dup3\n      dup1\n      sload\n      tag_130\n      swap1\n      tag_96\n      jump\t// in\n    tag_130:\n      swap1\n      0x00\n      mstore\n      keccak256(0x00, 0x20)\n      swap1\n      0x1f\n      add\n      0x20\n      swap1\n      div\n      dup2\n      add\n      swap3\n      dup3\n      tag_132\n      jumpi\n      0x00\n      dup6\n      sstore\n      jump(tag_131)\n    tag_132:\n      dup3\n      0x1f\n      lt\n      tag_133\n      jumpi\n      dup1\n      mload\n      not(0xff)\n      and\n      dup4\n      dup1\n      add\n      or\n      dup6\n      sstore\n      jump(tag_131)\n    tag_133:\n      dup3\n      dup1\n      add\n      0x01\n      add\n      dup6\n      sstore\n      dup3\n      iszero\n      tag_131\n      jumpi\n      swap2\n      dup3\n      add\n    tag_134:\n      dup3\n      dup2\n      gt\n      iszero\n      tag_135\n      jumpi\n      dup3\n      mload\n      dup3\n      sstore\n      swap2\n      0x20\n      add\n      swap2\n      swap1\n      0x01\n      add\n      swap1\n      jump(tag_134)\n    tag_135:\n    tag_131:\n      pop\n      swap1\n      pop\n      tag_136\n      swap2\n      swap1\n      tag_137\n      jump\t// in\n    tag_136:\n      pop\n      swap1\n      jump\t// out\n    tag_72:\n      dup3\n      dup1\n      sload\n      tag_138\n      swap1\n      tag_96\n      jump\t// in\n    tag_138:\n      swap1\n      0x00\n      mstore\n      keccak256(0x00, 0x20)\n      swap1\n      0x1f\n      add\n      0x20\n      swap1\n      div\n      dup2\n      add\n      swap3\n      dup3\n      tag_140\n      jumpi\n      0x00\n      dup6\n      sstore\n      jump(tag_139)\n    tag_140:\n      dup3\n      0x1f\n      lt\n      tag_141\n      jumpi\n      dup1\n      calldataload\n      not(0xff)\n      and\n      dup4\n      dup1\n      add\n      or\n      dup6\n      sstore\n      jump(tag_139)\n    tag_141:\n      dup3\n      dup1\n      add\n      0x01\n      add\n      dup6\n      sstore\n      dup3\n      iszero\n      tag_139\n      jumpi\n      swap2\n      dup3\n      add\n    tag_142:\n      dup3\n      dup2\n      gt\n      iszero\n      tag_143\n      jumpi\n      dup3\n      calldataload\n      dup3\n      sstore\n      swap2\n      0x20\n      add\n      swap2\n      swap1\n      0x01\n      add\n      swap1\n      jump(tag_142)\n    tag_143:\n    tag_139:\n      pop\n      swap1\n      pop\n      tag_144\n      swap2\n      swap1\n      tag_137\n      jump\t// in\n    tag_144:\n      pop\n      swap1\n      jump\t// out\n    tag_112:\n      mload(0x40)\n      dup1\n      0x60\n      add\n      0x40\n      mstore\n      dup1\n      0x00\n      dup2\n      mstore\n      0x20\n      add\n      0x00\n      dup2\n      mstore\n      0x20\n      add\n      0x00\n      dup2\n      mstore\n      pop\n      swap1\n      jump\t// out\n    tag_137:\n    tag_145:\n      dup1\n      dup3\n      gt\n      iszero\n      tag_146\n      jumpi\n      0x00\n      dup2\n      0x00\n      swap1\n      sstore\n      pop\n      0x01\n      add\n      jump(tag_145)\n    tag_146:\n      pop\n      swap1\n      jump\t// out\n        /* \"#utility.yul\":7:146   */\n    tag_148:\n        /* \"#utility.yul\":53:58   */\n      0x00\n        /* \"#utility.yul\":91:97   */\n      dup2\n        /* \"#utility.yul\":78:98   */\n      calldataload\n        /* \"#utility.yul\":69:98   */\n      swap1\n      pop\n        /* \"#utility.yul\":107:140   */\n      tag_150\n        /* \"#utility.yul\":134:139   */\n      dup2\n        /* \"#utility.yul\":107:140   */\n      tag_151\n      jump\t// in\n    tag_150:\n        /* \"#utility.yul\":7:146   */\n      swap3\n      swap2\n      pop\n      pop\n      jump\t// out\n        /* \"#utility.yul\":166:719   */\n    tag_152:\n        /* \"#utility.yul\":224:232   */\n      0x00\n        /* \"#utility.yul\":234:240   */\n      dup1\n        /* \"#utility.yul\":284:287   */\n      dup4\n        /* \"#utility.yul\":277:281   */\n      0x1f\n        /* \"#utility.yul\":269:275   */\n      dup5\n        /* \"#utility.yul\":265:282   */\n      add\n        /* \"#utility.yul\":261:288   */\n      slt\n        /* \"#utility.yul\":251:373   */\n      tag_154\n      jumpi\n        /* \"#utility.yul\":292:371   */\n      tag_155\n      tag_156\n      jump\t// in\n    tag_155:\n        /* \"#utility.yul\":251:373   */\n    tag_154:\n        /* \"#utility.yul\":405:411   */\n      dup3\n        /* \"#utility.yul\":392:412   */\n      calldataload\n        /* \"#utility.yul\":382:412   */\n      swap1\n      pop\n        /* \"#utility.yul\":435:453   */\n      0xffffffffffffffff\n        /* \"#utility.yul\":427:433   */\n      dup2\n        /* \"#utility.yul\":424:454   */\n      gt\n        /* \"#utility.yul\":421:538   */\n      iszero\n      tag_157\n      jumpi\n        /* \"#utility.yul\":457:536   */\n      tag_158\n      tag_159\n      jump\t// in\n    tag_158:\n        /* \"#utility.yul\":421:538   */\n    tag_157:\n        /* \"#utility.yul\":571:575   */\n      0x20\n        /* \"#utility.yul\":563:569   */\n      dup4\n        /* \"#utility.yul\":559:576   */\n      add\n        /* \"#utility.yul\":547:576   */\n      swap2\n      pop\n        /* \"#utility.yul\":625:628   */\n      dup4\n        /* \"#utility.yul\":617:621   */\n      0x01\n        /* \"#utility.yul\":609:615   */\n      dup3\n        /* \"#utility.yul\":605:622   */\n      mul\n        /* \"#utility.yul\":595:603   */\n      dup4\n        /* \"#utility.yul\":591:623   */\n      add\n        /* \"#utility.yul\":588:629   */\n      gt\n        /* \"#utility.yul\":585:713   */\n      iszero\n      tag_160\n      jumpi\n        /* \"#utility.yul\":632:711   */\n      tag_161\n      tag_162\n      jump\t// in\n    tag_161:\n        /* \"#utility.yul\":585:713   */\n    tag_160:\n        /* \"#utility.yul\":166:719   */\n      swap3\n      pop\n      swap3\n      swap1\n      pop\n      jump\t// out\n        /* \"#utility.yul\":725:864   */\n    tag_163:\n        /* \"#utility.yul\":771:776   */\n      0x00\n        /* \"#utility.yul\":809:815   */\n      dup2\n        /* \"#utility.yul\":796:816   */\n      calldataload\n        /* \"#utility.yul\":787:816   */\n      swap1\n      pop\n        /* \"#utility.yul\":825:858   */\n      tag_165\n        /* \"#utility.yul\":852:857   */\n      dup2\n        /* \"#utility.yul\":825:858   */\n      tag_166\n      jump\t// in\n    tag_165:\n        /* \"#utility.yul\":725:864   */\n      swap3\n      swap2\n      pop\n      pop\n      jump\t// out\n        /* \"#utility.yul\":870:1199   */\n    tag_55:\n        /* \"#utility.yul\":929:935   */\n      0x00\n        /* \"#utility.yul\":978:980   */\n      0x20\n        /* \"#utility.yul\":966:975   */\n      dup3\n        /* \"#utility.yul\":957:964   */\n      dup5\n        /* \"#utility.yul\":953:976   */\n      sub\n        /* \"#utility.yul\":949:981   */\n      slt\n        /* \"#utility.yul\":946:1065   */\n      iszero\n      tag_168\n      jumpi\n        /* \"#utility.yul\":984:1063   */\n      tag_169\n      tag_170\n      jump\t// in\n    tag_169:\n        /* \"#utility.yul\":946:1065   */\n    tag_168:\n        /* \"#utility.yul\":1104:1105   */\n      0x00\n        /* \"#utility.yul\":1129:1182   */\n      tag_171\n        /* \"#utility.yul\":1174:1181   */\n      dup5\n        /* \"#utility.yul\":1165:1171   */\n      dup3\n        /* \"#utility.yul\":1154:1163   */\n      dup6\n        /* \"#utility.yul\":1150:1172   */\n      add\n        /* \"#utility.yul\":1129:1182   */\n      tag_148\n      jump\t// in\n    tag_171:\n        /* \"#utility.yul\":1119:1182   */\n      swap2\n      pop\n        /* \"#utility.yul\":1075:1192   */\n      pop\n        /* \"#utility.yul\":870:1199   */\n      swap3\n      swap2\n      pop\n      pop\n      jump\t// out\n        /* \"#utility.yul\":1205:2024   */\n    tag_15:\n        /* \"#utility.yul\":1294:1300   */\n      0x00\n        /* \"#utility.yul\":1302:1308   */\n      dup1\n        /* \"#utility.yul\":1310:1316   */\n      0x00\n        /* \"#utility.yul\":1318:1324   */\n      dup1\n        /* \"#utility.yul\":1367:1369   */\n      0x60\n        /* \"#utility.yul\":1355:1364   */\n      dup6\n        /* \"#utility.yul\":1346:1353   */\n      dup8\n        /* \"#utility.yul\":1342:1365   */\n      sub\n        /* \"#utility.yul\":1338:1370   */\n      slt\n        /* \"#utility.yul\":1335:1454   */\n      iszero\n      tag_173\n      jumpi\n        /* \"#utility.yul\":1373:1452   */\n      tag_174\n      tag_170\n      jump\t// in\n    tag_174:\n        /* \"#utility.yul\":1335:1454   */\n    tag_173:\n        /* \"#utility.yul\":1521:1522   */\n      0x00\n        /* \"#utility.yul\":1510:1519   */\n      dup6\n        /* \"#utility.yul\":1506:1523   */\n      add\n        /* \"#utility.yul\":1493:1524   */\n      calldataload\n        /* \"#utility.yul\":1551:1569   */\n      0xffffffffffffffff\n        /* \"#utility.yul\":1543:1549   */\n      dup2\n        /* \"#utility.yul\":1540:1570   */\n      gt\n        /* \"#utility.yul\":1537:1654   */\n      iszero\n      tag_175\n      jumpi\n        /* \"#utility.yul\":1573:1652   */\n      tag_176\n      tag_177\n      jump\t// in\n    tag_176:\n        /* \"#utility.yul\":1537:1654   */\n    tag_175:\n        /* \"#utility.yul\":1686:1751   */\n      tag_178\n        /* \"#utility.yul\":1743:1750   */\n      dup8\n        /* \"#utility.yul\":1734:1740   */\n      dup3\n        /* \"#utility.yul\":1723:1732   */\n      dup9\n        /* \"#utility.yul\":1719:1741   */\n      add\n        /* \"#utility.yul\":1686:1751   */\n      tag_152\n      jump\t// in\n    tag_178:\n        /* \"#utility.yul\":1668:1751   */\n      swap5\n      pop\n      swap5\n      pop\n        /* \"#utility.yul\":1464:1761   */\n      pop\n        /* \"#utility.yul\":1800:1802   */\n      0x20\n        /* \"#utility.yul\":1826:1879   */\n      tag_179\n        /* \"#utility.yul\":1871:1878   */\n      dup8\n        /* \"#utility.yul\":1862:1868   */\n      dup3\n        /* \"#utility.yul\":1851:1860   */\n      dup9\n        /* \"#utility.yul\":1847:1869   */\n      add\n        /* \"#utility.yul\":1826:1879   */\n      tag_163\n      jump\t// in\n    tag_179:\n        /* \"#utility.yul\":1816:1879   */\n      swap3\n      pop\n        /* \"#utility.yul\":1771:1889   */\n      pop\n        /* \"#utility.yul\":1928:1930   */\n      0x40\n        /* \"#utility.yul\":1954:2007   */\n      tag_180\n        /* \"#utility.yul\":1999:2006   */\n      dup8\n        /* \"#utility.yul\":1990:1996   */\n      dup3\n        /* \"#utility.yul\":1979:1988   */\n      dup9\n        /* \"#utility.yul\":1975:1997   */\n      add\n        /* \"#utility.yul\":1954:2007   */\n      tag_163\n      jump\t// in\n    tag_180:\n        /* \"#utility.yul\":1944:2007   */\n      swap2\n      pop\n        /* \"#utility.yul\":1899:2017   */\n      pop\n        /* \"#utility.yul\":1205:2024   */\n      swap3\n      swap6\n      swap2\n      swap5\n      pop\n      swap3\n      pop\n      jump\t// out\n        /* \"#utility.yul\":2030:2359   */\n    tag_20:\n        /* \"#utility.yul\":2089:2095   */\n      0x00\n        /* \"#utility.yul\":2138:2140   */\n      0x20\n        /* \"#utility.yul\":2126:2135   */\n      dup3\n        /* \"#utility.yul\":2117:2124   */\n      dup5\n        /* \"#utility.yul\":2113:2136   */\n      sub\n        /* \"#utility.yul\":2109:2141   */\n      slt\n        /* \"#utility.yul\":2106:2225   */\n      iszero\n      tag_182\n      jumpi\n        /* \"#utility.yul\":2144:2223   */\n      tag_183\n      tag_170\n      jump\t// in\n    tag_183:\n        /* \"#utility.yul\":2106:2225   */\n    tag_182:\n        /* \"#utility.yul\":2264:2265   */\n      0x00\n        /* \"#utility.yul\":2289:2342   */\n      tag_184\n        /* \"#utility.yul\":2334:2341   */\n      dup5\n        /* \"#utility.yul\":2325:2331   */\n      dup3\n        /* \"#utility.yul\":2314:2323   */\n      dup6\n        /* \"#utility.yul\":2310:2332   */\n      add\n        /* \"#utility.yul\":2289:2342   */\n      tag_163\n      jump\t// in\n    tag_184:\n        /* \"#utility.yul\":2279:2342   */\n      swap2\n      pop\n        /* \"#utility.yul\":2235:2352   */\n      pop\n        /* \"#utility.yul\":2030:2359   */\n      swap3\n      swap2\n      pop\n      pop\n      jump\t// out\n        /* \"#utility.yul\":2365:2839   */\n    tag_28:\n        /* \"#utility.yul\":2433:2439   */\n      0x00\n        /* \"#utility.yul\":2441:2447   */\n      dup1\n        /* \"#utility.yul\":2490:2492   */\n      0x40\n        /* \"#utility.yul\":2478:2487   */\n      dup4\n        /* \"#utility.yul\":2469:2476   */\n      dup6\n        /* \"#utility.yul\":2465:2488   */\n      sub\n        /* \"#utility.yul\":2461:2493   */\n      slt\n        /* \"#utility.yul\":2458:2577   */\n      iszero\n      tag_186\n      jumpi\n        /* \"#utility.yul\":2496:2575   */\n      tag_187\n      tag_170\n      jump\t// in\n    tag_187:\n        /* \"#utility.yul\":2458:2577   */\n    tag_186:\n        /* \"#utility.yul\":2616:2617   */\n      0x00\n        /* \"#utility.yul\":2641:2694   */\n      tag_188\n        /* \"#utility.yul\":2686:2693   */\n      dup6\n        /* \"#utility.yul\":2677:2683   */\n      dup3\n        /* \"#utility.yul\":2666:2675   */\n      dup7\n        /* \"#utility.yul\":2662:2684   */\n      add\n        /* \"#utility.yul\":2641:2694   */\n      tag_163\n      jump\t// in\n    tag_188:\n        /* \"#utility.yul\":2631:2694   */\n      swap3\n      pop\n        /* \"#utility.yul\":2587:2704   */\n      pop\n        /* \"#utility.yul\":2743:2745   */\n      0x20\n        /* \"#utility.yul\":2769:2822   */\n      tag_189\n        /* \"#utility.yul\":2814:2821   */\n      dup6\n        /* \"#utility.yul\":2805:2811   */\n      dup3\n        /* \"#utility.yul\":2794:2803   */\n      dup7\n        /* \"#utility.yul\":2790:2812   */\n      add\n        /* \"#utility.yul\":2769:2822   */\n      tag_148\n      jump\t// in\n    tag_189:\n        /* \"#utility.yul\":2759:2822   */\n      swap2\n      pop\n        /* \"#utility.yul\":2714:2832   */\n      pop\n        /* \"#utility.yul\":2365:2839   */\n      swap3\n      pop\n      swap3\n      swap1\n      pop\n      jump\t// out\n        /* \"#utility.yul\":2845:3319   */\n    tag_44:\n        /* \"#utility.yul\":2913:2919   */\n      0x00\n        /* \"#utility.yul\":2921:2927   */\n      dup1\n        /* \"#utility.yul\":2970:2972   */\n      0x40\n        /* \"#utility.yul\":2958:2967   */\n      dup4\n        /* \"#utility.yul\":2949:2956   */\n      dup6\n        /* \"#utility.yul\":2945:2968   */\n      sub\n        /* \"#utility.yul\":2941:2973   */\n      slt\n        /* \"#utility.yul\":2938:3057   */\n      iszero\n      tag_191\n      jumpi\n        /* \"#utility.yul\":2976:3055   */\n      tag_192\n      tag_170\n      jump\t// in\n    tag_192:\n        /* \"#utility.yul\":2938:3057   */\n    tag_191:\n        /* \"#utility.yul\":3096:3097   */\n      0x00\n        /* \"#utility.yul\":3121:3174   */\n      tag_193\n        /* \"#utility.yul\":3166:3173   */\n      dup6\n        /* \"#utility.yul\":3157:3163   */\n      dup3\n        /* \"#utility.yul\":3146:3155   */\n      dup7\n        /* \"#utility.yul\":3142:3164   */\n      add\n        /* \"#utility.yul\":3121:3174   */\n      tag_163\n      jump\t// in\n    tag_193:\n        /* \"#utility.yul\":3111:3174   */\n      swap3\n      pop\n        /* \"#utility.yul\":3067:3184   */\n      pop\n        /* \"#utility.yul\":3223:3225   */\n      0x20\n        /* \"#utility.yul\":3249:3302   */\n      tag_194\n        /* \"#utility.yul\":3294:3301   */\n      dup6\n        /* \"#utility.yul\":3285:3291   */\n      dup3\n        /* \"#utility.yul\":3274:3283   */\n      dup7\n        /* \"#utility.yul\":3270:3292   */\n      add\n        /* \"#utility.yul\":3249:3302   */\n      tag_163\n      jump\t// in\n    tag_194:\n        /* \"#utility.yul\":3239:3302   */\n      swap2\n      pop\n        /* \"#utility.yul\":3194:3312   */\n      pop\n        /* \"#utility.yul\":2845:3319   */\n      swap3\n      pop\n      swap3\n      swap1\n      pop\n      jump\t// out\n        /* \"#utility.yul\":3325:3434   */\n    tag_195:\n        /* \"#utility.yul\":3406:3427   */\n      tag_197\n        /* \"#utility.yul\":3421:3426   */\n      dup2\n        /* \"#utility.yul\":3406:3427   */\n      tag_198\n      jump\t// in\n    tag_197:\n        /* \"#utility.yul\":3401:3404   */\n      dup3\n        /* \"#utility.yul\":3394:3428   */\n      mstore\n        /* \"#utility.yul\":3325:3434   */\n      pop\n      pop\n      jump\t// out\n        /* \"#utility.yul\":3464:3781   */\n    tag_199:\n        /* \"#utility.yul\":3580:3583   */\n      0x00\n        /* \"#utility.yul\":3601:3690   */\n      tag_201\n        /* \"#utility.yul\":3683:3689   */\n      dup4\n        /* \"#utility.yul\":3678:3681   */\n      dup6\n        /* \"#utility.yul\":3601:3690   */\n      tag_202\n      jump\t// in\n    tag_201:\n        /* \"#utility.yul\":3594:3690   */\n      swap4\n      pop\n        /* \"#utility.yul\":3700:3743   */\n      tag_203\n        /* \"#utility.yul\":3736:3742   */\n      dup4\n        /* \"#utility.yul\":3731:3734   */\n      dup6\n        /* \"#utility.yul\":3724:3729   */\n      dup5\n        /* \"#utility.yul\":3700:3743   */\n      tag_204\n      jump\t// in\n    tag_203:\n        /* \"#utility.yul\":3768:3774   */\n      dup3\n        /* \"#utility.yul\":3763:3766   */\n      dup5\n        /* \"#utility.yul\":3759:3775   */\n      add\n        /* \"#utility.yul\":3752:3775   */\n      swap1\n      pop\n        /* \"#utility.yul\":3464:3781   */\n      swap4\n      swap3\n      pop\n      pop\n      pop\n      jump\t// out\n        /* \"#utility.yul\":3787:4151   */\n    tag_205:\n        /* \"#utility.yul\":3875:3878   */\n      0x00\n        /* \"#utility.yul\":3903:3942   */\n      tag_207\n        /* \"#utility.yul\":3936:3941   */\n      dup3\n        /* \"#utility.yul\":3903:3942   */\n      tag_208\n      jump\t// in\n    tag_207:\n        /* \"#utility.yul\":3958:4029   */\n      tag_209\n        /* \"#utility.yul\":4022:4028   */\n      dup2\n        /* \"#utility.yul\":4017:4020   */\n      dup6\n        /* \"#utility.yul\":3958:4029   */\n      tag_210\n      jump\t// in\n    tag_209:\n        /* \"#utility.yul\":3951:4029   */\n      swap4\n      pop\n        /* \"#utility.yul\":4038:4090   */\n      tag_211\n        /* \"#utility.yul\":4083:4089   */\n      dup2\n        /* \"#utility.yul\":4078:4081   */\n      dup6\n        /* \"#utility.yul\":4071:4075   */\n      0x20\n        /* \"#utility.yul\":4064:4069   */\n      dup7\n        /* \"#utility.yul\":4060:4076   */\n      add\n        /* \"#utility.yul\":4038:4090   */\n      tag_212\n      jump\t// in\n    tag_211:\n        /* \"#utility.yul\":4115:4144   */\n      tag_213\n        /* \"#utility.yul\":4137:4143   */\n      dup2\n        /* \"#utility.yul\":4115:4144   */\n      tag_214\n      jump\t// in\n    tag_213:\n        /* \"#utility.yul\":4110:4113   */\n      dup5\n        /* \"#utility.yul\":4106:4145   */\n      add\n        /* \"#utility.yul\":4099:4145   */\n      swap2\n      pop\n        /* \"#utility.yul\":3879:4151   */\n      pop\n        /* \"#utility.yul\":3787:4151   */\n      swap3\n      swap2\n      pop\n      pop\n      jump\t// out\n        /* \"#utility.yul\":4157:4555   */\n    tag_215:\n        /* \"#utility.yul\":4316:4319   */\n      0x00\n        /* \"#utility.yul\":4337:4420   */\n      tag_217\n        /* \"#utility.yul\":4418:4419   */\n      0x00\n        /* \"#utility.yul\":4413:4416   */\n      dup4\n        /* \"#utility.yul\":4337:4420   */\n      tag_218\n      jump\t// in\n    tag_217:\n        /* \"#utility.yul\":4330:4420   */\n      swap2\n      pop\n        /* \"#utility.yul\":4429:4522   */\n      tag_219\n        /* \"#utility.yul\":4518:4521   */\n      dup3\n        /* \"#utility.yul\":4429:4522   */\n      tag_220\n      jump\t// in\n    tag_219:\n        /* \"#utility.yul\":4547:4548   */\n      0x00\n        /* \"#utility.yul\":4542:4545   */\n      dup3\n        /* \"#utility.yul\":4538:4549   */\n      add\n        /* \"#utility.yul\":4531:4549   */\n      swap1\n      pop\n        /* \"#utility.yul\":4157:4555   */\n      swap2\n      swap1\n      pop\n      jump\t// out\n        /* \"#utility.yul\":4561:4679   */\n    tag_221:\n        /* \"#utility.yul\":4648:4672   */\n      tag_223\n        /* \"#utility.yul\":4666:4671   */\n      dup2\n        /* \"#utility.yul\":4648:4672   */\n      tag_224\n      jump\t// in\n    tag_223:\n        /* \"#utility.yul\":4643:4646   */\n      dup3\n        /* \"#utility.yul\":4636:4673   */\n      mstore\n        /* \"#utility.yul\":4561:4679   */\n      pop\n      pop\n      jump\t// out\n        /* \"#utility.yul\":4685:4980   */\n    tag_63:\n        /* \"#utility.yul\":4827:4830   */\n      0x00\n        /* \"#utility.yul\":4849:4954   */\n      tag_226\n        /* \"#utility.yul\":4950:4953   */\n      dup3\n        /* \"#utility.yul\":4941:4947   */\n      dup5\n        /* \"#utility.yul\":4933:4939   */\n      dup7\n        /* \"#utility.yul\":4849:4954   */\n      tag_199\n      jump\t// in\n    tag_226:\n        /* \"#utility.yul\":4842:4954   */\n      swap2\n      pop\n        /* \"#utility.yul\":4971:4974   */\n      dup2\n        /* \"#utility.yul\":4964:4974   */\n      swap1\n      pop\n        /* \"#utility.yul\":4685:4980   */\n      swap4\n      swap3\n      pop\n      pop\n      pop\n      jump\t// out\n        /* \"#utility.yul\":4986:5365   */\n    tag_88:\n        /* \"#utility.yul\":5170:5173   */\n      0x00\n        /* \"#utility.yul\":5192:5339   */\n      tag_228\n        /* \"#utility.yul\":5335:5338   */\n      dup3\n        /* \"#utility.yul\":5192:5339   */\n      tag_215\n      jump\t// in\n    tag_228:\n        /* \"#utility.yul\":5185:5339   */\n      swap2\n      pop\n        /* \"#utility.yul\":5356:5359   */\n      dup2\n        /* \"#utility.yul\":5349:5359   */\n      swap1\n      pop\n        /* \"#utility.yul\":4986:5365   */\n      swap2\n      swap1\n      pop\n      jump\t// out\n        /* \"#utility.yul\":5371:5684   */\n    tag_51:\n        /* \"#utility.yul\":5484:5488   */\n      0x00\n        /* \"#utility.yul\":5522:5524   */\n      0x20\n        /* \"#utility.yul\":5511:5520   */\n      dup3\n        /* \"#utility.yul\":5507:5525   */\n      add\n        /* \"#utility.yul\":5499:5525   */\n      swap1\n      pop\n        /* \"#utility.yul\":5571:5580   */\n      dup2\n        /* \"#utility.yul\":5565:5569   */\n      dup2\n        /* \"#utility.yul\":5561:5581   */\n      sub\n        /* \"#utility.yul\":5557:5558   */\n      0x00\n        /* \"#utility.yul\":5546:5555   */\n      dup4\n        /* \"#utility.yul\":5542:5559   */\n      add\n        /* \"#utility.yul\":5535:5582   */\n      mstore\n        /* \"#utility.yul\":5599:5677   */\n      tag_230\n        /* \"#utility.yul\":5672:5676   */\n      dup2\n        /* \"#utility.yul\":5663:5669   */\n      dup5\n        /* \"#utility.yul\":5599:5677   */\n      tag_205\n      jump\t// in\n    tag_230:\n        /* \"#utility.yul\":5591:5677   */\n      swap1\n      pop\n        /* \"#utility.yul\":5371:5684   */\n      swap3\n      swap2\n      pop\n      pop\n      jump\t// out\n        /* \"#utility.yul\":5690:5912   */\n    tag_58:\n        /* \"#utility.yul\":5783:5787   */\n      0x00\n        /* \"#utility.yul\":5821:5823   */\n      0x20\n        /* \"#utility.yul\":5810:5819   */\n      dup3\n        /* \"#utility.yul\":5806:5824   */\n      add\n        /* \"#utility.yul\":5798:5824   */\n      swap1\n      pop\n        /* \"#utility.yul\":5834:5905   */\n      tag_232\n        /* \"#utility.yul\":5902:5903   */\n      0x00\n        /* \"#utility.yul\":5891:5900   */\n      dup4\n        /* \"#utility.yul\":5887:5904   */\n      add\n        /* \"#utility.yul\":5878:5884   */\n      dup5\n        /* \"#utility.yul\":5834:5905   */\n      tag_221\n      jump\t// in\n    tag_232:\n        /* \"#utility.yul\":5690:5912   */\n      swap3\n      swap2\n      pop\n      pop\n      jump\t// out\n        /* \"#utility.yul\":5918:6250   */\n    tag_93:\n        /* \"#utility.yul\":6039:6043   */\n      0x00\n        /* \"#utility.yul\":6077:6079   */\n      0x40\n        /* \"#utility.yul\":6066:6075   */\n      dup3\n        /* \"#utility.yul\":6062:6080   */\n      add\n        /* \"#utility.yul\":6054:6080   */\n      swap1\n      pop\n        /* \"#utility.yul\":6090:6161   */\n      tag_234\n        /* \"#utility.yul\":6158:6159   */\n      0x00\n        /* \"#utility.yul\":6147:6156   */\n      dup4\n        /* \"#utility.yul\":6143:6160   */\n      add\n        /* \"#utility.yul\":6134:6140   */\n      dup6\n        /* \"#utility.yul\":6090:6161   */\n      tag_221\n      jump\t// in\n    tag_234:\n        /* \"#utility.yul\":6171:6243   */\n      tag_235\n        /* \"#utility.yul\":6239:6241   */\n      0x20\n        /* \"#utility.yul\":6228:6237   */\n      dup4\n        /* \"#utility.yul\":6224:6242   */\n      add\n        /* \"#utility.yul\":6215:6221   */\n      dup5\n        /* \"#utility.yul\":6171:6243   */\n      tag_221\n      jump\t// in\n    tag_235:\n        /* \"#utility.yul\":5918:6250   */\n      swap4\n      swap3\n      pop\n      pop\n      pop\n      jump\t// out\n        /* \"#utility.yul\":6256:6888   */\n    tag_37:\n        /* \"#utility.yul\":6447:6451   */\n      0x00\n        /* \"#utility.yul\":6485:6488   */\n      0x80\n        /* \"#utility.yul\":6474:6483   */\n      dup3\n        /* \"#utility.yul\":6470:6489   */\n      add\n        /* \"#utility.yul\":6462:6489   */\n      swap1\n      pop\n        /* \"#utility.yul\":6499:6570   */\n      tag_237\n        /* \"#utility.yul\":6567:6568   */\n      0x00\n        /* \"#utility.yul\":6556:6565   */\n      dup4\n        /* \"#utility.yul\":6552:6569   */\n      add\n        /* \"#utility.yul\":6543:6549   */\n      dup8\n        /* \"#utility.yul\":6499:6570   */\n      tag_221\n      jump\t// in\n    tag_237:\n        /* \"#utility.yul\":6580:6652   */\n      tag_238\n        /* \"#utility.yul\":6648:6650   */\n      0x20\n        /* \"#utility.yul\":6637:6646   */\n      dup4\n        /* \"#utility.yul\":6633:6651   */\n      add\n        /* \"#utility.yul\":6624:6630   */\n      dup7\n        /* \"#utility.yul\":6580:6652   */\n      tag_221\n      jump\t// in\n    tag_238:\n        /* \"#utility.yul\":6699:6708   */\n      dup2\n        /* \"#utility.yul\":6693:6697   */\n      dup2\n        /* \"#utility.yul\":6689:6709   */\n      sub\n        /* \"#utility.yul\":6684:6686   */\n      0x40\n        /* \"#utility.yul\":6673:6682   */\n      dup4\n        /* \"#utility.yul\":6669:6687   */\n      add\n        /* \"#utility.yul\":6662:6710   */\n      mstore\n        /* \"#utility.yul\":6727:6805   */\n      tag_239\n        /* \"#utility.yul\":6800:6804   */\n      dup2\n        /* \"#utility.yul\":6791:6797   */\n      dup6\n        /* \"#utility.yul\":6727:6805   */\n      tag_205\n      jump\t// in\n    tag_239:\n        /* \"#utility.yul\":6719:6805   */\n      swap1\n      pop\n        /* \"#utility.yul\":6815:6881   */\n      tag_240\n        /* \"#utility.yul\":6877:6879   */\n      0x60\n        /* \"#utility.yul\":6866:6875   */\n      dup4\n        /* \"#utility.yul\":6862:6880   */\n      add\n        /* \"#utility.yul\":6853:6859   */\n      dup5\n        /* \"#utility.yul\":6815:6881   */\n      tag_195\n      jump\t// in\n    tag_240:\n        /* \"#utility.yul\":6256:6888   */\n      swap6\n      swap5\n      pop\n      pop\n      pop\n      pop\n      pop\n      jump\t// out\n        /* \"#utility.yul\":6894:7336   */\n    tag_31:\n        /* \"#utility.yul\":7043:7047   */\n      0x00\n        /* \"#utility.yul\":7081:7083   */\n      0x60\n        /* \"#utility.yul\":7070:7079   */\n      dup3\n        /* \"#utility.yul\":7066:7084   */\n      add\n        /* \"#utility.yul\":7058:7084   */\n      swap1\n      pop\n        /* \"#utility.yul\":7094:7165   */\n      tag_242\n        /* \"#utility.yul\":7162:7163   */\n      0x00\n        /* \"#utility.yul\":7151:7160   */\n      dup4\n        /* \"#utility.yul\":7147:7164   */\n      add\n        /* \"#utility.yul\":7138:7144   */\n      dup7\n        /* \"#utility.yul\":7094:7165   */\n      tag_221\n      jump\t// in\n    tag_242:\n        /* \"#utility.yul\":7175:7247   */\n      tag_243\n        /* \"#utility.yul\":7243:7245   */\n      0x20\n        /* \"#utility.yul\":7232:7241   */\n      dup4\n        /* \"#utility.yul\":7228:7246   */\n      add\n        /* \"#utility.yul\":7219:7225   */\n      dup6\n        /* \"#utility.yul\":7175:7247   */\n      tag_221\n      jump\t// in\n    tag_243:\n        /* \"#utility.yul\":7257:7329   */\n      tag_244\n        /* \"#utility.yul\":7325:7327   */\n      0x40\n        /* \"#utility.yul\":7314:7323   */\n      dup4\n        /* \"#utility.yul\":7310:7328   */\n      add\n        /* \"#utility.yul\":7301:7307   */\n      dup5\n        /* \"#utility.yul\":7257:7329   */\n      tag_221\n      jump\t// in\n    tag_244:\n        /* \"#utility.yul\":6894:7336   */\n      swap5\n      swap4\n      pop\n      pop\n      pop\n      pop\n      jump\t// out\n        /* \"#utility.yul\":7423:7522   */\n    tag_208:\n        /* \"#utility.yul\":7475:7481   */\n      0x00\n        /* \"#utility.yul\":7509:7514   */\n      dup2\n        /* \"#utility.yul\":7503:7515   */\n      mload\n        /* \"#utility.yul\":7493:7515   */\n      swap1\n      pop\n        /* \"#utility.yul\":7423:7522   */\n      swap2\n      swap1\n      pop\n      jump\t// out\n        /* \"#utility.yul\":7528:7675   */\n    tag_218:\n        /* \"#utility.yul\":7629:7640   */\n      0x00\n        /* \"#utility.yul\":7666:7669   */\n      dup2\n        /* \"#utility.yul\":7651:7669   */\n      swap1\n      pop\n        /* \"#utility.yul\":7528:7675   */\n      swap3\n      swap2\n      pop\n      pop\n      jump\t// out\n        /* \"#utility.yul\":7681:7850   */\n    tag_210:\n        /* \"#utility.yul\":7765:7776   */\n      0x00\n        /* \"#utility.yul\":7799:7805   */\n      dup3\n        /* \"#utility.yul\":7794:7797   */\n      dup3\n        /* \"#utility.yul\":7787:7806   */\n      mstore\n        /* \"#utility.yul\":7839:7843   */\n      0x20\n        /* \"#utility.yul\":7834:7837   */\n      dup3\n        /* \"#utility.yul\":7830:7844   */\n      add\n        /* \"#utility.yul\":7815:7844   */\n      swap1\n      pop\n        /* \"#utility.yul\":7681:7850   */\n      swap3\n      swap2\n      pop\n      pop\n      jump\t// out\n        /* \"#utility.yul\":7856:8004   */\n    tag_202:\n        /* \"#utility.yul\":7958:7969   */\n      0x00\n        /* \"#utility.yul\":7995:7998   */\n      dup2\n        /* \"#utility.yul\":7980:7998   */\n      swap1\n      pop\n        /* \"#utility.yul\":7856:8004   */\n      swap3\n      swap2\n      pop\n      pop\n      jump\t// out\n        /* \"#utility.yul\":8010:8315   */\n    tag_82:\n        /* \"#utility.yul\":8050:8053   */\n      0x00\n        /* \"#utility.yul\":8069:8089   */\n      tag_252\n        /* \"#utility.yul\":8087:8088   */\n      dup3\n        /* \"#utility.yul\":8069:8089   */\n      tag_224\n      jump\t// in\n    tag_252:\n        /* \"#utility.yul\":8064:8089   */\n      swap2\n      pop\n        /* \"#utility.yul\":8103:8123   */\n      tag_253\n        /* \"#utility.yul\":8121:8122   */\n      dup4\n        /* \"#utility.yul\":8103:8123   */\n      tag_224\n      jump\t// in\n    tag_253:\n        /* \"#utility.yul\":8098:8123   */\n      swap3\n      pop\n        /* \"#utility.yul\":8257:8258   */\n      dup3\n        /* \"#utility.yul\":8189:8255   */\n      0xffffffffffffffffffffffffffffffffffffffffffffffffffffffffffffffff\n        /* \"#utility.yul\":8185:8259   */\n      sub\n        /* \"#utility.yul\":8182:8183   */\n      dup3\n        /* \"#utility.yul\":8179:8260   */\n      gt\n        /* \"#utility.yul\":8176:8283   */\n      iszero\n      tag_254\n      jumpi\n        /* \"#utility.yul\":8263:8281   */\n      tag_255\n      tag_256\n      jump\t// in\n    tag_255:\n        /* \"#utility.yul\":8176:8283   */\n    tag_254:\n        /* \"#utility.yul\":8307:8308   */\n      dup3\n        /* \"#utility.yul\":8304:8305   */\n      dup3\n        /* \"#utility.yul\":8300:8309   */\n      add\n        /* \"#utility.yul\":8293:8309   */\n      swap1\n      pop\n        /* \"#utility.yul\":8010:8315   */\n      swap3\n      swap2\n      pop\n      pop\n      jump\t// out\n        /* \"#utility.yul\":8321:8512   */\n    tag_77:\n        /* \"#utility.yul\":8361:8365   */\n      0x00\n        /* \"#utility.yul\":8381:8401   */\n      tag_258\n        /* \"#utility.yul\":8399:8400   */\n      dup3\n        /* \"#utility.yul\":8381:8401   */\n      tag_224\n      jump\t// in\n    tag_258:\n        /* \"#utility.yul\":8376:8401   */\n      swap2\n      pop\n        /* \"#utility.yul\":8415:8435   */\n      tag_259\n        /* \"#utility.yul\":8433:8434   */\n      dup4\n        /* \"#utility.yul\":8415:8435   */\n      tag_224\n      jump\t// in\n    tag_259:\n        /* \"#utility.yul\":8410:8435   */\n      swap3\n      pop\n        /* \"#utility.yul\":8454:8455   */\n      dup3\n        /* \"#utility.yul\":8451:8452   */\n      dup3\n        /* \"#utility.yul\":8448:8456   */\n      lt\n        /* \"#utility.yul\":8445:8479   */\n      iszero\n      tag_260\n      jumpi\n        /* \"#utility.yul\":8459:8477   */\n      tag_261\n      tag_256\n      jump\t// in\n    tag_261:\n        /* \"#utility.yul\":8445:8479   */\n    tag_260:\n        /* \"#utility.yul\":8504:8505   */\n      dup3\n        /* \"#utility.yul\":8501:8502   */\n      dup3\n        /* \"#utility.yul\":8497:8506   */\n      sub\n        /* \"#utility.yul\":8489:8506   */\n      swap1\n      pop\n        /* \"#utility.yul\":8321:8512   */\n      swap3\n      swap2\n      pop\n      pop\n      jump\t// out\n        /* \"#utility.yul\":8518:8614   */\n    tag_262:\n        /* \"#utility.yul\":8555:8562   */\n      0x00\n        /* \"#utility.yul\":8584:8608   */\n      tag_264\n        /* \"#utility.yul\":8602:8607   */\n      dup3\n        /* \"#utility.yul\":8584:8608   */\n      tag_265\n      jump\t// in\n    tag_264:\n        /* \"#utility.yul\":8573:8608   */\n      swap1\n      pop\n        /* \"#utility.yul\":8518:8614   */\n      swap2\n      swap1\n      pop\n      jump\t// out\n        /* \"#utility.yul\":8620:8710   */\n    tag_198:\n        /* \"#utility.yul\":8654:8661   */\n      0x00\n        /* \"#utility.yul\":8697:8702   */\n      dup2\n        /* \"#utility.yul\":8690:8703   */\n      iszero\n        /* \"#utility.yul\":8683:8704   */\n      iszero\n        /* \"#utility.yul\":8672:8704   */\n      swap1\n      pop\n        /* \"#utility.yul\":8620:8710   */\n      swap2\n      swap1\n      pop\n      jump\t// out\n        /* \"#utility.yul\":8716:8842   */\n    tag_265:\n        /* \"#utility.yul\":8753:8760   */\n      0x00\n        /* \"#utility.yul\":8793:8835   */\n      0xffffffffffffffffffffffffffffffffffffffff\n        /* \"#utility.yul\":8786:8791   */\n      dup3\n        /* \"#utility.yul\":8782:8836   */\n      and\n        /* \"#utility.yul\":8771:8836   */\n      swap1\n      pop\n        /* \"#utility.yul\":8716:8842   */\n      swap2\n      swap1\n      pop\n      jump\t// out\n        /* \"#utility.yul\":8848:8925   */\n    tag_224:\n        /* \"#utility.yul\":8885:8892   */\n      0x00\n        /* \"#utility.yul\":8914:8919   */\n      dup2\n        /* \"#utility.yul\":8903:8919   */\n      swap1\n      pop\n        /* \"#utility.yul\":8848:8925   */\n      swap2\n      swap1\n      pop\n      jump\t// out\n        /* \"#utility.yul\":8931:9085   */\n    tag_204:\n        /* \"#utility.yul\":9015:9021   */\n      dup3\n        /* \"#utility.yul\":9010:9013   */\n      dup2\n        /* \"#utility.yul\":9005:9008   */\n      dup4\n        /* \"#utility.yul\":8992:9022   */\n      calldatacopy\n        /* \"#utility.yul\":9077:9078   */\n      0x00\n        /* \"#utility.yul\":9068:9074   */\n      dup4\n        /* \"#utility.yul\":9063:9066   */\n      dup4\n        /* \"#utility.yul\":9059:9075   */\n      add\n        /* \"#utility.yul\":9052:9079   */\n      mstore\n        /* \"#utility.yul\":8931:9085   */\n      pop\n      pop\n      pop\n      jump\t// out\n        /* \"#utility.yul\":9091:9398   */\n    tag_212:\n        /* \"#utility.yul\":9159:9160   */\n      0x00\n        /* \"#utility.yul\":9169:9282   */\n    tag_271:\n        /* \"#utility.yul\":9183:9189   */\n      dup4\n        /* \"#utility.yul\":9180:9181   */\n      dup2\n        /* \"#utility.yul\":9177:9190   */\n      lt\n        /* \"#utility.yul\":9169:9282   */\n      iszero\n      tag_273\n      jumpi\n        /* \"#utility.yul\":9268:9269   */\n      dup1\n        /* \"#utility.yul\":9263:9266   */\n      dup3\n        /* \"#utility.yul\":9259:9270   */\n      add\n        /* \"#utility.yul\":9253:9271   */\n      mload\n        /* \"#utility.yul\":9249:9250   */\n      dup2\n        /* \"#utility.yul\":9244:9247   */\n      dup5\n        /* \"#utility.yul\":9240:9251   */\n      add\n        /* \"#utility.yul\":9233:9272   */\n      mstore\n        /* \"#utility.yul\":9205:9207   */\n      0x20\n        /* \"#utility.yul\":9202:9203   */\n      dup2\n        /* \"#utility.yul\":9198:9208   */\n      add\n        /* \"#utility.yul\":9193:9208   */\n      swap1\n      pop\n        /* \"#utility.yul\":9169:9282   */\n      jump(tag_271)\n    tag_273:\n        /* \"#utility.yul\":9300:9306   */\n      dup4\n        /* \"#utility.yul\":9297:9298   */\n      dup2\n        /* \"#utility.yul\":9294:9307   */\n      gt\n        /* \"#utility.yul\":9291:9392   */\n      iszero\n      tag_274\n      jumpi\n        /* \"#utility.yul\":9380:9381   */\n      0x00\n        /* \"#utility.yul\":9371:9377   */\n      dup5\n        /* \"#utility.yul\":9366:9369   */\n      dup5\n        /* \"#utility.yul\":9362:9378   */\n      add\n        /* \"#utility.yul\":9355:9382   */\n      mstore\n        /* \"#utility.yul\":9291:9392   */\n    tag_274:\n        /* \"#utility.yul\":9140:9398   */\n      pop\n        /* \"#utility.yul\":9091:9398   */\n      pop\n      pop\n      pop\n      jump\t// out\n        /* \"#utility.yul\":9404:9575   */\n    tag_114:\n        /* \"#utility.yul\":9443:9446   */\n      0x00\n        /* \"#utility.yul\":9466:9490   */\n      tag_276\n        /* \"#utility.yul\":9484:9489   */\n      dup3\n        /* \"#utility.yul\":9466:9490   */\n      tag_224\n      jump\t// in\n    tag_276:\n        /* \"#utility.yul\":9457:9490   */\n      swap2\n      pop\n        /* \"#utility.yul\":9512:9516   */\n      0x00\n        /* \"#utility.yul\":9505:9510   */\n      dup3\n        /* \"#utility.yul\":9502:9517   */\n      eq\n        /* \"#utility.yul\":9499:9540   */\n      iszero\n      tag_277\n      jumpi\n        /* \"#utility.yul\":9520:9538   */\n      tag_278\n      tag_256\n      jump\t// in\n    tag_278:\n        /* \"#utility.yul\":9499:9540   */\n    tag_277:\n        /* \"#utility.yul\":9567:9568   */\n      0x01\n        /* \"#utility.yul\":9560:9565   */\n      dup3\n        /* \"#utility.yul\":9556:9569   */\n      sub\n        /* \"#utility.yul\":9549:9569   */\n      swap1\n      pop\n        /* \"#utility.yul\":9404:9575   */\n      swap2\n      swap1\n      pop\n      jump\t// out\n        /* \"#utility.yul\":9581:9901   */\n    tag_96:\n        /* \"#utility.yul\":9625:9631   */\n      0x00\n        /* \"#utility.yul\":9662:9663   */\n      0x02\n        /* \"#utility.yul\":9656:9660   */\n      dup3\n        /* \"#utility.yul\":9652:9664   */\n      div\n        /* \"#utility.yul\":9642:9664   */\n      swap1\n      pop\n        /* \"#utility.yul\":9709:9710   */\n      0x01\n        /* \"#utility.yul\":9703:9707   */\n      dup3\n        /* \"#utility.yul\":9699:9711   */\n      and\n        /* \"#utility.yul\":9730:9748   */\n      dup1\n        /* \"#utility.yul\":9720:9801   */\n      tag_280\n      jumpi\n        /* \"#utility.yul\":9786:9790   */\n      0x7f\n        /* \"#utility.yul\":9778:9784   */\n      dup3\n        /* \"#utility.yul\":9774:9791   */\n      and\n        /* \"#utility.yul\":9764:9791   */\n      swap2\n      pop\n        /* \"#utility.yul\":9720:9801   */\n    tag_280:\n        /* \"#utility.yul\":9848:9850   */\n      0x20\n        /* \"#utility.yul\":9840:9846   */\n      dup3\n        /* \"#utility.yul\":9837:9851   */\n      lt\n        /* \"#utility.yul\":9817:9835   */\n      dup2\n        /* \"#utility.yul\":9814:9852   */\n      eq\n        /* \"#utility.yul\":9811:9895   */\n      iszero\n      tag_281\n      jumpi\n        /* \"#utility.yul\":9867:9885   */\n      tag_282\n      tag_283\n      jump\t// in\n    tag_282:\n        /* \"#utility.yul\":9811:9895   */\n    tag_281:\n        /* \"#utility.yul\":9632:9901   */\n      pop\n        /* \"#utility.yul\":9581:9901   */\n      swap2\n      swap1\n      pop\n      jump\t// out\n        /* \"#utility.yul\":9907:10140   */\n    tag_80:\n        /* \"#utility.yul\":9946:9949   */\n      0x00\n        /* \"#utility.yul\":9969:9993   */\n      tag_285\n        /* \"#utility.yul\":9987:9992   */\n      dup3\n        /* \"#utility.yul\":9969:9993   */\n      tag_224\n      jump\t// in\n    tag_285:\n        /* \"#utility.yul\":9960:9993   */\n      swap2\n      pop\n        /* \"#utility.yul\":10015:10081   */\n      0xffffffffffffffffffffffffffffffffffffffffffffffffffffffffffffffff\n        /* \"#utility.yul\":10008:10013   */\n      dup3\n        /* \"#utility.yul\":10005:10082   */\n      eq\n        /* \"#utility.yul\":10002:10105   */\n      iszero\n      tag_286\n      jumpi\n        /* \"#utility.yul\":10085:10103   */\n      tag_287\n      tag_256\n      jump\t// in\n    tag_287:\n        /* \"#utility.yul\":10002:10105   */\n    tag_286:\n        /* \"#utility.yul\":10132:10133   */\n      0x01\n        /* \"#utility.yul\":10125:10130   */\n      dup3\n        /* \"#utility.yul\":10121:10134   */\n      add\n        /* \"#utility.yul\":10114:10134   */\n      swap1\n      pop\n        /* \"#utility.yul\":9907:10140   */\n      swap2\n      swap1\n      pop\n      jump\t// out\n        /* \"#utility.yul\":10146:10326   */\n    tag_256:\n        /* \"#utility.yul\":10194:10271   */\n      0x4e487b7100000000000000000000000000000000000000000000000000000000\n        /* \"#utility.yul\":10191:10192   */\n      0x00\n        /* \"#utility.yul\":10184:10272   */\n      mstore\n        /* \"#utility.yul\":10291:10295   */\n      0x11\n        /* \"#utility.yul\":10288:10289   */\n      0x04\n        /* \"#utility.yul\":10281:10296   */\n      mstore\n        /* \"#utility.yul\":10315:10319   */\n      0x24\n        /* \"#utility.yul\":10312:10313   */\n      0x00\n        /* \"#utility.yul\":10305:10320   */\n      revert\n        /* \"#utility.yul\":10332:10512   */\n    tag_283:\n        /* \"#utility.yul\":10380:10457   */\n      0x4e487b7100000000000000000000000000000000000000000000000000000000\n        /* \"#utility.yul\":10377:10378   */\n      0x00\n        /* \"#utility.yul\":10370:10458   */\n      mstore\n        /* \"#utility.yul\":10477:10481   */\n      0x22\n        /* \"#utility.yul\":10474:10475   */\n      0x04\n        /* \"#utility.yul\":10467:10482   */\n      mstore\n        /* \"#utility.yul\":10501:10505   */\n      0x24\n        /* \"#utility.yul\":10498:10499   */\n      0x00\n        /* \"#utility.yul\":10491:10506   */\n      revert\n        /* \"#utility.yul\":10518:10635   */\n    tag_159:\n        /* \"#utility.yul\":10627:10628   */\n      0x00\n        /* \"#utility.yul\":10624:10625   */\n      dup1\n        /* \"#utility.yul\":10617:10629   */\n      revert\n        /* \"#utility.yul\":10641:10758   */\n    tag_156:\n        /* \"#utility.yul\":10750:10751   */\n      0x00\n        /* \"#utility.yul\":10747:10748   */\n      dup1\n        /* \"#utility.yul\":10740:10752   */\n      revert\n        /* \"#utility.yul\":10764:10881   */\n    tag_162:\n        /* \"#utility.yul\":10873:10874   */\n      0x00\n        /* \"#utility.yul\":10870:10871   */\n      dup1\n        /* \"#utility.yul\":10863:10875   */\n      revert\n        /* \"#utility.yul\":10887:11004   */\n    tag_177:\n        /* \"#utility.yul\":10996:10997   */\n      0x00\n        /* \"#utility.yul\":10993:10994   */\n      dup1\n        /* \"#utility.yul\":10986:10998   */\n      revert\n        /* \"#utility.yul\":11010:11127   */\n    tag_170:\n        /* \"#utility.yul\":11119:11120   */\n      0x00\n        /* \"#utility.yul\":11116:11117   */\n      dup1\n        /* \"#utility.yul\":11109:11121   */\n      revert\n        /* \"#utility.yul\":11133:11235   */\n    tag_214:\n        /* \"#utility.yul\":11174:11180   */\n      0x00\n        /* \"#utility.yul\":11225:11227   */\n      0x1f\n        /* \"#utility.yul\":11221:11228   */\n      not\n        /* \"#utility.yul\":11216:11218   */\n      0x1f\n        /* \"#utility.yul\":11209:11214   */\n      dup4\n        /* \"#utility.yul\":11205:11219   */\n      add\n        /* \"#utility.yul\":11201:11229   */\n      and\n        /* \"#utility.yul\":11191:11229   */\n      swap1\n      pop\n        /* \"#utility.yul\":11133:11235   */\n      swap2\n      swap1\n      pop\n      jump\t// out\n        /* \"#utility.yul\":11241:11355   */\n    tag_220:\n      pop\n      jump\t// out\n        /* \"#utility.yul\":11361:11483   */\n    tag_151:\n        /* \"#utility.yul\":11434:11458   */\n      tag_298\n        /* \"#utility.yul\":11452:11457   */\n      dup2\n        /* \"#utility.yul\":11434:11458   */\n      tag_262\n      jump\t// in\n    tag_298:\n        /* \"#utility.yul\":11427:11432   */\n      dup2\n        /* \"#utility.yul\":11424:11459   */\n      eq\n        /* \"#utility.yul\":11414:11477   */\n      tag_299\n      jumpi\n        /* \"#utility.yul\":11473:11474   */\n      0x00\n        /* \"#utility.yul\":11470:11471   */\n      dup1\n        /* \"#utility.yul\":11463:11475   */\n      revert\n        /* \"#utility.yul\":11414:11477   */\n    tag_299:\n        /* \"#utility.yul\":11361:11483   */\n      pop\n      jump\t// out\n        /* \"#utility.yul\":11489:11611   */\n    tag_166:\n        /* \"#utility.yul\":11562:11586   */\n      tag_301\n        /* \"#utility.yul\":11580:11585   */\n      dup2\n        /* \"#utility.yul\":11562:11586   */\n      tag_224\n      jump\t// in\n    tag_301:\n        /* \"#utility.yul\":11555:11560   */\n      dup2\n        /* \"#utility.yul\":11552:11587   */\n      eq\n        /* \"#utility.yul\":11542:11605   */\n      tag_302\n      jumpi\n        /* \"#utility.yul\":11601:11602   */\n      0x00\n        /* \"#utility.yul\":11598:11599   */\n      dup1\n        /* \"#utility.yul\":11591:11603   */\n      revert\n        /* \"#utility.yul\":11542:11605   */\n    tag_302:\n        /* \"#utility.yul\":11489:11611   */\n      pop\n      jump\t// out\n\n    auxdata: 0xa2646970667358221220614ed3c5178b754ac2cc7fb87e782e553bff4804f5772020d8a081a371d4943964736f6c63430008070033\n}\n",
				"bytecode": {
					"linkReferences": {},
					"object": "608060405234801561001057600080fd5b50600080339050803b91506000821115610056576040517f90ecc18a00000000000000000000000000000000000000000000000000000000815260040160405180910390fd5b336000806101000a81548173ffffffffffffffffffffffffffffffffffffffff021916908373ffffffffffffffffffffffffffffffffffffffff160217905550505061167b806100a76000396000f3fe6080604052600436106100865760003560e01c80637acc0b20116100595780637acc0b20146101335780638642269e146101735780639d64871c1461018f578063e4bcc7d4146101b8578063f3f43703146101f557610086565b80630a5bd44b1461008b578063131e407d146100b45780633ccfd60b146100dd57806374cbc350146100f4575b600080fd5b34801561009757600080fd5b506100b260048036038101906100ad91906110ca565b610232565b005b3480156100c057600080fd5b506100db60048036038101906100d6919061113e565b610485565b005b3480156100e957600080fd5b506100f2610718565b005b34801561010057600080fd5b5061011b6004803603810190610116919061116b565b6108dc565b60405161012a9392919061136a565b60405180910390f35b34801561013f57600080fd5b5061015a6004803603810190610155919061113e565b610913565b60405161016a949392919061131e565b60405180910390f35b61018d6004803603810190610188919061113e565b6109d8565b005b34801561019b57600080fd5b506101b660048036038101906101b191906111ab565b610ccf565b005b3480156101c457600080fd5b506101df60048036038101906101da919061113e565b610de5565b6040516101ec91906112b8565b60405180910390f35b34801561020157600080fd5b5061021c6004803603810190610217919061109d565b610e91565b60405161022991906112da565b60405180910390f35b60008054906101000a900473ffffffffffffffffffffffffffffffffffffffff1673ffffffffffffffffffffffffffffffffffffffff163373ffffffffffffffffffffffffffffffffffffffff16146102b7576040517f55098f2700000000000000000000000000000000000000000000000000000000815260040160405180910390fd5b600384846040516102c992919061128a565b908152602001604051809103902060009054906101000a900460ff1661044d576102f1610ea9565b828160000181815250508181602001818152505084848080601f016020809104026020016040519081016040528093929190818152602001838380828437600081840152601f19601f820116905080830192505050505050508160400181905250600181606001901515908115158152505080600260006001805490508152602001908152602001600020600082015181600001556020820151816001015560408201518160020190805190602001906103ac929190610ed3565b5060608201518160030160006101000a81548160ff0219169083151502179055509050506001600386866040516103e492919061128a565b908152602001604051809103902060006101000a81548160ff0219169083151502179055506001858590918060018154018082558091505060019003906000526020600020016000909192909192909192909192509190610446929190610f59565b505061047f565b6040517fb185df3a00000000000000000000000000000000000000000000000000000000815260040160405180910390fd5b50505050565b60016004600083815260200190815260200160002060003373ffffffffffffffffffffffffffffffffffffffff1673ffffffffffffffffffffffffffffffffffffffff1681526020019081526020016000206002015414156106e35760006004600083815260200190815260200160002060003373ffffffffffffffffffffffffffffffffffffffff1673ffffffffffffffffffffffffffffffffffffffff1681526020019081526020016000206040518060600160405290816000820154815260200160018201548152602001600282015481525050905060648160000151436105709190611429565b11156105a8576040517f6e9beb2100000000000000000000000000000000000000000000000000000000815260040160405180910390fd5b60026004600084815260200190815260200160002060003373ffffffffffffffffffffffffffffffffffffffff1673ffffffffffffffffffffffffffffffffffffffff1681526020019081526020016000206002018190555060026000838152602001908152602001600020600101600081548092919061062890611543565b91905055508060200151600560003373ffffffffffffffffffffffffffffffffffffffff1673ffffffffffffffffffffffffffffffffffffffff168152602001908152602001600020600082825461068091906113d3565b925050819055503373ffffffffffffffffffffffffffffffffffffffff167f0e9843d242cdcb115d3afd9ab5a425357c91b3aa1daef371857091cdc4e5c8be838360200151426040516106d59392919061136a565b60405180910390a250610715565b6040517fc55091df00000000000000000000000000000000000000000000000000000000815260040160405180910390fd5b50565b6000600560003373ffffffffffffffffffffffffffffffffffffffff1673ffffffffffffffffffffffffffffffffffffffff1681526020019081526020016000205411156108a8576000600560003373ffffffffffffffffffffffffffffffffffffffff1673ffffffffffffffffffffffffffffffffffffffff1681526020019081526020016000205490506000600560003373ffffffffffffffffffffffffffffffffffffffff1673ffffffffffffffffffffffffffffffffffffffff168152602001908152602001600020819055503373ffffffffffffffffffffffffffffffffffffffff168160405161080d906112a3565b60006040518083038185875af1925050503d806000811461084a576040519150601f19603f3d011682016040523d82523d6000602084013e61084f565b606091505b5050503373ffffffffffffffffffffffffffffffffffffffff167f5d58dbdaab76702fb71954d3bb700396bd3705822f6f3b75b16c689064abb02d824260405161089a9291906112f5565b60405180910390a2506108da565b6040517ff76aef6500000000000000000000000000000000000000000000000000000000815260040160405180910390fd5b565b6004602052816000526040600020602052806000526040600020600091509150508060000154908060010154908060020154905083565b600260205280600052604060002060009150905080600001549080600101549080600201805461094290611511565b80601f016020809104026020016040519081016040528092919081815260200182805461096e90611511565b80156109bb5780601f10610990576101008083540402835291602001916109bb565b820191906000526020600020905b81548152906001019060200180831161099e57829003601f168201915b5050505050908060030160009054906101000a900460ff16905084565b60018054905081108015610a40575060016004600083815260200190815260200160002060003373ffffffffffffffffffffffffffffffffffffffff1673ffffffffffffffffffffffffffffffffffffffff1681526020019081526020016000206002015414155b15610c9a576000600260008381526020019081526020016000206040518060800160405290816000820154815260200160018201548152602001600282018054610a8990611511565b80601f0160208091040260200160405190810160405280929190818152602001828054610ab590611511565b8015610b025780601f10610ad757610100808354040283529160200191610b02565b820191906000526020600020905b815481529060010190602001808311610ae557829003601f168201915b505050505081526020016003820160009054906101000a900460ff16151515158152505090508060000151341080610b3e575060018160200151105b15610b75576040517ff80236cc00000000000000000000000000000000000000000000000000000000815260040160405180910390fd5b610b7d610fdf565b4381600001818152505081600001518160200181815250506001816040018181525050806004600085815260200190815260200160002060003373ffffffffffffffffffffffffffffffffffffffff1673ffffffffffffffffffffffffffffffffffffffff168152602001908152602001600020600082015181600001556020820151816001015560408201518160020155905050600260008481526020019081526020016000206001016000815480929190610c39906114e7565b91905055503373ffffffffffffffffffffffffffffffffffffffff16837f669d67bb432d7e9516c3668af7dbbe4387aff51ab2dc26b0cddecebcbb7f2d58846000015142604051610c8b9291906112f5565b60405180910390a35050610ccc565b6040517fd42c9b8b00000000000000000000000000000000000000000000000000000000815260040160405180910390fd5b50565b60008054906101000a900473ffffffffffffffffffffffffffffffffffffffff1673ffffffffffffffffffffffffffffffffffffffff163373ffffffffffffffffffffffffffffffffffffffff1614610d54576040517f55098f2700000000000000000000000000000000000000000000000000000000815260040160405180910390fd5b6002600083815260200190815260200160002060030160009054906101000a900460ff1615610daf5780600260008481526020019081526020016000206001016000828254610da391906113d3565b92505081905550610de1565b6040517f7e8d96a900000000000000000000000000000000000000000000000000000000815260040160405180910390fd5b5050565b60018181548110610df557600080fd5b906000526020600020016000915090508054610e1090611511565b80601f0160208091040260200160405190810160405280929190818152602001828054610e3c90611511565b8015610e895780601f10610e5e57610100808354040283529160200191610e89565b820191906000526020600020905b815481529060010190602001808311610e6c57829003601f168201915b505050505081565b60056020528060005260406000206000915090505481565b60405180608001604052806000815260200160008152602001606081526020016000151581525090565b828054610edf90611511565b90600052602060002090601f016020900481019282610f015760008555610f48565b82601f10610f1a57805160ff1916838001178555610f48565b82800160010185558215610f48579182015b82811115610f47578251825591602001919060010190610f2c565b5b509050610f559190611000565b5090565b828054610f6590611511565b90600052602060002090601f016020900481019282610f875760008555610fce565b82601f10610fa057803560ff1916838001178555610fce565b82800160010185558215610fce579182015b82811115610fcd578235825591602001919060010190610fb2565b5b509050610fdb9190611000565b5090565b60405180606001604052806000815260200160008152602001600081525090565b5b80821115611019576000816000905550600101611001565b5090565b60008135905061102c81611617565b92915050565b60008083601f840112611048576110476115ef565b5b8235905067ffffffffffffffff811115611065576110646115ea565b5b602083019150836001820283011115611081576110806115f4565b5b9250929050565b6000813590506110978161162e565b92915050565b6000602082840312156110b3576110b26115fe565b5b60006110c18482850161101d565b91505092915050565b600080600080606085870312156110e4576110e36115fe565b5b600085013567ffffffffffffffff811115611102576111016115f9565b5b61110e87828801611032565b9450945050602061112187828801611088565b925050604061113287828801611088565b91505092959194509250565b600060208284031215611154576111536115fe565b5b600061116284828501611088565b91505092915050565b60008060408385031215611182576111816115fe565b5b600061119085828601611088565b92505060206111a18582860161101d565b9150509250929050565b600080604083850312156111c2576111c16115fe565b5b60006111d085828601611088565b92505060206111e185828601611088565b9150509250929050565b6111f48161146f565b82525050565b600061120683856113c8565b93506112138385846114a5565b82840190509392505050565b600061122a826113a1565b61123481856113b7565b93506112448185602086016114b4565b61124d81611603565b840191505092915050565b60006112656000836113ac565b915061127082611614565b600082019050919050565b6112848161149b565b82525050565b60006112978284866111fa565b91508190509392505050565b60006112ae82611258565b9150819050919050565b600060208201905081810360008301526112d2818461121f565b905092915050565b60006020820190506112ef600083018461127b565b92915050565b600060408201905061130a600083018561127b565b611317602083018461127b565b9392505050565b6000608082019050611333600083018761127b565b611340602083018661127b565b8181036040830152611352818561121f565b905061136160608301846111eb565b95945050505050565b600060608201905061137f600083018661127b565b61138c602083018561127b565b611399604083018461127b565b949350505050565b600081519050919050565b600081905092915050565b600082825260208201905092915050565b600081905092915050565b60006113de8261149b565b91506113e98361149b565b9250827fffffffffffffffffffffffffffffffffffffffffffffffffffffffffffffffff0382111561141e5761141d61158c565b5b828201905092915050565b60006114348261149b565b915061143f8361149b565b9250828210156114525761145161158c565b5b828203905092915050565b60006114688261147b565b9050919050565b60008115159050919050565b600073ffffffffffffffffffffffffffffffffffffffff82169050919050565b6000819050919050565b82818337600083830152505050565b60005b838110156114d25780820151818401526020810190506114b7565b838111156114e1576000848401525b50505050565b60006114f28261149b565b915060008214156115065761150561158c565b5b600182039050919050565b6000600282049050600182168061152957607f821691505b6020821081141561153d5761153c6115bb565b5b50919050565b600061154e8261149b565b91507fffffffffffffffffffffffffffffffffffffffffffffffffffffffffffffffff8214156115815761158061158c565b5b600182019050919050565b7f4e487b7100000000000000000000000000000000000000000000000000000000600052601160045260246000fd5b7f4e487b7100000000000000000000000000000000000000000000000000000000600052602260045260246000fd5b600080fd5b600080fd5b600080fd5b600080fd5b600080fd5b6000601f19601f8301169050919050565b50565b6116208161145d565b811461162b57600080fd5b50565b6116378161149b565b811461164257600080fd5b5056fea2646970667358221220614ed3c5178b754ac2cc7fb87e782e553bff4804f5772020d8a081a371d4943964736f6c63430008070033",
					"opcodes": "PUSH1 0x80 PUSH1 0x40 MSTORE CALLVALUE DUP1 ISZERO PUSH2 0x10 JUMPI PUSH1 0x0 DUP1 REVERT JUMPDEST POP PUSH1 0x0 DUP1 CALLER SWAP1 POP DUP1 EXTCODESIZE SWAP2 POP PUSH1 0x0 DUP3 GT ISZERO PUSH2 0x56 JUMPI PUSH1 0x40 MLOAD PUSH32 0x90ECC18A00000000000000000000000000000000000000000000000000000000 DUP2 MSTORE PUSH1 0x4 ADD PUSH1 0x40 MLOAD DUP1 SWAP2 SUB SWAP1 REVERT JUMPDEST CALLER PUSH1 0x0 DUP1 PUSH2 0x100 EXP DUP2 SLOAD DUP2 PUSH20 0xFFFFFFFFFFFFFFFFFFFFFFFFFFFFFFFFFFFFFFFF MUL NOT AND SWAP1 DUP4 PUSH20 0xFFFFFFFFFFFFFFFFFFFFFFFFFFFFFFFFFFFFFFFF AND MUL OR SWAP1 SSTORE POP POP POP PUSH2 0x167B DUP1 PUSH2 0xA7 PUSH1 0x0 CODECOPY PUSH1 0x0 RETURN INVALID PUSH1 0x80 PUSH1 0x40 MSTORE PUSH1 0x4 CALLDATASIZE LT PUSH2 0x86 JUMPI PUSH1 0x0 CALLDATALOAD PUSH1 0xE0 SHR DUP1 PUSH4 0x7ACC0B20 GT PUSH2 0x59 JUMPI DUP1 PUSH4 0x7ACC0B20 EQ PUSH2 0x133 JUMPI DUP1 PUSH4 0x8642269E EQ PUSH2 0x173 JUMPI DUP1 PUSH4 0x9D64871C EQ PUSH2 0x18F JUMPI DUP1 PUSH4 0xE4BCC7D4 EQ PUSH2 0x1B8 JUMPI DUP1 PUSH4 0xF3F43703 EQ PUSH2 0x1F5 JUMPI PUSH2 0x86 JUMP JUMPDEST DUP1 PUSH4 0xA5BD44B EQ PUSH2 0x8B JUMPI DUP1 PUSH4 0x131E407D EQ PUSH2 0xB4 JUMPI DUP1 PUSH4 0x3CCFD60B EQ PUSH2 0xDD JUMPI DUP1 PUSH4 0x74CBC350 EQ PUSH2 0xF4 JUMPI JUMPDEST PUSH1 0x0 DUP1 REVERT JUMPDEST CALLVALUE DUP1 ISZERO PUSH2 0x97 JUMPI PUSH1 0x0 DUP1 REVERT JUMPDEST POP PUSH2 0xB2 PUSH1 0x4 DUP1 CALLDATASIZE SUB DUP2 ADD SWAP1 PUSH2 0xAD SWAP2 SWAP1 PUSH2 0x10CA JUMP JUMPDEST PUSH2 0x232 JUMP JUMPDEST STOP JUMPDEST CALLVALUE DUP1 ISZERO PUSH2 0xC0 JUMPI PUSH1 0x0 DUP1 REVERT JUMPDEST POP PUSH2 0xDB PUSH1 0x4 DUP1 CALLDATASIZE SUB DUP2 ADD SWAP1 PUSH2 0xD6 SWAP2 SWAP1 PUSH2 0x113E JUMP JUMPDEST PUSH2 0x485 JUMP JUMPDEST STOP JUMPDEST CALLVALUE DUP1 ISZERO PUSH2 0xE9 JUMPI PUSH1 0x0 DUP1 REVERT JUMPDEST POP PUSH2 0xF2 PUSH2 0x718 JUMP JUMPDEST STOP JUMPDEST CALLVALUE DUP1 ISZERO PUSH2 0x100 JUMPI PUSH1 0x0 DUP1 REVERT JUMPDEST POP PUSH2 0x11B PUSH1 0x4 DUP1 CALLDATASIZE SUB DUP2 ADD SWAP1 PUSH2 0x116 SWAP2 SWAP1 PUSH2 0x116B JUMP JUMPDEST PUSH2 0x8DC JUMP JUMPDEST PUSH1 0x40 MLOAD PUSH2 0x12A SWAP4 SWAP3 SWAP2 SWAP1 PUSH2 0x136A JUMP JUMPDEST PUSH1 0x40 MLOAD DUP1 SWAP2 SUB SWAP1 RETURN JUMPDEST CALLVALUE DUP1 ISZERO PUSH2 0x13F JUMPI PUSH1 0x0 DUP1 REVERT JUMPDEST POP PUSH2 0x15A PUSH1 0x4 DUP1 CALLDATASIZE SUB DUP2 ADD SWAP1 PUSH2 0x155 SWAP2 SWAP1 PUSH2 0x113E JUMP JUMPDEST PUSH2 0x913 JUMP JUMPDEST PUSH1 0x40 MLOAD PUSH2 0x16A SWAP5 SWAP4 SWAP3 SWAP2 SWAP1 PUSH2 0x131E JUMP JUMPDEST PUSH1 0x40 MLOAD DUP1 SWAP2 SUB SWAP1 RETURN JUMPDEST PUSH2 0x18D PUSH1 0x4 DUP1 CALLDATASIZE SUB DUP2 ADD SWAP1 PUSH2 0x188 SWAP2 SWAP1 PUSH2 0x113E JUMP JUMPDEST PUSH2 0x9D8 JUMP JUMPDEST STOP JUMPDEST CALLVALUE DUP1 ISZERO PUSH2 0x19B JUMPI PUSH1 0x0 DUP1 REVERT JUMPDEST POP PUSH2 0x1B6 PUSH1 0x4 DUP1 CALLDATASIZE SUB DUP2 ADD SWAP1 PUSH2 0x1B1 SWAP2 SWAP1 PUSH2 0x11AB JUMP JUMPDEST PUSH2 0xCCF JUMP JUMPDEST STOP JUMPDEST CALLVALUE DUP1 ISZERO PUSH2 0x1C4 JUMPI PUSH1 0x0 DUP1 REVERT JUMPDEST POP PUSH2 0x1DF PUSH1 0x4 DUP1 CALLDATASIZE SUB DUP2 ADD SWAP1 PUSH2 0x1DA SWAP2 SWAP1 PUSH2 0x113E JUMP JUMPDEST PUSH2 0xDE5 JUMP JUMPDEST PUSH1 0x40 MLOAD PUSH2 0x1EC SWAP2 SWAP1 PUSH2 0x12B8 JUMP JUMPDEST PUSH1 0x40 MLOAD DUP1 SWAP2 SUB SWAP1 RETURN JUMPDEST CALLVALUE DUP1 ISZERO PUSH2 0x201 JUMPI PUSH1 0x0 DUP1 REVERT JUMPDEST POP PUSH2 0x21C PUSH1 0x4 DUP1 CALLDATASIZE SUB DUP2 ADD SWAP1 PUSH2 0x217 SWAP2 SWAP1 PUSH2 0x109D JUMP JUMPDEST PUSH2 0xE91 JUMP JUMPDEST PUSH1 0x40 MLOAD PUSH2 0x229 SWAP2 SWAP1 PUSH2 0x12DA JUMP JUMPDEST PUSH1 0x40 MLOAD DUP1 SWAP2 SUB SWAP1 RETURN JUMPDEST PUSH1 0x0 DUP1 SLOAD SWAP1 PUSH2 0x100 EXP SWAP1 DIV PUSH20 0xFFFFFFFFFFFFFFFFFFFFFFFFFFFFFFFFFFFFFFFF AND PUSH20 0xFFFFFFFFFFFFFFFFFFFFFFFFFFFFFFFFFFFFFFFF AND CALLER PUSH20 0xFFFFFFFFFFFFFFFFFFFFFFFFFFFFFFFFFFFFFFFF AND EQ PUSH2 0x2B7 JUMPI PUSH1 0x40 MLOAD PUSH32 0x55098F2700000000000000000000000000000000000000000000000000000000 DUP2 MSTORE PUSH1 0x4 ADD PUSH1 0x40 MLOAD DUP1 SWAP2 SUB SWAP1 REVERT JUMPDEST PUSH1 0x3 DUP5 DUP5 PUSH1 0x40 MLOAD PUSH2 0x2C9 SWAP3 SWAP2 SWAP1 PUSH2 0x128A JUMP JUMPDEST SWAP1 DUP2 MSTORE PUSH1 0x20 ADD PUSH1 0x40 MLOAD DUP1 SWAP2 SUB SWAP1 KECCAK256 PUSH1 0x0 SWAP1 SLOAD SWAP1 PUSH2 0x100 EXP SWAP1 DIV PUSH1 0xFF AND PUSH2 0x44D JUMPI PUSH2 0x2F1 PUSH2 0xEA9 JUMP JUMPDEST DUP3 DUP2 PUSH1 0x0 ADD DUP2 DUP2 MSTORE POP POP DUP2 DUP2 PUSH1 0x20 ADD DUP2 DUP2 MSTORE POP POP DUP5 DUP5 DUP1 DUP1 PUSH1 0x1F ADD PUSH1 0x20 DUP1 SWAP2 DIV MUL PUSH1 0x20 ADD PUSH1 0x40 MLOAD SWAP1 DUP2 ADD PUSH1 0x40 MSTORE DUP1 SWAP4 SWAP3 SWAP2 SWAP1 DUP2 DUP2 MSTORE PUSH1 0x20 ADD DUP4 DUP4 DUP1 DUP3 DUP5 CALLDATACOPY PUSH1 0x0 DUP2 DUP5 ADD MSTORE PUSH1 0x1F NOT PUSH1 0x1F DUP3 ADD AND SWAP1 POP DUP1 DUP4 ADD SWAP3 POP POP POP POP POP POP POP DUP2 PUSH1 0x40 ADD DUP2 SWAP1 MSTORE POP PUSH1 0x1 DUP2 PUSH1 0x60 ADD SWAP1 ISZERO ISZERO SWAP1 DUP2 ISZERO ISZERO DUP2 MSTORE POP POP DUP1 PUSH1 0x2 PUSH1 0x0 PUSH1 0x1 DUP1 SLOAD SWAP1 POP DUP2 MSTORE PUSH1 0x20 ADD SWAP1 DUP2 MSTORE PUSH1 0x20 ADD PUSH1 0x0 KECCAK256 PUSH1 0x0 DUP3 ADD MLOAD DUP2 PUSH1 0x0 ADD SSTORE PUSH1 0x20 DUP3 ADD MLOAD DUP2 PUSH1 0x1 ADD SSTORE PUSH1 0x40 DUP3 ADD MLOAD DUP2 PUSH1 0x2 ADD SWAP1 DUP1 MLOAD SWAP1 PUSH1 0x20 ADD SWAP1 PUSH2 0x3AC SWAP3 SWAP2 SWAP1 PUSH2 0xED3 JUMP JUMPDEST POP PUSH1 0x60 DUP3 ADD MLOAD DUP2 PUSH1 0x3 ADD PUSH1 0x0 PUSH2 0x100 EXP DUP2 SLOAD DUP2 PUSH1 0xFF MUL NOT AND SWAP1 DUP4 ISZERO ISZERO MUL OR SWAP1 SSTORE POP SWAP1 POP POP PUSH1 0x1 PUSH1 0x3 DUP7 DUP7 PUSH1 0x40 MLOAD PUSH2 0x3E4 SWAP3 SWAP2 SWAP1 PUSH2 0x128A JUMP JUMPDEST SWAP1 DUP2 MSTORE PUSH1 0x20 ADD PUSH1 0x40 MLOAD DUP1 SWAP2 SUB SWAP1 KECCAK256 PUSH1 0x0 PUSH2 0x100 EXP DUP2 SLOAD DUP2 PUSH1 0xFF MUL NOT AND SWAP1 DUP4 ISZERO ISZERO MUL OR SWAP1 SSTORE POP PUSH1 0x1 DUP6 DUP6 SWAP1 SWAP2 DUP1 PUSH1 0x1 DUP2 SLOAD ADD DUP1 DUP3 SSTORE DUP1 SWAP2 POP POP PUSH1 0x1 SWAP1 SUB SWAP1 PUSH1 0x0 MSTORE PUSH1 0x20 PUSH1 0x0 KECCAK256 ADD PUSH1 0x0 SWAP1 SWAP2 SWAP3 SWAP1 SWAP2 SWAP3 SWAP1 SWAP2 SWAP3 SWAP1 SWAP2 SWAP3 POP SWAP2 SWAP1 PUSH2 0x446 SWAP3 SWAP2 SWAP1 PUSH2 0xF59 JUMP JUMPDEST POP POP PUSH2 0x47F JUMP JUMPDEST PUSH1 0x40 MLOAD PUSH32 0xB185DF3A00000000000000000000000000000000000000000000000000000000 DUP2 MSTORE PUSH1 0x4 ADD PUSH1 0x40 MLOAD DUP1 SWAP2 SUB SWAP1 REVERT JUMPDEST POP POP POP POP JUMP JUMPDEST PUSH1 0x1 PUSH1 0x4 PUSH1 0x0 DUP4 DUP2 MSTORE PUSH1 0x20 ADD SWAP1 DUP2 MSTORE PUSH1 0x20 ADD PUSH1 0x0 KECCAK256 PUSH1 0x0 CALLER PUSH20 0xFFFFFFFFFFFFFFFFFFFFFFFFFFFFFFFFFFFFFFFF AND PUSH20 0xFFFFFFFFFFFFFFFFFFFFFFFFFFFFFFFFFFFFFFFF AND DUP2 MSTORE PUSH1 0x20 ADD SWAP1 DUP2 MSTORE PUSH1 0x20 ADD PUSH1 0x0 KECCAK256 PUSH1 0x2 ADD SLOAD EQ ISZERO PUSH2 0x6E3 JUMPI PUSH1 0x0 PUSH1 0x4 PUSH1 0x0 DUP4 DUP2 MSTORE PUSH1 0x20 ADD SWAP1 DUP2 MSTORE PUSH1 0x20 ADD PUSH1 0x0 KECCAK256 PUSH1 0x0 CALLER PUSH20 0xFFFFFFFFFFFFFFFFFFFFFFFFFFFFFFFFFFFFFFFF AND PUSH20 0xFFFFFFFFFFFFFFFFFFFFFFFFFFFFFFFFFFFFFFFF AND DUP2 MSTORE PUSH1 0x20 ADD SWAP1 DUP2 MSTORE PUSH1 0x20 ADD PUSH1 0x0 KECCAK256 PUSH1 0x40 MLOAD DUP1 PUSH1 0x60 ADD PUSH1 0x40 MSTORE SWAP1 DUP2 PUSH1 0x0 DUP3 ADD SLOAD DUP2 MSTORE PUSH1 0x20 ADD PUSH1 0x1 DUP3 ADD SLOAD DUP2 MSTORE PUSH1 0x20 ADD PUSH1 0x2 DUP3 ADD SLOAD DUP2 MSTORE POP POP SWAP1 POP PUSH1 0x64 DUP2 PUSH1 0x0 ADD MLOAD NUMBER PUSH2 0x570 SWAP2 SWAP1 PUSH2 0x1429 JUMP JUMPDEST GT ISZERO PUSH2 0x5A8 JUMPI PUSH1 0x40 MLOAD PUSH32 0x6E9BEB2100000000000000000000000000000000000000000000000000000000 DUP2 MSTORE PUSH1 0x4 ADD PUSH1 0x40 MLOAD DUP1 SWAP2 SUB SWAP1 REVERT JUMPDEST PUSH1 0x2 PUSH1 0x4 PUSH1 0x0 DUP5 DUP2 MSTORE PUSH1 0x20 ADD SWAP1 DUP2 MSTORE PUSH1 0x20 ADD PUSH1 0x0 KECCAK256 PUSH1 0x0 CALLER PUSH20 0xFFFFFFFFFFFFFFFFFFFFFFFFFFFFFFFFFFFFFFFF AND PUSH20 0xFFFFFFFFFFFFFFFFFFFFFFFFFFFFFFFFFFFFFFFF AND DUP2 MSTORE PUSH1 0x20 ADD SWAP1 DUP2 MSTORE PUSH1 0x20 ADD PUSH1 0x0 KECCAK256 PUSH1 0x2 ADD DUP2 SWAP1 SSTORE POP PUSH1 0x2 PUSH1 0x0 DUP4 DUP2 MSTORE PUSH1 0x20 ADD SWAP1 DUP2 MSTORE PUSH1 0x20 ADD PUSH1 0x0 KECCAK256 PUSH1 0x1 ADD PUSH1 0x0 DUP2 SLOAD DUP1 SWAP3 SWAP2 SWAP1 PUSH2 0x628 SWAP1 PUSH2 0x1543 JUMP JUMPDEST SWAP2 SWAP1 POP SSTORE POP DUP1 PUSH1 0x20 ADD MLOAD PUSH1 0x5 PUSH1 0x0 CALLER PUSH20 0xFFFFFFFFFFFFFFFFFFFFFFFFFFFFFFFFFFFFFFFF AND PUSH20 0xFFFFFFFFFFFFFFFFFFFFFFFFFFFFFFFFFFFFFFFF AND DUP2 MSTORE PUSH1 0x20 ADD SWAP1 DUP2 MSTORE PUSH1 0x20 ADD PUSH1 0x0 KECCAK256 PUSH1 0x0 DUP3 DUP3 SLOAD PUSH2 0x680 SWAP2 SWAP1 PUSH2 0x13D3 JUMP JUMPDEST SWAP3 POP POP DUP2 SWAP1 SSTORE POP CALLER PUSH20 0xFFFFFFFFFFFFFFFFFFFFFFFFFFFFFFFFFFFFFFFF AND PUSH32 0xE9843D242CDCB115D3AFD9AB5A425357C91B3AA1DAEF371857091CDC4E5C8BE DUP4 DUP4 PUSH1 0x20 ADD MLOAD TIMESTAMP PUSH1 0x40 MLOAD PUSH2 0x6D5 SWAP4 SWAP3 SWAP2 SWAP1 PUSH2 0x136A JUMP JUMPDEST PUSH1 0x40 MLOAD DUP1 SWAP2 SUB SWAP1 LOG2 POP PUSH2 0x715 JUMP JUMPDEST PUSH1 0x40 MLOAD PUSH32 0xC55091DF00000000000000000000000000000000000000000000000000000000 DUP2 MSTORE PUSH1 0x4 ADD PUSH1 0x40 MLOAD DUP1 SWAP2 SUB SWAP1 REVERT JUMPDEST POP JUMP JUMPDEST PUSH1 0x0 PUSH1 0x5 PUSH1 0x0 CALLER PUSH20 0xFFFFFFFFFFFFFFFFFFFFFFFFFFFFFFFFFFFFFFFF AND PUSH20 0xFFFFFFFFFFFFFFFFFFFFFFFFFFFFFFFFFFFFFFFF AND DUP2 MSTORE PUSH1 0x20 ADD SWAP1 DUP2 MSTORE PUSH1 0x20 ADD PUSH1 0x0 KECCAK256 SLOAD GT ISZERO PUSH2 0x8A8 JUMPI PUSH1 0x0 PUSH1 0x5 PUSH1 0x0 CALLER PUSH20 0xFFFFFFFFFFFFFFFFFFFFFFFFFFFFFFFFFFFFFFFF AND PUSH20 0xFFFFFFFFFFFFFFFFFFFFFFFFFFFFFFFFFFFFFFFF AND DUP2 MSTORE PUSH1 0x20 ADD SWAP1 DUP2 MSTORE PUSH1 0x20 ADD PUSH1 0x0 KECCAK256 SLOAD SWAP1 POP PUSH1 0x0 PUSH1 0x5 PUSH1 0x0 CALLER PUSH20 0xFFFFFFFFFFFFFFFFFFFFFFFFFFFFFFFFFFFFFFFF AND PUSH20 0xFFFFFFFFFFFFFFFFFFFFFFFFFFFFFFFFFFFFFFFF AND DUP2 MSTORE PUSH1 0x20 ADD SWAP1 DUP2 MSTORE PUSH1 0x20 ADD PUSH1 0x0 KECCAK256 DUP2 SWAP1 SSTORE POP CALLER PUSH20 0xFFFFFFFFFFFFFFFFFFFFFFFFFFFFFFFFFFFFFFFF AND DUP2 PUSH1 0x40 MLOAD PUSH2 0x80D SWAP1 PUSH2 0x12A3 JUMP JUMPDEST PUSH1 0x0 PUSH1 0x40 MLOAD DUP1 DUP4 SUB DUP2 DUP6 DUP8 GAS CALL SWAP3 POP POP POP RETURNDATASIZE DUP1 PUSH1 0x0 DUP2 EQ PUSH2 0x84A JUMPI PUSH1 0x40 MLOAD SWAP2 POP PUSH1 0x1F NOT PUSH1 0x3F RETURNDATASIZE ADD AND DUP3 ADD PUSH1 0x40 MSTORE RETURNDATASIZE DUP3 MSTORE RETURNDATASIZE PUSH1 0x0 PUSH1 0x20 DUP5 ADD RETURNDATACOPY PUSH2 0x84F JUMP JUMPDEST PUSH1 0x60 SWAP2 POP JUMPDEST POP POP POP CALLER PUSH20 0xFFFFFFFFFFFFFFFFFFFFFFFFFFFFFFFFFFFFFFFF AND PUSH32 0x5D58DBDAAB76702FB71954D3BB700396BD3705822F6F3B75B16C689064ABB02D DUP3 TIMESTAMP PUSH1 0x40 MLOAD PUSH2 0x89A SWAP3 SWAP2 SWAP1 PUSH2 0x12F5 JUMP JUMPDEST PUSH1 0x40 MLOAD DUP1 SWAP2 SUB SWAP1 LOG2 POP PUSH2 0x8DA JUMP JUMPDEST PUSH1 0x40 MLOAD PUSH32 0xF76AEF6500000000000000000000000000000000000000000000000000000000 DUP2 MSTORE PUSH1 0x4 ADD PUSH1 0x40 MLOAD DUP1 SWAP2 SUB SWAP1 REVERT JUMPDEST JUMP JUMPDEST PUSH1 0x4 PUSH1 0x20 MSTORE DUP2 PUSH1 0x0 MSTORE PUSH1 0x40 PUSH1 0x0 KECCAK256 PUSH1 0x20 MSTORE DUP1 PUSH1 0x0 MSTORE PUSH1 0x40 PUSH1 0x0 KECCAK256 PUSH1 0x0 SWAP2 POP SWAP2 POP POP DUP1 PUSH1 0x0 ADD SLOAD SWAP1 DUP1 PUSH1 0x1 ADD SLOAD SWAP1 DUP1 PUSH1 0x2 ADD SLOAD SWAP1 POP DUP4 JUMP JUMPDEST PUSH1 0x2 PUSH1 0x20 MSTORE DUP1 PUSH1 0x0 MSTORE PUSH1 0x40 PUSH1 0x0 KECCAK256 PUSH1 0x0 SWAP2 POP SWAP1 POP DUP1 PUSH1 0x0 ADD SLOAD SWAP1 DUP1 PUSH1 0x1 ADD SLOAD SWAP1 DUP1 PUSH1 0x2 ADD DUP1 SLOAD PUSH2 0x942 SWAP1 PUSH2 0x1511 JUMP JUMPDEST DUP1 PUSH1 0x1F ADD PUSH1 0x20 DUP1 SWAP2 DIV MUL PUSH1 0x20 ADD PUSH1 0x40 MLOAD SWAP1 DUP2 ADD PUSH1 0x40 MSTORE DUP1 SWAP3 SWAP2 SWAP1 DUP2 DUP2 MSTORE PUSH1 0x20 ADD DUP3 DUP1 SLOAD PUSH2 0x96E SWAP1 PUSH2 0x1511 JUMP JUMPDEST DUP1 ISZERO PUSH2 0x9BB JUMPI DUP1 PUSH1 0x1F LT PUSH2 0x990 JUMPI PUSH2 0x100 DUP1 DUP4 SLOAD DIV MUL DUP4 MSTORE SWAP2 PUSH1 0x20 ADD SWAP2 PUSH2 0x9BB JUMP JUMPDEST DUP3 ADD SWAP2 SWAP1 PUSH1 0x0 MSTORE PUSH1 0x20 PUSH1 0x0 KECCAK256 SWAP1 JUMPDEST DUP2 SLOAD DUP2 MSTORE SWAP1 PUSH1 0x1 ADD SWAP1 PUSH1 0x20 ADD DUP1 DUP4 GT PUSH2 0x99E JUMPI DUP3 SWAP1 SUB PUSH1 0x1F AND DUP3 ADD SWAP2 JUMPDEST POP POP POP POP POP SWAP1 DUP1 PUSH1 0x3 ADD PUSH1 0x0 SWAP1 SLOAD SWAP1 PUSH2 0x100 EXP SWAP1 DIV PUSH1 0xFF AND SWAP1 POP DUP5 JUMP JUMPDEST PUSH1 0x1 DUP1 SLOAD SWAP1 POP DUP2 LT DUP1 ISZERO PUSH2 0xA40 JUMPI POP PUSH1 0x1 PUSH1 0x4 PUSH1 0x0 DUP4 DUP2 MSTORE PUSH1 0x20 ADD SWAP1 DUP2 MSTORE PUSH1 0x20 ADD PUSH1 0x0 KECCAK256 PUSH1 0x0 CALLER PUSH20 0xFFFFFFFFFFFFFFFFFFFFFFFFFFFFFFFFFFFFFFFF AND PUSH20 0xFFFFFFFFFFFFFFFFFFFFFFFFFFFFFFFFFFFFFFFF AND DUP2 MSTORE PUSH1 0x20 ADD SWAP1 DUP2 MSTORE PUSH1 0x20 ADD PUSH1 0x0 KECCAK256 PUSH1 0x2 ADD SLOAD EQ ISZERO JUMPDEST ISZERO PUSH2 0xC9A JUMPI PUSH1 0x0 PUSH1 0x2 PUSH1 0x0 DUP4 DUP2 MSTORE PUSH1 0x20 ADD SWAP1 DUP2 MSTORE PUSH1 0x20 ADD PUSH1 0x0 KECCAK256 PUSH1 0x40 MLOAD DUP1 PUSH1 0x80 ADD PUSH1 0x40 MSTORE SWAP1 DUP2 PUSH1 0x0 DUP3 ADD SLOAD DUP2 MSTORE PUSH1 0x20 ADD PUSH1 0x1 DUP3 ADD SLOAD DUP2 MSTORE PUSH1 0x20 ADD PUSH1 0x2 DUP3 ADD DUP1 SLOAD PUSH2 0xA89 SWAP1 PUSH2 0x1511 JUMP JUMPDEST DUP1 PUSH1 0x1F ADD PUSH1 0x20 DUP1 SWAP2 DIV MUL PUSH1 0x20 ADD PUSH1 0x40 MLOAD SWAP1 DUP2 ADD PUSH1 0x40 MSTORE DUP1 SWAP3 SWAP2 SWAP1 DUP2 DUP2 MSTORE PUSH1 0x20 ADD DUP3 DUP1 SLOAD PUSH2 0xAB5 SWAP1 PUSH2 0x1511 JUMP JUMPDEST DUP1 ISZERO PUSH2 0xB02 JUMPI DUP1 PUSH1 0x1F LT PUSH2 0xAD7 JUMPI PUSH2 0x100 DUP1 DUP4 SLOAD DIV MUL DUP4 MSTORE SWAP2 PUSH1 0x20 ADD SWAP2 PUSH2 0xB02 JUMP JUMPDEST DUP3 ADD SWAP2 SWAP1 PUSH1 0x0 MSTORE PUSH1 0x20 PUSH1 0x0 KECCAK256 SWAP1 JUMPDEST DUP2 SLOAD DUP2 MSTORE SWAP1 PUSH1 0x1 ADD SWAP1 PUSH1 0x20 ADD DUP1 DUP4 GT PUSH2 0xAE5 JUMPI DUP3 SWAP1 SUB PUSH1 0x1F AND DUP3 ADD SWAP2 JUMPDEST POP POP POP POP POP DUP2 MSTORE PUSH1 0x20 ADD PUSH1 0x3 DUP3 ADD PUSH1 0x0 SWAP1 SLOAD SWAP1 PUSH2 0x100 EXP SWAP1 DIV PUSH1 0xFF AND ISZERO ISZERO ISZERO ISZERO DUP2 MSTORE POP POP SWAP1 POP DUP1 PUSH1 0x0 ADD MLOAD CALLVALUE LT DUP1 PUSH2 0xB3E JUMPI POP PUSH1 0x1 DUP2 PUSH1 0x20 ADD MLOAD LT JUMPDEST ISZERO PUSH2 0xB75 JUMPI PUSH1 0x40 MLOAD PUSH32 0xF80236CC00000000000000000000000000000000000000000000000000000000 DUP2 MSTORE PUSH1 0x4 ADD PUSH1 0x40 MLOAD DUP1 SWAP2 SUB SWAP1 REVERT JUMPDEST PUSH2 0xB7D PUSH2 0xFDF JUMP JUMPDEST NUMBER DUP2 PUSH1 0x0 ADD DUP2 DUP2 MSTORE POP POP DUP2 PUSH1 0x0 ADD MLOAD DUP2 PUSH1 0x20 ADD DUP2 DUP2 MSTORE POP POP PUSH1 0x1 DUP2 PUSH1 0x40 ADD DUP2 DUP2 MSTORE POP POP DUP1 PUSH1 0x4 PUSH1 0x0 DUP6 DUP2 MSTORE PUSH1 0x20 ADD SWAP1 DUP2 MSTORE PUSH1 0x20 ADD PUSH1 0x0 KECCAK256 PUSH1 0x0 CALLER PUSH20 0xFFFFFFFFFFFFFFFFFFFFFFFFFFFFFFFFFFFFFFFF AND PUSH20 0xFFFFFFFFFFFFFFFFFFFFFFFFFFFFFFFFFFFFFFFF AND DUP2 MSTORE PUSH1 0x20 ADD SWAP1 DUP2 MSTORE PUSH1 0x20 ADD PUSH1 0x0 KECCAK256 PUSH1 0x0 DUP3 ADD MLOAD DUP2 PUSH1 0x0 ADD SSTORE PUSH1 0x20 DUP3 ADD MLOAD DUP2 PUSH1 0x1 ADD SSTORE PUSH1 0x40 DUP3 ADD MLOAD DUP2 PUSH1 0x2 ADD SSTORE SWAP1 POP POP PUSH1 0x2 PUSH1 0x0 DUP5 DUP2 MSTORE PUSH1 0x20 ADD SWAP1 DUP2 MSTORE PUSH1 0x20 ADD PUSH1 0x0 KECCAK256 PUSH1 0x1 ADD PUSH1 0x0 DUP2 SLOAD DUP1 SWAP3 SWAP2 SWAP1 PUSH2 0xC39 SWAP1 PUSH2 0x14E7 JUMP JUMPDEST SWAP2 SWAP1 POP SSTORE POP CALLER PUSH20 0xFFFFFFFFFFFFFFFFFFFFFFFFFFFFFFFFFFFFFFFF AND DUP4 PUSH32 0x669D67BB432D7E9516C3668AF7DBBE4387AFF51AB2DC26B0CDDECEBCBB7F2D58 DUP5 PUSH1 0x0 ADD MLOAD TIMESTAMP PUSH1 0x40 MLOAD PUSH2 0xC8B SWAP3 SWAP2 SWAP1 PUSH2 0x12F5 JUMP JUMPDEST PUSH1 0x40 MLOAD DUP1 SWAP2 SUB SWAP1 LOG3 POP POP PUSH2 0xCCC JUMP JUMPDEST PUSH1 0x40 MLOAD PUSH32 0xD42C9B8B00000000000000000000000000000000000000000000000000000000 DUP2 MSTORE PUSH1 0x4 ADD PUSH1 0x40 MLOAD DUP1 SWAP2 SUB SWAP1 REVERT JUMPDEST POP JUMP JUMPDEST PUSH1 0x0 DUP1 SLOAD SWAP1 PUSH2 0x100 EXP SWAP1 DIV PUSH20 0xFFFFFFFFFFFFFFFFFFFFFFFFFFFFFFFFFFFFFFFF AND PUSH20 0xFFFFFFFFFFFFFFFFFFFFFFFFFFFFFFFFFFFFFFFF AND CALLER PUSH20 0xFFFFFFFFFFFFFFFFFFFFFFFFFFFFFFFFFFFFFFFF AND EQ PUSH2 0xD54 JUMPI PUSH1 0x40 MLOAD PUSH32 0x55098F2700000000000000000000000000000000000000000000000000000000 DUP2 MSTORE PUSH1 0x4 ADD PUSH1 0x40 MLOAD DUP1 SWAP2 SUB SWAP1 REVERT JUMPDEST PUSH1 0x2 PUSH1 0x0 DUP4 DUP2 MSTORE PUSH1 0x20 ADD SWAP1 DUP2 MSTORE PUSH1 0x20 ADD PUSH1 0x0 KECCAK256 PUSH1 0x3 ADD PUSH1 0x0 SWAP1 SLOAD SWAP1 PUSH2 0x100 EXP SWAP1 DIV PUSH1 0xFF AND ISZERO PUSH2 0xDAF JUMPI DUP1 PUSH1 0x2 PUSH1 0x0 DUP5 DUP2 MSTORE PUSH1 0x20 ADD SWAP1 DUP2 MSTORE PUSH1 0x20 ADD PUSH1 0x0 KECCAK256 PUSH1 0x1 ADD PUSH1 0x0 DUP3 DUP3 SLOAD PUSH2 0xDA3 SWAP2 SWAP1 PUSH2 0x13D3 JUMP JUMPDEST SWAP3 POP POP DUP2 SWAP1 SSTORE POP PUSH2 0xDE1 JUMP JUMPDEST PUSH1 0x40 MLOAD PUSH32 0x7E8D96A900000000000000000000000000000000000000000000000000000000 DUP2 MSTORE PUSH1 0x4 ADD PUSH1 0x40 MLOAD DUP1 SWAP2 SUB SWAP1 REVERT JUMPDEST POP POP JUMP JUMPDEST PUSH1 0x1 DUP2 DUP2 SLOAD DUP2 LT PUSH2 0xDF5 JUMPI PUSH1 0x0 DUP1 REVERT JUMPDEST SWAP1 PUSH1 0x0 MSTORE PUSH1 0x20 PUSH1 0x0 KECCAK256 ADD PUSH1 0x0 SWAP2 POP SWAP1 POP DUP1 SLOAD PUSH2 0xE10 SWAP1 PUSH2 0x1511 JUMP JUMPDEST DUP1 PUSH1 0x1F ADD PUSH1 0x20 DUP1 SWAP2 DIV MUL PUSH1 0x20 ADD PUSH1 0x40 MLOAD SWAP1 DUP2 ADD PUSH1 0x40 MSTORE DUP1 SWAP3 SWAP2 SWAP1 DUP2 DUP2 MSTORE PUSH1 0x20 ADD DUP3 DUP1 SLOAD PUSH2 0xE3C SWAP1 PUSH2 0x1511 JUMP JUMPDEST DUP1 ISZERO PUSH2 0xE89 JUMPI DUP1 PUSH1 0x1F LT PUSH2 0xE5E JUMPI PUSH2 0x100 DUP1 DUP4 SLOAD DIV MUL DUP4 MSTORE SWAP2 PUSH1 0x20 ADD SWAP2 PUSH2 0xE89 JUMP JUMPDEST DUP3 ADD SWAP2 SWAP1 PUSH1 0x0 MSTORE PUSH1 0x20 PUSH1 0x0 KECCAK256 SWAP1 JUMPDEST DUP2 SLOAD DUP2 MSTORE SWAP1 PUSH1 0x1 ADD SWAP1 PUSH1 0x20 ADD DUP1 DUP4 GT PUSH2 0xE6C JUMPI DUP3 SWAP1 SUB PUSH1 0x1F AND DUP3 ADD SWAP2 JUMPDEST POP POP POP POP POP DUP2 JUMP JUMPDEST PUSH1 0x5 PUSH1 0x20 MSTORE DUP1 PUSH1 0x0 MSTORE PUSH1 0x40 PUSH1 0x0 KECCAK256 PUSH1 0x0 SWAP2 POP SWAP1 POP SLOAD DUP2 JUMP JUMPDEST PUSH1 0x40 MLOAD DUP1 PUSH1 0x80 ADD PUSH1 0x40 MSTORE DUP1 PUSH1 0x0 DUP2 MSTORE PUSH1 0x20 ADD PUSH1 0x0 DUP2 MSTORE PUSH1 0x20 ADD PUSH1 0x60 DUP2 MSTORE PUSH1 0x20 ADD PUSH1 0x0 ISZERO ISZERO DUP2 MSTORE POP SWAP1 JUMP JUMPDEST DUP3 DUP1 SLOAD PUSH2 0xEDF SWAP1 PUSH2 0x1511 JUMP JUMPDEST SWAP1 PUSH1 0x0 MSTORE PUSH1 0x20 PUSH1 0x0 KECCAK256 SWAP1 PUSH1 0x1F ADD PUSH1 0x20 SWAP1 DIV DUP2 ADD SWAP3 DUP3 PUSH2 0xF01 JUMPI PUSH1 0x0 DUP6 SSTORE PUSH2 0xF48 JUMP JUMPDEST DUP3 PUSH1 0x1F LT PUSH2 0xF1A JUMPI DUP1 MLOAD PUSH1 0xFF NOT AND DUP4 DUP1 ADD OR DUP6 SSTORE PUSH2 0xF48 JUMP JUMPDEST DUP3 DUP1 ADD PUSH1 0x1 ADD DUP6 SSTORE DUP3 ISZERO PUSH2 0xF48 JUMPI SWAP2 DUP3 ADD JUMPDEST DUP3 DUP2 GT ISZERO PUSH2 0xF47 JUMPI DUP3 MLOAD DUP3 SSTORE SWAP2 PUSH1 0x20 ADD SWAP2 SWAP1 PUSH1 0x1 ADD SWAP1 PUSH2 0xF2C JUMP JUMPDEST JUMPDEST POP SWAP1 POP PUSH2 0xF55 SWAP2 SWAP1 PUSH2 0x1000 JUMP JUMPDEST POP SWAP1 JUMP JUMPDEST DUP3 DUP1 SLOAD PUSH2 0xF65 SWAP1 PUSH2 0x1511 JUMP JUMPDEST SWAP1 PUSH1 0x0 MSTORE PUSH1 0x20 PUSH1 0x0 KECCAK256 SWAP1 PUSH1 0x1F ADD PUSH1 0x20 SWAP1 DIV DUP2 ADD SWAP3 DUP3 PUSH2 0xF87 JUMPI PUSH1 0x0 DUP6 SSTORE PUSH2 0xFCE JUMP JUMPDEST DUP3 PUSH1 0x1F LT PUSH2 0xFA0 JUMPI DUP1 CALLDATALOAD PUSH1 0xFF NOT AND DUP4 DUP1 ADD OR DUP6 SSTORE PUSH2 0xFCE JUMP JUMPDEST DUP3 DUP1 ADD PUSH1 0x1 ADD DUP6 SSTORE DUP3 ISZERO PUSH2 0xFCE JUMPI SWAP2 DUP3 ADD JUMPDEST DUP3 DUP2 GT ISZERO PUSH2 0xFCD JUMPI DUP3 CALLDATALOAD DUP3 SSTORE SWAP2 PUSH1 0x20 ADD SWAP2 SWAP1 PUSH1 0x1 ADD SWAP1 PUSH2 0xFB2 JUMP JUMPDEST JUMPDEST POP SWAP1 POP PUSH2 0xFDB SWAP2 SWAP1 PUSH2 0x1000 JUMP JUMPDEST POP SWAP1 JUMP JUMPDEST PUSH1 0x40 MLOAD DUP1 PUSH1 0x60 ADD PUSH1 0x40 MSTORE DUP1 PUSH1 0x0 DUP2 MSTORE PUSH1 0x20 ADD PUSH1 0x0 DUP2 MSTORE PUSH1 0x20 ADD PUSH1 0x0 DUP2 MSTORE POP SWAP1 JUMP JUMPDEST JUMPDEST DUP1 DUP3 GT ISZERO PUSH2 0x1019 JUMPI PUSH1 0x0 DUP2 PUSH1 0x0 SWAP1 SSTORE POP PUSH1 0x1 ADD PUSH2 0x1001 JUMP JUMPDEST POP SWAP1 JUMP JUMPDEST PUSH1 0x0 DUP2 CALLDATALOAD SWAP1 POP PUSH2 0x102C DUP2 PUSH2 0x1617 JUMP JUMPDEST SWAP3 SWAP2 POP POP JUMP JUMPDEST PUSH1 0x0 DUP1 DUP4 PUSH1 0x1F DUP5 ADD SLT PUSH2 0x1048 JUMPI PUSH2 0x1047 PUSH2 0x15EF JUMP JUMPDEST JUMPDEST DUP3 CALLDATALOAD SWAP1 POP PUSH8 0xFFFFFFFFFFFFFFFF DUP2 GT ISZERO PUSH2 0x1065 JUMPI PUSH2 0x1064 PUSH2 0x15EA JUMP JUMPDEST JUMPDEST PUSH1 0x20 DUP4 ADD SWAP2 POP DUP4 PUSH1 0x1 DUP3 MUL DUP4 ADD GT ISZERO PUSH2 0x1081 JUMPI PUSH2 0x1080 PUSH2 0x15F4 JUMP JUMPDEST JUMPDEST SWAP3 POP SWAP3 SWAP1 POP JUMP JUMPDEST PUSH1 0x0 DUP2 CALLDATALOAD SWAP1 POP PUSH2 0x1097 DUP2 PUSH2 0x162E JUMP JUMPDEST SWAP3 SWAP2 POP POP JUMP JUMPDEST PUSH1 0x0 PUSH1 0x20 DUP3 DUP5 SUB SLT ISZERO PUSH2 0x10B3 JUMPI PUSH2 0x10B2 PUSH2 0x15FE JUMP JUMPDEST JUMPDEST PUSH1 0x0 PUSH2 0x10C1 DUP5 DUP3 DUP6 ADD PUSH2 0x101D JUMP JUMPDEST SWAP2 POP POP SWAP3 SWAP2 POP POP JUMP JUMPDEST PUSH1 0x0 DUP1 PUSH1 0x0 DUP1 PUSH1 0x60 DUP6 DUP8 SUB SLT ISZERO PUSH2 0x10E4 JUMPI PUSH2 0x10E3 PUSH2 0x15FE JUMP JUMPDEST JUMPDEST PUSH1 0x0 DUP6 ADD CALLDATALOAD PUSH8 0xFFFFFFFFFFFFFFFF DUP2 GT ISZERO PUSH2 0x1102 JUMPI PUSH2 0x1101 PUSH2 0x15F9 JUMP JUMPDEST JUMPDEST PUSH2 0x110E DUP8 DUP3 DUP9 ADD PUSH2 0x1032 JUMP JUMPDEST SWAP5 POP SWAP5 POP POP PUSH1 0x20 PUSH2 0x1121 DUP8 DUP3 DUP9 ADD PUSH2 0x1088 JUMP JUMPDEST SWAP3 POP POP PUSH1 0x40 PUSH2 0x1132 DUP8 DUP3 DUP9 ADD PUSH2 0x1088 JUMP JUMPDEST SWAP2 POP POP SWAP3 SWAP6 SWAP2 SWAP5 POP SWAP3 POP JUMP JUMPDEST PUSH1 0x0 PUSH1 0x20 DUP3 DUP5 SUB SLT ISZERO PUSH2 0x1154 JUMPI PUSH2 0x1153 PUSH2 0x15FE JUMP JUMPDEST JUMPDEST PUSH1 0x0 PUSH2 0x1162 DUP5 DUP3 DUP6 ADD PUSH2 0x1088 JUMP JUMPDEST SWAP2 POP POP SWAP3 SWAP2 POP POP JUMP JUMPDEST PUSH1 0x0 DUP1 PUSH1 0x40 DUP4 DUP6 SUB SLT ISZERO PUSH2 0x1182 JUMPI PUSH2 0x1181 PUSH2 0x15FE JUMP JUMPDEST JUMPDEST PUSH1 0x0 PUSH2 0x1190 DUP6 DUP3 DUP7 ADD PUSH2 0x1088 JUMP JUMPDEST SWAP3 POP POP PUSH1 0x20 PUSH2 0x11A1 DUP6 DUP3 DUP7 ADD PUSH2 0x101D JUMP JUMPDEST SWAP2 POP POP SWAP3 POP SWAP3 SWAP1 POP JUMP JUMPDEST PUSH1 0x0 DUP1 PUSH1 0x40 DUP4 DUP6 SUB SLT ISZERO PUSH2 0x11C2 JUMPI PUSH2 0x11C1 PUSH2 0x15FE JUMP JUMPDEST JUMPDEST PUSH1 0x0 PUSH2 0x11D0 DUP6 DUP3 DUP7 ADD PUSH2 0x1088 JUMP JUMPDEST SWAP3 POP POP PUSH1 0x20 PUSH2 0x11E1 DUP6 DUP3 DUP7 ADD PUSH2 0x1088 JUMP JUMPDEST SWAP2 POP POP SWAP3 POP SWAP3 SWAP1 POP JUMP JUMPDEST PUSH2 0x11F4 DUP2 PUSH2 0x146F JUMP JUMPDEST DUP3 MSTORE POP POP JUMP JUMPDEST PUSH1 0x0 PUSH2 0x1206 DUP4 DUP6 PUSH2 0x13C8 JUMP JUMPDEST SWAP4 POP PUSH2 0x1213 DUP4 DUP6 DUP5 PUSH2 0x14A5 JUMP JUMPDEST DUP3 DUP5 ADD SWAP1 POP SWAP4 SWAP3 POP POP POP JUMP JUMPDEST PUSH1 0x0 PUSH2 0x122A DUP3 PUSH2 0x13A1 JUMP JUMPDEST PUSH2 0x1234 DUP2 DUP6 PUSH2 0x13B7 JUMP JUMPDEST SWAP4 POP PUSH2 0x1244 DUP2 DUP6 PUSH1 0x20 DUP7 ADD PUSH2 0x14B4 JUMP JUMPDEST PUSH2 0x124D DUP2 PUSH2 0x1603 JUMP JUMPDEST DUP5 ADD SWAP2 POP POP SWAP3 SWAP2 POP POP JUMP JUMPDEST PUSH1 0x0 PUSH2 0x1265 PUSH1 0x0 DUP4 PUSH2 0x13AC JUMP JUMPDEST SWAP2 POP PUSH2 0x1270 DUP3 PUSH2 0x1614 JUMP JUMPDEST PUSH1 0x0 DUP3 ADD SWAP1 POP SWAP2 SWAP1 POP JUMP JUMPDEST PUSH2 0x1284 DUP2 PUSH2 0x149B JUMP JUMPDEST DUP3 MSTORE POP POP JUMP JUMPDEST PUSH1 0x0 PUSH2 0x1297 DUP3 DUP5 DUP7 PUSH2 0x11FA JUMP JUMPDEST SWAP2 POP DUP2 SWAP1 POP SWAP4 SWAP3 POP POP POP JUMP JUMPDEST PUSH1 0x0 PUSH2 0x12AE DUP3 PUSH2 0x1258 JUMP JUMPDEST SWAP2 POP DUP2 SWAP1 POP SWAP2 SWAP1 POP JUMP JUMPDEST PUSH1 0x0 PUSH1 0x20 DUP3 ADD SWAP1 POP DUP2 DUP2 SUB PUSH1 0x0 DUP4 ADD MSTORE PUSH2 0x12D2 DUP2 DUP5 PUSH2 0x121F JUMP JUMPDEST SWAP1 POP SWAP3 SWAP2 POP POP JUMP JUMPDEST PUSH1 0x0 PUSH1 0x20 DUP3 ADD SWAP1 POP PUSH2 0x12EF PUSH1 0x0 DUP4 ADD DUP5 PUSH2 0x127B JUMP JUMPDEST SWAP3 SWAP2 POP POP JUMP JUMPDEST PUSH1 0x0 PUSH1 0x40 DUP3 ADD SWAP1 POP PUSH2 0x130A PUSH1 0x0 DUP4 ADD DUP6 PUSH2 0x127B JUMP JUMPDEST PUSH2 0x1317 PUSH1 0x20 DUP4 ADD DUP5 PUSH2 0x127B JUMP JUMPDEST SWAP4 SWAP3 POP POP POP JUMP JUMPDEST PUSH1 0x0 PUSH1 0x80 DUP3 ADD SWAP1 POP PUSH2 0x1333 PUSH1 0x0 DUP4 ADD DUP8 PUSH2 0x127B JUMP JUMPDEST PUSH2 0x1340 PUSH1 0x20 DUP4 ADD DUP7 PUSH2 0x127B JUMP JUMPDEST DUP2 DUP2 SUB PUSH1 0x40 DUP4 ADD MSTORE PUSH2 0x1352 DUP2 DUP6 PUSH2 0x121F JUMP JUMPDEST SWAP1 POP PUSH2 0x1361 PUSH1 0x60 DUP4 ADD DUP5 PUSH2 0x11EB JUMP JUMPDEST SWAP6 SWAP5 POP POP POP POP POP JUMP JUMPDEST PUSH1 0x0 PUSH1 0x60 DUP3 ADD SWAP1 POP PUSH2 0x137F PUSH1 0x0 DUP4 ADD DUP7 PUSH2 0x127B JUMP JUMPDEST PUSH2 0x138C PUSH1 0x20 DUP4 ADD DUP6 PUSH2 0x127B JUMP JUMPDEST PUSH2 0x1399 PUSH1 0x40 DUP4 ADD DUP5 PUSH2 0x127B JUMP JUMPDEST SWAP5 SWAP4 POP POP POP POP JUMP JUMPDEST PUSH1 0x0 DUP2 MLOAD SWAP1 POP SWAP2 SWAP1 POP JUMP JUMPDEST PUSH1 0x0 DUP2 SWAP1 POP SWAP3 SWAP2 POP POP JUMP JUMPDEST PUSH1 0x0 DUP3 DUP3 MSTORE PUSH1 0x20 DUP3 ADD SWAP1 POP SWAP3 SWAP2 POP POP JUMP JUMPDEST PUSH1 0x0 DUP2 SWAP1 POP SWAP3 SWAP2 POP POP JUMP JUMPDEST PUSH1 0x0 PUSH2 0x13DE DUP3 PUSH2 0x149B JUMP JUMPDEST SWAP2 POP PUSH2 0x13E9 DUP4 PUSH2 0x149B JUMP JUMPDEST SWAP3 POP DUP3 PUSH32 0xFFFFFFFFFFFFFFFFFFFFFFFFFFFFFFFFFFFFFFFFFFFFFFFFFFFFFFFFFFFFFFFF SUB DUP3 GT ISZERO PUSH2 0x141E JUMPI PUSH2 0x141D PUSH2 0x158C JUMP JUMPDEST JUMPDEST DUP3 DUP3 ADD SWAP1 POP SWAP3 SWAP2 POP POP JUMP JUMPDEST PUSH1 0x0 PUSH2 0x1434 DUP3 PUSH2 0x149B JUMP JUMPDEST SWAP2 POP PUSH2 0x143F DUP4 PUSH2 0x149B JUMP JUMPDEST SWAP3 POP DUP3 DUP3 LT ISZERO PUSH2 0x1452 JUMPI PUSH2 0x1451 PUSH2 0x158C JUMP JUMPDEST JUMPDEST DUP3 DUP3 SUB SWAP1 POP SWAP3 SWAP2 POP POP JUMP JUMPDEST PUSH1 0x0 PUSH2 0x1468 DUP3 PUSH2 0x147B JUMP JUMPDEST SWAP1 POP SWAP2 SWAP1 POP JUMP JUMPDEST PUSH1 0x0 DUP2 ISZERO ISZERO SWAP1 POP SWAP2 SWAP1 POP JUMP JUMPDEST PUSH1 0x0 PUSH20 0xFFFFFFFFFFFFFFFFFFFFFFFFFFFFFFFFFFFFFFFF DUP3 AND SWAP1 POP SWAP2 SWAP1 POP JUMP JUMPDEST PUSH1 0x0 DUP2 SWAP1 POP SWAP2 SWAP1 POP JUMP JUMPDEST DUP3 DUP2 DUP4 CALLDATACOPY PUSH1 0x0 DUP4 DUP4 ADD MSTORE POP POP POP JUMP JUMPDEST PUSH1 0x0 JUMPDEST DUP4 DUP2 LT ISZERO PUSH2 0x14D2 JUMPI DUP1 DUP3 ADD MLOAD DUP2 DUP5 ADD MSTORE PUSH1 0x20 DUP2 ADD SWAP1 POP PUSH2 0x14B7 JUMP JUMPDEST DUP4 DUP2 GT ISZERO PUSH2 0x14E1 JUMPI PUSH1 0x0 DUP5 DUP5 ADD MSTORE JUMPDEST POP POP POP POP JUMP JUMPDEST PUSH1 0x0 PUSH2 0x14F2 DUP3 PUSH2 0x149B JUMP JUMPDEST SWAP2 POP PUSH1 0x0 DUP3 EQ ISZERO PUSH2 0x1506 JUMPI PUSH2 0x1505 PUSH2 0x158C JUMP JUMPDEST JUMPDEST PUSH1 0x1 DUP3 SUB SWAP1 POP SWAP2 SWAP1 POP JUMP JUMPDEST PUSH1 0x0 PUSH1 0x2 DUP3 DIV SWAP1 POP PUSH1 0x1 DUP3 AND DUP1 PUSH2 0x1529 JUMPI PUSH1 0x7F DUP3 AND SWAP2 POP JUMPDEST PUSH1 0x20 DUP3 LT DUP2 EQ ISZERO PUSH2 0x153D JUMPI PUSH2 0x153C PUSH2 0x15BB JUMP JUMPDEST JUMPDEST POP SWAP2 SWAP1 POP JUMP JUMPDEST PUSH1 0x0 PUSH2 0x154E DUP3 PUSH2 0x149B JUMP JUMPDEST SWAP2 POP PUSH32 0xFFFFFFFFFFFFFFFFFFFFFFFFFFFFFFFFFFFFFFFFFFFFFFFFFFFFFFFFFFFFFFFF DUP3 EQ ISZERO PUSH2 0x1581 JUMPI PUSH2 0x1580 PUSH2 0x158C JUMP JUMPDEST JUMPDEST PUSH1 0x1 DUP3 ADD SWAP1 POP SWAP2 SWAP1 POP JUMP JUMPDEST PUSH32 0x4E487B7100000000000000000000000000000000000000000000000000000000 PUSH1 0x0 MSTORE PUSH1 0x11 PUSH1 0x4 MSTORE PUSH1 0x24 PUSH1 0x0 REVERT JUMPDEST PUSH32 0x4E487B7100000000000000000000000000000000000000000000000000000000 PUSH1 0x0 MSTORE PUSH1 0x22 PUSH1 0x4 MSTORE PUSH1 0x24 PUSH1 0x0 REVERT JUMPDEST PUSH1 0x0 DUP1 REVERT JUMPDEST PUSH1 0x0 DUP1 REVERT JUMPDEST PUSH1 0x0 DUP1 REVERT JUMPDEST PUSH1 0x0 DUP1 REVERT JUMPDEST PUSH1 0x0 DUP1 REVERT JUMPDEST PUSH1 0x0 PUSH1 0x1F NOT PUSH1 0x1F DUP4 ADD AND SWAP1 POP SWAP2 SWAP1 POP JUMP JUMPDEST POP JUMP JUMPDEST PUSH2 0x1620 DUP2 PUSH2 0x145D JUMP JUMPDEST DUP2 EQ PUSH2 0x162B JUMPI PUSH1 0x0 DUP1 REVERT JUMPDEST POP JUMP JUMPDEST PUSH2 0x1637 DUP2 PUSH2 0x149B JUMP JUMPDEST DUP2 EQ PUSH2 0x1642 JUMPI PUSH1 0x0 DUP1 REVERT JUMPDEST POP JUMP INVALID LOG2 PUSH5 0x6970667358 0x22 SLT KECCAK256 PUSH2 0x4ED3 0xC5 OR DUP12 PUSH22 0x4AC2CC7FB87E782E553BFF4804F5772020D8A081A371 0xD4 SWAP5 CODECOPY PUSH5 0x736F6C6343 STOP ADDMOD SMOD STOP CALLER "
				},
				"gasEstimates": {
					"creation": {
						"codeDepositCost": "1151000",
						"executionCost": "28111",
						"totalCost": "1179111"
					},
					"external": {
						"addNewProduct(string,uint256,uint256)": "infinite",
						"addQuantity(uint256,uint256)": "infinite",
						"availableProducts(uint256)": "infinite",
						"buyProduct(uint256)": "infinite",
						"pendingWithdrawals(address)": "2902",
						"products(uint256)": "infinite",
						"returnProduct(uint256)": "infinite",
						"transactions(uint256,address)": "infinite",
						"withdraw()": "infinite"
					}
				},
				"methodIdentifiers": {
					"addNewProduct(string,uint256,uint256)": "0a5bd44b",
					"addQuantity(uint256,uint256)": "9d64871c",
					"availableProducts(uint256)": "e4bcc7d4",
					"buyProduct(uint256)": "8642269e",
					"pendingWithdrawals(address)": "f3f43703",
					"products(uint256)": "7acc0b20",
					"returnProduct(uint256)": "131e407d",
					"transactions(uint256,address)": "74cbc350",
					"withdraw()": "3ccfd60b"
				}
			},
			"storageLayout": {
				"storage": [
					{
						"astId": 260,
						"contract": "Project/TechnoLime.sol:TechnoLimeStore",
						"label": "owner",
						"offset": 0,
						"slot": "0",
						"type": "t_address"
					},
					{
						"astId": 316,
						"contract": "Project/TechnoLime.sol:TechnoLimeStore",
						"label": "availableProducts",
						"offset": 0,
						"slot": "1",
						"type": "t_array(t_string_storage)dyn_storage"
					},
					{
						"astId": 321,
						"contract": "Project/TechnoLime.sol:TechnoLimeStore",
						"label": "products",
						"offset": 0,
						"slot": "2",
						"type": "t_mapping(t_uint256,t_struct(Product)313_storage)"
					},
					{
						"astId": 325,
						"contract": "Project/TechnoLime.sol:TechnoLimeStore",
						"label": "productMap",
						"offset": 0,
						"slot": "3",
						"type": "t_mapping(t_string_memory_ptr,t_bool)"
					},
					{
						"astId": 440,
						"contract": "Project/TechnoLime.sol:TechnoLimeStore",
						"label": "transactions",
						"offset": 0,
						"slot": "4",
						"type": "t_mapping(t_uint256,t_mapping(t_address,t_struct(Transaction)433_storage))"
					},
					{
						"astId": 444,
						"contract": "Project/TechnoLime.sol:TechnoLimeStore",
						"label": "pendingWithdrawals",
						"offset": 0,
						"slot": "5",
						"type": "t_mapping(t_address,t_uint256)"
					}
				],
				"types": {
					"t_address": {
						"encoding": "inplace",
						"label": "address",
						"numberOfBytes": "20"
					},
					"t_array(t_string_storage)dyn_storage": {
						"base": "t_string_storage",
						"encoding": "dynamic_array",
						"label": "string[]",
						"numberOfBytes": "32"
					},
					"t_bool": {
						"encoding": "inplace",
						"label": "bool",
						"numberOfBytes": "1"
					},
					"t_mapping(t_address,t_struct(Transaction)433_storage)": {
						"encoding": "mapping",
						"key": "t_address",
						"label": "mapping(address => struct Transactions.Transaction)",
						"numberOfBytes": "32",
						"value": "t_struct(Transaction)433_storage"
					},
					"t_mapping(t_address,t_uint256)": {
						"encoding": "mapping",
						"key": "t_address",
						"label": "mapping(address => uint256)",
						"numberOfBytes": "32",
						"value": "t_uint256"
					},
					"t_mapping(t_string_memory_ptr,t_bool)": {
						"encoding": "mapping",
						"key": "t_string_memory_ptr",
						"label": "mapping(string => bool)",
						"numberOfBytes": "32",
						"value": "t_bool"
					},
					"t_mapping(t_uint256,t_mapping(t_address,t_struct(Transaction)433_storage))": {
						"encoding": "mapping",
						"key": "t_uint256",
						"label": "mapping(uint256 => mapping(address => struct Transactions.Transaction))",
						"numberOfBytes": "32",
						"value": "t_mapping(t_address,t_struct(Transaction)433_storage)"
					},
					"t_mapping(t_uint256,t_struct(Product)313_storage)": {
						"encoding": "mapping",
						"key": "t_uint256",
						"label": "mapping(uint256 => struct Products.Product)",
						"numberOfBytes": "32",
						"value": "t_struct(Product)313_storage"
					},
					"t_string_memory_ptr": {
						"encoding": "bytes",
						"label": "string",
						"numberOfBytes": "32"
					},
					"t_string_storage": {
						"encoding": "bytes",
						"label": "string",
						"numberOfBytes": "32"
					},
					"t_struct(Product)313_storage": {
						"encoding": "inplace",
						"label": "struct Products.Product",
						"members": [
							{
								"astId": 306,
								"contract": "Project/TechnoLime.sol:TechnoLimeStore",
								"label": "price",
								"offset": 0,
								"slot": "0",
								"type": "t_uint256"
							},
							{
								"astId": 308,
								"contract": "Project/TechnoLime.sol:TechnoLimeStore",
								"label": "quantity",
								"offset": 0,
								"slot": "1",
								"type": "t_uint256"
							},
							{
								"astId": 310,
								"contract": "Project/TechnoLime.sol:TechnoLimeStore",
								"label": "name",
								"offset": 0,
								"slot": "2",
								"type": "t_string_storage"
							},
							{
								"astId": 312,
								"contract": "Project/TechnoLime.sol:TechnoLimeStore",
								"label": "exists",
								"offset": 0,
								"slot": "3",
								"type": "t_bool"
							}
						],
						"numberOfBytes": "128"
					},
					"t_struct(Transaction)433_storage": {
						"encoding": "inplace",
						"label": "struct Transactions.Transaction",
						"members": [
							{
								"astId": 428,
								"contract": "Project/TechnoLime.sol:TechnoLimeStore",
								"label": "blockNum",
								"offset": 0,
								"slot": "0",
								"type": "t_uint256"
							},
							{
								"astId": 430,
								"contract": "Project/TechnoLime.sol:TechnoLimeStore",
								"label": "price",
								"offset": 0,
								"slot": "1",
								"type": "t_uint256"
							},
							{
								"astId": 432,
								"contract": "Project/TechnoLime.sol:TechnoLimeStore",
								"label": "status",
								"offset": 0,
								"slot": "2",
								"type": "t_uint256"
							}
						],
						"numberOfBytes": "96"
					},
					"t_uint256": {
						"encoding": "inplace",
						"label": "uint256",
						"numberOfBytes": "32"
					}
				}
			},
			"userdoc": {
				"errors": {
					"Blocks100Exceeded()": [
						{
							"notice": "More than 100 blocks have passed since the product has been bought"
						}
					],
					"ItemIdWrongOrBoughtAlready()": [
						{
							"notice": "Error trown when the productID doesn't exist or it has been bought once already"
						}
					],
					"LessThanPriceOrOutOfStock()": [
						{
							"notice": "Error trown when money sent is less than Product price"
						}
					],
					"NotAnAdmin()": [
						{
							"notice": "This address is not an admin"
						}
					],
					"NotAnEOA()": [
						{
							"notice": "This address of the owner mus belong to an EOA, not a smart contract"
						}
					],
					"NothingToRefund()": [
						{
							"notice": "No products returned or Buyer already refunded"
						}
					],
					"ProductExists()": [
						{
							"notice": "Can't add a product that already exists"
						}
					],
					"ProductNotExistent()": [
						{
							"notice": "Product doesn't exist"
						}
					],
					"TransactionNotExistent()": [
						{
							"notice": "Transaction doesn't exist"
						}
					]
				},
				"kind": "user",
				"methods": {},
				"version": 1
			}
		}
	}
}